{
	"receive_ether_practice.sol": {
		"ReceiveEtherTracker": {
			"abi": [
				{
					"anonymous": false,
					"inputs": [
						{
							"indexed": false,
							"internalType": "string",
							"name": "",
							"type": "string"
						}
					],
					"name": "ab",
					"type": "event"
				},
				{
					"inputs": [
						{
							"internalType": "address payable",
							"name": "a",
							"type": "address"
						},
						{
							"internalType": "uint256",
							"name": "amount",
							"type": "uint256"
						}
					],
					"name": "abc",
					"outputs": [],
					"stateMutability": "payable",
					"type": "function"
				},
				{
					"inputs": [],
					"name": "gettotalamount",
					"outputs": [
						{
							"internalType": "uint256",
							"name": "",
							"type": "uint256"
						}
					],
					"stateMutability": "view",
					"type": "function"
				},
				{
					"inputs": [],
					"name": "totalreceivedether",
					"outputs": [
						{
							"internalType": "uint256",
							"name": "",
							"type": "uint256"
						}
					],
					"stateMutability": "view",
					"type": "function"
				},
				{
					"stateMutability": "payable",
					"type": "receive"
				}
			],
			"devdoc": {
				"kind": "dev",
				"methods": {},
				"version": 1
			},
			"evm": {
				"assembly": "    /* \"receive_ether_practice.sol\":84:558  contract ReceiveEtherTracker{... */\n  mstore(0x40, 0x80)\n  callvalue\n  dup1\n  iszero\n  tag_1\n  jumpi\n  0x00\n  dup1\n  revert\ntag_1:\n  pop\n  dataSize(sub_0)\n  dup1\n  dataOffset(sub_0)\n  0x00\n  codecopy\n  0x00\n  return\nstop\n\nsub_0: assembly {\n        /* \"receive_ether_practice.sol\":84:558  contract ReceiveEtherTracker{... */\n      mstore(0x40, 0x80)\n      jumpi(tag_1, lt(calldatasize, 0x04))\n      shr(0xe0, calldataload(0x00))\n      dup1\n      0xbdc5ea0b\n      eq\n      tag_3\n      jumpi\n      dup1\n      0xc1e4a6f1\n      eq\n      tag_4\n      jumpi\n      dup1\n      0xe128c6fc\n      eq\n      tag_5\n      jumpi\n      jump(tag_2)\n    tag_1:\n      jumpi(tag_2, calldatasize)\n        /* \"receive_ether_practice.sol\":233:242  msg.value */\n      callvalue\n        /* \"receive_ether_practice.sol\":211:229  totalreceivedether */\n      0x00\n      dup1\n        /* \"receive_ether_practice.sol\":211:242  totalreceivedether += msg.value */\n      dup3\n      dup3\n      sload\n      tag_8\n      swap2\n      swap1\n      tag_9\n      jump\t// in\n    tag_8:\n      swap3\n      pop\n      pop\n      dup2\n      swap1\n      sstore\n      pop\n        /* \"receive_ether_practice.sol\":254:275  ab(\"amount received\") */\n      0x39977c6a3c6cc20ded14ccd5d3b633ffcbba0a7c5777500d2480c097832c9e1a\n      mload(0x40)\n      tag_10\n      swap1\n      tag_11\n      jump\t// in\n    tag_10:\n      mload(0x40)\n      dup1\n      swap2\n      sub\n      swap1\n      log1\n        /* \"receive_ether_practice.sol\":84:558  contract ReceiveEtherTracker{... */\n      stop\n    tag_2:\n      0x00\n      dup1\n      revert\n        /* \"receive_ether_practice.sol\":283:418  function abc(address payable  a,uint256 amount) public payable {... */\n    tag_3:\n      tag_12\n      0x04\n      dup1\n      calldatasize\n      sub\n      dup2\n      add\n      swap1\n      tag_13\n      swap2\n      swap1\n      tag_14\n      jump\t// in\n    tag_13:\n      tag_15\n      jump\t// in\n    tag_12:\n      stop\n        /* \"receive_ether_practice.sol\":422:551  function gettotalamount() public view returns(uint256){... */\n    tag_4:\n      callvalue\n      dup1\n      iszero\n      tag_16\n      jumpi\n      0x00\n      dup1\n      revert\n    tag_16:\n      pop\n      tag_17\n      tag_18\n      jump\t// in\n    tag_17:\n      mload(0x40)\n      tag_19\n      swap2\n      swap1\n      tag_20\n      jump\t// in\n    tag_19:\n      mload(0x40)\n      dup1\n      swap2\n      sub\n      swap1\n      return\n        /* \"receive_ether_practice.sol\":117:150  uint256 public totalreceivedether */\n    tag_5:\n      callvalue\n      dup1\n      iszero\n      tag_21\n      jumpi\n      0x00\n      dup1\n      revert\n    tag_21:\n      pop\n      tag_22\n      tag_23\n      jump\t// in\n    tag_22:\n      mload(0x40)\n      tag_24\n      swap2\n      swap1\n      tag_20\n      jump\t// in\n    tag_24:\n      mload(0x40)\n      dup1\n      swap2\n      sub\n      swap1\n      return\n        /* \"receive_ether_practice.sol\":283:418  function abc(address payable  a,uint256 amount) public payable {... */\n    tag_15:\n        /* \"receive_ether_practice.sol\":352:364  bool success */\n      0x00\n        /* \"receive_ether_practice.sol\":369:370  a */\n      dup3\n        /* \"receive_ether_practice.sol\":369:375  a.call */\n      0xffffffffffffffffffffffffffffffffffffffff\n      and\n        /* \"receive_ether_practice.sol\":382:388  amount */\n      dup3\n        /* \"receive_ether_practice.sol\":369:393  a.call{value:amount}(\"\") */\n      mload(0x40)\n      tag_26\n      swap1\n      tag_27\n      jump\t// in\n    tag_26:\n      0x00\n      mload(0x40)\n      dup1\n      dup4\n      sub\n      dup2\n      dup6\n      dup8\n      gas\n      call\n      swap3\n      pop\n      pop\n      pop\n      returndatasize\n      dup1\n      0x00\n      dup2\n      eq\n      tag_30\n      jumpi\n      mload(0x40)\n      swap2\n      pop\n      and(add(returndatasize, 0x3f), not(0x1f))\n      dup3\n      add\n      0x40\n      mstore\n      returndatasize\n      dup3\n      mstore\n      returndatasize\n      0x00\n      0x20\n      dup5\n      add\n      returndatacopy\n      jump(tag_29)\n    tag_30:\n      0x60\n      swap2\n      pop\n    tag_29:\n      pop\n        /* \"receive_ether_practice.sol\":351:393  (bool success,) = a.call{value:amount}(\"\") */\n      pop\n      swap1\n      pop\n        /* \"receive_ether_practice.sol\":404:411  success */\n      dup1\n        /* \"receive_ether_practice.sol\":396:412  require(success) */\n      tag_31\n      jumpi\n      0x00\n      dup1\n      revert\n    tag_31:\n        /* \"receive_ether_practice.sol\":346:418  {... */\n      pop\n        /* \"receive_ether_practice.sol\":283:418  function abc(address payable  a,uint256 amount) public payable {... */\n      pop\n      pop\n      jump\t// out\n        /* \"receive_ether_practice.sol\":422:551  function gettotalamount() public view returns(uint256){... */\n    tag_18:\n        /* \"receive_ether_practice.sol\":468:475  uint256 */\n      0x00\n        /* \"receive_ether_practice.sol\":525:543  totalreceivedether */\n      dup1\n      sload\n        /* \"receive_ether_practice.sol\":518:543  return totalreceivedether */\n      swap1\n      pop\n        /* \"receive_ether_practice.sol\":422:551  function gettotalamount() public view returns(uint256){... */\n      swap1\n      jump\t// out\n        /* \"receive_ether_practice.sol\":117:150  uint256 public totalreceivedether */\n    tag_23:\n      sload(0x00)\n      dup2\n      jump\t// out\n        /* \"#utility.yul\":7:84   */\n    tag_33:\n        /* \"#utility.yul\":44:51   */\n      0x00\n        /* \"#utility.yul\":73:78   */\n      dup2\n        /* \"#utility.yul\":62:78   */\n      swap1\n      pop\n        /* \"#utility.yul\":7:84   */\n      swap2\n      swap1\n      pop\n      jump\t// out\n        /* \"#utility.yul\":90:270   */\n    tag_34:\n        /* \"#utility.yul\":138:215   */\n      0x4e487b7100000000000000000000000000000000000000000000000000000000\n        /* \"#utility.yul\":135:136   */\n      0x00\n        /* \"#utility.yul\":128:216   */\n      mstore\n        /* \"#utility.yul\":235:239   */\n      0x11\n        /* \"#utility.yul\":232:233   */\n      0x04\n        /* \"#utility.yul\":225:240   */\n      mstore\n        /* \"#utility.yul\":259:263   */\n      0x24\n        /* \"#utility.yul\":256:257   */\n      0x00\n        /* \"#utility.yul\":249:264   */\n      revert\n        /* \"#utility.yul\":276:467   */\n    tag_9:\n        /* \"#utility.yul\":316:319   */\n      0x00\n        /* \"#utility.yul\":335:355   */\n      tag_55\n        /* \"#utility.yul\":353:354   */\n      dup3\n        /* \"#utility.yul\":335:355   */\n      tag_33\n      jump\t// in\n    tag_55:\n        /* \"#utility.yul\":330:355   */\n      swap2\n      pop\n        /* \"#utility.yul\":369:389   */\n      tag_56\n        /* \"#utility.yul\":387:388   */\n      dup4\n        /* \"#utility.yul\":369:389   */\n      tag_33\n      jump\t// in\n    tag_56:\n        /* \"#utility.yul\":364:389   */\n      swap3\n      pop\n        /* \"#utility.yul\":412:413   */\n      dup3\n        /* \"#utility.yul\":409:410   */\n      dup3\n        /* \"#utility.yul\":405:414   */\n      add\n        /* \"#utility.yul\":398:414   */\n      swap1\n      pop\n        /* \"#utility.yul\":433:436   */\n      dup1\n        /* \"#utility.yul\":430:431   */\n      dup3\n        /* \"#utility.yul\":427:437   */\n      gt\n        /* \"#utility.yul\":424:460   */\n      iszero\n      tag_57\n      jumpi\n        /* \"#utility.yul\":440:458   */\n      tag_58\n      tag_34\n      jump\t// in\n    tag_58:\n        /* \"#utility.yul\":424:460   */\n    tag_57:\n        /* \"#utility.yul\":276:467   */\n      swap3\n      swap2\n      pop\n      pop\n      jump\t// out\n        /* \"#utility.yul\":473:642   */\n    tag_35:\n        /* \"#utility.yul\":557:568   */\n      0x00\n        /* \"#utility.yul\":591:597   */\n      dup3\n        /* \"#utility.yul\":586:589   */\n      dup3\n        /* \"#utility.yul\":579:598   */\n      mstore\n        /* \"#utility.yul\":631:635   */\n      0x20\n        /* \"#utility.yul\":626:629   */\n      dup3\n        /* \"#utility.yul\":622:636   */\n      add\n        /* \"#utility.yul\":607:636   */\n      swap1\n      pop\n        /* \"#utility.yul\":473:642   */\n      swap3\n      swap2\n      pop\n      pop\n      jump\t// out\n        /* \"#utility.yul\":648:813   */\n    tag_36:\n        /* \"#utility.yul\":788:805   */\n      0x616d6f756e742072656365697665640000000000000000000000000000000000\n        /* \"#utility.yul\":784:785   */\n      0x00\n        /* \"#utility.yul\":776:782   */\n      dup3\n        /* \"#utility.yul\":772:786   */\n      add\n        /* \"#utility.yul\":765:806   */\n      mstore\n        /* \"#utility.yul\":648:813   */\n      pop\n      jump\t// out\n        /* \"#utility.yul\":819:1185   */\n    tag_37:\n        /* \"#utility.yul\":961:964   */\n      0x00\n        /* \"#utility.yul\":982:1049   */\n      tag_62\n        /* \"#utility.yul\":1046:1048   */\n      0x0f\n        /* \"#utility.yul\":1041:1044   */\n      dup4\n        /* \"#utility.yul\":982:1049   */\n      tag_35\n      jump\t// in\n    tag_62:\n        /* \"#utility.yul\":975:1049   */\n      swap2\n      pop\n        /* \"#utility.yul\":1058:1151   */\n      tag_63\n        /* \"#utility.yul\":1147:1150   */\n      dup3\n        /* \"#utility.yul\":1058:1151   */\n      tag_36\n      jump\t// in\n    tag_63:\n        /* \"#utility.yul\":1176:1178   */\n      0x20\n        /* \"#utility.yul\":1171:1174   */\n      dup3\n        /* \"#utility.yul\":1167:1179   */\n      add\n        /* \"#utility.yul\":1160:1179   */\n      swap1\n      pop\n        /* \"#utility.yul\":819:1185   */\n      swap2\n      swap1\n      pop\n      jump\t// out\n        /* \"#utility.yul\":1191:1610   */\n    tag_11:\n        /* \"#utility.yul\":1357:1361   */\n      0x00\n        /* \"#utility.yul\":1395:1397   */\n      0x20\n        /* \"#utility.yul\":1384:1393   */\n      dup3\n        /* \"#utility.yul\":1380:1398   */\n      add\n        /* \"#utility.yul\":1372:1398   */\n      swap1\n      pop\n        /* \"#utility.yul\":1444:1453   */\n      dup2\n        /* \"#utility.yul\":1438:1442   */\n      dup2\n        /* \"#utility.yul\":1434:1454   */\n      sub\n        /* \"#utility.yul\":1430:1431   */\n      0x00\n        /* \"#utility.yul\":1419:1428   */\n      dup4\n        /* \"#utility.yul\":1415:1432   */\n      add\n        /* \"#utility.yul\":1408:1455   */\n      mstore\n        /* \"#utility.yul\":1472:1603   */\n      tag_65\n        /* \"#utility.yul\":1598:1602   */\n      dup2\n        /* \"#utility.yul\":1472:1603   */\n      tag_37\n      jump\t// in\n    tag_65:\n        /* \"#utility.yul\":1464:1603   */\n      swap1\n      pop\n        /* \"#utility.yul\":1191:1610   */\n      swap2\n      swap1\n      pop\n      jump\t// out\n        /* \"#utility.yul\":1697:1814   */\n    tag_39:\n        /* \"#utility.yul\":1806:1807   */\n      0x00\n        /* \"#utility.yul\":1803:1804   */\n      dup1\n        /* \"#utility.yul\":1796:1808   */\n      revert\n        /* \"#utility.yul\":1943:2069   */\n    tag_41:\n        /* \"#utility.yul\":1980:1987   */\n      0x00\n        /* \"#utility.yul\":2020:2062   */\n      0xffffffffffffffffffffffffffffffffffffffff\n        /* \"#utility.yul\":2013:2018   */\n      dup3\n        /* \"#utility.yul\":2009:2063   */\n      and\n        /* \"#utility.yul\":1998:2063   */\n      swap1\n      pop\n        /* \"#utility.yul\":1943:2069   */\n      swap2\n      swap1\n      pop\n      jump\t// out\n        /* \"#utility.yul\":2075:2179   */\n    tag_42:\n        /* \"#utility.yul\":2120:2127   */\n      0x00\n        /* \"#utility.yul\":2149:2173   */\n      tag_71\n        /* \"#utility.yul\":2167:2172   */\n      dup3\n        /* \"#utility.yul\":2149:2173   */\n      tag_41\n      jump\t// in\n    tag_71:\n        /* \"#utility.yul\":2138:2173   */\n      swap1\n      pop\n        /* \"#utility.yul\":2075:2179   */\n      swap2\n      swap1\n      pop\n      jump\t// out\n        /* \"#utility.yul\":2185:2323   */\n    tag_43:\n        /* \"#utility.yul\":2266:2298   */\n      tag_73\n        /* \"#utility.yul\":2292:2297   */\n      dup2\n        /* \"#utility.yul\":2266:2298   */\n      tag_42\n      jump\t// in\n    tag_73:\n        /* \"#utility.yul\":2259:2264   */\n      dup2\n        /* \"#utility.yul\":2256:2299   */\n      eq\n        /* \"#utility.yul\":2246:2317   */\n      tag_74\n      jumpi\n        /* \"#utility.yul\":2313:2314   */\n      0x00\n        /* \"#utility.yul\":2310:2311   */\n      dup1\n        /* \"#utility.yul\":2303:2315   */\n      revert\n        /* \"#utility.yul\":2246:2317   */\n    tag_74:\n        /* \"#utility.yul\":2185:2323   */\n      pop\n      jump\t// out\n        /* \"#utility.yul\":2329:2484   */\n    tag_44:\n        /* \"#utility.yul\":2383:2388   */\n      0x00\n        /* \"#utility.yul\":2421:2427   */\n      dup2\n        /* \"#utility.yul\":2408:2428   */\n      calldataload\n        /* \"#utility.yul\":2399:2428   */\n      swap1\n      pop\n        /* \"#utility.yul\":2437:2478   */\n      tag_76\n        /* \"#utility.yul\":2472:2477   */\n      dup2\n        /* \"#utility.yul\":2437:2478   */\n      tag_43\n      jump\t// in\n    tag_76:\n        /* \"#utility.yul\":2329:2484   */\n      swap3\n      swap2\n      pop\n      pop\n      jump\t// out\n        /* \"#utility.yul\":2490:2612   */\n    tag_45:\n        /* \"#utility.yul\":2563:2587   */\n      tag_78\n        /* \"#utility.yul\":2581:2586   */\n      dup2\n        /* \"#utility.yul\":2563:2587   */\n      tag_33\n      jump\t// in\n    tag_78:\n        /* \"#utility.yul\":2556:2561   */\n      dup2\n        /* \"#utility.yul\":2553:2588   */\n      eq\n        /* \"#utility.yul\":2543:2606   */\n      tag_79\n      jumpi\n        /* \"#utility.yul\":2602:2603   */\n      0x00\n        /* \"#utility.yul\":2599:2600   */\n      dup1\n        /* \"#utility.yul\":2592:2604   */\n      revert\n        /* \"#utility.yul\":2543:2606   */\n    tag_79:\n        /* \"#utility.yul\":2490:2612   */\n      pop\n      jump\t// out\n        /* \"#utility.yul\":2618:2757   */\n    tag_46:\n        /* \"#utility.yul\":2664:2669   */\n      0x00\n        /* \"#utility.yul\":2702:2708   */\n      dup2\n        /* \"#utility.yul\":2689:2709   */\n      calldataload\n        /* \"#utility.yul\":2680:2709   */\n      swap1\n      pop\n        /* \"#utility.yul\":2718:2751   */\n      tag_81\n        /* \"#utility.yul\":2745:2750   */\n      dup2\n        /* \"#utility.yul\":2718:2751   */\n      tag_45\n      jump\t// in\n    tag_81:\n        /* \"#utility.yul\":2618:2757   */\n      swap3\n      swap2\n      pop\n      pop\n      jump\t// out\n        /* \"#utility.yul\":2763:3253   */\n    tag_14:\n        /* \"#utility.yul\":2839:2845   */\n      0x00\n        /* \"#utility.yul\":2847:2853   */\n      dup1\n        /* \"#utility.yul\":2896:2898   */\n      0x40\n        /* \"#utility.yul\":2884:2893   */\n      dup4\n        /* \"#utility.yul\":2875:2882   */\n      dup6\n        /* \"#utility.yul\":2871:2894   */\n      sub\n        /* \"#utility.yul\":2867:2899   */\n      slt\n        /* \"#utility.yul\":2864:2983   */\n      iszero\n      tag_83\n      jumpi\n        /* \"#utility.yul\":2902:2981   */\n      tag_84\n      tag_39\n      jump\t// in\n    tag_84:\n        /* \"#utility.yul\":2864:2983   */\n    tag_83:\n        /* \"#utility.yul\":3022:3023   */\n      0x00\n        /* \"#utility.yul\":3047:3108   */\n      tag_85\n        /* \"#utility.yul\":3100:3107   */\n      dup6\n        /* \"#utility.yul\":3091:3097   */\n      dup3\n        /* \"#utility.yul\":3080:3089   */\n      dup7\n        /* \"#utility.yul\":3076:3098   */\n      add\n        /* \"#utility.yul\":3047:3108   */\n      tag_44\n      jump\t// in\n    tag_85:\n        /* \"#utility.yul\":3037:3108   */\n      swap3\n      pop\n        /* \"#utility.yul\":2993:3118   */\n      pop\n        /* \"#utility.yul\":3157:3159   */\n      0x20\n        /* \"#utility.yul\":3183:3236   */\n      tag_86\n        /* \"#utility.yul\":3228:3235   */\n      dup6\n        /* \"#utility.yul\":3219:3225   */\n      dup3\n        /* \"#utility.yul\":3208:3217   */\n      dup7\n        /* \"#utility.yul\":3204:3226   */\n      add\n        /* \"#utility.yul\":3183:3236   */\n      tag_46\n      jump\t// in\n    tag_86:\n        /* \"#utility.yul\":3173:3236   */\n      swap2\n      pop\n        /* \"#utility.yul\":3128:3246   */\n      pop\n        /* \"#utility.yul\":2763:3253   */\n      swap3\n      pop\n      swap3\n      swap1\n      pop\n      jump\t// out\n        /* \"#utility.yul\":3259:3377   */\n    tag_47:\n        /* \"#utility.yul\":3346:3370   */\n      tag_88\n        /* \"#utility.yul\":3364:3369   */\n      dup2\n        /* \"#utility.yul\":3346:3370   */\n      tag_33\n      jump\t// in\n    tag_88:\n        /* \"#utility.yul\":3341:3344   */\n      dup3\n        /* \"#utility.yul\":3334:3371   */\n      mstore\n        /* \"#utility.yul\":3259:3377   */\n      pop\n      pop\n      jump\t// out\n        /* \"#utility.yul\":3383:3605   */\n    tag_20:\n        /* \"#utility.yul\":3476:3480   */\n      0x00\n        /* \"#utility.yul\":3514:3516   */\n      0x20\n        /* \"#utility.yul\":3503:3512   */\n      dup3\n        /* \"#utility.yul\":3499:3517   */\n      add\n        /* \"#utility.yul\":3491:3517   */\n      swap1\n      pop\n        /* \"#utility.yul\":3527:3598   */\n      tag_90\n        /* \"#utility.yul\":3595:3596   */\n      0x00\n        /* \"#utility.yul\":3584:3593   */\n      dup4\n        /* \"#utility.yul\":3580:3597   */\n      add\n        /* \"#utility.yul\":3571:3577   */\n      dup5\n        /* \"#utility.yul\":3527:3598   */\n      tag_47\n      jump\t// in\n    tag_90:\n        /* \"#utility.yul\":3383:3605   */\n      swap3\n      swap2\n      pop\n      pop\n      jump\t// out\n        /* \"#utility.yul\":3611:3758   */\n    tag_48:\n        /* \"#utility.yul\":3712:3723   */\n      0x00\n        /* \"#utility.yul\":3749:3752   */\n      dup2\n        /* \"#utility.yul\":3734:3752   */\n      swap1\n      pop\n        /* \"#utility.yul\":3611:3758   */\n      swap3\n      swap2\n      pop\n      pop\n      jump\t// out\n        /* \"#utility.yul\":3764:3878   */\n    tag_49:\n      pop\n      jump\t// out\n        /* \"#utility.yul\":3884:4282   */\n    tag_50:\n        /* \"#utility.yul\":4043:4046   */\n      0x00\n        /* \"#utility.yul\":4064:4147   */\n      tag_94\n        /* \"#utility.yul\":4145:4146   */\n      0x00\n        /* \"#utility.yul\":4140:4143   */\n      dup4\n        /* \"#utility.yul\":4064:4147   */\n      tag_48\n      jump\t// in\n    tag_94:\n        /* \"#utility.yul\":4057:4147   */\n      swap2\n      pop\n        /* \"#utility.yul\":4156:4249   */\n      tag_95\n        /* \"#utility.yul\":4245:4248   */\n      dup3\n        /* \"#utility.yul\":4156:4249   */\n      tag_49\n      jump\t// in\n    tag_95:\n        /* \"#utility.yul\":4274:4275   */\n      0x00\n        /* \"#utility.yul\":4269:4272   */\n      dup3\n        /* \"#utility.yul\":4265:4276   */\n      add\n        /* \"#utility.yul\":4258:4276   */\n      swap1\n      pop\n        /* \"#utility.yul\":3884:4282   */\n      swap2\n      swap1\n      pop\n      jump\t// out\n        /* \"#utility.yul\":4288:4667   */\n    tag_27:\n        /* \"#utility.yul\":4472:4475   */\n      0x00\n        /* \"#utility.yul\":4494:4641   */\n      tag_97\n        /* \"#utility.yul\":4637:4640   */\n      dup3\n        /* \"#utility.yul\":4494:4641   */\n      tag_50\n      jump\t// in\n    tag_97:\n        /* \"#utility.yul\":4487:4641   */\n      swap2\n      pop\n        /* \"#utility.yul\":4658:4661   */\n      dup2\n        /* \"#utility.yul\":4651:4661   */\n      swap1\n      pop\n        /* \"#utility.yul\":4288:4667   */\n      swap2\n      swap1\n      pop\n      jump\t// out\n\n    auxdata: 0xa264697066735822122039e87d7a2287cbcba3577156bd2f1a55644db95efe19f77fa4c0b3e1668e71e864736f6c63430008160033\n}\n",
				"bytecode": {
					"linkReferences": {},
					"object": "608060405234801561000f575f80fd5b506103c78061001d5f395ff3fe608060405260043610610037575f3560e01c8063bdc5ea0b1461008e578063c1e4a6f1146100aa578063e128c6fc146100d45761008a565b3661008a57345f8082825461004c91906101b7565b925050819055507f39977c6a3c6cc20ded14ccd5d3b633ffcbba0a7c5777500d2480c097832c9e1a60405161008090610244565b60405180910390a1005b5f80fd5b6100a860048036038101906100a391906102ea565b6100fe565b005b3480156100b5575f80fd5b506100be610174565b6040516100cb9190610337565b60405180910390f35b3480156100df575f80fd5b506100e861017c565b6040516100f59190610337565b60405180910390f35b5f8273ffffffffffffffffffffffffffffffffffffffff16826040516101239061037d565b5f6040518083038185875af1925050503d805f811461015d576040519150601f19603f3d011682016040523d82523d5f602084013e610162565b606091505b505090508061016f575f80fd5b505050565b5f8054905090565b5f5481565b5f819050919050565b7f4e487b71000000000000000000000000000000000000000000000000000000005f52601160045260245ffd5b5f6101c182610181565b91506101cc83610181565b92508282019050808211156101e4576101e361018a565b5b92915050565b5f82825260208201905092915050565b7f616d6f756e7420726563656976656400000000000000000000000000000000005f82015250565b5f61022e600f836101ea565b9150610239826101fa565b602082019050919050565b5f6020820190508181035f83015261025b81610222565b9050919050565b5f80fd5b5f73ffffffffffffffffffffffffffffffffffffffff82169050919050565b5f61028f82610266565b9050919050565b61029f81610285565b81146102a9575f80fd5b50565b5f813590506102ba81610296565b92915050565b6102c981610181565b81146102d3575f80fd5b50565b5f813590506102e4816102c0565b92915050565b5f8060408385031215610300576102ff610262565b5b5f61030d858286016102ac565b925050602061031e858286016102d6565b9150509250929050565b61033181610181565b82525050565b5f60208201905061034a5f830184610328565b92915050565b5f81905092915050565b50565b5f6103685f83610350565b91506103738261035a565b5f82019050919050565b5f6103878261035d565b915081905091905056fea264697066735822122039e87d7a2287cbcba3577156bd2f1a55644db95efe19f77fa4c0b3e1668e71e864736f6c63430008160033",
					"opcodes": "PUSH1 0x80 PUSH1 0x40 MSTORE CALLVALUE DUP1 ISZERO PUSH2 0xF JUMPI PUSH0 DUP1 REVERT JUMPDEST POP PUSH2 0x3C7 DUP1 PUSH2 0x1D PUSH0 CODECOPY PUSH0 RETURN INVALID PUSH1 0x80 PUSH1 0x40 MSTORE PUSH1 0x4 CALLDATASIZE LT PUSH2 0x37 JUMPI PUSH0 CALLDATALOAD PUSH1 0xE0 SHR DUP1 PUSH4 0xBDC5EA0B EQ PUSH2 0x8E JUMPI DUP1 PUSH4 0xC1E4A6F1 EQ PUSH2 0xAA JUMPI DUP1 PUSH4 0xE128C6FC EQ PUSH2 0xD4 JUMPI PUSH2 0x8A JUMP JUMPDEST CALLDATASIZE PUSH2 0x8A JUMPI CALLVALUE PUSH0 DUP1 DUP3 DUP3 SLOAD PUSH2 0x4C SWAP2 SWAP1 PUSH2 0x1B7 JUMP JUMPDEST SWAP3 POP POP DUP2 SWAP1 SSTORE POP PUSH32 0x39977C6A3C6CC20DED14CCD5D3B633FFCBBA0A7C5777500D2480C097832C9E1A PUSH1 0x40 MLOAD PUSH2 0x80 SWAP1 PUSH2 0x244 JUMP JUMPDEST PUSH1 0x40 MLOAD DUP1 SWAP2 SUB SWAP1 LOG1 STOP JUMPDEST PUSH0 DUP1 REVERT JUMPDEST PUSH2 0xA8 PUSH1 0x4 DUP1 CALLDATASIZE SUB DUP2 ADD SWAP1 PUSH2 0xA3 SWAP2 SWAP1 PUSH2 0x2EA JUMP JUMPDEST PUSH2 0xFE JUMP JUMPDEST STOP JUMPDEST CALLVALUE DUP1 ISZERO PUSH2 0xB5 JUMPI PUSH0 DUP1 REVERT JUMPDEST POP PUSH2 0xBE PUSH2 0x174 JUMP JUMPDEST PUSH1 0x40 MLOAD PUSH2 0xCB SWAP2 SWAP1 PUSH2 0x337 JUMP JUMPDEST PUSH1 0x40 MLOAD DUP1 SWAP2 SUB SWAP1 RETURN JUMPDEST CALLVALUE DUP1 ISZERO PUSH2 0xDF JUMPI PUSH0 DUP1 REVERT JUMPDEST POP PUSH2 0xE8 PUSH2 0x17C JUMP JUMPDEST PUSH1 0x40 MLOAD PUSH2 0xF5 SWAP2 SWAP1 PUSH2 0x337 JUMP JUMPDEST PUSH1 0x40 MLOAD DUP1 SWAP2 SUB SWAP1 RETURN JUMPDEST PUSH0 DUP3 PUSH20 0xFFFFFFFFFFFFFFFFFFFFFFFFFFFFFFFFFFFFFFFF AND DUP3 PUSH1 0x40 MLOAD PUSH2 0x123 SWAP1 PUSH2 0x37D JUMP JUMPDEST PUSH0 PUSH1 0x40 MLOAD DUP1 DUP4 SUB DUP2 DUP6 DUP8 GAS CALL SWAP3 POP POP POP RETURNDATASIZE DUP1 PUSH0 DUP2 EQ PUSH2 0x15D JUMPI PUSH1 0x40 MLOAD SWAP2 POP PUSH1 0x1F NOT PUSH1 0x3F RETURNDATASIZE ADD AND DUP3 ADD PUSH1 0x40 MSTORE RETURNDATASIZE DUP3 MSTORE RETURNDATASIZE PUSH0 PUSH1 0x20 DUP5 ADD RETURNDATACOPY PUSH2 0x162 JUMP JUMPDEST PUSH1 0x60 SWAP2 POP JUMPDEST POP POP SWAP1 POP DUP1 PUSH2 0x16F JUMPI PUSH0 DUP1 REVERT JUMPDEST POP POP POP JUMP JUMPDEST PUSH0 DUP1 SLOAD SWAP1 POP SWAP1 JUMP JUMPDEST PUSH0 SLOAD DUP2 JUMP JUMPDEST PUSH0 DUP2 SWAP1 POP SWAP2 SWAP1 POP JUMP JUMPDEST PUSH32 0x4E487B7100000000000000000000000000000000000000000000000000000000 PUSH0 MSTORE PUSH1 0x11 PUSH1 0x4 MSTORE PUSH1 0x24 PUSH0 REVERT JUMPDEST PUSH0 PUSH2 0x1C1 DUP3 PUSH2 0x181 JUMP JUMPDEST SWAP2 POP PUSH2 0x1CC DUP4 PUSH2 0x181 JUMP JUMPDEST SWAP3 POP DUP3 DUP3 ADD SWAP1 POP DUP1 DUP3 GT ISZERO PUSH2 0x1E4 JUMPI PUSH2 0x1E3 PUSH2 0x18A JUMP JUMPDEST JUMPDEST SWAP3 SWAP2 POP POP JUMP JUMPDEST PUSH0 DUP3 DUP3 MSTORE PUSH1 0x20 DUP3 ADD SWAP1 POP SWAP3 SWAP2 POP POP JUMP JUMPDEST PUSH32 0x616D6F756E742072656365697665640000000000000000000000000000000000 PUSH0 DUP3 ADD MSTORE POP JUMP JUMPDEST PUSH0 PUSH2 0x22E PUSH1 0xF DUP4 PUSH2 0x1EA JUMP JUMPDEST SWAP2 POP PUSH2 0x239 DUP3 PUSH2 0x1FA JUMP JUMPDEST PUSH1 0x20 DUP3 ADD SWAP1 POP SWAP2 SWAP1 POP JUMP JUMPDEST PUSH0 PUSH1 0x20 DUP3 ADD SWAP1 POP DUP2 DUP2 SUB PUSH0 DUP4 ADD MSTORE PUSH2 0x25B DUP2 PUSH2 0x222 JUMP JUMPDEST SWAP1 POP SWAP2 SWAP1 POP JUMP JUMPDEST PUSH0 DUP1 REVERT JUMPDEST PUSH0 PUSH20 0xFFFFFFFFFFFFFFFFFFFFFFFFFFFFFFFFFFFFFFFF DUP3 AND SWAP1 POP SWAP2 SWAP1 POP JUMP JUMPDEST PUSH0 PUSH2 0x28F DUP3 PUSH2 0x266 JUMP JUMPDEST SWAP1 POP SWAP2 SWAP1 POP JUMP JUMPDEST PUSH2 0x29F DUP2 PUSH2 0x285 JUMP JUMPDEST DUP2 EQ PUSH2 0x2A9 JUMPI PUSH0 DUP1 REVERT JUMPDEST POP JUMP JUMPDEST PUSH0 DUP2 CALLDATALOAD SWAP1 POP PUSH2 0x2BA DUP2 PUSH2 0x296 JUMP JUMPDEST SWAP3 SWAP2 POP POP JUMP JUMPDEST PUSH2 0x2C9 DUP2 PUSH2 0x181 JUMP JUMPDEST DUP2 EQ PUSH2 0x2D3 JUMPI PUSH0 DUP1 REVERT JUMPDEST POP JUMP JUMPDEST PUSH0 DUP2 CALLDATALOAD SWAP1 POP PUSH2 0x2E4 DUP2 PUSH2 0x2C0 JUMP JUMPDEST SWAP3 SWAP2 POP POP JUMP JUMPDEST PUSH0 DUP1 PUSH1 0x40 DUP4 DUP6 SUB SLT ISZERO PUSH2 0x300 JUMPI PUSH2 0x2FF PUSH2 0x262 JUMP JUMPDEST JUMPDEST PUSH0 PUSH2 0x30D DUP6 DUP3 DUP7 ADD PUSH2 0x2AC JUMP JUMPDEST SWAP3 POP POP PUSH1 0x20 PUSH2 0x31E DUP6 DUP3 DUP7 ADD PUSH2 0x2D6 JUMP JUMPDEST SWAP2 POP POP SWAP3 POP SWAP3 SWAP1 POP JUMP JUMPDEST PUSH2 0x331 DUP2 PUSH2 0x181 JUMP JUMPDEST DUP3 MSTORE POP POP JUMP JUMPDEST PUSH0 PUSH1 0x20 DUP3 ADD SWAP1 POP PUSH2 0x34A PUSH0 DUP4 ADD DUP5 PUSH2 0x328 JUMP JUMPDEST SWAP3 SWAP2 POP POP JUMP JUMPDEST PUSH0 DUP2 SWAP1 POP SWAP3 SWAP2 POP POP JUMP JUMPDEST POP JUMP JUMPDEST PUSH0 PUSH2 0x368 PUSH0 DUP4 PUSH2 0x350 JUMP JUMPDEST SWAP2 POP PUSH2 0x373 DUP3 PUSH2 0x35A JUMP JUMPDEST PUSH0 DUP3 ADD SWAP1 POP SWAP2 SWAP1 POP JUMP JUMPDEST PUSH0 PUSH2 0x387 DUP3 PUSH2 0x35D JUMP JUMPDEST SWAP2 POP DUP2 SWAP1 POP SWAP2 SWAP1 POP JUMP INVALID LOG2 PUSH5 0x6970667358 0x22 SLT KECCAK256 CODECOPY 0xE8 PUSH30 0x7A2287CBCBA3577156BD2F1A55644DB95EFE19F77FA4C0B3E1668E71E864 PUSH20 0x6F6C634300081600330000000000000000000000 "
				},
				"gasEstimates": {
					"creation": {
						"codeDepositCost": "193400",
						"executionCost": "236",
						"totalCost": "193636"
					},
					"external": {
						"abc(address,uint256)": "infinite",
						"gettotalamount()": "2432",
						"totalreceivedether()": "2446"
					}
				},
				"methodIdentifiers": {
					"abc(address,uint256)": "bdc5ea0b",
					"gettotalamount()": "c1e4a6f1",
					"totalreceivedether()": "e128c6fc"
				}
			},
			"storageLayout": {
				"storage": [
					{
						"astId": 3,
						"contract": "receive_ether_practice.sol:ReceiveEtherTracker",
						"label": "totalreceivedether",
						"offset": 0,
						"slot": "0",
						"type": "t_uint256"
					}
				],
				"types": {
					"t_uint256": {
						"encoding": "inplace",
						"label": "uint256",
						"numberOfBytes": "32"
					}
				}
			},
			"userdoc": {
				"kind": "user",
				"methods": {},
				"version": 1
			}
		}
	}
}