{
	"DAPP_Task.sol": {
		"DAPP": {
			"abi": [
				{
					"inputs": [],
					"stateMutability": "nonpayable",
					"type": "constructor"
				},
				{
					"anonymous": false,
					"inputs": [
						{
							"indexed": false,
							"internalType": "address",
							"name": "user",
							"type": "address"
						},
						{
							"indexed": false,
							"internalType": "uint256",
							"name": "id",
							"type": "uint256"
						},
						{
							"indexed": false,
							"internalType": "uint256",
							"name": "amount",
							"type": "uint256"
						}
					],
					"name": "complete",
					"type": "event"
				},
				{
					"anonymous": false,
					"inputs": [
						{
							"indexed": false,
							"internalType": "uint256",
							"name": "id",
							"type": "uint256"
						},
						{
							"indexed": false,
							"internalType": "address",
							"name": "user",
							"type": "address"
						},
						{
							"indexed": false,
							"internalType": "uint256",
							"name": "amount",
							"type": "uint256"
						}
					],
					"name": "contribute",
					"type": "event"
				},
				{
					"anonymous": false,
					"inputs": [
						{
							"indexed": false,
							"internalType": "address",
							"name": "user",
							"type": "address"
						},
						{
							"indexed": false,
							"internalType": "uint256",
							"name": "id",
							"type": "uint256"
						}
					],
					"name": "creat",
					"type": "event"
				},
				{
					"anonymous": false,
					"inputs": [
						{
							"indexed": false,
							"internalType": "string",
							"name": "",
							"type": "string"
						}
					],
					"name": "error",
					"type": "event"
				},
				{
					"anonymous": false,
					"inputs": [
						{
							"indexed": false,
							"internalType": "address",
							"name": "user",
							"type": "address"
						},
						{
							"indexed": false,
							"internalType": "uint256",
							"name": "id",
							"type": "uint256"
						},
						{
							"indexed": false,
							"internalType": "uint256",
							"name": "amount",
							"type": "uint256"
						}
					],
					"name": "refundclaim",
					"type": "event"
				},
				{
					"anonymous": false,
					"inputs": [
						{
							"indexed": false,
							"internalType": "string",
							"name": "",
							"type": "string"
						}
					],
					"name": "show",
					"type": "event"
				},
				{
					"inputs": [
						{
							"internalType": "uint256",
							"name": "user_id",
							"type": "uint256"
						}
					],
					"name": "claim",
					"outputs": [],
					"stateMutability": "nonpayable",
					"type": "function"
				},
				{
					"inputs": [
						{
							"internalType": "uint256",
							"name": "u_id",
							"type": "uint256"
						}
					],
					"name": "completebyadmin",
					"outputs": [],
					"stateMutability": "nonpayable",
					"type": "function"
				},
				{
					"inputs": [],
					"name": "contract_owner",
					"outputs": [
						{
							"internalType": "address",
							"name": "",
							"type": "address"
						}
					],
					"stateMutability": "view",
					"type": "function"
				},
				{
					"inputs": [
						{
							"internalType": "uint256",
							"name": "user_id",
							"type": "uint256"
						}
					],
					"name": "contribution",
					"outputs": [
						{
							"components": [
								{
									"internalType": "string",
									"name": "name",
									"type": "string"
								},
								{
									"internalType": "string",
									"name": "discription",
									"type": "string"
								},
								{
									"internalType": "address",
									"name": "campowner",
									"type": "address"
								},
								{
									"internalType": "uint256",
									"name": "raiseamount",
									"type": "uint256"
								},
								{
									"internalType": "enum DAPP.checkstate",
									"name": "state",
									"type": "uint8"
								}
							],
							"internalType": "struct DAPP.funding",
							"name": "res",
							"type": "tuple"
						}
					],
					"stateMutability": "payable",
					"type": "function"
				},
				{
					"inputs": [
						{
							"internalType": "string",
							"name": "_name",
							"type": "string"
						},
						{
							"internalType": "string",
							"name": "_discription",
							"type": "string"
						}
					],
					"name": "creation",
					"outputs": [],
					"stateMutability": "nonpayable",
					"type": "function"
				},
				{
					"inputs": [],
					"name": "endtime",
					"outputs": [
						{
							"internalType": "uint256",
							"name": "",
							"type": "uint256"
						}
					],
					"stateMutability": "view",
					"type": "function"
				},
				{
					"inputs": [
						{
							"internalType": "uint256",
							"name": "uid",
							"type": "uint256"
						}
					],
					"name": "getdetails",
					"outputs": [
						{
							"components": [
								{
									"internalType": "string",
									"name": "name",
									"type": "string"
								},
								{
									"internalType": "string",
									"name": "discription",
									"type": "string"
								},
								{
									"internalType": "address",
									"name": "campowner",
									"type": "address"
								},
								{
									"internalType": "uint256",
									"name": "raiseamount",
									"type": "uint256"
								},
								{
									"internalType": "enum DAPP.checkstate",
									"name": "state",
									"type": "uint8"
								}
							],
							"internalType": "struct DAPP.funding",
							"name": "",
							"type": "tuple"
						}
					],
					"stateMutability": "view",
					"type": "function"
				},
				{
					"inputs": [],
					"name": "goals",
					"outputs": [
						{
							"internalType": "uint256",
							"name": "",
							"type": "uint256"
						}
					],
					"stateMutability": "view",
					"type": "function"
				},
				{
					"inputs": [],
					"name": "id",
					"outputs": [
						{
							"internalType": "uint256",
							"name": "",
							"type": "uint256"
						}
					],
					"stateMutability": "view",
					"type": "function"
				},
				{
					"inputs": [
						{
							"internalType": "uint256",
							"name": "user_id",
							"type": "uint256"
						}
					],
					"name": "refund",
					"outputs": [],
					"stateMutability": "nonpayable",
					"type": "function"
				},
				{
					"inputs": [
						{
							"internalType": "uint256",
							"name": "user_id",
							"type": "uint256"
						}
					],
					"name": "show_remainingamount",
					"outputs": [
						{
							"internalType": "uint256",
							"name": "",
							"type": "uint256"
						}
					],
					"stateMutability": "view",
					"type": "function"
				},
				{
					"stateMutability": "payable",
					"type": "receive"
				}
			],
			"devdoc": {
				"kind": "dev",
				"methods": {},
				"version": 1
			},
			"evm": {
				"assembly": "    /* \"DAPP_Task.sol\":61:3681  contract DAPP{... */\n  mstore(0x40, 0x80)\n    /* \"DAPP_Task.sol\":449:458  2 minutes */\n  0x78\n    /* \"DAPP_Task.sol\":431:446  block.timestamp */\n  timestamp\n    /* \"DAPP_Task.sol\":431:458  block.timestamp + 2 minutes */\n  tag_1\n  swap2\n  swap1\n  tag_2\n  jump\t// in\ntag_1:\n    /* \"DAPP_Task.sol\":407:458  uint256 public endtime= block.timestamp + 2 minutes */\n  0x01\n  sstore\n    /* \"DAPP_Task.sol\":484:492  20 ether */\n  0x01158e460913d00000\n    /* \"DAPP_Task.sol\":461:492  uint256 public goals = 20 ether */\n  0x02\n  sstore\n    /* \"DAPP_Task.sol\":497:548  constructor(){... */\n  callvalue\n  dup1\n  iszero\n  tag_3\n  jumpi\n  0x00\n  dup1\n  revert\ntag_3:\n  pop\n    /* \"DAPP_Task.sol\":534:544  msg.sender */\n  caller\n    /* \"DAPP_Task.sol\":517:531  contract_owner */\n  0x00\n  dup1\n    /* \"DAPP_Task.sol\":517:544  contract_owner = msg.sender */\n  0x0100\n  exp\n  dup2\n  sload\n  dup2\n  0xffffffffffffffffffffffffffffffffffffffff\n  mul\n  not\n  and\n  swap1\n  dup4\n  0xffffffffffffffffffffffffffffffffffffffff\n  and\n  mul\n  or\n  swap1\n  sstore\n  pop\n    /* \"DAPP_Task.sol\":61:3681  contract DAPP{... */\n  jump(tag_6)\n    /* \"#utility.yul\":7:84   */\ntag_7:\n    /* \"#utility.yul\":44:51   */\n  0x00\n    /* \"#utility.yul\":73:78   */\n  dup2\n    /* \"#utility.yul\":62:78   */\n  swap1\n  pop\n    /* \"#utility.yul\":7:84   */\n  swap2\n  swap1\n  pop\n  jump\t// out\n    /* \"#utility.yul\":90:270   */\ntag_8:\n    /* \"#utility.yul\":138:215   */\n  0x4e487b7100000000000000000000000000000000000000000000000000000000\n    /* \"#utility.yul\":135:136   */\n  0x00\n    /* \"#utility.yul\":128:216   */\n  mstore\n    /* \"#utility.yul\":235:239   */\n  0x11\n    /* \"#utility.yul\":232:233   */\n  0x04\n    /* \"#utility.yul\":225:240   */\n  mstore\n    /* \"#utility.yul\":259:263   */\n  0x24\n    /* \"#utility.yul\":256:257   */\n  0x00\n    /* \"#utility.yul\":249:264   */\n  revert\n    /* \"#utility.yul\":276:467   */\ntag_2:\n    /* \"#utility.yul\":316:319   */\n  0x00\n    /* \"#utility.yul\":335:355   */\n  tag_13\n    /* \"#utility.yul\":353:354   */\n  dup3\n    /* \"#utility.yul\":335:355   */\n  tag_7\n  jump\t// in\ntag_13:\n    /* \"#utility.yul\":330:355   */\n  swap2\n  pop\n    /* \"#utility.yul\":369:389   */\n  tag_14\n    /* \"#utility.yul\":387:388   */\n  dup4\n    /* \"#utility.yul\":369:389   */\n  tag_7\n  jump\t// in\ntag_14:\n    /* \"#utility.yul\":364:389   */\n  swap3\n  pop\n    /* \"#utility.yul\":412:413   */\n  dup3\n    /* \"#utility.yul\":409:410   */\n  dup3\n    /* \"#utility.yul\":405:414   */\n  add\n    /* \"#utility.yul\":398:414   */\n  swap1\n  pop\n    /* \"#utility.yul\":433:436   */\n  dup1\n    /* \"#utility.yul\":430:431   */\n  dup3\n    /* \"#utility.yul\":427:437   */\n  gt\n    /* \"#utility.yul\":424:460   */\n  iszero\n  tag_15\n  jumpi\n    /* \"#utility.yul\":440:458   */\n  tag_16\n  tag_8\n  jump\t// in\ntag_16:\n    /* \"#utility.yul\":424:460   */\ntag_15:\n    /* \"#utility.yul\":276:467   */\n  swap3\n  swap2\n  pop\n  pop\n  jump\t// out\n    /* \"DAPP_Task.sol\":61:3681  contract DAPP{... */\ntag_6:\n  dataSize(sub_0)\n  dup1\n  dataOffset(sub_0)\n  0x00\n  codecopy\n  0x00\n  return\nstop\n\nsub_0: assembly {\n        /* \"DAPP_Task.sol\":61:3681  contract DAPP{... */\n      mstore(0x40, 0x80)\n      jumpi(tag_1, lt(calldatasize, 0x04))\n      shr(0xe0, calldataload(0x00))\n      dup1\n      0x3e608afa\n      gt\n      tag_14\n      jumpi\n      dup1\n      0x3e608afa\n      eq\n      tag_8\n      jumpi\n      dup1\n      0x478a4be5\n      eq\n      tag_9\n      jumpi\n      dup1\n      0x860e4565\n      eq\n      tag_10\n      jumpi\n      dup1\n      0xaf640d0f\n      eq\n      tag_11\n      jumpi\n      dup1\n      0xe8709c40\n      eq\n      tag_12\n      jumpi\n      dup1\n      0xf1ca8bff\n      eq\n      tag_13\n      jumpi\n      jump(tag_2)\n    tag_14:\n      dup1\n      0x10445b2b\n      eq\n      tag_3\n      jumpi\n      dup1\n      0x278ecde1\n      eq\n      tag_4\n      jumpi\n      dup1\n      0x2ca126f8\n      eq\n      tag_5\n      jumpi\n      dup1\n      0x379607f5\n      eq\n      tag_6\n      jumpi\n      dup1\n      0x384f58eb\n      eq\n      tag_7\n      jumpi\n      jump(tag_2)\n    tag_1:\n      jumpi(tag_2, calldatasize)\n        /* \"DAPP_Task.sol\":3157:3193  show(\"amount received successfully\") */\n      0xbe025cd0737d1912c421eb1ace55f3a811fccb8c5a479c1d21f0882dc11c607f\n      mload(0x40)\n      tag_17\n      swap1\n      tag_18\n      jump\t// in\n    tag_17:\n      mload(0x40)\n      dup1\n      swap2\n      sub\n      swap1\n      log1\n        /* \"DAPP_Task.sol\":61:3681  contract DAPP{... */\n      stop\n    tag_2:\n      0x00\n      dup1\n      revert\n        /* \"DAPP_Task.sol\":3201:3309  function getdetails(uint256 uid) external view returns (funding memory) {... */\n    tag_3:\n      callvalue\n      dup1\n      iszero\n      tag_19\n      jumpi\n      0x00\n      dup1\n      revert\n    tag_19:\n      pop\n      tag_20\n      0x04\n      dup1\n      calldatasize\n      sub\n      dup2\n      add\n      swap1\n      tag_21\n      swap2\n      swap1\n      tag_22\n      jump\t// in\n    tag_21:\n      tag_23\n      jump\t// in\n    tag_20:\n      mload(0x40)\n      tag_24\n      swap2\n      swap1\n      tag_25\n      jump\t// in\n    tag_24:\n      mload(0x40)\n      dup1\n      swap2\n      sub\n      swap1\n      return\n        /* \"DAPP_Task.sol\":2663:2964  function refund(uint256 user_id) public  refundallowedtime {... */\n    tag_4:\n      callvalue\n      dup1\n      iszero\n      tag_26\n      jumpi\n      0x00\n      dup1\n      revert\n    tag_26:\n      pop\n      tag_27\n      0x04\n      dup1\n      calldatasize\n      sub\n      dup2\n      add\n      swap1\n      tag_28\n      swap2\n      swap1\n      tag_22\n      jump\t// in\n    tag_28:\n      tag_29\n      jump\t// in\n    tag_27:\n      stop\n        /* \"DAPP_Task.sol\":407:458  uint256 public endtime= block.timestamp + 2 minutes */\n    tag_5:\n      callvalue\n      dup1\n      iszero\n      tag_30\n      jumpi\n      0x00\n      dup1\n      revert\n    tag_30:\n      pop\n      tag_31\n      tag_32\n      jump\t// in\n    tag_31:\n      mload(0x40)\n      tag_33\n      swap2\n      swap1\n      tag_34\n      jump\t// in\n    tag_33:\n      mload(0x40)\n      dup1\n      swap2\n      sub\n      swap1\n      return\n        /* \"DAPP_Task.sol\":2179:2540  function claim(uint256 user_id) public allowedclaim{... */\n    tag_6:\n      callvalue\n      dup1\n      iszero\n      tag_35\n      jumpi\n      0x00\n      dup1\n      revert\n    tag_35:\n      pop\n      tag_36\n      0x04\n      dup1\n      calldatasize\n      sub\n      dup2\n      add\n      swap1\n      tag_37\n      swap2\n      swap1\n      tag_22\n      jump\t// in\n    tag_37:\n      tag_38\n      jump\t// in\n    tag_36:\n      stop\n        /* \"DAPP_Task.sol\":374:404  address public  contract_owner */\n    tag_7:\n      callvalue\n      dup1\n      iszero\n      tag_39\n      jumpi\n      0x00\n      dup1\n      revert\n    tag_39:\n      pop\n      tag_40\n      tag_41\n      jump\t// in\n    tag_40:\n      mload(0x40)\n      tag_42\n      swap2\n      swap1\n      tag_43\n      jump\t// in\n    tag_42:\n      mload(0x40)\n      dup1\n      swap2\n      sub\n      swap1\n      return\n        /* \"DAPP_Task.sol\":2966:3115  function show_remainingamount(uint256 user_id) public view returns (uint256){... */\n    tag_8:\n      callvalue\n      dup1\n      iszero\n      tag_44\n      jumpi\n      0x00\n      dup1\n      revert\n    tag_44:\n      pop\n      tag_45\n      0x04\n      dup1\n      calldatasize\n      sub\n      dup2\n      add\n      swap1\n      tag_46\n      swap2\n      swap1\n      tag_22\n      jump\t// in\n    tag_46:\n      tag_47\n      jump\t// in\n    tag_45:\n      mload(0x40)\n      tag_48\n      swap2\n      swap1\n      tag_34\n      jump\t// in\n    tag_48:\n      mload(0x40)\n      dup1\n      swap2\n      sub\n      swap1\n      return\n        /* \"DAPP_Task.sol\":461:492  uint256 public goals = 20 ether */\n    tag_9:\n      callvalue\n      dup1\n      iszero\n      tag_49\n      jumpi\n      0x00\n      dup1\n      revert\n    tag_49:\n      pop\n      tag_50\n      tag_51\n      jump\t// in\n    tag_50:\n      mload(0x40)\n      tag_52\n      swap2\n      swap1\n      tag_34\n      jump\t// in\n    tag_52:\n      mload(0x40)\n      dup1\n      swap2\n      sub\n      swap1\n      return\n        /* \"DAPP_Task.sol\":1303:1447  function creation(string calldata _name,... */\n    tag_10:\n      callvalue\n      dup1\n      iszero\n      tag_53\n      jumpi\n      0x00\n      dup1\n      revert\n    tag_53:\n      pop\n      tag_54\n      0x04\n      dup1\n      calldatasize\n      sub\n      dup2\n      add\n      swap1\n      tag_55\n      swap2\n      swap1\n      tag_56\n      jump\t// in\n    tag_55:\n      tag_57\n      jump\t// in\n    tag_54:\n      stop\n        /* \"DAPP_Task.sol\":1039:1057  uint256 public  id */\n    tag_11:\n      callvalue\n      dup1\n      iszero\n      tag_58\n      jumpi\n      0x00\n      dup1\n      revert\n    tag_58:\n      pop\n      tag_59\n      tag_60\n      jump\t// in\n    tag_59:\n      mload(0x40)\n      tag_61\n      swap2\n      swap1\n      tag_34\n      jump\t// in\n    tag_61:\n      mload(0x40)\n      dup1\n      swap2\n      sub\n      swap1\n      return\n        /* \"DAPP_Task.sol\":1569:2017  function contribution(uint256 user_id) external payable   allowedtime returns (funding memory res) {... */\n    tag_12:\n      tag_62\n      0x04\n      dup1\n      calldatasize\n      sub\n      dup2\n      add\n      swap1\n      tag_63\n      swap2\n      swap1\n      tag_22\n      jump\t// in\n    tag_63:\n      tag_64\n      jump\t// in\n    tag_62:\n      mload(0x40)\n      tag_65\n      swap2\n      swap1\n      tag_25\n      jump\t// in\n    tag_65:\n      mload(0x40)\n      dup1\n      swap2\n      sub\n      swap1\n      return\n        /* \"DAPP_Task.sol\":3313:3674  function completebyadmin(uint256 u_id) public onlycontractowner{... */\n    tag_13:\n      callvalue\n      dup1\n      iszero\n      tag_66\n      jumpi\n      0x00\n      dup1\n      revert\n    tag_66:\n      pop\n      tag_67\n      0x04\n      dup1\n      calldatasize\n      sub\n      dup2\n      add\n      swap1\n      tag_68\n      swap2\n      swap1\n      tag_22\n      jump\t// in\n    tag_68:\n      tag_69\n      jump\t// in\n    tag_67:\n      stop\n        /* \"DAPP_Task.sol\":3201:3309  function getdetails(uint256 uid) external view returns (funding memory) {... */\n    tag_23:\n        /* \"DAPP_Task.sol\":3257:3271  funding memory */\n      tag_70\n      tag_71\n      jump\t// in\n    tag_70:\n        /* \"DAPP_Task.sol\":3289:3293  fund */\n      0x03\n        /* \"DAPP_Task.sol\":3289:3298  fund[uid] */\n      0x00\n        /* \"DAPP_Task.sol\":3294:3297  uid */\n      dup4\n        /* \"DAPP_Task.sol\":3289:3298  fund[uid] */\n      dup2\n      mstore\n      0x20\n      add\n      swap1\n      dup2\n      mstore\n      0x20\n      add\n      0x00\n      keccak256\n        /* \"DAPP_Task.sol\":3282:3298  return fund[uid] */\n      mload(0x40)\n      dup1\n      0xa0\n      add\n      0x40\n      mstore\n      swap1\n      dup2\n      0x00\n      dup3\n      add\n      dup1\n      sload\n      tag_73\n      swap1\n      tag_74\n      jump\t// in\n    tag_73:\n      dup1\n      0x1f\n      add\n      0x20\n      dup1\n      swap2\n      div\n      mul\n      0x20\n      add\n      mload(0x40)\n      swap1\n      dup2\n      add\n      0x40\n      mstore\n      dup1\n      swap3\n      swap2\n      swap1\n      dup2\n      dup2\n      mstore\n      0x20\n      add\n      dup3\n      dup1\n      sload\n      tag_75\n      swap1\n      tag_74\n      jump\t// in\n    tag_75:\n      dup1\n      iszero\n      tag_76\n      jumpi\n      dup1\n      0x1f\n      lt\n      tag_77\n      jumpi\n      0x0100\n      dup1\n      dup4\n      sload\n      div\n      mul\n      dup4\n      mstore\n      swap2\n      0x20\n      add\n      swap2\n      jump(tag_76)\n    tag_77:\n      dup3\n      add\n      swap2\n      swap1\n      0x00\n      mstore\n      keccak256(0x00, 0x20)\n      swap1\n    tag_78:\n      dup2\n      sload\n      dup2\n      mstore\n      swap1\n      0x01\n      add\n      swap1\n      0x20\n      add\n      dup1\n      dup4\n      gt\n      tag_78\n      jumpi\n      dup3\n      swap1\n      sub\n      0x1f\n      and\n      dup3\n      add\n      swap2\n    tag_76:\n      pop\n      pop\n      pop\n      pop\n      pop\n      dup2\n      mstore\n      0x20\n      add\n      0x01\n      dup3\n      add\n      dup1\n      sload\n      tag_79\n      swap1\n      tag_74\n      jump\t// in\n    tag_79:\n      dup1\n      0x1f\n      add\n      0x20\n      dup1\n      swap2\n      div\n      mul\n      0x20\n      add\n      mload(0x40)\n      swap1\n      dup2\n      add\n      0x40\n      mstore\n      dup1\n      swap3\n      swap2\n      swap1\n      dup2\n      dup2\n      mstore\n      0x20\n      add\n      dup3\n      dup1\n      sload\n      tag_80\n      swap1\n      tag_74\n      jump\t// in\n    tag_80:\n      dup1\n      iszero\n      tag_81\n      jumpi\n      dup1\n      0x1f\n      lt\n      tag_82\n      jumpi\n      0x0100\n      dup1\n      dup4\n      sload\n      div\n      mul\n      dup4\n      mstore\n      swap2\n      0x20\n      add\n      swap2\n      jump(tag_81)\n    tag_82:\n      dup3\n      add\n      swap2\n      swap1\n      0x00\n      mstore\n      keccak256(0x00, 0x20)\n      swap1\n    tag_83:\n      dup2\n      sload\n      dup2\n      mstore\n      swap1\n      0x01\n      add\n      swap1\n      0x20\n      add\n      dup1\n      dup4\n      gt\n      tag_83\n      jumpi\n      dup3\n      swap1\n      sub\n      0x1f\n      and\n      dup3\n      add\n      swap2\n    tag_81:\n      pop\n      pop\n      pop\n      pop\n      pop\n      dup2\n      mstore\n      0x20\n      add\n      0x02\n      dup3\n      add\n      0x00\n      swap1\n      sload\n      swap1\n      0x0100\n      exp\n      swap1\n      div\n      0xffffffffffffffffffffffffffffffffffffffff\n      and\n      0xffffffffffffffffffffffffffffffffffffffff\n      and\n      0xffffffffffffffffffffffffffffffffffffffff\n      and\n      dup2\n      mstore\n      0x20\n      add\n      0x03\n      dup3\n      add\n      sload\n      dup2\n      mstore\n      0x20\n      add\n      0x04\n      dup3\n      add\n      0x00\n      swap1\n      sload\n      swap1\n      0x0100\n      exp\n      swap1\n      div\n      0xff\n      and\n      0x01\n      dup2\n      gt\n      iszero\n      tag_84\n      jumpi\n      tag_85\n      tag_86\n      jump\t// in\n    tag_85:\n    tag_84:\n      0x01\n      dup2\n      gt\n      iszero\n      tag_87\n      jumpi\n      tag_88\n      tag_86\n      jump\t// in\n    tag_88:\n    tag_87:\n      dup2\n      mstore\n      pop\n      pop\n      swap1\n      pop\n        /* \"DAPP_Task.sol\":3201:3309  function getdetails(uint256 uid) external view returns (funding memory) {... */\n      swap2\n      swap1\n      pop\n      jump\t// out\n        /* \"DAPP_Task.sol\":2663:2964  function refund(uint256 user_id) public  refundallowedtime {... */\n    tag_29:\n        /* \"DAPP_Task.sol\":2603:2610  endtime */\n      sload(0x01)\n        /* \"DAPP_Task.sol\":2585:2600  block.timestamp */\n      timestamp\n        /* \"DAPP_Task.sol\":2585:2610  block.timestamp > endtime */\n      gt\n        /* \"DAPP_Task.sol\":2577:2649  require(block.timestamp > endtime ,\"can't refund cuz deadline not meet\") */\n      tag_90\n      jumpi\n      mload(0x40)\n      0x08c379a000000000000000000000000000000000000000000000000000000000\n      dup2\n      mstore\n      0x04\n      add\n      tag_91\n      swap1\n      tag_92\n      jump\t// in\n    tag_91:\n      mload(0x40)\n      dup1\n      swap2\n      sub\n      swap1\n      revert\n    tag_90:\n        /* \"DAPP_Task.sol\":2756:2761  goals */\n      sload(0x02)\n        /* \"DAPP_Task.sol\":2728:2732  fund */\n      0x03\n        /* \"DAPP_Task.sol\":2728:2741  fund[user_id] */\n      0x00\n        /* \"DAPP_Task.sol\":2733:2740  user_id */\n      dup4\n        /* \"DAPP_Task.sol\":2728:2741  fund[user_id] */\n      dup2\n      mstore\n      0x20\n      add\n      swap1\n      dup2\n      mstore\n      0x20\n      add\n      0x00\n      keccak256\n        /* \"DAPP_Task.sol\":2728:2753  fund[user_id].raiseamount */\n      0x03\n      add\n      sload\n        /* \"DAPP_Task.sol\":2728:2761  fund[user_id].raiseamount < goals */\n      lt\n        /* \"DAPP_Task.sol\":2725:2959  if(fund[user_id].raiseamount < goals){... */\n      iszero\n      tag_94\n      jumpi\n        /* \"DAPP_Task.sol\":2775:2789  uint256 amount */\n      0x00\n        /* \"DAPP_Task.sol\":2792:2796  fund */\n      0x03\n        /* \"DAPP_Task.sol\":2792:2805  fund[user_id] */\n      0x00\n        /* \"DAPP_Task.sol\":2797:2804  user_id */\n      dup4\n        /* \"DAPP_Task.sol\":2792:2805  fund[user_id] */\n      dup2\n      mstore\n      0x20\n      add\n      swap1\n      dup2\n      mstore\n      0x20\n      add\n      0x00\n      keccak256\n        /* \"DAPP_Task.sol\":2792:2817  fund[user_id].raiseamount */\n      0x03\n      add\n      sload\n        /* \"DAPP_Task.sol\":2775:2817  uint256 amount = fund[user_id].raiseamount */\n      swap1\n      pop\n        /* \"DAPP_Task.sol\":2832:2842  msg.sender */\n      caller\n        /* \"DAPP_Task.sol\":2824:2852  payable(msg.sender).transfer */\n      0xffffffffffffffffffffffffffffffffffffffff\n      and\n        /* \"DAPP_Task.sol\":2824:2860  payable(msg.sender).transfer(amount) */\n      0x08fc\n        /* \"DAPP_Task.sol\":2853:2859  amount */\n      dup3\n        /* \"DAPP_Task.sol\":2824:2860  payable(msg.sender).transfer(amount) */\n      swap1\n      dup2\n      iszero\n      mul\n      swap1\n      mload(0x40)\n      0x00\n      mload(0x40)\n      dup1\n      dup4\n      sub\n      dup2\n      dup6\n      dup9\n      dup9\n      call\n      swap4\n      pop\n      pop\n      pop\n      pop\n      iszero\n      dup1\n      iszero\n      tag_96\n      jumpi\n      returndatasize\n      0x00\n      dup1\n      returndatacopy\n      revert(0x00, returndatasize)\n    tag_96:\n      pop\n        /* \"DAPP_Task.sol\":2872:2911  refundclaim(msg.sender, user_id,amount) */\n      0x6bcc8e13f2b9cabd8625faa0937688a01aab305f3a921ee1e5fbcff66144fa57\n        /* \"DAPP_Task.sol\":2884:2894  msg.sender */\n      caller\n        /* \"DAPP_Task.sol\":2896:2903  user_id */\n      dup4\n        /* \"DAPP_Task.sol\":2904:2910  amount */\n      dup4\n        /* \"DAPP_Task.sol\":2872:2911  refundclaim(msg.sender, user_id,amount) */\n      mload(0x40)\n      tag_97\n      swap4\n      swap3\n      swap2\n      swap1\n      tag_98\n      jump\t// in\n    tag_97:\n      mload(0x40)\n      dup1\n      swap2\n      sub\n      swap1\n      log1\n        /* \"DAPP_Task.sol\":2762:2915  {... */\n      pop\n        /* \"DAPP_Task.sol\":2725:2959  if(fund[user_id].raiseamount < goals){... */\n      jump(tag_99)\n    tag_94:\n        /* \"DAPP_Task.sol\":2930:2955  revert(\"u can't refund \") */\n      mload(0x40)\n      0x08c379a000000000000000000000000000000000000000000000000000000000\n      dup2\n      mstore\n      0x04\n      add\n      tag_100\n      swap1\n      tag_101\n      jump\t// in\n    tag_100:\n      mload(0x40)\n      dup1\n      swap2\n      sub\n      swap1\n      revert\n        /* \"DAPP_Task.sol\":2725:2959  if(fund[user_id].raiseamount < goals){... */\n    tag_99:\n        /* \"DAPP_Task.sol\":2663:2964  function refund(uint256 user_id) public  refundallowedtime {... */\n      pop\n      jump\t// out\n        /* \"DAPP_Task.sol\":407:458  uint256 public endtime= block.timestamp + 2 minutes */\n    tag_32:\n      sload(0x01)\n      dup2\n      jump\t// out\n        /* \"DAPP_Task.sol\":2179:2540  function claim(uint256 user_id) public allowedclaim{... */\n    tag_38:\n        /* \"DAPP_Task.sol\":2102:2109  endtime */\n      sload(0x01)\n        /* \"DAPP_Task.sol\":2083:2098  block.timestamp */\n      timestamp\n        /* \"DAPP_Task.sol\":2083:2109  block.timestamp >= endtime */\n      lt\n      iszero\n        /* \"DAPP_Task.sol\":2075:2163  require(block.timestamp >= endtime,\"not allowed claiming cuz allowed time is remaining\") */\n      tag_103\n      jumpi\n      mload(0x40)\n      0x08c379a000000000000000000000000000000000000000000000000000000000\n      dup2\n      mstore\n      0x04\n      add\n      tag_104\n      swap1\n      tag_105\n      jump\t// in\n    tag_104:\n      mload(0x40)\n      dup1\n      swap2\n      sub\n      swap1\n      revert\n    tag_103:\n        /* \"DAPP_Task.sol\":2265:2270  goals */\n      sload(0x02)\n        /* \"DAPP_Task.sol\":2236:2240  fund */\n      0x03\n        /* \"DAPP_Task.sol\":2236:2249  fund[user_id] */\n      0x00\n        /* \"DAPP_Task.sol\":2241:2248  user_id */\n      dup4\n        /* \"DAPP_Task.sol\":2236:2249  fund[user_id] */\n      dup2\n      mstore\n      0x20\n      add\n      swap1\n      dup2\n      mstore\n      0x20\n      add\n      0x00\n      keccak256\n        /* \"DAPP_Task.sol\":2236:2261  fund[user_id].raiseamount */\n      0x03\n      add\n      sload\n        /* \"DAPP_Task.sol\":2236:2270  fund[user_id].raiseamount >= goals */\n      lt\n        /* \"DAPP_Task.sol\":2233:2537  if(fund[user_id].raiseamount >= goals){... */\n      tag_107\n      jumpi\n        /* \"DAPP_Task.sol\":2282:2296  uint256 amount */\n      0x00\n        /* \"DAPP_Task.sol\":2299:2303  fund */\n      0x03\n        /* \"DAPP_Task.sol\":2299:2312  fund[user_id] */\n      0x00\n        /* \"DAPP_Task.sol\":2304:2311  user_id */\n      dup4\n        /* \"DAPP_Task.sol\":2299:2312  fund[user_id] */\n      dup2\n      mstore\n      0x20\n      add\n      swap1\n      dup2\n      mstore\n      0x20\n      add\n      0x00\n      keccak256\n        /* \"DAPP_Task.sol\":2299:2324  fund[user_id].raiseamount */\n      0x03\n      add\n      sload\n        /* \"DAPP_Task.sol\":2282:2324  uint256 amount = fund[user_id].raiseamount */\n      swap1\n      pop\n        /* \"DAPP_Task.sol\":2339:2343  fund */\n      0x03\n        /* \"DAPP_Task.sol\":2339:2352  fund[user_id] */\n      0x00\n        /* \"DAPP_Task.sol\":2344:2351  user_id */\n      dup4\n        /* \"DAPP_Task.sol\":2339:2352  fund[user_id] */\n      dup2\n      mstore\n      0x20\n      add\n      swap1\n      dup2\n      mstore\n      0x20\n      add\n      0x00\n      keccak256\n        /* \"DAPP_Task.sol\":2339:2362  fund[user_id].campowner */\n      0x02\n      add\n      0x00\n      swap1\n      sload\n      swap1\n      0x0100\n      exp\n      swap1\n      div\n      0xffffffffffffffffffffffffffffffffffffffff\n      and\n        /* \"DAPP_Task.sol\":2331:2372  payable(fund[user_id].campowner).transfer */\n      0xffffffffffffffffffffffffffffffffffffffff\n      and\n        /* \"DAPP_Task.sol\":2331:2380  payable(fund[user_id].campowner).transfer(amount) */\n      0x08fc\n        /* \"DAPP_Task.sol\":2373:2379  amount */\n      dup3\n        /* \"DAPP_Task.sol\":2331:2380  payable(fund[user_id].campowner).transfer(amount) */\n      swap1\n      dup2\n      iszero\n      mul\n      swap1\n      mload(0x40)\n      0x00\n      mload(0x40)\n      dup1\n      dup4\n      sub\n      dup2\n      dup6\n      dup9\n      dup9\n      call\n      swap4\n      pop\n      pop\n      pop\n      pop\n      iszero\n      dup1\n      iszero\n      tag_109\n      jumpi\n      returndatasize\n      0x00\n      dup1\n      returndatacopy\n      revert(0x00, returndatasize)\n    tag_109:\n      pop\n        /* \"DAPP_Task.sol\":2409:2429  checkstate.completed */\n      0x01\n        /* \"DAPP_Task.sol\":2387:2391  fund */\n      0x03\n        /* \"DAPP_Task.sol\":2387:2400  fund[user_id] */\n      0x00\n        /* \"DAPP_Task.sol\":2392:2399  user_id */\n      dup5\n        /* \"DAPP_Task.sol\":2387:2400  fund[user_id] */\n      dup2\n      mstore\n      0x20\n      add\n      swap1\n      dup2\n      mstore\n      0x20\n      add\n      0x00\n      keccak256\n        /* \"DAPP_Task.sol\":2387:2406  fund[user_id].state */\n      0x04\n      add\n      0x00\n        /* \"DAPP_Task.sol\":2387:2429  fund[user_id].state = checkstate.completed */\n      0x0100\n      exp\n      dup2\n      sload\n      dup2\n      0xff\n      mul\n      not\n      and\n      swap1\n      dup4\n      0x01\n      dup2\n      gt\n      iszero\n      tag_110\n      jumpi\n      tag_111\n      tag_86\n      jump\t// in\n    tag_111:\n    tag_110:\n      mul\n      or\n      swap1\n      sstore\n      pop\n        /* \"DAPP_Task.sol\":2441:2477  complete(msg.sender, user_id,amount) */\n      0x9576942f6783612a1de73784d0a4a99e49ddbc7e59e8fc927cffc1ee5385d236\n        /* \"DAPP_Task.sol\":2450:2460  msg.sender */\n      caller\n        /* \"DAPP_Task.sol\":2462:2469  user_id */\n      dup4\n        /* \"DAPP_Task.sol\":2470:2476  amount */\n      dup4\n        /* \"DAPP_Task.sol\":2441:2477  complete(msg.sender, user_id,amount) */\n      mload(0x40)\n      tag_112\n      swap4\n      swap3\n      swap2\n      swap1\n      tag_98\n      jump\t// in\n    tag_112:\n      mload(0x40)\n      dup1\n      swap2\n      sub\n      swap1\n      log1\n        /* \"DAPP_Task.sol\":2271:2483  {... */\n      pop\n        /* \"DAPP_Task.sol\":2233:2537  if(fund[user_id].raiseamount >= goals){... */\n      jump(tag_113)\n    tag_107:\n        /* \"DAPP_Task.sol\":2496:2533  revert(\"amount is not equal to goal\") */\n      mload(0x40)\n      0x08c379a000000000000000000000000000000000000000000000000000000000\n      dup2\n      mstore\n      0x04\n      add\n      tag_114\n      swap1\n      tag_115\n      jump\t// in\n    tag_114:\n      mload(0x40)\n      dup1\n      swap2\n      sub\n      swap1\n      revert\n        /* \"DAPP_Task.sol\":2233:2537  if(fund[user_id].raiseamount >= goals){... */\n    tag_113:\n        /* \"DAPP_Task.sol\":2179:2540  function claim(uint256 user_id) public allowedclaim{... */\n      pop\n      jump\t// out\n        /* \"DAPP_Task.sol\":374:404  address public  contract_owner */\n    tag_41:\n      0x00\n      dup1\n      sload\n      swap1\n      0x0100\n      exp\n      swap1\n      div\n      0xffffffffffffffffffffffffffffffffffffffff\n      and\n      dup2\n      jump\t// out\n        /* \"DAPP_Task.sol\":2966:3115  function show_remainingamount(uint256 user_id) public view returns (uint256){... */\n    tag_47:\n        /* \"DAPP_Task.sol\":3034:3041  uint256 */\n      0x00\n        /* \"DAPP_Task.sol\":3050:3059  uint256 a */\n      dup1\n        /* \"DAPP_Task.sol\":3070:3074  fund */\n      0x03\n        /* \"DAPP_Task.sol\":3070:3083  fund[user_id] */\n      0x00\n        /* \"DAPP_Task.sol\":3075:3082  user_id */\n      dup5\n        /* \"DAPP_Task.sol\":3070:3083  fund[user_id] */\n      dup2\n      mstore\n      0x20\n      add\n      swap1\n      dup2\n      mstore\n      0x20\n      add\n      0x00\n      keccak256\n        /* \"DAPP_Task.sol\":3070:3095  fund[user_id].raiseamount */\n      0x03\n      add\n      sload\n        /* \"DAPP_Task.sol\":3061:3066  goals */\n      sload(0x02)\n        /* \"DAPP_Task.sol\":3061:3095  goals  - fund[user_id].raiseamount */\n      tag_117\n      swap2\n      swap1\n      tag_118\n      jump\t// in\n    tag_117:\n        /* \"DAPP_Task.sol\":3050:3095  uint256 a= goals  - fund[user_id].raiseamount */\n      swap1\n      pop\n        /* \"DAPP_Task.sol\":3108:3109  a */\n      dup1\n        /* \"DAPP_Task.sol\":3101:3109  return a */\n      swap2\n      pop\n      pop\n        /* \"DAPP_Task.sol\":2966:3115  function show_remainingamount(uint256 user_id) public view returns (uint256){... */\n      swap2\n      swap1\n      pop\n      jump\t// out\n        /* \"DAPP_Task.sol\":461:492  uint256 public goals = 20 ether */\n    tag_51:\n      sload(0x02)\n      dup2\n      jump\t// out\n        /* \"DAPP_Task.sol\":1303:1447  function creation(string calldata _name,... */\n    tag_57:\n        /* \"DAPP_Task.sol\":1385:1414  add_user(_name, _discription) */\n      tag_120\n        /* \"DAPP_Task.sol\":1394:1399  _name */\n      dup4\n      dup4\n        /* \"DAPP_Task.sol\":1401:1413  _discription */\n      dup4\n        /* \"DAPP_Task.sol\":1385:1393  add_user */\n      tag_121\n        /* \"DAPP_Task.sol\":1385:1414  add_user(_name, _discription) */\n      jump\t// in\n    tag_120:\n        /* \"DAPP_Task.sol\":1422:1443  creat(msg.sender, id) */\n      0xc25f73d8066f835a9a93ef7719cc9dfa37651997ad88ea41abe71c77f9209ce7\n        /* \"DAPP_Task.sol\":1428:1438  msg.sender */\n      caller\n        /* \"DAPP_Task.sol\":1440:1442  id */\n      sload(0x04)\n        /* \"DAPP_Task.sol\":1422:1443  creat(msg.sender, id) */\n      mload(0x40)\n      tag_122\n      swap3\n      swap2\n      swap1\n      tag_123\n      jump\t// in\n    tag_122:\n      mload(0x40)\n      dup1\n      swap2\n      sub\n      swap1\n      log1\n        /* \"DAPP_Task.sol\":1303:1447  function creation(string calldata _name,... */\n      pop\n      pop\n      pop\n      jump\t// out\n        /* \"DAPP_Task.sol\":1039:1057  uint256 public  id */\n    tag_60:\n      sload(0x04)\n      dup2\n      jump\t// out\n        /* \"DAPP_Task.sol\":1569:2017  function contribution(uint256 user_id) external payable   allowedtime returns (funding memory res) {... */\n    tag_64:\n        /* \"DAPP_Task.sol\":1648:1666  funding memory res */\n      tag_124\n      tag_71\n      jump\t// in\n    tag_124:\n        /* \"DAPP_Task.sol\":682:689  endtime */\n      sload(0x01)\n        /* \"DAPP_Task.sol\":663:678  block.timestamp */\n      timestamp\n        /* \"DAPP_Task.sol\":663:689  block.timestamp <= endtime */\n      gt\n      iszero\n        /* \"DAPP_Task.sol\":655:733  require(block.timestamp <= endtime,\"transaction are not allowed in this time\") */\n      tag_126\n      jumpi\n      mload(0x40)\n      0x08c379a000000000000000000000000000000000000000000000000000000000\n      dup2\n      mstore\n      0x04\n      add\n      tag_127\n      swap1\n      tag_128\n      jump\t// in\n    tag_127:\n      mload(0x40)\n      dup1\n      swap2\n      sub\n      swap1\n      revert\n    tag_126:\n        /* \"DAPP_Task.sol\":1702:1711  msg.value */\n      callvalue\n        /* \"DAPP_Task.sol\":1673:1677  fund */\n      0x03\n        /* \"DAPP_Task.sol\":1673:1686  fund[user_id] */\n      0x00\n        /* \"DAPP_Task.sol\":1678:1685  user_id */\n      dup5\n        /* \"DAPP_Task.sol\":1673:1686  fund[user_id] */\n      dup2\n      mstore\n      0x20\n      add\n      swap1\n      dup2\n      mstore\n      0x20\n      add\n      0x00\n      keccak256\n        /* \"DAPP_Task.sol\":1673:1698  fund[user_id].raiseamount */\n      0x03\n      add\n      0x00\n        /* \"DAPP_Task.sol\":1673:1711  fund[user_id].raiseamount += msg.value */\n      dup3\n      dup3\n      sload\n      tag_130\n      swap2\n      swap1\n      tag_131\n      jump\t// in\n    tag_130:\n      swap3\n      pop\n      pop\n      dup2\n      swap1\n      sstore\n      pop\n        /* \"DAPP_Task.sol\":1743:1760  checkstate.active */\n      0x00\n        /* \"DAPP_Task.sol\":1722:1760  fund[user_id].state==checkstate.active */\n      0x01\n      dup2\n      gt\n      iszero\n      tag_132\n      jumpi\n      tag_133\n      tag_86\n      jump\t// in\n    tag_133:\n    tag_132:\n        /* \"DAPP_Task.sol\":1722:1726  fund */\n      0x03\n        /* \"DAPP_Task.sol\":1722:1735  fund[user_id] */\n      0x00\n        /* \"DAPP_Task.sol\":1727:1734  user_id */\n      dup5\n        /* \"DAPP_Task.sol\":1722:1735  fund[user_id] */\n      dup2\n      mstore\n      0x20\n      add\n      swap1\n      dup2\n      mstore\n      0x20\n      add\n      0x00\n      keccak256\n        /* \"DAPP_Task.sol\":1722:1741  fund[user_id].state */\n      0x04\n      add\n      0x00\n      swap1\n      sload\n      swap1\n      0x0100\n      exp\n      swap1\n      div\n      0xff\n      and\n        /* \"DAPP_Task.sol\":1722:1760  fund[user_id].state==checkstate.active */\n      0x01\n      dup2\n      gt\n      iszero\n      tag_134\n      jumpi\n      tag_135\n      tag_86\n      jump\t// in\n    tag_135:\n    tag_134:\n      eq\n        /* \"DAPP_Task.sol\":1714:1783  require(fund[user_id].state==checkstate.active,\"sttae is not acrive\") */\n      tag_136\n      jumpi\n      mload(0x40)\n      0x08c379a000000000000000000000000000000000000000000000000000000000\n      dup2\n      mstore\n      0x04\n      add\n      tag_137\n      swap1\n      tag_138\n      jump\t// in\n    tag_137:\n      mload(0x40)\n      dup1\n      swap2\n      sub\n      swap1\n      revert\n    tag_136:\n        /* \"DAPP_Task.sol\":1793:1835  contribute(user_id, msg.sender, msg.value) */\n      0x8952ac1e80fc86d8ccb4c9bb2b1df4ba33b963fdc98de332d4d07a43ddddc462\n        /* \"DAPP_Task.sol\":1804:1811  user_id */\n      dup3\n        /* \"DAPP_Task.sol\":1813:1823  msg.sender */\n      caller\n        /* \"DAPP_Task.sol\":1825:1834  msg.value */\n      callvalue\n        /* \"DAPP_Task.sol\":1793:1835  contribute(user_id, msg.sender, msg.value) */\n      mload(0x40)\n      tag_139\n      swap4\n      swap3\n      swap2\n      swap1\n      tag_140\n      jump\t// in\n    tag_139:\n      mload(0x40)\n      dup1\n      swap2\n      sub\n      swap1\n      log1\n        /* \"DAPP_Task.sol\":1844:1848  this */\n      address\n        /* \"DAPP_Task.sol\":1844:1859  this.getdetails */\n      0xffffffffffffffffffffffffffffffffffffffff\n      and\n      0x10445b2b\n        /* \"DAPP_Task.sol\":1860:1867  user_id */\n      dup4\n        /* \"DAPP_Task.sol\":1844:1868  this.getdetails(user_id) */\n      mload(0x40)\n      dup3\n      0xffffffff\n      and\n      0xe0\n      shl\n      dup2\n      mstore\n      0x04\n      add\n      tag_141\n      swap2\n      swap1\n      tag_34\n      jump\t// in\n    tag_141:\n      0x00\n      mload(0x40)\n      dup1\n      dup4\n      sub\n      dup2\n      dup7\n      gas\n      staticcall\n      swap3\n      pop\n      pop\n      pop\n      dup1\n      iszero\n      tag_142\n      jumpi\n      pop\n      mload(0x40)\n      returndatasize\n      0x00\n      dup3\n      returndatacopy\n      returndatasize\n      not(0x1f)\n      0x1f\n      dup3\n      add\n      and\n      dup3\n      add\n      dup1\n      0x40\n      mstore\n      pop\n      dup2\n      add\n      swap1\n      tag_143\n      swap2\n      swap1\n      tag_144\n      jump\t// in\n    tag_143:\n      0x01\n    tag_142:\n        /* \"DAPP_Task.sol\":1840:1973  try this.getdetails(user_id) returns(funding memory _res){... */\n      tag_145\n      jumpi\n        /* \"DAPP_Task.sol\":1944:1967  error(\"user not found\") */\n      0x24c93343bea44ff8f0e628ca4e5b87dfe0823d664c887457e166a03798bb191c\n      mload(0x40)\n      tag_149\n      swap1\n      tag_150\n      jump\t// in\n    tag_149:\n      mload(0x40)\n      dup1\n      swap2\n      sub\n      swap1\n      log1\n        /* \"DAPP_Task.sol\":1840:1973  try this.getdetails(user_id) returns(funding memory _res){... */\n      jump(tag_151)\n    tag_145:\n        /* \"DAPP_Task.sol\":1914:1918  _res */\n      dup1\n        /* \"DAPP_Task.sol\":1906:1919  return (_res) */\n      swap2\n      pop\n      pop\n      jump(tag_129)\n        /* \"DAPP_Task.sol\":1840:1973  try this.getdetails(user_id) returns(funding memory _res){... */\n    tag_151:\n        /* \"DAPP_Task.sol\":736:737  _ */\n    tag_129:\n        /* \"DAPP_Task.sol\":1569:2017  function contribution(uint256 user_id) external payable   allowedtime returns (funding memory res) {... */\n      swap2\n      swap1\n      pop\n      jump\t// out\n        /* \"DAPP_Task.sol\":3313:3674  function completebyadmin(uint256 u_id) public onlycontractowner{... */\n    tag_69:\n        /* \"DAPP_Task.sol\":603:617  contract_owner */\n      0x00\n      dup1\n      sload\n      swap1\n      0x0100\n      exp\n      swap1\n      div\n      0xffffffffffffffffffffffffffffffffffffffff\n      and\n        /* \"DAPP_Task.sol\":589:617  msg.sender == contract_owner */\n      0xffffffffffffffffffffffffffffffffffffffff\n      and\n        /* \"DAPP_Task.sol\":589:599  msg.sender */\n      caller\n        /* \"DAPP_Task.sol\":589:617  msg.sender == contract_owner */\n      0xffffffffffffffffffffffffffffffffffffffff\n      and\n      eq\n        /* \"DAPP_Task.sol\":581:618  require(msg.sender == contract_owner) */\n      tag_153\n      jumpi\n      0x00\n      dup1\n      revert\n    tag_153:\n        /* \"DAPP_Task.sol\":3410:3415  goals */\n      sload(0x02)\n        /* \"DAPP_Task.sol\":3384:3388  fund */\n      0x03\n        /* \"DAPP_Task.sol\":3384:3394  fund[u_id] */\n      0x00\n        /* \"DAPP_Task.sol\":3389:3393  u_id */\n      dup4\n        /* \"DAPP_Task.sol\":3384:3394  fund[u_id] */\n      dup2\n      mstore\n      0x20\n      add\n      swap1\n      dup2\n      mstore\n      0x20\n      add\n      0x00\n      keccak256\n        /* \"DAPP_Task.sol\":3384:3406  fund[u_id].raiseamount */\n      0x03\n      add\n      sload\n        /* \"DAPP_Task.sol\":3384:3415  fund[u_id].raiseamount >= goals */\n      lt\n        /* \"DAPP_Task.sol\":3381:3667  if(fund[u_id].raiseamount >= goals){... */\n      tag_155\n      jumpi\n        /* \"DAPP_Task.sol\":3427:3438  uint amount */\n      0x00\n        /* \"DAPP_Task.sol\":3441:3445  fund */\n      0x03\n        /* \"DAPP_Task.sol\":3441:3451  fund[u_id] */\n      0x00\n        /* \"DAPP_Task.sol\":3446:3450  u_id */\n      dup4\n        /* \"DAPP_Task.sol\":3441:3451  fund[u_id] */\n      dup2\n      mstore\n      0x20\n      add\n      swap1\n      dup2\n      mstore\n      0x20\n      add\n      0x00\n      keccak256\n        /* \"DAPP_Task.sol\":3441:3463  fund[u_id].raiseamount */\n      0x03\n      add\n      sload\n        /* \"DAPP_Task.sol\":3427:3463  uint amount = fund[u_id].raiseamount */\n      swap1\n      pop\n        /* \"DAPP_Task.sol\":3478:3482  fund */\n      0x03\n        /* \"DAPP_Task.sol\":3478:3488  fund[u_id] */\n      0x00\n        /* \"DAPP_Task.sol\":3483:3487  u_id */\n      dup4\n        /* \"DAPP_Task.sol\":3478:3488  fund[u_id] */\n      dup2\n      mstore\n      0x20\n      add\n      swap1\n      dup2\n      mstore\n      0x20\n      add\n      0x00\n      keccak256\n        /* \"DAPP_Task.sol\":3478:3498  fund[u_id].campowner */\n      0x02\n      add\n      0x00\n      swap1\n      sload\n      swap1\n      0x0100\n      exp\n      swap1\n      div\n      0xffffffffffffffffffffffffffffffffffffffff\n      and\n        /* \"DAPP_Task.sol\":3470:3508  payable(fund[u_id].campowner).transfer */\n      0xffffffffffffffffffffffffffffffffffffffff\n      and\n        /* \"DAPP_Task.sol\":3470:3516  payable(fund[u_id].campowner).transfer(amount) */\n      0x08fc\n        /* \"DAPP_Task.sol\":3509:3515  amount */\n      dup3\n        /* \"DAPP_Task.sol\":3470:3516  payable(fund[u_id].campowner).transfer(amount) */\n      swap1\n      dup2\n      iszero\n      mul\n      swap1\n      mload(0x40)\n      0x00\n      mload(0x40)\n      dup1\n      dup4\n      sub\n      dup2\n      dup6\n      dup9\n      dup9\n      call\n      swap4\n      pop\n      pop\n      pop\n      pop\n      iszero\n      dup1\n      iszero\n      tag_157\n      jumpi\n      returndatasize\n      0x00\n      dup1\n      returndatacopy\n      revert(0x00, returndatasize)\n    tag_157:\n      pop\n        /* \"DAPP_Task.sol\":3542:3562  checkstate.completed */\n      0x01\n        /* \"DAPP_Task.sol\":3523:3527  fund */\n      0x03\n        /* \"DAPP_Task.sol\":3523:3533  fund[u_id] */\n      0x00\n        /* \"DAPP_Task.sol\":3528:3532  u_id */\n      dup5\n        /* \"DAPP_Task.sol\":3523:3533  fund[u_id] */\n      dup2\n      mstore\n      0x20\n      add\n      swap1\n      dup2\n      mstore\n      0x20\n      add\n      0x00\n      keccak256\n        /* \"DAPP_Task.sol\":3523:3539  fund[u_id].state */\n      0x04\n      add\n      0x00\n        /* \"DAPP_Task.sol\":3523:3562  fund[u_id].state = checkstate.completed */\n      0x0100\n      exp\n      dup2\n      sload\n      dup2\n      0xff\n      mul\n      not\n      and\n      swap1\n      dup4\n      0x01\n      dup2\n      gt\n      iszero\n      tag_158\n      jumpi\n      tag_159\n      tag_86\n      jump\t// in\n    tag_159:\n    tag_158:\n      mul\n      or\n      swap1\n      sstore\n      pop\n        /* \"DAPP_Task.sol\":3574:3607  complete(msg.sender, u_id,amount) */\n      0x9576942f6783612a1de73784d0a4a99e49ddbc7e59e8fc927cffc1ee5385d236\n        /* \"DAPP_Task.sol\":3583:3593  msg.sender */\n      caller\n        /* \"DAPP_Task.sol\":3595:3599  u_id */\n      dup4\n        /* \"DAPP_Task.sol\":3600:3606  amount */\n      dup4\n        /* \"DAPP_Task.sol\":3574:3607  complete(msg.sender, u_id,amount) */\n      mload(0x40)\n      tag_160\n      swap4\n      swap3\n      swap2\n      swap1\n      tag_98\n      jump\t// in\n    tag_160:\n      mload(0x40)\n      dup1\n      swap2\n      sub\n      swap1\n      log1\n        /* \"DAPP_Task.sol\":3416:3613  {... */\n      pop\n        /* \"DAPP_Task.sol\":3381:3667  if(fund[u_id].raiseamount >= goals){... */\n      jump(tag_161)\n    tag_155:\n        /* \"DAPP_Task.sol\":3626:3663  revert(\"amount is not equal to goal\") */\n      mload(0x40)\n      0x08c379a000000000000000000000000000000000000000000000000000000000\n      dup2\n      mstore\n      0x04\n      add\n      tag_162\n      swap1\n      tag_115\n      jump\t// in\n    tag_162:\n      mload(0x40)\n      dup1\n      swap2\n      sub\n      swap1\n      revert\n        /* \"DAPP_Task.sol\":3381:3667  if(fund[u_id].raiseamount >= goals){... */\n    tag_161:\n        /* \"DAPP_Task.sol\":3313:3674  function completebyadmin(uint256 u_id) public onlycontractowner{... */\n      pop\n      jump\t// out\n        /* \"DAPP_Task.sol\":1062:1297  function add_user(string calldata _name,... */\n    tag_121:\n        /* \"DAPP_Task.sol\":1155:1286  funding({... */\n      mload(0x40)\n      dup1\n      0xa0\n      add\n      0x40\n      mstore\n      dup1\n        /* \"DAPP_Task.sol\":1173:1178  _name */\n      dup5\n      dup5\n        /* \"DAPP_Task.sol\":1155:1286  funding({... */\n      dup1\n      dup1\n      0x1f\n      add\n      0x20\n      dup1\n      swap2\n      div\n      mul\n      0x20\n      add\n      mload(0x40)\n      swap1\n      dup2\n      add\n      0x40\n      mstore\n      dup1\n      swap4\n      swap3\n      swap2\n      swap1\n      dup2\n      dup2\n      mstore\n      0x20\n      add\n      dup4\n      dup4\n      dup1\n      dup3\n      dup5\n      calldatacopy\n      0x00\n      dup2\n      dup5\n      add\n      mstore\n      not(0x1f)\n      0x1f\n      dup3\n      add\n      and\n      swap1\n      pop\n      dup1\n      dup4\n      add\n      swap3\n      pop\n      pop\n      pop\n      pop\n      pop\n      pop\n      pop\n      dup2\n      mstore\n      0x20\n      add\n        /* \"DAPP_Task.sol\":1195:1207  _discription */\n      dup3\n        /* \"DAPP_Task.sol\":1155:1286  funding({... */\n      dup2\n      mstore\n      0x20\n      add\n        /* \"DAPP_Task.sol\":1222:1232  msg.sender */\n      caller\n        /* \"DAPP_Task.sol\":1155:1286  funding({... */\n      0xffffffffffffffffffffffffffffffffffffffff\n      and\n      dup2\n      mstore\n      0x20\n      add\n        /* \"DAPP_Task.sol\":1249:1250  0 */\n      0x00\n        /* \"DAPP_Task.sol\":1155:1286  funding({... */\n      dup2\n      mstore\n      0x20\n      add\n        /* \"DAPP_Task.sol\":1261:1278  checkstate.active */\n      0x00\n        /* \"DAPP_Task.sol\":1155:1286  funding({... */\n      0x01\n      dup2\n      gt\n      iszero\n      tag_164\n      jumpi\n      tag_165\n      tag_86\n      jump\t// in\n    tag_165:\n    tag_164:\n      dup2\n      mstore\n      pop\n        /* \"DAPP_Task.sol\":1144:1148  fund */\n      0x03\n        /* \"DAPP_Task.sol\":1144:1152  fund[id] */\n      0x00\n        /* \"DAPP_Task.sol\":1149:1151  id */\n      sload(0x04)\n        /* \"DAPP_Task.sol\":1144:1152  fund[id] */\n      dup2\n      mstore\n      0x20\n      add\n      swap1\n      dup2\n      mstore\n      0x20\n      add\n      0x00\n      keccak256\n        /* \"DAPP_Task.sol\":1144:1286  fund[id] = funding({... */\n      0x00\n      dup3\n      add\n      mload\n      dup2\n      0x00\n      add\n      swap1\n      dup2\n      tag_166\n      swap2\n      swap1\n      tag_167\n      jump\t// in\n    tag_166:\n      pop\n      0x20\n      dup3\n      add\n      mload\n      dup2\n      0x01\n      add\n      swap1\n      dup2\n      tag_168\n      swap2\n      swap1\n      tag_167\n      jump\t// in\n    tag_168:\n      pop\n      0x40\n      dup3\n      add\n      mload\n      dup2\n      0x02\n      add\n      exp(0x0100, 0x00)\n      dup2\n      sload\n      dup2\n      0xffffffffffffffffffffffffffffffffffffffff\n      mul\n      not\n      and\n      swap1\n      dup4\n      0xffffffffffffffffffffffffffffffffffffffff\n      and\n      mul\n      or\n      swap1\n      sstore\n      pop\n      0x60\n      dup3\n      add\n      mload\n      dup2\n      0x03\n      add\n      sstore\n      0x80\n      dup3\n      add\n      mload\n      dup2\n      0x04\n      add\n      exp(0x0100, 0x00)\n      dup2\n      sload\n      dup2\n      0xff\n      mul\n      not\n      and\n      swap1\n      dup4\n      0x01\n      dup2\n      gt\n      iszero\n      tag_169\n      jumpi\n      tag_170\n      tag_86\n      jump\t// in\n    tag_170:\n    tag_169:\n      mul\n      or\n      swap1\n      sstore\n      pop\n      swap1\n      pop\n      pop\n        /* \"DAPP_Task.sol\":1289:1291  id */\n      0x04\n      0x00\n        /* \"DAPP_Task.sol\":1289:1293  id++ */\n      dup2\n      sload\n      dup1\n      swap3\n      swap2\n      swap1\n      tag_171\n      swap1\n      tag_172\n      jump\t// in\n    tag_171:\n      swap2\n      swap1\n      pop\n      sstore\n      pop\n        /* \"DAPP_Task.sol\":1062:1297  function add_user(string calldata _name,... */\n      pop\n      pop\n      pop\n      jump\t// out\n    tag_71:\n      mload(0x40)\n      dup1\n      0xa0\n      add\n      0x40\n      mstore\n      dup1\n      0x60\n      dup2\n      mstore\n      0x20\n      add\n      0x60\n      dup2\n      mstore\n      0x20\n      add\n      and(0xffffffffffffffffffffffffffffffffffffffff, 0x00)\n      dup2\n      mstore\n      0x20\n      add\n      0x00\n      dup2\n      mstore\n      0x20\n      add\n      0x00\n      0x01\n      dup2\n      gt\n      iszero\n      tag_173\n      jumpi\n      tag_174\n      tag_86\n      jump\t// in\n    tag_174:\n    tag_173:\n      dup2\n      mstore\n      pop\n      swap1\n      jump\t// out\n        /* \"#utility.yul\":7:176   */\n    tag_175:\n        /* \"#utility.yul\":91:102   */\n      0x00\n        /* \"#utility.yul\":125:131   */\n      dup3\n        /* \"#utility.yul\":120:123   */\n      dup3\n        /* \"#utility.yul\":113:132   */\n      mstore\n        /* \"#utility.yul\":165:169   */\n      0x20\n        /* \"#utility.yul\":160:163   */\n      dup3\n        /* \"#utility.yul\":156:170   */\n      add\n        /* \"#utility.yul\":141:170   */\n      swap1\n      pop\n        /* \"#utility.yul\":7:176   */\n      swap3\n      swap2\n      pop\n      pop\n      jump\t// out\n        /* \"#utility.yul\":182:360   */\n    tag_176:\n        /* \"#utility.yul\":322:352   */\n      0x616d6f756e74207265636569766564207375636365737366756c6c7900000000\n        /* \"#utility.yul\":318:319   */\n      0x00\n        /* \"#utility.yul\":310:316   */\n      dup3\n        /* \"#utility.yul\":306:320   */\n      add\n        /* \"#utility.yul\":299:353   */\n      mstore\n        /* \"#utility.yul\":182:360   */\n      pop\n      jump\t// out\n        /* \"#utility.yul\":366:732   */\n    tag_177:\n        /* \"#utility.yul\":508:511   */\n      0x00\n        /* \"#utility.yul\":529:596   */\n      tag_257\n        /* \"#utility.yul\":593:595   */\n      0x1c\n        /* \"#utility.yul\":588:591   */\n      dup4\n        /* \"#utility.yul\":529:596   */\n      tag_175\n      jump\t// in\n    tag_257:\n        /* \"#utility.yul\":522:596   */\n      swap2\n      pop\n        /* \"#utility.yul\":605:698   */\n      tag_258\n        /* \"#utility.yul\":694:697   */\n      dup3\n        /* \"#utility.yul\":605:698   */\n      tag_176\n      jump\t// in\n    tag_258:\n        /* \"#utility.yul\":723:725   */\n      0x20\n        /* \"#utility.yul\":718:721   */\n      dup3\n        /* \"#utility.yul\":714:726   */\n      add\n        /* \"#utility.yul\":707:726   */\n      swap1\n      pop\n        /* \"#utility.yul\":366:732   */\n      swap2\n      swap1\n      pop\n      jump\t// out\n        /* \"#utility.yul\":738:1157   */\n    tag_18:\n        /* \"#utility.yul\":904:908   */\n      0x00\n        /* \"#utility.yul\":942:944   */\n      0x20\n        /* \"#utility.yul\":931:940   */\n      dup3\n        /* \"#utility.yul\":927:945   */\n      add\n        /* \"#utility.yul\":919:945   */\n      swap1\n      pop\n        /* \"#utility.yul\":991:1000   */\n      dup2\n        /* \"#utility.yul\":985:989   */\n      dup2\n        /* \"#utility.yul\":981:1001   */\n      sub\n        /* \"#utility.yul\":977:978   */\n      0x00\n        /* \"#utility.yul\":966:975   */\n      dup4\n        /* \"#utility.yul\":962:979   */\n      add\n        /* \"#utility.yul\":955:1002   */\n      mstore\n        /* \"#utility.yul\":1019:1150   */\n      tag_260\n        /* \"#utility.yul\":1145:1149   */\n      dup2\n        /* \"#utility.yul\":1019:1150   */\n      tag_177\n      jump\t// in\n    tag_260:\n        /* \"#utility.yul\":1011:1150   */\n      swap1\n      pop\n        /* \"#utility.yul\":738:1157   */\n      swap2\n      swap1\n      pop\n      jump\t// out\n        /* \"#utility.yul\":1163:1238   */\n    tag_178:\n        /* \"#utility.yul\":1196:1202   */\n      0x00\n        /* \"#utility.yul\":1229:1231   */\n      0x40\n        /* \"#utility.yul\":1223:1232   */\n      mload\n        /* \"#utility.yul\":1213:1232   */\n      swap1\n      pop\n        /* \"#utility.yul\":1163:1238   */\n      swap1\n      jump\t// out\n        /* \"#utility.yul\":1244:1361   */\n    tag_179:\n        /* \"#utility.yul\":1353:1354   */\n      0x00\n        /* \"#utility.yul\":1350:1351   */\n      dup1\n        /* \"#utility.yul\":1343:1355   */\n      revert\n        /* \"#utility.yul\":1367:1484   */\n    tag_180:\n        /* \"#utility.yul\":1476:1477   */\n      0x00\n        /* \"#utility.yul\":1473:1474   */\n      dup1\n        /* \"#utility.yul\":1466:1478   */\n      revert\n        /* \"#utility.yul\":1490:1567   */\n    tag_181:\n        /* \"#utility.yul\":1527:1534   */\n      0x00\n        /* \"#utility.yul\":1556:1561   */\n      dup2\n        /* \"#utility.yul\":1545:1561   */\n      swap1\n      pop\n        /* \"#utility.yul\":1490:1567   */\n      swap2\n      swap1\n      pop\n      jump\t// out\n        /* \"#utility.yul\":1573:1695   */\n    tag_182:\n        /* \"#utility.yul\":1646:1670   */\n      tag_266\n        /* \"#utility.yul\":1664:1669   */\n      dup2\n        /* \"#utility.yul\":1646:1670   */\n      tag_181\n      jump\t// in\n    tag_266:\n        /* \"#utility.yul\":1639:1644   */\n      dup2\n        /* \"#utility.yul\":1636:1671   */\n      eq\n        /* \"#utility.yul\":1626:1689   */\n      tag_267\n      jumpi\n        /* \"#utility.yul\":1685:1686   */\n      0x00\n        /* \"#utility.yul\":1682:1683   */\n      dup1\n        /* \"#utility.yul\":1675:1687   */\n      revert\n        /* \"#utility.yul\":1626:1689   */\n    tag_267:\n        /* \"#utility.yul\":1573:1695   */\n      pop\n      jump\t// out\n        /* \"#utility.yul\":1701:1840   */\n    tag_183:\n        /* \"#utility.yul\":1747:1752   */\n      0x00\n        /* \"#utility.yul\":1785:1791   */\n      dup2\n        /* \"#utility.yul\":1772:1792   */\n      calldataload\n        /* \"#utility.yul\":1763:1792   */\n      swap1\n      pop\n        /* \"#utility.yul\":1801:1834   */\n      tag_269\n        /* \"#utility.yul\":1828:1833   */\n      dup2\n        /* \"#utility.yul\":1801:1834   */\n      tag_182\n      jump\t// in\n    tag_269:\n        /* \"#utility.yul\":1701:1840   */\n      swap3\n      swap2\n      pop\n      pop\n      jump\t// out\n        /* \"#utility.yul\":1846:2175   */\n    tag_22:\n        /* \"#utility.yul\":1905:1911   */\n      0x00\n        /* \"#utility.yul\":1954:1956   */\n      0x20\n        /* \"#utility.yul\":1942:1951   */\n      dup3\n        /* \"#utility.yul\":1933:1940   */\n      dup5\n        /* \"#utility.yul\":1929:1952   */\n      sub\n        /* \"#utility.yul\":1925:1957   */\n      slt\n        /* \"#utility.yul\":1922:2041   */\n      iszero\n      tag_271\n      jumpi\n        /* \"#utility.yul\":1960:2039   */\n      tag_272\n      tag_179\n      jump\t// in\n    tag_272:\n        /* \"#utility.yul\":1922:2041   */\n    tag_271:\n        /* \"#utility.yul\":2080:2081   */\n      0x00\n        /* \"#utility.yul\":2105:2158   */\n      tag_273\n        /* \"#utility.yul\":2150:2157   */\n      dup5\n        /* \"#utility.yul\":2141:2147   */\n      dup3\n        /* \"#utility.yul\":2130:2139   */\n      dup6\n        /* \"#utility.yul\":2126:2148   */\n      add\n        /* \"#utility.yul\":2105:2158   */\n      tag_183\n      jump\t// in\n    tag_273:\n        /* \"#utility.yul\":2095:2158   */\n      swap2\n      pop\n        /* \"#utility.yul\":2051:2168   */\n      pop\n        /* \"#utility.yul\":1846:2175   */\n      swap3\n      swap2\n      pop\n      pop\n      jump\t// out\n        /* \"#utility.yul\":2181:2280   */\n    tag_184:\n        /* \"#utility.yul\":2233:2239   */\n      0x00\n        /* \"#utility.yul\":2267:2272   */\n      dup2\n        /* \"#utility.yul\":2261:2273   */\n      mload\n        /* \"#utility.yul\":2251:2273   */\n      swap1\n      pop\n        /* \"#utility.yul\":2181:2280   */\n      swap2\n      swap1\n      pop\n      jump\t// out\n        /* \"#utility.yul\":2286:2445   */\n    tag_185:\n        /* \"#utility.yul\":2360:2371   */\n      0x00\n        /* \"#utility.yul\":2394:2400   */\n      dup3\n        /* \"#utility.yul\":2389:2392   */\n      dup3\n        /* \"#utility.yul\":2382:2401   */\n      mstore\n        /* \"#utility.yul\":2434:2438   */\n      0x20\n        /* \"#utility.yul\":2429:2432   */\n      dup3\n        /* \"#utility.yul\":2425:2439   */\n      add\n        /* \"#utility.yul\":2410:2439   */\n      swap1\n      pop\n        /* \"#utility.yul\":2286:2445   */\n      swap3\n      swap2\n      pop\n      pop\n      jump\t// out\n        /* \"#utility.yul\":2451:2697   */\n    tag_186:\n        /* \"#utility.yul\":2532:2533   */\n      0x00\n        /* \"#utility.yul\":2542:2655   */\n    tag_277:\n        /* \"#utility.yul\":2556:2562   */\n      dup4\n        /* \"#utility.yul\":2553:2554   */\n      dup2\n        /* \"#utility.yul\":2550:2563   */\n      lt\n        /* \"#utility.yul\":2542:2655   */\n      iszero\n      tag_279\n      jumpi\n        /* \"#utility.yul\":2641:2642   */\n      dup1\n        /* \"#utility.yul\":2636:2639   */\n      dup3\n        /* \"#utility.yul\":2632:2643   */\n      add\n        /* \"#utility.yul\":2626:2644   */\n      mload\n        /* \"#utility.yul\":2622:2623   */\n      dup2\n        /* \"#utility.yul\":2617:2620   */\n      dup5\n        /* \"#utility.yul\":2613:2624   */\n      add\n        /* \"#utility.yul\":2606:2645   */\n      mstore\n        /* \"#utility.yul\":2578:2580   */\n      0x20\n        /* \"#utility.yul\":2575:2576   */\n      dup2\n        /* \"#utility.yul\":2571:2581   */\n      add\n        /* \"#utility.yul\":2566:2581   */\n      swap1\n      pop\n        /* \"#utility.yul\":2542:2655   */\n      jump(tag_277)\n    tag_279:\n        /* \"#utility.yul\":2689:2690   */\n      0x00\n        /* \"#utility.yul\":2680:2686   */\n      dup5\n        /* \"#utility.yul\":2675:2678   */\n      dup5\n        /* \"#utility.yul\":2671:2687   */\n      add\n        /* \"#utility.yul\":2664:2691   */\n      mstore\n        /* \"#utility.yul\":2513:2697   */\n      pop\n        /* \"#utility.yul\":2451:2697   */\n      pop\n      pop\n      pop\n      jump\t// out\n        /* \"#utility.yul\":2703:2805   */\n    tag_187:\n        /* \"#utility.yul\":2744:2750   */\n      0x00\n        /* \"#utility.yul\":2795:2797   */\n      0x1f\n        /* \"#utility.yul\":2791:2798   */\n      not\n        /* \"#utility.yul\":2786:2788   */\n      0x1f\n        /* \"#utility.yul\":2779:2784   */\n      dup4\n        /* \"#utility.yul\":2775:2789   */\n      add\n        /* \"#utility.yul\":2771:2799   */\n      and\n        /* \"#utility.yul\":2761:2799   */\n      swap1\n      pop\n        /* \"#utility.yul\":2703:2805   */\n      swap2\n      swap1\n      pop\n      jump\t// out\n        /* \"#utility.yul\":2811:3168   */\n    tag_188:\n        /* \"#utility.yul\":2889:2892   */\n      0x00\n        /* \"#utility.yul\":2917:2956   */\n      tag_282\n        /* \"#utility.yul\":2950:2955   */\n      dup3\n        /* \"#utility.yul\":2917:2956   */\n      tag_184\n      jump\t// in\n    tag_282:\n        /* \"#utility.yul\":2972:3033   */\n      tag_283\n        /* \"#utility.yul\":3026:3032   */\n      dup2\n        /* \"#utility.yul\":3021:3024   */\n      dup6\n        /* \"#utility.yul\":2972:3033   */\n      tag_185\n      jump\t// in\n    tag_283:\n        /* \"#utility.yul\":2965:3033   */\n      swap4\n      pop\n        /* \"#utility.yul\":3042:3107   */\n      tag_284\n        /* \"#utility.yul\":3100:3106   */\n      dup2\n        /* \"#utility.yul\":3095:3098   */\n      dup6\n        /* \"#utility.yul\":3088:3092   */\n      0x20\n        /* \"#utility.yul\":3081:3086   */\n      dup7\n        /* \"#utility.yul\":3077:3093   */\n      add\n        /* \"#utility.yul\":3042:3107   */\n      tag_186\n      jump\t// in\n    tag_284:\n        /* \"#utility.yul\":3132:3161   */\n      tag_285\n        /* \"#utility.yul\":3154:3160   */\n      dup2\n        /* \"#utility.yul\":3132:3161   */\n      tag_187\n      jump\t// in\n    tag_285:\n        /* \"#utility.yul\":3127:3130   */\n      dup5\n        /* \"#utility.yul\":3123:3162   */\n      add\n        /* \"#utility.yul\":3116:3162   */\n      swap2\n      pop\n        /* \"#utility.yul\":2893:3168   */\n      pop\n        /* \"#utility.yul\":2811:3168   */\n      swap3\n      swap2\n      pop\n      pop\n      jump\t// out\n        /* \"#utility.yul\":3174:3300   */\n    tag_189:\n        /* \"#utility.yul\":3211:3218   */\n      0x00\n        /* \"#utility.yul\":3251:3293   */\n      0xffffffffffffffffffffffffffffffffffffffff\n        /* \"#utility.yul\":3244:3249   */\n      dup3\n        /* \"#utility.yul\":3240:3294   */\n      and\n        /* \"#utility.yul\":3229:3294   */\n      swap1\n      pop\n        /* \"#utility.yul\":3174:3300   */\n      swap2\n      swap1\n      pop\n      jump\t// out\n        /* \"#utility.yul\":3306:3402   */\n    tag_190:\n        /* \"#utility.yul\":3343:3350   */\n      0x00\n        /* \"#utility.yul\":3372:3396   */\n      tag_288\n        /* \"#utility.yul\":3390:3395   */\n      dup3\n        /* \"#utility.yul\":3372:3396   */\n      tag_189\n      jump\t// in\n    tag_288:\n        /* \"#utility.yul\":3361:3396   */\n      swap1\n      pop\n        /* \"#utility.yul\":3306:3402   */\n      swap2\n      swap1\n      pop\n      jump\t// out\n        /* \"#utility.yul\":3408:3516   */\n    tag_191:\n        /* \"#utility.yul\":3485:3509   */\n      tag_290\n        /* \"#utility.yul\":3503:3508   */\n      dup2\n        /* \"#utility.yul\":3485:3509   */\n      tag_190\n      jump\t// in\n    tag_290:\n        /* \"#utility.yul\":3480:3483   */\n      dup3\n        /* \"#utility.yul\":3473:3510   */\n      mstore\n        /* \"#utility.yul\":3408:3516   */\n      pop\n      pop\n      jump\t// out\n        /* \"#utility.yul\":3522:3630   */\n    tag_192:\n        /* \"#utility.yul\":3599:3623   */\n      tag_292\n        /* \"#utility.yul\":3617:3622   */\n      dup2\n        /* \"#utility.yul\":3599:3623   */\n      tag_181\n      jump\t// in\n    tag_292:\n        /* \"#utility.yul\":3594:3597   */\n      dup3\n        /* \"#utility.yul\":3587:3624   */\n      mstore\n        /* \"#utility.yul\":3522:3630   */\n      pop\n      pop\n      jump\t// out\n        /* \"#utility.yul\":3636:3816   */\n    tag_86:\n        /* \"#utility.yul\":3684:3761   */\n      0x4e487b7100000000000000000000000000000000000000000000000000000000\n        /* \"#utility.yul\":3681:3682   */\n      0x00\n        /* \"#utility.yul\":3674:3762   */\n      mstore\n        /* \"#utility.yul\":3781:3785   */\n      0x21\n        /* \"#utility.yul\":3778:3779   */\n      0x04\n        /* \"#utility.yul\":3771:3786   */\n      mstore\n        /* \"#utility.yul\":3805:3809   */\n      0x24\n        /* \"#utility.yul\":3802:3803   */\n      0x00\n        /* \"#utility.yul\":3795:3810   */\n      revert\n        /* \"#utility.yul\":3822:3939   */\n    tag_193:\n        /* \"#utility.yul\":3907:3908   */\n      0x02\n        /* \"#utility.yul\":3900:3905   */\n      dup2\n        /* \"#utility.yul\":3897:3909   */\n      lt\n        /* \"#utility.yul\":3887:3933   */\n      tag_295\n      jumpi\n        /* \"#utility.yul\":3913:3931   */\n      tag_296\n      tag_86\n      jump\t// in\n    tag_296:\n        /* \"#utility.yul\":3887:3933   */\n    tag_295:\n        /* \"#utility.yul\":3822:3939   */\n      pop\n      jump\t// out\n        /* \"#utility.yul\":3945:4080   */\n    tag_194:\n        /* \"#utility.yul\":3994:4001   */\n      0x00\n        /* \"#utility.yul\":4023:4028   */\n      dup2\n        /* \"#utility.yul\":4012:4028   */\n      swap1\n      pop\n        /* \"#utility.yul\":4029:4074   */\n      tag_298\n        /* \"#utility.yul\":4068:4073   */\n      dup3\n        /* \"#utility.yul\":4029:4074   */\n      tag_193\n      jump\t// in\n    tag_298:\n        /* \"#utility.yul\":3945:4080   */\n      swap2\n      swap1\n      pop\n      jump\t// out\n        /* \"#utility.yul\":4086:4221   */\n    tag_195:\n        /* \"#utility.yul\":4146:4155   */\n      0x00\n        /* \"#utility.yul\":4179:4215   */\n      tag_300\n        /* \"#utility.yul\":4209:4214   */\n      dup3\n        /* \"#utility.yul\":4179:4215   */\n      tag_194\n      jump\t// in\n    tag_300:\n        /* \"#utility.yul\":4166:4215   */\n      swap1\n      pop\n        /* \"#utility.yul\":4086:4221   */\n      swap2\n      swap1\n      pop\n      jump\t// out\n        /* \"#utility.yul\":4227:4368   */\n    tag_196:\n        /* \"#utility.yul\":4314:4361   */\n      tag_302\n        /* \"#utility.yul\":4355:4360   */\n      dup2\n        /* \"#utility.yul\":4314:4361   */\n      tag_195\n      jump\t// in\n    tag_302:\n        /* \"#utility.yul\":4309:4312   */\n      dup3\n        /* \"#utility.yul\":4302:4362   */\n      mstore\n        /* \"#utility.yul\":4227:4368   */\n      pop\n      pop\n      jump\t// out\n        /* \"#utility.yul\":4424:5651   */\n    tag_197:\n        /* \"#utility.yul\":4541:4544   */\n      0x00\n        /* \"#utility.yul\":4577:4581   */\n      0xa0\n        /* \"#utility.yul\":4572:4575   */\n      dup4\n        /* \"#utility.yul\":4568:4582   */\n      add\n        /* \"#utility.yul\":4664:4668   */\n      0x00\n        /* \"#utility.yul\":4657:4662   */\n      dup4\n        /* \"#utility.yul\":4653:4669   */\n      add\n        /* \"#utility.yul\":4647:4670   */\n      mload\n        /* \"#utility.yul\":4717:4720   */\n      dup5\n        /* \"#utility.yul\":4711:4715   */\n      dup3\n        /* \"#utility.yul\":4707:4721   */\n      sub\n        /* \"#utility.yul\":4700:4704   */\n      0x00\n        /* \"#utility.yul\":4695:4698   */\n      dup7\n        /* \"#utility.yul\":4691:4705   */\n      add\n        /* \"#utility.yul\":4684:4722   */\n      mstore\n        /* \"#utility.yul\":4743:4816   */\n      tag_304\n        /* \"#utility.yul\":4811:4815   */\n      dup3\n        /* \"#utility.yul\":4797:4809   */\n      dup3\n        /* \"#utility.yul\":4743:4816   */\n      tag_188\n      jump\t// in\n    tag_304:\n        /* \"#utility.yul\":4735:4816   */\n      swap2\n      pop\n        /* \"#utility.yul\":4592:4827   */\n      pop\n        /* \"#utility.yul\":4916:4920   */\n      0x20\n        /* \"#utility.yul\":4909:4914   */\n      dup4\n        /* \"#utility.yul\":4905:4921   */\n      add\n        /* \"#utility.yul\":4899:4922   */\n      mload\n        /* \"#utility.yul\":4969:4972   */\n      dup5\n        /* \"#utility.yul\":4963:4967   */\n      dup3\n        /* \"#utility.yul\":4959:4973   */\n      sub\n        /* \"#utility.yul\":4952:4956   */\n      0x20\n        /* \"#utility.yul\":4947:4950   */\n      dup7\n        /* \"#utility.yul\":4943:4957   */\n      add\n        /* \"#utility.yul\":4936:4974   */\n      mstore\n        /* \"#utility.yul\":4995:5068   */\n      tag_305\n        /* \"#utility.yul\":5063:5067   */\n      dup3\n        /* \"#utility.yul\":5049:5061   */\n      dup3\n        /* \"#utility.yul\":4995:5068   */\n      tag_188\n      jump\t// in\n    tag_305:\n        /* \"#utility.yul\":4987:5068   */\n      swap2\n      pop\n        /* \"#utility.yul\":4837:5079   */\n      pop\n        /* \"#utility.yul\":5166:5170   */\n      0x40\n        /* \"#utility.yul\":5159:5164   */\n      dup4\n        /* \"#utility.yul\":5155:5171   */\n      add\n        /* \"#utility.yul\":5149:5172   */\n      mload\n        /* \"#utility.yul\":5185:5248   */\n      tag_306\n        /* \"#utility.yul\":5242:5246   */\n      0x40\n        /* \"#utility.yul\":5237:5240   */\n      dup7\n        /* \"#utility.yul\":5233:5247   */\n      add\n        /* \"#utility.yul\":5219:5231   */\n      dup3\n        /* \"#utility.yul\":5185:5248   */\n      tag_191\n      jump\t// in\n    tag_306:\n        /* \"#utility.yul\":5089:5258   */\n      pop\n        /* \"#utility.yul\":5347:5351   */\n      0x60\n        /* \"#utility.yul\":5340:5345   */\n      dup4\n        /* \"#utility.yul\":5336:5352   */\n      add\n        /* \"#utility.yul\":5330:5353   */\n      mload\n        /* \"#utility.yul\":5366:5429   */\n      tag_307\n        /* \"#utility.yul\":5423:5427   */\n      0x60\n        /* \"#utility.yul\":5418:5421   */\n      dup7\n        /* \"#utility.yul\":5414:5428   */\n      add\n        /* \"#utility.yul\":5400:5412   */\n      dup3\n        /* \"#utility.yul\":5366:5429   */\n      tag_192\n      jump\t// in\n    tag_307:\n        /* \"#utility.yul\":5268:5439   */\n      pop\n        /* \"#utility.yul\":5522:5526   */\n      0x80\n        /* \"#utility.yul\":5515:5520   */\n      dup4\n        /* \"#utility.yul\":5511:5527   */\n      add\n        /* \"#utility.yul\":5505:5528   */\n      mload\n        /* \"#utility.yul\":5541:5614   */\n      tag_308\n        /* \"#utility.yul\":5608:5612   */\n      0x80\n        /* \"#utility.yul\":5603:5606   */\n      dup7\n        /* \"#utility.yul\":5599:5613   */\n      add\n        /* \"#utility.yul\":5585:5597   */\n      dup3\n        /* \"#utility.yul\":5541:5614   */\n      tag_196\n      jump\t// in\n    tag_308:\n        /* \"#utility.yul\":5449:5624   */\n      pop\n        /* \"#utility.yul\":5641:5645   */\n      dup1\n        /* \"#utility.yul\":5634:5645   */\n      swap2\n      pop\n        /* \"#utility.yul\":4546:5651   */\n      pop\n        /* \"#utility.yul\":4424:5651   */\n      swap3\n      swap2\n      pop\n      pop\n      jump\t// out\n        /* \"#utility.yul\":5657:6026   */\n    tag_25:\n        /* \"#utility.yul\":5798:5802   */\n      0x00\n        /* \"#utility.yul\":5836:5838   */\n      0x20\n        /* \"#utility.yul\":5825:5834   */\n      dup3\n        /* \"#utility.yul\":5821:5839   */\n      add\n        /* \"#utility.yul\":5813:5839   */\n      swap1\n      pop\n        /* \"#utility.yul\":5885:5894   */\n      dup2\n        /* \"#utility.yul\":5879:5883   */\n      dup2\n        /* \"#utility.yul\":5875:5895   */\n      sub\n        /* \"#utility.yul\":5871:5872   */\n      0x00\n        /* \"#utility.yul\":5860:5869   */\n      dup4\n        /* \"#utility.yul\":5856:5873   */\n      add\n        /* \"#utility.yul\":5849:5896   */\n      mstore\n        /* \"#utility.yul\":5913:6019   */\n      tag_310\n        /* \"#utility.yul\":6014:6018   */\n      dup2\n        /* \"#utility.yul\":6005:6011   */\n      dup5\n        /* \"#utility.yul\":5913:6019   */\n      tag_197\n      jump\t// in\n    tag_310:\n        /* \"#utility.yul\":5905:6019   */\n      swap1\n      pop\n        /* \"#utility.yul\":5657:6026   */\n      swap3\n      swap2\n      pop\n      pop\n      jump\t// out\n        /* \"#utility.yul\":6032:6150   */\n    tag_198:\n        /* \"#utility.yul\":6119:6143   */\n      tag_312\n        /* \"#utility.yul\":6137:6142   */\n      dup2\n        /* \"#utility.yul\":6119:6143   */\n      tag_181\n      jump\t// in\n    tag_312:\n        /* \"#utility.yul\":6114:6117   */\n      dup3\n        /* \"#utility.yul\":6107:6144   */\n      mstore\n        /* \"#utility.yul\":6032:6150   */\n      pop\n      pop\n      jump\t// out\n        /* \"#utility.yul\":6156:6378   */\n    tag_34:\n        /* \"#utility.yul\":6249:6253   */\n      0x00\n        /* \"#utility.yul\":6287:6289   */\n      0x20\n        /* \"#utility.yul\":6276:6285   */\n      dup3\n        /* \"#utility.yul\":6272:6290   */\n      add\n        /* \"#utility.yul\":6264:6290   */\n      swap1\n      pop\n        /* \"#utility.yul\":6300:6371   */\n      tag_314\n        /* \"#utility.yul\":6368:6369   */\n      0x00\n        /* \"#utility.yul\":6357:6366   */\n      dup4\n        /* \"#utility.yul\":6353:6370   */\n      add\n        /* \"#utility.yul\":6344:6350   */\n      dup5\n        /* \"#utility.yul\":6300:6371   */\n      tag_198\n      jump\t// in\n    tag_314:\n        /* \"#utility.yul\":6156:6378   */\n      swap3\n      swap2\n      pop\n      pop\n      jump\t// out\n        /* \"#utility.yul\":6384:6502   */\n    tag_199:\n        /* \"#utility.yul\":6471:6495   */\n      tag_316\n        /* \"#utility.yul\":6489:6494   */\n      dup2\n        /* \"#utility.yul\":6471:6495   */\n      tag_190\n      jump\t// in\n    tag_316:\n        /* \"#utility.yul\":6466:6469   */\n      dup3\n        /* \"#utility.yul\":6459:6496   */\n      mstore\n        /* \"#utility.yul\":6384:6502   */\n      pop\n      pop\n      jump\t// out\n        /* \"#utility.yul\":6508:6730   */\n    tag_43:\n        /* \"#utility.yul\":6601:6605   */\n      0x00\n        /* \"#utility.yul\":6639:6641   */\n      0x20\n        /* \"#utility.yul\":6628:6637   */\n      dup3\n        /* \"#utility.yul\":6624:6642   */\n      add\n        /* \"#utility.yul\":6616:6642   */\n      swap1\n      pop\n        /* \"#utility.yul\":6652:6723   */\n      tag_318\n        /* \"#utility.yul\":6720:6721   */\n      0x00\n        /* \"#utility.yul\":6709:6718   */\n      dup4\n        /* \"#utility.yul\":6705:6722   */\n      add\n        /* \"#utility.yul\":6696:6702   */\n      dup5\n        /* \"#utility.yul\":6652:6723   */\n      tag_199\n      jump\t// in\n    tag_318:\n        /* \"#utility.yul\":6508:6730   */\n      swap3\n      swap2\n      pop\n      pop\n      jump\t// out\n        /* \"#utility.yul\":6736:6853   */\n    tag_200:\n        /* \"#utility.yul\":6845:6846   */\n      0x00\n        /* \"#utility.yul\":6842:6843   */\n      dup1\n        /* \"#utility.yul\":6835:6847   */\n      revert\n        /* \"#utility.yul\":6859:6976   */\n    tag_201:\n        /* \"#utility.yul\":6968:6969   */\n      0x00\n        /* \"#utility.yul\":6965:6966   */\n      dup1\n        /* \"#utility.yul\":6958:6970   */\n      revert\n        /* \"#utility.yul\":6982:7099   */\n    tag_202:\n        /* \"#utility.yul\":7091:7092   */\n      0x00\n        /* \"#utility.yul\":7088:7089   */\n      dup1\n        /* \"#utility.yul\":7081:7093   */\n      revert\n        /* \"#utility.yul\":7119:7672   */\n    tag_203:\n        /* \"#utility.yul\":7177:7185   */\n      0x00\n        /* \"#utility.yul\":7187:7193   */\n      dup1\n        /* \"#utility.yul\":7237:7240   */\n      dup4\n        /* \"#utility.yul\":7230:7234   */\n      0x1f\n        /* \"#utility.yul\":7222:7228   */\n      dup5\n        /* \"#utility.yul\":7218:7235   */\n      add\n        /* \"#utility.yul\":7214:7241   */\n      slt\n        /* \"#utility.yul\":7204:7326   */\n      tag_323\n      jumpi\n        /* \"#utility.yul\":7245:7324   */\n      tag_324\n      tag_200\n      jump\t// in\n    tag_324:\n        /* \"#utility.yul\":7204:7326   */\n    tag_323:\n        /* \"#utility.yul\":7358:7364   */\n      dup3\n        /* \"#utility.yul\":7345:7365   */\n      calldataload\n        /* \"#utility.yul\":7335:7365   */\n      swap1\n      pop\n        /* \"#utility.yul\":7388:7406   */\n      0xffffffffffffffff\n        /* \"#utility.yul\":7380:7386   */\n      dup2\n        /* \"#utility.yul\":7377:7407   */\n      gt\n        /* \"#utility.yul\":7374:7491   */\n      iszero\n      tag_325\n      jumpi\n        /* \"#utility.yul\":7410:7489   */\n      tag_326\n      tag_201\n      jump\t// in\n    tag_326:\n        /* \"#utility.yul\":7374:7491   */\n    tag_325:\n        /* \"#utility.yul\":7524:7528   */\n      0x20\n        /* \"#utility.yul\":7516:7522   */\n      dup4\n        /* \"#utility.yul\":7512:7529   */\n      add\n        /* \"#utility.yul\":7500:7529   */\n      swap2\n      pop\n        /* \"#utility.yul\":7578:7581   */\n      dup4\n        /* \"#utility.yul\":7570:7574   */\n      0x01\n        /* \"#utility.yul\":7562:7568   */\n      dup3\n        /* \"#utility.yul\":7558:7575   */\n      mul\n        /* \"#utility.yul\":7548:7556   */\n      dup4\n        /* \"#utility.yul\":7544:7576   */\n      add\n        /* \"#utility.yul\":7541:7582   */\n      gt\n        /* \"#utility.yul\":7538:7666   */\n      iszero\n      tag_327\n      jumpi\n        /* \"#utility.yul\":7585:7664   */\n      tag_328\n      tag_202\n      jump\t// in\n    tag_328:\n        /* \"#utility.yul\":7538:7666   */\n    tag_327:\n        /* \"#utility.yul\":7119:7672   */\n      swap3\n      pop\n      swap3\n      swap1\n      pop\n      jump\t// out\n        /* \"#utility.yul\":7678:7795   */\n    tag_204:\n        /* \"#utility.yul\":7787:7788   */\n      0x00\n        /* \"#utility.yul\":7784:7785   */\n      dup1\n        /* \"#utility.yul\":7777:7789   */\n      revert\n        /* \"#utility.yul\":7801:7981   */\n    tag_205:\n        /* \"#utility.yul\":7849:7926   */\n      0x4e487b7100000000000000000000000000000000000000000000000000000000\n        /* \"#utility.yul\":7846:7847   */\n      0x00\n        /* \"#utility.yul\":7839:7927   */\n      mstore\n        /* \"#utility.yul\":7946:7950   */\n      0x41\n        /* \"#utility.yul\":7943:7944   */\n      0x04\n        /* \"#utility.yul\":7936:7951   */\n      mstore\n        /* \"#utility.yul\":7970:7974   */\n      0x24\n        /* \"#utility.yul\":7967:7968   */\n      0x00\n        /* \"#utility.yul\":7960:7975   */\n      revert\n        /* \"#utility.yul\":7987:8268   */\n    tag_206:\n        /* \"#utility.yul\":8070:8097   */\n      tag_332\n        /* \"#utility.yul\":8092:8096   */\n      dup3\n        /* \"#utility.yul\":8070:8097   */\n      tag_187\n      jump\t// in\n    tag_332:\n        /* \"#utility.yul\":8062:8068   */\n      dup2\n        /* \"#utility.yul\":8058:8098   */\n      add\n        /* \"#utility.yul\":8200:8206   */\n      dup2\n        /* \"#utility.yul\":8188:8198   */\n      dup2\n        /* \"#utility.yul\":8185:8207   */\n      lt\n        /* \"#utility.yul\":8164:8182   */\n      0xffffffffffffffff\n        /* \"#utility.yul\":8152:8162   */\n      dup3\n        /* \"#utility.yul\":8149:8183   */\n      gt\n        /* \"#utility.yul\":8146:8208   */\n      or\n        /* \"#utility.yul\":8143:8231   */\n      iszero\n      tag_333\n      jumpi\n        /* \"#utility.yul\":8211:8229   */\n      tag_334\n      tag_205\n      jump\t// in\n    tag_334:\n        /* \"#utility.yul\":8143:8231   */\n    tag_333:\n        /* \"#utility.yul\":8251:8261   */\n      dup1\n        /* \"#utility.yul\":8247:8249   */\n      0x40\n        /* \"#utility.yul\":8240:8262   */\n      mstore\n        /* \"#utility.yul\":8030:8268   */\n      pop\n        /* \"#utility.yul\":7987:8268   */\n      pop\n      pop\n      jump\t// out\n        /* \"#utility.yul\":8274:8403   */\n    tag_207:\n        /* \"#utility.yul\":8308:8314   */\n      0x00\n        /* \"#utility.yul\":8335:8355   */\n      tag_336\n      tag_178\n      jump\t// in\n    tag_336:\n        /* \"#utility.yul\":8325:8355   */\n      swap1\n      pop\n        /* \"#utility.yul\":8364:8397   */\n      tag_337\n        /* \"#utility.yul\":8392:8396   */\n      dup3\n        /* \"#utility.yul\":8384:8390   */\n      dup3\n        /* \"#utility.yul\":8364:8397   */\n      tag_206\n      jump\t// in\n    tag_337:\n        /* \"#utility.yul\":8274:8403   */\n      swap2\n      swap1\n      pop\n      jump\t// out\n        /* \"#utility.yul\":8409:8717   */\n    tag_208:\n        /* \"#utility.yul\":8471:8475   */\n      0x00\n        /* \"#utility.yul\":8561:8579   */\n      0xffffffffffffffff\n        /* \"#utility.yul\":8553:8559   */\n      dup3\n        /* \"#utility.yul\":8550:8580   */\n      gt\n        /* \"#utility.yul\":8547:8603   */\n      iszero\n      tag_339\n      jumpi\n        /* \"#utility.yul\":8583:8601   */\n      tag_340\n      tag_205\n      jump\t// in\n    tag_340:\n        /* \"#utility.yul\":8547:8603   */\n    tag_339:\n        /* \"#utility.yul\":8621:8650   */\n      tag_341\n        /* \"#utility.yul\":8643:8649   */\n      dup3\n        /* \"#utility.yul\":8621:8650   */\n      tag_187\n      jump\t// in\n    tag_341:\n        /* \"#utility.yul\":8613:8650   */\n      swap1\n      pop\n        /* \"#utility.yul\":8705:8709   */\n      0x20\n        /* \"#utility.yul\":8699:8703   */\n      dup2\n        /* \"#utility.yul\":8695:8710   */\n      add\n        /* \"#utility.yul\":8687:8710   */\n      swap1\n      pop\n        /* \"#utility.yul\":8409:8717   */\n      swap2\n      swap1\n      pop\n      jump\t// out\n        /* \"#utility.yul\":8723:8869   */\n    tag_209:\n        /* \"#utility.yul\":8820:8826   */\n      dup3\n        /* \"#utility.yul\":8815:8818   */\n      dup2\n        /* \"#utility.yul\":8810:8813   */\n      dup4\n        /* \"#utility.yul\":8797:8827   */\n      calldatacopy\n        /* \"#utility.yul\":8861:8862   */\n      0x00\n        /* \"#utility.yul\":8852:8858   */\n      dup4\n        /* \"#utility.yul\":8847:8850   */\n      dup4\n        /* \"#utility.yul\":8843:8859   */\n      add\n        /* \"#utility.yul\":8836:8863   */\n      mstore\n        /* \"#utility.yul\":8723:8869   */\n      pop\n      pop\n      pop\n      jump\t// out\n        /* \"#utility.yul\":8875:9300   */\n    tag_210:\n        /* \"#utility.yul\":8953:8958   */\n      0x00\n        /* \"#utility.yul\":8978:9044   */\n      tag_344\n        /* \"#utility.yul\":8994:9043   */\n      tag_345\n        /* \"#utility.yul\":9036:9042   */\n      dup5\n        /* \"#utility.yul\":8994:9043   */\n      tag_208\n      jump\t// in\n    tag_345:\n        /* \"#utility.yul\":8978:9044   */\n      tag_207\n      jump\t// in\n    tag_344:\n        /* \"#utility.yul\":8969:9044   */\n      swap1\n      pop\n        /* \"#utility.yul\":9067:9073   */\n      dup3\n        /* \"#utility.yul\":9060:9065   */\n      dup2\n        /* \"#utility.yul\":9053:9074   */\n      mstore\n        /* \"#utility.yul\":9105:9109   */\n      0x20\n        /* \"#utility.yul\":9098:9103   */\n      dup2\n        /* \"#utility.yul\":9094:9110   */\n      add\n        /* \"#utility.yul\":9143:9146   */\n      dup5\n        /* \"#utility.yul\":9134:9140   */\n      dup5\n        /* \"#utility.yul\":9129:9132   */\n      dup5\n        /* \"#utility.yul\":9125:9141   */\n      add\n        /* \"#utility.yul\":9122:9147   */\n      gt\n        /* \"#utility.yul\":9119:9231   */\n      iszero\n      tag_346\n      jumpi\n        /* \"#utility.yul\":9150:9229   */\n      tag_347\n      tag_204\n      jump\t// in\n    tag_347:\n        /* \"#utility.yul\":9119:9231   */\n    tag_346:\n        /* \"#utility.yul\":9240:9294   */\n      tag_348\n        /* \"#utility.yul\":9287:9293   */\n      dup5\n        /* \"#utility.yul\":9282:9285   */\n      dup3\n        /* \"#utility.yul\":9277:9280   */\n      dup6\n        /* \"#utility.yul\":9240:9294   */\n      tag_209\n      jump\t// in\n    tag_348:\n        /* \"#utility.yul\":8959:9300   */\n      pop\n        /* \"#utility.yul\":8875:9300   */\n      swap4\n      swap3\n      pop\n      pop\n      pop\n      jump\t// out\n        /* \"#utility.yul\":9320:9660   */\n    tag_211:\n        /* \"#utility.yul\":9376:9381   */\n      0x00\n        /* \"#utility.yul\":9425:9428   */\n      dup3\n        /* \"#utility.yul\":9418:9422   */\n      0x1f\n        /* \"#utility.yul\":9410:9416   */\n      dup4\n        /* \"#utility.yul\":9406:9423   */\n      add\n        /* \"#utility.yul\":9402:9429   */\n      slt\n        /* \"#utility.yul\":9392:9514   */\n      tag_350\n      jumpi\n        /* \"#utility.yul\":9433:9512   */\n      tag_351\n      tag_200\n      jump\t// in\n    tag_351:\n        /* \"#utility.yul\":9392:9514   */\n    tag_350:\n        /* \"#utility.yul\":9550:9556   */\n      dup2\n        /* \"#utility.yul\":9537:9557   */\n      calldataload\n        /* \"#utility.yul\":9575:9654   */\n      tag_352\n        /* \"#utility.yul\":9650:9653   */\n      dup5\n        /* \"#utility.yul\":9642:9648   */\n      dup3\n        /* \"#utility.yul\":9635:9639   */\n      0x20\n        /* \"#utility.yul\":9627:9633   */\n      dup7\n        /* \"#utility.yul\":9623:9640   */\n      add\n        /* \"#utility.yul\":9575:9654   */\n      tag_210\n      jump\t// in\n    tag_352:\n        /* \"#utility.yul\":9566:9654   */\n      swap2\n      pop\n        /* \"#utility.yul\":9382:9660   */\n      pop\n        /* \"#utility.yul\":9320:9660   */\n      swap3\n      swap2\n      pop\n      pop\n      jump\t// out\n        /* \"#utility.yul\":9666:10520   */\n    tag_56:\n        /* \"#utility.yul\":9756:9762   */\n      0x00\n        /* \"#utility.yul\":9764:9770   */\n      dup1\n        /* \"#utility.yul\":9772:9778   */\n      0x00\n        /* \"#utility.yul\":9821:9823   */\n      0x40\n        /* \"#utility.yul\":9809:9818   */\n      dup5\n        /* \"#utility.yul\":9800:9807   */\n      dup7\n        /* \"#utility.yul\":9796:9819   */\n      sub\n        /* \"#utility.yul\":9792:9824   */\n      slt\n        /* \"#utility.yul\":9789:9908   */\n      iszero\n      tag_354\n      jumpi\n        /* \"#utility.yul\":9827:9906   */\n      tag_355\n      tag_179\n      jump\t// in\n    tag_355:\n        /* \"#utility.yul\":9789:9908   */\n    tag_354:\n        /* \"#utility.yul\":9975:9976   */\n      0x00\n        /* \"#utility.yul\":9964:9973   */\n      dup5\n        /* \"#utility.yul\":9960:9977   */\n      add\n        /* \"#utility.yul\":9947:9978   */\n      calldataload\n        /* \"#utility.yul\":10005:10023   */\n      0xffffffffffffffff\n        /* \"#utility.yul\":9997:10003   */\n      dup2\n        /* \"#utility.yul\":9994:10024   */\n      gt\n        /* \"#utility.yul\":9991:10108   */\n      iszero\n      tag_356\n      jumpi\n        /* \"#utility.yul\":10027:10106   */\n      tag_357\n      tag_180\n      jump\t// in\n    tag_357:\n        /* \"#utility.yul\":9991:10108   */\n    tag_356:\n        /* \"#utility.yul\":10140:10205   */\n      tag_358\n        /* \"#utility.yul\":10197:10204   */\n      dup7\n        /* \"#utility.yul\":10188:10194   */\n      dup3\n        /* \"#utility.yul\":10177:10186   */\n      dup8\n        /* \"#utility.yul\":10173:10195   */\n      add\n        /* \"#utility.yul\":10140:10205   */\n      tag_203\n      jump\t// in\n    tag_358:\n        /* \"#utility.yul\":10122:10205   */\n      swap4\n      pop\n      swap4\n      pop\n        /* \"#utility.yul\":9918:10215   */\n      pop\n        /* \"#utility.yul\":10282:10284   */\n      0x20\n        /* \"#utility.yul\":10271:10280   */\n      dup5\n        /* \"#utility.yul\":10267:10285   */\n      add\n        /* \"#utility.yul\":10254:10286   */\n      calldataload\n        /* \"#utility.yul\":10313:10331   */\n      0xffffffffffffffff\n        /* \"#utility.yul\":10305:10311   */\n      dup2\n        /* \"#utility.yul\":10302:10332   */\n      gt\n        /* \"#utility.yul\":10299:10416   */\n      iszero\n      tag_359\n      jumpi\n        /* \"#utility.yul\":10335:10414   */\n      tag_360\n      tag_180\n      jump\t// in\n    tag_360:\n        /* \"#utility.yul\":10299:10416   */\n    tag_359:\n        /* \"#utility.yul\":10440:10503   */\n      tag_361\n        /* \"#utility.yul\":10495:10502   */\n      dup7\n        /* \"#utility.yul\":10486:10492   */\n      dup3\n        /* \"#utility.yul\":10475:10484   */\n      dup8\n        /* \"#utility.yul\":10471:10493   */\n      add\n        /* \"#utility.yul\":10440:10503   */\n      tag_211\n      jump\t// in\n    tag_361:\n        /* \"#utility.yul\":10430:10503   */\n      swap2\n      pop\n        /* \"#utility.yul\":10225:10513   */\n      pop\n        /* \"#utility.yul\":9666:10520   */\n      swap3\n      pop\n      swap3\n      pop\n      swap3\n      jump\t// out\n        /* \"#utility.yul\":10526:10706   */\n    tag_212:\n        /* \"#utility.yul\":10574:10651   */\n      0x4e487b7100000000000000000000000000000000000000000000000000000000\n        /* \"#utility.yul\":10571:10572   */\n      0x00\n        /* \"#utility.yul\":10564:10652   */\n      mstore\n        /* \"#utility.yul\":10671:10675   */\n      0x22\n        /* \"#utility.yul\":10668:10669   */\n      0x04\n        /* \"#utility.yul\":10661:10676   */\n      mstore\n        /* \"#utility.yul\":10695:10699   */\n      0x24\n        /* \"#utility.yul\":10692:10693   */\n      0x00\n        /* \"#utility.yul\":10685:10700   */\n      revert\n        /* \"#utility.yul\":10712:11032   */\n    tag_74:\n        /* \"#utility.yul\":10756:10762   */\n      0x00\n        /* \"#utility.yul\":10793:10794   */\n      0x02\n        /* \"#utility.yul\":10787:10791   */\n      dup3\n        /* \"#utility.yul\":10783:10795   */\n      div\n        /* \"#utility.yul\":10773:10795   */\n      swap1\n      pop\n        /* \"#utility.yul\":10840:10841   */\n      0x01\n        /* \"#utility.yul\":10834:10838   */\n      dup3\n        /* \"#utility.yul\":10830:10842   */\n      and\n        /* \"#utility.yul\":10861:10879   */\n      dup1\n        /* \"#utility.yul\":10851:10932   */\n      tag_364\n      jumpi\n        /* \"#utility.yul\":10917:10921   */\n      0x7f\n        /* \"#utility.yul\":10909:10915   */\n      dup3\n        /* \"#utility.yul\":10905:10922   */\n      and\n        /* \"#utility.yul\":10895:10922   */\n      swap2\n      pop\n        /* \"#utility.yul\":10851:10932   */\n    tag_364:\n        /* \"#utility.yul\":10979:10981   */\n      0x20\n        /* \"#utility.yul\":10971:10977   */\n      dup3\n        /* \"#utility.yul\":10968:10982   */\n      lt\n        /* \"#utility.yul\":10948:10966   */\n      dup2\n        /* \"#utility.yul\":10945:10983   */\n      sub\n        /* \"#utility.yul\":10942:11026   */\n      tag_365\n      jumpi\n        /* \"#utility.yul\":10998:11016   */\n      tag_366\n      tag_212\n      jump\t// in\n    tag_366:\n        /* \"#utility.yul\":10942:11026   */\n    tag_365:\n        /* \"#utility.yul\":10763:11032   */\n      pop\n        /* \"#utility.yul\":10712:11032   */\n      swap2\n      swap1\n      pop\n      jump\t// out\n        /* \"#utility.yul\":11038:11259   */\n    tag_213:\n        /* \"#utility.yul\":11178:11212   */\n      0x63616e277420726566756e642063757a20646561646c696e65206e6f74206d65\n        /* \"#utility.yul\":11174:11175   */\n      0x00\n        /* \"#utility.yul\":11166:11172   */\n      dup3\n        /* \"#utility.yul\":11162:11176   */\n      add\n        /* \"#utility.yul\":11155:11213   */\n      mstore\n        /* \"#utility.yul\":11247:11251   */\n      0x6574000000000000000000000000000000000000000000000000000000000000\n        /* \"#utility.yul\":11242:11244   */\n      0x20\n        /* \"#utility.yul\":11234:11240   */\n      dup3\n        /* \"#utility.yul\":11230:11245   */\n      add\n        /* \"#utility.yul\":11223:11252   */\n      mstore\n        /* \"#utility.yul\":11038:11259   */\n      pop\n      jump\t// out\n        /* \"#utility.yul\":11265:11631   */\n    tag_214:\n        /* \"#utility.yul\":11407:11410   */\n      0x00\n        /* \"#utility.yul\":11428:11495   */\n      tag_369\n        /* \"#utility.yul\":11492:11494   */\n      0x22\n        /* \"#utility.yul\":11487:11490   */\n      dup4\n        /* \"#utility.yul\":11428:11495   */\n      tag_175\n      jump\t// in\n    tag_369:\n        /* \"#utility.yul\":11421:11495   */\n      swap2\n      pop\n        /* \"#utility.yul\":11504:11597   */\n      tag_370\n        /* \"#utility.yul\":11593:11596   */\n      dup3\n        /* \"#utility.yul\":11504:11597   */\n      tag_213\n      jump\t// in\n    tag_370:\n        /* \"#utility.yul\":11622:11624   */\n      0x40\n        /* \"#utility.yul\":11617:11620   */\n      dup3\n        /* \"#utility.yul\":11613:11625   */\n      add\n        /* \"#utility.yul\":11606:11625   */\n      swap1\n      pop\n        /* \"#utility.yul\":11265:11631   */\n      swap2\n      swap1\n      pop\n      jump\t// out\n        /* \"#utility.yul\":11637:12056   */\n    tag_92:\n        /* \"#utility.yul\":11803:11807   */\n      0x00\n        /* \"#utility.yul\":11841:11843   */\n      0x20\n        /* \"#utility.yul\":11830:11839   */\n      dup3\n        /* \"#utility.yul\":11826:11844   */\n      add\n        /* \"#utility.yul\":11818:11844   */\n      swap1\n      pop\n        /* \"#utility.yul\":11890:11899   */\n      dup2\n        /* \"#utility.yul\":11884:11888   */\n      dup2\n        /* \"#utility.yul\":11880:11900   */\n      sub\n        /* \"#utility.yul\":11876:11877   */\n      0x00\n        /* \"#utility.yul\":11865:11874   */\n      dup4\n        /* \"#utility.yul\":11861:11878   */\n      add\n        /* \"#utility.yul\":11854:11901   */\n      mstore\n        /* \"#utility.yul\":11918:12049   */\n      tag_372\n        /* \"#utility.yul\":12044:12048   */\n      dup2\n        /* \"#utility.yul\":11918:12049   */\n      tag_214\n      jump\t// in\n    tag_372:\n        /* \"#utility.yul\":11910:12049   */\n      swap1\n      pop\n        /* \"#utility.yul\":11637:12056   */\n      swap2\n      swap1\n      pop\n      jump\t// out\n        /* \"#utility.yul\":12062:12504   */\n    tag_98:\n        /* \"#utility.yul\":12211:12215   */\n      0x00\n        /* \"#utility.yul\":12249:12251   */\n      0x60\n        /* \"#utility.yul\":12238:12247   */\n      dup3\n        /* \"#utility.yul\":12234:12252   */\n      add\n        /* \"#utility.yul\":12226:12252   */\n      swap1\n      pop\n        /* \"#utility.yul\":12262:12333   */\n      tag_374\n        /* \"#utility.yul\":12330:12331   */\n      0x00\n        /* \"#utility.yul\":12319:12328   */\n      dup4\n        /* \"#utility.yul\":12315:12332   */\n      add\n        /* \"#utility.yul\":12306:12312   */\n      dup7\n        /* \"#utility.yul\":12262:12333   */\n      tag_199\n      jump\t// in\n    tag_374:\n        /* \"#utility.yul\":12343:12415   */\n      tag_375\n        /* \"#utility.yul\":12411:12413   */\n      0x20\n        /* \"#utility.yul\":12400:12409   */\n      dup4\n        /* \"#utility.yul\":12396:12414   */\n      add\n        /* \"#utility.yul\":12387:12393   */\n      dup6\n        /* \"#utility.yul\":12343:12415   */\n      tag_198\n      jump\t// in\n    tag_375:\n        /* \"#utility.yul\":12425:12497   */\n      tag_376\n        /* \"#utility.yul\":12493:12495   */\n      0x40\n        /* \"#utility.yul\":12482:12491   */\n      dup4\n        /* \"#utility.yul\":12478:12496   */\n      add\n        /* \"#utility.yul\":12469:12475   */\n      dup5\n        /* \"#utility.yul\":12425:12497   */\n      tag_198\n      jump\t// in\n    tag_376:\n        /* \"#utility.yul\":12062:12504   */\n      swap5\n      swap4\n      pop\n      pop\n      pop\n      pop\n      jump\t// out\n        /* \"#utility.yul\":12510:12675   */\n    tag_215:\n        /* \"#utility.yul\":12650:12667   */\n      0x752063616e277420726566756e64200000000000000000000000000000000000\n        /* \"#utility.yul\":12646:12647   */\n      0x00\n        /* \"#utility.yul\":12638:12644   */\n      dup3\n        /* \"#utility.yul\":12634:12648   */\n      add\n        /* \"#utility.yul\":12627:12668   */\n      mstore\n        /* \"#utility.yul\":12510:12675   */\n      pop\n      jump\t// out\n        /* \"#utility.yul\":12681:13047   */\n    tag_216:\n        /* \"#utility.yul\":12823:12826   */\n      0x00\n        /* \"#utility.yul\":12844:12911   */\n      tag_379\n        /* \"#utility.yul\":12908:12910   */\n      0x0f\n        /* \"#utility.yul\":12903:12906   */\n      dup4\n        /* \"#utility.yul\":12844:12911   */\n      tag_175\n      jump\t// in\n    tag_379:\n        /* \"#utility.yul\":12837:12911   */\n      swap2\n      pop\n        /* \"#utility.yul\":12920:13013   */\n      tag_380\n        /* \"#utility.yul\":13009:13012   */\n      dup3\n        /* \"#utility.yul\":12920:13013   */\n      tag_215\n      jump\t// in\n    tag_380:\n        /* \"#utility.yul\":13038:13040   */\n      0x20\n        /* \"#utility.yul\":13033:13036   */\n      dup3\n        /* \"#utility.yul\":13029:13041   */\n      add\n        /* \"#utility.yul\":13022:13041   */\n      swap1\n      pop\n        /* \"#utility.yul\":12681:13047   */\n      swap2\n      swap1\n      pop\n      jump\t// out\n        /* \"#utility.yul\":13053:13472   */\n    tag_101:\n        /* \"#utility.yul\":13219:13223   */\n      0x00\n        /* \"#utility.yul\":13257:13259   */\n      0x20\n        /* \"#utility.yul\":13246:13255   */\n      dup3\n        /* \"#utility.yul\":13242:13260   */\n      add\n        /* \"#utility.yul\":13234:13260   */\n      swap1\n      pop\n        /* \"#utility.yul\":13306:13315   */\n      dup2\n        /* \"#utility.yul\":13300:13304   */\n      dup2\n        /* \"#utility.yul\":13296:13316   */\n      sub\n        /* \"#utility.yul\":13292:13293   */\n      0x00\n        /* \"#utility.yul\":13281:13290   */\n      dup4\n        /* \"#utility.yul\":13277:13294   */\n      add\n        /* \"#utility.yul\":13270:13317   */\n      mstore\n        /* \"#utility.yul\":13334:13465   */\n      tag_382\n        /* \"#utility.yul\":13460:13464   */\n      dup2\n        /* \"#utility.yul\":13334:13465   */\n      tag_216\n      jump\t// in\n    tag_382:\n        /* \"#utility.yul\":13326:13465   */\n      swap1\n      pop\n        /* \"#utility.yul\":13053:13472   */\n      swap2\n      swap1\n      pop\n      jump\t// out\n        /* \"#utility.yul\":13478:13715   */\n    tag_217:\n        /* \"#utility.yul\":13618:13652   */\n      0x6e6f7420616c6c6f77656420636c61696d696e672063757a20616c6c6f776564\n        /* \"#utility.yul\":13614:13615   */\n      0x00\n        /* \"#utility.yul\":13606:13612   */\n      dup3\n        /* \"#utility.yul\":13602:13616   */\n      add\n        /* \"#utility.yul\":13595:13653   */\n      mstore\n        /* \"#utility.yul\":13687:13707   */\n      0x2074696d652069732072656d61696e696e670000000000000000000000000000\n        /* \"#utility.yul\":13682:13684   */\n      0x20\n        /* \"#utility.yul\":13674:13680   */\n      dup3\n        /* \"#utility.yul\":13670:13685   */\n      add\n        /* \"#utility.yul\":13663:13708   */\n      mstore\n        /* \"#utility.yul\":13478:13715   */\n      pop\n      jump\t// out\n        /* \"#utility.yul\":13721:14087   */\n    tag_218:\n        /* \"#utility.yul\":13863:13866   */\n      0x00\n        /* \"#utility.yul\":13884:13951   */\n      tag_385\n        /* \"#utility.yul\":13948:13950   */\n      0x32\n        /* \"#utility.yul\":13943:13946   */\n      dup4\n        /* \"#utility.yul\":13884:13951   */\n      tag_175\n      jump\t// in\n    tag_385:\n        /* \"#utility.yul\":13877:13951   */\n      swap2\n      pop\n        /* \"#utility.yul\":13960:14053   */\n      tag_386\n        /* \"#utility.yul\":14049:14052   */\n      dup3\n        /* \"#utility.yul\":13960:14053   */\n      tag_217\n      jump\t// in\n    tag_386:\n        /* \"#utility.yul\":14078:14080   */\n      0x40\n        /* \"#utility.yul\":14073:14076   */\n      dup3\n        /* \"#utility.yul\":14069:14081   */\n      add\n        /* \"#utility.yul\":14062:14081   */\n      swap1\n      pop\n        /* \"#utility.yul\":13721:14087   */\n      swap2\n      swap1\n      pop\n      jump\t// out\n        /* \"#utility.yul\":14093:14512   */\n    tag_105:\n        /* \"#utility.yul\":14259:14263   */\n      0x00\n        /* \"#utility.yul\":14297:14299   */\n      0x20\n        /* \"#utility.yul\":14286:14295   */\n      dup3\n        /* \"#utility.yul\":14282:14300   */\n      add\n        /* \"#utility.yul\":14274:14300   */\n      swap1\n      pop\n        /* \"#utility.yul\":14346:14355   */\n      dup2\n        /* \"#utility.yul\":14340:14344   */\n      dup2\n        /* \"#utility.yul\":14336:14356   */\n      sub\n        /* \"#utility.yul\":14332:14333   */\n      0x00\n        /* \"#utility.yul\":14321:14330   */\n      dup4\n        /* \"#utility.yul\":14317:14334   */\n      add\n        /* \"#utility.yul\":14310:14357   */\n      mstore\n        /* \"#utility.yul\":14374:14505   */\n      tag_388\n        /* \"#utility.yul\":14500:14504   */\n      dup2\n        /* \"#utility.yul\":14374:14505   */\n      tag_218\n      jump\t// in\n    tag_388:\n        /* \"#utility.yul\":14366:14505   */\n      swap1\n      pop\n        /* \"#utility.yul\":14093:14512   */\n      swap2\n      swap1\n      pop\n      jump\t// out\n        /* \"#utility.yul\":14518:14695   */\n    tag_219:\n        /* \"#utility.yul\":14658:14687   */\n      0x616d6f756e74206973206e6f7420657175616c20746f20676f616c0000000000\n        /* \"#utility.yul\":14654:14655   */\n      0x00\n        /* \"#utility.yul\":14646:14652   */\n      dup3\n        /* \"#utility.yul\":14642:14656   */\n      add\n        /* \"#utility.yul\":14635:14688   */\n      mstore\n        /* \"#utility.yul\":14518:14695   */\n      pop\n      jump\t// out\n        /* \"#utility.yul\":14701:15067   */\n    tag_220:\n        /* \"#utility.yul\":14843:14846   */\n      0x00\n        /* \"#utility.yul\":14864:14931   */\n      tag_391\n        /* \"#utility.yul\":14928:14930   */\n      0x1b\n        /* \"#utility.yul\":14923:14926   */\n      dup4\n        /* \"#utility.yul\":14864:14931   */\n      tag_175\n      jump\t// in\n    tag_391:\n        /* \"#utility.yul\":14857:14931   */\n      swap2\n      pop\n        /* \"#utility.yul\":14940:15033   */\n      tag_392\n        /* \"#utility.yul\":15029:15032   */\n      dup3\n        /* \"#utility.yul\":14940:15033   */\n      tag_219\n      jump\t// in\n    tag_392:\n        /* \"#utility.yul\":15058:15060   */\n      0x20\n        /* \"#utility.yul\":15053:15056   */\n      dup3\n        /* \"#utility.yul\":15049:15061   */\n      add\n        /* \"#utility.yul\":15042:15061   */\n      swap1\n      pop\n        /* \"#utility.yul\":14701:15067   */\n      swap2\n      swap1\n      pop\n      jump\t// out\n        /* \"#utility.yul\":15073:15492   */\n    tag_115:\n        /* \"#utility.yul\":15239:15243   */\n      0x00\n        /* \"#utility.yul\":15277:15279   */\n      0x20\n        /* \"#utility.yul\":15266:15275   */\n      dup3\n        /* \"#utility.yul\":15262:15280   */\n      add\n        /* \"#utility.yul\":15254:15280   */\n      swap1\n      pop\n        /* \"#utility.yul\":15326:15335   */\n      dup2\n        /* \"#utility.yul\":15320:15324   */\n      dup2\n        /* \"#utility.yul\":15316:15336   */\n      sub\n        /* \"#utility.yul\":15312:15313   */\n      0x00\n        /* \"#utility.yul\":15301:15310   */\n      dup4\n        /* \"#utility.yul\":15297:15314   */\n      add\n        /* \"#utility.yul\":15290:15337   */\n      mstore\n        /* \"#utility.yul\":15354:15485   */\n      tag_394\n        /* \"#utility.yul\":15480:15484   */\n      dup2\n        /* \"#utility.yul\":15354:15485   */\n      tag_220\n      jump\t// in\n    tag_394:\n        /* \"#utility.yul\":15346:15485   */\n      swap1\n      pop\n        /* \"#utility.yul\":15073:15492   */\n      swap2\n      swap1\n      pop\n      jump\t// out\n        /* \"#utility.yul\":15498:15678   */\n    tag_221:\n        /* \"#utility.yul\":15546:15623   */\n      0x4e487b7100000000000000000000000000000000000000000000000000000000\n        /* \"#utility.yul\":15543:15544   */\n      0x00\n        /* \"#utility.yul\":15536:15624   */\n      mstore\n        /* \"#utility.yul\":15643:15647   */\n      0x11\n        /* \"#utility.yul\":15640:15641   */\n      0x04\n        /* \"#utility.yul\":15633:15648   */\n      mstore\n        /* \"#utility.yul\":15667:15671   */\n      0x24\n        /* \"#utility.yul\":15664:15665   */\n      0x00\n        /* \"#utility.yul\":15657:15672   */\n      revert\n        /* \"#utility.yul\":15684:15878   */\n    tag_118:\n        /* \"#utility.yul\":15724:15728   */\n      0x00\n        /* \"#utility.yul\":15744:15764   */\n      tag_397\n        /* \"#utility.yul\":15762:15763   */\n      dup3\n        /* \"#utility.yul\":15744:15764   */\n      tag_181\n      jump\t// in\n    tag_397:\n        /* \"#utility.yul\":15739:15764   */\n      swap2\n      pop\n        /* \"#utility.yul\":15778:15798   */\n      tag_398\n        /* \"#utility.yul\":15796:15797   */\n      dup4\n        /* \"#utility.yul\":15778:15798   */\n      tag_181\n      jump\t// in\n    tag_398:\n        /* \"#utility.yul\":15773:15798   */\n      swap3\n      pop\n        /* \"#utility.yul\":15822:15823   */\n      dup3\n        /* \"#utility.yul\":15819:15820   */\n      dup3\n        /* \"#utility.yul\":15815:15824   */\n      sub\n        /* \"#utility.yul\":15807:15824   */\n      swap1\n      pop\n        /* \"#utility.yul\":15846:15847   */\n      dup2\n        /* \"#utility.yul\":15840:15844   */\n      dup2\n        /* \"#utility.yul\":15837:15848   */\n      gt\n        /* \"#utility.yul\":15834:15871   */\n      iszero\n      tag_399\n      jumpi\n        /* \"#utility.yul\":15851:15869   */\n      tag_400\n      tag_221\n      jump\t// in\n    tag_400:\n        /* \"#utility.yul\":15834:15871   */\n    tag_399:\n        /* \"#utility.yul\":15684:15878   */\n      swap3\n      swap2\n      pop\n      pop\n      jump\t// out\n        /* \"#utility.yul\":15884:16216   */\n    tag_123:\n        /* \"#utility.yul\":16005:16009   */\n      0x00\n        /* \"#utility.yul\":16043:16045   */\n      0x40\n        /* \"#utility.yul\":16032:16041   */\n      dup3\n        /* \"#utility.yul\":16028:16046   */\n      add\n        /* \"#utility.yul\":16020:16046   */\n      swap1\n      pop\n        /* \"#utility.yul\":16056:16127   */\n      tag_402\n        /* \"#utility.yul\":16124:16125   */\n      0x00\n        /* \"#utility.yul\":16113:16122   */\n      dup4\n        /* \"#utility.yul\":16109:16126   */\n      add\n        /* \"#utility.yul\":16100:16106   */\n      dup6\n        /* \"#utility.yul\":16056:16127   */\n      tag_199\n      jump\t// in\n    tag_402:\n        /* \"#utility.yul\":16137:16209   */\n      tag_403\n        /* \"#utility.yul\":16205:16207   */\n      0x20\n        /* \"#utility.yul\":16194:16203   */\n      dup4\n        /* \"#utility.yul\":16190:16208   */\n      add\n        /* \"#utility.yul\":16181:16187   */\n      dup5\n        /* \"#utility.yul\":16137:16209   */\n      tag_198\n      jump\t// in\n    tag_403:\n        /* \"#utility.yul\":15884:16216   */\n      swap4\n      swap3\n      pop\n      pop\n      pop\n      jump\t// out\n        /* \"#utility.yul\":16222:16449   */\n    tag_222:\n        /* \"#utility.yul\":16362:16396   */\n      0x7472616e73616374696f6e20617265206e6f7420616c6c6f77656420696e2074\n        /* \"#utility.yul\":16358:16359   */\n      0x00\n        /* \"#utility.yul\":16350:16356   */\n      dup3\n        /* \"#utility.yul\":16346:16360   */\n      add\n        /* \"#utility.yul\":16339:16397   */\n      mstore\n        /* \"#utility.yul\":16431:16441   */\n      0x6869732074696d65000000000000000000000000000000000000000000000000\n        /* \"#utility.yul\":16426:16428   */\n      0x20\n        /* \"#utility.yul\":16418:16424   */\n      dup3\n        /* \"#utility.yul\":16414:16429   */\n      add\n        /* \"#utility.yul\":16407:16442   */\n      mstore\n        /* \"#utility.yul\":16222:16449   */\n      pop\n      jump\t// out\n        /* \"#utility.yul\":16455:16821   */\n    tag_223:\n        /* \"#utility.yul\":16597:16600   */\n      0x00\n        /* \"#utility.yul\":16618:16685   */\n      tag_406\n        /* \"#utility.yul\":16682:16684   */\n      0x28\n        /* \"#utility.yul\":16677:16680   */\n      dup4\n        /* \"#utility.yul\":16618:16685   */\n      tag_175\n      jump\t// in\n    tag_406:\n        /* \"#utility.yul\":16611:16685   */\n      swap2\n      pop\n        /* \"#utility.yul\":16694:16787   */\n      tag_407\n        /* \"#utility.yul\":16783:16786   */\n      dup3\n        /* \"#utility.yul\":16694:16787   */\n      tag_222\n      jump\t// in\n    tag_407:\n        /* \"#utility.yul\":16812:16814   */\n      0x40\n        /* \"#utility.yul\":16807:16810   */\n      dup3\n        /* \"#utility.yul\":16803:16815   */\n      add\n        /* \"#utility.yul\":16796:16815   */\n      swap1\n      pop\n        /* \"#utility.yul\":16455:16821   */\n      swap2\n      swap1\n      pop\n      jump\t// out\n        /* \"#utility.yul\":16827:17246   */\n    tag_128:\n        /* \"#utility.yul\":16993:16997   */\n      0x00\n        /* \"#utility.yul\":17031:17033   */\n      0x20\n        /* \"#utility.yul\":17020:17029   */\n      dup3\n        /* \"#utility.yul\":17016:17034   */\n      add\n        /* \"#utility.yul\":17008:17034   */\n      swap1\n      pop\n        /* \"#utility.yul\":17080:17089   */\n      dup2\n        /* \"#utility.yul\":17074:17078   */\n      dup2\n        /* \"#utility.yul\":17070:17090   */\n      sub\n        /* \"#utility.yul\":17066:17067   */\n      0x00\n        /* \"#utility.yul\":17055:17064   */\n      dup4\n        /* \"#utility.yul\":17051:17068   */\n      add\n        /* \"#utility.yul\":17044:17091   */\n      mstore\n        /* \"#utility.yul\":17108:17239   */\n      tag_409\n        /* \"#utility.yul\":17234:17238   */\n      dup2\n        /* \"#utility.yul\":17108:17239   */\n      tag_223\n      jump\t// in\n    tag_409:\n        /* \"#utility.yul\":17100:17239   */\n      swap1\n      pop\n        /* \"#utility.yul\":16827:17246   */\n      swap2\n      swap1\n      pop\n      jump\t// out\n        /* \"#utility.yul\":17252:17443   */\n    tag_131:\n        /* \"#utility.yul\":17292:17295   */\n      0x00\n        /* \"#utility.yul\":17311:17331   */\n      tag_411\n        /* \"#utility.yul\":17329:17330   */\n      dup3\n        /* \"#utility.yul\":17311:17331   */\n      tag_181\n      jump\t// in\n    tag_411:\n        /* \"#utility.yul\":17306:17331   */\n      swap2\n      pop\n        /* \"#utility.yul\":17345:17365   */\n      tag_412\n        /* \"#utility.yul\":17363:17364   */\n      dup4\n        /* \"#utility.yul\":17345:17365   */\n      tag_181\n      jump\t// in\n    tag_412:\n        /* \"#utility.yul\":17340:17365   */\n      swap3\n      pop\n        /* \"#utility.yul\":17388:17389   */\n      dup3\n        /* \"#utility.yul\":17385:17386   */\n      dup3\n        /* \"#utility.yul\":17381:17390   */\n      add\n        /* \"#utility.yul\":17374:17390   */\n      swap1\n      pop\n        /* \"#utility.yul\":17409:17412   */\n      dup1\n        /* \"#utility.yul\":17406:17407   */\n      dup3\n        /* \"#utility.yul\":17403:17413   */\n      gt\n        /* \"#utility.yul\":17400:17436   */\n      iszero\n      tag_413\n      jumpi\n        /* \"#utility.yul\":17416:17434   */\n      tag_414\n      tag_221\n      jump\t// in\n    tag_414:\n        /* \"#utility.yul\":17400:17436   */\n    tag_413:\n        /* \"#utility.yul\":17252:17443   */\n      swap3\n      swap2\n      pop\n      pop\n      jump\t// out\n        /* \"#utility.yul\":17449:17618   */\n    tag_224:\n        /* \"#utility.yul\":17589:17610   */\n      0x7374746165206973206e6f742061637269766500000000000000000000000000\n        /* \"#utility.yul\":17585:17586   */\n      0x00\n        /* \"#utility.yul\":17577:17583   */\n      dup3\n        /* \"#utility.yul\":17573:17587   */\n      add\n        /* \"#utility.yul\":17566:17611   */\n      mstore\n        /* \"#utility.yul\":17449:17618   */\n      pop\n      jump\t// out\n        /* \"#utility.yul\":17624:17990   */\n    tag_225:\n        /* \"#utility.yul\":17766:17769   */\n      0x00\n        /* \"#utility.yul\":17787:17854   */\n      tag_417\n        /* \"#utility.yul\":17851:17853   */\n      0x13\n        /* \"#utility.yul\":17846:17849   */\n      dup4\n        /* \"#utility.yul\":17787:17854   */\n      tag_175\n      jump\t// in\n    tag_417:\n        /* \"#utility.yul\":17780:17854   */\n      swap2\n      pop\n        /* \"#utility.yul\":17863:17956   */\n      tag_418\n        /* \"#utility.yul\":17952:17955   */\n      dup3\n        /* \"#utility.yul\":17863:17956   */\n      tag_224\n      jump\t// in\n    tag_418:\n        /* \"#utility.yul\":17981:17983   */\n      0x20\n        /* \"#utility.yul\":17976:17979   */\n      dup3\n        /* \"#utility.yul\":17972:17984   */\n      add\n        /* \"#utility.yul\":17965:17984   */\n      swap1\n      pop\n        /* \"#utility.yul\":17624:17990   */\n      swap2\n      swap1\n      pop\n      jump\t// out\n        /* \"#utility.yul\":17996:18415   */\n    tag_138:\n        /* \"#utility.yul\":18162:18166   */\n      0x00\n        /* \"#utility.yul\":18200:18202   */\n      0x20\n        /* \"#utility.yul\":18189:18198   */\n      dup3\n        /* \"#utility.yul\":18185:18203   */\n      add\n        /* \"#utility.yul\":18177:18203   */\n      swap1\n      pop\n        /* \"#utility.yul\":18249:18258   */\n      dup2\n        /* \"#utility.yul\":18243:18247   */\n      dup2\n        /* \"#utility.yul\":18239:18259   */\n      sub\n        /* \"#utility.yul\":18235:18236   */\n      0x00\n        /* \"#utility.yul\":18224:18233   */\n      dup4\n        /* \"#utility.yul\":18220:18237   */\n      add\n        /* \"#utility.yul\":18213:18260   */\n      mstore\n        /* \"#utility.yul\":18277:18408   */\n      tag_420\n        /* \"#utility.yul\":18403:18407   */\n      dup2\n        /* \"#utility.yul\":18277:18408   */\n      tag_225\n      jump\t// in\n    tag_420:\n        /* \"#utility.yul\":18269:18408   */\n      swap1\n      pop\n        /* \"#utility.yul\":17996:18415   */\n      swap2\n      swap1\n      pop\n      jump\t// out\n        /* \"#utility.yul\":18421:18863   */\n    tag_140:\n        /* \"#utility.yul\":18570:18574   */\n      0x00\n        /* \"#utility.yul\":18608:18610   */\n      0x60\n        /* \"#utility.yul\":18597:18606   */\n      dup3\n        /* \"#utility.yul\":18593:18611   */\n      add\n        /* \"#utility.yul\":18585:18611   */\n      swap1\n      pop\n        /* \"#utility.yul\":18621:18692   */\n      tag_422\n        /* \"#utility.yul\":18689:18690   */\n      0x00\n        /* \"#utility.yul\":18678:18687   */\n      dup4\n        /* \"#utility.yul\":18674:18691   */\n      add\n        /* \"#utility.yul\":18665:18671   */\n      dup7\n        /* \"#utility.yul\":18621:18692   */\n      tag_198\n      jump\t// in\n    tag_422:\n        /* \"#utility.yul\":18702:18774   */\n      tag_423\n        /* \"#utility.yul\":18770:18772   */\n      0x20\n        /* \"#utility.yul\":18759:18768   */\n      dup4\n        /* \"#utility.yul\":18755:18773   */\n      add\n        /* \"#utility.yul\":18746:18752   */\n      dup6\n        /* \"#utility.yul\":18702:18774   */\n      tag_199\n      jump\t// in\n    tag_423:\n        /* \"#utility.yul\":18784:18856   */\n      tag_424\n        /* \"#utility.yul\":18852:18854   */\n      0x40\n        /* \"#utility.yul\":18841:18850   */\n      dup4\n        /* \"#utility.yul\":18837:18855   */\n      add\n        /* \"#utility.yul\":18828:18834   */\n      dup5\n        /* \"#utility.yul\":18784:18856   */\n      tag_198\n      jump\t// in\n    tag_424:\n        /* \"#utility.yul\":18421:18863   */\n      swap5\n      swap4\n      pop\n      pop\n      pop\n      pop\n      jump\t// out\n        /* \"#utility.yul\":18869:18986   */\n    tag_226:\n        /* \"#utility.yul\":18978:18979   */\n      0x00\n        /* \"#utility.yul\":18975:18976   */\n      dup1\n        /* \"#utility.yul\":18968:18980   */\n      revert\n        /* \"#utility.yul\":18992:19109   */\n    tag_227:\n        /* \"#utility.yul\":19101:19102   */\n      0x00\n        /* \"#utility.yul\":19098:19099   */\n      dup1\n        /* \"#utility.yul\":19091:19103   */\n      revert\n        /* \"#utility.yul\":19115:19549   */\n    tag_228:\n        /* \"#utility.yul\":19204:19209   */\n      0x00\n        /* \"#utility.yul\":19229:19295   */\n      tag_428\n        /* \"#utility.yul\":19245:19294   */\n      tag_429\n        /* \"#utility.yul\":19287:19293   */\n      dup5\n        /* \"#utility.yul\":19245:19294   */\n      tag_208\n      jump\t// in\n    tag_429:\n        /* \"#utility.yul\":19229:19295   */\n      tag_207\n      jump\t// in\n    tag_428:\n        /* \"#utility.yul\":19220:19295   */\n      swap1\n      pop\n        /* \"#utility.yul\":19318:19324   */\n      dup3\n        /* \"#utility.yul\":19311:19316   */\n      dup2\n        /* \"#utility.yul\":19304:19325   */\n      mstore\n        /* \"#utility.yul\":19356:19360   */\n      0x20\n        /* \"#utility.yul\":19349:19354   */\n      dup2\n        /* \"#utility.yul\":19345:19361   */\n      add\n        /* \"#utility.yul\":19394:19397   */\n      dup5\n        /* \"#utility.yul\":19385:19391   */\n      dup5\n        /* \"#utility.yul\":19380:19383   */\n      dup5\n        /* \"#utility.yul\":19376:19392   */\n      add\n        /* \"#utility.yul\":19373:19398   */\n      gt\n        /* \"#utility.yul\":19370:19482   */\n      iszero\n      tag_430\n      jumpi\n        /* \"#utility.yul\":19401:19480   */\n      tag_431\n      tag_204\n      jump\t// in\n    tag_431:\n        /* \"#utility.yul\":19370:19482   */\n    tag_430:\n        /* \"#utility.yul\":19491:19543   */\n      tag_432\n        /* \"#utility.yul\":19536:19542   */\n      dup5\n        /* \"#utility.yul\":19531:19534   */\n      dup3\n        /* \"#utility.yul\":19526:19529   */\n      dup6\n        /* \"#utility.yul\":19491:19543   */\n      tag_186\n      jump\t// in\n    tag_432:\n        /* \"#utility.yul\":19210:19549   */\n      pop\n        /* \"#utility.yul\":19115:19549   */\n      swap4\n      swap3\n      pop\n      pop\n      pop\n      jump\t// out\n        /* \"#utility.yul\":19569:19924   */\n    tag_229:\n        /* \"#utility.yul\":19636:19641   */\n      0x00\n        /* \"#utility.yul\":19685:19688   */\n      dup3\n        /* \"#utility.yul\":19678:19682   */\n      0x1f\n        /* \"#utility.yul\":19670:19676   */\n      dup4\n        /* \"#utility.yul\":19666:19683   */\n      add\n        /* \"#utility.yul\":19662:19689   */\n      slt\n        /* \"#utility.yul\":19652:19774   */\n      tag_434\n      jumpi\n        /* \"#utility.yul\":19693:19772   */\n      tag_435\n      tag_200\n      jump\t// in\n    tag_435:\n        /* \"#utility.yul\":19652:19774   */\n    tag_434:\n        /* \"#utility.yul\":19803:19809   */\n      dup2\n        /* \"#utility.yul\":19797:19810   */\n      mload\n        /* \"#utility.yul\":19828:19918   */\n      tag_436\n        /* \"#utility.yul\":19914:19917   */\n      dup5\n        /* \"#utility.yul\":19906:19912   */\n      dup3\n        /* \"#utility.yul\":19899:19903   */\n      0x20\n        /* \"#utility.yul\":19891:19897   */\n      dup7\n        /* \"#utility.yul\":19887:19904   */\n      add\n        /* \"#utility.yul\":19828:19918   */\n      tag_228\n      jump\t// in\n    tag_436:\n        /* \"#utility.yul\":19819:19918   */\n      swap2\n      pop\n        /* \"#utility.yul\":19642:19924   */\n      pop\n        /* \"#utility.yul\":19569:19924   */\n      swap3\n      swap2\n      pop\n      pop\n      jump\t// out\n        /* \"#utility.yul\":19930:20052   */\n    tag_230:\n        /* \"#utility.yul\":20003:20027   */\n      tag_438\n        /* \"#utility.yul\":20021:20026   */\n      dup2\n        /* \"#utility.yul\":20003:20027   */\n      tag_190\n      jump\t// in\n    tag_438:\n        /* \"#utility.yul\":19996:20001   */\n      dup2\n        /* \"#utility.yul\":19993:20028   */\n      eq\n        /* \"#utility.yul\":19983:20046   */\n      tag_439\n      jumpi\n        /* \"#utility.yul\":20042:20043   */\n      0x00\n        /* \"#utility.yul\":20039:20040   */\n      dup1\n        /* \"#utility.yul\":20032:20044   */\n      revert\n        /* \"#utility.yul\":19983:20046   */\n    tag_439:\n        /* \"#utility.yul\":19930:20052   */\n      pop\n      jump\t// out\n        /* \"#utility.yul\":20058:20201   */\n    tag_231:\n        /* \"#utility.yul\":20115:20120   */\n      0x00\n        /* \"#utility.yul\":20146:20152   */\n      dup2\n        /* \"#utility.yul\":20140:20153   */\n      mload\n        /* \"#utility.yul\":20131:20153   */\n      swap1\n      pop\n        /* \"#utility.yul\":20162:20195   */\n      tag_441\n        /* \"#utility.yul\":20189:20194   */\n      dup2\n        /* \"#utility.yul\":20162:20195   */\n      tag_230\n      jump\t// in\n    tag_441:\n        /* \"#utility.yul\":20058:20201   */\n      swap3\n      swap2\n      pop\n      pop\n      jump\t// out\n        /* \"#utility.yul\":20207:20350   */\n    tag_232:\n        /* \"#utility.yul\":20264:20269   */\n      0x00\n        /* \"#utility.yul\":20295:20301   */\n      dup2\n        /* \"#utility.yul\":20289:20302   */\n      mload\n        /* \"#utility.yul\":20280:20302   */\n      swap1\n      pop\n        /* \"#utility.yul\":20311:20344   */\n      tag_443\n        /* \"#utility.yul\":20338:20343   */\n      dup2\n        /* \"#utility.yul\":20311:20344   */\n      tag_182\n      jump\t// in\n    tag_443:\n        /* \"#utility.yul\":20207:20350   */\n      swap3\n      swap2\n      pop\n      pop\n      jump\t// out\n        /* \"#utility.yul\":20356:20467   */\n    tag_233:\n        /* \"#utility.yul\":20441:20442   */\n      0x02\n        /* \"#utility.yul\":20434:20439   */\n      dup2\n        /* \"#utility.yul\":20431:20443   */\n      lt\n        /* \"#utility.yul\":20421:20461   */\n      tag_445\n      jumpi\n        /* \"#utility.yul\":20457:20458   */\n      0x00\n        /* \"#utility.yul\":20454:20455   */\n      dup1\n        /* \"#utility.yul\":20447:20459   */\n      revert\n        /* \"#utility.yul\":20421:20461   */\n    tag_445:\n        /* \"#utility.yul\":20356:20467   */\n      pop\n      jump\t// out\n        /* \"#utility.yul\":20473:20640   */\n    tag_234:\n        /* \"#utility.yul\":20542:20547   */\n      0x00\n        /* \"#utility.yul\":20573:20579   */\n      dup2\n        /* \"#utility.yul\":20567:20580   */\n      mload\n        /* \"#utility.yul\":20558:20580   */\n      swap1\n      pop\n        /* \"#utility.yul\":20589:20634   */\n      tag_447\n        /* \"#utility.yul\":20628:20633   */\n      dup2\n        /* \"#utility.yul\":20589:20634   */\n      tag_233\n      jump\t// in\n    tag_447:\n        /* \"#utility.yul\":20473:20640   */\n      swap3\n      swap2\n      pop\n      pop\n      jump\t// out\n        /* \"#utility.yul\":20673:22154   */\n    tag_235:\n        /* \"#utility.yul\":20757:20762   */\n      0x00\n        /* \"#utility.yul\":20801:20805   */\n      0xa0\n        /* \"#utility.yul\":20789:20798   */\n      dup3\n        /* \"#utility.yul\":20784:20787   */\n      dup5\n        /* \"#utility.yul\":20780:20799   */\n      sub\n        /* \"#utility.yul\":20776:20806   */\n      slt\n        /* \"#utility.yul\":20773:20890   */\n      iszero\n      tag_449\n      jumpi\n        /* \"#utility.yul\":20809:20888   */\n      tag_450\n      tag_226\n      jump\t// in\n    tag_450:\n        /* \"#utility.yul\":20773:20890   */\n    tag_449:\n        /* \"#utility.yul\":20908:20929   */\n      tag_451\n        /* \"#utility.yul\":20924:20928   */\n      0xa0\n        /* \"#utility.yul\":20908:20929   */\n      tag_207\n      jump\t// in\n    tag_451:\n        /* \"#utility.yul\":20899:20929   */\n      swap1\n      pop\n        /* \"#utility.yul\":21009:21010   */\n      0x00\n        /* \"#utility.yul\":20998:21007   */\n      dup3\n        /* \"#utility.yul\":20994:21011   */\n      add\n        /* \"#utility.yul\":20988:21012   */\n      mload\n        /* \"#utility.yul\":21039:21057   */\n      0xffffffffffffffff\n        /* \"#utility.yul\":21031:21037   */\n      dup2\n        /* \"#utility.yul\":21028:21058   */\n      gt\n        /* \"#utility.yul\":21025:21142   */\n      iszero\n      tag_452\n      jumpi\n        /* \"#utility.yul\":21061:21140   */\n      tag_453\n      tag_227\n      jump\t// in\n    tag_453:\n        /* \"#utility.yul\":21025:21142   */\n    tag_452:\n        /* \"#utility.yul\":21181:21251   */\n      tag_454\n        /* \"#utility.yul\":21247:21250   */\n      dup5\n        /* \"#utility.yul\":21238:21244   */\n      dup3\n        /* \"#utility.yul\":21227:21236   */\n      dup6\n        /* \"#utility.yul\":21223:21245   */\n      add\n        /* \"#utility.yul\":21181:21251   */\n      tag_229\n      jump\t// in\n    tag_454:\n        /* \"#utility.yul\":21174:21178   */\n      0x00\n        /* \"#utility.yul\":21167:21172   */\n      dup4\n        /* \"#utility.yul\":21163:21179   */\n      add\n        /* \"#utility.yul\":21156:21252   */\n      mstore\n        /* \"#utility.yul\":20939:21263   */\n      pop\n        /* \"#utility.yul\":21350:21352   */\n      0x20\n        /* \"#utility.yul\":21339:21348   */\n      dup3\n        /* \"#utility.yul\":21335:21353   */\n      add\n        /* \"#utility.yul\":21329:21354   */\n      mload\n        /* \"#utility.yul\":21381:21399   */\n      0xffffffffffffffff\n        /* \"#utility.yul\":21373:21379   */\n      dup2\n        /* \"#utility.yul\":21370:21400   */\n      gt\n        /* \"#utility.yul\":21367:21484   */\n      iszero\n      tag_455\n      jumpi\n        /* \"#utility.yul\":21403:21482   */\n      tag_456\n      tag_227\n      jump\t// in\n    tag_456:\n        /* \"#utility.yul\":21367:21484   */\n    tag_455:\n        /* \"#utility.yul\":21523:21593   */\n      tag_457\n        /* \"#utility.yul\":21589:21592   */\n      dup5\n        /* \"#utility.yul\":21580:21586   */\n      dup3\n        /* \"#utility.yul\":21569:21578   */\n      dup6\n        /* \"#utility.yul\":21565:21587   */\n      add\n        /* \"#utility.yul\":21523:21593   */\n      tag_229\n      jump\t// in\n    tag_457:\n        /* \"#utility.yul\":21516:21520   */\n      0x20\n        /* \"#utility.yul\":21509:21514   */\n      dup4\n        /* \"#utility.yul\":21505:21521   */\n      add\n        /* \"#utility.yul\":21498:21594   */\n      mstore\n        /* \"#utility.yul\":21273:21605   */\n      pop\n        /* \"#utility.yul\":21669:21671   */\n      0x40\n        /* \"#utility.yul\":21710:21770   */\n      tag_458\n        /* \"#utility.yul\":21766:21769   */\n      dup5\n        /* \"#utility.yul\":21757:21763   */\n      dup3\n        /* \"#utility.yul\":21746:21755   */\n      dup6\n        /* \"#utility.yul\":21742:21764   */\n      add\n        /* \"#utility.yul\":21710:21770   */\n      tag_231\n      jump\t// in\n    tag_458:\n        /* \"#utility.yul\":21703:21707   */\n      0x40\n        /* \"#utility.yul\":21696:21701   */\n      dup4\n        /* \"#utility.yul\":21692:21708   */\n      add\n        /* \"#utility.yul\":21685:21771   */\n      mstore\n        /* \"#utility.yul\":21615:21782   */\n      pop\n        /* \"#utility.yul\":21848:21850   */\n      0x60\n        /* \"#utility.yul\":21889:21949   */\n      tag_459\n        /* \"#utility.yul\":21945:21948   */\n      dup5\n        /* \"#utility.yul\":21936:21942   */\n      dup3\n        /* \"#utility.yul\":21925:21934   */\n      dup6\n        /* \"#utility.yul\":21921:21943   */\n      add\n        /* \"#utility.yul\":21889:21949   */\n      tag_232\n      jump\t// in\n    tag_459:\n        /* \"#utility.yul\":21882:21886   */\n      0x60\n        /* \"#utility.yul\":21875:21880   */\n      dup4\n        /* \"#utility.yul\":21871:21887   */\n      add\n        /* \"#utility.yul\":21864:21950   */\n      mstore\n        /* \"#utility.yul\":21792:21961   */\n      pop\n        /* \"#utility.yul\":22021:22024   */\n      0x80\n        /* \"#utility.yul\":22063:22135   */\n      tag_460\n        /* \"#utility.yul\":22131:22134   */\n      dup5\n        /* \"#utility.yul\":22122:22128   */\n      dup3\n        /* \"#utility.yul\":22111:22120   */\n      dup6\n        /* \"#utility.yul\":22107:22129   */\n      add\n        /* \"#utility.yul\":22063:22135   */\n      tag_234\n      jump\t// in\n    tag_460:\n        /* \"#utility.yul\":22056:22060   */\n      0x80\n        /* \"#utility.yul\":22049:22054   */\n      dup4\n        /* \"#utility.yul\":22045:22061   */\n      add\n        /* \"#utility.yul\":22038:22136   */\n      mstore\n        /* \"#utility.yul\":21971:22147   */\n      pop\n        /* \"#utility.yul\":20673:22154   */\n      swap3\n      swap2\n      pop\n      pop\n      jump\t// out\n        /* \"#utility.yul\":22160:22712   */\n    tag_144:\n        /* \"#utility.yul\":22254:22260   */\n      0x00\n        /* \"#utility.yul\":22303:22305   */\n      0x20\n        /* \"#utility.yul\":22291:22300   */\n      dup3\n        /* \"#utility.yul\":22282:22289   */\n      dup5\n        /* \"#utility.yul\":22278:22301   */\n      sub\n        /* \"#utility.yul\":22274:22306   */\n      slt\n        /* \"#utility.yul\":22271:22390   */\n      iszero\n      tag_462\n      jumpi\n        /* \"#utility.yul\":22309:22388   */\n      tag_463\n      tag_179\n      jump\t// in\n    tag_463:\n        /* \"#utility.yul\":22271:22390   */\n    tag_462:\n        /* \"#utility.yul\":22450:22451   */\n      0x00\n        /* \"#utility.yul\":22439:22448   */\n      dup3\n        /* \"#utility.yul\":22435:22452   */\n      add\n        /* \"#utility.yul\":22429:22453   */\n      mload\n        /* \"#utility.yul\":22480:22498   */\n      0xffffffffffffffff\n        /* \"#utility.yul\":22472:22478   */\n      dup2\n        /* \"#utility.yul\":22469:22499   */\n      gt\n        /* \"#utility.yul\":22466:22583   */\n      iszero\n      tag_464\n      jumpi\n        /* \"#utility.yul\":22502:22581   */\n      tag_465\n      tag_180\n      jump\t// in\n    tag_465:\n        /* \"#utility.yul\":22466:22583   */\n    tag_464:\n        /* \"#utility.yul\":22607:22695   */\n      tag_466\n        /* \"#utility.yul\":22687:22694   */\n      dup5\n        /* \"#utility.yul\":22678:22684   */\n      dup3\n        /* \"#utility.yul\":22667:22676   */\n      dup6\n        /* \"#utility.yul\":22663:22685   */\n      add\n        /* \"#utility.yul\":22607:22695   */\n      tag_235\n      jump\t// in\n    tag_466:\n        /* \"#utility.yul\":22597:22695   */\n      swap2\n      pop\n        /* \"#utility.yul\":22400:22705   */\n      pop\n        /* \"#utility.yul\":22160:22712   */\n      swap3\n      swap2\n      pop\n      pop\n      jump\t// out\n        /* \"#utility.yul\":22718:22882   */\n    tag_236:\n        /* \"#utility.yul\":22858:22874   */\n      0x75736572206e6f7420666f756e64000000000000000000000000000000000000\n        /* \"#utility.yul\":22854:22855   */\n      0x00\n        /* \"#utility.yul\":22846:22852   */\n      dup3\n        /* \"#utility.yul\":22842:22856   */\n      add\n        /* \"#utility.yul\":22835:22875   */\n      mstore\n        /* \"#utility.yul\":22718:22882   */\n      pop\n      jump\t// out\n        /* \"#utility.yul\":22888:23254   */\n    tag_237:\n        /* \"#utility.yul\":23030:23033   */\n      0x00\n        /* \"#utility.yul\":23051:23118   */\n      tag_469\n        /* \"#utility.yul\":23115:23117   */\n      0x0e\n        /* \"#utility.yul\":23110:23113   */\n      dup4\n        /* \"#utility.yul\":23051:23118   */\n      tag_175\n      jump\t// in\n    tag_469:\n        /* \"#utility.yul\":23044:23118   */\n      swap2\n      pop\n        /* \"#utility.yul\":23127:23220   */\n      tag_470\n        /* \"#utility.yul\":23216:23219   */\n      dup3\n        /* \"#utility.yul\":23127:23220   */\n      tag_236\n      jump\t// in\n    tag_470:\n        /* \"#utility.yul\":23245:23247   */\n      0x20\n        /* \"#utility.yul\":23240:23243   */\n      dup3\n        /* \"#utility.yul\":23236:23248   */\n      add\n        /* \"#utility.yul\":23229:23248   */\n      swap1\n      pop\n        /* \"#utility.yul\":22888:23254   */\n      swap2\n      swap1\n      pop\n      jump\t// out\n        /* \"#utility.yul\":23260:23679   */\n    tag_150:\n        /* \"#utility.yul\":23426:23430   */\n      0x00\n        /* \"#utility.yul\":23464:23466   */\n      0x20\n        /* \"#utility.yul\":23453:23462   */\n      dup3\n        /* \"#utility.yul\":23449:23467   */\n      add\n        /* \"#utility.yul\":23441:23467   */\n      swap1\n      pop\n        /* \"#utility.yul\":23513:23522   */\n      dup2\n        /* \"#utility.yul\":23507:23511   */\n      dup2\n        /* \"#utility.yul\":23503:23523   */\n      sub\n        /* \"#utility.yul\":23499:23500   */\n      0x00\n        /* \"#utility.yul\":23488:23497   */\n      dup4\n        /* \"#utility.yul\":23484:23501   */\n      add\n        /* \"#utility.yul\":23477:23524   */\n      mstore\n        /* \"#utility.yul\":23541:23672   */\n      tag_472\n        /* \"#utility.yul\":23667:23671   */\n      dup2\n        /* \"#utility.yul\":23541:23672   */\n      tag_237\n      jump\t// in\n    tag_472:\n        /* \"#utility.yul\":23533:23672   */\n      swap1\n      pop\n        /* \"#utility.yul\":23260:23679   */\n      swap2\n      swap1\n      pop\n      jump\t// out\n        /* \"#utility.yul\":23685:23826   */\n    tag_238:\n        /* \"#utility.yul\":23734:23738   */\n      0x00\n        /* \"#utility.yul\":23757:23760   */\n      dup2\n        /* \"#utility.yul\":23749:23760   */\n      swap1\n      pop\n        /* \"#utility.yul\":23780:23783   */\n      dup2\n        /* \"#utility.yul\":23777:23778   */\n      0x00\n        /* \"#utility.yul\":23770:23784   */\n      mstore\n        /* \"#utility.yul\":23814:23818   */\n      0x20\n        /* \"#utility.yul\":23811:23812   */\n      0x00\n        /* \"#utility.yul\":23801:23819   */\n      keccak256\n        /* \"#utility.yul\":23793:23819   */\n      swap1\n      pop\n        /* \"#utility.yul\":23685:23826   */\n      swap2\n      swap1\n      pop\n      jump\t// out\n        /* \"#utility.yul\":23832:23925   */\n    tag_239:\n        /* \"#utility.yul\":23869:23875   */\n      0x00\n        /* \"#utility.yul\":23916:23918   */\n      0x20\n        /* \"#utility.yul\":23911:23913   */\n      0x1f\n        /* \"#utility.yul\":23904:23909   */\n      dup4\n        /* \"#utility.yul\":23900:23914   */\n      add\n        /* \"#utility.yul\":23896:23919   */\n      div\n        /* \"#utility.yul\":23886:23919   */\n      swap1\n      pop\n        /* \"#utility.yul\":23832:23925   */\n      swap2\n      swap1\n      pop\n      jump\t// out\n        /* \"#utility.yul\":23931:24038   */\n    tag_240:\n        /* \"#utility.yul\":23975:23983   */\n      0x00\n        /* \"#utility.yul\":24025:24030   */\n      dup3\n        /* \"#utility.yul\":24019:24023   */\n      dup3\n        /* \"#utility.yul\":24015:24031   */\n      shl\n        /* \"#utility.yul\":23994:24031   */\n      swap1\n      pop\n        /* \"#utility.yul\":23931:24038   */\n      swap3\n      swap2\n      pop\n      pop\n      jump\t// out\n        /* \"#utility.yul\":24044:24437   */\n    tag_241:\n        /* \"#utility.yul\":24113:24119   */\n      0x00\n        /* \"#utility.yul\":24163:24164   */\n      0x08\n        /* \"#utility.yul\":24151:24161   */\n      dup4\n        /* \"#utility.yul\":24147:24165   */\n      mul\n        /* \"#utility.yul\":24186:24283   */\n      tag_477\n        /* \"#utility.yul\":24216:24282   */\n      0xffffffffffffffffffffffffffffffffffffffffffffffffffffffffffffffff\n        /* \"#utility.yul\":24205:24214   */\n      dup3\n        /* \"#utility.yul\":24186:24283   */\n      tag_240\n      jump\t// in\n    tag_477:\n        /* \"#utility.yul\":24304:24343   */\n      tag_478\n        /* \"#utility.yul\":24334:24342   */\n      dup7\n        /* \"#utility.yul\":24323:24332   */\n      dup4\n        /* \"#utility.yul\":24304:24343   */\n      tag_240\n      jump\t// in\n    tag_478:\n        /* \"#utility.yul\":24292:24343   */\n      swap6\n      pop\n        /* \"#utility.yul\":24376:24380   */\n      dup1\n        /* \"#utility.yul\":24372:24381   */\n      not\n        /* \"#utility.yul\":24365:24370   */\n      dup5\n        /* \"#utility.yul\":24361:24382   */\n      and\n        /* \"#utility.yul\":24352:24382   */\n      swap4\n      pop\n        /* \"#utility.yul\":24425:24429   */\n      dup1\n        /* \"#utility.yul\":24415:24423   */\n      dup7\n        /* \"#utility.yul\":24411:24430   */\n      and\n        /* \"#utility.yul\":24404:24409   */\n      dup5\n        /* \"#utility.yul\":24401:24431   */\n      or\n        /* \"#utility.yul\":24391:24431   */\n      swap3\n      pop\n        /* \"#utility.yul\":24120:24437   */\n      pop\n      pop\n        /* \"#utility.yul\":24044:24437   */\n      swap4\n      swap3\n      pop\n      pop\n      pop\n      jump\t// out\n        /* \"#utility.yul\":24443:24503   */\n    tag_242:\n        /* \"#utility.yul\":24471:24474   */\n      0x00\n        /* \"#utility.yul\":24492:24497   */\n      dup2\n        /* \"#utility.yul\":24485:24497   */\n      swap1\n      pop\n        /* \"#utility.yul\":24443:24503   */\n      swap2\n      swap1\n      pop\n      jump\t// out\n        /* \"#utility.yul\":24509:24651   */\n    tag_243:\n        /* \"#utility.yul\":24559:24568   */\n      0x00\n        /* \"#utility.yul\":24592:24645   */\n      tag_481\n        /* \"#utility.yul\":24610:24644   */\n      tag_482\n        /* \"#utility.yul\":24619:24643   */\n      tag_483\n        /* \"#utility.yul\":24637:24642   */\n      dup5\n        /* \"#utility.yul\":24619:24643   */\n      tag_181\n      jump\t// in\n    tag_483:\n        /* \"#utility.yul\":24610:24644   */\n      tag_242\n      jump\t// in\n    tag_482:\n        /* \"#utility.yul\":24592:24645   */\n      tag_181\n      jump\t// in\n    tag_481:\n        /* \"#utility.yul\":24579:24645   */\n      swap1\n      pop\n        /* \"#utility.yul\":24509:24651   */\n      swap2\n      swap1\n      pop\n      jump\t// out\n        /* \"#utility.yul\":24657:24732   */\n    tag_244:\n        /* \"#utility.yul\":24700:24703   */\n      0x00\n        /* \"#utility.yul\":24721:24726   */\n      dup2\n        /* \"#utility.yul\":24714:24726   */\n      swap1\n      pop\n        /* \"#utility.yul\":24657:24732   */\n      swap2\n      swap1\n      pop\n      jump\t// out\n        /* \"#utility.yul\":24738:25007   */\n    tag_245:\n        /* \"#utility.yul\":24848:24887   */\n      tag_486\n        /* \"#utility.yul\":24879:24886   */\n      dup4\n        /* \"#utility.yul\":24848:24887   */\n      tag_243\n      jump\t// in\n    tag_486:\n        /* \"#utility.yul\":24909:25000   */\n      tag_487\n        /* \"#utility.yul\":24958:24999   */\n      tag_488\n        /* \"#utility.yul\":24982:24998   */\n      dup3\n        /* \"#utility.yul\":24958:24999   */\n      tag_244\n      jump\t// in\n    tag_488:\n        /* \"#utility.yul\":24950:24956   */\n      dup5\n        /* \"#utility.yul\":24943:24947   */\n      dup5\n        /* \"#utility.yul\":24937:24948   */\n      sload\n        /* \"#utility.yul\":24909:25000   */\n      tag_241\n      jump\t// in\n    tag_487:\n        /* \"#utility.yul\":24903:24907   */\n      dup3\n        /* \"#utility.yul\":24896:25001   */\n      sstore\n        /* \"#utility.yul\":24814:25007   */\n      pop\n        /* \"#utility.yul\":24738:25007   */\n      pop\n      pop\n      pop\n      jump\t// out\n        /* \"#utility.yul\":25013:25086   */\n    tag_246:\n        /* \"#utility.yul\":25058:25061   */\n      0x00\n        /* \"#utility.yul\":25013:25086   */\n      swap1\n      jump\t// out\n        /* \"#utility.yul\":25092:25281   */\n    tag_247:\n        /* \"#utility.yul\":25169:25201   */\n      tag_491\n      tag_246\n      jump\t// in\n    tag_491:\n        /* \"#utility.yul\":25210:25275   */\n      tag_492\n        /* \"#utility.yul\":25268:25274   */\n      dup2\n        /* \"#utility.yul\":25260:25266   */\n      dup5\n        /* \"#utility.yul\":25254:25258   */\n      dup5\n        /* \"#utility.yul\":25210:25275   */\n      tag_245\n      jump\t// in\n    tag_492:\n        /* \"#utility.yul\":25145:25281   */\n      pop\n        /* \"#utility.yul\":25092:25281   */\n      pop\n      pop\n      jump\t// out\n        /* \"#utility.yul\":25287:25473   */\n    tag_248:\n        /* \"#utility.yul\":25347:25467   */\n    tag_494:\n        /* \"#utility.yul\":25364:25367   */\n      dup2\n        /* \"#utility.yul\":25357:25362   */\n      dup2\n        /* \"#utility.yul\":25354:25368   */\n      lt\n        /* \"#utility.yul\":25347:25467   */\n      iszero\n      tag_496\n      jumpi\n        /* \"#utility.yul\":25418:25457   */\n      tag_497\n        /* \"#utility.yul\":25455:25456   */\n      0x00\n        /* \"#utility.yul\":25448:25453   */\n      dup3\n        /* \"#utility.yul\":25418:25457   */\n      tag_247\n      jump\t// in\n    tag_497:\n        /* \"#utility.yul\":25391:25392   */\n      0x01\n        /* \"#utility.yul\":25384:25389   */\n      dup2\n        /* \"#utility.yul\":25380:25393   */\n      add\n        /* \"#utility.yul\":25371:25393   */\n      swap1\n      pop\n        /* \"#utility.yul\":25347:25467   */\n      jump(tag_494)\n    tag_496:\n        /* \"#utility.yul\":25287:25473   */\n      pop\n      pop\n      jump\t// out\n        /* \"#utility.yul\":25479:26022   */\n    tag_249:\n        /* \"#utility.yul\":25580:25582   */\n      0x1f\n        /* \"#utility.yul\":25575:25578   */\n      dup3\n        /* \"#utility.yul\":25572:25583   */\n      gt\n        /* \"#utility.yul\":25569:26015   */\n      iszero\n      tag_499\n      jumpi\n        /* \"#utility.yul\":25614:25652   */\n      tag_500\n        /* \"#utility.yul\":25646:25651   */\n      dup2\n        /* \"#utility.yul\":25614:25652   */\n      tag_238\n      jump\t// in\n    tag_500:\n        /* \"#utility.yul\":25698:25727   */\n      tag_501\n        /* \"#utility.yul\":25716:25726   */\n      dup5\n        /* \"#utility.yul\":25698:25727   */\n      tag_239\n      jump\t// in\n    tag_501:\n        /* \"#utility.yul\":25688:25696   */\n      dup2\n        /* \"#utility.yul\":25684:25728   */\n      add\n        /* \"#utility.yul\":25881:25883   */\n      0x20\n        /* \"#utility.yul\":25869:25879   */\n      dup6\n        /* \"#utility.yul\":25866:25884   */\n      lt\n        /* \"#utility.yul\":25863:25912   */\n      iszero\n      tag_502\n      jumpi\n        /* \"#utility.yul\":25902:25910   */\n      dup2\n        /* \"#utility.yul\":25887:25910   */\n      swap1\n      pop\n        /* \"#utility.yul\":25863:25912   */\n    tag_502:\n        /* \"#utility.yul\":25925:26005   */\n      tag_503\n        /* \"#utility.yul\":25981:26003   */\n      tag_504\n        /* \"#utility.yul\":25999:26002   */\n      dup6\n        /* \"#utility.yul\":25981:26003   */\n      tag_239\n      jump\t// in\n    tag_504:\n        /* \"#utility.yul\":25971:25979   */\n      dup4\n        /* \"#utility.yul\":25967:26004   */\n      add\n        /* \"#utility.yul\":25954:25965   */\n      dup3\n        /* \"#utility.yul\":25925:26005   */\n      tag_248\n      jump\t// in\n    tag_503:\n        /* \"#utility.yul\":25584:26015   */\n      pop\n      pop\n        /* \"#utility.yul\":25569:26015   */\n    tag_499:\n        /* \"#utility.yul\":25479:26022   */\n      pop\n      pop\n      pop\n      jump\t// out\n        /* \"#utility.yul\":26028:26145   */\n    tag_250:\n        /* \"#utility.yul\":26082:26090   */\n      0x00\n        /* \"#utility.yul\":26132:26137   */\n      dup3\n        /* \"#utility.yul\":26126:26130   */\n      dup3\n        /* \"#utility.yul\":26122:26138   */\n      shr\n        /* \"#utility.yul\":26101:26138   */\n      swap1\n      pop\n        /* \"#utility.yul\":26028:26145   */\n      swap3\n      swap2\n      pop\n      pop\n      jump\t// out\n        /* \"#utility.yul\":26151:26320   */\n    tag_251:\n        /* \"#utility.yul\":26195:26201   */\n      0x00\n        /* \"#utility.yul\":26228:26279   */\n      tag_507\n        /* \"#utility.yul\":26276:26277   */\n      0x00\n        /* \"#utility.yul\":26272:26278   */\n      not\n        /* \"#utility.yul\":26264:26269   */\n      dup5\n        /* \"#utility.yul\":26261:26262   */\n      0x08\n        /* \"#utility.yul\":26257:26270   */\n      mul\n        /* \"#utility.yul\":26228:26279   */\n      tag_250\n      jump\t// in\n    tag_507:\n        /* \"#utility.yul\":26224:26280   */\n      not\n        /* \"#utility.yul\":26309:26313   */\n      dup1\n        /* \"#utility.yul\":26303:26307   */\n      dup4\n        /* \"#utility.yul\":26299:26314   */\n      and\n        /* \"#utility.yul\":26289:26314   */\n      swap2\n      pop\n        /* \"#utility.yul\":26202:26320   */\n      pop\n        /* \"#utility.yul\":26151:26320   */\n      swap3\n      swap2\n      pop\n      pop\n      jump\t// out\n        /* \"#utility.yul\":26325:26620   */\n    tag_252:\n        /* \"#utility.yul\":26401:26405   */\n      0x00\n        /* \"#utility.yul\":26547:26576   */\n      tag_509\n        /* \"#utility.yul\":26572:26575   */\n      dup4\n        /* \"#utility.yul\":26566:26570   */\n      dup4\n        /* \"#utility.yul\":26547:26576   */\n      tag_251\n      jump\t// in\n    tag_509:\n        /* \"#utility.yul\":26539:26576   */\n      swap2\n      pop\n        /* \"#utility.yul\":26609:26612   */\n      dup3\n        /* \"#utility.yul\":26606:26607   */\n      0x02\n        /* \"#utility.yul\":26602:26613   */\n      mul\n        /* \"#utility.yul\":26596:26600   */\n      dup3\n        /* \"#utility.yul\":26593:26614   */\n      or\n        /* \"#utility.yul\":26585:26614   */\n      swap1\n      pop\n        /* \"#utility.yul\":26325:26620   */\n      swap3\n      swap2\n      pop\n      pop\n      jump\t// out\n        /* \"#utility.yul\":26625:28020   */\n    tag_167:\n        /* \"#utility.yul\":26742:26779   */\n      tag_511\n        /* \"#utility.yul\":26775:26778   */\n      dup3\n        /* \"#utility.yul\":26742:26779   */\n      tag_184\n      jump\t// in\n    tag_511:\n        /* \"#utility.yul\":26844:26862   */\n      0xffffffffffffffff\n        /* \"#utility.yul\":26836:26842   */\n      dup2\n        /* \"#utility.yul\":26833:26863   */\n      gt\n        /* \"#utility.yul\":26830:26886   */\n      iszero\n      tag_512\n      jumpi\n        /* \"#utility.yul\":26866:26884   */\n      tag_513\n      tag_205\n      jump\t// in\n    tag_513:\n        /* \"#utility.yul\":26830:26886   */\n    tag_512:\n        /* \"#utility.yul\":26910:26948   */\n      tag_514\n        /* \"#utility.yul\":26942:26946   */\n      dup3\n        /* \"#utility.yul\":26936:26947   */\n      sload\n        /* \"#utility.yul\":26910:26948   */\n      tag_74\n      jump\t// in\n    tag_514:\n        /* \"#utility.yul\":26995:27062   */\n      tag_515\n        /* \"#utility.yul\":27055:27061   */\n      dup3\n        /* \"#utility.yul\":27047:27053   */\n      dup3\n        /* \"#utility.yul\":27041:27045   */\n      dup6\n        /* \"#utility.yul\":26995:27062   */\n      tag_249\n      jump\t// in\n    tag_515:\n        /* \"#utility.yul\":27089:27090   */\n      0x00\n        /* \"#utility.yul\":27113:27117   */\n      0x20\n        /* \"#utility.yul\":27100:27117   */\n      swap1\n      pop\n        /* \"#utility.yul\":27145:27147   */\n      0x1f\n        /* \"#utility.yul\":27137:27143   */\n      dup4\n        /* \"#utility.yul\":27134:27148   */\n      gt\n        /* \"#utility.yul\":27162:27163   */\n      0x01\n        /* \"#utility.yul\":27157:27775   */\n      dup2\n      eq\n      tag_517\n      jumpi\n        /* \"#utility.yul\":27819:27820   */\n      0x00\n        /* \"#utility.yul\":27836:27842   */\n      dup5\n        /* \"#utility.yul\":27833:27910   */\n      iszero\n      tag_518\n      jumpi\n        /* \"#utility.yul\":27885:27894   */\n      dup3\n        /* \"#utility.yul\":27880:27883   */\n      dup8\n        /* \"#utility.yul\":27876:27895   */\n      add\n        /* \"#utility.yul\":27870:27896   */\n      mload\n        /* \"#utility.yul\":27861:27896   */\n      swap1\n      pop\n        /* \"#utility.yul\":27833:27910   */\n    tag_518:\n        /* \"#utility.yul\":27936:28003   */\n      tag_519\n        /* \"#utility.yul\":27996:28002   */\n      dup6\n        /* \"#utility.yul\":27989:27994   */\n      dup3\n        /* \"#utility.yul\":27936:28003   */\n      tag_252\n      jump\t// in\n    tag_519:\n        /* \"#utility.yul\":27930:27934   */\n      dup7\n        /* \"#utility.yul\":27923:28004   */\n      sstore\n        /* \"#utility.yul\":27792:28014   */\n      pop\n        /* \"#utility.yul\":27127:28014   */\n      jump(tag_516)\n        /* \"#utility.yul\":27157:27775   */\n    tag_517:\n        /* \"#utility.yul\":27209:27213   */\n      0x1f\n        /* \"#utility.yul\":27205:27214   */\n      not\n        /* \"#utility.yul\":27197:27203   */\n      dup5\n        /* \"#utility.yul\":27193:27215   */\n      and\n        /* \"#utility.yul\":27243:27280   */\n      tag_520\n        /* \"#utility.yul\":27275:27279   */\n      dup7\n        /* \"#utility.yul\":27243:27280   */\n      tag_238\n      jump\t// in\n    tag_520:\n        /* \"#utility.yul\":27302:27303   */\n      0x00\n        /* \"#utility.yul\":27316:27524   */\n    tag_521:\n        /* \"#utility.yul\":27330:27337   */\n      dup3\n        /* \"#utility.yul\":27327:27328   */\n      dup2\n        /* \"#utility.yul\":27324:27338   */\n      lt\n        /* \"#utility.yul\":27316:27524   */\n      iszero\n      tag_523\n      jumpi\n        /* \"#utility.yul\":27409:27418   */\n      dup5\n        /* \"#utility.yul\":27404:27407   */\n      dup10\n        /* \"#utility.yul\":27400:27419   */\n      add\n        /* \"#utility.yul\":27394:27420   */\n      mload\n        /* \"#utility.yul\":27386:27392   */\n      dup3\n        /* \"#utility.yul\":27379:27421   */\n      sstore\n        /* \"#utility.yul\":27460:27461   */\n      0x01\n        /* \"#utility.yul\":27452:27458   */\n      dup3\n        /* \"#utility.yul\":27448:27462   */\n      add\n        /* \"#utility.yul\":27438:27462   */\n      swap2\n      pop\n        /* \"#utility.yul\":27507:27509   */\n      0x20\n        /* \"#utility.yul\":27496:27505   */\n      dup6\n        /* \"#utility.yul\":27492:27510   */\n      add\n        /* \"#utility.yul\":27479:27510   */\n      swap5\n      pop\n        /* \"#utility.yul\":27353:27357   */\n      0x20\n        /* \"#utility.yul\":27350:27351   */\n      dup2\n        /* \"#utility.yul\":27346:27358   */\n      add\n        /* \"#utility.yul\":27341:27358   */\n      swap1\n      pop\n        /* \"#utility.yul\":27316:27524   */\n      jump(tag_521)\n    tag_523:\n        /* \"#utility.yul\":27552:27558   */\n      dup7\n        /* \"#utility.yul\":27543:27550   */\n      dup4\n        /* \"#utility.yul\":27540:27559   */\n      lt\n        /* \"#utility.yul\":27537:27716   */\n      iszero\n      tag_524\n      jumpi\n        /* \"#utility.yul\":27610:27619   */\n      dup5\n        /* \"#utility.yul\":27605:27608   */\n      dup10\n        /* \"#utility.yul\":27601:27620   */\n      add\n        /* \"#utility.yul\":27595:27621   */\n      mload\n        /* \"#utility.yul\":27653:27701   */\n      tag_525\n        /* \"#utility.yul\":27695:27699   */\n      0x1f\n        /* \"#utility.yul\":27687:27693   */\n      dup10\n        /* \"#utility.yul\":27683:27700   */\n      and\n        /* \"#utility.yul\":27672:27681   */\n      dup3\n        /* \"#utility.yul\":27653:27701   */\n      tag_251\n      jump\t// in\n    tag_525:\n        /* \"#utility.yul\":27645:27651   */\n      dup4\n        /* \"#utility.yul\":27638:27702   */\n      sstore\n        /* \"#utility.yul\":27560:27716   */\n      pop\n        /* \"#utility.yul\":27537:27716   */\n    tag_524:\n        /* \"#utility.yul\":27762:27763   */\n      0x01\n        /* \"#utility.yul\":27758:27759   */\n      0x02\n        /* \"#utility.yul\":27750:27756   */\n      dup9\n        /* \"#utility.yul\":27746:27760   */\n      mul\n        /* \"#utility.yul\":27742:27764   */\n      add\n        /* \"#utility.yul\":27736:27740   */\n      dup9\n        /* \"#utility.yul\":27729:27765   */\n      sstore\n        /* \"#utility.yul\":27164:27775   */\n      pop\n      pop\n      pop\n        /* \"#utility.yul\":27127:28014   */\n    tag_516:\n      pop\n        /* \"#utility.yul\":26717:28020   */\n      pop\n      pop\n      pop\n        /* \"#utility.yul\":26625:28020   */\n      pop\n      pop\n      jump\t// out\n        /* \"#utility.yul\":28026:28259   */\n    tag_172:\n        /* \"#utility.yul\":28065:28068   */\n      0x00\n        /* \"#utility.yul\":28088:28112   */\n      tag_527\n        /* \"#utility.yul\":28106:28111   */\n      dup3\n        /* \"#utility.yul\":28088:28112   */\n      tag_181\n      jump\t// in\n    tag_527:\n        /* \"#utility.yul\":28079:28112   */\n      swap2\n      pop\n        /* \"#utility.yul\":28134:28200   */\n      0xffffffffffffffffffffffffffffffffffffffffffffffffffffffffffffffff\n        /* \"#utility.yul\":28127:28132   */\n      dup3\n        /* \"#utility.yul\":28124:28201   */\n      sub\n        /* \"#utility.yul\":28121:28224   */\n      tag_528\n      jumpi\n        /* \"#utility.yul\":28204:28222   */\n      tag_529\n      tag_221\n      jump\t// in\n    tag_529:\n        /* \"#utility.yul\":28121:28224   */\n    tag_528:\n        /* \"#utility.yul\":28251:28252   */\n      0x01\n        /* \"#utility.yul\":28244:28249   */\n      dup3\n        /* \"#utility.yul\":28240:28253   */\n      add\n        /* \"#utility.yul\":28233:28253   */\n      swap1\n      pop\n        /* \"#utility.yul\":28026:28259   */\n      swap2\n      swap1\n      pop\n      jump\t// out\n\n    auxdata: 0xa26469706673582212205044f6d09f382a771fa847439b2ae8ee69e361deb3e9d68f10959dc122e9de7864736f6c63430008170033\n}\n",
				"bytecode": {
					"linkReferences": {},
					"object": "6080604052607842620000139190620000ab565b6001556801158e460913d000006002553480156200002f575f80fd5b50335f806101000a81548173ffffffffffffffffffffffffffffffffffffffff021916908373ffffffffffffffffffffffffffffffffffffffff160217905550620000e5565b5f819050919050565b7f4e487b71000000000000000000000000000000000000000000000000000000005f52601160045260245ffd5b5f620000b78262000075565b9150620000c48362000075565b9250828201905080821115620000df57620000de6200007e565b5b92915050565b611c7480620000f35f395ff3fe60806040526004361061009f575f3560e01c80633e608afa116100635780633e608afa146101bf578063478a4be5146101fb578063860e456514610225578063af640d0f1461024d578063e8709c4014610277578063f1ca8bff146102a7576100db565b806310445b2b146100df578063278ecde11461011b5780632ca126f814610143578063379607f51461016d578063384f58eb14610195576100db565b366100db577fbe025cd0737d1912c421eb1ace55f3a811fccb8c5a479c1d21f0882dc11c607f6040516100d190610e1d565b60405180910390a1005b5f80fd5b3480156100ea575f80fd5b5061010560048036038101906101009190610e7f565b6102cf565b604051610112919061106f565b60405180910390f35b348015610126575f80fd5b50610141600480360381019061013c9190610e7f565b6104b2565b005b34801561014e575f80fd5b506101576105ef565b604051610164919061109e565b60405180910390f35b348015610178575f80fd5b50610193600480360381019061018e9190610e7f565b6105f5565b005b3480156101a0575f80fd5b506101a96107a1565b6040516101b691906110c6565b60405180910390f35b3480156101ca575f80fd5b506101e560048036038101906101e09190610e7f565b6107c4565b6040516101f2919061109e565b60405180910390f35b348015610206575f80fd5b5061020f6107f3565b60405161021c919061109e565b60405180910390f35b348015610230575f80fd5b5061024b60048036038101906102469190611268565b6107f9565b005b348015610258575f80fd5b50610261610844565b60405161026e919061109e565b60405180910390f35b610291600480360381019061028c9190610e7f565b61084a565b60405161029e919061106f565b60405180910390f35b3480156102b2575f80fd5b506102cd60048036038101906102c89190610e7f565b610a45565b005b6102d7610d6f565b60035f8381526020019081526020015f206040518060a00160405290815f820180546103029061130e565b80601f016020809104026020016040519081016040528092919081815260200182805461032e9061130e565b80156103795780601f1061035057610100808354040283529160200191610379565b820191905f5260205f20905b81548152906001019060200180831161035c57829003601f168201915b505050505081526020016001820180546103929061130e565b80601f01602080910402602001604051908101604052809291908181526020018280546103be9061130e565b80156104095780601f106103e057610100808354040283529160200191610409565b820191905f5260205f20905b8154815290600101906020018083116103ec57829003601f168201915b50505050508152602001600282015f9054906101000a900473ffffffffffffffffffffffffffffffffffffffff1673ffffffffffffffffffffffffffffffffffffffff1673ffffffffffffffffffffffffffffffffffffffff16815260200160038201548152602001600482015f9054906101000a900460ff16600181111561049557610494610f82565b5b60018111156104a7576104a6610f82565b5b815250509050919050565b60015442116104f6576040517f08c379a00000000000000000000000000000000000000000000000000000000081526004016104ed906113ae565b60405180910390fd5b60025460035f8381526020019081526020015f206003015410156105b1575f60035f8381526020019081526020015f206003015490503373ffffffffffffffffffffffffffffffffffffffff166108fc8290811502906040515f60405180830381858888f1935050505015801561056f573d5f803e3d5ffd5b507f6bcc8e13f2b9cabd8625faa0937688a01aab305f3a921ee1e5fbcff66144fa573383836040516105a3939291906113cc565b60405180910390a1506105ec565b6040517f08c379a00000000000000000000000000000000000000000000000000000000081526004016105e39061144b565b60405180910390fd5b50565b60015481565b60015442101561063a576040517f08c379a0000000000000000000000000000000000000000000000000000000008152600401610631906114d9565b60405180910390fd5b60025460035f8381526020019081526020015f206003015410610763575f60035f8381526020019081526020015f2060030154905060035f8381526020019081526020015f206002015f9054906101000a900473ffffffffffffffffffffffffffffffffffffffff1673ffffffffffffffffffffffffffffffffffffffff166108fc8290811502906040515f60405180830381858888f193505050501580156106e5573d5f803e3d5ffd5b50600160035f8481526020019081526020015f206004015f6101000a81548160ff0219169083600181111561071d5761071c610f82565b5b02179055507f9576942f6783612a1de73784d0a4a99e49ddbc7e59e8fc927cffc1ee5385d236338383604051610755939291906113cc565b60405180910390a15061079e565b6040517f08c379a000000000000000000000000000000000000000000000000000000000815260040161079590611541565b60405180910390fd5b50565b5f8054906101000a900473ffffffffffffffffffffffffffffffffffffffff1681565b5f8060035f8481526020019081526020015f20600301546002546107e8919061158c565b905080915050919050565b60025481565b610804838383610c02565b7fc25f73d8066f835a9a93ef7719cc9dfa37651997ad88ea41abe71c77f9209ce7336004546040516108379291906115bf565b60405180910390a1505050565b60045481565b610852610d6f565b600154421115610897576040517f08c379a000000000000000000000000000000000000000000000000000000000815260040161088e90611656565b60405180910390fd5b3460035f8481526020019081526020015f206003015f8282546108ba9190611674565b925050819055505f60018111156108d4576108d3610f82565b5b60035f8481526020019081526020015f206004015f9054906101000a900460ff16600181111561090757610906610f82565b5b14610947576040517f08c379a000000000000000000000000000000000000000000000000000000000815260040161093e906116f1565b60405180910390fd5b7f8952ac1e80fc86d8ccb4c9bb2b1df4ba33b963fdc98de332d4d07a43ddddc46282333460405161097a9392919061170f565b60405180910390a13073ffffffffffffffffffffffffffffffffffffffff166310445b2b836040518263ffffffff1660e01b81526004016109bb919061109e565b5f60405180830381865afa9250505080156109f857506040513d5f823e3d601f19601f820116820180604052508101906109f591906118dc565b60015b610a36577f24c93343bea44ff8f0e628ca4e5b87dfe0823d664c887457e166a03798bb191c604051610a299061196d565b60405180910390a1610a3f565b80915050610a40565b5b919050565b5f8054906101000a900473ffffffffffffffffffffffffffffffffffffffff1673ffffffffffffffffffffffffffffffffffffffff163373ffffffffffffffffffffffffffffffffffffffff1614610a9b575f80fd5b60025460035f8381526020019081526020015f206003015410610bc4575f60035f8381526020019081526020015f2060030154905060035f8381526020019081526020015f206002015f9054906101000a900473ffffffffffffffffffffffffffffffffffffffff1673ffffffffffffffffffffffffffffffffffffffff166108fc8290811502906040515f60405180830381858888f19350505050158015610b46573d5f803e3d5ffd5b50600160035f8481526020019081526020015f206004015f6101000a81548160ff02191690836001811115610b7e57610b7d610f82565b5b02179055507f9576942f6783612a1de73784d0a4a99e49ddbc7e59e8fc927cffc1ee5385d236338383604051610bb6939291906113cc565b60405180910390a150610bff565b6040517f08c379a0000000000000000000000000000000000000000000000000000000008152600401610bf690611541565b60405180910390fd5b50565b6040518060a0016040528084848080601f0160208091040260200160405190810160405280939291908181526020018383808284375f81840152601f19601f8201169050808301925050505050505081526020018281526020013373ffffffffffffffffffffffffffffffffffffffff1681526020015f81526020015f6001811115610c9157610c90610f82565b5b81525060035f60045481526020019081526020015f205f820151815f019081610cba9190611b28565b506020820151816001019081610cd09190611b28565b506040820151816002015f6101000a81548173ffffffffffffffffffffffffffffffffffffffff021916908373ffffffffffffffffffffffffffffffffffffffff160217905550606082015181600301556080820151816004015f6101000a81548160ff02191690836001811115610d4b57610d4a610f82565b5b021790555090505060045f815480929190610d6590611bf7565b9190505550505050565b6040518060a0016040528060608152602001606081526020015f73ffffffffffffffffffffffffffffffffffffffff1681526020015f81526020015f6001811115610dbd57610dbc610f82565b5b81525090565b5f82825260208201905092915050565b7f616d6f756e74207265636569766564207375636365737366756c6c79000000005f82015250565b5f610e07601c83610dc3565b9150610e1282610dd3565b602082019050919050565b5f6020820190508181035f830152610e3481610dfb565b9050919050565b5f604051905090565b5f80fd5b5f80fd5b5f819050919050565b610e5e81610e4c565b8114610e68575f80fd5b50565b5f81359050610e7981610e55565b92915050565b5f60208284031215610e9457610e93610e44565b5b5f610ea184828501610e6b565b91505092915050565b5f81519050919050565b5f82825260208201905092915050565b5f5b83811015610ee1578082015181840152602081019050610ec6565b5f8484015250505050565b5f601f19601f8301169050919050565b5f610f0682610eaa565b610f108185610eb4565b9350610f20818560208601610ec4565b610f2981610eec565b840191505092915050565b5f73ffffffffffffffffffffffffffffffffffffffff82169050919050565b5f610f5d82610f34565b9050919050565b610f6d81610f53565b82525050565b610f7c81610e4c565b82525050565b7f4e487b71000000000000000000000000000000000000000000000000000000005f52602160045260245ffd5b60028110610fc057610fbf610f82565b5b50565b5f819050610fd082610faf565b919050565b5f610fdf82610fc3565b9050919050565b610fef81610fd5565b82525050565b5f60a083015f8301518482035f86015261100f8282610efc565b915050602083015184820360208601526110298282610efc565b915050604083015161103e6040860182610f64565b5060608301516110516060860182610f73565b5060808301516110646080860182610fe6565b508091505092915050565b5f6020820190508181035f8301526110878184610ff5565b905092915050565b61109881610e4c565b82525050565b5f6020820190506110b15f83018461108f565b92915050565b6110c081610f53565b82525050565b5f6020820190506110d95f8301846110b7565b92915050565b5f80fd5b5f80fd5b5f80fd5b5f8083601f840112611100576110ff6110df565b5b8235905067ffffffffffffffff81111561111d5761111c6110e3565b5b602083019150836001820283011115611139576111386110e7565b5b9250929050565b5f80fd5b7f4e487b71000000000000000000000000000000000000000000000000000000005f52604160045260245ffd5b61117a82610eec565b810181811067ffffffffffffffff8211171561119957611198611144565b5b80604052505050565b5f6111ab610e3b565b90506111b78282611171565b919050565b5f67ffffffffffffffff8211156111d6576111d5611144565b5b6111df82610eec565b9050602081019050919050565b828183375f83830152505050565b5f61120c611207846111bc565b6111a2565b90508281526020810184848401111561122857611227611140565b5b6112338482856111ec565b509392505050565b5f82601f83011261124f5761124e6110df565b5b813561125f8482602086016111fa565b91505092915050565b5f805f6040848603121561127f5761127e610e44565b5b5f84013567ffffffffffffffff81111561129c5761129b610e48565b5b6112a8868287016110eb565b9350935050602084013567ffffffffffffffff8111156112cb576112ca610e48565b5b6112d78682870161123b565b9150509250925092565b7f4e487b71000000000000000000000000000000000000000000000000000000005f52602260045260245ffd5b5f600282049050600182168061132557607f821691505b602082108103611338576113376112e1565b5b50919050565b7f63616e277420726566756e642063757a20646561646c696e65206e6f74206d655f8201527f6574000000000000000000000000000000000000000000000000000000000000602082015250565b5f611398602283610dc3565b91506113a38261133e565b604082019050919050565b5f6020820190508181035f8301526113c58161138c565b9050919050565b5f6060820190506113df5f8301866110b7565b6113ec602083018561108f565b6113f9604083018461108f565b949350505050565b7f752063616e277420726566756e642000000000000000000000000000000000005f82015250565b5f611435600f83610dc3565b915061144082611401565b602082019050919050565b5f6020820190508181035f83015261146281611429565b9050919050565b7f6e6f7420616c6c6f77656420636c61696d696e672063757a20616c6c6f7765645f8201527f2074696d652069732072656d61696e696e670000000000000000000000000000602082015250565b5f6114c3603283610dc3565b91506114ce82611469565b604082019050919050565b5f6020820190508181035f8301526114f0816114b7565b9050919050565b7f616d6f756e74206973206e6f7420657175616c20746f20676f616c00000000005f82015250565b5f61152b601b83610dc3565b9150611536826114f7565b602082019050919050565b5f6020820190508181035f8301526115588161151f565b9050919050565b7f4e487b71000000000000000000000000000000000000000000000000000000005f52601160045260245ffd5b5f61159682610e4c565b91506115a183610e4c565b92508282039050818111156115b9576115b861155f565b5b92915050565b5f6040820190506115d25f8301856110b7565b6115df602083018461108f565b9392505050565b7f7472616e73616374696f6e20617265206e6f7420616c6c6f77656420696e20745f8201527f6869732074696d65000000000000000000000000000000000000000000000000602082015250565b5f611640602883610dc3565b915061164b826115e6565b604082019050919050565b5f6020820190508181035f83015261166d81611634565b9050919050565b5f61167e82610e4c565b915061168983610e4c565b92508282019050808211156116a1576116a061155f565b5b92915050565b7f7374746165206973206e6f7420616372697665000000000000000000000000005f82015250565b5f6116db601383610dc3565b91506116e6826116a7565b602082019050919050565b5f6020820190508181035f830152611708816116cf565b9050919050565b5f6060820190506117225f83018661108f565b61172f60208301856110b7565b61173c604083018461108f565b949350505050565b5f80fd5b5f80fd5b5f61175e611759846111bc565b6111a2565b90508281526020810184848401111561177a57611779611140565b5b611785848285610ec4565b509392505050565b5f82601f8301126117a1576117a06110df565b5b81516117b184826020860161174c565b91505092915050565b6117c381610f53565b81146117cd575f80fd5b50565b5f815190506117de816117ba565b92915050565b5f815190506117f281610e55565b92915050565b60028110611804575f80fd5b50565b5f81519050611815816117f8565b92915050565b5f60a082840312156118305761182f611744565b5b61183a60a06111a2565b90505f82015167ffffffffffffffff81111561185957611858611748565b5b6118658482850161178d565b5f83015250602082015167ffffffffffffffff81111561188857611887611748565b5b6118948482850161178d565b60208301525060406118a8848285016117d0565b60408301525060606118bc848285016117e4565b60608301525060806118d084828501611807565b60808301525092915050565b5f602082840312156118f1576118f0610e44565b5b5f82015167ffffffffffffffff81111561190e5761190d610e48565b5b61191a8482850161181b565b91505092915050565b7f75736572206e6f7420666f756e640000000000000000000000000000000000005f82015250565b5f611957600e83610dc3565b915061196282611923565b602082019050919050565b5f6020820190508181035f8301526119848161194b565b9050919050565b5f819050815f5260205f209050919050565b5f6020601f8301049050919050565b5f82821b905092915050565b5f600883026119e77fffffffffffffffffffffffffffffffffffffffffffffffffffffffffffffffff826119ac565b6119f186836119ac565b95508019841693508086168417925050509392505050565b5f819050919050565b5f611a2c611a27611a2284610e4c565b611a09565b610e4c565b9050919050565b5f819050919050565b611a4583611a12565b611a59611a5182611a33565b8484546119b8565b825550505050565b5f90565b611a6d611a61565b611a78818484611a3c565b505050565b5b81811015611a9b57611a905f82611a65565b600181019050611a7e565b5050565b601f821115611ae057611ab18161198b565b611aba8461199d565b81016020851015611ac9578190505b611add611ad58561199d565b830182611a7d565b50505b505050565b5f82821c905092915050565b5f611b005f1984600802611ae5565b1980831691505092915050565b5f611b188383611af1565b9150826002028217905092915050565b611b3182610eaa565b67ffffffffffffffff811115611b4a57611b49611144565b5b611b54825461130e565b611b5f828285611a9f565b5f60209050601f831160018114611b90575f8415611b7e578287015190505b611b888582611b0d565b865550611bef565b601f198416611b9e8661198b565b5f5b82811015611bc557848901518255600182019150602085019450602081019050611ba0565b86831015611be25784890151611bde601f891682611af1565b8355505b6001600288020188555050505b505050505050565b5f611c0182610e4c565b91507fffffffffffffffffffffffffffffffffffffffffffffffffffffffffffffffff8203611c3357611c3261155f565b5b60018201905091905056fea26469706673582212205044f6d09f382a771fa847439b2ae8ee69e361deb3e9d68f10959dc122e9de7864736f6c63430008170033",
					"opcodes": "PUSH1 0x80 PUSH1 0x40 MSTORE PUSH1 0x78 TIMESTAMP PUSH3 0x13 SWAP2 SWAP1 PUSH3 0xAB JUMP JUMPDEST PUSH1 0x1 SSTORE PUSH9 0x1158E460913D00000 PUSH1 0x2 SSTORE CALLVALUE DUP1 ISZERO PUSH3 0x2F JUMPI PUSH0 DUP1 REVERT JUMPDEST POP CALLER PUSH0 DUP1 PUSH2 0x100 EXP DUP2 SLOAD DUP2 PUSH20 0xFFFFFFFFFFFFFFFFFFFFFFFFFFFFFFFFFFFFFFFF MUL NOT AND SWAP1 DUP4 PUSH20 0xFFFFFFFFFFFFFFFFFFFFFFFFFFFFFFFFFFFFFFFF AND MUL OR SWAP1 SSTORE POP PUSH3 0xE5 JUMP JUMPDEST PUSH0 DUP2 SWAP1 POP SWAP2 SWAP1 POP JUMP JUMPDEST PUSH32 0x4E487B7100000000000000000000000000000000000000000000000000000000 PUSH0 MSTORE PUSH1 0x11 PUSH1 0x4 MSTORE PUSH1 0x24 PUSH0 REVERT JUMPDEST PUSH0 PUSH3 0xB7 DUP3 PUSH3 0x75 JUMP JUMPDEST SWAP2 POP PUSH3 0xC4 DUP4 PUSH3 0x75 JUMP JUMPDEST SWAP3 POP DUP3 DUP3 ADD SWAP1 POP DUP1 DUP3 GT ISZERO PUSH3 0xDF JUMPI PUSH3 0xDE PUSH3 0x7E JUMP JUMPDEST JUMPDEST SWAP3 SWAP2 POP POP JUMP JUMPDEST PUSH2 0x1C74 DUP1 PUSH3 0xF3 PUSH0 CODECOPY PUSH0 RETURN INVALID PUSH1 0x80 PUSH1 0x40 MSTORE PUSH1 0x4 CALLDATASIZE LT PUSH2 0x9F JUMPI PUSH0 CALLDATALOAD PUSH1 0xE0 SHR DUP1 PUSH4 0x3E608AFA GT PUSH2 0x63 JUMPI DUP1 PUSH4 0x3E608AFA EQ PUSH2 0x1BF JUMPI DUP1 PUSH4 0x478A4BE5 EQ PUSH2 0x1FB JUMPI DUP1 PUSH4 0x860E4565 EQ PUSH2 0x225 JUMPI DUP1 PUSH4 0xAF640D0F EQ PUSH2 0x24D JUMPI DUP1 PUSH4 0xE8709C40 EQ PUSH2 0x277 JUMPI DUP1 PUSH4 0xF1CA8BFF EQ PUSH2 0x2A7 JUMPI PUSH2 0xDB JUMP JUMPDEST DUP1 PUSH4 0x10445B2B EQ PUSH2 0xDF JUMPI DUP1 PUSH4 0x278ECDE1 EQ PUSH2 0x11B JUMPI DUP1 PUSH4 0x2CA126F8 EQ PUSH2 0x143 JUMPI DUP1 PUSH4 0x379607F5 EQ PUSH2 0x16D JUMPI DUP1 PUSH4 0x384F58EB EQ PUSH2 0x195 JUMPI PUSH2 0xDB JUMP JUMPDEST CALLDATASIZE PUSH2 0xDB JUMPI PUSH32 0xBE025CD0737D1912C421EB1ACE55F3A811FCCB8C5A479C1D21F0882DC11C607F PUSH1 0x40 MLOAD PUSH2 0xD1 SWAP1 PUSH2 0xE1D JUMP JUMPDEST PUSH1 0x40 MLOAD DUP1 SWAP2 SUB SWAP1 LOG1 STOP JUMPDEST PUSH0 DUP1 REVERT JUMPDEST CALLVALUE DUP1 ISZERO PUSH2 0xEA JUMPI PUSH0 DUP1 REVERT JUMPDEST POP PUSH2 0x105 PUSH1 0x4 DUP1 CALLDATASIZE SUB DUP2 ADD SWAP1 PUSH2 0x100 SWAP2 SWAP1 PUSH2 0xE7F JUMP JUMPDEST PUSH2 0x2CF JUMP JUMPDEST PUSH1 0x40 MLOAD PUSH2 0x112 SWAP2 SWAP1 PUSH2 0x106F JUMP JUMPDEST PUSH1 0x40 MLOAD DUP1 SWAP2 SUB SWAP1 RETURN JUMPDEST CALLVALUE DUP1 ISZERO PUSH2 0x126 JUMPI PUSH0 DUP1 REVERT JUMPDEST POP PUSH2 0x141 PUSH1 0x4 DUP1 CALLDATASIZE SUB DUP2 ADD SWAP1 PUSH2 0x13C SWAP2 SWAP1 PUSH2 0xE7F JUMP JUMPDEST PUSH2 0x4B2 JUMP JUMPDEST STOP JUMPDEST CALLVALUE DUP1 ISZERO PUSH2 0x14E JUMPI PUSH0 DUP1 REVERT JUMPDEST POP PUSH2 0x157 PUSH2 0x5EF JUMP JUMPDEST PUSH1 0x40 MLOAD PUSH2 0x164 SWAP2 SWAP1 PUSH2 0x109E JUMP JUMPDEST PUSH1 0x40 MLOAD DUP1 SWAP2 SUB SWAP1 RETURN JUMPDEST CALLVALUE DUP1 ISZERO PUSH2 0x178 JUMPI PUSH0 DUP1 REVERT JUMPDEST POP PUSH2 0x193 PUSH1 0x4 DUP1 CALLDATASIZE SUB DUP2 ADD SWAP1 PUSH2 0x18E SWAP2 SWAP1 PUSH2 0xE7F JUMP JUMPDEST PUSH2 0x5F5 JUMP JUMPDEST STOP JUMPDEST CALLVALUE DUP1 ISZERO PUSH2 0x1A0 JUMPI PUSH0 DUP1 REVERT JUMPDEST POP PUSH2 0x1A9 PUSH2 0x7A1 JUMP JUMPDEST PUSH1 0x40 MLOAD PUSH2 0x1B6 SWAP2 SWAP1 PUSH2 0x10C6 JUMP JUMPDEST PUSH1 0x40 MLOAD DUP1 SWAP2 SUB SWAP1 RETURN JUMPDEST CALLVALUE DUP1 ISZERO PUSH2 0x1CA JUMPI PUSH0 DUP1 REVERT JUMPDEST POP PUSH2 0x1E5 PUSH1 0x4 DUP1 CALLDATASIZE SUB DUP2 ADD SWAP1 PUSH2 0x1E0 SWAP2 SWAP1 PUSH2 0xE7F JUMP JUMPDEST PUSH2 0x7C4 JUMP JUMPDEST PUSH1 0x40 MLOAD PUSH2 0x1F2 SWAP2 SWAP1 PUSH2 0x109E JUMP JUMPDEST PUSH1 0x40 MLOAD DUP1 SWAP2 SUB SWAP1 RETURN JUMPDEST CALLVALUE DUP1 ISZERO PUSH2 0x206 JUMPI PUSH0 DUP1 REVERT JUMPDEST POP PUSH2 0x20F PUSH2 0x7F3 JUMP JUMPDEST PUSH1 0x40 MLOAD PUSH2 0x21C SWAP2 SWAP1 PUSH2 0x109E JUMP JUMPDEST PUSH1 0x40 MLOAD DUP1 SWAP2 SUB SWAP1 RETURN JUMPDEST CALLVALUE DUP1 ISZERO PUSH2 0x230 JUMPI PUSH0 DUP1 REVERT JUMPDEST POP PUSH2 0x24B PUSH1 0x4 DUP1 CALLDATASIZE SUB DUP2 ADD SWAP1 PUSH2 0x246 SWAP2 SWAP1 PUSH2 0x1268 JUMP JUMPDEST PUSH2 0x7F9 JUMP JUMPDEST STOP JUMPDEST CALLVALUE DUP1 ISZERO PUSH2 0x258 JUMPI PUSH0 DUP1 REVERT JUMPDEST POP PUSH2 0x261 PUSH2 0x844 JUMP JUMPDEST PUSH1 0x40 MLOAD PUSH2 0x26E SWAP2 SWAP1 PUSH2 0x109E JUMP JUMPDEST PUSH1 0x40 MLOAD DUP1 SWAP2 SUB SWAP1 RETURN JUMPDEST PUSH2 0x291 PUSH1 0x4 DUP1 CALLDATASIZE SUB DUP2 ADD SWAP1 PUSH2 0x28C SWAP2 SWAP1 PUSH2 0xE7F JUMP JUMPDEST PUSH2 0x84A JUMP JUMPDEST PUSH1 0x40 MLOAD PUSH2 0x29E SWAP2 SWAP1 PUSH2 0x106F JUMP JUMPDEST PUSH1 0x40 MLOAD DUP1 SWAP2 SUB SWAP1 RETURN JUMPDEST CALLVALUE DUP1 ISZERO PUSH2 0x2B2 JUMPI PUSH0 DUP1 REVERT JUMPDEST POP PUSH2 0x2CD PUSH1 0x4 DUP1 CALLDATASIZE SUB DUP2 ADD SWAP1 PUSH2 0x2C8 SWAP2 SWAP1 PUSH2 0xE7F JUMP JUMPDEST PUSH2 0xA45 JUMP JUMPDEST STOP JUMPDEST PUSH2 0x2D7 PUSH2 0xD6F JUMP JUMPDEST PUSH1 0x3 PUSH0 DUP4 DUP2 MSTORE PUSH1 0x20 ADD SWAP1 DUP2 MSTORE PUSH1 0x20 ADD PUSH0 KECCAK256 PUSH1 0x40 MLOAD DUP1 PUSH1 0xA0 ADD PUSH1 0x40 MSTORE SWAP1 DUP2 PUSH0 DUP3 ADD DUP1 SLOAD PUSH2 0x302 SWAP1 PUSH2 0x130E JUMP JUMPDEST DUP1 PUSH1 0x1F ADD PUSH1 0x20 DUP1 SWAP2 DIV MUL PUSH1 0x20 ADD PUSH1 0x40 MLOAD SWAP1 DUP2 ADD PUSH1 0x40 MSTORE DUP1 SWAP3 SWAP2 SWAP1 DUP2 DUP2 MSTORE PUSH1 0x20 ADD DUP3 DUP1 SLOAD PUSH2 0x32E SWAP1 PUSH2 0x130E JUMP JUMPDEST DUP1 ISZERO PUSH2 0x379 JUMPI DUP1 PUSH1 0x1F LT PUSH2 0x350 JUMPI PUSH2 0x100 DUP1 DUP4 SLOAD DIV MUL DUP4 MSTORE SWAP2 PUSH1 0x20 ADD SWAP2 PUSH2 0x379 JUMP JUMPDEST DUP3 ADD SWAP2 SWAP1 PUSH0 MSTORE PUSH1 0x20 PUSH0 KECCAK256 SWAP1 JUMPDEST DUP2 SLOAD DUP2 MSTORE SWAP1 PUSH1 0x1 ADD SWAP1 PUSH1 0x20 ADD DUP1 DUP4 GT PUSH2 0x35C JUMPI DUP3 SWAP1 SUB PUSH1 0x1F AND DUP3 ADD SWAP2 JUMPDEST POP POP POP POP POP DUP2 MSTORE PUSH1 0x20 ADD PUSH1 0x1 DUP3 ADD DUP1 SLOAD PUSH2 0x392 SWAP1 PUSH2 0x130E JUMP JUMPDEST DUP1 PUSH1 0x1F ADD PUSH1 0x20 DUP1 SWAP2 DIV MUL PUSH1 0x20 ADD PUSH1 0x40 MLOAD SWAP1 DUP2 ADD PUSH1 0x40 MSTORE DUP1 SWAP3 SWAP2 SWAP1 DUP2 DUP2 MSTORE PUSH1 0x20 ADD DUP3 DUP1 SLOAD PUSH2 0x3BE SWAP1 PUSH2 0x130E JUMP JUMPDEST DUP1 ISZERO PUSH2 0x409 JUMPI DUP1 PUSH1 0x1F LT PUSH2 0x3E0 JUMPI PUSH2 0x100 DUP1 DUP4 SLOAD DIV MUL DUP4 MSTORE SWAP2 PUSH1 0x20 ADD SWAP2 PUSH2 0x409 JUMP JUMPDEST DUP3 ADD SWAP2 SWAP1 PUSH0 MSTORE PUSH1 0x20 PUSH0 KECCAK256 SWAP1 JUMPDEST DUP2 SLOAD DUP2 MSTORE SWAP1 PUSH1 0x1 ADD SWAP1 PUSH1 0x20 ADD DUP1 DUP4 GT PUSH2 0x3EC JUMPI DUP3 SWAP1 SUB PUSH1 0x1F AND DUP3 ADD SWAP2 JUMPDEST POP POP POP POP POP DUP2 MSTORE PUSH1 0x20 ADD PUSH1 0x2 DUP3 ADD PUSH0 SWAP1 SLOAD SWAP1 PUSH2 0x100 EXP SWAP1 DIV PUSH20 0xFFFFFFFFFFFFFFFFFFFFFFFFFFFFFFFFFFFFFFFF AND PUSH20 0xFFFFFFFFFFFFFFFFFFFFFFFFFFFFFFFFFFFFFFFF AND PUSH20 0xFFFFFFFFFFFFFFFFFFFFFFFFFFFFFFFFFFFFFFFF AND DUP2 MSTORE PUSH1 0x20 ADD PUSH1 0x3 DUP3 ADD SLOAD DUP2 MSTORE PUSH1 0x20 ADD PUSH1 0x4 DUP3 ADD PUSH0 SWAP1 SLOAD SWAP1 PUSH2 0x100 EXP SWAP1 DIV PUSH1 0xFF AND PUSH1 0x1 DUP2 GT ISZERO PUSH2 0x495 JUMPI PUSH2 0x494 PUSH2 0xF82 JUMP JUMPDEST JUMPDEST PUSH1 0x1 DUP2 GT ISZERO PUSH2 0x4A7 JUMPI PUSH2 0x4A6 PUSH2 0xF82 JUMP JUMPDEST JUMPDEST DUP2 MSTORE POP POP SWAP1 POP SWAP2 SWAP1 POP JUMP JUMPDEST PUSH1 0x1 SLOAD TIMESTAMP GT PUSH2 0x4F6 JUMPI PUSH1 0x40 MLOAD PUSH32 0x8C379A000000000000000000000000000000000000000000000000000000000 DUP2 MSTORE PUSH1 0x4 ADD PUSH2 0x4ED SWAP1 PUSH2 0x13AE JUMP JUMPDEST PUSH1 0x40 MLOAD DUP1 SWAP2 SUB SWAP1 REVERT JUMPDEST PUSH1 0x2 SLOAD PUSH1 0x3 PUSH0 DUP4 DUP2 MSTORE PUSH1 0x20 ADD SWAP1 DUP2 MSTORE PUSH1 0x20 ADD PUSH0 KECCAK256 PUSH1 0x3 ADD SLOAD LT ISZERO PUSH2 0x5B1 JUMPI PUSH0 PUSH1 0x3 PUSH0 DUP4 DUP2 MSTORE PUSH1 0x20 ADD SWAP1 DUP2 MSTORE PUSH1 0x20 ADD PUSH0 KECCAK256 PUSH1 0x3 ADD SLOAD SWAP1 POP CALLER PUSH20 0xFFFFFFFFFFFFFFFFFFFFFFFFFFFFFFFFFFFFFFFF AND PUSH2 0x8FC DUP3 SWAP1 DUP2 ISZERO MUL SWAP1 PUSH1 0x40 MLOAD PUSH0 PUSH1 0x40 MLOAD DUP1 DUP4 SUB DUP2 DUP6 DUP9 DUP9 CALL SWAP4 POP POP POP POP ISZERO DUP1 ISZERO PUSH2 0x56F JUMPI RETURNDATASIZE PUSH0 DUP1 RETURNDATACOPY RETURNDATASIZE PUSH0 REVERT JUMPDEST POP PUSH32 0x6BCC8E13F2B9CABD8625FAA0937688A01AAB305F3A921EE1E5FBCFF66144FA57 CALLER DUP4 DUP4 PUSH1 0x40 MLOAD PUSH2 0x5A3 SWAP4 SWAP3 SWAP2 SWAP1 PUSH2 0x13CC JUMP JUMPDEST PUSH1 0x40 MLOAD DUP1 SWAP2 SUB SWAP1 LOG1 POP PUSH2 0x5EC JUMP JUMPDEST PUSH1 0x40 MLOAD PUSH32 0x8C379A000000000000000000000000000000000000000000000000000000000 DUP2 MSTORE PUSH1 0x4 ADD PUSH2 0x5E3 SWAP1 PUSH2 0x144B JUMP JUMPDEST PUSH1 0x40 MLOAD DUP1 SWAP2 SUB SWAP1 REVERT JUMPDEST POP JUMP JUMPDEST PUSH1 0x1 SLOAD DUP2 JUMP JUMPDEST PUSH1 0x1 SLOAD TIMESTAMP LT ISZERO PUSH2 0x63A JUMPI PUSH1 0x40 MLOAD PUSH32 0x8C379A000000000000000000000000000000000000000000000000000000000 DUP2 MSTORE PUSH1 0x4 ADD PUSH2 0x631 SWAP1 PUSH2 0x14D9 JUMP JUMPDEST PUSH1 0x40 MLOAD DUP1 SWAP2 SUB SWAP1 REVERT JUMPDEST PUSH1 0x2 SLOAD PUSH1 0x3 PUSH0 DUP4 DUP2 MSTORE PUSH1 0x20 ADD SWAP1 DUP2 MSTORE PUSH1 0x20 ADD PUSH0 KECCAK256 PUSH1 0x3 ADD SLOAD LT PUSH2 0x763 JUMPI PUSH0 PUSH1 0x3 PUSH0 DUP4 DUP2 MSTORE PUSH1 0x20 ADD SWAP1 DUP2 MSTORE PUSH1 0x20 ADD PUSH0 KECCAK256 PUSH1 0x3 ADD SLOAD SWAP1 POP PUSH1 0x3 PUSH0 DUP4 DUP2 MSTORE PUSH1 0x20 ADD SWAP1 DUP2 MSTORE PUSH1 0x20 ADD PUSH0 KECCAK256 PUSH1 0x2 ADD PUSH0 SWAP1 SLOAD SWAP1 PUSH2 0x100 EXP SWAP1 DIV PUSH20 0xFFFFFFFFFFFFFFFFFFFFFFFFFFFFFFFFFFFFFFFF AND PUSH20 0xFFFFFFFFFFFFFFFFFFFFFFFFFFFFFFFFFFFFFFFF AND PUSH2 0x8FC DUP3 SWAP1 DUP2 ISZERO MUL SWAP1 PUSH1 0x40 MLOAD PUSH0 PUSH1 0x40 MLOAD DUP1 DUP4 SUB DUP2 DUP6 DUP9 DUP9 CALL SWAP4 POP POP POP POP ISZERO DUP1 ISZERO PUSH2 0x6E5 JUMPI RETURNDATASIZE PUSH0 DUP1 RETURNDATACOPY RETURNDATASIZE PUSH0 REVERT JUMPDEST POP PUSH1 0x1 PUSH1 0x3 PUSH0 DUP5 DUP2 MSTORE PUSH1 0x20 ADD SWAP1 DUP2 MSTORE PUSH1 0x20 ADD PUSH0 KECCAK256 PUSH1 0x4 ADD PUSH0 PUSH2 0x100 EXP DUP2 SLOAD DUP2 PUSH1 0xFF MUL NOT AND SWAP1 DUP4 PUSH1 0x1 DUP2 GT ISZERO PUSH2 0x71D JUMPI PUSH2 0x71C PUSH2 0xF82 JUMP JUMPDEST JUMPDEST MUL OR SWAP1 SSTORE POP PUSH32 0x9576942F6783612A1DE73784D0A4A99E49DDBC7E59E8FC927CFFC1EE5385D236 CALLER DUP4 DUP4 PUSH1 0x40 MLOAD PUSH2 0x755 SWAP4 SWAP3 SWAP2 SWAP1 PUSH2 0x13CC JUMP JUMPDEST PUSH1 0x40 MLOAD DUP1 SWAP2 SUB SWAP1 LOG1 POP PUSH2 0x79E JUMP JUMPDEST PUSH1 0x40 MLOAD PUSH32 0x8C379A000000000000000000000000000000000000000000000000000000000 DUP2 MSTORE PUSH1 0x4 ADD PUSH2 0x795 SWAP1 PUSH2 0x1541 JUMP JUMPDEST PUSH1 0x40 MLOAD DUP1 SWAP2 SUB SWAP1 REVERT JUMPDEST POP JUMP JUMPDEST PUSH0 DUP1 SLOAD SWAP1 PUSH2 0x100 EXP SWAP1 DIV PUSH20 0xFFFFFFFFFFFFFFFFFFFFFFFFFFFFFFFFFFFFFFFF AND DUP2 JUMP JUMPDEST PUSH0 DUP1 PUSH1 0x3 PUSH0 DUP5 DUP2 MSTORE PUSH1 0x20 ADD SWAP1 DUP2 MSTORE PUSH1 0x20 ADD PUSH0 KECCAK256 PUSH1 0x3 ADD SLOAD PUSH1 0x2 SLOAD PUSH2 0x7E8 SWAP2 SWAP1 PUSH2 0x158C JUMP JUMPDEST SWAP1 POP DUP1 SWAP2 POP POP SWAP2 SWAP1 POP JUMP JUMPDEST PUSH1 0x2 SLOAD DUP2 JUMP JUMPDEST PUSH2 0x804 DUP4 DUP4 DUP4 PUSH2 0xC02 JUMP JUMPDEST PUSH32 0xC25F73D8066F835A9A93EF7719CC9DFA37651997AD88EA41ABE71C77F9209CE7 CALLER PUSH1 0x4 SLOAD PUSH1 0x40 MLOAD PUSH2 0x837 SWAP3 SWAP2 SWAP1 PUSH2 0x15BF JUMP JUMPDEST PUSH1 0x40 MLOAD DUP1 SWAP2 SUB SWAP1 LOG1 POP POP POP JUMP JUMPDEST PUSH1 0x4 SLOAD DUP2 JUMP JUMPDEST PUSH2 0x852 PUSH2 0xD6F JUMP JUMPDEST PUSH1 0x1 SLOAD TIMESTAMP GT ISZERO PUSH2 0x897 JUMPI PUSH1 0x40 MLOAD PUSH32 0x8C379A000000000000000000000000000000000000000000000000000000000 DUP2 MSTORE PUSH1 0x4 ADD PUSH2 0x88E SWAP1 PUSH2 0x1656 JUMP JUMPDEST PUSH1 0x40 MLOAD DUP1 SWAP2 SUB SWAP1 REVERT JUMPDEST CALLVALUE PUSH1 0x3 PUSH0 DUP5 DUP2 MSTORE PUSH1 0x20 ADD SWAP1 DUP2 MSTORE PUSH1 0x20 ADD PUSH0 KECCAK256 PUSH1 0x3 ADD PUSH0 DUP3 DUP3 SLOAD PUSH2 0x8BA SWAP2 SWAP1 PUSH2 0x1674 JUMP JUMPDEST SWAP3 POP POP DUP2 SWAP1 SSTORE POP PUSH0 PUSH1 0x1 DUP2 GT ISZERO PUSH2 0x8D4 JUMPI PUSH2 0x8D3 PUSH2 0xF82 JUMP JUMPDEST JUMPDEST PUSH1 0x3 PUSH0 DUP5 DUP2 MSTORE PUSH1 0x20 ADD SWAP1 DUP2 MSTORE PUSH1 0x20 ADD PUSH0 KECCAK256 PUSH1 0x4 ADD PUSH0 SWAP1 SLOAD SWAP1 PUSH2 0x100 EXP SWAP1 DIV PUSH1 0xFF AND PUSH1 0x1 DUP2 GT ISZERO PUSH2 0x907 JUMPI PUSH2 0x906 PUSH2 0xF82 JUMP JUMPDEST JUMPDEST EQ PUSH2 0x947 JUMPI PUSH1 0x40 MLOAD PUSH32 0x8C379A000000000000000000000000000000000000000000000000000000000 DUP2 MSTORE PUSH1 0x4 ADD PUSH2 0x93E SWAP1 PUSH2 0x16F1 JUMP JUMPDEST PUSH1 0x40 MLOAD DUP1 SWAP2 SUB SWAP1 REVERT JUMPDEST PUSH32 0x8952AC1E80FC86D8CCB4C9BB2B1DF4BA33B963FDC98DE332D4D07A43DDDDC462 DUP3 CALLER CALLVALUE PUSH1 0x40 MLOAD PUSH2 0x97A SWAP4 SWAP3 SWAP2 SWAP1 PUSH2 0x170F JUMP JUMPDEST PUSH1 0x40 MLOAD DUP1 SWAP2 SUB SWAP1 LOG1 ADDRESS PUSH20 0xFFFFFFFFFFFFFFFFFFFFFFFFFFFFFFFFFFFFFFFF AND PUSH4 0x10445B2B DUP4 PUSH1 0x40 MLOAD DUP3 PUSH4 0xFFFFFFFF AND PUSH1 0xE0 SHL DUP2 MSTORE PUSH1 0x4 ADD PUSH2 0x9BB SWAP2 SWAP1 PUSH2 0x109E JUMP JUMPDEST PUSH0 PUSH1 0x40 MLOAD DUP1 DUP4 SUB DUP2 DUP7 GAS STATICCALL SWAP3 POP POP POP DUP1 ISZERO PUSH2 0x9F8 JUMPI POP PUSH1 0x40 MLOAD RETURNDATASIZE PUSH0 DUP3 RETURNDATACOPY RETURNDATASIZE PUSH1 0x1F NOT PUSH1 0x1F DUP3 ADD AND DUP3 ADD DUP1 PUSH1 0x40 MSTORE POP DUP2 ADD SWAP1 PUSH2 0x9F5 SWAP2 SWAP1 PUSH2 0x18DC JUMP JUMPDEST PUSH1 0x1 JUMPDEST PUSH2 0xA36 JUMPI PUSH32 0x24C93343BEA44FF8F0E628CA4E5B87DFE0823D664C887457E166A03798BB191C PUSH1 0x40 MLOAD PUSH2 0xA29 SWAP1 PUSH2 0x196D JUMP JUMPDEST PUSH1 0x40 MLOAD DUP1 SWAP2 SUB SWAP1 LOG1 PUSH2 0xA3F JUMP JUMPDEST DUP1 SWAP2 POP POP PUSH2 0xA40 JUMP JUMPDEST JUMPDEST SWAP2 SWAP1 POP JUMP JUMPDEST PUSH0 DUP1 SLOAD SWAP1 PUSH2 0x100 EXP SWAP1 DIV PUSH20 0xFFFFFFFFFFFFFFFFFFFFFFFFFFFFFFFFFFFFFFFF AND PUSH20 0xFFFFFFFFFFFFFFFFFFFFFFFFFFFFFFFFFFFFFFFF AND CALLER PUSH20 0xFFFFFFFFFFFFFFFFFFFFFFFFFFFFFFFFFFFFFFFF AND EQ PUSH2 0xA9B JUMPI PUSH0 DUP1 REVERT JUMPDEST PUSH1 0x2 SLOAD PUSH1 0x3 PUSH0 DUP4 DUP2 MSTORE PUSH1 0x20 ADD SWAP1 DUP2 MSTORE PUSH1 0x20 ADD PUSH0 KECCAK256 PUSH1 0x3 ADD SLOAD LT PUSH2 0xBC4 JUMPI PUSH0 PUSH1 0x3 PUSH0 DUP4 DUP2 MSTORE PUSH1 0x20 ADD SWAP1 DUP2 MSTORE PUSH1 0x20 ADD PUSH0 KECCAK256 PUSH1 0x3 ADD SLOAD SWAP1 POP PUSH1 0x3 PUSH0 DUP4 DUP2 MSTORE PUSH1 0x20 ADD SWAP1 DUP2 MSTORE PUSH1 0x20 ADD PUSH0 KECCAK256 PUSH1 0x2 ADD PUSH0 SWAP1 SLOAD SWAP1 PUSH2 0x100 EXP SWAP1 DIV PUSH20 0xFFFFFFFFFFFFFFFFFFFFFFFFFFFFFFFFFFFFFFFF AND PUSH20 0xFFFFFFFFFFFFFFFFFFFFFFFFFFFFFFFFFFFFFFFF AND PUSH2 0x8FC DUP3 SWAP1 DUP2 ISZERO MUL SWAP1 PUSH1 0x40 MLOAD PUSH0 PUSH1 0x40 MLOAD DUP1 DUP4 SUB DUP2 DUP6 DUP9 DUP9 CALL SWAP4 POP POP POP POP ISZERO DUP1 ISZERO PUSH2 0xB46 JUMPI RETURNDATASIZE PUSH0 DUP1 RETURNDATACOPY RETURNDATASIZE PUSH0 REVERT JUMPDEST POP PUSH1 0x1 PUSH1 0x3 PUSH0 DUP5 DUP2 MSTORE PUSH1 0x20 ADD SWAP1 DUP2 MSTORE PUSH1 0x20 ADD PUSH0 KECCAK256 PUSH1 0x4 ADD PUSH0 PUSH2 0x100 EXP DUP2 SLOAD DUP2 PUSH1 0xFF MUL NOT AND SWAP1 DUP4 PUSH1 0x1 DUP2 GT ISZERO PUSH2 0xB7E JUMPI PUSH2 0xB7D PUSH2 0xF82 JUMP JUMPDEST JUMPDEST MUL OR SWAP1 SSTORE POP PUSH32 0x9576942F6783612A1DE73784D0A4A99E49DDBC7E59E8FC927CFFC1EE5385D236 CALLER DUP4 DUP4 PUSH1 0x40 MLOAD PUSH2 0xBB6 SWAP4 SWAP3 SWAP2 SWAP1 PUSH2 0x13CC JUMP JUMPDEST PUSH1 0x40 MLOAD DUP1 SWAP2 SUB SWAP1 LOG1 POP PUSH2 0xBFF JUMP JUMPDEST PUSH1 0x40 MLOAD PUSH32 0x8C379A000000000000000000000000000000000000000000000000000000000 DUP2 MSTORE PUSH1 0x4 ADD PUSH2 0xBF6 SWAP1 PUSH2 0x1541 JUMP JUMPDEST PUSH1 0x40 MLOAD DUP1 SWAP2 SUB SWAP1 REVERT JUMPDEST POP JUMP JUMPDEST PUSH1 0x40 MLOAD DUP1 PUSH1 0xA0 ADD PUSH1 0x40 MSTORE DUP1 DUP5 DUP5 DUP1 DUP1 PUSH1 0x1F ADD PUSH1 0x20 DUP1 SWAP2 DIV MUL PUSH1 0x20 ADD PUSH1 0x40 MLOAD SWAP1 DUP2 ADD PUSH1 0x40 MSTORE DUP1 SWAP4 SWAP3 SWAP2 SWAP1 DUP2 DUP2 MSTORE PUSH1 0x20 ADD DUP4 DUP4 DUP1 DUP3 DUP5 CALLDATACOPY PUSH0 DUP2 DUP5 ADD MSTORE PUSH1 0x1F NOT PUSH1 0x1F DUP3 ADD AND SWAP1 POP DUP1 DUP4 ADD SWAP3 POP POP POP POP POP POP POP DUP2 MSTORE PUSH1 0x20 ADD DUP3 DUP2 MSTORE PUSH1 0x20 ADD CALLER PUSH20 0xFFFFFFFFFFFFFFFFFFFFFFFFFFFFFFFFFFFFFFFF AND DUP2 MSTORE PUSH1 0x20 ADD PUSH0 DUP2 MSTORE PUSH1 0x20 ADD PUSH0 PUSH1 0x1 DUP2 GT ISZERO PUSH2 0xC91 JUMPI PUSH2 0xC90 PUSH2 0xF82 JUMP JUMPDEST JUMPDEST DUP2 MSTORE POP PUSH1 0x3 PUSH0 PUSH1 0x4 SLOAD DUP2 MSTORE PUSH1 0x20 ADD SWAP1 DUP2 MSTORE PUSH1 0x20 ADD PUSH0 KECCAK256 PUSH0 DUP3 ADD MLOAD DUP2 PUSH0 ADD SWAP1 DUP2 PUSH2 0xCBA SWAP2 SWAP1 PUSH2 0x1B28 JUMP JUMPDEST POP PUSH1 0x20 DUP3 ADD MLOAD DUP2 PUSH1 0x1 ADD SWAP1 DUP2 PUSH2 0xCD0 SWAP2 SWAP1 PUSH2 0x1B28 JUMP JUMPDEST POP PUSH1 0x40 DUP3 ADD MLOAD DUP2 PUSH1 0x2 ADD PUSH0 PUSH2 0x100 EXP DUP2 SLOAD DUP2 PUSH20 0xFFFFFFFFFFFFFFFFFFFFFFFFFFFFFFFFFFFFFFFF MUL NOT AND SWAP1 DUP4 PUSH20 0xFFFFFFFFFFFFFFFFFFFFFFFFFFFFFFFFFFFFFFFF AND MUL OR SWAP1 SSTORE POP PUSH1 0x60 DUP3 ADD MLOAD DUP2 PUSH1 0x3 ADD SSTORE PUSH1 0x80 DUP3 ADD MLOAD DUP2 PUSH1 0x4 ADD PUSH0 PUSH2 0x100 EXP DUP2 SLOAD DUP2 PUSH1 0xFF MUL NOT AND SWAP1 DUP4 PUSH1 0x1 DUP2 GT ISZERO PUSH2 0xD4B JUMPI PUSH2 0xD4A PUSH2 0xF82 JUMP JUMPDEST JUMPDEST MUL OR SWAP1 SSTORE POP SWAP1 POP POP PUSH1 0x4 PUSH0 DUP2 SLOAD DUP1 SWAP3 SWAP2 SWAP1 PUSH2 0xD65 SWAP1 PUSH2 0x1BF7 JUMP JUMPDEST SWAP2 SWAP1 POP SSTORE POP POP POP POP JUMP JUMPDEST PUSH1 0x40 MLOAD DUP1 PUSH1 0xA0 ADD PUSH1 0x40 MSTORE DUP1 PUSH1 0x60 DUP2 MSTORE PUSH1 0x20 ADD PUSH1 0x60 DUP2 MSTORE PUSH1 0x20 ADD PUSH0 PUSH20 0xFFFFFFFFFFFFFFFFFFFFFFFFFFFFFFFFFFFFFFFF AND DUP2 MSTORE PUSH1 0x20 ADD PUSH0 DUP2 MSTORE PUSH1 0x20 ADD PUSH0 PUSH1 0x1 DUP2 GT ISZERO PUSH2 0xDBD JUMPI PUSH2 0xDBC PUSH2 0xF82 JUMP JUMPDEST JUMPDEST DUP2 MSTORE POP SWAP1 JUMP JUMPDEST PUSH0 DUP3 DUP3 MSTORE PUSH1 0x20 DUP3 ADD SWAP1 POP SWAP3 SWAP2 POP POP JUMP JUMPDEST PUSH32 0x616D6F756E74207265636569766564207375636365737366756C6C7900000000 PUSH0 DUP3 ADD MSTORE POP JUMP JUMPDEST PUSH0 PUSH2 0xE07 PUSH1 0x1C DUP4 PUSH2 0xDC3 JUMP JUMPDEST SWAP2 POP PUSH2 0xE12 DUP3 PUSH2 0xDD3 JUMP JUMPDEST PUSH1 0x20 DUP3 ADD SWAP1 POP SWAP2 SWAP1 POP JUMP JUMPDEST PUSH0 PUSH1 0x20 DUP3 ADD SWAP1 POP DUP2 DUP2 SUB PUSH0 DUP4 ADD MSTORE PUSH2 0xE34 DUP2 PUSH2 0xDFB JUMP JUMPDEST SWAP1 POP SWAP2 SWAP1 POP JUMP JUMPDEST PUSH0 PUSH1 0x40 MLOAD SWAP1 POP SWAP1 JUMP JUMPDEST PUSH0 DUP1 REVERT JUMPDEST PUSH0 DUP1 REVERT JUMPDEST PUSH0 DUP2 SWAP1 POP SWAP2 SWAP1 POP JUMP JUMPDEST PUSH2 0xE5E DUP2 PUSH2 0xE4C JUMP JUMPDEST DUP2 EQ PUSH2 0xE68 JUMPI PUSH0 DUP1 REVERT JUMPDEST POP JUMP JUMPDEST PUSH0 DUP2 CALLDATALOAD SWAP1 POP PUSH2 0xE79 DUP2 PUSH2 0xE55 JUMP JUMPDEST SWAP3 SWAP2 POP POP JUMP JUMPDEST PUSH0 PUSH1 0x20 DUP3 DUP5 SUB SLT ISZERO PUSH2 0xE94 JUMPI PUSH2 0xE93 PUSH2 0xE44 JUMP JUMPDEST JUMPDEST PUSH0 PUSH2 0xEA1 DUP5 DUP3 DUP6 ADD PUSH2 0xE6B JUMP JUMPDEST SWAP2 POP POP SWAP3 SWAP2 POP POP JUMP JUMPDEST PUSH0 DUP2 MLOAD SWAP1 POP SWAP2 SWAP1 POP JUMP JUMPDEST PUSH0 DUP3 DUP3 MSTORE PUSH1 0x20 DUP3 ADD SWAP1 POP SWAP3 SWAP2 POP POP JUMP JUMPDEST PUSH0 JUMPDEST DUP4 DUP2 LT ISZERO PUSH2 0xEE1 JUMPI DUP1 DUP3 ADD MLOAD DUP2 DUP5 ADD MSTORE PUSH1 0x20 DUP2 ADD SWAP1 POP PUSH2 0xEC6 JUMP JUMPDEST PUSH0 DUP5 DUP5 ADD MSTORE POP POP POP POP JUMP JUMPDEST PUSH0 PUSH1 0x1F NOT PUSH1 0x1F DUP4 ADD AND SWAP1 POP SWAP2 SWAP1 POP JUMP JUMPDEST PUSH0 PUSH2 0xF06 DUP3 PUSH2 0xEAA JUMP JUMPDEST PUSH2 0xF10 DUP2 DUP6 PUSH2 0xEB4 JUMP JUMPDEST SWAP4 POP PUSH2 0xF20 DUP2 DUP6 PUSH1 0x20 DUP7 ADD PUSH2 0xEC4 JUMP JUMPDEST PUSH2 0xF29 DUP2 PUSH2 0xEEC JUMP JUMPDEST DUP5 ADD SWAP2 POP POP SWAP3 SWAP2 POP POP JUMP JUMPDEST PUSH0 PUSH20 0xFFFFFFFFFFFFFFFFFFFFFFFFFFFFFFFFFFFFFFFF DUP3 AND SWAP1 POP SWAP2 SWAP1 POP JUMP JUMPDEST PUSH0 PUSH2 0xF5D DUP3 PUSH2 0xF34 JUMP JUMPDEST SWAP1 POP SWAP2 SWAP1 POP JUMP JUMPDEST PUSH2 0xF6D DUP2 PUSH2 0xF53 JUMP JUMPDEST DUP3 MSTORE POP POP JUMP JUMPDEST PUSH2 0xF7C DUP2 PUSH2 0xE4C JUMP JUMPDEST DUP3 MSTORE POP POP JUMP JUMPDEST PUSH32 0x4E487B7100000000000000000000000000000000000000000000000000000000 PUSH0 MSTORE PUSH1 0x21 PUSH1 0x4 MSTORE PUSH1 0x24 PUSH0 REVERT JUMPDEST PUSH1 0x2 DUP2 LT PUSH2 0xFC0 JUMPI PUSH2 0xFBF PUSH2 0xF82 JUMP JUMPDEST JUMPDEST POP JUMP JUMPDEST PUSH0 DUP2 SWAP1 POP PUSH2 0xFD0 DUP3 PUSH2 0xFAF JUMP JUMPDEST SWAP2 SWAP1 POP JUMP JUMPDEST PUSH0 PUSH2 0xFDF DUP3 PUSH2 0xFC3 JUMP JUMPDEST SWAP1 POP SWAP2 SWAP1 POP JUMP JUMPDEST PUSH2 0xFEF DUP2 PUSH2 0xFD5 JUMP JUMPDEST DUP3 MSTORE POP POP JUMP JUMPDEST PUSH0 PUSH1 0xA0 DUP4 ADD PUSH0 DUP4 ADD MLOAD DUP5 DUP3 SUB PUSH0 DUP7 ADD MSTORE PUSH2 0x100F DUP3 DUP3 PUSH2 0xEFC JUMP JUMPDEST SWAP2 POP POP PUSH1 0x20 DUP4 ADD MLOAD DUP5 DUP3 SUB PUSH1 0x20 DUP7 ADD MSTORE PUSH2 0x1029 DUP3 DUP3 PUSH2 0xEFC JUMP JUMPDEST SWAP2 POP POP PUSH1 0x40 DUP4 ADD MLOAD PUSH2 0x103E PUSH1 0x40 DUP7 ADD DUP3 PUSH2 0xF64 JUMP JUMPDEST POP PUSH1 0x60 DUP4 ADD MLOAD PUSH2 0x1051 PUSH1 0x60 DUP7 ADD DUP3 PUSH2 0xF73 JUMP JUMPDEST POP PUSH1 0x80 DUP4 ADD MLOAD PUSH2 0x1064 PUSH1 0x80 DUP7 ADD DUP3 PUSH2 0xFE6 JUMP JUMPDEST POP DUP1 SWAP2 POP POP SWAP3 SWAP2 POP POP JUMP JUMPDEST PUSH0 PUSH1 0x20 DUP3 ADD SWAP1 POP DUP2 DUP2 SUB PUSH0 DUP4 ADD MSTORE PUSH2 0x1087 DUP2 DUP5 PUSH2 0xFF5 JUMP JUMPDEST SWAP1 POP SWAP3 SWAP2 POP POP JUMP JUMPDEST PUSH2 0x1098 DUP2 PUSH2 0xE4C JUMP JUMPDEST DUP3 MSTORE POP POP JUMP JUMPDEST PUSH0 PUSH1 0x20 DUP3 ADD SWAP1 POP PUSH2 0x10B1 PUSH0 DUP4 ADD DUP5 PUSH2 0x108F JUMP JUMPDEST SWAP3 SWAP2 POP POP JUMP JUMPDEST PUSH2 0x10C0 DUP2 PUSH2 0xF53 JUMP JUMPDEST DUP3 MSTORE POP POP JUMP JUMPDEST PUSH0 PUSH1 0x20 DUP3 ADD SWAP1 POP PUSH2 0x10D9 PUSH0 DUP4 ADD DUP5 PUSH2 0x10B7 JUMP JUMPDEST SWAP3 SWAP2 POP POP JUMP JUMPDEST PUSH0 DUP1 REVERT JUMPDEST PUSH0 DUP1 REVERT JUMPDEST PUSH0 DUP1 REVERT JUMPDEST PUSH0 DUP1 DUP4 PUSH1 0x1F DUP5 ADD SLT PUSH2 0x1100 JUMPI PUSH2 0x10FF PUSH2 0x10DF JUMP JUMPDEST JUMPDEST DUP3 CALLDATALOAD SWAP1 POP PUSH8 0xFFFFFFFFFFFFFFFF DUP2 GT ISZERO PUSH2 0x111D JUMPI PUSH2 0x111C PUSH2 0x10E3 JUMP JUMPDEST JUMPDEST PUSH1 0x20 DUP4 ADD SWAP2 POP DUP4 PUSH1 0x1 DUP3 MUL DUP4 ADD GT ISZERO PUSH2 0x1139 JUMPI PUSH2 0x1138 PUSH2 0x10E7 JUMP JUMPDEST JUMPDEST SWAP3 POP SWAP3 SWAP1 POP JUMP JUMPDEST PUSH0 DUP1 REVERT JUMPDEST PUSH32 0x4E487B7100000000000000000000000000000000000000000000000000000000 PUSH0 MSTORE PUSH1 0x41 PUSH1 0x4 MSTORE PUSH1 0x24 PUSH0 REVERT JUMPDEST PUSH2 0x117A DUP3 PUSH2 0xEEC JUMP JUMPDEST DUP2 ADD DUP2 DUP2 LT PUSH8 0xFFFFFFFFFFFFFFFF DUP3 GT OR ISZERO PUSH2 0x1199 JUMPI PUSH2 0x1198 PUSH2 0x1144 JUMP JUMPDEST JUMPDEST DUP1 PUSH1 0x40 MSTORE POP POP POP JUMP JUMPDEST PUSH0 PUSH2 0x11AB PUSH2 0xE3B JUMP JUMPDEST SWAP1 POP PUSH2 0x11B7 DUP3 DUP3 PUSH2 0x1171 JUMP JUMPDEST SWAP2 SWAP1 POP JUMP JUMPDEST PUSH0 PUSH8 0xFFFFFFFFFFFFFFFF DUP3 GT ISZERO PUSH2 0x11D6 JUMPI PUSH2 0x11D5 PUSH2 0x1144 JUMP JUMPDEST JUMPDEST PUSH2 0x11DF DUP3 PUSH2 0xEEC JUMP JUMPDEST SWAP1 POP PUSH1 0x20 DUP2 ADD SWAP1 POP SWAP2 SWAP1 POP JUMP JUMPDEST DUP3 DUP2 DUP4 CALLDATACOPY PUSH0 DUP4 DUP4 ADD MSTORE POP POP POP JUMP JUMPDEST PUSH0 PUSH2 0x120C PUSH2 0x1207 DUP5 PUSH2 0x11BC JUMP JUMPDEST PUSH2 0x11A2 JUMP JUMPDEST SWAP1 POP DUP3 DUP2 MSTORE PUSH1 0x20 DUP2 ADD DUP5 DUP5 DUP5 ADD GT ISZERO PUSH2 0x1228 JUMPI PUSH2 0x1227 PUSH2 0x1140 JUMP JUMPDEST JUMPDEST PUSH2 0x1233 DUP5 DUP3 DUP6 PUSH2 0x11EC JUMP JUMPDEST POP SWAP4 SWAP3 POP POP POP JUMP JUMPDEST PUSH0 DUP3 PUSH1 0x1F DUP4 ADD SLT PUSH2 0x124F JUMPI PUSH2 0x124E PUSH2 0x10DF JUMP JUMPDEST JUMPDEST DUP2 CALLDATALOAD PUSH2 0x125F DUP5 DUP3 PUSH1 0x20 DUP7 ADD PUSH2 0x11FA JUMP JUMPDEST SWAP2 POP POP SWAP3 SWAP2 POP POP JUMP JUMPDEST PUSH0 DUP1 PUSH0 PUSH1 0x40 DUP5 DUP7 SUB SLT ISZERO PUSH2 0x127F JUMPI PUSH2 0x127E PUSH2 0xE44 JUMP JUMPDEST JUMPDEST PUSH0 DUP5 ADD CALLDATALOAD PUSH8 0xFFFFFFFFFFFFFFFF DUP2 GT ISZERO PUSH2 0x129C JUMPI PUSH2 0x129B PUSH2 0xE48 JUMP JUMPDEST JUMPDEST PUSH2 0x12A8 DUP7 DUP3 DUP8 ADD PUSH2 0x10EB JUMP JUMPDEST SWAP4 POP SWAP4 POP POP PUSH1 0x20 DUP5 ADD CALLDATALOAD PUSH8 0xFFFFFFFFFFFFFFFF DUP2 GT ISZERO PUSH2 0x12CB JUMPI PUSH2 0x12CA PUSH2 0xE48 JUMP JUMPDEST JUMPDEST PUSH2 0x12D7 DUP7 DUP3 DUP8 ADD PUSH2 0x123B JUMP JUMPDEST SWAP2 POP POP SWAP3 POP SWAP3 POP SWAP3 JUMP JUMPDEST PUSH32 0x4E487B7100000000000000000000000000000000000000000000000000000000 PUSH0 MSTORE PUSH1 0x22 PUSH1 0x4 MSTORE PUSH1 0x24 PUSH0 REVERT JUMPDEST PUSH0 PUSH1 0x2 DUP3 DIV SWAP1 POP PUSH1 0x1 DUP3 AND DUP1 PUSH2 0x1325 JUMPI PUSH1 0x7F DUP3 AND SWAP2 POP JUMPDEST PUSH1 0x20 DUP3 LT DUP2 SUB PUSH2 0x1338 JUMPI PUSH2 0x1337 PUSH2 0x12E1 JUMP JUMPDEST JUMPDEST POP SWAP2 SWAP1 POP JUMP JUMPDEST PUSH32 0x63616E277420726566756E642063757A20646561646C696E65206E6F74206D65 PUSH0 DUP3 ADD MSTORE PUSH32 0x6574000000000000000000000000000000000000000000000000000000000000 PUSH1 0x20 DUP3 ADD MSTORE POP JUMP JUMPDEST PUSH0 PUSH2 0x1398 PUSH1 0x22 DUP4 PUSH2 0xDC3 JUMP JUMPDEST SWAP2 POP PUSH2 0x13A3 DUP3 PUSH2 0x133E JUMP JUMPDEST PUSH1 0x40 DUP3 ADD SWAP1 POP SWAP2 SWAP1 POP JUMP JUMPDEST PUSH0 PUSH1 0x20 DUP3 ADD SWAP1 POP DUP2 DUP2 SUB PUSH0 DUP4 ADD MSTORE PUSH2 0x13C5 DUP2 PUSH2 0x138C JUMP JUMPDEST SWAP1 POP SWAP2 SWAP1 POP JUMP JUMPDEST PUSH0 PUSH1 0x60 DUP3 ADD SWAP1 POP PUSH2 0x13DF PUSH0 DUP4 ADD DUP7 PUSH2 0x10B7 JUMP JUMPDEST PUSH2 0x13EC PUSH1 0x20 DUP4 ADD DUP6 PUSH2 0x108F JUMP JUMPDEST PUSH2 0x13F9 PUSH1 0x40 DUP4 ADD DUP5 PUSH2 0x108F JUMP JUMPDEST SWAP5 SWAP4 POP POP POP POP JUMP JUMPDEST PUSH32 0x752063616E277420726566756E64200000000000000000000000000000000000 PUSH0 DUP3 ADD MSTORE POP JUMP JUMPDEST PUSH0 PUSH2 0x1435 PUSH1 0xF DUP4 PUSH2 0xDC3 JUMP JUMPDEST SWAP2 POP PUSH2 0x1440 DUP3 PUSH2 0x1401 JUMP JUMPDEST PUSH1 0x20 DUP3 ADD SWAP1 POP SWAP2 SWAP1 POP JUMP JUMPDEST PUSH0 PUSH1 0x20 DUP3 ADD SWAP1 POP DUP2 DUP2 SUB PUSH0 DUP4 ADD MSTORE PUSH2 0x1462 DUP2 PUSH2 0x1429 JUMP JUMPDEST SWAP1 POP SWAP2 SWAP1 POP JUMP JUMPDEST PUSH32 0x6E6F7420616C6C6F77656420636C61696D696E672063757A20616C6C6F776564 PUSH0 DUP3 ADD MSTORE PUSH32 0x2074696D652069732072656D61696E696E670000000000000000000000000000 PUSH1 0x20 DUP3 ADD MSTORE POP JUMP JUMPDEST PUSH0 PUSH2 0x14C3 PUSH1 0x32 DUP4 PUSH2 0xDC3 JUMP JUMPDEST SWAP2 POP PUSH2 0x14CE DUP3 PUSH2 0x1469 JUMP JUMPDEST PUSH1 0x40 DUP3 ADD SWAP1 POP SWAP2 SWAP1 POP JUMP JUMPDEST PUSH0 PUSH1 0x20 DUP3 ADD SWAP1 POP DUP2 DUP2 SUB PUSH0 DUP4 ADD MSTORE PUSH2 0x14F0 DUP2 PUSH2 0x14B7 JUMP JUMPDEST SWAP1 POP SWAP2 SWAP1 POP JUMP JUMPDEST PUSH32 0x616D6F756E74206973206E6F7420657175616C20746F20676F616C0000000000 PUSH0 DUP3 ADD MSTORE POP JUMP JUMPDEST PUSH0 PUSH2 0x152B PUSH1 0x1B DUP4 PUSH2 0xDC3 JUMP JUMPDEST SWAP2 POP PUSH2 0x1536 DUP3 PUSH2 0x14F7 JUMP JUMPDEST PUSH1 0x20 DUP3 ADD SWAP1 POP SWAP2 SWAP1 POP JUMP JUMPDEST PUSH0 PUSH1 0x20 DUP3 ADD SWAP1 POP DUP2 DUP2 SUB PUSH0 DUP4 ADD MSTORE PUSH2 0x1558 DUP2 PUSH2 0x151F JUMP JUMPDEST SWAP1 POP SWAP2 SWAP1 POP JUMP JUMPDEST PUSH32 0x4E487B7100000000000000000000000000000000000000000000000000000000 PUSH0 MSTORE PUSH1 0x11 PUSH1 0x4 MSTORE PUSH1 0x24 PUSH0 REVERT JUMPDEST PUSH0 PUSH2 0x1596 DUP3 PUSH2 0xE4C JUMP JUMPDEST SWAP2 POP PUSH2 0x15A1 DUP4 PUSH2 0xE4C JUMP JUMPDEST SWAP3 POP DUP3 DUP3 SUB SWAP1 POP DUP2 DUP2 GT ISZERO PUSH2 0x15B9 JUMPI PUSH2 0x15B8 PUSH2 0x155F JUMP JUMPDEST JUMPDEST SWAP3 SWAP2 POP POP JUMP JUMPDEST PUSH0 PUSH1 0x40 DUP3 ADD SWAP1 POP PUSH2 0x15D2 PUSH0 DUP4 ADD DUP6 PUSH2 0x10B7 JUMP JUMPDEST PUSH2 0x15DF PUSH1 0x20 DUP4 ADD DUP5 PUSH2 0x108F JUMP JUMPDEST SWAP4 SWAP3 POP POP POP JUMP JUMPDEST PUSH32 0x7472616E73616374696F6E20617265206E6F7420616C6C6F77656420696E2074 PUSH0 DUP3 ADD MSTORE PUSH32 0x6869732074696D65000000000000000000000000000000000000000000000000 PUSH1 0x20 DUP3 ADD MSTORE POP JUMP JUMPDEST PUSH0 PUSH2 0x1640 PUSH1 0x28 DUP4 PUSH2 0xDC3 JUMP JUMPDEST SWAP2 POP PUSH2 0x164B DUP3 PUSH2 0x15E6 JUMP JUMPDEST PUSH1 0x40 DUP3 ADD SWAP1 POP SWAP2 SWAP1 POP JUMP JUMPDEST PUSH0 PUSH1 0x20 DUP3 ADD SWAP1 POP DUP2 DUP2 SUB PUSH0 DUP4 ADD MSTORE PUSH2 0x166D DUP2 PUSH2 0x1634 JUMP JUMPDEST SWAP1 POP SWAP2 SWAP1 POP JUMP JUMPDEST PUSH0 PUSH2 0x167E DUP3 PUSH2 0xE4C JUMP JUMPDEST SWAP2 POP PUSH2 0x1689 DUP4 PUSH2 0xE4C JUMP JUMPDEST SWAP3 POP DUP3 DUP3 ADD SWAP1 POP DUP1 DUP3 GT ISZERO PUSH2 0x16A1 JUMPI PUSH2 0x16A0 PUSH2 0x155F JUMP JUMPDEST JUMPDEST SWAP3 SWAP2 POP POP JUMP JUMPDEST PUSH32 0x7374746165206973206E6F742061637269766500000000000000000000000000 PUSH0 DUP3 ADD MSTORE POP JUMP JUMPDEST PUSH0 PUSH2 0x16DB PUSH1 0x13 DUP4 PUSH2 0xDC3 JUMP JUMPDEST SWAP2 POP PUSH2 0x16E6 DUP3 PUSH2 0x16A7 JUMP JUMPDEST PUSH1 0x20 DUP3 ADD SWAP1 POP SWAP2 SWAP1 POP JUMP JUMPDEST PUSH0 PUSH1 0x20 DUP3 ADD SWAP1 POP DUP2 DUP2 SUB PUSH0 DUP4 ADD MSTORE PUSH2 0x1708 DUP2 PUSH2 0x16CF JUMP JUMPDEST SWAP1 POP SWAP2 SWAP1 POP JUMP JUMPDEST PUSH0 PUSH1 0x60 DUP3 ADD SWAP1 POP PUSH2 0x1722 PUSH0 DUP4 ADD DUP7 PUSH2 0x108F JUMP JUMPDEST PUSH2 0x172F PUSH1 0x20 DUP4 ADD DUP6 PUSH2 0x10B7 JUMP JUMPDEST PUSH2 0x173C PUSH1 0x40 DUP4 ADD DUP5 PUSH2 0x108F JUMP JUMPDEST SWAP5 SWAP4 POP POP POP POP JUMP JUMPDEST PUSH0 DUP1 REVERT JUMPDEST PUSH0 DUP1 REVERT JUMPDEST PUSH0 PUSH2 0x175E PUSH2 0x1759 DUP5 PUSH2 0x11BC JUMP JUMPDEST PUSH2 0x11A2 JUMP JUMPDEST SWAP1 POP DUP3 DUP2 MSTORE PUSH1 0x20 DUP2 ADD DUP5 DUP5 DUP5 ADD GT ISZERO PUSH2 0x177A JUMPI PUSH2 0x1779 PUSH2 0x1140 JUMP JUMPDEST JUMPDEST PUSH2 0x1785 DUP5 DUP3 DUP6 PUSH2 0xEC4 JUMP JUMPDEST POP SWAP4 SWAP3 POP POP POP JUMP JUMPDEST PUSH0 DUP3 PUSH1 0x1F DUP4 ADD SLT PUSH2 0x17A1 JUMPI PUSH2 0x17A0 PUSH2 0x10DF JUMP JUMPDEST JUMPDEST DUP2 MLOAD PUSH2 0x17B1 DUP5 DUP3 PUSH1 0x20 DUP7 ADD PUSH2 0x174C JUMP JUMPDEST SWAP2 POP POP SWAP3 SWAP2 POP POP JUMP JUMPDEST PUSH2 0x17C3 DUP2 PUSH2 0xF53 JUMP JUMPDEST DUP2 EQ PUSH2 0x17CD JUMPI PUSH0 DUP1 REVERT JUMPDEST POP JUMP JUMPDEST PUSH0 DUP2 MLOAD SWAP1 POP PUSH2 0x17DE DUP2 PUSH2 0x17BA JUMP JUMPDEST SWAP3 SWAP2 POP POP JUMP JUMPDEST PUSH0 DUP2 MLOAD SWAP1 POP PUSH2 0x17F2 DUP2 PUSH2 0xE55 JUMP JUMPDEST SWAP3 SWAP2 POP POP JUMP JUMPDEST PUSH1 0x2 DUP2 LT PUSH2 0x1804 JUMPI PUSH0 DUP1 REVERT JUMPDEST POP JUMP JUMPDEST PUSH0 DUP2 MLOAD SWAP1 POP PUSH2 0x1815 DUP2 PUSH2 0x17F8 JUMP JUMPDEST SWAP3 SWAP2 POP POP JUMP JUMPDEST PUSH0 PUSH1 0xA0 DUP3 DUP5 SUB SLT ISZERO PUSH2 0x1830 JUMPI PUSH2 0x182F PUSH2 0x1744 JUMP JUMPDEST JUMPDEST PUSH2 0x183A PUSH1 0xA0 PUSH2 0x11A2 JUMP JUMPDEST SWAP1 POP PUSH0 DUP3 ADD MLOAD PUSH8 0xFFFFFFFFFFFFFFFF DUP2 GT ISZERO PUSH2 0x1859 JUMPI PUSH2 0x1858 PUSH2 0x1748 JUMP JUMPDEST JUMPDEST PUSH2 0x1865 DUP5 DUP3 DUP6 ADD PUSH2 0x178D JUMP JUMPDEST PUSH0 DUP4 ADD MSTORE POP PUSH1 0x20 DUP3 ADD MLOAD PUSH8 0xFFFFFFFFFFFFFFFF DUP2 GT ISZERO PUSH2 0x1888 JUMPI PUSH2 0x1887 PUSH2 0x1748 JUMP JUMPDEST JUMPDEST PUSH2 0x1894 DUP5 DUP3 DUP6 ADD PUSH2 0x178D JUMP JUMPDEST PUSH1 0x20 DUP4 ADD MSTORE POP PUSH1 0x40 PUSH2 0x18A8 DUP5 DUP3 DUP6 ADD PUSH2 0x17D0 JUMP JUMPDEST PUSH1 0x40 DUP4 ADD MSTORE POP PUSH1 0x60 PUSH2 0x18BC DUP5 DUP3 DUP6 ADD PUSH2 0x17E4 JUMP JUMPDEST PUSH1 0x60 DUP4 ADD MSTORE POP PUSH1 0x80 PUSH2 0x18D0 DUP5 DUP3 DUP6 ADD PUSH2 0x1807 JUMP JUMPDEST PUSH1 0x80 DUP4 ADD MSTORE POP SWAP3 SWAP2 POP POP JUMP JUMPDEST PUSH0 PUSH1 0x20 DUP3 DUP5 SUB SLT ISZERO PUSH2 0x18F1 JUMPI PUSH2 0x18F0 PUSH2 0xE44 JUMP JUMPDEST JUMPDEST PUSH0 DUP3 ADD MLOAD PUSH8 0xFFFFFFFFFFFFFFFF DUP2 GT ISZERO PUSH2 0x190E JUMPI PUSH2 0x190D PUSH2 0xE48 JUMP JUMPDEST JUMPDEST PUSH2 0x191A DUP5 DUP3 DUP6 ADD PUSH2 0x181B JUMP JUMPDEST SWAP2 POP POP SWAP3 SWAP2 POP POP JUMP JUMPDEST PUSH32 0x75736572206E6F7420666F756E64000000000000000000000000000000000000 PUSH0 DUP3 ADD MSTORE POP JUMP JUMPDEST PUSH0 PUSH2 0x1957 PUSH1 0xE DUP4 PUSH2 0xDC3 JUMP JUMPDEST SWAP2 POP PUSH2 0x1962 DUP3 PUSH2 0x1923 JUMP JUMPDEST PUSH1 0x20 DUP3 ADD SWAP1 POP SWAP2 SWAP1 POP JUMP JUMPDEST PUSH0 PUSH1 0x20 DUP3 ADD SWAP1 POP DUP2 DUP2 SUB PUSH0 DUP4 ADD MSTORE PUSH2 0x1984 DUP2 PUSH2 0x194B JUMP JUMPDEST SWAP1 POP SWAP2 SWAP1 POP JUMP JUMPDEST PUSH0 DUP2 SWAP1 POP DUP2 PUSH0 MSTORE PUSH1 0x20 PUSH0 KECCAK256 SWAP1 POP SWAP2 SWAP1 POP JUMP JUMPDEST PUSH0 PUSH1 0x20 PUSH1 0x1F DUP4 ADD DIV SWAP1 POP SWAP2 SWAP1 POP JUMP JUMPDEST PUSH0 DUP3 DUP3 SHL SWAP1 POP SWAP3 SWAP2 POP POP JUMP JUMPDEST PUSH0 PUSH1 0x8 DUP4 MUL PUSH2 0x19E7 PUSH32 0xFFFFFFFFFFFFFFFFFFFFFFFFFFFFFFFFFFFFFFFFFFFFFFFFFFFFFFFFFFFFFFFF DUP3 PUSH2 0x19AC JUMP JUMPDEST PUSH2 0x19F1 DUP7 DUP4 PUSH2 0x19AC JUMP JUMPDEST SWAP6 POP DUP1 NOT DUP5 AND SWAP4 POP DUP1 DUP7 AND DUP5 OR SWAP3 POP POP POP SWAP4 SWAP3 POP POP POP JUMP JUMPDEST PUSH0 DUP2 SWAP1 POP SWAP2 SWAP1 POP JUMP JUMPDEST PUSH0 PUSH2 0x1A2C PUSH2 0x1A27 PUSH2 0x1A22 DUP5 PUSH2 0xE4C JUMP JUMPDEST PUSH2 0x1A09 JUMP JUMPDEST PUSH2 0xE4C JUMP JUMPDEST SWAP1 POP SWAP2 SWAP1 POP JUMP JUMPDEST PUSH0 DUP2 SWAP1 POP SWAP2 SWAP1 POP JUMP JUMPDEST PUSH2 0x1A45 DUP4 PUSH2 0x1A12 JUMP JUMPDEST PUSH2 0x1A59 PUSH2 0x1A51 DUP3 PUSH2 0x1A33 JUMP JUMPDEST DUP5 DUP5 SLOAD PUSH2 0x19B8 JUMP JUMPDEST DUP3 SSTORE POP POP POP POP JUMP JUMPDEST PUSH0 SWAP1 JUMP JUMPDEST PUSH2 0x1A6D PUSH2 0x1A61 JUMP JUMPDEST PUSH2 0x1A78 DUP2 DUP5 DUP5 PUSH2 0x1A3C JUMP JUMPDEST POP POP POP JUMP JUMPDEST JUMPDEST DUP2 DUP2 LT ISZERO PUSH2 0x1A9B JUMPI PUSH2 0x1A90 PUSH0 DUP3 PUSH2 0x1A65 JUMP JUMPDEST PUSH1 0x1 DUP2 ADD SWAP1 POP PUSH2 0x1A7E JUMP JUMPDEST POP POP JUMP JUMPDEST PUSH1 0x1F DUP3 GT ISZERO PUSH2 0x1AE0 JUMPI PUSH2 0x1AB1 DUP2 PUSH2 0x198B JUMP JUMPDEST PUSH2 0x1ABA DUP5 PUSH2 0x199D JUMP JUMPDEST DUP2 ADD PUSH1 0x20 DUP6 LT ISZERO PUSH2 0x1AC9 JUMPI DUP2 SWAP1 POP JUMPDEST PUSH2 0x1ADD PUSH2 0x1AD5 DUP6 PUSH2 0x199D JUMP JUMPDEST DUP4 ADD DUP3 PUSH2 0x1A7D JUMP JUMPDEST POP POP JUMPDEST POP POP POP JUMP JUMPDEST PUSH0 DUP3 DUP3 SHR SWAP1 POP SWAP3 SWAP2 POP POP JUMP JUMPDEST PUSH0 PUSH2 0x1B00 PUSH0 NOT DUP5 PUSH1 0x8 MUL PUSH2 0x1AE5 JUMP JUMPDEST NOT DUP1 DUP4 AND SWAP2 POP POP SWAP3 SWAP2 POP POP JUMP JUMPDEST PUSH0 PUSH2 0x1B18 DUP4 DUP4 PUSH2 0x1AF1 JUMP JUMPDEST SWAP2 POP DUP3 PUSH1 0x2 MUL DUP3 OR SWAP1 POP SWAP3 SWAP2 POP POP JUMP JUMPDEST PUSH2 0x1B31 DUP3 PUSH2 0xEAA JUMP JUMPDEST PUSH8 0xFFFFFFFFFFFFFFFF DUP2 GT ISZERO PUSH2 0x1B4A JUMPI PUSH2 0x1B49 PUSH2 0x1144 JUMP JUMPDEST JUMPDEST PUSH2 0x1B54 DUP3 SLOAD PUSH2 0x130E JUMP JUMPDEST PUSH2 0x1B5F DUP3 DUP3 DUP6 PUSH2 0x1A9F JUMP JUMPDEST PUSH0 PUSH1 0x20 SWAP1 POP PUSH1 0x1F DUP4 GT PUSH1 0x1 DUP2 EQ PUSH2 0x1B90 JUMPI PUSH0 DUP5 ISZERO PUSH2 0x1B7E JUMPI DUP3 DUP8 ADD MLOAD SWAP1 POP JUMPDEST PUSH2 0x1B88 DUP6 DUP3 PUSH2 0x1B0D JUMP JUMPDEST DUP7 SSTORE POP PUSH2 0x1BEF JUMP JUMPDEST PUSH1 0x1F NOT DUP5 AND PUSH2 0x1B9E DUP7 PUSH2 0x198B JUMP JUMPDEST PUSH0 JUMPDEST DUP3 DUP2 LT ISZERO PUSH2 0x1BC5 JUMPI DUP5 DUP10 ADD MLOAD DUP3 SSTORE PUSH1 0x1 DUP3 ADD SWAP2 POP PUSH1 0x20 DUP6 ADD SWAP5 POP PUSH1 0x20 DUP2 ADD SWAP1 POP PUSH2 0x1BA0 JUMP JUMPDEST DUP7 DUP4 LT ISZERO PUSH2 0x1BE2 JUMPI DUP5 DUP10 ADD MLOAD PUSH2 0x1BDE PUSH1 0x1F DUP10 AND DUP3 PUSH2 0x1AF1 JUMP JUMPDEST DUP4 SSTORE POP JUMPDEST PUSH1 0x1 PUSH1 0x2 DUP9 MUL ADD DUP9 SSTORE POP POP POP JUMPDEST POP POP POP POP POP POP JUMP JUMPDEST PUSH0 PUSH2 0x1C01 DUP3 PUSH2 0xE4C JUMP JUMPDEST SWAP2 POP PUSH32 0xFFFFFFFFFFFFFFFFFFFFFFFFFFFFFFFFFFFFFFFFFFFFFFFFFFFFFFFFFFFFFFFF DUP3 SUB PUSH2 0x1C33 JUMPI PUSH2 0x1C32 PUSH2 0x155F JUMP JUMPDEST JUMPDEST PUSH1 0x1 DUP3 ADD SWAP1 POP SWAP2 SWAP1 POP JUMP INVALID LOG2 PUSH5 0x6970667358 0x22 SLT KECCAK256 POP PREVRANDAO 0xF6 0xD0 SWAP16 CODESIZE 0x2A PUSH24 0x1FA847439B2AE8EE69E361DEB3E9D68F10959DC122E9DE78 PUSH5 0x736F6C6343 STOP ADDMOD OR STOP CALLER "
				},
				"gasEstimates": {
					"creation": {
						"codeDepositCost": "1456800",
						"executionCost": "infinite",
						"totalCost": "infinite"
					},
					"external": {
						"claim(uint256)": "infinite",
						"completebyadmin(uint256)": "infinite",
						"contract_owner()": "2594",
						"contribution(uint256)": "infinite",
						"creation(string,string)": "infinite",
						"endtime()": "2470",
						"getdetails(uint256)": "infinite",
						"goals()": "2447",
						"id()": "2491",
						"refund(uint256)": "infinite",
						"show_remainingamount(uint256)": "infinite"
					},
					"internal": {
						"add_user(string calldata,string memory)": "infinite"
					}
				},
				"methodIdentifiers": {
					"claim(uint256)": "379607f5",
					"completebyadmin(uint256)": "f1ca8bff",
					"contract_owner()": "384f58eb",
					"contribution(uint256)": "e8709c40",
					"creation(string,string)": "860e4565",
					"endtime()": "2ca126f8",
					"getdetails(uint256)": "10445b2b",
					"goals()": "478a4be5",
					"id()": "af640d0f",
					"refund(uint256)": "278ecde1",
					"show_remainingamount(uint256)": "3e608afa"
				}
			},
			"storageLayout": {
				"storage": [
					{
						"astId": 44,
						"contract": "DAPP_Task.sol:DAPP",
						"label": "contract_owner",
						"offset": 0,
						"slot": "0",
						"type": "t_address"
					},
					{
						"astId": 50,
						"contract": "DAPP_Task.sol:DAPP",
						"label": "endtime",
						"offset": 0,
						"slot": "1",
						"type": "t_uint256"
					},
					{
						"astId": 53,
						"contract": "DAPP_Task.sol:DAPP",
						"label": "goals",
						"offset": 0,
						"slot": "2",
						"type": "t_uint256"
					},
					{
						"astId": 117,
						"contract": "DAPP_Task.sol:DAPP",
						"label": "fund",
						"offset": 0,
						"slot": "3",
						"type": "t_mapping(t_uint256,t_struct(funding)112_storage)"
					},
					{
						"astId": 119,
						"contract": "DAPP_Task.sol:DAPP",
						"label": "id",
						"offset": 0,
						"slot": "4",
						"type": "t_uint256"
					}
				],
				"types": {
					"t_address": {
						"encoding": "inplace",
						"label": "address",
						"numberOfBytes": "20"
					},
					"t_enum(checkstate)4": {
						"encoding": "inplace",
						"label": "enum DAPP.checkstate",
						"numberOfBytes": "1"
					},
					"t_mapping(t_uint256,t_struct(funding)112_storage)": {
						"encoding": "mapping",
						"key": "t_uint256",
						"label": "mapping(uint256 => struct DAPP.funding)",
						"numberOfBytes": "32",
						"value": "t_struct(funding)112_storage"
					},
					"t_string_storage": {
						"encoding": "bytes",
						"label": "string",
						"numberOfBytes": "32"
					},
					"t_struct(funding)112_storage": {
						"encoding": "inplace",
						"label": "struct DAPP.funding",
						"members": [
							{
								"astId": 102,
								"contract": "DAPP_Task.sol:DAPP",
								"label": "name",
								"offset": 0,
								"slot": "0",
								"type": "t_string_storage"
							},
							{
								"astId": 104,
								"contract": "DAPP_Task.sol:DAPP",
								"label": "discription",
								"offset": 0,
								"slot": "1",
								"type": "t_string_storage"
							},
							{
								"astId": 106,
								"contract": "DAPP_Task.sol:DAPP",
								"label": "campowner",
								"offset": 0,
								"slot": "2",
								"type": "t_address"
							},
							{
								"astId": 108,
								"contract": "DAPP_Task.sol:DAPP",
								"label": "raiseamount",
								"offset": 0,
								"slot": "3",
								"type": "t_uint256"
							},
							{
								"astId": 111,
								"contract": "DAPP_Task.sol:DAPP",
								"label": "state",
								"offset": 0,
								"slot": "4",
								"type": "t_enum(checkstate)4"
							}
						],
						"numberOfBytes": "160"
					},
					"t_uint256": {
						"encoding": "inplace",
						"label": "uint256",
						"numberOfBytes": "32"
					}
				}
			},
			"userdoc": {
				"kind": "user",
				"methods": {},
				"version": 1
			}
		}
	}
}