{
	"Final_task.sol": {
		"final_task": {
			"abi": [
				{
					"inputs": [],
					"stateMutability": "nonpayable",
					"type": "constructor"
				},
				{
					"anonymous": false,
					"inputs": [
						{
							"indexed": false,
							"internalType": "string",
							"name": "",
							"type": "string"
						}
					],
					"name": "abc",
					"type": "event"
				},
				{
					"anonymous": false,
					"inputs": [],
					"name": "completion",
					"type": "event"
				},
				{
					"anonymous": false,
					"inputs": [],
					"name": "contributions",
					"type": "event"
				},
				{
					"anonymous": false,
					"inputs": [],
					"name": "creation",
					"type": "event"
				},
				{
					"anonymous": false,
					"inputs": [],
					"name": "refund_claims",
					"type": "event"
				},
				{
					"inputs": [],
					"name": "_goal",
					"outputs": [
						{
							"internalType": "uint256",
							"name": "",
							"type": "uint256"
						}
					],
					"stateMutability": "view",
					"type": "function"
				},
				{
					"inputs": [
						{
							"internalType": "string",
							"name": "_name",
							"type": "string"
						},
						{
							"internalType": "string",
							"name": "_discription",
							"type": "string"
						},
						{
							"internalType": "uint256",
							"name": "_amount",
							"type": "uint256"
						},
						{
							"internalType": "address",
							"name": "_campowner",
							"type": "address"
						},
						{
							"internalType": "address payable",
							"name": "_sender_amount",
							"type": "address"
						},
						{
							"internalType": "enum final_task.check_camp",
							"name": "_state",
							"type": "uint8"
						}
					],
					"name": "addnewuser",
					"outputs": [],
					"stateMutability": "nonpayable",
					"type": "function"
				},
				{
					"inputs": [],
					"name": "allowedtime",
					"outputs": [
						{
							"internalType": "uint256",
							"name": "",
							"type": "uint256"
						}
					],
					"stateMutability": "view",
					"type": "function"
				},
				{
					"inputs": [],
					"name": "check_totalbalance",
					"outputs": [],
					"stateMutability": "payable",
					"type": "function"
				},
				{
					"inputs": [
						{
							"internalType": "address payable",
							"name": "from",
							"type": "address"
						},
						{
							"internalType": "uint256",
							"name": "amount",
							"type": "uint256"
						}
					],
					"name": "contributor",
					"outputs": [],
					"stateMutability": "payable",
					"type": "function"
				},
				{
					"inputs": [
						{
							"internalType": "uint256",
							"name": "",
							"type": "uint256"
						}
					],
					"name": "funds",
					"outputs": [
						{
							"internalType": "string",
							"name": "name",
							"type": "string"
						},
						{
							"internalType": "string",
							"name": "discription",
							"type": "string"
						},
						{
							"internalType": "uint256",
							"name": "amount",
							"type": "uint256"
						},
						{
							"internalType": "address",
							"name": "campowner",
							"type": "address"
						},
						{
							"internalType": "address payable",
							"name": "sender_amount",
							"type": "address"
						},
						{
							"internalType": "enum final_task.check_camp",
							"name": "state",
							"type": "uint8"
						}
					],
					"stateMutability": "view",
					"type": "function"
				},
				{
					"inputs": [],
					"name": "owner",
					"outputs": [
						{
							"internalType": "address",
							"name": "",
							"type": "address"
						}
					],
					"stateMutability": "view",
					"type": "function"
				},
				{
					"inputs": [
						{
							"internalType": "string",
							"name": "_name",
							"type": "string"
						},
						{
							"internalType": "string",
							"name": "_discription",
							"type": "string"
						},
						{
							"internalType": "uint256",
							"name": "_amount",
							"type": "uint256"
						},
						{
							"internalType": "address payable",
							"name": "_campowner",
							"type": "address"
						},
						{
							"internalType": "address payable",
							"name": "_sender_amount",
							"type": "address"
						}
					],
					"name": "transfer",
					"outputs": [],
					"stateMutability": "payable",
					"type": "function"
				},
				{
					"inputs": [
						{
							"internalType": "string",
							"name": "_name",
							"type": "string"
						},
						{
							"internalType": "string",
							"name": "_discription",
							"type": "string"
						},
						{
							"internalType": "uint256",
							"name": "_amount",
							"type": "uint256"
						},
						{
							"internalType": "address payable",
							"name": "_campowner",
							"type": "address"
						},
						{
							"internalType": "address payable",
							"name": "_sender_amount",
							"type": "address"
						}
					],
					"name": "transfers",
					"outputs": [],
					"stateMutability": "payable",
					"type": "function"
				},
				{
					"stateMutability": "payable",
					"type": "receive"
				}
			],
			"devdoc": {
				"kind": "dev",
				"methods": {},
				"version": 1
			},
			"evm": {
				"assembly": "    /* \"Final_task.sol\":61:2858  contract final_task{... */\n  mstore(0x40, 0x80)\n    /* \"Final_task.sol\":306:315  1 minutes */\n  0x3c\n    /* \"Final_task.sol\":281:315  uint public allowedtime= 1 minutes */\n  0x00\n  sstore\n    /* \"Final_task.sol\":365:373  20 ether */\n  0x01158e460913d00000\n    /* \"Final_task.sol\":344:373  uint256 public _goal=20 ether */\n  0x02\n  sstore\n    /* \"Final_task.sol\":380:422  constructor(){... */\n  callvalue\n  dup1\n  iszero\n  tag_1\n  jumpi\n  0x00\n  dup1\n  revert\ntag_1:\n  pop\n    /* \"Final_task.sol\":408:418  msg.sender */\n  caller\n    /* \"Final_task.sol\":400:405  owner */\n  0x01\n  0x00\n    /* \"Final_task.sol\":400:418  owner = msg.sender */\n  0x0100\n  exp\n  dup2\n  sload\n  dup2\n  0xffffffffffffffffffffffffffffffffffffffff\n  mul\n  not\n  and\n  swap1\n  dup4\n  0xffffffffffffffffffffffffffffffffffffffff\n  and\n  mul\n  or\n  swap1\n  sstore\n  pop\n    /* \"Final_task.sol\":61:2858  contract final_task{... */\n  dataSize(sub_0)\n  dup1\n  dataOffset(sub_0)\n  0x00\n  codecopy\n  0x00\n  return\nstop\n\nsub_0: assembly {\n        /* \"Final_task.sol\":61:2858  contract final_task{... */\n      mstore(0x40, 0x80)\n      jumpi(tag_1, lt(calldatasize, 0x04))\n      shr(0xe0, calldataload(0x00))\n      dup1\n      0x7b8e8895\n      gt\n      tag_12\n      jumpi\n      dup1\n      0x7b8e8895\n      eq\n      tag_7\n      jumpi\n      dup1\n      0x8da5cb5b\n      eq\n      tag_8\n      jumpi\n      dup1\n      0xdb7eb849\n      eq\n      tag_9\n      jumpi\n      dup1\n      0xea3bbb56\n      eq\n      tag_10\n      jumpi\n      dup1\n      0xfba939f8\n      eq\n      tag_11\n      jumpi\n      jump(tag_2)\n    tag_12:\n      dup1\n      0x09e63d25\n      eq\n      tag_3\n      jumpi\n      dup1\n      0x475d0b00\n      eq\n      tag_4\n      jumpi\n      dup1\n      0x540473e8\n      eq\n      tag_5\n      jumpi\n      dup1\n      0x6d7b350a\n      eq\n      tag_6\n      jumpi\n      jump(tag_2)\n    tag_1:\n      jumpi(tag_2, calldatasize)\n        /* \"Final_task.sol\":1249:1284  abc(\"amount received successfully\") */\n      0x5b84a1ed0648cc0987f6ea793a1d3932265e7d81f09e71f41707eee986b810b0\n      mload(0x40)\n      tag_15\n      swap1\n      tag_16\n      jump\t// in\n    tag_15:\n      mload(0x40)\n      dup1\n      swap2\n      sub\n      swap1\n      log1\n        /* \"Final_task.sol\":61:2858  contract final_task{... */\n      stop\n    tag_2:\n      0x00\n      dup1\n      revert\n        /* \"Final_task.sol\":1293:1467  function contributor(address payable  from,uint256 amount)public payable{... */\n    tag_3:\n      tag_17\n      0x04\n      dup1\n      calldatasize\n      sub\n      dup2\n      add\n      swap1\n      tag_18\n      swap2\n      swap1\n      tag_19\n      jump\t// in\n    tag_18:\n      tag_20\n      jump\t// in\n    tag_17:\n      stop\n        /* \"Final_task.sol\":765:1206  function addnewuser(string memory _name,... */\n    tag_4:\n      callvalue\n      dup1\n      iszero\n      tag_21\n      jumpi\n      0x00\n      dup1\n      revert\n    tag_21:\n      pop\n      tag_22\n      0x04\n      dup1\n      calldatasize\n      sub\n      dup2\n      add\n      swap1\n      tag_23\n      swap2\n      swap1\n      tag_24\n      jump\t// in\n    tag_23:\n      tag_25\n      jump\t// in\n    tag_22:\n      stop\n        /* \"Final_task.sol\":281:315  uint public allowedtime= 1 minutes */\n    tag_5:\n      callvalue\n      dup1\n      iszero\n      tag_26\n      jumpi\n      0x00\n      dup1\n      revert\n    tag_26:\n      pop\n      tag_27\n      tag_28\n      jump\t// in\n    tag_27:\n      mload(0x40)\n      tag_29\n      swap2\n      swap1\n      tag_30\n      jump\t// in\n    tag_29:\n      mload(0x40)\n      dup1\n      swap2\n      sub\n      swap1\n      return\n        /* \"Final_task.sol\":2365:2851  function transfers(string memory _name,... */\n    tag_6:\n      tag_31\n      0x04\n      dup1\n      calldatasize\n      sub\n      dup2\n      add\n      swap1\n      tag_32\n      swap2\n      swap1\n      tag_33\n      jump\t// in\n    tag_32:\n      tag_34\n      jump\t// in\n    tag_31:\n      stop\n        /* \"Final_task.sol\":743:762  fund[] public funds */\n    tag_7:\n      callvalue\n      dup1\n      iszero\n      tag_35\n      jumpi\n      0x00\n      dup1\n      revert\n    tag_35:\n      pop\n      tag_36\n      0x04\n      dup1\n      calldatasize\n      sub\n      dup2\n      add\n      swap1\n      tag_37\n      swap2\n      swap1\n      tag_38\n      jump\t// in\n    tag_37:\n      tag_39\n      jump\t// in\n    tag_36:\n      mload(0x40)\n      tag_40\n      swap7\n      swap6\n      swap5\n      swap4\n      swap3\n      swap2\n      swap1\n      tag_41\n      jump\t// in\n    tag_40:\n      mload(0x40)\n      dup1\n      swap2\n      sub\n      swap1\n      return\n        /* \"Final_task.sol\":320:340  address public owner */\n    tag_8:\n      callvalue\n      dup1\n      iszero\n      tag_42\n      jumpi\n      0x00\n      dup1\n      revert\n    tag_42:\n      pop\n      tag_43\n      tag_44\n      jump\t// in\n    tag_43:\n      mload(0x40)\n      tag_45\n      swap2\n      swap1\n      tag_46\n      jump\t// in\n    tag_45:\n      mload(0x40)\n      dup1\n      swap2\n      sub\n      swap1\n      return\n        /* \"Final_task.sol\":1545:2361  function transfer(string memory _name,... */\n    tag_9:\n      tag_47\n      0x04\n      dup1\n      calldatasize\n      sub\n      dup2\n      add\n      swap1\n      tag_48\n      swap2\n      swap1\n      tag_33\n      jump\t// in\n    tag_48:\n      tag_49\n      jump\t// in\n    tag_47:\n      stop\n        /* \"Final_task.sol\":1469:1541  function check_totalbalance()public payable {... */\n    tag_10:\n      tag_50\n      tag_51\n      jump\t// in\n    tag_50:\n      stop\n        /* \"Final_task.sol\":344:373  uint256 public _goal=20 ether */\n    tag_11:\n      callvalue\n      dup1\n      iszero\n      tag_52\n      jumpi\n      0x00\n      dup1\n      revert\n    tag_52:\n      pop\n      tag_53\n      tag_54\n      jump\t// in\n    tag_53:\n      mload(0x40)\n      tag_55\n      swap2\n      swap1\n      tag_30\n      jump\t// in\n    tag_55:\n      mload(0x40)\n      dup1\n      swap2\n      sub\n      swap1\n      return\n        /* \"Final_task.sol\":1293:1467  function contributor(address payable  from,uint256 amount)public payable{... */\n    tag_20:\n        /* \"Final_task.sol\":1398:1410  bool success */\n      0x00\n        /* \"Final_task.sol\":1415:1419  from */\n      dup3\n        /* \"Final_task.sol\":1415:1424  from.call */\n      0xffffffffffffffffffffffffffffffffffffffff\n      and\n        /* \"Final_task.sol\":1431:1437  amount */\n      dup3\n        /* \"Final_task.sol\":1415:1442  from.call{value:amount}(\"\") */\n      mload(0x40)\n      tag_57\n      swap1\n      tag_58\n      jump\t// in\n    tag_57:\n      0x00\n      mload(0x40)\n      dup1\n      dup4\n      sub\n      dup2\n      dup6\n      dup8\n      gas\n      call\n      swap3\n      pop\n      pop\n      pop\n      returndatasize\n      dup1\n      0x00\n      dup2\n      eq\n      tag_61\n      jumpi\n      mload(0x40)\n      swap2\n      pop\n      and(add(returndatasize, 0x3f), not(0x1f))\n      dup3\n      add\n      0x40\n      mstore\n      returndatasize\n      dup3\n      mstore\n      returndatasize\n      0x00\n      0x20\n      dup5\n      add\n      returndatacopy\n      jump(tag_60)\n    tag_61:\n      0x60\n      swap2\n      pop\n    tag_60:\n      pop\n        /* \"Final_task.sol\":1397:1442  (bool success,) = from.call{value:amount}(\"\") */\n      pop\n      swap1\n      pop\n        /* \"Final_task.sol\":1453:1460  success */\n      dup1\n        /* \"Final_task.sol\":1445:1461  require(success) */\n      tag_62\n      jumpi\n      0x00\n      dup1\n      revert\n    tag_62:\n        /* \"Final_task.sol\":1365:1467  {... */\n      pop\n        /* \"Final_task.sol\":1293:1467  function contributor(address payable  from,uint256 amount)public payable{... */\n      pop\n      pop\n      jump\t// out\n        /* \"Final_task.sol\":765:1206  function addnewuser(string memory _name,... */\n    tag_25:\n        /* \"Final_task.sol\":981:986  funds */\n      0x03\n        /* \"Final_task.sol\":1006:1180  fund(... */\n      mload(0x40)\n      dup1\n      0xc0\n      add\n      0x40\n      mstore\n      dup1\n        /* \"Final_task.sol\":1027:1032  _name */\n      dup9\n        /* \"Final_task.sol\":1006:1180  fund(... */\n      dup2\n      mstore\n      0x20\n      add\n        /* \"Final_task.sol\":1046:1058  _discription */\n      dup8\n        /* \"Final_task.sol\":1006:1180  fund(... */\n      dup2\n      mstore\n      0x20\n      add\n        /* \"Final_task.sol\":1075:1082  _amount */\n      dup7\n        /* \"Final_task.sol\":1006:1180  fund(... */\n      dup2\n      mstore\n      0x20\n      add\n        /* \"Final_task.sol\":1099:1109  _campowner */\n      dup6\n        /* \"Final_task.sol\":1006:1180  fund(... */\n      0xffffffffffffffffffffffffffffffffffffffff\n      and\n      dup2\n      mstore\n      0x20\n      add\n        /* \"Final_task.sol\":1126:1140  _sender_amount */\n      dup5\n        /* \"Final_task.sol\":1006:1180  fund(... */\n      0xffffffffffffffffffffffffffffffffffffffff\n      and\n      dup2\n      mstore\n      0x20\n      add\n        /* \"Final_task.sol\":1157:1163  _state */\n      dup4\n        /* \"Final_task.sol\":1006:1180  fund(... */\n      0x01\n      dup2\n      gt\n      iszero\n      tag_64\n      jumpi\n      tag_65\n      tag_66\n      jump\t// in\n    tag_65:\n    tag_64:\n      dup2\n      mstore\n      pop\n        /* \"Final_task.sol\":981:1193  funds.push(... */\n      swap1\n      dup1\n      0x01\n      dup2\n      sload\n      add\n      dup1\n      dup3\n      sstore\n      dup1\n      swap2\n      pop\n      pop\n      0x01\n      swap1\n      sub\n      swap1\n      0x00\n      mstore\n      keccak256(0x00, 0x20)\n      swap1\n      0x05\n      mul\n      add\n      0x00\n      swap1\n      swap2\n      swap1\n      swap2\n      swap1\n      swap2\n      pop\n      0x00\n      dup3\n      add\n      mload\n      dup2\n      0x00\n      add\n      swap1\n      dup2\n      tag_68\n      swap2\n      swap1\n      tag_69\n      jump\t// in\n    tag_68:\n      pop\n      0x20\n      dup3\n      add\n      mload\n      dup2\n      0x01\n      add\n      swap1\n      dup2\n      tag_70\n      swap2\n      swap1\n      tag_69\n      jump\t// in\n    tag_70:\n      pop\n      0x40\n      dup3\n      add\n      mload\n      dup2\n      0x02\n      add\n      sstore\n      0x60\n      dup3\n      add\n      mload\n      dup2\n      0x03\n      add\n      exp(0x0100, 0x00)\n      dup2\n      sload\n      dup2\n      0xffffffffffffffffffffffffffffffffffffffff\n      mul\n      not\n      and\n      swap1\n      dup4\n      0xffffffffffffffffffffffffffffffffffffffff\n      and\n      mul\n      or\n      swap1\n      sstore\n      pop\n      0x80\n      dup3\n      add\n      mload\n      dup2\n      0x04\n      add\n      exp(0x0100, 0x00)\n      dup2\n      sload\n      dup2\n      0xffffffffffffffffffffffffffffffffffffffff\n      mul\n      not\n      and\n      swap1\n      dup4\n      0xffffffffffffffffffffffffffffffffffffffff\n      and\n      mul\n      or\n      swap1\n      sstore\n      pop\n      0xa0\n      dup3\n      add\n      mload\n      dup2\n      0x04\n      add\n      exp(0x0100, 0x14)\n      dup2\n      sload\n      dup2\n      0xff\n      mul\n      not\n      and\n      swap1\n      dup4\n      0x01\n      dup2\n      gt\n      iszero\n      tag_71\n      jumpi\n      tag_72\n      tag_66\n      jump\t// in\n    tag_72:\n    tag_71:\n      mul\n      or\n      swap1\n      sstore\n      pop\n      pop\n      pop\n        /* \"Final_task.sol\":765:1206  function addnewuser(string memory _name,... */\n      pop\n      pop\n      pop\n      pop\n      pop\n      pop\n      jump\t// out\n        /* \"Final_task.sol\":281:315  uint public allowedtime= 1 minutes */\n    tag_28:\n      sload(0x00)\n      dup2\n      jump\t// out\n        /* \"Final_task.sol\":2365:2851  function transfers(string memory _name,... */\n    tag_34:\n        /* \"Final_task.sol\":2658:2744  addnewuser(_name,_discription,_amount,_campowner,_sender_amount,check_camp.not_active) */\n      tag_74\n        /* \"Final_task.sol\":2669:2674  _name */\n      dup6\n        /* \"Final_task.sol\":2675:2687  _discription */\n      dup6\n        /* \"Final_task.sol\":2688:2695  _amount */\n      dup6\n        /* \"Final_task.sol\":2696:2706  _campowner */\n      dup6\n        /* \"Final_task.sol\":2707:2721  _sender_amount */\n      dup6\n        /* \"Final_task.sol\":2722:2743  check_camp.not_active */\n      0x01\n        /* \"Final_task.sol\":2658:2668  addnewuser */\n      tag_25\n        /* \"Final_task.sol\":2658:2744  addnewuser(_name,_discription,_amount,_campowner,_sender_amount,check_camp.not_active) */\n      jump\t// in\n    tag_74:\n        /* \"Final_task.sol\":2783:2842  revert(\"u can't do transaction cuz funding are not active\") */\n      mload(0x40)\n      0x08c379a000000000000000000000000000000000000000000000000000000000\n      dup2\n      mstore\n      0x04\n      add\n      tag_75\n      swap1\n      tag_76\n      jump\t// in\n    tag_75:\n      mload(0x40)\n      dup1\n      swap2\n      sub\n      swap1\n      revert\n        /* \"Final_task.sol\":743:762  fund[] public funds */\n    tag_39:\n      0x03\n      dup2\n      dup2\n      sload\n      dup2\n      lt\n      tag_77\n      jumpi\n      0x00\n      dup1\n      revert\n    tag_77:\n      swap1\n      0x00\n      mstore\n      keccak256(0x00, 0x20)\n      swap1\n      0x05\n      mul\n      add\n      0x00\n      swap2\n      pop\n      swap1\n      pop\n      dup1\n      0x00\n      add\n      dup1\n      sload\n      tag_79\n      swap1\n      tag_80\n      jump\t// in\n    tag_79:\n      dup1\n      0x1f\n      add\n      0x20\n      dup1\n      swap2\n      div\n      mul\n      0x20\n      add\n      mload(0x40)\n      swap1\n      dup2\n      add\n      0x40\n      mstore\n      dup1\n      swap3\n      swap2\n      swap1\n      dup2\n      dup2\n      mstore\n      0x20\n      add\n      dup3\n      dup1\n      sload\n      tag_81\n      swap1\n      tag_80\n      jump\t// in\n    tag_81:\n      dup1\n      iszero\n      tag_82\n      jumpi\n      dup1\n      0x1f\n      lt\n      tag_83\n      jumpi\n      0x0100\n      dup1\n      dup4\n      sload\n      div\n      mul\n      dup4\n      mstore\n      swap2\n      0x20\n      add\n      swap2\n      jump(tag_82)\n    tag_83:\n      dup3\n      add\n      swap2\n      swap1\n      0x00\n      mstore\n      keccak256(0x00, 0x20)\n      swap1\n    tag_84:\n      dup2\n      sload\n      dup2\n      mstore\n      swap1\n      0x01\n      add\n      swap1\n      0x20\n      add\n      dup1\n      dup4\n      gt\n      tag_84\n      jumpi\n      dup3\n      swap1\n      sub\n      0x1f\n      and\n      dup3\n      add\n      swap2\n    tag_82:\n      pop\n      pop\n      pop\n      pop\n      pop\n      swap1\n      dup1\n      0x01\n      add\n      dup1\n      sload\n      tag_85\n      swap1\n      tag_80\n      jump\t// in\n    tag_85:\n      dup1\n      0x1f\n      add\n      0x20\n      dup1\n      swap2\n      div\n      mul\n      0x20\n      add\n      mload(0x40)\n      swap1\n      dup2\n      add\n      0x40\n      mstore\n      dup1\n      swap3\n      swap2\n      swap1\n      dup2\n      dup2\n      mstore\n      0x20\n      add\n      dup3\n      dup1\n      sload\n      tag_86\n      swap1\n      tag_80\n      jump\t// in\n    tag_86:\n      dup1\n      iszero\n      tag_87\n      jumpi\n      dup1\n      0x1f\n      lt\n      tag_88\n      jumpi\n      0x0100\n      dup1\n      dup4\n      sload\n      div\n      mul\n      dup4\n      mstore\n      swap2\n      0x20\n      add\n      swap2\n      jump(tag_87)\n    tag_88:\n      dup3\n      add\n      swap2\n      swap1\n      0x00\n      mstore\n      keccak256(0x00, 0x20)\n      swap1\n    tag_89:\n      dup2\n      sload\n      dup2\n      mstore\n      swap1\n      0x01\n      add\n      swap1\n      0x20\n      add\n      dup1\n      dup4\n      gt\n      tag_89\n      jumpi\n      dup3\n      swap1\n      sub\n      0x1f\n      and\n      dup3\n      add\n      swap2\n    tag_87:\n      pop\n      pop\n      pop\n      pop\n      pop\n      swap1\n      dup1\n      0x02\n      add\n      sload\n      swap1\n      dup1\n      0x03\n      add\n      0x00\n      swap1\n      sload\n      swap1\n      0x0100\n      exp\n      swap1\n      div\n      0xffffffffffffffffffffffffffffffffffffffff\n      and\n      swap1\n      dup1\n      0x04\n      add\n      0x00\n      swap1\n      sload\n      swap1\n      0x0100\n      exp\n      swap1\n      div\n      0xffffffffffffffffffffffffffffffffffffffff\n      and\n      swap1\n      dup1\n      0x04\n      add\n      0x14\n      swap1\n      sload\n      swap1\n      0x0100\n      exp\n      swap1\n      div\n      0xff\n      and\n      swap1\n      pop\n      dup7\n      jump\t// out\n        /* \"Final_task.sol\":320:340  address public owner */\n    tag_44:\n      0x01\n      0x00\n      swap1\n      sload\n      swap1\n      0x0100\n      exp\n      swap1\n      div\n      0xffffffffffffffffffffffffffffffffffffffff\n      and\n      dup2\n      jump\t// out\n        /* \"Final_task.sol\":1545:2361  function transfer(string memory _name,... */\n    tag_49:\n        /* \"Final_task.sol\":473:478  owner */\n      0x01\n      0x00\n      swap1\n      sload\n      swap1\n      0x0100\n      exp\n      swap1\n      div\n      0xffffffffffffffffffffffffffffffffffffffff\n      and\n        /* \"Final_task.sol\":461:478  msg.sender==owner */\n      0xffffffffffffffffffffffffffffffffffffffff\n      and\n        /* \"Final_task.sol\":461:471  msg.sender */\n      caller\n        /* \"Final_task.sol\":461:478  msg.sender==owner */\n      0xffffffffffffffffffffffffffffffffffffffff\n      and\n      eq\n        /* \"Final_task.sol\":453:480  require(msg.sender==owner ) */\n      tag_91\n      jumpi\n      0x00\n      dup1\n      revert\n    tag_91:\n        /* \"Final_task.sol\":1847:1929  addnewuser(_name,_discription,_amount,_campowner,_sender_amount,check_camp.active) */\n      tag_93\n        /* \"Final_task.sol\":1858:1863  _name */\n      dup6\n        /* \"Final_task.sol\":1864:1876  _discription */\n      dup6\n        /* \"Final_task.sol\":1877:1884  _amount */\n      dup6\n        /* \"Final_task.sol\":1885:1895  _campowner */\n      dup6\n        /* \"Final_task.sol\":1896:1910  _sender_amount */\n      dup6\n        /* \"Final_task.sol\":1911:1928  check_camp.active */\n      0x00\n        /* \"Final_task.sol\":1847:1857  addnewuser */\n      tag_25\n        /* \"Final_task.sol\":1847:1929  addnewuser(_name,_discription,_amount,_campowner,_sender_amount,check_camp.active) */\n      jump\t// in\n    tag_93:\n        /* \"Final_task.sol\":1960:1961  0 */\n      0x00\n        /* \"Final_task.sol\":1940:1962  _campowner!=address(0) */\n      0xffffffffffffffffffffffffffffffffffffffff\n      and\n        /* \"Final_task.sol\":1940:1950  _campowner */\n      dup3\n        /* \"Final_task.sol\":1940:1962  _campowner!=address(0) */\n      0xffffffffffffffffffffffffffffffffffffffff\n      and\n      sub\n        /* \"Final_task.sol\":1932:1963  require(_campowner!=address(0)) */\n      tag_94\n      jumpi\n      0x00\n      dup1\n      revert\n    tag_94:\n        /* \"Final_task.sol\":1974:1984  _campowner */\n      dup2\n        /* \"Final_task.sol\":1966:1971  owner */\n      0x01\n      0x00\n        /* \"Final_task.sol\":1966:1984  owner = _campowner */\n      0x0100\n      exp\n      dup2\n      sload\n      dup2\n      0xffffffffffffffffffffffffffffffffffffffff\n      mul\n      not\n      and\n      swap1\n      dup4\n      0xffffffffffffffffffffffffffffffffffffffff\n      and\n      mul\n      or\n      swap1\n      sstore\n      pop\n        /* \"Final_task.sol\":2003:2008  _goal */\n      sload(0x02)\n        /* \"Final_task.sol\":1992:1999  _amount */\n      dup4\n        /* \"Final_task.sol\":1992:2008  _amount == _goal */\n      sub\n        /* \"Final_task.sol\":1989:2319  if(_amount == _goal){... */\n      tag_95\n      jumpi\n        /* \"Final_task.sol\":2021:2028  uint  a */\n      0x00\n        /* \"Final_task.sol\":2036:2057  address(this).balance */\n      selfbalance\n        /* \"Final_task.sol\":2034:2057  a=address(this).balance */\n      swap1\n      pop\n        /* \"Final_task.sol\":2126:2138  bool success */\n      0x00\n        /* \"Final_task.sol\":2142:2152  _campowner */\n      dup4\n        /* \"Final_task.sol\":2142:2157  _campowner.call */\n      0xffffffffffffffffffffffffffffffffffffffff\n      and\n        /* \"Final_task.sol\":2164:2165  a */\n      dup3\n        /* \"Final_task.sol\":2142:2170  _campowner.call{value:a}(\"\") */\n      mload(0x40)\n      tag_96\n      swap1\n      tag_58\n      jump\t// in\n    tag_96:\n      0x00\n      mload(0x40)\n      dup1\n      dup4\n      sub\n      dup2\n      dup6\n      dup8\n      gas\n      call\n      swap3\n      pop\n      pop\n      pop\n      returndatasize\n      dup1\n      0x00\n      dup2\n      eq\n      tag_99\n      jumpi\n      mload(0x40)\n      swap2\n      pop\n      and(add(returndatasize, 0x3f), not(0x1f))\n      dup3\n      add\n      0x40\n      mstore\n      returndatasize\n      dup3\n      mstore\n      returndatasize\n      0x00\n      0x20\n      dup5\n      add\n      returndatacopy\n      jump(tag_98)\n    tag_99:\n      0x60\n      swap2\n      pop\n    tag_98:\n      pop\n        /* \"Final_task.sol\":2125:2170  (bool success,)= _campowner.call{value:a}(\"\") */\n      pop\n      swap1\n      pop\n        /* \"Final_task.sol\":2186:2193  success */\n      dup1\n        /* \"Final_task.sol\":2178:2194  require(success) */\n      tag_100\n      jumpi\n      0x00\n      dup1\n      revert\n    tag_100:\n        /* \"Final_task.sol\":2009:2205  {... */\n      pop\n      pop\n        /* \"Final_task.sol\":1989:2319  if(_amount == _goal){... */\n      jump(tag_101)\n    tag_95:\n        /* \"Final_task.sol\":2226:2231  _goal */\n      sload(0x02)\n        /* \"Final_task.sol\":2215:2222  _amount */\n      dup4\n        /* \"Final_task.sol\":2215:2231  _amount != _goal */\n      eq\n        /* \"Final_task.sol\":2212:2319  if(_amount != _goal){... */\n      tag_102\n      jumpi\n        /* \"Final_task.sol\":2240:2258  uint currentamount */\n      0x00\n        /* \"Final_task.sol\":2260:2281  address(this).balance */\n      selfbalance\n        /* \"Final_task.sol\":2240:2281  uint currentamount= address(this).balance */\n      swap1\n      pop\n        /* \"Final_task.sol\":2306:2315  msg.value */\n      callvalue\n        /* \"Final_task.sol\":2289:2315  currentamount += msg.value */\n      dup2\n      tag_103\n      swap2\n      swap1\n      tag_104\n      jump\t// in\n    tag_103:\n      swap1\n      pop\n        /* \"Final_task.sol\":2232:2319  {... */\n      pop\n        /* \"Final_task.sol\":2212:2319  if(_amount != _goal){... */\n    tag_102:\n        /* \"Final_task.sol\":1989:2319  if(_amount == _goal){... */\n    tag_101:\n        /* \"Final_task.sol\":1545:2361  function transfer(string memory _name,... */\n      pop\n      pop\n      pop\n      pop\n      pop\n      jump\t// out\n        /* \"Final_task.sol\":1469:1541  function check_totalbalance()public payable {... */\n    tag_51:\n      jump\t// out\n        /* \"Final_task.sol\":344:373  uint256 public _goal=20 ether */\n    tag_54:\n      sload(0x02)\n      dup2\n      jump\t// out\n        /* \"#utility.yul\":7:176   */\n    tag_106:\n        /* \"#utility.yul\":91:102   */\n      0x00\n        /* \"#utility.yul\":125:131   */\n      dup3\n        /* \"#utility.yul\":120:123   */\n      dup3\n        /* \"#utility.yul\":113:132   */\n      mstore\n        /* \"#utility.yul\":165:169   */\n      0x20\n        /* \"#utility.yul\":160:163   */\n      dup3\n        /* \"#utility.yul\":156:170   */\n      add\n        /* \"#utility.yul\":141:170   */\n      swap1\n      pop\n        /* \"#utility.yul\":7:176   */\n      swap3\n      swap2\n      pop\n      pop\n      jump\t// out\n        /* \"#utility.yul\":182:360   */\n    tag_107:\n        /* \"#utility.yul\":322:352   */\n      0x616d6f756e74207265636569766564207375636365737366756c6c7900000000\n        /* \"#utility.yul\":318:319   */\n      0x00\n        /* \"#utility.yul\":310:316   */\n      dup3\n        /* \"#utility.yul\":306:320   */\n      add\n        /* \"#utility.yul\":299:353   */\n      mstore\n        /* \"#utility.yul\":182:360   */\n      pop\n      jump\t// out\n        /* \"#utility.yul\":366:732   */\n    tag_108:\n        /* \"#utility.yul\":508:511   */\n      0x00\n        /* \"#utility.yul\":529:596   */\n      tag_170\n        /* \"#utility.yul\":593:595   */\n      0x1c\n        /* \"#utility.yul\":588:591   */\n      dup4\n        /* \"#utility.yul\":529:596   */\n      tag_106\n      jump\t// in\n    tag_170:\n        /* \"#utility.yul\":522:596   */\n      swap2\n      pop\n        /* \"#utility.yul\":605:698   */\n      tag_171\n        /* \"#utility.yul\":694:697   */\n      dup3\n        /* \"#utility.yul\":605:698   */\n      tag_107\n      jump\t// in\n    tag_171:\n        /* \"#utility.yul\":723:725   */\n      0x20\n        /* \"#utility.yul\":718:721   */\n      dup3\n        /* \"#utility.yul\":714:726   */\n      add\n        /* \"#utility.yul\":707:726   */\n      swap1\n      pop\n        /* \"#utility.yul\":366:732   */\n      swap2\n      swap1\n      pop\n      jump\t// out\n        /* \"#utility.yul\":738:1157   */\n    tag_16:\n        /* \"#utility.yul\":904:908   */\n      0x00\n        /* \"#utility.yul\":942:944   */\n      0x20\n        /* \"#utility.yul\":931:940   */\n      dup3\n        /* \"#utility.yul\":927:945   */\n      add\n        /* \"#utility.yul\":919:945   */\n      swap1\n      pop\n        /* \"#utility.yul\":991:1000   */\n      dup2\n        /* \"#utility.yul\":985:989   */\n      dup2\n        /* \"#utility.yul\":981:1001   */\n      sub\n        /* \"#utility.yul\":977:978   */\n      0x00\n        /* \"#utility.yul\":966:975   */\n      dup4\n        /* \"#utility.yul\":962:979   */\n      add\n        /* \"#utility.yul\":955:1002   */\n      mstore\n        /* \"#utility.yul\":1019:1150   */\n      tag_173\n        /* \"#utility.yul\":1145:1149   */\n      dup2\n        /* \"#utility.yul\":1019:1150   */\n      tag_108\n      jump\t// in\n    tag_173:\n        /* \"#utility.yul\":1011:1150   */\n      swap1\n      pop\n        /* \"#utility.yul\":738:1157   */\n      swap2\n      swap1\n      pop\n      jump\t// out\n        /* \"#utility.yul\":1163:1238   */\n    tag_109:\n        /* \"#utility.yul\":1196:1202   */\n      0x00\n        /* \"#utility.yul\":1229:1231   */\n      0x40\n        /* \"#utility.yul\":1223:1232   */\n      mload\n        /* \"#utility.yul\":1213:1232   */\n      swap1\n      pop\n        /* \"#utility.yul\":1163:1238   */\n      swap1\n      jump\t// out\n        /* \"#utility.yul\":1244:1361   */\n    tag_110:\n        /* \"#utility.yul\":1353:1354   */\n      0x00\n        /* \"#utility.yul\":1350:1351   */\n      dup1\n        /* \"#utility.yul\":1343:1355   */\n      revert\n        /* \"#utility.yul\":1367:1484   */\n    tag_111:\n        /* \"#utility.yul\":1476:1477   */\n      0x00\n        /* \"#utility.yul\":1473:1474   */\n      dup1\n        /* \"#utility.yul\":1466:1478   */\n      revert\n        /* \"#utility.yul\":1490:1616   */\n    tag_112:\n        /* \"#utility.yul\":1527:1534   */\n      0x00\n        /* \"#utility.yul\":1567:1609   */\n      0xffffffffffffffffffffffffffffffffffffffff\n        /* \"#utility.yul\":1560:1565   */\n      dup3\n        /* \"#utility.yul\":1556:1610   */\n      and\n        /* \"#utility.yul\":1545:1610   */\n      swap1\n      pop\n        /* \"#utility.yul\":1490:1616   */\n      swap2\n      swap1\n      pop\n      jump\t// out\n        /* \"#utility.yul\":1622:1726   */\n    tag_113:\n        /* \"#utility.yul\":1667:1674   */\n      0x00\n        /* \"#utility.yul\":1696:1720   */\n      tag_179\n        /* \"#utility.yul\":1714:1719   */\n      dup3\n        /* \"#utility.yul\":1696:1720   */\n      tag_112\n      jump\t// in\n    tag_179:\n        /* \"#utility.yul\":1685:1720   */\n      swap1\n      pop\n        /* \"#utility.yul\":1622:1726   */\n      swap2\n      swap1\n      pop\n      jump\t// out\n        /* \"#utility.yul\":1732:1870   */\n    tag_114:\n        /* \"#utility.yul\":1813:1845   */\n      tag_181\n        /* \"#utility.yul\":1839:1844   */\n      dup2\n        /* \"#utility.yul\":1813:1845   */\n      tag_113\n      jump\t// in\n    tag_181:\n        /* \"#utility.yul\":1806:1811   */\n      dup2\n        /* \"#utility.yul\":1803:1846   */\n      eq\n        /* \"#utility.yul\":1793:1864   */\n      tag_182\n      jumpi\n        /* \"#utility.yul\":1860:1861   */\n      0x00\n        /* \"#utility.yul\":1857:1858   */\n      dup1\n        /* \"#utility.yul\":1850:1862   */\n      revert\n        /* \"#utility.yul\":1793:1864   */\n    tag_182:\n        /* \"#utility.yul\":1732:1870   */\n      pop\n      jump\t// out\n        /* \"#utility.yul\":1876:2031   */\n    tag_115:\n        /* \"#utility.yul\":1930:1935   */\n      0x00\n        /* \"#utility.yul\":1968:1974   */\n      dup2\n        /* \"#utility.yul\":1955:1975   */\n      calldataload\n        /* \"#utility.yul\":1946:1975   */\n      swap1\n      pop\n        /* \"#utility.yul\":1984:2025   */\n      tag_184\n        /* \"#utility.yul\":2019:2024   */\n      dup2\n        /* \"#utility.yul\":1984:2025   */\n      tag_114\n      jump\t// in\n    tag_184:\n        /* \"#utility.yul\":1876:2031   */\n      swap3\n      swap2\n      pop\n      pop\n      jump\t// out\n        /* \"#utility.yul\":2037:2114   */\n    tag_116:\n        /* \"#utility.yul\":2074:2081   */\n      0x00\n        /* \"#utility.yul\":2103:2108   */\n      dup2\n        /* \"#utility.yul\":2092:2108   */\n      swap1\n      pop\n        /* \"#utility.yul\":2037:2114   */\n      swap2\n      swap1\n      pop\n      jump\t// out\n        /* \"#utility.yul\":2120:2242   */\n    tag_117:\n        /* \"#utility.yul\":2193:2217   */\n      tag_187\n        /* \"#utility.yul\":2211:2216   */\n      dup2\n        /* \"#utility.yul\":2193:2217   */\n      tag_116\n      jump\t// in\n    tag_187:\n        /* \"#utility.yul\":2186:2191   */\n      dup2\n        /* \"#utility.yul\":2183:2218   */\n      eq\n        /* \"#utility.yul\":2173:2236   */\n      tag_188\n      jumpi\n        /* \"#utility.yul\":2232:2233   */\n      0x00\n        /* \"#utility.yul\":2229:2230   */\n      dup1\n        /* \"#utility.yul\":2222:2234   */\n      revert\n        /* \"#utility.yul\":2173:2236   */\n    tag_188:\n        /* \"#utility.yul\":2120:2242   */\n      pop\n      jump\t// out\n        /* \"#utility.yul\":2248:2387   */\n    tag_118:\n        /* \"#utility.yul\":2294:2299   */\n      0x00\n        /* \"#utility.yul\":2332:2338   */\n      dup2\n        /* \"#utility.yul\":2319:2339   */\n      calldataload\n        /* \"#utility.yul\":2310:2339   */\n      swap1\n      pop\n        /* \"#utility.yul\":2348:2381   */\n      tag_190\n        /* \"#utility.yul\":2375:2380   */\n      dup2\n        /* \"#utility.yul\":2348:2381   */\n      tag_117\n      jump\t// in\n    tag_190:\n        /* \"#utility.yul\":2248:2387   */\n      swap3\n      swap2\n      pop\n      pop\n      jump\t// out\n        /* \"#utility.yul\":2393:2883   */\n    tag_19:\n        /* \"#utility.yul\":2469:2475   */\n      0x00\n        /* \"#utility.yul\":2477:2483   */\n      dup1\n        /* \"#utility.yul\":2526:2528   */\n      0x40\n        /* \"#utility.yul\":2514:2523   */\n      dup4\n        /* \"#utility.yul\":2505:2512   */\n      dup6\n        /* \"#utility.yul\":2501:2524   */\n      sub\n        /* \"#utility.yul\":2497:2529   */\n      slt\n        /* \"#utility.yul\":2494:2613   */\n      iszero\n      tag_192\n      jumpi\n        /* \"#utility.yul\":2532:2611   */\n      tag_193\n      tag_110\n      jump\t// in\n    tag_193:\n        /* \"#utility.yul\":2494:2613   */\n    tag_192:\n        /* \"#utility.yul\":2652:2653   */\n      0x00\n        /* \"#utility.yul\":2677:2738   */\n      tag_194\n        /* \"#utility.yul\":2730:2737   */\n      dup6\n        /* \"#utility.yul\":2721:2727   */\n      dup3\n        /* \"#utility.yul\":2710:2719   */\n      dup7\n        /* \"#utility.yul\":2706:2728   */\n      add\n        /* \"#utility.yul\":2677:2738   */\n      tag_115\n      jump\t// in\n    tag_194:\n        /* \"#utility.yul\":2667:2738   */\n      swap3\n      pop\n        /* \"#utility.yul\":2623:2748   */\n      pop\n        /* \"#utility.yul\":2787:2789   */\n      0x20\n        /* \"#utility.yul\":2813:2866   */\n      tag_195\n        /* \"#utility.yul\":2858:2865   */\n      dup6\n        /* \"#utility.yul\":2849:2855   */\n      dup3\n        /* \"#utility.yul\":2838:2847   */\n      dup7\n        /* \"#utility.yul\":2834:2856   */\n      add\n        /* \"#utility.yul\":2813:2866   */\n      tag_118\n      jump\t// in\n    tag_195:\n        /* \"#utility.yul\":2803:2866   */\n      swap2\n      pop\n        /* \"#utility.yul\":2758:2876   */\n      pop\n        /* \"#utility.yul\":2393:2883   */\n      swap3\n      pop\n      swap3\n      swap1\n      pop\n      jump\t// out\n        /* \"#utility.yul\":2889:3006   */\n    tag_119:\n        /* \"#utility.yul\":2998:2999   */\n      0x00\n        /* \"#utility.yul\":2995:2996   */\n      dup1\n        /* \"#utility.yul\":2988:3000   */\n      revert\n        /* \"#utility.yul\":3012:3129   */\n    tag_120:\n        /* \"#utility.yul\":3121:3122   */\n      0x00\n        /* \"#utility.yul\":3118:3119   */\n      dup1\n        /* \"#utility.yul\":3111:3123   */\n      revert\n        /* \"#utility.yul\":3135:3237   */\n    tag_121:\n        /* \"#utility.yul\":3176:3182   */\n      0x00\n        /* \"#utility.yul\":3227:3229   */\n      0x1f\n        /* \"#utility.yul\":3223:3230   */\n      not\n        /* \"#utility.yul\":3218:3220   */\n      0x1f\n        /* \"#utility.yul\":3211:3216   */\n      dup4\n        /* \"#utility.yul\":3207:3221   */\n      add\n        /* \"#utility.yul\":3203:3231   */\n      and\n        /* \"#utility.yul\":3193:3231   */\n      swap1\n      pop\n        /* \"#utility.yul\":3135:3237   */\n      swap2\n      swap1\n      pop\n      jump\t// out\n        /* \"#utility.yul\":3243:3423   */\n    tag_122:\n        /* \"#utility.yul\":3291:3368   */\n      0x4e487b7100000000000000000000000000000000000000000000000000000000\n        /* \"#utility.yul\":3288:3289   */\n      0x00\n        /* \"#utility.yul\":3281:3369   */\n      mstore\n        /* \"#utility.yul\":3388:3392   */\n      0x41\n        /* \"#utility.yul\":3385:3386   */\n      0x04\n        /* \"#utility.yul\":3378:3393   */\n      mstore\n        /* \"#utility.yul\":3412:3416   */\n      0x24\n        /* \"#utility.yul\":3409:3410   */\n      0x00\n        /* \"#utility.yul\":3402:3417   */\n      revert\n        /* \"#utility.yul\":3429:3710   */\n    tag_123:\n        /* \"#utility.yul\":3512:3539   */\n      tag_201\n        /* \"#utility.yul\":3534:3538   */\n      dup3\n        /* \"#utility.yul\":3512:3539   */\n      tag_121\n      jump\t// in\n    tag_201:\n        /* \"#utility.yul\":3504:3510   */\n      dup2\n        /* \"#utility.yul\":3500:3540   */\n      add\n        /* \"#utility.yul\":3642:3648   */\n      dup2\n        /* \"#utility.yul\":3630:3640   */\n      dup2\n        /* \"#utility.yul\":3627:3649   */\n      lt\n        /* \"#utility.yul\":3606:3624   */\n      0xffffffffffffffff\n        /* \"#utility.yul\":3594:3604   */\n      dup3\n        /* \"#utility.yul\":3591:3625   */\n      gt\n        /* \"#utility.yul\":3588:3650   */\n      or\n        /* \"#utility.yul\":3585:3673   */\n      iszero\n      tag_202\n      jumpi\n        /* \"#utility.yul\":3653:3671   */\n      tag_203\n      tag_122\n      jump\t// in\n    tag_203:\n        /* \"#utility.yul\":3585:3673   */\n    tag_202:\n        /* \"#utility.yul\":3693:3703   */\n      dup1\n        /* \"#utility.yul\":3689:3691   */\n      0x40\n        /* \"#utility.yul\":3682:3704   */\n      mstore\n        /* \"#utility.yul\":3472:3710   */\n      pop\n        /* \"#utility.yul\":3429:3710   */\n      pop\n      pop\n      jump\t// out\n        /* \"#utility.yul\":3716:3845   */\n    tag_124:\n        /* \"#utility.yul\":3750:3756   */\n      0x00\n        /* \"#utility.yul\":3777:3797   */\n      tag_205\n      tag_109\n      jump\t// in\n    tag_205:\n        /* \"#utility.yul\":3767:3797   */\n      swap1\n      pop\n        /* \"#utility.yul\":3806:3839   */\n      tag_206\n        /* \"#utility.yul\":3834:3838   */\n      dup3\n        /* \"#utility.yul\":3826:3832   */\n      dup3\n        /* \"#utility.yul\":3806:3839   */\n      tag_123\n      jump\t// in\n    tag_206:\n        /* \"#utility.yul\":3716:3845   */\n      swap2\n      swap1\n      pop\n      jump\t// out\n        /* \"#utility.yul\":3851:4159   */\n    tag_125:\n        /* \"#utility.yul\":3913:3917   */\n      0x00\n        /* \"#utility.yul\":4003:4021   */\n      0xffffffffffffffff\n        /* \"#utility.yul\":3995:4001   */\n      dup3\n        /* \"#utility.yul\":3992:4022   */\n      gt\n        /* \"#utility.yul\":3989:4045   */\n      iszero\n      tag_208\n      jumpi\n        /* \"#utility.yul\":4025:4043   */\n      tag_209\n      tag_122\n      jump\t// in\n    tag_209:\n        /* \"#utility.yul\":3989:4045   */\n    tag_208:\n        /* \"#utility.yul\":4063:4092   */\n      tag_210\n        /* \"#utility.yul\":4085:4091   */\n      dup3\n        /* \"#utility.yul\":4063:4092   */\n      tag_121\n      jump\t// in\n    tag_210:\n        /* \"#utility.yul\":4055:4092   */\n      swap1\n      pop\n        /* \"#utility.yul\":4147:4151   */\n      0x20\n        /* \"#utility.yul\":4141:4145   */\n      dup2\n        /* \"#utility.yul\":4137:4152   */\n      add\n        /* \"#utility.yul\":4129:4152   */\n      swap1\n      pop\n        /* \"#utility.yul\":3851:4159   */\n      swap2\n      swap1\n      pop\n      jump\t// out\n        /* \"#utility.yul\":4165:4311   */\n    tag_126:\n        /* \"#utility.yul\":4262:4268   */\n      dup3\n        /* \"#utility.yul\":4257:4260   */\n      dup2\n        /* \"#utility.yul\":4252:4255   */\n      dup4\n        /* \"#utility.yul\":4239:4269   */\n      calldatacopy\n        /* \"#utility.yul\":4303:4304   */\n      0x00\n        /* \"#utility.yul\":4294:4300   */\n      dup4\n        /* \"#utility.yul\":4289:4292   */\n      dup4\n        /* \"#utility.yul\":4285:4301   */\n      add\n        /* \"#utility.yul\":4278:4305   */\n      mstore\n        /* \"#utility.yul\":4165:4311   */\n      pop\n      pop\n      pop\n      jump\t// out\n        /* \"#utility.yul\":4317:4742   */\n    tag_127:\n        /* \"#utility.yul\":4395:4400   */\n      0x00\n        /* \"#utility.yul\":4420:4486   */\n      tag_213\n        /* \"#utility.yul\":4436:4485   */\n      tag_214\n        /* \"#utility.yul\":4478:4484   */\n      dup5\n        /* \"#utility.yul\":4436:4485   */\n      tag_125\n      jump\t// in\n    tag_214:\n        /* \"#utility.yul\":4420:4486   */\n      tag_124\n      jump\t// in\n    tag_213:\n        /* \"#utility.yul\":4411:4486   */\n      swap1\n      pop\n        /* \"#utility.yul\":4509:4515   */\n      dup3\n        /* \"#utility.yul\":4502:4507   */\n      dup2\n        /* \"#utility.yul\":4495:4516   */\n      mstore\n        /* \"#utility.yul\":4547:4551   */\n      0x20\n        /* \"#utility.yul\":4540:4545   */\n      dup2\n        /* \"#utility.yul\":4536:4552   */\n      add\n        /* \"#utility.yul\":4585:4588   */\n      dup5\n        /* \"#utility.yul\":4576:4582   */\n      dup5\n        /* \"#utility.yul\":4571:4574   */\n      dup5\n        /* \"#utility.yul\":4567:4583   */\n      add\n        /* \"#utility.yul\":4564:4589   */\n      gt\n        /* \"#utility.yul\":4561:4673   */\n      iszero\n      tag_215\n      jumpi\n        /* \"#utility.yul\":4592:4671   */\n      tag_216\n      tag_120\n      jump\t// in\n    tag_216:\n        /* \"#utility.yul\":4561:4673   */\n    tag_215:\n        /* \"#utility.yul\":4682:4736   */\n      tag_217\n        /* \"#utility.yul\":4729:4735   */\n      dup5\n        /* \"#utility.yul\":4724:4727   */\n      dup3\n        /* \"#utility.yul\":4719:4722   */\n      dup6\n        /* \"#utility.yul\":4682:4736   */\n      tag_126\n      jump\t// in\n    tag_217:\n        /* \"#utility.yul\":4401:4742   */\n      pop\n        /* \"#utility.yul\":4317:4742   */\n      swap4\n      swap3\n      pop\n      pop\n      pop\n      jump\t// out\n        /* \"#utility.yul\":4762:5102   */\n    tag_128:\n        /* \"#utility.yul\":4818:4823   */\n      0x00\n        /* \"#utility.yul\":4867:4870   */\n      dup3\n        /* \"#utility.yul\":4860:4864   */\n      0x1f\n        /* \"#utility.yul\":4852:4858   */\n      dup4\n        /* \"#utility.yul\":4848:4865   */\n      add\n        /* \"#utility.yul\":4844:4871   */\n      slt\n        /* \"#utility.yul\":4834:4956   */\n      tag_219\n      jumpi\n        /* \"#utility.yul\":4875:4954   */\n      tag_220\n      tag_119\n      jump\t// in\n    tag_220:\n        /* \"#utility.yul\":4834:4956   */\n    tag_219:\n        /* \"#utility.yul\":4992:4998   */\n      dup2\n        /* \"#utility.yul\":4979:4999   */\n      calldataload\n        /* \"#utility.yul\":5017:5096   */\n      tag_221\n        /* \"#utility.yul\":5092:5095   */\n      dup5\n        /* \"#utility.yul\":5084:5090   */\n      dup3\n        /* \"#utility.yul\":5077:5081   */\n      0x20\n        /* \"#utility.yul\":5069:5075   */\n      dup7\n        /* \"#utility.yul\":5065:5082   */\n      add\n        /* \"#utility.yul\":5017:5096   */\n      tag_127\n      jump\t// in\n    tag_221:\n        /* \"#utility.yul\":5008:5096   */\n      swap2\n      pop\n        /* \"#utility.yul\":4824:5102   */\n      pop\n        /* \"#utility.yul\":4762:5102   */\n      swap3\n      swap2\n      pop\n      pop\n      jump\t// out\n        /* \"#utility.yul\":5108:5204   */\n    tag_129:\n        /* \"#utility.yul\":5145:5152   */\n      0x00\n        /* \"#utility.yul\":5174:5198   */\n      tag_223\n        /* \"#utility.yul\":5192:5197   */\n      dup3\n        /* \"#utility.yul\":5174:5198   */\n      tag_112\n      jump\t// in\n    tag_223:\n        /* \"#utility.yul\":5163:5198   */\n      swap1\n      pop\n        /* \"#utility.yul\":5108:5204   */\n      swap2\n      swap1\n      pop\n      jump\t// out\n        /* \"#utility.yul\":5210:5332   */\n    tag_130:\n        /* \"#utility.yul\":5283:5307   */\n      tag_225\n        /* \"#utility.yul\":5301:5306   */\n      dup2\n        /* \"#utility.yul\":5283:5307   */\n      tag_129\n      jump\t// in\n    tag_225:\n        /* \"#utility.yul\":5276:5281   */\n      dup2\n        /* \"#utility.yul\":5273:5308   */\n      eq\n        /* \"#utility.yul\":5263:5326   */\n      tag_226\n      jumpi\n        /* \"#utility.yul\":5322:5323   */\n      0x00\n        /* \"#utility.yul\":5319:5320   */\n      dup1\n        /* \"#utility.yul\":5312:5324   */\n      revert\n        /* \"#utility.yul\":5263:5326   */\n    tag_226:\n        /* \"#utility.yul\":5210:5332   */\n      pop\n      jump\t// out\n        /* \"#utility.yul\":5338:5477   */\n    tag_131:\n        /* \"#utility.yul\":5384:5389   */\n      0x00\n        /* \"#utility.yul\":5422:5428   */\n      dup2\n        /* \"#utility.yul\":5409:5429   */\n      calldataload\n        /* \"#utility.yul\":5400:5429   */\n      swap1\n      pop\n        /* \"#utility.yul\":5438:5471   */\n      tag_228\n        /* \"#utility.yul\":5465:5470   */\n      dup2\n        /* \"#utility.yul\":5438:5471   */\n      tag_130\n      jump\t// in\n    tag_228:\n        /* \"#utility.yul\":5338:5477   */\n      swap3\n      swap2\n      pop\n      pop\n      jump\t// out\n        /* \"#utility.yul\":5483:5594   */\n    tag_132:\n        /* \"#utility.yul\":5568:5569   */\n      0x02\n        /* \"#utility.yul\":5561:5566   */\n      dup2\n        /* \"#utility.yul\":5558:5570   */\n      lt\n        /* \"#utility.yul\":5548:5588   */\n      tag_230\n      jumpi\n        /* \"#utility.yul\":5584:5585   */\n      0x00\n        /* \"#utility.yul\":5581:5582   */\n      dup1\n        /* \"#utility.yul\":5574:5586   */\n      revert\n        /* \"#utility.yul\":5548:5588   */\n    tag_230:\n        /* \"#utility.yul\":5483:5594   */\n      pop\n      jump\t// out\n        /* \"#utility.yul\":5600:5763   */\n    tag_133:\n        /* \"#utility.yul\":5658:5663   */\n      0x00\n        /* \"#utility.yul\":5696:5702   */\n      dup2\n        /* \"#utility.yul\":5683:5703   */\n      calldataload\n        /* \"#utility.yul\":5674:5703   */\n      swap1\n      pop\n        /* \"#utility.yul\":5712:5757   */\n      tag_232\n        /* \"#utility.yul\":5751:5756   */\n      dup2\n        /* \"#utility.yul\":5712:5757   */\n      tag_132\n      jump\t// in\n    tag_232:\n        /* \"#utility.yul\":5600:5763   */\n      swap3\n      swap2\n      pop\n      pop\n      jump\t// out\n        /* \"#utility.yul\":5769:7226   */\n    tag_24:\n        /* \"#utility.yul\":5913:5919   */\n      0x00\n        /* \"#utility.yul\":5921:5927   */\n      dup1\n        /* \"#utility.yul\":5929:5935   */\n      0x00\n        /* \"#utility.yul\":5937:5943   */\n      dup1\n        /* \"#utility.yul\":5945:5951   */\n      0x00\n        /* \"#utility.yul\":5953:5959   */\n      dup1\n        /* \"#utility.yul\":6002:6005   */\n      0xc0\n        /* \"#utility.yul\":5990:5999   */\n      dup8\n        /* \"#utility.yul\":5981:5988   */\n      dup10\n        /* \"#utility.yul\":5977:6000   */\n      sub\n        /* \"#utility.yul\":5973:6006   */\n      slt\n        /* \"#utility.yul\":5970:6090   */\n      iszero\n      tag_234\n      jumpi\n        /* \"#utility.yul\":6009:6088   */\n      tag_235\n      tag_110\n      jump\t// in\n    tag_235:\n        /* \"#utility.yul\":5970:6090   */\n    tag_234:\n        /* \"#utility.yul\":6157:6158   */\n      0x00\n        /* \"#utility.yul\":6146:6155   */\n      dup8\n        /* \"#utility.yul\":6142:6159   */\n      add\n        /* \"#utility.yul\":6129:6160   */\n      calldataload\n        /* \"#utility.yul\":6187:6205   */\n      0xffffffffffffffff\n        /* \"#utility.yul\":6179:6185   */\n      dup2\n        /* \"#utility.yul\":6176:6206   */\n      gt\n        /* \"#utility.yul\":6173:6290   */\n      iszero\n      tag_236\n      jumpi\n        /* \"#utility.yul\":6209:6288   */\n      tag_237\n      tag_111\n      jump\t// in\n    tag_237:\n        /* \"#utility.yul\":6173:6290   */\n    tag_236:\n        /* \"#utility.yul\":6314:6377   */\n      tag_238\n        /* \"#utility.yul\":6369:6376   */\n      dup10\n        /* \"#utility.yul\":6360:6366   */\n      dup3\n        /* \"#utility.yul\":6349:6358   */\n      dup11\n        /* \"#utility.yul\":6345:6367   */\n      add\n        /* \"#utility.yul\":6314:6377   */\n      tag_128\n      jump\t// in\n    tag_238:\n        /* \"#utility.yul\":6304:6377   */\n      swap7\n      pop\n        /* \"#utility.yul\":6100:6387   */\n      pop\n        /* \"#utility.yul\":6454:6456   */\n      0x20\n        /* \"#utility.yul\":6443:6452   */\n      dup8\n        /* \"#utility.yul\":6439:6457   */\n      add\n        /* \"#utility.yul\":6426:6458   */\n      calldataload\n        /* \"#utility.yul\":6485:6503   */\n      0xffffffffffffffff\n        /* \"#utility.yul\":6477:6483   */\n      dup2\n        /* \"#utility.yul\":6474:6504   */\n      gt\n        /* \"#utility.yul\":6471:6588   */\n      iszero\n      tag_239\n      jumpi\n        /* \"#utility.yul\":6507:6586   */\n      tag_240\n      tag_111\n      jump\t// in\n    tag_240:\n        /* \"#utility.yul\":6471:6588   */\n    tag_239:\n        /* \"#utility.yul\":6612:6675   */\n      tag_241\n        /* \"#utility.yul\":6667:6674   */\n      dup10\n        /* \"#utility.yul\":6658:6664   */\n      dup3\n        /* \"#utility.yul\":6647:6656   */\n      dup11\n        /* \"#utility.yul\":6643:6665   */\n      add\n        /* \"#utility.yul\":6612:6675   */\n      tag_128\n      jump\t// in\n    tag_241:\n        /* \"#utility.yul\":6602:6675   */\n      swap6\n      pop\n        /* \"#utility.yul\":6397:6685   */\n      pop\n        /* \"#utility.yul\":6724:6726   */\n      0x40\n        /* \"#utility.yul\":6750:6803   */\n      tag_242\n        /* \"#utility.yul\":6795:6802   */\n      dup10\n        /* \"#utility.yul\":6786:6792   */\n      dup3\n        /* \"#utility.yul\":6775:6784   */\n      dup11\n        /* \"#utility.yul\":6771:6793   */\n      add\n        /* \"#utility.yul\":6750:6803   */\n      tag_118\n      jump\t// in\n    tag_242:\n        /* \"#utility.yul\":6740:6803   */\n      swap5\n      pop\n        /* \"#utility.yul\":6695:6813   */\n      pop\n        /* \"#utility.yul\":6852:6854   */\n      0x60\n        /* \"#utility.yul\":6878:6931   */\n      tag_243\n        /* \"#utility.yul\":6923:6930   */\n      dup10\n        /* \"#utility.yul\":6914:6920   */\n      dup3\n        /* \"#utility.yul\":6903:6912   */\n      dup11\n        /* \"#utility.yul\":6899:6921   */\n      add\n        /* \"#utility.yul\":6878:6931   */\n      tag_131\n      jump\t// in\n    tag_243:\n        /* \"#utility.yul\":6868:6931   */\n      swap4\n      pop\n        /* \"#utility.yul\":6823:6941   */\n      pop\n        /* \"#utility.yul\":6980:6983   */\n      0x80\n        /* \"#utility.yul\":7007:7068   */\n      tag_244\n        /* \"#utility.yul\":7060:7067   */\n      dup10\n        /* \"#utility.yul\":7051:7057   */\n      dup3\n        /* \"#utility.yul\":7040:7049   */\n      dup11\n        /* \"#utility.yul\":7036:7058   */\n      add\n        /* \"#utility.yul\":7007:7068   */\n      tag_115\n      jump\t// in\n    tag_244:\n        /* \"#utility.yul\":6997:7068   */\n      swap3\n      pop\n        /* \"#utility.yul\":6951:7078   */\n      pop\n        /* \"#utility.yul\":7117:7120   */\n      0xa0\n        /* \"#utility.yul\":7144:7209   */\n      tag_245\n        /* \"#utility.yul\":7201:7208   */\n      dup10\n        /* \"#utility.yul\":7192:7198   */\n      dup3\n        /* \"#utility.yul\":7181:7190   */\n      dup11\n        /* \"#utility.yul\":7177:7199   */\n      add\n        /* \"#utility.yul\":7144:7209   */\n      tag_133\n      jump\t// in\n    tag_245:\n        /* \"#utility.yul\":7134:7209   */\n      swap2\n      pop\n        /* \"#utility.yul\":7088:7219   */\n      pop\n        /* \"#utility.yul\":5769:7226   */\n      swap3\n      swap6\n      pop\n      swap3\n      swap6\n      pop\n      swap3\n      swap6\n      jump\t// out\n        /* \"#utility.yul\":7232:7350   */\n    tag_134:\n        /* \"#utility.yul\":7319:7343   */\n      tag_247\n        /* \"#utility.yul\":7337:7342   */\n      dup2\n        /* \"#utility.yul\":7319:7343   */\n      tag_116\n      jump\t// in\n    tag_247:\n        /* \"#utility.yul\":7314:7317   */\n      dup3\n        /* \"#utility.yul\":7307:7344   */\n      mstore\n        /* \"#utility.yul\":7232:7350   */\n      pop\n      pop\n      jump\t// out\n        /* \"#utility.yul\":7356:7578   */\n    tag_30:\n        /* \"#utility.yul\":7449:7453   */\n      0x00\n        /* \"#utility.yul\":7487:7489   */\n      0x20\n        /* \"#utility.yul\":7476:7485   */\n      dup3\n        /* \"#utility.yul\":7472:7490   */\n      add\n        /* \"#utility.yul\":7464:7490   */\n      swap1\n      pop\n        /* \"#utility.yul\":7500:7571   */\n      tag_249\n        /* \"#utility.yul\":7568:7569   */\n      0x00\n        /* \"#utility.yul\":7557:7566   */\n      dup4\n        /* \"#utility.yul\":7553:7570   */\n      add\n        /* \"#utility.yul\":7544:7550   */\n      dup5\n        /* \"#utility.yul\":7500:7571   */\n      tag_134\n      jump\t// in\n    tag_249:\n        /* \"#utility.yul\":7356:7578   */\n      swap3\n      swap2\n      pop\n      pop\n      jump\t// out\n        /* \"#utility.yul\":7584:8887   */\n    tag_33:\n        /* \"#utility.yul\":7715:7721   */\n      0x00\n        /* \"#utility.yul\":7723:7729   */\n      dup1\n        /* \"#utility.yul\":7731:7737   */\n      0x00\n        /* \"#utility.yul\":7739:7745   */\n      dup1\n        /* \"#utility.yul\":7747:7753   */\n      0x00\n        /* \"#utility.yul\":7796:7799   */\n      0xa0\n        /* \"#utility.yul\":7784:7793   */\n      dup7\n        /* \"#utility.yul\":7775:7782   */\n      dup9\n        /* \"#utility.yul\":7771:7794   */\n      sub\n        /* \"#utility.yul\":7767:7800   */\n      slt\n        /* \"#utility.yul\":7764:7884   */\n      iszero\n      tag_251\n      jumpi\n        /* \"#utility.yul\":7803:7882   */\n      tag_252\n      tag_110\n      jump\t// in\n    tag_252:\n        /* \"#utility.yul\":7764:7884   */\n    tag_251:\n        /* \"#utility.yul\":7951:7952   */\n      0x00\n        /* \"#utility.yul\":7940:7949   */\n      dup7\n        /* \"#utility.yul\":7936:7953   */\n      add\n        /* \"#utility.yul\":7923:7954   */\n      calldataload\n        /* \"#utility.yul\":7981:7999   */\n      0xffffffffffffffff\n        /* \"#utility.yul\":7973:7979   */\n      dup2\n        /* \"#utility.yul\":7970:8000   */\n      gt\n        /* \"#utility.yul\":7967:8084   */\n      iszero\n      tag_253\n      jumpi\n        /* \"#utility.yul\":8003:8082   */\n      tag_254\n      tag_111\n      jump\t// in\n    tag_254:\n        /* \"#utility.yul\":7967:8084   */\n    tag_253:\n        /* \"#utility.yul\":8108:8171   */\n      tag_255\n        /* \"#utility.yul\":8163:8170   */\n      dup9\n        /* \"#utility.yul\":8154:8160   */\n      dup3\n        /* \"#utility.yul\":8143:8152   */\n      dup10\n        /* \"#utility.yul\":8139:8161   */\n      add\n        /* \"#utility.yul\":8108:8171   */\n      tag_128\n      jump\t// in\n    tag_255:\n        /* \"#utility.yul\":8098:8171   */\n      swap6\n      pop\n        /* \"#utility.yul\":7894:8181   */\n      pop\n        /* \"#utility.yul\":8248:8250   */\n      0x20\n        /* \"#utility.yul\":8237:8246   */\n      dup7\n        /* \"#utility.yul\":8233:8251   */\n      add\n        /* \"#utility.yul\":8220:8252   */\n      calldataload\n        /* \"#utility.yul\":8279:8297   */\n      0xffffffffffffffff\n        /* \"#utility.yul\":8271:8277   */\n      dup2\n        /* \"#utility.yul\":8268:8298   */\n      gt\n        /* \"#utility.yul\":8265:8382   */\n      iszero\n      tag_256\n      jumpi\n        /* \"#utility.yul\":8301:8380   */\n      tag_257\n      tag_111\n      jump\t// in\n    tag_257:\n        /* \"#utility.yul\":8265:8382   */\n    tag_256:\n        /* \"#utility.yul\":8406:8469   */\n      tag_258\n        /* \"#utility.yul\":8461:8468   */\n      dup9\n        /* \"#utility.yul\":8452:8458   */\n      dup3\n        /* \"#utility.yul\":8441:8450   */\n      dup10\n        /* \"#utility.yul\":8437:8459   */\n      add\n        /* \"#utility.yul\":8406:8469   */\n      tag_128\n      jump\t// in\n    tag_258:\n        /* \"#utility.yul\":8396:8469   */\n      swap5\n      pop\n        /* \"#utility.yul\":8191:8479   */\n      pop\n        /* \"#utility.yul\":8518:8520   */\n      0x40\n        /* \"#utility.yul\":8544:8597   */\n      tag_259\n        /* \"#utility.yul\":8589:8596   */\n      dup9\n        /* \"#utility.yul\":8580:8586   */\n      dup3\n        /* \"#utility.yul\":8569:8578   */\n      dup10\n        /* \"#utility.yul\":8565:8587   */\n      add\n        /* \"#utility.yul\":8544:8597   */\n      tag_118\n      jump\t// in\n    tag_259:\n        /* \"#utility.yul\":8534:8597   */\n      swap4\n      pop\n        /* \"#utility.yul\":8489:8607   */\n      pop\n        /* \"#utility.yul\":8646:8648   */\n      0x60\n        /* \"#utility.yul\":8672:8733   */\n      tag_260\n        /* \"#utility.yul\":8725:8732   */\n      dup9\n        /* \"#utility.yul\":8716:8722   */\n      dup3\n        /* \"#utility.yul\":8705:8714   */\n      dup10\n        /* \"#utility.yul\":8701:8723   */\n      add\n        /* \"#utility.yul\":8672:8733   */\n      tag_115\n      jump\t// in\n    tag_260:\n        /* \"#utility.yul\":8662:8733   */\n      swap3\n      pop\n        /* \"#utility.yul\":8617:8743   */\n      pop\n        /* \"#utility.yul\":8782:8785   */\n      0x80\n        /* \"#utility.yul\":8809:8870   */\n      tag_261\n        /* \"#utility.yul\":8862:8869   */\n      dup9\n        /* \"#utility.yul\":8853:8859   */\n      dup3\n        /* \"#utility.yul\":8842:8851   */\n      dup10\n        /* \"#utility.yul\":8838:8860   */\n      add\n        /* \"#utility.yul\":8809:8870   */\n      tag_115\n      jump\t// in\n    tag_261:\n        /* \"#utility.yul\":8799:8870   */\n      swap2\n      pop\n        /* \"#utility.yul\":8753:8880   */\n      pop\n        /* \"#utility.yul\":7584:8887   */\n      swap3\n      swap6\n      pop\n      swap3\n      swap6\n      swap1\n      swap4\n      pop\n      jump\t// out\n        /* \"#utility.yul\":8893:9222   */\n    tag_38:\n        /* \"#utility.yul\":8952:8958   */\n      0x00\n        /* \"#utility.yul\":9001:9003   */\n      0x20\n        /* \"#utility.yul\":8989:8998   */\n      dup3\n        /* \"#utility.yul\":8980:8987   */\n      dup5\n        /* \"#utility.yul\":8976:8999   */\n      sub\n        /* \"#utility.yul\":8972:9004   */\n      slt\n        /* \"#utility.yul\":8969:9088   */\n      iszero\n      tag_263\n      jumpi\n        /* \"#utility.yul\":9007:9086   */\n      tag_264\n      tag_110\n      jump\t// in\n    tag_264:\n        /* \"#utility.yul\":8969:9088   */\n    tag_263:\n        /* \"#utility.yul\":9127:9128   */\n      0x00\n        /* \"#utility.yul\":9152:9205   */\n      tag_265\n        /* \"#utility.yul\":9197:9204   */\n      dup5\n        /* \"#utility.yul\":9188:9194   */\n      dup3\n        /* \"#utility.yul\":9177:9186   */\n      dup6\n        /* \"#utility.yul\":9173:9195   */\n      add\n        /* \"#utility.yul\":9152:9205   */\n      tag_118\n      jump\t// in\n    tag_265:\n        /* \"#utility.yul\":9142:9205   */\n      swap2\n      pop\n        /* \"#utility.yul\":9098:9215   */\n      pop\n        /* \"#utility.yul\":8893:9222   */\n      swap3\n      swap2\n      pop\n      pop\n      jump\t// out\n        /* \"#utility.yul\":9228:9327   */\n    tag_135:\n        /* \"#utility.yul\":9280:9286   */\n      0x00\n        /* \"#utility.yul\":9314:9319   */\n      dup2\n        /* \"#utility.yul\":9308:9320   */\n      mload\n        /* \"#utility.yul\":9298:9320   */\n      swap1\n      pop\n        /* \"#utility.yul\":9228:9327   */\n      swap2\n      swap1\n      pop\n      jump\t// out\n        /* \"#utility.yul\":9333:9579   */\n    tag_136:\n        /* \"#utility.yul\":9414:9415   */\n      0x00\n        /* \"#utility.yul\":9424:9537   */\n    tag_268:\n        /* \"#utility.yul\":9438:9444   */\n      dup4\n        /* \"#utility.yul\":9435:9436   */\n      dup2\n        /* \"#utility.yul\":9432:9445   */\n      lt\n        /* \"#utility.yul\":9424:9537   */\n      iszero\n      tag_270\n      jumpi\n        /* \"#utility.yul\":9523:9524   */\n      dup1\n        /* \"#utility.yul\":9518:9521   */\n      dup3\n        /* \"#utility.yul\":9514:9525   */\n      add\n        /* \"#utility.yul\":9508:9526   */\n      mload\n        /* \"#utility.yul\":9504:9505   */\n      dup2\n        /* \"#utility.yul\":9499:9502   */\n      dup5\n        /* \"#utility.yul\":9495:9506   */\n      add\n        /* \"#utility.yul\":9488:9527   */\n      mstore\n        /* \"#utility.yul\":9460:9462   */\n      0x20\n        /* \"#utility.yul\":9457:9458   */\n      dup2\n        /* \"#utility.yul\":9453:9463   */\n      add\n        /* \"#utility.yul\":9448:9463   */\n      swap1\n      pop\n        /* \"#utility.yul\":9424:9537   */\n      jump(tag_268)\n    tag_270:\n        /* \"#utility.yul\":9571:9572   */\n      0x00\n        /* \"#utility.yul\":9562:9568   */\n      dup5\n        /* \"#utility.yul\":9557:9560   */\n      dup5\n        /* \"#utility.yul\":9553:9569   */\n      add\n        /* \"#utility.yul\":9546:9573   */\n      mstore\n        /* \"#utility.yul\":9395:9579   */\n      pop\n        /* \"#utility.yul\":9333:9579   */\n      pop\n      pop\n      pop\n      jump\t// out\n        /* \"#utility.yul\":9585:9962   */\n    tag_137:\n        /* \"#utility.yul\":9673:9676   */\n      0x00\n        /* \"#utility.yul\":9701:9740   */\n      tag_272\n        /* \"#utility.yul\":9734:9739   */\n      dup3\n        /* \"#utility.yul\":9701:9740   */\n      tag_135\n      jump\t// in\n    tag_272:\n        /* \"#utility.yul\":9756:9827   */\n      tag_273\n        /* \"#utility.yul\":9820:9826   */\n      dup2\n        /* \"#utility.yul\":9815:9818   */\n      dup6\n        /* \"#utility.yul\":9756:9827   */\n      tag_106\n      jump\t// in\n    tag_273:\n        /* \"#utility.yul\":9749:9827   */\n      swap4\n      pop\n        /* \"#utility.yul\":9836:9901   */\n      tag_274\n        /* \"#utility.yul\":9894:9900   */\n      dup2\n        /* \"#utility.yul\":9889:9892   */\n      dup6\n        /* \"#utility.yul\":9882:9886   */\n      0x20\n        /* \"#utility.yul\":9875:9880   */\n      dup7\n        /* \"#utility.yul\":9871:9887   */\n      add\n        /* \"#utility.yul\":9836:9901   */\n      tag_136\n      jump\t// in\n    tag_274:\n        /* \"#utility.yul\":9926:9955   */\n      tag_275\n        /* \"#utility.yul\":9948:9954   */\n      dup2\n        /* \"#utility.yul\":9926:9955   */\n      tag_121\n      jump\t// in\n    tag_275:\n        /* \"#utility.yul\":9921:9924   */\n      dup5\n        /* \"#utility.yul\":9917:9956   */\n      add\n        /* \"#utility.yul\":9910:9956   */\n      swap2\n      pop\n        /* \"#utility.yul\":9677:9962   */\n      pop\n        /* \"#utility.yul\":9585:9962   */\n      swap3\n      swap2\n      pop\n      pop\n      jump\t// out\n        /* \"#utility.yul\":9968:10086   */\n    tag_138:\n        /* \"#utility.yul\":10055:10079   */\n      tag_277\n        /* \"#utility.yul\":10073:10078   */\n      dup2\n        /* \"#utility.yul\":10055:10079   */\n      tag_129\n      jump\t// in\n    tag_277:\n        /* \"#utility.yul\":10050:10053   */\n      dup3\n        /* \"#utility.yul\":10043:10080   */\n      mstore\n        /* \"#utility.yul\":9968:10086   */\n      pop\n      pop\n      jump\t// out\n        /* \"#utility.yul\":10092:10234   */\n    tag_139:\n        /* \"#utility.yul\":10195:10227   */\n      tag_279\n        /* \"#utility.yul\":10221:10226   */\n      dup2\n        /* \"#utility.yul\":10195:10227   */\n      tag_113\n      jump\t// in\n    tag_279:\n        /* \"#utility.yul\":10190:10193   */\n      dup3\n        /* \"#utility.yul\":10183:10228   */\n      mstore\n        /* \"#utility.yul\":10092:10234   */\n      pop\n      pop\n      jump\t// out\n        /* \"#utility.yul\":10240:10420   */\n    tag_66:\n        /* \"#utility.yul\":10288:10365   */\n      0x4e487b7100000000000000000000000000000000000000000000000000000000\n        /* \"#utility.yul\":10285:10286   */\n      0x00\n        /* \"#utility.yul\":10278:10366   */\n      mstore\n        /* \"#utility.yul\":10385:10389   */\n      0x21\n        /* \"#utility.yul\":10382:10383   */\n      0x04\n        /* \"#utility.yul\":10375:10390   */\n      mstore\n        /* \"#utility.yul\":10409:10413   */\n      0x24\n        /* \"#utility.yul\":10406:10407   */\n      0x00\n        /* \"#utility.yul\":10399:10414   */\n      revert\n        /* \"#utility.yul\":10426:10543   */\n    tag_140:\n        /* \"#utility.yul\":10511:10512   */\n      0x02\n        /* \"#utility.yul\":10504:10509   */\n      dup2\n        /* \"#utility.yul\":10501:10513   */\n      lt\n        /* \"#utility.yul\":10491:10537   */\n      tag_282\n      jumpi\n        /* \"#utility.yul\":10517:10535   */\n      tag_283\n      tag_66\n      jump\t// in\n    tag_283:\n        /* \"#utility.yul\":10491:10537   */\n    tag_282:\n        /* \"#utility.yul\":10426:10543   */\n      pop\n      jump\t// out\n        /* \"#utility.yul\":10549:10684   */\n    tag_141:\n        /* \"#utility.yul\":10598:10605   */\n      0x00\n        /* \"#utility.yul\":10627:10632   */\n      dup2\n        /* \"#utility.yul\":10616:10632   */\n      swap1\n      pop\n        /* \"#utility.yul\":10633:10678   */\n      tag_285\n        /* \"#utility.yul\":10672:10677   */\n      dup3\n        /* \"#utility.yul\":10633:10678   */\n      tag_140\n      jump\t// in\n    tag_285:\n        /* \"#utility.yul\":10549:10684   */\n      swap2\n      swap1\n      pop\n      jump\t// out\n        /* \"#utility.yul\":10690:10825   */\n    tag_142:\n        /* \"#utility.yul\":10750:10759   */\n      0x00\n        /* \"#utility.yul\":10783:10819   */\n      tag_287\n        /* \"#utility.yul\":10813:10818   */\n      dup3\n        /* \"#utility.yul\":10783:10819   */\n      tag_141\n      jump\t// in\n    tag_287:\n        /* \"#utility.yul\":10770:10819   */\n      swap1\n      pop\n        /* \"#utility.yul\":10690:10825   */\n      swap2\n      swap1\n      pop\n      jump\t// out\n        /* \"#utility.yul\":10831:10982   */\n    tag_143:\n        /* \"#utility.yul\":10928:10975   */\n      tag_289\n        /* \"#utility.yul\":10969:10974   */\n      dup2\n        /* \"#utility.yul\":10928:10975   */\n      tag_142\n      jump\t// in\n    tag_289:\n        /* \"#utility.yul\":10923:10926   */\n      dup3\n        /* \"#utility.yul\":10916:10976   */\n      mstore\n        /* \"#utility.yul\":10831:10982   */\n      pop\n      pop\n      jump\t// out\n        /* \"#utility.yul\":10988:11997   */\n    tag_41:\n        /* \"#utility.yul\":11287:11291   */\n      0x00\n        /* \"#utility.yul\":11325:11328   */\n      0xc0\n        /* \"#utility.yul\":11314:11323   */\n      dup3\n        /* \"#utility.yul\":11310:11329   */\n      add\n        /* \"#utility.yul\":11302:11329   */\n      swap1\n      pop\n        /* \"#utility.yul\":11375:11384   */\n      dup2\n        /* \"#utility.yul\":11369:11373   */\n      dup2\n        /* \"#utility.yul\":11365:11385   */\n      sub\n        /* \"#utility.yul\":11361:11362   */\n      0x00\n        /* \"#utility.yul\":11350:11359   */\n      dup4\n        /* \"#utility.yul\":11346:11363   */\n      add\n        /* \"#utility.yul\":11339:11386   */\n      mstore\n        /* \"#utility.yul\":11403:11481   */\n      tag_291\n        /* \"#utility.yul\":11476:11480   */\n      dup2\n        /* \"#utility.yul\":11467:11473   */\n      dup10\n        /* \"#utility.yul\":11403:11481   */\n      tag_137\n      jump\t// in\n    tag_291:\n        /* \"#utility.yul\":11395:11481   */\n      swap1\n      pop\n        /* \"#utility.yul\":11528:11537   */\n      dup2\n        /* \"#utility.yul\":11522:11526   */\n      dup2\n        /* \"#utility.yul\":11518:11538   */\n      sub\n        /* \"#utility.yul\":11513:11515   */\n      0x20\n        /* \"#utility.yul\":11502:11511   */\n      dup4\n        /* \"#utility.yul\":11498:11516   */\n      add\n        /* \"#utility.yul\":11491:11539   */\n      mstore\n        /* \"#utility.yul\":11556:11634   */\n      tag_292\n        /* \"#utility.yul\":11629:11633   */\n      dup2\n        /* \"#utility.yul\":11620:11626   */\n      dup9\n        /* \"#utility.yul\":11556:11634   */\n      tag_137\n      jump\t// in\n    tag_292:\n        /* \"#utility.yul\":11548:11634   */\n      swap1\n      pop\n        /* \"#utility.yul\":11644:11716   */\n      tag_293\n        /* \"#utility.yul\":11712:11714   */\n      0x40\n        /* \"#utility.yul\":11701:11710   */\n      dup4\n        /* \"#utility.yul\":11697:11715   */\n      add\n        /* \"#utility.yul\":11688:11694   */\n      dup8\n        /* \"#utility.yul\":11644:11716   */\n      tag_134\n      jump\t// in\n    tag_293:\n        /* \"#utility.yul\":11726:11798   */\n      tag_294\n        /* \"#utility.yul\":11794:11796   */\n      0x60\n        /* \"#utility.yul\":11783:11792   */\n      dup4\n        /* \"#utility.yul\":11779:11797   */\n      add\n        /* \"#utility.yul\":11770:11776   */\n      dup7\n        /* \"#utility.yul\":11726:11798   */\n      tag_138\n      jump\t// in\n    tag_294:\n        /* \"#utility.yul\":11808:11897   */\n      tag_295\n        /* \"#utility.yul\":11892:11895   */\n      0x80\n        /* \"#utility.yul\":11881:11890   */\n      dup4\n        /* \"#utility.yul\":11877:11896   */\n      add\n        /* \"#utility.yul\":11868:11874   */\n      dup6\n        /* \"#utility.yul\":11808:11897   */\n      tag_139\n      jump\t// in\n    tag_295:\n        /* \"#utility.yul\":11907:11990   */\n      tag_296\n        /* \"#utility.yul\":11985:11988   */\n      0xa0\n        /* \"#utility.yul\":11974:11983   */\n      dup4\n        /* \"#utility.yul\":11970:11989   */\n      add\n        /* \"#utility.yul\":11961:11967   */\n      dup5\n        /* \"#utility.yul\":11907:11990   */\n      tag_143\n      jump\t// in\n    tag_296:\n        /* \"#utility.yul\":10988:11997   */\n      swap8\n      swap7\n      pop\n      pop\n      pop\n      pop\n      pop\n      pop\n      pop\n      jump\t// out\n        /* \"#utility.yul\":12003:12225   */\n    tag_46:\n        /* \"#utility.yul\":12096:12100   */\n      0x00\n        /* \"#utility.yul\":12134:12136   */\n      0x20\n        /* \"#utility.yul\":12123:12132   */\n      dup3\n        /* \"#utility.yul\":12119:12137   */\n      add\n        /* \"#utility.yul\":12111:12137   */\n      swap1\n      pop\n        /* \"#utility.yul\":12147:12218   */\n      tag_298\n        /* \"#utility.yul\":12215:12216   */\n      0x00\n        /* \"#utility.yul\":12204:12213   */\n      dup4\n        /* \"#utility.yul\":12200:12217   */\n      add\n        /* \"#utility.yul\":12191:12197   */\n      dup5\n        /* \"#utility.yul\":12147:12218   */\n      tag_138\n      jump\t// in\n    tag_298:\n        /* \"#utility.yul\":12003:12225   */\n      swap3\n      swap2\n      pop\n      pop\n      jump\t// out\n        /* \"#utility.yul\":12231:12378   */\n    tag_144:\n        /* \"#utility.yul\":12332:12343   */\n      0x00\n        /* \"#utility.yul\":12369:12372   */\n      dup2\n        /* \"#utility.yul\":12354:12372   */\n      swap1\n      pop\n        /* \"#utility.yul\":12231:12378   */\n      swap3\n      swap2\n      pop\n      pop\n      jump\t// out\n        /* \"#utility.yul\":12384:12498   */\n    tag_145:\n      pop\n      jump\t// out\n        /* \"#utility.yul\":12504:12902   */\n    tag_146:\n        /* \"#utility.yul\":12663:12666   */\n      0x00\n        /* \"#utility.yul\":12684:12767   */\n      tag_302\n        /* \"#utility.yul\":12765:12766   */\n      0x00\n        /* \"#utility.yul\":12760:12763   */\n      dup4\n        /* \"#utility.yul\":12684:12767   */\n      tag_144\n      jump\t// in\n    tag_302:\n        /* \"#utility.yul\":12677:12767   */\n      swap2\n      pop\n        /* \"#utility.yul\":12776:12869   */\n      tag_303\n        /* \"#utility.yul\":12865:12868   */\n      dup3\n        /* \"#utility.yul\":12776:12869   */\n      tag_145\n      jump\t// in\n    tag_303:\n        /* \"#utility.yul\":12894:12895   */\n      0x00\n        /* \"#utility.yul\":12889:12892   */\n      dup3\n        /* \"#utility.yul\":12885:12896   */\n      add\n        /* \"#utility.yul\":12878:12896   */\n      swap1\n      pop\n        /* \"#utility.yul\":12504:12902   */\n      swap2\n      swap1\n      pop\n      jump\t// out\n        /* \"#utility.yul\":12908:13287   */\n    tag_58:\n        /* \"#utility.yul\":13092:13095   */\n      0x00\n        /* \"#utility.yul\":13114:13261   */\n      tag_305\n        /* \"#utility.yul\":13257:13260   */\n      dup3\n        /* \"#utility.yul\":13114:13261   */\n      tag_146\n      jump\t// in\n    tag_305:\n        /* \"#utility.yul\":13107:13261   */\n      swap2\n      pop\n        /* \"#utility.yul\":13278:13281   */\n      dup2\n        /* \"#utility.yul\":13271:13281   */\n      swap1\n      pop\n        /* \"#utility.yul\":12908:13287   */\n      swap2\n      swap1\n      pop\n      jump\t// out\n        /* \"#utility.yul\":13293:13473   */\n    tag_147:\n        /* \"#utility.yul\":13341:13418   */\n      0x4e487b7100000000000000000000000000000000000000000000000000000000\n        /* \"#utility.yul\":13338:13339   */\n      0x00\n        /* \"#utility.yul\":13331:13419   */\n      mstore\n        /* \"#utility.yul\":13438:13442   */\n      0x22\n        /* \"#utility.yul\":13435:13436   */\n      0x04\n        /* \"#utility.yul\":13428:13443   */\n      mstore\n        /* \"#utility.yul\":13462:13466   */\n      0x24\n        /* \"#utility.yul\":13459:13460   */\n      0x00\n        /* \"#utility.yul\":13452:13467   */\n      revert\n        /* \"#utility.yul\":13479:13799   */\n    tag_80:\n        /* \"#utility.yul\":13523:13529   */\n      0x00\n        /* \"#utility.yul\":13560:13561   */\n      0x02\n        /* \"#utility.yul\":13554:13558   */\n      dup3\n        /* \"#utility.yul\":13550:13562   */\n      div\n        /* \"#utility.yul\":13540:13562   */\n      swap1\n      pop\n        /* \"#utility.yul\":13607:13608   */\n      0x01\n        /* \"#utility.yul\":13601:13605   */\n      dup3\n        /* \"#utility.yul\":13597:13609   */\n      and\n        /* \"#utility.yul\":13628:13646   */\n      dup1\n        /* \"#utility.yul\":13618:13699   */\n      tag_308\n      jumpi\n        /* \"#utility.yul\":13684:13688   */\n      0x7f\n        /* \"#utility.yul\":13676:13682   */\n      dup3\n        /* \"#utility.yul\":13672:13689   */\n      and\n        /* \"#utility.yul\":13662:13689   */\n      swap2\n      pop\n        /* \"#utility.yul\":13618:13699   */\n    tag_308:\n        /* \"#utility.yul\":13746:13748   */\n      0x20\n        /* \"#utility.yul\":13738:13744   */\n      dup3\n        /* \"#utility.yul\":13735:13749   */\n      lt\n        /* \"#utility.yul\":13715:13733   */\n      dup2\n        /* \"#utility.yul\":13712:13750   */\n      sub\n        /* \"#utility.yul\":13709:13793   */\n      tag_309\n      jumpi\n        /* \"#utility.yul\":13765:13783   */\n      tag_310\n      tag_147\n      jump\t// in\n    tag_310:\n        /* \"#utility.yul\":13709:13793   */\n    tag_309:\n        /* \"#utility.yul\":13530:13799   */\n      pop\n        /* \"#utility.yul\":13479:13799   */\n      swap2\n      swap1\n      pop\n      jump\t// out\n        /* \"#utility.yul\":13805:13946   */\n    tag_148:\n        /* \"#utility.yul\":13854:13858   */\n      0x00\n        /* \"#utility.yul\":13877:13880   */\n      dup2\n        /* \"#utility.yul\":13869:13880   */\n      swap1\n      pop\n        /* \"#utility.yul\":13900:13903   */\n      dup2\n        /* \"#utility.yul\":13897:13898   */\n      0x00\n        /* \"#utility.yul\":13890:13904   */\n      mstore\n        /* \"#utility.yul\":13934:13938   */\n      0x20\n        /* \"#utility.yul\":13931:13932   */\n      0x00\n        /* \"#utility.yul\":13921:13939   */\n      keccak256\n        /* \"#utility.yul\":13913:13939   */\n      swap1\n      pop\n        /* \"#utility.yul\":13805:13946   */\n      swap2\n      swap1\n      pop\n      jump\t// out\n        /* \"#utility.yul\":13952:14045   */\n    tag_149:\n        /* \"#utility.yul\":13989:13995   */\n      0x00\n        /* \"#utility.yul\":14036:14038   */\n      0x20\n        /* \"#utility.yul\":14031:14033   */\n      0x1f\n        /* \"#utility.yul\":14024:14029   */\n      dup4\n        /* \"#utility.yul\":14020:14034   */\n      add\n        /* \"#utility.yul\":14016:14039   */\n      div\n        /* \"#utility.yul\":14006:14039   */\n      swap1\n      pop\n        /* \"#utility.yul\":13952:14045   */\n      swap2\n      swap1\n      pop\n      jump\t// out\n        /* \"#utility.yul\":14051:14158   */\n    tag_150:\n        /* \"#utility.yul\":14095:14103   */\n      0x00\n        /* \"#utility.yul\":14145:14150   */\n      dup3\n        /* \"#utility.yul\":14139:14143   */\n      dup3\n        /* \"#utility.yul\":14135:14151   */\n      shl\n        /* \"#utility.yul\":14114:14151   */\n      swap1\n      pop\n        /* \"#utility.yul\":14051:14158   */\n      swap3\n      swap2\n      pop\n      pop\n      jump\t// out\n        /* \"#utility.yul\":14164:14557   */\n    tag_151:\n        /* \"#utility.yul\":14233:14239   */\n      0x00\n        /* \"#utility.yul\":14283:14284   */\n      0x08\n        /* \"#utility.yul\":14271:14281   */\n      dup4\n        /* \"#utility.yul\":14267:14285   */\n      mul\n        /* \"#utility.yul\":14306:14403   */\n      tag_315\n        /* \"#utility.yul\":14336:14402   */\n      0xffffffffffffffffffffffffffffffffffffffffffffffffffffffffffffffff\n        /* \"#utility.yul\":14325:14334   */\n      dup3\n        /* \"#utility.yul\":14306:14403   */\n      tag_150\n      jump\t// in\n    tag_315:\n        /* \"#utility.yul\":14424:14463   */\n      tag_316\n        /* \"#utility.yul\":14454:14462   */\n      dup7\n        /* \"#utility.yul\":14443:14452   */\n      dup4\n        /* \"#utility.yul\":14424:14463   */\n      tag_150\n      jump\t// in\n    tag_316:\n        /* \"#utility.yul\":14412:14463   */\n      swap6\n      pop\n        /* \"#utility.yul\":14496:14500   */\n      dup1\n        /* \"#utility.yul\":14492:14501   */\n      not\n        /* \"#utility.yul\":14485:14490   */\n      dup5\n        /* \"#utility.yul\":14481:14502   */\n      and\n        /* \"#utility.yul\":14472:14502   */\n      swap4\n      pop\n        /* \"#utility.yul\":14545:14549   */\n      dup1\n        /* \"#utility.yul\":14535:14543   */\n      dup7\n        /* \"#utility.yul\":14531:14550   */\n      and\n        /* \"#utility.yul\":14524:14529   */\n      dup5\n        /* \"#utility.yul\":14521:14551   */\n      or\n        /* \"#utility.yul\":14511:14551   */\n      swap3\n      pop\n        /* \"#utility.yul\":14240:14557   */\n      pop\n      pop\n        /* \"#utility.yul\":14164:14557   */\n      swap4\n      swap3\n      pop\n      pop\n      pop\n      jump\t// out\n        /* \"#utility.yul\":14563:14623   */\n    tag_152:\n        /* \"#utility.yul\":14591:14594   */\n      0x00\n        /* \"#utility.yul\":14612:14617   */\n      dup2\n        /* \"#utility.yul\":14605:14617   */\n      swap1\n      pop\n        /* \"#utility.yul\":14563:14623   */\n      swap2\n      swap1\n      pop\n      jump\t// out\n        /* \"#utility.yul\":14629:14771   */\n    tag_153:\n        /* \"#utility.yul\":14679:14688   */\n      0x00\n        /* \"#utility.yul\":14712:14765   */\n      tag_319\n        /* \"#utility.yul\":14730:14764   */\n      tag_320\n        /* \"#utility.yul\":14739:14763   */\n      tag_321\n        /* \"#utility.yul\":14757:14762   */\n      dup5\n        /* \"#utility.yul\":14739:14763   */\n      tag_116\n      jump\t// in\n    tag_321:\n        /* \"#utility.yul\":14730:14764   */\n      tag_152\n      jump\t// in\n    tag_320:\n        /* \"#utility.yul\":14712:14765   */\n      tag_116\n      jump\t// in\n    tag_319:\n        /* \"#utility.yul\":14699:14765   */\n      swap1\n      pop\n        /* \"#utility.yul\":14629:14771   */\n      swap2\n      swap1\n      pop\n      jump\t// out\n        /* \"#utility.yul\":14777:14852   */\n    tag_154:\n        /* \"#utility.yul\":14820:14823   */\n      0x00\n        /* \"#utility.yul\":14841:14846   */\n      dup2\n        /* \"#utility.yul\":14834:14846   */\n      swap1\n      pop\n        /* \"#utility.yul\":14777:14852   */\n      swap2\n      swap1\n      pop\n      jump\t// out\n        /* \"#utility.yul\":14858:15127   */\n    tag_155:\n        /* \"#utility.yul\":14968:15007   */\n      tag_324\n        /* \"#utility.yul\":14999:15006   */\n      dup4\n        /* \"#utility.yul\":14968:15007   */\n      tag_153\n      jump\t// in\n    tag_324:\n        /* \"#utility.yul\":15029:15120   */\n      tag_325\n        /* \"#utility.yul\":15078:15119   */\n      tag_326\n        /* \"#utility.yul\":15102:15118   */\n      dup3\n        /* \"#utility.yul\":15078:15119   */\n      tag_154\n      jump\t// in\n    tag_326:\n        /* \"#utility.yul\":15070:15076   */\n      dup5\n        /* \"#utility.yul\":15063:15067   */\n      dup5\n        /* \"#utility.yul\":15057:15068   */\n      sload\n        /* \"#utility.yul\":15029:15120   */\n      tag_151\n      jump\t// in\n    tag_325:\n        /* \"#utility.yul\":15023:15027   */\n      dup3\n        /* \"#utility.yul\":15016:15121   */\n      sstore\n        /* \"#utility.yul\":14934:15127   */\n      pop\n        /* \"#utility.yul\":14858:15127   */\n      pop\n      pop\n      pop\n      jump\t// out\n        /* \"#utility.yul\":15133:15206   */\n    tag_156:\n        /* \"#utility.yul\":15178:15181   */\n      0x00\n        /* \"#utility.yul\":15133:15206   */\n      swap1\n      jump\t// out\n        /* \"#utility.yul\":15212:15401   */\n    tag_157:\n        /* \"#utility.yul\":15289:15321   */\n      tag_329\n      tag_156\n      jump\t// in\n    tag_329:\n        /* \"#utility.yul\":15330:15395   */\n      tag_330\n        /* \"#utility.yul\":15388:15394   */\n      dup2\n        /* \"#utility.yul\":15380:15386   */\n      dup5\n        /* \"#utility.yul\":15374:15378   */\n      dup5\n        /* \"#utility.yul\":15330:15395   */\n      tag_155\n      jump\t// in\n    tag_330:\n        /* \"#utility.yul\":15265:15401   */\n      pop\n        /* \"#utility.yul\":15212:15401   */\n      pop\n      pop\n      jump\t// out\n        /* \"#utility.yul\":15407:15593   */\n    tag_158:\n        /* \"#utility.yul\":15467:15587   */\n    tag_332:\n        /* \"#utility.yul\":15484:15487   */\n      dup2\n        /* \"#utility.yul\":15477:15482   */\n      dup2\n        /* \"#utility.yul\":15474:15488   */\n      lt\n        /* \"#utility.yul\":15467:15587   */\n      iszero\n      tag_334\n      jumpi\n        /* \"#utility.yul\":15538:15577   */\n      tag_335\n        /* \"#utility.yul\":15575:15576   */\n      0x00\n        /* \"#utility.yul\":15568:15573   */\n      dup3\n        /* \"#utility.yul\":15538:15577   */\n      tag_157\n      jump\t// in\n    tag_335:\n        /* \"#utility.yul\":15511:15512   */\n      0x01\n        /* \"#utility.yul\":15504:15509   */\n      dup2\n        /* \"#utility.yul\":15500:15513   */\n      add\n        /* \"#utility.yul\":15491:15513   */\n      swap1\n      pop\n        /* \"#utility.yul\":15467:15587   */\n      jump(tag_332)\n    tag_334:\n        /* \"#utility.yul\":15407:15593   */\n      pop\n      pop\n      jump\t// out\n        /* \"#utility.yul\":15599:16142   */\n    tag_159:\n        /* \"#utility.yul\":15700:15702   */\n      0x1f\n        /* \"#utility.yul\":15695:15698   */\n      dup3\n        /* \"#utility.yul\":15692:15703   */\n      gt\n        /* \"#utility.yul\":15689:16135   */\n      iszero\n      tag_337\n      jumpi\n        /* \"#utility.yul\":15734:15772   */\n      tag_338\n        /* \"#utility.yul\":15766:15771   */\n      dup2\n        /* \"#utility.yul\":15734:15772   */\n      tag_148\n      jump\t// in\n    tag_338:\n        /* \"#utility.yul\":15818:15847   */\n      tag_339\n        /* \"#utility.yul\":15836:15846   */\n      dup5\n        /* \"#utility.yul\":15818:15847   */\n      tag_149\n      jump\t// in\n    tag_339:\n        /* \"#utility.yul\":15808:15816   */\n      dup2\n        /* \"#utility.yul\":15804:15848   */\n      add\n        /* \"#utility.yul\":16001:16003   */\n      0x20\n        /* \"#utility.yul\":15989:15999   */\n      dup6\n        /* \"#utility.yul\":15986:16004   */\n      lt\n        /* \"#utility.yul\":15983:16032   */\n      iszero\n      tag_340\n      jumpi\n        /* \"#utility.yul\":16022:16030   */\n      dup2\n        /* \"#utility.yul\":16007:16030   */\n      swap1\n      pop\n        /* \"#utility.yul\":15983:16032   */\n    tag_340:\n        /* \"#utility.yul\":16045:16125   */\n      tag_341\n        /* \"#utility.yul\":16101:16123   */\n      tag_342\n        /* \"#utility.yul\":16119:16122   */\n      dup6\n        /* \"#utility.yul\":16101:16123   */\n      tag_149\n      jump\t// in\n    tag_342:\n        /* \"#utility.yul\":16091:16099   */\n      dup4\n        /* \"#utility.yul\":16087:16124   */\n      add\n        /* \"#utility.yul\":16074:16085   */\n      dup3\n        /* \"#utility.yul\":16045:16125   */\n      tag_158\n      jump\t// in\n    tag_341:\n        /* \"#utility.yul\":15704:16135   */\n      pop\n      pop\n        /* \"#utility.yul\":15689:16135   */\n    tag_337:\n        /* \"#utility.yul\":15599:16142   */\n      pop\n      pop\n      pop\n      jump\t// out\n        /* \"#utility.yul\":16148:16265   */\n    tag_160:\n        /* \"#utility.yul\":16202:16210   */\n      0x00\n        /* \"#utility.yul\":16252:16257   */\n      dup3\n        /* \"#utility.yul\":16246:16250   */\n      dup3\n        /* \"#utility.yul\":16242:16258   */\n      shr\n        /* \"#utility.yul\":16221:16258   */\n      swap1\n      pop\n        /* \"#utility.yul\":16148:16265   */\n      swap3\n      swap2\n      pop\n      pop\n      jump\t// out\n        /* \"#utility.yul\":16271:16440   */\n    tag_161:\n        /* \"#utility.yul\":16315:16321   */\n      0x00\n        /* \"#utility.yul\":16348:16399   */\n      tag_345\n        /* \"#utility.yul\":16396:16397   */\n      0x00\n        /* \"#utility.yul\":16392:16398   */\n      not\n        /* \"#utility.yul\":16384:16389   */\n      dup5\n        /* \"#utility.yul\":16381:16382   */\n      0x08\n        /* \"#utility.yul\":16377:16390   */\n      mul\n        /* \"#utility.yul\":16348:16399   */\n      tag_160\n      jump\t// in\n    tag_345:\n        /* \"#utility.yul\":16344:16400   */\n      not\n        /* \"#utility.yul\":16429:16433   */\n      dup1\n        /* \"#utility.yul\":16423:16427   */\n      dup4\n        /* \"#utility.yul\":16419:16434   */\n      and\n        /* \"#utility.yul\":16409:16434   */\n      swap2\n      pop\n        /* \"#utility.yul\":16322:16440   */\n      pop\n        /* \"#utility.yul\":16271:16440   */\n      swap3\n      swap2\n      pop\n      pop\n      jump\t// out\n        /* \"#utility.yul\":16445:16740   */\n    tag_162:\n        /* \"#utility.yul\":16521:16525   */\n      0x00\n        /* \"#utility.yul\":16667:16696   */\n      tag_347\n        /* \"#utility.yul\":16692:16695   */\n      dup4\n        /* \"#utility.yul\":16686:16690   */\n      dup4\n        /* \"#utility.yul\":16667:16696   */\n      tag_161\n      jump\t// in\n    tag_347:\n        /* \"#utility.yul\":16659:16696   */\n      swap2\n      pop\n        /* \"#utility.yul\":16729:16732   */\n      dup3\n        /* \"#utility.yul\":16726:16727   */\n      0x02\n        /* \"#utility.yul\":16722:16733   */\n      mul\n        /* \"#utility.yul\":16716:16720   */\n      dup3\n        /* \"#utility.yul\":16713:16734   */\n      or\n        /* \"#utility.yul\":16705:16734   */\n      swap1\n      pop\n        /* \"#utility.yul\":16445:16740   */\n      swap3\n      swap2\n      pop\n      pop\n      jump\t// out\n        /* \"#utility.yul\":16745:18140   */\n    tag_69:\n        /* \"#utility.yul\":16862:16899   */\n      tag_349\n        /* \"#utility.yul\":16895:16898   */\n      dup3\n        /* \"#utility.yul\":16862:16899   */\n      tag_135\n      jump\t// in\n    tag_349:\n        /* \"#utility.yul\":16964:16982   */\n      0xffffffffffffffff\n        /* \"#utility.yul\":16956:16962   */\n      dup2\n        /* \"#utility.yul\":16953:16983   */\n      gt\n        /* \"#utility.yul\":16950:17006   */\n      iszero\n      tag_350\n      jumpi\n        /* \"#utility.yul\":16986:17004   */\n      tag_351\n      tag_122\n      jump\t// in\n    tag_351:\n        /* \"#utility.yul\":16950:17006   */\n    tag_350:\n        /* \"#utility.yul\":17030:17068   */\n      tag_352\n        /* \"#utility.yul\":17062:17066   */\n      dup3\n        /* \"#utility.yul\":17056:17067   */\n      sload\n        /* \"#utility.yul\":17030:17068   */\n      tag_80\n      jump\t// in\n    tag_352:\n        /* \"#utility.yul\":17115:17182   */\n      tag_353\n        /* \"#utility.yul\":17175:17181   */\n      dup3\n        /* \"#utility.yul\":17167:17173   */\n      dup3\n        /* \"#utility.yul\":17161:17165   */\n      dup6\n        /* \"#utility.yul\":17115:17182   */\n      tag_159\n      jump\t// in\n    tag_353:\n        /* \"#utility.yul\":17209:17210   */\n      0x00\n        /* \"#utility.yul\":17233:17237   */\n      0x20\n        /* \"#utility.yul\":17220:17237   */\n      swap1\n      pop\n        /* \"#utility.yul\":17265:17267   */\n      0x1f\n        /* \"#utility.yul\":17257:17263   */\n      dup4\n        /* \"#utility.yul\":17254:17268   */\n      gt\n        /* \"#utility.yul\":17282:17283   */\n      0x01\n        /* \"#utility.yul\":17277:17895   */\n      dup2\n      eq\n      tag_355\n      jumpi\n        /* \"#utility.yul\":17939:17940   */\n      0x00\n        /* \"#utility.yul\":17956:17962   */\n      dup5\n        /* \"#utility.yul\":17953:18030   */\n      iszero\n      tag_356\n      jumpi\n        /* \"#utility.yul\":18005:18014   */\n      dup3\n        /* \"#utility.yul\":18000:18003   */\n      dup8\n        /* \"#utility.yul\":17996:18015   */\n      add\n        /* \"#utility.yul\":17990:18016   */\n      mload\n        /* \"#utility.yul\":17981:18016   */\n      swap1\n      pop\n        /* \"#utility.yul\":17953:18030   */\n    tag_356:\n        /* \"#utility.yul\":18056:18123   */\n      tag_357\n        /* \"#utility.yul\":18116:18122   */\n      dup6\n        /* \"#utility.yul\":18109:18114   */\n      dup3\n        /* \"#utility.yul\":18056:18123   */\n      tag_162\n      jump\t// in\n    tag_357:\n        /* \"#utility.yul\":18050:18054   */\n      dup7\n        /* \"#utility.yul\":18043:18124   */\n      sstore\n        /* \"#utility.yul\":17912:18134   */\n      pop\n        /* \"#utility.yul\":17247:18134   */\n      jump(tag_354)\n        /* \"#utility.yul\":17277:17895   */\n    tag_355:\n        /* \"#utility.yul\":17329:17333   */\n      0x1f\n        /* \"#utility.yul\":17325:17334   */\n      not\n        /* \"#utility.yul\":17317:17323   */\n      dup5\n        /* \"#utility.yul\":17313:17335   */\n      and\n        /* \"#utility.yul\":17363:17400   */\n      tag_358\n        /* \"#utility.yul\":17395:17399   */\n      dup7\n        /* \"#utility.yul\":17363:17400   */\n      tag_148\n      jump\t// in\n    tag_358:\n        /* \"#utility.yul\":17422:17423   */\n      0x00\n        /* \"#utility.yul\":17436:17644   */\n    tag_359:\n        /* \"#utility.yul\":17450:17457   */\n      dup3\n        /* \"#utility.yul\":17447:17448   */\n      dup2\n        /* \"#utility.yul\":17444:17458   */\n      lt\n        /* \"#utility.yul\":17436:17644   */\n      iszero\n      tag_361\n      jumpi\n        /* \"#utility.yul\":17529:17538   */\n      dup5\n        /* \"#utility.yul\":17524:17527   */\n      dup10\n        /* \"#utility.yul\":17520:17539   */\n      add\n        /* \"#utility.yul\":17514:17540   */\n      mload\n        /* \"#utility.yul\":17506:17512   */\n      dup3\n        /* \"#utility.yul\":17499:17541   */\n      sstore\n        /* \"#utility.yul\":17580:17581   */\n      0x01\n        /* \"#utility.yul\":17572:17578   */\n      dup3\n        /* \"#utility.yul\":17568:17582   */\n      add\n        /* \"#utility.yul\":17558:17582   */\n      swap2\n      pop\n        /* \"#utility.yul\":17627:17629   */\n      0x20\n        /* \"#utility.yul\":17616:17625   */\n      dup6\n        /* \"#utility.yul\":17612:17630   */\n      add\n        /* \"#utility.yul\":17599:17630   */\n      swap5\n      pop\n        /* \"#utility.yul\":17473:17477   */\n      0x20\n        /* \"#utility.yul\":17470:17471   */\n      dup2\n        /* \"#utility.yul\":17466:17478   */\n      add\n        /* \"#utility.yul\":17461:17478   */\n      swap1\n      pop\n        /* \"#utility.yul\":17436:17644   */\n      jump(tag_359)\n    tag_361:\n        /* \"#utility.yul\":17672:17678   */\n      dup7\n        /* \"#utility.yul\":17663:17670   */\n      dup4\n        /* \"#utility.yul\":17660:17679   */\n      lt\n        /* \"#utility.yul\":17657:17836   */\n      iszero\n      tag_362\n      jumpi\n        /* \"#utility.yul\":17730:17739   */\n      dup5\n        /* \"#utility.yul\":17725:17728   */\n      dup10\n        /* \"#utility.yul\":17721:17740   */\n      add\n        /* \"#utility.yul\":17715:17741   */\n      mload\n        /* \"#utility.yul\":17773:17821   */\n      tag_363\n        /* \"#utility.yul\":17815:17819   */\n      0x1f\n        /* \"#utility.yul\":17807:17813   */\n      dup10\n        /* \"#utility.yul\":17803:17820   */\n      and\n        /* \"#utility.yul\":17792:17801   */\n      dup3\n        /* \"#utility.yul\":17773:17821   */\n      tag_161\n      jump\t// in\n    tag_363:\n        /* \"#utility.yul\":17765:17771   */\n      dup4\n        /* \"#utility.yul\":17758:17822   */\n      sstore\n        /* \"#utility.yul\":17680:17836   */\n      pop\n        /* \"#utility.yul\":17657:17836   */\n    tag_362:\n        /* \"#utility.yul\":17882:17883   */\n      0x01\n        /* \"#utility.yul\":17878:17879   */\n      0x02\n        /* \"#utility.yul\":17870:17876   */\n      dup9\n        /* \"#utility.yul\":17866:17880   */\n      mul\n        /* \"#utility.yul\":17862:17884   */\n      add\n        /* \"#utility.yul\":17856:17860   */\n      dup9\n        /* \"#utility.yul\":17849:17885   */\n      sstore\n        /* \"#utility.yul\":17284:17895   */\n      pop\n      pop\n      pop\n        /* \"#utility.yul\":17247:18134   */\n    tag_354:\n      pop\n        /* \"#utility.yul\":16837:18140   */\n      pop\n      pop\n      pop\n        /* \"#utility.yul\":16745:18140   */\n      pop\n      pop\n      jump\t// out\n        /* \"#utility.yul\":18146:18382   */\n    tag_163:\n        /* \"#utility.yul\":18286:18320   */\n      0x752063616e277420646f207472616e73616374696f6e2063757a2066756e6469\n        /* \"#utility.yul\":18282:18283   */\n      0x00\n        /* \"#utility.yul\":18274:18280   */\n      dup3\n        /* \"#utility.yul\":18270:18284   */\n      add\n        /* \"#utility.yul\":18263:18321   */\n      mstore\n        /* \"#utility.yul\":18355:18374   */\n      0x6e6720617265206e6f7420616374697665000000000000000000000000000000\n        /* \"#utility.yul\":18350:18352   */\n      0x20\n        /* \"#utility.yul\":18342:18348   */\n      dup3\n        /* \"#utility.yul\":18338:18353   */\n      add\n        /* \"#utility.yul\":18331:18375   */\n      mstore\n        /* \"#utility.yul\":18146:18382   */\n      pop\n      jump\t// out\n        /* \"#utility.yul\":18388:18754   */\n    tag_164:\n        /* \"#utility.yul\":18530:18533   */\n      0x00\n        /* \"#utility.yul\":18551:18618   */\n      tag_366\n        /* \"#utility.yul\":18615:18617   */\n      0x31\n        /* \"#utility.yul\":18610:18613   */\n      dup4\n        /* \"#utility.yul\":18551:18618   */\n      tag_106\n      jump\t// in\n    tag_366:\n        /* \"#utility.yul\":18544:18618   */\n      swap2\n      pop\n        /* \"#utility.yul\":18627:18720   */\n      tag_367\n        /* \"#utility.yul\":18716:18719   */\n      dup3\n        /* \"#utility.yul\":18627:18720   */\n      tag_163\n      jump\t// in\n    tag_367:\n        /* \"#utility.yul\":18745:18747   */\n      0x40\n        /* \"#utility.yul\":18740:18743   */\n      dup3\n        /* \"#utility.yul\":18736:18748   */\n      add\n        /* \"#utility.yul\":18729:18748   */\n      swap1\n      pop\n        /* \"#utility.yul\":18388:18754   */\n      swap2\n      swap1\n      pop\n      jump\t// out\n        /* \"#utility.yul\":18760:19179   */\n    tag_76:\n        /* \"#utility.yul\":18926:18930   */\n      0x00\n        /* \"#utility.yul\":18964:18966   */\n      0x20\n        /* \"#utility.yul\":18953:18962   */\n      dup3\n        /* \"#utility.yul\":18949:18967   */\n      add\n        /* \"#utility.yul\":18941:18967   */\n      swap1\n      pop\n        /* \"#utility.yul\":19013:19022   */\n      dup2\n        /* \"#utility.yul\":19007:19011   */\n      dup2\n        /* \"#utility.yul\":19003:19023   */\n      sub\n        /* \"#utility.yul\":18999:19000   */\n      0x00\n        /* \"#utility.yul\":18988:18997   */\n      dup4\n        /* \"#utility.yul\":18984:19001   */\n      add\n        /* \"#utility.yul\":18977:19024   */\n      mstore\n        /* \"#utility.yul\":19041:19172   */\n      tag_369\n        /* \"#utility.yul\":19167:19171   */\n      dup2\n        /* \"#utility.yul\":19041:19172   */\n      tag_164\n      jump\t// in\n    tag_369:\n        /* \"#utility.yul\":19033:19172   */\n      swap1\n      pop\n        /* \"#utility.yul\":18760:19179   */\n      swap2\n      swap1\n      pop\n      jump\t// out\n        /* \"#utility.yul\":19185:19365   */\n    tag_165:\n        /* \"#utility.yul\":19233:19310   */\n      0x4e487b7100000000000000000000000000000000000000000000000000000000\n        /* \"#utility.yul\":19230:19231   */\n      0x00\n        /* \"#utility.yul\":19223:19311   */\n      mstore\n        /* \"#utility.yul\":19330:19334   */\n      0x11\n        /* \"#utility.yul\":19327:19328   */\n      0x04\n        /* \"#utility.yul\":19320:19335   */\n      mstore\n        /* \"#utility.yul\":19354:19358   */\n      0x24\n        /* \"#utility.yul\":19351:19352   */\n      0x00\n        /* \"#utility.yul\":19344:19359   */\n      revert\n        /* \"#utility.yul\":19371:19562   */\n    tag_104:\n        /* \"#utility.yul\":19411:19414   */\n      0x00\n        /* \"#utility.yul\":19430:19450   */\n      tag_372\n        /* \"#utility.yul\":19448:19449   */\n      dup3\n        /* \"#utility.yul\":19430:19450   */\n      tag_116\n      jump\t// in\n    tag_372:\n        /* \"#utility.yul\":19425:19450   */\n      swap2\n      pop\n        /* \"#utility.yul\":19464:19484   */\n      tag_373\n        /* \"#utility.yul\":19482:19483   */\n      dup4\n        /* \"#utility.yul\":19464:19484   */\n      tag_116\n      jump\t// in\n    tag_373:\n        /* \"#utility.yul\":19459:19484   */\n      swap3\n      pop\n        /* \"#utility.yul\":19507:19508   */\n      dup3\n        /* \"#utility.yul\":19504:19505   */\n      dup3\n        /* \"#utility.yul\":19500:19509   */\n      add\n        /* \"#utility.yul\":19493:19509   */\n      swap1\n      pop\n        /* \"#utility.yul\":19528:19531   */\n      dup1\n        /* \"#utility.yul\":19525:19526   */\n      dup3\n        /* \"#utility.yul\":19522:19532   */\n      gt\n        /* \"#utility.yul\":19519:19555   */\n      iszero\n      tag_374\n      jumpi\n        /* \"#utility.yul\":19535:19553   */\n      tag_375\n      tag_165\n      jump\t// in\n    tag_375:\n        /* \"#utility.yul\":19519:19555   */\n    tag_374:\n        /* \"#utility.yul\":19371:19562   */\n      swap3\n      swap2\n      pop\n      pop\n      jump\t// out\n\n    auxdata: 0xa26469706673582212205abb2d193d484d8f990be9f2f67d2fbe91c490638fd906aee1d1087c38b02d9b64736f6c63430008160033\n}\n",
				"bytecode": {
					"linkReferences": {},
					"object": "6080604052603c5f556801158e460913d00000600255348015610020575f80fd5b503360015f6101000a81548173ffffffffffffffffffffffffffffffffffffffff021916908373ffffffffffffffffffffffffffffffffffffffff1602179055506112128061006e5f395ff3fe608060405260043610610089575f3560e01c80637b8e8895116100585780637b8e8895146101535780638da5cb5b14610194578063db7eb849146101be578063ea3bbb56146101da578063fba939f8146101e4576100c5565b806309e63d25146100c9578063475d0b00146100e5578063540473e81461010d5780636d7b350a14610137576100c5565b366100c5577f5b84a1ed0648cc0987f6ea793a1d3932265e7d81f09e71f41707eee986b810b06040516100bb9061080c565b60405180910390a1005b5f80fd5b6100e360048036038101906100de91906108c8565b61020e565b005b3480156100f0575f80fd5b5061010b60048036038101906101069190610aa0565b610284565b005b348015610118575f80fd5b50610121610411565b60405161012e9190610b70565b60405180910390f35b610151600480360381019061014c9190610b89565b610416565b005b34801561015e575f80fd5b5061017960048036038101906101749190610c38565b610460565b60405161018b96959493929190610d5e565b60405180910390f35b34801561019f575f80fd5b506101a86105fe565b6040516101b59190610dcb565b60405180910390f35b6101d860048036038101906101d39190610b89565b610623565b005b6101e26107aa565b005b3480156101ef575f80fd5b506101f86107ac565b6040516102059190610b70565b60405180910390f35b5f8273ffffffffffffffffffffffffffffffffffffffff168260405161023390610e11565b5f6040518083038185875af1925050503d805f811461026d576040519150601f19603f3d011682016040523d82523d5f602084013e610272565b606091505b505090508061027f575f80fd5b505050565b60036040518060c001604052808881526020018781526020018681526020018573ffffffffffffffffffffffffffffffffffffffff1681526020018473ffffffffffffffffffffffffffffffffffffffff1681526020018360018111156102ee576102ed610ceb565b5b815250908060018154018082558091505060019003905f5260205f2090600502015f909190919091505f820151815f01908161032a919061101f565b506020820151816001019081610340919061101f565b50604082015181600201556060820151816003015f6101000a81548173ffffffffffffffffffffffffffffffffffffffff021916908373ffffffffffffffffffffffffffffffffffffffff1602179055506080820151816004015f6101000a81548173ffffffffffffffffffffffffffffffffffffffff021916908373ffffffffffffffffffffffffffffffffffffffff16021790555060a08201518160040160146101000a81548160ff0219169083600181111561040257610401610ceb565b5b02179055505050505050505050565b5f5481565b61042585858585856001610284565b6040517f08c379a00000000000000000000000000000000000000000000000000000000081526004016104579061115e565b60405180910390fd5b6003818154811061046f575f80fd5b905f5260205f2090600502015f91509050805f01805461048e90610e52565b80601f01602080910402602001604051908101604052809291908181526020018280546104ba90610e52565b80156105055780601f106104dc57610100808354040283529160200191610505565b820191905f5260205f20905b8154815290600101906020018083116104e857829003601f168201915b50505050509080600101805461051a90610e52565b80601f016020809104026020016040519081016040528092919081815260200182805461054690610e52565b80156105915780601f1061056857610100808354040283529160200191610591565b820191905f5260205f20905b81548152906001019060200180831161057457829003601f168201915b505050505090806002015490806003015f9054906101000a900473ffffffffffffffffffffffffffffffffffffffff1690806004015f9054906101000a900473ffffffffffffffffffffffffffffffffffffffff16908060040160149054906101000a900460ff16905086565b60015f9054906101000a900473ffffffffffffffffffffffffffffffffffffffff1681565b60015f9054906101000a900473ffffffffffffffffffffffffffffffffffffffff1673ffffffffffffffffffffffffffffffffffffffff163373ffffffffffffffffffffffffffffffffffffffff161461067b575f80fd5b61068985858585855f610284565b5f73ffffffffffffffffffffffffffffffffffffffff168273ffffffffffffffffffffffffffffffffffffffff16036106c0575f80fd5b8160015f6101000a81548173ffffffffffffffffffffffffffffffffffffffff021916908373ffffffffffffffffffffffffffffffffffffffff1602179055506002548303610785575f4790505f8373ffffffffffffffffffffffffffffffffffffffff168260405161073290610e11565b5f6040518083038185875af1925050503d805f811461076c576040519150601f19603f3d011682016040523d82523d5f602084013e610771565b606091505b505090508061077e575f80fd5b50506107a3565b60025483146107a2575f479050348161079e91906111a9565b9050505b5b5050505050565b565b60025481565b5f82825260208201905092915050565b7f616d6f756e74207265636569766564207375636365737366756c6c79000000005f82015250565b5f6107f6601c836107b2565b9150610801826107c2565b602082019050919050565b5f6020820190508181035f830152610823816107ea565b9050919050565b5f604051905090565b5f80fd5b5f80fd5b5f73ffffffffffffffffffffffffffffffffffffffff82169050919050565b5f6108648261083b565b9050919050565b6108748161085a565b811461087e575f80fd5b50565b5f8135905061088f8161086b565b92915050565b5f819050919050565b6108a781610895565b81146108b1575f80fd5b50565b5f813590506108c28161089e565b92915050565b5f80604083850312156108de576108dd610833565b5b5f6108eb85828601610881565b92505060206108fc858286016108b4565b9150509250929050565b5f80fd5b5f80fd5b5f601f19601f8301169050919050565b7f4e487b71000000000000000000000000000000000000000000000000000000005f52604160045260245ffd5b6109548261090e565b810181811067ffffffffffffffff821117156109735761097261091e565b5b80604052505050565b5f61098561082a565b9050610991828261094b565b919050565b5f67ffffffffffffffff8211156109b0576109af61091e565b5b6109b98261090e565b9050602081019050919050565b828183375f83830152505050565b5f6109e66109e184610996565b61097c565b905082815260208101848484011115610a0257610a0161090a565b5b610a0d8482856109c6565b509392505050565b5f82601f830112610a2957610a28610906565b5b8135610a398482602086016109d4565b91505092915050565b5f610a4c8261083b565b9050919050565b610a5c81610a42565b8114610a66575f80fd5b50565b5f81359050610a7781610a53565b92915050565b60028110610a89575f80fd5b50565b5f81359050610a9a81610a7d565b92915050565b5f805f805f8060c08789031215610aba57610ab9610833565b5b5f87013567ffffffffffffffff811115610ad757610ad6610837565b5b610ae389828a01610a15565b965050602087013567ffffffffffffffff811115610b0457610b03610837565b5b610b1089828a01610a15565b9550506040610b2189828a016108b4565b9450506060610b3289828a01610a69565b9350506080610b4389828a01610881565b92505060a0610b5489828a01610a8c565b9150509295509295509295565b610b6a81610895565b82525050565b5f602082019050610b835f830184610b61565b92915050565b5f805f805f60a08688031215610ba257610ba1610833565b5b5f86013567ffffffffffffffff811115610bbf57610bbe610837565b5b610bcb88828901610a15565b955050602086013567ffffffffffffffff811115610bec57610beb610837565b5b610bf888828901610a15565b9450506040610c09888289016108b4565b9350506060610c1a88828901610881565b9250506080610c2b88828901610881565b9150509295509295909350565b5f60208284031215610c4d57610c4c610833565b5b5f610c5a848285016108b4565b91505092915050565b5f81519050919050565b5f5b83811015610c8a578082015181840152602081019050610c6f565b5f8484015250505050565b5f610c9f82610c63565b610ca981856107b2565b9350610cb9818560208601610c6d565b610cc28161090e565b840191505092915050565b610cd681610a42565b82525050565b610ce58161085a565b82525050565b7f4e487b71000000000000000000000000000000000000000000000000000000005f52602160045260245ffd5b60028110610d2957610d28610ceb565b5b50565b5f819050610d3982610d18565b919050565b5f610d4882610d2c565b9050919050565b610d5881610d3e565b82525050565b5f60c0820190508181035f830152610d768189610c95565b90508181036020830152610d8a8188610c95565b9050610d996040830187610b61565b610da66060830186610ccd565b610db36080830185610cdc565b610dc060a0830184610d4f565b979650505050505050565b5f602082019050610dde5f830184610ccd565b92915050565b5f81905092915050565b50565b5f610dfc5f83610de4565b9150610e0782610dee565b5f82019050919050565b5f610e1b82610df1565b9150819050919050565b7f4e487b71000000000000000000000000000000000000000000000000000000005f52602260045260245ffd5b5f6002820490506001821680610e6957607f821691505b602082108103610e7c57610e7b610e25565b5b50919050565b5f819050815f5260205f209050919050565b5f6020601f8301049050919050565b5f82821b905092915050565b5f60088302610ede7fffffffffffffffffffffffffffffffffffffffffffffffffffffffffffffffff82610ea3565b610ee88683610ea3565b95508019841693508086168417925050509392505050565b5f819050919050565b5f610f23610f1e610f1984610895565b610f00565b610895565b9050919050565b5f819050919050565b610f3c83610f09565b610f50610f4882610f2a565b848454610eaf565b825550505050565b5f90565b610f64610f58565b610f6f818484610f33565b505050565b5b81811015610f9257610f875f82610f5c565b600181019050610f75565b5050565b601f821115610fd757610fa881610e82565b610fb184610e94565b81016020851015610fc0578190505b610fd4610fcc85610e94565b830182610f74565b50505b505050565b5f82821c905092915050565b5f610ff75f1984600802610fdc565b1980831691505092915050565b5f61100f8383610fe8565b9150826002028217905092915050565b61102882610c63565b67ffffffffffffffff8111156110415761104061091e565b5b61104b8254610e52565b611056828285610f96565b5f60209050601f831160018114611087575f8415611075578287015190505b61107f8582611004565b8655506110e6565b601f19841661109586610e82565b5f5b828110156110bc57848901518255600182019150602085019450602081019050611097565b868310156110d957848901516110d5601f891682610fe8565b8355505b6001600288020188555050505b505050505050565b7f752063616e277420646f207472616e73616374696f6e2063757a2066756e64695f8201527f6e6720617265206e6f7420616374697665000000000000000000000000000000602082015250565b5f6111486031836107b2565b9150611153826110ee565b604082019050919050565b5f6020820190508181035f8301526111758161113c565b9050919050565b7f4e487b71000000000000000000000000000000000000000000000000000000005f52601160045260245ffd5b5f6111b382610895565b91506111be83610895565b92508282019050808211156111d6576111d561117c565b5b9291505056fea26469706673582212205abb2d193d484d8f990be9f2f67d2fbe91c490638fd906aee1d1087c38b02d9b64736f6c63430008160033",
					"opcodes": "PUSH1 0x80 PUSH1 0x40 MSTORE PUSH1 0x3C PUSH0 SSTORE PUSH9 0x1158E460913D00000 PUSH1 0x2 SSTORE CALLVALUE DUP1 ISZERO PUSH2 0x20 JUMPI PUSH0 DUP1 REVERT JUMPDEST POP CALLER PUSH1 0x1 PUSH0 PUSH2 0x100 EXP DUP2 SLOAD DUP2 PUSH20 0xFFFFFFFFFFFFFFFFFFFFFFFFFFFFFFFFFFFFFFFF MUL NOT AND SWAP1 DUP4 PUSH20 0xFFFFFFFFFFFFFFFFFFFFFFFFFFFFFFFFFFFFFFFF AND MUL OR SWAP1 SSTORE POP PUSH2 0x1212 DUP1 PUSH2 0x6E PUSH0 CODECOPY PUSH0 RETURN INVALID PUSH1 0x80 PUSH1 0x40 MSTORE PUSH1 0x4 CALLDATASIZE LT PUSH2 0x89 JUMPI PUSH0 CALLDATALOAD PUSH1 0xE0 SHR DUP1 PUSH4 0x7B8E8895 GT PUSH2 0x58 JUMPI DUP1 PUSH4 0x7B8E8895 EQ PUSH2 0x153 JUMPI DUP1 PUSH4 0x8DA5CB5B EQ PUSH2 0x194 JUMPI DUP1 PUSH4 0xDB7EB849 EQ PUSH2 0x1BE JUMPI DUP1 PUSH4 0xEA3BBB56 EQ PUSH2 0x1DA JUMPI DUP1 PUSH4 0xFBA939F8 EQ PUSH2 0x1E4 JUMPI PUSH2 0xC5 JUMP JUMPDEST DUP1 PUSH4 0x9E63D25 EQ PUSH2 0xC9 JUMPI DUP1 PUSH4 0x475D0B00 EQ PUSH2 0xE5 JUMPI DUP1 PUSH4 0x540473E8 EQ PUSH2 0x10D JUMPI DUP1 PUSH4 0x6D7B350A EQ PUSH2 0x137 JUMPI PUSH2 0xC5 JUMP JUMPDEST CALLDATASIZE PUSH2 0xC5 JUMPI PUSH32 0x5B84A1ED0648CC0987F6EA793A1D3932265E7D81F09E71F41707EEE986B810B0 PUSH1 0x40 MLOAD PUSH2 0xBB SWAP1 PUSH2 0x80C JUMP JUMPDEST PUSH1 0x40 MLOAD DUP1 SWAP2 SUB SWAP1 LOG1 STOP JUMPDEST PUSH0 DUP1 REVERT JUMPDEST PUSH2 0xE3 PUSH1 0x4 DUP1 CALLDATASIZE SUB DUP2 ADD SWAP1 PUSH2 0xDE SWAP2 SWAP1 PUSH2 0x8C8 JUMP JUMPDEST PUSH2 0x20E JUMP JUMPDEST STOP JUMPDEST CALLVALUE DUP1 ISZERO PUSH2 0xF0 JUMPI PUSH0 DUP1 REVERT JUMPDEST POP PUSH2 0x10B PUSH1 0x4 DUP1 CALLDATASIZE SUB DUP2 ADD SWAP1 PUSH2 0x106 SWAP2 SWAP1 PUSH2 0xAA0 JUMP JUMPDEST PUSH2 0x284 JUMP JUMPDEST STOP JUMPDEST CALLVALUE DUP1 ISZERO PUSH2 0x118 JUMPI PUSH0 DUP1 REVERT JUMPDEST POP PUSH2 0x121 PUSH2 0x411 JUMP JUMPDEST PUSH1 0x40 MLOAD PUSH2 0x12E SWAP2 SWAP1 PUSH2 0xB70 JUMP JUMPDEST PUSH1 0x40 MLOAD DUP1 SWAP2 SUB SWAP1 RETURN JUMPDEST PUSH2 0x151 PUSH1 0x4 DUP1 CALLDATASIZE SUB DUP2 ADD SWAP1 PUSH2 0x14C SWAP2 SWAP1 PUSH2 0xB89 JUMP JUMPDEST PUSH2 0x416 JUMP JUMPDEST STOP JUMPDEST CALLVALUE DUP1 ISZERO PUSH2 0x15E JUMPI PUSH0 DUP1 REVERT JUMPDEST POP PUSH2 0x179 PUSH1 0x4 DUP1 CALLDATASIZE SUB DUP2 ADD SWAP1 PUSH2 0x174 SWAP2 SWAP1 PUSH2 0xC38 JUMP JUMPDEST PUSH2 0x460 JUMP JUMPDEST PUSH1 0x40 MLOAD PUSH2 0x18B SWAP7 SWAP6 SWAP5 SWAP4 SWAP3 SWAP2 SWAP1 PUSH2 0xD5E JUMP JUMPDEST PUSH1 0x40 MLOAD DUP1 SWAP2 SUB SWAP1 RETURN JUMPDEST CALLVALUE DUP1 ISZERO PUSH2 0x19F JUMPI PUSH0 DUP1 REVERT JUMPDEST POP PUSH2 0x1A8 PUSH2 0x5FE JUMP JUMPDEST PUSH1 0x40 MLOAD PUSH2 0x1B5 SWAP2 SWAP1 PUSH2 0xDCB JUMP JUMPDEST PUSH1 0x40 MLOAD DUP1 SWAP2 SUB SWAP1 RETURN JUMPDEST PUSH2 0x1D8 PUSH1 0x4 DUP1 CALLDATASIZE SUB DUP2 ADD SWAP1 PUSH2 0x1D3 SWAP2 SWAP1 PUSH2 0xB89 JUMP JUMPDEST PUSH2 0x623 JUMP JUMPDEST STOP JUMPDEST PUSH2 0x1E2 PUSH2 0x7AA JUMP JUMPDEST STOP JUMPDEST CALLVALUE DUP1 ISZERO PUSH2 0x1EF JUMPI PUSH0 DUP1 REVERT JUMPDEST POP PUSH2 0x1F8 PUSH2 0x7AC JUMP JUMPDEST PUSH1 0x40 MLOAD PUSH2 0x205 SWAP2 SWAP1 PUSH2 0xB70 JUMP JUMPDEST PUSH1 0x40 MLOAD DUP1 SWAP2 SUB SWAP1 RETURN JUMPDEST PUSH0 DUP3 PUSH20 0xFFFFFFFFFFFFFFFFFFFFFFFFFFFFFFFFFFFFFFFF AND DUP3 PUSH1 0x40 MLOAD PUSH2 0x233 SWAP1 PUSH2 0xE11 JUMP JUMPDEST PUSH0 PUSH1 0x40 MLOAD DUP1 DUP4 SUB DUP2 DUP6 DUP8 GAS CALL SWAP3 POP POP POP RETURNDATASIZE DUP1 PUSH0 DUP2 EQ PUSH2 0x26D JUMPI PUSH1 0x40 MLOAD SWAP2 POP PUSH1 0x1F NOT PUSH1 0x3F RETURNDATASIZE ADD AND DUP3 ADD PUSH1 0x40 MSTORE RETURNDATASIZE DUP3 MSTORE RETURNDATASIZE PUSH0 PUSH1 0x20 DUP5 ADD RETURNDATACOPY PUSH2 0x272 JUMP JUMPDEST PUSH1 0x60 SWAP2 POP JUMPDEST POP POP SWAP1 POP DUP1 PUSH2 0x27F JUMPI PUSH0 DUP1 REVERT JUMPDEST POP POP POP JUMP JUMPDEST PUSH1 0x3 PUSH1 0x40 MLOAD DUP1 PUSH1 0xC0 ADD PUSH1 0x40 MSTORE DUP1 DUP9 DUP2 MSTORE PUSH1 0x20 ADD DUP8 DUP2 MSTORE PUSH1 0x20 ADD DUP7 DUP2 MSTORE PUSH1 0x20 ADD DUP6 PUSH20 0xFFFFFFFFFFFFFFFFFFFFFFFFFFFFFFFFFFFFFFFF AND DUP2 MSTORE PUSH1 0x20 ADD DUP5 PUSH20 0xFFFFFFFFFFFFFFFFFFFFFFFFFFFFFFFFFFFFFFFF AND DUP2 MSTORE PUSH1 0x20 ADD DUP4 PUSH1 0x1 DUP2 GT ISZERO PUSH2 0x2EE JUMPI PUSH2 0x2ED PUSH2 0xCEB JUMP JUMPDEST JUMPDEST DUP2 MSTORE POP SWAP1 DUP1 PUSH1 0x1 DUP2 SLOAD ADD DUP1 DUP3 SSTORE DUP1 SWAP2 POP POP PUSH1 0x1 SWAP1 SUB SWAP1 PUSH0 MSTORE PUSH1 0x20 PUSH0 KECCAK256 SWAP1 PUSH1 0x5 MUL ADD PUSH0 SWAP1 SWAP2 SWAP1 SWAP2 SWAP1 SWAP2 POP PUSH0 DUP3 ADD MLOAD DUP2 PUSH0 ADD SWAP1 DUP2 PUSH2 0x32A SWAP2 SWAP1 PUSH2 0x101F JUMP JUMPDEST POP PUSH1 0x20 DUP3 ADD MLOAD DUP2 PUSH1 0x1 ADD SWAP1 DUP2 PUSH2 0x340 SWAP2 SWAP1 PUSH2 0x101F JUMP JUMPDEST POP PUSH1 0x40 DUP3 ADD MLOAD DUP2 PUSH1 0x2 ADD SSTORE PUSH1 0x60 DUP3 ADD MLOAD DUP2 PUSH1 0x3 ADD PUSH0 PUSH2 0x100 EXP DUP2 SLOAD DUP2 PUSH20 0xFFFFFFFFFFFFFFFFFFFFFFFFFFFFFFFFFFFFFFFF MUL NOT AND SWAP1 DUP4 PUSH20 0xFFFFFFFFFFFFFFFFFFFFFFFFFFFFFFFFFFFFFFFF AND MUL OR SWAP1 SSTORE POP PUSH1 0x80 DUP3 ADD MLOAD DUP2 PUSH1 0x4 ADD PUSH0 PUSH2 0x100 EXP DUP2 SLOAD DUP2 PUSH20 0xFFFFFFFFFFFFFFFFFFFFFFFFFFFFFFFFFFFFFFFF MUL NOT AND SWAP1 DUP4 PUSH20 0xFFFFFFFFFFFFFFFFFFFFFFFFFFFFFFFFFFFFFFFF AND MUL OR SWAP1 SSTORE POP PUSH1 0xA0 DUP3 ADD MLOAD DUP2 PUSH1 0x4 ADD PUSH1 0x14 PUSH2 0x100 EXP DUP2 SLOAD DUP2 PUSH1 0xFF MUL NOT AND SWAP1 DUP4 PUSH1 0x1 DUP2 GT ISZERO PUSH2 0x402 JUMPI PUSH2 0x401 PUSH2 0xCEB JUMP JUMPDEST JUMPDEST MUL OR SWAP1 SSTORE POP POP POP POP POP POP POP POP POP JUMP JUMPDEST PUSH0 SLOAD DUP2 JUMP JUMPDEST PUSH2 0x425 DUP6 DUP6 DUP6 DUP6 DUP6 PUSH1 0x1 PUSH2 0x284 JUMP JUMPDEST PUSH1 0x40 MLOAD PUSH32 0x8C379A000000000000000000000000000000000000000000000000000000000 DUP2 MSTORE PUSH1 0x4 ADD PUSH2 0x457 SWAP1 PUSH2 0x115E JUMP JUMPDEST PUSH1 0x40 MLOAD DUP1 SWAP2 SUB SWAP1 REVERT JUMPDEST PUSH1 0x3 DUP2 DUP2 SLOAD DUP2 LT PUSH2 0x46F JUMPI PUSH0 DUP1 REVERT JUMPDEST SWAP1 PUSH0 MSTORE PUSH1 0x20 PUSH0 KECCAK256 SWAP1 PUSH1 0x5 MUL ADD PUSH0 SWAP2 POP SWAP1 POP DUP1 PUSH0 ADD DUP1 SLOAD PUSH2 0x48E SWAP1 PUSH2 0xE52 JUMP JUMPDEST DUP1 PUSH1 0x1F ADD PUSH1 0x20 DUP1 SWAP2 DIV MUL PUSH1 0x20 ADD PUSH1 0x40 MLOAD SWAP1 DUP2 ADD PUSH1 0x40 MSTORE DUP1 SWAP3 SWAP2 SWAP1 DUP2 DUP2 MSTORE PUSH1 0x20 ADD DUP3 DUP1 SLOAD PUSH2 0x4BA SWAP1 PUSH2 0xE52 JUMP JUMPDEST DUP1 ISZERO PUSH2 0x505 JUMPI DUP1 PUSH1 0x1F LT PUSH2 0x4DC JUMPI PUSH2 0x100 DUP1 DUP4 SLOAD DIV MUL DUP4 MSTORE SWAP2 PUSH1 0x20 ADD SWAP2 PUSH2 0x505 JUMP JUMPDEST DUP3 ADD SWAP2 SWAP1 PUSH0 MSTORE PUSH1 0x20 PUSH0 KECCAK256 SWAP1 JUMPDEST DUP2 SLOAD DUP2 MSTORE SWAP1 PUSH1 0x1 ADD SWAP1 PUSH1 0x20 ADD DUP1 DUP4 GT PUSH2 0x4E8 JUMPI DUP3 SWAP1 SUB PUSH1 0x1F AND DUP3 ADD SWAP2 JUMPDEST POP POP POP POP POP SWAP1 DUP1 PUSH1 0x1 ADD DUP1 SLOAD PUSH2 0x51A SWAP1 PUSH2 0xE52 JUMP JUMPDEST DUP1 PUSH1 0x1F ADD PUSH1 0x20 DUP1 SWAP2 DIV MUL PUSH1 0x20 ADD PUSH1 0x40 MLOAD SWAP1 DUP2 ADD PUSH1 0x40 MSTORE DUP1 SWAP3 SWAP2 SWAP1 DUP2 DUP2 MSTORE PUSH1 0x20 ADD DUP3 DUP1 SLOAD PUSH2 0x546 SWAP1 PUSH2 0xE52 JUMP JUMPDEST DUP1 ISZERO PUSH2 0x591 JUMPI DUP1 PUSH1 0x1F LT PUSH2 0x568 JUMPI PUSH2 0x100 DUP1 DUP4 SLOAD DIV MUL DUP4 MSTORE SWAP2 PUSH1 0x20 ADD SWAP2 PUSH2 0x591 JUMP JUMPDEST DUP3 ADD SWAP2 SWAP1 PUSH0 MSTORE PUSH1 0x20 PUSH0 KECCAK256 SWAP1 JUMPDEST DUP2 SLOAD DUP2 MSTORE SWAP1 PUSH1 0x1 ADD SWAP1 PUSH1 0x20 ADD DUP1 DUP4 GT PUSH2 0x574 JUMPI DUP3 SWAP1 SUB PUSH1 0x1F AND DUP3 ADD SWAP2 JUMPDEST POP POP POP POP POP SWAP1 DUP1 PUSH1 0x2 ADD SLOAD SWAP1 DUP1 PUSH1 0x3 ADD PUSH0 SWAP1 SLOAD SWAP1 PUSH2 0x100 EXP SWAP1 DIV PUSH20 0xFFFFFFFFFFFFFFFFFFFFFFFFFFFFFFFFFFFFFFFF AND SWAP1 DUP1 PUSH1 0x4 ADD PUSH0 SWAP1 SLOAD SWAP1 PUSH2 0x100 EXP SWAP1 DIV PUSH20 0xFFFFFFFFFFFFFFFFFFFFFFFFFFFFFFFFFFFFFFFF AND SWAP1 DUP1 PUSH1 0x4 ADD PUSH1 0x14 SWAP1 SLOAD SWAP1 PUSH2 0x100 EXP SWAP1 DIV PUSH1 0xFF AND SWAP1 POP DUP7 JUMP JUMPDEST PUSH1 0x1 PUSH0 SWAP1 SLOAD SWAP1 PUSH2 0x100 EXP SWAP1 DIV PUSH20 0xFFFFFFFFFFFFFFFFFFFFFFFFFFFFFFFFFFFFFFFF AND DUP2 JUMP JUMPDEST PUSH1 0x1 PUSH0 SWAP1 SLOAD SWAP1 PUSH2 0x100 EXP SWAP1 DIV PUSH20 0xFFFFFFFFFFFFFFFFFFFFFFFFFFFFFFFFFFFFFFFF AND PUSH20 0xFFFFFFFFFFFFFFFFFFFFFFFFFFFFFFFFFFFFFFFF AND CALLER PUSH20 0xFFFFFFFFFFFFFFFFFFFFFFFFFFFFFFFFFFFFFFFF AND EQ PUSH2 0x67B JUMPI PUSH0 DUP1 REVERT JUMPDEST PUSH2 0x689 DUP6 DUP6 DUP6 DUP6 DUP6 PUSH0 PUSH2 0x284 JUMP JUMPDEST PUSH0 PUSH20 0xFFFFFFFFFFFFFFFFFFFFFFFFFFFFFFFFFFFFFFFF AND DUP3 PUSH20 0xFFFFFFFFFFFFFFFFFFFFFFFFFFFFFFFFFFFFFFFF AND SUB PUSH2 0x6C0 JUMPI PUSH0 DUP1 REVERT JUMPDEST DUP2 PUSH1 0x1 PUSH0 PUSH2 0x100 EXP DUP2 SLOAD DUP2 PUSH20 0xFFFFFFFFFFFFFFFFFFFFFFFFFFFFFFFFFFFFFFFF MUL NOT AND SWAP1 DUP4 PUSH20 0xFFFFFFFFFFFFFFFFFFFFFFFFFFFFFFFFFFFFFFFF AND MUL OR SWAP1 SSTORE POP PUSH1 0x2 SLOAD DUP4 SUB PUSH2 0x785 JUMPI PUSH0 SELFBALANCE SWAP1 POP PUSH0 DUP4 PUSH20 0xFFFFFFFFFFFFFFFFFFFFFFFFFFFFFFFFFFFFFFFF AND DUP3 PUSH1 0x40 MLOAD PUSH2 0x732 SWAP1 PUSH2 0xE11 JUMP JUMPDEST PUSH0 PUSH1 0x40 MLOAD DUP1 DUP4 SUB DUP2 DUP6 DUP8 GAS CALL SWAP3 POP POP POP RETURNDATASIZE DUP1 PUSH0 DUP2 EQ PUSH2 0x76C JUMPI PUSH1 0x40 MLOAD SWAP2 POP PUSH1 0x1F NOT PUSH1 0x3F RETURNDATASIZE ADD AND DUP3 ADD PUSH1 0x40 MSTORE RETURNDATASIZE DUP3 MSTORE RETURNDATASIZE PUSH0 PUSH1 0x20 DUP5 ADD RETURNDATACOPY PUSH2 0x771 JUMP JUMPDEST PUSH1 0x60 SWAP2 POP JUMPDEST POP POP SWAP1 POP DUP1 PUSH2 0x77E JUMPI PUSH0 DUP1 REVERT JUMPDEST POP POP PUSH2 0x7A3 JUMP JUMPDEST PUSH1 0x2 SLOAD DUP4 EQ PUSH2 0x7A2 JUMPI PUSH0 SELFBALANCE SWAP1 POP CALLVALUE DUP2 PUSH2 0x79E SWAP2 SWAP1 PUSH2 0x11A9 JUMP JUMPDEST SWAP1 POP POP JUMPDEST JUMPDEST POP POP POP POP POP JUMP JUMPDEST JUMP JUMPDEST PUSH1 0x2 SLOAD DUP2 JUMP JUMPDEST PUSH0 DUP3 DUP3 MSTORE PUSH1 0x20 DUP3 ADD SWAP1 POP SWAP3 SWAP2 POP POP JUMP JUMPDEST PUSH32 0x616D6F756E74207265636569766564207375636365737366756C6C7900000000 PUSH0 DUP3 ADD MSTORE POP JUMP JUMPDEST PUSH0 PUSH2 0x7F6 PUSH1 0x1C DUP4 PUSH2 0x7B2 JUMP JUMPDEST SWAP2 POP PUSH2 0x801 DUP3 PUSH2 0x7C2 JUMP JUMPDEST PUSH1 0x20 DUP3 ADD SWAP1 POP SWAP2 SWAP1 POP JUMP JUMPDEST PUSH0 PUSH1 0x20 DUP3 ADD SWAP1 POP DUP2 DUP2 SUB PUSH0 DUP4 ADD MSTORE PUSH2 0x823 DUP2 PUSH2 0x7EA JUMP JUMPDEST SWAP1 POP SWAP2 SWAP1 POP JUMP JUMPDEST PUSH0 PUSH1 0x40 MLOAD SWAP1 POP SWAP1 JUMP JUMPDEST PUSH0 DUP1 REVERT JUMPDEST PUSH0 DUP1 REVERT JUMPDEST PUSH0 PUSH20 0xFFFFFFFFFFFFFFFFFFFFFFFFFFFFFFFFFFFFFFFF DUP3 AND SWAP1 POP SWAP2 SWAP1 POP JUMP JUMPDEST PUSH0 PUSH2 0x864 DUP3 PUSH2 0x83B JUMP JUMPDEST SWAP1 POP SWAP2 SWAP1 POP JUMP JUMPDEST PUSH2 0x874 DUP2 PUSH2 0x85A JUMP JUMPDEST DUP2 EQ PUSH2 0x87E JUMPI PUSH0 DUP1 REVERT JUMPDEST POP JUMP JUMPDEST PUSH0 DUP2 CALLDATALOAD SWAP1 POP PUSH2 0x88F DUP2 PUSH2 0x86B JUMP JUMPDEST SWAP3 SWAP2 POP POP JUMP JUMPDEST PUSH0 DUP2 SWAP1 POP SWAP2 SWAP1 POP JUMP JUMPDEST PUSH2 0x8A7 DUP2 PUSH2 0x895 JUMP JUMPDEST DUP2 EQ PUSH2 0x8B1 JUMPI PUSH0 DUP1 REVERT JUMPDEST POP JUMP JUMPDEST PUSH0 DUP2 CALLDATALOAD SWAP1 POP PUSH2 0x8C2 DUP2 PUSH2 0x89E JUMP JUMPDEST SWAP3 SWAP2 POP POP JUMP JUMPDEST PUSH0 DUP1 PUSH1 0x40 DUP4 DUP6 SUB SLT ISZERO PUSH2 0x8DE JUMPI PUSH2 0x8DD PUSH2 0x833 JUMP JUMPDEST JUMPDEST PUSH0 PUSH2 0x8EB DUP6 DUP3 DUP7 ADD PUSH2 0x881 JUMP JUMPDEST SWAP3 POP POP PUSH1 0x20 PUSH2 0x8FC DUP6 DUP3 DUP7 ADD PUSH2 0x8B4 JUMP JUMPDEST SWAP2 POP POP SWAP3 POP SWAP3 SWAP1 POP JUMP JUMPDEST PUSH0 DUP1 REVERT JUMPDEST PUSH0 DUP1 REVERT JUMPDEST PUSH0 PUSH1 0x1F NOT PUSH1 0x1F DUP4 ADD AND SWAP1 POP SWAP2 SWAP1 POP JUMP JUMPDEST PUSH32 0x4E487B7100000000000000000000000000000000000000000000000000000000 PUSH0 MSTORE PUSH1 0x41 PUSH1 0x4 MSTORE PUSH1 0x24 PUSH0 REVERT JUMPDEST PUSH2 0x954 DUP3 PUSH2 0x90E JUMP JUMPDEST DUP2 ADD DUP2 DUP2 LT PUSH8 0xFFFFFFFFFFFFFFFF DUP3 GT OR ISZERO PUSH2 0x973 JUMPI PUSH2 0x972 PUSH2 0x91E JUMP JUMPDEST JUMPDEST DUP1 PUSH1 0x40 MSTORE POP POP POP JUMP JUMPDEST PUSH0 PUSH2 0x985 PUSH2 0x82A JUMP JUMPDEST SWAP1 POP PUSH2 0x991 DUP3 DUP3 PUSH2 0x94B JUMP JUMPDEST SWAP2 SWAP1 POP JUMP JUMPDEST PUSH0 PUSH8 0xFFFFFFFFFFFFFFFF DUP3 GT ISZERO PUSH2 0x9B0 JUMPI PUSH2 0x9AF PUSH2 0x91E JUMP JUMPDEST JUMPDEST PUSH2 0x9B9 DUP3 PUSH2 0x90E JUMP JUMPDEST SWAP1 POP PUSH1 0x20 DUP2 ADD SWAP1 POP SWAP2 SWAP1 POP JUMP JUMPDEST DUP3 DUP2 DUP4 CALLDATACOPY PUSH0 DUP4 DUP4 ADD MSTORE POP POP POP JUMP JUMPDEST PUSH0 PUSH2 0x9E6 PUSH2 0x9E1 DUP5 PUSH2 0x996 JUMP JUMPDEST PUSH2 0x97C JUMP JUMPDEST SWAP1 POP DUP3 DUP2 MSTORE PUSH1 0x20 DUP2 ADD DUP5 DUP5 DUP5 ADD GT ISZERO PUSH2 0xA02 JUMPI PUSH2 0xA01 PUSH2 0x90A JUMP JUMPDEST JUMPDEST PUSH2 0xA0D DUP5 DUP3 DUP6 PUSH2 0x9C6 JUMP JUMPDEST POP SWAP4 SWAP3 POP POP POP JUMP JUMPDEST PUSH0 DUP3 PUSH1 0x1F DUP4 ADD SLT PUSH2 0xA29 JUMPI PUSH2 0xA28 PUSH2 0x906 JUMP JUMPDEST JUMPDEST DUP2 CALLDATALOAD PUSH2 0xA39 DUP5 DUP3 PUSH1 0x20 DUP7 ADD PUSH2 0x9D4 JUMP JUMPDEST SWAP2 POP POP SWAP3 SWAP2 POP POP JUMP JUMPDEST PUSH0 PUSH2 0xA4C DUP3 PUSH2 0x83B JUMP JUMPDEST SWAP1 POP SWAP2 SWAP1 POP JUMP JUMPDEST PUSH2 0xA5C DUP2 PUSH2 0xA42 JUMP JUMPDEST DUP2 EQ PUSH2 0xA66 JUMPI PUSH0 DUP1 REVERT JUMPDEST POP JUMP JUMPDEST PUSH0 DUP2 CALLDATALOAD SWAP1 POP PUSH2 0xA77 DUP2 PUSH2 0xA53 JUMP JUMPDEST SWAP3 SWAP2 POP POP JUMP JUMPDEST PUSH1 0x2 DUP2 LT PUSH2 0xA89 JUMPI PUSH0 DUP1 REVERT JUMPDEST POP JUMP JUMPDEST PUSH0 DUP2 CALLDATALOAD SWAP1 POP PUSH2 0xA9A DUP2 PUSH2 0xA7D JUMP JUMPDEST SWAP3 SWAP2 POP POP JUMP JUMPDEST PUSH0 DUP1 PUSH0 DUP1 PUSH0 DUP1 PUSH1 0xC0 DUP8 DUP10 SUB SLT ISZERO PUSH2 0xABA JUMPI PUSH2 0xAB9 PUSH2 0x833 JUMP JUMPDEST JUMPDEST PUSH0 DUP8 ADD CALLDATALOAD PUSH8 0xFFFFFFFFFFFFFFFF DUP2 GT ISZERO PUSH2 0xAD7 JUMPI PUSH2 0xAD6 PUSH2 0x837 JUMP JUMPDEST JUMPDEST PUSH2 0xAE3 DUP10 DUP3 DUP11 ADD PUSH2 0xA15 JUMP JUMPDEST SWAP7 POP POP PUSH1 0x20 DUP8 ADD CALLDATALOAD PUSH8 0xFFFFFFFFFFFFFFFF DUP2 GT ISZERO PUSH2 0xB04 JUMPI PUSH2 0xB03 PUSH2 0x837 JUMP JUMPDEST JUMPDEST PUSH2 0xB10 DUP10 DUP3 DUP11 ADD PUSH2 0xA15 JUMP JUMPDEST SWAP6 POP POP PUSH1 0x40 PUSH2 0xB21 DUP10 DUP3 DUP11 ADD PUSH2 0x8B4 JUMP JUMPDEST SWAP5 POP POP PUSH1 0x60 PUSH2 0xB32 DUP10 DUP3 DUP11 ADD PUSH2 0xA69 JUMP JUMPDEST SWAP4 POP POP PUSH1 0x80 PUSH2 0xB43 DUP10 DUP3 DUP11 ADD PUSH2 0x881 JUMP JUMPDEST SWAP3 POP POP PUSH1 0xA0 PUSH2 0xB54 DUP10 DUP3 DUP11 ADD PUSH2 0xA8C JUMP JUMPDEST SWAP2 POP POP SWAP3 SWAP6 POP SWAP3 SWAP6 POP SWAP3 SWAP6 JUMP JUMPDEST PUSH2 0xB6A DUP2 PUSH2 0x895 JUMP JUMPDEST DUP3 MSTORE POP POP JUMP JUMPDEST PUSH0 PUSH1 0x20 DUP3 ADD SWAP1 POP PUSH2 0xB83 PUSH0 DUP4 ADD DUP5 PUSH2 0xB61 JUMP JUMPDEST SWAP3 SWAP2 POP POP JUMP JUMPDEST PUSH0 DUP1 PUSH0 DUP1 PUSH0 PUSH1 0xA0 DUP7 DUP9 SUB SLT ISZERO PUSH2 0xBA2 JUMPI PUSH2 0xBA1 PUSH2 0x833 JUMP JUMPDEST JUMPDEST PUSH0 DUP7 ADD CALLDATALOAD PUSH8 0xFFFFFFFFFFFFFFFF DUP2 GT ISZERO PUSH2 0xBBF JUMPI PUSH2 0xBBE PUSH2 0x837 JUMP JUMPDEST JUMPDEST PUSH2 0xBCB DUP9 DUP3 DUP10 ADD PUSH2 0xA15 JUMP JUMPDEST SWAP6 POP POP PUSH1 0x20 DUP7 ADD CALLDATALOAD PUSH8 0xFFFFFFFFFFFFFFFF DUP2 GT ISZERO PUSH2 0xBEC JUMPI PUSH2 0xBEB PUSH2 0x837 JUMP JUMPDEST JUMPDEST PUSH2 0xBF8 DUP9 DUP3 DUP10 ADD PUSH2 0xA15 JUMP JUMPDEST SWAP5 POP POP PUSH1 0x40 PUSH2 0xC09 DUP9 DUP3 DUP10 ADD PUSH2 0x8B4 JUMP JUMPDEST SWAP4 POP POP PUSH1 0x60 PUSH2 0xC1A DUP9 DUP3 DUP10 ADD PUSH2 0x881 JUMP JUMPDEST SWAP3 POP POP PUSH1 0x80 PUSH2 0xC2B DUP9 DUP3 DUP10 ADD PUSH2 0x881 JUMP JUMPDEST SWAP2 POP POP SWAP3 SWAP6 POP SWAP3 SWAP6 SWAP1 SWAP4 POP JUMP JUMPDEST PUSH0 PUSH1 0x20 DUP3 DUP5 SUB SLT ISZERO PUSH2 0xC4D JUMPI PUSH2 0xC4C PUSH2 0x833 JUMP JUMPDEST JUMPDEST PUSH0 PUSH2 0xC5A DUP5 DUP3 DUP6 ADD PUSH2 0x8B4 JUMP JUMPDEST SWAP2 POP POP SWAP3 SWAP2 POP POP JUMP JUMPDEST PUSH0 DUP2 MLOAD SWAP1 POP SWAP2 SWAP1 POP JUMP JUMPDEST PUSH0 JUMPDEST DUP4 DUP2 LT ISZERO PUSH2 0xC8A JUMPI DUP1 DUP3 ADD MLOAD DUP2 DUP5 ADD MSTORE PUSH1 0x20 DUP2 ADD SWAP1 POP PUSH2 0xC6F JUMP JUMPDEST PUSH0 DUP5 DUP5 ADD MSTORE POP POP POP POP JUMP JUMPDEST PUSH0 PUSH2 0xC9F DUP3 PUSH2 0xC63 JUMP JUMPDEST PUSH2 0xCA9 DUP2 DUP6 PUSH2 0x7B2 JUMP JUMPDEST SWAP4 POP PUSH2 0xCB9 DUP2 DUP6 PUSH1 0x20 DUP7 ADD PUSH2 0xC6D JUMP JUMPDEST PUSH2 0xCC2 DUP2 PUSH2 0x90E JUMP JUMPDEST DUP5 ADD SWAP2 POP POP SWAP3 SWAP2 POP POP JUMP JUMPDEST PUSH2 0xCD6 DUP2 PUSH2 0xA42 JUMP JUMPDEST DUP3 MSTORE POP POP JUMP JUMPDEST PUSH2 0xCE5 DUP2 PUSH2 0x85A JUMP JUMPDEST DUP3 MSTORE POP POP JUMP JUMPDEST PUSH32 0x4E487B7100000000000000000000000000000000000000000000000000000000 PUSH0 MSTORE PUSH1 0x21 PUSH1 0x4 MSTORE PUSH1 0x24 PUSH0 REVERT JUMPDEST PUSH1 0x2 DUP2 LT PUSH2 0xD29 JUMPI PUSH2 0xD28 PUSH2 0xCEB JUMP JUMPDEST JUMPDEST POP JUMP JUMPDEST PUSH0 DUP2 SWAP1 POP PUSH2 0xD39 DUP3 PUSH2 0xD18 JUMP JUMPDEST SWAP2 SWAP1 POP JUMP JUMPDEST PUSH0 PUSH2 0xD48 DUP3 PUSH2 0xD2C JUMP JUMPDEST SWAP1 POP SWAP2 SWAP1 POP JUMP JUMPDEST PUSH2 0xD58 DUP2 PUSH2 0xD3E JUMP JUMPDEST DUP3 MSTORE POP POP JUMP JUMPDEST PUSH0 PUSH1 0xC0 DUP3 ADD SWAP1 POP DUP2 DUP2 SUB PUSH0 DUP4 ADD MSTORE PUSH2 0xD76 DUP2 DUP10 PUSH2 0xC95 JUMP JUMPDEST SWAP1 POP DUP2 DUP2 SUB PUSH1 0x20 DUP4 ADD MSTORE PUSH2 0xD8A DUP2 DUP9 PUSH2 0xC95 JUMP JUMPDEST SWAP1 POP PUSH2 0xD99 PUSH1 0x40 DUP4 ADD DUP8 PUSH2 0xB61 JUMP JUMPDEST PUSH2 0xDA6 PUSH1 0x60 DUP4 ADD DUP7 PUSH2 0xCCD JUMP JUMPDEST PUSH2 0xDB3 PUSH1 0x80 DUP4 ADD DUP6 PUSH2 0xCDC JUMP JUMPDEST PUSH2 0xDC0 PUSH1 0xA0 DUP4 ADD DUP5 PUSH2 0xD4F JUMP JUMPDEST SWAP8 SWAP7 POP POP POP POP POP POP POP JUMP JUMPDEST PUSH0 PUSH1 0x20 DUP3 ADD SWAP1 POP PUSH2 0xDDE PUSH0 DUP4 ADD DUP5 PUSH2 0xCCD JUMP JUMPDEST SWAP3 SWAP2 POP POP JUMP JUMPDEST PUSH0 DUP2 SWAP1 POP SWAP3 SWAP2 POP POP JUMP JUMPDEST POP JUMP JUMPDEST PUSH0 PUSH2 0xDFC PUSH0 DUP4 PUSH2 0xDE4 JUMP JUMPDEST SWAP2 POP PUSH2 0xE07 DUP3 PUSH2 0xDEE JUMP JUMPDEST PUSH0 DUP3 ADD SWAP1 POP SWAP2 SWAP1 POP JUMP JUMPDEST PUSH0 PUSH2 0xE1B DUP3 PUSH2 0xDF1 JUMP JUMPDEST SWAP2 POP DUP2 SWAP1 POP SWAP2 SWAP1 POP JUMP JUMPDEST PUSH32 0x4E487B7100000000000000000000000000000000000000000000000000000000 PUSH0 MSTORE PUSH1 0x22 PUSH1 0x4 MSTORE PUSH1 0x24 PUSH0 REVERT JUMPDEST PUSH0 PUSH1 0x2 DUP3 DIV SWAP1 POP PUSH1 0x1 DUP3 AND DUP1 PUSH2 0xE69 JUMPI PUSH1 0x7F DUP3 AND SWAP2 POP JUMPDEST PUSH1 0x20 DUP3 LT DUP2 SUB PUSH2 0xE7C JUMPI PUSH2 0xE7B PUSH2 0xE25 JUMP JUMPDEST JUMPDEST POP SWAP2 SWAP1 POP JUMP JUMPDEST PUSH0 DUP2 SWAP1 POP DUP2 PUSH0 MSTORE PUSH1 0x20 PUSH0 KECCAK256 SWAP1 POP SWAP2 SWAP1 POP JUMP JUMPDEST PUSH0 PUSH1 0x20 PUSH1 0x1F DUP4 ADD DIV SWAP1 POP SWAP2 SWAP1 POP JUMP JUMPDEST PUSH0 DUP3 DUP3 SHL SWAP1 POP SWAP3 SWAP2 POP POP JUMP JUMPDEST PUSH0 PUSH1 0x8 DUP4 MUL PUSH2 0xEDE PUSH32 0xFFFFFFFFFFFFFFFFFFFFFFFFFFFFFFFFFFFFFFFFFFFFFFFFFFFFFFFFFFFFFFFF DUP3 PUSH2 0xEA3 JUMP JUMPDEST PUSH2 0xEE8 DUP7 DUP4 PUSH2 0xEA3 JUMP JUMPDEST SWAP6 POP DUP1 NOT DUP5 AND SWAP4 POP DUP1 DUP7 AND DUP5 OR SWAP3 POP POP POP SWAP4 SWAP3 POP POP POP JUMP JUMPDEST PUSH0 DUP2 SWAP1 POP SWAP2 SWAP1 POP JUMP JUMPDEST PUSH0 PUSH2 0xF23 PUSH2 0xF1E PUSH2 0xF19 DUP5 PUSH2 0x895 JUMP JUMPDEST PUSH2 0xF00 JUMP JUMPDEST PUSH2 0x895 JUMP JUMPDEST SWAP1 POP SWAP2 SWAP1 POP JUMP JUMPDEST PUSH0 DUP2 SWAP1 POP SWAP2 SWAP1 POP JUMP JUMPDEST PUSH2 0xF3C DUP4 PUSH2 0xF09 JUMP JUMPDEST PUSH2 0xF50 PUSH2 0xF48 DUP3 PUSH2 0xF2A JUMP JUMPDEST DUP5 DUP5 SLOAD PUSH2 0xEAF JUMP JUMPDEST DUP3 SSTORE POP POP POP POP JUMP JUMPDEST PUSH0 SWAP1 JUMP JUMPDEST PUSH2 0xF64 PUSH2 0xF58 JUMP JUMPDEST PUSH2 0xF6F DUP2 DUP5 DUP5 PUSH2 0xF33 JUMP JUMPDEST POP POP POP JUMP JUMPDEST JUMPDEST DUP2 DUP2 LT ISZERO PUSH2 0xF92 JUMPI PUSH2 0xF87 PUSH0 DUP3 PUSH2 0xF5C JUMP JUMPDEST PUSH1 0x1 DUP2 ADD SWAP1 POP PUSH2 0xF75 JUMP JUMPDEST POP POP JUMP JUMPDEST PUSH1 0x1F DUP3 GT ISZERO PUSH2 0xFD7 JUMPI PUSH2 0xFA8 DUP2 PUSH2 0xE82 JUMP JUMPDEST PUSH2 0xFB1 DUP5 PUSH2 0xE94 JUMP JUMPDEST DUP2 ADD PUSH1 0x20 DUP6 LT ISZERO PUSH2 0xFC0 JUMPI DUP2 SWAP1 POP JUMPDEST PUSH2 0xFD4 PUSH2 0xFCC DUP6 PUSH2 0xE94 JUMP JUMPDEST DUP4 ADD DUP3 PUSH2 0xF74 JUMP JUMPDEST POP POP JUMPDEST POP POP POP JUMP JUMPDEST PUSH0 DUP3 DUP3 SHR SWAP1 POP SWAP3 SWAP2 POP POP JUMP JUMPDEST PUSH0 PUSH2 0xFF7 PUSH0 NOT DUP5 PUSH1 0x8 MUL PUSH2 0xFDC JUMP JUMPDEST NOT DUP1 DUP4 AND SWAP2 POP POP SWAP3 SWAP2 POP POP JUMP JUMPDEST PUSH0 PUSH2 0x100F DUP4 DUP4 PUSH2 0xFE8 JUMP JUMPDEST SWAP2 POP DUP3 PUSH1 0x2 MUL DUP3 OR SWAP1 POP SWAP3 SWAP2 POP POP JUMP JUMPDEST PUSH2 0x1028 DUP3 PUSH2 0xC63 JUMP JUMPDEST PUSH8 0xFFFFFFFFFFFFFFFF DUP2 GT ISZERO PUSH2 0x1041 JUMPI PUSH2 0x1040 PUSH2 0x91E JUMP JUMPDEST JUMPDEST PUSH2 0x104B DUP3 SLOAD PUSH2 0xE52 JUMP JUMPDEST PUSH2 0x1056 DUP3 DUP3 DUP6 PUSH2 0xF96 JUMP JUMPDEST PUSH0 PUSH1 0x20 SWAP1 POP PUSH1 0x1F DUP4 GT PUSH1 0x1 DUP2 EQ PUSH2 0x1087 JUMPI PUSH0 DUP5 ISZERO PUSH2 0x1075 JUMPI DUP3 DUP8 ADD MLOAD SWAP1 POP JUMPDEST PUSH2 0x107F DUP6 DUP3 PUSH2 0x1004 JUMP JUMPDEST DUP7 SSTORE POP PUSH2 0x10E6 JUMP JUMPDEST PUSH1 0x1F NOT DUP5 AND PUSH2 0x1095 DUP7 PUSH2 0xE82 JUMP JUMPDEST PUSH0 JUMPDEST DUP3 DUP2 LT ISZERO PUSH2 0x10BC JUMPI DUP5 DUP10 ADD MLOAD DUP3 SSTORE PUSH1 0x1 DUP3 ADD SWAP2 POP PUSH1 0x20 DUP6 ADD SWAP5 POP PUSH1 0x20 DUP2 ADD SWAP1 POP PUSH2 0x1097 JUMP JUMPDEST DUP7 DUP4 LT ISZERO PUSH2 0x10D9 JUMPI DUP5 DUP10 ADD MLOAD PUSH2 0x10D5 PUSH1 0x1F DUP10 AND DUP3 PUSH2 0xFE8 JUMP JUMPDEST DUP4 SSTORE POP JUMPDEST PUSH1 0x1 PUSH1 0x2 DUP9 MUL ADD DUP9 SSTORE POP POP POP JUMPDEST POP POP POP POP POP POP JUMP JUMPDEST PUSH32 0x752063616E277420646F207472616E73616374696F6E2063757A2066756E6469 PUSH0 DUP3 ADD MSTORE PUSH32 0x6E6720617265206E6F7420616374697665000000000000000000000000000000 PUSH1 0x20 DUP3 ADD MSTORE POP JUMP JUMPDEST PUSH0 PUSH2 0x1148 PUSH1 0x31 DUP4 PUSH2 0x7B2 JUMP JUMPDEST SWAP2 POP PUSH2 0x1153 DUP3 PUSH2 0x10EE JUMP JUMPDEST PUSH1 0x40 DUP3 ADD SWAP1 POP SWAP2 SWAP1 POP JUMP JUMPDEST PUSH0 PUSH1 0x20 DUP3 ADD SWAP1 POP DUP2 DUP2 SUB PUSH0 DUP4 ADD MSTORE PUSH2 0x1175 DUP2 PUSH2 0x113C JUMP JUMPDEST SWAP1 POP SWAP2 SWAP1 POP JUMP JUMPDEST PUSH32 0x4E487B7100000000000000000000000000000000000000000000000000000000 PUSH0 MSTORE PUSH1 0x11 PUSH1 0x4 MSTORE PUSH1 0x24 PUSH0 REVERT JUMPDEST PUSH0 PUSH2 0x11B3 DUP3 PUSH2 0x895 JUMP JUMPDEST SWAP2 POP PUSH2 0x11BE DUP4 PUSH2 0x895 JUMP JUMPDEST SWAP3 POP DUP3 DUP3 ADD SWAP1 POP DUP1 DUP3 GT ISZERO PUSH2 0x11D6 JUMPI PUSH2 0x11D5 PUSH2 0x117C JUMP JUMPDEST JUMPDEST SWAP3 SWAP2 POP POP JUMP INVALID LOG2 PUSH5 0x6970667358 0x22 SLT KECCAK256 GAS 0xBB 0x2D NOT RETURNDATASIZE BASEFEE 0x4D DUP16 SWAP10 SIGNEXTEND 0xE9 CALLCODE 0xF6 PUSH30 0x2FBE91C490638FD906AEE1D1087C38B02D9B64736F6C6343000816003300 "
				},
				"gasEstimates": {
					"creation": {
						"codeDepositCost": "925200",
						"executionCost": "69436",
						"totalCost": "994636"
					},
					"external": {
						"_goal()": "2513",
						"addnewuser(string,string,uint256,address,address,uint8)": "infinite",
						"allowedtime()": "2469",
						"check_totalbalance()": "185",
						"contributor(address,uint256)": "infinite",
						"funds(uint256)": "infinite",
						"owner()": "2530",
						"transfer(string,string,uint256,address,address)": "infinite",
						"transfers(string,string,uint256,address,address)": "infinite"
					}
				},
				"methodIdentifiers": {
					"_goal()": "fba939f8",
					"addnewuser(string,string,uint256,address,address,uint8)": "475d0b00",
					"allowedtime()": "540473e8",
					"check_totalbalance()": "ea3bbb56",
					"contributor(address,uint256)": "09e63d25",
					"funds(uint256)": "7b8e8895",
					"owner()": "8da5cb5b",
					"transfer(string,string,uint256,address,address)": "db7eb849",
					"transfers(string,string,uint256,address,address)": "6d7b350a"
				}
			},
			"storageLayout": {
				"storage": [
					{
						"astId": 19,
						"contract": "Final_task.sol:final_task",
						"label": "allowedtime",
						"offset": 0,
						"slot": "0",
						"type": "t_uint256"
					},
					{
						"astId": 21,
						"contract": "Final_task.sol:final_task",
						"label": "owner",
						"offset": 0,
						"slot": "1",
						"type": "t_address"
					},
					{
						"astId": 24,
						"contract": "Final_task.sol:final_task",
						"label": "_goal",
						"offset": 0,
						"slot": "2",
						"type": "t_uint256"
					},
					{
						"astId": 62,
						"contract": "Final_task.sol:final_task",
						"label": "funds",
						"offset": 0,
						"slot": "3",
						"type": "t_array(t_struct(fund)58_storage)dyn_storage"
					}
				],
				"types": {
					"t_address": {
						"encoding": "inplace",
						"label": "address",
						"numberOfBytes": "20"
					},
					"t_address_payable": {
						"encoding": "inplace",
						"label": "address payable",
						"numberOfBytes": "20"
					},
					"t_array(t_struct(fund)58_storage)dyn_storage": {
						"base": "t_struct(fund)58_storage",
						"encoding": "dynamic_array",
						"label": "struct final_task.fund[]",
						"numberOfBytes": "32"
					},
					"t_enum(check_camp)4": {
						"encoding": "inplace",
						"label": "enum final_task.check_camp",
						"numberOfBytes": "1"
					},
					"t_string_storage": {
						"encoding": "bytes",
						"label": "string",
						"numberOfBytes": "32"
					},
					"t_struct(fund)58_storage": {
						"encoding": "inplace",
						"label": "struct final_task.fund",
						"members": [
							{
								"astId": 46,
								"contract": "Final_task.sol:final_task",
								"label": "name",
								"offset": 0,
								"slot": "0",
								"type": "t_string_storage"
							},
							{
								"astId": 48,
								"contract": "Final_task.sol:final_task",
								"label": "discription",
								"offset": 0,
								"slot": "1",
								"type": "t_string_storage"
							},
							{
								"astId": 50,
								"contract": "Final_task.sol:final_task",
								"label": "amount",
								"offset": 0,
								"slot": "2",
								"type": "t_uint256"
							},
							{
								"astId": 52,
								"contract": "Final_task.sol:final_task",
								"label": "campowner",
								"offset": 0,
								"slot": "3",
								"type": "t_address"
							},
							{
								"astId": 54,
								"contract": "Final_task.sol:final_task",
								"label": "sender_amount",
								"offset": 0,
								"slot": "4",
								"type": "t_address_payable"
							},
							{
								"astId": 57,
								"contract": "Final_task.sol:final_task",
								"label": "state",
								"offset": 20,
								"slot": "4",
								"type": "t_enum(check_camp)4"
							}
						],
						"numberOfBytes": "160"
					},
					"t_uint256": {
						"encoding": "inplace",
						"label": "uint256",
						"numberOfBytes": "32"
					}
				}
			},
			"userdoc": {
				"kind": "user",
				"methods": {},
				"version": 1
			}
		}
	}
}