{
	"supply_task.sol": {
		"supplychain": {
			"abi": [
				{
					"anonymous": false,
					"inputs": [
						{
							"indexed": false,
							"internalType": "address",
							"name": "to",
							"type": "address"
						},
						{
							"indexed": false,
							"internalType": "address",
							"name": "from",
							"type": "address"
						},
						{
							"indexed": false,
							"internalType": "uint256",
							"name": "time",
							"type": "uint256"
						},
						{
							"indexed": false,
							"internalType": "string",
							"name": "prd_name",
							"type": "string"
						}
					],
					"name": "completed",
					"type": "event"
				},
				{
					"anonymous": false,
					"inputs": [
						{
							"indexed": false,
							"internalType": "address",
							"name": "to",
							"type": "address"
						},
						{
							"indexed": false,
							"internalType": "address",
							"name": "from",
							"type": "address"
						},
						{
							"indexed": false,
							"internalType": "uint256",
							"name": "time",
							"type": "uint256"
						},
						{
							"indexed": false,
							"internalType": "string",
							"name": "prd_name",
							"type": "string"
						}
					],
					"name": "received",
					"type": "event"
				},
				{
					"anonymous": false,
					"inputs": [
						{
							"indexed": false,
							"internalType": "address",
							"name": "to",
							"type": "address"
						},
						{
							"indexed": false,
							"internalType": "address",
							"name": "from",
							"type": "address"
						},
						{
							"indexed": false,
							"internalType": "uint256",
							"name": "time",
							"type": "uint256"
						},
						{
							"indexed": false,
							"internalType": "string",
							"name": "prd_name",
							"type": "string"
						}
					],
					"name": "trans",
					"type": "event"
				},
				{
					"inputs": [],
					"name": "PRODUCTSCount",
					"outputs": [
						{
							"internalType": "uint256",
							"name": "",
							"type": "uint256"
						}
					],
					"stateMutability": "view",
					"type": "function"
				},
				{
					"inputs": [
						{
							"internalType": "uint256",
							"name": "",
							"type": "uint256"
						}
					],
					"name": "Productrecord",
					"outputs": [
						{
							"internalType": "string",
							"name": "name",
							"type": "string"
						},
						{
							"internalType": "string",
							"name": "PDiscrip",
							"type": "string"
						},
						{
							"internalType": "uint256",
							"name": "Pprice",
							"type": "uint256"
						},
						{
							"internalType": "string",
							"name": "date",
							"type": "string"
						},
						{
							"internalType": "address",
							"name": "id",
							"type": "address"
						},
						{
							"internalType": "string",
							"name": "seller",
							"type": "string"
						},
						{
							"internalType": "enum check_state",
							"name": "state",
							"type": "uint8"
						},
						{
							"internalType": "uint256",
							"name": "qty",
							"type": "uint256"
						}
					],
					"stateMutability": "view",
					"type": "function"
				},
				{
					"inputs": [
						{
							"internalType": "address",
							"name": "item_id",
							"type": "address"
						},
						{
							"internalType": "string",
							"name": "_name",
							"type": "string"
						},
						{
							"internalType": "string",
							"name": "_PDiscrip",
							"type": "string"
						},
						{
							"internalType": "uint256",
							"name": "_Pprice",
							"type": "uint256"
						},
						{
							"internalType": "string",
							"name": "_date",
							"type": "string"
						},
						{
							"internalType": "address",
							"name": "_id",
							"type": "address"
						},
						{
							"internalType": "string",
							"name": "_seller",
							"type": "string"
						},
						{
							"internalType": "enum check_state",
							"name": "state",
							"type": "uint8"
						},
						{
							"internalType": "uint256",
							"name": "_qty",
							"type": "uint256"
						}
					],
					"name": "additems",
					"outputs": [],
					"stateMutability": "nonpayable",
					"type": "function"
				},
				{
					"inputs": [
						{
							"internalType": "address",
							"name": "item_id",
							"type": "address"
						},
						{
							"internalType": "string",
							"name": "_name",
							"type": "string"
						},
						{
							"internalType": "string",
							"name": "_PDiscrip",
							"type": "string"
						},
						{
							"internalType": "uint256",
							"name": "_Pprice",
							"type": "uint256"
						},
						{
							"internalType": "string",
							"name": "_date",
							"type": "string"
						},
						{
							"internalType": "address",
							"name": "_id",
							"type": "address"
						},
						{
							"internalType": "string",
							"name": "_seller",
							"type": "string"
						},
						{
							"internalType": "uint256",
							"name": "_qty",
							"type": "uint256"
						}
					],
					"name": "completedsuplly",
					"outputs": [],
					"stateMutability": "nonpayable",
					"type": "function"
				},
				{
					"inputs": [
						{
							"internalType": "address payable",
							"name": "abc",
							"type": "address"
						}
					],
					"name": "confirmation",
					"outputs": [],
					"stateMutability": "payable",
					"type": "function"
				},
				{
					"inputs": [
						{
							"internalType": "uint256",
							"name": "amount",
							"type": "uint256"
						},
						{
							"internalType": "address payable",
							"name": "seller",
							"type": "address"
						}
					],
					"name": "customer",
					"outputs": [],
					"stateMutability": "payable",
					"type": "function"
				},
				{
					"inputs": [
						{
							"internalType": "uint256",
							"name": "pid",
							"type": "uint256"
						}
					],
					"name": "getproductsrecords",
					"outputs": [
						{
							"components": [
								{
									"internalType": "string",
									"name": "name",
									"type": "string"
								},
								{
									"internalType": "string",
									"name": "PDiscrip",
									"type": "string"
								},
								{
									"internalType": "uint256",
									"name": "Pprice",
									"type": "uint256"
								},
								{
									"internalType": "string",
									"name": "date",
									"type": "string"
								},
								{
									"internalType": "address",
									"name": "id",
									"type": "address"
								},
								{
									"internalType": "string",
									"name": "seller",
									"type": "string"
								},
								{
									"internalType": "enum check_state",
									"name": "state",
									"type": "uint8"
								},
								{
									"internalType": "uint256",
									"name": "qty",
									"type": "uint256"
								}
							],
							"internalType": "struct supplychain.products",
							"name": "",
							"type": "tuple"
						}
					],
					"stateMutability": "view",
					"type": "function"
				},
				{
					"inputs": [
						{
							"internalType": "address",
							"name": "item_id",
							"type": "address"
						},
						{
							"internalType": "string",
							"name": "_name",
							"type": "string"
						},
						{
							"internalType": "string",
							"name": "_PDiscrip",
							"type": "string"
						},
						{
							"internalType": "uint256",
							"name": "_Pprice",
							"type": "uint256"
						},
						{
							"internalType": "string",
							"name": "_date",
							"type": "string"
						},
						{
							"internalType": "address",
							"name": "_id",
							"type": "address"
						},
						{
							"internalType": "string",
							"name": "_seller",
							"type": "string"
						},
						{
							"internalType": "uint256",
							"name": "_qty",
							"type": "uint256"
						}
					],
					"name": "receivedprod",
					"outputs": [],
					"stateMutability": "nonpayable",
					"type": "function"
				},
				{
					"inputs": [
						{
							"internalType": "address",
							"name": "item_id",
							"type": "address"
						},
						{
							"internalType": "string",
							"name": "_name",
							"type": "string"
						},
						{
							"internalType": "string",
							"name": "_PDiscrip",
							"type": "string"
						},
						{
							"internalType": "uint256",
							"name": "_Pprice",
							"type": "uint256"
						},
						{
							"internalType": "string",
							"name": "_date",
							"type": "string"
						},
						{
							"internalType": "address",
							"name": "_id",
							"type": "address"
						},
						{
							"internalType": "string",
							"name": "_seller",
							"type": "string"
						},
						{
							"internalType": "uint256",
							"name": "_qty",
							"type": "uint256"
						}
					],
					"name": "transitprod",
					"outputs": [],
					"stateMutability": "nonpayable",
					"type": "function"
				}
			],
			"devdoc": {
				"kind": "dev",
				"methods": {},
				"version": 1
			},
			"evm": {
				"assembly": "    /* \"supply_task.sol\":107:2708  contract supplychain{... */\n  mstore(0x40, 0x80)\n  callvalue\n  dup1\n  iszero\n  tag_1\n  jumpi\n  0x00\n  dup1\n  revert\ntag_1:\n  pop\n  dataSize(sub_0)\n  dup1\n  dataOffset(sub_0)\n  0x00\n  codecopy\n  0x00\n  return\nstop\n\nsub_0: assembly {\n        /* \"supply_task.sol\":107:2708  contract supplychain{... */\n      mstore(0x40, 0x80)\n      jumpi(tag_1, lt(calldatasize, 0x04))\n      shr(0xe0, calldataload(0x00))\n      dup1\n      0x46d063b4\n      gt\n      tag_11\n      jumpi\n      dup1\n      0x46d063b4\n      eq\n      tag_6\n      jumpi\n      dup1\n      0x559a04c9\n      eq\n      tag_7\n      jumpi\n      dup1\n      0x747a7b95\n      eq\n      tag_8\n      jumpi\n      dup1\n      0x98cfee01\n      eq\n      tag_9\n      jumpi\n      dup1\n      0xb49ede9a\n      eq\n      tag_10\n      jumpi\n      jump(tag_1)\n    tag_11:\n      dup1\n      0x09599ad9\n      eq\n      tag_2\n      jumpi\n      dup1\n      0x1c4db37e\n      eq\n      tag_3\n      jumpi\n      dup1\n      0x2e539677\n      eq\n      tag_4\n      jumpi\n      dup1\n      0x341d01e6\n      eq\n      tag_5\n      jumpi\n    tag_1:\n      0x00\n      dup1\n      revert\n        /* \"supply_task.sol\":1264:1377  function getproductsrecords(uint pid) public view returns(products memory){... */\n    tag_2:\n      callvalue\n      dup1\n      iszero\n      tag_12\n      jumpi\n      0x00\n      dup1\n      revert\n    tag_12:\n      pop\n      tag_13\n      0x04\n      dup1\n      calldatasize\n      sub\n      dup2\n      add\n      swap1\n      tag_14\n      swap2\n      swap1\n      tag_15\n      jump\t// in\n    tag_14:\n      tag_16\n      jump\t// in\n    tag_13:\n      mload(0x40)\n      tag_17\n      swap2\n      swap1\n      tag_18\n      jump\t// in\n    tag_17:\n      mload(0x40)\n      dup1\n      swap2\n      sub\n      swap1\n      return\n        /* \"supply_task.sol\":807:1260  function additems( address item_id, string memory _name,... */\n    tag_3:\n      callvalue\n      dup1\n      iszero\n      tag_19\n      jumpi\n      0x00\n      dup1\n      revert\n    tag_19:\n      pop\n      tag_20\n      0x04\n      dup1\n      calldatasize\n      sub\n      dup2\n      add\n      swap1\n      tag_21\n      swap2\n      swap1\n      tag_22\n      jump\t// in\n    tag_21:\n      tag_23\n      jump\t// in\n    tag_20:\n      stop\n        /* \"supply_task.sol\":1379:1481  function PRODUCTSCount() public view returns(uint)... */\n    tag_4:\n      callvalue\n      dup1\n      iszero\n      tag_24\n      jumpi\n      0x00\n      dup1\n      revert\n    tag_24:\n      pop\n      tag_25\n      tag_26\n      jump\t// in\n    tag_25:\n      mload(0x40)\n      tag_27\n      swap2\n      swap1\n      tag_28\n      jump\t// in\n    tag_27:\n      mload(0x40)\n      dup1\n      swap2\n      sub\n      swap1\n      return\n        /* \"supply_task.sol\":2401:2705  function completedsuplly(address item_id,string memory _name,... */\n    tag_5:\n      callvalue\n      dup1\n      iszero\n      tag_29\n      jumpi\n      0x00\n      dup1\n      revert\n    tag_29:\n      pop\n      tag_30\n      0x04\n      dup1\n      calldatasize\n      sub\n      dup2\n      add\n      swap1\n      tag_31\n      swap2\n      swap1\n      tag_32\n      jump\t// in\n    tag_31:\n      tag_33\n      jump\t// in\n    tag_30:\n      stop\n        /* \"supply_task.sol\":1722:2096  function transitprod(address item_id,string memory _name,... */\n    tag_6:\n      callvalue\n      dup1\n      iszero\n      tag_34\n      jumpi\n      0x00\n      dup1\n      revert\n    tag_34:\n      pop\n      tag_35\n      0x04\n      dup1\n      calldatasize\n      sub\n      dup2\n      add\n      swap1\n      tag_36\n      swap2\n      swap1\n      tag_32\n      jump\t// in\n    tag_36:\n      tag_37\n      jump\t// in\n    tag_35:\n      stop\n        /* \"supply_task.sol\":2098:2399  function receivedprod(address item_id,string memory _name,... */\n    tag_7:\n      callvalue\n      dup1\n      iszero\n      tag_38\n      jumpi\n      0x00\n      dup1\n      revert\n    tag_38:\n      pop\n      tag_39\n      0x04\n      dup1\n      calldatasize\n      sub\n      dup2\n      add\n      swap1\n      tag_40\n      swap2\n      swap1\n      tag_32\n      jump\t// in\n    tag_40:\n      tag_41\n      jump\t// in\n    tag_39:\n      stop\n        /* \"supply_task.sol\":1594:1720  function confirmation(address payable abc)public payable {... */\n    tag_8:\n      tag_42\n      0x04\n      dup1\n      calldatasize\n      sub\n      dup2\n      add\n      swap1\n      tag_43\n      swap2\n      swap1\n      tag_44\n      jump\t// in\n    tag_43:\n      tag_45\n      jump\t// in\n    tag_42:\n      stop\n        /* \"supply_task.sol\":1485:1590  function customer(uint amount,address payable  seller ) public payable {... */\n    tag_9:\n      tag_46\n      0x04\n      dup1\n      calldatasize\n      sub\n      dup2\n      add\n      swap1\n      tag_47\n      swap2\n      swap1\n      tag_48\n      jump\t// in\n    tag_47:\n      tag_49\n      jump\t// in\n    tag_46:\n      stop\n        /* \"supply_task.sol\":720:751  products[] public Productrecord */\n    tag_10:\n      callvalue\n      dup1\n      iszero\n      tag_50\n      jumpi\n      0x00\n      dup1\n      revert\n    tag_50:\n      pop\n      tag_51\n      0x04\n      dup1\n      calldatasize\n      sub\n      dup2\n      add\n      swap1\n      tag_52\n      swap2\n      swap1\n      tag_15\n      jump\t// in\n    tag_52:\n      tag_53\n      jump\t// in\n    tag_51:\n      mload(0x40)\n      tag_54\n      swap9\n      swap8\n      swap7\n      swap6\n      swap5\n      swap4\n      swap3\n      swap2\n      swap1\n      tag_55\n      jump\t// in\n    tag_54:\n      mload(0x40)\n      dup1\n      swap2\n      sub\n      swap1\n      return\n        /* \"supply_task.sol\":1264:1377  function getproductsrecords(uint pid) public view returns(products memory){... */\n    tag_16:\n        /* \"supply_task.sol\":1322:1337  products memory */\n      tag_56\n      tag_57\n      jump\t// in\n    tag_56:\n        /* \"supply_task.sol\":1355:1368  Productrecord */\n      0x00\n        /* \"supply_task.sol\":1369:1372  pid */\n      dup3\n        /* \"supply_task.sol\":1355:1373  Productrecord[pid] */\n      dup2\n      sload\n      dup2\n      lt\n      tag_59\n      jumpi\n      tag_60\n      tag_61\n      jump\t// in\n    tag_60:\n    tag_59:\n      swap1\n      0x00\n      mstore\n      keccak256(0x00, 0x20)\n      swap1\n      0x08\n      mul\n      add\n        /* \"supply_task.sol\":1347:1373  return  Productrecord[pid] */\n      mload(0x40)\n      dup1\n      0x0100\n      add\n      0x40\n      mstore\n      swap1\n      dup2\n      0x00\n      dup3\n      add\n      dup1\n      sload\n      tag_63\n      swap1\n      tag_64\n      jump\t// in\n    tag_63:\n      dup1\n      0x1f\n      add\n      0x20\n      dup1\n      swap2\n      div\n      mul\n      0x20\n      add\n      mload(0x40)\n      swap1\n      dup2\n      add\n      0x40\n      mstore\n      dup1\n      swap3\n      swap2\n      swap1\n      dup2\n      dup2\n      mstore\n      0x20\n      add\n      dup3\n      dup1\n      sload\n      tag_65\n      swap1\n      tag_64\n      jump\t// in\n    tag_65:\n      dup1\n      iszero\n      tag_66\n      jumpi\n      dup1\n      0x1f\n      lt\n      tag_67\n      jumpi\n      0x0100\n      dup1\n      dup4\n      sload\n      div\n      mul\n      dup4\n      mstore\n      swap2\n      0x20\n      add\n      swap2\n      jump(tag_66)\n    tag_67:\n      dup3\n      add\n      swap2\n      swap1\n      0x00\n      mstore\n      keccak256(0x00, 0x20)\n      swap1\n    tag_68:\n      dup2\n      sload\n      dup2\n      mstore\n      swap1\n      0x01\n      add\n      swap1\n      0x20\n      add\n      dup1\n      dup4\n      gt\n      tag_68\n      jumpi\n      dup3\n      swap1\n      sub\n      0x1f\n      and\n      dup3\n      add\n      swap2\n    tag_66:\n      pop\n      pop\n      pop\n      pop\n      pop\n      dup2\n      mstore\n      0x20\n      add\n      0x01\n      dup3\n      add\n      dup1\n      sload\n      tag_69\n      swap1\n      tag_64\n      jump\t// in\n    tag_69:\n      dup1\n      0x1f\n      add\n      0x20\n      dup1\n      swap2\n      div\n      mul\n      0x20\n      add\n      mload(0x40)\n      swap1\n      dup2\n      add\n      0x40\n      mstore\n      dup1\n      swap3\n      swap2\n      swap1\n      dup2\n      dup2\n      mstore\n      0x20\n      add\n      dup3\n      dup1\n      sload\n      tag_70\n      swap1\n      tag_64\n      jump\t// in\n    tag_70:\n      dup1\n      iszero\n      tag_71\n      jumpi\n      dup1\n      0x1f\n      lt\n      tag_72\n      jumpi\n      0x0100\n      dup1\n      dup4\n      sload\n      div\n      mul\n      dup4\n      mstore\n      swap2\n      0x20\n      add\n      swap2\n      jump(tag_71)\n    tag_72:\n      dup3\n      add\n      swap2\n      swap1\n      0x00\n      mstore\n      keccak256(0x00, 0x20)\n      swap1\n    tag_73:\n      dup2\n      sload\n      dup2\n      mstore\n      swap1\n      0x01\n      add\n      swap1\n      0x20\n      add\n      dup1\n      dup4\n      gt\n      tag_73\n      jumpi\n      dup3\n      swap1\n      sub\n      0x1f\n      and\n      dup3\n      add\n      swap2\n    tag_71:\n      pop\n      pop\n      pop\n      pop\n      pop\n      dup2\n      mstore\n      0x20\n      add\n      0x02\n      dup3\n      add\n      sload\n      dup2\n      mstore\n      0x20\n      add\n      0x03\n      dup3\n      add\n      dup1\n      sload\n      tag_74\n      swap1\n      tag_64\n      jump\t// in\n    tag_74:\n      dup1\n      0x1f\n      add\n      0x20\n      dup1\n      swap2\n      div\n      mul\n      0x20\n      add\n      mload(0x40)\n      swap1\n      dup2\n      add\n      0x40\n      mstore\n      dup1\n      swap3\n      swap2\n      swap1\n      dup2\n      dup2\n      mstore\n      0x20\n      add\n      dup3\n      dup1\n      sload\n      tag_75\n      swap1\n      tag_64\n      jump\t// in\n    tag_75:\n      dup1\n      iszero\n      tag_76\n      jumpi\n      dup1\n      0x1f\n      lt\n      tag_77\n      jumpi\n      0x0100\n      dup1\n      dup4\n      sload\n      div\n      mul\n      dup4\n      mstore\n      swap2\n      0x20\n      add\n      swap2\n      jump(tag_76)\n    tag_77:\n      dup3\n      add\n      swap2\n      swap1\n      0x00\n      mstore\n      keccak256(0x00, 0x20)\n      swap1\n    tag_78:\n      dup2\n      sload\n      dup2\n      mstore\n      swap1\n      0x01\n      add\n      swap1\n      0x20\n      add\n      dup1\n      dup4\n      gt\n      tag_78\n      jumpi\n      dup3\n      swap1\n      sub\n      0x1f\n      and\n      dup3\n      add\n      swap2\n    tag_76:\n      pop\n      pop\n      pop\n      pop\n      pop\n      dup2\n      mstore\n      0x20\n      add\n      0x04\n      dup3\n      add\n      0x00\n      swap1\n      sload\n      swap1\n      0x0100\n      exp\n      swap1\n      div\n      0xffffffffffffffffffffffffffffffffffffffff\n      and\n      0xffffffffffffffffffffffffffffffffffffffff\n      and\n      0xffffffffffffffffffffffffffffffffffffffff\n      and\n      dup2\n      mstore\n      0x20\n      add\n      0x05\n      dup3\n      add\n      dup1\n      sload\n      tag_79\n      swap1\n      tag_64\n      jump\t// in\n    tag_79:\n      dup1\n      0x1f\n      add\n      0x20\n      dup1\n      swap2\n      div\n      mul\n      0x20\n      add\n      mload(0x40)\n      swap1\n      dup2\n      add\n      0x40\n      mstore\n      dup1\n      swap3\n      swap2\n      swap1\n      dup2\n      dup2\n      mstore\n      0x20\n      add\n      dup3\n      dup1\n      sload\n      tag_80\n      swap1\n      tag_64\n      jump\t// in\n    tag_80:\n      dup1\n      iszero\n      tag_81\n      jumpi\n      dup1\n      0x1f\n      lt\n      tag_82\n      jumpi\n      0x0100\n      dup1\n      dup4\n      sload\n      div\n      mul\n      dup4\n      mstore\n      swap2\n      0x20\n      add\n      swap2\n      jump(tag_81)\n    tag_82:\n      dup3\n      add\n      swap2\n      swap1\n      0x00\n      mstore\n      keccak256(0x00, 0x20)\n      swap1\n    tag_83:\n      dup2\n      sload\n      dup2\n      mstore\n      swap1\n      0x01\n      add\n      swap1\n      0x20\n      add\n      dup1\n      dup4\n      gt\n      tag_83\n      jumpi\n      dup3\n      swap1\n      sub\n      0x1f\n      and\n      dup3\n      add\n      swap2\n    tag_81:\n      pop\n      pop\n      pop\n      pop\n      pop\n      dup2\n      mstore\n      0x20\n      add\n      0x06\n      dup3\n      add\n      0x00\n      swap1\n      sload\n      swap1\n      0x0100\n      exp\n      swap1\n      div\n      0xff\n      and\n      0x02\n      dup2\n      gt\n      iszero\n      tag_84\n      jumpi\n      tag_85\n      tag_86\n      jump\t// in\n    tag_85:\n    tag_84:\n      0x02\n      dup2\n      gt\n      iszero\n      tag_87\n      jumpi\n      tag_88\n      tag_86\n      jump\t// in\n    tag_88:\n    tag_87:\n      dup2\n      mstore\n      0x20\n      add\n      0x07\n      dup3\n      add\n      sload\n      dup2\n      mstore\n      pop\n      pop\n      swap1\n      pop\n        /* \"supply_task.sol\":1264:1377  function getproductsrecords(uint pid) public view returns(products memory){... */\n      swap2\n      swap1\n      pop\n      jump\t// out\n        /* \"supply_task.sol\":807:1260  function additems( address item_id, string memory _name,... */\n    tag_23:\n        /* \"supply_task.sol\":1032:1034  sp */\n      0x01\n        /* \"supply_task.sol\":1032:1043  sp[item_id] */\n      0x00\n        /* \"supply_task.sol\":1035:1042  item_id */\n      dup11\n        /* \"supply_task.sol\":1032:1043  sp[item_id] */\n      0xffffffffffffffffffffffffffffffffffffffff\n      and\n      0xffffffffffffffffffffffffffffffffffffffff\n      and\n      dup2\n      mstore\n      0x20\n      add\n      swap1\n      dup2\n      mstore\n      0x20\n      add\n      0x00\n      keccak256\n        /* \"supply_task.sol\":1091:1241  products(... */\n      mload(0x40)\n      dup1\n      0x0100\n      add\n      0x40\n      mstore\n      dup1\n        /* \"supply_task.sol\":1115:1120  _name */\n      dup11\n        /* \"supply_task.sol\":1091:1241  products(... */\n      dup2\n      mstore\n      0x20\n      add\n        /* \"supply_task.sol\":1132:1141  _PDiscrip */\n      dup10\n        /* \"supply_task.sol\":1091:1241  products(... */\n      dup2\n      mstore\n      0x20\n      add\n        /* \"supply_task.sol\":1151:1158  _Pprice */\n      dup9\n        /* \"supply_task.sol\":1091:1241  products(... */\n      dup2\n      mstore\n      0x20\n      add\n        /* \"supply_task.sol\":1168:1173  _date */\n      dup8\n        /* \"supply_task.sol\":1091:1241  products(... */\n      dup2\n      mstore\n      0x20\n      add\n        /* \"supply_task.sol\":1183:1186  _id */\n      dup7\n        /* \"supply_task.sol\":1091:1241  products(... */\n      0xffffffffffffffffffffffffffffffffffffffff\n      and\n      dup2\n      mstore\n      0x20\n      add\n        /* \"supply_task.sol\":1196:1203  _seller */\n      dup6\n        /* \"supply_task.sol\":1091:1241  products(... */\n      dup2\n      mstore\n      0x20\n      add\n        /* \"supply_task.sol\":1213:1218  state */\n      dup5\n        /* \"supply_task.sol\":1091:1241  products(... */\n      0x02\n      dup2\n      gt\n      iszero\n      tag_90\n      jumpi\n      tag_91\n      tag_86\n      jump\t// in\n    tag_91:\n    tag_90:\n      dup2\n      mstore\n      0x20\n      add\n        /* \"supply_task.sol\":1228:1232  _qty */\n      dup4\n        /* \"supply_task.sol\":1091:1241  products(... */\n      dup2\n      mstore\n      pop\n        /* \"supply_task.sol\":1032:1254  sp[item_id].push( ... */\n      swap1\n      dup1\n      0x01\n      dup2\n      sload\n      add\n      dup1\n      dup3\n      sstore\n      dup1\n      swap2\n      pop\n      pop\n      0x01\n      swap1\n      sub\n      swap1\n      0x00\n      mstore\n      keccak256(0x00, 0x20)\n      swap1\n      0x08\n      mul\n      add\n      0x00\n      swap1\n      swap2\n      swap1\n      swap2\n      swap1\n      swap2\n      pop\n      0x00\n      dup3\n      add\n      mload\n      dup2\n      0x00\n      add\n      swap1\n      dup2\n      tag_93\n      swap2\n      swap1\n      tag_94\n      jump\t// in\n    tag_93:\n      pop\n      0x20\n      dup3\n      add\n      mload\n      dup2\n      0x01\n      add\n      swap1\n      dup2\n      tag_95\n      swap2\n      swap1\n      tag_94\n      jump\t// in\n    tag_95:\n      pop\n      0x40\n      dup3\n      add\n      mload\n      dup2\n      0x02\n      add\n      sstore\n      0x60\n      dup3\n      add\n      mload\n      dup2\n      0x03\n      add\n      swap1\n      dup2\n      tag_96\n      swap2\n      swap1\n      tag_94\n      jump\t// in\n    tag_96:\n      pop\n      0x80\n      dup3\n      add\n      mload\n      dup2\n      0x04\n      add\n      exp(0x0100, 0x00)\n      dup2\n      sload\n      dup2\n      0xffffffffffffffffffffffffffffffffffffffff\n      mul\n      not\n      and\n      swap1\n      dup4\n      0xffffffffffffffffffffffffffffffffffffffff\n      and\n      mul\n      or\n      swap1\n      sstore\n      pop\n      0xa0\n      dup3\n      add\n      mload\n      dup2\n      0x05\n      add\n      swap1\n      dup2\n      tag_97\n      swap2\n      swap1\n      tag_94\n      jump\t// in\n    tag_97:\n      pop\n      0xc0\n      dup3\n      add\n      mload\n      dup2\n      0x06\n      add\n      exp(0x0100, 0x00)\n      dup2\n      sload\n      dup2\n      0xff\n      mul\n      not\n      and\n      swap1\n      dup4\n      0x02\n      dup2\n      gt\n      iszero\n      tag_98\n      jumpi\n      tag_99\n      tag_86\n      jump\t// in\n    tag_99:\n    tag_98:\n      mul\n      or\n      swap1\n      sstore\n      pop\n      0xe0\n      dup3\n      add\n      mload\n      dup2\n      0x07\n      add\n      sstore\n      pop\n      pop\n        /* \"supply_task.sol\":807:1260  function additems( address item_id, string memory _name,... */\n      pop\n      pop\n      pop\n      pop\n      pop\n      pop\n      pop\n      pop\n      pop\n      jump\t// out\n        /* \"supply_task.sol\":1379:1481  function PRODUCTSCount() public view returns(uint)... */\n    tag_26:\n        /* \"supply_task.sol\":1424:1428  uint */\n      0x00\n        /* \"supply_task.sol\":1453:1466  Productrecord */\n      dup1\n        /* \"supply_task.sol\":1453:1473  Productrecord.length */\n      dup1\n      sload\n      swap1\n      pop\n        /* \"supply_task.sol\":1446:1473  return Productrecord.length */\n      swap1\n      pop\n        /* \"supply_task.sol\":1379:1481  function PRODUCTSCount() public view returns(uint)... */\n      swap1\n      jump\t// out\n        /* \"supply_task.sol\":2401:2705  function completedsuplly(address item_id,string memory _name,... */\n    tag_33:\n        /* \"supply_task.sol\":2608:2701  additems(item_id, _name, _PDiscrip, _Pprice, _date, _id, _seller, check_state.completed,_qty) */\n      tag_102\n        /* \"supply_task.sol\":2617:2624  item_id */\n      dup9\n        /* \"supply_task.sol\":2626:2631  _name */\n      dup9\n        /* \"supply_task.sol\":2633:2642  _PDiscrip */\n      dup9\n        /* \"supply_task.sol\":2644:2651  _Pprice */\n      dup9\n        /* \"supply_task.sol\":2653:2658  _date */\n      dup9\n        /* \"supply_task.sol\":2660:2663  _id */\n      dup9\n        /* \"supply_task.sol\":2665:2672  _seller */\n      dup9\n        /* \"supply_task.sol\":2674:2695  check_state.completed */\n      0x02\n        /* \"supply_task.sol\":2696:2700  _qty */\n      dup10\n        /* \"supply_task.sol\":2608:2616  additems */\n      tag_23\n        /* \"supply_task.sol\":2608:2701  additems(item_id, _name, _PDiscrip, _Pprice, _date, _id, _seller, check_state.completed,_qty) */\n      jump\t// in\n    tag_102:\n        /* \"supply_task.sol\":2401:2705  function completedsuplly(address item_id,string memory _name,... */\n      pop\n      pop\n      pop\n      pop\n      pop\n      pop\n      pop\n      pop\n      jump\t// out\n        /* \"supply_task.sol\":1722:2096  function transitprod(address item_id,string memory _name,... */\n    tag_37:\n        /* \"supply_task.sol\":1928:2020  additems(item_id, _name, _PDiscrip, _Pprice, _date, _id, _seller, check_state.transfer,_qty) */\n      tag_104\n        /* \"supply_task.sol\":1937:1944  item_id */\n      dup9\n        /* \"supply_task.sol\":1946:1951  _name */\n      dup9\n        /* \"supply_task.sol\":1953:1962  _PDiscrip */\n      dup9\n        /* \"supply_task.sol\":1964:1971  _Pprice */\n      dup9\n        /* \"supply_task.sol\":1973:1978  _date */\n      dup9\n        /* \"supply_task.sol\":1980:1983  _id */\n      dup9\n        /* \"supply_task.sol\":1985:1992  _seller */\n      dup9\n        /* \"supply_task.sol\":1994:2014  check_state.transfer */\n      0x00\n        /* \"supply_task.sol\":2015:2019  _qty */\n      dup10\n        /* \"supply_task.sol\":1928:1936  additems */\n      tag_23\n        /* \"supply_task.sol\":1928:2020  additems(item_id, _name, _PDiscrip, _Pprice, _date, _id, _seller, check_state.transfer,_qty) */\n      jump\t// in\n    tag_104:\n        /* \"supply_task.sol\":2023:2029  _qty-- */\n      dup1\n      dup1\n      tag_105\n      swap1\n      tag_106\n      jump\t// in\n    tag_105:\n      swap2\n      pop\n      pop\n        /* \"supply_task.sol\":1722:2096  function transitprod(address item_id,string memory _name,... */\n      pop\n      pop\n      pop\n      pop\n      pop\n      pop\n      pop\n      pop\n      jump\t// out\n        /* \"supply_task.sol\":2098:2399  function receivedprod(address item_id,string memory _name,... */\n    tag_41:\n        /* \"supply_task.sol\":2300:2391  additems(item_id, _name, _PDiscrip, _Pprice, _date, _id, _seller, check_state.pending,_qty) */\n      tag_108\n        /* \"supply_task.sol\":2309:2316  item_id */\n      dup9\n        /* \"supply_task.sol\":2318:2323  _name */\n      dup9\n        /* \"supply_task.sol\":2325:2334  _PDiscrip */\n      dup9\n        /* \"supply_task.sol\":2336:2343  _Pprice */\n      dup9\n        /* \"supply_task.sol\":2345:2350  _date */\n      dup9\n        /* \"supply_task.sol\":2352:2355  _id */\n      dup9\n        /* \"supply_task.sol\":2357:2364  _seller */\n      dup9\n        /* \"supply_task.sol\":2366:2385  check_state.pending */\n      0x01\n        /* \"supply_task.sol\":2386:2390  _qty */\n      dup10\n        /* \"supply_task.sol\":2300:2308  additems */\n      tag_23\n        /* \"supply_task.sol\":2300:2391  additems(item_id, _name, _PDiscrip, _Pprice, _date, _id, _seller, check_state.pending,_qty) */\n      jump\t// in\n    tag_108:\n        /* \"supply_task.sol\":2098:2399  function receivedprod(address item_id,string memory _name,... */\n      pop\n      pop\n      pop\n      pop\n      pop\n      pop\n      pop\n      pop\n      jump\t// out\n        /* \"supply_task.sol\":1594:1720  function confirmation(address payable abc)public payable {... */\n    tag_45:\n        /* \"supply_task.sol\":1654:1661  uint ab */\n      0x00\n        /* \"supply_task.sol\":1664:1685  address(this).balance */\n      selfbalance\n        /* \"supply_task.sol\":1654:1685  uint ab = address(this).balance */\n      swap1\n      pop\n        /* \"supply_task.sol\":1688:1691  abc */\n      dup2\n        /* \"supply_task.sol\":1688:1700  abc.transfer */\n      0xffffffffffffffffffffffffffffffffffffffff\n      and\n        /* \"supply_task.sol\":1688:1704  abc.transfer(ab) */\n      0x08fc\n        /* \"supply_task.sol\":1701:1703  ab */\n      dup3\n        /* \"supply_task.sol\":1688:1704  abc.transfer(ab) */\n      swap1\n      dup2\n      iszero\n      mul\n      swap1\n      mload(0x40)\n      0x00\n      mload(0x40)\n      dup1\n      dup4\n      sub\n      dup2\n      dup6\n      dup9\n      dup9\n      call\n      swap4\n      pop\n      pop\n      pop\n      pop\n      iszero\n      dup1\n      iszero\n      tag_111\n      jumpi\n      returndatasize\n      0x00\n      dup1\n      returndatacopy\n      revert(0x00, returndatasize)\n    tag_111:\n      pop\n        /* \"supply_task.sol\":1651:1720  {... */\n      pop\n        /* \"supply_task.sol\":1594:1720  function confirmation(address payable abc)public payable {... */\n      pop\n      jump\t// out\n        /* \"supply_task.sol\":1485:1590  function customer(uint amount,address payable  seller ) public payable {... */\n    tag_49:\n        /* \"supply_task.sol\":1561:1567  seller */\n      dup1\n        /* \"supply_task.sol\":1561:1576  seller.transfer */\n      0xffffffffffffffffffffffffffffffffffffffff\n      and\n        /* \"supply_task.sol\":1561:1584  seller.transfer(amount) */\n      0x08fc\n        /* \"supply_task.sol\":1577:1583  amount */\n      dup4\n        /* \"supply_task.sol\":1561:1584  seller.transfer(amount) */\n      swap1\n      dup2\n      iszero\n      mul\n      swap1\n      mload(0x40)\n      0x00\n      mload(0x40)\n      dup1\n      dup4\n      sub\n      dup2\n      dup6\n      dup9\n      dup9\n      call\n      swap4\n      pop\n      pop\n      pop\n      pop\n      iszero\n      dup1\n      iszero\n      tag_114\n      jumpi\n      returndatasize\n      0x00\n      dup1\n      returndatacopy\n      revert(0x00, returndatasize)\n    tag_114:\n      pop\n        /* \"supply_task.sol\":1485:1590  function customer(uint amount,address payable  seller ) public payable {... */\n      pop\n      pop\n      jump\t// out\n        /* \"supply_task.sol\":720:751  products[] public Productrecord */\n    tag_53:\n      0x00\n      dup2\n      dup2\n      sload\n      dup2\n      lt\n      tag_115\n      jumpi\n      0x00\n      dup1\n      revert\n    tag_115:\n      swap1\n      0x00\n      mstore\n      keccak256(0x00, 0x20)\n      swap1\n      0x08\n      mul\n      add\n      0x00\n      swap2\n      pop\n      swap1\n      pop\n      dup1\n      0x00\n      add\n      dup1\n      sload\n      tag_117\n      swap1\n      tag_64\n      jump\t// in\n    tag_117:\n      dup1\n      0x1f\n      add\n      0x20\n      dup1\n      swap2\n      div\n      mul\n      0x20\n      add\n      mload(0x40)\n      swap1\n      dup2\n      add\n      0x40\n      mstore\n      dup1\n      swap3\n      swap2\n      swap1\n      dup2\n      dup2\n      mstore\n      0x20\n      add\n      dup3\n      dup1\n      sload\n      tag_118\n      swap1\n      tag_64\n      jump\t// in\n    tag_118:\n      dup1\n      iszero\n      tag_119\n      jumpi\n      dup1\n      0x1f\n      lt\n      tag_120\n      jumpi\n      0x0100\n      dup1\n      dup4\n      sload\n      div\n      mul\n      dup4\n      mstore\n      swap2\n      0x20\n      add\n      swap2\n      jump(tag_119)\n    tag_120:\n      dup3\n      add\n      swap2\n      swap1\n      0x00\n      mstore\n      keccak256(0x00, 0x20)\n      swap1\n    tag_121:\n      dup2\n      sload\n      dup2\n      mstore\n      swap1\n      0x01\n      add\n      swap1\n      0x20\n      add\n      dup1\n      dup4\n      gt\n      tag_121\n      jumpi\n      dup3\n      swap1\n      sub\n      0x1f\n      and\n      dup3\n      add\n      swap2\n    tag_119:\n      pop\n      pop\n      pop\n      pop\n      pop\n      swap1\n      dup1\n      0x01\n      add\n      dup1\n      sload\n      tag_122\n      swap1\n      tag_64\n      jump\t// in\n    tag_122:\n      dup1\n      0x1f\n      add\n      0x20\n      dup1\n      swap2\n      div\n      mul\n      0x20\n      add\n      mload(0x40)\n      swap1\n      dup2\n      add\n      0x40\n      mstore\n      dup1\n      swap3\n      swap2\n      swap1\n      dup2\n      dup2\n      mstore\n      0x20\n      add\n      dup3\n      dup1\n      sload\n      tag_123\n      swap1\n      tag_64\n      jump\t// in\n    tag_123:\n      dup1\n      iszero\n      tag_124\n      jumpi\n      dup1\n      0x1f\n      lt\n      tag_125\n      jumpi\n      0x0100\n      dup1\n      dup4\n      sload\n      div\n      mul\n      dup4\n      mstore\n      swap2\n      0x20\n      add\n      swap2\n      jump(tag_124)\n    tag_125:\n      dup3\n      add\n      swap2\n      swap1\n      0x00\n      mstore\n      keccak256(0x00, 0x20)\n      swap1\n    tag_126:\n      dup2\n      sload\n      dup2\n      mstore\n      swap1\n      0x01\n      add\n      swap1\n      0x20\n      add\n      dup1\n      dup4\n      gt\n      tag_126\n      jumpi\n      dup3\n      swap1\n      sub\n      0x1f\n      and\n      dup3\n      add\n      swap2\n    tag_124:\n      pop\n      pop\n      pop\n      pop\n      pop\n      swap1\n      dup1\n      0x02\n      add\n      sload\n      swap1\n      dup1\n      0x03\n      add\n      dup1\n      sload\n      tag_127\n      swap1\n      tag_64\n      jump\t// in\n    tag_127:\n      dup1\n      0x1f\n      add\n      0x20\n      dup1\n      swap2\n      div\n      mul\n      0x20\n      add\n      mload(0x40)\n      swap1\n      dup2\n      add\n      0x40\n      mstore\n      dup1\n      swap3\n      swap2\n      swap1\n      dup2\n      dup2\n      mstore\n      0x20\n      add\n      dup3\n      dup1\n      sload\n      tag_128\n      swap1\n      tag_64\n      jump\t// in\n    tag_128:\n      dup1\n      iszero\n      tag_129\n      jumpi\n      dup1\n      0x1f\n      lt\n      tag_130\n      jumpi\n      0x0100\n      dup1\n      dup4\n      sload\n      div\n      mul\n      dup4\n      mstore\n      swap2\n      0x20\n      add\n      swap2\n      jump(tag_129)\n    tag_130:\n      dup3\n      add\n      swap2\n      swap1\n      0x00\n      mstore\n      keccak256(0x00, 0x20)\n      swap1\n    tag_131:\n      dup2\n      sload\n      dup2\n      mstore\n      swap1\n      0x01\n      add\n      swap1\n      0x20\n      add\n      dup1\n      dup4\n      gt\n      tag_131\n      jumpi\n      dup3\n      swap1\n      sub\n      0x1f\n      and\n      dup3\n      add\n      swap2\n    tag_129:\n      pop\n      pop\n      pop\n      pop\n      pop\n      swap1\n      dup1\n      0x04\n      add\n      0x00\n      swap1\n      sload\n      swap1\n      0x0100\n      exp\n      swap1\n      div\n      0xffffffffffffffffffffffffffffffffffffffff\n      and\n      swap1\n      dup1\n      0x05\n      add\n      dup1\n      sload\n      tag_132\n      swap1\n      tag_64\n      jump\t// in\n    tag_132:\n      dup1\n      0x1f\n      add\n      0x20\n      dup1\n      swap2\n      div\n      mul\n      0x20\n      add\n      mload(0x40)\n      swap1\n      dup2\n      add\n      0x40\n      mstore\n      dup1\n      swap3\n      swap2\n      swap1\n      dup2\n      dup2\n      mstore\n      0x20\n      add\n      dup3\n      dup1\n      sload\n      tag_133\n      swap1\n      tag_64\n      jump\t// in\n    tag_133:\n      dup1\n      iszero\n      tag_134\n      jumpi\n      dup1\n      0x1f\n      lt\n      tag_135\n      jumpi\n      0x0100\n      dup1\n      dup4\n      sload\n      div\n      mul\n      dup4\n      mstore\n      swap2\n      0x20\n      add\n      swap2\n      jump(tag_134)\n    tag_135:\n      dup3\n      add\n      swap2\n      swap1\n      0x00\n      mstore\n      keccak256(0x00, 0x20)\n      swap1\n    tag_136:\n      dup2\n      sload\n      dup2\n      mstore\n      swap1\n      0x01\n      add\n      swap1\n      0x20\n      add\n      dup1\n      dup4\n      gt\n      tag_136\n      jumpi\n      dup3\n      swap1\n      sub\n      0x1f\n      and\n      dup3\n      add\n      swap2\n    tag_134:\n      pop\n      pop\n      pop\n      pop\n      pop\n      swap1\n      dup1\n      0x06\n      add\n      0x00\n      swap1\n      sload\n      swap1\n      0x0100\n      exp\n      swap1\n      div\n      0xff\n      and\n      swap1\n      dup1\n      0x07\n      add\n      sload\n      swap1\n      pop\n      dup9\n      jump\t// out\n    tag_57:\n      mload(0x40)\n      dup1\n      0x0100\n      add\n      0x40\n      mstore\n      dup1\n      0x60\n      dup2\n      mstore\n      0x20\n      add\n      0x60\n      dup2\n      mstore\n      0x20\n      add\n      0x00\n      dup2\n      mstore\n      0x20\n      add\n      0x60\n      dup2\n      mstore\n      0x20\n      add\n      and(0xffffffffffffffffffffffffffffffffffffffff, 0x00)\n      dup2\n      mstore\n      0x20\n      add\n      0x60\n      dup2\n      mstore\n      0x20\n      add\n      0x00\n      0x02\n      dup2\n      gt\n      iszero\n      tag_137\n      jumpi\n      tag_138\n      tag_86\n      jump\t// in\n    tag_138:\n    tag_137:\n      dup2\n      mstore\n      0x20\n      add\n      0x00\n      dup2\n      mstore\n      pop\n      swap1\n      jump\t// out\n        /* \"#utility.yul\":7:82   */\n    tag_139:\n        /* \"#utility.yul\":40:46   */\n      0x00\n        /* \"#utility.yul\":73:75   */\n      0x40\n        /* \"#utility.yul\":67:76   */\n      mload\n        /* \"#utility.yul\":57:76   */\n      swap1\n      pop\n        /* \"#utility.yul\":7:82   */\n      swap1\n      jump\t// out\n        /* \"#utility.yul\":88:205   */\n    tag_140:\n        /* \"#utility.yul\":197:198   */\n      0x00\n        /* \"#utility.yul\":194:195   */\n      dup1\n        /* \"#utility.yul\":187:199   */\n      revert\n        /* \"#utility.yul\":211:328   */\n    tag_141:\n        /* \"#utility.yul\":320:321   */\n      0x00\n        /* \"#utility.yul\":317:318   */\n      dup1\n        /* \"#utility.yul\":310:322   */\n      revert\n        /* \"#utility.yul\":334:411   */\n    tag_142:\n        /* \"#utility.yul\":371:378   */\n      0x00\n        /* \"#utility.yul\":400:405   */\n      dup2\n        /* \"#utility.yul\":389:405   */\n      swap1\n      pop\n        /* \"#utility.yul\":334:411   */\n      swap2\n      swap1\n      pop\n      jump\t// out\n        /* \"#utility.yul\":417:539   */\n    tag_143:\n        /* \"#utility.yul\":490:514   */\n      tag_203\n        /* \"#utility.yul\":508:513   */\n      dup2\n        /* \"#utility.yul\":490:514   */\n      tag_142\n      jump\t// in\n    tag_203:\n        /* \"#utility.yul\":483:488   */\n      dup2\n        /* \"#utility.yul\":480:515   */\n      eq\n        /* \"#utility.yul\":470:533   */\n      tag_204\n      jumpi\n        /* \"#utility.yul\":529:530   */\n      0x00\n        /* \"#utility.yul\":526:527   */\n      dup1\n        /* \"#utility.yul\":519:531   */\n      revert\n        /* \"#utility.yul\":470:533   */\n    tag_204:\n        /* \"#utility.yul\":417:539   */\n      pop\n      jump\t// out\n        /* \"#utility.yul\":545:684   */\n    tag_144:\n        /* \"#utility.yul\":591:596   */\n      0x00\n        /* \"#utility.yul\":629:635   */\n      dup2\n        /* \"#utility.yul\":616:636   */\n      calldataload\n        /* \"#utility.yul\":607:636   */\n      swap1\n      pop\n        /* \"#utility.yul\":645:678   */\n      tag_206\n        /* \"#utility.yul\":672:677   */\n      dup2\n        /* \"#utility.yul\":645:678   */\n      tag_143\n      jump\t// in\n    tag_206:\n        /* \"#utility.yul\":545:684   */\n      swap3\n      swap2\n      pop\n      pop\n      jump\t// out\n        /* \"#utility.yul\":690:1019   */\n    tag_15:\n        /* \"#utility.yul\":749:755   */\n      0x00\n        /* \"#utility.yul\":798:800   */\n      0x20\n        /* \"#utility.yul\":786:795   */\n      dup3\n        /* \"#utility.yul\":777:784   */\n      dup5\n        /* \"#utility.yul\":773:796   */\n      sub\n        /* \"#utility.yul\":769:801   */\n      slt\n        /* \"#utility.yul\":766:885   */\n      iszero\n      tag_208\n      jumpi\n        /* \"#utility.yul\":804:883   */\n      tag_209\n      tag_140\n      jump\t// in\n    tag_209:\n        /* \"#utility.yul\":766:885   */\n    tag_208:\n        /* \"#utility.yul\":924:925   */\n      0x00\n        /* \"#utility.yul\":949:1002   */\n      tag_210\n        /* \"#utility.yul\":994:1001   */\n      dup5\n        /* \"#utility.yul\":985:991   */\n      dup3\n        /* \"#utility.yul\":974:983   */\n      dup6\n        /* \"#utility.yul\":970:992   */\n      add\n        /* \"#utility.yul\":949:1002   */\n      tag_144\n      jump\t// in\n    tag_210:\n        /* \"#utility.yul\":939:1002   */\n      swap2\n      pop\n        /* \"#utility.yul\":895:1012   */\n      pop\n        /* \"#utility.yul\":690:1019   */\n      swap3\n      swap2\n      pop\n      pop\n      jump\t// out\n        /* \"#utility.yul\":1025:1124   */\n    tag_145:\n        /* \"#utility.yul\":1077:1083   */\n      0x00\n        /* \"#utility.yul\":1111:1116   */\n      dup2\n        /* \"#utility.yul\":1105:1117   */\n      mload\n        /* \"#utility.yul\":1095:1117   */\n      swap1\n      pop\n        /* \"#utility.yul\":1025:1124   */\n      swap2\n      swap1\n      pop\n      jump\t// out\n        /* \"#utility.yul\":1130:1289   */\n    tag_146:\n        /* \"#utility.yul\":1204:1215   */\n      0x00\n        /* \"#utility.yul\":1238:1244   */\n      dup3\n        /* \"#utility.yul\":1233:1236   */\n      dup3\n        /* \"#utility.yul\":1226:1245   */\n      mstore\n        /* \"#utility.yul\":1278:1282   */\n      0x20\n        /* \"#utility.yul\":1273:1276   */\n      dup3\n        /* \"#utility.yul\":1269:1283   */\n      add\n        /* \"#utility.yul\":1254:1283   */\n      swap1\n      pop\n        /* \"#utility.yul\":1130:1289   */\n      swap3\n      swap2\n      pop\n      pop\n      jump\t// out\n        /* \"#utility.yul\":1295:1541   */\n    tag_147:\n        /* \"#utility.yul\":1376:1377   */\n      0x00\n        /* \"#utility.yul\":1386:1499   */\n    tag_214:\n        /* \"#utility.yul\":1400:1406   */\n      dup4\n        /* \"#utility.yul\":1397:1398   */\n      dup2\n        /* \"#utility.yul\":1394:1407   */\n      lt\n        /* \"#utility.yul\":1386:1499   */\n      iszero\n      tag_216\n      jumpi\n        /* \"#utility.yul\":1485:1486   */\n      dup1\n        /* \"#utility.yul\":1480:1483   */\n      dup3\n        /* \"#utility.yul\":1476:1487   */\n      add\n        /* \"#utility.yul\":1470:1488   */\n      mload\n        /* \"#utility.yul\":1466:1467   */\n      dup2\n        /* \"#utility.yul\":1461:1464   */\n      dup5\n        /* \"#utility.yul\":1457:1468   */\n      add\n        /* \"#utility.yul\":1450:1489   */\n      mstore\n        /* \"#utility.yul\":1422:1424   */\n      0x20\n        /* \"#utility.yul\":1419:1420   */\n      dup2\n        /* \"#utility.yul\":1415:1425   */\n      add\n        /* \"#utility.yul\":1410:1425   */\n      swap1\n      pop\n        /* \"#utility.yul\":1386:1499   */\n      jump(tag_214)\n    tag_216:\n        /* \"#utility.yul\":1533:1534   */\n      0x00\n        /* \"#utility.yul\":1524:1530   */\n      dup5\n        /* \"#utility.yul\":1519:1522   */\n      dup5\n        /* \"#utility.yul\":1515:1531   */\n      add\n        /* \"#utility.yul\":1508:1535   */\n      mstore\n        /* \"#utility.yul\":1357:1541   */\n      pop\n        /* \"#utility.yul\":1295:1541   */\n      pop\n      pop\n      pop\n      jump\t// out\n        /* \"#utility.yul\":1547:1649   */\n    tag_148:\n        /* \"#utility.yul\":1588:1594   */\n      0x00\n        /* \"#utility.yul\":1639:1641   */\n      0x1f\n        /* \"#utility.yul\":1635:1642   */\n      not\n        /* \"#utility.yul\":1630:1632   */\n      0x1f\n        /* \"#utility.yul\":1623:1628   */\n      dup4\n        /* \"#utility.yul\":1619:1633   */\n      add\n        /* \"#utility.yul\":1615:1643   */\n      and\n        /* \"#utility.yul\":1605:1643   */\n      swap1\n      pop\n        /* \"#utility.yul\":1547:1649   */\n      swap2\n      swap1\n      pop\n      jump\t// out\n        /* \"#utility.yul\":1655:2012   */\n    tag_149:\n        /* \"#utility.yul\":1733:1736   */\n      0x00\n        /* \"#utility.yul\":1761:1800   */\n      tag_219\n        /* \"#utility.yul\":1794:1799   */\n      dup3\n        /* \"#utility.yul\":1761:1800   */\n      tag_145\n      jump\t// in\n    tag_219:\n        /* \"#utility.yul\":1816:1877   */\n      tag_220\n        /* \"#utility.yul\":1870:1876   */\n      dup2\n        /* \"#utility.yul\":1865:1868   */\n      dup6\n        /* \"#utility.yul\":1816:1877   */\n      tag_146\n      jump\t// in\n    tag_220:\n        /* \"#utility.yul\":1809:1877   */\n      swap4\n      pop\n        /* \"#utility.yul\":1886:1951   */\n      tag_221\n        /* \"#utility.yul\":1944:1950   */\n      dup2\n        /* \"#utility.yul\":1939:1942   */\n      dup6\n        /* \"#utility.yul\":1932:1936   */\n      0x20\n        /* \"#utility.yul\":1925:1930   */\n      dup7\n        /* \"#utility.yul\":1921:1937   */\n      add\n        /* \"#utility.yul\":1886:1951   */\n      tag_147\n      jump\t// in\n    tag_221:\n        /* \"#utility.yul\":1976:2005   */\n      tag_222\n        /* \"#utility.yul\":1998:2004   */\n      dup2\n        /* \"#utility.yul\":1976:2005   */\n      tag_148\n      jump\t// in\n    tag_222:\n        /* \"#utility.yul\":1971:1974   */\n      dup5\n        /* \"#utility.yul\":1967:2006   */\n      add\n        /* \"#utility.yul\":1960:2006   */\n      swap2\n      pop\n        /* \"#utility.yul\":1737:2012   */\n      pop\n        /* \"#utility.yul\":1655:2012   */\n      swap3\n      swap2\n      pop\n      pop\n      jump\t// out\n        /* \"#utility.yul\":2018:2126   */\n    tag_150:\n        /* \"#utility.yul\":2095:2119   */\n      tag_224\n        /* \"#utility.yul\":2113:2118   */\n      dup2\n        /* \"#utility.yul\":2095:2119   */\n      tag_142\n      jump\t// in\n    tag_224:\n        /* \"#utility.yul\":2090:2093   */\n      dup3\n        /* \"#utility.yul\":2083:2120   */\n      mstore\n        /* \"#utility.yul\":2018:2126   */\n      pop\n      pop\n      jump\t// out\n        /* \"#utility.yul\":2132:2258   */\n    tag_151:\n        /* \"#utility.yul\":2169:2176   */\n      0x00\n        /* \"#utility.yul\":2209:2251   */\n      0xffffffffffffffffffffffffffffffffffffffff\n        /* \"#utility.yul\":2202:2207   */\n      dup3\n        /* \"#utility.yul\":2198:2252   */\n      and\n        /* \"#utility.yul\":2187:2252   */\n      swap1\n      pop\n        /* \"#utility.yul\":2132:2258   */\n      swap2\n      swap1\n      pop\n      jump\t// out\n        /* \"#utility.yul\":2264:2360   */\n    tag_152:\n        /* \"#utility.yul\":2301:2308   */\n      0x00\n        /* \"#utility.yul\":2330:2354   */\n      tag_227\n        /* \"#utility.yul\":2348:2353   */\n      dup3\n        /* \"#utility.yul\":2330:2354   */\n      tag_151\n      jump\t// in\n    tag_227:\n        /* \"#utility.yul\":2319:2354   */\n      swap1\n      pop\n        /* \"#utility.yul\":2264:2360   */\n      swap2\n      swap1\n      pop\n      jump\t// out\n        /* \"#utility.yul\":2366:2474   */\n    tag_153:\n        /* \"#utility.yul\":2443:2467   */\n      tag_229\n        /* \"#utility.yul\":2461:2466   */\n      dup2\n        /* \"#utility.yul\":2443:2467   */\n      tag_152\n      jump\t// in\n    tag_229:\n        /* \"#utility.yul\":2438:2441   */\n      dup3\n        /* \"#utility.yul\":2431:2468   */\n      mstore\n        /* \"#utility.yul\":2366:2474   */\n      pop\n      pop\n      jump\t// out\n        /* \"#utility.yul\":2480:2660   */\n    tag_86:\n        /* \"#utility.yul\":2528:2605   */\n      0x4e487b7100000000000000000000000000000000000000000000000000000000\n        /* \"#utility.yul\":2525:2526   */\n      0x00\n        /* \"#utility.yul\":2518:2606   */\n      mstore\n        /* \"#utility.yul\":2625:2629   */\n      0x21\n        /* \"#utility.yul\":2622:2623   */\n      0x04\n        /* \"#utility.yul\":2615:2630   */\n      mstore\n        /* \"#utility.yul\":2649:2653   */\n      0x24\n        /* \"#utility.yul\":2646:2647   */\n      0x00\n        /* \"#utility.yul\":2639:2654   */\n      revert\n        /* \"#utility.yul\":2666:2784   */\n    tag_154:\n        /* \"#utility.yul\":2752:2753   */\n      0x03\n        /* \"#utility.yul\":2745:2750   */\n      dup2\n        /* \"#utility.yul\":2742:2754   */\n      lt\n        /* \"#utility.yul\":2732:2778   */\n      tag_232\n      jumpi\n        /* \"#utility.yul\":2758:2776   */\n      tag_233\n      tag_86\n      jump\t// in\n    tag_233:\n        /* \"#utility.yul\":2732:2778   */\n    tag_232:\n        /* \"#utility.yul\":2666:2784   */\n      pop\n      jump\t// out\n        /* \"#utility.yul\":2790:2927   */\n    tag_155:\n        /* \"#utility.yul\":2840:2847   */\n      0x00\n        /* \"#utility.yul\":2869:2874   */\n      dup2\n        /* \"#utility.yul\":2858:2874   */\n      swap1\n      pop\n        /* \"#utility.yul\":2875:2921   */\n      tag_235\n        /* \"#utility.yul\":2915:2920   */\n      dup3\n        /* \"#utility.yul\":2875:2921   */\n      tag_154\n      jump\t// in\n    tag_235:\n        /* \"#utility.yul\":2790:2927   */\n      swap2\n      swap1\n      pop\n      jump\t// out\n        /* \"#utility.yul\":2933:3070   */\n    tag_156:\n        /* \"#utility.yul\":2994:3003   */\n      0x00\n        /* \"#utility.yul\":3027:3064   */\n      tag_237\n        /* \"#utility.yul\":3058:3063   */\n      dup3\n        /* \"#utility.yul\":3027:3064   */\n      tag_155\n      jump\t// in\n    tag_237:\n        /* \"#utility.yul\":3014:3064   */\n      swap1\n      pop\n        /* \"#utility.yul\":2933:3070   */\n      swap2\n      swap1\n      pop\n      jump\t// out\n        /* \"#utility.yul\":3076:3219   */\n    tag_157:\n        /* \"#utility.yul\":3164:3212   */\n      tag_239\n        /* \"#utility.yul\":3206:3211   */\n      dup2\n        /* \"#utility.yul\":3164:3212   */\n      tag_156\n      jump\t// in\n    tag_239:\n        /* \"#utility.yul\":3159:3162   */\n      dup3\n        /* \"#utility.yul\":3152:3213   */\n      mstore\n        /* \"#utility.yul\":3076:3219   */\n      pop\n      pop\n      jump\t// out\n        /* \"#utility.yul\":3291:5171   */\n    tag_158:\n        /* \"#utility.yul\":3408:3411   */\n      0x00\n        /* \"#utility.yul\":3444:3450   */\n      0x0100\n        /* \"#utility.yul\":3439:3442   */\n      dup4\n        /* \"#utility.yul\":3435:3451   */\n      add\n        /* \"#utility.yul\":3533:3537   */\n      0x00\n        /* \"#utility.yul\":3526:3531   */\n      dup4\n        /* \"#utility.yul\":3522:3538   */\n      add\n        /* \"#utility.yul\":3516:3539   */\n      mload\n        /* \"#utility.yul\":3586:3589   */\n      dup5\n        /* \"#utility.yul\":3580:3584   */\n      dup3\n        /* \"#utility.yul\":3576:3590   */\n      sub\n        /* \"#utility.yul\":3569:3573   */\n      0x00\n        /* \"#utility.yul\":3564:3567   */\n      dup7\n        /* \"#utility.yul\":3560:3574   */\n      add\n        /* \"#utility.yul\":3553:3591   */\n      mstore\n        /* \"#utility.yul\":3612:3685   */\n      tag_241\n        /* \"#utility.yul\":3680:3684   */\n      dup3\n        /* \"#utility.yul\":3666:3678   */\n      dup3\n        /* \"#utility.yul\":3612:3685   */\n      tag_149\n      jump\t// in\n    tag_241:\n        /* \"#utility.yul\":3604:3685   */\n      swap2\n      pop\n        /* \"#utility.yul\":3461:3696   */\n      pop\n        /* \"#utility.yul\":3782:3786   */\n      0x20\n        /* \"#utility.yul\":3775:3780   */\n      dup4\n        /* \"#utility.yul\":3771:3787   */\n      add\n        /* \"#utility.yul\":3765:3788   */\n      mload\n        /* \"#utility.yul\":3835:3838   */\n      dup5\n        /* \"#utility.yul\":3829:3833   */\n      dup3\n        /* \"#utility.yul\":3825:3839   */\n      sub\n        /* \"#utility.yul\":3818:3822   */\n      0x20\n        /* \"#utility.yul\":3813:3816   */\n      dup7\n        /* \"#utility.yul\":3809:3823   */\n      add\n        /* \"#utility.yul\":3802:3840   */\n      mstore\n        /* \"#utility.yul\":3861:3934   */\n      tag_242\n        /* \"#utility.yul\":3929:3933   */\n      dup3\n        /* \"#utility.yul\":3915:3927   */\n      dup3\n        /* \"#utility.yul\":3861:3934   */\n      tag_149\n      jump\t// in\n    tag_242:\n        /* \"#utility.yul\":3853:3934   */\n      swap2\n      pop\n        /* \"#utility.yul\":3706:3945   */\n      pop\n        /* \"#utility.yul\":4029:4033   */\n      0x40\n        /* \"#utility.yul\":4022:4027   */\n      dup4\n        /* \"#utility.yul\":4018:4034   */\n      add\n        /* \"#utility.yul\":4012:4035   */\n      mload\n        /* \"#utility.yul\":4048:4111   */\n      tag_243\n        /* \"#utility.yul\":4105:4109   */\n      0x40\n        /* \"#utility.yul\":4100:4103   */\n      dup7\n        /* \"#utility.yul\":4096:4110   */\n      add\n        /* \"#utility.yul\":4082:4094   */\n      dup3\n        /* \"#utility.yul\":4048:4111   */\n      tag_150\n      jump\t// in\n    tag_243:\n        /* \"#utility.yul\":3955:4121   */\n      pop\n        /* \"#utility.yul\":4203:4207   */\n      0x60\n        /* \"#utility.yul\":4196:4201   */\n      dup4\n        /* \"#utility.yul\":4192:4208   */\n      add\n        /* \"#utility.yul\":4186:4209   */\n      mload\n        /* \"#utility.yul\":4256:4259   */\n      dup5\n        /* \"#utility.yul\":4250:4254   */\n      dup3\n        /* \"#utility.yul\":4246:4260   */\n      sub\n        /* \"#utility.yul\":4239:4243   */\n      0x60\n        /* \"#utility.yul\":4234:4237   */\n      dup7\n        /* \"#utility.yul\":4230:4244   */\n      add\n        /* \"#utility.yul\":4223:4261   */\n      mstore\n        /* \"#utility.yul\":4282:4355   */\n      tag_244\n        /* \"#utility.yul\":4350:4354   */\n      dup3\n        /* \"#utility.yul\":4336:4348   */\n      dup3\n        /* \"#utility.yul\":4282:4355   */\n      tag_149\n      jump\t// in\n    tag_244:\n        /* \"#utility.yul\":4274:4355   */\n      swap2\n      pop\n        /* \"#utility.yul\":4131:4366   */\n      pop\n        /* \"#utility.yul\":4446:4450   */\n      0x80\n        /* \"#utility.yul\":4439:4444   */\n      dup4\n        /* \"#utility.yul\":4435:4451   */\n      add\n        /* \"#utility.yul\":4429:4452   */\n      mload\n        /* \"#utility.yul\":4465:4528   */\n      tag_245\n        /* \"#utility.yul\":4522:4526   */\n      0x80\n        /* \"#utility.yul\":4517:4520   */\n      dup7\n        /* \"#utility.yul\":4513:4527   */\n      add\n        /* \"#utility.yul\":4499:4511   */\n      dup3\n        /* \"#utility.yul\":4465:4528   */\n      tag_153\n      jump\t// in\n    tag_245:\n        /* \"#utility.yul\":4376:4538   */\n      pop\n        /* \"#utility.yul\":4622:4626   */\n      0xa0\n        /* \"#utility.yul\":4615:4620   */\n      dup4\n        /* \"#utility.yul\":4611:4627   */\n      add\n        /* \"#utility.yul\":4605:4628   */\n      mload\n        /* \"#utility.yul\":4675:4678   */\n      dup5\n        /* \"#utility.yul\":4669:4673   */\n      dup3\n        /* \"#utility.yul\":4665:4679   */\n      sub\n        /* \"#utility.yul\":4658:4662   */\n      0xa0\n        /* \"#utility.yul\":4653:4656   */\n      dup7\n        /* \"#utility.yul\":4649:4663   */\n      add\n        /* \"#utility.yul\":4642:4680   */\n      mstore\n        /* \"#utility.yul\":4701:4774   */\n      tag_246\n        /* \"#utility.yul\":4769:4773   */\n      dup3\n        /* \"#utility.yul\":4755:4767   */\n      dup3\n        /* \"#utility.yul\":4701:4774   */\n      tag_149\n      jump\t// in\n    tag_246:\n        /* \"#utility.yul\":4693:4774   */\n      swap2\n      pop\n        /* \"#utility.yul\":4548:4785   */\n      pop\n        /* \"#utility.yul\":4868:4872   */\n      0xc0\n        /* \"#utility.yul\":4861:4866   */\n      dup4\n        /* \"#utility.yul\":4857:4873   */\n      add\n        /* \"#utility.yul\":4851:4874   */\n      mload\n        /* \"#utility.yul\":4887:4961   */\n      tag_247\n        /* \"#utility.yul\":4955:4959   */\n      0xc0\n        /* \"#utility.yul\":4950:4953   */\n      dup7\n        /* \"#utility.yul\":4946:4960   */\n      add\n        /* \"#utility.yul\":4932:4944   */\n      dup3\n        /* \"#utility.yul\":4887:4961   */\n      tag_157\n      jump\t// in\n    tag_247:\n        /* \"#utility.yul\":4795:4971   */\n      pop\n        /* \"#utility.yul\":5052:5056   */\n      0xe0\n        /* \"#utility.yul\":5045:5050   */\n      dup4\n        /* \"#utility.yul\":5041:5057   */\n      add\n        /* \"#utility.yul\":5035:5058   */\n      mload\n        /* \"#utility.yul\":5071:5134   */\n      tag_248\n        /* \"#utility.yul\":5128:5132   */\n      0xe0\n        /* \"#utility.yul\":5123:5126   */\n      dup7\n        /* \"#utility.yul\":5119:5133   */\n      add\n        /* \"#utility.yul\":5105:5117   */\n      dup3\n        /* \"#utility.yul\":5071:5134   */\n      tag_150\n      jump\t// in\n    tag_248:\n        /* \"#utility.yul\":4981:5144   */\n      pop\n        /* \"#utility.yul\":5161:5165   */\n      dup1\n        /* \"#utility.yul\":5154:5165   */\n      swap2\n      pop\n        /* \"#utility.yul\":3413:5171   */\n      pop\n        /* \"#utility.yul\":3291:5171   */\n      swap3\n      swap2\n      pop\n      pop\n      jump\t// out\n        /* \"#utility.yul\":5177:5546   */\n    tag_18:\n        /* \"#utility.yul\":5318:5322   */\n      0x00\n        /* \"#utility.yul\":5356:5358   */\n      0x20\n        /* \"#utility.yul\":5345:5354   */\n      dup3\n        /* \"#utility.yul\":5341:5359   */\n      add\n        /* \"#utility.yul\":5333:5359   */\n      swap1\n      pop\n        /* \"#utility.yul\":5405:5414   */\n      dup2\n        /* \"#utility.yul\":5399:5403   */\n      dup2\n        /* \"#utility.yul\":5395:5415   */\n      sub\n        /* \"#utility.yul\":5391:5392   */\n      0x00\n        /* \"#utility.yul\":5380:5389   */\n      dup4\n        /* \"#utility.yul\":5376:5393   */\n      add\n        /* \"#utility.yul\":5369:5416   */\n      mstore\n        /* \"#utility.yul\":5433:5539   */\n      tag_250\n        /* \"#utility.yul\":5534:5538   */\n      dup2\n        /* \"#utility.yul\":5525:5531   */\n      dup5\n        /* \"#utility.yul\":5433:5539   */\n      tag_158\n      jump\t// in\n    tag_250:\n        /* \"#utility.yul\":5425:5539   */\n      swap1\n      pop\n        /* \"#utility.yul\":5177:5546   */\n      swap3\n      swap2\n      pop\n      pop\n      jump\t// out\n        /* \"#utility.yul\":5552:5674   */\n    tag_159:\n        /* \"#utility.yul\":5625:5649   */\n      tag_252\n        /* \"#utility.yul\":5643:5648   */\n      dup2\n        /* \"#utility.yul\":5625:5649   */\n      tag_152\n      jump\t// in\n    tag_252:\n        /* \"#utility.yul\":5618:5623   */\n      dup2\n        /* \"#utility.yul\":5615:5650   */\n      eq\n        /* \"#utility.yul\":5605:5668   */\n      tag_253\n      jumpi\n        /* \"#utility.yul\":5664:5665   */\n      0x00\n        /* \"#utility.yul\":5661:5662   */\n      dup1\n        /* \"#utility.yul\":5654:5666   */\n      revert\n        /* \"#utility.yul\":5605:5668   */\n    tag_253:\n        /* \"#utility.yul\":5552:5674   */\n      pop\n      jump\t// out\n        /* \"#utility.yul\":5680:5819   */\n    tag_160:\n        /* \"#utility.yul\":5726:5731   */\n      0x00\n        /* \"#utility.yul\":5764:5770   */\n      dup2\n        /* \"#utility.yul\":5751:5771   */\n      calldataload\n        /* \"#utility.yul\":5742:5771   */\n      swap1\n      pop\n        /* \"#utility.yul\":5780:5813   */\n      tag_255\n        /* \"#utility.yul\":5807:5812   */\n      dup2\n        /* \"#utility.yul\":5780:5813   */\n      tag_159\n      jump\t// in\n    tag_255:\n        /* \"#utility.yul\":5680:5819   */\n      swap3\n      swap2\n      pop\n      pop\n      jump\t// out\n        /* \"#utility.yul\":5825:5942   */\n    tag_161:\n        /* \"#utility.yul\":5934:5935   */\n      0x00\n        /* \"#utility.yul\":5931:5932   */\n      dup1\n        /* \"#utility.yul\":5924:5936   */\n      revert\n        /* \"#utility.yul\":5948:6065   */\n    tag_162:\n        /* \"#utility.yul\":6057:6058   */\n      0x00\n        /* \"#utility.yul\":6054:6055   */\n      dup1\n        /* \"#utility.yul\":6047:6059   */\n      revert\n        /* \"#utility.yul\":6071:6251   */\n    tag_163:\n        /* \"#utility.yul\":6119:6196   */\n      0x4e487b7100000000000000000000000000000000000000000000000000000000\n        /* \"#utility.yul\":6116:6117   */\n      0x00\n        /* \"#utility.yul\":6109:6197   */\n      mstore\n        /* \"#utility.yul\":6216:6220   */\n      0x41\n        /* \"#utility.yul\":6213:6214   */\n      0x04\n        /* \"#utility.yul\":6206:6221   */\n      mstore\n        /* \"#utility.yul\":6240:6244   */\n      0x24\n        /* \"#utility.yul\":6237:6238   */\n      0x00\n        /* \"#utility.yul\":6230:6245   */\n      revert\n        /* \"#utility.yul\":6257:6538   */\n    tag_164:\n        /* \"#utility.yul\":6340:6367   */\n      tag_260\n        /* \"#utility.yul\":6362:6366   */\n      dup3\n        /* \"#utility.yul\":6340:6367   */\n      tag_148\n      jump\t// in\n    tag_260:\n        /* \"#utility.yul\":6332:6338   */\n      dup2\n        /* \"#utility.yul\":6328:6368   */\n      add\n        /* \"#utility.yul\":6470:6476   */\n      dup2\n        /* \"#utility.yul\":6458:6468   */\n      dup2\n        /* \"#utility.yul\":6455:6477   */\n      lt\n        /* \"#utility.yul\":6434:6452   */\n      0xffffffffffffffff\n        /* \"#utility.yul\":6422:6432   */\n      dup3\n        /* \"#utility.yul\":6419:6453   */\n      gt\n        /* \"#utility.yul\":6416:6478   */\n      or\n        /* \"#utility.yul\":6413:6501   */\n      iszero\n      tag_261\n      jumpi\n        /* \"#utility.yul\":6481:6499   */\n      tag_262\n      tag_163\n      jump\t// in\n    tag_262:\n        /* \"#utility.yul\":6413:6501   */\n    tag_261:\n        /* \"#utility.yul\":6521:6531   */\n      dup1\n        /* \"#utility.yul\":6517:6519   */\n      0x40\n        /* \"#utility.yul\":6510:6532   */\n      mstore\n        /* \"#utility.yul\":6300:6538   */\n      pop\n        /* \"#utility.yul\":6257:6538   */\n      pop\n      pop\n      jump\t// out\n        /* \"#utility.yul\":6544:6673   */\n    tag_165:\n        /* \"#utility.yul\":6578:6584   */\n      0x00\n        /* \"#utility.yul\":6605:6625   */\n      tag_264\n      tag_139\n      jump\t// in\n    tag_264:\n        /* \"#utility.yul\":6595:6625   */\n      swap1\n      pop\n        /* \"#utility.yul\":6634:6667   */\n      tag_265\n        /* \"#utility.yul\":6662:6666   */\n      dup3\n        /* \"#utility.yul\":6654:6660   */\n      dup3\n        /* \"#utility.yul\":6634:6667   */\n      tag_164\n      jump\t// in\n    tag_265:\n        /* \"#utility.yul\":6544:6673   */\n      swap2\n      swap1\n      pop\n      jump\t// out\n        /* \"#utility.yul\":6679:6987   */\n    tag_166:\n        /* \"#utility.yul\":6741:6745   */\n      0x00\n        /* \"#utility.yul\":6831:6849   */\n      0xffffffffffffffff\n        /* \"#utility.yul\":6823:6829   */\n      dup3\n        /* \"#utility.yul\":6820:6850   */\n      gt\n        /* \"#utility.yul\":6817:6873   */\n      iszero\n      tag_267\n      jumpi\n        /* \"#utility.yul\":6853:6871   */\n      tag_268\n      tag_163\n      jump\t// in\n    tag_268:\n        /* \"#utility.yul\":6817:6873   */\n    tag_267:\n        /* \"#utility.yul\":6891:6920   */\n      tag_269\n        /* \"#utility.yul\":6913:6919   */\n      dup3\n        /* \"#utility.yul\":6891:6920   */\n      tag_148\n      jump\t// in\n    tag_269:\n        /* \"#utility.yul\":6883:6920   */\n      swap1\n      pop\n        /* \"#utility.yul\":6975:6979   */\n      0x20\n        /* \"#utility.yul\":6969:6973   */\n      dup2\n        /* \"#utility.yul\":6965:6980   */\n      add\n        /* \"#utility.yul\":6957:6980   */\n      swap1\n      pop\n        /* \"#utility.yul\":6679:6987   */\n      swap2\n      swap1\n      pop\n      jump\t// out\n        /* \"#utility.yul\":6993:7139   */\n    tag_167:\n        /* \"#utility.yul\":7090:7096   */\n      dup3\n        /* \"#utility.yul\":7085:7088   */\n      dup2\n        /* \"#utility.yul\":7080:7083   */\n      dup4\n        /* \"#utility.yul\":7067:7097   */\n      calldatacopy\n        /* \"#utility.yul\":7131:7132   */\n      0x00\n        /* \"#utility.yul\":7122:7128   */\n      dup4\n        /* \"#utility.yul\":7117:7120   */\n      dup4\n        /* \"#utility.yul\":7113:7129   */\n      add\n        /* \"#utility.yul\":7106:7133   */\n      mstore\n        /* \"#utility.yul\":6993:7139   */\n      pop\n      pop\n      pop\n      jump\t// out\n        /* \"#utility.yul\":7145:7570   */\n    tag_168:\n        /* \"#utility.yul\":7223:7228   */\n      0x00\n        /* \"#utility.yul\":7248:7314   */\n      tag_272\n        /* \"#utility.yul\":7264:7313   */\n      tag_273\n        /* \"#utility.yul\":7306:7312   */\n      dup5\n        /* \"#utility.yul\":7264:7313   */\n      tag_166\n      jump\t// in\n    tag_273:\n        /* \"#utility.yul\":7248:7314   */\n      tag_165\n      jump\t// in\n    tag_272:\n        /* \"#utility.yul\":7239:7314   */\n      swap1\n      pop\n        /* \"#utility.yul\":7337:7343   */\n      dup3\n        /* \"#utility.yul\":7330:7335   */\n      dup2\n        /* \"#utility.yul\":7323:7344   */\n      mstore\n        /* \"#utility.yul\":7375:7379   */\n      0x20\n        /* \"#utility.yul\":7368:7373   */\n      dup2\n        /* \"#utility.yul\":7364:7380   */\n      add\n        /* \"#utility.yul\":7413:7416   */\n      dup5\n        /* \"#utility.yul\":7404:7410   */\n      dup5\n        /* \"#utility.yul\":7399:7402   */\n      dup5\n        /* \"#utility.yul\":7395:7411   */\n      add\n        /* \"#utility.yul\":7392:7417   */\n      gt\n        /* \"#utility.yul\":7389:7501   */\n      iszero\n      tag_274\n      jumpi\n        /* \"#utility.yul\":7420:7499   */\n      tag_275\n      tag_162\n      jump\t// in\n    tag_275:\n        /* \"#utility.yul\":7389:7501   */\n    tag_274:\n        /* \"#utility.yul\":7510:7564   */\n      tag_276\n        /* \"#utility.yul\":7557:7563   */\n      dup5\n        /* \"#utility.yul\":7552:7555   */\n      dup3\n        /* \"#utility.yul\":7547:7550   */\n      dup6\n        /* \"#utility.yul\":7510:7564   */\n      tag_167\n      jump\t// in\n    tag_276:\n        /* \"#utility.yul\":7229:7570   */\n      pop\n        /* \"#utility.yul\":7145:7570   */\n      swap4\n      swap3\n      pop\n      pop\n      pop\n      jump\t// out\n        /* \"#utility.yul\":7590:7930   */\n    tag_169:\n        /* \"#utility.yul\":7646:7651   */\n      0x00\n        /* \"#utility.yul\":7695:7698   */\n      dup3\n        /* \"#utility.yul\":7688:7692   */\n      0x1f\n        /* \"#utility.yul\":7680:7686   */\n      dup4\n        /* \"#utility.yul\":7676:7693   */\n      add\n        /* \"#utility.yul\":7672:7699   */\n      slt\n        /* \"#utility.yul\":7662:7784   */\n      tag_278\n      jumpi\n        /* \"#utility.yul\":7703:7782   */\n      tag_279\n      tag_161\n      jump\t// in\n    tag_279:\n        /* \"#utility.yul\":7662:7784   */\n    tag_278:\n        /* \"#utility.yul\":7820:7826   */\n      dup2\n        /* \"#utility.yul\":7807:7827   */\n      calldataload\n        /* \"#utility.yul\":7845:7924   */\n      tag_280\n        /* \"#utility.yul\":7920:7923   */\n      dup5\n        /* \"#utility.yul\":7912:7918   */\n      dup3\n        /* \"#utility.yul\":7905:7909   */\n      0x20\n        /* \"#utility.yul\":7897:7903   */\n      dup7\n        /* \"#utility.yul\":7893:7910   */\n      add\n        /* \"#utility.yul\":7845:7924   */\n      tag_168\n      jump\t// in\n    tag_280:\n        /* \"#utility.yul\":7836:7924   */\n      swap2\n      pop\n        /* \"#utility.yul\":7652:7930   */\n      pop\n        /* \"#utility.yul\":7590:7930   */\n      swap3\n      swap2\n      pop\n      pop\n      jump\t// out\n        /* \"#utility.yul\":7936:8048   */\n    tag_170:\n        /* \"#utility.yul\":8022:8023   */\n      0x03\n        /* \"#utility.yul\":8015:8020   */\n      dup2\n        /* \"#utility.yul\":8012:8024   */\n      lt\n        /* \"#utility.yul\":8002:8042   */\n      tag_282\n      jumpi\n        /* \"#utility.yul\":8038:8039   */\n      0x00\n        /* \"#utility.yul\":8035:8036   */\n      dup1\n        /* \"#utility.yul\":8028:8040   */\n      revert\n        /* \"#utility.yul\":8002:8042   */\n    tag_282:\n        /* \"#utility.yul\":7936:8048   */\n      pop\n      jump\t// out\n        /* \"#utility.yul\":8054:8219   */\n    tag_171:\n        /* \"#utility.yul\":8113:8118   */\n      0x00\n        /* \"#utility.yul\":8151:8157   */\n      dup2\n        /* \"#utility.yul\":8138:8158   */\n      calldataload\n        /* \"#utility.yul\":8129:8158   */\n      swap1\n      pop\n        /* \"#utility.yul\":8167:8213   */\n      tag_284\n        /* \"#utility.yul\":8207:8212   */\n      dup2\n        /* \"#utility.yul\":8167:8213   */\n      tag_170\n      jump\t// in\n    tag_284:\n        /* \"#utility.yul\":8054:8219   */\n      swap3\n      swap2\n      pop\n      pop\n      jump\t// out\n        /* \"#utility.yul\":8225:10466   */\n    tag_22:\n        /* \"#utility.yul\":8409:8415   */\n      0x00\n        /* \"#utility.yul\":8417:8423   */\n      dup1\n        /* \"#utility.yul\":8425:8431   */\n      0x00\n        /* \"#utility.yul\":8433:8439   */\n      dup1\n        /* \"#utility.yul\":8441:8447   */\n      0x00\n        /* \"#utility.yul\":8449:8455   */\n      dup1\n        /* \"#utility.yul\":8457:8463   */\n      0x00\n        /* \"#utility.yul\":8465:8471   */\n      dup1\n        /* \"#utility.yul\":8473:8479   */\n      0x00\n        /* \"#utility.yul\":8522:8525   */\n      0x0120\n        /* \"#utility.yul\":8510:8519   */\n      dup11\n        /* \"#utility.yul\":8501:8508   */\n      dup13\n        /* \"#utility.yul\":8497:8520   */\n      sub\n        /* \"#utility.yul\":8493:8526   */\n      slt\n        /* \"#utility.yul\":8490:8610   */\n      iszero\n      tag_286\n      jumpi\n        /* \"#utility.yul\":8529:8608   */\n      tag_287\n      tag_140\n      jump\t// in\n    tag_287:\n        /* \"#utility.yul\":8490:8610   */\n    tag_286:\n        /* \"#utility.yul\":8649:8650   */\n      0x00\n        /* \"#utility.yul\":8674:8727   */\n      tag_288\n        /* \"#utility.yul\":8719:8726   */\n      dup13\n        /* \"#utility.yul\":8710:8716   */\n      dup3\n        /* \"#utility.yul\":8699:8708   */\n      dup14\n        /* \"#utility.yul\":8695:8717   */\n      add\n        /* \"#utility.yul\":8674:8727   */\n      tag_160\n      jump\t// in\n    tag_288:\n        /* \"#utility.yul\":8664:8727   */\n      swap10\n      pop\n        /* \"#utility.yul\":8620:8737   */\n      pop\n        /* \"#utility.yul\":8804:8806   */\n      0x20\n        /* \"#utility.yul\":8793:8802   */\n      dup11\n        /* \"#utility.yul\":8789:8807   */\n      add\n        /* \"#utility.yul\":8776:8808   */\n      calldataload\n        /* \"#utility.yul\":8835:8853   */\n      0xffffffffffffffff\n        /* \"#utility.yul\":8827:8833   */\n      dup2\n        /* \"#utility.yul\":8824:8854   */\n      gt\n        /* \"#utility.yul\":8821:8938   */\n      iszero\n      tag_289\n      jumpi\n        /* \"#utility.yul\":8857:8936   */\n      tag_290\n      tag_141\n      jump\t// in\n    tag_290:\n        /* \"#utility.yul\":8821:8938   */\n    tag_289:\n        /* \"#utility.yul\":8962:9025   */\n      tag_291\n        /* \"#utility.yul\":9017:9024   */\n      dup13\n        /* \"#utility.yul\":9008:9014   */\n      dup3\n        /* \"#utility.yul\":8997:9006   */\n      dup14\n        /* \"#utility.yul\":8993:9015   */\n      add\n        /* \"#utility.yul\":8962:9025   */\n      tag_169\n      jump\t// in\n    tag_291:\n        /* \"#utility.yul\":8952:9025   */\n      swap9\n      pop\n        /* \"#utility.yul\":8747:9035   */\n      pop\n        /* \"#utility.yul\":9102:9104   */\n      0x40\n        /* \"#utility.yul\":9091:9100   */\n      dup11\n        /* \"#utility.yul\":9087:9105   */\n      add\n        /* \"#utility.yul\":9074:9106   */\n      calldataload\n        /* \"#utility.yul\":9133:9151   */\n      0xffffffffffffffff\n        /* \"#utility.yul\":9125:9131   */\n      dup2\n        /* \"#utility.yul\":9122:9152   */\n      gt\n        /* \"#utility.yul\":9119:9236   */\n      iszero\n      tag_292\n      jumpi\n        /* \"#utility.yul\":9155:9234   */\n      tag_293\n      tag_141\n      jump\t// in\n    tag_293:\n        /* \"#utility.yul\":9119:9236   */\n    tag_292:\n        /* \"#utility.yul\":9260:9323   */\n      tag_294\n        /* \"#utility.yul\":9315:9322   */\n      dup13\n        /* \"#utility.yul\":9306:9312   */\n      dup3\n        /* \"#utility.yul\":9295:9304   */\n      dup14\n        /* \"#utility.yul\":9291:9313   */\n      add\n        /* \"#utility.yul\":9260:9323   */\n      tag_169\n      jump\t// in\n    tag_294:\n        /* \"#utility.yul\":9250:9323   */\n      swap8\n      pop\n        /* \"#utility.yul\":9045:9333   */\n      pop\n        /* \"#utility.yul\":9372:9374   */\n      0x60\n        /* \"#utility.yul\":9398:9451   */\n      tag_295\n        /* \"#utility.yul\":9443:9450   */\n      dup13\n        /* \"#utility.yul\":9434:9440   */\n      dup3\n        /* \"#utility.yul\":9423:9432   */\n      dup14\n        /* \"#utility.yul\":9419:9441   */\n      add\n        /* \"#utility.yul\":9398:9451   */\n      tag_144\n      jump\t// in\n    tag_295:\n        /* \"#utility.yul\":9388:9451   */\n      swap7\n      pop\n        /* \"#utility.yul\":9343:9461   */\n      pop\n        /* \"#utility.yul\":9528:9531   */\n      0x80\n        /* \"#utility.yul\":9517:9526   */\n      dup11\n        /* \"#utility.yul\":9513:9532   */\n      add\n        /* \"#utility.yul\":9500:9533   */\n      calldataload\n        /* \"#utility.yul\":9560:9578   */\n      0xffffffffffffffff\n        /* \"#utility.yul\":9552:9558   */\n      dup2\n        /* \"#utility.yul\":9549:9579   */\n      gt\n        /* \"#utility.yul\":9546:9663   */\n      iszero\n      tag_296\n      jumpi\n        /* \"#utility.yul\":9582:9661   */\n      tag_297\n      tag_141\n      jump\t// in\n    tag_297:\n        /* \"#utility.yul\":9546:9663   */\n    tag_296:\n        /* \"#utility.yul\":9687:9750   */\n      tag_298\n        /* \"#utility.yul\":9742:9749   */\n      dup13\n        /* \"#utility.yul\":9733:9739   */\n      dup3\n        /* \"#utility.yul\":9722:9731   */\n      dup14\n        /* \"#utility.yul\":9718:9740   */\n      add\n        /* \"#utility.yul\":9687:9750   */\n      tag_169\n      jump\t// in\n    tag_298:\n        /* \"#utility.yul\":9677:9750   */\n      swap6\n      pop\n        /* \"#utility.yul\":9471:9760   */\n      pop\n        /* \"#utility.yul\":9799:9802   */\n      0xa0\n        /* \"#utility.yul\":9826:9879   */\n      tag_299\n        /* \"#utility.yul\":9871:9878   */\n      dup13\n        /* \"#utility.yul\":9862:9868   */\n      dup3\n        /* \"#utility.yul\":9851:9860   */\n      dup14\n        /* \"#utility.yul\":9847:9869   */\n      add\n        /* \"#utility.yul\":9826:9879   */\n      tag_160\n      jump\t// in\n    tag_299:\n        /* \"#utility.yul\":9816:9879   */\n      swap5\n      pop\n        /* \"#utility.yul\":9770:9889   */\n      pop\n        /* \"#utility.yul\":9956:9959   */\n      0xc0\n        /* \"#utility.yul\":9945:9954   */\n      dup11\n        /* \"#utility.yul\":9941:9960   */\n      add\n        /* \"#utility.yul\":9928:9961   */\n      calldataload\n        /* \"#utility.yul\":9988:10006   */\n      0xffffffffffffffff\n        /* \"#utility.yul\":9980:9986   */\n      dup2\n        /* \"#utility.yul\":9977:10007   */\n      gt\n        /* \"#utility.yul\":9974:10091   */\n      iszero\n      tag_300\n      jumpi\n        /* \"#utility.yul\":10010:10089   */\n      tag_301\n      tag_141\n      jump\t// in\n    tag_301:\n        /* \"#utility.yul\":9974:10091   */\n    tag_300:\n        /* \"#utility.yul\":10115:10178   */\n      tag_302\n        /* \"#utility.yul\":10170:10177   */\n      dup13\n        /* \"#utility.yul\":10161:10167   */\n      dup3\n        /* \"#utility.yul\":10150:10159   */\n      dup14\n        /* \"#utility.yul\":10146:10168   */\n      add\n        /* \"#utility.yul\":10115:10178   */\n      tag_169\n      jump\t// in\n    tag_302:\n        /* \"#utility.yul\":10105:10178   */\n      swap4\n      pop\n        /* \"#utility.yul\":9899:10188   */\n      pop\n        /* \"#utility.yul\":10227:10230   */\n      0xe0\n        /* \"#utility.yul\":10254:10320   */\n      tag_303\n        /* \"#utility.yul\":10312:10319   */\n      dup13\n        /* \"#utility.yul\":10303:10309   */\n      dup3\n        /* \"#utility.yul\":10292:10301   */\n      dup14\n        /* \"#utility.yul\":10288:10310   */\n      add\n        /* \"#utility.yul\":10254:10320   */\n      tag_171\n      jump\t// in\n    tag_303:\n        /* \"#utility.yul\":10244:10320   */\n      swap3\n      pop\n        /* \"#utility.yul\":10198:10330   */\n      pop\n        /* \"#utility.yul\":10369:10372   */\n      0x0100\n        /* \"#utility.yul\":10396:10449   */\n      tag_304\n        /* \"#utility.yul\":10441:10448   */\n      dup13\n        /* \"#utility.yul\":10432:10438   */\n      dup3\n        /* \"#utility.yul\":10421:10430   */\n      dup14\n        /* \"#utility.yul\":10417:10439   */\n      add\n        /* \"#utility.yul\":10396:10449   */\n      tag_144\n      jump\t// in\n    tag_304:\n        /* \"#utility.yul\":10386:10449   */\n      swap2\n      pop\n        /* \"#utility.yul\":10340:10459   */\n      pop\n        /* \"#utility.yul\":8225:10466   */\n      swap3\n      swap6\n      swap9\n      pop\n      swap3\n      swap6\n      swap9\n      pop\n      swap3\n      swap6\n      swap9\n      jump\t// out\n        /* \"#utility.yul\":10472:10590   */\n    tag_172:\n        /* \"#utility.yul\":10559:10583   */\n      tag_306\n        /* \"#utility.yul\":10577:10582   */\n      dup2\n        /* \"#utility.yul\":10559:10583   */\n      tag_142\n      jump\t// in\n    tag_306:\n        /* \"#utility.yul\":10554:10557   */\n      dup3\n        /* \"#utility.yul\":10547:10584   */\n      mstore\n        /* \"#utility.yul\":10472:10590   */\n      pop\n      pop\n      jump\t// out\n        /* \"#utility.yul\":10596:10818   */\n    tag_28:\n        /* \"#utility.yul\":10689:10693   */\n      0x00\n        /* \"#utility.yul\":10727:10729   */\n      0x20\n        /* \"#utility.yul\":10716:10725   */\n      dup3\n        /* \"#utility.yul\":10712:10730   */\n      add\n        /* \"#utility.yul\":10704:10730   */\n      swap1\n      pop\n        /* \"#utility.yul\":10740:10811   */\n      tag_308\n        /* \"#utility.yul\":10808:10809   */\n      0x00\n        /* \"#utility.yul\":10797:10806   */\n      dup4\n        /* \"#utility.yul\":10793:10810   */\n      add\n        /* \"#utility.yul\":10784:10790   */\n      dup5\n        /* \"#utility.yul\":10740:10811   */\n      tag_172\n      jump\t// in\n    tag_308:\n        /* \"#utility.yul\":10596:10818   */\n      swap3\n      swap2\n      pop\n      pop\n      jump\t// out\n        /* \"#utility.yul\":10824:12893   */\n    tag_32:\n        /* \"#utility.yul\":10986:10992   */\n      0x00\n        /* \"#utility.yul\":10994:11000   */\n      dup1\n        /* \"#utility.yul\":11002:11008   */\n      0x00\n        /* \"#utility.yul\":11010:11016   */\n      dup1\n        /* \"#utility.yul\":11018:11024   */\n      0x00\n        /* \"#utility.yul\":11026:11032   */\n      dup1\n        /* \"#utility.yul\":11034:11040   */\n      0x00\n        /* \"#utility.yul\":11042:11048   */\n      dup1\n        /* \"#utility.yul\":11091:11094   */\n      0x0100\n        /* \"#utility.yul\":11079:11088   */\n      dup10\n        /* \"#utility.yul\":11070:11077   */\n      dup12\n        /* \"#utility.yul\":11066:11089   */\n      sub\n        /* \"#utility.yul\":11062:11095   */\n      slt\n        /* \"#utility.yul\":11059:11179   */\n      iszero\n      tag_310\n      jumpi\n        /* \"#utility.yul\":11098:11177   */\n      tag_311\n      tag_140\n      jump\t// in\n    tag_311:\n        /* \"#utility.yul\":11059:11179   */\n    tag_310:\n        /* \"#utility.yul\":11218:11219   */\n      0x00\n        /* \"#utility.yul\":11243:11296   */\n      tag_312\n        /* \"#utility.yul\":11288:11295   */\n      dup12\n        /* \"#utility.yul\":11279:11285   */\n      dup3\n        /* \"#utility.yul\":11268:11277   */\n      dup13\n        /* \"#utility.yul\":11264:11286   */\n      add\n        /* \"#utility.yul\":11243:11296   */\n      tag_160\n      jump\t// in\n    tag_312:\n        /* \"#utility.yul\":11233:11296   */\n      swap9\n      pop\n        /* \"#utility.yul\":11189:11306   */\n      pop\n        /* \"#utility.yul\":11373:11375   */\n      0x20\n        /* \"#utility.yul\":11362:11371   */\n      dup10\n        /* \"#utility.yul\":11358:11376   */\n      add\n        /* \"#utility.yul\":11345:11377   */\n      calldataload\n        /* \"#utility.yul\":11404:11422   */\n      0xffffffffffffffff\n        /* \"#utility.yul\":11396:11402   */\n      dup2\n        /* \"#utility.yul\":11393:11423   */\n      gt\n        /* \"#utility.yul\":11390:11507   */\n      iszero\n      tag_313\n      jumpi\n        /* \"#utility.yul\":11426:11505   */\n      tag_314\n      tag_141\n      jump\t// in\n    tag_314:\n        /* \"#utility.yul\":11390:11507   */\n    tag_313:\n        /* \"#utility.yul\":11531:11594   */\n      tag_315\n        /* \"#utility.yul\":11586:11593   */\n      dup12\n        /* \"#utility.yul\":11577:11583   */\n      dup3\n        /* \"#utility.yul\":11566:11575   */\n      dup13\n        /* \"#utility.yul\":11562:11584   */\n      add\n        /* \"#utility.yul\":11531:11594   */\n      tag_169\n      jump\t// in\n    tag_315:\n        /* \"#utility.yul\":11521:11594   */\n      swap8\n      pop\n        /* \"#utility.yul\":11316:11604   */\n      pop\n        /* \"#utility.yul\":11671:11673   */\n      0x40\n        /* \"#utility.yul\":11660:11669   */\n      dup10\n        /* \"#utility.yul\":11656:11674   */\n      add\n        /* \"#utility.yul\":11643:11675   */\n      calldataload\n        /* \"#utility.yul\":11702:11720   */\n      0xffffffffffffffff\n        /* \"#utility.yul\":11694:11700   */\n      dup2\n        /* \"#utility.yul\":11691:11721   */\n      gt\n        /* \"#utility.yul\":11688:11805   */\n      iszero\n      tag_316\n      jumpi\n        /* \"#utility.yul\":11724:11803   */\n      tag_317\n      tag_141\n      jump\t// in\n    tag_317:\n        /* \"#utility.yul\":11688:11805   */\n    tag_316:\n        /* \"#utility.yul\":11829:11892   */\n      tag_318\n        /* \"#utility.yul\":11884:11891   */\n      dup12\n        /* \"#utility.yul\":11875:11881   */\n      dup3\n        /* \"#utility.yul\":11864:11873   */\n      dup13\n        /* \"#utility.yul\":11860:11882   */\n      add\n        /* \"#utility.yul\":11829:11892   */\n      tag_169\n      jump\t// in\n    tag_318:\n        /* \"#utility.yul\":11819:11892   */\n      swap7\n      pop\n        /* \"#utility.yul\":11614:11902   */\n      pop\n        /* \"#utility.yul\":11941:11943   */\n      0x60\n        /* \"#utility.yul\":11967:12020   */\n      tag_319\n        /* \"#utility.yul\":12012:12019   */\n      dup12\n        /* \"#utility.yul\":12003:12009   */\n      dup3\n        /* \"#utility.yul\":11992:12001   */\n      dup13\n        /* \"#utility.yul\":11988:12010   */\n      add\n        /* \"#utility.yul\":11967:12020   */\n      tag_144\n      jump\t// in\n    tag_319:\n        /* \"#utility.yul\":11957:12020   */\n      swap6\n      pop\n        /* \"#utility.yul\":11912:12030   */\n      pop\n        /* \"#utility.yul\":12097:12100   */\n      0x80\n        /* \"#utility.yul\":12086:12095   */\n      dup10\n        /* \"#utility.yul\":12082:12101   */\n      add\n        /* \"#utility.yul\":12069:12102   */\n      calldataload\n        /* \"#utility.yul\":12129:12147   */\n      0xffffffffffffffff\n        /* \"#utility.yul\":12121:12127   */\n      dup2\n        /* \"#utility.yul\":12118:12148   */\n      gt\n        /* \"#utility.yul\":12115:12232   */\n      iszero\n      tag_320\n      jumpi\n        /* \"#utility.yul\":12151:12230   */\n      tag_321\n      tag_141\n      jump\t// in\n    tag_321:\n        /* \"#utility.yul\":12115:12232   */\n    tag_320:\n        /* \"#utility.yul\":12256:12319   */\n      tag_322\n        /* \"#utility.yul\":12311:12318   */\n      dup12\n        /* \"#utility.yul\":12302:12308   */\n      dup3\n        /* \"#utility.yul\":12291:12300   */\n      dup13\n        /* \"#utility.yul\":12287:12309   */\n      add\n        /* \"#utility.yul\":12256:12319   */\n      tag_169\n      jump\t// in\n    tag_322:\n        /* \"#utility.yul\":12246:12319   */\n      swap5\n      pop\n        /* \"#utility.yul\":12040:12329   */\n      pop\n        /* \"#utility.yul\":12368:12371   */\n      0xa0\n        /* \"#utility.yul\":12395:12448   */\n      tag_323\n        /* \"#utility.yul\":12440:12447   */\n      dup12\n        /* \"#utility.yul\":12431:12437   */\n      dup3\n        /* \"#utility.yul\":12420:12429   */\n      dup13\n        /* \"#utility.yul\":12416:12438   */\n      add\n        /* \"#utility.yul\":12395:12448   */\n      tag_160\n      jump\t// in\n    tag_323:\n        /* \"#utility.yul\":12385:12448   */\n      swap4\n      pop\n        /* \"#utility.yul\":12339:12458   */\n      pop\n        /* \"#utility.yul\":12525:12528   */\n      0xc0\n        /* \"#utility.yul\":12514:12523   */\n      dup10\n        /* \"#utility.yul\":12510:12529   */\n      add\n        /* \"#utility.yul\":12497:12530   */\n      calldataload\n        /* \"#utility.yul\":12557:12575   */\n      0xffffffffffffffff\n        /* \"#utility.yul\":12549:12555   */\n      dup2\n        /* \"#utility.yul\":12546:12576   */\n      gt\n        /* \"#utility.yul\":12543:12660   */\n      iszero\n      tag_324\n      jumpi\n        /* \"#utility.yul\":12579:12658   */\n      tag_325\n      tag_141\n      jump\t// in\n    tag_325:\n        /* \"#utility.yul\":12543:12660   */\n    tag_324:\n        /* \"#utility.yul\":12684:12747   */\n      tag_326\n        /* \"#utility.yul\":12739:12746   */\n      dup12\n        /* \"#utility.yul\":12730:12736   */\n      dup3\n        /* \"#utility.yul\":12719:12728   */\n      dup13\n        /* \"#utility.yul\":12715:12737   */\n      add\n        /* \"#utility.yul\":12684:12747   */\n      tag_169\n      jump\t// in\n    tag_326:\n        /* \"#utility.yul\":12674:12747   */\n      swap3\n      pop\n        /* \"#utility.yul\":12468:12757   */\n      pop\n        /* \"#utility.yul\":12796:12799   */\n      0xe0\n        /* \"#utility.yul\":12823:12876   */\n      tag_327\n        /* \"#utility.yul\":12868:12875   */\n      dup12\n        /* \"#utility.yul\":12859:12865   */\n      dup3\n        /* \"#utility.yul\":12848:12857   */\n      dup13\n        /* \"#utility.yul\":12844:12866   */\n      add\n        /* \"#utility.yul\":12823:12876   */\n      tag_144\n      jump\t// in\n    tag_327:\n        /* \"#utility.yul\":12813:12876   */\n      swap2\n      pop\n        /* \"#utility.yul\":12767:12886   */\n      pop\n        /* \"#utility.yul\":10824:12893   */\n      swap3\n      swap6\n      swap9\n      pop\n      swap3\n      swap6\n      swap9\n      swap1\n      swap4\n      swap7\n      pop\n      jump\t// out\n        /* \"#utility.yul\":12899:13003   */\n    tag_173:\n        /* \"#utility.yul\":12944:12951   */\n      0x00\n        /* \"#utility.yul\":12973:12997   */\n      tag_329\n        /* \"#utility.yul\":12991:12996   */\n      dup3\n        /* \"#utility.yul\":12973:12997   */\n      tag_151\n      jump\t// in\n    tag_329:\n        /* \"#utility.yul\":12962:12997   */\n      swap1\n      pop\n        /* \"#utility.yul\":12899:13003   */\n      swap2\n      swap1\n      pop\n      jump\t// out\n        /* \"#utility.yul\":13009:13147   */\n    tag_174:\n        /* \"#utility.yul\":13090:13122   */\n      tag_331\n        /* \"#utility.yul\":13116:13121   */\n      dup2\n        /* \"#utility.yul\":13090:13122   */\n      tag_173\n      jump\t// in\n    tag_331:\n        /* \"#utility.yul\":13083:13088   */\n      dup2\n        /* \"#utility.yul\":13080:13123   */\n      eq\n        /* \"#utility.yul\":13070:13141   */\n      tag_332\n      jumpi\n        /* \"#utility.yul\":13137:13138   */\n      0x00\n        /* \"#utility.yul\":13134:13135   */\n      dup1\n        /* \"#utility.yul\":13127:13139   */\n      revert\n        /* \"#utility.yul\":13070:13141   */\n    tag_332:\n        /* \"#utility.yul\":13009:13147   */\n      pop\n      jump\t// out\n        /* \"#utility.yul\":13153:13308   */\n    tag_175:\n        /* \"#utility.yul\":13207:13212   */\n      0x00\n        /* \"#utility.yul\":13245:13251   */\n      dup2\n        /* \"#utility.yul\":13232:13252   */\n      calldataload\n        /* \"#utility.yul\":13223:13252   */\n      swap1\n      pop\n        /* \"#utility.yul\":13261:13302   */\n      tag_334\n        /* \"#utility.yul\":13296:13301   */\n      dup2\n        /* \"#utility.yul\":13261:13302   */\n      tag_174\n      jump\t// in\n    tag_334:\n        /* \"#utility.yul\":13153:13308   */\n      swap3\n      swap2\n      pop\n      pop\n      jump\t// out\n        /* \"#utility.yul\":13314:13659   */\n    tag_44:\n        /* \"#utility.yul\":13381:13387   */\n      0x00\n        /* \"#utility.yul\":13430:13432   */\n      0x20\n        /* \"#utility.yul\":13418:13427   */\n      dup3\n        /* \"#utility.yul\":13409:13416   */\n      dup5\n        /* \"#utility.yul\":13405:13428   */\n      sub\n        /* \"#utility.yul\":13401:13433   */\n      slt\n        /* \"#utility.yul\":13398:13517   */\n      iszero\n      tag_336\n      jumpi\n        /* \"#utility.yul\":13436:13515   */\n      tag_337\n      tag_140\n      jump\t// in\n    tag_337:\n        /* \"#utility.yul\":13398:13517   */\n    tag_336:\n        /* \"#utility.yul\":13556:13557   */\n      0x00\n        /* \"#utility.yul\":13581:13642   */\n      tag_338\n        /* \"#utility.yul\":13634:13641   */\n      dup5\n        /* \"#utility.yul\":13625:13631   */\n      dup3\n        /* \"#utility.yul\":13614:13623   */\n      dup6\n        /* \"#utility.yul\":13610:13632   */\n      add\n        /* \"#utility.yul\":13581:13642   */\n      tag_175\n      jump\t// in\n    tag_338:\n        /* \"#utility.yul\":13571:13642   */\n      swap2\n      pop\n        /* \"#utility.yul\":13527:13652   */\n      pop\n        /* \"#utility.yul\":13314:13659   */\n      swap3\n      swap2\n      pop\n      pop\n      jump\t// out\n        /* \"#utility.yul\":13665:14155   */\n    tag_48:\n        /* \"#utility.yul\":13741:13747   */\n      0x00\n        /* \"#utility.yul\":13749:13755   */\n      dup1\n        /* \"#utility.yul\":13798:13800   */\n      0x40\n        /* \"#utility.yul\":13786:13795   */\n      dup4\n        /* \"#utility.yul\":13777:13784   */\n      dup6\n        /* \"#utility.yul\":13773:13796   */\n      sub\n        /* \"#utility.yul\":13769:13801   */\n      slt\n        /* \"#utility.yul\":13766:13885   */\n      iszero\n      tag_340\n      jumpi\n        /* \"#utility.yul\":13804:13883   */\n      tag_341\n      tag_140\n      jump\t// in\n    tag_341:\n        /* \"#utility.yul\":13766:13885   */\n    tag_340:\n        /* \"#utility.yul\":13924:13925   */\n      0x00\n        /* \"#utility.yul\":13949:14002   */\n      tag_342\n        /* \"#utility.yul\":13994:14001   */\n      dup6\n        /* \"#utility.yul\":13985:13991   */\n      dup3\n        /* \"#utility.yul\":13974:13983   */\n      dup7\n        /* \"#utility.yul\":13970:13992   */\n      add\n        /* \"#utility.yul\":13949:14002   */\n      tag_144\n      jump\t// in\n    tag_342:\n        /* \"#utility.yul\":13939:14002   */\n      swap3\n      pop\n        /* \"#utility.yul\":13895:14012   */\n      pop\n        /* \"#utility.yul\":14051:14053   */\n      0x20\n        /* \"#utility.yul\":14077:14138   */\n      tag_343\n        /* \"#utility.yul\":14130:14137   */\n      dup6\n        /* \"#utility.yul\":14121:14127   */\n      dup3\n        /* \"#utility.yul\":14110:14119   */\n      dup7\n        /* \"#utility.yul\":14106:14128   */\n      add\n        /* \"#utility.yul\":14077:14138   */\n      tag_175\n      jump\t// in\n    tag_343:\n        /* \"#utility.yul\":14067:14138   */\n      swap2\n      pop\n        /* \"#utility.yul\":14022:14148   */\n      pop\n        /* \"#utility.yul\":13665:14155   */\n      swap3\n      pop\n      swap3\n      swap1\n      pop\n      jump\t// out\n        /* \"#utility.yul\":14161:14330   */\n    tag_176:\n        /* \"#utility.yul\":14245:14256   */\n      0x00\n        /* \"#utility.yul\":14279:14285   */\n      dup3\n        /* \"#utility.yul\":14274:14277   */\n      dup3\n        /* \"#utility.yul\":14267:14286   */\n      mstore\n        /* \"#utility.yul\":14319:14323   */\n      0x20\n        /* \"#utility.yul\":14314:14317   */\n      dup3\n        /* \"#utility.yul\":14310:14324   */\n      add\n        /* \"#utility.yul\":14295:14324   */\n      swap1\n      pop\n        /* \"#utility.yul\":14161:14330   */\n      swap3\n      swap2\n      pop\n      pop\n      jump\t// out\n        /* \"#utility.yul\":14336:14713   */\n    tag_177:\n        /* \"#utility.yul\":14424:14427   */\n      0x00\n        /* \"#utility.yul\":14452:14491   */\n      tag_346\n        /* \"#utility.yul\":14485:14490   */\n      dup3\n        /* \"#utility.yul\":14452:14491   */\n      tag_145\n      jump\t// in\n    tag_346:\n        /* \"#utility.yul\":14507:14578   */\n      tag_347\n        /* \"#utility.yul\":14571:14577   */\n      dup2\n        /* \"#utility.yul\":14566:14569   */\n      dup6\n        /* \"#utility.yul\":14507:14578   */\n      tag_176\n      jump\t// in\n    tag_347:\n        /* \"#utility.yul\":14500:14578   */\n      swap4\n      pop\n        /* \"#utility.yul\":14587:14652   */\n      tag_348\n        /* \"#utility.yul\":14645:14651   */\n      dup2\n        /* \"#utility.yul\":14640:14643   */\n      dup6\n        /* \"#utility.yul\":14633:14637   */\n      0x20\n        /* \"#utility.yul\":14626:14631   */\n      dup7\n        /* \"#utility.yul\":14622:14638   */\n      add\n        /* \"#utility.yul\":14587:14652   */\n      tag_147\n      jump\t// in\n    tag_348:\n        /* \"#utility.yul\":14677:14706   */\n      tag_349\n        /* \"#utility.yul\":14699:14705   */\n      dup2\n        /* \"#utility.yul\":14677:14706   */\n      tag_148\n      jump\t// in\n    tag_349:\n        /* \"#utility.yul\":14672:14675   */\n      dup5\n        /* \"#utility.yul\":14668:14707   */\n      add\n        /* \"#utility.yul\":14661:14707   */\n      swap2\n      pop\n        /* \"#utility.yul\":14428:14713   */\n      pop\n        /* \"#utility.yul\":14336:14713   */\n      swap3\n      swap2\n      pop\n      pop\n      jump\t// out\n        /* \"#utility.yul\":14719:14837   */\n    tag_178:\n        /* \"#utility.yul\":14806:14830   */\n      tag_351\n        /* \"#utility.yul\":14824:14829   */\n      dup2\n        /* \"#utility.yul\":14806:14830   */\n      tag_152\n      jump\t// in\n    tag_351:\n        /* \"#utility.yul\":14801:14804   */\n      dup3\n        /* \"#utility.yul\":14794:14831   */\n      mstore\n        /* \"#utility.yul\":14719:14837   */\n      pop\n      pop\n      jump\t// out\n        /* \"#utility.yul\":14843:14996   */\n    tag_179:\n        /* \"#utility.yul\":14941:14989   */\n      tag_353\n        /* \"#utility.yul\":14983:14988   */\n      dup2\n        /* \"#utility.yul\":14941:14989   */\n      tag_156\n      jump\t// in\n    tag_353:\n        /* \"#utility.yul\":14936:14939   */\n      dup3\n        /* \"#utility.yul\":14929:14990   */\n      mstore\n        /* \"#utility.yul\":14843:14996   */\n      pop\n      pop\n      jump\t// out\n        /* \"#utility.yul\":15002:16385   */\n    tag_55:\n        /* \"#utility.yul\":15382:15386   */\n      0x00\n        /* \"#utility.yul\":15420:15423   */\n      0x0100\n        /* \"#utility.yul\":15409:15418   */\n      dup3\n        /* \"#utility.yul\":15405:15424   */\n      add\n        /* \"#utility.yul\":15397:15424   */\n      swap1\n      pop\n        /* \"#utility.yul\":15470:15479   */\n      dup2\n        /* \"#utility.yul\":15464:15468   */\n      dup2\n        /* \"#utility.yul\":15460:15480   */\n      sub\n        /* \"#utility.yul\":15456:15457   */\n      0x00\n        /* \"#utility.yul\":15445:15454   */\n      dup4\n        /* \"#utility.yul\":15441:15458   */\n      add\n        /* \"#utility.yul\":15434:15481   */\n      mstore\n        /* \"#utility.yul\":15498:15576   */\n      tag_355\n        /* \"#utility.yul\":15571:15575   */\n      dup2\n        /* \"#utility.yul\":15562:15568   */\n      dup12\n        /* \"#utility.yul\":15498:15576   */\n      tag_177\n      jump\t// in\n    tag_355:\n        /* \"#utility.yul\":15490:15576   */\n      swap1\n      pop\n        /* \"#utility.yul\":15623:15632   */\n      dup2\n        /* \"#utility.yul\":15617:15621   */\n      dup2\n        /* \"#utility.yul\":15613:15633   */\n      sub\n        /* \"#utility.yul\":15608:15610   */\n      0x20\n        /* \"#utility.yul\":15597:15606   */\n      dup4\n        /* \"#utility.yul\":15593:15611   */\n      add\n        /* \"#utility.yul\":15586:15634   */\n      mstore\n        /* \"#utility.yul\":15651:15729   */\n      tag_356\n        /* \"#utility.yul\":15724:15728   */\n      dup2\n        /* \"#utility.yul\":15715:15721   */\n      dup11\n        /* \"#utility.yul\":15651:15729   */\n      tag_177\n      jump\t// in\n    tag_356:\n        /* \"#utility.yul\":15643:15729   */\n      swap1\n      pop\n        /* \"#utility.yul\":15739:15811   */\n      tag_357\n        /* \"#utility.yul\":15807:15809   */\n      0x40\n        /* \"#utility.yul\":15796:15805   */\n      dup4\n        /* \"#utility.yul\":15792:15810   */\n      add\n        /* \"#utility.yul\":15783:15789   */\n      dup10\n        /* \"#utility.yul\":15739:15811   */\n      tag_172\n      jump\t// in\n    tag_357:\n        /* \"#utility.yul\":15858:15867   */\n      dup2\n        /* \"#utility.yul\":15852:15856   */\n      dup2\n        /* \"#utility.yul\":15848:15868   */\n      sub\n        /* \"#utility.yul\":15843:15845   */\n      0x60\n        /* \"#utility.yul\":15832:15841   */\n      dup4\n        /* \"#utility.yul\":15828:15846   */\n      add\n        /* \"#utility.yul\":15821:15869   */\n      mstore\n        /* \"#utility.yul\":15886:15964   */\n      tag_358\n        /* \"#utility.yul\":15959:15963   */\n      dup2\n        /* \"#utility.yul\":15950:15956   */\n      dup9\n        /* \"#utility.yul\":15886:15964   */\n      tag_177\n      jump\t// in\n    tag_358:\n        /* \"#utility.yul\":15878:15964   */\n      swap1\n      pop\n        /* \"#utility.yul\":15974:16047   */\n      tag_359\n        /* \"#utility.yul\":16042:16045   */\n      0x80\n        /* \"#utility.yul\":16031:16040   */\n      dup4\n        /* \"#utility.yul\":16027:16046   */\n      add\n        /* \"#utility.yul\":16018:16024   */\n      dup8\n        /* \"#utility.yul\":15974:16047   */\n      tag_178\n      jump\t// in\n    tag_359:\n        /* \"#utility.yul\":16095:16104   */\n      dup2\n        /* \"#utility.yul\":16089:16093   */\n      dup2\n        /* \"#utility.yul\":16085:16105   */\n      sub\n        /* \"#utility.yul\":16079:16082   */\n      0xa0\n        /* \"#utility.yul\":16068:16077   */\n      dup4\n        /* \"#utility.yul\":16064:16083   */\n      add\n        /* \"#utility.yul\":16057:16106   */\n      mstore\n        /* \"#utility.yul\":16123:16201   */\n      tag_360\n        /* \"#utility.yul\":16196:16200   */\n      dup2\n        /* \"#utility.yul\":16187:16193   */\n      dup7\n        /* \"#utility.yul\":16123:16201   */\n      tag_177\n      jump\t// in\n    tag_360:\n        /* \"#utility.yul\":16115:16201   */\n      swap1\n      pop\n        /* \"#utility.yul\":16211:16295   */\n      tag_361\n        /* \"#utility.yul\":16290:16293   */\n      0xc0\n        /* \"#utility.yul\":16279:16288   */\n      dup4\n        /* \"#utility.yul\":16275:16294   */\n      add\n        /* \"#utility.yul\":16266:16272   */\n      dup6\n        /* \"#utility.yul\":16211:16295   */\n      tag_179\n      jump\t// in\n    tag_361:\n        /* \"#utility.yul\":16305:16378   */\n      tag_362\n        /* \"#utility.yul\":16373:16376   */\n      0xe0\n        /* \"#utility.yul\":16362:16371   */\n      dup4\n        /* \"#utility.yul\":16358:16377   */\n      add\n        /* \"#utility.yul\":16349:16355   */\n      dup5\n        /* \"#utility.yul\":16305:16378   */\n      tag_172\n      jump\t// in\n    tag_362:\n        /* \"#utility.yul\":15002:16385   */\n      swap10\n      swap9\n      pop\n      pop\n      pop\n      pop\n      pop\n      pop\n      pop\n      pop\n      pop\n      jump\t// out\n        /* \"#utility.yul\":16391:16571   */\n    tag_61:\n        /* \"#utility.yul\":16439:16516   */\n      0x4e487b7100000000000000000000000000000000000000000000000000000000\n        /* \"#utility.yul\":16436:16437   */\n      0x00\n        /* \"#utility.yul\":16429:16517   */\n      mstore\n        /* \"#utility.yul\":16536:16540   */\n      0x32\n        /* \"#utility.yul\":16533:16534   */\n      0x04\n        /* \"#utility.yul\":16526:16541   */\n      mstore\n        /* \"#utility.yul\":16560:16564   */\n      0x24\n        /* \"#utility.yul\":16557:16558   */\n      0x00\n        /* \"#utility.yul\":16550:16565   */\n      revert\n        /* \"#utility.yul\":16577:16757   */\n    tag_180:\n        /* \"#utility.yul\":16625:16702   */\n      0x4e487b7100000000000000000000000000000000000000000000000000000000\n        /* \"#utility.yul\":16622:16623   */\n      0x00\n        /* \"#utility.yul\":16615:16703   */\n      mstore\n        /* \"#utility.yul\":16722:16726   */\n      0x22\n        /* \"#utility.yul\":16719:16720   */\n      0x04\n        /* \"#utility.yul\":16712:16727   */\n      mstore\n        /* \"#utility.yul\":16746:16750   */\n      0x24\n        /* \"#utility.yul\":16743:16744   */\n      0x00\n        /* \"#utility.yul\":16736:16751   */\n      revert\n        /* \"#utility.yul\":16763:17083   */\n    tag_64:\n        /* \"#utility.yul\":16807:16813   */\n      0x00\n        /* \"#utility.yul\":16844:16845   */\n      0x02\n        /* \"#utility.yul\":16838:16842   */\n      dup3\n        /* \"#utility.yul\":16834:16846   */\n      div\n        /* \"#utility.yul\":16824:16846   */\n      swap1\n      pop\n        /* \"#utility.yul\":16891:16892   */\n      0x01\n        /* \"#utility.yul\":16885:16889   */\n      dup3\n        /* \"#utility.yul\":16881:16893   */\n      and\n        /* \"#utility.yul\":16912:16930   */\n      dup1\n        /* \"#utility.yul\":16902:16983   */\n      tag_366\n      jumpi\n        /* \"#utility.yul\":16968:16972   */\n      0x7f\n        /* \"#utility.yul\":16960:16966   */\n      dup3\n        /* \"#utility.yul\":16956:16973   */\n      and\n        /* \"#utility.yul\":16946:16973   */\n      swap2\n      pop\n        /* \"#utility.yul\":16902:16983   */\n    tag_366:\n        /* \"#utility.yul\":17030:17032   */\n      0x20\n        /* \"#utility.yul\":17022:17028   */\n      dup3\n        /* \"#utility.yul\":17019:17033   */\n      lt\n        /* \"#utility.yul\":16999:17017   */\n      dup2\n        /* \"#utility.yul\":16996:17034   */\n      sub\n        /* \"#utility.yul\":16993:17077   */\n      tag_367\n      jumpi\n        /* \"#utility.yul\":17049:17067   */\n      tag_368\n      tag_180\n      jump\t// in\n    tag_368:\n        /* \"#utility.yul\":16993:17077   */\n    tag_367:\n        /* \"#utility.yul\":16814:17083   */\n      pop\n        /* \"#utility.yul\":16763:17083   */\n      swap2\n      swap1\n      pop\n      jump\t// out\n        /* \"#utility.yul\":17089:17230   */\n    tag_181:\n        /* \"#utility.yul\":17138:17142   */\n      0x00\n        /* \"#utility.yul\":17161:17164   */\n      dup2\n        /* \"#utility.yul\":17153:17164   */\n      swap1\n      pop\n        /* \"#utility.yul\":17184:17187   */\n      dup2\n        /* \"#utility.yul\":17181:17182   */\n      0x00\n        /* \"#utility.yul\":17174:17188   */\n      mstore\n        /* \"#utility.yul\":17218:17222   */\n      0x20\n        /* \"#utility.yul\":17215:17216   */\n      0x00\n        /* \"#utility.yul\":17205:17223   */\n      keccak256\n        /* \"#utility.yul\":17197:17223   */\n      swap1\n      pop\n        /* \"#utility.yul\":17089:17230   */\n      swap2\n      swap1\n      pop\n      jump\t// out\n        /* \"#utility.yul\":17236:17329   */\n    tag_182:\n        /* \"#utility.yul\":17273:17279   */\n      0x00\n        /* \"#utility.yul\":17320:17322   */\n      0x20\n        /* \"#utility.yul\":17315:17317   */\n      0x1f\n        /* \"#utility.yul\":17308:17313   */\n      dup4\n        /* \"#utility.yul\":17304:17318   */\n      add\n        /* \"#utility.yul\":17300:17323   */\n      div\n        /* \"#utility.yul\":17290:17323   */\n      swap1\n      pop\n        /* \"#utility.yul\":17236:17329   */\n      swap2\n      swap1\n      pop\n      jump\t// out\n        /* \"#utility.yul\":17335:17442   */\n    tag_183:\n        /* \"#utility.yul\":17379:17387   */\n      0x00\n        /* \"#utility.yul\":17429:17434   */\n      dup3\n        /* \"#utility.yul\":17423:17427   */\n      dup3\n        /* \"#utility.yul\":17419:17435   */\n      shl\n        /* \"#utility.yul\":17398:17435   */\n      swap1\n      pop\n        /* \"#utility.yul\":17335:17442   */\n      swap3\n      swap2\n      pop\n      pop\n      jump\t// out\n        /* \"#utility.yul\":17448:17841   */\n    tag_184:\n        /* \"#utility.yul\":17517:17523   */\n      0x00\n        /* \"#utility.yul\":17567:17568   */\n      0x08\n        /* \"#utility.yul\":17555:17565   */\n      dup4\n        /* \"#utility.yul\":17551:17569   */\n      mul\n        /* \"#utility.yul\":17590:17687   */\n      tag_373\n        /* \"#utility.yul\":17620:17686   */\n      0xffffffffffffffffffffffffffffffffffffffffffffffffffffffffffffffff\n        /* \"#utility.yul\":17609:17618   */\n      dup3\n        /* \"#utility.yul\":17590:17687   */\n      tag_183\n      jump\t// in\n    tag_373:\n        /* \"#utility.yul\":17708:17747   */\n      tag_374\n        /* \"#utility.yul\":17738:17746   */\n      dup7\n        /* \"#utility.yul\":17727:17736   */\n      dup4\n        /* \"#utility.yul\":17708:17747   */\n      tag_183\n      jump\t// in\n    tag_374:\n        /* \"#utility.yul\":17696:17747   */\n      swap6\n      pop\n        /* \"#utility.yul\":17780:17784   */\n      dup1\n        /* \"#utility.yul\":17776:17785   */\n      not\n        /* \"#utility.yul\":17769:17774   */\n      dup5\n        /* \"#utility.yul\":17765:17786   */\n      and\n        /* \"#utility.yul\":17756:17786   */\n      swap4\n      pop\n        /* \"#utility.yul\":17829:17833   */\n      dup1\n        /* \"#utility.yul\":17819:17827   */\n      dup7\n        /* \"#utility.yul\":17815:17834   */\n      and\n        /* \"#utility.yul\":17808:17813   */\n      dup5\n        /* \"#utility.yul\":17805:17835   */\n      or\n        /* \"#utility.yul\":17795:17835   */\n      swap3\n      pop\n        /* \"#utility.yul\":17524:17841   */\n      pop\n      pop\n        /* \"#utility.yul\":17448:17841   */\n      swap4\n      swap3\n      pop\n      pop\n      pop\n      jump\t// out\n        /* \"#utility.yul\":17847:17907   */\n    tag_185:\n        /* \"#utility.yul\":17875:17878   */\n      0x00\n        /* \"#utility.yul\":17896:17901   */\n      dup2\n        /* \"#utility.yul\":17889:17901   */\n      swap1\n      pop\n        /* \"#utility.yul\":17847:17907   */\n      swap2\n      swap1\n      pop\n      jump\t// out\n        /* \"#utility.yul\":17913:18055   */\n    tag_186:\n        /* \"#utility.yul\":17963:17972   */\n      0x00\n        /* \"#utility.yul\":17996:18049   */\n      tag_377\n        /* \"#utility.yul\":18014:18048   */\n      tag_378\n        /* \"#utility.yul\":18023:18047   */\n      tag_379\n        /* \"#utility.yul\":18041:18046   */\n      dup5\n        /* \"#utility.yul\":18023:18047   */\n      tag_142\n      jump\t// in\n    tag_379:\n        /* \"#utility.yul\":18014:18048   */\n      tag_185\n      jump\t// in\n    tag_378:\n        /* \"#utility.yul\":17996:18049   */\n      tag_142\n      jump\t// in\n    tag_377:\n        /* \"#utility.yul\":17983:18049   */\n      swap1\n      pop\n        /* \"#utility.yul\":17913:18055   */\n      swap2\n      swap1\n      pop\n      jump\t// out\n        /* \"#utility.yul\":18061:18136   */\n    tag_187:\n        /* \"#utility.yul\":18104:18107   */\n      0x00\n        /* \"#utility.yul\":18125:18130   */\n      dup2\n        /* \"#utility.yul\":18118:18130   */\n      swap1\n      pop\n        /* \"#utility.yul\":18061:18136   */\n      swap2\n      swap1\n      pop\n      jump\t// out\n        /* \"#utility.yul\":18142:18411   */\n    tag_188:\n        /* \"#utility.yul\":18252:18291   */\n      tag_382\n        /* \"#utility.yul\":18283:18290   */\n      dup4\n        /* \"#utility.yul\":18252:18291   */\n      tag_186\n      jump\t// in\n    tag_382:\n        /* \"#utility.yul\":18313:18404   */\n      tag_383\n        /* \"#utility.yul\":18362:18403   */\n      tag_384\n        /* \"#utility.yul\":18386:18402   */\n      dup3\n        /* \"#utility.yul\":18362:18403   */\n      tag_187\n      jump\t// in\n    tag_384:\n        /* \"#utility.yul\":18354:18360   */\n      dup5\n        /* \"#utility.yul\":18347:18351   */\n      dup5\n        /* \"#utility.yul\":18341:18352   */\n      sload\n        /* \"#utility.yul\":18313:18404   */\n      tag_184\n      jump\t// in\n    tag_383:\n        /* \"#utility.yul\":18307:18311   */\n      dup3\n        /* \"#utility.yul\":18300:18405   */\n      sstore\n        /* \"#utility.yul\":18218:18411   */\n      pop\n        /* \"#utility.yul\":18142:18411   */\n      pop\n      pop\n      pop\n      jump\t// out\n        /* \"#utility.yul\":18417:18490   */\n    tag_189:\n        /* \"#utility.yul\":18462:18465   */\n      0x00\n        /* \"#utility.yul\":18417:18490   */\n      swap1\n      jump\t// out\n        /* \"#utility.yul\":18496:18685   */\n    tag_190:\n        /* \"#utility.yul\":18573:18605   */\n      tag_387\n      tag_189\n      jump\t// in\n    tag_387:\n        /* \"#utility.yul\":18614:18679   */\n      tag_388\n        /* \"#utility.yul\":18672:18678   */\n      dup2\n        /* \"#utility.yul\":18664:18670   */\n      dup5\n        /* \"#utility.yul\":18658:18662   */\n      dup5\n        /* \"#utility.yul\":18614:18679   */\n      tag_188\n      jump\t// in\n    tag_388:\n        /* \"#utility.yul\":18549:18685   */\n      pop\n        /* \"#utility.yul\":18496:18685   */\n      pop\n      pop\n      jump\t// out\n        /* \"#utility.yul\":18691:18877   */\n    tag_191:\n        /* \"#utility.yul\":18751:18871   */\n    tag_390:\n        /* \"#utility.yul\":18768:18771   */\n      dup2\n        /* \"#utility.yul\":18761:18766   */\n      dup2\n        /* \"#utility.yul\":18758:18772   */\n      lt\n        /* \"#utility.yul\":18751:18871   */\n      iszero\n      tag_392\n      jumpi\n        /* \"#utility.yul\":18822:18861   */\n      tag_393\n        /* \"#utility.yul\":18859:18860   */\n      0x00\n        /* \"#utility.yul\":18852:18857   */\n      dup3\n        /* \"#utility.yul\":18822:18861   */\n      tag_190\n      jump\t// in\n    tag_393:\n        /* \"#utility.yul\":18795:18796   */\n      0x01\n        /* \"#utility.yul\":18788:18793   */\n      dup2\n        /* \"#utility.yul\":18784:18797   */\n      add\n        /* \"#utility.yul\":18775:18797   */\n      swap1\n      pop\n        /* \"#utility.yul\":18751:18871   */\n      jump(tag_390)\n    tag_392:\n        /* \"#utility.yul\":18691:18877   */\n      pop\n      pop\n      jump\t// out\n        /* \"#utility.yul\":18883:19426   */\n    tag_192:\n        /* \"#utility.yul\":18984:18986   */\n      0x1f\n        /* \"#utility.yul\":18979:18982   */\n      dup3\n        /* \"#utility.yul\":18976:18987   */\n      gt\n        /* \"#utility.yul\":18973:19419   */\n      iszero\n      tag_395\n      jumpi\n        /* \"#utility.yul\":19018:19056   */\n      tag_396\n        /* \"#utility.yul\":19050:19055   */\n      dup2\n        /* \"#utility.yul\":19018:19056   */\n      tag_181\n      jump\t// in\n    tag_396:\n        /* \"#utility.yul\":19102:19131   */\n      tag_397\n        /* \"#utility.yul\":19120:19130   */\n      dup5\n        /* \"#utility.yul\":19102:19131   */\n      tag_182\n      jump\t// in\n    tag_397:\n        /* \"#utility.yul\":19092:19100   */\n      dup2\n        /* \"#utility.yul\":19088:19132   */\n      add\n        /* \"#utility.yul\":19285:19287   */\n      0x20\n        /* \"#utility.yul\":19273:19283   */\n      dup6\n        /* \"#utility.yul\":19270:19288   */\n      lt\n        /* \"#utility.yul\":19267:19316   */\n      iszero\n      tag_398\n      jumpi\n        /* \"#utility.yul\":19306:19314   */\n      dup2\n        /* \"#utility.yul\":19291:19314   */\n      swap1\n      pop\n        /* \"#utility.yul\":19267:19316   */\n    tag_398:\n        /* \"#utility.yul\":19329:19409   */\n      tag_399\n        /* \"#utility.yul\":19385:19407   */\n      tag_400\n        /* \"#utility.yul\":19403:19406   */\n      dup6\n        /* \"#utility.yul\":19385:19407   */\n      tag_182\n      jump\t// in\n    tag_400:\n        /* \"#utility.yul\":19375:19383   */\n      dup4\n        /* \"#utility.yul\":19371:19408   */\n      add\n        /* \"#utility.yul\":19358:19369   */\n      dup3\n        /* \"#utility.yul\":19329:19409   */\n      tag_191\n      jump\t// in\n    tag_399:\n        /* \"#utility.yul\":18988:19419   */\n      pop\n      pop\n        /* \"#utility.yul\":18973:19419   */\n    tag_395:\n        /* \"#utility.yul\":18883:19426   */\n      pop\n      pop\n      pop\n      jump\t// out\n        /* \"#utility.yul\":19432:19549   */\n    tag_193:\n        /* \"#utility.yul\":19486:19494   */\n      0x00\n        /* \"#utility.yul\":19536:19541   */\n      dup3\n        /* \"#utility.yul\":19530:19534   */\n      dup3\n        /* \"#utility.yul\":19526:19542   */\n      shr\n        /* \"#utility.yul\":19505:19542   */\n      swap1\n      pop\n        /* \"#utility.yul\":19432:19549   */\n      swap3\n      swap2\n      pop\n      pop\n      jump\t// out\n        /* \"#utility.yul\":19555:19724   */\n    tag_194:\n        /* \"#utility.yul\":19599:19605   */\n      0x00\n        /* \"#utility.yul\":19632:19683   */\n      tag_403\n        /* \"#utility.yul\":19680:19681   */\n      0x00\n        /* \"#utility.yul\":19676:19682   */\n      not\n        /* \"#utility.yul\":19668:19673   */\n      dup5\n        /* \"#utility.yul\":19665:19666   */\n      0x08\n        /* \"#utility.yul\":19661:19674   */\n      mul\n        /* \"#utility.yul\":19632:19683   */\n      tag_193\n      jump\t// in\n    tag_403:\n        /* \"#utility.yul\":19628:19684   */\n      not\n        /* \"#utility.yul\":19713:19717   */\n      dup1\n        /* \"#utility.yul\":19707:19711   */\n      dup4\n        /* \"#utility.yul\":19703:19718   */\n      and\n        /* \"#utility.yul\":19693:19718   */\n      swap2\n      pop\n        /* \"#utility.yul\":19606:19724   */\n      pop\n        /* \"#utility.yul\":19555:19724   */\n      swap3\n      swap2\n      pop\n      pop\n      jump\t// out\n        /* \"#utility.yul\":19729:20024   */\n    tag_195:\n        /* \"#utility.yul\":19805:19809   */\n      0x00\n        /* \"#utility.yul\":19951:19980   */\n      tag_405\n        /* \"#utility.yul\":19976:19979   */\n      dup4\n        /* \"#utility.yul\":19970:19974   */\n      dup4\n        /* \"#utility.yul\":19951:19980   */\n      tag_194\n      jump\t// in\n    tag_405:\n        /* \"#utility.yul\":19943:19980   */\n      swap2\n      pop\n        /* \"#utility.yul\":20013:20016   */\n      dup3\n        /* \"#utility.yul\":20010:20011   */\n      0x02\n        /* \"#utility.yul\":20006:20017   */\n      mul\n        /* \"#utility.yul\":20000:20004   */\n      dup3\n        /* \"#utility.yul\":19997:20018   */\n      or\n        /* \"#utility.yul\":19989:20018   */\n      swap1\n      pop\n        /* \"#utility.yul\":19729:20024   */\n      swap3\n      swap2\n      pop\n      pop\n      jump\t// out\n        /* \"#utility.yul\":20029:21424   */\n    tag_94:\n        /* \"#utility.yul\":20146:20183   */\n      tag_407\n        /* \"#utility.yul\":20179:20182   */\n      dup3\n        /* \"#utility.yul\":20146:20183   */\n      tag_145\n      jump\t// in\n    tag_407:\n        /* \"#utility.yul\":20248:20266   */\n      0xffffffffffffffff\n        /* \"#utility.yul\":20240:20246   */\n      dup2\n        /* \"#utility.yul\":20237:20267   */\n      gt\n        /* \"#utility.yul\":20234:20290   */\n      iszero\n      tag_408\n      jumpi\n        /* \"#utility.yul\":20270:20288   */\n      tag_409\n      tag_163\n      jump\t// in\n    tag_409:\n        /* \"#utility.yul\":20234:20290   */\n    tag_408:\n        /* \"#utility.yul\":20314:20352   */\n      tag_410\n        /* \"#utility.yul\":20346:20350   */\n      dup3\n        /* \"#utility.yul\":20340:20351   */\n      sload\n        /* \"#utility.yul\":20314:20352   */\n      tag_64\n      jump\t// in\n    tag_410:\n        /* \"#utility.yul\":20399:20466   */\n      tag_411\n        /* \"#utility.yul\":20459:20465   */\n      dup3\n        /* \"#utility.yul\":20451:20457   */\n      dup3\n        /* \"#utility.yul\":20445:20449   */\n      dup6\n        /* \"#utility.yul\":20399:20466   */\n      tag_192\n      jump\t// in\n    tag_411:\n        /* \"#utility.yul\":20493:20494   */\n      0x00\n        /* \"#utility.yul\":20517:20521   */\n      0x20\n        /* \"#utility.yul\":20504:20521   */\n      swap1\n      pop\n        /* \"#utility.yul\":20549:20551   */\n      0x1f\n        /* \"#utility.yul\":20541:20547   */\n      dup4\n        /* \"#utility.yul\":20538:20552   */\n      gt\n        /* \"#utility.yul\":20566:20567   */\n      0x01\n        /* \"#utility.yul\":20561:21179   */\n      dup2\n      eq\n      tag_413\n      jumpi\n        /* \"#utility.yul\":21223:21224   */\n      0x00\n        /* \"#utility.yul\":21240:21246   */\n      dup5\n        /* \"#utility.yul\":21237:21314   */\n      iszero\n      tag_414\n      jumpi\n        /* \"#utility.yul\":21289:21298   */\n      dup3\n        /* \"#utility.yul\":21284:21287   */\n      dup8\n        /* \"#utility.yul\":21280:21299   */\n      add\n        /* \"#utility.yul\":21274:21300   */\n      mload\n        /* \"#utility.yul\":21265:21300   */\n      swap1\n      pop\n        /* \"#utility.yul\":21237:21314   */\n    tag_414:\n        /* \"#utility.yul\":21340:21407   */\n      tag_415\n        /* \"#utility.yul\":21400:21406   */\n      dup6\n        /* \"#utility.yul\":21393:21398   */\n      dup3\n        /* \"#utility.yul\":21340:21407   */\n      tag_195\n      jump\t// in\n    tag_415:\n        /* \"#utility.yul\":21334:21338   */\n      dup7\n        /* \"#utility.yul\":21327:21408   */\n      sstore\n        /* \"#utility.yul\":21196:21418   */\n      pop\n        /* \"#utility.yul\":20531:21418   */\n      jump(tag_412)\n        /* \"#utility.yul\":20561:21179   */\n    tag_413:\n        /* \"#utility.yul\":20613:20617   */\n      0x1f\n        /* \"#utility.yul\":20609:20618   */\n      not\n        /* \"#utility.yul\":20601:20607   */\n      dup5\n        /* \"#utility.yul\":20597:20619   */\n      and\n        /* \"#utility.yul\":20647:20684   */\n      tag_416\n        /* \"#utility.yul\":20679:20683   */\n      dup7\n        /* \"#utility.yul\":20647:20684   */\n      tag_181\n      jump\t// in\n    tag_416:\n        /* \"#utility.yul\":20706:20707   */\n      0x00\n        /* \"#utility.yul\":20720:20928   */\n    tag_417:\n        /* \"#utility.yul\":20734:20741   */\n      dup3\n        /* \"#utility.yul\":20731:20732   */\n      dup2\n        /* \"#utility.yul\":20728:20742   */\n      lt\n        /* \"#utility.yul\":20720:20928   */\n      iszero\n      tag_419\n      jumpi\n        /* \"#utility.yul\":20813:20822   */\n      dup5\n        /* \"#utility.yul\":20808:20811   */\n      dup10\n        /* \"#utility.yul\":20804:20823   */\n      add\n        /* \"#utility.yul\":20798:20824   */\n      mload\n        /* \"#utility.yul\":20790:20796   */\n      dup3\n        /* \"#utility.yul\":20783:20825   */\n      sstore\n        /* \"#utility.yul\":20864:20865   */\n      0x01\n        /* \"#utility.yul\":20856:20862   */\n      dup3\n        /* \"#utility.yul\":20852:20866   */\n      add\n        /* \"#utility.yul\":20842:20866   */\n      swap2\n      pop\n        /* \"#utility.yul\":20911:20913   */\n      0x20\n        /* \"#utility.yul\":20900:20909   */\n      dup6\n        /* \"#utility.yul\":20896:20914   */\n      add\n        /* \"#utility.yul\":20883:20914   */\n      swap5\n      pop\n        /* \"#utility.yul\":20757:20761   */\n      0x20\n        /* \"#utility.yul\":20754:20755   */\n      dup2\n        /* \"#utility.yul\":20750:20762   */\n      add\n        /* \"#utility.yul\":20745:20762   */\n      swap1\n      pop\n        /* \"#utility.yul\":20720:20928   */\n      jump(tag_417)\n    tag_419:\n        /* \"#utility.yul\":20956:20962   */\n      dup7\n        /* \"#utility.yul\":20947:20954   */\n      dup4\n        /* \"#utility.yul\":20944:20963   */\n      lt\n        /* \"#utility.yul\":20941:21120   */\n      iszero\n      tag_420\n      jumpi\n        /* \"#utility.yul\":21014:21023   */\n      dup5\n        /* \"#utility.yul\":21009:21012   */\n      dup10\n        /* \"#utility.yul\":21005:21024   */\n      add\n        /* \"#utility.yul\":20999:21025   */\n      mload\n        /* \"#utility.yul\":21057:21105   */\n      tag_421\n        /* \"#utility.yul\":21099:21103   */\n      0x1f\n        /* \"#utility.yul\":21091:21097   */\n      dup10\n        /* \"#utility.yul\":21087:21104   */\n      and\n        /* \"#utility.yul\":21076:21085   */\n      dup3\n        /* \"#utility.yul\":21057:21105   */\n      tag_194\n      jump\t// in\n    tag_421:\n        /* \"#utility.yul\":21049:21055   */\n      dup4\n        /* \"#utility.yul\":21042:21106   */\n      sstore\n        /* \"#utility.yul\":20964:21120   */\n      pop\n        /* \"#utility.yul\":20941:21120   */\n    tag_420:\n        /* \"#utility.yul\":21166:21167   */\n      0x01\n        /* \"#utility.yul\":21162:21163   */\n      0x02\n        /* \"#utility.yul\":21154:21160   */\n      dup9\n        /* \"#utility.yul\":21150:21164   */\n      mul\n        /* \"#utility.yul\":21146:21168   */\n      add\n        /* \"#utility.yul\":21140:21144   */\n      dup9\n        /* \"#utility.yul\":21133:21169   */\n      sstore\n        /* \"#utility.yul\":20568:21179   */\n      pop\n      pop\n      pop\n        /* \"#utility.yul\":20531:21418   */\n    tag_412:\n      pop\n        /* \"#utility.yul\":20121:21424   */\n      pop\n      pop\n      pop\n        /* \"#utility.yul\":20029:21424   */\n      pop\n      pop\n      jump\t// out\n        /* \"#utility.yul\":21430:21610   */\n    tag_196:\n        /* \"#utility.yul\":21478:21555   */\n      0x4e487b7100000000000000000000000000000000000000000000000000000000\n        /* \"#utility.yul\":21475:21476   */\n      0x00\n        /* \"#utility.yul\":21468:21556   */\n      mstore\n        /* \"#utility.yul\":21575:21579   */\n      0x11\n        /* \"#utility.yul\":21572:21573   */\n      0x04\n        /* \"#utility.yul\":21565:21580   */\n      mstore\n        /* \"#utility.yul\":21599:21603   */\n      0x24\n        /* \"#utility.yul\":21596:21597   */\n      0x00\n        /* \"#utility.yul\":21589:21604   */\n      revert\n        /* \"#utility.yul\":21616:21787   */\n    tag_106:\n        /* \"#utility.yul\":21655:21658   */\n      0x00\n        /* \"#utility.yul\":21678:21702   */\n      tag_424\n        /* \"#utility.yul\":21696:21701   */\n      dup3\n        /* \"#utility.yul\":21678:21702   */\n      tag_142\n      jump\t// in\n    tag_424:\n        /* \"#utility.yul\":21669:21702   */\n      swap2\n      pop\n        /* \"#utility.yul\":21724:21728   */\n      0x00\n        /* \"#utility.yul\":21717:21722   */\n      dup3\n        /* \"#utility.yul\":21714:21729   */\n      sub\n        /* \"#utility.yul\":21711:21752   */\n      tag_425\n      jumpi\n        /* \"#utility.yul\":21732:21750   */\n      tag_426\n      tag_196\n      jump\t// in\n    tag_426:\n        /* \"#utility.yul\":21711:21752   */\n    tag_425:\n        /* \"#utility.yul\":21779:21780   */\n      0x01\n        /* \"#utility.yul\":21772:21777   */\n      dup3\n        /* \"#utility.yul\":21768:21781   */\n      sub\n        /* \"#utility.yul\":21761:21781   */\n      swap1\n      pop\n        /* \"#utility.yul\":21616:21787   */\n      swap2\n      swap1\n      pop\n      jump\t// out\n\n    auxdata: 0xa26469706673582212205500128885e734a2680e75e815e20fb5a1fb1681e78cc85a9b694a89e720018764736f6c63430008160033\n}\n",
				"bytecode": {
					"linkReferences": {},
					"object": "608060405234801561000f575f80fd5b506116898061001d5f395ff3fe608060405260043610610085575f3560e01c806346d063b41161005857806346d063b41461013f578063559a04c914610167578063747a7b951461018f57806398cfee01146101ab578063b49ede9a146101c757610085565b806309599ad9146100895780631c4db37e146100c55780632e539677146100ed578063341d01e614610117575b5f80fd5b348015610094575f80fd5b506100af60048036038101906100aa9190610b19565b61020a565b6040516100bc9190610d51565b60405180910390f35b3480156100d0575f80fd5b506100eb60048036038101906100e69190610eea565b610526565b005b3480156100f8575f80fd5b506101016106d7565b60405161010e919061102d565b60405180910390f35b348015610122575f80fd5b5061013d60048036038101906101389190611046565b6106e2565b005b34801561014a575f80fd5b5061016560048036038101906101609190611046565b6106fe565b005b348015610172575f80fd5b5061018d60048036038101906101889190611046565b610727565b005b6101a960048036038101906101a491906111a2565b610743565b005b6101c560048036038101906101c091906111cd565b61078f565b005b3480156101d2575f80fd5b506101ed60048036038101906101e89190610b19565b6107d7565b604051610201989796959493929190611271565b60405180910390f35b610212610a6c565b5f828154811061022557610224611309565b5b905f5260205f209060080201604051806101000160405290815f8201805461024c90611363565b80601f016020809104026020016040519081016040528092919081815260200182805461027890611363565b80156102c35780601f1061029a576101008083540402835291602001916102c3565b820191905f5260205f20905b8154815290600101906020018083116102a657829003601f168201915b505050505081526020016001820180546102dc90611363565b80601f016020809104026020016040519081016040528092919081815260200182805461030890611363565b80156103535780601f1061032a57610100808354040283529160200191610353565b820191905f5260205f20905b81548152906001019060200180831161033657829003601f168201915b505050505081526020016002820154815260200160038201805461037690611363565b80601f01602080910402602001604051908101604052809291908181526020018280546103a290611363565b80156103ed5780601f106103c4576101008083540402835291602001916103ed565b820191905f5260205f20905b8154815290600101906020018083116103d057829003601f168201915b50505050508152602001600482015f9054906101000a900473ffffffffffffffffffffffffffffffffffffffff1673ffffffffffffffffffffffffffffffffffffffff1673ffffffffffffffffffffffffffffffffffffffff16815260200160058201805461045b90611363565b80601f016020809104026020016040519081016040528092919081815260200182805461048790611363565b80156104d25780601f106104a9576101008083540402835291602001916104d2565b820191905f5260205f20905b8154815290600101906020018083116104b557829003601f168201915b50505050508152602001600682015f9054906101000a900460ff1660028111156104ff576104fe610c1c565b5b600281111561051157610510610c1c565b5b81526020016007820154815250509050919050565b60015f8a73ffffffffffffffffffffffffffffffffffffffff1673ffffffffffffffffffffffffffffffffffffffff1681526020019081526020015f206040518061010001604052808a81526020018981526020018881526020018781526020018673ffffffffffffffffffffffffffffffffffffffff1681526020018581526020018460028111156105bc576105bb610c1c565b5b815260200183815250908060018154018082558091505060019003905f5260205f2090600802015f909190919091505f820151815f0190816105fe9190611530565b5060208201518160010190816106149190611530565b506040820151816002015560608201518160030190816106349190611530565b506080820151816004015f6101000a81548173ffffffffffffffffffffffffffffffffffffffff021916908373ffffffffffffffffffffffffffffffffffffffff16021790555060a08201518160050190816106909190611530565b5060c0820151816006015f6101000a81548160ff021916908360028111156106bb576106ba610c1c565b5b021790555060e082015181600701555050505050505050505050565b5f8080549050905090565b6106f488888888888888600289610526565b5050505050505050565b61070f888888888888885f89610526565b808061071a9061162c565b9150505050505050505050565b61073988888888888888600189610526565b5050505050505050565b5f4790508173ffffffffffffffffffffffffffffffffffffffff166108fc8290811502906040515f60405180830381858888f1935050505015801561078a573d5f803e3d5ffd5b505050565b8073ffffffffffffffffffffffffffffffffffffffff166108fc8390811502906040515f60405180830381858888f193505050501580156107d2573d5f803e3d5ffd5b505050565b5f81815481106107e5575f80fd5b905f5260205f2090600802015f91509050805f01805461080490611363565b80601f016020809104026020016040519081016040528092919081815260200182805461083090611363565b801561087b5780601f106108525761010080835404028352916020019161087b565b820191905f5260205f20905b81548152906001019060200180831161085e57829003601f168201915b50505050509080600101805461089090611363565b80601f01602080910402602001604051908101604052809291908181526020018280546108bc90611363565b80156109075780601f106108de57610100808354040283529160200191610907565b820191905f5260205f20905b8154815290600101906020018083116108ea57829003601f168201915b50505050509080600201549080600301805461092290611363565b80601f016020809104026020016040519081016040528092919081815260200182805461094e90611363565b80156109995780601f1061097057610100808354040283529160200191610999565b820191905f5260205f20905b81548152906001019060200180831161097c57829003601f168201915b505050505090806004015f9054906101000a900473ffffffffffffffffffffffffffffffffffffffff16908060050180546109d390611363565b80601f01602080910402602001604051908101604052809291908181526020018280546109ff90611363565b8015610a4a5780601f10610a2157610100808354040283529160200191610a4a565b820191905f5260205f20905b815481529060010190602001808311610a2d57829003601f168201915b505050505090806006015f9054906101000a900460ff16908060070154905088565b60405180610100016040528060608152602001606081526020015f8152602001606081526020015f73ffffffffffffffffffffffffffffffffffffffff168152602001606081526020015f6002811115610ac957610ac8610c1c565b5b81526020015f81525090565b5f604051905090565b5f80fd5b5f80fd5b5f819050919050565b610af881610ae6565b8114610b02575f80fd5b50565b5f81359050610b1381610aef565b92915050565b5f60208284031215610b2e57610b2d610ade565b5b5f610b3b84828501610b05565b91505092915050565b5f81519050919050565b5f82825260208201905092915050565b5f5b83811015610b7b578082015181840152602081019050610b60565b5f8484015250505050565b5f601f19601f8301169050919050565b5f610ba082610b44565b610baa8185610b4e565b9350610bba818560208601610b5e565b610bc381610b86565b840191505092915050565b610bd781610ae6565b82525050565b5f73ffffffffffffffffffffffffffffffffffffffff82169050919050565b5f610c0682610bdd565b9050919050565b610c1681610bfc565b82525050565b7f4e487b71000000000000000000000000000000000000000000000000000000005f52602160045260245ffd5b60038110610c5a57610c59610c1c565b5b50565b5f819050610c6a82610c49565b919050565b5f610c7982610c5d565b9050919050565b610c8981610c6f565b82525050565b5f61010083015f8301518482035f860152610caa8282610b96565b91505060208301518482036020860152610cc48282610b96565b9150506040830151610cd96040860182610bce565b5060608301518482036060860152610cf18282610b96565b9150506080830151610d066080860182610c0d565b5060a083015184820360a0860152610d1e8282610b96565b91505060c0830151610d3360c0860182610c80565b5060e0830151610d4660e0860182610bce565b508091505092915050565b5f6020820190508181035f830152610d698184610c8f565b905092915050565b610d7a81610bfc565b8114610d84575f80fd5b50565b5f81359050610d9581610d71565b92915050565b5f80fd5b5f80fd5b7f4e487b71000000000000000000000000000000000000000000000000000000005f52604160045260245ffd5b610dd982610b86565b810181811067ffffffffffffffff82111715610df857610df7610da3565b5b80604052505050565b5f610e0a610ad5565b9050610e168282610dd0565b919050565b5f67ffffffffffffffff821115610e3557610e34610da3565b5b610e3e82610b86565b9050602081019050919050565b828183375f83830152505050565b5f610e6b610e6684610e1b565b610e01565b905082815260208101848484011115610e8757610e86610d9f565b5b610e92848285610e4b565b509392505050565b5f82601f830112610eae57610ead610d9b565b5b8135610ebe848260208601610e59565b91505092915050565b60038110610ed3575f80fd5b50565b5f81359050610ee481610ec7565b92915050565b5f805f805f805f805f6101208a8c031215610f0857610f07610ade565b5b5f610f158c828d01610d87565b99505060208a013567ffffffffffffffff811115610f3657610f35610ae2565b5b610f428c828d01610e9a565b98505060408a013567ffffffffffffffff811115610f6357610f62610ae2565b5b610f6f8c828d01610e9a565b9750506060610f808c828d01610b05565b96505060808a013567ffffffffffffffff811115610fa157610fa0610ae2565b5b610fad8c828d01610e9a565b95505060a0610fbe8c828d01610d87565b94505060c08a013567ffffffffffffffff811115610fdf57610fde610ae2565b5b610feb8c828d01610e9a565b93505060e0610ffc8c828d01610ed6565b92505061010061100e8c828d01610b05565b9150509295985092959850929598565b61102781610ae6565b82525050565b5f6020820190506110405f83018461101e565b92915050565b5f805f805f805f80610100898b03121561106357611062610ade565b5b5f6110708b828c01610d87565b985050602089013567ffffffffffffffff81111561109157611090610ae2565b5b61109d8b828c01610e9a565b975050604089013567ffffffffffffffff8111156110be576110bd610ae2565b5b6110ca8b828c01610e9a565b96505060606110db8b828c01610b05565b955050608089013567ffffffffffffffff8111156110fc576110fb610ae2565b5b6111088b828c01610e9a565b94505060a06111198b828c01610d87565b93505060c089013567ffffffffffffffff81111561113a57611139610ae2565b5b6111468b828c01610e9a565b92505060e06111578b828c01610b05565b9150509295985092959890939650565b5f61117182610bdd565b9050919050565b61118181611167565b811461118b575f80fd5b50565b5f8135905061119c81611178565b92915050565b5f602082840312156111b7576111b6610ade565b5b5f6111c48482850161118e565b91505092915050565b5f80604083850312156111e3576111e2610ade565b5b5f6111f085828601610b05565b92505060206112018582860161118e565b9150509250929050565b5f82825260208201905092915050565b5f61122582610b44565b61122f818561120b565b935061123f818560208601610b5e565b61124881610b86565b840191505092915050565b61125c81610bfc565b82525050565b61126b81610c6f565b82525050565b5f610100820190508181035f83015261128a818b61121b565b9050818103602083015261129e818a61121b565b90506112ad604083018961101e565b81810360608301526112bf818861121b565b90506112ce6080830187611253565b81810360a08301526112e0818661121b565b90506112ef60c0830185611262565b6112fc60e083018461101e565b9998505050505050505050565b7f4e487b71000000000000000000000000000000000000000000000000000000005f52603260045260245ffd5b7f4e487b71000000000000000000000000000000000000000000000000000000005f52602260045260245ffd5b5f600282049050600182168061137a57607f821691505b60208210810361138d5761138c611336565b5b50919050565b5f819050815f5260205f209050919050565b5f6020601f8301049050919050565b5f82821b905092915050565b5f600883026113ef7fffffffffffffffffffffffffffffffffffffffffffffffffffffffffffffffff826113b4565b6113f986836113b4565b95508019841693508086168417925050509392505050565b5f819050919050565b5f61143461142f61142a84610ae6565b611411565b610ae6565b9050919050565b5f819050919050565b61144d8361141a565b6114616114598261143b565b8484546113c0565b825550505050565b5f90565b611475611469565b611480818484611444565b505050565b5b818110156114a3576114985f8261146d565b600181019050611486565b5050565b601f8211156114e8576114b981611393565b6114c2846113a5565b810160208510156114d1578190505b6114e56114dd856113a5565b830182611485565b50505b505050565b5f82821c905092915050565b5f6115085f19846008026114ed565b1980831691505092915050565b5f61152083836114f9565b9150826002028217905092915050565b61153982610b44565b67ffffffffffffffff81111561155257611551610da3565b5b61155c8254611363565b6115678282856114a7565b5f60209050601f831160018114611598575f8415611586578287015190505b6115908582611515565b8655506115f7565b601f1984166115a686611393565b5f5b828110156115cd578489015182556001820191506020850194506020810190506115a8565b868310156115ea57848901516115e6601f8916826114f9565b8355505b6001600288020188555050505b505050505050565b7f4e487b71000000000000000000000000000000000000000000000000000000005f52601160045260245ffd5b5f61163682610ae6565b91505f8203611648576116476115ff565b5b60018203905091905056fea26469706673582212205500128885e734a2680e75e815e20fb5a1fb1681e78cc85a9b694a89e720018764736f6c63430008160033",
					"opcodes": "PUSH1 0x80 PUSH1 0x40 MSTORE CALLVALUE DUP1 ISZERO PUSH2 0xF JUMPI PUSH0 DUP1 REVERT JUMPDEST POP PUSH2 0x1689 DUP1 PUSH2 0x1D PUSH0 CODECOPY PUSH0 RETURN INVALID PUSH1 0x80 PUSH1 0x40 MSTORE PUSH1 0x4 CALLDATASIZE LT PUSH2 0x85 JUMPI PUSH0 CALLDATALOAD PUSH1 0xE0 SHR DUP1 PUSH4 0x46D063B4 GT PUSH2 0x58 JUMPI DUP1 PUSH4 0x46D063B4 EQ PUSH2 0x13F JUMPI DUP1 PUSH4 0x559A04C9 EQ PUSH2 0x167 JUMPI DUP1 PUSH4 0x747A7B95 EQ PUSH2 0x18F JUMPI DUP1 PUSH4 0x98CFEE01 EQ PUSH2 0x1AB JUMPI DUP1 PUSH4 0xB49EDE9A EQ PUSH2 0x1C7 JUMPI PUSH2 0x85 JUMP JUMPDEST DUP1 PUSH4 0x9599AD9 EQ PUSH2 0x89 JUMPI DUP1 PUSH4 0x1C4DB37E EQ PUSH2 0xC5 JUMPI DUP1 PUSH4 0x2E539677 EQ PUSH2 0xED JUMPI DUP1 PUSH4 0x341D01E6 EQ PUSH2 0x117 JUMPI JUMPDEST PUSH0 DUP1 REVERT JUMPDEST CALLVALUE DUP1 ISZERO PUSH2 0x94 JUMPI PUSH0 DUP1 REVERT JUMPDEST POP PUSH2 0xAF PUSH1 0x4 DUP1 CALLDATASIZE SUB DUP2 ADD SWAP1 PUSH2 0xAA SWAP2 SWAP1 PUSH2 0xB19 JUMP JUMPDEST PUSH2 0x20A JUMP JUMPDEST PUSH1 0x40 MLOAD PUSH2 0xBC SWAP2 SWAP1 PUSH2 0xD51 JUMP JUMPDEST PUSH1 0x40 MLOAD DUP1 SWAP2 SUB SWAP1 RETURN JUMPDEST CALLVALUE DUP1 ISZERO PUSH2 0xD0 JUMPI PUSH0 DUP1 REVERT JUMPDEST POP PUSH2 0xEB PUSH1 0x4 DUP1 CALLDATASIZE SUB DUP2 ADD SWAP1 PUSH2 0xE6 SWAP2 SWAP1 PUSH2 0xEEA JUMP JUMPDEST PUSH2 0x526 JUMP JUMPDEST STOP JUMPDEST CALLVALUE DUP1 ISZERO PUSH2 0xF8 JUMPI PUSH0 DUP1 REVERT JUMPDEST POP PUSH2 0x101 PUSH2 0x6D7 JUMP JUMPDEST PUSH1 0x40 MLOAD PUSH2 0x10E SWAP2 SWAP1 PUSH2 0x102D JUMP JUMPDEST PUSH1 0x40 MLOAD DUP1 SWAP2 SUB SWAP1 RETURN JUMPDEST CALLVALUE DUP1 ISZERO PUSH2 0x122 JUMPI PUSH0 DUP1 REVERT JUMPDEST POP PUSH2 0x13D PUSH1 0x4 DUP1 CALLDATASIZE SUB DUP2 ADD SWAP1 PUSH2 0x138 SWAP2 SWAP1 PUSH2 0x1046 JUMP JUMPDEST PUSH2 0x6E2 JUMP JUMPDEST STOP JUMPDEST CALLVALUE DUP1 ISZERO PUSH2 0x14A JUMPI PUSH0 DUP1 REVERT JUMPDEST POP PUSH2 0x165 PUSH1 0x4 DUP1 CALLDATASIZE SUB DUP2 ADD SWAP1 PUSH2 0x160 SWAP2 SWAP1 PUSH2 0x1046 JUMP JUMPDEST PUSH2 0x6FE JUMP JUMPDEST STOP JUMPDEST CALLVALUE DUP1 ISZERO PUSH2 0x172 JUMPI PUSH0 DUP1 REVERT JUMPDEST POP PUSH2 0x18D PUSH1 0x4 DUP1 CALLDATASIZE SUB DUP2 ADD SWAP1 PUSH2 0x188 SWAP2 SWAP1 PUSH2 0x1046 JUMP JUMPDEST PUSH2 0x727 JUMP JUMPDEST STOP JUMPDEST PUSH2 0x1A9 PUSH1 0x4 DUP1 CALLDATASIZE SUB DUP2 ADD SWAP1 PUSH2 0x1A4 SWAP2 SWAP1 PUSH2 0x11A2 JUMP JUMPDEST PUSH2 0x743 JUMP JUMPDEST STOP JUMPDEST PUSH2 0x1C5 PUSH1 0x4 DUP1 CALLDATASIZE SUB DUP2 ADD SWAP1 PUSH2 0x1C0 SWAP2 SWAP1 PUSH2 0x11CD JUMP JUMPDEST PUSH2 0x78F JUMP JUMPDEST STOP JUMPDEST CALLVALUE DUP1 ISZERO PUSH2 0x1D2 JUMPI PUSH0 DUP1 REVERT JUMPDEST POP PUSH2 0x1ED PUSH1 0x4 DUP1 CALLDATASIZE SUB DUP2 ADD SWAP1 PUSH2 0x1E8 SWAP2 SWAP1 PUSH2 0xB19 JUMP JUMPDEST PUSH2 0x7D7 JUMP JUMPDEST PUSH1 0x40 MLOAD PUSH2 0x201 SWAP9 SWAP8 SWAP7 SWAP6 SWAP5 SWAP4 SWAP3 SWAP2 SWAP1 PUSH2 0x1271 JUMP JUMPDEST PUSH1 0x40 MLOAD DUP1 SWAP2 SUB SWAP1 RETURN JUMPDEST PUSH2 0x212 PUSH2 0xA6C JUMP JUMPDEST PUSH0 DUP3 DUP2 SLOAD DUP2 LT PUSH2 0x225 JUMPI PUSH2 0x224 PUSH2 0x1309 JUMP JUMPDEST JUMPDEST SWAP1 PUSH0 MSTORE PUSH1 0x20 PUSH0 KECCAK256 SWAP1 PUSH1 0x8 MUL ADD PUSH1 0x40 MLOAD DUP1 PUSH2 0x100 ADD PUSH1 0x40 MSTORE SWAP1 DUP2 PUSH0 DUP3 ADD DUP1 SLOAD PUSH2 0x24C SWAP1 PUSH2 0x1363 JUMP JUMPDEST DUP1 PUSH1 0x1F ADD PUSH1 0x20 DUP1 SWAP2 DIV MUL PUSH1 0x20 ADD PUSH1 0x40 MLOAD SWAP1 DUP2 ADD PUSH1 0x40 MSTORE DUP1 SWAP3 SWAP2 SWAP1 DUP2 DUP2 MSTORE PUSH1 0x20 ADD DUP3 DUP1 SLOAD PUSH2 0x278 SWAP1 PUSH2 0x1363 JUMP JUMPDEST DUP1 ISZERO PUSH2 0x2C3 JUMPI DUP1 PUSH1 0x1F LT PUSH2 0x29A JUMPI PUSH2 0x100 DUP1 DUP4 SLOAD DIV MUL DUP4 MSTORE SWAP2 PUSH1 0x20 ADD SWAP2 PUSH2 0x2C3 JUMP JUMPDEST DUP3 ADD SWAP2 SWAP1 PUSH0 MSTORE PUSH1 0x20 PUSH0 KECCAK256 SWAP1 JUMPDEST DUP2 SLOAD DUP2 MSTORE SWAP1 PUSH1 0x1 ADD SWAP1 PUSH1 0x20 ADD DUP1 DUP4 GT PUSH2 0x2A6 JUMPI DUP3 SWAP1 SUB PUSH1 0x1F AND DUP3 ADD SWAP2 JUMPDEST POP POP POP POP POP DUP2 MSTORE PUSH1 0x20 ADD PUSH1 0x1 DUP3 ADD DUP1 SLOAD PUSH2 0x2DC SWAP1 PUSH2 0x1363 JUMP JUMPDEST DUP1 PUSH1 0x1F ADD PUSH1 0x20 DUP1 SWAP2 DIV MUL PUSH1 0x20 ADD PUSH1 0x40 MLOAD SWAP1 DUP2 ADD PUSH1 0x40 MSTORE DUP1 SWAP3 SWAP2 SWAP1 DUP2 DUP2 MSTORE PUSH1 0x20 ADD DUP3 DUP1 SLOAD PUSH2 0x308 SWAP1 PUSH2 0x1363 JUMP JUMPDEST DUP1 ISZERO PUSH2 0x353 JUMPI DUP1 PUSH1 0x1F LT PUSH2 0x32A JUMPI PUSH2 0x100 DUP1 DUP4 SLOAD DIV MUL DUP4 MSTORE SWAP2 PUSH1 0x20 ADD SWAP2 PUSH2 0x353 JUMP JUMPDEST DUP3 ADD SWAP2 SWAP1 PUSH0 MSTORE PUSH1 0x20 PUSH0 KECCAK256 SWAP1 JUMPDEST DUP2 SLOAD DUP2 MSTORE SWAP1 PUSH1 0x1 ADD SWAP1 PUSH1 0x20 ADD DUP1 DUP4 GT PUSH2 0x336 JUMPI DUP3 SWAP1 SUB PUSH1 0x1F AND DUP3 ADD SWAP2 JUMPDEST POP POP POP POP POP DUP2 MSTORE PUSH1 0x20 ADD PUSH1 0x2 DUP3 ADD SLOAD DUP2 MSTORE PUSH1 0x20 ADD PUSH1 0x3 DUP3 ADD DUP1 SLOAD PUSH2 0x376 SWAP1 PUSH2 0x1363 JUMP JUMPDEST DUP1 PUSH1 0x1F ADD PUSH1 0x20 DUP1 SWAP2 DIV MUL PUSH1 0x20 ADD PUSH1 0x40 MLOAD SWAP1 DUP2 ADD PUSH1 0x40 MSTORE DUP1 SWAP3 SWAP2 SWAP1 DUP2 DUP2 MSTORE PUSH1 0x20 ADD DUP3 DUP1 SLOAD PUSH2 0x3A2 SWAP1 PUSH2 0x1363 JUMP JUMPDEST DUP1 ISZERO PUSH2 0x3ED JUMPI DUP1 PUSH1 0x1F LT PUSH2 0x3C4 JUMPI PUSH2 0x100 DUP1 DUP4 SLOAD DIV MUL DUP4 MSTORE SWAP2 PUSH1 0x20 ADD SWAP2 PUSH2 0x3ED JUMP JUMPDEST DUP3 ADD SWAP2 SWAP1 PUSH0 MSTORE PUSH1 0x20 PUSH0 KECCAK256 SWAP1 JUMPDEST DUP2 SLOAD DUP2 MSTORE SWAP1 PUSH1 0x1 ADD SWAP1 PUSH1 0x20 ADD DUP1 DUP4 GT PUSH2 0x3D0 JUMPI DUP3 SWAP1 SUB PUSH1 0x1F AND DUP3 ADD SWAP2 JUMPDEST POP POP POP POP POP DUP2 MSTORE PUSH1 0x20 ADD PUSH1 0x4 DUP3 ADD PUSH0 SWAP1 SLOAD SWAP1 PUSH2 0x100 EXP SWAP1 DIV PUSH20 0xFFFFFFFFFFFFFFFFFFFFFFFFFFFFFFFFFFFFFFFF AND PUSH20 0xFFFFFFFFFFFFFFFFFFFFFFFFFFFFFFFFFFFFFFFF AND PUSH20 0xFFFFFFFFFFFFFFFFFFFFFFFFFFFFFFFFFFFFFFFF AND DUP2 MSTORE PUSH1 0x20 ADD PUSH1 0x5 DUP3 ADD DUP1 SLOAD PUSH2 0x45B SWAP1 PUSH2 0x1363 JUMP JUMPDEST DUP1 PUSH1 0x1F ADD PUSH1 0x20 DUP1 SWAP2 DIV MUL PUSH1 0x20 ADD PUSH1 0x40 MLOAD SWAP1 DUP2 ADD PUSH1 0x40 MSTORE DUP1 SWAP3 SWAP2 SWAP1 DUP2 DUP2 MSTORE PUSH1 0x20 ADD DUP3 DUP1 SLOAD PUSH2 0x487 SWAP1 PUSH2 0x1363 JUMP JUMPDEST DUP1 ISZERO PUSH2 0x4D2 JUMPI DUP1 PUSH1 0x1F LT PUSH2 0x4A9 JUMPI PUSH2 0x100 DUP1 DUP4 SLOAD DIV MUL DUP4 MSTORE SWAP2 PUSH1 0x20 ADD SWAP2 PUSH2 0x4D2 JUMP JUMPDEST DUP3 ADD SWAP2 SWAP1 PUSH0 MSTORE PUSH1 0x20 PUSH0 KECCAK256 SWAP1 JUMPDEST DUP2 SLOAD DUP2 MSTORE SWAP1 PUSH1 0x1 ADD SWAP1 PUSH1 0x20 ADD DUP1 DUP4 GT PUSH2 0x4B5 JUMPI DUP3 SWAP1 SUB PUSH1 0x1F AND DUP3 ADD SWAP2 JUMPDEST POP POP POP POP POP DUP2 MSTORE PUSH1 0x20 ADD PUSH1 0x6 DUP3 ADD PUSH0 SWAP1 SLOAD SWAP1 PUSH2 0x100 EXP SWAP1 DIV PUSH1 0xFF AND PUSH1 0x2 DUP2 GT ISZERO PUSH2 0x4FF JUMPI PUSH2 0x4FE PUSH2 0xC1C JUMP JUMPDEST JUMPDEST PUSH1 0x2 DUP2 GT ISZERO PUSH2 0x511 JUMPI PUSH2 0x510 PUSH2 0xC1C JUMP JUMPDEST JUMPDEST DUP2 MSTORE PUSH1 0x20 ADD PUSH1 0x7 DUP3 ADD SLOAD DUP2 MSTORE POP POP SWAP1 POP SWAP2 SWAP1 POP JUMP JUMPDEST PUSH1 0x1 PUSH0 DUP11 PUSH20 0xFFFFFFFFFFFFFFFFFFFFFFFFFFFFFFFFFFFFFFFF AND PUSH20 0xFFFFFFFFFFFFFFFFFFFFFFFFFFFFFFFFFFFFFFFF AND DUP2 MSTORE PUSH1 0x20 ADD SWAP1 DUP2 MSTORE PUSH1 0x20 ADD PUSH0 KECCAK256 PUSH1 0x40 MLOAD DUP1 PUSH2 0x100 ADD PUSH1 0x40 MSTORE DUP1 DUP11 DUP2 MSTORE PUSH1 0x20 ADD DUP10 DUP2 MSTORE PUSH1 0x20 ADD DUP9 DUP2 MSTORE PUSH1 0x20 ADD DUP8 DUP2 MSTORE PUSH1 0x20 ADD DUP7 PUSH20 0xFFFFFFFFFFFFFFFFFFFFFFFFFFFFFFFFFFFFFFFF AND DUP2 MSTORE PUSH1 0x20 ADD DUP6 DUP2 MSTORE PUSH1 0x20 ADD DUP5 PUSH1 0x2 DUP2 GT ISZERO PUSH2 0x5BC JUMPI PUSH2 0x5BB PUSH2 0xC1C JUMP JUMPDEST JUMPDEST DUP2 MSTORE PUSH1 0x20 ADD DUP4 DUP2 MSTORE POP SWAP1 DUP1 PUSH1 0x1 DUP2 SLOAD ADD DUP1 DUP3 SSTORE DUP1 SWAP2 POP POP PUSH1 0x1 SWAP1 SUB SWAP1 PUSH0 MSTORE PUSH1 0x20 PUSH0 KECCAK256 SWAP1 PUSH1 0x8 MUL ADD PUSH0 SWAP1 SWAP2 SWAP1 SWAP2 SWAP1 SWAP2 POP PUSH0 DUP3 ADD MLOAD DUP2 PUSH0 ADD SWAP1 DUP2 PUSH2 0x5FE SWAP2 SWAP1 PUSH2 0x1530 JUMP JUMPDEST POP PUSH1 0x20 DUP3 ADD MLOAD DUP2 PUSH1 0x1 ADD SWAP1 DUP2 PUSH2 0x614 SWAP2 SWAP1 PUSH2 0x1530 JUMP JUMPDEST POP PUSH1 0x40 DUP3 ADD MLOAD DUP2 PUSH1 0x2 ADD SSTORE PUSH1 0x60 DUP3 ADD MLOAD DUP2 PUSH1 0x3 ADD SWAP1 DUP2 PUSH2 0x634 SWAP2 SWAP1 PUSH2 0x1530 JUMP JUMPDEST POP PUSH1 0x80 DUP3 ADD MLOAD DUP2 PUSH1 0x4 ADD PUSH0 PUSH2 0x100 EXP DUP2 SLOAD DUP2 PUSH20 0xFFFFFFFFFFFFFFFFFFFFFFFFFFFFFFFFFFFFFFFF MUL NOT AND SWAP1 DUP4 PUSH20 0xFFFFFFFFFFFFFFFFFFFFFFFFFFFFFFFFFFFFFFFF AND MUL OR SWAP1 SSTORE POP PUSH1 0xA0 DUP3 ADD MLOAD DUP2 PUSH1 0x5 ADD SWAP1 DUP2 PUSH2 0x690 SWAP2 SWAP1 PUSH2 0x1530 JUMP JUMPDEST POP PUSH1 0xC0 DUP3 ADD MLOAD DUP2 PUSH1 0x6 ADD PUSH0 PUSH2 0x100 EXP DUP2 SLOAD DUP2 PUSH1 0xFF MUL NOT AND SWAP1 DUP4 PUSH1 0x2 DUP2 GT ISZERO PUSH2 0x6BB JUMPI PUSH2 0x6BA PUSH2 0xC1C JUMP JUMPDEST JUMPDEST MUL OR SWAP1 SSTORE POP PUSH1 0xE0 DUP3 ADD MLOAD DUP2 PUSH1 0x7 ADD SSTORE POP POP POP POP POP POP POP POP POP POP POP JUMP JUMPDEST PUSH0 DUP1 DUP1 SLOAD SWAP1 POP SWAP1 POP SWAP1 JUMP JUMPDEST PUSH2 0x6F4 DUP9 DUP9 DUP9 DUP9 DUP9 DUP9 DUP9 PUSH1 0x2 DUP10 PUSH2 0x526 JUMP JUMPDEST POP POP POP POP POP POP POP POP JUMP JUMPDEST PUSH2 0x70F DUP9 DUP9 DUP9 DUP9 DUP9 DUP9 DUP9 PUSH0 DUP10 PUSH2 0x526 JUMP JUMPDEST DUP1 DUP1 PUSH2 0x71A SWAP1 PUSH2 0x162C JUMP JUMPDEST SWAP2 POP POP POP POP POP POP POP POP POP POP JUMP JUMPDEST PUSH2 0x739 DUP9 DUP9 DUP9 DUP9 DUP9 DUP9 DUP9 PUSH1 0x1 DUP10 PUSH2 0x526 JUMP JUMPDEST POP POP POP POP POP POP POP POP JUMP JUMPDEST PUSH0 SELFBALANCE SWAP1 POP DUP2 PUSH20 0xFFFFFFFFFFFFFFFFFFFFFFFFFFFFFFFFFFFFFFFF AND PUSH2 0x8FC DUP3 SWAP1 DUP2 ISZERO MUL SWAP1 PUSH1 0x40 MLOAD PUSH0 PUSH1 0x40 MLOAD DUP1 DUP4 SUB DUP2 DUP6 DUP9 DUP9 CALL SWAP4 POP POP POP POP ISZERO DUP1 ISZERO PUSH2 0x78A JUMPI RETURNDATASIZE PUSH0 DUP1 RETURNDATACOPY RETURNDATASIZE PUSH0 REVERT JUMPDEST POP POP POP JUMP JUMPDEST DUP1 PUSH20 0xFFFFFFFFFFFFFFFFFFFFFFFFFFFFFFFFFFFFFFFF AND PUSH2 0x8FC DUP4 SWAP1 DUP2 ISZERO MUL SWAP1 PUSH1 0x40 MLOAD PUSH0 PUSH1 0x40 MLOAD DUP1 DUP4 SUB DUP2 DUP6 DUP9 DUP9 CALL SWAP4 POP POP POP POP ISZERO DUP1 ISZERO PUSH2 0x7D2 JUMPI RETURNDATASIZE PUSH0 DUP1 RETURNDATACOPY RETURNDATASIZE PUSH0 REVERT JUMPDEST POP POP POP JUMP JUMPDEST PUSH0 DUP2 DUP2 SLOAD DUP2 LT PUSH2 0x7E5 JUMPI PUSH0 DUP1 REVERT JUMPDEST SWAP1 PUSH0 MSTORE PUSH1 0x20 PUSH0 KECCAK256 SWAP1 PUSH1 0x8 MUL ADD PUSH0 SWAP2 POP SWAP1 POP DUP1 PUSH0 ADD DUP1 SLOAD PUSH2 0x804 SWAP1 PUSH2 0x1363 JUMP JUMPDEST DUP1 PUSH1 0x1F ADD PUSH1 0x20 DUP1 SWAP2 DIV MUL PUSH1 0x20 ADD PUSH1 0x40 MLOAD SWAP1 DUP2 ADD PUSH1 0x40 MSTORE DUP1 SWAP3 SWAP2 SWAP1 DUP2 DUP2 MSTORE PUSH1 0x20 ADD DUP3 DUP1 SLOAD PUSH2 0x830 SWAP1 PUSH2 0x1363 JUMP JUMPDEST DUP1 ISZERO PUSH2 0x87B JUMPI DUP1 PUSH1 0x1F LT PUSH2 0x852 JUMPI PUSH2 0x100 DUP1 DUP4 SLOAD DIV MUL DUP4 MSTORE SWAP2 PUSH1 0x20 ADD SWAP2 PUSH2 0x87B JUMP JUMPDEST DUP3 ADD SWAP2 SWAP1 PUSH0 MSTORE PUSH1 0x20 PUSH0 KECCAK256 SWAP1 JUMPDEST DUP2 SLOAD DUP2 MSTORE SWAP1 PUSH1 0x1 ADD SWAP1 PUSH1 0x20 ADD DUP1 DUP4 GT PUSH2 0x85E JUMPI DUP3 SWAP1 SUB PUSH1 0x1F AND DUP3 ADD SWAP2 JUMPDEST POP POP POP POP POP SWAP1 DUP1 PUSH1 0x1 ADD DUP1 SLOAD PUSH2 0x890 SWAP1 PUSH2 0x1363 JUMP JUMPDEST DUP1 PUSH1 0x1F ADD PUSH1 0x20 DUP1 SWAP2 DIV MUL PUSH1 0x20 ADD PUSH1 0x40 MLOAD SWAP1 DUP2 ADD PUSH1 0x40 MSTORE DUP1 SWAP3 SWAP2 SWAP1 DUP2 DUP2 MSTORE PUSH1 0x20 ADD DUP3 DUP1 SLOAD PUSH2 0x8BC SWAP1 PUSH2 0x1363 JUMP JUMPDEST DUP1 ISZERO PUSH2 0x907 JUMPI DUP1 PUSH1 0x1F LT PUSH2 0x8DE JUMPI PUSH2 0x100 DUP1 DUP4 SLOAD DIV MUL DUP4 MSTORE SWAP2 PUSH1 0x20 ADD SWAP2 PUSH2 0x907 JUMP JUMPDEST DUP3 ADD SWAP2 SWAP1 PUSH0 MSTORE PUSH1 0x20 PUSH0 KECCAK256 SWAP1 JUMPDEST DUP2 SLOAD DUP2 MSTORE SWAP1 PUSH1 0x1 ADD SWAP1 PUSH1 0x20 ADD DUP1 DUP4 GT PUSH2 0x8EA JUMPI DUP3 SWAP1 SUB PUSH1 0x1F AND DUP3 ADD SWAP2 JUMPDEST POP POP POP POP POP SWAP1 DUP1 PUSH1 0x2 ADD SLOAD SWAP1 DUP1 PUSH1 0x3 ADD DUP1 SLOAD PUSH2 0x922 SWAP1 PUSH2 0x1363 JUMP JUMPDEST DUP1 PUSH1 0x1F ADD PUSH1 0x20 DUP1 SWAP2 DIV MUL PUSH1 0x20 ADD PUSH1 0x40 MLOAD SWAP1 DUP2 ADD PUSH1 0x40 MSTORE DUP1 SWAP3 SWAP2 SWAP1 DUP2 DUP2 MSTORE PUSH1 0x20 ADD DUP3 DUP1 SLOAD PUSH2 0x94E SWAP1 PUSH2 0x1363 JUMP JUMPDEST DUP1 ISZERO PUSH2 0x999 JUMPI DUP1 PUSH1 0x1F LT PUSH2 0x970 JUMPI PUSH2 0x100 DUP1 DUP4 SLOAD DIV MUL DUP4 MSTORE SWAP2 PUSH1 0x20 ADD SWAP2 PUSH2 0x999 JUMP JUMPDEST DUP3 ADD SWAP2 SWAP1 PUSH0 MSTORE PUSH1 0x20 PUSH0 KECCAK256 SWAP1 JUMPDEST DUP2 SLOAD DUP2 MSTORE SWAP1 PUSH1 0x1 ADD SWAP1 PUSH1 0x20 ADD DUP1 DUP4 GT PUSH2 0x97C JUMPI DUP3 SWAP1 SUB PUSH1 0x1F AND DUP3 ADD SWAP2 JUMPDEST POP POP POP POP POP SWAP1 DUP1 PUSH1 0x4 ADD PUSH0 SWAP1 SLOAD SWAP1 PUSH2 0x100 EXP SWAP1 DIV PUSH20 0xFFFFFFFFFFFFFFFFFFFFFFFFFFFFFFFFFFFFFFFF AND SWAP1 DUP1 PUSH1 0x5 ADD DUP1 SLOAD PUSH2 0x9D3 SWAP1 PUSH2 0x1363 JUMP JUMPDEST DUP1 PUSH1 0x1F ADD PUSH1 0x20 DUP1 SWAP2 DIV MUL PUSH1 0x20 ADD PUSH1 0x40 MLOAD SWAP1 DUP2 ADD PUSH1 0x40 MSTORE DUP1 SWAP3 SWAP2 SWAP1 DUP2 DUP2 MSTORE PUSH1 0x20 ADD DUP3 DUP1 SLOAD PUSH2 0x9FF SWAP1 PUSH2 0x1363 JUMP JUMPDEST DUP1 ISZERO PUSH2 0xA4A JUMPI DUP1 PUSH1 0x1F LT PUSH2 0xA21 JUMPI PUSH2 0x100 DUP1 DUP4 SLOAD DIV MUL DUP4 MSTORE SWAP2 PUSH1 0x20 ADD SWAP2 PUSH2 0xA4A JUMP JUMPDEST DUP3 ADD SWAP2 SWAP1 PUSH0 MSTORE PUSH1 0x20 PUSH0 KECCAK256 SWAP1 JUMPDEST DUP2 SLOAD DUP2 MSTORE SWAP1 PUSH1 0x1 ADD SWAP1 PUSH1 0x20 ADD DUP1 DUP4 GT PUSH2 0xA2D JUMPI DUP3 SWAP1 SUB PUSH1 0x1F AND DUP3 ADD SWAP2 JUMPDEST POP POP POP POP POP SWAP1 DUP1 PUSH1 0x6 ADD PUSH0 SWAP1 SLOAD SWAP1 PUSH2 0x100 EXP SWAP1 DIV PUSH1 0xFF AND SWAP1 DUP1 PUSH1 0x7 ADD SLOAD SWAP1 POP DUP9 JUMP JUMPDEST PUSH1 0x40 MLOAD DUP1 PUSH2 0x100 ADD PUSH1 0x40 MSTORE DUP1 PUSH1 0x60 DUP2 MSTORE PUSH1 0x20 ADD PUSH1 0x60 DUP2 MSTORE PUSH1 0x20 ADD PUSH0 DUP2 MSTORE PUSH1 0x20 ADD PUSH1 0x60 DUP2 MSTORE PUSH1 0x20 ADD PUSH0 PUSH20 0xFFFFFFFFFFFFFFFFFFFFFFFFFFFFFFFFFFFFFFFF AND DUP2 MSTORE PUSH1 0x20 ADD PUSH1 0x60 DUP2 MSTORE PUSH1 0x20 ADD PUSH0 PUSH1 0x2 DUP2 GT ISZERO PUSH2 0xAC9 JUMPI PUSH2 0xAC8 PUSH2 0xC1C JUMP JUMPDEST JUMPDEST DUP2 MSTORE PUSH1 0x20 ADD PUSH0 DUP2 MSTORE POP SWAP1 JUMP JUMPDEST PUSH0 PUSH1 0x40 MLOAD SWAP1 POP SWAP1 JUMP JUMPDEST PUSH0 DUP1 REVERT JUMPDEST PUSH0 DUP1 REVERT JUMPDEST PUSH0 DUP2 SWAP1 POP SWAP2 SWAP1 POP JUMP JUMPDEST PUSH2 0xAF8 DUP2 PUSH2 0xAE6 JUMP JUMPDEST DUP2 EQ PUSH2 0xB02 JUMPI PUSH0 DUP1 REVERT JUMPDEST POP JUMP JUMPDEST PUSH0 DUP2 CALLDATALOAD SWAP1 POP PUSH2 0xB13 DUP2 PUSH2 0xAEF JUMP JUMPDEST SWAP3 SWAP2 POP POP JUMP JUMPDEST PUSH0 PUSH1 0x20 DUP3 DUP5 SUB SLT ISZERO PUSH2 0xB2E JUMPI PUSH2 0xB2D PUSH2 0xADE JUMP JUMPDEST JUMPDEST PUSH0 PUSH2 0xB3B DUP5 DUP3 DUP6 ADD PUSH2 0xB05 JUMP JUMPDEST SWAP2 POP POP SWAP3 SWAP2 POP POP JUMP JUMPDEST PUSH0 DUP2 MLOAD SWAP1 POP SWAP2 SWAP1 POP JUMP JUMPDEST PUSH0 DUP3 DUP3 MSTORE PUSH1 0x20 DUP3 ADD SWAP1 POP SWAP3 SWAP2 POP POP JUMP JUMPDEST PUSH0 JUMPDEST DUP4 DUP2 LT ISZERO PUSH2 0xB7B JUMPI DUP1 DUP3 ADD MLOAD DUP2 DUP5 ADD MSTORE PUSH1 0x20 DUP2 ADD SWAP1 POP PUSH2 0xB60 JUMP JUMPDEST PUSH0 DUP5 DUP5 ADD MSTORE POP POP POP POP JUMP JUMPDEST PUSH0 PUSH1 0x1F NOT PUSH1 0x1F DUP4 ADD AND SWAP1 POP SWAP2 SWAP1 POP JUMP JUMPDEST PUSH0 PUSH2 0xBA0 DUP3 PUSH2 0xB44 JUMP JUMPDEST PUSH2 0xBAA DUP2 DUP6 PUSH2 0xB4E JUMP JUMPDEST SWAP4 POP PUSH2 0xBBA DUP2 DUP6 PUSH1 0x20 DUP7 ADD PUSH2 0xB5E JUMP JUMPDEST PUSH2 0xBC3 DUP2 PUSH2 0xB86 JUMP JUMPDEST DUP5 ADD SWAP2 POP POP SWAP3 SWAP2 POP POP JUMP JUMPDEST PUSH2 0xBD7 DUP2 PUSH2 0xAE6 JUMP JUMPDEST DUP3 MSTORE POP POP JUMP JUMPDEST PUSH0 PUSH20 0xFFFFFFFFFFFFFFFFFFFFFFFFFFFFFFFFFFFFFFFF DUP3 AND SWAP1 POP SWAP2 SWAP1 POP JUMP JUMPDEST PUSH0 PUSH2 0xC06 DUP3 PUSH2 0xBDD JUMP JUMPDEST SWAP1 POP SWAP2 SWAP1 POP JUMP JUMPDEST PUSH2 0xC16 DUP2 PUSH2 0xBFC JUMP JUMPDEST DUP3 MSTORE POP POP JUMP JUMPDEST PUSH32 0x4E487B7100000000000000000000000000000000000000000000000000000000 PUSH0 MSTORE PUSH1 0x21 PUSH1 0x4 MSTORE PUSH1 0x24 PUSH0 REVERT JUMPDEST PUSH1 0x3 DUP2 LT PUSH2 0xC5A JUMPI PUSH2 0xC59 PUSH2 0xC1C JUMP JUMPDEST JUMPDEST POP JUMP JUMPDEST PUSH0 DUP2 SWAP1 POP PUSH2 0xC6A DUP3 PUSH2 0xC49 JUMP JUMPDEST SWAP2 SWAP1 POP JUMP JUMPDEST PUSH0 PUSH2 0xC79 DUP3 PUSH2 0xC5D JUMP JUMPDEST SWAP1 POP SWAP2 SWAP1 POP JUMP JUMPDEST PUSH2 0xC89 DUP2 PUSH2 0xC6F JUMP JUMPDEST DUP3 MSTORE POP POP JUMP JUMPDEST PUSH0 PUSH2 0x100 DUP4 ADD PUSH0 DUP4 ADD MLOAD DUP5 DUP3 SUB PUSH0 DUP7 ADD MSTORE PUSH2 0xCAA DUP3 DUP3 PUSH2 0xB96 JUMP JUMPDEST SWAP2 POP POP PUSH1 0x20 DUP4 ADD MLOAD DUP5 DUP3 SUB PUSH1 0x20 DUP7 ADD MSTORE PUSH2 0xCC4 DUP3 DUP3 PUSH2 0xB96 JUMP JUMPDEST SWAP2 POP POP PUSH1 0x40 DUP4 ADD MLOAD PUSH2 0xCD9 PUSH1 0x40 DUP7 ADD DUP3 PUSH2 0xBCE JUMP JUMPDEST POP PUSH1 0x60 DUP4 ADD MLOAD DUP5 DUP3 SUB PUSH1 0x60 DUP7 ADD MSTORE PUSH2 0xCF1 DUP3 DUP3 PUSH2 0xB96 JUMP JUMPDEST SWAP2 POP POP PUSH1 0x80 DUP4 ADD MLOAD PUSH2 0xD06 PUSH1 0x80 DUP7 ADD DUP3 PUSH2 0xC0D JUMP JUMPDEST POP PUSH1 0xA0 DUP4 ADD MLOAD DUP5 DUP3 SUB PUSH1 0xA0 DUP7 ADD MSTORE PUSH2 0xD1E DUP3 DUP3 PUSH2 0xB96 JUMP JUMPDEST SWAP2 POP POP PUSH1 0xC0 DUP4 ADD MLOAD PUSH2 0xD33 PUSH1 0xC0 DUP7 ADD DUP3 PUSH2 0xC80 JUMP JUMPDEST POP PUSH1 0xE0 DUP4 ADD MLOAD PUSH2 0xD46 PUSH1 0xE0 DUP7 ADD DUP3 PUSH2 0xBCE JUMP JUMPDEST POP DUP1 SWAP2 POP POP SWAP3 SWAP2 POP POP JUMP JUMPDEST PUSH0 PUSH1 0x20 DUP3 ADD SWAP1 POP DUP2 DUP2 SUB PUSH0 DUP4 ADD MSTORE PUSH2 0xD69 DUP2 DUP5 PUSH2 0xC8F JUMP JUMPDEST SWAP1 POP SWAP3 SWAP2 POP POP JUMP JUMPDEST PUSH2 0xD7A DUP2 PUSH2 0xBFC JUMP JUMPDEST DUP2 EQ PUSH2 0xD84 JUMPI PUSH0 DUP1 REVERT JUMPDEST POP JUMP JUMPDEST PUSH0 DUP2 CALLDATALOAD SWAP1 POP PUSH2 0xD95 DUP2 PUSH2 0xD71 JUMP JUMPDEST SWAP3 SWAP2 POP POP JUMP JUMPDEST PUSH0 DUP1 REVERT JUMPDEST PUSH0 DUP1 REVERT JUMPDEST PUSH32 0x4E487B7100000000000000000000000000000000000000000000000000000000 PUSH0 MSTORE PUSH1 0x41 PUSH1 0x4 MSTORE PUSH1 0x24 PUSH0 REVERT JUMPDEST PUSH2 0xDD9 DUP3 PUSH2 0xB86 JUMP JUMPDEST DUP2 ADD DUP2 DUP2 LT PUSH8 0xFFFFFFFFFFFFFFFF DUP3 GT OR ISZERO PUSH2 0xDF8 JUMPI PUSH2 0xDF7 PUSH2 0xDA3 JUMP JUMPDEST JUMPDEST DUP1 PUSH1 0x40 MSTORE POP POP POP JUMP JUMPDEST PUSH0 PUSH2 0xE0A PUSH2 0xAD5 JUMP JUMPDEST SWAP1 POP PUSH2 0xE16 DUP3 DUP3 PUSH2 0xDD0 JUMP JUMPDEST SWAP2 SWAP1 POP JUMP JUMPDEST PUSH0 PUSH8 0xFFFFFFFFFFFFFFFF DUP3 GT ISZERO PUSH2 0xE35 JUMPI PUSH2 0xE34 PUSH2 0xDA3 JUMP JUMPDEST JUMPDEST PUSH2 0xE3E DUP3 PUSH2 0xB86 JUMP JUMPDEST SWAP1 POP PUSH1 0x20 DUP2 ADD SWAP1 POP SWAP2 SWAP1 POP JUMP JUMPDEST DUP3 DUP2 DUP4 CALLDATACOPY PUSH0 DUP4 DUP4 ADD MSTORE POP POP POP JUMP JUMPDEST PUSH0 PUSH2 0xE6B PUSH2 0xE66 DUP5 PUSH2 0xE1B JUMP JUMPDEST PUSH2 0xE01 JUMP JUMPDEST SWAP1 POP DUP3 DUP2 MSTORE PUSH1 0x20 DUP2 ADD DUP5 DUP5 DUP5 ADD GT ISZERO PUSH2 0xE87 JUMPI PUSH2 0xE86 PUSH2 0xD9F JUMP JUMPDEST JUMPDEST PUSH2 0xE92 DUP5 DUP3 DUP6 PUSH2 0xE4B JUMP JUMPDEST POP SWAP4 SWAP3 POP POP POP JUMP JUMPDEST PUSH0 DUP3 PUSH1 0x1F DUP4 ADD SLT PUSH2 0xEAE JUMPI PUSH2 0xEAD PUSH2 0xD9B JUMP JUMPDEST JUMPDEST DUP2 CALLDATALOAD PUSH2 0xEBE DUP5 DUP3 PUSH1 0x20 DUP7 ADD PUSH2 0xE59 JUMP JUMPDEST SWAP2 POP POP SWAP3 SWAP2 POP POP JUMP JUMPDEST PUSH1 0x3 DUP2 LT PUSH2 0xED3 JUMPI PUSH0 DUP1 REVERT JUMPDEST POP JUMP JUMPDEST PUSH0 DUP2 CALLDATALOAD SWAP1 POP PUSH2 0xEE4 DUP2 PUSH2 0xEC7 JUMP JUMPDEST SWAP3 SWAP2 POP POP JUMP JUMPDEST PUSH0 DUP1 PUSH0 DUP1 PUSH0 DUP1 PUSH0 DUP1 PUSH0 PUSH2 0x120 DUP11 DUP13 SUB SLT ISZERO PUSH2 0xF08 JUMPI PUSH2 0xF07 PUSH2 0xADE JUMP JUMPDEST JUMPDEST PUSH0 PUSH2 0xF15 DUP13 DUP3 DUP14 ADD PUSH2 0xD87 JUMP JUMPDEST SWAP10 POP POP PUSH1 0x20 DUP11 ADD CALLDATALOAD PUSH8 0xFFFFFFFFFFFFFFFF DUP2 GT ISZERO PUSH2 0xF36 JUMPI PUSH2 0xF35 PUSH2 0xAE2 JUMP JUMPDEST JUMPDEST PUSH2 0xF42 DUP13 DUP3 DUP14 ADD PUSH2 0xE9A JUMP JUMPDEST SWAP9 POP POP PUSH1 0x40 DUP11 ADD CALLDATALOAD PUSH8 0xFFFFFFFFFFFFFFFF DUP2 GT ISZERO PUSH2 0xF63 JUMPI PUSH2 0xF62 PUSH2 0xAE2 JUMP JUMPDEST JUMPDEST PUSH2 0xF6F DUP13 DUP3 DUP14 ADD PUSH2 0xE9A JUMP JUMPDEST SWAP8 POP POP PUSH1 0x60 PUSH2 0xF80 DUP13 DUP3 DUP14 ADD PUSH2 0xB05 JUMP JUMPDEST SWAP7 POP POP PUSH1 0x80 DUP11 ADD CALLDATALOAD PUSH8 0xFFFFFFFFFFFFFFFF DUP2 GT ISZERO PUSH2 0xFA1 JUMPI PUSH2 0xFA0 PUSH2 0xAE2 JUMP JUMPDEST JUMPDEST PUSH2 0xFAD DUP13 DUP3 DUP14 ADD PUSH2 0xE9A JUMP JUMPDEST SWAP6 POP POP PUSH1 0xA0 PUSH2 0xFBE DUP13 DUP3 DUP14 ADD PUSH2 0xD87 JUMP JUMPDEST SWAP5 POP POP PUSH1 0xC0 DUP11 ADD CALLDATALOAD PUSH8 0xFFFFFFFFFFFFFFFF DUP2 GT ISZERO PUSH2 0xFDF JUMPI PUSH2 0xFDE PUSH2 0xAE2 JUMP JUMPDEST JUMPDEST PUSH2 0xFEB DUP13 DUP3 DUP14 ADD PUSH2 0xE9A JUMP JUMPDEST SWAP4 POP POP PUSH1 0xE0 PUSH2 0xFFC DUP13 DUP3 DUP14 ADD PUSH2 0xED6 JUMP JUMPDEST SWAP3 POP POP PUSH2 0x100 PUSH2 0x100E DUP13 DUP3 DUP14 ADD PUSH2 0xB05 JUMP JUMPDEST SWAP2 POP POP SWAP3 SWAP6 SWAP9 POP SWAP3 SWAP6 SWAP9 POP SWAP3 SWAP6 SWAP9 JUMP JUMPDEST PUSH2 0x1027 DUP2 PUSH2 0xAE6 JUMP JUMPDEST DUP3 MSTORE POP POP JUMP JUMPDEST PUSH0 PUSH1 0x20 DUP3 ADD SWAP1 POP PUSH2 0x1040 PUSH0 DUP4 ADD DUP5 PUSH2 0x101E JUMP JUMPDEST SWAP3 SWAP2 POP POP JUMP JUMPDEST PUSH0 DUP1 PUSH0 DUP1 PUSH0 DUP1 PUSH0 DUP1 PUSH2 0x100 DUP10 DUP12 SUB SLT ISZERO PUSH2 0x1063 JUMPI PUSH2 0x1062 PUSH2 0xADE JUMP JUMPDEST JUMPDEST PUSH0 PUSH2 0x1070 DUP12 DUP3 DUP13 ADD PUSH2 0xD87 JUMP JUMPDEST SWAP9 POP POP PUSH1 0x20 DUP10 ADD CALLDATALOAD PUSH8 0xFFFFFFFFFFFFFFFF DUP2 GT ISZERO PUSH2 0x1091 JUMPI PUSH2 0x1090 PUSH2 0xAE2 JUMP JUMPDEST JUMPDEST PUSH2 0x109D DUP12 DUP3 DUP13 ADD PUSH2 0xE9A JUMP JUMPDEST SWAP8 POP POP PUSH1 0x40 DUP10 ADD CALLDATALOAD PUSH8 0xFFFFFFFFFFFFFFFF DUP2 GT ISZERO PUSH2 0x10BE JUMPI PUSH2 0x10BD PUSH2 0xAE2 JUMP JUMPDEST JUMPDEST PUSH2 0x10CA DUP12 DUP3 DUP13 ADD PUSH2 0xE9A JUMP JUMPDEST SWAP7 POP POP PUSH1 0x60 PUSH2 0x10DB DUP12 DUP3 DUP13 ADD PUSH2 0xB05 JUMP JUMPDEST SWAP6 POP POP PUSH1 0x80 DUP10 ADD CALLDATALOAD PUSH8 0xFFFFFFFFFFFFFFFF DUP2 GT ISZERO PUSH2 0x10FC JUMPI PUSH2 0x10FB PUSH2 0xAE2 JUMP JUMPDEST JUMPDEST PUSH2 0x1108 DUP12 DUP3 DUP13 ADD PUSH2 0xE9A JUMP JUMPDEST SWAP5 POP POP PUSH1 0xA0 PUSH2 0x1119 DUP12 DUP3 DUP13 ADD PUSH2 0xD87 JUMP JUMPDEST SWAP4 POP POP PUSH1 0xC0 DUP10 ADD CALLDATALOAD PUSH8 0xFFFFFFFFFFFFFFFF DUP2 GT ISZERO PUSH2 0x113A JUMPI PUSH2 0x1139 PUSH2 0xAE2 JUMP JUMPDEST JUMPDEST PUSH2 0x1146 DUP12 DUP3 DUP13 ADD PUSH2 0xE9A JUMP JUMPDEST SWAP3 POP POP PUSH1 0xE0 PUSH2 0x1157 DUP12 DUP3 DUP13 ADD PUSH2 0xB05 JUMP JUMPDEST SWAP2 POP POP SWAP3 SWAP6 SWAP9 POP SWAP3 SWAP6 SWAP9 SWAP1 SWAP4 SWAP7 POP JUMP JUMPDEST PUSH0 PUSH2 0x1171 DUP3 PUSH2 0xBDD JUMP JUMPDEST SWAP1 POP SWAP2 SWAP1 POP JUMP JUMPDEST PUSH2 0x1181 DUP2 PUSH2 0x1167 JUMP JUMPDEST DUP2 EQ PUSH2 0x118B JUMPI PUSH0 DUP1 REVERT JUMPDEST POP JUMP JUMPDEST PUSH0 DUP2 CALLDATALOAD SWAP1 POP PUSH2 0x119C DUP2 PUSH2 0x1178 JUMP JUMPDEST SWAP3 SWAP2 POP POP JUMP JUMPDEST PUSH0 PUSH1 0x20 DUP3 DUP5 SUB SLT ISZERO PUSH2 0x11B7 JUMPI PUSH2 0x11B6 PUSH2 0xADE JUMP JUMPDEST JUMPDEST PUSH0 PUSH2 0x11C4 DUP5 DUP3 DUP6 ADD PUSH2 0x118E JUMP JUMPDEST SWAP2 POP POP SWAP3 SWAP2 POP POP JUMP JUMPDEST PUSH0 DUP1 PUSH1 0x40 DUP4 DUP6 SUB SLT ISZERO PUSH2 0x11E3 JUMPI PUSH2 0x11E2 PUSH2 0xADE JUMP JUMPDEST JUMPDEST PUSH0 PUSH2 0x11F0 DUP6 DUP3 DUP7 ADD PUSH2 0xB05 JUMP JUMPDEST SWAP3 POP POP PUSH1 0x20 PUSH2 0x1201 DUP6 DUP3 DUP7 ADD PUSH2 0x118E JUMP JUMPDEST SWAP2 POP POP SWAP3 POP SWAP3 SWAP1 POP JUMP JUMPDEST PUSH0 DUP3 DUP3 MSTORE PUSH1 0x20 DUP3 ADD SWAP1 POP SWAP3 SWAP2 POP POP JUMP JUMPDEST PUSH0 PUSH2 0x1225 DUP3 PUSH2 0xB44 JUMP JUMPDEST PUSH2 0x122F DUP2 DUP6 PUSH2 0x120B JUMP JUMPDEST SWAP4 POP PUSH2 0x123F DUP2 DUP6 PUSH1 0x20 DUP7 ADD PUSH2 0xB5E JUMP JUMPDEST PUSH2 0x1248 DUP2 PUSH2 0xB86 JUMP JUMPDEST DUP5 ADD SWAP2 POP POP SWAP3 SWAP2 POP POP JUMP JUMPDEST PUSH2 0x125C DUP2 PUSH2 0xBFC JUMP JUMPDEST DUP3 MSTORE POP POP JUMP JUMPDEST PUSH2 0x126B DUP2 PUSH2 0xC6F JUMP JUMPDEST DUP3 MSTORE POP POP JUMP JUMPDEST PUSH0 PUSH2 0x100 DUP3 ADD SWAP1 POP DUP2 DUP2 SUB PUSH0 DUP4 ADD MSTORE PUSH2 0x128A DUP2 DUP12 PUSH2 0x121B JUMP JUMPDEST SWAP1 POP DUP2 DUP2 SUB PUSH1 0x20 DUP4 ADD MSTORE PUSH2 0x129E DUP2 DUP11 PUSH2 0x121B JUMP JUMPDEST SWAP1 POP PUSH2 0x12AD PUSH1 0x40 DUP4 ADD DUP10 PUSH2 0x101E JUMP JUMPDEST DUP2 DUP2 SUB PUSH1 0x60 DUP4 ADD MSTORE PUSH2 0x12BF DUP2 DUP9 PUSH2 0x121B JUMP JUMPDEST SWAP1 POP PUSH2 0x12CE PUSH1 0x80 DUP4 ADD DUP8 PUSH2 0x1253 JUMP JUMPDEST DUP2 DUP2 SUB PUSH1 0xA0 DUP4 ADD MSTORE PUSH2 0x12E0 DUP2 DUP7 PUSH2 0x121B JUMP JUMPDEST SWAP1 POP PUSH2 0x12EF PUSH1 0xC0 DUP4 ADD DUP6 PUSH2 0x1262 JUMP JUMPDEST PUSH2 0x12FC PUSH1 0xE0 DUP4 ADD DUP5 PUSH2 0x101E JUMP JUMPDEST SWAP10 SWAP9 POP POP POP POP POP POP POP POP POP JUMP JUMPDEST PUSH32 0x4E487B7100000000000000000000000000000000000000000000000000000000 PUSH0 MSTORE PUSH1 0x32 PUSH1 0x4 MSTORE PUSH1 0x24 PUSH0 REVERT JUMPDEST PUSH32 0x4E487B7100000000000000000000000000000000000000000000000000000000 PUSH0 MSTORE PUSH1 0x22 PUSH1 0x4 MSTORE PUSH1 0x24 PUSH0 REVERT JUMPDEST PUSH0 PUSH1 0x2 DUP3 DIV SWAP1 POP PUSH1 0x1 DUP3 AND DUP1 PUSH2 0x137A JUMPI PUSH1 0x7F DUP3 AND SWAP2 POP JUMPDEST PUSH1 0x20 DUP3 LT DUP2 SUB PUSH2 0x138D JUMPI PUSH2 0x138C PUSH2 0x1336 JUMP JUMPDEST JUMPDEST POP SWAP2 SWAP1 POP JUMP JUMPDEST PUSH0 DUP2 SWAP1 POP DUP2 PUSH0 MSTORE PUSH1 0x20 PUSH0 KECCAK256 SWAP1 POP SWAP2 SWAP1 POP JUMP JUMPDEST PUSH0 PUSH1 0x20 PUSH1 0x1F DUP4 ADD DIV SWAP1 POP SWAP2 SWAP1 POP JUMP JUMPDEST PUSH0 DUP3 DUP3 SHL SWAP1 POP SWAP3 SWAP2 POP POP JUMP JUMPDEST PUSH0 PUSH1 0x8 DUP4 MUL PUSH2 0x13EF PUSH32 0xFFFFFFFFFFFFFFFFFFFFFFFFFFFFFFFFFFFFFFFFFFFFFFFFFFFFFFFFFFFFFFFF DUP3 PUSH2 0x13B4 JUMP JUMPDEST PUSH2 0x13F9 DUP7 DUP4 PUSH2 0x13B4 JUMP JUMPDEST SWAP6 POP DUP1 NOT DUP5 AND SWAP4 POP DUP1 DUP7 AND DUP5 OR SWAP3 POP POP POP SWAP4 SWAP3 POP POP POP JUMP JUMPDEST PUSH0 DUP2 SWAP1 POP SWAP2 SWAP1 POP JUMP JUMPDEST PUSH0 PUSH2 0x1434 PUSH2 0x142F PUSH2 0x142A DUP5 PUSH2 0xAE6 JUMP JUMPDEST PUSH2 0x1411 JUMP JUMPDEST PUSH2 0xAE6 JUMP JUMPDEST SWAP1 POP SWAP2 SWAP1 POP JUMP JUMPDEST PUSH0 DUP2 SWAP1 POP SWAP2 SWAP1 POP JUMP JUMPDEST PUSH2 0x144D DUP4 PUSH2 0x141A JUMP JUMPDEST PUSH2 0x1461 PUSH2 0x1459 DUP3 PUSH2 0x143B JUMP JUMPDEST DUP5 DUP5 SLOAD PUSH2 0x13C0 JUMP JUMPDEST DUP3 SSTORE POP POP POP POP JUMP JUMPDEST PUSH0 SWAP1 JUMP JUMPDEST PUSH2 0x1475 PUSH2 0x1469 JUMP JUMPDEST PUSH2 0x1480 DUP2 DUP5 DUP5 PUSH2 0x1444 JUMP JUMPDEST POP POP POP JUMP JUMPDEST JUMPDEST DUP2 DUP2 LT ISZERO PUSH2 0x14A3 JUMPI PUSH2 0x1498 PUSH0 DUP3 PUSH2 0x146D JUMP JUMPDEST PUSH1 0x1 DUP2 ADD SWAP1 POP PUSH2 0x1486 JUMP JUMPDEST POP POP JUMP JUMPDEST PUSH1 0x1F DUP3 GT ISZERO PUSH2 0x14E8 JUMPI PUSH2 0x14B9 DUP2 PUSH2 0x1393 JUMP JUMPDEST PUSH2 0x14C2 DUP5 PUSH2 0x13A5 JUMP JUMPDEST DUP2 ADD PUSH1 0x20 DUP6 LT ISZERO PUSH2 0x14D1 JUMPI DUP2 SWAP1 POP JUMPDEST PUSH2 0x14E5 PUSH2 0x14DD DUP6 PUSH2 0x13A5 JUMP JUMPDEST DUP4 ADD DUP3 PUSH2 0x1485 JUMP JUMPDEST POP POP JUMPDEST POP POP POP JUMP JUMPDEST PUSH0 DUP3 DUP3 SHR SWAP1 POP SWAP3 SWAP2 POP POP JUMP JUMPDEST PUSH0 PUSH2 0x1508 PUSH0 NOT DUP5 PUSH1 0x8 MUL PUSH2 0x14ED JUMP JUMPDEST NOT DUP1 DUP4 AND SWAP2 POP POP SWAP3 SWAP2 POP POP JUMP JUMPDEST PUSH0 PUSH2 0x1520 DUP4 DUP4 PUSH2 0x14F9 JUMP JUMPDEST SWAP2 POP DUP3 PUSH1 0x2 MUL DUP3 OR SWAP1 POP SWAP3 SWAP2 POP POP JUMP JUMPDEST PUSH2 0x1539 DUP3 PUSH2 0xB44 JUMP JUMPDEST PUSH8 0xFFFFFFFFFFFFFFFF DUP2 GT ISZERO PUSH2 0x1552 JUMPI PUSH2 0x1551 PUSH2 0xDA3 JUMP JUMPDEST JUMPDEST PUSH2 0x155C DUP3 SLOAD PUSH2 0x1363 JUMP JUMPDEST PUSH2 0x1567 DUP3 DUP3 DUP6 PUSH2 0x14A7 JUMP JUMPDEST PUSH0 PUSH1 0x20 SWAP1 POP PUSH1 0x1F DUP4 GT PUSH1 0x1 DUP2 EQ PUSH2 0x1598 JUMPI PUSH0 DUP5 ISZERO PUSH2 0x1586 JUMPI DUP3 DUP8 ADD MLOAD SWAP1 POP JUMPDEST PUSH2 0x1590 DUP6 DUP3 PUSH2 0x1515 JUMP JUMPDEST DUP7 SSTORE POP PUSH2 0x15F7 JUMP JUMPDEST PUSH1 0x1F NOT DUP5 AND PUSH2 0x15A6 DUP7 PUSH2 0x1393 JUMP JUMPDEST PUSH0 JUMPDEST DUP3 DUP2 LT ISZERO PUSH2 0x15CD JUMPI DUP5 DUP10 ADD MLOAD DUP3 SSTORE PUSH1 0x1 DUP3 ADD SWAP2 POP PUSH1 0x20 DUP6 ADD SWAP5 POP PUSH1 0x20 DUP2 ADD SWAP1 POP PUSH2 0x15A8 JUMP JUMPDEST DUP7 DUP4 LT ISZERO PUSH2 0x15EA JUMPI DUP5 DUP10 ADD MLOAD PUSH2 0x15E6 PUSH1 0x1F DUP10 AND DUP3 PUSH2 0x14F9 JUMP JUMPDEST DUP4 SSTORE POP JUMPDEST PUSH1 0x1 PUSH1 0x2 DUP9 MUL ADD DUP9 SSTORE POP POP POP JUMPDEST POP POP POP POP POP POP JUMP JUMPDEST PUSH32 0x4E487B7100000000000000000000000000000000000000000000000000000000 PUSH0 MSTORE PUSH1 0x11 PUSH1 0x4 MSTORE PUSH1 0x24 PUSH0 REVERT JUMPDEST PUSH0 PUSH2 0x1636 DUP3 PUSH2 0xAE6 JUMP JUMPDEST SWAP2 POP PUSH0 DUP3 SUB PUSH2 0x1648 JUMPI PUSH2 0x1647 PUSH2 0x15FF JUMP JUMPDEST JUMPDEST PUSH1 0x1 DUP3 SUB SWAP1 POP SWAP2 SWAP1 POP JUMP INVALID LOG2 PUSH5 0x6970667358 0x22 SLT KECCAK256 SSTORE STOP SLT DUP9 DUP6 0xE7 CALLVALUE LOG2 PUSH9 0xE75E815E20FB5A1FB AND DUP2 0xE7 DUP13 0xC8 GAS SWAP12 PUSH10 0x4A89E720018764736F6C PUSH4 0x43000816 STOP CALLER "
				},
				"gasEstimates": {
					"creation": {
						"codeDepositCost": "1153800",
						"executionCost": "1198",
						"totalCost": "1154998"
					},
					"external": {
						"PRODUCTSCount()": "2485",
						"Productrecord(uint256)": "infinite",
						"additems(address,string,string,uint256,string,address,string,uint8,uint256)": "infinite",
						"completedsuplly(address,string,string,uint256,string,address,string,uint256)": "infinite",
						"confirmation(address)": "infinite",
						"customer(uint256,address)": "infinite",
						"getproductsrecords(uint256)": "infinite",
						"receivedprod(address,string,string,uint256,string,address,string,uint256)": "infinite",
						"transitprod(address,string,string,uint256,string,address,string,uint256)": "infinite"
					}
				},
				"methodIdentifiers": {
					"PRODUCTSCount()": "2e539677",
					"Productrecord(uint256)": "b49ede9a",
					"additems(address,string,string,uint256,string,address,string,uint8,uint256)": "1c4db37e",
					"completedsuplly(address,string,string,uint256,string,address,string,uint256)": "341d01e6",
					"confirmation(address)": "747a7b95",
					"customer(uint256,address)": "98cfee01",
					"getproductsrecords(uint256)": "09599ad9",
					"receivedprod(address,string,string,uint256,string,address,string,uint256)": "559a04c9",
					"transitprod(address,string,string,uint256,string,address,string,uint256)": "46d063b4"
				}
			},
			"storageLayout": {
				"storage": [
					{
						"astId": 57,
						"contract": "supply_task.sol:supplychain",
						"label": "Productrecord",
						"offset": 0,
						"slot": "0",
						"type": "t_array(t_struct(products)53_storage)dyn_storage"
					},
					{
						"astId": 63,
						"contract": "supply_task.sol:supplychain",
						"label": "sp",
						"offset": 0,
						"slot": "1",
						"type": "t_mapping(t_address,t_array(t_struct(products)53_storage)dyn_storage)"
					}
				],
				"types": {
					"t_address": {
						"encoding": "inplace",
						"label": "address",
						"numberOfBytes": "20"
					},
					"t_array(t_struct(products)53_storage)dyn_storage": {
						"base": "t_struct(products)53_storage",
						"encoding": "dynamic_array",
						"label": "struct supplychain.products[]",
						"numberOfBytes": "32"
					},
					"t_enum(check_state)5": {
						"encoding": "inplace",
						"label": "enum check_state",
						"numberOfBytes": "1"
					},
					"t_mapping(t_address,t_array(t_struct(products)53_storage)dyn_storage)": {
						"encoding": "mapping",
						"key": "t_address",
						"label": "mapping(address => struct supplychain.products[])",
						"numberOfBytes": "32",
						"value": "t_array(t_struct(products)53_storage)dyn_storage"
					},
					"t_string_storage": {
						"encoding": "bytes",
						"label": "string",
						"numberOfBytes": "32"
					},
					"t_struct(products)53_storage": {
						"encoding": "inplace",
						"label": "struct supplychain.products",
						"members": [
							{
								"astId": 37,
								"contract": "supply_task.sol:supplychain",
								"label": "name",
								"offset": 0,
								"slot": "0",
								"type": "t_string_storage"
							},
							{
								"astId": 39,
								"contract": "supply_task.sol:supplychain",
								"label": "PDiscrip",
								"offset": 0,
								"slot": "1",
								"type": "t_string_storage"
							},
							{
								"astId": 41,
								"contract": "supply_task.sol:supplychain",
								"label": "Pprice",
								"offset": 0,
								"slot": "2",
								"type": "t_uint256"
							},
							{
								"astId": 43,
								"contract": "supply_task.sol:supplychain",
								"label": "date",
								"offset": 0,
								"slot": "3",
								"type": "t_string_storage"
							},
							{
								"astId": 45,
								"contract": "supply_task.sol:supplychain",
								"label": "id",
								"offset": 0,
								"slot": "4",
								"type": "t_address"
							},
							{
								"astId": 47,
								"contract": "supply_task.sol:supplychain",
								"label": "seller",
								"offset": 0,
								"slot": "5",
								"type": "t_string_storage"
							},
							{
								"astId": 50,
								"contract": "supply_task.sol:supplychain",
								"label": "state",
								"offset": 0,
								"slot": "6",
								"type": "t_enum(check_state)5"
							},
							{
								"astId": 52,
								"contract": "supply_task.sol:supplychain",
								"label": "qty",
								"offset": 0,
								"slot": "7",
								"type": "t_uint256"
							}
						],
						"numberOfBytes": "256"
					},
					"t_uint256": {
						"encoding": "inplace",
						"label": "uint256",
						"numberOfBytes": "32"
					}
				}
			},
			"userdoc": {
				"kind": "user",
				"methods": {},
				"version": 1
			}
		}
	}
}