{
	"random_number.sol": {
		"GuessingGame": {
			"abi": [
				{
					"inputs": [],
					"stateMutability": "payable",
					"type": "constructor"
				},
				{
					"inputs": [
						{
							"internalType": "uint256",
							"name": "_guess",
							"type": "uint256"
						}
					],
					"name": "guess",
					"outputs": [],
					"stateMutability": "nonpayable",
					"type": "function"
				}
			],
			"devdoc": {
				"kind": "dev",
				"methods": {},
				"version": 1
			},
			"evm": {
				"assembly": "    /* \"random_number.sol\":655:1317  contract GuessingGame  {... */\n  mstore(0x40, 0x80)\n  dataSize(sub_0)\n  dup1\n  dataOffset(sub_0)\n  0x00\n  codecopy\n  0x00\n  return\nstop\n\nsub_0: assembly {\n        /* \"random_number.sol\":655:1317  contract GuessingGame  {... */\n      mstore(0x40, 0x80)\n      callvalue\n      dup1\n      iszero\n      tag_1\n      jumpi\n      0x00\n      dup1\n      revert\n    tag_1:\n      pop\n      jumpi(tag_2, lt(calldatasize, 0x04))\n      shr(0xe0, calldataload(0x00))\n      dup1\n      0x9189fec1\n      eq\n      tag_3\n      jumpi\n    tag_2:\n      0x00\n      dup1\n      revert\n        /* \"random_number.sol\":1040:1314  function guess(uint _guess) external{... */\n    tag_3:\n      tag_4\n      0x04\n      dup1\n      calldatasize\n      sub\n      dup2\n      add\n      swap1\n      tag_5\n      swap2\n      swap1\n      tag_6\n      jump\t// in\n    tag_5:\n      tag_7\n      jump\t// in\n    tag_4:\n      stop\n    tag_7:\n        /* \"random_number.sol\":1087:1099  bool success */\n      0x00\n        /* \"random_number.sol\":1113:1124  badRandom() */\n      tag_9\n        /* \"random_number.sol\":1113:1122  badRandom */\n      tag_10\n        /* \"random_number.sol\":1113:1124  badRandom() */\n      jump\t// in\n    tag_9:\n        /* \"random_number.sol\":1102:1108  _guess */\n      dup3\n        /* \"random_number.sol\":1102:1124  _guess ==  badRandom() */\n      eq\n        /* \"random_number.sol\":1102:1139  _guess ==  badRandom() ? true : false */\n      tag_11\n      jumpi\n        /* \"random_number.sol\":1134:1139  false */\n      0x00\n        /* \"random_number.sol\":1102:1139  _guess ==  badRandom() ? true : false */\n      jump(tag_12)\n    tag_11:\n        /* \"random_number.sol\":1127:1131  true */\n      0x01\n        /* \"random_number.sol\":1102:1139  _guess ==  badRandom() ? true : false */\n    tag_12:\n        /* \"random_number.sol\":1087:1139  bool success = _guess ==  badRandom() ? true : false */\n      swap1\n      pop\n        /* \"random_number.sol\":1156:1163  success */\n      dup1\n        /* \"random_number.sol\":1152:1307  if (success) {... */\n      iszero\n      tag_13\n      jumpi\n        /* \"random_number.sol\":1181:1197  bool transaction */\n      0x00\n        /* \"random_number.sol\":1203:1213  msg.sender */\n      caller\n        /* \"random_number.sol\":1203:1218  msg.sender.call */\n      0xffffffffffffffffffffffffffffffffffffffff\n      and\n        /* \"random_number.sol\":1226:1233  1 ether */\n      0x0de0b6b3a7640000\n        /* \"random_number.sol\":1203:1238  msg.sender.call{value: 1 ether}(\"\") */\n      mload(0x40)\n      tag_14\n      swap1\n      tag_15\n      jump\t// in\n    tag_14:\n      0x00\n      mload(0x40)\n      dup1\n      dup4\n      sub\n      dup2\n      dup6\n      dup8\n      gas\n      call\n      swap3\n      pop\n      pop\n      pop\n      returndatasize\n      dup1\n      0x00\n      dup2\n      eq\n      tag_18\n      jumpi\n      mload(0x40)\n      swap2\n      pop\n      and(add(returndatasize, 0x3f), not(0x1f))\n      dup3\n      add\n      0x40\n      mstore\n      returndatasize\n      dup3\n      mstore\n      returndatasize\n      0x00\n      0x20\n      dup5\n      add\n      returndatacopy\n      jump(tag_17)\n    tag_18:\n      0x60\n      swap2\n      pop\n    tag_17:\n      pop\n        /* \"random_number.sol\":1180:1238  (bool transaction, ) = msg.sender.call{value: 1 ether}(\"\") */\n      pop\n      swap1\n      pop\n        /* \"random_number.sol\":1261:1272  transaction */\n      dup1\n        /* \"random_number.sol\":1253:1295  require(transaction, \"Transaction Failed\") */\n      tag_19\n      jumpi\n      mload(0x40)\n      0x08c379a000000000000000000000000000000000000000000000000000000000\n      dup2\n      mstore\n      0x04\n      add\n      tag_20\n      swap1\n      tag_21\n      jump\t// in\n    tag_20:\n      mload(0x40)\n      dup1\n      swap2\n      sub\n      swap1\n      revert\n    tag_19:\n        /* \"random_number.sol\":1165:1307  {... */\n      pop\n        /* \"random_number.sol\":1152:1307  if (success) {... */\n    tag_13:\n        /* \"random_number.sol\":1076:1314  {... */\n      pop\n        /* \"random_number.sol\":1040:1314  function guess(uint _guess) external{... */\n      pop\n      jump\t// out\n        /* \"random_number.sol\":765:946  function badRandom() internal view returns (uint) {... */\n    tag_10:\n        /* \"random_number.sol\":809:813  uint */\n      0x00\n        /* \"random_number.sol\":826:844  uint random_number */\n      dup1\n        /* \"random_number.sol\":886:887  1 */\n      0x01\n        /* \"random_number.sol\":881:883  10 */\n      0x0a\n        /* \"random_number.sol\":875:876  1 */\n      0x01\n        /* \"random_number.sol\":862:874  block.number */\n      number\n        /* \"random_number.sol\":862:876  block.number-1 */\n      tag_23\n      swap2\n      swap1\n      tag_24\n      jump\t// in\n    tag_23:\n        /* \"random_number.sol\":852:877  blockhash(block.number-1) */\n      blockhash\n        /* \"random_number.sol\":847:878  uint(blockhash(block.number-1)) */\n      0x00\n      shr\n        /* \"random_number.sol\":847:883  uint(blockhash(block.number-1)) % 10 */\n      tag_25\n      swap2\n      swap1\n      tag_26\n      jump\t// in\n    tag_25:\n        /* \"random_number.sol\":847:887  uint(blockhash(block.number-1)) % 10 + 1 */\n      tag_27\n      swap2\n      swap1\n      tag_28\n      jump\t// in\n    tag_27:\n        /* \"random_number.sol\":826:887  uint random_number = uint(blockhash(block.number-1)) % 10 + 1 */\n      swap1\n      pop\n        /* \"random_number.sol\":915:928  random_number */\n      dup1\n        /* \"random_number.sol\":908:928  return random_number */\n      swap2\n      pop\n      pop\n        /* \"random_number.sol\":765:946  function badRandom() internal view returns (uint) {... */\n      swap1\n      jump\t// out\n        /* \"#utility.yul\":88:205   */\n    tag_30:\n        /* \"#utility.yul\":197:198   */\n      0x00\n        /* \"#utility.yul\":194:195   */\n      dup1\n        /* \"#utility.yul\":187:199   */\n      revert\n        /* \"#utility.yul\":334:411   */\n    tag_32:\n        /* \"#utility.yul\":371:378   */\n      0x00\n        /* \"#utility.yul\":400:405   */\n      dup2\n        /* \"#utility.yul\":389:405   */\n      swap1\n      pop\n        /* \"#utility.yul\":334:411   */\n      swap2\n      swap1\n      pop\n      jump\t// out\n        /* \"#utility.yul\":417:539   */\n    tag_33:\n        /* \"#utility.yul\":490:514   */\n      tag_49\n        /* \"#utility.yul\":508:513   */\n      dup2\n        /* \"#utility.yul\":490:514   */\n      tag_32\n      jump\t// in\n    tag_49:\n        /* \"#utility.yul\":483:488   */\n      dup2\n        /* \"#utility.yul\":480:515   */\n      eq\n        /* \"#utility.yul\":470:533   */\n      tag_50\n      jumpi\n        /* \"#utility.yul\":529:530   */\n      0x00\n        /* \"#utility.yul\":526:527   */\n      dup1\n        /* \"#utility.yul\":519:531   */\n      revert\n        /* \"#utility.yul\":470:533   */\n    tag_50:\n        /* \"#utility.yul\":417:539   */\n      pop\n      jump\t// out\n        /* \"#utility.yul\":545:684   */\n    tag_34:\n        /* \"#utility.yul\":591:596   */\n      0x00\n        /* \"#utility.yul\":629:635   */\n      dup2\n        /* \"#utility.yul\":616:636   */\n      calldataload\n        /* \"#utility.yul\":607:636   */\n      swap1\n      pop\n        /* \"#utility.yul\":645:678   */\n      tag_52\n        /* \"#utility.yul\":672:677   */\n      dup2\n        /* \"#utility.yul\":645:678   */\n      tag_33\n      jump\t// in\n    tag_52:\n        /* \"#utility.yul\":545:684   */\n      swap3\n      swap2\n      pop\n      pop\n      jump\t// out\n        /* \"#utility.yul\":690:1019   */\n    tag_6:\n        /* \"#utility.yul\":749:755   */\n      0x00\n        /* \"#utility.yul\":798:800   */\n      0x20\n        /* \"#utility.yul\":786:795   */\n      dup3\n        /* \"#utility.yul\":777:784   */\n      dup5\n        /* \"#utility.yul\":773:796   */\n      sub\n        /* \"#utility.yul\":769:801   */\n      slt\n        /* \"#utility.yul\":766:885   */\n      iszero\n      tag_54\n      jumpi\n        /* \"#utility.yul\":804:883   */\n      tag_55\n      tag_30\n      jump\t// in\n    tag_55:\n        /* \"#utility.yul\":766:885   */\n    tag_54:\n        /* \"#utility.yul\":924:925   */\n      0x00\n        /* \"#utility.yul\":949:1002   */\n      tag_56\n        /* \"#utility.yul\":994:1001   */\n      dup5\n        /* \"#utility.yul\":985:991   */\n      dup3\n        /* \"#utility.yul\":974:983   */\n      dup6\n        /* \"#utility.yul\":970:992   */\n      add\n        /* \"#utility.yul\":949:1002   */\n      tag_34\n      jump\t// in\n    tag_56:\n        /* \"#utility.yul\":939:1002   */\n      swap2\n      pop\n        /* \"#utility.yul\":895:1012   */\n      pop\n        /* \"#utility.yul\":690:1019   */\n      swap3\n      swap2\n      pop\n      pop\n      jump\t// out\n        /* \"#utility.yul\":1025:1172   */\n    tag_35:\n        /* \"#utility.yul\":1126:1137   */\n      0x00\n        /* \"#utility.yul\":1163:1166   */\n      dup2\n        /* \"#utility.yul\":1148:1166   */\n      swap1\n      pop\n        /* \"#utility.yul\":1025:1172   */\n      swap3\n      swap2\n      pop\n      pop\n      jump\t// out\n        /* \"#utility.yul\":1178:1292   */\n    tag_36:\n      pop\n      jump\t// out\n        /* \"#utility.yul\":1298:1696   */\n    tag_37:\n        /* \"#utility.yul\":1457:1460   */\n      0x00\n        /* \"#utility.yul\":1478:1561   */\n      tag_60\n        /* \"#utility.yul\":1559:1560   */\n      0x00\n        /* \"#utility.yul\":1554:1557   */\n      dup4\n        /* \"#utility.yul\":1478:1561   */\n      tag_35\n      jump\t// in\n    tag_60:\n        /* \"#utility.yul\":1471:1561   */\n      swap2\n      pop\n        /* \"#utility.yul\":1570:1663   */\n      tag_61\n        /* \"#utility.yul\":1659:1662   */\n      dup3\n        /* \"#utility.yul\":1570:1663   */\n      tag_36\n      jump\t// in\n    tag_61:\n        /* \"#utility.yul\":1688:1689   */\n      0x00\n        /* \"#utility.yul\":1683:1686   */\n      dup3\n        /* \"#utility.yul\":1679:1690   */\n      add\n        /* \"#utility.yul\":1672:1690   */\n      swap1\n      pop\n        /* \"#utility.yul\":1298:1696   */\n      swap2\n      swap1\n      pop\n      jump\t// out\n        /* \"#utility.yul\":1702:2081   */\n    tag_15:\n        /* \"#utility.yul\":1886:1889   */\n      0x00\n        /* \"#utility.yul\":1908:2055   */\n      tag_63\n        /* \"#utility.yul\":2051:2054   */\n      dup3\n        /* \"#utility.yul\":1908:2055   */\n      tag_37\n      jump\t// in\n    tag_63:\n        /* \"#utility.yul\":1901:2055   */\n      swap2\n      pop\n        /* \"#utility.yul\":2072:2075   */\n      dup2\n        /* \"#utility.yul\":2065:2075   */\n      swap1\n      pop\n        /* \"#utility.yul\":1702:2081   */\n      swap2\n      swap1\n      pop\n      jump\t// out\n        /* \"#utility.yul\":2087:2256   */\n    tag_38:\n        /* \"#utility.yul\":2171:2182   */\n      0x00\n        /* \"#utility.yul\":2205:2211   */\n      dup3\n        /* \"#utility.yul\":2200:2203   */\n      dup3\n        /* \"#utility.yul\":2193:2212   */\n      mstore\n        /* \"#utility.yul\":2245:2249   */\n      0x20\n        /* \"#utility.yul\":2240:2243   */\n      dup3\n        /* \"#utility.yul\":2236:2250   */\n      add\n        /* \"#utility.yul\":2221:2250   */\n      swap1\n      pop\n        /* \"#utility.yul\":2087:2256   */\n      swap3\n      swap2\n      pop\n      pop\n      jump\t// out\n        /* \"#utility.yul\":2262:2430   */\n    tag_39:\n        /* \"#utility.yul\":2402:2422   */\n      0x5472616e73616374696f6e204661696c65640000000000000000000000000000\n        /* \"#utility.yul\":2398:2399   */\n      0x00\n        /* \"#utility.yul\":2390:2396   */\n      dup3\n        /* \"#utility.yul\":2386:2400   */\n      add\n        /* \"#utility.yul\":2379:2423   */\n      mstore\n        /* \"#utility.yul\":2262:2430   */\n      pop\n      jump\t// out\n        /* \"#utility.yul\":2436:2802   */\n    tag_40:\n        /* \"#utility.yul\":2578:2581   */\n      0x00\n        /* \"#utility.yul\":2599:2666   */\n      tag_67\n        /* \"#utility.yul\":2663:2665   */\n      0x12\n        /* \"#utility.yul\":2658:2661   */\n      dup4\n        /* \"#utility.yul\":2599:2666   */\n      tag_38\n      jump\t// in\n    tag_67:\n        /* \"#utility.yul\":2592:2666   */\n      swap2\n      pop\n        /* \"#utility.yul\":2675:2768   */\n      tag_68\n        /* \"#utility.yul\":2764:2767   */\n      dup3\n        /* \"#utility.yul\":2675:2768   */\n      tag_39\n      jump\t// in\n    tag_68:\n        /* \"#utility.yul\":2793:2795   */\n      0x20\n        /* \"#utility.yul\":2788:2791   */\n      dup3\n        /* \"#utility.yul\":2784:2796   */\n      add\n        /* \"#utility.yul\":2777:2796   */\n      swap1\n      pop\n        /* \"#utility.yul\":2436:2802   */\n      swap2\n      swap1\n      pop\n      jump\t// out\n        /* \"#utility.yul\":2808:3227   */\n    tag_21:\n        /* \"#utility.yul\":2974:2978   */\n      0x00\n        /* \"#utility.yul\":3012:3014   */\n      0x20\n        /* \"#utility.yul\":3001:3010   */\n      dup3\n        /* \"#utility.yul\":2997:3015   */\n      add\n        /* \"#utility.yul\":2989:3015   */\n      swap1\n      pop\n        /* \"#utility.yul\":3061:3070   */\n      dup2\n        /* \"#utility.yul\":3055:3059   */\n      dup2\n        /* \"#utility.yul\":3051:3071   */\n      sub\n        /* \"#utility.yul\":3047:3048   */\n      0x00\n        /* \"#utility.yul\":3036:3045   */\n      dup4\n        /* \"#utility.yul\":3032:3049   */\n      add\n        /* \"#utility.yul\":3025:3072   */\n      mstore\n        /* \"#utility.yul\":3089:3220   */\n      tag_70\n        /* \"#utility.yul\":3215:3219   */\n      dup2\n        /* \"#utility.yul\":3089:3220   */\n      tag_40\n      jump\t// in\n    tag_70:\n        /* \"#utility.yul\":3081:3220   */\n      swap1\n      pop\n        /* \"#utility.yul\":2808:3227   */\n      swap2\n      swap1\n      pop\n      jump\t// out\n        /* \"#utility.yul\":3233:3413   */\n    tag_41:\n        /* \"#utility.yul\":3281:3358   */\n      0x4e487b7100000000000000000000000000000000000000000000000000000000\n        /* \"#utility.yul\":3278:3279   */\n      0x00\n        /* \"#utility.yul\":3271:3359   */\n      mstore\n        /* \"#utility.yul\":3378:3382   */\n      0x11\n        /* \"#utility.yul\":3375:3376   */\n      0x04\n        /* \"#utility.yul\":3368:3383   */\n      mstore\n        /* \"#utility.yul\":3402:3406   */\n      0x24\n        /* \"#utility.yul\":3399:3400   */\n      0x00\n        /* \"#utility.yul\":3392:3407   */\n      revert\n        /* \"#utility.yul\":3419:3613   */\n    tag_24:\n        /* \"#utility.yul\":3459:3463   */\n      0x00\n        /* \"#utility.yul\":3479:3499   */\n      tag_73\n        /* \"#utility.yul\":3497:3498   */\n      dup3\n        /* \"#utility.yul\":3479:3499   */\n      tag_32\n      jump\t// in\n    tag_73:\n        /* \"#utility.yul\":3474:3499   */\n      swap2\n      pop\n        /* \"#utility.yul\":3513:3533   */\n      tag_74\n        /* \"#utility.yul\":3531:3532   */\n      dup4\n        /* \"#utility.yul\":3513:3533   */\n      tag_32\n      jump\t// in\n    tag_74:\n        /* \"#utility.yul\":3508:3533   */\n      swap3\n      pop\n        /* \"#utility.yul\":3557:3558   */\n      dup3\n        /* \"#utility.yul\":3554:3555   */\n      dup3\n        /* \"#utility.yul\":3550:3559   */\n      sub\n        /* \"#utility.yul\":3542:3559   */\n      swap1\n      pop\n        /* \"#utility.yul\":3581:3582   */\n      dup2\n        /* \"#utility.yul\":3575:3579   */\n      dup2\n        /* \"#utility.yul\":3572:3583   */\n      gt\n        /* \"#utility.yul\":3569:3606   */\n      iszero\n      tag_75\n      jumpi\n        /* \"#utility.yul\":3586:3604   */\n      tag_76\n      tag_41\n      jump\t// in\n    tag_76:\n        /* \"#utility.yul\":3569:3606   */\n    tag_75:\n        /* \"#utility.yul\":3419:3613   */\n      swap3\n      swap2\n      pop\n      pop\n      jump\t// out\n        /* \"#utility.yul\":3619:3799   */\n    tag_42:\n        /* \"#utility.yul\":3667:3744   */\n      0x4e487b7100000000000000000000000000000000000000000000000000000000\n        /* \"#utility.yul\":3664:3665   */\n      0x00\n        /* \"#utility.yul\":3657:3745   */\n      mstore\n        /* \"#utility.yul\":3764:3768   */\n      0x12\n        /* \"#utility.yul\":3761:3762   */\n      0x04\n        /* \"#utility.yul\":3754:3769   */\n      mstore\n        /* \"#utility.yul\":3788:3792   */\n      0x24\n        /* \"#utility.yul\":3785:3786   */\n      0x00\n        /* \"#utility.yul\":3778:3793   */\n      revert\n        /* \"#utility.yul\":3805:3981   */\n    tag_26:\n        /* \"#utility.yul\":3837:3838   */\n      0x00\n        /* \"#utility.yul\":3854:3874   */\n      tag_79\n        /* \"#utility.yul\":3872:3873   */\n      dup3\n        /* \"#utility.yul\":3854:3874   */\n      tag_32\n      jump\t// in\n    tag_79:\n        /* \"#utility.yul\":3849:3874   */\n      swap2\n      pop\n        /* \"#utility.yul\":3888:3908   */\n      tag_80\n        /* \"#utility.yul\":3906:3907   */\n      dup4\n        /* \"#utility.yul\":3888:3908   */\n      tag_32\n      jump\t// in\n    tag_80:\n        /* \"#utility.yul\":3883:3908   */\n      swap3\n      pop\n        /* \"#utility.yul\":3927:3928   */\n      dup3\n        /* \"#utility.yul\":3917:3952   */\n      tag_81\n      jumpi\n        /* \"#utility.yul\":3932:3950   */\n      tag_82\n      tag_42\n      jump\t// in\n    tag_82:\n        /* \"#utility.yul\":3917:3952   */\n    tag_81:\n        /* \"#utility.yul\":3973:3974   */\n      dup3\n        /* \"#utility.yul\":3970:3971   */\n      dup3\n        /* \"#utility.yul\":3966:3975   */\n      mod\n        /* \"#utility.yul\":3961:3975   */\n      swap1\n      pop\n        /* \"#utility.yul\":3805:3981   */\n      swap3\n      swap2\n      pop\n      pop\n      jump\t// out\n        /* \"#utility.yul\":3987:4178   */\n    tag_28:\n        /* \"#utility.yul\":4027:4030   */\n      0x00\n        /* \"#utility.yul\":4046:4066   */\n      tag_84\n        /* \"#utility.yul\":4064:4065   */\n      dup3\n        /* \"#utility.yul\":4046:4066   */\n      tag_32\n      jump\t// in\n    tag_84:\n        /* \"#utility.yul\":4041:4066   */\n      swap2\n      pop\n        /* \"#utility.yul\":4080:4100   */\n      tag_85\n        /* \"#utility.yul\":4098:4099   */\n      dup4\n        /* \"#utility.yul\":4080:4100   */\n      tag_32\n      jump\t// in\n    tag_85:\n        /* \"#utility.yul\":4075:4100   */\n      swap3\n      pop\n        /* \"#utility.yul\":4123:4124   */\n      dup3\n        /* \"#utility.yul\":4120:4121   */\n      dup3\n        /* \"#utility.yul\":4116:4125   */\n      add\n        /* \"#utility.yul\":4109:4125   */\n      swap1\n      pop\n        /* \"#utility.yul\":4144:4147   */\n      dup1\n        /* \"#utility.yul\":4141:4142   */\n      dup3\n        /* \"#utility.yul\":4138:4148   */\n      gt\n        /* \"#utility.yul\":4135:4171   */\n      iszero\n      tag_86\n      jumpi\n        /* \"#utility.yul\":4151:4169   */\n      tag_87\n      tag_41\n      jump\t// in\n    tag_87:\n        /* \"#utility.yul\":4135:4171   */\n    tag_86:\n        /* \"#utility.yul\":3987:4178   */\n      swap3\n      swap2\n      pop\n      pop\n      jump\t// out\n\n    auxdata: 0xa264697066735822122006e101b061bc0d5acffd1f280d3b782ab1a53bf52f3ee293817a3514c917206364736f6c63430008160033\n}\n",
				"bytecode": {
					"linkReferences": {},
					"object": "6080604052610393806100115f395ff3fe608060405234801561000f575f80fd5b5060043610610029575f3560e01c80639189fec11461002d575b5f80fd5b61004760048036038101906100429190610189565b610049565b005b5f61005261011f565b821461005e575f610061565b60015b9050801561011b575f3373ffffffffffffffffffffffffffffffffffffffff16670de0b6b3a7640000604051610096906101e1565b5f6040518083038185875af1925050503d805f81146100d0576040519150601f19603f3d011682016040523d82523d5f602084013e6100d5565b606091505b5050905080610119576040517f08c379a00000000000000000000000000000000000000000000000000000000081526004016101109061024f565b60405180910390fd5b505b5050565b5f806001600a600143610132919061029a565b405f1c61013f91906102fa565b610149919061032a565b90508091505090565b5f80fd5b5f819050919050565b61016881610156565b8114610172575f80fd5b50565b5f813590506101838161015f565b92915050565b5f6020828403121561019e5761019d610152565b5b5f6101ab84828501610175565b91505092915050565b5f81905092915050565b50565b5f6101cc5f836101b4565b91506101d7826101be565b5f82019050919050565b5f6101eb826101c1565b9150819050919050565b5f82825260208201905092915050565b7f5472616e73616374696f6e204661696c656400000000000000000000000000005f82015250565b5f6102396012836101f5565b915061024482610205565b602082019050919050565b5f6020820190508181035f8301526102668161022d565b9050919050565b7f4e487b71000000000000000000000000000000000000000000000000000000005f52601160045260245ffd5b5f6102a482610156565b91506102af83610156565b92508282039050818111156102c7576102c661026d565b5b92915050565b7f4e487b71000000000000000000000000000000000000000000000000000000005f52601260045260245ffd5b5f61030482610156565b915061030f83610156565b92508261031f5761031e6102cd565b5b828206905092915050565b5f61033482610156565b915061033f83610156565b92508282019050808211156103575761035661026d565b5b9291505056fea264697066735822122006e101b061bc0d5acffd1f280d3b782ab1a53bf52f3ee293817a3514c917206364736f6c63430008160033",
					"opcodes": "PUSH1 0x80 PUSH1 0x40 MSTORE PUSH2 0x393 DUP1 PUSH2 0x11 PUSH0 CODECOPY PUSH0 RETURN INVALID PUSH1 0x80 PUSH1 0x40 MSTORE CALLVALUE DUP1 ISZERO PUSH2 0xF JUMPI PUSH0 DUP1 REVERT JUMPDEST POP PUSH1 0x4 CALLDATASIZE LT PUSH2 0x29 JUMPI PUSH0 CALLDATALOAD PUSH1 0xE0 SHR DUP1 PUSH4 0x9189FEC1 EQ PUSH2 0x2D JUMPI JUMPDEST PUSH0 DUP1 REVERT JUMPDEST PUSH2 0x47 PUSH1 0x4 DUP1 CALLDATASIZE SUB DUP2 ADD SWAP1 PUSH2 0x42 SWAP2 SWAP1 PUSH2 0x189 JUMP JUMPDEST PUSH2 0x49 JUMP JUMPDEST STOP JUMPDEST PUSH0 PUSH2 0x52 PUSH2 0x11F JUMP JUMPDEST DUP3 EQ PUSH2 0x5E JUMPI PUSH0 PUSH2 0x61 JUMP JUMPDEST PUSH1 0x1 JUMPDEST SWAP1 POP DUP1 ISZERO PUSH2 0x11B JUMPI PUSH0 CALLER PUSH20 0xFFFFFFFFFFFFFFFFFFFFFFFFFFFFFFFFFFFFFFFF AND PUSH8 0xDE0B6B3A7640000 PUSH1 0x40 MLOAD PUSH2 0x96 SWAP1 PUSH2 0x1E1 JUMP JUMPDEST PUSH0 PUSH1 0x40 MLOAD DUP1 DUP4 SUB DUP2 DUP6 DUP8 GAS CALL SWAP3 POP POP POP RETURNDATASIZE DUP1 PUSH0 DUP2 EQ PUSH2 0xD0 JUMPI PUSH1 0x40 MLOAD SWAP2 POP PUSH1 0x1F NOT PUSH1 0x3F RETURNDATASIZE ADD AND DUP3 ADD PUSH1 0x40 MSTORE RETURNDATASIZE DUP3 MSTORE RETURNDATASIZE PUSH0 PUSH1 0x20 DUP5 ADD RETURNDATACOPY PUSH2 0xD5 JUMP JUMPDEST PUSH1 0x60 SWAP2 POP JUMPDEST POP POP SWAP1 POP DUP1 PUSH2 0x119 JUMPI PUSH1 0x40 MLOAD PUSH32 0x8C379A000000000000000000000000000000000000000000000000000000000 DUP2 MSTORE PUSH1 0x4 ADD PUSH2 0x110 SWAP1 PUSH2 0x24F JUMP JUMPDEST PUSH1 0x40 MLOAD DUP1 SWAP2 SUB SWAP1 REVERT JUMPDEST POP JUMPDEST POP POP JUMP JUMPDEST PUSH0 DUP1 PUSH1 0x1 PUSH1 0xA PUSH1 0x1 NUMBER PUSH2 0x132 SWAP2 SWAP1 PUSH2 0x29A JUMP JUMPDEST BLOCKHASH PUSH0 SHR PUSH2 0x13F SWAP2 SWAP1 PUSH2 0x2FA JUMP JUMPDEST PUSH2 0x149 SWAP2 SWAP1 PUSH2 0x32A JUMP JUMPDEST SWAP1 POP DUP1 SWAP2 POP POP SWAP1 JUMP JUMPDEST PUSH0 DUP1 REVERT JUMPDEST PUSH0 DUP2 SWAP1 POP SWAP2 SWAP1 POP JUMP JUMPDEST PUSH2 0x168 DUP2 PUSH2 0x156 JUMP JUMPDEST DUP2 EQ PUSH2 0x172 JUMPI PUSH0 DUP1 REVERT JUMPDEST POP JUMP JUMPDEST PUSH0 DUP2 CALLDATALOAD SWAP1 POP PUSH2 0x183 DUP2 PUSH2 0x15F JUMP JUMPDEST SWAP3 SWAP2 POP POP JUMP JUMPDEST PUSH0 PUSH1 0x20 DUP3 DUP5 SUB SLT ISZERO PUSH2 0x19E JUMPI PUSH2 0x19D PUSH2 0x152 JUMP JUMPDEST JUMPDEST PUSH0 PUSH2 0x1AB DUP5 DUP3 DUP6 ADD PUSH2 0x175 JUMP JUMPDEST SWAP2 POP POP SWAP3 SWAP2 POP POP JUMP JUMPDEST PUSH0 DUP2 SWAP1 POP SWAP3 SWAP2 POP POP JUMP JUMPDEST POP JUMP JUMPDEST PUSH0 PUSH2 0x1CC PUSH0 DUP4 PUSH2 0x1B4 JUMP JUMPDEST SWAP2 POP PUSH2 0x1D7 DUP3 PUSH2 0x1BE JUMP JUMPDEST PUSH0 DUP3 ADD SWAP1 POP SWAP2 SWAP1 POP JUMP JUMPDEST PUSH0 PUSH2 0x1EB DUP3 PUSH2 0x1C1 JUMP JUMPDEST SWAP2 POP DUP2 SWAP1 POP SWAP2 SWAP1 POP JUMP JUMPDEST PUSH0 DUP3 DUP3 MSTORE PUSH1 0x20 DUP3 ADD SWAP1 POP SWAP3 SWAP2 POP POP JUMP JUMPDEST PUSH32 0x5472616E73616374696F6E204661696C65640000000000000000000000000000 PUSH0 DUP3 ADD MSTORE POP JUMP JUMPDEST PUSH0 PUSH2 0x239 PUSH1 0x12 DUP4 PUSH2 0x1F5 JUMP JUMPDEST SWAP2 POP PUSH2 0x244 DUP3 PUSH2 0x205 JUMP JUMPDEST PUSH1 0x20 DUP3 ADD SWAP1 POP SWAP2 SWAP1 POP JUMP JUMPDEST PUSH0 PUSH1 0x20 DUP3 ADD SWAP1 POP DUP2 DUP2 SUB PUSH0 DUP4 ADD MSTORE PUSH2 0x266 DUP2 PUSH2 0x22D JUMP JUMPDEST SWAP1 POP SWAP2 SWAP1 POP JUMP JUMPDEST PUSH32 0x4E487B7100000000000000000000000000000000000000000000000000000000 PUSH0 MSTORE PUSH1 0x11 PUSH1 0x4 MSTORE PUSH1 0x24 PUSH0 REVERT JUMPDEST PUSH0 PUSH2 0x2A4 DUP3 PUSH2 0x156 JUMP JUMPDEST SWAP2 POP PUSH2 0x2AF DUP4 PUSH2 0x156 JUMP JUMPDEST SWAP3 POP DUP3 DUP3 SUB SWAP1 POP DUP2 DUP2 GT ISZERO PUSH2 0x2C7 JUMPI PUSH2 0x2C6 PUSH2 0x26D JUMP JUMPDEST JUMPDEST SWAP3 SWAP2 POP POP JUMP JUMPDEST PUSH32 0x4E487B7100000000000000000000000000000000000000000000000000000000 PUSH0 MSTORE PUSH1 0x12 PUSH1 0x4 MSTORE PUSH1 0x24 PUSH0 REVERT JUMPDEST PUSH0 PUSH2 0x304 DUP3 PUSH2 0x156 JUMP JUMPDEST SWAP2 POP PUSH2 0x30F DUP4 PUSH2 0x156 JUMP JUMPDEST SWAP3 POP DUP3 PUSH2 0x31F JUMPI PUSH2 0x31E PUSH2 0x2CD JUMP JUMPDEST JUMPDEST DUP3 DUP3 MOD SWAP1 POP SWAP3 SWAP2 POP POP JUMP JUMPDEST PUSH0 PUSH2 0x334 DUP3 PUSH2 0x156 JUMP JUMPDEST SWAP2 POP PUSH2 0x33F DUP4 PUSH2 0x156 JUMP JUMPDEST SWAP3 POP DUP3 DUP3 ADD SWAP1 POP DUP1 DUP3 GT ISZERO PUSH2 0x357 JUMPI PUSH2 0x356 PUSH2 0x26D JUMP JUMPDEST JUMPDEST SWAP3 SWAP2 POP POP JUMP INVALID LOG2 PUSH5 0x6970667358 0x22 SLT KECCAK256 MOD 0xE1 ADD 0xB0 PUSH2 0xBC0D GAS 0xCF REVERT 0x1F 0x28 0xD EXTCODESIZE PUSH25 0x2AB1A53BF52F3EE293817A3514C917206364736F6C63430008 AND STOP CALLER "
				},
				"gasEstimates": {
					"creation": {
						"codeDepositCost": "183000",
						"executionCost": "200",
						"totalCost": "183200"
					},
					"external": {
						"guess(uint256)": "infinite"
					},
					"internal": {
						"badRandom()": "infinite"
					}
				},
				"methodIdentifiers": {
					"guess(uint256)": "9189fec1"
				}
			},
			"storageLayout": {
				"storage": [],
				"types": null
			},
			"userdoc": {
				"kind": "user",
				"methods": {},
				"version": 1
			}
		}
	}
}