{
	"dummy.sol": {
		"FundraisingCampaign": {
			"abi": [
				{
					"anonymous": false,
					"inputs": [
						{
							"indexed": true,
							"internalType": "uint256",
							"name": "campaignIndex",
							"type": "uint256"
						},
						{
							"indexed": true,
							"internalType": "address",
							"name": "owner",
							"type": "address"
						}
					],
					"name": "CampaignCreated",
					"type": "event"
				},
				{
					"inputs": [
						{
							"internalType": "uint256",
							"name": "",
							"type": "uint256"
						}
					],
					"name": "campaigns",
					"outputs": [
						{
							"internalType": "string",
							"name": "name",
							"type": "string"
						},
						{
							"internalType": "string",
							"name": "description",
							"type": "string"
						},
						{
							"internalType": "uint256",
							"name": "goal",
							"type": "uint256"
						},
						{
							"internalType": "address",
							"name": "owner",
							"type": "address"
						},
						{
							"internalType": "bool",
							"name": "isActive",
							"type": "bool"
						},
						{
							"internalType": "uint256",
							"name": "currentAmount",
							"type": "uint256"
						}
					],
					"stateMutability": "view",
					"type": "function"
				},
				{
					"inputs": [
						{
							"internalType": "uint256",
							"name": "_campaignIndex",
							"type": "uint256"
						}
					],
					"name": "contribute",
					"outputs": [],
					"stateMutability": "payable",
					"type": "function"
				},
				{
					"inputs": [
						{
							"internalType": "string",
							"name": "_name",
							"type": "string"
						},
						{
							"internalType": "string",
							"name": "_description",
							"type": "string"
						},
						{
							"internalType": "uint256",
							"name": "_goal",
							"type": "uint256"
						}
					],
					"name": "createCampaign",
					"outputs": [],
					"stateMutability": "nonpayable",
					"type": "function"
				},
				{
					"inputs": [],
					"name": "getCampaignCount",
					"outputs": [
						{
							"internalType": "uint256",
							"name": "",
							"type": "uint256"
						}
					],
					"stateMutability": "view",
					"type": "function"
				},
				{
					"inputs": [
						{
							"internalType": "uint256",
							"name": "_campaignIndex",
							"type": "uint256"
						}
					],
					"name": "getCampaignDetails",
					"outputs": [
						{
							"internalType": "string",
							"name": "name",
							"type": "string"
						},
						{
							"internalType": "string",
							"name": "description",
							"type": "string"
						},
						{
							"internalType": "uint256",
							"name": "goal",
							"type": "uint256"
						},
						{
							"internalType": "address",
							"name": "owner",
							"type": "address"
						},
						{
							"internalType": "bool",
							"name": "isActive",
							"type": "bool"
						},
						{
							"internalType": "uint256",
							"name": "currentAmount",
							"type": "uint256"
						}
					],
					"stateMutability": "view",
					"type": "function"
				},
				{
					"inputs": [
						{
							"internalType": "uint256",
							"name": "_campaignIndex",
							"type": "uint256"
						}
					],
					"name": "isCampaignActive",
					"outputs": [
						{
							"internalType": "bool",
							"name": "",
							"type": "bool"
						}
					],
					"stateMutability": "view",
					"type": "function"
				}
			],
			"devdoc": {
				"kind": "dev",
				"methods": {},
				"version": 1
			},
			"evm": {
				"assembly": "    /* \"dummy.sol\":60:3116  contract FundraisingCampaign {... */\n  mstore(0x40, 0x80)\n  callvalue\n  dup1\n  iszero\n  tag_1\n  jumpi\n  0x00\n  dup1\n  revert\ntag_1:\n  pop\n  dataSize(sub_0)\n  dup1\n  dataOffset(sub_0)\n  0x00\n  codecopy\n  0x00\n  return\nstop\n\nsub_0: assembly {\n        /* \"dummy.sol\":60:3116  contract FundraisingCampaign {... */\n      mstore(0x40, 0x80)\n      jumpi(tag_1, lt(calldatasize, 0x04))\n      shr(0xe0, calldataload(0x00))\n      dup1\n      0x141961bc\n      eq\n      tag_2\n      jumpi\n      dup1\n      0x6caa9218\n      eq\n      tag_3\n      jumpi\n      dup1\n      0xc1cbbca7\n      eq\n      tag_4\n      jumpi\n      dup1\n      0xd993de62\n      eq\n      tag_5\n      jumpi\n      dup1\n      0xe1e33009\n      eq\n      tag_6\n      jumpi\n      dup1\n      0xffa56a57\n      eq\n      tag_7\n      jumpi\n    tag_1:\n      0x00\n      dup1\n      revert\n        /* \"dummy.sol\":307:334  Campaign[] public campaigns */\n    tag_2:\n      callvalue\n      dup1\n      iszero\n      tag_8\n      jumpi\n      0x00\n      dup1\n      revert\n    tag_8:\n      pop\n      tag_9\n      0x04\n      dup1\n      calldatasize\n      sub\n      dup2\n      add\n      swap1\n      tag_10\n      swap2\n      swap1\n      tag_11\n      jump\t// in\n    tag_10:\n      tag_12\n      jump\t// in\n    tag_9:\n      mload(0x40)\n      tag_13\n      swap7\n      swap6\n      swap5\n      swap4\n      swap3\n      swap2\n      swap1\n      tag_14\n      jump\t// in\n    tag_13:\n      mload(0x40)\n      dup1\n      swap2\n      sub\n      swap1\n      return\n        /* \"dummy.sol\":3011:3113  function getCampaignCount() external view returns (uint256) {... */\n    tag_3:\n      callvalue\n      dup1\n      iszero\n      tag_15\n      jumpi\n      0x00\n      dup1\n      revert\n    tag_15:\n      pop\n      tag_16\n      tag_17\n      jump\t// in\n    tag_16:\n      mload(0x40)\n      tag_18\n      swap2\n      swap1\n      tag_19\n      jump\t// in\n    tag_18:\n      mload(0x40)\n      dup1\n      swap2\n      sub\n      swap1\n      return\n        /* \"dummy.sol\":1365:1938  function contribute(uint256 _campaignIndex) external payable {... */\n    tag_4:\n      tag_20\n      0x04\n      dup1\n      calldatasize\n      sub\n      dup2\n      add\n      swap1\n      tag_21\n      swap2\n      swap1\n      tag_11\n      jump\t// in\n    tag_21:\n      tag_22\n      jump\t// in\n    tag_20:\n      stop\n        /* \"dummy.sol\":1992:2673  function getCampaignDetails(uint256 _campaignIndex)... */\n    tag_5:\n      callvalue\n      dup1\n      iszero\n      tag_23\n      jumpi\n      0x00\n      dup1\n      revert\n    tag_23:\n      pop\n      tag_24\n      0x04\n      dup1\n      calldatasize\n      sub\n      dup2\n      add\n      swap1\n      tag_25\n      swap2\n      swap1\n      tag_11\n      jump\t// in\n    tag_25:\n      tag_26\n      jump\t// in\n    tag_24:\n      mload(0x40)\n      tag_27\n      swap7\n      swap6\n      swap5\n      swap4\n      swap3\n      swap2\n      swap1\n      tag_14\n      jump\t// in\n    tag_27:\n      mload(0x40)\n      dup1\n      swap2\n      sub\n      swap1\n      return\n        /* \"dummy.sol\":2731:2949  function isCampaignActive(uint256 _campaignIndex) external view returns (bool) {... */\n    tag_6:\n      callvalue\n      dup1\n      iszero\n      tag_28\n      jumpi\n      0x00\n      dup1\n      revert\n    tag_28:\n      pop\n      tag_29\n      0x04\n      dup1\n      calldatasize\n      sub\n      dup2\n      add\n      swap1\n      tag_30\n      swap2\n      swap1\n      tag_11\n      jump\t// in\n    tag_30:\n      tag_31\n      jump\t// in\n    tag_29:\n      mload(0x40)\n      tag_32\n      swap2\n      swap1\n      tag_33\n      jump\t// in\n    tag_32:\n      mload(0x40)\n      dup1\n      swap2\n      sub\n      swap1\n      return\n        /* \"dummy.sol\":792:1312  function createCampaign(string memory _name, string memory _description, uint256 _goal) external {... */\n    tag_7:\n      callvalue\n      dup1\n      iszero\n      tag_34\n      jumpi\n      0x00\n      dup1\n      revert\n    tag_34:\n      pop\n      tag_35\n      0x04\n      dup1\n      calldatasize\n      sub\n      dup2\n      add\n      swap1\n      tag_36\n      swap2\n      swap1\n      tag_37\n      jump\t// in\n    tag_36:\n      tag_38\n      jump\t// in\n    tag_35:\n      stop\n        /* \"dummy.sol\":307:334  Campaign[] public campaigns */\n    tag_12:\n      0x00\n      dup2\n      dup2\n      sload\n      dup2\n      lt\n      tag_39\n      jumpi\n      0x00\n      dup1\n      revert\n    tag_39:\n      swap1\n      0x00\n      mstore\n      keccak256(0x00, 0x20)\n      swap1\n      0x05\n      mul\n      add\n      0x00\n      swap2\n      pop\n      swap1\n      pop\n      dup1\n      0x00\n      add\n      dup1\n      sload\n      tag_41\n      swap1\n      tag_42\n      jump\t// in\n    tag_41:\n      dup1\n      0x1f\n      add\n      0x20\n      dup1\n      swap2\n      div\n      mul\n      0x20\n      add\n      mload(0x40)\n      swap1\n      dup2\n      add\n      0x40\n      mstore\n      dup1\n      swap3\n      swap2\n      swap1\n      dup2\n      dup2\n      mstore\n      0x20\n      add\n      dup3\n      dup1\n      sload\n      tag_43\n      swap1\n      tag_42\n      jump\t// in\n    tag_43:\n      dup1\n      iszero\n      tag_44\n      jumpi\n      dup1\n      0x1f\n      lt\n      tag_45\n      jumpi\n      0x0100\n      dup1\n      dup4\n      sload\n      div\n      mul\n      dup4\n      mstore\n      swap2\n      0x20\n      add\n      swap2\n      jump(tag_44)\n    tag_45:\n      dup3\n      add\n      swap2\n      swap1\n      0x00\n      mstore\n      keccak256(0x00, 0x20)\n      swap1\n    tag_46:\n      dup2\n      sload\n      dup2\n      mstore\n      swap1\n      0x01\n      add\n      swap1\n      0x20\n      add\n      dup1\n      dup4\n      gt\n      tag_46\n      jumpi\n      dup3\n      swap1\n      sub\n      0x1f\n      and\n      dup3\n      add\n      swap2\n    tag_44:\n      pop\n      pop\n      pop\n      pop\n      pop\n      swap1\n      dup1\n      0x01\n      add\n      dup1\n      sload\n      tag_47\n      swap1\n      tag_42\n      jump\t// in\n    tag_47:\n      dup1\n      0x1f\n      add\n      0x20\n      dup1\n      swap2\n      div\n      mul\n      0x20\n      add\n      mload(0x40)\n      swap1\n      dup2\n      add\n      0x40\n      mstore\n      dup1\n      swap3\n      swap2\n      swap1\n      dup2\n      dup2\n      mstore\n      0x20\n      add\n      dup3\n      dup1\n      sload\n      tag_48\n      swap1\n      tag_42\n      jump\t// in\n    tag_48:\n      dup1\n      iszero\n      tag_49\n      jumpi\n      dup1\n      0x1f\n      lt\n      tag_50\n      jumpi\n      0x0100\n      dup1\n      dup4\n      sload\n      div\n      mul\n      dup4\n      mstore\n      swap2\n      0x20\n      add\n      swap2\n      jump(tag_49)\n    tag_50:\n      dup3\n      add\n      swap2\n      swap1\n      0x00\n      mstore\n      keccak256(0x00, 0x20)\n      swap1\n    tag_51:\n      dup2\n      sload\n      dup2\n      mstore\n      swap1\n      0x01\n      add\n      swap1\n      0x20\n      add\n      dup1\n      dup4\n      gt\n      tag_51\n      jumpi\n      dup3\n      swap1\n      sub\n      0x1f\n      and\n      dup3\n      add\n      swap2\n    tag_49:\n      pop\n      pop\n      pop\n      pop\n      pop\n      swap1\n      dup1\n      0x02\n      add\n      sload\n      swap1\n      dup1\n      0x03\n      add\n      0x00\n      swap1\n      sload\n      swap1\n      0x0100\n      exp\n      swap1\n      div\n      0xffffffffffffffffffffffffffffffffffffffff\n      and\n      swap1\n      dup1\n      0x03\n      add\n      0x14\n      swap1\n      sload\n      swap1\n      0x0100\n      exp\n      swap1\n      div\n      0xff\n      and\n      swap1\n      dup1\n      0x04\n      add\n      sload\n      swap1\n      pop\n      dup7\n      jump\t// out\n        /* \"dummy.sol\":3011:3113  function getCampaignCount() external view returns (uint256) {... */\n    tag_17:\n        /* \"dummy.sol\":3062:3069  uint256 */\n      0x00\n        /* \"dummy.sol\":3089:3098  campaigns */\n      dup1\n        /* \"dummy.sol\":3089:3105  campaigns.length */\n      dup1\n      sload\n      swap1\n      pop\n        /* \"dummy.sol\":3082:3105  return campaigns.length */\n      swap1\n      pop\n        /* \"dummy.sol\":3011:3113  function getCampaignCount() external view returns (uint256) {... */\n      swap1\n      jump\t// out\n        /* \"dummy.sol\":1365:1938  function contribute(uint256 _campaignIndex) external payable {... */\n    tag_22:\n        /* \"dummy.sol\":1462:1471  campaigns */\n      0x00\n        /* \"dummy.sol\":1462:1478  campaigns.length */\n      dup1\n      sload\n      swap1\n      pop\n        /* \"dummy.sol\":1445:1459  _campaignIndex */\n      dup2\n        /* \"dummy.sol\":1445:1478  _campaignIndex < campaigns.length */\n      lt\n        /* \"dummy.sol\":1437:1505  require(_campaignIndex < campaigns.length, \"Invalid campaign index\") */\n      tag_54\n      jumpi\n      mload(0x40)\n      0x08c379a000000000000000000000000000000000000000000000000000000000\n      dup2\n      mstore\n      0x04\n      add\n      tag_55\n      swap1\n      tag_56\n      jump\t// in\n    tag_55:\n      mload(0x40)\n      dup1\n      swap2\n      sub\n      swap1\n      revert\n    tag_54:\n        /* \"dummy.sol\":1524:1533  campaigns */\n      0x00\n        /* \"dummy.sol\":1534:1548  _campaignIndex */\n      dup2\n        /* \"dummy.sol\":1524:1549  campaigns[_campaignIndex] */\n      dup2\n      sload\n      dup2\n      lt\n      tag_57\n      jumpi\n      tag_58\n      tag_59\n      jump\t// in\n    tag_58:\n    tag_57:\n      swap1\n      0x00\n      mstore\n      keccak256(0x00, 0x20)\n      swap1\n      0x05\n      mul\n      add\n        /* \"dummy.sol\":1524:1558  campaigns[_campaignIndex].isActive */\n      0x03\n      add\n      0x14\n      swap1\n      sload\n      swap1\n      0x0100\n      exp\n      swap1\n      div\n      0xff\n      and\n        /* \"dummy.sol\":1516:1585  require(campaigns[_campaignIndex].isActive, \"Campaign is not active\") */\n      tag_61\n      jumpi\n      mload(0x40)\n      0x08c379a000000000000000000000000000000000000000000000000000000000\n      dup2\n      mstore\n      0x04\n      add\n      tag_62\n      swap1\n      tag_63\n      jump\t// in\n    tag_62:\n      mload(0x40)\n      dup1\n      swap2\n      sub\n      swap1\n      revert\n    tag_61:\n        /* \"dummy.sol\":1616:1617  0 */\n      0x00\n        /* \"dummy.sol\":1604:1613  msg.value */\n      callvalue\n        /* \"dummy.sol\":1604:1617  msg.value > 0 */\n      gt\n        /* \"dummy.sol\":1596:1664  require(msg.value > 0, \"Contribution amount must be greater than 0\") */\n      tag_64\n      jumpi\n      mload(0x40)\n      0x08c379a000000000000000000000000000000000000000000000000000000000\n      dup2\n      mstore\n      0x04\n      add\n      tag_65\n      swap1\n      tag_66\n      jump\t// in\n    tag_65:\n      mload(0x40)\n      dup1\n      swap2\n      sub\n      swap1\n      revert\n    tag_64:\n        /* \"dummy.sol\":1720:1729  msg.value */\n      callvalue\n        /* \"dummy.sol\":1677:1686  campaigns */\n      0x00\n        /* \"dummy.sol\":1687:1701  _campaignIndex */\n      dup3\n        /* \"dummy.sol\":1677:1702  campaigns[_campaignIndex] */\n      dup2\n      sload\n      dup2\n      lt\n      tag_67\n      jumpi\n      tag_68\n      tag_59\n      jump\t// in\n    tag_68:\n    tag_67:\n      swap1\n      0x00\n      mstore\n      keccak256(0x00, 0x20)\n      swap1\n      0x05\n      mul\n      add\n        /* \"dummy.sol\":1677:1716  campaigns[_campaignIndex].currentAmount */\n      0x04\n      add\n      0x00\n        /* \"dummy.sol\":1677:1729  campaigns[_campaignIndex].currentAmount += msg.value */\n      dup3\n      dup3\n      sload\n      tag_70\n      swap2\n      swap1\n      tag_71\n      jump\t// in\n    tag_70:\n      swap3\n      pop\n      pop\n      dup2\n      swap1\n      sstore\n      pop\n        /* \"dummy.sol\":1830:1839  campaigns */\n      0x00\n        /* \"dummy.sol\":1840:1854  _campaignIndex */\n      dup2\n        /* \"dummy.sol\":1830:1855  campaigns[_campaignIndex] */\n      dup2\n      sload\n      dup2\n      lt\n      tag_72\n      jumpi\n      tag_73\n      tag_59\n      jump\t// in\n    tag_73:\n    tag_72:\n      swap1\n      0x00\n      mstore\n      keccak256(0x00, 0x20)\n      swap1\n      0x05\n      mul\n      add\n        /* \"dummy.sol\":1830:1860  campaigns[_campaignIndex].goal */\n      0x02\n      add\n      sload\n        /* \"dummy.sol\":1787:1796  campaigns */\n      0x00\n        /* \"dummy.sol\":1797:1811  _campaignIndex */\n      dup3\n        /* \"dummy.sol\":1787:1812  campaigns[_campaignIndex] */\n      dup2\n      sload\n      dup2\n      lt\n      tag_75\n      jumpi\n      tag_76\n      tag_59\n      jump\t// in\n    tag_76:\n    tag_75:\n      swap1\n      0x00\n      mstore\n      keccak256(0x00, 0x20)\n      swap1\n      0x05\n      mul\n      add\n        /* \"dummy.sol\":1787:1826  campaigns[_campaignIndex].currentAmount */\n      0x04\n      add\n      sload\n        /* \"dummy.sol\":1787:1860  campaigns[_campaignIndex].currentAmount >= campaigns[_campaignIndex].goal */\n      lt\n        /* \"dummy.sol\":1783:1931  if (campaigns[_campaignIndex].currentAmount >= campaigns[_campaignIndex].goal) {... */\n      tag_78\n      jumpi\n        /* \"dummy.sol\":1914:1919  false */\n      0x00\n        /* \"dummy.sol\":1877:1886  campaigns */\n      dup1\n        /* \"dummy.sol\":1887:1901  _campaignIndex */\n      dup3\n        /* \"dummy.sol\":1877:1902  campaigns[_campaignIndex] */\n      dup2\n      sload\n      dup2\n      lt\n      tag_79\n      jumpi\n      tag_80\n      tag_59\n      jump\t// in\n    tag_80:\n    tag_79:\n      swap1\n      0x00\n      mstore\n      keccak256(0x00, 0x20)\n      swap1\n      0x05\n      mul\n      add\n        /* \"dummy.sol\":1877:1911  campaigns[_campaignIndex].isActive */\n      0x03\n      add\n      0x14\n        /* \"dummy.sol\":1877:1919  campaigns[_campaignIndex].isActive = false */\n      0x0100\n      exp\n      dup2\n      sload\n      dup2\n      0xff\n      mul\n      not\n      and\n      swap1\n      dup4\n      iszero\n      iszero\n      mul\n      or\n      swap1\n      sstore\n      pop\n        /* \"dummy.sol\":1783:1931  if (campaigns[_campaignIndex].currentAmount >= campaigns[_campaignIndex].goal) {... */\n    tag_78:\n        /* \"dummy.sol\":1365:1938  function contribute(uint256 _campaignIndex) external payable {... */\n      pop\n      jump\t// out\n        /* \"dummy.sol\":1992:2673  function getCampaignDetails(uint256 _campaignIndex)... */\n    tag_26:\n        /* \"dummy.sol\":2108:2126  string memory name */\n      0x60\n        /* \"dummy.sol\":2141:2166  string memory description */\n      dup1\n        /* \"dummy.sol\":2181:2193  uint256 goal */\n      0x00\n        /* \"dummy.sol\":2208:2221  address owner */\n      dup1\n        /* \"dummy.sol\":2236:2249  bool isActive */\n      0x00\n        /* \"dummy.sol\":2264:2285  uint256 currentAmount */\n      dup1\n        /* \"dummy.sol\":2338:2347  campaigns */\n      0x00\n        /* \"dummy.sol\":2338:2354  campaigns.length */\n      dup1\n      sload\n      swap1\n      pop\n        /* \"dummy.sol\":2321:2335  _campaignIndex */\n      dup8\n        /* \"dummy.sol\":2321:2354  _campaignIndex < campaigns.length */\n      lt\n        /* \"dummy.sol\":2313:2381  require(_campaignIndex < campaigns.length, \"Invalid campaign index\") */\n      tag_83\n      jumpi\n      mload(0x40)\n      0x08c379a000000000000000000000000000000000000000000000000000000000\n      dup2\n      mstore\n      0x04\n      add\n      tag_84\n      swap1\n      tag_56\n      jump\t// in\n    tag_84:\n      mload(0x40)\n      dup1\n      swap2\n      sub\n      swap1\n      revert\n    tag_83:\n        /* \"dummy.sol\":2394:2419  Campaign storage campaign */\n      0x00\n        /* \"dummy.sol\":2422:2431  campaigns */\n      dup1\n        /* \"dummy.sol\":2432:2446  _campaignIndex */\n      dup9\n        /* \"dummy.sol\":2422:2447  campaigns[_campaignIndex] */\n      dup2\n      sload\n      dup2\n      lt\n      tag_85\n      jumpi\n      tag_86\n      tag_59\n      jump\t// in\n    tag_86:\n    tag_85:\n      swap1\n      0x00\n      mstore\n      keccak256(0x00, 0x20)\n      swap1\n      0x05\n      mul\n      add\n        /* \"dummy.sol\":2394:2447  Campaign storage campaign = campaigns[_campaignIndex] */\n      swap1\n      pop\n        /* \"dummy.sol\":2480:2488  campaign */\n      dup1\n        /* \"dummy.sol\":2480:2493  campaign.name */\n      0x00\n      add\n        /* \"dummy.sol\":2508:2516  campaign */\n      dup2\n        /* \"dummy.sol\":2508:2528  campaign.description */\n      0x01\n      add\n        /* \"dummy.sol\":2543:2551  campaign */\n      dup3\n        /* \"dummy.sol\":2543:2556  campaign.goal */\n      0x02\n      add\n      sload\n        /* \"dummy.sol\":2571:2579  campaign */\n      dup4\n        /* \"dummy.sol\":2571:2585  campaign.owner */\n      0x03\n      add\n      0x00\n      swap1\n      sload\n      swap1\n      0x0100\n      exp\n      swap1\n      div\n      0xffffffffffffffffffffffffffffffffffffffff\n      and\n        /* \"dummy.sol\":2600:2608  campaign */\n      dup5\n        /* \"dummy.sol\":2600:2617  campaign.isActive */\n      0x03\n      add\n      0x14\n      swap1\n      sload\n      swap1\n      0x0100\n      exp\n      swap1\n      div\n      0xff\n      and\n        /* \"dummy.sol\":2632:2640  campaign */\n      dup6\n        /* \"dummy.sol\":2632:2654  campaign.currentAmount */\n      0x04\n      add\n      sload\n        /* \"dummy.sol\":2458:2665  return (... */\n      dup6\n      dup1\n      sload\n      tag_88\n      swap1\n      tag_42\n      jump\t// in\n    tag_88:\n      dup1\n      0x1f\n      add\n      0x20\n      dup1\n      swap2\n      div\n      mul\n      0x20\n      add\n      mload(0x40)\n      swap1\n      dup2\n      add\n      0x40\n      mstore\n      dup1\n      swap3\n      swap2\n      swap1\n      dup2\n      dup2\n      mstore\n      0x20\n      add\n      dup3\n      dup1\n      sload\n      tag_89\n      swap1\n      tag_42\n      jump\t// in\n    tag_89:\n      dup1\n      iszero\n      tag_90\n      jumpi\n      dup1\n      0x1f\n      lt\n      tag_91\n      jumpi\n      0x0100\n      dup1\n      dup4\n      sload\n      div\n      mul\n      dup4\n      mstore\n      swap2\n      0x20\n      add\n      swap2\n      jump(tag_90)\n    tag_91:\n      dup3\n      add\n      swap2\n      swap1\n      0x00\n      mstore\n      keccak256(0x00, 0x20)\n      swap1\n    tag_92:\n      dup2\n      sload\n      dup2\n      mstore\n      swap1\n      0x01\n      add\n      swap1\n      0x20\n      add\n      dup1\n      dup4\n      gt\n      tag_92\n      jumpi\n      dup3\n      swap1\n      sub\n      0x1f\n      and\n      dup3\n      add\n      swap2\n    tag_90:\n      pop\n      pop\n      pop\n      pop\n      pop\n      swap6\n      pop\n      dup5\n      dup1\n      sload\n      tag_93\n      swap1\n      tag_42\n      jump\t// in\n    tag_93:\n      dup1\n      0x1f\n      add\n      0x20\n      dup1\n      swap2\n      div\n      mul\n      0x20\n      add\n      mload(0x40)\n      swap1\n      dup2\n      add\n      0x40\n      mstore\n      dup1\n      swap3\n      swap2\n      swap1\n      dup2\n      dup2\n      mstore\n      0x20\n      add\n      dup3\n      dup1\n      sload\n      tag_94\n      swap1\n      tag_42\n      jump\t// in\n    tag_94:\n      dup1\n      iszero\n      tag_95\n      jumpi\n      dup1\n      0x1f\n      lt\n      tag_96\n      jumpi\n      0x0100\n      dup1\n      dup4\n      sload\n      div\n      mul\n      dup4\n      mstore\n      swap2\n      0x20\n      add\n      swap2\n      jump(tag_95)\n    tag_96:\n      dup3\n      add\n      swap2\n      swap1\n      0x00\n      mstore\n      keccak256(0x00, 0x20)\n      swap1\n    tag_97:\n      dup2\n      sload\n      dup2\n      mstore\n      swap1\n      0x01\n      add\n      swap1\n      0x20\n      add\n      dup1\n      dup4\n      gt\n      tag_97\n      jumpi\n      dup3\n      swap1\n      sub\n      0x1f\n      and\n      dup3\n      add\n      swap2\n    tag_95:\n      pop\n      pop\n      pop\n      pop\n      pop\n      swap5\n      pop\n      swap7\n      pop\n      swap7\n      pop\n      swap7\n      pop\n      swap7\n      pop\n      swap7\n      pop\n      swap7\n      pop\n      pop\n        /* \"dummy.sol\":1992:2673  function getCampaignDetails(uint256 _campaignIndex)... */\n      swap2\n      swap4\n      swap6\n      pop\n      swap2\n      swap4\n      swap6\n      jump\t// out\n        /* \"dummy.sol\":2731:2949  function isCampaignActive(uint256 _campaignIndex) external view returns (bool) {... */\n    tag_31:\n        /* \"dummy.sol\":2804:2808  bool */\n      0x00\n        /* \"dummy.sol\":2846:2855  campaigns */\n      dup1\n        /* \"dummy.sol\":2846:2862  campaigns.length */\n      dup1\n      sload\n      swap1\n      pop\n        /* \"dummy.sol\":2829:2843  _campaignIndex */\n      dup3\n        /* \"dummy.sol\":2829:2862  _campaignIndex < campaigns.length */\n      lt\n        /* \"dummy.sol\":2821:2889  require(_campaignIndex < campaigns.length, \"Invalid campaign index\") */\n      tag_99\n      jumpi\n      mload(0x40)\n      0x08c379a000000000000000000000000000000000000000000000000000000000\n      dup2\n      mstore\n      0x04\n      add\n      tag_100\n      swap1\n      tag_56\n      jump\t// in\n    tag_100:\n      mload(0x40)\n      dup1\n      swap2\n      sub\n      swap1\n      revert\n    tag_99:\n        /* \"dummy.sol\":2907:2916  campaigns */\n      0x00\n        /* \"dummy.sol\":2917:2931  _campaignIndex */\n      dup3\n        /* \"dummy.sol\":2907:2932  campaigns[_campaignIndex] */\n      dup2\n      sload\n      dup2\n      lt\n      tag_101\n      jumpi\n      tag_102\n      tag_59\n      jump\t// in\n    tag_102:\n    tag_101:\n      swap1\n      0x00\n      mstore\n      keccak256(0x00, 0x20)\n      swap1\n      0x05\n      mul\n      add\n        /* \"dummy.sol\":2907:2941  campaigns[_campaignIndex].isActive */\n      0x03\n      add\n      0x14\n      swap1\n      sload\n      swap1\n      0x0100\n      exp\n      swap1\n      div\n      0xff\n      and\n        /* \"dummy.sol\":2900:2941  return campaigns[_campaignIndex].isActive */\n      swap1\n      pop\n        /* \"dummy.sol\":2731:2949  function isCampaignActive(uint256 _campaignIndex) external view returns (bool) {... */\n      swap2\n      swap1\n      pop\n      jump\t// out\n        /* \"dummy.sol\":792:1312  function createCampaign(string memory _name, string memory _description, uint256 _goal) external {... */\n    tag_38:\n        /* \"dummy.sol\":916:917  0 */\n      0x00\n        /* \"dummy.sol\":908:913  _goal */\n      dup2\n        /* \"dummy.sol\":908:917  _goal > 0 */\n      gt\n        /* \"dummy.sol\":900:949  require(_goal > 0, \"Goal must be greater than 0\") */\n      tag_105\n      jumpi\n      mload(0x40)\n      0x08c379a000000000000000000000000000000000000000000000000000000000\n      dup2\n      mstore\n      0x04\n      add\n      tag_106\n      swap1\n      tag_107\n      jump\t// in\n    tag_106:\n      mload(0x40)\n      dup1\n      swap2\n      sub\n      swap1\n      revert\n    tag_105:\n        /* \"dummy.sol\":962:989  Campaign memory newCampaign */\n      0x00\n        /* \"dummy.sol\":992:1197  Campaign({... */\n      mload(0x40)\n      dup1\n      0xc0\n      add\n      0x40\n      mstore\n      dup1\n        /* \"dummy.sol\":1022:1027  _name */\n      dup6\n        /* \"dummy.sol\":992:1197  Campaign({... */\n      dup2\n      mstore\n      0x20\n      add\n        /* \"dummy.sol\":1055:1067  _description */\n      dup5\n        /* \"dummy.sol\":992:1197  Campaign({... */\n      dup2\n      mstore\n      0x20\n      add\n        /* \"dummy.sol\":1088:1093  _goal */\n      dup4\n        /* \"dummy.sol\":992:1197  Campaign({... */\n      dup2\n      mstore\n      0x20\n      add\n        /* \"dummy.sol\":1115:1125  msg.sender */\n      caller\n        /* \"dummy.sol\":992:1197  Campaign({... */\n      0xffffffffffffffffffffffffffffffffffffffff\n      and\n      dup2\n      mstore\n      0x20\n      add\n        /* \"dummy.sol\":1150:1154  true */\n      0x01\n        /* \"dummy.sol\":992:1197  Campaign({... */\n      iszero\n      iszero\n      dup2\n      mstore\n      0x20\n      add\n        /* \"dummy.sol\":1184:1185  0 */\n      0x00\n        /* \"dummy.sol\":992:1197  Campaign({... */\n      dup2\n      mstore\n      pop\n        /* \"dummy.sol\":962:1197  Campaign memory newCampaign = Campaign({... */\n      swap1\n      pop\n        /* \"dummy.sol\":1210:1219  campaigns */\n      0x00\n        /* \"dummy.sol\":1225:1236  newCampaign */\n      dup2\n        /* \"dummy.sol\":1210:1237  campaigns.push(newCampaign) */\n      swap1\n      dup1\n      0x01\n      dup2\n      sload\n      add\n      dup1\n      dup3\n      sstore\n      dup1\n      swap2\n      pop\n      pop\n      0x01\n      swap1\n      sub\n      swap1\n      0x00\n      mstore\n      keccak256(0x00, 0x20)\n      swap1\n      0x05\n      mul\n      add\n      0x00\n      swap1\n      swap2\n      swap1\n      swap2\n      swap1\n      swap2\n      pop\n      0x00\n      dup3\n      add\n      mload\n      dup2\n      0x00\n      add\n      swap1\n      dup2\n      tag_109\n      swap2\n      swap1\n      tag_110\n      jump\t// in\n    tag_109:\n      pop\n      0x20\n      dup3\n      add\n      mload\n      dup2\n      0x01\n      add\n      swap1\n      dup2\n      tag_111\n      swap2\n      swap1\n      tag_110\n      jump\t// in\n    tag_111:\n      pop\n      0x40\n      dup3\n      add\n      mload\n      dup2\n      0x02\n      add\n      sstore\n      0x60\n      dup3\n      add\n      mload\n      dup2\n      0x03\n      add\n      exp(0x0100, 0x00)\n      dup2\n      sload\n      dup2\n      0xffffffffffffffffffffffffffffffffffffffff\n      mul\n      not\n      and\n      swap1\n      dup4\n      0xffffffffffffffffffffffffffffffffffffffff\n      and\n      mul\n      or\n      swap1\n      sstore\n      pop\n      0x80\n      dup3\n      add\n      mload\n      dup2\n      0x03\n      add\n      exp(0x0100, 0x14)\n      dup2\n      sload\n      dup2\n      0xff\n      mul\n      not\n      and\n      swap1\n      dup4\n      iszero\n      iszero\n      mul\n      or\n      swap1\n      sstore\n      pop\n      0xa0\n      dup3\n      add\n      mload\n      dup2\n      0x04\n      add\n      sstore\n      pop\n      pop\n        /* \"dummy.sol\":1293:1303  msg.sender */\n      caller\n        /* \"dummy.sol\":1255:1304  CampaignCreated(campaigns.length - 1, msg.sender) */\n      0xffffffffffffffffffffffffffffffffffffffff\n      and\n        /* \"dummy.sol\":1290:1291  1 */\n      0x01\n        /* \"dummy.sol\":1271:1280  campaigns */\n      0x00\n        /* \"dummy.sol\":1271:1287  campaigns.length */\n      dup1\n      sload\n      swap1\n      pop\n        /* \"dummy.sol\":1271:1291  campaigns.length - 1 */\n      tag_112\n      swap2\n      swap1\n      tag_113\n      jump\t// in\n    tag_112:\n        /* \"dummy.sol\":1255:1304  CampaignCreated(campaigns.length - 1, msg.sender) */\n      0x633109eec20320eded000fc1e2634211aa7e92ba3f5b15faf6dcdafca05094e4\n      mload(0x40)\n      mload(0x40)\n      dup1\n      swap2\n      sub\n      swap1\n      log3\n        /* \"dummy.sol\":889:1312  {... */\n      pop\n        /* \"dummy.sol\":792:1312  function createCampaign(string memory _name, string memory _description, uint256 _goal) external {... */\n      pop\n      pop\n      pop\n      jump\t// out\n        /* \"#utility.yul\":7:82   */\n    tag_114:\n        /* \"#utility.yul\":40:46   */\n      0x00\n        /* \"#utility.yul\":73:75   */\n      0x40\n        /* \"#utility.yul\":67:76   */\n      mload\n        /* \"#utility.yul\":57:76   */\n      swap1\n      pop\n        /* \"#utility.yul\":7:82   */\n      swap1\n      jump\t// out\n        /* \"#utility.yul\":88:205   */\n    tag_115:\n        /* \"#utility.yul\":197:198   */\n      0x00\n        /* \"#utility.yul\":194:195   */\n      dup1\n        /* \"#utility.yul\":187:199   */\n      revert\n        /* \"#utility.yul\":211:328   */\n    tag_116:\n        /* \"#utility.yul\":320:321   */\n      0x00\n        /* \"#utility.yul\":317:318   */\n      dup1\n        /* \"#utility.yul\":310:322   */\n      revert\n        /* \"#utility.yul\":334:411   */\n    tag_117:\n        /* \"#utility.yul\":371:378   */\n      0x00\n        /* \"#utility.yul\":400:405   */\n      dup2\n        /* \"#utility.yul\":389:405   */\n      swap1\n      pop\n        /* \"#utility.yul\":334:411   */\n      swap2\n      swap1\n      pop\n      jump\t// out\n        /* \"#utility.yul\":417:539   */\n    tag_118:\n        /* \"#utility.yul\":490:514   */\n      tag_171\n        /* \"#utility.yul\":508:513   */\n      dup2\n        /* \"#utility.yul\":490:514   */\n      tag_117\n      jump\t// in\n    tag_171:\n        /* \"#utility.yul\":483:488   */\n      dup2\n        /* \"#utility.yul\":480:515   */\n      eq\n        /* \"#utility.yul\":470:533   */\n      tag_172\n      jumpi\n        /* \"#utility.yul\":529:530   */\n      0x00\n        /* \"#utility.yul\":526:527   */\n      dup1\n        /* \"#utility.yul\":519:531   */\n      revert\n        /* \"#utility.yul\":470:533   */\n    tag_172:\n        /* \"#utility.yul\":417:539   */\n      pop\n      jump\t// out\n        /* \"#utility.yul\":545:684   */\n    tag_119:\n        /* \"#utility.yul\":591:596   */\n      0x00\n        /* \"#utility.yul\":629:635   */\n      dup2\n        /* \"#utility.yul\":616:636   */\n      calldataload\n        /* \"#utility.yul\":607:636   */\n      swap1\n      pop\n        /* \"#utility.yul\":645:678   */\n      tag_174\n        /* \"#utility.yul\":672:677   */\n      dup2\n        /* \"#utility.yul\":645:678   */\n      tag_118\n      jump\t// in\n    tag_174:\n        /* \"#utility.yul\":545:684   */\n      swap3\n      swap2\n      pop\n      pop\n      jump\t// out\n        /* \"#utility.yul\":690:1019   */\n    tag_11:\n        /* \"#utility.yul\":749:755   */\n      0x00\n        /* \"#utility.yul\":798:800   */\n      0x20\n        /* \"#utility.yul\":786:795   */\n      dup3\n        /* \"#utility.yul\":777:784   */\n      dup5\n        /* \"#utility.yul\":773:796   */\n      sub\n        /* \"#utility.yul\":769:801   */\n      slt\n        /* \"#utility.yul\":766:885   */\n      iszero\n      tag_176\n      jumpi\n        /* \"#utility.yul\":804:883   */\n      tag_177\n      tag_115\n      jump\t// in\n    tag_177:\n        /* \"#utility.yul\":766:885   */\n    tag_176:\n        /* \"#utility.yul\":924:925   */\n      0x00\n        /* \"#utility.yul\":949:1002   */\n      tag_178\n        /* \"#utility.yul\":994:1001   */\n      dup5\n        /* \"#utility.yul\":985:991   */\n      dup3\n        /* \"#utility.yul\":974:983   */\n      dup6\n        /* \"#utility.yul\":970:992   */\n      add\n        /* \"#utility.yul\":949:1002   */\n      tag_119\n      jump\t// in\n    tag_178:\n        /* \"#utility.yul\":939:1002   */\n      swap2\n      pop\n        /* \"#utility.yul\":895:1012   */\n      pop\n        /* \"#utility.yul\":690:1019   */\n      swap3\n      swap2\n      pop\n      pop\n      jump\t// out\n        /* \"#utility.yul\":1025:1124   */\n    tag_120:\n        /* \"#utility.yul\":1077:1083   */\n      0x00\n        /* \"#utility.yul\":1111:1116   */\n      dup2\n        /* \"#utility.yul\":1105:1117   */\n      mload\n        /* \"#utility.yul\":1095:1117   */\n      swap1\n      pop\n        /* \"#utility.yul\":1025:1124   */\n      swap2\n      swap1\n      pop\n      jump\t// out\n        /* \"#utility.yul\":1130:1299   */\n    tag_121:\n        /* \"#utility.yul\":1214:1225   */\n      0x00\n        /* \"#utility.yul\":1248:1254   */\n      dup3\n        /* \"#utility.yul\":1243:1246   */\n      dup3\n        /* \"#utility.yul\":1236:1255   */\n      mstore\n        /* \"#utility.yul\":1288:1292   */\n      0x20\n        /* \"#utility.yul\":1283:1286   */\n      dup3\n        /* \"#utility.yul\":1279:1293   */\n      add\n        /* \"#utility.yul\":1264:1293   */\n      swap1\n      pop\n        /* \"#utility.yul\":1130:1299   */\n      swap3\n      swap2\n      pop\n      pop\n      jump\t// out\n        /* \"#utility.yul\":1305:1551   */\n    tag_122:\n        /* \"#utility.yul\":1386:1387   */\n      0x00\n        /* \"#utility.yul\":1396:1509   */\n    tag_182:\n        /* \"#utility.yul\":1410:1416   */\n      dup4\n        /* \"#utility.yul\":1407:1408   */\n      dup2\n        /* \"#utility.yul\":1404:1417   */\n      lt\n        /* \"#utility.yul\":1396:1509   */\n      iszero\n      tag_184\n      jumpi\n        /* \"#utility.yul\":1495:1496   */\n      dup1\n        /* \"#utility.yul\":1490:1493   */\n      dup3\n        /* \"#utility.yul\":1486:1497   */\n      add\n        /* \"#utility.yul\":1480:1498   */\n      mload\n        /* \"#utility.yul\":1476:1477   */\n      dup2\n        /* \"#utility.yul\":1471:1474   */\n      dup5\n        /* \"#utility.yul\":1467:1478   */\n      add\n        /* \"#utility.yul\":1460:1499   */\n      mstore\n        /* \"#utility.yul\":1432:1434   */\n      0x20\n        /* \"#utility.yul\":1429:1430   */\n      dup2\n        /* \"#utility.yul\":1425:1435   */\n      add\n        /* \"#utility.yul\":1420:1435   */\n      swap1\n      pop\n        /* \"#utility.yul\":1396:1509   */\n      jump(tag_182)\n    tag_184:\n        /* \"#utility.yul\":1543:1544   */\n      0x00\n        /* \"#utility.yul\":1534:1540   */\n      dup5\n        /* \"#utility.yul\":1529:1532   */\n      dup5\n        /* \"#utility.yul\":1525:1541   */\n      add\n        /* \"#utility.yul\":1518:1545   */\n      mstore\n        /* \"#utility.yul\":1367:1551   */\n      pop\n        /* \"#utility.yul\":1305:1551   */\n      pop\n      pop\n      pop\n      jump\t// out\n        /* \"#utility.yul\":1557:1659   */\n    tag_123:\n        /* \"#utility.yul\":1598:1604   */\n      0x00\n        /* \"#utility.yul\":1649:1651   */\n      0x1f\n        /* \"#utility.yul\":1645:1652   */\n      not\n        /* \"#utility.yul\":1640:1642   */\n      0x1f\n        /* \"#utility.yul\":1633:1638   */\n      dup4\n        /* \"#utility.yul\":1629:1643   */\n      add\n        /* \"#utility.yul\":1625:1653   */\n      and\n        /* \"#utility.yul\":1615:1653   */\n      swap1\n      pop\n        /* \"#utility.yul\":1557:1659   */\n      swap2\n      swap1\n      pop\n      jump\t// out\n        /* \"#utility.yul\":1665:2042   */\n    tag_124:\n        /* \"#utility.yul\":1753:1756   */\n      0x00\n        /* \"#utility.yul\":1781:1820   */\n      tag_187\n        /* \"#utility.yul\":1814:1819   */\n      dup3\n        /* \"#utility.yul\":1781:1820   */\n      tag_120\n      jump\t// in\n    tag_187:\n        /* \"#utility.yul\":1836:1907   */\n      tag_188\n        /* \"#utility.yul\":1900:1906   */\n      dup2\n        /* \"#utility.yul\":1895:1898   */\n      dup6\n        /* \"#utility.yul\":1836:1907   */\n      tag_121\n      jump\t// in\n    tag_188:\n        /* \"#utility.yul\":1829:1907   */\n      swap4\n      pop\n        /* \"#utility.yul\":1916:1981   */\n      tag_189\n        /* \"#utility.yul\":1974:1980   */\n      dup2\n        /* \"#utility.yul\":1969:1972   */\n      dup6\n        /* \"#utility.yul\":1962:1966   */\n      0x20\n        /* \"#utility.yul\":1955:1960   */\n      dup7\n        /* \"#utility.yul\":1951:1967   */\n      add\n        /* \"#utility.yul\":1916:1981   */\n      tag_122\n      jump\t// in\n    tag_189:\n        /* \"#utility.yul\":2006:2035   */\n      tag_190\n        /* \"#utility.yul\":2028:2034   */\n      dup2\n        /* \"#utility.yul\":2006:2035   */\n      tag_123\n      jump\t// in\n    tag_190:\n        /* \"#utility.yul\":2001:2004   */\n      dup5\n        /* \"#utility.yul\":1997:2036   */\n      add\n        /* \"#utility.yul\":1990:2036   */\n      swap2\n      pop\n        /* \"#utility.yul\":1757:2042   */\n      pop\n        /* \"#utility.yul\":1665:2042   */\n      swap3\n      swap2\n      pop\n      pop\n      jump\t// out\n        /* \"#utility.yul\":2048:2166   */\n    tag_125:\n        /* \"#utility.yul\":2135:2159   */\n      tag_192\n        /* \"#utility.yul\":2153:2158   */\n      dup2\n        /* \"#utility.yul\":2135:2159   */\n      tag_117\n      jump\t// in\n    tag_192:\n        /* \"#utility.yul\":2130:2133   */\n      dup3\n        /* \"#utility.yul\":2123:2160   */\n      mstore\n        /* \"#utility.yul\":2048:2166   */\n      pop\n      pop\n      jump\t// out\n        /* \"#utility.yul\":2172:2298   */\n    tag_126:\n        /* \"#utility.yul\":2209:2216   */\n      0x00\n        /* \"#utility.yul\":2249:2291   */\n      0xffffffffffffffffffffffffffffffffffffffff\n        /* \"#utility.yul\":2242:2247   */\n      dup3\n        /* \"#utility.yul\":2238:2292   */\n      and\n        /* \"#utility.yul\":2227:2292   */\n      swap1\n      pop\n        /* \"#utility.yul\":2172:2298   */\n      swap2\n      swap1\n      pop\n      jump\t// out\n        /* \"#utility.yul\":2304:2400   */\n    tag_127:\n        /* \"#utility.yul\":2341:2348   */\n      0x00\n        /* \"#utility.yul\":2370:2394   */\n      tag_195\n        /* \"#utility.yul\":2388:2393   */\n      dup3\n        /* \"#utility.yul\":2370:2394   */\n      tag_126\n      jump\t// in\n    tag_195:\n        /* \"#utility.yul\":2359:2394   */\n      swap1\n      pop\n        /* \"#utility.yul\":2304:2400   */\n      swap2\n      swap1\n      pop\n      jump\t// out\n        /* \"#utility.yul\":2406:2524   */\n    tag_128:\n        /* \"#utility.yul\":2493:2517   */\n      tag_197\n        /* \"#utility.yul\":2511:2516   */\n      dup2\n        /* \"#utility.yul\":2493:2517   */\n      tag_127\n      jump\t// in\n    tag_197:\n        /* \"#utility.yul\":2488:2491   */\n      dup3\n        /* \"#utility.yul\":2481:2518   */\n      mstore\n        /* \"#utility.yul\":2406:2524   */\n      pop\n      pop\n      jump\t// out\n        /* \"#utility.yul\":2530:2620   */\n    tag_129:\n        /* \"#utility.yul\":2564:2571   */\n      0x00\n        /* \"#utility.yul\":2607:2612   */\n      dup2\n        /* \"#utility.yul\":2600:2613   */\n      iszero\n        /* \"#utility.yul\":2593:2614   */\n      iszero\n        /* \"#utility.yul\":2582:2614   */\n      swap1\n      pop\n        /* \"#utility.yul\":2530:2620   */\n      swap2\n      swap1\n      pop\n      jump\t// out\n        /* \"#utility.yul\":2626:2735   */\n    tag_130:\n        /* \"#utility.yul\":2707:2728   */\n      tag_200\n        /* \"#utility.yul\":2722:2727   */\n      dup2\n        /* \"#utility.yul\":2707:2728   */\n      tag_129\n      jump\t// in\n    tag_200:\n        /* \"#utility.yul\":2702:2705   */\n      dup3\n        /* \"#utility.yul\":2695:2729   */\n      mstore\n        /* \"#utility.yul\":2626:2735   */\n      pop\n      pop\n      jump\t// out\n        /* \"#utility.yul\":2741:3686   */\n    tag_14:\n        /* \"#utility.yul\":3008:3012   */\n      0x00\n        /* \"#utility.yul\":3046:3049   */\n      0xc0\n        /* \"#utility.yul\":3035:3044   */\n      dup3\n        /* \"#utility.yul\":3031:3050   */\n      add\n        /* \"#utility.yul\":3023:3050   */\n      swap1\n      pop\n        /* \"#utility.yul\":3096:3105   */\n      dup2\n        /* \"#utility.yul\":3090:3094   */\n      dup2\n        /* \"#utility.yul\":3086:3106   */\n      sub\n        /* \"#utility.yul\":3082:3083   */\n      0x00\n        /* \"#utility.yul\":3071:3080   */\n      dup4\n        /* \"#utility.yul\":3067:3084   */\n      add\n        /* \"#utility.yul\":3060:3107   */\n      mstore\n        /* \"#utility.yul\":3124:3202   */\n      tag_202\n        /* \"#utility.yul\":3197:3201   */\n      dup2\n        /* \"#utility.yul\":3188:3194   */\n      dup10\n        /* \"#utility.yul\":3124:3202   */\n      tag_124\n      jump\t// in\n    tag_202:\n        /* \"#utility.yul\":3116:3202   */\n      swap1\n      pop\n        /* \"#utility.yul\":3249:3258   */\n      dup2\n        /* \"#utility.yul\":3243:3247   */\n      dup2\n        /* \"#utility.yul\":3239:3259   */\n      sub\n        /* \"#utility.yul\":3234:3236   */\n      0x20\n        /* \"#utility.yul\":3223:3232   */\n      dup4\n        /* \"#utility.yul\":3219:3237   */\n      add\n        /* \"#utility.yul\":3212:3260   */\n      mstore\n        /* \"#utility.yul\":3277:3355   */\n      tag_203\n        /* \"#utility.yul\":3350:3354   */\n      dup2\n        /* \"#utility.yul\":3341:3347   */\n      dup9\n        /* \"#utility.yul\":3277:3355   */\n      tag_124\n      jump\t// in\n    tag_203:\n        /* \"#utility.yul\":3269:3355   */\n      swap1\n      pop\n        /* \"#utility.yul\":3365:3437   */\n      tag_204\n        /* \"#utility.yul\":3433:3435   */\n      0x40\n        /* \"#utility.yul\":3422:3431   */\n      dup4\n        /* \"#utility.yul\":3418:3436   */\n      add\n        /* \"#utility.yul\":3409:3415   */\n      dup8\n        /* \"#utility.yul\":3365:3437   */\n      tag_125\n      jump\t// in\n    tag_204:\n        /* \"#utility.yul\":3447:3519   */\n      tag_205\n        /* \"#utility.yul\":3515:3517   */\n      0x60\n        /* \"#utility.yul\":3504:3513   */\n      dup4\n        /* \"#utility.yul\":3500:3518   */\n      add\n        /* \"#utility.yul\":3491:3497   */\n      dup7\n        /* \"#utility.yul\":3447:3519   */\n      tag_128\n      jump\t// in\n    tag_205:\n        /* \"#utility.yul\":3529:3596   */\n      tag_206\n        /* \"#utility.yul\":3591:3594   */\n      0x80\n        /* \"#utility.yul\":3580:3589   */\n      dup4\n        /* \"#utility.yul\":3576:3595   */\n      add\n        /* \"#utility.yul\":3567:3573   */\n      dup6\n        /* \"#utility.yul\":3529:3596   */\n      tag_130\n      jump\t// in\n    tag_206:\n        /* \"#utility.yul\":3606:3679   */\n      tag_207\n        /* \"#utility.yul\":3674:3677   */\n      0xa0\n        /* \"#utility.yul\":3663:3672   */\n      dup4\n        /* \"#utility.yul\":3659:3678   */\n      add\n        /* \"#utility.yul\":3650:3656   */\n      dup5\n        /* \"#utility.yul\":3606:3679   */\n      tag_125\n      jump\t// in\n    tag_207:\n        /* \"#utility.yul\":2741:3686   */\n      swap8\n      swap7\n      pop\n      pop\n      pop\n      pop\n      pop\n      pop\n      pop\n      jump\t// out\n        /* \"#utility.yul\":3692:3914   */\n    tag_19:\n        /* \"#utility.yul\":3785:3789   */\n      0x00\n        /* \"#utility.yul\":3823:3825   */\n      0x20\n        /* \"#utility.yul\":3812:3821   */\n      dup3\n        /* \"#utility.yul\":3808:3826   */\n      add\n        /* \"#utility.yul\":3800:3826   */\n      swap1\n      pop\n        /* \"#utility.yul\":3836:3907   */\n      tag_209\n        /* \"#utility.yul\":3904:3905   */\n      0x00\n        /* \"#utility.yul\":3893:3902   */\n      dup4\n        /* \"#utility.yul\":3889:3906   */\n      add\n        /* \"#utility.yul\":3880:3886   */\n      dup5\n        /* \"#utility.yul\":3836:3907   */\n      tag_125\n      jump\t// in\n    tag_209:\n        /* \"#utility.yul\":3692:3914   */\n      swap3\n      swap2\n      pop\n      pop\n      jump\t// out\n        /* \"#utility.yul\":3920:4130   */\n    tag_33:\n        /* \"#utility.yul\":4007:4011   */\n      0x00\n        /* \"#utility.yul\":4045:4047   */\n      0x20\n        /* \"#utility.yul\":4034:4043   */\n      dup3\n        /* \"#utility.yul\":4030:4048   */\n      add\n        /* \"#utility.yul\":4022:4048   */\n      swap1\n      pop\n        /* \"#utility.yul\":4058:4123   */\n      tag_211\n        /* \"#utility.yul\":4120:4121   */\n      0x00\n        /* \"#utility.yul\":4109:4118   */\n      dup4\n        /* \"#utility.yul\":4105:4122   */\n      add\n        /* \"#utility.yul\":4096:4102   */\n      dup5\n        /* \"#utility.yul\":4058:4123   */\n      tag_130\n      jump\t// in\n    tag_211:\n        /* \"#utility.yul\":3920:4130   */\n      swap3\n      swap2\n      pop\n      pop\n      jump\t// out\n        /* \"#utility.yul\":4136:4253   */\n    tag_131:\n        /* \"#utility.yul\":4245:4246   */\n      0x00\n        /* \"#utility.yul\":4242:4243   */\n      dup1\n        /* \"#utility.yul\":4235:4247   */\n      revert\n        /* \"#utility.yul\":4259:4376   */\n    tag_132:\n        /* \"#utility.yul\":4368:4369   */\n      0x00\n        /* \"#utility.yul\":4365:4366   */\n      dup1\n        /* \"#utility.yul\":4358:4370   */\n      revert\n        /* \"#utility.yul\":4382:4562   */\n    tag_133:\n        /* \"#utility.yul\":4430:4507   */\n      0x4e487b7100000000000000000000000000000000000000000000000000000000\n        /* \"#utility.yul\":4427:4428   */\n      0x00\n        /* \"#utility.yul\":4420:4508   */\n      mstore\n        /* \"#utility.yul\":4527:4531   */\n      0x41\n        /* \"#utility.yul\":4524:4525   */\n      0x04\n        /* \"#utility.yul\":4517:4532   */\n      mstore\n        /* \"#utility.yul\":4551:4555   */\n      0x24\n        /* \"#utility.yul\":4548:4549   */\n      0x00\n        /* \"#utility.yul\":4541:4556   */\n      revert\n        /* \"#utility.yul\":4568:4849   */\n    tag_134:\n        /* \"#utility.yul\":4651:4678   */\n      tag_216\n        /* \"#utility.yul\":4673:4677   */\n      dup3\n        /* \"#utility.yul\":4651:4678   */\n      tag_123\n      jump\t// in\n    tag_216:\n        /* \"#utility.yul\":4643:4649   */\n      dup2\n        /* \"#utility.yul\":4639:4679   */\n      add\n        /* \"#utility.yul\":4781:4787   */\n      dup2\n        /* \"#utility.yul\":4769:4779   */\n      dup2\n        /* \"#utility.yul\":4766:4788   */\n      lt\n        /* \"#utility.yul\":4745:4763   */\n      0xffffffffffffffff\n        /* \"#utility.yul\":4733:4743   */\n      dup3\n        /* \"#utility.yul\":4730:4764   */\n      gt\n        /* \"#utility.yul\":4727:4789   */\n      or\n        /* \"#utility.yul\":4724:4812   */\n      iszero\n      tag_217\n      jumpi\n        /* \"#utility.yul\":4792:4810   */\n      tag_218\n      tag_133\n      jump\t// in\n    tag_218:\n        /* \"#utility.yul\":4724:4812   */\n    tag_217:\n        /* \"#utility.yul\":4832:4842   */\n      dup1\n        /* \"#utility.yul\":4828:4830   */\n      0x40\n        /* \"#utility.yul\":4821:4843   */\n      mstore\n        /* \"#utility.yul\":4611:4849   */\n      pop\n        /* \"#utility.yul\":4568:4849   */\n      pop\n      pop\n      jump\t// out\n        /* \"#utility.yul\":4855:4984   */\n    tag_135:\n        /* \"#utility.yul\":4889:4895   */\n      0x00\n        /* \"#utility.yul\":4916:4936   */\n      tag_220\n      tag_114\n      jump\t// in\n    tag_220:\n        /* \"#utility.yul\":4906:4936   */\n      swap1\n      pop\n        /* \"#utility.yul\":4945:4978   */\n      tag_221\n        /* \"#utility.yul\":4973:4977   */\n      dup3\n        /* \"#utility.yul\":4965:4971   */\n      dup3\n        /* \"#utility.yul\":4945:4978   */\n      tag_134\n      jump\t// in\n    tag_221:\n        /* \"#utility.yul\":4855:4984   */\n      swap2\n      swap1\n      pop\n      jump\t// out\n        /* \"#utility.yul\":4990:5298   */\n    tag_136:\n        /* \"#utility.yul\":5052:5056   */\n      0x00\n        /* \"#utility.yul\":5142:5160   */\n      0xffffffffffffffff\n        /* \"#utility.yul\":5134:5140   */\n      dup3\n        /* \"#utility.yul\":5131:5161   */\n      gt\n        /* \"#utility.yul\":5128:5184   */\n      iszero\n      tag_223\n      jumpi\n        /* \"#utility.yul\":5164:5182   */\n      tag_224\n      tag_133\n      jump\t// in\n    tag_224:\n        /* \"#utility.yul\":5128:5184   */\n    tag_223:\n        /* \"#utility.yul\":5202:5231   */\n      tag_225\n        /* \"#utility.yul\":5224:5230   */\n      dup3\n        /* \"#utility.yul\":5202:5231   */\n      tag_123\n      jump\t// in\n    tag_225:\n        /* \"#utility.yul\":5194:5231   */\n      swap1\n      pop\n        /* \"#utility.yul\":5286:5290   */\n      0x20\n        /* \"#utility.yul\":5280:5284   */\n      dup2\n        /* \"#utility.yul\":5276:5291   */\n      add\n        /* \"#utility.yul\":5268:5291   */\n      swap1\n      pop\n        /* \"#utility.yul\":4990:5298   */\n      swap2\n      swap1\n      pop\n      jump\t// out\n        /* \"#utility.yul\":5304:5450   */\n    tag_137:\n        /* \"#utility.yul\":5401:5407   */\n      dup3\n        /* \"#utility.yul\":5396:5399   */\n      dup2\n        /* \"#utility.yul\":5391:5394   */\n      dup4\n        /* \"#utility.yul\":5378:5408   */\n      calldatacopy\n        /* \"#utility.yul\":5442:5443   */\n      0x00\n        /* \"#utility.yul\":5433:5439   */\n      dup4\n        /* \"#utility.yul\":5428:5431   */\n      dup4\n        /* \"#utility.yul\":5424:5440   */\n      add\n        /* \"#utility.yul\":5417:5444   */\n      mstore\n        /* \"#utility.yul\":5304:5450   */\n      pop\n      pop\n      pop\n      jump\t// out\n        /* \"#utility.yul\":5456:5881   */\n    tag_138:\n        /* \"#utility.yul\":5534:5539   */\n      0x00\n        /* \"#utility.yul\":5559:5625   */\n      tag_228\n        /* \"#utility.yul\":5575:5624   */\n      tag_229\n        /* \"#utility.yul\":5617:5623   */\n      dup5\n        /* \"#utility.yul\":5575:5624   */\n      tag_136\n      jump\t// in\n    tag_229:\n        /* \"#utility.yul\":5559:5625   */\n      tag_135\n      jump\t// in\n    tag_228:\n        /* \"#utility.yul\":5550:5625   */\n      swap1\n      pop\n        /* \"#utility.yul\":5648:5654   */\n      dup3\n        /* \"#utility.yul\":5641:5646   */\n      dup2\n        /* \"#utility.yul\":5634:5655   */\n      mstore\n        /* \"#utility.yul\":5686:5690   */\n      0x20\n        /* \"#utility.yul\":5679:5684   */\n      dup2\n        /* \"#utility.yul\":5675:5691   */\n      add\n        /* \"#utility.yul\":5724:5727   */\n      dup5\n        /* \"#utility.yul\":5715:5721   */\n      dup5\n        /* \"#utility.yul\":5710:5713   */\n      dup5\n        /* \"#utility.yul\":5706:5722   */\n      add\n        /* \"#utility.yul\":5703:5728   */\n      gt\n        /* \"#utility.yul\":5700:5812   */\n      iszero\n      tag_230\n      jumpi\n        /* \"#utility.yul\":5731:5810   */\n      tag_231\n      tag_132\n      jump\t// in\n    tag_231:\n        /* \"#utility.yul\":5700:5812   */\n    tag_230:\n        /* \"#utility.yul\":5821:5875   */\n      tag_232\n        /* \"#utility.yul\":5868:5874   */\n      dup5\n        /* \"#utility.yul\":5863:5866   */\n      dup3\n        /* \"#utility.yul\":5858:5861   */\n      dup6\n        /* \"#utility.yul\":5821:5875   */\n      tag_137\n      jump\t// in\n    tag_232:\n        /* \"#utility.yul\":5540:5881   */\n      pop\n        /* \"#utility.yul\":5456:5881   */\n      swap4\n      swap3\n      pop\n      pop\n      pop\n      jump\t// out\n        /* \"#utility.yul\":5901:6241   */\n    tag_139:\n        /* \"#utility.yul\":5957:5962   */\n      0x00\n        /* \"#utility.yul\":6006:6009   */\n      dup3\n        /* \"#utility.yul\":5999:6003   */\n      0x1f\n        /* \"#utility.yul\":5991:5997   */\n      dup4\n        /* \"#utility.yul\":5987:6004   */\n      add\n        /* \"#utility.yul\":5983:6010   */\n      slt\n        /* \"#utility.yul\":5973:6095   */\n      tag_234\n      jumpi\n        /* \"#utility.yul\":6014:6093   */\n      tag_235\n      tag_131\n      jump\t// in\n    tag_235:\n        /* \"#utility.yul\":5973:6095   */\n    tag_234:\n        /* \"#utility.yul\":6131:6137   */\n      dup2\n        /* \"#utility.yul\":6118:6138   */\n      calldataload\n        /* \"#utility.yul\":6156:6235   */\n      tag_236\n        /* \"#utility.yul\":6231:6234   */\n      dup5\n        /* \"#utility.yul\":6223:6229   */\n      dup3\n        /* \"#utility.yul\":6216:6220   */\n      0x20\n        /* \"#utility.yul\":6208:6214   */\n      dup7\n        /* \"#utility.yul\":6204:6221   */\n      add\n        /* \"#utility.yul\":6156:6235   */\n      tag_138\n      jump\t// in\n    tag_236:\n        /* \"#utility.yul\":6147:6235   */\n      swap2\n      pop\n        /* \"#utility.yul\":5963:6241   */\n      pop\n        /* \"#utility.yul\":5901:6241   */\n      swap3\n      swap2\n      pop\n      pop\n      jump\t// out\n        /* \"#utility.yul\":6247:7226   */\n    tag_37:\n        /* \"#utility.yul\":6344:6350   */\n      0x00\n        /* \"#utility.yul\":6352:6358   */\n      dup1\n        /* \"#utility.yul\":6360:6366   */\n      0x00\n        /* \"#utility.yul\":6409:6411   */\n      0x60\n        /* \"#utility.yul\":6397:6406   */\n      dup5\n        /* \"#utility.yul\":6388:6395   */\n      dup7\n        /* \"#utility.yul\":6384:6407   */\n      sub\n        /* \"#utility.yul\":6380:6412   */\n      slt\n        /* \"#utility.yul\":6377:6496   */\n      iszero\n      tag_238\n      jumpi\n        /* \"#utility.yul\":6415:6494   */\n      tag_239\n      tag_115\n      jump\t// in\n    tag_239:\n        /* \"#utility.yul\":6377:6496   */\n    tag_238:\n        /* \"#utility.yul\":6563:6564   */\n      0x00\n        /* \"#utility.yul\":6552:6561   */\n      dup5\n        /* \"#utility.yul\":6548:6565   */\n      add\n        /* \"#utility.yul\":6535:6566   */\n      calldataload\n        /* \"#utility.yul\":6593:6611   */\n      0xffffffffffffffff\n        /* \"#utility.yul\":6585:6591   */\n      dup2\n        /* \"#utility.yul\":6582:6612   */\n      gt\n        /* \"#utility.yul\":6579:6696   */\n      iszero\n      tag_240\n      jumpi\n        /* \"#utility.yul\":6615:6694   */\n      tag_241\n      tag_116\n      jump\t// in\n    tag_241:\n        /* \"#utility.yul\":6579:6696   */\n    tag_240:\n        /* \"#utility.yul\":6720:6783   */\n      tag_242\n        /* \"#utility.yul\":6775:6782   */\n      dup7\n        /* \"#utility.yul\":6766:6772   */\n      dup3\n        /* \"#utility.yul\":6755:6764   */\n      dup8\n        /* \"#utility.yul\":6751:6773   */\n      add\n        /* \"#utility.yul\":6720:6783   */\n      tag_139\n      jump\t// in\n    tag_242:\n        /* \"#utility.yul\":6710:6783   */\n      swap4\n      pop\n        /* \"#utility.yul\":6506:6793   */\n      pop\n        /* \"#utility.yul\":6860:6862   */\n      0x20\n        /* \"#utility.yul\":6849:6858   */\n      dup5\n        /* \"#utility.yul\":6845:6863   */\n      add\n        /* \"#utility.yul\":6832:6864   */\n      calldataload\n        /* \"#utility.yul\":6891:6909   */\n      0xffffffffffffffff\n        /* \"#utility.yul\":6883:6889   */\n      dup2\n        /* \"#utility.yul\":6880:6910   */\n      gt\n        /* \"#utility.yul\":6877:6994   */\n      iszero\n      tag_243\n      jumpi\n        /* \"#utility.yul\":6913:6992   */\n      tag_244\n      tag_116\n      jump\t// in\n    tag_244:\n        /* \"#utility.yul\":6877:6994   */\n    tag_243:\n        /* \"#utility.yul\":7018:7081   */\n      tag_245\n        /* \"#utility.yul\":7073:7080   */\n      dup7\n        /* \"#utility.yul\":7064:7070   */\n      dup3\n        /* \"#utility.yul\":7053:7062   */\n      dup8\n        /* \"#utility.yul\":7049:7071   */\n      add\n        /* \"#utility.yul\":7018:7081   */\n      tag_139\n      jump\t// in\n    tag_245:\n        /* \"#utility.yul\":7008:7081   */\n      swap3\n      pop\n        /* \"#utility.yul\":6803:7091   */\n      pop\n        /* \"#utility.yul\":7130:7132   */\n      0x40\n        /* \"#utility.yul\":7156:7209   */\n      tag_246\n        /* \"#utility.yul\":7201:7208   */\n      dup7\n        /* \"#utility.yul\":7192:7198   */\n      dup3\n        /* \"#utility.yul\":7181:7190   */\n      dup8\n        /* \"#utility.yul\":7177:7199   */\n      add\n        /* \"#utility.yul\":7156:7209   */\n      tag_119\n      jump\t// in\n    tag_246:\n        /* \"#utility.yul\":7146:7209   */\n      swap2\n      pop\n        /* \"#utility.yul\":7101:7219   */\n      pop\n        /* \"#utility.yul\":6247:7226   */\n      swap3\n      pop\n      swap3\n      pop\n      swap3\n      jump\t// out\n        /* \"#utility.yul\":7232:7412   */\n    tag_140:\n        /* \"#utility.yul\":7280:7357   */\n      0x4e487b7100000000000000000000000000000000000000000000000000000000\n        /* \"#utility.yul\":7277:7278   */\n      0x00\n        /* \"#utility.yul\":7270:7358   */\n      mstore\n        /* \"#utility.yul\":7377:7381   */\n      0x22\n        /* \"#utility.yul\":7374:7375   */\n      0x04\n        /* \"#utility.yul\":7367:7382   */\n      mstore\n        /* \"#utility.yul\":7401:7405   */\n      0x24\n        /* \"#utility.yul\":7398:7399   */\n      0x00\n        /* \"#utility.yul\":7391:7406   */\n      revert\n        /* \"#utility.yul\":7418:7738   */\n    tag_42:\n        /* \"#utility.yul\":7462:7468   */\n      0x00\n        /* \"#utility.yul\":7499:7500   */\n      0x02\n        /* \"#utility.yul\":7493:7497   */\n      dup3\n        /* \"#utility.yul\":7489:7501   */\n      div\n        /* \"#utility.yul\":7479:7501   */\n      swap1\n      pop\n        /* \"#utility.yul\":7546:7547   */\n      0x01\n        /* \"#utility.yul\":7540:7544   */\n      dup3\n        /* \"#utility.yul\":7536:7548   */\n      and\n        /* \"#utility.yul\":7567:7585   */\n      dup1\n        /* \"#utility.yul\":7557:7638   */\n      tag_249\n      jumpi\n        /* \"#utility.yul\":7623:7627   */\n      0x7f\n        /* \"#utility.yul\":7615:7621   */\n      dup3\n        /* \"#utility.yul\":7611:7628   */\n      and\n        /* \"#utility.yul\":7601:7628   */\n      swap2\n      pop\n        /* \"#utility.yul\":7557:7638   */\n    tag_249:\n        /* \"#utility.yul\":7685:7687   */\n      0x20\n        /* \"#utility.yul\":7677:7683   */\n      dup3\n        /* \"#utility.yul\":7674:7688   */\n      lt\n        /* \"#utility.yul\":7654:7672   */\n      dup2\n        /* \"#utility.yul\":7651:7689   */\n      sub\n        /* \"#utility.yul\":7648:7732   */\n      tag_250\n      jumpi\n        /* \"#utility.yul\":7704:7722   */\n      tag_251\n      tag_140\n      jump\t// in\n    tag_251:\n        /* \"#utility.yul\":7648:7732   */\n    tag_250:\n        /* \"#utility.yul\":7469:7738   */\n      pop\n        /* \"#utility.yul\":7418:7738   */\n      swap2\n      swap1\n      pop\n      jump\t// out\n        /* \"#utility.yul\":7744:7916   */\n    tag_141:\n        /* \"#utility.yul\":7884:7908   */\n      0x496e76616c69642063616d706169676e20696e64657800000000000000000000\n        /* \"#utility.yul\":7880:7881   */\n      0x00\n        /* \"#utility.yul\":7872:7878   */\n      dup3\n        /* \"#utility.yul\":7868:7882   */\n      add\n        /* \"#utility.yul\":7861:7909   */\n      mstore\n        /* \"#utility.yul\":7744:7916   */\n      pop\n      jump\t// out\n        /* \"#utility.yul\":7922:8288   */\n    tag_142:\n        /* \"#utility.yul\":8064:8067   */\n      0x00\n        /* \"#utility.yul\":8085:8152   */\n      tag_254\n        /* \"#utility.yul\":8149:8151   */\n      0x16\n        /* \"#utility.yul\":8144:8147   */\n      dup4\n        /* \"#utility.yul\":8085:8152   */\n      tag_121\n      jump\t// in\n    tag_254:\n        /* \"#utility.yul\":8078:8152   */\n      swap2\n      pop\n        /* \"#utility.yul\":8161:8254   */\n      tag_255\n        /* \"#utility.yul\":8250:8253   */\n      dup3\n        /* \"#utility.yul\":8161:8254   */\n      tag_141\n      jump\t// in\n    tag_255:\n        /* \"#utility.yul\":8279:8281   */\n      0x20\n        /* \"#utility.yul\":8274:8277   */\n      dup3\n        /* \"#utility.yul\":8270:8282   */\n      add\n        /* \"#utility.yul\":8263:8282   */\n      swap1\n      pop\n        /* \"#utility.yul\":7922:8288   */\n      swap2\n      swap1\n      pop\n      jump\t// out\n        /* \"#utility.yul\":8294:8713   */\n    tag_56:\n        /* \"#utility.yul\":8460:8464   */\n      0x00\n        /* \"#utility.yul\":8498:8500   */\n      0x20\n        /* \"#utility.yul\":8487:8496   */\n      dup3\n        /* \"#utility.yul\":8483:8501   */\n      add\n        /* \"#utility.yul\":8475:8501   */\n      swap1\n      pop\n        /* \"#utility.yul\":8547:8556   */\n      dup2\n        /* \"#utility.yul\":8541:8545   */\n      dup2\n        /* \"#utility.yul\":8537:8557   */\n      sub\n        /* \"#utility.yul\":8533:8534   */\n      0x00\n        /* \"#utility.yul\":8522:8531   */\n      dup4\n        /* \"#utility.yul\":8518:8535   */\n      add\n        /* \"#utility.yul\":8511:8558   */\n      mstore\n        /* \"#utility.yul\":8575:8706   */\n      tag_257\n        /* \"#utility.yul\":8701:8705   */\n      dup2\n        /* \"#utility.yul\":8575:8706   */\n      tag_142\n      jump\t// in\n    tag_257:\n        /* \"#utility.yul\":8567:8706   */\n      swap1\n      pop\n        /* \"#utility.yul\":8294:8713   */\n      swap2\n      swap1\n      pop\n      jump\t// out\n        /* \"#utility.yul\":8719:8899   */\n    tag_59:\n        /* \"#utility.yul\":8767:8844   */\n      0x4e487b7100000000000000000000000000000000000000000000000000000000\n        /* \"#utility.yul\":8764:8765   */\n      0x00\n        /* \"#utility.yul\":8757:8845   */\n      mstore\n        /* \"#utility.yul\":8864:8868   */\n      0x32\n        /* \"#utility.yul\":8861:8862   */\n      0x04\n        /* \"#utility.yul\":8854:8869   */\n      mstore\n        /* \"#utility.yul\":8888:8892   */\n      0x24\n        /* \"#utility.yul\":8885:8886   */\n      0x00\n        /* \"#utility.yul\":8878:8893   */\n      revert\n        /* \"#utility.yul\":8905:9077   */\n    tag_143:\n        /* \"#utility.yul\":9045:9069   */\n      0x43616d706169676e206973206e6f742061637469766500000000000000000000\n        /* \"#utility.yul\":9041:9042   */\n      0x00\n        /* \"#utility.yul\":9033:9039   */\n      dup3\n        /* \"#utility.yul\":9029:9043   */\n      add\n        /* \"#utility.yul\":9022:9070   */\n      mstore\n        /* \"#utility.yul\":8905:9077   */\n      pop\n      jump\t// out\n        /* \"#utility.yul\":9083:9449   */\n    tag_144:\n        /* \"#utility.yul\":9225:9228   */\n      0x00\n        /* \"#utility.yul\":9246:9313   */\n      tag_261\n        /* \"#utility.yul\":9310:9312   */\n      0x16\n        /* \"#utility.yul\":9305:9308   */\n      dup4\n        /* \"#utility.yul\":9246:9313   */\n      tag_121\n      jump\t// in\n    tag_261:\n        /* \"#utility.yul\":9239:9313   */\n      swap2\n      pop\n        /* \"#utility.yul\":9322:9415   */\n      tag_262\n        /* \"#utility.yul\":9411:9414   */\n      dup3\n        /* \"#utility.yul\":9322:9415   */\n      tag_143\n      jump\t// in\n    tag_262:\n        /* \"#utility.yul\":9440:9442   */\n      0x20\n        /* \"#utility.yul\":9435:9438   */\n      dup3\n        /* \"#utility.yul\":9431:9443   */\n      add\n        /* \"#utility.yul\":9424:9443   */\n      swap1\n      pop\n        /* \"#utility.yul\":9083:9449   */\n      swap2\n      swap1\n      pop\n      jump\t// out\n        /* \"#utility.yul\":9455:9874   */\n    tag_63:\n        /* \"#utility.yul\":9621:9625   */\n      0x00\n        /* \"#utility.yul\":9659:9661   */\n      0x20\n        /* \"#utility.yul\":9648:9657   */\n      dup3\n        /* \"#utility.yul\":9644:9662   */\n      add\n        /* \"#utility.yul\":9636:9662   */\n      swap1\n      pop\n        /* \"#utility.yul\":9708:9717   */\n      dup2\n        /* \"#utility.yul\":9702:9706   */\n      dup2\n        /* \"#utility.yul\":9698:9718   */\n      sub\n        /* \"#utility.yul\":9694:9695   */\n      0x00\n        /* \"#utility.yul\":9683:9692   */\n      dup4\n        /* \"#utility.yul\":9679:9696   */\n      add\n        /* \"#utility.yul\":9672:9719   */\n      mstore\n        /* \"#utility.yul\":9736:9867   */\n      tag_264\n        /* \"#utility.yul\":9862:9866   */\n      dup2\n        /* \"#utility.yul\":9736:9867   */\n      tag_144\n      jump\t// in\n    tag_264:\n        /* \"#utility.yul\":9728:9867   */\n      swap1\n      pop\n        /* \"#utility.yul\":9455:9874   */\n      swap2\n      swap1\n      pop\n      jump\t// out\n        /* \"#utility.yul\":9880:10109   */\n    tag_145:\n        /* \"#utility.yul\":10020:10054   */\n      0x436f6e747269627574696f6e20616d6f756e74206d7573742062652067726561\n        /* \"#utility.yul\":10016:10017   */\n      0x00\n        /* \"#utility.yul\":10008:10014   */\n      dup3\n        /* \"#utility.yul\":10004:10018   */\n      add\n        /* \"#utility.yul\":9997:10055   */\n      mstore\n        /* \"#utility.yul\":10089:10101   */\n      0x746572207468616e203000000000000000000000000000000000000000000000\n        /* \"#utility.yul\":10084:10086   */\n      0x20\n        /* \"#utility.yul\":10076:10082   */\n      dup3\n        /* \"#utility.yul\":10072:10087   */\n      add\n        /* \"#utility.yul\":10065:10102   */\n      mstore\n        /* \"#utility.yul\":9880:10109   */\n      pop\n      jump\t// out\n        /* \"#utility.yul\":10115:10481   */\n    tag_146:\n        /* \"#utility.yul\":10257:10260   */\n      0x00\n        /* \"#utility.yul\":10278:10345   */\n      tag_267\n        /* \"#utility.yul\":10342:10344   */\n      0x2a\n        /* \"#utility.yul\":10337:10340   */\n      dup4\n        /* \"#utility.yul\":10278:10345   */\n      tag_121\n      jump\t// in\n    tag_267:\n        /* \"#utility.yul\":10271:10345   */\n      swap2\n      pop\n        /* \"#utility.yul\":10354:10447   */\n      tag_268\n        /* \"#utility.yul\":10443:10446   */\n      dup3\n        /* \"#utility.yul\":10354:10447   */\n      tag_145\n      jump\t// in\n    tag_268:\n        /* \"#utility.yul\":10472:10474   */\n      0x40\n        /* \"#utility.yul\":10467:10470   */\n      dup3\n        /* \"#utility.yul\":10463:10475   */\n      add\n        /* \"#utility.yul\":10456:10475   */\n      swap1\n      pop\n        /* \"#utility.yul\":10115:10481   */\n      swap2\n      swap1\n      pop\n      jump\t// out\n        /* \"#utility.yul\":10487:10906   */\n    tag_66:\n        /* \"#utility.yul\":10653:10657   */\n      0x00\n        /* \"#utility.yul\":10691:10693   */\n      0x20\n        /* \"#utility.yul\":10680:10689   */\n      dup3\n        /* \"#utility.yul\":10676:10694   */\n      add\n        /* \"#utility.yul\":10668:10694   */\n      swap1\n      pop\n        /* \"#utility.yul\":10740:10749   */\n      dup2\n        /* \"#utility.yul\":10734:10738   */\n      dup2\n        /* \"#utility.yul\":10730:10750   */\n      sub\n        /* \"#utility.yul\":10726:10727   */\n      0x00\n        /* \"#utility.yul\":10715:10724   */\n      dup4\n        /* \"#utility.yul\":10711:10728   */\n      add\n        /* \"#utility.yul\":10704:10751   */\n      mstore\n        /* \"#utility.yul\":10768:10899   */\n      tag_270\n        /* \"#utility.yul\":10894:10898   */\n      dup2\n        /* \"#utility.yul\":10768:10899   */\n      tag_146\n      jump\t// in\n    tag_270:\n        /* \"#utility.yul\":10760:10899   */\n      swap1\n      pop\n        /* \"#utility.yul\":10487:10906   */\n      swap2\n      swap1\n      pop\n      jump\t// out\n        /* \"#utility.yul\":10912:11092   */\n    tag_147:\n        /* \"#utility.yul\":10960:11037   */\n      0x4e487b7100000000000000000000000000000000000000000000000000000000\n        /* \"#utility.yul\":10957:10958   */\n      0x00\n        /* \"#utility.yul\":10950:11038   */\n      mstore\n        /* \"#utility.yul\":11057:11061   */\n      0x11\n        /* \"#utility.yul\":11054:11055   */\n      0x04\n        /* \"#utility.yul\":11047:11062   */\n      mstore\n        /* \"#utility.yul\":11081:11085   */\n      0x24\n        /* \"#utility.yul\":11078:11079   */\n      0x00\n        /* \"#utility.yul\":11071:11086   */\n      revert\n        /* \"#utility.yul\":11098:11289   */\n    tag_71:\n        /* \"#utility.yul\":11138:11141   */\n      0x00\n        /* \"#utility.yul\":11157:11177   */\n      tag_273\n        /* \"#utility.yul\":11175:11176   */\n      dup3\n        /* \"#utility.yul\":11157:11177   */\n      tag_117\n      jump\t// in\n    tag_273:\n        /* \"#utility.yul\":11152:11177   */\n      swap2\n      pop\n        /* \"#utility.yul\":11191:11211   */\n      tag_274\n        /* \"#utility.yul\":11209:11210   */\n      dup4\n        /* \"#utility.yul\":11191:11211   */\n      tag_117\n      jump\t// in\n    tag_274:\n        /* \"#utility.yul\":11186:11211   */\n      swap3\n      pop\n        /* \"#utility.yul\":11234:11235   */\n      dup3\n        /* \"#utility.yul\":11231:11232   */\n      dup3\n        /* \"#utility.yul\":11227:11236   */\n      add\n        /* \"#utility.yul\":11220:11236   */\n      swap1\n      pop\n        /* \"#utility.yul\":11255:11258   */\n      dup1\n        /* \"#utility.yul\":11252:11253   */\n      dup3\n        /* \"#utility.yul\":11249:11259   */\n      gt\n        /* \"#utility.yul\":11246:11282   */\n      iszero\n      tag_275\n      jumpi\n        /* \"#utility.yul\":11262:11280   */\n      tag_276\n      tag_147\n      jump\t// in\n    tag_276:\n        /* \"#utility.yul\":11246:11282   */\n    tag_275:\n        /* \"#utility.yul\":11098:11289   */\n      swap3\n      swap2\n      pop\n      pop\n      jump\t// out\n        /* \"#utility.yul\":11295:11472   */\n    tag_148:\n        /* \"#utility.yul\":11435:11464   */\n      0x476f616c206d7573742062652067726561746572207468616e20300000000000\n        /* \"#utility.yul\":11431:11432   */\n      0x00\n        /* \"#utility.yul\":11423:11429   */\n      dup3\n        /* \"#utility.yul\":11419:11433   */\n      add\n        /* \"#utility.yul\":11412:11465   */\n      mstore\n        /* \"#utility.yul\":11295:11472   */\n      pop\n      jump\t// out\n        /* \"#utility.yul\":11478:11844   */\n    tag_149:\n        /* \"#utility.yul\":11620:11623   */\n      0x00\n        /* \"#utility.yul\":11641:11708   */\n      tag_279\n        /* \"#utility.yul\":11705:11707   */\n      0x1b\n        /* \"#utility.yul\":11700:11703   */\n      dup4\n        /* \"#utility.yul\":11641:11708   */\n      tag_121\n      jump\t// in\n    tag_279:\n        /* \"#utility.yul\":11634:11708   */\n      swap2\n      pop\n        /* \"#utility.yul\":11717:11810   */\n      tag_280\n        /* \"#utility.yul\":11806:11809   */\n      dup3\n        /* \"#utility.yul\":11717:11810   */\n      tag_148\n      jump\t// in\n    tag_280:\n        /* \"#utility.yul\":11835:11837   */\n      0x20\n        /* \"#utility.yul\":11830:11833   */\n      dup3\n        /* \"#utility.yul\":11826:11838   */\n      add\n        /* \"#utility.yul\":11819:11838   */\n      swap1\n      pop\n        /* \"#utility.yul\":11478:11844   */\n      swap2\n      swap1\n      pop\n      jump\t// out\n        /* \"#utility.yul\":11850:12269   */\n    tag_107:\n        /* \"#utility.yul\":12016:12020   */\n      0x00\n        /* \"#utility.yul\":12054:12056   */\n      0x20\n        /* \"#utility.yul\":12043:12052   */\n      dup3\n        /* \"#utility.yul\":12039:12057   */\n      add\n        /* \"#utility.yul\":12031:12057   */\n      swap1\n      pop\n        /* \"#utility.yul\":12103:12112   */\n      dup2\n        /* \"#utility.yul\":12097:12101   */\n      dup2\n        /* \"#utility.yul\":12093:12113   */\n      sub\n        /* \"#utility.yul\":12089:12090   */\n      0x00\n        /* \"#utility.yul\":12078:12087   */\n      dup4\n        /* \"#utility.yul\":12074:12091   */\n      add\n        /* \"#utility.yul\":12067:12114   */\n      mstore\n        /* \"#utility.yul\":12131:12262   */\n      tag_282\n        /* \"#utility.yul\":12257:12261   */\n      dup2\n        /* \"#utility.yul\":12131:12262   */\n      tag_149\n      jump\t// in\n    tag_282:\n        /* \"#utility.yul\":12123:12262   */\n      swap1\n      pop\n        /* \"#utility.yul\":11850:12269   */\n      swap2\n      swap1\n      pop\n      jump\t// out\n        /* \"#utility.yul\":12275:12416   */\n    tag_150:\n        /* \"#utility.yul\":12324:12328   */\n      0x00\n        /* \"#utility.yul\":12347:12350   */\n      dup2\n        /* \"#utility.yul\":12339:12350   */\n      swap1\n      pop\n        /* \"#utility.yul\":12370:12373   */\n      dup2\n        /* \"#utility.yul\":12367:12368   */\n      0x00\n        /* \"#utility.yul\":12360:12374   */\n      mstore\n        /* \"#utility.yul\":12404:12408   */\n      0x20\n        /* \"#utility.yul\":12401:12402   */\n      0x00\n        /* \"#utility.yul\":12391:12409   */\n      keccak256\n        /* \"#utility.yul\":12383:12409   */\n      swap1\n      pop\n        /* \"#utility.yul\":12275:12416   */\n      swap2\n      swap1\n      pop\n      jump\t// out\n        /* \"#utility.yul\":12422:12515   */\n    tag_151:\n        /* \"#utility.yul\":12459:12465   */\n      0x00\n        /* \"#utility.yul\":12506:12508   */\n      0x20\n        /* \"#utility.yul\":12501:12503   */\n      0x1f\n        /* \"#utility.yul\":12494:12499   */\n      dup4\n        /* \"#utility.yul\":12490:12504   */\n      add\n        /* \"#utility.yul\":12486:12509   */\n      div\n        /* \"#utility.yul\":12476:12509   */\n      swap1\n      pop\n        /* \"#utility.yul\":12422:12515   */\n      swap2\n      swap1\n      pop\n      jump\t// out\n        /* \"#utility.yul\":12521:12628   */\n    tag_152:\n        /* \"#utility.yul\":12565:12573   */\n      0x00\n        /* \"#utility.yul\":12615:12620   */\n      dup3\n        /* \"#utility.yul\":12609:12613   */\n      dup3\n        /* \"#utility.yul\":12605:12621   */\n      shl\n        /* \"#utility.yul\":12584:12621   */\n      swap1\n      pop\n        /* \"#utility.yul\":12521:12628   */\n      swap3\n      swap2\n      pop\n      pop\n      jump\t// out\n        /* \"#utility.yul\":12634:13027   */\n    tag_153:\n        /* \"#utility.yul\":12703:12709   */\n      0x00\n        /* \"#utility.yul\":12753:12754   */\n      0x08\n        /* \"#utility.yul\":12741:12751   */\n      dup4\n        /* \"#utility.yul\":12737:12755   */\n      mul\n        /* \"#utility.yul\":12776:12873   */\n      tag_287\n        /* \"#utility.yul\":12806:12872   */\n      0xffffffffffffffffffffffffffffffffffffffffffffffffffffffffffffffff\n        /* \"#utility.yul\":12795:12804   */\n      dup3\n        /* \"#utility.yul\":12776:12873   */\n      tag_152\n      jump\t// in\n    tag_287:\n        /* \"#utility.yul\":12894:12933   */\n      tag_288\n        /* \"#utility.yul\":12924:12932   */\n      dup7\n        /* \"#utility.yul\":12913:12922   */\n      dup4\n        /* \"#utility.yul\":12894:12933   */\n      tag_152\n      jump\t// in\n    tag_288:\n        /* \"#utility.yul\":12882:12933   */\n      swap6\n      pop\n        /* \"#utility.yul\":12966:12970   */\n      dup1\n        /* \"#utility.yul\":12962:12971   */\n      not\n        /* \"#utility.yul\":12955:12960   */\n      dup5\n        /* \"#utility.yul\":12951:12972   */\n      and\n        /* \"#utility.yul\":12942:12972   */\n      swap4\n      pop\n        /* \"#utility.yul\":13015:13019   */\n      dup1\n        /* \"#utility.yul\":13005:13013   */\n      dup7\n        /* \"#utility.yul\":13001:13020   */\n      and\n        /* \"#utility.yul\":12994:12999   */\n      dup5\n        /* \"#utility.yul\":12991:13021   */\n      or\n        /* \"#utility.yul\":12981:13021   */\n      swap3\n      pop\n        /* \"#utility.yul\":12710:13027   */\n      pop\n      pop\n        /* \"#utility.yul\":12634:13027   */\n      swap4\n      swap3\n      pop\n      pop\n      pop\n      jump\t// out\n        /* \"#utility.yul\":13033:13093   */\n    tag_154:\n        /* \"#utility.yul\":13061:13064   */\n      0x00\n        /* \"#utility.yul\":13082:13087   */\n      dup2\n        /* \"#utility.yul\":13075:13087   */\n      swap1\n      pop\n        /* \"#utility.yul\":13033:13093   */\n      swap2\n      swap1\n      pop\n      jump\t// out\n        /* \"#utility.yul\":13099:13241   */\n    tag_155:\n        /* \"#utility.yul\":13149:13158   */\n      0x00\n        /* \"#utility.yul\":13182:13235   */\n      tag_291\n        /* \"#utility.yul\":13200:13234   */\n      tag_292\n        /* \"#utility.yul\":13209:13233   */\n      tag_293\n        /* \"#utility.yul\":13227:13232   */\n      dup5\n        /* \"#utility.yul\":13209:13233   */\n      tag_117\n      jump\t// in\n    tag_293:\n        /* \"#utility.yul\":13200:13234   */\n      tag_154\n      jump\t// in\n    tag_292:\n        /* \"#utility.yul\":13182:13235   */\n      tag_117\n      jump\t// in\n    tag_291:\n        /* \"#utility.yul\":13169:13235   */\n      swap1\n      pop\n        /* \"#utility.yul\":13099:13241   */\n      swap2\n      swap1\n      pop\n      jump\t// out\n        /* \"#utility.yul\":13247:13322   */\n    tag_156:\n        /* \"#utility.yul\":13290:13293   */\n      0x00\n        /* \"#utility.yul\":13311:13316   */\n      dup2\n        /* \"#utility.yul\":13304:13316   */\n      swap1\n      pop\n        /* \"#utility.yul\":13247:13322   */\n      swap2\n      swap1\n      pop\n      jump\t// out\n        /* \"#utility.yul\":13328:13597   */\n    tag_157:\n        /* \"#utility.yul\":13438:13477   */\n      tag_296\n        /* \"#utility.yul\":13469:13476   */\n      dup4\n        /* \"#utility.yul\":13438:13477   */\n      tag_155\n      jump\t// in\n    tag_296:\n        /* \"#utility.yul\":13499:13590   */\n      tag_297\n        /* \"#utility.yul\":13548:13589   */\n      tag_298\n        /* \"#utility.yul\":13572:13588   */\n      dup3\n        /* \"#utility.yul\":13548:13589   */\n      tag_156\n      jump\t// in\n    tag_298:\n        /* \"#utility.yul\":13540:13546   */\n      dup5\n        /* \"#utility.yul\":13533:13537   */\n      dup5\n        /* \"#utility.yul\":13527:13538   */\n      sload\n        /* \"#utility.yul\":13499:13590   */\n      tag_153\n      jump\t// in\n    tag_297:\n        /* \"#utility.yul\":13493:13497   */\n      dup3\n        /* \"#utility.yul\":13486:13591   */\n      sstore\n        /* \"#utility.yul\":13404:13597   */\n      pop\n        /* \"#utility.yul\":13328:13597   */\n      pop\n      pop\n      pop\n      jump\t// out\n        /* \"#utility.yul\":13603:13676   */\n    tag_158:\n        /* \"#utility.yul\":13648:13651   */\n      0x00\n        /* \"#utility.yul\":13603:13676   */\n      swap1\n      jump\t// out\n        /* \"#utility.yul\":13682:13871   */\n    tag_159:\n        /* \"#utility.yul\":13759:13791   */\n      tag_301\n      tag_158\n      jump\t// in\n    tag_301:\n        /* \"#utility.yul\":13800:13865   */\n      tag_302\n        /* \"#utility.yul\":13858:13864   */\n      dup2\n        /* \"#utility.yul\":13850:13856   */\n      dup5\n        /* \"#utility.yul\":13844:13848   */\n      dup5\n        /* \"#utility.yul\":13800:13865   */\n      tag_157\n      jump\t// in\n    tag_302:\n        /* \"#utility.yul\":13735:13871   */\n      pop\n        /* \"#utility.yul\":13682:13871   */\n      pop\n      pop\n      jump\t// out\n        /* \"#utility.yul\":13877:14063   */\n    tag_160:\n        /* \"#utility.yul\":13937:14057   */\n    tag_304:\n        /* \"#utility.yul\":13954:13957   */\n      dup2\n        /* \"#utility.yul\":13947:13952   */\n      dup2\n        /* \"#utility.yul\":13944:13958   */\n      lt\n        /* \"#utility.yul\":13937:14057   */\n      iszero\n      tag_306\n      jumpi\n        /* \"#utility.yul\":14008:14047   */\n      tag_307\n        /* \"#utility.yul\":14045:14046   */\n      0x00\n        /* \"#utility.yul\":14038:14043   */\n      dup3\n        /* \"#utility.yul\":14008:14047   */\n      tag_159\n      jump\t// in\n    tag_307:\n        /* \"#utility.yul\":13981:13982   */\n      0x01\n        /* \"#utility.yul\":13974:13979   */\n      dup2\n        /* \"#utility.yul\":13970:13983   */\n      add\n        /* \"#utility.yul\":13961:13983   */\n      swap1\n      pop\n        /* \"#utility.yul\":13937:14057   */\n      jump(tag_304)\n    tag_306:\n        /* \"#utility.yul\":13877:14063   */\n      pop\n      pop\n      jump\t// out\n        /* \"#utility.yul\":14069:14612   */\n    tag_161:\n        /* \"#utility.yul\":14170:14172   */\n      0x1f\n        /* \"#utility.yul\":14165:14168   */\n      dup3\n        /* \"#utility.yul\":14162:14173   */\n      gt\n        /* \"#utility.yul\":14159:14605   */\n      iszero\n      tag_309\n      jumpi\n        /* \"#utility.yul\":14204:14242   */\n      tag_310\n        /* \"#utility.yul\":14236:14241   */\n      dup2\n        /* \"#utility.yul\":14204:14242   */\n      tag_150\n      jump\t// in\n    tag_310:\n        /* \"#utility.yul\":14288:14317   */\n      tag_311\n        /* \"#utility.yul\":14306:14316   */\n      dup5\n        /* \"#utility.yul\":14288:14317   */\n      tag_151\n      jump\t// in\n    tag_311:\n        /* \"#utility.yul\":14278:14286   */\n      dup2\n        /* \"#utility.yul\":14274:14318   */\n      add\n        /* \"#utility.yul\":14471:14473   */\n      0x20\n        /* \"#utility.yul\":14459:14469   */\n      dup6\n        /* \"#utility.yul\":14456:14474   */\n      lt\n        /* \"#utility.yul\":14453:14502   */\n      iszero\n      tag_312\n      jumpi\n        /* \"#utility.yul\":14492:14500   */\n      dup2\n        /* \"#utility.yul\":14477:14500   */\n      swap1\n      pop\n        /* \"#utility.yul\":14453:14502   */\n    tag_312:\n        /* \"#utility.yul\":14515:14595   */\n      tag_313\n        /* \"#utility.yul\":14571:14593   */\n      tag_314\n        /* \"#utility.yul\":14589:14592   */\n      dup6\n        /* \"#utility.yul\":14571:14593   */\n      tag_151\n      jump\t// in\n    tag_314:\n        /* \"#utility.yul\":14561:14569   */\n      dup4\n        /* \"#utility.yul\":14557:14594   */\n      add\n        /* \"#utility.yul\":14544:14555   */\n      dup3\n        /* \"#utility.yul\":14515:14595   */\n      tag_160\n      jump\t// in\n    tag_313:\n        /* \"#utility.yul\":14174:14605   */\n      pop\n      pop\n        /* \"#utility.yul\":14159:14605   */\n    tag_309:\n        /* \"#utility.yul\":14069:14612   */\n      pop\n      pop\n      pop\n      jump\t// out\n        /* \"#utility.yul\":14618:14735   */\n    tag_162:\n        /* \"#utility.yul\":14672:14680   */\n      0x00\n        /* \"#utility.yul\":14722:14727   */\n      dup3\n        /* \"#utility.yul\":14716:14720   */\n      dup3\n        /* \"#utility.yul\":14712:14728   */\n      shr\n        /* \"#utility.yul\":14691:14728   */\n      swap1\n      pop\n        /* \"#utility.yul\":14618:14735   */\n      swap3\n      swap2\n      pop\n      pop\n      jump\t// out\n        /* \"#utility.yul\":14741:14910   */\n    tag_163:\n        /* \"#utility.yul\":14785:14791   */\n      0x00\n        /* \"#utility.yul\":14818:14869   */\n      tag_317\n        /* \"#utility.yul\":14866:14867   */\n      0x00\n        /* \"#utility.yul\":14862:14868   */\n      not\n        /* \"#utility.yul\":14854:14859   */\n      dup5\n        /* \"#utility.yul\":14851:14852   */\n      0x08\n        /* \"#utility.yul\":14847:14860   */\n      mul\n        /* \"#utility.yul\":14818:14869   */\n      tag_162\n      jump\t// in\n    tag_317:\n        /* \"#utility.yul\":14814:14870   */\n      not\n        /* \"#utility.yul\":14899:14903   */\n      dup1\n        /* \"#utility.yul\":14893:14897   */\n      dup4\n        /* \"#utility.yul\":14889:14904   */\n      and\n        /* \"#utility.yul\":14879:14904   */\n      swap2\n      pop\n        /* \"#utility.yul\":14792:14910   */\n      pop\n        /* \"#utility.yul\":14741:14910   */\n      swap3\n      swap2\n      pop\n      pop\n      jump\t// out\n        /* \"#utility.yul\":14915:15210   */\n    tag_164:\n        /* \"#utility.yul\":14991:14995   */\n      0x00\n        /* \"#utility.yul\":15137:15166   */\n      tag_319\n        /* \"#utility.yul\":15162:15165   */\n      dup4\n        /* \"#utility.yul\":15156:15160   */\n      dup4\n        /* \"#utility.yul\":15137:15166   */\n      tag_163\n      jump\t// in\n    tag_319:\n        /* \"#utility.yul\":15129:15166   */\n      swap2\n      pop\n        /* \"#utility.yul\":15199:15202   */\n      dup3\n        /* \"#utility.yul\":15196:15197   */\n      0x02\n        /* \"#utility.yul\":15192:15203   */\n      mul\n        /* \"#utility.yul\":15186:15190   */\n      dup3\n        /* \"#utility.yul\":15183:15204   */\n      or\n        /* \"#utility.yul\":15175:15204   */\n      swap1\n      pop\n        /* \"#utility.yul\":14915:15210   */\n      swap3\n      swap2\n      pop\n      pop\n      jump\t// out\n        /* \"#utility.yul\":15215:16610   */\n    tag_110:\n        /* \"#utility.yul\":15332:15369   */\n      tag_321\n        /* \"#utility.yul\":15365:15368   */\n      dup3\n        /* \"#utility.yul\":15332:15369   */\n      tag_120\n      jump\t// in\n    tag_321:\n        /* \"#utility.yul\":15434:15452   */\n      0xffffffffffffffff\n        /* \"#utility.yul\":15426:15432   */\n      dup2\n        /* \"#utility.yul\":15423:15453   */\n      gt\n        /* \"#utility.yul\":15420:15476   */\n      iszero\n      tag_322\n      jumpi\n        /* \"#utility.yul\":15456:15474   */\n      tag_323\n      tag_133\n      jump\t// in\n    tag_323:\n        /* \"#utility.yul\":15420:15476   */\n    tag_322:\n        /* \"#utility.yul\":15500:15538   */\n      tag_324\n        /* \"#utility.yul\":15532:15536   */\n      dup3\n        /* \"#utility.yul\":15526:15537   */\n      sload\n        /* \"#utility.yul\":15500:15538   */\n      tag_42\n      jump\t// in\n    tag_324:\n        /* \"#utility.yul\":15585:15652   */\n      tag_325\n        /* \"#utility.yul\":15645:15651   */\n      dup3\n        /* \"#utility.yul\":15637:15643   */\n      dup3\n        /* \"#utility.yul\":15631:15635   */\n      dup6\n        /* \"#utility.yul\":15585:15652   */\n      tag_161\n      jump\t// in\n    tag_325:\n        /* \"#utility.yul\":15679:15680   */\n      0x00\n        /* \"#utility.yul\":15703:15707   */\n      0x20\n        /* \"#utility.yul\":15690:15707   */\n      swap1\n      pop\n        /* \"#utility.yul\":15735:15737   */\n      0x1f\n        /* \"#utility.yul\":15727:15733   */\n      dup4\n        /* \"#utility.yul\":15724:15738   */\n      gt\n        /* \"#utility.yul\":15752:15753   */\n      0x01\n        /* \"#utility.yul\":15747:16365   */\n      dup2\n      eq\n      tag_327\n      jumpi\n        /* \"#utility.yul\":16409:16410   */\n      0x00\n        /* \"#utility.yul\":16426:16432   */\n      dup5\n        /* \"#utility.yul\":16423:16500   */\n      iszero\n      tag_328\n      jumpi\n        /* \"#utility.yul\":16475:16484   */\n      dup3\n        /* \"#utility.yul\":16470:16473   */\n      dup8\n        /* \"#utility.yul\":16466:16485   */\n      add\n        /* \"#utility.yul\":16460:16486   */\n      mload\n        /* \"#utility.yul\":16451:16486   */\n      swap1\n      pop\n        /* \"#utility.yul\":16423:16500   */\n    tag_328:\n        /* \"#utility.yul\":16526:16593   */\n      tag_329\n        /* \"#utility.yul\":16586:16592   */\n      dup6\n        /* \"#utility.yul\":16579:16584   */\n      dup3\n        /* \"#utility.yul\":16526:16593   */\n      tag_164\n      jump\t// in\n    tag_329:\n        /* \"#utility.yul\":16520:16524   */\n      dup7\n        /* \"#utility.yul\":16513:16594   */\n      sstore\n        /* \"#utility.yul\":16382:16604   */\n      pop\n        /* \"#utility.yul\":15717:16604   */\n      jump(tag_326)\n        /* \"#utility.yul\":15747:16365   */\n    tag_327:\n        /* \"#utility.yul\":15799:15803   */\n      0x1f\n        /* \"#utility.yul\":15795:15804   */\n      not\n        /* \"#utility.yul\":15787:15793   */\n      dup5\n        /* \"#utility.yul\":15783:15805   */\n      and\n        /* \"#utility.yul\":15833:15870   */\n      tag_330\n        /* \"#utility.yul\":15865:15869   */\n      dup7\n        /* \"#utility.yul\":15833:15870   */\n      tag_150\n      jump\t// in\n    tag_330:\n        /* \"#utility.yul\":15892:15893   */\n      0x00\n        /* \"#utility.yul\":15906:16114   */\n    tag_331:\n        /* \"#utility.yul\":15920:15927   */\n      dup3\n        /* \"#utility.yul\":15917:15918   */\n      dup2\n        /* \"#utility.yul\":15914:15928   */\n      lt\n        /* \"#utility.yul\":15906:16114   */\n      iszero\n      tag_333\n      jumpi\n        /* \"#utility.yul\":15999:16008   */\n      dup5\n        /* \"#utility.yul\":15994:15997   */\n      dup10\n        /* \"#utility.yul\":15990:16009   */\n      add\n        /* \"#utility.yul\":15984:16010   */\n      mload\n        /* \"#utility.yul\":15976:15982   */\n      dup3\n        /* \"#utility.yul\":15969:16011   */\n      sstore\n        /* \"#utility.yul\":16050:16051   */\n      0x01\n        /* \"#utility.yul\":16042:16048   */\n      dup3\n        /* \"#utility.yul\":16038:16052   */\n      add\n        /* \"#utility.yul\":16028:16052   */\n      swap2\n      pop\n        /* \"#utility.yul\":16097:16099   */\n      0x20\n        /* \"#utility.yul\":16086:16095   */\n      dup6\n        /* \"#utility.yul\":16082:16100   */\n      add\n        /* \"#utility.yul\":16069:16100   */\n      swap5\n      pop\n        /* \"#utility.yul\":15943:15947   */\n      0x20\n        /* \"#utility.yul\":15940:15941   */\n      dup2\n        /* \"#utility.yul\":15936:15948   */\n      add\n        /* \"#utility.yul\":15931:15948   */\n      swap1\n      pop\n        /* \"#utility.yul\":15906:16114   */\n      jump(tag_331)\n    tag_333:\n        /* \"#utility.yul\":16142:16148   */\n      dup7\n        /* \"#utility.yul\":16133:16140   */\n      dup4\n        /* \"#utility.yul\":16130:16149   */\n      lt\n        /* \"#utility.yul\":16127:16306   */\n      iszero\n      tag_334\n      jumpi\n        /* \"#utility.yul\":16200:16209   */\n      dup5\n        /* \"#utility.yul\":16195:16198   */\n      dup10\n        /* \"#utility.yul\":16191:16210   */\n      add\n        /* \"#utility.yul\":16185:16211   */\n      mload\n        /* \"#utility.yul\":16243:16291   */\n      tag_335\n        /* \"#utility.yul\":16285:16289   */\n      0x1f\n        /* \"#utility.yul\":16277:16283   */\n      dup10\n        /* \"#utility.yul\":16273:16290   */\n      and\n        /* \"#utility.yul\":16262:16271   */\n      dup3\n        /* \"#utility.yul\":16243:16291   */\n      tag_163\n      jump\t// in\n    tag_335:\n        /* \"#utility.yul\":16235:16241   */\n      dup4\n        /* \"#utility.yul\":16228:16292   */\n      sstore\n        /* \"#utility.yul\":16150:16306   */\n      pop\n        /* \"#utility.yul\":16127:16306   */\n    tag_334:\n        /* \"#utility.yul\":16352:16353   */\n      0x01\n        /* \"#utility.yul\":16348:16349   */\n      0x02\n        /* \"#utility.yul\":16340:16346   */\n      dup9\n        /* \"#utility.yul\":16336:16350   */\n      mul\n        /* \"#utility.yul\":16332:16354   */\n      add\n        /* \"#utility.yul\":16326:16330   */\n      dup9\n        /* \"#utility.yul\":16319:16355   */\n      sstore\n        /* \"#utility.yul\":15754:16365   */\n      pop\n      pop\n      pop\n        /* \"#utility.yul\":15717:16604   */\n    tag_326:\n      pop\n        /* \"#utility.yul\":15307:16610   */\n      pop\n      pop\n      pop\n        /* \"#utility.yul\":15215:16610   */\n      pop\n      pop\n      jump\t// out\n        /* \"#utility.yul\":16616:16810   */\n    tag_113:\n        /* \"#utility.yul\":16656:16660   */\n      0x00\n        /* \"#utility.yul\":16676:16696   */\n      tag_337\n        /* \"#utility.yul\":16694:16695   */\n      dup3\n        /* \"#utility.yul\":16676:16696   */\n      tag_117\n      jump\t// in\n    tag_337:\n        /* \"#utility.yul\":16671:16696   */\n      swap2\n      pop\n        /* \"#utility.yul\":16710:16730   */\n      tag_338\n        /* \"#utility.yul\":16728:16729   */\n      dup4\n        /* \"#utility.yul\":16710:16730   */\n      tag_117\n      jump\t// in\n    tag_338:\n        /* \"#utility.yul\":16705:16730   */\n      swap3\n      pop\n        /* \"#utility.yul\":16754:16755   */\n      dup3\n        /* \"#utility.yul\":16751:16752   */\n      dup3\n        /* \"#utility.yul\":16747:16756   */\n      sub\n        /* \"#utility.yul\":16739:16756   */\n      swap1\n      pop\n        /* \"#utility.yul\":16778:16779   */\n      dup2\n        /* \"#utility.yul\":16772:16776   */\n      dup2\n        /* \"#utility.yul\":16769:16780   */\n      gt\n        /* \"#utility.yul\":16766:16803   */\n      iszero\n      tag_339\n      jumpi\n        /* \"#utility.yul\":16783:16801   */\n      tag_340\n      tag_147\n      jump\t// in\n    tag_340:\n        /* \"#utility.yul\":16766:16803   */\n    tag_339:\n        /* \"#utility.yul\":16616:16810   */\n      swap3\n      swap2\n      pop\n      pop\n      jump\t// out\n\n    auxdata: 0xa264697066735822122081ca7787e74ea55a5971166561c84fc33f40dbef270102361ee7d323a9049fa664736f6c63430008160033\n}\n",
				"bytecode": {
					"linkReferences": {},
					"object": "608060405234801561000f575f80fd5b5061120f8061001d5f395ff3fe608060405260043610610054575f3560e01c8063141961bc146100585780636caa921814610099578063c1cbbca7146100c3578063d993de62146100df578063e1e3300914610120578063ffa56a571461015c575b5f80fd5b348015610063575f80fd5b5061007e6004803603810190610079919061091a565b610184565b60405161009096959493929190610a37565b60405180910390f35b3480156100a4575f80fd5b506100ad610302565b6040516100ba9190610aa4565b60405180910390f35b6100dd60048036038101906100d8919061091a565b61030d565b005b3480156100ea575f80fd5b506101056004803603810190610100919061091a565b6104c5565b60405161011796959493929190610a37565b60405180910390f35b34801561012b575f80fd5b506101466004803603810190610141919061091a565b6106a5565b6040516101539190610abd565b60405180910390f35b348015610167575f80fd5b50610182600480360381019061017d9190610c02565b610723565b005b5f8181548110610192575f80fd5b905f5260205f2090600502015f91509050805f0180546101b190610cb7565b80601f01602080910402602001604051908101604052809291908181526020018280546101dd90610cb7565b80156102285780601f106101ff57610100808354040283529160200191610228565b820191905f5260205f20905b81548152906001019060200180831161020b57829003601f168201915b50505050509080600101805461023d90610cb7565b80601f016020809104026020016040519081016040528092919081815260200182805461026990610cb7565b80156102b45780601f1061028b576101008083540402835291602001916102b4565b820191905f5260205f20905b81548152906001019060200180831161029757829003601f168201915b505050505090806002015490806003015f9054906101000a900473ffffffffffffffffffffffffffffffffffffffff16908060030160149054906101000a900460ff16908060040154905086565b5f8080549050905090565b5f805490508110610353576040517f08c379a000000000000000000000000000000000000000000000000000000000815260040161034a90610d31565b60405180910390fd5b5f818154811061036657610365610d4f565b5b905f5260205f20906005020160030160149054906101000a900460ff166103c2576040517f08c379a00000000000000000000000000000000000000000000000000000000081526004016103b990610dc6565b60405180910390fd5b5f3411610404576040517f08c379a00000000000000000000000000000000000000000000000000000000081526004016103fb90610e54565b60405180910390fd5b345f828154811061041857610417610d4f565b5b905f5260205f2090600502016004015f8282546104359190610e9f565b925050819055505f818154811061044f5761044e610d4f565b5b905f5260205f209060050201600201545f828154811061047257610471610d4f565b5b905f5260205f20906005020160040154106104c2575f80828154811061049b5761049a610d4f565b5b905f5260205f20906005020160030160146101000a81548160ff0219169083151502179055505b50565b6060805f805f805f805490508710610512576040517f08c379a000000000000000000000000000000000000000000000000000000000815260040161050990610d31565b60405180910390fd5b5f80888154811061052657610525610d4f565b5b905f5260205f2090600502019050805f01816001018260020154836003015f9054906101000a900473ffffffffffffffffffffffffffffffffffffffff168460030160149054906101000a900460ff16856004015485805461058790610cb7565b80601f01602080910402602001604051908101604052809291908181526020018280546105b390610cb7565b80156105fe5780601f106105d5576101008083540402835291602001916105fe565b820191905f5260205f20905b8154815290600101906020018083116105e157829003601f168201915b5050505050955084805461061190610cb7565b80601f016020809104026020016040519081016040528092919081815260200182805461063d90610cb7565b80156106885780601f1061065f57610100808354040283529160200191610688565b820191905f5260205f20905b81548152906001019060200180831161066b57829003601f168201915b505050505094509650965096509650965096505091939550919395565b5f808054905082106106ec576040517f08c379a00000000000000000000000000000000000000000000000000000000081526004016106e390610d31565b60405180910390fd5b5f82815481106106ff576106fe610d4f565b5b905f5260205f20906005020160030160149054906101000a900460ff169050919050565b5f8111610765576040517f08c379a000000000000000000000000000000000000000000000000000000000815260040161075c90610f1c565b60405180910390fd5b5f6040518060c001604052808581526020018481526020018381526020013373ffffffffffffffffffffffffffffffffffffffff1681526020016001151581526020015f81525090505f81908060018154018082558091505060019003905f5260205f2090600502015f909190919091505f820151815f0190816107e991906110d7565b5060208201518160010190816107ff91906110d7565b50604082015181600201556060820151816003015f6101000a81548173ffffffffffffffffffffffffffffffffffffffff021916908373ffffffffffffffffffffffffffffffffffffffff16021790555060808201518160030160146101000a81548160ff02191690831515021790555060a0820151816004015550503373ffffffffffffffffffffffffffffffffffffffff1660015f805490506108a491906111a6565b7f633109eec20320eded000fc1e2634211aa7e92ba3f5b15faf6dcdafca05094e460405160405180910390a350505050565b5f604051905090565b5f80fd5b5f80fd5b5f819050919050565b6108f9816108e7565b8114610903575f80fd5b50565b5f81359050610914816108f0565b92915050565b5f6020828403121561092f5761092e6108df565b5b5f61093c84828501610906565b91505092915050565b5f81519050919050565b5f82825260208201905092915050565b5f5b8381101561097c578082015181840152602081019050610961565b5f8484015250505050565b5f601f19601f8301169050919050565b5f6109a182610945565b6109ab818561094f565b93506109bb81856020860161095f565b6109c481610987565b840191505092915050565b6109d8816108e7565b82525050565b5f73ffffffffffffffffffffffffffffffffffffffff82169050919050565b5f610a07826109de565b9050919050565b610a17816109fd565b82525050565b5f8115159050919050565b610a3181610a1d565b82525050565b5f60c0820190508181035f830152610a4f8189610997565b90508181036020830152610a638188610997565b9050610a7260408301876109cf565b610a7f6060830186610a0e565b610a8c6080830185610a28565b610a9960a08301846109cf565b979650505050505050565b5f602082019050610ab75f8301846109cf565b92915050565b5f602082019050610ad05f830184610a28565b92915050565b5f80fd5b5f80fd5b7f4e487b71000000000000000000000000000000000000000000000000000000005f52604160045260245ffd5b610b1482610987565b810181811067ffffffffffffffff82111715610b3357610b32610ade565b5b80604052505050565b5f610b456108d6565b9050610b518282610b0b565b919050565b5f67ffffffffffffffff821115610b7057610b6f610ade565b5b610b7982610987565b9050602081019050919050565b828183375f83830152505050565b5f610ba6610ba184610b56565b610b3c565b905082815260208101848484011115610bc257610bc1610ada565b5b610bcd848285610b86565b509392505050565b5f82601f830112610be957610be8610ad6565b5b8135610bf9848260208601610b94565b91505092915050565b5f805f60608486031215610c1957610c186108df565b5b5f84013567ffffffffffffffff811115610c3657610c356108e3565b5b610c4286828701610bd5565b935050602084013567ffffffffffffffff811115610c6357610c626108e3565b5b610c6f86828701610bd5565b9250506040610c8086828701610906565b9150509250925092565b7f4e487b71000000000000000000000000000000000000000000000000000000005f52602260045260245ffd5b5f6002820490506001821680610cce57607f821691505b602082108103610ce157610ce0610c8a565b5b50919050565b7f496e76616c69642063616d706169676e20696e646578000000000000000000005f82015250565b5f610d1b60168361094f565b9150610d2682610ce7565b602082019050919050565b5f6020820190508181035f830152610d4881610d0f565b9050919050565b7f4e487b71000000000000000000000000000000000000000000000000000000005f52603260045260245ffd5b7f43616d706169676e206973206e6f7420616374697665000000000000000000005f82015250565b5f610db060168361094f565b9150610dbb82610d7c565b602082019050919050565b5f6020820190508181035f830152610ddd81610da4565b9050919050565b7f436f6e747269627574696f6e20616d6f756e74206d75737420626520677265615f8201527f746572207468616e203000000000000000000000000000000000000000000000602082015250565b5f610e3e602a8361094f565b9150610e4982610de4565b604082019050919050565b5f6020820190508181035f830152610e6b81610e32565b9050919050565b7f4e487b71000000000000000000000000000000000000000000000000000000005f52601160045260245ffd5b5f610ea9826108e7565b9150610eb4836108e7565b9250828201905080821115610ecc57610ecb610e72565b5b92915050565b7f476f616c206d7573742062652067726561746572207468616e203000000000005f82015250565b5f610f06601b8361094f565b9150610f1182610ed2565b602082019050919050565b5f6020820190508181035f830152610f3381610efa565b9050919050565b5f819050815f5260205f209050919050565b5f6020601f8301049050919050565b5f82821b905092915050565b5f60088302610f967fffffffffffffffffffffffffffffffffffffffffffffffffffffffffffffffff82610f5b565b610fa08683610f5b565b95508019841693508086168417925050509392505050565b5f819050919050565b5f610fdb610fd6610fd1846108e7565b610fb8565b6108e7565b9050919050565b5f819050919050565b610ff483610fc1565b61100861100082610fe2565b848454610f67565b825550505050565b5f90565b61101c611010565b611027818484610feb565b505050565b5b8181101561104a5761103f5f82611014565b60018101905061102d565b5050565b601f82111561108f5761106081610f3a565b61106984610f4c565b81016020851015611078578190505b61108c61108485610f4c565b83018261102c565b50505b505050565b5f82821c905092915050565b5f6110af5f1984600802611094565b1980831691505092915050565b5f6110c783836110a0565b9150826002028217905092915050565b6110e082610945565b67ffffffffffffffff8111156110f9576110f8610ade565b5b6111038254610cb7565b61110e82828561104e565b5f60209050601f83116001811461113f575f841561112d578287015190505b61113785826110bc565b86555061119e565b601f19841661114d86610f3a565b5f5b828110156111745784890151825560018201915060208501945060208101905061114f565b86831015611191578489015161118d601f8916826110a0565b8355505b6001600288020188555050505b505050505050565b5f6111b0826108e7565b91506111bb836108e7565b92508282039050818111156111d3576111d2610e72565b5b9291505056fea264697066735822122081ca7787e74ea55a5971166561c84fc33f40dbef270102361ee7d323a9049fa664736f6c63430008160033",
					"opcodes": "PUSH1 0x80 PUSH1 0x40 MSTORE CALLVALUE DUP1 ISZERO PUSH2 0xF JUMPI PUSH0 DUP1 REVERT JUMPDEST POP PUSH2 0x120F DUP1 PUSH2 0x1D PUSH0 CODECOPY PUSH0 RETURN INVALID PUSH1 0x80 PUSH1 0x40 MSTORE PUSH1 0x4 CALLDATASIZE LT PUSH2 0x54 JUMPI PUSH0 CALLDATALOAD PUSH1 0xE0 SHR DUP1 PUSH4 0x141961BC EQ PUSH2 0x58 JUMPI DUP1 PUSH4 0x6CAA9218 EQ PUSH2 0x99 JUMPI DUP1 PUSH4 0xC1CBBCA7 EQ PUSH2 0xC3 JUMPI DUP1 PUSH4 0xD993DE62 EQ PUSH2 0xDF JUMPI DUP1 PUSH4 0xE1E33009 EQ PUSH2 0x120 JUMPI DUP1 PUSH4 0xFFA56A57 EQ PUSH2 0x15C JUMPI JUMPDEST PUSH0 DUP1 REVERT JUMPDEST CALLVALUE DUP1 ISZERO PUSH2 0x63 JUMPI PUSH0 DUP1 REVERT JUMPDEST POP PUSH2 0x7E PUSH1 0x4 DUP1 CALLDATASIZE SUB DUP2 ADD SWAP1 PUSH2 0x79 SWAP2 SWAP1 PUSH2 0x91A JUMP JUMPDEST PUSH2 0x184 JUMP JUMPDEST PUSH1 0x40 MLOAD PUSH2 0x90 SWAP7 SWAP6 SWAP5 SWAP4 SWAP3 SWAP2 SWAP1 PUSH2 0xA37 JUMP JUMPDEST PUSH1 0x40 MLOAD DUP1 SWAP2 SUB SWAP1 RETURN JUMPDEST CALLVALUE DUP1 ISZERO PUSH2 0xA4 JUMPI PUSH0 DUP1 REVERT JUMPDEST POP PUSH2 0xAD PUSH2 0x302 JUMP JUMPDEST PUSH1 0x40 MLOAD PUSH2 0xBA SWAP2 SWAP1 PUSH2 0xAA4 JUMP JUMPDEST PUSH1 0x40 MLOAD DUP1 SWAP2 SUB SWAP1 RETURN JUMPDEST PUSH2 0xDD PUSH1 0x4 DUP1 CALLDATASIZE SUB DUP2 ADD SWAP1 PUSH2 0xD8 SWAP2 SWAP1 PUSH2 0x91A JUMP JUMPDEST PUSH2 0x30D JUMP JUMPDEST STOP JUMPDEST CALLVALUE DUP1 ISZERO PUSH2 0xEA JUMPI PUSH0 DUP1 REVERT JUMPDEST POP PUSH2 0x105 PUSH1 0x4 DUP1 CALLDATASIZE SUB DUP2 ADD SWAP1 PUSH2 0x100 SWAP2 SWAP1 PUSH2 0x91A JUMP JUMPDEST PUSH2 0x4C5 JUMP JUMPDEST PUSH1 0x40 MLOAD PUSH2 0x117 SWAP7 SWAP6 SWAP5 SWAP4 SWAP3 SWAP2 SWAP1 PUSH2 0xA37 JUMP JUMPDEST PUSH1 0x40 MLOAD DUP1 SWAP2 SUB SWAP1 RETURN JUMPDEST CALLVALUE DUP1 ISZERO PUSH2 0x12B JUMPI PUSH0 DUP1 REVERT JUMPDEST POP PUSH2 0x146 PUSH1 0x4 DUP1 CALLDATASIZE SUB DUP2 ADD SWAP1 PUSH2 0x141 SWAP2 SWAP1 PUSH2 0x91A JUMP JUMPDEST PUSH2 0x6A5 JUMP JUMPDEST PUSH1 0x40 MLOAD PUSH2 0x153 SWAP2 SWAP1 PUSH2 0xABD JUMP JUMPDEST PUSH1 0x40 MLOAD DUP1 SWAP2 SUB SWAP1 RETURN JUMPDEST CALLVALUE DUP1 ISZERO PUSH2 0x167 JUMPI PUSH0 DUP1 REVERT JUMPDEST POP PUSH2 0x182 PUSH1 0x4 DUP1 CALLDATASIZE SUB DUP2 ADD SWAP1 PUSH2 0x17D SWAP2 SWAP1 PUSH2 0xC02 JUMP JUMPDEST PUSH2 0x723 JUMP JUMPDEST STOP JUMPDEST PUSH0 DUP2 DUP2 SLOAD DUP2 LT PUSH2 0x192 JUMPI PUSH0 DUP1 REVERT JUMPDEST SWAP1 PUSH0 MSTORE PUSH1 0x20 PUSH0 KECCAK256 SWAP1 PUSH1 0x5 MUL ADD PUSH0 SWAP2 POP SWAP1 POP DUP1 PUSH0 ADD DUP1 SLOAD PUSH2 0x1B1 SWAP1 PUSH2 0xCB7 JUMP JUMPDEST DUP1 PUSH1 0x1F ADD PUSH1 0x20 DUP1 SWAP2 DIV MUL PUSH1 0x20 ADD PUSH1 0x40 MLOAD SWAP1 DUP2 ADD PUSH1 0x40 MSTORE DUP1 SWAP3 SWAP2 SWAP1 DUP2 DUP2 MSTORE PUSH1 0x20 ADD DUP3 DUP1 SLOAD PUSH2 0x1DD SWAP1 PUSH2 0xCB7 JUMP JUMPDEST DUP1 ISZERO PUSH2 0x228 JUMPI DUP1 PUSH1 0x1F LT PUSH2 0x1FF JUMPI PUSH2 0x100 DUP1 DUP4 SLOAD DIV MUL DUP4 MSTORE SWAP2 PUSH1 0x20 ADD SWAP2 PUSH2 0x228 JUMP JUMPDEST DUP3 ADD SWAP2 SWAP1 PUSH0 MSTORE PUSH1 0x20 PUSH0 KECCAK256 SWAP1 JUMPDEST DUP2 SLOAD DUP2 MSTORE SWAP1 PUSH1 0x1 ADD SWAP1 PUSH1 0x20 ADD DUP1 DUP4 GT PUSH2 0x20B JUMPI DUP3 SWAP1 SUB PUSH1 0x1F AND DUP3 ADD SWAP2 JUMPDEST POP POP POP POP POP SWAP1 DUP1 PUSH1 0x1 ADD DUP1 SLOAD PUSH2 0x23D SWAP1 PUSH2 0xCB7 JUMP JUMPDEST DUP1 PUSH1 0x1F ADD PUSH1 0x20 DUP1 SWAP2 DIV MUL PUSH1 0x20 ADD PUSH1 0x40 MLOAD SWAP1 DUP2 ADD PUSH1 0x40 MSTORE DUP1 SWAP3 SWAP2 SWAP1 DUP2 DUP2 MSTORE PUSH1 0x20 ADD DUP3 DUP1 SLOAD PUSH2 0x269 SWAP1 PUSH2 0xCB7 JUMP JUMPDEST DUP1 ISZERO PUSH2 0x2B4 JUMPI DUP1 PUSH1 0x1F LT PUSH2 0x28B JUMPI PUSH2 0x100 DUP1 DUP4 SLOAD DIV MUL DUP4 MSTORE SWAP2 PUSH1 0x20 ADD SWAP2 PUSH2 0x2B4 JUMP JUMPDEST DUP3 ADD SWAP2 SWAP1 PUSH0 MSTORE PUSH1 0x20 PUSH0 KECCAK256 SWAP1 JUMPDEST DUP2 SLOAD DUP2 MSTORE SWAP1 PUSH1 0x1 ADD SWAP1 PUSH1 0x20 ADD DUP1 DUP4 GT PUSH2 0x297 JUMPI DUP3 SWAP1 SUB PUSH1 0x1F AND DUP3 ADD SWAP2 JUMPDEST POP POP POP POP POP SWAP1 DUP1 PUSH1 0x2 ADD SLOAD SWAP1 DUP1 PUSH1 0x3 ADD PUSH0 SWAP1 SLOAD SWAP1 PUSH2 0x100 EXP SWAP1 DIV PUSH20 0xFFFFFFFFFFFFFFFFFFFFFFFFFFFFFFFFFFFFFFFF AND SWAP1 DUP1 PUSH1 0x3 ADD PUSH1 0x14 SWAP1 SLOAD SWAP1 PUSH2 0x100 EXP SWAP1 DIV PUSH1 0xFF AND SWAP1 DUP1 PUSH1 0x4 ADD SLOAD SWAP1 POP DUP7 JUMP JUMPDEST PUSH0 DUP1 DUP1 SLOAD SWAP1 POP SWAP1 POP SWAP1 JUMP JUMPDEST PUSH0 DUP1 SLOAD SWAP1 POP DUP2 LT PUSH2 0x353 JUMPI PUSH1 0x40 MLOAD PUSH32 0x8C379A000000000000000000000000000000000000000000000000000000000 DUP2 MSTORE PUSH1 0x4 ADD PUSH2 0x34A SWAP1 PUSH2 0xD31 JUMP JUMPDEST PUSH1 0x40 MLOAD DUP1 SWAP2 SUB SWAP1 REVERT JUMPDEST PUSH0 DUP2 DUP2 SLOAD DUP2 LT PUSH2 0x366 JUMPI PUSH2 0x365 PUSH2 0xD4F JUMP JUMPDEST JUMPDEST SWAP1 PUSH0 MSTORE PUSH1 0x20 PUSH0 KECCAK256 SWAP1 PUSH1 0x5 MUL ADD PUSH1 0x3 ADD PUSH1 0x14 SWAP1 SLOAD SWAP1 PUSH2 0x100 EXP SWAP1 DIV PUSH1 0xFF AND PUSH2 0x3C2 JUMPI PUSH1 0x40 MLOAD PUSH32 0x8C379A000000000000000000000000000000000000000000000000000000000 DUP2 MSTORE PUSH1 0x4 ADD PUSH2 0x3B9 SWAP1 PUSH2 0xDC6 JUMP JUMPDEST PUSH1 0x40 MLOAD DUP1 SWAP2 SUB SWAP1 REVERT JUMPDEST PUSH0 CALLVALUE GT PUSH2 0x404 JUMPI PUSH1 0x40 MLOAD PUSH32 0x8C379A000000000000000000000000000000000000000000000000000000000 DUP2 MSTORE PUSH1 0x4 ADD PUSH2 0x3FB SWAP1 PUSH2 0xE54 JUMP JUMPDEST PUSH1 0x40 MLOAD DUP1 SWAP2 SUB SWAP1 REVERT JUMPDEST CALLVALUE PUSH0 DUP3 DUP2 SLOAD DUP2 LT PUSH2 0x418 JUMPI PUSH2 0x417 PUSH2 0xD4F JUMP JUMPDEST JUMPDEST SWAP1 PUSH0 MSTORE PUSH1 0x20 PUSH0 KECCAK256 SWAP1 PUSH1 0x5 MUL ADD PUSH1 0x4 ADD PUSH0 DUP3 DUP3 SLOAD PUSH2 0x435 SWAP2 SWAP1 PUSH2 0xE9F JUMP JUMPDEST SWAP3 POP POP DUP2 SWAP1 SSTORE POP PUSH0 DUP2 DUP2 SLOAD DUP2 LT PUSH2 0x44F JUMPI PUSH2 0x44E PUSH2 0xD4F JUMP JUMPDEST JUMPDEST SWAP1 PUSH0 MSTORE PUSH1 0x20 PUSH0 KECCAK256 SWAP1 PUSH1 0x5 MUL ADD PUSH1 0x2 ADD SLOAD PUSH0 DUP3 DUP2 SLOAD DUP2 LT PUSH2 0x472 JUMPI PUSH2 0x471 PUSH2 0xD4F JUMP JUMPDEST JUMPDEST SWAP1 PUSH0 MSTORE PUSH1 0x20 PUSH0 KECCAK256 SWAP1 PUSH1 0x5 MUL ADD PUSH1 0x4 ADD SLOAD LT PUSH2 0x4C2 JUMPI PUSH0 DUP1 DUP3 DUP2 SLOAD DUP2 LT PUSH2 0x49B JUMPI PUSH2 0x49A PUSH2 0xD4F JUMP JUMPDEST JUMPDEST SWAP1 PUSH0 MSTORE PUSH1 0x20 PUSH0 KECCAK256 SWAP1 PUSH1 0x5 MUL ADD PUSH1 0x3 ADD PUSH1 0x14 PUSH2 0x100 EXP DUP2 SLOAD DUP2 PUSH1 0xFF MUL NOT AND SWAP1 DUP4 ISZERO ISZERO MUL OR SWAP1 SSTORE POP JUMPDEST POP JUMP JUMPDEST PUSH1 0x60 DUP1 PUSH0 DUP1 PUSH0 DUP1 PUSH0 DUP1 SLOAD SWAP1 POP DUP8 LT PUSH2 0x512 JUMPI PUSH1 0x40 MLOAD PUSH32 0x8C379A000000000000000000000000000000000000000000000000000000000 DUP2 MSTORE PUSH1 0x4 ADD PUSH2 0x509 SWAP1 PUSH2 0xD31 JUMP JUMPDEST PUSH1 0x40 MLOAD DUP1 SWAP2 SUB SWAP1 REVERT JUMPDEST PUSH0 DUP1 DUP9 DUP2 SLOAD DUP2 LT PUSH2 0x526 JUMPI PUSH2 0x525 PUSH2 0xD4F JUMP JUMPDEST JUMPDEST SWAP1 PUSH0 MSTORE PUSH1 0x20 PUSH0 KECCAK256 SWAP1 PUSH1 0x5 MUL ADD SWAP1 POP DUP1 PUSH0 ADD DUP2 PUSH1 0x1 ADD DUP3 PUSH1 0x2 ADD SLOAD DUP4 PUSH1 0x3 ADD PUSH0 SWAP1 SLOAD SWAP1 PUSH2 0x100 EXP SWAP1 DIV PUSH20 0xFFFFFFFFFFFFFFFFFFFFFFFFFFFFFFFFFFFFFFFF AND DUP5 PUSH1 0x3 ADD PUSH1 0x14 SWAP1 SLOAD SWAP1 PUSH2 0x100 EXP SWAP1 DIV PUSH1 0xFF AND DUP6 PUSH1 0x4 ADD SLOAD DUP6 DUP1 SLOAD PUSH2 0x587 SWAP1 PUSH2 0xCB7 JUMP JUMPDEST DUP1 PUSH1 0x1F ADD PUSH1 0x20 DUP1 SWAP2 DIV MUL PUSH1 0x20 ADD PUSH1 0x40 MLOAD SWAP1 DUP2 ADD PUSH1 0x40 MSTORE DUP1 SWAP3 SWAP2 SWAP1 DUP2 DUP2 MSTORE PUSH1 0x20 ADD DUP3 DUP1 SLOAD PUSH2 0x5B3 SWAP1 PUSH2 0xCB7 JUMP JUMPDEST DUP1 ISZERO PUSH2 0x5FE JUMPI DUP1 PUSH1 0x1F LT PUSH2 0x5D5 JUMPI PUSH2 0x100 DUP1 DUP4 SLOAD DIV MUL DUP4 MSTORE SWAP2 PUSH1 0x20 ADD SWAP2 PUSH2 0x5FE JUMP JUMPDEST DUP3 ADD SWAP2 SWAP1 PUSH0 MSTORE PUSH1 0x20 PUSH0 KECCAK256 SWAP1 JUMPDEST DUP2 SLOAD DUP2 MSTORE SWAP1 PUSH1 0x1 ADD SWAP1 PUSH1 0x20 ADD DUP1 DUP4 GT PUSH2 0x5E1 JUMPI DUP3 SWAP1 SUB PUSH1 0x1F AND DUP3 ADD SWAP2 JUMPDEST POP POP POP POP POP SWAP6 POP DUP5 DUP1 SLOAD PUSH2 0x611 SWAP1 PUSH2 0xCB7 JUMP JUMPDEST DUP1 PUSH1 0x1F ADD PUSH1 0x20 DUP1 SWAP2 DIV MUL PUSH1 0x20 ADD PUSH1 0x40 MLOAD SWAP1 DUP2 ADD PUSH1 0x40 MSTORE DUP1 SWAP3 SWAP2 SWAP1 DUP2 DUP2 MSTORE PUSH1 0x20 ADD DUP3 DUP1 SLOAD PUSH2 0x63D SWAP1 PUSH2 0xCB7 JUMP JUMPDEST DUP1 ISZERO PUSH2 0x688 JUMPI DUP1 PUSH1 0x1F LT PUSH2 0x65F JUMPI PUSH2 0x100 DUP1 DUP4 SLOAD DIV MUL DUP4 MSTORE SWAP2 PUSH1 0x20 ADD SWAP2 PUSH2 0x688 JUMP JUMPDEST DUP3 ADD SWAP2 SWAP1 PUSH0 MSTORE PUSH1 0x20 PUSH0 KECCAK256 SWAP1 JUMPDEST DUP2 SLOAD DUP2 MSTORE SWAP1 PUSH1 0x1 ADD SWAP1 PUSH1 0x20 ADD DUP1 DUP4 GT PUSH2 0x66B JUMPI DUP3 SWAP1 SUB PUSH1 0x1F AND DUP3 ADD SWAP2 JUMPDEST POP POP POP POP POP SWAP5 POP SWAP7 POP SWAP7 POP SWAP7 POP SWAP7 POP SWAP7 POP SWAP7 POP POP SWAP2 SWAP4 SWAP6 POP SWAP2 SWAP4 SWAP6 JUMP JUMPDEST PUSH0 DUP1 DUP1 SLOAD SWAP1 POP DUP3 LT PUSH2 0x6EC JUMPI PUSH1 0x40 MLOAD PUSH32 0x8C379A000000000000000000000000000000000000000000000000000000000 DUP2 MSTORE PUSH1 0x4 ADD PUSH2 0x6E3 SWAP1 PUSH2 0xD31 JUMP JUMPDEST PUSH1 0x40 MLOAD DUP1 SWAP2 SUB SWAP1 REVERT JUMPDEST PUSH0 DUP3 DUP2 SLOAD DUP2 LT PUSH2 0x6FF JUMPI PUSH2 0x6FE PUSH2 0xD4F JUMP JUMPDEST JUMPDEST SWAP1 PUSH0 MSTORE PUSH1 0x20 PUSH0 KECCAK256 SWAP1 PUSH1 0x5 MUL ADD PUSH1 0x3 ADD PUSH1 0x14 SWAP1 SLOAD SWAP1 PUSH2 0x100 EXP SWAP1 DIV PUSH1 0xFF AND SWAP1 POP SWAP2 SWAP1 POP JUMP JUMPDEST PUSH0 DUP2 GT PUSH2 0x765 JUMPI PUSH1 0x40 MLOAD PUSH32 0x8C379A000000000000000000000000000000000000000000000000000000000 DUP2 MSTORE PUSH1 0x4 ADD PUSH2 0x75C SWAP1 PUSH2 0xF1C JUMP JUMPDEST PUSH1 0x40 MLOAD DUP1 SWAP2 SUB SWAP1 REVERT JUMPDEST PUSH0 PUSH1 0x40 MLOAD DUP1 PUSH1 0xC0 ADD PUSH1 0x40 MSTORE DUP1 DUP6 DUP2 MSTORE PUSH1 0x20 ADD DUP5 DUP2 MSTORE PUSH1 0x20 ADD DUP4 DUP2 MSTORE PUSH1 0x20 ADD CALLER PUSH20 0xFFFFFFFFFFFFFFFFFFFFFFFFFFFFFFFFFFFFFFFF AND DUP2 MSTORE PUSH1 0x20 ADD PUSH1 0x1 ISZERO ISZERO DUP2 MSTORE PUSH1 0x20 ADD PUSH0 DUP2 MSTORE POP SWAP1 POP PUSH0 DUP2 SWAP1 DUP1 PUSH1 0x1 DUP2 SLOAD ADD DUP1 DUP3 SSTORE DUP1 SWAP2 POP POP PUSH1 0x1 SWAP1 SUB SWAP1 PUSH0 MSTORE PUSH1 0x20 PUSH0 KECCAK256 SWAP1 PUSH1 0x5 MUL ADD PUSH0 SWAP1 SWAP2 SWAP1 SWAP2 SWAP1 SWAP2 POP PUSH0 DUP3 ADD MLOAD DUP2 PUSH0 ADD SWAP1 DUP2 PUSH2 0x7E9 SWAP2 SWAP1 PUSH2 0x10D7 JUMP JUMPDEST POP PUSH1 0x20 DUP3 ADD MLOAD DUP2 PUSH1 0x1 ADD SWAP1 DUP2 PUSH2 0x7FF SWAP2 SWAP1 PUSH2 0x10D7 JUMP JUMPDEST POP PUSH1 0x40 DUP3 ADD MLOAD DUP2 PUSH1 0x2 ADD SSTORE PUSH1 0x60 DUP3 ADD MLOAD DUP2 PUSH1 0x3 ADD PUSH0 PUSH2 0x100 EXP DUP2 SLOAD DUP2 PUSH20 0xFFFFFFFFFFFFFFFFFFFFFFFFFFFFFFFFFFFFFFFF MUL NOT AND SWAP1 DUP4 PUSH20 0xFFFFFFFFFFFFFFFFFFFFFFFFFFFFFFFFFFFFFFFF AND MUL OR SWAP1 SSTORE POP PUSH1 0x80 DUP3 ADD MLOAD DUP2 PUSH1 0x3 ADD PUSH1 0x14 PUSH2 0x100 EXP DUP2 SLOAD DUP2 PUSH1 0xFF MUL NOT AND SWAP1 DUP4 ISZERO ISZERO MUL OR SWAP1 SSTORE POP PUSH1 0xA0 DUP3 ADD MLOAD DUP2 PUSH1 0x4 ADD SSTORE POP POP CALLER PUSH20 0xFFFFFFFFFFFFFFFFFFFFFFFFFFFFFFFFFFFFFFFF AND PUSH1 0x1 PUSH0 DUP1 SLOAD SWAP1 POP PUSH2 0x8A4 SWAP2 SWAP1 PUSH2 0x11A6 JUMP JUMPDEST PUSH32 0x633109EEC20320EDED000FC1E2634211AA7E92BA3F5B15FAF6DCDAFCA05094E4 PUSH1 0x40 MLOAD PUSH1 0x40 MLOAD DUP1 SWAP2 SUB SWAP1 LOG3 POP POP POP POP JUMP JUMPDEST PUSH0 PUSH1 0x40 MLOAD SWAP1 POP SWAP1 JUMP JUMPDEST PUSH0 DUP1 REVERT JUMPDEST PUSH0 DUP1 REVERT JUMPDEST PUSH0 DUP2 SWAP1 POP SWAP2 SWAP1 POP JUMP JUMPDEST PUSH2 0x8F9 DUP2 PUSH2 0x8E7 JUMP JUMPDEST DUP2 EQ PUSH2 0x903 JUMPI PUSH0 DUP1 REVERT JUMPDEST POP JUMP JUMPDEST PUSH0 DUP2 CALLDATALOAD SWAP1 POP PUSH2 0x914 DUP2 PUSH2 0x8F0 JUMP JUMPDEST SWAP3 SWAP2 POP POP JUMP JUMPDEST PUSH0 PUSH1 0x20 DUP3 DUP5 SUB SLT ISZERO PUSH2 0x92F JUMPI PUSH2 0x92E PUSH2 0x8DF JUMP JUMPDEST JUMPDEST PUSH0 PUSH2 0x93C DUP5 DUP3 DUP6 ADD PUSH2 0x906 JUMP JUMPDEST SWAP2 POP POP SWAP3 SWAP2 POP POP JUMP JUMPDEST PUSH0 DUP2 MLOAD SWAP1 POP SWAP2 SWAP1 POP JUMP JUMPDEST PUSH0 DUP3 DUP3 MSTORE PUSH1 0x20 DUP3 ADD SWAP1 POP SWAP3 SWAP2 POP POP JUMP JUMPDEST PUSH0 JUMPDEST DUP4 DUP2 LT ISZERO PUSH2 0x97C JUMPI DUP1 DUP3 ADD MLOAD DUP2 DUP5 ADD MSTORE PUSH1 0x20 DUP2 ADD SWAP1 POP PUSH2 0x961 JUMP JUMPDEST PUSH0 DUP5 DUP5 ADD MSTORE POP POP POP POP JUMP JUMPDEST PUSH0 PUSH1 0x1F NOT PUSH1 0x1F DUP4 ADD AND SWAP1 POP SWAP2 SWAP1 POP JUMP JUMPDEST PUSH0 PUSH2 0x9A1 DUP3 PUSH2 0x945 JUMP JUMPDEST PUSH2 0x9AB DUP2 DUP6 PUSH2 0x94F JUMP JUMPDEST SWAP4 POP PUSH2 0x9BB DUP2 DUP6 PUSH1 0x20 DUP7 ADD PUSH2 0x95F JUMP JUMPDEST PUSH2 0x9C4 DUP2 PUSH2 0x987 JUMP JUMPDEST DUP5 ADD SWAP2 POP POP SWAP3 SWAP2 POP POP JUMP JUMPDEST PUSH2 0x9D8 DUP2 PUSH2 0x8E7 JUMP JUMPDEST DUP3 MSTORE POP POP JUMP JUMPDEST PUSH0 PUSH20 0xFFFFFFFFFFFFFFFFFFFFFFFFFFFFFFFFFFFFFFFF DUP3 AND SWAP1 POP SWAP2 SWAP1 POP JUMP JUMPDEST PUSH0 PUSH2 0xA07 DUP3 PUSH2 0x9DE JUMP JUMPDEST SWAP1 POP SWAP2 SWAP1 POP JUMP JUMPDEST PUSH2 0xA17 DUP2 PUSH2 0x9FD JUMP JUMPDEST DUP3 MSTORE POP POP JUMP JUMPDEST PUSH0 DUP2 ISZERO ISZERO SWAP1 POP SWAP2 SWAP1 POP JUMP JUMPDEST PUSH2 0xA31 DUP2 PUSH2 0xA1D JUMP JUMPDEST DUP3 MSTORE POP POP JUMP JUMPDEST PUSH0 PUSH1 0xC0 DUP3 ADD SWAP1 POP DUP2 DUP2 SUB PUSH0 DUP4 ADD MSTORE PUSH2 0xA4F DUP2 DUP10 PUSH2 0x997 JUMP JUMPDEST SWAP1 POP DUP2 DUP2 SUB PUSH1 0x20 DUP4 ADD MSTORE PUSH2 0xA63 DUP2 DUP9 PUSH2 0x997 JUMP JUMPDEST SWAP1 POP PUSH2 0xA72 PUSH1 0x40 DUP4 ADD DUP8 PUSH2 0x9CF JUMP JUMPDEST PUSH2 0xA7F PUSH1 0x60 DUP4 ADD DUP7 PUSH2 0xA0E JUMP JUMPDEST PUSH2 0xA8C PUSH1 0x80 DUP4 ADD DUP6 PUSH2 0xA28 JUMP JUMPDEST PUSH2 0xA99 PUSH1 0xA0 DUP4 ADD DUP5 PUSH2 0x9CF JUMP JUMPDEST SWAP8 SWAP7 POP POP POP POP POP POP POP JUMP JUMPDEST PUSH0 PUSH1 0x20 DUP3 ADD SWAP1 POP PUSH2 0xAB7 PUSH0 DUP4 ADD DUP5 PUSH2 0x9CF JUMP JUMPDEST SWAP3 SWAP2 POP POP JUMP JUMPDEST PUSH0 PUSH1 0x20 DUP3 ADD SWAP1 POP PUSH2 0xAD0 PUSH0 DUP4 ADD DUP5 PUSH2 0xA28 JUMP JUMPDEST SWAP3 SWAP2 POP POP JUMP JUMPDEST PUSH0 DUP1 REVERT JUMPDEST PUSH0 DUP1 REVERT JUMPDEST PUSH32 0x4E487B7100000000000000000000000000000000000000000000000000000000 PUSH0 MSTORE PUSH1 0x41 PUSH1 0x4 MSTORE PUSH1 0x24 PUSH0 REVERT JUMPDEST PUSH2 0xB14 DUP3 PUSH2 0x987 JUMP JUMPDEST DUP2 ADD DUP2 DUP2 LT PUSH8 0xFFFFFFFFFFFFFFFF DUP3 GT OR ISZERO PUSH2 0xB33 JUMPI PUSH2 0xB32 PUSH2 0xADE JUMP JUMPDEST JUMPDEST DUP1 PUSH1 0x40 MSTORE POP POP POP JUMP JUMPDEST PUSH0 PUSH2 0xB45 PUSH2 0x8D6 JUMP JUMPDEST SWAP1 POP PUSH2 0xB51 DUP3 DUP3 PUSH2 0xB0B JUMP JUMPDEST SWAP2 SWAP1 POP JUMP JUMPDEST PUSH0 PUSH8 0xFFFFFFFFFFFFFFFF DUP3 GT ISZERO PUSH2 0xB70 JUMPI PUSH2 0xB6F PUSH2 0xADE JUMP JUMPDEST JUMPDEST PUSH2 0xB79 DUP3 PUSH2 0x987 JUMP JUMPDEST SWAP1 POP PUSH1 0x20 DUP2 ADD SWAP1 POP SWAP2 SWAP1 POP JUMP JUMPDEST DUP3 DUP2 DUP4 CALLDATACOPY PUSH0 DUP4 DUP4 ADD MSTORE POP POP POP JUMP JUMPDEST PUSH0 PUSH2 0xBA6 PUSH2 0xBA1 DUP5 PUSH2 0xB56 JUMP JUMPDEST PUSH2 0xB3C JUMP JUMPDEST SWAP1 POP DUP3 DUP2 MSTORE PUSH1 0x20 DUP2 ADD DUP5 DUP5 DUP5 ADD GT ISZERO PUSH2 0xBC2 JUMPI PUSH2 0xBC1 PUSH2 0xADA JUMP JUMPDEST JUMPDEST PUSH2 0xBCD DUP5 DUP3 DUP6 PUSH2 0xB86 JUMP JUMPDEST POP SWAP4 SWAP3 POP POP POP JUMP JUMPDEST PUSH0 DUP3 PUSH1 0x1F DUP4 ADD SLT PUSH2 0xBE9 JUMPI PUSH2 0xBE8 PUSH2 0xAD6 JUMP JUMPDEST JUMPDEST DUP2 CALLDATALOAD PUSH2 0xBF9 DUP5 DUP3 PUSH1 0x20 DUP7 ADD PUSH2 0xB94 JUMP JUMPDEST SWAP2 POP POP SWAP3 SWAP2 POP POP JUMP JUMPDEST PUSH0 DUP1 PUSH0 PUSH1 0x60 DUP5 DUP7 SUB SLT ISZERO PUSH2 0xC19 JUMPI PUSH2 0xC18 PUSH2 0x8DF JUMP JUMPDEST JUMPDEST PUSH0 DUP5 ADD CALLDATALOAD PUSH8 0xFFFFFFFFFFFFFFFF DUP2 GT ISZERO PUSH2 0xC36 JUMPI PUSH2 0xC35 PUSH2 0x8E3 JUMP JUMPDEST JUMPDEST PUSH2 0xC42 DUP7 DUP3 DUP8 ADD PUSH2 0xBD5 JUMP JUMPDEST SWAP4 POP POP PUSH1 0x20 DUP5 ADD CALLDATALOAD PUSH8 0xFFFFFFFFFFFFFFFF DUP2 GT ISZERO PUSH2 0xC63 JUMPI PUSH2 0xC62 PUSH2 0x8E3 JUMP JUMPDEST JUMPDEST PUSH2 0xC6F DUP7 DUP3 DUP8 ADD PUSH2 0xBD5 JUMP JUMPDEST SWAP3 POP POP PUSH1 0x40 PUSH2 0xC80 DUP7 DUP3 DUP8 ADD PUSH2 0x906 JUMP JUMPDEST SWAP2 POP POP SWAP3 POP SWAP3 POP SWAP3 JUMP JUMPDEST PUSH32 0x4E487B7100000000000000000000000000000000000000000000000000000000 PUSH0 MSTORE PUSH1 0x22 PUSH1 0x4 MSTORE PUSH1 0x24 PUSH0 REVERT JUMPDEST PUSH0 PUSH1 0x2 DUP3 DIV SWAP1 POP PUSH1 0x1 DUP3 AND DUP1 PUSH2 0xCCE JUMPI PUSH1 0x7F DUP3 AND SWAP2 POP JUMPDEST PUSH1 0x20 DUP3 LT DUP2 SUB PUSH2 0xCE1 JUMPI PUSH2 0xCE0 PUSH2 0xC8A JUMP JUMPDEST JUMPDEST POP SWAP2 SWAP1 POP JUMP JUMPDEST PUSH32 0x496E76616C69642063616D706169676E20696E64657800000000000000000000 PUSH0 DUP3 ADD MSTORE POP JUMP JUMPDEST PUSH0 PUSH2 0xD1B PUSH1 0x16 DUP4 PUSH2 0x94F JUMP JUMPDEST SWAP2 POP PUSH2 0xD26 DUP3 PUSH2 0xCE7 JUMP JUMPDEST PUSH1 0x20 DUP3 ADD SWAP1 POP SWAP2 SWAP1 POP JUMP JUMPDEST PUSH0 PUSH1 0x20 DUP3 ADD SWAP1 POP DUP2 DUP2 SUB PUSH0 DUP4 ADD MSTORE PUSH2 0xD48 DUP2 PUSH2 0xD0F JUMP JUMPDEST SWAP1 POP SWAP2 SWAP1 POP JUMP JUMPDEST PUSH32 0x4E487B7100000000000000000000000000000000000000000000000000000000 PUSH0 MSTORE PUSH1 0x32 PUSH1 0x4 MSTORE PUSH1 0x24 PUSH0 REVERT JUMPDEST PUSH32 0x43616D706169676E206973206E6F742061637469766500000000000000000000 PUSH0 DUP3 ADD MSTORE POP JUMP JUMPDEST PUSH0 PUSH2 0xDB0 PUSH1 0x16 DUP4 PUSH2 0x94F JUMP JUMPDEST SWAP2 POP PUSH2 0xDBB DUP3 PUSH2 0xD7C JUMP JUMPDEST PUSH1 0x20 DUP3 ADD SWAP1 POP SWAP2 SWAP1 POP JUMP JUMPDEST PUSH0 PUSH1 0x20 DUP3 ADD SWAP1 POP DUP2 DUP2 SUB PUSH0 DUP4 ADD MSTORE PUSH2 0xDDD DUP2 PUSH2 0xDA4 JUMP JUMPDEST SWAP1 POP SWAP2 SWAP1 POP JUMP JUMPDEST PUSH32 0x436F6E747269627574696F6E20616D6F756E74206D7573742062652067726561 PUSH0 DUP3 ADD MSTORE PUSH32 0x746572207468616E203000000000000000000000000000000000000000000000 PUSH1 0x20 DUP3 ADD MSTORE POP JUMP JUMPDEST PUSH0 PUSH2 0xE3E PUSH1 0x2A DUP4 PUSH2 0x94F JUMP JUMPDEST SWAP2 POP PUSH2 0xE49 DUP3 PUSH2 0xDE4 JUMP JUMPDEST PUSH1 0x40 DUP3 ADD SWAP1 POP SWAP2 SWAP1 POP JUMP JUMPDEST PUSH0 PUSH1 0x20 DUP3 ADD SWAP1 POP DUP2 DUP2 SUB PUSH0 DUP4 ADD MSTORE PUSH2 0xE6B DUP2 PUSH2 0xE32 JUMP JUMPDEST SWAP1 POP SWAP2 SWAP1 POP JUMP JUMPDEST PUSH32 0x4E487B7100000000000000000000000000000000000000000000000000000000 PUSH0 MSTORE PUSH1 0x11 PUSH1 0x4 MSTORE PUSH1 0x24 PUSH0 REVERT JUMPDEST PUSH0 PUSH2 0xEA9 DUP3 PUSH2 0x8E7 JUMP JUMPDEST SWAP2 POP PUSH2 0xEB4 DUP4 PUSH2 0x8E7 JUMP JUMPDEST SWAP3 POP DUP3 DUP3 ADD SWAP1 POP DUP1 DUP3 GT ISZERO PUSH2 0xECC JUMPI PUSH2 0xECB PUSH2 0xE72 JUMP JUMPDEST JUMPDEST SWAP3 SWAP2 POP POP JUMP JUMPDEST PUSH32 0x476F616C206D7573742062652067726561746572207468616E20300000000000 PUSH0 DUP3 ADD MSTORE POP JUMP JUMPDEST PUSH0 PUSH2 0xF06 PUSH1 0x1B DUP4 PUSH2 0x94F JUMP JUMPDEST SWAP2 POP PUSH2 0xF11 DUP3 PUSH2 0xED2 JUMP JUMPDEST PUSH1 0x20 DUP3 ADD SWAP1 POP SWAP2 SWAP1 POP JUMP JUMPDEST PUSH0 PUSH1 0x20 DUP3 ADD SWAP1 POP DUP2 DUP2 SUB PUSH0 DUP4 ADD MSTORE PUSH2 0xF33 DUP2 PUSH2 0xEFA JUMP JUMPDEST SWAP1 POP SWAP2 SWAP1 POP JUMP JUMPDEST PUSH0 DUP2 SWAP1 POP DUP2 PUSH0 MSTORE PUSH1 0x20 PUSH0 KECCAK256 SWAP1 POP SWAP2 SWAP1 POP JUMP JUMPDEST PUSH0 PUSH1 0x20 PUSH1 0x1F DUP4 ADD DIV SWAP1 POP SWAP2 SWAP1 POP JUMP JUMPDEST PUSH0 DUP3 DUP3 SHL SWAP1 POP SWAP3 SWAP2 POP POP JUMP JUMPDEST PUSH0 PUSH1 0x8 DUP4 MUL PUSH2 0xF96 PUSH32 0xFFFFFFFFFFFFFFFFFFFFFFFFFFFFFFFFFFFFFFFFFFFFFFFFFFFFFFFFFFFFFFFF DUP3 PUSH2 0xF5B JUMP JUMPDEST PUSH2 0xFA0 DUP7 DUP4 PUSH2 0xF5B JUMP JUMPDEST SWAP6 POP DUP1 NOT DUP5 AND SWAP4 POP DUP1 DUP7 AND DUP5 OR SWAP3 POP POP POP SWAP4 SWAP3 POP POP POP JUMP JUMPDEST PUSH0 DUP2 SWAP1 POP SWAP2 SWAP1 POP JUMP JUMPDEST PUSH0 PUSH2 0xFDB PUSH2 0xFD6 PUSH2 0xFD1 DUP5 PUSH2 0x8E7 JUMP JUMPDEST PUSH2 0xFB8 JUMP JUMPDEST PUSH2 0x8E7 JUMP JUMPDEST SWAP1 POP SWAP2 SWAP1 POP JUMP JUMPDEST PUSH0 DUP2 SWAP1 POP SWAP2 SWAP1 POP JUMP JUMPDEST PUSH2 0xFF4 DUP4 PUSH2 0xFC1 JUMP JUMPDEST PUSH2 0x1008 PUSH2 0x1000 DUP3 PUSH2 0xFE2 JUMP JUMPDEST DUP5 DUP5 SLOAD PUSH2 0xF67 JUMP JUMPDEST DUP3 SSTORE POP POP POP POP JUMP JUMPDEST PUSH0 SWAP1 JUMP JUMPDEST PUSH2 0x101C PUSH2 0x1010 JUMP JUMPDEST PUSH2 0x1027 DUP2 DUP5 DUP5 PUSH2 0xFEB JUMP JUMPDEST POP POP POP JUMP JUMPDEST JUMPDEST DUP2 DUP2 LT ISZERO PUSH2 0x104A JUMPI PUSH2 0x103F PUSH0 DUP3 PUSH2 0x1014 JUMP JUMPDEST PUSH1 0x1 DUP2 ADD SWAP1 POP PUSH2 0x102D JUMP JUMPDEST POP POP JUMP JUMPDEST PUSH1 0x1F DUP3 GT ISZERO PUSH2 0x108F JUMPI PUSH2 0x1060 DUP2 PUSH2 0xF3A JUMP JUMPDEST PUSH2 0x1069 DUP5 PUSH2 0xF4C JUMP JUMPDEST DUP2 ADD PUSH1 0x20 DUP6 LT ISZERO PUSH2 0x1078 JUMPI DUP2 SWAP1 POP JUMPDEST PUSH2 0x108C PUSH2 0x1084 DUP6 PUSH2 0xF4C JUMP JUMPDEST DUP4 ADD DUP3 PUSH2 0x102C JUMP JUMPDEST POP POP JUMPDEST POP POP POP JUMP JUMPDEST PUSH0 DUP3 DUP3 SHR SWAP1 POP SWAP3 SWAP2 POP POP JUMP JUMPDEST PUSH0 PUSH2 0x10AF PUSH0 NOT DUP5 PUSH1 0x8 MUL PUSH2 0x1094 JUMP JUMPDEST NOT DUP1 DUP4 AND SWAP2 POP POP SWAP3 SWAP2 POP POP JUMP JUMPDEST PUSH0 PUSH2 0x10C7 DUP4 DUP4 PUSH2 0x10A0 JUMP JUMPDEST SWAP2 POP DUP3 PUSH1 0x2 MUL DUP3 OR SWAP1 POP SWAP3 SWAP2 POP POP JUMP JUMPDEST PUSH2 0x10E0 DUP3 PUSH2 0x945 JUMP JUMPDEST PUSH8 0xFFFFFFFFFFFFFFFF DUP2 GT ISZERO PUSH2 0x10F9 JUMPI PUSH2 0x10F8 PUSH2 0xADE JUMP JUMPDEST JUMPDEST PUSH2 0x1103 DUP3 SLOAD PUSH2 0xCB7 JUMP JUMPDEST PUSH2 0x110E DUP3 DUP3 DUP6 PUSH2 0x104E JUMP JUMPDEST PUSH0 PUSH1 0x20 SWAP1 POP PUSH1 0x1F DUP4 GT PUSH1 0x1 DUP2 EQ PUSH2 0x113F JUMPI PUSH0 DUP5 ISZERO PUSH2 0x112D JUMPI DUP3 DUP8 ADD MLOAD SWAP1 POP JUMPDEST PUSH2 0x1137 DUP6 DUP3 PUSH2 0x10BC JUMP JUMPDEST DUP7 SSTORE POP PUSH2 0x119E JUMP JUMPDEST PUSH1 0x1F NOT DUP5 AND PUSH2 0x114D DUP7 PUSH2 0xF3A JUMP JUMPDEST PUSH0 JUMPDEST DUP3 DUP2 LT ISZERO PUSH2 0x1174 JUMPI DUP5 DUP10 ADD MLOAD DUP3 SSTORE PUSH1 0x1 DUP3 ADD SWAP2 POP PUSH1 0x20 DUP6 ADD SWAP5 POP PUSH1 0x20 DUP2 ADD SWAP1 POP PUSH2 0x114F JUMP JUMPDEST DUP7 DUP4 LT ISZERO PUSH2 0x1191 JUMPI DUP5 DUP10 ADD MLOAD PUSH2 0x118D PUSH1 0x1F DUP10 AND DUP3 PUSH2 0x10A0 JUMP JUMPDEST DUP4 SSTORE POP JUMPDEST PUSH1 0x1 PUSH1 0x2 DUP9 MUL ADD DUP9 SSTORE POP POP POP JUMPDEST POP POP POP POP POP POP JUMP JUMPDEST PUSH0 PUSH2 0x11B0 DUP3 PUSH2 0x8E7 JUMP JUMPDEST SWAP2 POP PUSH2 0x11BB DUP4 PUSH2 0x8E7 JUMP JUMPDEST SWAP3 POP DUP3 DUP3 SUB SWAP1 POP DUP2 DUP2 GT ISZERO PUSH2 0x11D3 JUMPI PUSH2 0x11D2 PUSH2 0xE72 JUMP JUMPDEST JUMPDEST SWAP3 SWAP2 POP POP JUMP INVALID LOG2 PUSH5 0x6970667358 0x22 SLT KECCAK256 DUP2 0xCA PUSH24 0x87E74EA55A5971166561C84FC33F40DBEF270102361EE7D3 0x23 0xA9 DIV SWAP16 0xA6 PUSH5 0x736F6C6343 STOP ADDMOD AND STOP CALLER "
				},
				"gasEstimates": {
					"creation": {
						"codeDepositCost": "924600",
						"executionCost": "960",
						"totalCost": "925560"
					},
					"external": {
						"campaigns(uint256)": "infinite",
						"contribute(uint256)": "infinite",
						"createCampaign(string,string,uint256)": "infinite",
						"getCampaignCount()": "2440",
						"getCampaignDetails(uint256)": "infinite",
						"isCampaignActive(uint256)": "7176"
					}
				},
				"methodIdentifiers": {
					"campaigns(uint256)": "141961bc",
					"contribute(uint256)": "c1cbbca7",
					"createCampaign(string,string,uint256)": "ffa56a57",
					"getCampaignCount()": "6caa9218",
					"getCampaignDetails(uint256)": "d993de62",
					"isCampaignActive(uint256)": "e1e33009"
				}
			},
			"storageLayout": {
				"storage": [
					{
						"astId": 18,
						"contract": "dummy.sol:FundraisingCampaign",
						"label": "campaigns",
						"offset": 0,
						"slot": "0",
						"type": "t_array(t_struct(Campaign)14_storage)dyn_storage"
					}
				],
				"types": {
					"t_address": {
						"encoding": "inplace",
						"label": "address",
						"numberOfBytes": "20"
					},
					"t_array(t_struct(Campaign)14_storage)dyn_storage": {
						"base": "t_struct(Campaign)14_storage",
						"encoding": "dynamic_array",
						"label": "struct FundraisingCampaign.Campaign[]",
						"numberOfBytes": "32"
					},
					"t_bool": {
						"encoding": "inplace",
						"label": "bool",
						"numberOfBytes": "1"
					},
					"t_string_storage": {
						"encoding": "bytes",
						"label": "string",
						"numberOfBytes": "32"
					},
					"t_struct(Campaign)14_storage": {
						"encoding": "inplace",
						"label": "struct FundraisingCampaign.Campaign",
						"members": [
							{
								"astId": 3,
								"contract": "dummy.sol:FundraisingCampaign",
								"label": "name",
								"offset": 0,
								"slot": "0",
								"type": "t_string_storage"
							},
							{
								"astId": 5,
								"contract": "dummy.sol:FundraisingCampaign",
								"label": "description",
								"offset": 0,
								"slot": "1",
								"type": "t_string_storage"
							},
							{
								"astId": 7,
								"contract": "dummy.sol:FundraisingCampaign",
								"label": "goal",
								"offset": 0,
								"slot": "2",
								"type": "t_uint256"
							},
							{
								"astId": 9,
								"contract": "dummy.sol:FundraisingCampaign",
								"label": "owner",
								"offset": 0,
								"slot": "3",
								"type": "t_address"
							},
							{
								"astId": 11,
								"contract": "dummy.sol:FundraisingCampaign",
								"label": "isActive",
								"offset": 20,
								"slot": "3",
								"type": "t_bool"
							},
							{
								"astId": 13,
								"contract": "dummy.sol:FundraisingCampaign",
								"label": "currentAmount",
								"offset": 0,
								"slot": "4",
								"type": "t_uint256"
							}
						],
						"numberOfBytes": "160"
					},
					"t_uint256": {
						"encoding": "inplace",
						"label": "uint256",
						"numberOfBytes": "32"
					}
				}
			},
			"userdoc": {
				"kind": "user",
				"methods": {},
				"version": 1
			}
		}
	}
}