{
	"dummy_checker_task5.sol": {
		"CrowdSale": {
			"abi": [
				{
					"inputs": [],
					"stateMutability": "nonpayable",
					"type": "constructor"
				},
				{
					"inputs": [],
					"name": "allowedtime",
					"outputs": [
						{
							"internalType": "uint256",
							"name": "",
							"type": "uint256"
						}
					],
					"stateMutability": "view",
					"type": "function"
				},
				{
					"inputs": [],
					"name": "balanceOf",
					"outputs": [
						{
							"internalType": "uint256",
							"name": "",
							"type": "uint256"
						}
					],
					"stateMutability": "view",
					"type": "function"
				},
				{
					"inputs": [],
					"name": "owner",
					"outputs": [
						{
							"internalType": "address",
							"name": "",
							"type": "address"
						}
					],
					"stateMutability": "view",
					"type": "function"
				},
				{
					"inputs": [
						{
							"internalType": "address payable",
							"name": "to",
							"type": "address"
						},
						{
							"internalType": "uint256",
							"name": "amount",
							"type": "uint256"
						}
					],
					"name": "transfer",
					"outputs": [],
					"stateMutability": "payable",
					"type": "function"
				}
			],
			"devdoc": {
				"kind": "dev",
				"methods": {},
				"version": 1
			},
			"evm": {
				"assembly": "    /* \"dummy_checker_task5.sol\":58:860  contract CrowdSale{... */\n  mstore(0x40, 0x80)\n    /* \"dummy_checker_task5.sol\":138:147  1 minutes */\n  0x3c\n    /* \"dummy_checker_task5.sol\":112:147  uint public allowedtime = 1 minutes */\n  0x01\n  sstore\n    /* \"dummy_checker_task5.sol\":156:208  constructor()  {... */\n  callvalue\n  dup1\n  iszero\n  tag_1\n  jumpi\n  0x00\n  dup1\n  revert\ntag_1:\n  pop\n    /* \"dummy_checker_task5.sol\":190:200  msg.sender */\n  caller\n    /* \"dummy_checker_task5.sol\":182:187  owner */\n  0x00\n  dup1\n    /* \"dummy_checker_task5.sol\":182:200  owner = msg.sender */\n  0x0100\n  exp\n  dup2\n  sload\n  dup2\n  0xffffffffffffffffffffffffffffffffffffffff\n  mul\n  not\n  and\n  swap1\n  dup4\n  0xffffffffffffffffffffffffffffffffffffffff\n  and\n  mul\n  or\n  swap1\n  sstore\n  pop\n    /* \"dummy_checker_task5.sol\":58:860  contract CrowdSale{... */\n  dataSize(sub_0)\n  dup1\n  dataOffset(sub_0)\n  0x00\n  codecopy\n  0x00\n  return\nstop\n\nsub_0: assembly {\n        /* \"dummy_checker_task5.sol\":58:860  contract CrowdSale{... */\n      mstore(0x40, 0x80)\n      jumpi(tag_1, lt(calldatasize, 0x04))\n      shr(0xe0, calldataload(0x00))\n      dup1\n      0x540473e8\n      eq\n      tag_2\n      jumpi\n      dup1\n      0x722713f7\n      eq\n      tag_3\n      jumpi\n      dup1\n      0x8da5cb5b\n      eq\n      tag_4\n      jumpi\n      dup1\n      0xa9059cbb\n      eq\n      tag_5\n      jumpi\n    tag_1:\n      0x00\n      dup1\n      revert\n        /* \"dummy_checker_task5.sol\":112:147  uint public allowedtime = 1 minutes */\n    tag_2:\n      callvalue\n      dup1\n      iszero\n      tag_6\n      jumpi\n      0x00\n      dup1\n      revert\n    tag_6:\n      pop\n      tag_7\n      tag_8\n      jump\t// in\n    tag_7:\n      mload(0x40)\n      tag_9\n      swap2\n      swap1\n      tag_10\n      jump\t// in\n    tag_9:\n      mload(0x40)\n      dup1\n      swap2\n      sub\n      swap1\n      return\n        /* \"dummy_checker_task5.sol\":757:853  function balanceOf() external view returns(uint) {... */\n    tag_3:\n      callvalue\n      dup1\n      iszero\n      tag_11\n      jumpi\n      0x00\n      dup1\n      revert\n    tag_11:\n      pop\n      tag_12\n      tag_13\n      jump\t// in\n    tag_12:\n      mload(0x40)\n      tag_14\n      swap2\n      swap1\n      tag_10\n      jump\t// in\n    tag_14:\n      mload(0x40)\n      dup1\n      swap2\n      sub\n      swap1\n      return\n        /* \"dummy_checker_task5.sol\":85:105  address public owner */\n    tag_4:\n      callvalue\n      dup1\n      iszero\n      tag_15\n      jumpi\n      0x00\n      dup1\n      revert\n    tag_15:\n      pop\n      tag_16\n      tag_17\n      jump\t// in\n    tag_16:\n      mload(0x40)\n      tag_18\n      swap2\n      swap1\n      tag_19\n      jump\t// in\n    tag_18:\n      mload(0x40)\n      dup1\n      swap2\n      sub\n      swap1\n      return\n        /* \"dummy_checker_task5.sol\":327:743  function transfer(address payable   to, uint amount) public payable  abc{... */\n    tag_5:\n      tag_20\n      0x04\n      dup1\n      calldatasize\n      sub\n      dup2\n      add\n      swap1\n      tag_21\n      swap2\n      swap1\n      tag_22\n      jump\t// in\n    tag_21:\n      tag_23\n      jump\t// in\n    tag_20:\n      stop\n        /* \"dummy_checker_task5.sol\":112:147  uint public allowedtime = 1 minutes */\n    tag_8:\n      sload(0x01)\n      dup2\n      jump\t// out\n        /* \"dummy_checker_task5.sol\":757:853  function balanceOf() external view returns(uint) {... */\n    tag_13:\n        /* \"dummy_checker_task5.sol\":800:804  uint */\n      0x00\n        /* \"dummy_checker_task5.sol\":824:845  address(this).balance */\n      selfbalance\n        /* \"dummy_checker_task5.sol\":817:845  return address(this).balance */\n      swap1\n      pop\n        /* \"dummy_checker_task5.sol\":757:853  function balanceOf() external view returns(uint) {... */\n      swap1\n      jump\t// out\n        /* \"dummy_checker_task5.sol\":85:105  address public owner */\n    tag_17:\n      0x00\n      dup1\n      sload\n      swap1\n      0x0100\n      exp\n      swap1\n      div\n      0xffffffffffffffffffffffffffffffffffffffff\n      and\n      dup2\n      jump\t// out\n        /* \"dummy_checker_task5.sol\":327:743  function transfer(address payable   to, uint amount) public payable  abc{... */\n    tag_23:\n        /* \"dummy_checker_task5.sol\":421:428  5 ether */\n      0x4563918244f40000\n        /* \"dummy_checker_task5.sol\":410:419  msg.value */\n      callvalue\n        /* \"dummy_checker_task5.sol\":410:428  msg.value< 5 ether */\n      lt\n        /* \"dummy_checker_task5.sol\":407:602  if(msg.value< 5 ether  ){... */\n      iszero\n      tag_27\n      jumpi\n        /* \"dummy_checker_task5.sol\":442:481  revert(\"minimum contribution: 5 ether\") */\n      mload(0x40)\n      0x08c379a000000000000000000000000000000000000000000000000000000000\n      dup2\n      mstore\n      0x04\n      add\n      tag_28\n      swap1\n      tag_29\n      jump\t// in\n    tag_28:\n      mload(0x40)\n      dup1\n      swap2\n      sub\n      swap1\n      revert\n        /* \"dummy_checker_task5.sol\":407:602  if(msg.value< 5 ether  ){... */\n    tag_27:\n        /* \"dummy_checker_task5.sol\":516:524  20 ether */\n      0x01158e460913d00000\n        /* \"dummy_checker_task5.sol\":505:514  msg.value */\n      callvalue\n        /* \"dummy_checker_task5.sol\":505:524  msg.value> 20 ether */\n      gt\n        /* \"dummy_checker_task5.sol\":502:602  if(msg.value> 20 ether ){... */\n      iszero\n      tag_31\n      jumpi\n        /* \"dummy_checker_task5.sol\":545:584  revert(\"maximum contribution 20 ether\") */\n      mload(0x40)\n      0x08c379a000000000000000000000000000000000000000000000000000000000\n      dup2\n      mstore\n      0x04\n      add\n      tag_32\n      swap1\n      tag_33\n      jump\t// in\n    tag_32:\n      mload(0x40)\n      dup1\n      swap2\n      sub\n      swap1\n      revert\n        /* \"dummy_checker_task5.sol\":502:602  if(msg.value> 20 ether ){... */\n    tag_31:\n        /* \"dummy_checker_task5.sol\":664:676  bool success */\n      0x00\n        /* \"dummy_checker_task5.sol\":681:683  to */\n      dup3\n        /* \"dummy_checker_task5.sol\":681:688  to.call */\n      0xffffffffffffffffffffffffffffffffffffffff\n      and\n        /* \"dummy_checker_task5.sol\":695:701  amount */\n      dup3\n        /* \"dummy_checker_task5.sol\":681:706  to.call{value:amount}(\"\") */\n      mload(0x40)\n      tag_34\n      swap1\n      tag_35\n      jump\t// in\n    tag_34:\n      0x00\n      mload(0x40)\n      dup1\n      dup4\n      sub\n      dup2\n      dup6\n      dup8\n      gas\n      call\n      swap3\n      pop\n      pop\n      pop\n      returndatasize\n      dup1\n      0x00\n      dup2\n      eq\n      tag_38\n      jumpi\n      mload(0x40)\n      swap2\n      pop\n      and(add(returndatasize, 0x3f), not(0x1f))\n      dup3\n      add\n      0x40\n      mstore\n      returndatasize\n      dup3\n      mstore\n      returndatasize\n      0x00\n      0x20\n      dup5\n      add\n      returndatacopy\n      jump(tag_37)\n    tag_38:\n      0x60\n      swap2\n      pop\n    tag_37:\n      pop\n        /* \"dummy_checker_task5.sol\":663:706  (bool success,) = to.call{value:amount}(\"\") */\n      pop\n      swap1\n      pop\n        /* \"dummy_checker_task5.sol\":721:728  success */\n      dup1\n        /* \"dummy_checker_task5.sol\":713:729  require(success) */\n      tag_39\n      jumpi\n      0x00\n      dup1\n      revert\n    tag_39:\n        /* \"dummy_checker_task5.sol\":399:743  {... */\n      pop\n        /* \"dummy_checker_task5.sol\":327:743  function transfer(address payable   to, uint amount) public payable  abc{... */\n      pop\n      pop\n      jump\t// out\n        /* \"#utility.yul\":7:84   */\n    tag_40:\n        /* \"#utility.yul\":44:51   */\n      0x00\n        /* \"#utility.yul\":73:78   */\n      dup2\n        /* \"#utility.yul\":62:78   */\n      swap1\n      pop\n        /* \"#utility.yul\":7:84   */\n      swap2\n      swap1\n      pop\n      jump\t// out\n        /* \"#utility.yul\":90:208   */\n    tag_41:\n        /* \"#utility.yul\":177:201   */\n      tag_64\n        /* \"#utility.yul\":195:200   */\n      dup2\n        /* \"#utility.yul\":177:201   */\n      tag_40\n      jump\t// in\n    tag_64:\n        /* \"#utility.yul\":172:175   */\n      dup3\n        /* \"#utility.yul\":165:202   */\n      mstore\n        /* \"#utility.yul\":90:208   */\n      pop\n      pop\n      jump\t// out\n        /* \"#utility.yul\":214:436   */\n    tag_10:\n        /* \"#utility.yul\":307:311   */\n      0x00\n        /* \"#utility.yul\":345:347   */\n      0x20\n        /* \"#utility.yul\":334:343   */\n      dup3\n        /* \"#utility.yul\":330:348   */\n      add\n        /* \"#utility.yul\":322:348   */\n      swap1\n      pop\n        /* \"#utility.yul\":358:429   */\n      tag_66\n        /* \"#utility.yul\":426:427   */\n      0x00\n        /* \"#utility.yul\":415:424   */\n      dup4\n        /* \"#utility.yul\":411:428   */\n      add\n        /* \"#utility.yul\":402:408   */\n      dup5\n        /* \"#utility.yul\":358:429   */\n      tag_41\n      jump\t// in\n    tag_66:\n        /* \"#utility.yul\":214:436   */\n      swap3\n      swap2\n      pop\n      pop\n      jump\t// out\n        /* \"#utility.yul\":442:568   */\n    tag_42:\n        /* \"#utility.yul\":479:486   */\n      0x00\n        /* \"#utility.yul\":519:561   */\n      0xffffffffffffffffffffffffffffffffffffffff\n        /* \"#utility.yul\":512:517   */\n      dup3\n        /* \"#utility.yul\":508:562   */\n      and\n        /* \"#utility.yul\":497:562   */\n      swap1\n      pop\n        /* \"#utility.yul\":442:568   */\n      swap2\n      swap1\n      pop\n      jump\t// out\n        /* \"#utility.yul\":574:670   */\n    tag_43:\n        /* \"#utility.yul\":611:618   */\n      0x00\n        /* \"#utility.yul\":640:664   */\n      tag_69\n        /* \"#utility.yul\":658:663   */\n      dup3\n        /* \"#utility.yul\":640:664   */\n      tag_42\n      jump\t// in\n    tag_69:\n        /* \"#utility.yul\":629:664   */\n      swap1\n      pop\n        /* \"#utility.yul\":574:670   */\n      swap2\n      swap1\n      pop\n      jump\t// out\n        /* \"#utility.yul\":676:794   */\n    tag_44:\n        /* \"#utility.yul\":763:787   */\n      tag_71\n        /* \"#utility.yul\":781:786   */\n      dup2\n        /* \"#utility.yul\":763:787   */\n      tag_43\n      jump\t// in\n    tag_71:\n        /* \"#utility.yul\":758:761   */\n      dup3\n        /* \"#utility.yul\":751:788   */\n      mstore\n        /* \"#utility.yul\":676:794   */\n      pop\n      pop\n      jump\t// out\n        /* \"#utility.yul\":800:1022   */\n    tag_19:\n        /* \"#utility.yul\":893:897   */\n      0x00\n        /* \"#utility.yul\":931:933   */\n      0x20\n        /* \"#utility.yul\":920:929   */\n      dup3\n        /* \"#utility.yul\":916:934   */\n      add\n        /* \"#utility.yul\":908:934   */\n      swap1\n      pop\n        /* \"#utility.yul\":944:1015   */\n      tag_73\n        /* \"#utility.yul\":1012:1013   */\n      0x00\n        /* \"#utility.yul\":1001:1010   */\n      dup4\n        /* \"#utility.yul\":997:1014   */\n      add\n        /* \"#utility.yul\":988:994   */\n      dup5\n        /* \"#utility.yul\":944:1015   */\n      tag_44\n      jump\t// in\n    tag_73:\n        /* \"#utility.yul\":800:1022   */\n      swap3\n      swap2\n      pop\n      pop\n      jump\t// out\n        /* \"#utility.yul\":1109:1226   */\n    tag_46:\n        /* \"#utility.yul\":1218:1219   */\n      0x00\n        /* \"#utility.yul\":1215:1216   */\n      dup1\n        /* \"#utility.yul\":1208:1220   */\n      revert\n        /* \"#utility.yul\":1355:1459   */\n    tag_48:\n        /* \"#utility.yul\":1400:1407   */\n      0x00\n        /* \"#utility.yul\":1429:1453   */\n      tag_78\n        /* \"#utility.yul\":1447:1452   */\n      dup3\n        /* \"#utility.yul\":1429:1453   */\n      tag_42\n      jump\t// in\n    tag_78:\n        /* \"#utility.yul\":1418:1453   */\n      swap1\n      pop\n        /* \"#utility.yul\":1355:1459   */\n      swap2\n      swap1\n      pop\n      jump\t// out\n        /* \"#utility.yul\":1465:1603   */\n    tag_49:\n        /* \"#utility.yul\":1546:1578   */\n      tag_80\n        /* \"#utility.yul\":1572:1577   */\n      dup2\n        /* \"#utility.yul\":1546:1578   */\n      tag_48\n      jump\t// in\n    tag_80:\n        /* \"#utility.yul\":1539:1544   */\n      dup2\n        /* \"#utility.yul\":1536:1579   */\n      eq\n        /* \"#utility.yul\":1526:1597   */\n      tag_81\n      jumpi\n        /* \"#utility.yul\":1593:1594   */\n      0x00\n        /* \"#utility.yul\":1590:1591   */\n      dup1\n        /* \"#utility.yul\":1583:1595   */\n      revert\n        /* \"#utility.yul\":1526:1597   */\n    tag_81:\n        /* \"#utility.yul\":1465:1603   */\n      pop\n      jump\t// out\n        /* \"#utility.yul\":1609:1764   */\n    tag_50:\n        /* \"#utility.yul\":1663:1668   */\n      0x00\n        /* \"#utility.yul\":1701:1707   */\n      dup2\n        /* \"#utility.yul\":1688:1708   */\n      calldataload\n        /* \"#utility.yul\":1679:1708   */\n      swap1\n      pop\n        /* \"#utility.yul\":1717:1758   */\n      tag_83\n        /* \"#utility.yul\":1752:1757   */\n      dup2\n        /* \"#utility.yul\":1717:1758   */\n      tag_49\n      jump\t// in\n    tag_83:\n        /* \"#utility.yul\":1609:1764   */\n      swap3\n      swap2\n      pop\n      pop\n      jump\t// out\n        /* \"#utility.yul\":1770:1892   */\n    tag_51:\n        /* \"#utility.yul\":1843:1867   */\n      tag_85\n        /* \"#utility.yul\":1861:1866   */\n      dup2\n        /* \"#utility.yul\":1843:1867   */\n      tag_40\n      jump\t// in\n    tag_85:\n        /* \"#utility.yul\":1836:1841   */\n      dup2\n        /* \"#utility.yul\":1833:1868   */\n      eq\n        /* \"#utility.yul\":1823:1886   */\n      tag_86\n      jumpi\n        /* \"#utility.yul\":1882:1883   */\n      0x00\n        /* \"#utility.yul\":1879:1880   */\n      dup1\n        /* \"#utility.yul\":1872:1884   */\n      revert\n        /* \"#utility.yul\":1823:1886   */\n    tag_86:\n        /* \"#utility.yul\":1770:1892   */\n      pop\n      jump\t// out\n        /* \"#utility.yul\":1898:2037   */\n    tag_52:\n        /* \"#utility.yul\":1944:1949   */\n      0x00\n        /* \"#utility.yul\":1982:1988   */\n      dup2\n        /* \"#utility.yul\":1969:1989   */\n      calldataload\n        /* \"#utility.yul\":1960:1989   */\n      swap1\n      pop\n        /* \"#utility.yul\":1998:2031   */\n      tag_88\n        /* \"#utility.yul\":2025:2030   */\n      dup2\n        /* \"#utility.yul\":1998:2031   */\n      tag_51\n      jump\t// in\n    tag_88:\n        /* \"#utility.yul\":1898:2037   */\n      swap3\n      swap2\n      pop\n      pop\n      jump\t// out\n        /* \"#utility.yul\":2043:2533   */\n    tag_22:\n        /* \"#utility.yul\":2119:2125   */\n      0x00\n        /* \"#utility.yul\":2127:2133   */\n      dup1\n        /* \"#utility.yul\":2176:2178   */\n      0x40\n        /* \"#utility.yul\":2164:2173   */\n      dup4\n        /* \"#utility.yul\":2155:2162   */\n      dup6\n        /* \"#utility.yul\":2151:2174   */\n      sub\n        /* \"#utility.yul\":2147:2179   */\n      slt\n        /* \"#utility.yul\":2144:2263   */\n      iszero\n      tag_90\n      jumpi\n        /* \"#utility.yul\":2182:2261   */\n      tag_91\n      tag_46\n      jump\t// in\n    tag_91:\n        /* \"#utility.yul\":2144:2263   */\n    tag_90:\n        /* \"#utility.yul\":2302:2303   */\n      0x00\n        /* \"#utility.yul\":2327:2388   */\n      tag_92\n        /* \"#utility.yul\":2380:2387   */\n      dup6\n        /* \"#utility.yul\":2371:2377   */\n      dup3\n        /* \"#utility.yul\":2360:2369   */\n      dup7\n        /* \"#utility.yul\":2356:2378   */\n      add\n        /* \"#utility.yul\":2327:2388   */\n      tag_50\n      jump\t// in\n    tag_92:\n        /* \"#utility.yul\":2317:2388   */\n      swap3\n      pop\n        /* \"#utility.yul\":2273:2398   */\n      pop\n        /* \"#utility.yul\":2437:2439   */\n      0x20\n        /* \"#utility.yul\":2463:2516   */\n      tag_93\n        /* \"#utility.yul\":2508:2515   */\n      dup6\n        /* \"#utility.yul\":2499:2505   */\n      dup3\n        /* \"#utility.yul\":2488:2497   */\n      dup7\n        /* \"#utility.yul\":2484:2506   */\n      add\n        /* \"#utility.yul\":2463:2516   */\n      tag_52\n      jump\t// in\n    tag_93:\n        /* \"#utility.yul\":2453:2516   */\n      swap2\n      pop\n        /* \"#utility.yul\":2408:2526   */\n      pop\n        /* \"#utility.yul\":2043:2533   */\n      swap3\n      pop\n      swap3\n      swap1\n      pop\n      jump\t// out\n        /* \"#utility.yul\":2539:2708   */\n    tag_53:\n        /* \"#utility.yul\":2623:2634   */\n      0x00\n        /* \"#utility.yul\":2657:2663   */\n      dup3\n        /* \"#utility.yul\":2652:2655   */\n      dup3\n        /* \"#utility.yul\":2645:2664   */\n      mstore\n        /* \"#utility.yul\":2697:2701   */\n      0x20\n        /* \"#utility.yul\":2692:2695   */\n      dup3\n        /* \"#utility.yul\":2688:2702   */\n      add\n        /* \"#utility.yul\":2673:2702   */\n      swap1\n      pop\n        /* \"#utility.yul\":2539:2708   */\n      swap3\n      swap2\n      pop\n      pop\n      jump\t// out\n        /* \"#utility.yul\":2714:2893   */\n    tag_54:\n        /* \"#utility.yul\":2854:2885   */\n      0x6d696e696d756d20636f6e747269627574696f6e3a2035206574686572000000\n        /* \"#utility.yul\":2850:2851   */\n      0x00\n        /* \"#utility.yul\":2842:2848   */\n      dup3\n        /* \"#utility.yul\":2838:2852   */\n      add\n        /* \"#utility.yul\":2831:2886   */\n      mstore\n        /* \"#utility.yul\":2714:2893   */\n      pop\n      jump\t// out\n        /* \"#utility.yul\":2899:3265   */\n    tag_55:\n        /* \"#utility.yul\":3041:3044   */\n      0x00\n        /* \"#utility.yul\":3062:3129   */\n      tag_97\n        /* \"#utility.yul\":3126:3128   */\n      0x1d\n        /* \"#utility.yul\":3121:3124   */\n      dup4\n        /* \"#utility.yul\":3062:3129   */\n      tag_53\n      jump\t// in\n    tag_97:\n        /* \"#utility.yul\":3055:3129   */\n      swap2\n      pop\n        /* \"#utility.yul\":3138:3231   */\n      tag_98\n        /* \"#utility.yul\":3227:3230   */\n      dup3\n        /* \"#utility.yul\":3138:3231   */\n      tag_54\n      jump\t// in\n    tag_98:\n        /* \"#utility.yul\":3256:3258   */\n      0x20\n        /* \"#utility.yul\":3251:3254   */\n      dup3\n        /* \"#utility.yul\":3247:3259   */\n      add\n        /* \"#utility.yul\":3240:3259   */\n      swap1\n      pop\n        /* \"#utility.yul\":2899:3265   */\n      swap2\n      swap1\n      pop\n      jump\t// out\n        /* \"#utility.yul\":3271:3690   */\n    tag_29:\n        /* \"#utility.yul\":3437:3441   */\n      0x00\n        /* \"#utility.yul\":3475:3477   */\n      0x20\n        /* \"#utility.yul\":3464:3473   */\n      dup3\n        /* \"#utility.yul\":3460:3478   */\n      add\n        /* \"#utility.yul\":3452:3478   */\n      swap1\n      pop\n        /* \"#utility.yul\":3524:3533   */\n      dup2\n        /* \"#utility.yul\":3518:3522   */\n      dup2\n        /* \"#utility.yul\":3514:3534   */\n      sub\n        /* \"#utility.yul\":3510:3511   */\n      0x00\n        /* \"#utility.yul\":3499:3508   */\n      dup4\n        /* \"#utility.yul\":3495:3512   */\n      add\n        /* \"#utility.yul\":3488:3535   */\n      mstore\n        /* \"#utility.yul\":3552:3683   */\n      tag_100\n        /* \"#utility.yul\":3678:3682   */\n      dup2\n        /* \"#utility.yul\":3552:3683   */\n      tag_55\n      jump\t// in\n    tag_100:\n        /* \"#utility.yul\":3544:3683   */\n      swap1\n      pop\n        /* \"#utility.yul\":3271:3690   */\n      swap2\n      swap1\n      pop\n      jump\t// out\n        /* \"#utility.yul\":3696:3875   */\n    tag_56:\n        /* \"#utility.yul\":3836:3867   */\n      0x6d6178696d756d20636f6e747269627574696f6e203230206574686572000000\n        /* \"#utility.yul\":3832:3833   */\n      0x00\n        /* \"#utility.yul\":3824:3830   */\n      dup3\n        /* \"#utility.yul\":3820:3834   */\n      add\n        /* \"#utility.yul\":3813:3868   */\n      mstore\n        /* \"#utility.yul\":3696:3875   */\n      pop\n      jump\t// out\n        /* \"#utility.yul\":3881:4247   */\n    tag_57:\n        /* \"#utility.yul\":4023:4026   */\n      0x00\n        /* \"#utility.yul\":4044:4111   */\n      tag_103\n        /* \"#utility.yul\":4108:4110   */\n      0x1d\n        /* \"#utility.yul\":4103:4106   */\n      dup4\n        /* \"#utility.yul\":4044:4111   */\n      tag_53\n      jump\t// in\n    tag_103:\n        /* \"#utility.yul\":4037:4111   */\n      swap2\n      pop\n        /* \"#utility.yul\":4120:4213   */\n      tag_104\n        /* \"#utility.yul\":4209:4212   */\n      dup3\n        /* \"#utility.yul\":4120:4213   */\n      tag_56\n      jump\t// in\n    tag_104:\n        /* \"#utility.yul\":4238:4240   */\n      0x20\n        /* \"#utility.yul\":4233:4236   */\n      dup3\n        /* \"#utility.yul\":4229:4241   */\n      add\n        /* \"#utility.yul\":4222:4241   */\n      swap1\n      pop\n        /* \"#utility.yul\":3881:4247   */\n      swap2\n      swap1\n      pop\n      jump\t// out\n        /* \"#utility.yul\":4253:4672   */\n    tag_33:\n        /* \"#utility.yul\":4419:4423   */\n      0x00\n        /* \"#utility.yul\":4457:4459   */\n      0x20\n        /* \"#utility.yul\":4446:4455   */\n      dup3\n        /* \"#utility.yul\":4442:4460   */\n      add\n        /* \"#utility.yul\":4434:4460   */\n      swap1\n      pop\n        /* \"#utility.yul\":4506:4515   */\n      dup2\n        /* \"#utility.yul\":4500:4504   */\n      dup2\n        /* \"#utility.yul\":4496:4516   */\n      sub\n        /* \"#utility.yul\":4492:4493   */\n      0x00\n        /* \"#utility.yul\":4481:4490   */\n      dup4\n        /* \"#utility.yul\":4477:4494   */\n      add\n        /* \"#utility.yul\":4470:4517   */\n      mstore\n        /* \"#utility.yul\":4534:4665   */\n      tag_106\n        /* \"#utility.yul\":4660:4664   */\n      dup2\n        /* \"#utility.yul\":4534:4665   */\n      tag_57\n      jump\t// in\n    tag_106:\n        /* \"#utility.yul\":4526:4665   */\n      swap1\n      pop\n        /* \"#utility.yul\":4253:4672   */\n      swap2\n      swap1\n      pop\n      jump\t// out\n        /* \"#utility.yul\":4678:4825   */\n    tag_58:\n        /* \"#utility.yul\":4779:4790   */\n      0x00\n        /* \"#utility.yul\":4816:4819   */\n      dup2\n        /* \"#utility.yul\":4801:4819   */\n      swap1\n      pop\n        /* \"#utility.yul\":4678:4825   */\n      swap3\n      swap2\n      pop\n      pop\n      jump\t// out\n        /* \"#utility.yul\":4831:4945   */\n    tag_59:\n      pop\n      jump\t// out\n        /* \"#utility.yul\":4951:5349   */\n    tag_60:\n        /* \"#utility.yul\":5110:5113   */\n      0x00\n        /* \"#utility.yul\":5131:5214   */\n      tag_110\n        /* \"#utility.yul\":5212:5213   */\n      0x00\n        /* \"#utility.yul\":5207:5210   */\n      dup4\n        /* \"#utility.yul\":5131:5214   */\n      tag_58\n      jump\t// in\n    tag_110:\n        /* \"#utility.yul\":5124:5214   */\n      swap2\n      pop\n        /* \"#utility.yul\":5223:5316   */\n      tag_111\n        /* \"#utility.yul\":5312:5315   */\n      dup3\n        /* \"#utility.yul\":5223:5316   */\n      tag_59\n      jump\t// in\n    tag_111:\n        /* \"#utility.yul\":5341:5342   */\n      0x00\n        /* \"#utility.yul\":5336:5339   */\n      dup3\n        /* \"#utility.yul\":5332:5343   */\n      add\n        /* \"#utility.yul\":5325:5343   */\n      swap1\n      pop\n        /* \"#utility.yul\":4951:5349   */\n      swap2\n      swap1\n      pop\n      jump\t// out\n        /* \"#utility.yul\":5355:5734   */\n    tag_35:\n        /* \"#utility.yul\":5539:5542   */\n      0x00\n        /* \"#utility.yul\":5561:5708   */\n      tag_113\n        /* \"#utility.yul\":5704:5707   */\n      dup3\n        /* \"#utility.yul\":5561:5708   */\n      tag_60\n      jump\t// in\n    tag_113:\n        /* \"#utility.yul\":5554:5708   */\n      swap2\n      pop\n        /* \"#utility.yul\":5725:5728   */\n      dup2\n        /* \"#utility.yul\":5718:5728   */\n      swap1\n      pop\n        /* \"#utility.yul\":5355:5734   */\n      swap2\n      swap1\n      pop\n      jump\t// out\n\n    auxdata: 0xa2646970667358221220d9d5e3a4653cc0f6101a71cd1c11ad5186d06d0e21fe649edfb8b861b395e7f364736f6c63430008160033\n}\n",
				"bytecode": {
					"linkReferences": {},
					"object": "6080604052603c600155348015610014575f80fd5b50335f806101000a81548173ffffffffffffffffffffffffffffffffffffffff021916908373ffffffffffffffffffffffffffffffffffffffff1602179055506104a0806100615f395ff3fe60806040526004361061003e575f3560e01c8063540473e814610042578063722713f71461006c5780638da5cb5b14610096578063a9059cbb146100c0575b5f80fd5b34801561004d575f80fd5b506100566100dc565b6040516100639190610231565b60405180910390f35b348015610077575f80fd5b506100806100e2565b60405161008d9190610231565b60405180910390f35b3480156100a1575f80fd5b506100aa6100e9565b6040516100b79190610289565b60405180910390f35b6100da60048036038101906100d5919061030b565b61010c565b005b60015481565b5f47905090565b5f8054906101000a900473ffffffffffffffffffffffffffffffffffffffff1681565b674563918244f40000341015610157576040517f08c379a000000000000000000000000000000000000000000000000000000000815260040161014e906103a3565b60405180910390fd5b6801158e460913d000003411156101a3576040517f08c379a000000000000000000000000000000000000000000000000000000000815260040161019a9061040b565b60405180910390fd5b5f8273ffffffffffffffffffffffffffffffffffffffff16826040516101c890610456565b5f6040518083038185875af1925050503d805f8114610202576040519150601f19603f3d011682016040523d82523d5f602084013e610207565b606091505b5050905080610214575f80fd5b505050565b5f819050919050565b61022b81610219565b82525050565b5f6020820190506102445f830184610222565b92915050565b5f73ffffffffffffffffffffffffffffffffffffffff82169050919050565b5f6102738261024a565b9050919050565b61028381610269565b82525050565b5f60208201905061029c5f83018461027a565b92915050565b5f80fd5b5f6102b08261024a565b9050919050565b6102c0816102a6565b81146102ca575f80fd5b50565b5f813590506102db816102b7565b92915050565b6102ea81610219565b81146102f4575f80fd5b50565b5f81359050610305816102e1565b92915050565b5f8060408385031215610321576103206102a2565b5b5f61032e858286016102cd565b925050602061033f858286016102f7565b9150509250929050565b5f82825260208201905092915050565b7f6d696e696d756d20636f6e747269627574696f6e3a20352065746865720000005f82015250565b5f61038d601d83610349565b915061039882610359565b602082019050919050565b5f6020820190508181035f8301526103ba81610381565b9050919050565b7f6d6178696d756d20636f6e747269627574696f6e2032302065746865720000005f82015250565b5f6103f5601d83610349565b9150610400826103c1565b602082019050919050565b5f6020820190508181035f830152610422816103e9565b9050919050565b5f81905092915050565b50565b5f6104415f83610429565b915061044c82610433565b5f82019050919050565b5f61046082610436565b915081905091905056fea2646970667358221220d9d5e3a4653cc0f6101a71cd1c11ad5186d06d0e21fe649edfb8b861b395e7f364736f6c63430008160033",
					"opcodes": "PUSH1 0x80 PUSH1 0x40 MSTORE PUSH1 0x3C PUSH1 0x1 SSTORE CALLVALUE DUP1 ISZERO PUSH2 0x14 JUMPI PUSH0 DUP1 REVERT JUMPDEST POP CALLER PUSH0 DUP1 PUSH2 0x100 EXP DUP2 SLOAD DUP2 PUSH20 0xFFFFFFFFFFFFFFFFFFFFFFFFFFFFFFFFFFFFFFFF MUL NOT AND SWAP1 DUP4 PUSH20 0xFFFFFFFFFFFFFFFFFFFFFFFFFFFFFFFFFFFFFFFF AND MUL OR SWAP1 SSTORE POP PUSH2 0x4A0 DUP1 PUSH2 0x61 PUSH0 CODECOPY PUSH0 RETURN INVALID PUSH1 0x80 PUSH1 0x40 MSTORE PUSH1 0x4 CALLDATASIZE LT PUSH2 0x3E JUMPI PUSH0 CALLDATALOAD PUSH1 0xE0 SHR DUP1 PUSH4 0x540473E8 EQ PUSH2 0x42 JUMPI DUP1 PUSH4 0x722713F7 EQ PUSH2 0x6C JUMPI DUP1 PUSH4 0x8DA5CB5B EQ PUSH2 0x96 JUMPI DUP1 PUSH4 0xA9059CBB EQ PUSH2 0xC0 JUMPI JUMPDEST PUSH0 DUP1 REVERT JUMPDEST CALLVALUE DUP1 ISZERO PUSH2 0x4D JUMPI PUSH0 DUP1 REVERT JUMPDEST POP PUSH2 0x56 PUSH2 0xDC JUMP JUMPDEST PUSH1 0x40 MLOAD PUSH2 0x63 SWAP2 SWAP1 PUSH2 0x231 JUMP JUMPDEST PUSH1 0x40 MLOAD DUP1 SWAP2 SUB SWAP1 RETURN JUMPDEST CALLVALUE DUP1 ISZERO PUSH2 0x77 JUMPI PUSH0 DUP1 REVERT JUMPDEST POP PUSH2 0x80 PUSH2 0xE2 JUMP JUMPDEST PUSH1 0x40 MLOAD PUSH2 0x8D SWAP2 SWAP1 PUSH2 0x231 JUMP JUMPDEST PUSH1 0x40 MLOAD DUP1 SWAP2 SUB SWAP1 RETURN JUMPDEST CALLVALUE DUP1 ISZERO PUSH2 0xA1 JUMPI PUSH0 DUP1 REVERT JUMPDEST POP PUSH2 0xAA PUSH2 0xE9 JUMP JUMPDEST PUSH1 0x40 MLOAD PUSH2 0xB7 SWAP2 SWAP1 PUSH2 0x289 JUMP JUMPDEST PUSH1 0x40 MLOAD DUP1 SWAP2 SUB SWAP1 RETURN JUMPDEST PUSH2 0xDA PUSH1 0x4 DUP1 CALLDATASIZE SUB DUP2 ADD SWAP1 PUSH2 0xD5 SWAP2 SWAP1 PUSH2 0x30B JUMP JUMPDEST PUSH2 0x10C JUMP JUMPDEST STOP JUMPDEST PUSH1 0x1 SLOAD DUP2 JUMP JUMPDEST PUSH0 SELFBALANCE SWAP1 POP SWAP1 JUMP JUMPDEST PUSH0 DUP1 SLOAD SWAP1 PUSH2 0x100 EXP SWAP1 DIV PUSH20 0xFFFFFFFFFFFFFFFFFFFFFFFFFFFFFFFFFFFFFFFF AND DUP2 JUMP JUMPDEST PUSH8 0x4563918244F40000 CALLVALUE LT ISZERO PUSH2 0x157 JUMPI PUSH1 0x40 MLOAD PUSH32 0x8C379A000000000000000000000000000000000000000000000000000000000 DUP2 MSTORE PUSH1 0x4 ADD PUSH2 0x14E SWAP1 PUSH2 0x3A3 JUMP JUMPDEST PUSH1 0x40 MLOAD DUP1 SWAP2 SUB SWAP1 REVERT JUMPDEST PUSH9 0x1158E460913D00000 CALLVALUE GT ISZERO PUSH2 0x1A3 JUMPI PUSH1 0x40 MLOAD PUSH32 0x8C379A000000000000000000000000000000000000000000000000000000000 DUP2 MSTORE PUSH1 0x4 ADD PUSH2 0x19A SWAP1 PUSH2 0x40B JUMP JUMPDEST PUSH1 0x40 MLOAD DUP1 SWAP2 SUB SWAP1 REVERT JUMPDEST PUSH0 DUP3 PUSH20 0xFFFFFFFFFFFFFFFFFFFFFFFFFFFFFFFFFFFFFFFF AND DUP3 PUSH1 0x40 MLOAD PUSH2 0x1C8 SWAP1 PUSH2 0x456 JUMP JUMPDEST PUSH0 PUSH1 0x40 MLOAD DUP1 DUP4 SUB DUP2 DUP6 DUP8 GAS CALL SWAP3 POP POP POP RETURNDATASIZE DUP1 PUSH0 DUP2 EQ PUSH2 0x202 JUMPI PUSH1 0x40 MLOAD SWAP2 POP PUSH1 0x1F NOT PUSH1 0x3F RETURNDATASIZE ADD AND DUP3 ADD PUSH1 0x40 MSTORE RETURNDATASIZE DUP3 MSTORE RETURNDATASIZE PUSH0 PUSH1 0x20 DUP5 ADD RETURNDATACOPY PUSH2 0x207 JUMP JUMPDEST PUSH1 0x60 SWAP2 POP JUMPDEST POP POP SWAP1 POP DUP1 PUSH2 0x214 JUMPI PUSH0 DUP1 REVERT JUMPDEST POP POP POP JUMP JUMPDEST PUSH0 DUP2 SWAP1 POP SWAP2 SWAP1 POP JUMP JUMPDEST PUSH2 0x22B DUP2 PUSH2 0x219 JUMP JUMPDEST DUP3 MSTORE POP POP JUMP JUMPDEST PUSH0 PUSH1 0x20 DUP3 ADD SWAP1 POP PUSH2 0x244 PUSH0 DUP4 ADD DUP5 PUSH2 0x222 JUMP JUMPDEST SWAP3 SWAP2 POP POP JUMP JUMPDEST PUSH0 PUSH20 0xFFFFFFFFFFFFFFFFFFFFFFFFFFFFFFFFFFFFFFFF DUP3 AND SWAP1 POP SWAP2 SWAP1 POP JUMP JUMPDEST PUSH0 PUSH2 0x273 DUP3 PUSH2 0x24A JUMP JUMPDEST SWAP1 POP SWAP2 SWAP1 POP JUMP JUMPDEST PUSH2 0x283 DUP2 PUSH2 0x269 JUMP JUMPDEST DUP3 MSTORE POP POP JUMP JUMPDEST PUSH0 PUSH1 0x20 DUP3 ADD SWAP1 POP PUSH2 0x29C PUSH0 DUP4 ADD DUP5 PUSH2 0x27A JUMP JUMPDEST SWAP3 SWAP2 POP POP JUMP JUMPDEST PUSH0 DUP1 REVERT JUMPDEST PUSH0 PUSH2 0x2B0 DUP3 PUSH2 0x24A JUMP JUMPDEST SWAP1 POP SWAP2 SWAP1 POP JUMP JUMPDEST PUSH2 0x2C0 DUP2 PUSH2 0x2A6 JUMP JUMPDEST DUP2 EQ PUSH2 0x2CA JUMPI PUSH0 DUP1 REVERT JUMPDEST POP JUMP JUMPDEST PUSH0 DUP2 CALLDATALOAD SWAP1 POP PUSH2 0x2DB DUP2 PUSH2 0x2B7 JUMP JUMPDEST SWAP3 SWAP2 POP POP JUMP JUMPDEST PUSH2 0x2EA DUP2 PUSH2 0x219 JUMP JUMPDEST DUP2 EQ PUSH2 0x2F4 JUMPI PUSH0 DUP1 REVERT JUMPDEST POP JUMP JUMPDEST PUSH0 DUP2 CALLDATALOAD SWAP1 POP PUSH2 0x305 DUP2 PUSH2 0x2E1 JUMP JUMPDEST SWAP3 SWAP2 POP POP JUMP JUMPDEST PUSH0 DUP1 PUSH1 0x40 DUP4 DUP6 SUB SLT ISZERO PUSH2 0x321 JUMPI PUSH2 0x320 PUSH2 0x2A2 JUMP JUMPDEST JUMPDEST PUSH0 PUSH2 0x32E DUP6 DUP3 DUP7 ADD PUSH2 0x2CD JUMP JUMPDEST SWAP3 POP POP PUSH1 0x20 PUSH2 0x33F DUP6 DUP3 DUP7 ADD PUSH2 0x2F7 JUMP JUMPDEST SWAP2 POP POP SWAP3 POP SWAP3 SWAP1 POP JUMP JUMPDEST PUSH0 DUP3 DUP3 MSTORE PUSH1 0x20 DUP3 ADD SWAP1 POP SWAP3 SWAP2 POP POP JUMP JUMPDEST PUSH32 0x6D696E696D756D20636F6E747269627574696F6E3A2035206574686572000000 PUSH0 DUP3 ADD MSTORE POP JUMP JUMPDEST PUSH0 PUSH2 0x38D PUSH1 0x1D DUP4 PUSH2 0x349 JUMP JUMPDEST SWAP2 POP PUSH2 0x398 DUP3 PUSH2 0x359 JUMP JUMPDEST PUSH1 0x20 DUP3 ADD SWAP1 POP SWAP2 SWAP1 POP JUMP JUMPDEST PUSH0 PUSH1 0x20 DUP3 ADD SWAP1 POP DUP2 DUP2 SUB PUSH0 DUP4 ADD MSTORE PUSH2 0x3BA DUP2 PUSH2 0x381 JUMP JUMPDEST SWAP1 POP SWAP2 SWAP1 POP JUMP JUMPDEST PUSH32 0x6D6178696D756D20636F6E747269627574696F6E203230206574686572000000 PUSH0 DUP3 ADD MSTORE POP JUMP JUMPDEST PUSH0 PUSH2 0x3F5 PUSH1 0x1D DUP4 PUSH2 0x349 JUMP JUMPDEST SWAP2 POP PUSH2 0x400 DUP3 PUSH2 0x3C1 JUMP JUMPDEST PUSH1 0x20 DUP3 ADD SWAP1 POP SWAP2 SWAP1 POP JUMP JUMPDEST PUSH0 PUSH1 0x20 DUP3 ADD SWAP1 POP DUP2 DUP2 SUB PUSH0 DUP4 ADD MSTORE PUSH2 0x422 DUP2 PUSH2 0x3E9 JUMP JUMPDEST SWAP1 POP SWAP2 SWAP1 POP JUMP JUMPDEST PUSH0 DUP2 SWAP1 POP SWAP3 SWAP2 POP POP JUMP JUMPDEST POP JUMP JUMPDEST PUSH0 PUSH2 0x441 PUSH0 DUP4 PUSH2 0x429 JUMP JUMPDEST SWAP2 POP PUSH2 0x44C DUP3 PUSH2 0x433 JUMP JUMPDEST PUSH0 DUP3 ADD SWAP1 POP SWAP2 SWAP1 POP JUMP JUMPDEST PUSH0 PUSH2 0x460 DUP3 PUSH2 0x436 JUMP JUMPDEST SWAP2 POP DUP2 SWAP1 POP SWAP2 SWAP1 POP JUMP INVALID LOG2 PUSH5 0x6970667358 0x22 SLT KECCAK256 0xD9 0xD5 0xE3 LOG4 PUSH6 0x3CC0F6101A71 0xCD SHR GT 0xAD MLOAD DUP7 0xD0 PUSH14 0xE21FE649EDFB8B861B395E7F364 PUSH20 0x6F6C634300081600330000000000000000000000 "
				},
				"gasEstimates": {
					"creation": {
						"codeDepositCost": "236800",
						"executionCost": "46644",
						"totalCost": "283444"
					},
					"external": {
						"allowedtime()": "2403",
						"balanceOf()": "334",
						"owner()": "2527",
						"transfer(address,uint256)": "infinite"
					}
				},
				"methodIdentifiers": {
					"allowedtime()": "540473e8",
					"balanceOf()": "722713f7",
					"owner()": "8da5cb5b",
					"transfer(address,uint256)": "a9059cbb"
				}
			},
			"storageLayout": {
				"storage": [
					{
						"astId": 3,
						"contract": "dummy_checker_task5.sol:CrowdSale",
						"label": "owner",
						"offset": 0,
						"slot": "0",
						"type": "t_address"
					},
					{
						"astId": 6,
						"contract": "dummy_checker_task5.sol:CrowdSale",
						"label": "allowedtime",
						"offset": 0,
						"slot": "1",
						"type": "t_uint256"
					}
				],
				"types": {
					"t_address": {
						"encoding": "inplace",
						"label": "address",
						"numberOfBytes": "20"
					},
					"t_uint256": {
						"encoding": "inplace",
						"label": "uint256",
						"numberOfBytes": "32"
					}
				}
			},
			"userdoc": {
				"kind": "user",
				"methods": {},
				"version": 1
			}
		}
	}
}