{
	"simpletask.sol": {
		"KeyValueIterator": {
			"abi": [
				{
					"inputs": [
						{
							"internalType": "uint256",
							"name": "key",
							"type": "uint256"
						},
						{
							"internalType": "string",
							"name": "value",
							"type": "string"
						}
					],
					"name": "addKeyValuePair",
					"outputs": [],
					"stateMutability": "nonpayable",
					"type": "function"
				},
				{
					"inputs": [],
					"name": "iterateAndPerformOperation",
					"outputs": [
						{
							"internalType": "string[]",
							"name": "",
							"type": "string[]"
						}
					],
					"stateMutability": "view",
					"type": "function"
				},
				{
					"inputs": [
						{
							"internalType": "uint256",
							"name": "",
							"type": "uint256"
						}
					],
					"name": "keyValueMap",
					"outputs": [
						{
							"internalType": "string",
							"name": "",
							"type": "string"
						}
					],
					"stateMutability": "view",
					"type": "function"
				},
				{
					"inputs": [
						{
							"internalType": "uint256",
							"name": "",
							"type": "uint256"
						}
					],
					"name": "keys",
					"outputs": [
						{
							"internalType": "uint256",
							"name": "",
							"type": "uint256"
						}
					],
					"stateMutability": "view",
					"type": "function"
				}
			],
			"devdoc": {
				"kind": "dev",
				"methods": {},
				"version": 1
			},
			"evm": {
				"assembly": "    /* \"simpletask.sol\":4335:5409  contract KeyValueIterator {... */\n  mstore(0x40, 0x80)\n  callvalue\n  dup1\n  iszero\n  tag_1\n  jumpi\n  0x00\n  dup1\n  revert\ntag_1:\n  pop\n  dataSize(sub_0)\n  dup1\n  dataOffset(sub_0)\n  0x00\n  codecopy\n  0x00\n  return\nstop\n\nsub_0: assembly {\n        /* \"simpletask.sol\":4335:5409  contract KeyValueIterator {... */\n      mstore(0x40, 0x80)\n      callvalue\n      dup1\n      iszero\n      tag_1\n      jumpi\n      0x00\n      dup1\n      revert\n    tag_1:\n      pop\n      jumpi(tag_2, lt(calldatasize, 0x04))\n      shr(0xe0, calldataload(0x00))\n      dup1\n      0x0cb6aaf1\n      eq\n      tag_3\n      jumpi\n      dup1\n      0x1fdee7e5\n      eq\n      tag_4\n      jumpi\n      dup1\n      0xae338bae\n      eq\n      tag_5\n      jumpi\n      dup1\n      0xef5afa16\n      eq\n      tag_6\n      jumpi\n    tag_2:\n      0x00\n      dup1\n      revert\n        /* \"simpletask.sol\":4491:4512  uint256[] public keys */\n    tag_3:\n      tag_7\n      0x04\n      dup1\n      calldatasize\n      sub\n      dup2\n      add\n      swap1\n      tag_8\n      swap2\n      swap1\n      tag_9\n      jump\t// in\n    tag_8:\n      tag_10\n      jump\t// in\n    tag_7:\n      mload(0x40)\n      tag_11\n      swap2\n      swap1\n      tag_12\n      jump\t// in\n    tag_11:\n      mload(0x40)\n      dup1\n      swap2\n      sub\n      swap1\n      return\n        /* \"simpletask.sol\":4566:4797  function addKeyValuePair(uint256 key, string memory value) public {... */\n    tag_4:\n      tag_13\n      0x04\n      dup1\n      calldatasize\n      sub\n      dup2\n      add\n      swap1\n      tag_14\n      swap2\n      swap1\n      tag_15\n      jump\t// in\n    tag_14:\n      tag_16\n      jump\t// in\n    tag_13:\n      stop\n        /* \"simpletask.sol\":4409:4454  mapping(uint256 => string) public keyValueMap */\n    tag_5:\n      tag_17\n      0x04\n      dup1\n      calldatasize\n      sub\n      dup2\n      add\n      swap1\n      tag_18\n      swap2\n      swap1\n      tag_9\n      jump\t// in\n    tag_18:\n      tag_19\n      jump\t// in\n    tag_17:\n      mload(0x40)\n      tag_20\n      swap2\n      swap1\n      tag_21\n      jump\t// in\n    tag_20:\n      mload(0x40)\n      dup1\n      swap2\n      sub\n      swap1\n      return\n        /* \"simpletask.sol\":4894:5406  function iterateAndPerformOperation() public view returns (string[] memory) {... */\n    tag_6:\n      tag_22\n      tag_23\n      jump\t// in\n    tag_22:\n      mload(0x40)\n      tag_24\n      swap2\n      swap1\n      tag_25\n      jump\t// in\n    tag_24:\n      mload(0x40)\n      dup1\n      swap2\n      sub\n      swap1\n      return\n        /* \"simpletask.sol\":4491:4512  uint256[] public keys */\n    tag_10:\n      0x01\n      dup2\n      dup2\n      sload\n      dup2\n      lt\n      tag_26\n      jumpi\n      0x00\n      dup1\n      revert\n    tag_26:\n      swap1\n      0x00\n      mstore\n      keccak256(0x00, 0x20)\n      add\n      0x00\n      swap2\n      pop\n      swap1\n      pop\n      sload\n      dup2\n      jump\t// out\n        /* \"simpletask.sol\":4566:4797  function addKeyValuePair(uint256 key, string memory value) public {... */\n    tag_16:\n        /* \"simpletask.sol\":4712:4717  value */\n      dup1\n        /* \"simpletask.sol\":4693:4704  keyValueMap */\n      0x00\n        /* \"simpletask.sol\":4693:4709  keyValueMap[key] */\n      dup1\n        /* \"simpletask.sol\":4705:4708  key */\n      dup5\n        /* \"simpletask.sol\":4693:4709  keyValueMap[key] */\n      dup2\n      mstore\n      0x20\n      add\n      swap1\n      dup2\n      mstore\n      0x20\n      add\n      0x00\n      keccak256\n        /* \"simpletask.sol\":4693:4717  keyValueMap[key] = value */\n      swap1\n      dup2\n      tag_29\n      swap2\n      swap1\n      tag_30\n      jump\t// in\n    tag_29:\n      pop\n        /* \"simpletask.sol\":4775:4779  keys */\n      0x01\n        /* \"simpletask.sol\":4785:4788  key */\n      dup3\n        /* \"simpletask.sol\":4775:4789  keys.push(key) */\n      swap1\n      dup1\n      0x01\n      dup2\n      sload\n      add\n      dup1\n      dup3\n      sstore\n      dup1\n      swap2\n      pop\n      pop\n      0x01\n      swap1\n      sub\n      swap1\n      0x00\n      mstore\n      keccak256(0x00, 0x20)\n      add\n      0x00\n      swap1\n      swap2\n      swap1\n      swap2\n      swap1\n      swap2\n      pop\n      sstore\n        /* \"simpletask.sol\":4566:4797  function addKeyValuePair(uint256 key, string memory value) public {... */\n      pop\n      pop\n      jump\t// out\n        /* \"simpletask.sol\":4409:4454  mapping(uint256 => string) public keyValueMap */\n    tag_19:\n      mstore(0x20, 0x00)\n      dup1\n      0x00\n      mstore\n      keccak256(0x00, 0x40)\n      0x00\n      swap2\n      pop\n      swap1\n      pop\n      dup1\n      sload\n      tag_32\n      swap1\n      tag_33\n      jump\t// in\n    tag_32:\n      dup1\n      0x1f\n      add\n      0x20\n      dup1\n      swap2\n      div\n      mul\n      0x20\n      add\n      mload(0x40)\n      swap1\n      dup2\n      add\n      0x40\n      mstore\n      dup1\n      swap3\n      swap2\n      swap1\n      dup2\n      dup2\n      mstore\n      0x20\n      add\n      dup3\n      dup1\n      sload\n      tag_34\n      swap1\n      tag_33\n      jump\t// in\n    tag_34:\n      dup1\n      iszero\n      tag_35\n      jumpi\n      dup1\n      0x1f\n      lt\n      tag_36\n      jumpi\n      0x0100\n      dup1\n      dup4\n      sload\n      div\n      mul\n      dup4\n      mstore\n      swap2\n      0x20\n      add\n      swap2\n      jump(tag_35)\n    tag_36:\n      dup3\n      add\n      swap2\n      swap1\n      0x00\n      mstore\n      keccak256(0x00, 0x20)\n      swap1\n    tag_37:\n      dup2\n      sload\n      dup2\n      mstore\n      swap1\n      0x01\n      add\n      swap1\n      0x20\n      add\n      dup1\n      dup4\n      gt\n      tag_37\n      jumpi\n      dup3\n      swap1\n      sub\n      0x1f\n      and\n      dup3\n      add\n      swap2\n    tag_35:\n      pop\n      pop\n      pop\n      pop\n      pop\n      dup2\n      jump\t// out\n        /* \"simpletask.sol\":4894:5406  function iterateAndPerformOperation() public view returns (string[] memory) {... */\n    tag_23:\n        /* \"simpletask.sol\":4953:4968  string[] memory */\n      0x60\n        /* \"simpletask.sol\":4981:4995  uint256 length */\n      0x00\n        /* \"simpletask.sol\":4998:5002  keys */\n      0x01\n        /* \"simpletask.sol\":4998:5009  keys.length */\n      dup1\n      sload\n      swap1\n      pop\n        /* \"simpletask.sol\":4981:5009  uint256 length = keys.length */\n      swap1\n      pop\n        /* \"simpletask.sol\":5020:5043  string[] memory results */\n      0x00\n        /* \"simpletask.sol\":5059:5065  length */\n      dup2\n        /* \"simpletask.sol\":5046:5066  new string[](length) */\n      0xffffffffffffffff\n      dup2\n      gt\n      iszero\n      tag_39\n      jumpi\n      tag_40\n      tag_41\n      jump\t// in\n    tag_40:\n    tag_39:\n      mload(0x40)\n      swap1\n      dup1\n      dup3\n      mstore\n      dup1\n      0x20\n      mul\n      0x20\n      add\n      dup3\n      add\n      0x40\n      mstore\n      dup1\n      iszero\n      tag_42\n      jumpi\n      dup2\n      0x20\n      add\n    tag_43:\n      0x60\n      dup2\n      mstore\n      0x20\n      add\n      swap1\n      0x01\n      swap1\n      sub\n      swap1\n      dup2\n      tag_43\n      jumpi\n      swap1\n      pop\n    tag_42:\n      pop\n        /* \"simpletask.sol\":5020:5066  string[] memory results = new string[](length) */\n      swap1\n      pop\n        /* \"simpletask.sol\":5121:5130  uint256 i */\n      0x00\n        /* \"simpletask.sol\":5116:5372  for (uint256 i = 0; i < length; i++) {... */\n    tag_44:\n        /* \"simpletask.sol\":5140:5146  length */\n      dup3\n        /* \"simpletask.sol\":5136:5137  i */\n      dup2\n        /* \"simpletask.sol\":5136:5146  i < length */\n      lt\n        /* \"simpletask.sol\":5116:5372  for (uint256 i = 0; i < length; i++) {... */\n      iszero\n      tag_45\n      jumpi\n        /* \"simpletask.sol\":5168:5179  uint256 key */\n      0x00\n        /* \"simpletask.sol\":5182:5186  keys */\n      0x01\n        /* \"simpletask.sol\":5187:5188  i */\n      dup3\n        /* \"simpletask.sol\":5182:5189  keys[i] */\n      dup2\n      sload\n      dup2\n      lt\n      tag_47\n      jumpi\n      tag_48\n      tag_49\n      jump\t// in\n    tag_48:\n    tag_47:\n      swap1\n      0x00\n      mstore\n      keccak256(0x00, 0x20)\n      add\n      sload\n        /* \"simpletask.sol\":5168:5189  uint256 key = keys[i] */\n      swap1\n      pop\n        /* \"simpletask.sol\":5204:5223  string memory value */\n      0x00\n        /* \"simpletask.sol\":5226:5237  keyValueMap */\n      dup1\n        /* \"simpletask.sol\":5226:5242  keyValueMap[key] */\n      0x00\n        /* \"simpletask.sol\":5238:5241  key */\n      dup4\n        /* \"simpletask.sol\":5226:5242  keyValueMap[key] */\n      dup2\n      mstore\n      0x20\n      add\n      swap1\n      dup2\n      mstore\n      0x20\n      add\n      0x00\n      keccak256\n        /* \"simpletask.sol\":5204:5242  string memory value = keyValueMap[key] */\n      dup1\n      sload\n      tag_51\n      swap1\n      tag_33\n      jump\t// in\n    tag_51:\n      dup1\n      0x1f\n      add\n      0x20\n      dup1\n      swap2\n      div\n      mul\n      0x20\n      add\n      mload(0x40)\n      swap1\n      dup2\n      add\n      0x40\n      mstore\n      dup1\n      swap3\n      swap2\n      swap1\n      dup2\n      dup2\n      mstore\n      0x20\n      add\n      dup3\n      dup1\n      sload\n      tag_52\n      swap1\n      tag_33\n      jump\t// in\n    tag_52:\n      dup1\n      iszero\n      tag_53\n      jumpi\n      dup1\n      0x1f\n      lt\n      tag_54\n      jumpi\n      0x0100\n      dup1\n      dup4\n      sload\n      div\n      mul\n      dup4\n      mstore\n      swap2\n      0x20\n      add\n      swap2\n      jump(tag_53)\n    tag_54:\n      dup3\n      add\n      swap2\n      swap1\n      0x00\n      mstore\n      keccak256(0x00, 0x20)\n      swap1\n    tag_55:\n      dup2\n      sload\n      dup2\n      mstore\n      swap1\n      0x01\n      add\n      swap1\n      0x20\n      add\n      dup1\n      dup4\n      gt\n      tag_55\n      jumpi\n      dup3\n      swap1\n      sub\n      0x1f\n      and\n      dup3\n      add\n      swap2\n    tag_53:\n      pop\n      pop\n      pop\n      pop\n      pop\n      swap1\n      pop\n        /* \"simpletask.sol\":5355:5360  value */\n      dup1\n        /* \"simpletask.sol\":5342:5349  results */\n      dup5\n        /* \"simpletask.sol\":5350:5351  i */\n      dup5\n        /* \"simpletask.sol\":5342:5352  results[i] */\n      dup2\n      mload\n      dup2\n      lt\n      tag_56\n      jumpi\n      tag_57\n      tag_49\n      jump\t// in\n    tag_57:\n    tag_56:\n      0x20\n      mul\n      0x20\n      add\n      add\n        /* \"simpletask.sol\":5342:5360  results[i] = value */\n      dup2\n      swap1\n      mstore\n      pop\n        /* \"simpletask.sol\":5153:5372  {... */\n      pop\n      pop\n        /* \"simpletask.sol\":5148:5151  i++ */\n      dup1\n      dup1\n      0x01\n      add\n      swap2\n      pop\n      pop\n        /* \"simpletask.sol\":5116:5372  for (uint256 i = 0; i < length; i++) {... */\n      jump(tag_44)\n    tag_45:\n      pop\n        /* \"simpletask.sol\":5391:5398  results */\n      dup1\n        /* \"simpletask.sol\":5384:5398  return results */\n      swap3\n      pop\n      pop\n      pop\n        /* \"simpletask.sol\":4894:5406  function iterateAndPerformOperation() public view returns (string[] memory) {... */\n      swap1\n      jump\t// out\n        /* \"#utility.yul\":7:82   */\n    tag_58:\n        /* \"#utility.yul\":40:46   */\n      0x00\n        /* \"#utility.yul\":73:75   */\n      0x40\n        /* \"#utility.yul\":67:76   */\n      mload\n        /* \"#utility.yul\":57:76   */\n      swap1\n      pop\n        /* \"#utility.yul\":7:82   */\n      swap1\n      jump\t// out\n        /* \"#utility.yul\":88:205   */\n    tag_59:\n        /* \"#utility.yul\":197:198   */\n      0x00\n        /* \"#utility.yul\":194:195   */\n      dup1\n        /* \"#utility.yul\":187:199   */\n      revert\n        /* \"#utility.yul\":211:328   */\n    tag_60:\n        /* \"#utility.yul\":320:321   */\n      0x00\n        /* \"#utility.yul\":317:318   */\n      dup1\n        /* \"#utility.yul\":310:322   */\n      revert\n        /* \"#utility.yul\":334:411   */\n    tag_61:\n        /* \"#utility.yul\":371:378   */\n      0x00\n        /* \"#utility.yul\":400:405   */\n      dup2\n        /* \"#utility.yul\":389:405   */\n      swap1\n      pop\n        /* \"#utility.yul\":334:411   */\n      swap2\n      swap1\n      pop\n      jump\t// out\n        /* \"#utility.yul\":417:539   */\n    tag_62:\n        /* \"#utility.yul\":490:514   */\n      tag_108\n        /* \"#utility.yul\":508:513   */\n      dup2\n        /* \"#utility.yul\":490:514   */\n      tag_61\n      jump\t// in\n    tag_108:\n        /* \"#utility.yul\":483:488   */\n      dup2\n        /* \"#utility.yul\":480:515   */\n      eq\n        /* \"#utility.yul\":470:533   */\n      tag_109\n      jumpi\n        /* \"#utility.yul\":529:530   */\n      0x00\n        /* \"#utility.yul\":526:527   */\n      dup1\n        /* \"#utility.yul\":519:531   */\n      revert\n        /* \"#utility.yul\":470:533   */\n    tag_109:\n        /* \"#utility.yul\":417:539   */\n      pop\n      jump\t// out\n        /* \"#utility.yul\":545:684   */\n    tag_63:\n        /* \"#utility.yul\":591:596   */\n      0x00\n        /* \"#utility.yul\":629:635   */\n      dup2\n        /* \"#utility.yul\":616:636   */\n      calldataload\n        /* \"#utility.yul\":607:636   */\n      swap1\n      pop\n        /* \"#utility.yul\":645:678   */\n      tag_111\n        /* \"#utility.yul\":672:677   */\n      dup2\n        /* \"#utility.yul\":645:678   */\n      tag_62\n      jump\t// in\n    tag_111:\n        /* \"#utility.yul\":545:684   */\n      swap3\n      swap2\n      pop\n      pop\n      jump\t// out\n        /* \"#utility.yul\":690:1019   */\n    tag_9:\n        /* \"#utility.yul\":749:755   */\n      0x00\n        /* \"#utility.yul\":798:800   */\n      0x20\n        /* \"#utility.yul\":786:795   */\n      dup3\n        /* \"#utility.yul\":777:784   */\n      dup5\n        /* \"#utility.yul\":773:796   */\n      sub\n        /* \"#utility.yul\":769:801   */\n      slt\n        /* \"#utility.yul\":766:885   */\n      iszero\n      tag_113\n      jumpi\n        /* \"#utility.yul\":804:883   */\n      tag_114\n      tag_59\n      jump\t// in\n    tag_114:\n        /* \"#utility.yul\":766:885   */\n    tag_113:\n        /* \"#utility.yul\":924:925   */\n      0x00\n        /* \"#utility.yul\":949:1002   */\n      tag_115\n        /* \"#utility.yul\":994:1001   */\n      dup5\n        /* \"#utility.yul\":985:991   */\n      dup3\n        /* \"#utility.yul\":974:983   */\n      dup6\n        /* \"#utility.yul\":970:992   */\n      add\n        /* \"#utility.yul\":949:1002   */\n      tag_63\n      jump\t// in\n    tag_115:\n        /* \"#utility.yul\":939:1002   */\n      swap2\n      pop\n        /* \"#utility.yul\":895:1012   */\n      pop\n        /* \"#utility.yul\":690:1019   */\n      swap3\n      swap2\n      pop\n      pop\n      jump\t// out\n        /* \"#utility.yul\":1025:1143   */\n    tag_64:\n        /* \"#utility.yul\":1112:1136   */\n      tag_117\n        /* \"#utility.yul\":1130:1135   */\n      dup2\n        /* \"#utility.yul\":1112:1136   */\n      tag_61\n      jump\t// in\n    tag_117:\n        /* \"#utility.yul\":1107:1110   */\n      dup3\n        /* \"#utility.yul\":1100:1137   */\n      mstore\n        /* \"#utility.yul\":1025:1143   */\n      pop\n      pop\n      jump\t// out\n        /* \"#utility.yul\":1149:1371   */\n    tag_12:\n        /* \"#utility.yul\":1242:1246   */\n      0x00\n        /* \"#utility.yul\":1280:1282   */\n      0x20\n        /* \"#utility.yul\":1269:1278   */\n      dup3\n        /* \"#utility.yul\":1265:1283   */\n      add\n        /* \"#utility.yul\":1257:1283   */\n      swap1\n      pop\n        /* \"#utility.yul\":1293:1364   */\n      tag_119\n        /* \"#utility.yul\":1361:1362   */\n      0x00\n        /* \"#utility.yul\":1350:1359   */\n      dup4\n        /* \"#utility.yul\":1346:1363   */\n      add\n        /* \"#utility.yul\":1337:1343   */\n      dup5\n        /* \"#utility.yul\":1293:1364   */\n      tag_64\n      jump\t// in\n    tag_119:\n        /* \"#utility.yul\":1149:1371   */\n      swap3\n      swap2\n      pop\n      pop\n      jump\t// out\n        /* \"#utility.yul\":1377:1494   */\n    tag_65:\n        /* \"#utility.yul\":1486:1487   */\n      0x00\n        /* \"#utility.yul\":1483:1484   */\n      dup1\n        /* \"#utility.yul\":1476:1488   */\n      revert\n        /* \"#utility.yul\":1500:1617   */\n    tag_66:\n        /* \"#utility.yul\":1609:1610   */\n      0x00\n        /* \"#utility.yul\":1606:1607   */\n      dup1\n        /* \"#utility.yul\":1599:1611   */\n      revert\n        /* \"#utility.yul\":1623:1725   */\n    tag_67:\n        /* \"#utility.yul\":1664:1670   */\n      0x00\n        /* \"#utility.yul\":1715:1717   */\n      0x1f\n        /* \"#utility.yul\":1711:1718   */\n      not\n        /* \"#utility.yul\":1706:1708   */\n      0x1f\n        /* \"#utility.yul\":1699:1704   */\n      dup4\n        /* \"#utility.yul\":1695:1709   */\n      add\n        /* \"#utility.yul\":1691:1719   */\n      and\n        /* \"#utility.yul\":1681:1719   */\n      swap1\n      pop\n        /* \"#utility.yul\":1623:1725   */\n      swap2\n      swap1\n      pop\n      jump\t// out\n        /* \"#utility.yul\":1731:1911   */\n    tag_41:\n        /* \"#utility.yul\":1779:1856   */\n      0x4e487b7100000000000000000000000000000000000000000000000000000000\n        /* \"#utility.yul\":1776:1777   */\n      0x00\n        /* \"#utility.yul\":1769:1857   */\n      mstore\n        /* \"#utility.yul\":1876:1880   */\n      0x41\n        /* \"#utility.yul\":1873:1874   */\n      0x04\n        /* \"#utility.yul\":1866:1881   */\n      mstore\n        /* \"#utility.yul\":1900:1904   */\n      0x24\n        /* \"#utility.yul\":1897:1898   */\n      0x00\n        /* \"#utility.yul\":1890:1905   */\n      revert\n        /* \"#utility.yul\":1917:2198   */\n    tag_68:\n        /* \"#utility.yul\":2000:2027   */\n      tag_125\n        /* \"#utility.yul\":2022:2026   */\n      dup3\n        /* \"#utility.yul\":2000:2027   */\n      tag_67\n      jump\t// in\n    tag_125:\n        /* \"#utility.yul\":1992:1998   */\n      dup2\n        /* \"#utility.yul\":1988:2028   */\n      add\n        /* \"#utility.yul\":2130:2136   */\n      dup2\n        /* \"#utility.yul\":2118:2128   */\n      dup2\n        /* \"#utility.yul\":2115:2137   */\n      lt\n        /* \"#utility.yul\":2094:2112   */\n      0xffffffffffffffff\n        /* \"#utility.yul\":2082:2092   */\n      dup3\n        /* \"#utility.yul\":2079:2113   */\n      gt\n        /* \"#utility.yul\":2076:2138   */\n      or\n        /* \"#utility.yul\":2073:2161   */\n      iszero\n      tag_126\n      jumpi\n        /* \"#utility.yul\":2141:2159   */\n      tag_127\n      tag_41\n      jump\t// in\n    tag_127:\n        /* \"#utility.yul\":2073:2161   */\n    tag_126:\n        /* \"#utility.yul\":2181:2191   */\n      dup1\n        /* \"#utility.yul\":2177:2179   */\n      0x40\n        /* \"#utility.yul\":2170:2192   */\n      mstore\n        /* \"#utility.yul\":1960:2198   */\n      pop\n        /* \"#utility.yul\":1917:2198   */\n      pop\n      pop\n      jump\t// out\n        /* \"#utility.yul\":2204:2333   */\n    tag_69:\n        /* \"#utility.yul\":2238:2244   */\n      0x00\n        /* \"#utility.yul\":2265:2285   */\n      tag_129\n      tag_58\n      jump\t// in\n    tag_129:\n        /* \"#utility.yul\":2255:2285   */\n      swap1\n      pop\n        /* \"#utility.yul\":2294:2327   */\n      tag_130\n        /* \"#utility.yul\":2322:2326   */\n      dup3\n        /* \"#utility.yul\":2314:2320   */\n      dup3\n        /* \"#utility.yul\":2294:2327   */\n      tag_68\n      jump\t// in\n    tag_130:\n        /* \"#utility.yul\":2204:2333   */\n      swap2\n      swap1\n      pop\n      jump\t// out\n        /* \"#utility.yul\":2339:2647   */\n    tag_70:\n        /* \"#utility.yul\":2401:2405   */\n      0x00\n        /* \"#utility.yul\":2491:2509   */\n      0xffffffffffffffff\n        /* \"#utility.yul\":2483:2489   */\n      dup3\n        /* \"#utility.yul\":2480:2510   */\n      gt\n        /* \"#utility.yul\":2477:2533   */\n      iszero\n      tag_132\n      jumpi\n        /* \"#utility.yul\":2513:2531   */\n      tag_133\n      tag_41\n      jump\t// in\n    tag_133:\n        /* \"#utility.yul\":2477:2533   */\n    tag_132:\n        /* \"#utility.yul\":2551:2580   */\n      tag_134\n        /* \"#utility.yul\":2573:2579   */\n      dup3\n        /* \"#utility.yul\":2551:2580   */\n      tag_67\n      jump\t// in\n    tag_134:\n        /* \"#utility.yul\":2543:2580   */\n      swap1\n      pop\n        /* \"#utility.yul\":2635:2639   */\n      0x20\n        /* \"#utility.yul\":2629:2633   */\n      dup2\n        /* \"#utility.yul\":2625:2640   */\n      add\n        /* \"#utility.yul\":2617:2640   */\n      swap1\n      pop\n        /* \"#utility.yul\":2339:2647   */\n      swap2\n      swap1\n      pop\n      jump\t// out\n        /* \"#utility.yul\":2653:2799   */\n    tag_71:\n        /* \"#utility.yul\":2750:2756   */\n      dup3\n        /* \"#utility.yul\":2745:2748   */\n      dup2\n        /* \"#utility.yul\":2740:2743   */\n      dup4\n        /* \"#utility.yul\":2727:2757   */\n      calldatacopy\n        /* \"#utility.yul\":2791:2792   */\n      0x00\n        /* \"#utility.yul\":2782:2788   */\n      dup4\n        /* \"#utility.yul\":2777:2780   */\n      dup4\n        /* \"#utility.yul\":2773:2789   */\n      add\n        /* \"#utility.yul\":2766:2793   */\n      mstore\n        /* \"#utility.yul\":2653:2799   */\n      pop\n      pop\n      pop\n      jump\t// out\n        /* \"#utility.yul\":2805:3230   */\n    tag_72:\n        /* \"#utility.yul\":2883:2888   */\n      0x00\n        /* \"#utility.yul\":2908:2974   */\n      tag_137\n        /* \"#utility.yul\":2924:2973   */\n      tag_138\n        /* \"#utility.yul\":2966:2972   */\n      dup5\n        /* \"#utility.yul\":2924:2973   */\n      tag_70\n      jump\t// in\n    tag_138:\n        /* \"#utility.yul\":2908:2974   */\n      tag_69\n      jump\t// in\n    tag_137:\n        /* \"#utility.yul\":2899:2974   */\n      swap1\n      pop\n        /* \"#utility.yul\":2997:3003   */\n      dup3\n        /* \"#utility.yul\":2990:2995   */\n      dup2\n        /* \"#utility.yul\":2983:3004   */\n      mstore\n        /* \"#utility.yul\":3035:3039   */\n      0x20\n        /* \"#utility.yul\":3028:3033   */\n      dup2\n        /* \"#utility.yul\":3024:3040   */\n      add\n        /* \"#utility.yul\":3073:3076   */\n      dup5\n        /* \"#utility.yul\":3064:3070   */\n      dup5\n        /* \"#utility.yul\":3059:3062   */\n      dup5\n        /* \"#utility.yul\":3055:3071   */\n      add\n        /* \"#utility.yul\":3052:3077   */\n      gt\n        /* \"#utility.yul\":3049:3161   */\n      iszero\n      tag_139\n      jumpi\n        /* \"#utility.yul\":3080:3159   */\n      tag_140\n      tag_66\n      jump\t// in\n    tag_140:\n        /* \"#utility.yul\":3049:3161   */\n    tag_139:\n        /* \"#utility.yul\":3170:3224   */\n      tag_141\n        /* \"#utility.yul\":3217:3223   */\n      dup5\n        /* \"#utility.yul\":3212:3215   */\n      dup3\n        /* \"#utility.yul\":3207:3210   */\n      dup6\n        /* \"#utility.yul\":3170:3224   */\n      tag_71\n      jump\t// in\n    tag_141:\n        /* \"#utility.yul\":2889:3230   */\n      pop\n        /* \"#utility.yul\":2805:3230   */\n      swap4\n      swap3\n      pop\n      pop\n      pop\n      jump\t// out\n        /* \"#utility.yul\":3250:3590   */\n    tag_73:\n        /* \"#utility.yul\":3306:3311   */\n      0x00\n        /* \"#utility.yul\":3355:3358   */\n      dup3\n        /* \"#utility.yul\":3348:3352   */\n      0x1f\n        /* \"#utility.yul\":3340:3346   */\n      dup4\n        /* \"#utility.yul\":3336:3353   */\n      add\n        /* \"#utility.yul\":3332:3359   */\n      slt\n        /* \"#utility.yul\":3322:3444   */\n      tag_143\n      jumpi\n        /* \"#utility.yul\":3363:3442   */\n      tag_144\n      tag_65\n      jump\t// in\n    tag_144:\n        /* \"#utility.yul\":3322:3444   */\n    tag_143:\n        /* \"#utility.yul\":3480:3486   */\n      dup2\n        /* \"#utility.yul\":3467:3487   */\n      calldataload\n        /* \"#utility.yul\":3505:3584   */\n      tag_145\n        /* \"#utility.yul\":3580:3583   */\n      dup5\n        /* \"#utility.yul\":3572:3578   */\n      dup3\n        /* \"#utility.yul\":3565:3569   */\n      0x20\n        /* \"#utility.yul\":3557:3563   */\n      dup7\n        /* \"#utility.yul\":3553:3570   */\n      add\n        /* \"#utility.yul\":3505:3584   */\n      tag_72\n      jump\t// in\n    tag_145:\n        /* \"#utility.yul\":3496:3584   */\n      swap2\n      pop\n        /* \"#utility.yul\":3312:3590   */\n      pop\n        /* \"#utility.yul\":3250:3590   */\n      swap3\n      swap2\n      pop\n      pop\n      jump\t// out\n        /* \"#utility.yul\":3596:4250   */\n    tag_15:\n        /* \"#utility.yul\":3674:3680   */\n      0x00\n        /* \"#utility.yul\":3682:3688   */\n      dup1\n        /* \"#utility.yul\":3731:3733   */\n      0x40\n        /* \"#utility.yul\":3719:3728   */\n      dup4\n        /* \"#utility.yul\":3710:3717   */\n      dup6\n        /* \"#utility.yul\":3706:3729   */\n      sub\n        /* \"#utility.yul\":3702:3734   */\n      slt\n        /* \"#utility.yul\":3699:3818   */\n      iszero\n      tag_147\n      jumpi\n        /* \"#utility.yul\":3737:3816   */\n      tag_148\n      tag_59\n      jump\t// in\n    tag_148:\n        /* \"#utility.yul\":3699:3818   */\n    tag_147:\n        /* \"#utility.yul\":3857:3858   */\n      0x00\n        /* \"#utility.yul\":3882:3935   */\n      tag_149\n        /* \"#utility.yul\":3927:3934   */\n      dup6\n        /* \"#utility.yul\":3918:3924   */\n      dup3\n        /* \"#utility.yul\":3907:3916   */\n      dup7\n        /* \"#utility.yul\":3903:3925   */\n      add\n        /* \"#utility.yul\":3882:3935   */\n      tag_63\n      jump\t// in\n    tag_149:\n        /* \"#utility.yul\":3872:3935   */\n      swap3\n      pop\n        /* \"#utility.yul\":3828:3945   */\n      pop\n        /* \"#utility.yul\":4012:4014   */\n      0x20\n        /* \"#utility.yul\":4001:4010   */\n      dup4\n        /* \"#utility.yul\":3997:4015   */\n      add\n        /* \"#utility.yul\":3984:4016   */\n      calldataload\n        /* \"#utility.yul\":4043:4061   */\n      0xffffffffffffffff\n        /* \"#utility.yul\":4035:4041   */\n      dup2\n        /* \"#utility.yul\":4032:4062   */\n      gt\n        /* \"#utility.yul\":4029:4146   */\n      iszero\n      tag_150\n      jumpi\n        /* \"#utility.yul\":4065:4144   */\n      tag_151\n      tag_60\n      jump\t// in\n    tag_151:\n        /* \"#utility.yul\":4029:4146   */\n    tag_150:\n        /* \"#utility.yul\":4170:4233   */\n      tag_152\n        /* \"#utility.yul\":4225:4232   */\n      dup6\n        /* \"#utility.yul\":4216:4222   */\n      dup3\n        /* \"#utility.yul\":4205:4214   */\n      dup7\n        /* \"#utility.yul\":4201:4223   */\n      add\n        /* \"#utility.yul\":4170:4233   */\n      tag_73\n      jump\t// in\n    tag_152:\n        /* \"#utility.yul\":4160:4233   */\n      swap2\n      pop\n        /* \"#utility.yul\":3955:4243   */\n      pop\n        /* \"#utility.yul\":3596:4250   */\n      swap3\n      pop\n      swap3\n      swap1\n      pop\n      jump\t// out\n        /* \"#utility.yul\":4256:4355   */\n    tag_74:\n        /* \"#utility.yul\":4308:4314   */\n      0x00\n        /* \"#utility.yul\":4342:4347   */\n      dup2\n        /* \"#utility.yul\":4336:4348   */\n      mload\n        /* \"#utility.yul\":4326:4348   */\n      swap1\n      pop\n        /* \"#utility.yul\":4256:4355   */\n      swap2\n      swap1\n      pop\n      jump\t// out\n        /* \"#utility.yul\":4361:4530   */\n    tag_75:\n        /* \"#utility.yul\":4445:4456   */\n      0x00\n        /* \"#utility.yul\":4479:4485   */\n      dup3\n        /* \"#utility.yul\":4474:4477   */\n      dup3\n        /* \"#utility.yul\":4467:4486   */\n      mstore\n        /* \"#utility.yul\":4519:4523   */\n      0x20\n        /* \"#utility.yul\":4514:4517   */\n      dup3\n        /* \"#utility.yul\":4510:4524   */\n      add\n        /* \"#utility.yul\":4495:4524   */\n      swap1\n      pop\n        /* \"#utility.yul\":4361:4530   */\n      swap3\n      swap2\n      pop\n      pop\n      jump\t// out\n        /* \"#utility.yul\":4536:4782   */\n    tag_76:\n        /* \"#utility.yul\":4617:4618   */\n      0x00\n        /* \"#utility.yul\":4627:4740   */\n    tag_156:\n        /* \"#utility.yul\":4641:4647   */\n      dup4\n        /* \"#utility.yul\":4638:4639   */\n      dup2\n        /* \"#utility.yul\":4635:4648   */\n      lt\n        /* \"#utility.yul\":4627:4740   */\n      iszero\n      tag_158\n      jumpi\n        /* \"#utility.yul\":4726:4727   */\n      dup1\n        /* \"#utility.yul\":4721:4724   */\n      dup3\n        /* \"#utility.yul\":4717:4728   */\n      add\n        /* \"#utility.yul\":4711:4729   */\n      mload\n        /* \"#utility.yul\":4707:4708   */\n      dup2\n        /* \"#utility.yul\":4702:4705   */\n      dup5\n        /* \"#utility.yul\":4698:4709   */\n      add\n        /* \"#utility.yul\":4691:4730   */\n      mstore\n        /* \"#utility.yul\":4663:4665   */\n      0x20\n        /* \"#utility.yul\":4660:4661   */\n      dup2\n        /* \"#utility.yul\":4656:4666   */\n      add\n        /* \"#utility.yul\":4651:4666   */\n      swap1\n      pop\n        /* \"#utility.yul\":4627:4740   */\n      jump(tag_156)\n    tag_158:\n        /* \"#utility.yul\":4774:4775   */\n      0x00\n        /* \"#utility.yul\":4765:4771   */\n      dup5\n        /* \"#utility.yul\":4760:4763   */\n      dup5\n        /* \"#utility.yul\":4756:4772   */\n      add\n        /* \"#utility.yul\":4749:4776   */\n      mstore\n        /* \"#utility.yul\":4598:4782   */\n      pop\n        /* \"#utility.yul\":4536:4782   */\n      pop\n      pop\n      pop\n      jump\t// out\n        /* \"#utility.yul\":4788:5165   */\n    tag_77:\n        /* \"#utility.yul\":4876:4879   */\n      0x00\n        /* \"#utility.yul\":4904:4943   */\n      tag_160\n        /* \"#utility.yul\":4937:4942   */\n      dup3\n        /* \"#utility.yul\":4904:4943   */\n      tag_74\n      jump\t// in\n    tag_160:\n        /* \"#utility.yul\":4959:5030   */\n      tag_161\n        /* \"#utility.yul\":5023:5029   */\n      dup2\n        /* \"#utility.yul\":5018:5021   */\n      dup6\n        /* \"#utility.yul\":4959:5030   */\n      tag_75\n      jump\t// in\n    tag_161:\n        /* \"#utility.yul\":4952:5030   */\n      swap4\n      pop\n        /* \"#utility.yul\":5039:5104   */\n      tag_162\n        /* \"#utility.yul\":5097:5103   */\n      dup2\n        /* \"#utility.yul\":5092:5095   */\n      dup6\n        /* \"#utility.yul\":5085:5089   */\n      0x20\n        /* \"#utility.yul\":5078:5083   */\n      dup7\n        /* \"#utility.yul\":5074:5090   */\n      add\n        /* \"#utility.yul\":5039:5104   */\n      tag_76\n      jump\t// in\n    tag_162:\n        /* \"#utility.yul\":5129:5158   */\n      tag_163\n        /* \"#utility.yul\":5151:5157   */\n      dup2\n        /* \"#utility.yul\":5129:5158   */\n      tag_67\n      jump\t// in\n    tag_163:\n        /* \"#utility.yul\":5124:5127   */\n      dup5\n        /* \"#utility.yul\":5120:5159   */\n      add\n        /* \"#utility.yul\":5113:5159   */\n      swap2\n      pop\n        /* \"#utility.yul\":4880:5165   */\n      pop\n        /* \"#utility.yul\":4788:5165   */\n      swap3\n      swap2\n      pop\n      pop\n      jump\t// out\n        /* \"#utility.yul\":5171:5484   */\n    tag_21:\n        /* \"#utility.yul\":5284:5288   */\n      0x00\n        /* \"#utility.yul\":5322:5324   */\n      0x20\n        /* \"#utility.yul\":5311:5320   */\n      dup3\n        /* \"#utility.yul\":5307:5325   */\n      add\n        /* \"#utility.yul\":5299:5325   */\n      swap1\n      pop\n        /* \"#utility.yul\":5371:5380   */\n      dup2\n        /* \"#utility.yul\":5365:5369   */\n      dup2\n        /* \"#utility.yul\":5361:5381   */\n      sub\n        /* \"#utility.yul\":5357:5358   */\n      0x00\n        /* \"#utility.yul\":5346:5355   */\n      dup4\n        /* \"#utility.yul\":5342:5359   */\n      add\n        /* \"#utility.yul\":5335:5382   */\n      mstore\n        /* \"#utility.yul\":5399:5477   */\n      tag_165\n        /* \"#utility.yul\":5472:5476   */\n      dup2\n        /* \"#utility.yul\":5463:5469   */\n      dup5\n        /* \"#utility.yul\":5399:5477   */\n      tag_77\n      jump\t// in\n    tag_165:\n        /* \"#utility.yul\":5391:5477   */\n      swap1\n      pop\n        /* \"#utility.yul\":5171:5484   */\n      swap3\n      swap2\n      pop\n      pop\n      jump\t// out\n        /* \"#utility.yul\":5490:5614   */\n    tag_78:\n        /* \"#utility.yul\":5567:5573   */\n      0x00\n        /* \"#utility.yul\":5601:5606   */\n      dup2\n        /* \"#utility.yul\":5595:5607   */\n      mload\n        /* \"#utility.yul\":5585:5607   */\n      swap1\n      pop\n        /* \"#utility.yul\":5490:5614   */\n      swap2\n      swap1\n      pop\n      jump\t// out\n        /* \"#utility.yul\":5620:5814   */\n    tag_79:\n        /* \"#utility.yul\":5729:5740   */\n      0x00\n        /* \"#utility.yul\":5763:5769   */\n      dup3\n        /* \"#utility.yul\":5758:5761   */\n      dup3\n        /* \"#utility.yul\":5751:5770   */\n      mstore\n        /* \"#utility.yul\":5803:5807   */\n      0x20\n        /* \"#utility.yul\":5798:5801   */\n      dup3\n        /* \"#utility.yul\":5794:5808   */\n      add\n        /* \"#utility.yul\":5779:5808   */\n      swap1\n      pop\n        /* \"#utility.yul\":5620:5814   */\n      swap3\n      swap2\n      pop\n      pop\n      jump\t// out\n        /* \"#utility.yul\":5820:5962   */\n    tag_80:\n        /* \"#utility.yul\":5897:5901   */\n      0x00\n        /* \"#utility.yul\":5920:5923   */\n      dup2\n        /* \"#utility.yul\":5912:5923   */\n      swap1\n      pop\n        /* \"#utility.yul\":5950:5954   */\n      0x20\n        /* \"#utility.yul\":5945:5948   */\n      dup3\n        /* \"#utility.yul\":5941:5955   */\n      add\n        /* \"#utility.yul\":5933:5955   */\n      swap1\n      pop\n        /* \"#utility.yul\":5820:5962   */\n      swap2\n      swap1\n      pop\n      jump\t// out\n        /* \"#utility.yul\":5968:6127   */\n    tag_81:\n        /* \"#utility.yul\":6042:6053   */\n      0x00\n        /* \"#utility.yul\":6076:6082   */\n      dup3\n        /* \"#utility.yul\":6071:6074   */\n      dup3\n        /* \"#utility.yul\":6064:6083   */\n      mstore\n        /* \"#utility.yul\":6116:6120   */\n      0x20\n        /* \"#utility.yul\":6111:6114   */\n      dup3\n        /* \"#utility.yul\":6107:6121   */\n      add\n        /* \"#utility.yul\":6092:6121   */\n      swap1\n      pop\n        /* \"#utility.yul\":5968:6127   */\n      swap3\n      swap2\n      pop\n      pop\n      jump\t// out\n        /* \"#utility.yul\":6133:6490   */\n    tag_82:\n        /* \"#utility.yul\":6211:6214   */\n      0x00\n        /* \"#utility.yul\":6239:6278   */\n      tag_171\n        /* \"#utility.yul\":6272:6277   */\n      dup3\n        /* \"#utility.yul\":6239:6278   */\n      tag_74\n      jump\t// in\n    tag_171:\n        /* \"#utility.yul\":6294:6355   */\n      tag_172\n        /* \"#utility.yul\":6348:6354   */\n      dup2\n        /* \"#utility.yul\":6343:6346   */\n      dup6\n        /* \"#utility.yul\":6294:6355   */\n      tag_81\n      jump\t// in\n    tag_172:\n        /* \"#utility.yul\":6287:6355   */\n      swap4\n      pop\n        /* \"#utility.yul\":6364:6429   */\n      tag_173\n        /* \"#utility.yul\":6422:6428   */\n      dup2\n        /* \"#utility.yul\":6417:6420   */\n      dup6\n        /* \"#utility.yul\":6410:6414   */\n      0x20\n        /* \"#utility.yul\":6403:6408   */\n      dup7\n        /* \"#utility.yul\":6399:6415   */\n      add\n        /* \"#utility.yul\":6364:6429   */\n      tag_76\n      jump\t// in\n    tag_173:\n        /* \"#utility.yul\":6454:6483   */\n      tag_174\n        /* \"#utility.yul\":6476:6482   */\n      dup2\n        /* \"#utility.yul\":6454:6483   */\n      tag_67\n      jump\t// in\n    tag_174:\n        /* \"#utility.yul\":6449:6452   */\n      dup5\n        /* \"#utility.yul\":6445:6484   */\n      add\n        /* \"#utility.yul\":6438:6484   */\n      swap2\n      pop\n        /* \"#utility.yul\":6215:6490   */\n      pop\n        /* \"#utility.yul\":6133:6490   */\n      swap3\n      swap2\n      pop\n      pop\n      jump\t// out\n        /* \"#utility.yul\":6496:6692   */\n    tag_83:\n        /* \"#utility.yul\":6585:6595   */\n      0x00\n        /* \"#utility.yul\":6620:6686   */\n      tag_176\n        /* \"#utility.yul\":6682:6685   */\n      dup4\n        /* \"#utility.yul\":6674:6680   */\n      dup4\n        /* \"#utility.yul\":6620:6686   */\n      tag_82\n      jump\t// in\n    tag_176:\n        /* \"#utility.yul\":6606:6686   */\n      swap1\n      pop\n        /* \"#utility.yul\":6496:6692   */\n      swap3\n      swap2\n      pop\n      pop\n      jump\t// out\n        /* \"#utility.yul\":6698:6821   */\n    tag_84:\n        /* \"#utility.yul\":6778:6782   */\n      0x00\n        /* \"#utility.yul\":6810:6814   */\n      0x20\n        /* \"#utility.yul\":6805:6808   */\n      dup3\n        /* \"#utility.yul\":6801:6815   */\n      add\n        /* \"#utility.yul\":6793:6815   */\n      swap1\n      pop\n        /* \"#utility.yul\":6698:6821   */\n      swap2\n      swap1\n      pop\n      jump\t// out\n        /* \"#utility.yul\":6855:7846   */\n    tag_85:\n        /* \"#utility.yul\":6994:6997   */\n      0x00\n        /* \"#utility.yul\":7023:7087   */\n      tag_179\n        /* \"#utility.yul\":7081:7086   */\n      dup3\n        /* \"#utility.yul\":7023:7087   */\n      tag_78\n      jump\t// in\n    tag_179:\n        /* \"#utility.yul\":7103:7199   */\n      tag_180\n        /* \"#utility.yul\":7192:7198   */\n      dup2\n        /* \"#utility.yul\":7187:7190   */\n      dup6\n        /* \"#utility.yul\":7103:7199   */\n      tag_79\n      jump\t// in\n    tag_180:\n        /* \"#utility.yul\":7096:7199   */\n      swap4\n      pop\n        /* \"#utility.yul\":7225:7228   */\n      dup4\n        /* \"#utility.yul\":7270:7274   */\n      0x20\n        /* \"#utility.yul\":7262:7268   */\n      dup3\n        /* \"#utility.yul\":7258:7275   */\n      mul\n        /* \"#utility.yul\":7253:7256   */\n      dup6\n        /* \"#utility.yul\":7249:7276   */\n      add\n        /* \"#utility.yul\":7300:7366   */\n      tag_181\n        /* \"#utility.yul\":7360:7365   */\n      dup6\n        /* \"#utility.yul\":7300:7366   */\n      tag_80\n      jump\t// in\n    tag_181:\n        /* \"#utility.yul\":7389:7396   */\n      dup1\n        /* \"#utility.yul\":7420:7421   */\n      0x00\n        /* \"#utility.yul\":7405:7801   */\n    tag_182:\n        /* \"#utility.yul\":7430:7436   */\n      dup6\n        /* \"#utility.yul\":7427:7428   */\n      dup2\n        /* \"#utility.yul\":7424:7437   */\n      lt\n        /* \"#utility.yul\":7405:7801   */\n      iszero\n      tag_184\n      jumpi\n        /* \"#utility.yul\":7501:7510   */\n      dup5\n        /* \"#utility.yul\":7495:7499   */\n      dup5\n        /* \"#utility.yul\":7491:7511   */\n      sub\n        /* \"#utility.yul\":7486:7489   */\n      dup10\n        /* \"#utility.yul\":7479:7512   */\n      mstore\n        /* \"#utility.yul\":7552:7558   */\n      dup2\n        /* \"#utility.yul\":7546:7559   */\n      mload\n        /* \"#utility.yul\":7580:7664   */\n      tag_185\n        /* \"#utility.yul\":7659:7663   */\n      dup6\n        /* \"#utility.yul\":7644:7657   */\n      dup3\n        /* \"#utility.yul\":7580:7664   */\n      tag_83\n      jump\t// in\n    tag_185:\n        /* \"#utility.yul\":7572:7664   */\n      swap5\n      pop\n        /* \"#utility.yul\":7687:7757   */\n      tag_186\n        /* \"#utility.yul\":7750:7756   */\n      dup4\n        /* \"#utility.yul\":7687:7757   */\n      tag_84\n      jump\t// in\n    tag_186:\n        /* \"#utility.yul\":7677:7757   */\n      swap3\n      pop\n        /* \"#utility.yul\":7786:7790   */\n      0x20\n        /* \"#utility.yul\":7781:7784   */\n      dup11\n        /* \"#utility.yul\":7777:7791   */\n      add\n        /* \"#utility.yul\":7770:7791   */\n      swap10\n      pop\n        /* \"#utility.yul\":7465:7801   */\n      pop\n        /* \"#utility.yul\":7452:7453   */\n      0x01\n        /* \"#utility.yul\":7449:7450   */\n      dup2\n        /* \"#utility.yul\":7445:7454   */\n      add\n        /* \"#utility.yul\":7440:7454   */\n      swap1\n      pop\n        /* \"#utility.yul\":7405:7801   */\n      jump(tag_182)\n    tag_184:\n        /* \"#utility.yul\":7409:7423   */\n      pop\n        /* \"#utility.yul\":7817:7821   */\n      dup3\n        /* \"#utility.yul\":7810:7821   */\n      swap8\n      pop\n        /* \"#utility.yul\":7837:7840   */\n      dup8\n        /* \"#utility.yul\":7830:7840   */\n      swap6\n      pop\n        /* \"#utility.yul\":6999:7846   */\n      pop\n      pop\n      pop\n      pop\n      pop\n        /* \"#utility.yul\":6855:7846   */\n      swap3\n      swap2\n      pop\n      pop\n      jump\t// out\n        /* \"#utility.yul\":7852:8265   */\n    tag_25:\n        /* \"#utility.yul\":8015:8019   */\n      0x00\n        /* \"#utility.yul\":8053:8055   */\n      0x20\n        /* \"#utility.yul\":8042:8051   */\n      dup3\n        /* \"#utility.yul\":8038:8056   */\n      add\n        /* \"#utility.yul\":8030:8056   */\n      swap1\n      pop\n        /* \"#utility.yul\":8102:8111   */\n      dup2\n        /* \"#utility.yul\":8096:8100   */\n      dup2\n        /* \"#utility.yul\":8092:8112   */\n      sub\n        /* \"#utility.yul\":8088:8089   */\n      0x00\n        /* \"#utility.yul\":8077:8086   */\n      dup4\n        /* \"#utility.yul\":8073:8090   */\n      add\n        /* \"#utility.yul\":8066:8113   */\n      mstore\n        /* \"#utility.yul\":8130:8258   */\n      tag_188\n        /* \"#utility.yul\":8253:8257   */\n      dup2\n        /* \"#utility.yul\":8244:8250   */\n      dup5\n        /* \"#utility.yul\":8130:8258   */\n      tag_85\n      jump\t// in\n    tag_188:\n        /* \"#utility.yul\":8122:8258   */\n      swap1\n      pop\n        /* \"#utility.yul\":7852:8265   */\n      swap3\n      swap2\n      pop\n      pop\n      jump\t// out\n        /* \"#utility.yul\":8271:8451   */\n    tag_86:\n        /* \"#utility.yul\":8319:8396   */\n      0x4e487b7100000000000000000000000000000000000000000000000000000000\n        /* \"#utility.yul\":8316:8317   */\n      0x00\n        /* \"#utility.yul\":8309:8397   */\n      mstore\n        /* \"#utility.yul\":8416:8420   */\n      0x22\n        /* \"#utility.yul\":8413:8414   */\n      0x04\n        /* \"#utility.yul\":8406:8421   */\n      mstore\n        /* \"#utility.yul\":8440:8444   */\n      0x24\n        /* \"#utility.yul\":8437:8438   */\n      0x00\n        /* \"#utility.yul\":8430:8445   */\n      revert\n        /* \"#utility.yul\":8457:8777   */\n    tag_33:\n        /* \"#utility.yul\":8501:8507   */\n      0x00\n        /* \"#utility.yul\":8538:8539   */\n      0x02\n        /* \"#utility.yul\":8532:8536   */\n      dup3\n        /* \"#utility.yul\":8528:8540   */\n      div\n        /* \"#utility.yul\":8518:8540   */\n      swap1\n      pop\n        /* \"#utility.yul\":8585:8586   */\n      0x01\n        /* \"#utility.yul\":8579:8583   */\n      dup3\n        /* \"#utility.yul\":8575:8587   */\n      and\n        /* \"#utility.yul\":8606:8624   */\n      dup1\n        /* \"#utility.yul\":8596:8677   */\n      tag_191\n      jumpi\n        /* \"#utility.yul\":8662:8666   */\n      0x7f\n        /* \"#utility.yul\":8654:8660   */\n      dup3\n        /* \"#utility.yul\":8650:8667   */\n      and\n        /* \"#utility.yul\":8640:8667   */\n      swap2\n      pop\n        /* \"#utility.yul\":8596:8677   */\n    tag_191:\n        /* \"#utility.yul\":8724:8726   */\n      0x20\n        /* \"#utility.yul\":8716:8722   */\n      dup3\n        /* \"#utility.yul\":8713:8727   */\n      lt\n        /* \"#utility.yul\":8693:8711   */\n      dup2\n        /* \"#utility.yul\":8690:8728   */\n      sub\n        /* \"#utility.yul\":8687:8771   */\n      tag_192\n      jumpi\n        /* \"#utility.yul\":8743:8761   */\n      tag_193\n      tag_86\n      jump\t// in\n    tag_193:\n        /* \"#utility.yul\":8687:8771   */\n    tag_192:\n        /* \"#utility.yul\":8508:8777   */\n      pop\n        /* \"#utility.yul\":8457:8777   */\n      swap2\n      swap1\n      pop\n      jump\t// out\n        /* \"#utility.yul\":8783:8924   */\n    tag_87:\n        /* \"#utility.yul\":8832:8836   */\n      0x00\n        /* \"#utility.yul\":8855:8858   */\n      dup2\n        /* \"#utility.yul\":8847:8858   */\n      swap1\n      pop\n        /* \"#utility.yul\":8878:8881   */\n      dup2\n        /* \"#utility.yul\":8875:8876   */\n      0x00\n        /* \"#utility.yul\":8868:8882   */\n      mstore\n        /* \"#utility.yul\":8912:8916   */\n      0x20\n        /* \"#utility.yul\":8909:8910   */\n      0x00\n        /* \"#utility.yul\":8899:8917   */\n      keccak256\n        /* \"#utility.yul\":8891:8917   */\n      swap1\n      pop\n        /* \"#utility.yul\":8783:8924   */\n      swap2\n      swap1\n      pop\n      jump\t// out\n        /* \"#utility.yul\":8930:9023   */\n    tag_88:\n        /* \"#utility.yul\":8967:8973   */\n      0x00\n        /* \"#utility.yul\":9014:9016   */\n      0x20\n        /* \"#utility.yul\":9009:9011   */\n      0x1f\n        /* \"#utility.yul\":9002:9007   */\n      dup4\n        /* \"#utility.yul\":8998:9012   */\n      add\n        /* \"#utility.yul\":8994:9017   */\n      div\n        /* \"#utility.yul\":8984:9017   */\n      swap1\n      pop\n        /* \"#utility.yul\":8930:9023   */\n      swap2\n      swap1\n      pop\n      jump\t// out\n        /* \"#utility.yul\":9029:9136   */\n    tag_89:\n        /* \"#utility.yul\":9073:9081   */\n      0x00\n        /* \"#utility.yul\":9123:9128   */\n      dup3\n        /* \"#utility.yul\":9117:9121   */\n      dup3\n        /* \"#utility.yul\":9113:9129   */\n      shl\n        /* \"#utility.yul\":9092:9129   */\n      swap1\n      pop\n        /* \"#utility.yul\":9029:9136   */\n      swap3\n      swap2\n      pop\n      pop\n      jump\t// out\n        /* \"#utility.yul\":9142:9535   */\n    tag_90:\n        /* \"#utility.yul\":9211:9217   */\n      0x00\n        /* \"#utility.yul\":9261:9262   */\n      0x08\n        /* \"#utility.yul\":9249:9259   */\n      dup4\n        /* \"#utility.yul\":9245:9263   */\n      mul\n        /* \"#utility.yul\":9284:9381   */\n      tag_198\n        /* \"#utility.yul\":9314:9380   */\n      0xffffffffffffffffffffffffffffffffffffffffffffffffffffffffffffffff\n        /* \"#utility.yul\":9303:9312   */\n      dup3\n        /* \"#utility.yul\":9284:9381   */\n      tag_89\n      jump\t// in\n    tag_198:\n        /* \"#utility.yul\":9402:9441   */\n      tag_199\n        /* \"#utility.yul\":9432:9440   */\n      dup7\n        /* \"#utility.yul\":9421:9430   */\n      dup4\n        /* \"#utility.yul\":9402:9441   */\n      tag_89\n      jump\t// in\n    tag_199:\n        /* \"#utility.yul\":9390:9441   */\n      swap6\n      pop\n        /* \"#utility.yul\":9474:9478   */\n      dup1\n        /* \"#utility.yul\":9470:9479   */\n      not\n        /* \"#utility.yul\":9463:9468   */\n      dup5\n        /* \"#utility.yul\":9459:9480   */\n      and\n        /* \"#utility.yul\":9450:9480   */\n      swap4\n      pop\n        /* \"#utility.yul\":9523:9527   */\n      dup1\n        /* \"#utility.yul\":9513:9521   */\n      dup7\n        /* \"#utility.yul\":9509:9528   */\n      and\n        /* \"#utility.yul\":9502:9507   */\n      dup5\n        /* \"#utility.yul\":9499:9529   */\n      or\n        /* \"#utility.yul\":9489:9529   */\n      swap3\n      pop\n        /* \"#utility.yul\":9218:9535   */\n      pop\n      pop\n        /* \"#utility.yul\":9142:9535   */\n      swap4\n      swap3\n      pop\n      pop\n      pop\n      jump\t// out\n        /* \"#utility.yul\":9541:9601   */\n    tag_91:\n        /* \"#utility.yul\":9569:9572   */\n      0x00\n        /* \"#utility.yul\":9590:9595   */\n      dup2\n        /* \"#utility.yul\":9583:9595   */\n      swap1\n      pop\n        /* \"#utility.yul\":9541:9601   */\n      swap2\n      swap1\n      pop\n      jump\t// out\n        /* \"#utility.yul\":9607:9749   */\n    tag_92:\n        /* \"#utility.yul\":9657:9666   */\n      0x00\n        /* \"#utility.yul\":9690:9743   */\n      tag_202\n        /* \"#utility.yul\":9708:9742   */\n      tag_203\n        /* \"#utility.yul\":9717:9741   */\n      tag_204\n        /* \"#utility.yul\":9735:9740   */\n      dup5\n        /* \"#utility.yul\":9717:9741   */\n      tag_61\n      jump\t// in\n    tag_204:\n        /* \"#utility.yul\":9708:9742   */\n      tag_91\n      jump\t// in\n    tag_203:\n        /* \"#utility.yul\":9690:9743   */\n      tag_61\n      jump\t// in\n    tag_202:\n        /* \"#utility.yul\":9677:9743   */\n      swap1\n      pop\n        /* \"#utility.yul\":9607:9749   */\n      swap2\n      swap1\n      pop\n      jump\t// out\n        /* \"#utility.yul\":9755:9830   */\n    tag_93:\n        /* \"#utility.yul\":9798:9801   */\n      0x00\n        /* \"#utility.yul\":9819:9824   */\n      dup2\n        /* \"#utility.yul\":9812:9824   */\n      swap1\n      pop\n        /* \"#utility.yul\":9755:9830   */\n      swap2\n      swap1\n      pop\n      jump\t// out\n        /* \"#utility.yul\":9836:10105   */\n    tag_94:\n        /* \"#utility.yul\":9946:9985   */\n      tag_207\n        /* \"#utility.yul\":9977:9984   */\n      dup4\n        /* \"#utility.yul\":9946:9985   */\n      tag_92\n      jump\t// in\n    tag_207:\n        /* \"#utility.yul\":10007:10098   */\n      tag_208\n        /* \"#utility.yul\":10056:10097   */\n      tag_209\n        /* \"#utility.yul\":10080:10096   */\n      dup3\n        /* \"#utility.yul\":10056:10097   */\n      tag_93\n      jump\t// in\n    tag_209:\n        /* \"#utility.yul\":10048:10054   */\n      dup5\n        /* \"#utility.yul\":10041:10045   */\n      dup5\n        /* \"#utility.yul\":10035:10046   */\n      sload\n        /* \"#utility.yul\":10007:10098   */\n      tag_90\n      jump\t// in\n    tag_208:\n        /* \"#utility.yul\":10001:10005   */\n      dup3\n        /* \"#utility.yul\":9994:10099   */\n      sstore\n        /* \"#utility.yul\":9912:10105   */\n      pop\n        /* \"#utility.yul\":9836:10105   */\n      pop\n      pop\n      pop\n      jump\t// out\n        /* \"#utility.yul\":10111:10184   */\n    tag_95:\n        /* \"#utility.yul\":10156:10159   */\n      0x00\n        /* \"#utility.yul\":10111:10184   */\n      swap1\n      jump\t// out\n        /* \"#utility.yul\":10190:10379   */\n    tag_96:\n        /* \"#utility.yul\":10267:10299   */\n      tag_212\n      tag_95\n      jump\t// in\n    tag_212:\n        /* \"#utility.yul\":10308:10373   */\n      tag_213\n        /* \"#utility.yul\":10366:10372   */\n      dup2\n        /* \"#utility.yul\":10358:10364   */\n      dup5\n        /* \"#utility.yul\":10352:10356   */\n      dup5\n        /* \"#utility.yul\":10308:10373   */\n      tag_94\n      jump\t// in\n    tag_213:\n        /* \"#utility.yul\":10243:10379   */\n      pop\n        /* \"#utility.yul\":10190:10379   */\n      pop\n      pop\n      jump\t// out\n        /* \"#utility.yul\":10385:10571   */\n    tag_97:\n        /* \"#utility.yul\":10445:10565   */\n    tag_215:\n        /* \"#utility.yul\":10462:10465   */\n      dup2\n        /* \"#utility.yul\":10455:10460   */\n      dup2\n        /* \"#utility.yul\":10452:10466   */\n      lt\n        /* \"#utility.yul\":10445:10565   */\n      iszero\n      tag_217\n      jumpi\n        /* \"#utility.yul\":10516:10555   */\n      tag_218\n        /* \"#utility.yul\":10553:10554   */\n      0x00\n        /* \"#utility.yul\":10546:10551   */\n      dup3\n        /* \"#utility.yul\":10516:10555   */\n      tag_96\n      jump\t// in\n    tag_218:\n        /* \"#utility.yul\":10489:10490   */\n      0x01\n        /* \"#utility.yul\":10482:10487   */\n      dup2\n        /* \"#utility.yul\":10478:10491   */\n      add\n        /* \"#utility.yul\":10469:10491   */\n      swap1\n      pop\n        /* \"#utility.yul\":10445:10565   */\n      jump(tag_215)\n    tag_217:\n        /* \"#utility.yul\":10385:10571   */\n      pop\n      pop\n      jump\t// out\n        /* \"#utility.yul\":10577:11120   */\n    tag_98:\n        /* \"#utility.yul\":10678:10680   */\n      0x1f\n        /* \"#utility.yul\":10673:10676   */\n      dup3\n        /* \"#utility.yul\":10670:10681   */\n      gt\n        /* \"#utility.yul\":10667:11113   */\n      iszero\n      tag_220\n      jumpi\n        /* \"#utility.yul\":10712:10750   */\n      tag_221\n        /* \"#utility.yul\":10744:10749   */\n      dup2\n        /* \"#utility.yul\":10712:10750   */\n      tag_87\n      jump\t// in\n    tag_221:\n        /* \"#utility.yul\":10796:10825   */\n      tag_222\n        /* \"#utility.yul\":10814:10824   */\n      dup5\n        /* \"#utility.yul\":10796:10825   */\n      tag_88\n      jump\t// in\n    tag_222:\n        /* \"#utility.yul\":10786:10794   */\n      dup2\n        /* \"#utility.yul\":10782:10826   */\n      add\n        /* \"#utility.yul\":10979:10981   */\n      0x20\n        /* \"#utility.yul\":10967:10977   */\n      dup6\n        /* \"#utility.yul\":10964:10982   */\n      lt\n        /* \"#utility.yul\":10961:11010   */\n      iszero\n      tag_223\n      jumpi\n        /* \"#utility.yul\":11000:11008   */\n      dup2\n        /* \"#utility.yul\":10985:11008   */\n      swap1\n      pop\n        /* \"#utility.yul\":10961:11010   */\n    tag_223:\n        /* \"#utility.yul\":11023:11103   */\n      tag_224\n        /* \"#utility.yul\":11079:11101   */\n      tag_225\n        /* \"#utility.yul\":11097:11100   */\n      dup6\n        /* \"#utility.yul\":11079:11101   */\n      tag_88\n      jump\t// in\n    tag_225:\n        /* \"#utility.yul\":11069:11077   */\n      dup4\n        /* \"#utility.yul\":11065:11102   */\n      add\n        /* \"#utility.yul\":11052:11063   */\n      dup3\n        /* \"#utility.yul\":11023:11103   */\n      tag_97\n      jump\t// in\n    tag_224:\n        /* \"#utility.yul\":10682:11113   */\n      pop\n      pop\n        /* \"#utility.yul\":10667:11113   */\n    tag_220:\n        /* \"#utility.yul\":10577:11120   */\n      pop\n      pop\n      pop\n      jump\t// out\n        /* \"#utility.yul\":11126:11243   */\n    tag_99:\n        /* \"#utility.yul\":11180:11188   */\n      0x00\n        /* \"#utility.yul\":11230:11235   */\n      dup3\n        /* \"#utility.yul\":11224:11228   */\n      dup3\n        /* \"#utility.yul\":11220:11236   */\n      shr\n        /* \"#utility.yul\":11199:11236   */\n      swap1\n      pop\n        /* \"#utility.yul\":11126:11243   */\n      swap3\n      swap2\n      pop\n      pop\n      jump\t// out\n        /* \"#utility.yul\":11249:11418   */\n    tag_100:\n        /* \"#utility.yul\":11293:11299   */\n      0x00\n        /* \"#utility.yul\":11326:11377   */\n      tag_228\n        /* \"#utility.yul\":11374:11375   */\n      0x00\n        /* \"#utility.yul\":11370:11376   */\n      not\n        /* \"#utility.yul\":11362:11367   */\n      dup5\n        /* \"#utility.yul\":11359:11360   */\n      0x08\n        /* \"#utility.yul\":11355:11368   */\n      mul\n        /* \"#utility.yul\":11326:11377   */\n      tag_99\n      jump\t// in\n    tag_228:\n        /* \"#utility.yul\":11322:11378   */\n      not\n        /* \"#utility.yul\":11407:11411   */\n      dup1\n        /* \"#utility.yul\":11401:11405   */\n      dup4\n        /* \"#utility.yul\":11397:11412   */\n      and\n        /* \"#utility.yul\":11387:11412   */\n      swap2\n      pop\n        /* \"#utility.yul\":11300:11418   */\n      pop\n        /* \"#utility.yul\":11249:11418   */\n      swap3\n      swap2\n      pop\n      pop\n      jump\t// out\n        /* \"#utility.yul\":11423:11718   */\n    tag_101:\n        /* \"#utility.yul\":11499:11503   */\n      0x00\n        /* \"#utility.yul\":11645:11674   */\n      tag_230\n        /* \"#utility.yul\":11670:11673   */\n      dup4\n        /* \"#utility.yul\":11664:11668   */\n      dup4\n        /* \"#utility.yul\":11645:11674   */\n      tag_100\n      jump\t// in\n    tag_230:\n        /* \"#utility.yul\":11637:11674   */\n      swap2\n      pop\n        /* \"#utility.yul\":11707:11710   */\n      dup3\n        /* \"#utility.yul\":11704:11705   */\n      0x02\n        /* \"#utility.yul\":11700:11711   */\n      mul\n        /* \"#utility.yul\":11694:11698   */\n      dup3\n        /* \"#utility.yul\":11691:11712   */\n      or\n        /* \"#utility.yul\":11683:11712   */\n      swap1\n      pop\n        /* \"#utility.yul\":11423:11718   */\n      swap3\n      swap2\n      pop\n      pop\n      jump\t// out\n        /* \"#utility.yul\":11723:13118   */\n    tag_30:\n        /* \"#utility.yul\":11840:11877   */\n      tag_232\n        /* \"#utility.yul\":11873:11876   */\n      dup3\n        /* \"#utility.yul\":11840:11877   */\n      tag_74\n      jump\t// in\n    tag_232:\n        /* \"#utility.yul\":11942:11960   */\n      0xffffffffffffffff\n        /* \"#utility.yul\":11934:11940   */\n      dup2\n        /* \"#utility.yul\":11931:11961   */\n      gt\n        /* \"#utility.yul\":11928:11984   */\n      iszero\n      tag_233\n      jumpi\n        /* \"#utility.yul\":11964:11982   */\n      tag_234\n      tag_41\n      jump\t// in\n    tag_234:\n        /* \"#utility.yul\":11928:11984   */\n    tag_233:\n        /* \"#utility.yul\":12008:12046   */\n      tag_235\n        /* \"#utility.yul\":12040:12044   */\n      dup3\n        /* \"#utility.yul\":12034:12045   */\n      sload\n        /* \"#utility.yul\":12008:12046   */\n      tag_33\n      jump\t// in\n    tag_235:\n        /* \"#utility.yul\":12093:12160   */\n      tag_236\n        /* \"#utility.yul\":12153:12159   */\n      dup3\n        /* \"#utility.yul\":12145:12151   */\n      dup3\n        /* \"#utility.yul\":12139:12143   */\n      dup6\n        /* \"#utility.yul\":12093:12160   */\n      tag_98\n      jump\t// in\n    tag_236:\n        /* \"#utility.yul\":12187:12188   */\n      0x00\n        /* \"#utility.yul\":12211:12215   */\n      0x20\n        /* \"#utility.yul\":12198:12215   */\n      swap1\n      pop\n        /* \"#utility.yul\":12243:12245   */\n      0x1f\n        /* \"#utility.yul\":12235:12241   */\n      dup4\n        /* \"#utility.yul\":12232:12246   */\n      gt\n        /* \"#utility.yul\":12260:12261   */\n      0x01\n        /* \"#utility.yul\":12255:12873   */\n      dup2\n      eq\n      tag_238\n      jumpi\n        /* \"#utility.yul\":12917:12918   */\n      0x00\n        /* \"#utility.yul\":12934:12940   */\n      dup5\n        /* \"#utility.yul\":12931:13008   */\n      iszero\n      tag_239\n      jumpi\n        /* \"#utility.yul\":12983:12992   */\n      dup3\n        /* \"#utility.yul\":12978:12981   */\n      dup8\n        /* \"#utility.yul\":12974:12993   */\n      add\n        /* \"#utility.yul\":12968:12994   */\n      mload\n        /* \"#utility.yul\":12959:12994   */\n      swap1\n      pop\n        /* \"#utility.yul\":12931:13008   */\n    tag_239:\n        /* \"#utility.yul\":13034:13101   */\n      tag_240\n        /* \"#utility.yul\":13094:13100   */\n      dup6\n        /* \"#utility.yul\":13087:13092   */\n      dup3\n        /* \"#utility.yul\":13034:13101   */\n      tag_101\n      jump\t// in\n    tag_240:\n        /* \"#utility.yul\":13028:13032   */\n      dup7\n        /* \"#utility.yul\":13021:13102   */\n      sstore\n        /* \"#utility.yul\":12890:13112   */\n      pop\n        /* \"#utility.yul\":12225:13112   */\n      jump(tag_237)\n        /* \"#utility.yul\":12255:12873   */\n    tag_238:\n        /* \"#utility.yul\":12307:12311   */\n      0x1f\n        /* \"#utility.yul\":12303:12312   */\n      not\n        /* \"#utility.yul\":12295:12301   */\n      dup5\n        /* \"#utility.yul\":12291:12313   */\n      and\n        /* \"#utility.yul\":12341:12378   */\n      tag_241\n        /* \"#utility.yul\":12373:12377   */\n      dup7\n        /* \"#utility.yul\":12341:12378   */\n      tag_87\n      jump\t// in\n    tag_241:\n        /* \"#utility.yul\":12400:12401   */\n      0x00\n        /* \"#utility.yul\":12414:12622   */\n    tag_242:\n        /* \"#utility.yul\":12428:12435   */\n      dup3\n        /* \"#utility.yul\":12425:12426   */\n      dup2\n        /* \"#utility.yul\":12422:12436   */\n      lt\n        /* \"#utility.yul\":12414:12622   */\n      iszero\n      tag_244\n      jumpi\n        /* \"#utility.yul\":12507:12516   */\n      dup5\n        /* \"#utility.yul\":12502:12505   */\n      dup10\n        /* \"#utility.yul\":12498:12517   */\n      add\n        /* \"#utility.yul\":12492:12518   */\n      mload\n        /* \"#utility.yul\":12484:12490   */\n      dup3\n        /* \"#utility.yul\":12477:12519   */\n      sstore\n        /* \"#utility.yul\":12558:12559   */\n      0x01\n        /* \"#utility.yul\":12550:12556   */\n      dup3\n        /* \"#utility.yul\":12546:12560   */\n      add\n        /* \"#utility.yul\":12536:12560   */\n      swap2\n      pop\n        /* \"#utility.yul\":12605:12607   */\n      0x20\n        /* \"#utility.yul\":12594:12603   */\n      dup6\n        /* \"#utility.yul\":12590:12608   */\n      add\n        /* \"#utility.yul\":12577:12608   */\n      swap5\n      pop\n        /* \"#utility.yul\":12451:12455   */\n      0x20\n        /* \"#utility.yul\":12448:12449   */\n      dup2\n        /* \"#utility.yul\":12444:12456   */\n      add\n        /* \"#utility.yul\":12439:12456   */\n      swap1\n      pop\n        /* \"#utility.yul\":12414:12622   */\n      jump(tag_242)\n    tag_244:\n        /* \"#utility.yul\":12650:12656   */\n      dup7\n        /* \"#utility.yul\":12641:12648   */\n      dup4\n        /* \"#utility.yul\":12638:12657   */\n      lt\n        /* \"#utility.yul\":12635:12814   */\n      iszero\n      tag_245\n      jumpi\n        /* \"#utility.yul\":12708:12717   */\n      dup5\n        /* \"#utility.yul\":12703:12706   */\n      dup10\n        /* \"#utility.yul\":12699:12718   */\n      add\n        /* \"#utility.yul\":12693:12719   */\n      mload\n        /* \"#utility.yul\":12751:12799   */\n      tag_246\n        /* \"#utility.yul\":12793:12797   */\n      0x1f\n        /* \"#utility.yul\":12785:12791   */\n      dup10\n        /* \"#utility.yul\":12781:12798   */\n      and\n        /* \"#utility.yul\":12770:12779   */\n      dup3\n        /* \"#utility.yul\":12751:12799   */\n      tag_100\n      jump\t// in\n    tag_246:\n        /* \"#utility.yul\":12743:12749   */\n      dup4\n        /* \"#utility.yul\":12736:12800   */\n      sstore\n        /* \"#utility.yul\":12658:12814   */\n      pop\n        /* \"#utility.yul\":12635:12814   */\n    tag_245:\n        /* \"#utility.yul\":12860:12861   */\n      0x01\n        /* \"#utility.yul\":12856:12857   */\n      0x02\n        /* \"#utility.yul\":12848:12854   */\n      dup9\n        /* \"#utility.yul\":12844:12858   */\n      mul\n        /* \"#utility.yul\":12840:12862   */\n      add\n        /* \"#utility.yul\":12834:12838   */\n      dup9\n        /* \"#utility.yul\":12827:12863   */\n      sstore\n        /* \"#utility.yul\":12262:12873   */\n      pop\n      pop\n      pop\n        /* \"#utility.yul\":12225:13112   */\n    tag_237:\n      pop\n        /* \"#utility.yul\":11815:13118   */\n      pop\n      pop\n      pop\n        /* \"#utility.yul\":11723:13118   */\n      pop\n      pop\n      jump\t// out\n        /* \"#utility.yul\":13124:13304   */\n    tag_49:\n        /* \"#utility.yul\":13172:13249   */\n      0x4e487b7100000000000000000000000000000000000000000000000000000000\n        /* \"#utility.yul\":13169:13170   */\n      0x00\n        /* \"#utility.yul\":13162:13250   */\n      mstore\n        /* \"#utility.yul\":13269:13273   */\n      0x32\n        /* \"#utility.yul\":13266:13267   */\n      0x04\n        /* \"#utility.yul\":13259:13274   */\n      mstore\n        /* \"#utility.yul\":13293:13297   */\n      0x24\n        /* \"#utility.yul\":13290:13291   */\n      0x00\n        /* \"#utility.yul\":13283:13298   */\n      revert\n\n    auxdata: 0xa264697066735822122080670fb0357b4a9c824406d4df117df72a9b6d58131e07d542704ad51fec61e264736f6c63430008160033\n}\n",
				"bytecode": {
					"linkReferences": {},
					"object": "608060405234801561000f575f80fd5b50610a578061001d5f395ff3fe608060405234801561000f575f80fd5b506004361061004a575f3560e01c80630cb6aaf11461004e5780631fdee7e51461007e578063ae338bae1461009a578063ef5afa16146100ca575b5f80fd5b61006860048036038101906100639190610385565b6100e8565b60405161007591906103bf565b60405180910390f35b61009860048036038101906100939190610514565b610108565b005b6100b460048036038101906100af9190610385565b610150565b6040516100c191906105e8565b60405180910390f35b6100d26101ea565b6040516100df919061070b565b60405180910390f35b600181815481106100f7575f80fd5b905f5260205f20015f915090505481565b805f808481526020019081526020015f2090816101259190610925565b50600182908060018154018082558091505060019003905f5260205f20015f90919091909150555050565b5f602052805f5260405f205f91509050805461016b90610758565b80601f016020809104026020016040519081016040528092919081815260200182805461019790610758565b80156101e25780601f106101b9576101008083540402835291602001916101e2565b820191905f5260205f20905b8154815290600101906020018083116101c557829003601f168201915b505050505081565b60605f60018054905090505f8167ffffffffffffffff8111156102105761020f6103f0565b5b60405190808252806020026020018201604052801561024357816020015b606081526020019060019003908161022e5790505b5090505f5b82811015610338575f60018281548110610265576102646109f4565b5b905f5260205f20015490505f805f8381526020019081526020015f20805461028c90610758565b80601f01602080910402602001604051908101604052809291908181526020018280546102b890610758565b80156103035780601f106102da57610100808354040283529160200191610303565b820191905f5260205f20905b8154815290600101906020018083116102e657829003601f168201915b505050505090508084848151811061031e5761031d6109f4565b5b602002602001018190525050508080600101915050610248565b50809250505090565b5f604051905090565b5f80fd5b5f80fd5b5f819050919050565b61036481610352565b811461036e575f80fd5b50565b5f8135905061037f8161035b565b92915050565b5f6020828403121561039a5761039961034a565b5b5f6103a784828501610371565b91505092915050565b6103b981610352565b82525050565b5f6020820190506103d25f8301846103b0565b92915050565b5f80fd5b5f80fd5b5f601f19601f8301169050919050565b7f4e487b71000000000000000000000000000000000000000000000000000000005f52604160045260245ffd5b610426826103e0565b810181811067ffffffffffffffff82111715610445576104446103f0565b5b80604052505050565b5f610457610341565b9050610463828261041d565b919050565b5f67ffffffffffffffff821115610482576104816103f0565b5b61048b826103e0565b9050602081019050919050565b828183375f83830152505050565b5f6104b86104b384610468565b61044e565b9050828152602081018484840111156104d4576104d36103dc565b5b6104df848285610498565b509392505050565b5f82601f8301126104fb576104fa6103d8565b5b813561050b8482602086016104a6565b91505092915050565b5f806040838503121561052a5761052961034a565b5b5f61053785828601610371565b925050602083013567ffffffffffffffff8111156105585761055761034e565b5b610564858286016104e7565b9150509250929050565b5f81519050919050565b5f82825260208201905092915050565b5f5b838110156105a557808201518184015260208101905061058a565b5f8484015250505050565b5f6105ba8261056e565b6105c48185610578565b93506105d4818560208601610588565b6105dd816103e0565b840191505092915050565b5f6020820190508181035f83015261060081846105b0565b905092915050565b5f81519050919050565b5f82825260208201905092915050565b5f819050602082019050919050565b5f82825260208201905092915050565b5f61064b8261056e565b6106558185610631565b9350610665818560208601610588565b61066e816103e0565b840191505092915050565b5f6106848383610641565b905092915050565b5f602082019050919050565b5f6106a282610608565b6106ac8185610612565b9350836020820285016106be85610622565b805f5b858110156106f957848403895281516106da8582610679565b94506106e58361068c565b925060208a019950506001810190506106c1565b50829750879550505050505092915050565b5f6020820190508181035f8301526107238184610698565b905092915050565b7f4e487b71000000000000000000000000000000000000000000000000000000005f52602260045260245ffd5b5f600282049050600182168061076f57607f821691505b6020821081036107825761078161072b565b5b50919050565b5f819050815f5260205f209050919050565b5f6020601f8301049050919050565b5f82821b905092915050565b5f600883026107e47fffffffffffffffffffffffffffffffffffffffffffffffffffffffffffffffff826107a9565b6107ee86836107a9565b95508019841693508086168417925050509392505050565b5f819050919050565b5f61082961082461081f84610352565b610806565b610352565b9050919050565b5f819050919050565b6108428361080f565b61085661084e82610830565b8484546107b5565b825550505050565b5f90565b61086a61085e565b610875818484610839565b505050565b5b818110156108985761088d5f82610862565b60018101905061087b565b5050565b601f8211156108dd576108ae81610788565b6108b78461079a565b810160208510156108c6578190505b6108da6108d28561079a565b83018261087a565b50505b505050565b5f82821c905092915050565b5f6108fd5f19846008026108e2565b1980831691505092915050565b5f61091583836108ee565b9150826002028217905092915050565b61092e8261056e565b67ffffffffffffffff811115610947576109466103f0565b5b6109518254610758565b61095c82828561089c565b5f60209050601f83116001811461098d575f841561097b578287015190505b610985858261090a565b8655506109ec565b601f19841661099b86610788565b5f5b828110156109c25784890151825560018201915060208501945060208101905061099d565b868310156109df57848901516109db601f8916826108ee565b8355505b6001600288020188555050505b505050505050565b7f4e487b71000000000000000000000000000000000000000000000000000000005f52603260045260245ffdfea264697066735822122080670fb0357b4a9c824406d4df117df72a9b6d58131e07d542704ad51fec61e264736f6c63430008160033",
					"opcodes": "PUSH1 0x80 PUSH1 0x40 MSTORE CALLVALUE DUP1 ISZERO PUSH2 0xF JUMPI PUSH0 DUP1 REVERT JUMPDEST POP PUSH2 0xA57 DUP1 PUSH2 0x1D PUSH0 CODECOPY PUSH0 RETURN INVALID PUSH1 0x80 PUSH1 0x40 MSTORE CALLVALUE DUP1 ISZERO PUSH2 0xF JUMPI PUSH0 DUP1 REVERT JUMPDEST POP PUSH1 0x4 CALLDATASIZE LT PUSH2 0x4A JUMPI PUSH0 CALLDATALOAD PUSH1 0xE0 SHR DUP1 PUSH4 0xCB6AAF1 EQ PUSH2 0x4E JUMPI DUP1 PUSH4 0x1FDEE7E5 EQ PUSH2 0x7E JUMPI DUP1 PUSH4 0xAE338BAE EQ PUSH2 0x9A JUMPI DUP1 PUSH4 0xEF5AFA16 EQ PUSH2 0xCA JUMPI JUMPDEST PUSH0 DUP1 REVERT JUMPDEST PUSH2 0x68 PUSH1 0x4 DUP1 CALLDATASIZE SUB DUP2 ADD SWAP1 PUSH2 0x63 SWAP2 SWAP1 PUSH2 0x385 JUMP JUMPDEST PUSH2 0xE8 JUMP JUMPDEST PUSH1 0x40 MLOAD PUSH2 0x75 SWAP2 SWAP1 PUSH2 0x3BF JUMP JUMPDEST PUSH1 0x40 MLOAD DUP1 SWAP2 SUB SWAP1 RETURN JUMPDEST PUSH2 0x98 PUSH1 0x4 DUP1 CALLDATASIZE SUB DUP2 ADD SWAP1 PUSH2 0x93 SWAP2 SWAP1 PUSH2 0x514 JUMP JUMPDEST PUSH2 0x108 JUMP JUMPDEST STOP JUMPDEST PUSH2 0xB4 PUSH1 0x4 DUP1 CALLDATASIZE SUB DUP2 ADD SWAP1 PUSH2 0xAF SWAP2 SWAP1 PUSH2 0x385 JUMP JUMPDEST PUSH2 0x150 JUMP JUMPDEST PUSH1 0x40 MLOAD PUSH2 0xC1 SWAP2 SWAP1 PUSH2 0x5E8 JUMP JUMPDEST PUSH1 0x40 MLOAD DUP1 SWAP2 SUB SWAP1 RETURN JUMPDEST PUSH2 0xD2 PUSH2 0x1EA JUMP JUMPDEST PUSH1 0x40 MLOAD PUSH2 0xDF SWAP2 SWAP1 PUSH2 0x70B JUMP JUMPDEST PUSH1 0x40 MLOAD DUP1 SWAP2 SUB SWAP1 RETURN JUMPDEST PUSH1 0x1 DUP2 DUP2 SLOAD DUP2 LT PUSH2 0xF7 JUMPI PUSH0 DUP1 REVERT JUMPDEST SWAP1 PUSH0 MSTORE PUSH1 0x20 PUSH0 KECCAK256 ADD PUSH0 SWAP2 POP SWAP1 POP SLOAD DUP2 JUMP JUMPDEST DUP1 PUSH0 DUP1 DUP5 DUP2 MSTORE PUSH1 0x20 ADD SWAP1 DUP2 MSTORE PUSH1 0x20 ADD PUSH0 KECCAK256 SWAP1 DUP2 PUSH2 0x125 SWAP2 SWAP1 PUSH2 0x925 JUMP JUMPDEST POP PUSH1 0x1 DUP3 SWAP1 DUP1 PUSH1 0x1 DUP2 SLOAD ADD DUP1 DUP3 SSTORE DUP1 SWAP2 POP POP PUSH1 0x1 SWAP1 SUB SWAP1 PUSH0 MSTORE PUSH1 0x20 PUSH0 KECCAK256 ADD PUSH0 SWAP1 SWAP2 SWAP1 SWAP2 SWAP1 SWAP2 POP SSTORE POP POP JUMP JUMPDEST PUSH0 PUSH1 0x20 MSTORE DUP1 PUSH0 MSTORE PUSH1 0x40 PUSH0 KECCAK256 PUSH0 SWAP2 POP SWAP1 POP DUP1 SLOAD PUSH2 0x16B SWAP1 PUSH2 0x758 JUMP JUMPDEST DUP1 PUSH1 0x1F ADD PUSH1 0x20 DUP1 SWAP2 DIV MUL PUSH1 0x20 ADD PUSH1 0x40 MLOAD SWAP1 DUP2 ADD PUSH1 0x40 MSTORE DUP1 SWAP3 SWAP2 SWAP1 DUP2 DUP2 MSTORE PUSH1 0x20 ADD DUP3 DUP1 SLOAD PUSH2 0x197 SWAP1 PUSH2 0x758 JUMP JUMPDEST DUP1 ISZERO PUSH2 0x1E2 JUMPI DUP1 PUSH1 0x1F LT PUSH2 0x1B9 JUMPI PUSH2 0x100 DUP1 DUP4 SLOAD DIV MUL DUP4 MSTORE SWAP2 PUSH1 0x20 ADD SWAP2 PUSH2 0x1E2 JUMP JUMPDEST DUP3 ADD SWAP2 SWAP1 PUSH0 MSTORE PUSH1 0x20 PUSH0 KECCAK256 SWAP1 JUMPDEST DUP2 SLOAD DUP2 MSTORE SWAP1 PUSH1 0x1 ADD SWAP1 PUSH1 0x20 ADD DUP1 DUP4 GT PUSH2 0x1C5 JUMPI DUP3 SWAP1 SUB PUSH1 0x1F AND DUP3 ADD SWAP2 JUMPDEST POP POP POP POP POP DUP2 JUMP JUMPDEST PUSH1 0x60 PUSH0 PUSH1 0x1 DUP1 SLOAD SWAP1 POP SWAP1 POP PUSH0 DUP2 PUSH8 0xFFFFFFFFFFFFFFFF DUP2 GT ISZERO PUSH2 0x210 JUMPI PUSH2 0x20F PUSH2 0x3F0 JUMP JUMPDEST JUMPDEST PUSH1 0x40 MLOAD SWAP1 DUP1 DUP3 MSTORE DUP1 PUSH1 0x20 MUL PUSH1 0x20 ADD DUP3 ADD PUSH1 0x40 MSTORE DUP1 ISZERO PUSH2 0x243 JUMPI DUP2 PUSH1 0x20 ADD JUMPDEST PUSH1 0x60 DUP2 MSTORE PUSH1 0x20 ADD SWAP1 PUSH1 0x1 SWAP1 SUB SWAP1 DUP2 PUSH2 0x22E JUMPI SWAP1 POP JUMPDEST POP SWAP1 POP PUSH0 JUMPDEST DUP3 DUP2 LT ISZERO PUSH2 0x338 JUMPI PUSH0 PUSH1 0x1 DUP3 DUP2 SLOAD DUP2 LT PUSH2 0x265 JUMPI PUSH2 0x264 PUSH2 0x9F4 JUMP JUMPDEST JUMPDEST SWAP1 PUSH0 MSTORE PUSH1 0x20 PUSH0 KECCAK256 ADD SLOAD SWAP1 POP PUSH0 DUP1 PUSH0 DUP4 DUP2 MSTORE PUSH1 0x20 ADD SWAP1 DUP2 MSTORE PUSH1 0x20 ADD PUSH0 KECCAK256 DUP1 SLOAD PUSH2 0x28C SWAP1 PUSH2 0x758 JUMP JUMPDEST DUP1 PUSH1 0x1F ADD PUSH1 0x20 DUP1 SWAP2 DIV MUL PUSH1 0x20 ADD PUSH1 0x40 MLOAD SWAP1 DUP2 ADD PUSH1 0x40 MSTORE DUP1 SWAP3 SWAP2 SWAP1 DUP2 DUP2 MSTORE PUSH1 0x20 ADD DUP3 DUP1 SLOAD PUSH2 0x2B8 SWAP1 PUSH2 0x758 JUMP JUMPDEST DUP1 ISZERO PUSH2 0x303 JUMPI DUP1 PUSH1 0x1F LT PUSH2 0x2DA JUMPI PUSH2 0x100 DUP1 DUP4 SLOAD DIV MUL DUP4 MSTORE SWAP2 PUSH1 0x20 ADD SWAP2 PUSH2 0x303 JUMP JUMPDEST DUP3 ADD SWAP2 SWAP1 PUSH0 MSTORE PUSH1 0x20 PUSH0 KECCAK256 SWAP1 JUMPDEST DUP2 SLOAD DUP2 MSTORE SWAP1 PUSH1 0x1 ADD SWAP1 PUSH1 0x20 ADD DUP1 DUP4 GT PUSH2 0x2E6 JUMPI DUP3 SWAP1 SUB PUSH1 0x1F AND DUP3 ADD SWAP2 JUMPDEST POP POP POP POP POP SWAP1 POP DUP1 DUP5 DUP5 DUP2 MLOAD DUP2 LT PUSH2 0x31E JUMPI PUSH2 0x31D PUSH2 0x9F4 JUMP JUMPDEST JUMPDEST PUSH1 0x20 MUL PUSH1 0x20 ADD ADD DUP2 SWAP1 MSTORE POP POP POP DUP1 DUP1 PUSH1 0x1 ADD SWAP2 POP POP PUSH2 0x248 JUMP JUMPDEST POP DUP1 SWAP3 POP POP POP SWAP1 JUMP JUMPDEST PUSH0 PUSH1 0x40 MLOAD SWAP1 POP SWAP1 JUMP JUMPDEST PUSH0 DUP1 REVERT JUMPDEST PUSH0 DUP1 REVERT JUMPDEST PUSH0 DUP2 SWAP1 POP SWAP2 SWAP1 POP JUMP JUMPDEST PUSH2 0x364 DUP2 PUSH2 0x352 JUMP JUMPDEST DUP2 EQ PUSH2 0x36E JUMPI PUSH0 DUP1 REVERT JUMPDEST POP JUMP JUMPDEST PUSH0 DUP2 CALLDATALOAD SWAP1 POP PUSH2 0x37F DUP2 PUSH2 0x35B JUMP JUMPDEST SWAP3 SWAP2 POP POP JUMP JUMPDEST PUSH0 PUSH1 0x20 DUP3 DUP5 SUB SLT ISZERO PUSH2 0x39A JUMPI PUSH2 0x399 PUSH2 0x34A JUMP JUMPDEST JUMPDEST PUSH0 PUSH2 0x3A7 DUP5 DUP3 DUP6 ADD PUSH2 0x371 JUMP JUMPDEST SWAP2 POP POP SWAP3 SWAP2 POP POP JUMP JUMPDEST PUSH2 0x3B9 DUP2 PUSH2 0x352 JUMP JUMPDEST DUP3 MSTORE POP POP JUMP JUMPDEST PUSH0 PUSH1 0x20 DUP3 ADD SWAP1 POP PUSH2 0x3D2 PUSH0 DUP4 ADD DUP5 PUSH2 0x3B0 JUMP JUMPDEST SWAP3 SWAP2 POP POP JUMP JUMPDEST PUSH0 DUP1 REVERT JUMPDEST PUSH0 DUP1 REVERT JUMPDEST PUSH0 PUSH1 0x1F NOT PUSH1 0x1F DUP4 ADD AND SWAP1 POP SWAP2 SWAP1 POP JUMP JUMPDEST PUSH32 0x4E487B7100000000000000000000000000000000000000000000000000000000 PUSH0 MSTORE PUSH1 0x41 PUSH1 0x4 MSTORE PUSH1 0x24 PUSH0 REVERT JUMPDEST PUSH2 0x426 DUP3 PUSH2 0x3E0 JUMP JUMPDEST DUP2 ADD DUP2 DUP2 LT PUSH8 0xFFFFFFFFFFFFFFFF DUP3 GT OR ISZERO PUSH2 0x445 JUMPI PUSH2 0x444 PUSH2 0x3F0 JUMP JUMPDEST JUMPDEST DUP1 PUSH1 0x40 MSTORE POP POP POP JUMP JUMPDEST PUSH0 PUSH2 0x457 PUSH2 0x341 JUMP JUMPDEST SWAP1 POP PUSH2 0x463 DUP3 DUP3 PUSH2 0x41D JUMP JUMPDEST SWAP2 SWAP1 POP JUMP JUMPDEST PUSH0 PUSH8 0xFFFFFFFFFFFFFFFF DUP3 GT ISZERO PUSH2 0x482 JUMPI PUSH2 0x481 PUSH2 0x3F0 JUMP JUMPDEST JUMPDEST PUSH2 0x48B DUP3 PUSH2 0x3E0 JUMP JUMPDEST SWAP1 POP PUSH1 0x20 DUP2 ADD SWAP1 POP SWAP2 SWAP1 POP JUMP JUMPDEST DUP3 DUP2 DUP4 CALLDATACOPY PUSH0 DUP4 DUP4 ADD MSTORE POP POP POP JUMP JUMPDEST PUSH0 PUSH2 0x4B8 PUSH2 0x4B3 DUP5 PUSH2 0x468 JUMP JUMPDEST PUSH2 0x44E JUMP JUMPDEST SWAP1 POP DUP3 DUP2 MSTORE PUSH1 0x20 DUP2 ADD DUP5 DUP5 DUP5 ADD GT ISZERO PUSH2 0x4D4 JUMPI PUSH2 0x4D3 PUSH2 0x3DC JUMP JUMPDEST JUMPDEST PUSH2 0x4DF DUP5 DUP3 DUP6 PUSH2 0x498 JUMP JUMPDEST POP SWAP4 SWAP3 POP POP POP JUMP JUMPDEST PUSH0 DUP3 PUSH1 0x1F DUP4 ADD SLT PUSH2 0x4FB JUMPI PUSH2 0x4FA PUSH2 0x3D8 JUMP JUMPDEST JUMPDEST DUP2 CALLDATALOAD PUSH2 0x50B DUP5 DUP3 PUSH1 0x20 DUP7 ADD PUSH2 0x4A6 JUMP JUMPDEST SWAP2 POP POP SWAP3 SWAP2 POP POP JUMP JUMPDEST PUSH0 DUP1 PUSH1 0x40 DUP4 DUP6 SUB SLT ISZERO PUSH2 0x52A JUMPI PUSH2 0x529 PUSH2 0x34A JUMP JUMPDEST JUMPDEST PUSH0 PUSH2 0x537 DUP6 DUP3 DUP7 ADD PUSH2 0x371 JUMP JUMPDEST SWAP3 POP POP PUSH1 0x20 DUP4 ADD CALLDATALOAD PUSH8 0xFFFFFFFFFFFFFFFF DUP2 GT ISZERO PUSH2 0x558 JUMPI PUSH2 0x557 PUSH2 0x34E JUMP JUMPDEST JUMPDEST PUSH2 0x564 DUP6 DUP3 DUP7 ADD PUSH2 0x4E7 JUMP JUMPDEST SWAP2 POP POP SWAP3 POP SWAP3 SWAP1 POP JUMP JUMPDEST PUSH0 DUP2 MLOAD SWAP1 POP SWAP2 SWAP1 POP JUMP JUMPDEST PUSH0 DUP3 DUP3 MSTORE PUSH1 0x20 DUP3 ADD SWAP1 POP SWAP3 SWAP2 POP POP JUMP JUMPDEST PUSH0 JUMPDEST DUP4 DUP2 LT ISZERO PUSH2 0x5A5 JUMPI DUP1 DUP3 ADD MLOAD DUP2 DUP5 ADD MSTORE PUSH1 0x20 DUP2 ADD SWAP1 POP PUSH2 0x58A JUMP JUMPDEST PUSH0 DUP5 DUP5 ADD MSTORE POP POP POP POP JUMP JUMPDEST PUSH0 PUSH2 0x5BA DUP3 PUSH2 0x56E JUMP JUMPDEST PUSH2 0x5C4 DUP2 DUP6 PUSH2 0x578 JUMP JUMPDEST SWAP4 POP PUSH2 0x5D4 DUP2 DUP6 PUSH1 0x20 DUP7 ADD PUSH2 0x588 JUMP JUMPDEST PUSH2 0x5DD DUP2 PUSH2 0x3E0 JUMP JUMPDEST DUP5 ADD SWAP2 POP POP SWAP3 SWAP2 POP POP JUMP JUMPDEST PUSH0 PUSH1 0x20 DUP3 ADD SWAP1 POP DUP2 DUP2 SUB PUSH0 DUP4 ADD MSTORE PUSH2 0x600 DUP2 DUP5 PUSH2 0x5B0 JUMP JUMPDEST SWAP1 POP SWAP3 SWAP2 POP POP JUMP JUMPDEST PUSH0 DUP2 MLOAD SWAP1 POP SWAP2 SWAP1 POP JUMP JUMPDEST PUSH0 DUP3 DUP3 MSTORE PUSH1 0x20 DUP3 ADD SWAP1 POP SWAP3 SWAP2 POP POP JUMP JUMPDEST PUSH0 DUP2 SWAP1 POP PUSH1 0x20 DUP3 ADD SWAP1 POP SWAP2 SWAP1 POP JUMP JUMPDEST PUSH0 DUP3 DUP3 MSTORE PUSH1 0x20 DUP3 ADD SWAP1 POP SWAP3 SWAP2 POP POP JUMP JUMPDEST PUSH0 PUSH2 0x64B DUP3 PUSH2 0x56E JUMP JUMPDEST PUSH2 0x655 DUP2 DUP6 PUSH2 0x631 JUMP JUMPDEST SWAP4 POP PUSH2 0x665 DUP2 DUP6 PUSH1 0x20 DUP7 ADD PUSH2 0x588 JUMP JUMPDEST PUSH2 0x66E DUP2 PUSH2 0x3E0 JUMP JUMPDEST DUP5 ADD SWAP2 POP POP SWAP3 SWAP2 POP POP JUMP JUMPDEST PUSH0 PUSH2 0x684 DUP4 DUP4 PUSH2 0x641 JUMP JUMPDEST SWAP1 POP SWAP3 SWAP2 POP POP JUMP JUMPDEST PUSH0 PUSH1 0x20 DUP3 ADD SWAP1 POP SWAP2 SWAP1 POP JUMP JUMPDEST PUSH0 PUSH2 0x6A2 DUP3 PUSH2 0x608 JUMP JUMPDEST PUSH2 0x6AC DUP2 DUP6 PUSH2 0x612 JUMP JUMPDEST SWAP4 POP DUP4 PUSH1 0x20 DUP3 MUL DUP6 ADD PUSH2 0x6BE DUP6 PUSH2 0x622 JUMP JUMPDEST DUP1 PUSH0 JUMPDEST DUP6 DUP2 LT ISZERO PUSH2 0x6F9 JUMPI DUP5 DUP5 SUB DUP10 MSTORE DUP2 MLOAD PUSH2 0x6DA DUP6 DUP3 PUSH2 0x679 JUMP JUMPDEST SWAP5 POP PUSH2 0x6E5 DUP4 PUSH2 0x68C JUMP JUMPDEST SWAP3 POP PUSH1 0x20 DUP11 ADD SWAP10 POP POP PUSH1 0x1 DUP2 ADD SWAP1 POP PUSH2 0x6C1 JUMP JUMPDEST POP DUP3 SWAP8 POP DUP8 SWAP6 POP POP POP POP POP POP SWAP3 SWAP2 POP POP JUMP JUMPDEST PUSH0 PUSH1 0x20 DUP3 ADD SWAP1 POP DUP2 DUP2 SUB PUSH0 DUP4 ADD MSTORE PUSH2 0x723 DUP2 DUP5 PUSH2 0x698 JUMP JUMPDEST SWAP1 POP SWAP3 SWAP2 POP POP JUMP JUMPDEST PUSH32 0x4E487B7100000000000000000000000000000000000000000000000000000000 PUSH0 MSTORE PUSH1 0x22 PUSH1 0x4 MSTORE PUSH1 0x24 PUSH0 REVERT JUMPDEST PUSH0 PUSH1 0x2 DUP3 DIV SWAP1 POP PUSH1 0x1 DUP3 AND DUP1 PUSH2 0x76F JUMPI PUSH1 0x7F DUP3 AND SWAP2 POP JUMPDEST PUSH1 0x20 DUP3 LT DUP2 SUB PUSH2 0x782 JUMPI PUSH2 0x781 PUSH2 0x72B JUMP JUMPDEST JUMPDEST POP SWAP2 SWAP1 POP JUMP JUMPDEST PUSH0 DUP2 SWAP1 POP DUP2 PUSH0 MSTORE PUSH1 0x20 PUSH0 KECCAK256 SWAP1 POP SWAP2 SWAP1 POP JUMP JUMPDEST PUSH0 PUSH1 0x20 PUSH1 0x1F DUP4 ADD DIV SWAP1 POP SWAP2 SWAP1 POP JUMP JUMPDEST PUSH0 DUP3 DUP3 SHL SWAP1 POP SWAP3 SWAP2 POP POP JUMP JUMPDEST PUSH0 PUSH1 0x8 DUP4 MUL PUSH2 0x7E4 PUSH32 0xFFFFFFFFFFFFFFFFFFFFFFFFFFFFFFFFFFFFFFFFFFFFFFFFFFFFFFFFFFFFFFFF DUP3 PUSH2 0x7A9 JUMP JUMPDEST PUSH2 0x7EE DUP7 DUP4 PUSH2 0x7A9 JUMP JUMPDEST SWAP6 POP DUP1 NOT DUP5 AND SWAP4 POP DUP1 DUP7 AND DUP5 OR SWAP3 POP POP POP SWAP4 SWAP3 POP POP POP JUMP JUMPDEST PUSH0 DUP2 SWAP1 POP SWAP2 SWAP1 POP JUMP JUMPDEST PUSH0 PUSH2 0x829 PUSH2 0x824 PUSH2 0x81F DUP5 PUSH2 0x352 JUMP JUMPDEST PUSH2 0x806 JUMP JUMPDEST PUSH2 0x352 JUMP JUMPDEST SWAP1 POP SWAP2 SWAP1 POP JUMP JUMPDEST PUSH0 DUP2 SWAP1 POP SWAP2 SWAP1 POP JUMP JUMPDEST PUSH2 0x842 DUP4 PUSH2 0x80F JUMP JUMPDEST PUSH2 0x856 PUSH2 0x84E DUP3 PUSH2 0x830 JUMP JUMPDEST DUP5 DUP5 SLOAD PUSH2 0x7B5 JUMP JUMPDEST DUP3 SSTORE POP POP POP POP JUMP JUMPDEST PUSH0 SWAP1 JUMP JUMPDEST PUSH2 0x86A PUSH2 0x85E JUMP JUMPDEST PUSH2 0x875 DUP2 DUP5 DUP5 PUSH2 0x839 JUMP JUMPDEST POP POP POP JUMP JUMPDEST JUMPDEST DUP2 DUP2 LT ISZERO PUSH2 0x898 JUMPI PUSH2 0x88D PUSH0 DUP3 PUSH2 0x862 JUMP JUMPDEST PUSH1 0x1 DUP2 ADD SWAP1 POP PUSH2 0x87B JUMP JUMPDEST POP POP JUMP JUMPDEST PUSH1 0x1F DUP3 GT ISZERO PUSH2 0x8DD JUMPI PUSH2 0x8AE DUP2 PUSH2 0x788 JUMP JUMPDEST PUSH2 0x8B7 DUP5 PUSH2 0x79A JUMP JUMPDEST DUP2 ADD PUSH1 0x20 DUP6 LT ISZERO PUSH2 0x8C6 JUMPI DUP2 SWAP1 POP JUMPDEST PUSH2 0x8DA PUSH2 0x8D2 DUP6 PUSH2 0x79A JUMP JUMPDEST DUP4 ADD DUP3 PUSH2 0x87A JUMP JUMPDEST POP POP JUMPDEST POP POP POP JUMP JUMPDEST PUSH0 DUP3 DUP3 SHR SWAP1 POP SWAP3 SWAP2 POP POP JUMP JUMPDEST PUSH0 PUSH2 0x8FD PUSH0 NOT DUP5 PUSH1 0x8 MUL PUSH2 0x8E2 JUMP JUMPDEST NOT DUP1 DUP4 AND SWAP2 POP POP SWAP3 SWAP2 POP POP JUMP JUMPDEST PUSH0 PUSH2 0x915 DUP4 DUP4 PUSH2 0x8EE JUMP JUMPDEST SWAP2 POP DUP3 PUSH1 0x2 MUL DUP3 OR SWAP1 POP SWAP3 SWAP2 POP POP JUMP JUMPDEST PUSH2 0x92E DUP3 PUSH2 0x56E JUMP JUMPDEST PUSH8 0xFFFFFFFFFFFFFFFF DUP2 GT ISZERO PUSH2 0x947 JUMPI PUSH2 0x946 PUSH2 0x3F0 JUMP JUMPDEST JUMPDEST PUSH2 0x951 DUP3 SLOAD PUSH2 0x758 JUMP JUMPDEST PUSH2 0x95C DUP3 DUP3 DUP6 PUSH2 0x89C JUMP JUMPDEST PUSH0 PUSH1 0x20 SWAP1 POP PUSH1 0x1F DUP4 GT PUSH1 0x1 DUP2 EQ PUSH2 0x98D JUMPI PUSH0 DUP5 ISZERO PUSH2 0x97B JUMPI DUP3 DUP8 ADD MLOAD SWAP1 POP JUMPDEST PUSH2 0x985 DUP6 DUP3 PUSH2 0x90A JUMP JUMPDEST DUP7 SSTORE POP PUSH2 0x9EC JUMP JUMPDEST PUSH1 0x1F NOT DUP5 AND PUSH2 0x99B DUP7 PUSH2 0x788 JUMP JUMPDEST PUSH0 JUMPDEST DUP3 DUP2 LT ISZERO PUSH2 0x9C2 JUMPI DUP5 DUP10 ADD MLOAD DUP3 SSTORE PUSH1 0x1 DUP3 ADD SWAP2 POP PUSH1 0x20 DUP6 ADD SWAP5 POP PUSH1 0x20 DUP2 ADD SWAP1 POP PUSH2 0x99D JUMP JUMPDEST DUP7 DUP4 LT ISZERO PUSH2 0x9DF JUMPI DUP5 DUP10 ADD MLOAD PUSH2 0x9DB PUSH1 0x1F DUP10 AND DUP3 PUSH2 0x8EE JUMP JUMPDEST DUP4 SSTORE POP JUMPDEST PUSH1 0x1 PUSH1 0x2 DUP9 MUL ADD DUP9 SSTORE POP POP POP JUMPDEST POP POP POP POP POP POP JUMP JUMPDEST PUSH32 0x4E487B7100000000000000000000000000000000000000000000000000000000 PUSH0 MSTORE PUSH1 0x32 PUSH1 0x4 MSTORE PUSH1 0x24 PUSH0 REVERT INVALID LOG2 PUSH5 0x6970667358 0x22 SLT KECCAK256 DUP1 PUSH8 0xFB0357B4A9C8244 MOD 0xD4 0xDF GT PUSH30 0xF72A9B6D58131E07D542704AD51FEC61E264736F6C634300081600330000 "
				},
				"gasEstimates": {
					"creation": {
						"codeDepositCost": "529400",
						"executionCost": "560",
						"totalCost": "529960"
					},
					"external": {
						"addKeyValuePair(uint256,string)": "infinite",
						"iterateAndPerformOperation()": "infinite",
						"keyValueMap(uint256)": "infinite",
						"keys(uint256)": "infinite"
					}
				},
				"methodIdentifiers": {
					"addKeyValuePair(uint256,string)": "1fdee7e5",
					"iterateAndPerformOperation()": "ef5afa16",
					"keyValueMap(uint256)": "ae338bae",
					"keys(uint256)": "0cb6aaf1"
				}
			},
			"storageLayout": {
				"storage": [
					{
						"astId": 5,
						"contract": "simpletask.sol:KeyValueIterator",
						"label": "keyValueMap",
						"offset": 0,
						"slot": "0",
						"type": "t_mapping(t_uint256,t_string_storage)"
					},
					{
						"astId": 8,
						"contract": "simpletask.sol:KeyValueIterator",
						"label": "keys",
						"offset": 0,
						"slot": "1",
						"type": "t_array(t_uint256)dyn_storage"
					}
				],
				"types": {
					"t_array(t_uint256)dyn_storage": {
						"base": "t_uint256",
						"encoding": "dynamic_array",
						"label": "uint256[]",
						"numberOfBytes": "32"
					},
					"t_mapping(t_uint256,t_string_storage)": {
						"encoding": "mapping",
						"key": "t_uint256",
						"label": "mapping(uint256 => string)",
						"numberOfBytes": "32",
						"value": "t_string_storage"
					},
					"t_string_storage": {
						"encoding": "bytes",
						"label": "string",
						"numberOfBytes": "32"
					},
					"t_uint256": {
						"encoding": "inplace",
						"label": "uint256",
						"numberOfBytes": "32"
					}
				}
			},
			"userdoc": {
				"kind": "user",
				"methods": {},
				"version": 1
			}
		}
	}
}