{
	"contracts/testing_final.sol": {
		"final_task": {
			"abi": [
				{
					"inputs": [],
					"stateMutability": "nonpayable",
					"type": "constructor"
				},
				{
					"anonymous": false,
					"inputs": [
						{
							"indexed": false,
							"internalType": "string",
							"name": "",
							"type": "string"
						}
					],
					"name": "ab",
					"type": "event"
				},
				{
					"anonymous": false,
					"inputs": [
						{
							"indexed": false,
							"internalType": "address",
							"name": "user",
							"type": "address"
						},
						{
							"indexed": false,
							"internalType": "uint256",
							"name": "amount",
							"type": "uint256"
						}
					],
					"name": "completion",
					"type": "event"
				},
				{
					"anonymous": false,
					"inputs": [
						{
							"indexed": false,
							"internalType": "address",
							"name": "user",
							"type": "address"
						},
						{
							"indexed": false,
							"internalType": "uint256",
							"name": "amount",
							"type": "uint256"
						}
					],
					"name": "contributions",
					"type": "event"
				},
				{
					"anonymous": false,
					"inputs": [
						{
							"indexed": false,
							"internalType": "address",
							"name": "user",
							"type": "address"
						},
						{
							"indexed": false,
							"internalType": "string",
							"name": "user_name",
							"type": "string"
						},
						{
							"indexed": false,
							"internalType": "string",
							"name": "user_discription",
							"type": "string"
						}
					],
					"name": "creation",
					"type": "event"
				},
				{
					"anonymous": false,
					"inputs": [
						{
							"indexed": false,
							"internalType": "address",
							"name": "user",
							"type": "address"
						},
						{
							"indexed": false,
							"internalType": "uint256",
							"name": "amount",
							"type": "uint256"
						}
					],
					"name": "refund_claims",
					"type": "event"
				},
				{
					"anonymous": false,
					"inputs": [
						{
							"indexed": false,
							"internalType": "string",
							"name": "",
							"type": "string"
						}
					],
					"name": "st",
					"type": "event"
				},
				{
					"inputs": [],
					"name": "active",
					"outputs": [
						{
							"internalType": "bool",
							"name": "",
							"type": "bool"
						}
					],
					"stateMutability": "view",
					"type": "function"
				},
				{
					"inputs": [],
					"name": "claim",
					"outputs": [
						{
							"components": [
								{
									"internalType": "string",
									"name": "name",
									"type": "string"
								},
								{
									"internalType": "string",
									"name": "discription",
									"type": "string"
								},
								{
									"internalType": "address",
									"name": "user",
									"type": "address"
								}
							],
							"internalType": "struct final_task.funding[]",
							"name": "",
							"type": "tuple[]"
						}
					],
					"stateMutability": "payable",
					"type": "function"
				},
				{
					"inputs": [
						{
							"internalType": "address payable",
							"name": "id",
							"type": "address"
						},
						{
							"internalType": "address payable",
							"name": "sender",
							"type": "address"
						},
						{
							"internalType": "uint256",
							"name": "amount",
							"type": "uint256"
						}
					],
					"name": "contribute",
					"outputs": [
						{
							"components": [
								{
									"internalType": "string",
									"name": "name",
									"type": "string"
								},
								{
									"internalType": "string",
									"name": "discription",
									"type": "string"
								},
								{
									"internalType": "address",
									"name": "user",
									"type": "address"
								}
							],
							"internalType": "struct final_task.funding[]",
							"name": "",
							"type": "tuple[]"
						}
					],
					"stateMutability": "payable",
					"type": "function"
				},
				{
					"inputs": [],
					"name": "counter",
					"outputs": [
						{
							"internalType": "uint256",
							"name": "",
							"type": "uint256"
						}
					],
					"stateMutability": "view",
					"type": "function"
				},
				{
					"inputs": [
						{
							"internalType": "string",
							"name": "_name",
							"type": "string"
						},
						{
							"internalType": "string",
							"name": "_discription",
							"type": "string"
						},
						{
							"internalType": "address",
							"name": "_user",
							"type": "address"
						}
					],
					"name": "creations",
					"outputs": [],
					"stateMutability": "nonpayable",
					"type": "function"
				},
				{
					"inputs": [
						{
							"internalType": "address",
							"name": "",
							"type": "address"
						}
					],
					"name": "datas",
					"outputs": [
						{
							"internalType": "uint256",
							"name": "",
							"type": "uint256"
						}
					],
					"stateMutability": "view",
					"type": "function"
				},
				{
					"inputs": [],
					"name": "deactivate",
					"outputs": [],
					"stateMutability": "nonpayable",
					"type": "function"
				},
				{
					"inputs": [],
					"name": "endtime",
					"outputs": [
						{
							"internalType": "uint256",
							"name": "",
							"type": "uint256"
						}
					],
					"stateMutability": "view",
					"type": "function"
				},
				{
					"inputs": [
						{
							"internalType": "address",
							"name": "_userAddress",
							"type": "address"
						}
					],
					"name": "getUserDetails",
					"outputs": [
						{
							"components": [
								{
									"internalType": "string",
									"name": "name",
									"type": "string"
								},
								{
									"internalType": "string",
									"name": "discription",
									"type": "string"
								},
								{
									"internalType": "address",
									"name": "user",
									"type": "address"
								}
							],
							"internalType": "struct final_task.funding[]",
							"name": "",
							"type": "tuple[]"
						}
					],
					"stateMutability": "view",
					"type": "function"
				},
				{
					"inputs": [],
					"name": "goal",
					"outputs": [
						{
							"internalType": "uint256",
							"name": "",
							"type": "uint256"
						}
					],
					"stateMutability": "view",
					"type": "function"
				},
				{
					"inputs": [],
					"name": "owner",
					"outputs": [
						{
							"internalType": "address",
							"name": "",
							"type": "address"
						}
					],
					"stateMutability": "view",
					"type": "function"
				},
				{
					"inputs": [],
					"name": "refund",
					"outputs": [],
					"stateMutability": "payable",
					"type": "function"
				},
				{
					"inputs": [
						{
							"internalType": "address",
							"name": "_userAddress",
							"type": "address"
						}
					],
					"name": "userExists",
					"outputs": [
						{
							"internalType": "string",
							"name": "",
							"type": "string"
						}
					],
					"stateMutability": "view",
					"type": "function"
				}
			],
			"devdoc": {
				"kind": "dev",
				"methods": {},
				"version": 1
			},
			"evm": {
				"assembly": "    /* \"contracts/testing_final.sol\":63:4775  contract final_task{... */\n  mstore(0x40, 0x80)\n    /* \"contracts/testing_final.sol\":481:489  20 ether */\n  0x01158e460913d00000\n    /* \"contracts/testing_final.sol\":464:489  uint public goal=20 ether */\n  0x02\n  sstore\n    /* \"contracts/testing_final.sol\":579:588  5 minutes */\n  0x012c\n    /* \"contracts/testing_final.sol\":561:576  block.timestamp */\n  timestamp\n    /* \"contracts/testing_final.sol\":561:588  block.timestamp + 5 minutes */\n  tag_1\n  swap2\n  swap1\n  tag_2\n  jump\t// in\ntag_1:\n    /* \"contracts/testing_final.sol\":539:588  uint public endtime = block.timestamp + 5 minutes */\n  0x03\n  sstore\n    /* \"contracts/testing_final.sol\":730:814  constructor(){... */\n  callvalue\n  dup1\n  iszero\n  tag_3\n  jumpi\n  0x00\n  dup1\n  revert\ntag_3:\n  pop\n    /* \"contracts/testing_final.sol\":774:784  msg.sender */\n  caller\n    /* \"contracts/testing_final.sol\":766:771  owner */\n  0x04\n  0x01\n    /* \"contracts/testing_final.sol\":766:784  owner = msg.sender */\n  0x0100\n  exp\n  dup2\n  sload\n  dup2\n  0xffffffffffffffffffffffffffffffffffffffff\n  mul\n  not\n  and\n  swap1\n  dup4\n  0xffffffffffffffffffffffffffffffffffffffff\n  and\n  mul\n  or\n  swap1\n  sstore\n  pop\n    /* \"contracts/testing_final.sol\":802:806  true */\n  0x01\n    /* \"contracts/testing_final.sol\":795:801  active */\n  0x04\n  0x00\n    /* \"contracts/testing_final.sol\":795:806  active=true */\n  0x0100\n  exp\n  dup2\n  sload\n  dup2\n  0xff\n  mul\n  not\n  and\n  swap1\n  dup4\n  iszero\n  iszero\n  mul\n  or\n  swap1\n  sstore\n  pop\n    /* \"contracts/testing_final.sol\":63:4775  contract final_task{... */\n  jump(tag_6)\n    /* \"#utility.yul\":7:84   */\ntag_7:\n    /* \"#utility.yul\":44:51   */\n  0x00\n    /* \"#utility.yul\":73:78   */\n  dup2\n    /* \"#utility.yul\":62:78   */\n  swap1\n  pop\n    /* \"#utility.yul\":7:84   */\n  swap2\n  swap1\n  pop\n  jump\t// out\n    /* \"#utility.yul\":90:270   */\ntag_8:\n    /* \"#utility.yul\":138:215   */\n  0x4e487b7100000000000000000000000000000000000000000000000000000000\n    /* \"#utility.yul\":135:136   */\n  0x00\n    /* \"#utility.yul\":128:216   */\n  mstore\n    /* \"#utility.yul\":235:239   */\n  0x11\n    /* \"#utility.yul\":232:233   */\n  0x04\n    /* \"#utility.yul\":225:240   */\n  mstore\n    /* \"#utility.yul\":259:263   */\n  0x24\n    /* \"#utility.yul\":256:257   */\n  0x00\n    /* \"#utility.yul\":249:264   */\n  revert\n    /* \"#utility.yul\":276:467   */\ntag_2:\n    /* \"#utility.yul\":316:319   */\n  0x00\n    /* \"#utility.yul\":335:355   */\n  tag_13\n    /* \"#utility.yul\":353:354   */\n  dup3\n    /* \"#utility.yul\":335:355   */\n  tag_7\n  jump\t// in\ntag_13:\n    /* \"#utility.yul\":330:355   */\n  swap2\n  pop\n    /* \"#utility.yul\":369:389   */\n  tag_14\n    /* \"#utility.yul\":387:388   */\n  dup4\n    /* \"#utility.yul\":369:389   */\n  tag_7\n  jump\t// in\ntag_14:\n    /* \"#utility.yul\":364:389   */\n  swap3\n  pop\n    /* \"#utility.yul\":412:413   */\n  dup3\n    /* \"#utility.yul\":409:410   */\n  dup3\n    /* \"#utility.yul\":405:414   */\n  add\n    /* \"#utility.yul\":398:414   */\n  swap1\n  pop\n    /* \"#utility.yul\":433:436   */\n  dup1\n    /* \"#utility.yul\":430:431   */\n  dup3\n    /* \"#utility.yul\":427:437   */\n  gt\n    /* \"#utility.yul\":424:460   */\n  iszero\n  tag_15\n  jumpi\n    /* \"#utility.yul\":440:458   */\n  tag_16\n  tag_8\n  jump\t// in\ntag_16:\n    /* \"#utility.yul\":424:460   */\ntag_15:\n    /* \"#utility.yul\":276:467   */\n  swap3\n  swap2\n  pop\n  pop\n  jump\t// out\n    /* \"contracts/testing_final.sol\":63:4775  contract final_task{... */\ntag_6:\n  dataSize(sub_0)\n  dup1\n  dataOffset(sub_0)\n  0x00\n  codecopy\n  0x00\n  return\nstop\n\nsub_0: assembly {\n        /* \"contracts/testing_final.sol\":63:4775  contract final_task{... */\n      mstore(0x40, 0x80)\n      jumpi(tag_1, lt(calldatasize, 0x04))\n      shr(0xe0, calldataload(0x00))\n      dup1\n      0x584f6be0\n      gt\n      tag_15\n      jumpi\n      dup1\n      0x68a6cdf2\n      gt\n      tag_16\n      jumpi\n      dup1\n      0x68a6cdf2\n      eq\n      tag_11\n      jumpi\n      dup1\n      0x8d472709\n      eq\n      tag_12\n      jumpi\n      dup1\n      0x8da5cb5b\n      eq\n      tag_13\n      jumpi\n      dup1\n      0xcc3d967b\n      eq\n      tag_14\n      jumpi\n      jump(tag_1)\n    tag_16:\n      dup1\n      0x584f6be0\n      eq\n      tag_8\n      jumpi\n      dup1\n      0x590e1ae3\n      eq\n      tag_9\n      jumpi\n      dup1\n      0x61bc221a\n      eq\n      tag_10\n      jumpi\n      jump(tag_1)\n    tag_15:\n      dup1\n      0x02fb0c5e\n      eq\n      tag_2\n      jumpi\n      dup1\n      0x0e666e49\n      eq\n      tag_3\n      jumpi\n      dup1\n      0x2ca126f8\n      eq\n      tag_4\n      jumpi\n      dup1\n      0x40193883\n      eq\n      tag_5\n      jumpi\n      dup1\n      0x4e71d92d\n      eq\n      tag_6\n      jumpi\n      dup1\n      0x51b42b00\n      eq\n      tag_7\n      jumpi\n    tag_1:\n      0x00\n      dup1\n      revert\n        /* \"contracts/testing_final.sol\":649:667  bool public active */\n    tag_2:\n      callvalue\n      dup1\n      iszero\n      tag_17\n      jumpi\n      0x00\n      dup1\n      revert\n    tag_17:\n      pop\n      tag_18\n      tag_19\n      jump\t// in\n    tag_18:\n      mload(0x40)\n      tag_20\n      swap2\n      swap1\n      tag_21\n      jump\t// in\n    tag_20:\n      mload(0x40)\n      dup1\n      swap2\n      sub\n      swap1\n      return\n        /* \"contracts/testing_final.sol\":4076:4772  function userExists(address _userAddress) public  view returns (string memory) {... */\n    tag_3:\n      callvalue\n      dup1\n      iszero\n      tag_22\n      jumpi\n      0x00\n      dup1\n      revert\n    tag_22:\n      pop\n      tag_23\n      0x04\n      dup1\n      calldatasize\n      sub\n      dup2\n      add\n      swap1\n      tag_24\n      swap2\n      swap1\n      tag_25\n      jump\t// in\n    tag_24:\n      tag_26\n      jump\t// in\n    tag_23:\n      mload(0x40)\n      tag_27\n      swap2\n      swap1\n      tag_28\n      jump\t// in\n    tag_27:\n      mload(0x40)\n      dup1\n      swap2\n      sub\n      swap1\n      return\n        /* \"contracts/testing_final.sol\":539:588  uint public endtime = block.timestamp + 5 minutes */\n    tag_4:\n      callvalue\n      dup1\n      iszero\n      tag_29\n      jumpi\n      0x00\n      dup1\n      revert\n    tag_29:\n      pop\n      tag_30\n      tag_31\n      jump\t// in\n    tag_30:\n      mload(0x40)\n      tag_32\n      swap2\n      swap1\n      tag_33\n      jump\t// in\n    tag_32:\n      mload(0x40)\n      dup1\n      swap2\n      sub\n      swap1\n      return\n        /* \"contracts/testing_final.sol\":464:489  uint public goal=20 ether */\n    tag_5:\n      callvalue\n      dup1\n      iszero\n      tag_34\n      jumpi\n      0x00\n      dup1\n      revert\n    tag_34:\n      pop\n      tag_35\n      tag_36\n      jump\t// in\n    tag_35:\n      mload(0x40)\n      tag_37\n      swap2\n      swap1\n      tag_33\n      jump\t// in\n    tag_37:\n      mload(0x40)\n      dup1\n      swap2\n      sub\n      swap1\n      return\n        /* \"contracts/testing_final.sol\":2579:3060  function claim() public  payable onlyowner  returns(funding[] memory) {... */\n    tag_6:\n      tag_38\n      tag_39\n      jump\t// in\n    tag_38:\n      mload(0x40)\n      tag_40\n      swap2\n      swap1\n      tag_41\n      jump\t// in\n    tag_40:\n      mload(0x40)\n      dup1\n      swap2\n      sub\n      swap1\n      return\n        /* \"contracts/testing_final.sol\":3062:3115  function deactivate() public{... */\n    tag_7:\n      callvalue\n      dup1\n      iszero\n      tag_42\n      jumpi\n      0x00\n      dup1\n      revert\n    tag_42:\n      pop\n      tag_43\n      tag_44\n      jump\t// in\n    tag_43:\n      stop\n        /* \"contracts/testing_final.sol\":1850:2082  function creations(string memory _name,... */\n    tag_8:\n      callvalue\n      dup1\n      iszero\n      tag_45\n      jumpi\n      0x00\n      dup1\n      revert\n    tag_45:\n      pop\n      tag_46\n      0x04\n      dup1\n      calldatasize\n      sub\n      dup2\n      add\n      swap1\n      tag_47\n      swap2\n      swap1\n      tag_48\n      jump\t// in\n    tag_47:\n      tag_49\n      jump\t// in\n    tag_46:\n      stop\n        /* \"contracts/testing_final.sol\":3119:3923  function refund()public payable  {... */\n    tag_9:\n      tag_50\n      tag_51\n      jump\t// in\n    tag_50:\n      stop\n        /* \"contracts/testing_final.sol\":704:723  uint public counter */\n    tag_10:\n      callvalue\n      dup1\n      iszero\n      tag_52\n      jumpi\n      0x00\n      dup1\n      revert\n    tag_52:\n      pop\n      tag_53\n      tag_54\n      jump\t// in\n    tag_53:\n      mload(0x40)\n      tag_55\n      swap2\n      swap1\n      tag_33\n      jump\t// in\n    tag_55:\n      mload(0x40)\n      dup1\n      swap2\n      sub\n      swap1\n      return\n        /* \"contracts/testing_final.sol\":1495:1531  mapping(address=>uint) public  datas */\n    tag_11:\n      callvalue\n      dup1\n      iszero\n      tag_56\n      jumpi\n      0x00\n      dup1\n      revert\n    tag_56:\n      pop\n      tag_57\n      0x04\n      dup1\n      calldatasize\n      sub\n      dup2\n      add\n      swap1\n      tag_58\n      swap2\n      swap1\n      tag_25\n      jump\t// in\n    tag_58:\n      tag_59\n      jump\t// in\n    tag_57:\n      mload(0x40)\n      tag_60\n      swap2\n      swap1\n      tag_33\n      jump\t// in\n    tag_60:\n      mload(0x40)\n      dup1\n      swap2\n      sub\n      swap1\n      return\n        /* \"contracts/testing_final.sol\":2086:2575  function contribute(address payable id,address payable  sender,  uint amount) public payable onlyowner isactive allowedtime returns(funding[] memory) {... */\n    tag_12:\n      tag_61\n      0x04\n      dup1\n      calldatasize\n      sub\n      dup2\n      add\n      swap1\n      tag_62\n      swap2\n      swap1\n      tag_63\n      jump\t// in\n    tag_62:\n      tag_64\n      jump\t// in\n    tag_61:\n      mload(0x40)\n      tag_65\n      swap2\n      swap1\n      tag_41\n      jump\t// in\n    tag_65:\n      mload(0x40)\n      dup1\n      swap2\n      sub\n      swap1\n      return\n        /* \"contracts/testing_final.sol\":676:697  address public  owner */\n    tag_13:\n      callvalue\n      dup1\n      iszero\n      tag_66\n      jumpi\n      0x00\n      dup1\n      revert\n    tag_66:\n      pop\n      tag_67\n      tag_68\n      jump\t// in\n    tag_67:\n      mload(0x40)\n      tag_69\n      swap2\n      swap1\n      tag_70\n      jump\t// in\n    tag_69:\n      mload(0x40)\n      dup1\n      swap2\n      sub\n      swap1\n      return\n        /* \"contracts/testing_final.sol\":3930:4071  function getUserDetails(address _userAddress) public view returns (funding[] memory) {... */\n    tag_14:\n      callvalue\n      dup1\n      iszero\n      tag_71\n      jumpi\n      0x00\n      dup1\n      revert\n    tag_71:\n      pop\n      tag_72\n      0x04\n      dup1\n      calldatasize\n      sub\n      dup2\n      add\n      swap1\n      tag_73\n      swap2\n      swap1\n      tag_25\n      jump\t// in\n    tag_73:\n      tag_74\n      jump\t// in\n    tag_72:\n      mload(0x40)\n      tag_75\n      swap2\n      swap1\n      tag_41\n      jump\t// in\n    tag_75:\n      mload(0x40)\n      dup1\n      swap2\n      sub\n      swap1\n      return\n        /* \"contracts/testing_final.sol\":649:667  bool public active */\n    tag_19:\n      0x04\n      0x00\n      swap1\n      sload\n      swap1\n      0x0100\n      exp\n      swap1\n      div\n      0xff\n      and\n      dup2\n      jump\t// out\n        /* \"contracts/testing_final.sol\":4076:4772  function userExists(address _userAddress) public  view returns (string memory) {... */\n    tag_26:\n        /* \"contracts/testing_final.sol\":4140:4153  string memory */\n      0x60\n        /* \"contracts/testing_final.sol\":4166:4183  uint256 userCount */\n      0x00\n        /* \"contracts/testing_final.sol\":4186:4190  data */\n      0x06\n        /* \"contracts/testing_final.sol\":4186:4204  data[_userAddress] */\n      0x00\n        /* \"contracts/testing_final.sol\":4191:4203  _userAddress */\n      dup5\n        /* \"contracts/testing_final.sol\":4186:4204  data[_userAddress] */\n      0xffffffffffffffffffffffffffffffffffffffff\n      and\n      0xffffffffffffffffffffffffffffffffffffffff\n      and\n      dup2\n      mstore\n      0x20\n      add\n      swap1\n      dup2\n      mstore\n      0x20\n      add\n      0x00\n      keccak256\n        /* \"contracts/testing_final.sol\":4186:4211  data[_userAddress].length */\n      dup1\n      sload\n      swap1\n      pop\n        /* \"contracts/testing_final.sol\":4166:4211  uint256 userCount = data[_userAddress].length */\n      swap1\n      pop\n        /* \"contracts/testing_final.sol\":4227:4236  uint256 j */\n      0x00\n        /* \"contracts/testing_final.sol\":4222:4584  for (uint256 j = 0; j < userCount; j++) {... */\n    tag_77:\n        /* \"contracts/testing_final.sol\":4246:4255  userCount */\n      dup2\n        /* \"contracts/testing_final.sol\":4242:4243  j */\n      dup2\n        /* \"contracts/testing_final.sol\":4242:4255  j < userCount */\n      lt\n        /* \"contracts/testing_final.sol\":4222:4584  for (uint256 j = 0; j < userCount; j++) {... */\n      iszero\n      tag_78\n      jumpi\n        /* \"contracts/testing_final.sol\":4311:4323  _userAddress */\n      dup4\n        /* \"contracts/testing_final.sol\":4281:4323  data[_userAddress][j].user == _userAddress */\n      0xffffffffffffffffffffffffffffffffffffffff\n      and\n        /* \"contracts/testing_final.sol\":4281:4285  data */\n      0x06\n        /* \"contracts/testing_final.sol\":4281:4299  data[_userAddress] */\n      0x00\n        /* \"contracts/testing_final.sol\":4286:4298  _userAddress */\n      dup7\n        /* \"contracts/testing_final.sol\":4281:4299  data[_userAddress] */\n      0xffffffffffffffffffffffffffffffffffffffff\n      and\n      0xffffffffffffffffffffffffffffffffffffffff\n      and\n      dup2\n      mstore\n      0x20\n      add\n      swap1\n      dup2\n      mstore\n      0x20\n      add\n      0x00\n      keccak256\n        /* \"contracts/testing_final.sol\":4300:4301  j */\n      dup3\n        /* \"contracts/testing_final.sol\":4281:4302  data[_userAddress][j] */\n      dup2\n      sload\n      dup2\n      lt\n      tag_80\n      jumpi\n      tag_81\n      tag_82\n      jump\t// in\n    tag_81:\n    tag_80:\n      swap1\n      0x00\n      mstore\n      keccak256(0x00, 0x20)\n      swap1\n      0x03\n      mul\n      add\n        /* \"contracts/testing_final.sol\":4281:4307  data[_userAddress][j].user */\n      0x02\n      add\n      0x00\n      swap1\n      sload\n      swap1\n      0x0100\n      exp\n      swap1\n      div\n      0xffffffffffffffffffffffffffffffffffffffff\n      and\n        /* \"contracts/testing_final.sol\":4281:4323  data[_userAddress][j].user == _userAddress */\n      0xffffffffffffffffffffffffffffffffffffffff\n      and\n      sub\n        /* \"contracts/testing_final.sol\":4277:4573  if (data[_userAddress][j].user == _userAddress) {... */\n      tag_84\n      jumpi\n        /* \"contracts/testing_final.sol\":4405:4434  return  \"user are registered\" */\n      mload(0x40)\n      dup1\n      0x40\n      add\n      0x40\n      mstore\n      dup1\n      0x13\n      dup2\n      mstore\n      0x20\n      add\n      0x7573657220617265207265676973746572656400000000000000000000000000\n      dup2\n      mstore\n      pop\n      swap3\n      pop\n      pop\n      pop\n      jump(tag_76)\n        /* \"contracts/testing_final.sol\":4277:4573  if (data[_userAddress][j].user == _userAddress) {... */\n    tag_84:\n        /* \"contracts/testing_final.sol\":4257:4260  j++ */\n      dup1\n      dup1\n      0x01\n      add\n      swap2\n      pop\n      pop\n        /* \"contracts/testing_final.sol\":4222:4584  for (uint256 j = 0; j < userCount; j++) {... */\n      jump(tag_77)\n    tag_78:\n      pop\n        /* \"contracts/testing_final.sol\":4732:4764  return \"user are not registered\" */\n      mload(0x40)\n      dup1\n      0x40\n      add\n      0x40\n      mstore\n      dup1\n      0x17\n      dup2\n      mstore\n      0x20\n      add\n      0x7573657220617265206e6f742072656769737465726564000000000000000000\n      dup2\n      mstore\n      pop\n      swap2\n      pop\n      pop\n        /* \"contracts/testing_final.sol\":4076:4772  function userExists(address _userAddress) public  view returns (string memory) {... */\n    tag_76:\n      swap2\n      swap1\n      pop\n      jump\t// out\n        /* \"contracts/testing_final.sol\":539:588  uint public endtime = block.timestamp + 5 minutes */\n    tag_31:\n      sload(0x03)\n      dup2\n      jump\t// out\n        /* \"contracts/testing_final.sol\":464:489  uint public goal=20 ether */\n    tag_36:\n      sload(0x02)\n      dup2\n      jump\t// out\n        /* \"contracts/testing_final.sol\":2579:3060  function claim() public  payable onlyowner  returns(funding[] memory) {... */\n    tag_39:\n        /* \"contracts/testing_final.sol\":2631:2647  funding[] memory */\n      0x60\n        /* \"contracts/testing_final.sol\":1058:1063  owner */\n      0x04\n      0x01\n      swap1\n      sload\n      swap1\n      0x0100\n      exp\n      swap1\n      div\n      0xffffffffffffffffffffffffffffffffffffffff\n      and\n        /* \"contracts/testing_final.sol\":1045:1063  msg.sender== owner */\n      0xffffffffffffffffffffffffffffffffffffffff\n      and\n        /* \"contracts/testing_final.sol\":1045:1055  msg.sender */\n      caller\n        /* \"contracts/testing_final.sol\":1045:1063  msg.sender== owner */\n      0xffffffffffffffffffffffffffffffffffffffff\n      and\n      eq\n        /* \"contracts/testing_final.sol\":1037:1099  require(msg.sender== owner,\"only owner can use this function\") */\n      tag_86\n      jumpi\n      mload(0x40)\n      0x08c379a000000000000000000000000000000000000000000000000000000000\n      dup2\n      mstore\n      0x04\n      add\n      tag_87\n      swap1\n      tag_88\n      jump\t// in\n    tag_87:\n      mload(0x40)\n      dup1\n      swap2\n      sub\n      swap1\n      revert\n    tag_86:\n        /* \"contracts/testing_final.sol\":2694:2698  goal */\n      sload(0x02)\n        /* \"contracts/testing_final.sol\":2669:2690  address(this).balance */\n      selfbalance\n        /* \"contracts/testing_final.sol\":2669:2698  address(this).balance >= goal */\n      lt\n        /* \"contracts/testing_final.sol\":2666:3042  if(address(this).balance >= goal  ){... */\n      tag_90\n      jumpi\n        /* \"contracts/testing_final.sol\":2728:2733  owner */\n      0x04\n      0x01\n      swap1\n      sload\n      swap1\n      0x0100\n      exp\n      swap1\n      div\n      0xffffffffffffffffffffffffffffffffffffffff\n      and\n        /* \"contracts/testing_final.sol\":2720:2743  payable(owner).transfer */\n      0xffffffffffffffffffffffffffffffffffffffff\n      and\n        /* \"contracts/testing_final.sol\":2720:2766  payable(owner).transfer(address(this).balance) */\n      0x08fc\n        /* \"contracts/testing_final.sol\":2744:2765  address(this).balance */\n      selfbalance\n        /* \"contracts/testing_final.sol\":2720:2766  payable(owner).transfer(address(this).balance) */\n      swap1\n      dup2\n      iszero\n      mul\n      swap1\n      mload(0x40)\n      0x00\n      mload(0x40)\n      dup1\n      dup4\n      sub\n      dup2\n      dup6\n      dup9\n      dup9\n      call\n      swap4\n      pop\n      pop\n      pop\n      pop\n      iszero\n      dup1\n      iszero\n      tag_92\n      jumpi\n      returndatasize\n      0x00\n      dup1\n      returndatacopy\n      revert(0x00, returndatasize)\n    tag_92:\n      pop\n        /* \"contracts/testing_final.sol\":2777:2789  deactivate() */\n      tag_93\n        /* \"contracts/testing_final.sol\":2777:2787  deactivate */\n      tag_44\n        /* \"contracts/testing_final.sol\":2777:2789  deactivate() */\n      jump\t// in\n    tag_93:\n        /* \"contracts/testing_final.sol\":2809:2831  check_state.completion */\n      0x02\n        /* \"contracts/testing_final.sol\":2802:2807  state */\n      0x00\n      dup1\n        /* \"contracts/testing_final.sol\":2802:2831  state= check_state.completion */\n      0x0100\n      exp\n      dup2\n      sload\n      dup2\n      0xff\n      mul\n      not\n      and\n      swap1\n      dup4\n      0x03\n      dup2\n      gt\n      iszero\n      tag_94\n      jumpi\n      tag_95\n      tag_96\n      jump\t// in\n    tag_95:\n    tag_94:\n      mul\n      or\n      swap1\n      sstore\n      pop\n        /* \"contracts/testing_final.sol\":2847:2892  completion(msg.sender, address(this).balance) */\n      0x4c51d260ed01191bd8c324dcc6426ba425e832f37a19e155c7182baa9839bd43\n        /* \"contracts/testing_final.sol\":2858:2868  msg.sender */\n      caller\n        /* \"contracts/testing_final.sol\":2870:2891  address(this).balance */\n      selfbalance\n        /* \"contracts/testing_final.sol\":2847:2892  completion(msg.sender, address(this).balance) */\n      mload(0x40)\n      tag_97\n      swap3\n      swap2\n      swap1\n      tag_98\n      jump\t// in\n    tag_97:\n      mload(0x40)\n      dup1\n      swap2\n      sub\n      swap1\n      log1\n        /* \"contracts/testing_final.sol\":2909:2935  getUserDetails(msg.sender) */\n      tag_99\n        /* \"contracts/testing_final.sol\":2924:2934  msg.sender */\n      caller\n        /* \"contracts/testing_final.sol\":2909:2923  getUserDetails */\n      tag_74\n        /* \"contracts/testing_final.sol\":2909:2935  getUserDetails(msg.sender) */\n      jump\t// in\n    tag_99:\n        /* \"contracts/testing_final.sol\":2901:2935  return  getUserDetails(msg.sender) */\n      swap1\n      pop\n      jump(tag_89)\n        /* \"contracts/testing_final.sol\":2666:3042  if(address(this).balance >= goal  ){... */\n    tag_90:\n        /* \"contracts/testing_final.sol\":2986:3033  revert(\"funds are not sufficient for claiming\") */\n      mload(0x40)\n      0x08c379a000000000000000000000000000000000000000000000000000000000\n      dup2\n      mstore\n      0x04\n      add\n      tag_101\n      swap1\n      tag_102\n      jump\t// in\n    tag_101:\n      mload(0x40)\n      dup1\n      swap2\n      sub\n      swap1\n      revert\n        /* \"contracts/testing_final.sol\":1109:1110  _ */\n    tag_89:\n        /* \"contracts/testing_final.sol\":2579:3060  function claim() public  payable onlyowner  returns(funding[] memory) {... */\n      swap1\n      jump\t// out\n        /* \"contracts/testing_final.sol\":3062:3115  function deactivate() public{... */\n    tag_44:\n        /* \"contracts/testing_final.sol\":3106:3111  false */\n      0x00\n        /* \"contracts/testing_final.sol\":3097:3103  active */\n      0x04\n      0x00\n        /* \"contracts/testing_final.sol\":3097:3111  active = false */\n      0x0100\n      exp\n      dup2\n      sload\n      dup2\n      0xff\n      mul\n      not\n      and\n      swap1\n      dup4\n      iszero\n      iszero\n      mul\n      or\n      swap1\n      sstore\n      pop\n        /* \"contracts/testing_final.sol\":3062:3115  function deactivate() public{... */\n      jump\t// out\n        /* \"contracts/testing_final.sol\":1850:2082  function creations(string memory _name,... */\n    tag_49:\n        /* \"contracts/testing_final.sol\":846:852  active */\n      0x04\n      0x00\n      swap1\n      sload\n      swap1\n      0x0100\n      exp\n      swap1\n      div\n      0xff\n      and\n        /* \"contracts/testing_final.sol\":838:875  require(active,\"state is not active\") */\n      tag_105\n      jumpi\n      mload(0x40)\n      0x08c379a000000000000000000000000000000000000000000000000000000000\n      dup2\n      mstore\n      0x04\n      add\n      tag_106\n      swap1\n      tag_107\n      jump\t// in\n    tag_106:\n      mload(0x40)\n      dup1\n      swap2\n      sub\n      swap1\n      revert\n    tag_105:\n        /* \"contracts/testing_final.sol\":1962:1996  adduser(_name, _discription,_user) */\n      tag_109\n        /* \"contracts/testing_final.sol\":1970:1975  _name */\n      dup4\n        /* \"contracts/testing_final.sol\":1977:1989  _discription */\n      dup4\n        /* \"contracts/testing_final.sol\":1990:1995  _user */\n      dup4\n        /* \"contracts/testing_final.sol\":1962:1969  adduser */\n      tag_110\n        /* \"contracts/testing_final.sol\":1962:1996  adduser(_name, _discription,_user) */\n      jump\t// in\n    tag_109:\n        /* \"contracts/testing_final.sol\":2007:2027  check_state.creation */\n      0x00\n        /* \"contracts/testing_final.sol\":1999:2004  state */\n      dup1\n      0x00\n        /* \"contracts/testing_final.sol\":1999:2027  state = check_state.creation */\n      0x0100\n      exp\n      dup2\n      sload\n      dup2\n      0xff\n      mul\n      not\n      and\n      swap1\n      dup4\n      0x03\n      dup2\n      gt\n      iszero\n      tag_111\n      jumpi\n      tag_112\n      tag_96\n      jump\t// in\n    tag_112:\n    tag_111:\n      mul\n      or\n      swap1\n      sstore\n      pop\n        /* \"contracts/testing_final.sol\":2035:2074  creation(msg.sender,_name,_discription) */\n      0x1dfd8cec52292c44a89be6bd42f905ddc92c63b3a343c239093964d1038e1b9b\n        /* \"contracts/testing_final.sol\":2044:2054  msg.sender */\n      caller\n        /* \"contracts/testing_final.sol\":2055:2060  _name */\n      dup5\n        /* \"contracts/testing_final.sol\":2061:2073  _discription */\n      dup5\n        /* \"contracts/testing_final.sol\":2035:2074  creation(msg.sender,_name,_discription) */\n      mload(0x40)\n      tag_113\n      swap4\n      swap3\n      swap2\n      swap1\n      tag_114\n      jump\t// in\n    tag_113:\n      mload(0x40)\n      dup1\n      swap2\n      sub\n      swap1\n      log1\n        /* \"contracts/testing_final.sol\":1850:2082  function creations(string memory _name,... */\n      pop\n      pop\n      pop\n      jump\t// out\n        /* \"contracts/testing_final.sol\":3119:3923  function refund()public payable  {... */\n    tag_51:\n        /* \"contracts/testing_final.sol\":3334:3338  goal */\n      sload(0x02)\n        /* \"contracts/testing_final.sol\":3310:3331  address(this).balance */\n      selfbalance\n        /* \"contracts/testing_final.sol\":3310:3338  address(this).balance < goal */\n      lt\n        /* \"contracts/testing_final.sol\":3310:3368  address(this).balance < goal || block.timestamp >= endtime */\n      dup1\n      tag_116\n      jumpi\n      pop\n        /* \"contracts/testing_final.sol\":3361:3368  endtime */\n      sload(0x03)\n        /* \"contracts/testing_final.sol\":3342:3357  block.timestamp */\n      timestamp\n        /* \"contracts/testing_final.sol\":3342:3368  block.timestamp >= endtime */\n      lt\n      iszero\n        /* \"contracts/testing_final.sol\":3310:3368  address(this).balance < goal || block.timestamp >= endtime */\n    tag_116:\n        /* \"contracts/testing_final.sol\":3307:3687  if(address(this).balance < goal || block.timestamp >= endtime){... */\n      iszero\n      tag_117\n      jumpi\n        /* \"contracts/testing_final.sol\":3557:3567  msg.sender */\n      caller\n        /* \"contracts/testing_final.sol\":3548:3577  payable (msg.sender).transfer */\n      0xffffffffffffffffffffffffffffffffffffffff\n      and\n        /* \"contracts/testing_final.sol\":3548:3600  payable (msg.sender).transfer(address(this).balance) */\n      0x08fc\n        /* \"contracts/testing_final.sol\":3578:3599  address(this).balance */\n      selfbalance\n        /* \"contracts/testing_final.sol\":3548:3600  payable (msg.sender).transfer(address(this).balance) */\n      swap1\n      dup2\n      iszero\n      mul\n      swap1\n      mload(0x40)\n      0x00\n      mload(0x40)\n      dup1\n      dup4\n      sub\n      dup2\n      dup6\n      dup9\n      dup9\n      call\n      swap4\n      pop\n      pop\n      pop\n      pop\n      iszero\n      dup1\n      iszero\n      tag_119\n      jumpi\n      returndatasize\n      0x00\n      dup1\n      returndatacopy\n      revert(0x00, returndatasize)\n    tag_119:\n      pop\n        /* \"contracts/testing_final.sol\":3307:3687  if(address(this).balance < goal || block.timestamp >= endtime){... */\n    tag_117:\n        /* \"contracts/testing_final.sol\":3796:3821  check_state.refund_claims */\n      0x03\n        /* \"contracts/testing_final.sol\":3788:3793  state */\n      0x00\n      dup1\n        /* \"contracts/testing_final.sol\":3788:3821  state = check_state.refund_claims */\n      0x0100\n      exp\n      dup2\n      sload\n      dup2\n      0xff\n      mul\n      not\n      and\n      swap1\n      dup4\n      0x03\n      dup2\n      gt\n      iszero\n      tag_120\n      jumpi\n      tag_121\n      tag_96\n      jump\t// in\n    tag_121:\n    tag_120:\n      mul\n      or\n      swap1\n      sstore\n      pop\n        /* \"contracts/testing_final.sol\":3833:3869  refund_claims(msg.sender, msg.value) */\n      0x13449f70035221bfd809cb8d8994f004f2f917bbc10a9f431bfa7b3f423c0b25\n        /* \"contracts/testing_final.sol\":3847:3857  msg.sender */\n      caller\n        /* \"contracts/testing_final.sol\":3859:3868  msg.value */\n      callvalue\n        /* \"contracts/testing_final.sol\":3833:3869  refund_claims(msg.sender, msg.value) */\n      mload(0x40)\n      tag_122\n      swap3\n      swap2\n      swap1\n      tag_98\n      jump\t// in\n    tag_122:\n      mload(0x40)\n      dup1\n      swap2\n      sub\n      swap1\n      log1\n        /* \"contracts/testing_final.sol\":3119:3923  function refund()public payable  {... */\n      jump\t// out\n        /* \"contracts/testing_final.sol\":704:723  uint public counter */\n    tag_54:\n      sload(0x05)\n      dup2\n      jump\t// out\n        /* \"contracts/testing_final.sol\":1495:1531  mapping(address=>uint) public  datas */\n    tag_59:\n      mstore(0x20, 0x07)\n      dup1\n      0x00\n      mstore\n      keccak256(0x00, 0x40)\n      0x00\n      swap2\n      pop\n      swap1\n      pop\n      sload\n      dup2\n      jump\t// out\n        /* \"contracts/testing_final.sol\":2086:2575  function contribute(address payable id,address payable  sender,  uint amount) public payable onlyowner isactive allowedtime returns(funding[] memory) {... */\n    tag_64:\n        /* \"contracts/testing_final.sol\":2218:2234  funding[] memory */\n      0x60\n        /* \"contracts/testing_final.sol\":1058:1063  owner */\n      0x04\n      0x01\n      swap1\n      sload\n      swap1\n      0x0100\n      exp\n      swap1\n      div\n      0xffffffffffffffffffffffffffffffffffffffff\n      and\n        /* \"contracts/testing_final.sol\":1045:1063  msg.sender== owner */\n      0xffffffffffffffffffffffffffffffffffffffff\n      and\n        /* \"contracts/testing_final.sol\":1045:1055  msg.sender */\n      caller\n        /* \"contracts/testing_final.sol\":1045:1063  msg.sender== owner */\n      0xffffffffffffffffffffffffffffffffffffffff\n      and\n      eq\n        /* \"contracts/testing_final.sol\":1037:1099  require(msg.sender== owner,\"only owner can use this function\") */\n      tag_124\n      jumpi\n      mload(0x40)\n      0x08c379a000000000000000000000000000000000000000000000000000000000\n      dup2\n      mstore\n      0x04\n      add\n      tag_125\n      swap1\n      tag_88\n      jump\t// in\n    tag_125:\n      mload(0x40)\n      dup1\n      swap2\n      sub\n      swap1\n      revert\n    tag_124:\n        /* \"contracts/testing_final.sol\":846:852  active */\n      0x04\n      0x00\n      swap1\n      sload\n      swap1\n      0x0100\n      exp\n      swap1\n      div\n      0xff\n      and\n        /* \"contracts/testing_final.sol\":838:875  require(active,\"state is not active\") */\n      tag_127\n      jumpi\n      mload(0x40)\n      0x08c379a000000000000000000000000000000000000000000000000000000000\n      dup2\n      mstore\n      0x04\n      add\n      tag_128\n      swap1\n      tag_107\n      jump\t// in\n    tag_128:\n      mload(0x40)\n      dup1\n      swap2\n      sub\n      swap1\n      revert\n    tag_127:\n        /* \"contracts/testing_final.sol\":940:947  endtime */\n      sload(0x03)\n        /* \"contracts/testing_final.sol\":922:937  block.timestamp */\n      timestamp\n        /* \"contracts/testing_final.sol\":922:947  block.timestamp<= endtime */\n      gt\n      iszero\n        /* \"contracts/testing_final.sol\":914:988  require(block.timestamp<= endtime,\"time end not contribution are allowed\") */\n      tag_130\n      jumpi\n      mload(0x40)\n      0x08c379a000000000000000000000000000000000000000000000000000000000\n      dup2\n      mstore\n      0x04\n      add\n      tag_131\n      swap1\n      tag_132\n      jump\t// in\n    tag_131:\n      mload(0x40)\n      dup1\n      swap2\n      sub\n      swap1\n      revert\n    tag_130:\n        /* \"contracts/testing_final.sol\":2313:2319  sender */\n      dup3\n        /* \"contracts/testing_final.sol\":2313:2328  sender.transfer */\n      0xffffffffffffffffffffffffffffffffffffffff\n      and\n        /* \"contracts/testing_final.sol\":2313:2336  sender.transfer(amount) */\n      0x08fc\n        /* \"contracts/testing_final.sol\":2329:2335  amount */\n      dup4\n        /* \"contracts/testing_final.sol\":2313:2336  sender.transfer(amount) */\n      swap1\n      dup2\n      iszero\n      mul\n      swap1\n      mload(0x40)\n      0x00\n      mload(0x40)\n      dup1\n      dup4\n      sub\n      dup2\n      dup6\n      dup9\n      dup9\n      call\n      swap4\n      pop\n      pop\n      pop\n      pop\n      iszero\n      dup1\n      iszero\n      tag_135\n      jumpi\n      returndatasize\n      0x00\n      dup1\n      returndatacopy\n      revert(0x00, returndatasize)\n    tag_135:\n      pop\n        /* \"contracts/testing_final.sol\":2381:2406  check_state.contributions */\n      0x01\n        /* \"contracts/testing_final.sol\":2374:2379  state */\n      0x00\n      dup1\n        /* \"contracts/testing_final.sol\":2374:2406  state= check_state.contributions */\n      0x0100\n      exp\n      dup2\n      sload\n      dup2\n      0xff\n      mul\n      not\n      and\n      swap1\n      dup4\n      0x03\n      dup2\n      gt\n      iszero\n      tag_136\n      jumpi\n      tag_137\n      tag_96\n      jump\t// in\n    tag_137:\n    tag_136:\n      mul\n      or\n      swap1\n      sstore\n      pop\n        /* \"contracts/testing_final.sol\":2490:2522  contributions(msg.sender,amount) */\n      0x550b521cf33b3a7fe1363ea8bed6130500d8a27ced06a0fc13576b96cf155289\n        /* \"contracts/testing_final.sol\":2504:2514  msg.sender */\n      caller\n        /* \"contracts/testing_final.sol\":2515:2521  amount */\n      dup4\n        /* \"contracts/testing_final.sol\":2490:2522  contributions(msg.sender,amount) */\n      mload(0x40)\n      tag_138\n      swap3\n      swap2\n      swap1\n      tag_98\n      jump\t// in\n    tag_138:\n      mload(0x40)\n      dup1\n      swap2\n      sub\n      swap1\n      log1\n        /* \"contracts/testing_final.sol\":2538:2560  getUserDetails(sender) */\n      tag_139\n        /* \"contracts/testing_final.sol\":2553:2559  sender */\n      dup4\n        /* \"contracts/testing_final.sol\":2538:2552  getUserDetails */\n      tag_74\n        /* \"contracts/testing_final.sol\":2538:2560  getUserDetails(sender) */\n      jump\t// in\n    tag_139:\n        /* \"contracts/testing_final.sol\":2529:2560  return   getUserDetails(sender) */\n      swap1\n      pop\n        /* \"contracts/testing_final.sol\":2086:2575  function contribute(address payable id,address payable  sender,  uint amount) public payable onlyowner isactive allowedtime returns(funding[] memory) {... */\n      swap4\n      swap3\n      pop\n      pop\n      pop\n      jump\t// out\n        /* \"contracts/testing_final.sol\":676:697  address public  owner */\n    tag_68:\n      0x04\n      0x01\n      swap1\n      sload\n      swap1\n      0x0100\n      exp\n      swap1\n      div\n      0xffffffffffffffffffffffffffffffffffffffff\n      and\n      dup2\n      jump\t// out\n        /* \"contracts/testing_final.sol\":3930:4071  function getUserDetails(address _userAddress) public view returns (funding[] memory) {... */\n    tag_74:\n        /* \"contracts/testing_final.sol\":3997:4013  funding[] memory */\n      0x60\n        /* \"contracts/testing_final.sol\":4033:4037  data */\n      0x06\n        /* \"contracts/testing_final.sol\":4033:4051  data[_userAddress] */\n      0x00\n        /* \"contracts/testing_final.sol\":4038:4050  _userAddress */\n      dup4\n        /* \"contracts/testing_final.sol\":4033:4051  data[_userAddress] */\n      0xffffffffffffffffffffffffffffffffffffffff\n      and\n      0xffffffffffffffffffffffffffffffffffffffff\n      and\n      dup2\n      mstore\n      0x20\n      add\n      swap1\n      dup2\n      mstore\n      0x20\n      add\n      0x00\n      keccak256\n        /* \"contracts/testing_final.sol\":4026:4051  return data[_userAddress] */\n      dup1\n      sload\n      dup1\n      0x20\n      mul\n      0x20\n      add\n      mload(0x40)\n      swap1\n      dup2\n      add\n      0x40\n      mstore\n      dup1\n      swap3\n      swap2\n      swap1\n      dup2\n      dup2\n      mstore\n      0x20\n      add\n      0x00\n      swap1\n    tag_141:\n      dup3\n      dup3\n      lt\n      iszero\n      tag_142\n      jumpi\n      dup4\n      dup3\n      swap1\n      0x00\n      mstore\n      keccak256(0x00, 0x20)\n      swap1\n      0x03\n      mul\n      add\n      mload(0x40)\n      dup1\n      0x60\n      add\n      0x40\n      mstore\n      swap1\n      dup2\n      0x00\n      dup3\n      add\n      dup1\n      sload\n      tag_144\n      swap1\n      tag_145\n      jump\t// in\n    tag_144:\n      dup1\n      0x1f\n      add\n      0x20\n      dup1\n      swap2\n      div\n      mul\n      0x20\n      add\n      mload(0x40)\n      swap1\n      dup2\n      add\n      0x40\n      mstore\n      dup1\n      swap3\n      swap2\n      swap1\n      dup2\n      dup2\n      mstore\n      0x20\n      add\n      dup3\n      dup1\n      sload\n      tag_146\n      swap1\n      tag_145\n      jump\t// in\n    tag_146:\n      dup1\n      iszero\n      tag_147\n      jumpi\n      dup1\n      0x1f\n      lt\n      tag_148\n      jumpi\n      0x0100\n      dup1\n      dup4\n      sload\n      div\n      mul\n      dup4\n      mstore\n      swap2\n      0x20\n      add\n      swap2\n      jump(tag_147)\n    tag_148:\n      dup3\n      add\n      swap2\n      swap1\n      0x00\n      mstore\n      keccak256(0x00, 0x20)\n      swap1\n    tag_149:\n      dup2\n      sload\n      dup2\n      mstore\n      swap1\n      0x01\n      add\n      swap1\n      0x20\n      add\n      dup1\n      dup4\n      gt\n      tag_149\n      jumpi\n      dup3\n      swap1\n      sub\n      0x1f\n      and\n      dup3\n      add\n      swap2\n    tag_147:\n      pop\n      pop\n      pop\n      pop\n      pop\n      dup2\n      mstore\n      0x20\n      add\n      0x01\n      dup3\n      add\n      dup1\n      sload\n      tag_150\n      swap1\n      tag_145\n      jump\t// in\n    tag_150:\n      dup1\n      0x1f\n      add\n      0x20\n      dup1\n      swap2\n      div\n      mul\n      0x20\n      add\n      mload(0x40)\n      swap1\n      dup2\n      add\n      0x40\n      mstore\n      dup1\n      swap3\n      swap2\n      swap1\n      dup2\n      dup2\n      mstore\n      0x20\n      add\n      dup3\n      dup1\n      sload\n      tag_151\n      swap1\n      tag_145\n      jump\t// in\n    tag_151:\n      dup1\n      iszero\n      tag_152\n      jumpi\n      dup1\n      0x1f\n      lt\n      tag_153\n      jumpi\n      0x0100\n      dup1\n      dup4\n      sload\n      div\n      mul\n      dup4\n      mstore\n      swap2\n      0x20\n      add\n      swap2\n      jump(tag_152)\n    tag_153:\n      dup3\n      add\n      swap2\n      swap1\n      0x00\n      mstore\n      keccak256(0x00, 0x20)\n      swap1\n    tag_154:\n      dup2\n      sload\n      dup2\n      mstore\n      swap1\n      0x01\n      add\n      swap1\n      0x20\n      add\n      dup1\n      dup4\n      gt\n      tag_154\n      jumpi\n      dup3\n      swap1\n      sub\n      0x1f\n      and\n      dup3\n      add\n      swap2\n    tag_152:\n      pop\n      pop\n      pop\n      pop\n      pop\n      dup2\n      mstore\n      0x20\n      add\n      0x02\n      dup3\n      add\n      0x00\n      swap1\n      sload\n      swap1\n      0x0100\n      exp\n      swap1\n      div\n      0xffffffffffffffffffffffffffffffffffffffff\n      and\n      0xffffffffffffffffffffffffffffffffffffffff\n      and\n      0xffffffffffffffffffffffffffffffffffffffff\n      and\n      dup2\n      mstore\n      pop\n      pop\n      dup2\n      mstore\n      0x20\n      add\n      swap1\n      0x01\n      add\n      swap1\n      jump(tag_141)\n    tag_142:\n      pop\n      pop\n      pop\n      pop\n      swap1\n      pop\n        /* \"contracts/testing_final.sol\":3930:4071  function getUserDetails(address _userAddress) public view returns (funding[] memory) {... */\n      swap2\n      swap1\n      pop\n      jump\t// out\n        /* \"contracts/testing_final.sol\":1538:1843  function adduser(  string memory _name,... */\n    tag_110:\n        /* \"contracts/testing_final.sol\":1659:1663  data */\n      0x06\n        /* \"contracts/testing_final.sol\":1659:1670  data[_user] */\n      0x00\n        /* \"contracts/testing_final.sol\":1664:1669  _user */\n      dup3\n        /* \"contracts/testing_final.sol\":1659:1670  data[_user] */\n      0xffffffffffffffffffffffffffffffffffffffff\n      and\n      0xffffffffffffffffffffffffffffffffffffffff\n      and\n      dup2\n      mstore\n      0x20\n      add\n      swap1\n      dup2\n      mstore\n      0x20\n      add\n      0x00\n      keccak256\n        /* \"contracts/testing_final.sol\":1685:1817  funding(... */\n      mload(0x40)\n      dup1\n      0x60\n      add\n      0x40\n      mstore\n      dup1\n        /* \"contracts/testing_final.sol\":1725:1730  _name */\n      dup6\n        /* \"contracts/testing_final.sol\":1685:1817  funding(... */\n      dup2\n      mstore\n      0x20\n      add\n        /* \"contracts/testing_final.sol\":1750:1762  _discription */\n      dup5\n        /* \"contracts/testing_final.sol\":1685:1817  funding(... */\n      dup2\n      mstore\n      0x20\n      add\n        /* \"contracts/testing_final.sol\":1782:1787  _user */\n      dup4\n        /* \"contracts/testing_final.sol\":1685:1817  funding(... */\n      0xffffffffffffffffffffffffffffffffffffffff\n      and\n      dup2\n      mstore\n      pop\n        /* \"contracts/testing_final.sol\":1659:1830  data[_user].push(... */\n      swap1\n      dup1\n      0x01\n      dup2\n      sload\n      add\n      dup1\n      dup3\n      sstore\n      dup1\n      swap2\n      pop\n      pop\n      0x01\n      swap1\n      sub\n      swap1\n      0x00\n      mstore\n      keccak256(0x00, 0x20)\n      swap1\n      0x03\n      mul\n      add\n      0x00\n      swap1\n      swap2\n      swap1\n      swap2\n      swap1\n      swap2\n      pop\n      0x00\n      dup3\n      add\n      mload\n      dup2\n      0x00\n      add\n      swap1\n      dup2\n      tag_157\n      swap2\n      swap1\n      tag_158\n      jump\t// in\n    tag_157:\n      pop\n      0x20\n      dup3\n      add\n      mload\n      dup2\n      0x01\n      add\n      swap1\n      dup2\n      tag_159\n      swap2\n      swap1\n      tag_158\n      jump\t// in\n    tag_159:\n      pop\n      0x40\n      dup3\n      add\n      mload\n      dup2\n      0x02\n      add\n      exp(0x0100, 0x00)\n      dup2\n      sload\n      dup2\n      0xffffffffffffffffffffffffffffffffffffffff\n      mul\n      not\n      and\n      swap1\n      dup4\n      0xffffffffffffffffffffffffffffffffffffffff\n      and\n      mul\n      or\n      swap1\n      sstore\n      pop\n      pop\n      pop\n        /* \"contracts/testing_final.sol\":1538:1843  function adduser(  string memory _name,... */\n      pop\n      pop\n      pop\n      jump\t// out\n        /* \"#utility.yul\":7:97   */\n    tag_160:\n        /* \"#utility.yul\":41:48   */\n      0x00\n        /* \"#utility.yul\":84:89   */\n      dup2\n        /* \"#utility.yul\":77:90   */\n      iszero\n        /* \"#utility.yul\":70:91   */\n      iszero\n        /* \"#utility.yul\":59:91   */\n      swap1\n      pop\n        /* \"#utility.yul\":7:97   */\n      swap2\n      swap1\n      pop\n      jump\t// out\n        /* \"#utility.yul\":103:212   */\n    tag_161:\n        /* \"#utility.yul\":184:205   */\n      tag_228\n        /* \"#utility.yul\":199:204   */\n      dup2\n        /* \"#utility.yul\":184:205   */\n      tag_160\n      jump\t// in\n    tag_228:\n        /* \"#utility.yul\":179:182   */\n      dup3\n        /* \"#utility.yul\":172:206   */\n      mstore\n        /* \"#utility.yul\":103:212   */\n      pop\n      pop\n      jump\t// out\n        /* \"#utility.yul\":218:428   */\n    tag_21:\n        /* \"#utility.yul\":305:309   */\n      0x00\n        /* \"#utility.yul\":343:345   */\n      0x20\n        /* \"#utility.yul\":332:341   */\n      dup3\n        /* \"#utility.yul\":328:346   */\n      add\n        /* \"#utility.yul\":320:346   */\n      swap1\n      pop\n        /* \"#utility.yul\":356:421   */\n      tag_230\n        /* \"#utility.yul\":418:419   */\n      0x00\n        /* \"#utility.yul\":407:416   */\n      dup4\n        /* \"#utility.yul\":403:420   */\n      add\n        /* \"#utility.yul\":394:400   */\n      dup5\n        /* \"#utility.yul\":356:421   */\n      tag_161\n      jump\t// in\n    tag_230:\n        /* \"#utility.yul\":218:428   */\n      swap3\n      swap2\n      pop\n      pop\n      jump\t// out\n        /* \"#utility.yul\":434:509   */\n    tag_162:\n        /* \"#utility.yul\":467:473   */\n      0x00\n        /* \"#utility.yul\":500:502   */\n      0x40\n        /* \"#utility.yul\":494:503   */\n      mload\n        /* \"#utility.yul\":484:503   */\n      swap1\n      pop\n        /* \"#utility.yul\":434:509   */\n      swap1\n      jump\t// out\n        /* \"#utility.yul\":515:632   */\n    tag_163:\n        /* \"#utility.yul\":624:625   */\n      0x00\n        /* \"#utility.yul\":621:622   */\n      dup1\n        /* \"#utility.yul\":614:626   */\n      revert\n        /* \"#utility.yul\":638:755   */\n    tag_164:\n        /* \"#utility.yul\":747:748   */\n      0x00\n        /* \"#utility.yul\":744:745   */\n      dup1\n        /* \"#utility.yul\":737:749   */\n      revert\n        /* \"#utility.yul\":761:887   */\n    tag_165:\n        /* \"#utility.yul\":798:805   */\n      0x00\n        /* \"#utility.yul\":838:880   */\n      0xffffffffffffffffffffffffffffffffffffffff\n        /* \"#utility.yul\":831:836   */\n      dup3\n        /* \"#utility.yul\":827:881   */\n      and\n        /* \"#utility.yul\":816:881   */\n      swap1\n      pop\n        /* \"#utility.yul\":761:887   */\n      swap2\n      swap1\n      pop\n      jump\t// out\n        /* \"#utility.yul\":893:989   */\n    tag_166:\n        /* \"#utility.yul\":930:937   */\n      0x00\n        /* \"#utility.yul\":959:983   */\n      tag_236\n        /* \"#utility.yul\":977:982   */\n      dup3\n        /* \"#utility.yul\":959:983   */\n      tag_165\n      jump\t// in\n    tag_236:\n        /* \"#utility.yul\":948:983   */\n      swap1\n      pop\n        /* \"#utility.yul\":893:989   */\n      swap2\n      swap1\n      pop\n      jump\t// out\n        /* \"#utility.yul\":995:1117   */\n    tag_167:\n        /* \"#utility.yul\":1068:1092   */\n      tag_238\n        /* \"#utility.yul\":1086:1091   */\n      dup2\n        /* \"#utility.yul\":1068:1092   */\n      tag_166\n      jump\t// in\n    tag_238:\n        /* \"#utility.yul\":1061:1066   */\n      dup2\n        /* \"#utility.yul\":1058:1093   */\n      eq\n        /* \"#utility.yul\":1048:1111   */\n      tag_239\n      jumpi\n        /* \"#utility.yul\":1107:1108   */\n      0x00\n        /* \"#utility.yul\":1104:1105   */\n      dup1\n        /* \"#utility.yul\":1097:1109   */\n      revert\n        /* \"#utility.yul\":1048:1111   */\n    tag_239:\n        /* \"#utility.yul\":995:1117   */\n      pop\n      jump\t// out\n        /* \"#utility.yul\":1123:1262   */\n    tag_168:\n        /* \"#utility.yul\":1169:1174   */\n      0x00\n        /* \"#utility.yul\":1207:1213   */\n      dup2\n        /* \"#utility.yul\":1194:1214   */\n      calldataload\n        /* \"#utility.yul\":1185:1214   */\n      swap1\n      pop\n        /* \"#utility.yul\":1223:1256   */\n      tag_241\n        /* \"#utility.yul\":1250:1255   */\n      dup2\n        /* \"#utility.yul\":1223:1256   */\n      tag_167\n      jump\t// in\n    tag_241:\n        /* \"#utility.yul\":1123:1262   */\n      swap3\n      swap2\n      pop\n      pop\n      jump\t// out\n        /* \"#utility.yul\":1268:1597   */\n    tag_25:\n        /* \"#utility.yul\":1327:1333   */\n      0x00\n        /* \"#utility.yul\":1376:1378   */\n      0x20\n        /* \"#utility.yul\":1364:1373   */\n      dup3\n        /* \"#utility.yul\":1355:1362   */\n      dup5\n        /* \"#utility.yul\":1351:1374   */\n      sub\n        /* \"#utility.yul\":1347:1379   */\n      slt\n        /* \"#utility.yul\":1344:1463   */\n      iszero\n      tag_243\n      jumpi\n        /* \"#utility.yul\":1382:1461   */\n      tag_244\n      tag_163\n      jump\t// in\n    tag_244:\n        /* \"#utility.yul\":1344:1463   */\n    tag_243:\n        /* \"#utility.yul\":1502:1503   */\n      0x00\n        /* \"#utility.yul\":1527:1580   */\n      tag_245\n        /* \"#utility.yul\":1572:1579   */\n      dup5\n        /* \"#utility.yul\":1563:1569   */\n      dup3\n        /* \"#utility.yul\":1552:1561   */\n      dup6\n        /* \"#utility.yul\":1548:1570   */\n      add\n        /* \"#utility.yul\":1527:1580   */\n      tag_168\n      jump\t// in\n    tag_245:\n        /* \"#utility.yul\":1517:1580   */\n      swap2\n      pop\n        /* \"#utility.yul\":1473:1590   */\n      pop\n        /* \"#utility.yul\":1268:1597   */\n      swap3\n      swap2\n      pop\n      pop\n      jump\t// out\n        /* \"#utility.yul\":1603:1702   */\n    tag_169:\n        /* \"#utility.yul\":1655:1661   */\n      0x00\n        /* \"#utility.yul\":1689:1694   */\n      dup2\n        /* \"#utility.yul\":1683:1695   */\n      mload\n        /* \"#utility.yul\":1673:1695   */\n      swap1\n      pop\n        /* \"#utility.yul\":1603:1702   */\n      swap2\n      swap1\n      pop\n      jump\t// out\n        /* \"#utility.yul\":1708:1877   */\n    tag_170:\n        /* \"#utility.yul\":1792:1803   */\n      0x00\n        /* \"#utility.yul\":1826:1832   */\n      dup3\n        /* \"#utility.yul\":1821:1824   */\n      dup3\n        /* \"#utility.yul\":1814:1833   */\n      mstore\n        /* \"#utility.yul\":1866:1870   */\n      0x20\n        /* \"#utility.yul\":1861:1864   */\n      dup3\n        /* \"#utility.yul\":1857:1871   */\n      add\n        /* \"#utility.yul\":1842:1871   */\n      swap1\n      pop\n        /* \"#utility.yul\":1708:1877   */\n      swap3\n      swap2\n      pop\n      pop\n      jump\t// out\n        /* \"#utility.yul\":1883:2129   */\n    tag_171:\n        /* \"#utility.yul\":1964:1965   */\n      0x00\n        /* \"#utility.yul\":1974:2087   */\n    tag_249:\n        /* \"#utility.yul\":1988:1994   */\n      dup4\n        /* \"#utility.yul\":1985:1986   */\n      dup2\n        /* \"#utility.yul\":1982:1995   */\n      lt\n        /* \"#utility.yul\":1974:2087   */\n      iszero\n      tag_251\n      jumpi\n        /* \"#utility.yul\":2073:2074   */\n      dup1\n        /* \"#utility.yul\":2068:2071   */\n      dup3\n        /* \"#utility.yul\":2064:2075   */\n      add\n        /* \"#utility.yul\":2058:2076   */\n      mload\n        /* \"#utility.yul\":2054:2055   */\n      dup2\n        /* \"#utility.yul\":2049:2052   */\n      dup5\n        /* \"#utility.yul\":2045:2056   */\n      add\n        /* \"#utility.yul\":2038:2077   */\n      mstore\n        /* \"#utility.yul\":2010:2012   */\n      0x20\n        /* \"#utility.yul\":2007:2008   */\n      dup2\n        /* \"#utility.yul\":2003:2013   */\n      add\n        /* \"#utility.yul\":1998:2013   */\n      swap1\n      pop\n        /* \"#utility.yul\":1974:2087   */\n      jump(tag_249)\n    tag_251:\n        /* \"#utility.yul\":2121:2122   */\n      0x00\n        /* \"#utility.yul\":2112:2118   */\n      dup5\n        /* \"#utility.yul\":2107:2110   */\n      dup5\n        /* \"#utility.yul\":2103:2119   */\n      add\n        /* \"#utility.yul\":2096:2123   */\n      mstore\n        /* \"#utility.yul\":1945:2129   */\n      pop\n        /* \"#utility.yul\":1883:2129   */\n      pop\n      pop\n      pop\n      jump\t// out\n        /* \"#utility.yul\":2135:2237   */\n    tag_172:\n        /* \"#utility.yul\":2176:2182   */\n      0x00\n        /* \"#utility.yul\":2227:2229   */\n      0x1f\n        /* \"#utility.yul\":2223:2230   */\n      not\n        /* \"#utility.yul\":2218:2220   */\n      0x1f\n        /* \"#utility.yul\":2211:2216   */\n      dup4\n        /* \"#utility.yul\":2207:2221   */\n      add\n        /* \"#utility.yul\":2203:2231   */\n      and\n        /* \"#utility.yul\":2193:2231   */\n      swap1\n      pop\n        /* \"#utility.yul\":2135:2237   */\n      swap2\n      swap1\n      pop\n      jump\t// out\n        /* \"#utility.yul\":2243:2620   */\n    tag_173:\n        /* \"#utility.yul\":2331:2334   */\n      0x00\n        /* \"#utility.yul\":2359:2398   */\n      tag_254\n        /* \"#utility.yul\":2392:2397   */\n      dup3\n        /* \"#utility.yul\":2359:2398   */\n      tag_169\n      jump\t// in\n    tag_254:\n        /* \"#utility.yul\":2414:2485   */\n      tag_255\n        /* \"#utility.yul\":2478:2484   */\n      dup2\n        /* \"#utility.yul\":2473:2476   */\n      dup6\n        /* \"#utility.yul\":2414:2485   */\n      tag_170\n      jump\t// in\n    tag_255:\n        /* \"#utility.yul\":2407:2485   */\n      swap4\n      pop\n        /* \"#utility.yul\":2494:2559   */\n      tag_256\n        /* \"#utility.yul\":2552:2558   */\n      dup2\n        /* \"#utility.yul\":2547:2550   */\n      dup6\n        /* \"#utility.yul\":2540:2544   */\n      0x20\n        /* \"#utility.yul\":2533:2538   */\n      dup7\n        /* \"#utility.yul\":2529:2545   */\n      add\n        /* \"#utility.yul\":2494:2559   */\n      tag_171\n      jump\t// in\n    tag_256:\n        /* \"#utility.yul\":2584:2613   */\n      tag_257\n        /* \"#utility.yul\":2606:2612   */\n      dup2\n        /* \"#utility.yul\":2584:2613   */\n      tag_172\n      jump\t// in\n    tag_257:\n        /* \"#utility.yul\":2579:2582   */\n      dup5\n        /* \"#utility.yul\":2575:2614   */\n      add\n        /* \"#utility.yul\":2568:2614   */\n      swap2\n      pop\n        /* \"#utility.yul\":2335:2620   */\n      pop\n        /* \"#utility.yul\":2243:2620   */\n      swap3\n      swap2\n      pop\n      pop\n      jump\t// out\n        /* \"#utility.yul\":2626:2939   */\n    tag_28:\n        /* \"#utility.yul\":2739:2743   */\n      0x00\n        /* \"#utility.yul\":2777:2779   */\n      0x20\n        /* \"#utility.yul\":2766:2775   */\n      dup3\n        /* \"#utility.yul\":2762:2780   */\n      add\n        /* \"#utility.yul\":2754:2780   */\n      swap1\n      pop\n        /* \"#utility.yul\":2826:2835   */\n      dup2\n        /* \"#utility.yul\":2820:2824   */\n      dup2\n        /* \"#utility.yul\":2816:2836   */\n      sub\n        /* \"#utility.yul\":2812:2813   */\n      0x00\n        /* \"#utility.yul\":2801:2810   */\n      dup4\n        /* \"#utility.yul\":2797:2814   */\n      add\n        /* \"#utility.yul\":2790:2837   */\n      mstore\n        /* \"#utility.yul\":2854:2932   */\n      tag_259\n        /* \"#utility.yul\":2927:2931   */\n      dup2\n        /* \"#utility.yul\":2918:2924   */\n      dup5\n        /* \"#utility.yul\":2854:2932   */\n      tag_173\n      jump\t// in\n    tag_259:\n        /* \"#utility.yul\":2846:2932   */\n      swap1\n      pop\n        /* \"#utility.yul\":2626:2939   */\n      swap3\n      swap2\n      pop\n      pop\n      jump\t// out\n        /* \"#utility.yul\":2945:3022   */\n    tag_174:\n        /* \"#utility.yul\":2982:2989   */\n      0x00\n        /* \"#utility.yul\":3011:3016   */\n      dup2\n        /* \"#utility.yul\":3000:3016   */\n      swap1\n      pop\n        /* \"#utility.yul\":2945:3022   */\n      swap2\n      swap1\n      pop\n      jump\t// out\n        /* \"#utility.yul\":3028:3146   */\n    tag_175:\n        /* \"#utility.yul\":3115:3139   */\n      tag_262\n        /* \"#utility.yul\":3133:3138   */\n      dup2\n        /* \"#utility.yul\":3115:3139   */\n      tag_174\n      jump\t// in\n    tag_262:\n        /* \"#utility.yul\":3110:3113   */\n      dup3\n        /* \"#utility.yul\":3103:3140   */\n      mstore\n        /* \"#utility.yul\":3028:3146   */\n      pop\n      pop\n      jump\t// out\n        /* \"#utility.yul\":3152:3374   */\n    tag_33:\n        /* \"#utility.yul\":3245:3249   */\n      0x00\n        /* \"#utility.yul\":3283:3285   */\n      0x20\n        /* \"#utility.yul\":3272:3281   */\n      dup3\n        /* \"#utility.yul\":3268:3286   */\n      add\n        /* \"#utility.yul\":3260:3286   */\n      swap1\n      pop\n        /* \"#utility.yul\":3296:3367   */\n      tag_264\n        /* \"#utility.yul\":3364:3365   */\n      0x00\n        /* \"#utility.yul\":3353:3362   */\n      dup4\n        /* \"#utility.yul\":3349:3366   */\n      add\n        /* \"#utility.yul\":3340:3346   */\n      dup5\n        /* \"#utility.yul\":3296:3367   */\n      tag_175\n      jump\t// in\n    tag_264:\n        /* \"#utility.yul\":3152:3374   */\n      swap3\n      swap2\n      pop\n      pop\n      jump\t// out\n        /* \"#utility.yul\":3380:3518   */\n    tag_176:\n        /* \"#utility.yul\":3471:3477   */\n      0x00\n        /* \"#utility.yul\":3505:3510   */\n      dup2\n        /* \"#utility.yul\":3499:3511   */\n      mload\n        /* \"#utility.yul\":3489:3511   */\n      swap1\n      pop\n        /* \"#utility.yul\":3380:3518   */\n      swap2\n      swap1\n      pop\n      jump\t// out\n        /* \"#utility.yul\":3524:3732   */\n    tag_177:\n        /* \"#utility.yul\":3647:3658   */\n      0x00\n        /* \"#utility.yul\":3681:3687   */\n      dup3\n        /* \"#utility.yul\":3676:3679   */\n      dup3\n        /* \"#utility.yul\":3669:3688   */\n      mstore\n        /* \"#utility.yul\":3721:3725   */\n      0x20\n        /* \"#utility.yul\":3716:3719   */\n      dup3\n        /* \"#utility.yul\":3712:3726   */\n      add\n        /* \"#utility.yul\":3697:3726   */\n      swap1\n      pop\n        /* \"#utility.yul\":3524:3732   */\n      swap3\n      swap2\n      pop\n      pop\n      jump\t// out\n        /* \"#utility.yul\":3738:3894   */\n    tag_178:\n        /* \"#utility.yul\":3829:3833   */\n      0x00\n        /* \"#utility.yul\":3852:3855   */\n      dup2\n        /* \"#utility.yul\":3844:3855   */\n      swap1\n      pop\n        /* \"#utility.yul\":3882:3886   */\n      0x20\n        /* \"#utility.yul\":3877:3880   */\n      dup3\n        /* \"#utility.yul\":3873:3887   */\n      add\n        /* \"#utility.yul\":3865:3887   */\n      swap1\n      pop\n        /* \"#utility.yul\":3738:3894   */\n      swap2\n      swap1\n      pop\n      jump\t// out\n        /* \"#utility.yul\":3900:4059   */\n    tag_179:\n        /* \"#utility.yul\":3974:3985   */\n      0x00\n        /* \"#utility.yul\":4008:4014   */\n      dup3\n        /* \"#utility.yul\":4003:4006   */\n      dup3\n        /* \"#utility.yul\":3996:4015   */\n      mstore\n        /* \"#utility.yul\":4048:4052   */\n      0x20\n        /* \"#utility.yul\":4043:4046   */\n      dup3\n        /* \"#utility.yul\":4039:4053   */\n      add\n        /* \"#utility.yul\":4024:4053   */\n      swap1\n      pop\n        /* \"#utility.yul\":3900:4059   */\n      swap3\n      swap2\n      pop\n      pop\n      jump\t// out\n        /* \"#utility.yul\":4065:4422   */\n    tag_180:\n        /* \"#utility.yul\":4143:4146   */\n      0x00\n        /* \"#utility.yul\":4171:4210   */\n      tag_270\n        /* \"#utility.yul\":4204:4209   */\n      dup3\n        /* \"#utility.yul\":4171:4210   */\n      tag_169\n      jump\t// in\n    tag_270:\n        /* \"#utility.yul\":4226:4287   */\n      tag_271\n        /* \"#utility.yul\":4280:4286   */\n      dup2\n        /* \"#utility.yul\":4275:4278   */\n      dup6\n        /* \"#utility.yul\":4226:4287   */\n      tag_179\n      jump\t// in\n    tag_271:\n        /* \"#utility.yul\":4219:4287   */\n      swap4\n      pop\n        /* \"#utility.yul\":4296:4361   */\n      tag_272\n        /* \"#utility.yul\":4354:4360   */\n      dup2\n        /* \"#utility.yul\":4349:4352   */\n      dup6\n        /* \"#utility.yul\":4342:4346   */\n      0x20\n        /* \"#utility.yul\":4335:4340   */\n      dup7\n        /* \"#utility.yul\":4331:4347   */\n      add\n        /* \"#utility.yul\":4296:4361   */\n      tag_171\n      jump\t// in\n    tag_272:\n        /* \"#utility.yul\":4386:4415   */\n      tag_273\n        /* \"#utility.yul\":4408:4414   */\n      dup2\n        /* \"#utility.yul\":4386:4415   */\n      tag_172\n      jump\t// in\n    tag_273:\n        /* \"#utility.yul\":4381:4384   */\n      dup5\n        /* \"#utility.yul\":4377:4416   */\n      add\n        /* \"#utility.yul\":4370:4416   */\n      swap2\n      pop\n        /* \"#utility.yul\":4147:4422   */\n      pop\n        /* \"#utility.yul\":4065:4422   */\n      swap3\n      swap2\n      pop\n      pop\n      jump\t// out\n        /* \"#utility.yul\":4428:4536   */\n    tag_181:\n        /* \"#utility.yul\":4505:4529   */\n      tag_275\n        /* \"#utility.yul\":4523:4528   */\n      dup2\n        /* \"#utility.yul\":4505:4529   */\n      tag_166\n      jump\t// in\n    tag_275:\n        /* \"#utility.yul\":4500:4503   */\n      dup3\n        /* \"#utility.yul\":4493:4530   */\n      mstore\n        /* \"#utility.yul\":4428:4536   */\n      pop\n      pop\n      jump\t// out\n        /* \"#utility.yul\":4604:5450   */\n    tag_182:\n        /* \"#utility.yul\":4711:4714   */\n      0x00\n        /* \"#utility.yul\":4747:4751   */\n      0x60\n        /* \"#utility.yul\":4742:4745   */\n      dup4\n        /* \"#utility.yul\":4738:4752   */\n      add\n        /* \"#utility.yul\":4834:4838   */\n      0x00\n        /* \"#utility.yul\":4827:4832   */\n      dup4\n        /* \"#utility.yul\":4823:4839   */\n      add\n        /* \"#utility.yul\":4817:4840   */\n      mload\n        /* \"#utility.yul\":4887:4890   */\n      dup5\n        /* \"#utility.yul\":4881:4885   */\n      dup3\n        /* \"#utility.yul\":4877:4891   */\n      sub\n        /* \"#utility.yul\":4870:4874   */\n      0x00\n        /* \"#utility.yul\":4865:4868   */\n      dup7\n        /* \"#utility.yul\":4861:4875   */\n      add\n        /* \"#utility.yul\":4854:4892   */\n      mstore\n        /* \"#utility.yul\":4913:4986   */\n      tag_277\n        /* \"#utility.yul\":4981:4985   */\n      dup3\n        /* \"#utility.yul\":4967:4979   */\n      dup3\n        /* \"#utility.yul\":4913:4986   */\n      tag_180\n      jump\t// in\n    tag_277:\n        /* \"#utility.yul\":4905:4986   */\n      swap2\n      pop\n        /* \"#utility.yul\":4762:4997   */\n      pop\n        /* \"#utility.yul\":5086:5090   */\n      0x20\n        /* \"#utility.yul\":5079:5084   */\n      dup4\n        /* \"#utility.yul\":5075:5091   */\n      add\n        /* \"#utility.yul\":5069:5092   */\n      mload\n        /* \"#utility.yul\":5139:5142   */\n      dup5\n        /* \"#utility.yul\":5133:5137   */\n      dup3\n        /* \"#utility.yul\":5129:5143   */\n      sub\n        /* \"#utility.yul\":5122:5126   */\n      0x20\n        /* \"#utility.yul\":5117:5120   */\n      dup7\n        /* \"#utility.yul\":5113:5127   */\n      add\n        /* \"#utility.yul\":5106:5144   */\n      mstore\n        /* \"#utility.yul\":5165:5238   */\n      tag_278\n        /* \"#utility.yul\":5233:5237   */\n      dup3\n        /* \"#utility.yul\":5219:5231   */\n      dup3\n        /* \"#utility.yul\":5165:5238   */\n      tag_180\n      jump\t// in\n    tag_278:\n        /* \"#utility.yul\":5157:5238   */\n      swap2\n      pop\n        /* \"#utility.yul\":5007:5249   */\n      pop\n        /* \"#utility.yul\":5331:5335   */\n      0x40\n        /* \"#utility.yul\":5324:5329   */\n      dup4\n        /* \"#utility.yul\":5320:5336   */\n      add\n        /* \"#utility.yul\":5314:5337   */\n      mload\n        /* \"#utility.yul\":5350:5413   */\n      tag_279\n        /* \"#utility.yul\":5407:5411   */\n      0x40\n        /* \"#utility.yul\":5402:5405   */\n      dup7\n        /* \"#utility.yul\":5398:5412   */\n      add\n        /* \"#utility.yul\":5384:5396   */\n      dup3\n        /* \"#utility.yul\":5350:5413   */\n      tag_181\n      jump\t// in\n    tag_279:\n        /* \"#utility.yul\":5259:5423   */\n      pop\n        /* \"#utility.yul\":5440:5444   */\n      dup1\n        /* \"#utility.yul\":5433:5444   */\n      swap2\n      pop\n        /* \"#utility.yul\":4716:5450   */\n      pop\n        /* \"#utility.yul\":4604:5450   */\n      swap3\n      swap2\n      pop\n      pop\n      jump\t// out\n        /* \"#utility.yul\":5456:5708   */\n    tag_183:\n        /* \"#utility.yul\":5573:5583   */\n      0x00\n        /* \"#utility.yul\":5608:5702   */\n      tag_281\n        /* \"#utility.yul\":5698:5701   */\n      dup4\n        /* \"#utility.yul\":5690:5696   */\n      dup4\n        /* \"#utility.yul\":5608:5702   */\n      tag_182\n      jump\t// in\n    tag_281:\n        /* \"#utility.yul\":5594:5702   */\n      swap1\n      pop\n        /* \"#utility.yul\":5456:5708   */\n      swap3\n      swap2\n      pop\n      pop\n      jump\t// out\n        /* \"#utility.yul\":5714:5851   */\n    tag_184:\n        /* \"#utility.yul\":5808:5812   */\n      0x00\n        /* \"#utility.yul\":5840:5844   */\n      0x20\n        /* \"#utility.yul\":5835:5838   */\n      dup3\n        /* \"#utility.yul\":5831:5845   */\n      add\n        /* \"#utility.yul\":5823:5845   */\n      swap1\n      pop\n        /* \"#utility.yul\":5714:5851   */\n      swap2\n      swap1\n      pop\n      jump\t// out\n        /* \"#utility.yul\":5923:7026   */\n    tag_185:\n        /* \"#utility.yul\":6090:6093   */\n      0x00\n        /* \"#utility.yul\":6119:6197   */\n      tag_284\n        /* \"#utility.yul\":6191:6196   */\n      dup3\n        /* \"#utility.yul\":6119:6197   */\n      tag_176\n      jump\t// in\n    tag_284:\n        /* \"#utility.yul\":6213:6323   */\n      tag_285\n        /* \"#utility.yul\":6316:6322   */\n      dup2\n        /* \"#utility.yul\":6311:6314   */\n      dup6\n        /* \"#utility.yul\":6213:6323   */\n      tag_177\n      jump\t// in\n    tag_285:\n        /* \"#utility.yul\":6206:6323   */\n      swap4\n      pop\n        /* \"#utility.yul\":6349:6352   */\n      dup4\n        /* \"#utility.yul\":6394:6398   */\n      0x20\n        /* \"#utility.yul\":6386:6392   */\n      dup3\n        /* \"#utility.yul\":6382:6399   */\n      mul\n        /* \"#utility.yul\":6377:6380   */\n      dup6\n        /* \"#utility.yul\":6373:6400   */\n      add\n        /* \"#utility.yul\":6424:6504   */\n      tag_286\n        /* \"#utility.yul\":6498:6503   */\n      dup6\n        /* \"#utility.yul\":6424:6504   */\n      tag_178\n      jump\t// in\n    tag_286:\n        /* \"#utility.yul\":6527:6534   */\n      dup1\n        /* \"#utility.yul\":6558:6559   */\n      0x00\n        /* \"#utility.yul\":6543:6981   */\n    tag_287:\n        /* \"#utility.yul\":6568:6574   */\n      dup6\n        /* \"#utility.yul\":6565:6566   */\n      dup2\n        /* \"#utility.yul\":6562:6575   */\n      lt\n        /* \"#utility.yul\":6543:6981   */\n      iszero\n      tag_289\n      jumpi\n        /* \"#utility.yul\":6639:6648   */\n      dup5\n        /* \"#utility.yul\":6633:6637   */\n      dup5\n        /* \"#utility.yul\":6629:6649   */\n      sub\n        /* \"#utility.yul\":6624:6627   */\n      dup10\n        /* \"#utility.yul\":6617:6650   */\n      mstore\n        /* \"#utility.yul\":6690:6696   */\n      dup2\n        /* \"#utility.yul\":6684:6697   */\n      mload\n        /* \"#utility.yul\":6718:6830   */\n      tag_290\n        /* \"#utility.yul\":6825:6829   */\n      dup6\n        /* \"#utility.yul\":6810:6823   */\n      dup3\n        /* \"#utility.yul\":6718:6830   */\n      tag_183\n      jump\t// in\n    tag_290:\n        /* \"#utility.yul\":6710:6830   */\n      swap5\n      pop\n        /* \"#utility.yul\":6853:6937   */\n      tag_291\n        /* \"#utility.yul\":6930:6936   */\n      dup4\n        /* \"#utility.yul\":6853:6937   */\n      tag_184\n      jump\t// in\n    tag_291:\n        /* \"#utility.yul\":6843:6937   */\n      swap3\n      pop\n        /* \"#utility.yul\":6966:6970   */\n      0x20\n        /* \"#utility.yul\":6961:6964   */\n      dup11\n        /* \"#utility.yul\":6957:6971   */\n      add\n        /* \"#utility.yul\":6950:6971   */\n      swap10\n      pop\n        /* \"#utility.yul\":6603:6981   */\n      pop\n        /* \"#utility.yul\":6590:6591   */\n      0x01\n        /* \"#utility.yul\":6587:6588   */\n      dup2\n        /* \"#utility.yul\":6583:6592   */\n      add\n        /* \"#utility.yul\":6578:6592   */\n      swap1\n      pop\n        /* \"#utility.yul\":6543:6981   */\n      jump(tag_287)\n    tag_289:\n        /* \"#utility.yul\":6547:6561   */\n      pop\n        /* \"#utility.yul\":6997:7001   */\n      dup3\n        /* \"#utility.yul\":6990:7001   */\n      swap8\n      pop\n        /* \"#utility.yul\":7017:7020   */\n      dup8\n        /* \"#utility.yul\":7010:7020   */\n      swap6\n      pop\n        /* \"#utility.yul\":6095:7026   */\n      pop\n      pop\n      pop\n      pop\n      pop\n        /* \"#utility.yul\":5923:7026   */\n      swap3\n      swap2\n      pop\n      pop\n      jump\t// out\n        /* \"#utility.yul\":7032:7501   */\n    tag_41:\n        /* \"#utility.yul\":7223:7227   */\n      0x00\n        /* \"#utility.yul\":7261:7263   */\n      0x20\n        /* \"#utility.yul\":7250:7259   */\n      dup3\n        /* \"#utility.yul\":7246:7264   */\n      add\n        /* \"#utility.yul\":7238:7264   */\n      swap1\n      pop\n        /* \"#utility.yul\":7310:7319   */\n      dup2\n        /* \"#utility.yul\":7304:7308   */\n      dup2\n        /* \"#utility.yul\":7300:7320   */\n      sub\n        /* \"#utility.yul\":7296:7297   */\n      0x00\n        /* \"#utility.yul\":7285:7294   */\n      dup4\n        /* \"#utility.yul\":7281:7298   */\n      add\n        /* \"#utility.yul\":7274:7321   */\n      mstore\n        /* \"#utility.yul\":7338:7494   */\n      tag_293\n        /* \"#utility.yul\":7489:7493   */\n      dup2\n        /* \"#utility.yul\":7480:7486   */\n      dup5\n        /* \"#utility.yul\":7338:7494   */\n      tag_185\n      jump\t// in\n    tag_293:\n        /* \"#utility.yul\":7330:7494   */\n      swap1\n      pop\n        /* \"#utility.yul\":7032:7501   */\n      swap3\n      swap2\n      pop\n      pop\n      jump\t// out\n        /* \"#utility.yul\":7507:7624   */\n    tag_186:\n        /* \"#utility.yul\":7616:7617   */\n      0x00\n        /* \"#utility.yul\":7613:7614   */\n      dup1\n        /* \"#utility.yul\":7606:7618   */\n      revert\n        /* \"#utility.yul\":7630:7747   */\n    tag_187:\n        /* \"#utility.yul\":7739:7740   */\n      0x00\n        /* \"#utility.yul\":7736:7737   */\n      dup1\n        /* \"#utility.yul\":7729:7741   */\n      revert\n        /* \"#utility.yul\":7753:7933   */\n    tag_188:\n        /* \"#utility.yul\":7801:7878   */\n      0x4e487b7100000000000000000000000000000000000000000000000000000000\n        /* \"#utility.yul\":7798:7799   */\n      0x00\n        /* \"#utility.yul\":7791:7879   */\n      mstore\n        /* \"#utility.yul\":7898:7902   */\n      0x41\n        /* \"#utility.yul\":7895:7896   */\n      0x04\n        /* \"#utility.yul\":7888:7903   */\n      mstore\n        /* \"#utility.yul\":7922:7926   */\n      0x24\n        /* \"#utility.yul\":7919:7920   */\n      0x00\n        /* \"#utility.yul\":7912:7927   */\n      revert\n        /* \"#utility.yul\":7939:8220   */\n    tag_189:\n        /* \"#utility.yul\":8022:8049   */\n      tag_298\n        /* \"#utility.yul\":8044:8048   */\n      dup3\n        /* \"#utility.yul\":8022:8049   */\n      tag_172\n      jump\t// in\n    tag_298:\n        /* \"#utility.yul\":8014:8020   */\n      dup2\n        /* \"#utility.yul\":8010:8050   */\n      add\n        /* \"#utility.yul\":8152:8158   */\n      dup2\n        /* \"#utility.yul\":8140:8150   */\n      dup2\n        /* \"#utility.yul\":8137:8159   */\n      lt\n        /* \"#utility.yul\":8116:8134   */\n      0xffffffffffffffff\n        /* \"#utility.yul\":8104:8114   */\n      dup3\n        /* \"#utility.yul\":8101:8135   */\n      gt\n        /* \"#utility.yul\":8098:8160   */\n      or\n        /* \"#utility.yul\":8095:8183   */\n      iszero\n      tag_299\n      jumpi\n        /* \"#utility.yul\":8163:8181   */\n      tag_300\n      tag_188\n      jump\t// in\n    tag_300:\n        /* \"#utility.yul\":8095:8183   */\n    tag_299:\n        /* \"#utility.yul\":8203:8213   */\n      dup1\n        /* \"#utility.yul\":8199:8201   */\n      0x40\n        /* \"#utility.yul\":8192:8214   */\n      mstore\n        /* \"#utility.yul\":7982:8220   */\n      pop\n        /* \"#utility.yul\":7939:8220   */\n      pop\n      pop\n      jump\t// out\n        /* \"#utility.yul\":8226:8355   */\n    tag_190:\n        /* \"#utility.yul\":8260:8266   */\n      0x00\n        /* \"#utility.yul\":8287:8307   */\n      tag_302\n      tag_162\n      jump\t// in\n    tag_302:\n        /* \"#utility.yul\":8277:8307   */\n      swap1\n      pop\n        /* \"#utility.yul\":8316:8349   */\n      tag_303\n        /* \"#utility.yul\":8344:8348   */\n      dup3\n        /* \"#utility.yul\":8336:8342   */\n      dup3\n        /* \"#utility.yul\":8316:8349   */\n      tag_189\n      jump\t// in\n    tag_303:\n        /* \"#utility.yul\":8226:8355   */\n      swap2\n      swap1\n      pop\n      jump\t// out\n        /* \"#utility.yul\":8361:8669   */\n    tag_191:\n        /* \"#utility.yul\":8423:8427   */\n      0x00\n        /* \"#utility.yul\":8513:8531   */\n      0xffffffffffffffff\n        /* \"#utility.yul\":8505:8511   */\n      dup3\n        /* \"#utility.yul\":8502:8532   */\n      gt\n        /* \"#utility.yul\":8499:8555   */\n      iszero\n      tag_305\n      jumpi\n        /* \"#utility.yul\":8535:8553   */\n      tag_306\n      tag_188\n      jump\t// in\n    tag_306:\n        /* \"#utility.yul\":8499:8555   */\n    tag_305:\n        /* \"#utility.yul\":8573:8602   */\n      tag_307\n        /* \"#utility.yul\":8595:8601   */\n      dup3\n        /* \"#utility.yul\":8573:8602   */\n      tag_172\n      jump\t// in\n    tag_307:\n        /* \"#utility.yul\":8565:8602   */\n      swap1\n      pop\n        /* \"#utility.yul\":8657:8661   */\n      0x20\n        /* \"#utility.yul\":8651:8655   */\n      dup2\n        /* \"#utility.yul\":8647:8662   */\n      add\n        /* \"#utility.yul\":8639:8662   */\n      swap1\n      pop\n        /* \"#utility.yul\":8361:8669   */\n      swap2\n      swap1\n      pop\n      jump\t// out\n        /* \"#utility.yul\":8675:8821   */\n    tag_192:\n        /* \"#utility.yul\":8772:8778   */\n      dup3\n        /* \"#utility.yul\":8767:8770   */\n      dup2\n        /* \"#utility.yul\":8762:8765   */\n      dup4\n        /* \"#utility.yul\":8749:8779   */\n      calldatacopy\n        /* \"#utility.yul\":8813:8814   */\n      0x00\n        /* \"#utility.yul\":8804:8810   */\n      dup4\n        /* \"#utility.yul\":8799:8802   */\n      dup4\n        /* \"#utility.yul\":8795:8811   */\n      add\n        /* \"#utility.yul\":8788:8815   */\n      mstore\n        /* \"#utility.yul\":8675:8821   */\n      pop\n      pop\n      pop\n      jump\t// out\n        /* \"#utility.yul\":8827:9252   */\n    tag_193:\n        /* \"#utility.yul\":8905:8910   */\n      0x00\n        /* \"#utility.yul\":8930:8996   */\n      tag_310\n        /* \"#utility.yul\":8946:8995   */\n      tag_311\n        /* \"#utility.yul\":8988:8994   */\n      dup5\n        /* \"#utility.yul\":8946:8995   */\n      tag_191\n      jump\t// in\n    tag_311:\n        /* \"#utility.yul\":8930:8996   */\n      tag_190\n      jump\t// in\n    tag_310:\n        /* \"#utility.yul\":8921:8996   */\n      swap1\n      pop\n        /* \"#utility.yul\":9019:9025   */\n      dup3\n        /* \"#utility.yul\":9012:9017   */\n      dup2\n        /* \"#utility.yul\":9005:9026   */\n      mstore\n        /* \"#utility.yul\":9057:9061   */\n      0x20\n        /* \"#utility.yul\":9050:9055   */\n      dup2\n        /* \"#utility.yul\":9046:9062   */\n      add\n        /* \"#utility.yul\":9095:9098   */\n      dup5\n        /* \"#utility.yul\":9086:9092   */\n      dup5\n        /* \"#utility.yul\":9081:9084   */\n      dup5\n        /* \"#utility.yul\":9077:9093   */\n      add\n        /* \"#utility.yul\":9074:9099   */\n      gt\n        /* \"#utility.yul\":9071:9183   */\n      iszero\n      tag_312\n      jumpi\n        /* \"#utility.yul\":9102:9181   */\n      tag_313\n      tag_187\n      jump\t// in\n    tag_313:\n        /* \"#utility.yul\":9071:9183   */\n    tag_312:\n        /* \"#utility.yul\":9192:9246   */\n      tag_314\n        /* \"#utility.yul\":9239:9245   */\n      dup5\n        /* \"#utility.yul\":9234:9237   */\n      dup3\n        /* \"#utility.yul\":9229:9232   */\n      dup6\n        /* \"#utility.yul\":9192:9246   */\n      tag_192\n      jump\t// in\n    tag_314:\n        /* \"#utility.yul\":8911:9252   */\n      pop\n        /* \"#utility.yul\":8827:9252   */\n      swap4\n      swap3\n      pop\n      pop\n      pop\n      jump\t// out\n        /* \"#utility.yul\":9272:9612   */\n    tag_194:\n        /* \"#utility.yul\":9328:9333   */\n      0x00\n        /* \"#utility.yul\":9377:9380   */\n      dup3\n        /* \"#utility.yul\":9370:9374   */\n      0x1f\n        /* \"#utility.yul\":9362:9368   */\n      dup4\n        /* \"#utility.yul\":9358:9375   */\n      add\n        /* \"#utility.yul\":9354:9381   */\n      slt\n        /* \"#utility.yul\":9344:9466   */\n      tag_316\n      jumpi\n        /* \"#utility.yul\":9385:9464   */\n      tag_317\n      tag_186\n      jump\t// in\n    tag_317:\n        /* \"#utility.yul\":9344:9466   */\n    tag_316:\n        /* \"#utility.yul\":9502:9508   */\n      dup2\n        /* \"#utility.yul\":9489:9509   */\n      calldataload\n        /* \"#utility.yul\":9527:9606   */\n      tag_318\n        /* \"#utility.yul\":9602:9605   */\n      dup5\n        /* \"#utility.yul\":9594:9600   */\n      dup3\n        /* \"#utility.yul\":9587:9591   */\n      0x20\n        /* \"#utility.yul\":9579:9585   */\n      dup7\n        /* \"#utility.yul\":9575:9592   */\n      add\n        /* \"#utility.yul\":9527:9606   */\n      tag_193\n      jump\t// in\n    tag_318:\n        /* \"#utility.yul\":9518:9606   */\n      swap2\n      pop\n        /* \"#utility.yul\":9334:9612   */\n      pop\n        /* \"#utility.yul\":9272:9612   */\n      swap3\n      swap2\n      pop\n      pop\n      jump\t// out\n        /* \"#utility.yul\":9618:10597   */\n    tag_48:\n        /* \"#utility.yul\":9715:9721   */\n      0x00\n        /* \"#utility.yul\":9723:9729   */\n      dup1\n        /* \"#utility.yul\":9731:9737   */\n      0x00\n        /* \"#utility.yul\":9780:9782   */\n      0x60\n        /* \"#utility.yul\":9768:9777   */\n      dup5\n        /* \"#utility.yul\":9759:9766   */\n      dup7\n        /* \"#utility.yul\":9755:9778   */\n      sub\n        /* \"#utility.yul\":9751:9783   */\n      slt\n        /* \"#utility.yul\":9748:9867   */\n      iszero\n      tag_320\n      jumpi\n        /* \"#utility.yul\":9786:9865   */\n      tag_321\n      tag_163\n      jump\t// in\n    tag_321:\n        /* \"#utility.yul\":9748:9867   */\n    tag_320:\n        /* \"#utility.yul\":9934:9935   */\n      0x00\n        /* \"#utility.yul\":9923:9932   */\n      dup5\n        /* \"#utility.yul\":9919:9936   */\n      add\n        /* \"#utility.yul\":9906:9937   */\n      calldataload\n        /* \"#utility.yul\":9964:9982   */\n      0xffffffffffffffff\n        /* \"#utility.yul\":9956:9962   */\n      dup2\n        /* \"#utility.yul\":9953:9983   */\n      gt\n        /* \"#utility.yul\":9950:10067   */\n      iszero\n      tag_322\n      jumpi\n        /* \"#utility.yul\":9986:10065   */\n      tag_323\n      tag_164\n      jump\t// in\n    tag_323:\n        /* \"#utility.yul\":9950:10067   */\n    tag_322:\n        /* \"#utility.yul\":10091:10154   */\n      tag_324\n        /* \"#utility.yul\":10146:10153   */\n      dup7\n        /* \"#utility.yul\":10137:10143   */\n      dup3\n        /* \"#utility.yul\":10126:10135   */\n      dup8\n        /* \"#utility.yul\":10122:10144   */\n      add\n        /* \"#utility.yul\":10091:10154   */\n      tag_194\n      jump\t// in\n    tag_324:\n        /* \"#utility.yul\":10081:10154   */\n      swap4\n      pop\n        /* \"#utility.yul\":9877:10164   */\n      pop\n        /* \"#utility.yul\":10231:10233   */\n      0x20\n        /* \"#utility.yul\":10220:10229   */\n      dup5\n        /* \"#utility.yul\":10216:10234   */\n      add\n        /* \"#utility.yul\":10203:10235   */\n      calldataload\n        /* \"#utility.yul\":10262:10280   */\n      0xffffffffffffffff\n        /* \"#utility.yul\":10254:10260   */\n      dup2\n        /* \"#utility.yul\":10251:10281   */\n      gt\n        /* \"#utility.yul\":10248:10365   */\n      iszero\n      tag_325\n      jumpi\n        /* \"#utility.yul\":10284:10363   */\n      tag_326\n      tag_164\n      jump\t// in\n    tag_326:\n        /* \"#utility.yul\":10248:10365   */\n    tag_325:\n        /* \"#utility.yul\":10389:10452   */\n      tag_327\n        /* \"#utility.yul\":10444:10451   */\n      dup7\n        /* \"#utility.yul\":10435:10441   */\n      dup3\n        /* \"#utility.yul\":10424:10433   */\n      dup8\n        /* \"#utility.yul\":10420:10442   */\n      add\n        /* \"#utility.yul\":10389:10452   */\n      tag_194\n      jump\t// in\n    tag_327:\n        /* \"#utility.yul\":10379:10452   */\n      swap3\n      pop\n        /* \"#utility.yul\":10174:10462   */\n      pop\n        /* \"#utility.yul\":10501:10503   */\n      0x40\n        /* \"#utility.yul\":10527:10580   */\n      tag_328\n        /* \"#utility.yul\":10572:10579   */\n      dup7\n        /* \"#utility.yul\":10563:10569   */\n      dup3\n        /* \"#utility.yul\":10552:10561   */\n      dup8\n        /* \"#utility.yul\":10548:10570   */\n      add\n        /* \"#utility.yul\":10527:10580   */\n      tag_168\n      jump\t// in\n    tag_328:\n        /* \"#utility.yul\":10517:10580   */\n      swap2\n      pop\n        /* \"#utility.yul\":10472:10590   */\n      pop\n        /* \"#utility.yul\":9618:10597   */\n      swap3\n      pop\n      swap3\n      pop\n      swap3\n      jump\t// out\n        /* \"#utility.yul\":10603:10707   */\n    tag_195:\n        /* \"#utility.yul\":10648:10655   */\n      0x00\n        /* \"#utility.yul\":10677:10701   */\n      tag_330\n        /* \"#utility.yul\":10695:10700   */\n      dup3\n        /* \"#utility.yul\":10677:10701   */\n      tag_165\n      jump\t// in\n    tag_330:\n        /* \"#utility.yul\":10666:10701   */\n      swap1\n      pop\n        /* \"#utility.yul\":10603:10707   */\n      swap2\n      swap1\n      pop\n      jump\t// out\n        /* \"#utility.yul\":10713:10851   */\n    tag_196:\n        /* \"#utility.yul\":10794:10826   */\n      tag_332\n        /* \"#utility.yul\":10820:10825   */\n      dup2\n        /* \"#utility.yul\":10794:10826   */\n      tag_195\n      jump\t// in\n    tag_332:\n        /* \"#utility.yul\":10787:10792   */\n      dup2\n        /* \"#utility.yul\":10784:10827   */\n      eq\n        /* \"#utility.yul\":10774:10845   */\n      tag_333\n      jumpi\n        /* \"#utility.yul\":10841:10842   */\n      0x00\n        /* \"#utility.yul\":10838:10839   */\n      dup1\n        /* \"#utility.yul\":10831:10843   */\n      revert\n        /* \"#utility.yul\":10774:10845   */\n    tag_333:\n        /* \"#utility.yul\":10713:10851   */\n      pop\n      jump\t// out\n        /* \"#utility.yul\":10857:11012   */\n    tag_197:\n        /* \"#utility.yul\":10911:10916   */\n      0x00\n        /* \"#utility.yul\":10949:10955   */\n      dup2\n        /* \"#utility.yul\":10936:10956   */\n      calldataload\n        /* \"#utility.yul\":10927:10956   */\n      swap1\n      pop\n        /* \"#utility.yul\":10965:11006   */\n      tag_335\n        /* \"#utility.yul\":11000:11005   */\n      dup2\n        /* \"#utility.yul\":10965:11006   */\n      tag_196\n      jump\t// in\n    tag_335:\n        /* \"#utility.yul\":10857:11012   */\n      swap3\n      swap2\n      pop\n      pop\n      jump\t// out\n        /* \"#utility.yul\":11018:11140   */\n    tag_198:\n        /* \"#utility.yul\":11091:11115   */\n      tag_337\n        /* \"#utility.yul\":11109:11114   */\n      dup2\n        /* \"#utility.yul\":11091:11115   */\n      tag_174\n      jump\t// in\n    tag_337:\n        /* \"#utility.yul\":11084:11089   */\n      dup2\n        /* \"#utility.yul\":11081:11116   */\n      eq\n        /* \"#utility.yul\":11071:11134   */\n      tag_338\n      jumpi\n        /* \"#utility.yul\":11130:11131   */\n      0x00\n        /* \"#utility.yul\":11127:11128   */\n      dup1\n        /* \"#utility.yul\":11120:11132   */\n      revert\n        /* \"#utility.yul\":11071:11134   */\n    tag_338:\n        /* \"#utility.yul\":11018:11140   */\n      pop\n      jump\t// out\n        /* \"#utility.yul\":11146:11285   */\n    tag_199:\n        /* \"#utility.yul\":11192:11197   */\n      0x00\n        /* \"#utility.yul\":11230:11236   */\n      dup2\n        /* \"#utility.yul\":11217:11237   */\n      calldataload\n        /* \"#utility.yul\":11208:11237   */\n      swap1\n      pop\n        /* \"#utility.yul\":11246:11279   */\n      tag_340\n        /* \"#utility.yul\":11273:11278   */\n      dup2\n        /* \"#utility.yul\":11246:11279   */\n      tag_198\n      jump\t// in\n    tag_340:\n        /* \"#utility.yul\":11146:11285   */\n      swap3\n      swap2\n      pop\n      pop\n      jump\t// out\n        /* \"#utility.yul\":11291:11942   */\n    tag_63:\n        /* \"#utility.yul\":11384:11390   */\n      0x00\n        /* \"#utility.yul\":11392:11398   */\n      dup1\n        /* \"#utility.yul\":11400:11406   */\n      0x00\n        /* \"#utility.yul\":11449:11451   */\n      0x60\n        /* \"#utility.yul\":11437:11446   */\n      dup5\n        /* \"#utility.yul\":11428:11435   */\n      dup7\n        /* \"#utility.yul\":11424:11447   */\n      sub\n        /* \"#utility.yul\":11420:11452   */\n      slt\n        /* \"#utility.yul\":11417:11536   */\n      iszero\n      tag_342\n      jumpi\n        /* \"#utility.yul\":11455:11534   */\n      tag_343\n      tag_163\n      jump\t// in\n    tag_343:\n        /* \"#utility.yul\":11417:11536   */\n    tag_342:\n        /* \"#utility.yul\":11575:11576   */\n      0x00\n        /* \"#utility.yul\":11600:11661   */\n      tag_344\n        /* \"#utility.yul\":11653:11660   */\n      dup7\n        /* \"#utility.yul\":11644:11650   */\n      dup3\n        /* \"#utility.yul\":11633:11642   */\n      dup8\n        /* \"#utility.yul\":11629:11651   */\n      add\n        /* \"#utility.yul\":11600:11661   */\n      tag_197\n      jump\t// in\n    tag_344:\n        /* \"#utility.yul\":11590:11661   */\n      swap4\n      pop\n        /* \"#utility.yul\":11546:11671   */\n      pop\n        /* \"#utility.yul\":11710:11712   */\n      0x20\n        /* \"#utility.yul\":11736:11797   */\n      tag_345\n        /* \"#utility.yul\":11789:11796   */\n      dup7\n        /* \"#utility.yul\":11780:11786   */\n      dup3\n        /* \"#utility.yul\":11769:11778   */\n      dup8\n        /* \"#utility.yul\":11765:11787   */\n      add\n        /* \"#utility.yul\":11736:11797   */\n      tag_197\n      jump\t// in\n    tag_345:\n        /* \"#utility.yul\":11726:11797   */\n      swap3\n      pop\n        /* \"#utility.yul\":11681:11807   */\n      pop\n        /* \"#utility.yul\":11846:11848   */\n      0x40\n        /* \"#utility.yul\":11872:11925   */\n      tag_346\n        /* \"#utility.yul\":11917:11924   */\n      dup7\n        /* \"#utility.yul\":11908:11914   */\n      dup3\n        /* \"#utility.yul\":11897:11906   */\n      dup8\n        /* \"#utility.yul\":11893:11915   */\n      add\n        /* \"#utility.yul\":11872:11925   */\n      tag_199\n      jump\t// in\n    tag_346:\n        /* \"#utility.yul\":11862:11925   */\n      swap2\n      pop\n        /* \"#utility.yul\":11817:11935   */\n      pop\n        /* \"#utility.yul\":11291:11942   */\n      swap3\n      pop\n      swap3\n      pop\n      swap3\n      jump\t// out\n        /* \"#utility.yul\":11948:12066   */\n    tag_200:\n        /* \"#utility.yul\":12035:12059   */\n      tag_348\n        /* \"#utility.yul\":12053:12058   */\n      dup2\n        /* \"#utility.yul\":12035:12059   */\n      tag_166\n      jump\t// in\n    tag_348:\n        /* \"#utility.yul\":12030:12033   */\n      dup3\n        /* \"#utility.yul\":12023:12060   */\n      mstore\n        /* \"#utility.yul\":11948:12066   */\n      pop\n      pop\n      jump\t// out\n        /* \"#utility.yul\":12072:12294   */\n    tag_70:\n        /* \"#utility.yul\":12165:12169   */\n      0x00\n        /* \"#utility.yul\":12203:12205   */\n      0x20\n        /* \"#utility.yul\":12192:12201   */\n      dup3\n        /* \"#utility.yul\":12188:12206   */\n      add\n        /* \"#utility.yul\":12180:12206   */\n      swap1\n      pop\n        /* \"#utility.yul\":12216:12287   */\n      tag_350\n        /* \"#utility.yul\":12284:12285   */\n      0x00\n        /* \"#utility.yul\":12273:12282   */\n      dup4\n        /* \"#utility.yul\":12269:12286   */\n      add\n        /* \"#utility.yul\":12260:12266   */\n      dup5\n        /* \"#utility.yul\":12216:12287   */\n      tag_200\n      jump\t// in\n    tag_350:\n        /* \"#utility.yul\":12072:12294   */\n      swap3\n      swap2\n      pop\n      pop\n      jump\t// out\n        /* \"#utility.yul\":12300:12480   */\n    tag_82:\n        /* \"#utility.yul\":12348:12425   */\n      0x4e487b7100000000000000000000000000000000000000000000000000000000\n        /* \"#utility.yul\":12345:12346   */\n      0x00\n        /* \"#utility.yul\":12338:12426   */\n      mstore\n        /* \"#utility.yul\":12445:12449   */\n      0x32\n        /* \"#utility.yul\":12442:12443   */\n      0x04\n        /* \"#utility.yul\":12435:12450   */\n      mstore\n        /* \"#utility.yul\":12469:12473   */\n      0x24\n        /* \"#utility.yul\":12466:12467   */\n      0x00\n        /* \"#utility.yul\":12459:12474   */\n      revert\n        /* \"#utility.yul\":12486:12668   */\n    tag_201:\n        /* \"#utility.yul\":12626:12660   */\n      0x6f6e6c79206f776e65722063616e2075736520746869732066756e6374696f6e\n        /* \"#utility.yul\":12622:12623   */\n      0x00\n        /* \"#utility.yul\":12614:12620   */\n      dup3\n        /* \"#utility.yul\":12610:12624   */\n      add\n        /* \"#utility.yul\":12603:12661   */\n      mstore\n        /* \"#utility.yul\":12486:12668   */\n      pop\n      jump\t// out\n        /* \"#utility.yul\":12674:13040   */\n    tag_202:\n        /* \"#utility.yul\":12816:12819   */\n      0x00\n        /* \"#utility.yul\":12837:12904   */\n      tag_354\n        /* \"#utility.yul\":12901:12903   */\n      0x20\n        /* \"#utility.yul\":12896:12899   */\n      dup4\n        /* \"#utility.yul\":12837:12904   */\n      tag_170\n      jump\t// in\n    tag_354:\n        /* \"#utility.yul\":12830:12904   */\n      swap2\n      pop\n        /* \"#utility.yul\":12913:13006   */\n      tag_355\n        /* \"#utility.yul\":13002:13005   */\n      dup3\n        /* \"#utility.yul\":12913:13006   */\n      tag_201\n      jump\t// in\n    tag_355:\n        /* \"#utility.yul\":13031:13033   */\n      0x20\n        /* \"#utility.yul\":13026:13029   */\n      dup3\n        /* \"#utility.yul\":13022:13034   */\n      add\n        /* \"#utility.yul\":13015:13034   */\n      swap1\n      pop\n        /* \"#utility.yul\":12674:13040   */\n      swap2\n      swap1\n      pop\n      jump\t// out\n        /* \"#utility.yul\":13046:13465   */\n    tag_88:\n        /* \"#utility.yul\":13212:13216   */\n      0x00\n        /* \"#utility.yul\":13250:13252   */\n      0x20\n        /* \"#utility.yul\":13239:13248   */\n      dup3\n        /* \"#utility.yul\":13235:13253   */\n      add\n        /* \"#utility.yul\":13227:13253   */\n      swap1\n      pop\n        /* \"#utility.yul\":13299:13308   */\n      dup2\n        /* \"#utility.yul\":13293:13297   */\n      dup2\n        /* \"#utility.yul\":13289:13309   */\n      sub\n        /* \"#utility.yul\":13285:13286   */\n      0x00\n        /* \"#utility.yul\":13274:13283   */\n      dup4\n        /* \"#utility.yul\":13270:13287   */\n      add\n        /* \"#utility.yul\":13263:13310   */\n      mstore\n        /* \"#utility.yul\":13327:13458   */\n      tag_357\n        /* \"#utility.yul\":13453:13457   */\n      dup2\n        /* \"#utility.yul\":13327:13458   */\n      tag_202\n      jump\t// in\n    tag_357:\n        /* \"#utility.yul\":13319:13458   */\n      swap1\n      pop\n        /* \"#utility.yul\":13046:13465   */\n      swap2\n      swap1\n      pop\n      jump\t// out\n        /* \"#utility.yul\":13471:13651   */\n    tag_96:\n        /* \"#utility.yul\":13519:13596   */\n      0x4e487b7100000000000000000000000000000000000000000000000000000000\n        /* \"#utility.yul\":13516:13517   */\n      0x00\n        /* \"#utility.yul\":13509:13597   */\n      mstore\n        /* \"#utility.yul\":13616:13620   */\n      0x21\n        /* \"#utility.yul\":13613:13614   */\n      0x04\n        /* \"#utility.yul\":13606:13621   */\n      mstore\n        /* \"#utility.yul\":13640:13644   */\n      0x24\n        /* \"#utility.yul\":13637:13638   */\n      0x00\n        /* \"#utility.yul\":13630:13645   */\n      revert\n        /* \"#utility.yul\":13657:13989   */\n    tag_98:\n        /* \"#utility.yul\":13778:13782   */\n      0x00\n        /* \"#utility.yul\":13816:13818   */\n      0x40\n        /* \"#utility.yul\":13805:13814   */\n      dup3\n        /* \"#utility.yul\":13801:13819   */\n      add\n        /* \"#utility.yul\":13793:13819   */\n      swap1\n      pop\n        /* \"#utility.yul\":13829:13900   */\n      tag_360\n        /* \"#utility.yul\":13897:13898   */\n      0x00\n        /* \"#utility.yul\":13886:13895   */\n      dup4\n        /* \"#utility.yul\":13882:13899   */\n      add\n        /* \"#utility.yul\":13873:13879   */\n      dup6\n        /* \"#utility.yul\":13829:13900   */\n      tag_200\n      jump\t// in\n    tag_360:\n        /* \"#utility.yul\":13910:13982   */\n      tag_361\n        /* \"#utility.yul\":13978:13980   */\n      0x20\n        /* \"#utility.yul\":13967:13976   */\n      dup4\n        /* \"#utility.yul\":13963:13981   */\n      add\n        /* \"#utility.yul\":13954:13960   */\n      dup5\n        /* \"#utility.yul\":13910:13982   */\n      tag_175\n      jump\t// in\n    tag_361:\n        /* \"#utility.yul\":13657:13989   */\n      swap4\n      swap3\n      pop\n      pop\n      pop\n      jump\t// out\n        /* \"#utility.yul\":13995:14219   */\n    tag_203:\n        /* \"#utility.yul\":14135:14169   */\n      0x66756e647320617265206e6f742073756666696369656e7420666f7220636c61\n        /* \"#utility.yul\":14131:14132   */\n      0x00\n        /* \"#utility.yul\":14123:14129   */\n      dup3\n        /* \"#utility.yul\":14119:14133   */\n      add\n        /* \"#utility.yul\":14112:14170   */\n      mstore\n        /* \"#utility.yul\":14204:14211   */\n      0x696d696e67000000000000000000000000000000000000000000000000000000\n        /* \"#utility.yul\":14199:14201   */\n      0x20\n        /* \"#utility.yul\":14191:14197   */\n      dup3\n        /* \"#utility.yul\":14187:14202   */\n      add\n        /* \"#utility.yul\":14180:14212   */\n      mstore\n        /* \"#utility.yul\":13995:14219   */\n      pop\n      jump\t// out\n        /* \"#utility.yul\":14225:14591   */\n    tag_204:\n        /* \"#utility.yul\":14367:14370   */\n      0x00\n        /* \"#utility.yul\":14388:14455   */\n      tag_364\n        /* \"#utility.yul\":14452:14454   */\n      0x25\n        /* \"#utility.yul\":14447:14450   */\n      dup4\n        /* \"#utility.yul\":14388:14455   */\n      tag_170\n      jump\t// in\n    tag_364:\n        /* \"#utility.yul\":14381:14455   */\n      swap2\n      pop\n        /* \"#utility.yul\":14464:14557   */\n      tag_365\n        /* \"#utility.yul\":14553:14556   */\n      dup3\n        /* \"#utility.yul\":14464:14557   */\n      tag_203\n      jump\t// in\n    tag_365:\n        /* \"#utility.yul\":14582:14584   */\n      0x40\n        /* \"#utility.yul\":14577:14580   */\n      dup3\n        /* \"#utility.yul\":14573:14585   */\n      add\n        /* \"#utility.yul\":14566:14585   */\n      swap1\n      pop\n        /* \"#utility.yul\":14225:14591   */\n      swap2\n      swap1\n      pop\n      jump\t// out\n        /* \"#utility.yul\":14597:15016   */\n    tag_102:\n        /* \"#utility.yul\":14763:14767   */\n      0x00\n        /* \"#utility.yul\":14801:14803   */\n      0x20\n        /* \"#utility.yul\":14790:14799   */\n      dup3\n        /* \"#utility.yul\":14786:14804   */\n      add\n        /* \"#utility.yul\":14778:14804   */\n      swap1\n      pop\n        /* \"#utility.yul\":14850:14859   */\n      dup2\n        /* \"#utility.yul\":14844:14848   */\n      dup2\n        /* \"#utility.yul\":14840:14860   */\n      sub\n        /* \"#utility.yul\":14836:14837   */\n      0x00\n        /* \"#utility.yul\":14825:14834   */\n      dup4\n        /* \"#utility.yul\":14821:14838   */\n      add\n        /* \"#utility.yul\":14814:14861   */\n      mstore\n        /* \"#utility.yul\":14878:15009   */\n      tag_367\n        /* \"#utility.yul\":15004:15008   */\n      dup2\n        /* \"#utility.yul\":14878:15009   */\n      tag_204\n      jump\t// in\n    tag_367:\n        /* \"#utility.yul\":14870:15009   */\n      swap1\n      pop\n        /* \"#utility.yul\":14597:15016   */\n      swap2\n      swap1\n      pop\n      jump\t// out\n        /* \"#utility.yul\":15022:15191   */\n    tag_205:\n        /* \"#utility.yul\":15162:15183   */\n      0x7374617465206973206e6f742061637469766500000000000000000000000000\n        /* \"#utility.yul\":15158:15159   */\n      0x00\n        /* \"#utility.yul\":15150:15156   */\n      dup3\n        /* \"#utility.yul\":15146:15160   */\n      add\n        /* \"#utility.yul\":15139:15184   */\n      mstore\n        /* \"#utility.yul\":15022:15191   */\n      pop\n      jump\t// out\n        /* \"#utility.yul\":15197:15563   */\n    tag_206:\n        /* \"#utility.yul\":15339:15342   */\n      0x00\n        /* \"#utility.yul\":15360:15427   */\n      tag_370\n        /* \"#utility.yul\":15424:15426   */\n      0x13\n        /* \"#utility.yul\":15419:15422   */\n      dup4\n        /* \"#utility.yul\":15360:15427   */\n      tag_170\n      jump\t// in\n    tag_370:\n        /* \"#utility.yul\":15353:15427   */\n      swap2\n      pop\n        /* \"#utility.yul\":15436:15529   */\n      tag_371\n        /* \"#utility.yul\":15525:15528   */\n      dup3\n        /* \"#utility.yul\":15436:15529   */\n      tag_205\n      jump\t// in\n    tag_371:\n        /* \"#utility.yul\":15554:15556   */\n      0x20\n        /* \"#utility.yul\":15549:15552   */\n      dup3\n        /* \"#utility.yul\":15545:15557   */\n      add\n        /* \"#utility.yul\":15538:15557   */\n      swap1\n      pop\n        /* \"#utility.yul\":15197:15563   */\n      swap2\n      swap1\n      pop\n      jump\t// out\n        /* \"#utility.yul\":15569:15988   */\n    tag_107:\n        /* \"#utility.yul\":15735:15739   */\n      0x00\n        /* \"#utility.yul\":15773:15775   */\n      0x20\n        /* \"#utility.yul\":15762:15771   */\n      dup3\n        /* \"#utility.yul\":15758:15776   */\n      add\n        /* \"#utility.yul\":15750:15776   */\n      swap1\n      pop\n        /* \"#utility.yul\":15822:15831   */\n      dup2\n        /* \"#utility.yul\":15816:15820   */\n      dup2\n        /* \"#utility.yul\":15812:15832   */\n      sub\n        /* \"#utility.yul\":15808:15809   */\n      0x00\n        /* \"#utility.yul\":15797:15806   */\n      dup4\n        /* \"#utility.yul\":15793:15810   */\n      add\n        /* \"#utility.yul\":15786:15833   */\n      mstore\n        /* \"#utility.yul\":15850:15981   */\n      tag_373\n        /* \"#utility.yul\":15976:15980   */\n      dup2\n        /* \"#utility.yul\":15850:15981   */\n      tag_206\n      jump\t// in\n    tag_373:\n        /* \"#utility.yul\":15842:15981   */\n      swap1\n      pop\n        /* \"#utility.yul\":15569:15988   */\n      swap2\n      swap1\n      pop\n      jump\t// out\n        /* \"#utility.yul\":15994:16618   */\n    tag_114:\n        /* \"#utility.yul\":16183:16187   */\n      0x00\n        /* \"#utility.yul\":16221:16223   */\n      0x60\n        /* \"#utility.yul\":16210:16219   */\n      dup3\n        /* \"#utility.yul\":16206:16224   */\n      add\n        /* \"#utility.yul\":16198:16224   */\n      swap1\n      pop\n        /* \"#utility.yul\":16234:16305   */\n      tag_375\n        /* \"#utility.yul\":16302:16303   */\n      0x00\n        /* \"#utility.yul\":16291:16300   */\n      dup4\n        /* \"#utility.yul\":16287:16304   */\n      add\n        /* \"#utility.yul\":16278:16284   */\n      dup7\n        /* \"#utility.yul\":16234:16305   */\n      tag_200\n      jump\t// in\n    tag_375:\n        /* \"#utility.yul\":16352:16361   */\n      dup2\n        /* \"#utility.yul\":16346:16350   */\n      dup2\n        /* \"#utility.yul\":16342:16362   */\n      sub\n        /* \"#utility.yul\":16337:16339   */\n      0x20\n        /* \"#utility.yul\":16326:16335   */\n      dup4\n        /* \"#utility.yul\":16322:16340   */\n      add\n        /* \"#utility.yul\":16315:16363   */\n      mstore\n        /* \"#utility.yul\":16380:16458   */\n      tag_376\n        /* \"#utility.yul\":16453:16457   */\n      dup2\n        /* \"#utility.yul\":16444:16450   */\n      dup6\n        /* \"#utility.yul\":16380:16458   */\n      tag_173\n      jump\t// in\n    tag_376:\n        /* \"#utility.yul\":16372:16458   */\n      swap1\n      pop\n        /* \"#utility.yul\":16505:16514   */\n      dup2\n        /* \"#utility.yul\":16499:16503   */\n      dup2\n        /* \"#utility.yul\":16495:16515   */\n      sub\n        /* \"#utility.yul\":16490:16492   */\n      0x40\n        /* \"#utility.yul\":16479:16488   */\n      dup4\n        /* \"#utility.yul\":16475:16493   */\n      add\n        /* \"#utility.yul\":16468:16516   */\n      mstore\n        /* \"#utility.yul\":16533:16611   */\n      tag_377\n        /* \"#utility.yul\":16606:16610   */\n      dup2\n        /* \"#utility.yul\":16597:16603   */\n      dup5\n        /* \"#utility.yul\":16533:16611   */\n      tag_173\n      jump\t// in\n    tag_377:\n        /* \"#utility.yul\":16525:16611   */\n      swap1\n      pop\n        /* \"#utility.yul\":15994:16618   */\n      swap5\n      swap4\n      pop\n      pop\n      pop\n      pop\n      jump\t// out\n        /* \"#utility.yul\":16624:16848   */\n    tag_207:\n        /* \"#utility.yul\":16764:16798   */\n      0x74696d6520656e64206e6f7420636f6e747269627574696f6e2061726520616c\n        /* \"#utility.yul\":16760:16761   */\n      0x00\n        /* \"#utility.yul\":16752:16758   */\n      dup3\n        /* \"#utility.yul\":16748:16762   */\n      add\n        /* \"#utility.yul\":16741:16799   */\n      mstore\n        /* \"#utility.yul\":16833:16840   */\n      0x6c6f776564000000000000000000000000000000000000000000000000000000\n        /* \"#utility.yul\":16828:16830   */\n      0x20\n        /* \"#utility.yul\":16820:16826   */\n      dup3\n        /* \"#utility.yul\":16816:16831   */\n      add\n        /* \"#utility.yul\":16809:16841   */\n      mstore\n        /* \"#utility.yul\":16624:16848   */\n      pop\n      jump\t// out\n        /* \"#utility.yul\":16854:17220   */\n    tag_208:\n        /* \"#utility.yul\":16996:16999   */\n      0x00\n        /* \"#utility.yul\":17017:17084   */\n      tag_380\n        /* \"#utility.yul\":17081:17083   */\n      0x25\n        /* \"#utility.yul\":17076:17079   */\n      dup4\n        /* \"#utility.yul\":17017:17084   */\n      tag_170\n      jump\t// in\n    tag_380:\n        /* \"#utility.yul\":17010:17084   */\n      swap2\n      pop\n        /* \"#utility.yul\":17093:17186   */\n      tag_381\n        /* \"#utility.yul\":17182:17185   */\n      dup3\n        /* \"#utility.yul\":17093:17186   */\n      tag_207\n      jump\t// in\n    tag_381:\n        /* \"#utility.yul\":17211:17213   */\n      0x40\n        /* \"#utility.yul\":17206:17209   */\n      dup3\n        /* \"#utility.yul\":17202:17214   */\n      add\n        /* \"#utility.yul\":17195:17214   */\n      swap1\n      pop\n        /* \"#utility.yul\":16854:17220   */\n      swap2\n      swap1\n      pop\n      jump\t// out\n        /* \"#utility.yul\":17226:17645   */\n    tag_132:\n        /* \"#utility.yul\":17392:17396   */\n      0x00\n        /* \"#utility.yul\":17430:17432   */\n      0x20\n        /* \"#utility.yul\":17419:17428   */\n      dup3\n        /* \"#utility.yul\":17415:17433   */\n      add\n        /* \"#utility.yul\":17407:17433   */\n      swap1\n      pop\n        /* \"#utility.yul\":17479:17488   */\n      dup2\n        /* \"#utility.yul\":17473:17477   */\n      dup2\n        /* \"#utility.yul\":17469:17489   */\n      sub\n        /* \"#utility.yul\":17465:17466   */\n      0x00\n        /* \"#utility.yul\":17454:17463   */\n      dup4\n        /* \"#utility.yul\":17450:17467   */\n      add\n        /* \"#utility.yul\":17443:17490   */\n      mstore\n        /* \"#utility.yul\":17507:17638   */\n      tag_383\n        /* \"#utility.yul\":17633:17637   */\n      dup2\n        /* \"#utility.yul\":17507:17638   */\n      tag_208\n      jump\t// in\n    tag_383:\n        /* \"#utility.yul\":17499:17638   */\n      swap1\n      pop\n        /* \"#utility.yul\":17226:17645   */\n      swap2\n      swap1\n      pop\n      jump\t// out\n        /* \"#utility.yul\":17651:17831   */\n    tag_209:\n        /* \"#utility.yul\":17699:17776   */\n      0x4e487b7100000000000000000000000000000000000000000000000000000000\n        /* \"#utility.yul\":17696:17697   */\n      0x00\n        /* \"#utility.yul\":17689:17777   */\n      mstore\n        /* \"#utility.yul\":17796:17800   */\n      0x22\n        /* \"#utility.yul\":17793:17794   */\n      0x04\n        /* \"#utility.yul\":17786:17801   */\n      mstore\n        /* \"#utility.yul\":17820:17824   */\n      0x24\n        /* \"#utility.yul\":17817:17818   */\n      0x00\n        /* \"#utility.yul\":17810:17825   */\n      revert\n        /* \"#utility.yul\":17837:18157   */\n    tag_145:\n        /* \"#utility.yul\":17881:17887   */\n      0x00\n        /* \"#utility.yul\":17918:17919   */\n      0x02\n        /* \"#utility.yul\":17912:17916   */\n      dup3\n        /* \"#utility.yul\":17908:17920   */\n      div\n        /* \"#utility.yul\":17898:17920   */\n      swap1\n      pop\n        /* \"#utility.yul\":17965:17966   */\n      0x01\n        /* \"#utility.yul\":17959:17963   */\n      dup3\n        /* \"#utility.yul\":17955:17967   */\n      and\n        /* \"#utility.yul\":17986:18004   */\n      dup1\n        /* \"#utility.yul\":17976:18057   */\n      tag_386\n      jumpi\n        /* \"#utility.yul\":18042:18046   */\n      0x7f\n        /* \"#utility.yul\":18034:18040   */\n      dup3\n        /* \"#utility.yul\":18030:18047   */\n      and\n        /* \"#utility.yul\":18020:18047   */\n      swap2\n      pop\n        /* \"#utility.yul\":17976:18057   */\n    tag_386:\n        /* \"#utility.yul\":18104:18106   */\n      0x20\n        /* \"#utility.yul\":18096:18102   */\n      dup3\n        /* \"#utility.yul\":18093:18107   */\n      lt\n        /* \"#utility.yul\":18073:18091   */\n      dup2\n        /* \"#utility.yul\":18070:18108   */\n      sub\n        /* \"#utility.yul\":18067:18151   */\n      tag_387\n      jumpi\n        /* \"#utility.yul\":18123:18141   */\n      tag_388\n      tag_209\n      jump\t// in\n    tag_388:\n        /* \"#utility.yul\":18067:18151   */\n    tag_387:\n        /* \"#utility.yul\":17888:18157   */\n      pop\n        /* \"#utility.yul\":17837:18157   */\n      swap2\n      swap1\n      pop\n      jump\t// out\n        /* \"#utility.yul\":18163:18304   */\n    tag_210:\n        /* \"#utility.yul\":18212:18216   */\n      0x00\n        /* \"#utility.yul\":18235:18238   */\n      dup2\n        /* \"#utility.yul\":18227:18238   */\n      swap1\n      pop\n        /* \"#utility.yul\":18258:18261   */\n      dup2\n        /* \"#utility.yul\":18255:18256   */\n      0x00\n        /* \"#utility.yul\":18248:18262   */\n      mstore\n        /* \"#utility.yul\":18292:18296   */\n      0x20\n        /* \"#utility.yul\":18289:18290   */\n      0x00\n        /* \"#utility.yul\":18279:18297   */\n      keccak256\n        /* \"#utility.yul\":18271:18297   */\n      swap1\n      pop\n        /* \"#utility.yul\":18163:18304   */\n      swap2\n      swap1\n      pop\n      jump\t// out\n        /* \"#utility.yul\":18310:18403   */\n    tag_211:\n        /* \"#utility.yul\":18347:18353   */\n      0x00\n        /* \"#utility.yul\":18394:18396   */\n      0x20\n        /* \"#utility.yul\":18389:18391   */\n      0x1f\n        /* \"#utility.yul\":18382:18387   */\n      dup4\n        /* \"#utility.yul\":18378:18392   */\n      add\n        /* \"#utility.yul\":18374:18397   */\n      div\n        /* \"#utility.yul\":18364:18397   */\n      swap1\n      pop\n        /* \"#utility.yul\":18310:18403   */\n      swap2\n      swap1\n      pop\n      jump\t// out\n        /* \"#utility.yul\":18409:18516   */\n    tag_212:\n        /* \"#utility.yul\":18453:18461   */\n      0x00\n        /* \"#utility.yul\":18503:18508   */\n      dup3\n        /* \"#utility.yul\":18497:18501   */\n      dup3\n        /* \"#utility.yul\":18493:18509   */\n      shl\n        /* \"#utility.yul\":18472:18509   */\n      swap1\n      pop\n        /* \"#utility.yul\":18409:18516   */\n      swap3\n      swap2\n      pop\n      pop\n      jump\t// out\n        /* \"#utility.yul\":18522:18915   */\n    tag_213:\n        /* \"#utility.yul\":18591:18597   */\n      0x00\n        /* \"#utility.yul\":18641:18642   */\n      0x08\n        /* \"#utility.yul\":18629:18639   */\n      dup4\n        /* \"#utility.yul\":18625:18643   */\n      mul\n        /* \"#utility.yul\":18664:18761   */\n      tag_393\n        /* \"#utility.yul\":18694:18760   */\n      0xffffffffffffffffffffffffffffffffffffffffffffffffffffffffffffffff\n        /* \"#utility.yul\":18683:18692   */\n      dup3\n        /* \"#utility.yul\":18664:18761   */\n      tag_212\n      jump\t// in\n    tag_393:\n        /* \"#utility.yul\":18782:18821   */\n      tag_394\n        /* \"#utility.yul\":18812:18820   */\n      dup7\n        /* \"#utility.yul\":18801:18810   */\n      dup4\n        /* \"#utility.yul\":18782:18821   */\n      tag_212\n      jump\t// in\n    tag_394:\n        /* \"#utility.yul\":18770:18821   */\n      swap6\n      pop\n        /* \"#utility.yul\":18854:18858   */\n      dup1\n        /* \"#utility.yul\":18850:18859   */\n      not\n        /* \"#utility.yul\":18843:18848   */\n      dup5\n        /* \"#utility.yul\":18839:18860   */\n      and\n        /* \"#utility.yul\":18830:18860   */\n      swap4\n      pop\n        /* \"#utility.yul\":18903:18907   */\n      dup1\n        /* \"#utility.yul\":18893:18901   */\n      dup7\n        /* \"#utility.yul\":18889:18908   */\n      and\n        /* \"#utility.yul\":18882:18887   */\n      dup5\n        /* \"#utility.yul\":18879:18909   */\n      or\n        /* \"#utility.yul\":18869:18909   */\n      swap3\n      pop\n        /* \"#utility.yul\":18598:18915   */\n      pop\n      pop\n        /* \"#utility.yul\":18522:18915   */\n      swap4\n      swap3\n      pop\n      pop\n      pop\n      jump\t// out\n        /* \"#utility.yul\":18921:18981   */\n    tag_214:\n        /* \"#utility.yul\":18949:18952   */\n      0x00\n        /* \"#utility.yul\":18970:18975   */\n      dup2\n        /* \"#utility.yul\":18963:18975   */\n      swap1\n      pop\n        /* \"#utility.yul\":18921:18981   */\n      swap2\n      swap1\n      pop\n      jump\t// out\n        /* \"#utility.yul\":18987:19129   */\n    tag_215:\n        /* \"#utility.yul\":19037:19046   */\n      0x00\n        /* \"#utility.yul\":19070:19123   */\n      tag_397\n        /* \"#utility.yul\":19088:19122   */\n      tag_398\n        /* \"#utility.yul\":19097:19121   */\n      tag_399\n        /* \"#utility.yul\":19115:19120   */\n      dup5\n        /* \"#utility.yul\":19097:19121   */\n      tag_174\n      jump\t// in\n    tag_399:\n        /* \"#utility.yul\":19088:19122   */\n      tag_214\n      jump\t// in\n    tag_398:\n        /* \"#utility.yul\":19070:19123   */\n      tag_174\n      jump\t// in\n    tag_397:\n        /* \"#utility.yul\":19057:19123   */\n      swap1\n      pop\n        /* \"#utility.yul\":18987:19129   */\n      swap2\n      swap1\n      pop\n      jump\t// out\n        /* \"#utility.yul\":19135:19210   */\n    tag_216:\n        /* \"#utility.yul\":19178:19181   */\n      0x00\n        /* \"#utility.yul\":19199:19204   */\n      dup2\n        /* \"#utility.yul\":19192:19204   */\n      swap1\n      pop\n        /* \"#utility.yul\":19135:19210   */\n      swap2\n      swap1\n      pop\n      jump\t// out\n        /* \"#utility.yul\":19216:19485   */\n    tag_217:\n        /* \"#utility.yul\":19326:19365   */\n      tag_402\n        /* \"#utility.yul\":19357:19364   */\n      dup4\n        /* \"#utility.yul\":19326:19365   */\n      tag_215\n      jump\t// in\n    tag_402:\n        /* \"#utility.yul\":19387:19478   */\n      tag_403\n        /* \"#utility.yul\":19436:19477   */\n      tag_404\n        /* \"#utility.yul\":19460:19476   */\n      dup3\n        /* \"#utility.yul\":19436:19477   */\n      tag_216\n      jump\t// in\n    tag_404:\n        /* \"#utility.yul\":19428:19434   */\n      dup5\n        /* \"#utility.yul\":19421:19425   */\n      dup5\n        /* \"#utility.yul\":19415:19426   */\n      sload\n        /* \"#utility.yul\":19387:19478   */\n      tag_213\n      jump\t// in\n    tag_403:\n        /* \"#utility.yul\":19381:19385   */\n      dup3\n        /* \"#utility.yul\":19374:19479   */\n      sstore\n        /* \"#utility.yul\":19292:19485   */\n      pop\n        /* \"#utility.yul\":19216:19485   */\n      pop\n      pop\n      pop\n      jump\t// out\n        /* \"#utility.yul\":19491:19564   */\n    tag_218:\n        /* \"#utility.yul\":19536:19539   */\n      0x00\n        /* \"#utility.yul\":19491:19564   */\n      swap1\n      jump\t// out\n        /* \"#utility.yul\":19570:19759   */\n    tag_219:\n        /* \"#utility.yul\":19647:19679   */\n      tag_407\n      tag_218\n      jump\t// in\n    tag_407:\n        /* \"#utility.yul\":19688:19753   */\n      tag_408\n        /* \"#utility.yul\":19746:19752   */\n      dup2\n        /* \"#utility.yul\":19738:19744   */\n      dup5\n        /* \"#utility.yul\":19732:19736   */\n      dup5\n        /* \"#utility.yul\":19688:19753   */\n      tag_217\n      jump\t// in\n    tag_408:\n        /* \"#utility.yul\":19623:19759   */\n      pop\n        /* \"#utility.yul\":19570:19759   */\n      pop\n      pop\n      jump\t// out\n        /* \"#utility.yul\":19765:19951   */\n    tag_220:\n        /* \"#utility.yul\":19825:19945   */\n    tag_410:\n        /* \"#utility.yul\":19842:19845   */\n      dup2\n        /* \"#utility.yul\":19835:19840   */\n      dup2\n        /* \"#utility.yul\":19832:19846   */\n      lt\n        /* \"#utility.yul\":19825:19945   */\n      iszero\n      tag_412\n      jumpi\n        /* \"#utility.yul\":19896:19935   */\n      tag_413\n        /* \"#utility.yul\":19933:19934   */\n      0x00\n        /* \"#utility.yul\":19926:19931   */\n      dup3\n        /* \"#utility.yul\":19896:19935   */\n      tag_219\n      jump\t// in\n    tag_413:\n        /* \"#utility.yul\":19869:19870   */\n      0x01\n        /* \"#utility.yul\":19862:19867   */\n      dup2\n        /* \"#utility.yul\":19858:19871   */\n      add\n        /* \"#utility.yul\":19849:19871   */\n      swap1\n      pop\n        /* \"#utility.yul\":19825:19945   */\n      jump(tag_410)\n    tag_412:\n        /* \"#utility.yul\":19765:19951   */\n      pop\n      pop\n      jump\t// out\n        /* \"#utility.yul\":19957:20500   */\n    tag_221:\n        /* \"#utility.yul\":20058:20060   */\n      0x1f\n        /* \"#utility.yul\":20053:20056   */\n      dup3\n        /* \"#utility.yul\":20050:20061   */\n      gt\n        /* \"#utility.yul\":20047:20493   */\n      iszero\n      tag_415\n      jumpi\n        /* \"#utility.yul\":20092:20130   */\n      tag_416\n        /* \"#utility.yul\":20124:20129   */\n      dup2\n        /* \"#utility.yul\":20092:20130   */\n      tag_210\n      jump\t// in\n    tag_416:\n        /* \"#utility.yul\":20176:20205   */\n      tag_417\n        /* \"#utility.yul\":20194:20204   */\n      dup5\n        /* \"#utility.yul\":20176:20205   */\n      tag_211\n      jump\t// in\n    tag_417:\n        /* \"#utility.yul\":20166:20174   */\n      dup2\n        /* \"#utility.yul\":20162:20206   */\n      add\n        /* \"#utility.yul\":20359:20361   */\n      0x20\n        /* \"#utility.yul\":20347:20357   */\n      dup6\n        /* \"#utility.yul\":20344:20362   */\n      lt\n        /* \"#utility.yul\":20341:20390   */\n      iszero\n      tag_418\n      jumpi\n        /* \"#utility.yul\":20380:20388   */\n      dup2\n        /* \"#utility.yul\":20365:20388   */\n      swap1\n      pop\n        /* \"#utility.yul\":20341:20390   */\n    tag_418:\n        /* \"#utility.yul\":20403:20483   */\n      tag_419\n        /* \"#utility.yul\":20459:20481   */\n      tag_420\n        /* \"#utility.yul\":20477:20480   */\n      dup6\n        /* \"#utility.yul\":20459:20481   */\n      tag_211\n      jump\t// in\n    tag_420:\n        /* \"#utility.yul\":20449:20457   */\n      dup4\n        /* \"#utility.yul\":20445:20482   */\n      add\n        /* \"#utility.yul\":20432:20443   */\n      dup3\n        /* \"#utility.yul\":20403:20483   */\n      tag_220\n      jump\t// in\n    tag_419:\n        /* \"#utility.yul\":20062:20493   */\n      pop\n      pop\n        /* \"#utility.yul\":20047:20493   */\n    tag_415:\n        /* \"#utility.yul\":19957:20500   */\n      pop\n      pop\n      pop\n      jump\t// out\n        /* \"#utility.yul\":20506:20623   */\n    tag_222:\n        /* \"#utility.yul\":20560:20568   */\n      0x00\n        /* \"#utility.yul\":20610:20615   */\n      dup3\n        /* \"#utility.yul\":20604:20608   */\n      dup3\n        /* \"#utility.yul\":20600:20616   */\n      shr\n        /* \"#utility.yul\":20579:20616   */\n      swap1\n      pop\n        /* \"#utility.yul\":20506:20623   */\n      swap3\n      swap2\n      pop\n      pop\n      jump\t// out\n        /* \"#utility.yul\":20629:20798   */\n    tag_223:\n        /* \"#utility.yul\":20673:20679   */\n      0x00\n        /* \"#utility.yul\":20706:20757   */\n      tag_423\n        /* \"#utility.yul\":20754:20755   */\n      0x00\n        /* \"#utility.yul\":20750:20756   */\n      not\n        /* \"#utility.yul\":20742:20747   */\n      dup5\n        /* \"#utility.yul\":20739:20740   */\n      0x08\n        /* \"#utility.yul\":20735:20748   */\n      mul\n        /* \"#utility.yul\":20706:20757   */\n      tag_222\n      jump\t// in\n    tag_423:\n        /* \"#utility.yul\":20702:20758   */\n      not\n        /* \"#utility.yul\":20787:20791   */\n      dup1\n        /* \"#utility.yul\":20781:20785   */\n      dup4\n        /* \"#utility.yul\":20777:20792   */\n      and\n        /* \"#utility.yul\":20767:20792   */\n      swap2\n      pop\n        /* \"#utility.yul\":20680:20798   */\n      pop\n        /* \"#utility.yul\":20629:20798   */\n      swap3\n      swap2\n      pop\n      pop\n      jump\t// out\n        /* \"#utility.yul\":20803:21098   */\n    tag_224:\n        /* \"#utility.yul\":20879:20883   */\n      0x00\n        /* \"#utility.yul\":21025:21054   */\n      tag_425\n        /* \"#utility.yul\":21050:21053   */\n      dup4\n        /* \"#utility.yul\":21044:21048   */\n      dup4\n        /* \"#utility.yul\":21025:21054   */\n      tag_223\n      jump\t// in\n    tag_425:\n        /* \"#utility.yul\":21017:21054   */\n      swap2\n      pop\n        /* \"#utility.yul\":21087:21090   */\n      dup3\n        /* \"#utility.yul\":21084:21085   */\n      0x02\n        /* \"#utility.yul\":21080:21091   */\n      mul\n        /* \"#utility.yul\":21074:21078   */\n      dup3\n        /* \"#utility.yul\":21071:21092   */\n      or\n        /* \"#utility.yul\":21063:21092   */\n      swap1\n      pop\n        /* \"#utility.yul\":20803:21098   */\n      swap3\n      swap2\n      pop\n      pop\n      jump\t// out\n        /* \"#utility.yul\":21103:22498   */\n    tag_158:\n        /* \"#utility.yul\":21220:21257   */\n      tag_427\n        /* \"#utility.yul\":21253:21256   */\n      dup3\n        /* \"#utility.yul\":21220:21257   */\n      tag_169\n      jump\t// in\n    tag_427:\n        /* \"#utility.yul\":21322:21340   */\n      0xffffffffffffffff\n        /* \"#utility.yul\":21314:21320   */\n      dup2\n        /* \"#utility.yul\":21311:21341   */\n      gt\n        /* \"#utility.yul\":21308:21364   */\n      iszero\n      tag_428\n      jumpi\n        /* \"#utility.yul\":21344:21362   */\n      tag_429\n      tag_188\n      jump\t// in\n    tag_429:\n        /* \"#utility.yul\":21308:21364   */\n    tag_428:\n        /* \"#utility.yul\":21388:21426   */\n      tag_430\n        /* \"#utility.yul\":21420:21424   */\n      dup3\n        /* \"#utility.yul\":21414:21425   */\n      sload\n        /* \"#utility.yul\":21388:21426   */\n      tag_145\n      jump\t// in\n    tag_430:\n        /* \"#utility.yul\":21473:21540   */\n      tag_431\n        /* \"#utility.yul\":21533:21539   */\n      dup3\n        /* \"#utility.yul\":21525:21531   */\n      dup3\n        /* \"#utility.yul\":21519:21523   */\n      dup6\n        /* \"#utility.yul\":21473:21540   */\n      tag_221\n      jump\t// in\n    tag_431:\n        /* \"#utility.yul\":21567:21568   */\n      0x00\n        /* \"#utility.yul\":21591:21595   */\n      0x20\n        /* \"#utility.yul\":21578:21595   */\n      swap1\n      pop\n        /* \"#utility.yul\":21623:21625   */\n      0x1f\n        /* \"#utility.yul\":21615:21621   */\n      dup4\n        /* \"#utility.yul\":21612:21626   */\n      gt\n        /* \"#utility.yul\":21640:21641   */\n      0x01\n        /* \"#utility.yul\":21635:22253   */\n      dup2\n      eq\n      tag_433\n      jumpi\n        /* \"#utility.yul\":22297:22298   */\n      0x00\n        /* \"#utility.yul\":22314:22320   */\n      dup5\n        /* \"#utility.yul\":22311:22388   */\n      iszero\n      tag_434\n      jumpi\n        /* \"#utility.yul\":22363:22372   */\n      dup3\n        /* \"#utility.yul\":22358:22361   */\n      dup8\n        /* \"#utility.yul\":22354:22373   */\n      add\n        /* \"#utility.yul\":22348:22374   */\n      mload\n        /* \"#utility.yul\":22339:22374   */\n      swap1\n      pop\n        /* \"#utility.yul\":22311:22388   */\n    tag_434:\n        /* \"#utility.yul\":22414:22481   */\n      tag_435\n        /* \"#utility.yul\":22474:22480   */\n      dup6\n        /* \"#utility.yul\":22467:22472   */\n      dup3\n        /* \"#utility.yul\":22414:22481   */\n      tag_224\n      jump\t// in\n    tag_435:\n        /* \"#utility.yul\":22408:22412   */\n      dup7\n        /* \"#utility.yul\":22401:22482   */\n      sstore\n        /* \"#utility.yul\":22270:22492   */\n      pop\n        /* \"#utility.yul\":21605:22492   */\n      jump(tag_432)\n        /* \"#utility.yul\":21635:22253   */\n    tag_433:\n        /* \"#utility.yul\":21687:21691   */\n      0x1f\n        /* \"#utility.yul\":21683:21692   */\n      not\n        /* \"#utility.yul\":21675:21681   */\n      dup5\n        /* \"#utility.yul\":21671:21693   */\n      and\n        /* \"#utility.yul\":21721:21758   */\n      tag_436\n        /* \"#utility.yul\":21753:21757   */\n      dup7\n        /* \"#utility.yul\":21721:21758   */\n      tag_210\n      jump\t// in\n    tag_436:\n        /* \"#utility.yul\":21780:21781   */\n      0x00\n        /* \"#utility.yul\":21794:22002   */\n    tag_437:\n        /* \"#utility.yul\":21808:21815   */\n      dup3\n        /* \"#utility.yul\":21805:21806   */\n      dup2\n        /* \"#utility.yul\":21802:21816   */\n      lt\n        /* \"#utility.yul\":21794:22002   */\n      iszero\n      tag_439\n      jumpi\n        /* \"#utility.yul\":21887:21896   */\n      dup5\n        /* \"#utility.yul\":21882:21885   */\n      dup10\n        /* \"#utility.yul\":21878:21897   */\n      add\n        /* \"#utility.yul\":21872:21898   */\n      mload\n        /* \"#utility.yul\":21864:21870   */\n      dup3\n        /* \"#utility.yul\":21857:21899   */\n      sstore\n        /* \"#utility.yul\":21938:21939   */\n      0x01\n        /* \"#utility.yul\":21930:21936   */\n      dup3\n        /* \"#utility.yul\":21926:21940   */\n      add\n        /* \"#utility.yul\":21916:21940   */\n      swap2\n      pop\n        /* \"#utility.yul\":21985:21987   */\n      0x20\n        /* \"#utility.yul\":21974:21983   */\n      dup6\n        /* \"#utility.yul\":21970:21988   */\n      add\n        /* \"#utility.yul\":21957:21988   */\n      swap5\n      pop\n        /* \"#utility.yul\":21831:21835   */\n      0x20\n        /* \"#utility.yul\":21828:21829   */\n      dup2\n        /* \"#utility.yul\":21824:21836   */\n      add\n        /* \"#utility.yul\":21819:21836   */\n      swap1\n      pop\n        /* \"#utility.yul\":21794:22002   */\n      jump(tag_437)\n    tag_439:\n        /* \"#utility.yul\":22030:22036   */\n      dup7\n        /* \"#utility.yul\":22021:22028   */\n      dup4\n        /* \"#utility.yul\":22018:22037   */\n      lt\n        /* \"#utility.yul\":22015:22194   */\n      iszero\n      tag_440\n      jumpi\n        /* \"#utility.yul\":22088:22097   */\n      dup5\n        /* \"#utility.yul\":22083:22086   */\n      dup10\n        /* \"#utility.yul\":22079:22098   */\n      add\n        /* \"#utility.yul\":22073:22099   */\n      mload\n        /* \"#utility.yul\":22131:22179   */\n      tag_441\n        /* \"#utility.yul\":22173:22177   */\n      0x1f\n        /* \"#utility.yul\":22165:22171   */\n      dup10\n        /* \"#utility.yul\":22161:22178   */\n      and\n        /* \"#utility.yul\":22150:22159   */\n      dup3\n        /* \"#utility.yul\":22131:22179   */\n      tag_223\n      jump\t// in\n    tag_441:\n        /* \"#utility.yul\":22123:22129   */\n      dup4\n        /* \"#utility.yul\":22116:22180   */\n      sstore\n        /* \"#utility.yul\":22038:22194   */\n      pop\n        /* \"#utility.yul\":22015:22194   */\n    tag_440:\n        /* \"#utility.yul\":22240:22241   */\n      0x01\n        /* \"#utility.yul\":22236:22237   */\n      0x02\n        /* \"#utility.yul\":22228:22234   */\n      dup9\n        /* \"#utility.yul\":22224:22238   */\n      mul\n        /* \"#utility.yul\":22220:22242   */\n      add\n        /* \"#utility.yul\":22214:22218   */\n      dup9\n        /* \"#utility.yul\":22207:22243   */\n      sstore\n        /* \"#utility.yul\":21642:22253   */\n      pop\n      pop\n      pop\n        /* \"#utility.yul\":21605:22492   */\n    tag_432:\n      pop\n        /* \"#utility.yul\":21195:22498   */\n      pop\n      pop\n      pop\n        /* \"#utility.yul\":21103:22498   */\n      pop\n      pop\n      jump\t// out\n\n    auxdata: 0xa264697066735822122030027a1235c9d7069949920694636309302d56b6abe208236b2937744caf5ecc64736f6c63430008160033\n}\n",
				"bytecode": {
					"linkReferences": {},
					"object": "60806040526801158e460913d0000060025561012c42620000219190620000c8565b60035534801562000030575f80fd5b5033600460016101000a81548173ffffffffffffffffffffffffffffffffffffffff021916908373ffffffffffffffffffffffffffffffffffffffff160217905550600160045f6101000a81548160ff02191690831515021790555062000102565b5f819050919050565b7f4e487b71000000000000000000000000000000000000000000000000000000005f52601160045260245ffd5b5f620000d48262000092565b9150620000e18362000092565b9250828201905080821115620000fc57620000fb6200009b565b5b92915050565b61188080620001105f395ff3fe6080604052600436106100c1575f3560e01c8063584f6be01161007e57806368a6cdf21161005857806368a6cdf21461020f5780638d4727091461024b5780638da5cb5b1461027b578063cc3d967b146102a5576100c1565b8063584f6be0146101b3578063590e1ae3146101db57806361bc221a146101e5576100c1565b806302fb0c5e146100c55780630e666e49146100ef5780632ca126f81461012b57806340193883146101555780634e71d92d1461017f57806351b42b001461019d575b5f80fd5b3480156100d0575f80fd5b506100d96102e1565b6040516100e69190610d30565b60405180910390f35b3480156100fa575f80fd5b5061011560048036038101906101109190610db4565b6102f3565b6040516101229190610e69565b60405180910390f35b348015610136575f80fd5b5061013f61047f565b60405161014c9190610ea1565b60405180910390f35b348015610160575f80fd5b50610169610485565b6040516101769190610ea1565b60405180910390f35b61018761048b565b6040516101949190611020565b60405180910390f35b3480156101a8575f80fd5b506101b1610644565b005b3480156101be575f80fd5b506101d960048036038101906101d4919061116c565b61065f565b005b6101e3610720565b005b3480156101f0575f80fd5b506101f96107e0565b6040516102069190610ea1565b60405180910390f35b34801561021a575f80fd5b5061023560048036038101906102309190610db4565b6107e6565b6040516102429190610ea1565b60405180910390f35b61026560048036038101906102609190611259565b6107fb565b6040516102729190611020565b60405180910390f35b348015610286575f80fd5b5061028f6109d8565b60405161029c91906112b8565b60405180910390f35b3480156102b0575f80fd5b506102cb60048036038101906102c69190610db4565b6109fe565b6040516102d89190611020565b60405180910390f35b60045f9054906101000a900460ff1681565b60605f60065f8473ffffffffffffffffffffffffffffffffffffffff1673ffffffffffffffffffffffffffffffffffffffff1681526020019081526020015f208054905090505f5b8181101561043f578373ffffffffffffffffffffffffffffffffffffffff1660065f8673ffffffffffffffffffffffffffffffffffffffff1673ffffffffffffffffffffffffffffffffffffffff1681526020019081526020015f2082815481106103a9576103a86112d1565b5b905f5260205f2090600302016002015f9054906101000a900473ffffffffffffffffffffffffffffffffffffffff1673ffffffffffffffffffffffffffffffffffffffff1603610432576040518060400160405280601381526020017f75736572206172652072656769737465726564000000000000000000000000008152509250505061047a565b808060010191505061033b565b506040518060400160405280601781526020017f7573657220617265206e6f7420726567697374657265640000000000000000008152509150505b919050565b60035481565b60025481565b6060600460019054906101000a900473ffffffffffffffffffffffffffffffffffffffff1673ffffffffffffffffffffffffffffffffffffffff163373ffffffffffffffffffffffffffffffffffffffff161461051d576040517f08c379a000000000000000000000000000000000000000000000000000000000815260040161051490611348565b60405180910390fd5b600254471061060657600460019054906101000a900473ffffffffffffffffffffffffffffffffffffffff1673ffffffffffffffffffffffffffffffffffffffff166108fc4790811502906040515f60405180830381858888f1935050505015801561058b573d5f803e3d5ffd5b50610594610644565b60025f806101000a81548160ff021916908360038111156105b8576105b7611366565b5b02179055507f4c51d260ed01191bd8c324dcc6426ba425e832f37a19e155c7182baa9839bd4333476040516105ee929190611393565b60405180910390a16105ff336109fe565b9050610641565b6040517f08c379a00000000000000000000000000000000000000000000000000000000081526004016106389061142a565b60405180910390fd5b90565b5f60045f6101000a81548160ff021916908315150217905550565b60045f9054906101000a900460ff166106ad576040517f08c379a00000000000000000000000000000000000000000000000000000000081526004016106a490611492565b60405180910390fd5b6106b8838383610c0b565b5f805f6101000a81548160ff021916908360038111156106db576106da611366565b5b02179055507f1dfd8cec52292c44a89be6bd42f905ddc92c63b3a343c239093964d1038e1b9b338484604051610713939291906114b0565b60405180910390a1505050565b60025447108061073257506003544210155b1561077c573373ffffffffffffffffffffffffffffffffffffffff166108fc4790811502906040515f60405180830381858888f1935050505015801561077a573d5f803e3d5ffd5b505b60035f806101000a81548160ff021916908360038111156107a05761079f611366565b5b02179055507f13449f70035221bfd809cb8d8994f004f2f917bbc10a9f431bfa7b3f423c0b2533346040516107d6929190611393565b60405180910390a1565b60055481565b6007602052805f5260405f205f915090505481565b6060600460019054906101000a900473ffffffffffffffffffffffffffffffffffffffff1673ffffffffffffffffffffffffffffffffffffffff163373ffffffffffffffffffffffffffffffffffffffff161461088d576040517f08c379a000000000000000000000000000000000000000000000000000000000815260040161088490611348565b60405180910390fd5b60045f9054906101000a900460ff166108db576040517f08c379a00000000000000000000000000000000000000000000000000000000081526004016108d290611492565b60405180910390fd5b600354421115610920576040517f08c379a000000000000000000000000000000000000000000000000000000000815260040161091790611563565b60405180910390fd5b8273ffffffffffffffffffffffffffffffffffffffff166108fc8390811502906040515f60405180830381858888f19350505050158015610963573d5f803e3d5ffd5b5060015f806101000a81548160ff0219169083600381111561098857610987611366565b5b02179055507f550b521cf33b3a7fe1363ea8bed6130500d8a27ced06a0fc13576b96cf15528933836040516109be929190611393565b60405180910390a16109cf836109fe565b90509392505050565b600460019054906101000a900473ffffffffffffffffffffffffffffffffffffffff1681565b606060065f8373ffffffffffffffffffffffffffffffffffffffff1673ffffffffffffffffffffffffffffffffffffffff1681526020019081526020015f20805480602002602001604051908101604052809291908181526020015f905b82821015610c00578382905f5260205f2090600302016040518060600160405290815f82018054610a8c906115ae565b80601f0160208091040260200160405190810160405280929190818152602001828054610ab8906115ae565b8015610b035780601f10610ada57610100808354040283529160200191610b03565b820191905f5260205f20905b815481529060010190602001808311610ae657829003601f168201915b50505050508152602001600182018054610b1c906115ae565b80601f0160208091040260200160405190810160405280929190818152602001828054610b48906115ae565b8015610b935780601f10610b6a57610100808354040283529160200191610b93565b820191905f5260205f20905b815481529060010190602001808311610b7657829003601f168201915b50505050508152602001600282015f9054906101000a900473ffffffffffffffffffffffffffffffffffffffff1673ffffffffffffffffffffffffffffffffffffffff1673ffffffffffffffffffffffffffffffffffffffff168152505081526020019060010190610a5c565b505050509050919050565b60065f8273ffffffffffffffffffffffffffffffffffffffff1673ffffffffffffffffffffffffffffffffffffffff1681526020019081526020015f2060405180606001604052808581526020018481526020018373ffffffffffffffffffffffffffffffffffffffff16815250908060018154018082558091505060019003905f5260205f2090600302015f909190919091505f820151815f019081610cb2919061177b565b506020820151816001019081610cc8919061177b565b506040820151816002015f6101000a81548173ffffffffffffffffffffffffffffffffffffffff021916908373ffffffffffffffffffffffffffffffffffffffff1602179055505050505050565b5f8115159050919050565b610d2a81610d16565b82525050565b5f602082019050610d435f830184610d21565b92915050565b5f604051905090565b5f80fd5b5f80fd5b5f73ffffffffffffffffffffffffffffffffffffffff82169050919050565b5f610d8382610d5a565b9050919050565b610d9381610d79565b8114610d9d575f80fd5b50565b5f81359050610dae81610d8a565b92915050565b5f60208284031215610dc957610dc8610d52565b5b5f610dd684828501610da0565b91505092915050565b5f81519050919050565b5f82825260208201905092915050565b5f5b83811015610e16578082015181840152602081019050610dfb565b5f8484015250505050565b5f601f19601f8301169050919050565b5f610e3b82610ddf565b610e458185610de9565b9350610e55818560208601610df9565b610e5e81610e21565b840191505092915050565b5f6020820190508181035f830152610e818184610e31565b905092915050565b5f819050919050565b610e9b81610e89565b82525050565b5f602082019050610eb45f830184610e92565b92915050565b5f81519050919050565b5f82825260208201905092915050565b5f819050602082019050919050565b5f82825260208201905092915050565b5f610efd82610ddf565b610f078185610ee3565b9350610f17818560208601610df9565b610f2081610e21565b840191505092915050565b610f3481610d79565b82525050565b5f606083015f8301518482035f860152610f548282610ef3565b91505060208301518482036020860152610f6e8282610ef3565b9150506040830151610f836040860182610f2b565b508091505092915050565b5f610f998383610f3a565b905092915050565b5f602082019050919050565b5f610fb782610eba565b610fc18185610ec4565b935083602082028501610fd385610ed4565b805f5b8581101561100e5784840389528151610fef8582610f8e565b9450610ffa83610fa1565b925060208a01995050600181019050610fd6565b50829750879550505050505092915050565b5f6020820190508181035f8301526110388184610fad565b905092915050565b5f80fd5b5f80fd5b7f4e487b71000000000000000000000000000000000000000000000000000000005f52604160045260245ffd5b61107e82610e21565b810181811067ffffffffffffffff8211171561109d5761109c611048565b5b80604052505050565b5f6110af610d49565b90506110bb8282611075565b919050565b5f67ffffffffffffffff8211156110da576110d9611048565b5b6110e382610e21565b9050602081019050919050565b828183375f83830152505050565b5f61111061110b846110c0565b6110a6565b90508281526020810184848401111561112c5761112b611044565b5b6111378482856110f0565b509392505050565b5f82601f83011261115357611152611040565b5b81356111638482602086016110fe565b91505092915050565b5f805f6060848603121561118357611182610d52565b5b5f84013567ffffffffffffffff8111156111a05761119f610d56565b5b6111ac8682870161113f565b935050602084013567ffffffffffffffff8111156111cd576111cc610d56565b5b6111d98682870161113f565b92505060406111ea86828701610da0565b9150509250925092565b5f6111fe82610d5a565b9050919050565b61120e816111f4565b8114611218575f80fd5b50565b5f8135905061122981611205565b92915050565b61123881610e89565b8114611242575f80fd5b50565b5f813590506112538161122f565b92915050565b5f805f606084860312156112705761126f610d52565b5b5f61127d8682870161121b565b935050602061128e8682870161121b565b925050604061129f86828701611245565b9150509250925092565b6112b281610d79565b82525050565b5f6020820190506112cb5f8301846112a9565b92915050565b7f4e487b71000000000000000000000000000000000000000000000000000000005f52603260045260245ffd5b7f6f6e6c79206f776e65722063616e2075736520746869732066756e6374696f6e5f82015250565b5f611332602083610de9565b915061133d826112fe565b602082019050919050565b5f6020820190508181035f83015261135f81611326565b9050919050565b7f4e487b71000000000000000000000000000000000000000000000000000000005f52602160045260245ffd5b5f6040820190506113a65f8301856112a9565b6113b36020830184610e92565b9392505050565b7f66756e647320617265206e6f742073756666696369656e7420666f7220636c615f8201527f696d696e67000000000000000000000000000000000000000000000000000000602082015250565b5f611414602583610de9565b915061141f826113ba565b604082019050919050565b5f6020820190508181035f83015261144181611408565b9050919050565b7f7374617465206973206e6f7420616374697665000000000000000000000000005f82015250565b5f61147c601383610de9565b915061148782611448565b602082019050919050565b5f6020820190508181035f8301526114a981611470565b9050919050565b5f6060820190506114c35f8301866112a9565b81810360208301526114d58185610e31565b905081810360408301526114e98184610e31565b9050949350505050565b7f74696d6520656e64206e6f7420636f6e747269627574696f6e2061726520616c5f8201527f6c6f776564000000000000000000000000000000000000000000000000000000602082015250565b5f61154d602583610de9565b9150611558826114f3565b604082019050919050565b5f6020820190508181035f83015261157a81611541565b9050919050565b7f4e487b71000000000000000000000000000000000000000000000000000000005f52602260045260245ffd5b5f60028204905060018216806115c557607f821691505b6020821081036115d8576115d7611581565b5b50919050565b5f819050815f5260205f209050919050565b5f6020601f8301049050919050565b5f82821b905092915050565b5f6008830261163a7fffffffffffffffffffffffffffffffffffffffffffffffffffffffffffffffff826115ff565b61164486836115ff565b95508019841693508086168417925050509392505050565b5f819050919050565b5f61167f61167a61167584610e89565b61165c565b610e89565b9050919050565b5f819050919050565b61169883611665565b6116ac6116a482611686565b84845461160b565b825550505050565b5f90565b6116c06116b4565b6116cb81848461168f565b505050565b5b818110156116ee576116e35f826116b8565b6001810190506116d1565b5050565b601f82111561173357611704816115de565b61170d846115f0565b8101602085101561171c578190505b611730611728856115f0565b8301826116d0565b50505b505050565b5f82821c905092915050565b5f6117535f1984600802611738565b1980831691505092915050565b5f61176b8383611744565b9150826002028217905092915050565b61178482610ddf565b67ffffffffffffffff81111561179d5761179c611048565b5b6117a782546115ae565b6117b28282856116f2565b5f60209050601f8311600181146117e3575f84156117d1578287015190505b6117db8582611760565b865550611842565b601f1984166117f1866115de565b5f5b82811015611818578489015182556001820191506020850194506020810190506117f3565b868310156118355784890151611831601f891682611744565b8355505b6001600288020188555050505b50505050505056fea264697066735822122030027a1235c9d7069949920694636309302d56b6abe208236b2937744caf5ecc64736f6c63430008160033",
					"opcodes": "PUSH1 0x80 PUSH1 0x40 MSTORE PUSH9 0x1158E460913D00000 PUSH1 0x2 SSTORE PUSH2 0x12C TIMESTAMP PUSH3 0x21 SWAP2 SWAP1 PUSH3 0xC8 JUMP JUMPDEST PUSH1 0x3 SSTORE CALLVALUE DUP1 ISZERO PUSH3 0x30 JUMPI PUSH0 DUP1 REVERT JUMPDEST POP CALLER PUSH1 0x4 PUSH1 0x1 PUSH2 0x100 EXP DUP2 SLOAD DUP2 PUSH20 0xFFFFFFFFFFFFFFFFFFFFFFFFFFFFFFFFFFFFFFFF MUL NOT AND SWAP1 DUP4 PUSH20 0xFFFFFFFFFFFFFFFFFFFFFFFFFFFFFFFFFFFFFFFF AND MUL OR SWAP1 SSTORE POP PUSH1 0x1 PUSH1 0x4 PUSH0 PUSH2 0x100 EXP DUP2 SLOAD DUP2 PUSH1 0xFF MUL NOT AND SWAP1 DUP4 ISZERO ISZERO MUL OR SWAP1 SSTORE POP PUSH3 0x102 JUMP JUMPDEST PUSH0 DUP2 SWAP1 POP SWAP2 SWAP1 POP JUMP JUMPDEST PUSH32 0x4E487B7100000000000000000000000000000000000000000000000000000000 PUSH0 MSTORE PUSH1 0x11 PUSH1 0x4 MSTORE PUSH1 0x24 PUSH0 REVERT JUMPDEST PUSH0 PUSH3 0xD4 DUP3 PUSH3 0x92 JUMP JUMPDEST SWAP2 POP PUSH3 0xE1 DUP4 PUSH3 0x92 JUMP JUMPDEST SWAP3 POP DUP3 DUP3 ADD SWAP1 POP DUP1 DUP3 GT ISZERO PUSH3 0xFC JUMPI PUSH3 0xFB PUSH3 0x9B JUMP JUMPDEST JUMPDEST SWAP3 SWAP2 POP POP JUMP JUMPDEST PUSH2 0x1880 DUP1 PUSH3 0x110 PUSH0 CODECOPY PUSH0 RETURN INVALID PUSH1 0x80 PUSH1 0x40 MSTORE PUSH1 0x4 CALLDATASIZE LT PUSH2 0xC1 JUMPI PUSH0 CALLDATALOAD PUSH1 0xE0 SHR DUP1 PUSH4 0x584F6BE0 GT PUSH2 0x7E JUMPI DUP1 PUSH4 0x68A6CDF2 GT PUSH2 0x58 JUMPI DUP1 PUSH4 0x68A6CDF2 EQ PUSH2 0x20F JUMPI DUP1 PUSH4 0x8D472709 EQ PUSH2 0x24B JUMPI DUP1 PUSH4 0x8DA5CB5B EQ PUSH2 0x27B JUMPI DUP1 PUSH4 0xCC3D967B EQ PUSH2 0x2A5 JUMPI PUSH2 0xC1 JUMP JUMPDEST DUP1 PUSH4 0x584F6BE0 EQ PUSH2 0x1B3 JUMPI DUP1 PUSH4 0x590E1AE3 EQ PUSH2 0x1DB JUMPI DUP1 PUSH4 0x61BC221A EQ PUSH2 0x1E5 JUMPI PUSH2 0xC1 JUMP JUMPDEST DUP1 PUSH4 0x2FB0C5E EQ PUSH2 0xC5 JUMPI DUP1 PUSH4 0xE666E49 EQ PUSH2 0xEF JUMPI DUP1 PUSH4 0x2CA126F8 EQ PUSH2 0x12B JUMPI DUP1 PUSH4 0x40193883 EQ PUSH2 0x155 JUMPI DUP1 PUSH4 0x4E71D92D EQ PUSH2 0x17F JUMPI DUP1 PUSH4 0x51B42B00 EQ PUSH2 0x19D JUMPI JUMPDEST PUSH0 DUP1 REVERT JUMPDEST CALLVALUE DUP1 ISZERO PUSH2 0xD0 JUMPI PUSH0 DUP1 REVERT JUMPDEST POP PUSH2 0xD9 PUSH2 0x2E1 JUMP JUMPDEST PUSH1 0x40 MLOAD PUSH2 0xE6 SWAP2 SWAP1 PUSH2 0xD30 JUMP JUMPDEST PUSH1 0x40 MLOAD DUP1 SWAP2 SUB SWAP1 RETURN JUMPDEST CALLVALUE DUP1 ISZERO PUSH2 0xFA JUMPI PUSH0 DUP1 REVERT JUMPDEST POP PUSH2 0x115 PUSH1 0x4 DUP1 CALLDATASIZE SUB DUP2 ADD SWAP1 PUSH2 0x110 SWAP2 SWAP1 PUSH2 0xDB4 JUMP JUMPDEST PUSH2 0x2F3 JUMP JUMPDEST PUSH1 0x40 MLOAD PUSH2 0x122 SWAP2 SWAP1 PUSH2 0xE69 JUMP JUMPDEST PUSH1 0x40 MLOAD DUP1 SWAP2 SUB SWAP1 RETURN JUMPDEST CALLVALUE DUP1 ISZERO PUSH2 0x136 JUMPI PUSH0 DUP1 REVERT JUMPDEST POP PUSH2 0x13F PUSH2 0x47F JUMP JUMPDEST PUSH1 0x40 MLOAD PUSH2 0x14C SWAP2 SWAP1 PUSH2 0xEA1 JUMP JUMPDEST PUSH1 0x40 MLOAD DUP1 SWAP2 SUB SWAP1 RETURN JUMPDEST CALLVALUE DUP1 ISZERO PUSH2 0x160 JUMPI PUSH0 DUP1 REVERT JUMPDEST POP PUSH2 0x169 PUSH2 0x485 JUMP JUMPDEST PUSH1 0x40 MLOAD PUSH2 0x176 SWAP2 SWAP1 PUSH2 0xEA1 JUMP JUMPDEST PUSH1 0x40 MLOAD DUP1 SWAP2 SUB SWAP1 RETURN JUMPDEST PUSH2 0x187 PUSH2 0x48B JUMP JUMPDEST PUSH1 0x40 MLOAD PUSH2 0x194 SWAP2 SWAP1 PUSH2 0x1020 JUMP JUMPDEST PUSH1 0x40 MLOAD DUP1 SWAP2 SUB SWAP1 RETURN JUMPDEST CALLVALUE DUP1 ISZERO PUSH2 0x1A8 JUMPI PUSH0 DUP1 REVERT JUMPDEST POP PUSH2 0x1B1 PUSH2 0x644 JUMP JUMPDEST STOP JUMPDEST CALLVALUE DUP1 ISZERO PUSH2 0x1BE JUMPI PUSH0 DUP1 REVERT JUMPDEST POP PUSH2 0x1D9 PUSH1 0x4 DUP1 CALLDATASIZE SUB DUP2 ADD SWAP1 PUSH2 0x1D4 SWAP2 SWAP1 PUSH2 0x116C JUMP JUMPDEST PUSH2 0x65F JUMP JUMPDEST STOP JUMPDEST PUSH2 0x1E3 PUSH2 0x720 JUMP JUMPDEST STOP JUMPDEST CALLVALUE DUP1 ISZERO PUSH2 0x1F0 JUMPI PUSH0 DUP1 REVERT JUMPDEST POP PUSH2 0x1F9 PUSH2 0x7E0 JUMP JUMPDEST PUSH1 0x40 MLOAD PUSH2 0x206 SWAP2 SWAP1 PUSH2 0xEA1 JUMP JUMPDEST PUSH1 0x40 MLOAD DUP1 SWAP2 SUB SWAP1 RETURN JUMPDEST CALLVALUE DUP1 ISZERO PUSH2 0x21A JUMPI PUSH0 DUP1 REVERT JUMPDEST POP PUSH2 0x235 PUSH1 0x4 DUP1 CALLDATASIZE SUB DUP2 ADD SWAP1 PUSH2 0x230 SWAP2 SWAP1 PUSH2 0xDB4 JUMP JUMPDEST PUSH2 0x7E6 JUMP JUMPDEST PUSH1 0x40 MLOAD PUSH2 0x242 SWAP2 SWAP1 PUSH2 0xEA1 JUMP JUMPDEST PUSH1 0x40 MLOAD DUP1 SWAP2 SUB SWAP1 RETURN JUMPDEST PUSH2 0x265 PUSH1 0x4 DUP1 CALLDATASIZE SUB DUP2 ADD SWAP1 PUSH2 0x260 SWAP2 SWAP1 PUSH2 0x1259 JUMP JUMPDEST PUSH2 0x7FB JUMP JUMPDEST PUSH1 0x40 MLOAD PUSH2 0x272 SWAP2 SWAP1 PUSH2 0x1020 JUMP JUMPDEST PUSH1 0x40 MLOAD DUP1 SWAP2 SUB SWAP1 RETURN JUMPDEST CALLVALUE DUP1 ISZERO PUSH2 0x286 JUMPI PUSH0 DUP1 REVERT JUMPDEST POP PUSH2 0x28F PUSH2 0x9D8 JUMP JUMPDEST PUSH1 0x40 MLOAD PUSH2 0x29C SWAP2 SWAP1 PUSH2 0x12B8 JUMP JUMPDEST PUSH1 0x40 MLOAD DUP1 SWAP2 SUB SWAP1 RETURN JUMPDEST CALLVALUE DUP1 ISZERO PUSH2 0x2B0 JUMPI PUSH0 DUP1 REVERT JUMPDEST POP PUSH2 0x2CB PUSH1 0x4 DUP1 CALLDATASIZE SUB DUP2 ADD SWAP1 PUSH2 0x2C6 SWAP2 SWAP1 PUSH2 0xDB4 JUMP JUMPDEST PUSH2 0x9FE JUMP JUMPDEST PUSH1 0x40 MLOAD PUSH2 0x2D8 SWAP2 SWAP1 PUSH2 0x1020 JUMP JUMPDEST PUSH1 0x40 MLOAD DUP1 SWAP2 SUB SWAP1 RETURN JUMPDEST PUSH1 0x4 PUSH0 SWAP1 SLOAD SWAP1 PUSH2 0x100 EXP SWAP1 DIV PUSH1 0xFF AND DUP2 JUMP JUMPDEST PUSH1 0x60 PUSH0 PUSH1 0x6 PUSH0 DUP5 PUSH20 0xFFFFFFFFFFFFFFFFFFFFFFFFFFFFFFFFFFFFFFFF AND PUSH20 0xFFFFFFFFFFFFFFFFFFFFFFFFFFFFFFFFFFFFFFFF AND DUP2 MSTORE PUSH1 0x20 ADD SWAP1 DUP2 MSTORE PUSH1 0x20 ADD PUSH0 KECCAK256 DUP1 SLOAD SWAP1 POP SWAP1 POP PUSH0 JUMPDEST DUP2 DUP2 LT ISZERO PUSH2 0x43F JUMPI DUP4 PUSH20 0xFFFFFFFFFFFFFFFFFFFFFFFFFFFFFFFFFFFFFFFF AND PUSH1 0x6 PUSH0 DUP7 PUSH20 0xFFFFFFFFFFFFFFFFFFFFFFFFFFFFFFFFFFFFFFFF AND PUSH20 0xFFFFFFFFFFFFFFFFFFFFFFFFFFFFFFFFFFFFFFFF AND DUP2 MSTORE PUSH1 0x20 ADD SWAP1 DUP2 MSTORE PUSH1 0x20 ADD PUSH0 KECCAK256 DUP3 DUP2 SLOAD DUP2 LT PUSH2 0x3A9 JUMPI PUSH2 0x3A8 PUSH2 0x12D1 JUMP JUMPDEST JUMPDEST SWAP1 PUSH0 MSTORE PUSH1 0x20 PUSH0 KECCAK256 SWAP1 PUSH1 0x3 MUL ADD PUSH1 0x2 ADD PUSH0 SWAP1 SLOAD SWAP1 PUSH2 0x100 EXP SWAP1 DIV PUSH20 0xFFFFFFFFFFFFFFFFFFFFFFFFFFFFFFFFFFFFFFFF AND PUSH20 0xFFFFFFFFFFFFFFFFFFFFFFFFFFFFFFFFFFFFFFFF AND SUB PUSH2 0x432 JUMPI PUSH1 0x40 MLOAD DUP1 PUSH1 0x40 ADD PUSH1 0x40 MSTORE DUP1 PUSH1 0x13 DUP2 MSTORE PUSH1 0x20 ADD PUSH32 0x7573657220617265207265676973746572656400000000000000000000000000 DUP2 MSTORE POP SWAP3 POP POP POP PUSH2 0x47A JUMP JUMPDEST DUP1 DUP1 PUSH1 0x1 ADD SWAP2 POP POP PUSH2 0x33B JUMP JUMPDEST POP PUSH1 0x40 MLOAD DUP1 PUSH1 0x40 ADD PUSH1 0x40 MSTORE DUP1 PUSH1 0x17 DUP2 MSTORE PUSH1 0x20 ADD PUSH32 0x7573657220617265206E6F742072656769737465726564000000000000000000 DUP2 MSTORE POP SWAP2 POP POP JUMPDEST SWAP2 SWAP1 POP JUMP JUMPDEST PUSH1 0x3 SLOAD DUP2 JUMP JUMPDEST PUSH1 0x2 SLOAD DUP2 JUMP JUMPDEST PUSH1 0x60 PUSH1 0x4 PUSH1 0x1 SWAP1 SLOAD SWAP1 PUSH2 0x100 EXP SWAP1 DIV PUSH20 0xFFFFFFFFFFFFFFFFFFFFFFFFFFFFFFFFFFFFFFFF AND PUSH20 0xFFFFFFFFFFFFFFFFFFFFFFFFFFFFFFFFFFFFFFFF AND CALLER PUSH20 0xFFFFFFFFFFFFFFFFFFFFFFFFFFFFFFFFFFFFFFFF AND EQ PUSH2 0x51D JUMPI PUSH1 0x40 MLOAD PUSH32 0x8C379A000000000000000000000000000000000000000000000000000000000 DUP2 MSTORE PUSH1 0x4 ADD PUSH2 0x514 SWAP1 PUSH2 0x1348 JUMP JUMPDEST PUSH1 0x40 MLOAD DUP1 SWAP2 SUB SWAP1 REVERT JUMPDEST PUSH1 0x2 SLOAD SELFBALANCE LT PUSH2 0x606 JUMPI PUSH1 0x4 PUSH1 0x1 SWAP1 SLOAD SWAP1 PUSH2 0x100 EXP SWAP1 DIV PUSH20 0xFFFFFFFFFFFFFFFFFFFFFFFFFFFFFFFFFFFFFFFF AND PUSH20 0xFFFFFFFFFFFFFFFFFFFFFFFFFFFFFFFFFFFFFFFF AND PUSH2 0x8FC SELFBALANCE SWAP1 DUP2 ISZERO MUL SWAP1 PUSH1 0x40 MLOAD PUSH0 PUSH1 0x40 MLOAD DUP1 DUP4 SUB DUP2 DUP6 DUP9 DUP9 CALL SWAP4 POP POP POP POP ISZERO DUP1 ISZERO PUSH2 0x58B JUMPI RETURNDATASIZE PUSH0 DUP1 RETURNDATACOPY RETURNDATASIZE PUSH0 REVERT JUMPDEST POP PUSH2 0x594 PUSH2 0x644 JUMP JUMPDEST PUSH1 0x2 PUSH0 DUP1 PUSH2 0x100 EXP DUP2 SLOAD DUP2 PUSH1 0xFF MUL NOT AND SWAP1 DUP4 PUSH1 0x3 DUP2 GT ISZERO PUSH2 0x5B8 JUMPI PUSH2 0x5B7 PUSH2 0x1366 JUMP JUMPDEST JUMPDEST MUL OR SWAP1 SSTORE POP PUSH32 0x4C51D260ED01191BD8C324DCC6426BA425E832F37A19E155C7182BAA9839BD43 CALLER SELFBALANCE PUSH1 0x40 MLOAD PUSH2 0x5EE SWAP3 SWAP2 SWAP1 PUSH2 0x1393 JUMP JUMPDEST PUSH1 0x40 MLOAD DUP1 SWAP2 SUB SWAP1 LOG1 PUSH2 0x5FF CALLER PUSH2 0x9FE JUMP JUMPDEST SWAP1 POP PUSH2 0x641 JUMP JUMPDEST PUSH1 0x40 MLOAD PUSH32 0x8C379A000000000000000000000000000000000000000000000000000000000 DUP2 MSTORE PUSH1 0x4 ADD PUSH2 0x638 SWAP1 PUSH2 0x142A JUMP JUMPDEST PUSH1 0x40 MLOAD DUP1 SWAP2 SUB SWAP1 REVERT JUMPDEST SWAP1 JUMP JUMPDEST PUSH0 PUSH1 0x4 PUSH0 PUSH2 0x100 EXP DUP2 SLOAD DUP2 PUSH1 0xFF MUL NOT AND SWAP1 DUP4 ISZERO ISZERO MUL OR SWAP1 SSTORE POP JUMP JUMPDEST PUSH1 0x4 PUSH0 SWAP1 SLOAD SWAP1 PUSH2 0x100 EXP SWAP1 DIV PUSH1 0xFF AND PUSH2 0x6AD JUMPI PUSH1 0x40 MLOAD PUSH32 0x8C379A000000000000000000000000000000000000000000000000000000000 DUP2 MSTORE PUSH1 0x4 ADD PUSH2 0x6A4 SWAP1 PUSH2 0x1492 JUMP JUMPDEST PUSH1 0x40 MLOAD DUP1 SWAP2 SUB SWAP1 REVERT JUMPDEST PUSH2 0x6B8 DUP4 DUP4 DUP4 PUSH2 0xC0B JUMP JUMPDEST PUSH0 DUP1 PUSH0 PUSH2 0x100 EXP DUP2 SLOAD DUP2 PUSH1 0xFF MUL NOT AND SWAP1 DUP4 PUSH1 0x3 DUP2 GT ISZERO PUSH2 0x6DB JUMPI PUSH2 0x6DA PUSH2 0x1366 JUMP JUMPDEST JUMPDEST MUL OR SWAP1 SSTORE POP PUSH32 0x1DFD8CEC52292C44A89BE6BD42F905DDC92C63B3A343C239093964D1038E1B9B CALLER DUP5 DUP5 PUSH1 0x40 MLOAD PUSH2 0x713 SWAP4 SWAP3 SWAP2 SWAP1 PUSH2 0x14B0 JUMP JUMPDEST PUSH1 0x40 MLOAD DUP1 SWAP2 SUB SWAP1 LOG1 POP POP POP JUMP JUMPDEST PUSH1 0x2 SLOAD SELFBALANCE LT DUP1 PUSH2 0x732 JUMPI POP PUSH1 0x3 SLOAD TIMESTAMP LT ISZERO JUMPDEST ISZERO PUSH2 0x77C JUMPI CALLER PUSH20 0xFFFFFFFFFFFFFFFFFFFFFFFFFFFFFFFFFFFFFFFF AND PUSH2 0x8FC SELFBALANCE SWAP1 DUP2 ISZERO MUL SWAP1 PUSH1 0x40 MLOAD PUSH0 PUSH1 0x40 MLOAD DUP1 DUP4 SUB DUP2 DUP6 DUP9 DUP9 CALL SWAP4 POP POP POP POP ISZERO DUP1 ISZERO PUSH2 0x77A JUMPI RETURNDATASIZE PUSH0 DUP1 RETURNDATACOPY RETURNDATASIZE PUSH0 REVERT JUMPDEST POP JUMPDEST PUSH1 0x3 PUSH0 DUP1 PUSH2 0x100 EXP DUP2 SLOAD DUP2 PUSH1 0xFF MUL NOT AND SWAP1 DUP4 PUSH1 0x3 DUP2 GT ISZERO PUSH2 0x7A0 JUMPI PUSH2 0x79F PUSH2 0x1366 JUMP JUMPDEST JUMPDEST MUL OR SWAP1 SSTORE POP PUSH32 0x13449F70035221BFD809CB8D8994F004F2F917BBC10A9F431BFA7B3F423C0B25 CALLER CALLVALUE PUSH1 0x40 MLOAD PUSH2 0x7D6 SWAP3 SWAP2 SWAP1 PUSH2 0x1393 JUMP JUMPDEST PUSH1 0x40 MLOAD DUP1 SWAP2 SUB SWAP1 LOG1 JUMP JUMPDEST PUSH1 0x5 SLOAD DUP2 JUMP JUMPDEST PUSH1 0x7 PUSH1 0x20 MSTORE DUP1 PUSH0 MSTORE PUSH1 0x40 PUSH0 KECCAK256 PUSH0 SWAP2 POP SWAP1 POP SLOAD DUP2 JUMP JUMPDEST PUSH1 0x60 PUSH1 0x4 PUSH1 0x1 SWAP1 SLOAD SWAP1 PUSH2 0x100 EXP SWAP1 DIV PUSH20 0xFFFFFFFFFFFFFFFFFFFFFFFFFFFFFFFFFFFFFFFF AND PUSH20 0xFFFFFFFFFFFFFFFFFFFFFFFFFFFFFFFFFFFFFFFF AND CALLER PUSH20 0xFFFFFFFFFFFFFFFFFFFFFFFFFFFFFFFFFFFFFFFF AND EQ PUSH2 0x88D JUMPI PUSH1 0x40 MLOAD PUSH32 0x8C379A000000000000000000000000000000000000000000000000000000000 DUP2 MSTORE PUSH1 0x4 ADD PUSH2 0x884 SWAP1 PUSH2 0x1348 JUMP JUMPDEST PUSH1 0x40 MLOAD DUP1 SWAP2 SUB SWAP1 REVERT JUMPDEST PUSH1 0x4 PUSH0 SWAP1 SLOAD SWAP1 PUSH2 0x100 EXP SWAP1 DIV PUSH1 0xFF AND PUSH2 0x8DB JUMPI PUSH1 0x40 MLOAD PUSH32 0x8C379A000000000000000000000000000000000000000000000000000000000 DUP2 MSTORE PUSH1 0x4 ADD PUSH2 0x8D2 SWAP1 PUSH2 0x1492 JUMP JUMPDEST PUSH1 0x40 MLOAD DUP1 SWAP2 SUB SWAP1 REVERT JUMPDEST PUSH1 0x3 SLOAD TIMESTAMP GT ISZERO PUSH2 0x920 JUMPI PUSH1 0x40 MLOAD PUSH32 0x8C379A000000000000000000000000000000000000000000000000000000000 DUP2 MSTORE PUSH1 0x4 ADD PUSH2 0x917 SWAP1 PUSH2 0x1563 JUMP JUMPDEST PUSH1 0x40 MLOAD DUP1 SWAP2 SUB SWAP1 REVERT JUMPDEST DUP3 PUSH20 0xFFFFFFFFFFFFFFFFFFFFFFFFFFFFFFFFFFFFFFFF AND PUSH2 0x8FC DUP4 SWAP1 DUP2 ISZERO MUL SWAP1 PUSH1 0x40 MLOAD PUSH0 PUSH1 0x40 MLOAD DUP1 DUP4 SUB DUP2 DUP6 DUP9 DUP9 CALL SWAP4 POP POP POP POP ISZERO DUP1 ISZERO PUSH2 0x963 JUMPI RETURNDATASIZE PUSH0 DUP1 RETURNDATACOPY RETURNDATASIZE PUSH0 REVERT JUMPDEST POP PUSH1 0x1 PUSH0 DUP1 PUSH2 0x100 EXP DUP2 SLOAD DUP2 PUSH1 0xFF MUL NOT AND SWAP1 DUP4 PUSH1 0x3 DUP2 GT ISZERO PUSH2 0x988 JUMPI PUSH2 0x987 PUSH2 0x1366 JUMP JUMPDEST JUMPDEST MUL OR SWAP1 SSTORE POP PUSH32 0x550B521CF33B3A7FE1363EA8BED6130500D8A27CED06A0FC13576B96CF155289 CALLER DUP4 PUSH1 0x40 MLOAD PUSH2 0x9BE SWAP3 SWAP2 SWAP1 PUSH2 0x1393 JUMP JUMPDEST PUSH1 0x40 MLOAD DUP1 SWAP2 SUB SWAP1 LOG1 PUSH2 0x9CF DUP4 PUSH2 0x9FE JUMP JUMPDEST SWAP1 POP SWAP4 SWAP3 POP POP POP JUMP JUMPDEST PUSH1 0x4 PUSH1 0x1 SWAP1 SLOAD SWAP1 PUSH2 0x100 EXP SWAP1 DIV PUSH20 0xFFFFFFFFFFFFFFFFFFFFFFFFFFFFFFFFFFFFFFFF AND DUP2 JUMP JUMPDEST PUSH1 0x60 PUSH1 0x6 PUSH0 DUP4 PUSH20 0xFFFFFFFFFFFFFFFFFFFFFFFFFFFFFFFFFFFFFFFF AND PUSH20 0xFFFFFFFFFFFFFFFFFFFFFFFFFFFFFFFFFFFFFFFF AND DUP2 MSTORE PUSH1 0x20 ADD SWAP1 DUP2 MSTORE PUSH1 0x20 ADD PUSH0 KECCAK256 DUP1 SLOAD DUP1 PUSH1 0x20 MUL PUSH1 0x20 ADD PUSH1 0x40 MLOAD SWAP1 DUP2 ADD PUSH1 0x40 MSTORE DUP1 SWAP3 SWAP2 SWAP1 DUP2 DUP2 MSTORE PUSH1 0x20 ADD PUSH0 SWAP1 JUMPDEST DUP3 DUP3 LT ISZERO PUSH2 0xC00 JUMPI DUP4 DUP3 SWAP1 PUSH0 MSTORE PUSH1 0x20 PUSH0 KECCAK256 SWAP1 PUSH1 0x3 MUL ADD PUSH1 0x40 MLOAD DUP1 PUSH1 0x60 ADD PUSH1 0x40 MSTORE SWAP1 DUP2 PUSH0 DUP3 ADD DUP1 SLOAD PUSH2 0xA8C SWAP1 PUSH2 0x15AE JUMP JUMPDEST DUP1 PUSH1 0x1F ADD PUSH1 0x20 DUP1 SWAP2 DIV MUL PUSH1 0x20 ADD PUSH1 0x40 MLOAD SWAP1 DUP2 ADD PUSH1 0x40 MSTORE DUP1 SWAP3 SWAP2 SWAP1 DUP2 DUP2 MSTORE PUSH1 0x20 ADD DUP3 DUP1 SLOAD PUSH2 0xAB8 SWAP1 PUSH2 0x15AE JUMP JUMPDEST DUP1 ISZERO PUSH2 0xB03 JUMPI DUP1 PUSH1 0x1F LT PUSH2 0xADA JUMPI PUSH2 0x100 DUP1 DUP4 SLOAD DIV MUL DUP4 MSTORE SWAP2 PUSH1 0x20 ADD SWAP2 PUSH2 0xB03 JUMP JUMPDEST DUP3 ADD SWAP2 SWAP1 PUSH0 MSTORE PUSH1 0x20 PUSH0 KECCAK256 SWAP1 JUMPDEST DUP2 SLOAD DUP2 MSTORE SWAP1 PUSH1 0x1 ADD SWAP1 PUSH1 0x20 ADD DUP1 DUP4 GT PUSH2 0xAE6 JUMPI DUP3 SWAP1 SUB PUSH1 0x1F AND DUP3 ADD SWAP2 JUMPDEST POP POP POP POP POP DUP2 MSTORE PUSH1 0x20 ADD PUSH1 0x1 DUP3 ADD DUP1 SLOAD PUSH2 0xB1C SWAP1 PUSH2 0x15AE JUMP JUMPDEST DUP1 PUSH1 0x1F ADD PUSH1 0x20 DUP1 SWAP2 DIV MUL PUSH1 0x20 ADD PUSH1 0x40 MLOAD SWAP1 DUP2 ADD PUSH1 0x40 MSTORE DUP1 SWAP3 SWAP2 SWAP1 DUP2 DUP2 MSTORE PUSH1 0x20 ADD DUP3 DUP1 SLOAD PUSH2 0xB48 SWAP1 PUSH2 0x15AE JUMP JUMPDEST DUP1 ISZERO PUSH2 0xB93 JUMPI DUP1 PUSH1 0x1F LT PUSH2 0xB6A JUMPI PUSH2 0x100 DUP1 DUP4 SLOAD DIV MUL DUP4 MSTORE SWAP2 PUSH1 0x20 ADD SWAP2 PUSH2 0xB93 JUMP JUMPDEST DUP3 ADD SWAP2 SWAP1 PUSH0 MSTORE PUSH1 0x20 PUSH0 KECCAK256 SWAP1 JUMPDEST DUP2 SLOAD DUP2 MSTORE SWAP1 PUSH1 0x1 ADD SWAP1 PUSH1 0x20 ADD DUP1 DUP4 GT PUSH2 0xB76 JUMPI DUP3 SWAP1 SUB PUSH1 0x1F AND DUP3 ADD SWAP2 JUMPDEST POP POP POP POP POP DUP2 MSTORE PUSH1 0x20 ADD PUSH1 0x2 DUP3 ADD PUSH0 SWAP1 SLOAD SWAP1 PUSH2 0x100 EXP SWAP1 DIV PUSH20 0xFFFFFFFFFFFFFFFFFFFFFFFFFFFFFFFFFFFFFFFF AND PUSH20 0xFFFFFFFFFFFFFFFFFFFFFFFFFFFFFFFFFFFFFFFF AND PUSH20 0xFFFFFFFFFFFFFFFFFFFFFFFFFFFFFFFFFFFFFFFF AND DUP2 MSTORE POP POP DUP2 MSTORE PUSH1 0x20 ADD SWAP1 PUSH1 0x1 ADD SWAP1 PUSH2 0xA5C JUMP JUMPDEST POP POP POP POP SWAP1 POP SWAP2 SWAP1 POP JUMP JUMPDEST PUSH1 0x6 PUSH0 DUP3 PUSH20 0xFFFFFFFFFFFFFFFFFFFFFFFFFFFFFFFFFFFFFFFF AND PUSH20 0xFFFFFFFFFFFFFFFFFFFFFFFFFFFFFFFFFFFFFFFF AND DUP2 MSTORE PUSH1 0x20 ADD SWAP1 DUP2 MSTORE PUSH1 0x20 ADD PUSH0 KECCAK256 PUSH1 0x40 MLOAD DUP1 PUSH1 0x60 ADD PUSH1 0x40 MSTORE DUP1 DUP6 DUP2 MSTORE PUSH1 0x20 ADD DUP5 DUP2 MSTORE PUSH1 0x20 ADD DUP4 PUSH20 0xFFFFFFFFFFFFFFFFFFFFFFFFFFFFFFFFFFFFFFFF AND DUP2 MSTORE POP SWAP1 DUP1 PUSH1 0x1 DUP2 SLOAD ADD DUP1 DUP3 SSTORE DUP1 SWAP2 POP POP PUSH1 0x1 SWAP1 SUB SWAP1 PUSH0 MSTORE PUSH1 0x20 PUSH0 KECCAK256 SWAP1 PUSH1 0x3 MUL ADD PUSH0 SWAP1 SWAP2 SWAP1 SWAP2 SWAP1 SWAP2 POP PUSH0 DUP3 ADD MLOAD DUP2 PUSH0 ADD SWAP1 DUP2 PUSH2 0xCB2 SWAP2 SWAP1 PUSH2 0x177B JUMP JUMPDEST POP PUSH1 0x20 DUP3 ADD MLOAD DUP2 PUSH1 0x1 ADD SWAP1 DUP2 PUSH2 0xCC8 SWAP2 SWAP1 PUSH2 0x177B JUMP JUMPDEST POP PUSH1 0x40 DUP3 ADD MLOAD DUP2 PUSH1 0x2 ADD PUSH0 PUSH2 0x100 EXP DUP2 SLOAD DUP2 PUSH20 0xFFFFFFFFFFFFFFFFFFFFFFFFFFFFFFFFFFFFFFFF MUL NOT AND SWAP1 DUP4 PUSH20 0xFFFFFFFFFFFFFFFFFFFFFFFFFFFFFFFFFFFFFFFF AND MUL OR SWAP1 SSTORE POP POP POP POP POP POP JUMP JUMPDEST PUSH0 DUP2 ISZERO ISZERO SWAP1 POP SWAP2 SWAP1 POP JUMP JUMPDEST PUSH2 0xD2A DUP2 PUSH2 0xD16 JUMP JUMPDEST DUP3 MSTORE POP POP JUMP JUMPDEST PUSH0 PUSH1 0x20 DUP3 ADD SWAP1 POP PUSH2 0xD43 PUSH0 DUP4 ADD DUP5 PUSH2 0xD21 JUMP JUMPDEST SWAP3 SWAP2 POP POP JUMP JUMPDEST PUSH0 PUSH1 0x40 MLOAD SWAP1 POP SWAP1 JUMP JUMPDEST PUSH0 DUP1 REVERT JUMPDEST PUSH0 DUP1 REVERT JUMPDEST PUSH0 PUSH20 0xFFFFFFFFFFFFFFFFFFFFFFFFFFFFFFFFFFFFFFFF DUP3 AND SWAP1 POP SWAP2 SWAP1 POP JUMP JUMPDEST PUSH0 PUSH2 0xD83 DUP3 PUSH2 0xD5A JUMP JUMPDEST SWAP1 POP SWAP2 SWAP1 POP JUMP JUMPDEST PUSH2 0xD93 DUP2 PUSH2 0xD79 JUMP JUMPDEST DUP2 EQ PUSH2 0xD9D JUMPI PUSH0 DUP1 REVERT JUMPDEST POP JUMP JUMPDEST PUSH0 DUP2 CALLDATALOAD SWAP1 POP PUSH2 0xDAE DUP2 PUSH2 0xD8A JUMP JUMPDEST SWAP3 SWAP2 POP POP JUMP JUMPDEST PUSH0 PUSH1 0x20 DUP3 DUP5 SUB SLT ISZERO PUSH2 0xDC9 JUMPI PUSH2 0xDC8 PUSH2 0xD52 JUMP JUMPDEST JUMPDEST PUSH0 PUSH2 0xDD6 DUP5 DUP3 DUP6 ADD PUSH2 0xDA0 JUMP JUMPDEST SWAP2 POP POP SWAP3 SWAP2 POP POP JUMP JUMPDEST PUSH0 DUP2 MLOAD SWAP1 POP SWAP2 SWAP1 POP JUMP JUMPDEST PUSH0 DUP3 DUP3 MSTORE PUSH1 0x20 DUP3 ADD SWAP1 POP SWAP3 SWAP2 POP POP JUMP JUMPDEST PUSH0 JUMPDEST DUP4 DUP2 LT ISZERO PUSH2 0xE16 JUMPI DUP1 DUP3 ADD MLOAD DUP2 DUP5 ADD MSTORE PUSH1 0x20 DUP2 ADD SWAP1 POP PUSH2 0xDFB JUMP JUMPDEST PUSH0 DUP5 DUP5 ADD MSTORE POP POP POP POP JUMP JUMPDEST PUSH0 PUSH1 0x1F NOT PUSH1 0x1F DUP4 ADD AND SWAP1 POP SWAP2 SWAP1 POP JUMP JUMPDEST PUSH0 PUSH2 0xE3B DUP3 PUSH2 0xDDF JUMP JUMPDEST PUSH2 0xE45 DUP2 DUP6 PUSH2 0xDE9 JUMP JUMPDEST SWAP4 POP PUSH2 0xE55 DUP2 DUP6 PUSH1 0x20 DUP7 ADD PUSH2 0xDF9 JUMP JUMPDEST PUSH2 0xE5E DUP2 PUSH2 0xE21 JUMP JUMPDEST DUP5 ADD SWAP2 POP POP SWAP3 SWAP2 POP POP JUMP JUMPDEST PUSH0 PUSH1 0x20 DUP3 ADD SWAP1 POP DUP2 DUP2 SUB PUSH0 DUP4 ADD MSTORE PUSH2 0xE81 DUP2 DUP5 PUSH2 0xE31 JUMP JUMPDEST SWAP1 POP SWAP3 SWAP2 POP POP JUMP JUMPDEST PUSH0 DUP2 SWAP1 POP SWAP2 SWAP1 POP JUMP JUMPDEST PUSH2 0xE9B DUP2 PUSH2 0xE89 JUMP JUMPDEST DUP3 MSTORE POP POP JUMP JUMPDEST PUSH0 PUSH1 0x20 DUP3 ADD SWAP1 POP PUSH2 0xEB4 PUSH0 DUP4 ADD DUP5 PUSH2 0xE92 JUMP JUMPDEST SWAP3 SWAP2 POP POP JUMP JUMPDEST PUSH0 DUP2 MLOAD SWAP1 POP SWAP2 SWAP1 POP JUMP JUMPDEST PUSH0 DUP3 DUP3 MSTORE PUSH1 0x20 DUP3 ADD SWAP1 POP SWAP3 SWAP2 POP POP JUMP JUMPDEST PUSH0 DUP2 SWAP1 POP PUSH1 0x20 DUP3 ADD SWAP1 POP SWAP2 SWAP1 POP JUMP JUMPDEST PUSH0 DUP3 DUP3 MSTORE PUSH1 0x20 DUP3 ADD SWAP1 POP SWAP3 SWAP2 POP POP JUMP JUMPDEST PUSH0 PUSH2 0xEFD DUP3 PUSH2 0xDDF JUMP JUMPDEST PUSH2 0xF07 DUP2 DUP6 PUSH2 0xEE3 JUMP JUMPDEST SWAP4 POP PUSH2 0xF17 DUP2 DUP6 PUSH1 0x20 DUP7 ADD PUSH2 0xDF9 JUMP JUMPDEST PUSH2 0xF20 DUP2 PUSH2 0xE21 JUMP JUMPDEST DUP5 ADD SWAP2 POP POP SWAP3 SWAP2 POP POP JUMP JUMPDEST PUSH2 0xF34 DUP2 PUSH2 0xD79 JUMP JUMPDEST DUP3 MSTORE POP POP JUMP JUMPDEST PUSH0 PUSH1 0x60 DUP4 ADD PUSH0 DUP4 ADD MLOAD DUP5 DUP3 SUB PUSH0 DUP7 ADD MSTORE PUSH2 0xF54 DUP3 DUP3 PUSH2 0xEF3 JUMP JUMPDEST SWAP2 POP POP PUSH1 0x20 DUP4 ADD MLOAD DUP5 DUP3 SUB PUSH1 0x20 DUP7 ADD MSTORE PUSH2 0xF6E DUP3 DUP3 PUSH2 0xEF3 JUMP JUMPDEST SWAP2 POP POP PUSH1 0x40 DUP4 ADD MLOAD PUSH2 0xF83 PUSH1 0x40 DUP7 ADD DUP3 PUSH2 0xF2B JUMP JUMPDEST POP DUP1 SWAP2 POP POP SWAP3 SWAP2 POP POP JUMP JUMPDEST PUSH0 PUSH2 0xF99 DUP4 DUP4 PUSH2 0xF3A JUMP JUMPDEST SWAP1 POP SWAP3 SWAP2 POP POP JUMP JUMPDEST PUSH0 PUSH1 0x20 DUP3 ADD SWAP1 POP SWAP2 SWAP1 POP JUMP JUMPDEST PUSH0 PUSH2 0xFB7 DUP3 PUSH2 0xEBA JUMP JUMPDEST PUSH2 0xFC1 DUP2 DUP6 PUSH2 0xEC4 JUMP JUMPDEST SWAP4 POP DUP4 PUSH1 0x20 DUP3 MUL DUP6 ADD PUSH2 0xFD3 DUP6 PUSH2 0xED4 JUMP JUMPDEST DUP1 PUSH0 JUMPDEST DUP6 DUP2 LT ISZERO PUSH2 0x100E JUMPI DUP5 DUP5 SUB DUP10 MSTORE DUP2 MLOAD PUSH2 0xFEF DUP6 DUP3 PUSH2 0xF8E JUMP JUMPDEST SWAP5 POP PUSH2 0xFFA DUP4 PUSH2 0xFA1 JUMP JUMPDEST SWAP3 POP PUSH1 0x20 DUP11 ADD SWAP10 POP POP PUSH1 0x1 DUP2 ADD SWAP1 POP PUSH2 0xFD6 JUMP JUMPDEST POP DUP3 SWAP8 POP DUP8 SWAP6 POP POP POP POP POP POP SWAP3 SWAP2 POP POP JUMP JUMPDEST PUSH0 PUSH1 0x20 DUP3 ADD SWAP1 POP DUP2 DUP2 SUB PUSH0 DUP4 ADD MSTORE PUSH2 0x1038 DUP2 DUP5 PUSH2 0xFAD JUMP JUMPDEST SWAP1 POP SWAP3 SWAP2 POP POP JUMP JUMPDEST PUSH0 DUP1 REVERT JUMPDEST PUSH0 DUP1 REVERT JUMPDEST PUSH32 0x4E487B7100000000000000000000000000000000000000000000000000000000 PUSH0 MSTORE PUSH1 0x41 PUSH1 0x4 MSTORE PUSH1 0x24 PUSH0 REVERT JUMPDEST PUSH2 0x107E DUP3 PUSH2 0xE21 JUMP JUMPDEST DUP2 ADD DUP2 DUP2 LT PUSH8 0xFFFFFFFFFFFFFFFF DUP3 GT OR ISZERO PUSH2 0x109D JUMPI PUSH2 0x109C PUSH2 0x1048 JUMP JUMPDEST JUMPDEST DUP1 PUSH1 0x40 MSTORE POP POP POP JUMP JUMPDEST PUSH0 PUSH2 0x10AF PUSH2 0xD49 JUMP JUMPDEST SWAP1 POP PUSH2 0x10BB DUP3 DUP3 PUSH2 0x1075 JUMP JUMPDEST SWAP2 SWAP1 POP JUMP JUMPDEST PUSH0 PUSH8 0xFFFFFFFFFFFFFFFF DUP3 GT ISZERO PUSH2 0x10DA JUMPI PUSH2 0x10D9 PUSH2 0x1048 JUMP JUMPDEST JUMPDEST PUSH2 0x10E3 DUP3 PUSH2 0xE21 JUMP JUMPDEST SWAP1 POP PUSH1 0x20 DUP2 ADD SWAP1 POP SWAP2 SWAP1 POP JUMP JUMPDEST DUP3 DUP2 DUP4 CALLDATACOPY PUSH0 DUP4 DUP4 ADD MSTORE POP POP POP JUMP JUMPDEST PUSH0 PUSH2 0x1110 PUSH2 0x110B DUP5 PUSH2 0x10C0 JUMP JUMPDEST PUSH2 0x10A6 JUMP JUMPDEST SWAP1 POP DUP3 DUP2 MSTORE PUSH1 0x20 DUP2 ADD DUP5 DUP5 DUP5 ADD GT ISZERO PUSH2 0x112C JUMPI PUSH2 0x112B PUSH2 0x1044 JUMP JUMPDEST JUMPDEST PUSH2 0x1137 DUP5 DUP3 DUP6 PUSH2 0x10F0 JUMP JUMPDEST POP SWAP4 SWAP3 POP POP POP JUMP JUMPDEST PUSH0 DUP3 PUSH1 0x1F DUP4 ADD SLT PUSH2 0x1153 JUMPI PUSH2 0x1152 PUSH2 0x1040 JUMP JUMPDEST JUMPDEST DUP2 CALLDATALOAD PUSH2 0x1163 DUP5 DUP3 PUSH1 0x20 DUP7 ADD PUSH2 0x10FE JUMP JUMPDEST SWAP2 POP POP SWAP3 SWAP2 POP POP JUMP JUMPDEST PUSH0 DUP1 PUSH0 PUSH1 0x60 DUP5 DUP7 SUB SLT ISZERO PUSH2 0x1183 JUMPI PUSH2 0x1182 PUSH2 0xD52 JUMP JUMPDEST JUMPDEST PUSH0 DUP5 ADD CALLDATALOAD PUSH8 0xFFFFFFFFFFFFFFFF DUP2 GT ISZERO PUSH2 0x11A0 JUMPI PUSH2 0x119F PUSH2 0xD56 JUMP JUMPDEST JUMPDEST PUSH2 0x11AC DUP7 DUP3 DUP8 ADD PUSH2 0x113F JUMP JUMPDEST SWAP4 POP POP PUSH1 0x20 DUP5 ADD CALLDATALOAD PUSH8 0xFFFFFFFFFFFFFFFF DUP2 GT ISZERO PUSH2 0x11CD JUMPI PUSH2 0x11CC PUSH2 0xD56 JUMP JUMPDEST JUMPDEST PUSH2 0x11D9 DUP7 DUP3 DUP8 ADD PUSH2 0x113F JUMP JUMPDEST SWAP3 POP POP PUSH1 0x40 PUSH2 0x11EA DUP7 DUP3 DUP8 ADD PUSH2 0xDA0 JUMP JUMPDEST SWAP2 POP POP SWAP3 POP SWAP3 POP SWAP3 JUMP JUMPDEST PUSH0 PUSH2 0x11FE DUP3 PUSH2 0xD5A JUMP JUMPDEST SWAP1 POP SWAP2 SWAP1 POP JUMP JUMPDEST PUSH2 0x120E DUP2 PUSH2 0x11F4 JUMP JUMPDEST DUP2 EQ PUSH2 0x1218 JUMPI PUSH0 DUP1 REVERT JUMPDEST POP JUMP JUMPDEST PUSH0 DUP2 CALLDATALOAD SWAP1 POP PUSH2 0x1229 DUP2 PUSH2 0x1205 JUMP JUMPDEST SWAP3 SWAP2 POP POP JUMP JUMPDEST PUSH2 0x1238 DUP2 PUSH2 0xE89 JUMP JUMPDEST DUP2 EQ PUSH2 0x1242 JUMPI PUSH0 DUP1 REVERT JUMPDEST POP JUMP JUMPDEST PUSH0 DUP2 CALLDATALOAD SWAP1 POP PUSH2 0x1253 DUP2 PUSH2 0x122F JUMP JUMPDEST SWAP3 SWAP2 POP POP JUMP JUMPDEST PUSH0 DUP1 PUSH0 PUSH1 0x60 DUP5 DUP7 SUB SLT ISZERO PUSH2 0x1270 JUMPI PUSH2 0x126F PUSH2 0xD52 JUMP JUMPDEST JUMPDEST PUSH0 PUSH2 0x127D DUP7 DUP3 DUP8 ADD PUSH2 0x121B JUMP JUMPDEST SWAP4 POP POP PUSH1 0x20 PUSH2 0x128E DUP7 DUP3 DUP8 ADD PUSH2 0x121B JUMP JUMPDEST SWAP3 POP POP PUSH1 0x40 PUSH2 0x129F DUP7 DUP3 DUP8 ADD PUSH2 0x1245 JUMP JUMPDEST SWAP2 POP POP SWAP3 POP SWAP3 POP SWAP3 JUMP JUMPDEST PUSH2 0x12B2 DUP2 PUSH2 0xD79 JUMP JUMPDEST DUP3 MSTORE POP POP JUMP JUMPDEST PUSH0 PUSH1 0x20 DUP3 ADD SWAP1 POP PUSH2 0x12CB PUSH0 DUP4 ADD DUP5 PUSH2 0x12A9 JUMP JUMPDEST SWAP3 SWAP2 POP POP JUMP JUMPDEST PUSH32 0x4E487B7100000000000000000000000000000000000000000000000000000000 PUSH0 MSTORE PUSH1 0x32 PUSH1 0x4 MSTORE PUSH1 0x24 PUSH0 REVERT JUMPDEST PUSH32 0x6F6E6C79206F776E65722063616E2075736520746869732066756E6374696F6E PUSH0 DUP3 ADD MSTORE POP JUMP JUMPDEST PUSH0 PUSH2 0x1332 PUSH1 0x20 DUP4 PUSH2 0xDE9 JUMP JUMPDEST SWAP2 POP PUSH2 0x133D DUP3 PUSH2 0x12FE JUMP JUMPDEST PUSH1 0x20 DUP3 ADD SWAP1 POP SWAP2 SWAP1 POP JUMP JUMPDEST PUSH0 PUSH1 0x20 DUP3 ADD SWAP1 POP DUP2 DUP2 SUB PUSH0 DUP4 ADD MSTORE PUSH2 0x135F DUP2 PUSH2 0x1326 JUMP JUMPDEST SWAP1 POP SWAP2 SWAP1 POP JUMP JUMPDEST PUSH32 0x4E487B7100000000000000000000000000000000000000000000000000000000 PUSH0 MSTORE PUSH1 0x21 PUSH1 0x4 MSTORE PUSH1 0x24 PUSH0 REVERT JUMPDEST PUSH0 PUSH1 0x40 DUP3 ADD SWAP1 POP PUSH2 0x13A6 PUSH0 DUP4 ADD DUP6 PUSH2 0x12A9 JUMP JUMPDEST PUSH2 0x13B3 PUSH1 0x20 DUP4 ADD DUP5 PUSH2 0xE92 JUMP JUMPDEST SWAP4 SWAP3 POP POP POP JUMP JUMPDEST PUSH32 0x66756E647320617265206E6F742073756666696369656E7420666F7220636C61 PUSH0 DUP3 ADD MSTORE PUSH32 0x696D696E67000000000000000000000000000000000000000000000000000000 PUSH1 0x20 DUP3 ADD MSTORE POP JUMP JUMPDEST PUSH0 PUSH2 0x1414 PUSH1 0x25 DUP4 PUSH2 0xDE9 JUMP JUMPDEST SWAP2 POP PUSH2 0x141F DUP3 PUSH2 0x13BA JUMP JUMPDEST PUSH1 0x40 DUP3 ADD SWAP1 POP SWAP2 SWAP1 POP JUMP JUMPDEST PUSH0 PUSH1 0x20 DUP3 ADD SWAP1 POP DUP2 DUP2 SUB PUSH0 DUP4 ADD MSTORE PUSH2 0x1441 DUP2 PUSH2 0x1408 JUMP JUMPDEST SWAP1 POP SWAP2 SWAP1 POP JUMP JUMPDEST PUSH32 0x7374617465206973206E6F742061637469766500000000000000000000000000 PUSH0 DUP3 ADD MSTORE POP JUMP JUMPDEST PUSH0 PUSH2 0x147C PUSH1 0x13 DUP4 PUSH2 0xDE9 JUMP JUMPDEST SWAP2 POP PUSH2 0x1487 DUP3 PUSH2 0x1448 JUMP JUMPDEST PUSH1 0x20 DUP3 ADD SWAP1 POP SWAP2 SWAP1 POP JUMP JUMPDEST PUSH0 PUSH1 0x20 DUP3 ADD SWAP1 POP DUP2 DUP2 SUB PUSH0 DUP4 ADD MSTORE PUSH2 0x14A9 DUP2 PUSH2 0x1470 JUMP JUMPDEST SWAP1 POP SWAP2 SWAP1 POP JUMP JUMPDEST PUSH0 PUSH1 0x60 DUP3 ADD SWAP1 POP PUSH2 0x14C3 PUSH0 DUP4 ADD DUP7 PUSH2 0x12A9 JUMP JUMPDEST DUP2 DUP2 SUB PUSH1 0x20 DUP4 ADD MSTORE PUSH2 0x14D5 DUP2 DUP6 PUSH2 0xE31 JUMP JUMPDEST SWAP1 POP DUP2 DUP2 SUB PUSH1 0x40 DUP4 ADD MSTORE PUSH2 0x14E9 DUP2 DUP5 PUSH2 0xE31 JUMP JUMPDEST SWAP1 POP SWAP5 SWAP4 POP POP POP POP JUMP JUMPDEST PUSH32 0x74696D6520656E64206E6F7420636F6E747269627574696F6E2061726520616C PUSH0 DUP3 ADD MSTORE PUSH32 0x6C6F776564000000000000000000000000000000000000000000000000000000 PUSH1 0x20 DUP3 ADD MSTORE POP JUMP JUMPDEST PUSH0 PUSH2 0x154D PUSH1 0x25 DUP4 PUSH2 0xDE9 JUMP JUMPDEST SWAP2 POP PUSH2 0x1558 DUP3 PUSH2 0x14F3 JUMP JUMPDEST PUSH1 0x40 DUP3 ADD SWAP1 POP SWAP2 SWAP1 POP JUMP JUMPDEST PUSH0 PUSH1 0x20 DUP3 ADD SWAP1 POP DUP2 DUP2 SUB PUSH0 DUP4 ADD MSTORE PUSH2 0x157A DUP2 PUSH2 0x1541 JUMP JUMPDEST SWAP1 POP SWAP2 SWAP1 POP JUMP JUMPDEST PUSH32 0x4E487B7100000000000000000000000000000000000000000000000000000000 PUSH0 MSTORE PUSH1 0x22 PUSH1 0x4 MSTORE PUSH1 0x24 PUSH0 REVERT JUMPDEST PUSH0 PUSH1 0x2 DUP3 DIV SWAP1 POP PUSH1 0x1 DUP3 AND DUP1 PUSH2 0x15C5 JUMPI PUSH1 0x7F DUP3 AND SWAP2 POP JUMPDEST PUSH1 0x20 DUP3 LT DUP2 SUB PUSH2 0x15D8 JUMPI PUSH2 0x15D7 PUSH2 0x1581 JUMP JUMPDEST JUMPDEST POP SWAP2 SWAP1 POP JUMP JUMPDEST PUSH0 DUP2 SWAP1 POP DUP2 PUSH0 MSTORE PUSH1 0x20 PUSH0 KECCAK256 SWAP1 POP SWAP2 SWAP1 POP JUMP JUMPDEST PUSH0 PUSH1 0x20 PUSH1 0x1F DUP4 ADD DIV SWAP1 POP SWAP2 SWAP1 POP JUMP JUMPDEST PUSH0 DUP3 DUP3 SHL SWAP1 POP SWAP3 SWAP2 POP POP JUMP JUMPDEST PUSH0 PUSH1 0x8 DUP4 MUL PUSH2 0x163A PUSH32 0xFFFFFFFFFFFFFFFFFFFFFFFFFFFFFFFFFFFFFFFFFFFFFFFFFFFFFFFFFFFFFFFF DUP3 PUSH2 0x15FF JUMP JUMPDEST PUSH2 0x1644 DUP7 DUP4 PUSH2 0x15FF JUMP JUMPDEST SWAP6 POP DUP1 NOT DUP5 AND SWAP4 POP DUP1 DUP7 AND DUP5 OR SWAP3 POP POP POP SWAP4 SWAP3 POP POP POP JUMP JUMPDEST PUSH0 DUP2 SWAP1 POP SWAP2 SWAP1 POP JUMP JUMPDEST PUSH0 PUSH2 0x167F PUSH2 0x167A PUSH2 0x1675 DUP5 PUSH2 0xE89 JUMP JUMPDEST PUSH2 0x165C JUMP JUMPDEST PUSH2 0xE89 JUMP JUMPDEST SWAP1 POP SWAP2 SWAP1 POP JUMP JUMPDEST PUSH0 DUP2 SWAP1 POP SWAP2 SWAP1 POP JUMP JUMPDEST PUSH2 0x1698 DUP4 PUSH2 0x1665 JUMP JUMPDEST PUSH2 0x16AC PUSH2 0x16A4 DUP3 PUSH2 0x1686 JUMP JUMPDEST DUP5 DUP5 SLOAD PUSH2 0x160B JUMP JUMPDEST DUP3 SSTORE POP POP POP POP JUMP JUMPDEST PUSH0 SWAP1 JUMP JUMPDEST PUSH2 0x16C0 PUSH2 0x16B4 JUMP JUMPDEST PUSH2 0x16CB DUP2 DUP5 DUP5 PUSH2 0x168F JUMP JUMPDEST POP POP POP JUMP JUMPDEST JUMPDEST DUP2 DUP2 LT ISZERO PUSH2 0x16EE JUMPI PUSH2 0x16E3 PUSH0 DUP3 PUSH2 0x16B8 JUMP JUMPDEST PUSH1 0x1 DUP2 ADD SWAP1 POP PUSH2 0x16D1 JUMP JUMPDEST POP POP JUMP JUMPDEST PUSH1 0x1F DUP3 GT ISZERO PUSH2 0x1733 JUMPI PUSH2 0x1704 DUP2 PUSH2 0x15DE JUMP JUMPDEST PUSH2 0x170D DUP5 PUSH2 0x15F0 JUMP JUMPDEST DUP2 ADD PUSH1 0x20 DUP6 LT ISZERO PUSH2 0x171C JUMPI DUP2 SWAP1 POP JUMPDEST PUSH2 0x1730 PUSH2 0x1728 DUP6 PUSH2 0x15F0 JUMP JUMPDEST DUP4 ADD DUP3 PUSH2 0x16D0 JUMP JUMPDEST POP POP JUMPDEST POP POP POP JUMP JUMPDEST PUSH0 DUP3 DUP3 SHR SWAP1 POP SWAP3 SWAP2 POP POP JUMP JUMPDEST PUSH0 PUSH2 0x1753 PUSH0 NOT DUP5 PUSH1 0x8 MUL PUSH2 0x1738 JUMP JUMPDEST NOT DUP1 DUP4 AND SWAP2 POP POP SWAP3 SWAP2 POP POP JUMP JUMPDEST PUSH0 PUSH2 0x176B DUP4 DUP4 PUSH2 0x1744 JUMP JUMPDEST SWAP2 POP DUP3 PUSH1 0x2 MUL DUP3 OR SWAP1 POP SWAP3 SWAP2 POP POP JUMP JUMPDEST PUSH2 0x1784 DUP3 PUSH2 0xDDF JUMP JUMPDEST PUSH8 0xFFFFFFFFFFFFFFFF DUP2 GT ISZERO PUSH2 0x179D JUMPI PUSH2 0x179C PUSH2 0x1048 JUMP JUMPDEST JUMPDEST PUSH2 0x17A7 DUP3 SLOAD PUSH2 0x15AE JUMP JUMPDEST PUSH2 0x17B2 DUP3 DUP3 DUP6 PUSH2 0x16F2 JUMP JUMPDEST PUSH0 PUSH1 0x20 SWAP1 POP PUSH1 0x1F DUP4 GT PUSH1 0x1 DUP2 EQ PUSH2 0x17E3 JUMPI PUSH0 DUP5 ISZERO PUSH2 0x17D1 JUMPI DUP3 DUP8 ADD MLOAD SWAP1 POP JUMPDEST PUSH2 0x17DB DUP6 DUP3 PUSH2 0x1760 JUMP JUMPDEST DUP7 SSTORE POP PUSH2 0x1842 JUMP JUMPDEST PUSH1 0x1F NOT DUP5 AND PUSH2 0x17F1 DUP7 PUSH2 0x15DE JUMP JUMPDEST PUSH0 JUMPDEST DUP3 DUP2 LT ISZERO PUSH2 0x1818 JUMPI DUP5 DUP10 ADD MLOAD DUP3 SSTORE PUSH1 0x1 DUP3 ADD SWAP2 POP PUSH1 0x20 DUP6 ADD SWAP5 POP PUSH1 0x20 DUP2 ADD SWAP1 POP PUSH2 0x17F3 JUMP JUMPDEST DUP7 DUP4 LT ISZERO PUSH2 0x1835 JUMPI DUP5 DUP10 ADD MLOAD PUSH2 0x1831 PUSH1 0x1F DUP10 AND DUP3 PUSH2 0x1744 JUMP JUMPDEST DUP4 SSTORE POP JUMPDEST PUSH1 0x1 PUSH1 0x2 DUP9 MUL ADD DUP9 SSTORE POP POP POP JUMPDEST POP POP POP POP POP POP JUMP INVALID LOG2 PUSH5 0x6970667358 0x22 SLT KECCAK256 ADDRESS MUL PUSH27 0x1235C9D7069949920694636309302D56B6ABE208236B2937744CAF 0x5E 0xCC PUSH5 0x736F6C6343 STOP ADDMOD AND STOP CALLER "
				},
				"gasEstimates": {
					"creation": {
						"codeDepositCost": "1254400",
						"executionCost": "infinite",
						"totalCost": "infinite"
					},
					"external": {
						"active()": "2467",
						"claim()": "infinite",
						"contribute(address,address,uint256)": "infinite",
						"counter()": "2492",
						"creations(string,string,address)": "infinite",
						"datas(address)": "2824",
						"deactivate()": "24519",
						"endtime()": "2470",
						"getUserDetails(address)": "infinite",
						"goal()": "2492",
						"owner()": "2625",
						"refund()": "infinite",
						"userExists(address)": "infinite"
					},
					"internal": {
						"adduser(string memory,string memory,address)": "infinite",
						"transferOwnership(address)": "infinite"
					}
				},
				"methodIdentifiers": {
					"active()": "02fb0c5e",
					"claim()": "4e71d92d",
					"contribute(address,address,uint256)": "8d472709",
					"counter()": "61bc221a",
					"creations(string,string,address)": "584f6be0",
					"datas(address)": "68a6cdf2",
					"deactivate()": "51b42b00",
					"endtime()": "2ca126f8",
					"getUserDetails(address)": "cc3d967b",
					"goal()": "40193883",
					"owner()": "8da5cb5b",
					"refund()": "590e1ae3",
					"userExists(address)": "0e666e49"
				}
			},
			"storageLayout": {
				"storage": [
					{
						"astId": 9,
						"contract": "contracts/testing_final.sol:final_task",
						"label": "state",
						"offset": 0,
						"slot": "0",
						"type": "t_enum(check_state)6"
					},
					{
						"astId": 45,
						"contract": "contracts/testing_final.sol:final_task",
						"label": "i",
						"offset": 0,
						"slot": "1",
						"type": "t_bytes_storage"
					},
					{
						"astId": 48,
						"contract": "contracts/testing_final.sol:final_task",
						"label": "goal",
						"offset": 0,
						"slot": "2",
						"type": "t_uint256"
					},
					{
						"astId": 54,
						"contract": "contracts/testing_final.sol:final_task",
						"label": "endtime",
						"offset": 0,
						"slot": "3",
						"type": "t_uint256"
					},
					{
						"astId": 56,
						"contract": "contracts/testing_final.sol:final_task",
						"label": "active",
						"offset": 0,
						"slot": "4",
						"type": "t_bool"
					},
					{
						"astId": 58,
						"contract": "contracts/testing_final.sol:final_task",
						"label": "owner",
						"offset": 1,
						"slot": "4",
						"type": "t_address"
					},
					{
						"astId": 60,
						"contract": "contracts/testing_final.sol:final_task",
						"label": "counter",
						"offset": 0,
						"slot": "5",
						"type": "t_uint256"
					},
					{
						"astId": 140,
						"contract": "contracts/testing_final.sol:final_task",
						"label": "data",
						"offset": 0,
						"slot": "6",
						"type": "t_mapping(t_address,t_array(t_struct(funding)134_storage)dyn_storage)"
					},
					{
						"astId": 144,
						"contract": "contracts/testing_final.sol:final_task",
						"label": "datas",
						"offset": 0,
						"slot": "7",
						"type": "t_mapping(t_address,t_uint256)"
					}
				],
				"types": {
					"t_address": {
						"encoding": "inplace",
						"label": "address",
						"numberOfBytes": "20"
					},
					"t_array(t_struct(funding)134_storage)dyn_storage": {
						"base": "t_struct(funding)134_storage",
						"encoding": "dynamic_array",
						"label": "struct final_task.funding[]",
						"numberOfBytes": "32"
					},
					"t_bool": {
						"encoding": "inplace",
						"label": "bool",
						"numberOfBytes": "1"
					},
					"t_bytes_storage": {
						"encoding": "bytes",
						"label": "bytes",
						"numberOfBytes": "32"
					},
					"t_enum(check_state)6": {
						"encoding": "inplace",
						"label": "enum final_task.check_state",
						"numberOfBytes": "1"
					},
					"t_mapping(t_address,t_array(t_struct(funding)134_storage)dyn_storage)": {
						"encoding": "mapping",
						"key": "t_address",
						"label": "mapping(address => struct final_task.funding[])",
						"numberOfBytes": "32",
						"value": "t_array(t_struct(funding)134_storage)dyn_storage"
					},
					"t_mapping(t_address,t_uint256)": {
						"encoding": "mapping",
						"key": "t_address",
						"label": "mapping(address => uint256)",
						"numberOfBytes": "32",
						"value": "t_uint256"
					},
					"t_string_storage": {
						"encoding": "bytes",
						"label": "string",
						"numberOfBytes": "32"
					},
					"t_struct(funding)134_storage": {
						"encoding": "inplace",
						"label": "struct final_task.funding",
						"members": [
							{
								"astId": 129,
								"contract": "contracts/testing_final.sol:final_task",
								"label": "name",
								"offset": 0,
								"slot": "0",
								"type": "t_string_storage"
							},
							{
								"astId": 131,
								"contract": "contracts/testing_final.sol:final_task",
								"label": "discription",
								"offset": 0,
								"slot": "1",
								"type": "t_string_storage"
							},
							{
								"astId": 133,
								"contract": "contracts/testing_final.sol:final_task",
								"label": "user",
								"offset": 0,
								"slot": "2",
								"type": "t_address"
							}
						],
						"numberOfBytes": "96"
					},
					"t_uint256": {
						"encoding": "inplace",
						"label": "uint256",
						"numberOfBytes": "32"
					}
				}
			},
			"userdoc": {
				"kind": "user",
				"methods": {},
				"version": 1
			}
		}
	}
}