{
	"contracts/DAPP_task.sol": {
		"DAPP": {
			"abi": [
				{
					"inputs": [],
					"stateMutability": "nonpayable",
					"type": "constructor"
				},
				{
					"anonymous": false,
					"inputs": [
						{
							"indexed": false,
							"internalType": "address",
							"name": "user",
							"type": "address"
						},
						{
							"indexed": false,
							"internalType": "uint256",
							"name": "id",
							"type": "uint256"
						},
						{
							"indexed": false,
							"internalType": "uint256",
							"name": "amount",
							"type": "uint256"
						}
					],
					"name": "complete",
					"type": "event"
				},
				{
					"anonymous": false,
					"inputs": [
						{
							"indexed": false,
							"internalType": "uint256",
							"name": "id",
							"type": "uint256"
						},
						{
							"indexed": false,
							"internalType": "address",
							"name": "user",
							"type": "address"
						},
						{
							"indexed": false,
							"internalType": "uint256",
							"name": "amount",
							"type": "uint256"
						}
					],
					"name": "contribute",
					"type": "event"
				},
				{
					"anonymous": false,
					"inputs": [
						{
							"indexed": false,
							"internalType": "address",
							"name": "user",
							"type": "address"
						},
						{
							"indexed": false,
							"internalType": "uint256",
							"name": "id",
							"type": "uint256"
						}
					],
					"name": "creat",
					"type": "event"
				},
				{
					"anonymous": false,
					"inputs": [
						{
							"indexed": false,
							"internalType": "string",
							"name": "",
							"type": "string"
						}
					],
					"name": "error",
					"type": "event"
				},
				{
					"anonymous": false,
					"inputs": [
						{
							"indexed": false,
							"internalType": "address",
							"name": "user",
							"type": "address"
						},
						{
							"indexed": false,
							"internalType": "uint256",
							"name": "id",
							"type": "uint256"
						},
						{
							"indexed": false,
							"internalType": "uint256",
							"name": "amount",
							"type": "uint256"
						}
					],
					"name": "refundclaim",
					"type": "event"
				},
				{
					"anonymous": false,
					"inputs": [
						{
							"indexed": false,
							"internalType": "string",
							"name": "",
							"type": "string"
						}
					],
					"name": "show",
					"type": "event"
				},
				{
					"inputs": [
						{
							"internalType": "uint256",
							"name": "user_id",
							"type": "uint256"
						}
					],
					"name": "campaignowner",
					"outputs": [
						{
							"internalType": "address",
							"name": "",
							"type": "address"
						}
					],
					"stateMutability": "view",
					"type": "function"
				},
				{
					"inputs": [
						{
							"internalType": "uint256",
							"name": "user_id",
							"type": "uint256"
						}
					],
					"name": "claim",
					"outputs": [],
					"stateMutability": "nonpayable",
					"type": "function"
				},
				{
					"inputs": [
						{
							"internalType": "uint256",
							"name": "u_id",
							"type": "uint256"
						}
					],
					"name": "completebyadmin",
					"outputs": [],
					"stateMutability": "nonpayable",
					"type": "function"
				},
				{
					"inputs": [],
					"name": "contract_owner",
					"outputs": [
						{
							"internalType": "address",
							"name": "",
							"type": "address"
						}
					],
					"stateMutability": "view",
					"type": "function"
				},
				{
					"inputs": [
						{
							"internalType": "uint256",
							"name": "user_id",
							"type": "uint256"
						}
					],
					"name": "contribution",
					"outputs": [
						{
							"components": [
								{
									"internalType": "uint256",
									"name": "id",
									"type": "uint256"
								},
								{
									"internalType": "string",
									"name": "name",
									"type": "string"
								},
								{
									"internalType": "string",
									"name": "discription",
									"type": "string"
								},
								{
									"internalType": "address",
									"name": "campowner",
									"type": "address"
								},
								{
									"internalType": "uint256",
									"name": "raiseamount",
									"type": "uint256"
								},
								{
									"internalType": "enum DAPP.checkstate",
									"name": "state",
									"type": "uint8"
								}
							],
							"internalType": "struct DAPP.funding",
							"name": "res",
							"type": "tuple"
						}
					],
					"stateMutability": "payable",
					"type": "function"
				},
				{
					"inputs": [
						{
							"internalType": "uint256",
							"name": "_id",
							"type": "uint256"
						},
						{
							"internalType": "string",
							"name": "_name",
							"type": "string"
						},
						{
							"internalType": "string",
							"name": "_discription",
							"type": "string"
						}
					],
					"name": "creation",
					"outputs": [],
					"stateMutability": "nonpayable",
					"type": "function"
				},
				{
					"inputs": [],
					"name": "endtime",
					"outputs": [
						{
							"internalType": "uint256",
							"name": "",
							"type": "uint256"
						}
					],
					"stateMutability": "view",
					"type": "function"
				},
				{
					"inputs": [
						{
							"internalType": "uint256",
							"name": "uid",
							"type": "uint256"
						}
					],
					"name": "getdetails",
					"outputs": [
						{
							"components": [
								{
									"internalType": "uint256",
									"name": "id",
									"type": "uint256"
								},
								{
									"internalType": "string",
									"name": "name",
									"type": "string"
								},
								{
									"internalType": "string",
									"name": "discription",
									"type": "string"
								},
								{
									"internalType": "address",
									"name": "campowner",
									"type": "address"
								},
								{
									"internalType": "uint256",
									"name": "raiseamount",
									"type": "uint256"
								},
								{
									"internalType": "enum DAPP.checkstate",
									"name": "state",
									"type": "uint8"
								}
							],
							"internalType": "struct DAPP.funding",
							"name": "",
							"type": "tuple"
						}
					],
					"stateMutability": "view",
					"type": "function"
				},
				{
					"inputs": [
						{
							"internalType": "uint256",
							"name": "user_id",
							"type": "uint256"
						}
					],
					"name": "refund",
					"outputs": [],
					"stateMutability": "nonpayable",
					"type": "function"
				},
				{
					"inputs": [
						{
							"internalType": "uint256",
							"name": "user_id",
							"type": "uint256"
						}
					],
					"name": "show_remainingamount",
					"outputs": [
						{
							"internalType": "uint256",
							"name": "",
							"type": "uint256"
						}
					],
					"stateMutability": "view",
					"type": "function"
				},
				{
					"stateMutability": "payable",
					"type": "receive"
				}
			],
			"devdoc": {
				"kind": "dev",
				"methods": {},
				"version": 1
			},
			"evm": {
				"assembly": "    /* \"contracts/DAPP_task.sol\":61:3952  contract DAPP{... */\n  mstore(0x40, 0x80)\n    /* \"contracts/DAPP_task.sol\":449:458  2 minutes */\n  0x78\n    /* \"contracts/DAPP_task.sol\":431:446  block.timestamp */\n  timestamp\n    /* \"contracts/DAPP_task.sol\":431:458  block.timestamp + 2 minutes */\n  tag_1\n  swap2\n  swap1\n  tag_2\n  jump\t// in\ntag_1:\n    /* \"contracts/DAPP_task.sol\":407:458  uint256 public endtime= block.timestamp + 2 minutes */\n  0x01\n  sstore\n    /* \"contracts/DAPP_task.sol\":498:549  constructor(){... */\n  callvalue\n  dup1\n  iszero\n  tag_3\n  jumpi\n  0x00\n  dup1\n  revert\ntag_3:\n  pop\n    /* \"contracts/DAPP_task.sol\":535:545  msg.sender */\n  caller\n    /* \"contracts/DAPP_task.sol\":518:532  contract_owner */\n  0x00\n  dup1\n    /* \"contracts/DAPP_task.sol\":518:545  contract_owner = msg.sender */\n  0x0100\n  exp\n  dup2\n  sload\n  dup2\n  0xffffffffffffffffffffffffffffffffffffffff\n  mul\n  not\n  and\n  swap1\n  dup4\n  0xffffffffffffffffffffffffffffffffffffffff\n  and\n  mul\n  or\n  swap1\n  sstore\n  pop\n    /* \"contracts/DAPP_task.sol\":61:3952  contract DAPP{... */\n  jump(tag_6)\n    /* \"#utility.yul\":7:84   */\ntag_7:\n    /* \"#utility.yul\":44:51   */\n  0x00\n    /* \"#utility.yul\":73:78   */\n  dup2\n    /* \"#utility.yul\":62:78   */\n  swap1\n  pop\n    /* \"#utility.yul\":7:84   */\n  swap2\n  swap1\n  pop\n  jump\t// out\n    /* \"#utility.yul\":90:270   */\ntag_8:\n    /* \"#utility.yul\":138:215   */\n  0x4e487b7100000000000000000000000000000000000000000000000000000000\n    /* \"#utility.yul\":135:136   */\n  0x00\n    /* \"#utility.yul\":128:216   */\n  mstore\n    /* \"#utility.yul\":235:239   */\n  0x11\n    /* \"#utility.yul\":232:233   */\n  0x04\n    /* \"#utility.yul\":225:240   */\n  mstore\n    /* \"#utility.yul\":259:263   */\n  0x24\n    /* \"#utility.yul\":256:257   */\n  0x00\n    /* \"#utility.yul\":249:264   */\n  revert\n    /* \"#utility.yul\":276:467   */\ntag_2:\n    /* \"#utility.yul\":316:319   */\n  0x00\n    /* \"#utility.yul\":335:355   */\n  tag_13\n    /* \"#utility.yul\":353:354   */\n  dup3\n    /* \"#utility.yul\":335:355   */\n  tag_7\n  jump\t// in\ntag_13:\n    /* \"#utility.yul\":330:355   */\n  swap2\n  pop\n    /* \"#utility.yul\":369:389   */\n  tag_14\n    /* \"#utility.yul\":387:388   */\n  dup4\n    /* \"#utility.yul\":369:389   */\n  tag_7\n  jump\t// in\ntag_14:\n    /* \"#utility.yul\":364:389   */\n  swap3\n  pop\n    /* \"#utility.yul\":412:413   */\n  dup3\n    /* \"#utility.yul\":409:410   */\n  dup3\n    /* \"#utility.yul\":405:414   */\n  add\n    /* \"#utility.yul\":398:414   */\n  swap1\n  pop\n    /* \"#utility.yul\":433:436   */\n  dup1\n    /* \"#utility.yul\":430:431   */\n  dup3\n    /* \"#utility.yul\":427:437   */\n  gt\n    /* \"#utility.yul\":424:460   */\n  iszero\n  tag_15\n  jumpi\n    /* \"#utility.yul\":440:458   */\n  tag_16\n  tag_8\n  jump\t// in\ntag_16:\n    /* \"#utility.yul\":424:460   */\ntag_15:\n    /* \"#utility.yul\":276:467   */\n  swap3\n  swap2\n  pop\n  pop\n  jump\t// out\n    /* \"contracts/DAPP_task.sol\":61:3952  contract DAPP{... */\ntag_6:\n  dataSize(sub_0)\n  dup1\n  dataOffset(sub_0)\n  0x00\n  codecopy\n  0x00\n  return\nstop\n\nsub_0: assembly {\n        /* \"contracts/DAPP_task.sol\":61:3952  contract DAPP{... */\n      mstore(0x40, 0x80)\n      jumpi(tag_1, lt(calldatasize, 0x04))\n      shr(0xe0, calldataload(0x00))\n      dup1\n      0x384f58eb\n      gt\n      tag_13\n      jumpi\n      dup1\n      0x384f58eb\n      eq\n      tag_8\n      jumpi\n      dup1\n      0x3e608afa\n      eq\n      tag_9\n      jumpi\n      dup1\n      0x92c93aa0\n      eq\n      tag_10\n      jumpi\n      dup1\n      0xe8709c40\n      eq\n      tag_11\n      jumpi\n      dup1\n      0xf1ca8bff\n      eq\n      tag_12\n      jumpi\n      jump(tag_2)\n    tag_13:\n      dup1\n      0x10445b2b\n      eq\n      tag_3\n      jumpi\n      dup1\n      0x15411001\n      eq\n      tag_4\n      jumpi\n      dup1\n      0x278ecde1\n      eq\n      tag_5\n      jumpi\n      dup1\n      0x2ca126f8\n      eq\n      tag_6\n      jumpi\n      dup1\n      0x379607f5\n      eq\n      tag_7\n      jumpi\n      jump(tag_2)\n    tag_1:\n      jumpi(tag_2, calldatasize)\n        /* \"contracts/DAPP_task.sol\":3291:3327  show(\"amount received successfully\") */\n      0xbe025cd0737d1912c421eb1ace55f3a811fccb8c5a479c1d21f0882dc11c607f\n      mload(0x40)\n      tag_16\n      swap1\n      tag_17\n      jump\t// in\n    tag_16:\n      mload(0x40)\n      dup1\n      swap2\n      sub\n      swap1\n      log1\n        /* \"contracts/DAPP_task.sol\":61:3952  contract DAPP{... */\n      stop\n    tag_2:\n      0x00\n      dup1\n      revert\n        /* \"contracts/DAPP_task.sol\":3335:3443  function getdetails(uint256 uid) external view returns (funding memory) {... */\n    tag_3:\n      callvalue\n      dup1\n      iszero\n      tag_18\n      jumpi\n      0x00\n      dup1\n      revert\n    tag_18:\n      pop\n      tag_19\n      0x04\n      dup1\n      calldatasize\n      sub\n      dup2\n      add\n      swap1\n      tag_20\n      swap2\n      swap1\n      tag_21\n      jump\t// in\n    tag_20:\n      tag_22\n      jump\t// in\n    tag_19:\n      mload(0x40)\n      tag_23\n      swap2\n      swap1\n      tag_24\n      jump\t// in\n    tag_23:\n      mload(0x40)\n      dup1\n      swap2\n      sub\n      swap1\n      return\n        /* \"contracts/DAPP_task.sol\":1334:1495  function creation(uint256 _id,string calldata _name,... */\n    tag_4:\n      callvalue\n      dup1\n      iszero\n      tag_25\n      jumpi\n      0x00\n      dup1\n      revert\n    tag_25:\n      pop\n      tag_26\n      0x04\n      dup1\n      calldatasize\n      sub\n      dup2\n      add\n      swap1\n      tag_27\n      swap2\n      swap1\n      tag_28\n      jump\t// in\n    tag_27:\n      tag_29\n      jump\t// in\n    tag_26:\n      stop\n        /* \"contracts/DAPP_task.sol\":2915:3249  function refund(uint256 user_id) public  refundallowedtime {... */\n    tag_5:\n      callvalue\n      dup1\n      iszero\n      tag_30\n      jumpi\n      0x00\n      dup1\n      revert\n    tag_30:\n      pop\n      tag_31\n      0x04\n      dup1\n      calldatasize\n      sub\n      dup2\n      add\n      swap1\n      tag_32\n      swap2\n      swap1\n      tag_21\n      jump\t// in\n    tag_32:\n      tag_33\n      jump\t// in\n    tag_31:\n      stop\n        /* \"contracts/DAPP_task.sol\":407:458  uint256 public endtime= block.timestamp + 2 minutes */\n    tag_6:\n      callvalue\n      dup1\n      iszero\n      tag_34\n      jumpi\n      0x00\n      dup1\n      revert\n    tag_34:\n      pop\n      tag_35\n      tag_36\n      jump\t// in\n    tag_35:\n      mload(0x40)\n      tag_37\n      swap2\n      swap1\n      tag_38\n      jump\t// in\n    tag_37:\n      mload(0x40)\n      dup1\n      swap2\n      sub\n      swap1\n      return\n        /* \"contracts/DAPP_task.sol\":2433:2792  function claim(uint256 user_id) public allowedclaim{... */\n    tag_7:\n      callvalue\n      dup1\n      iszero\n      tag_39\n      jumpi\n      0x00\n      dup1\n      revert\n    tag_39:\n      pop\n      tag_40\n      0x04\n      dup1\n      calldatasize\n      sub\n      dup2\n      add\n      swap1\n      tag_41\n      swap2\n      swap1\n      tag_21\n      jump\t// in\n    tag_41:\n      tag_42\n      jump\t// in\n    tag_40:\n      stop\n        /* \"contracts/DAPP_task.sol\":374:404  address public  contract_owner */\n    tag_8:\n      callvalue\n      dup1\n      iszero\n      tag_43\n      jumpi\n      0x00\n      dup1\n      revert\n    tag_43:\n      pop\n      tag_44\n      tag_45\n      jump\t// in\n    tag_44:\n      mload(0x40)\n      tag_46\n      swap2\n      swap1\n      tag_47\n      jump\t// in\n    tag_46:\n      mload(0x40)\n      dup1\n      swap2\n      sub\n      swap1\n      return\n        /* \"contracts/DAPP_task.sol\":2283:2431  function show_remainingamount(uint256 user_id) public view returns (uint256){... */\n    tag_9:\n      callvalue\n      dup1\n      iszero\n      tag_48\n      jumpi\n      0x00\n      dup1\n      revert\n    tag_48:\n      pop\n      tag_49\n      0x04\n      dup1\n      calldatasize\n      sub\n      dup2\n      add\n      swap1\n      tag_50\n      swap2\n      swap1\n      tag_21\n      jump\t// in\n    tag_50:\n      tag_51\n      jump\t// in\n    tag_49:\n      mload(0x40)\n      tag_52\n      swap2\n      swap1\n      tag_38\n      jump\t// in\n    tag_52:\n      mload(0x40)\n      dup1\n      swap2\n      sub\n      swap1\n      return\n        /* \"contracts/DAPP_task.sol\":3809:3945  function campaignowner(uint256 user_id) external view returns(address) {... */\n    tag_10:\n      callvalue\n      dup1\n      iszero\n      tag_53\n      jumpi\n      0x00\n      dup1\n      revert\n    tag_53:\n      pop\n      tag_54\n      0x04\n      dup1\n      calldatasize\n      sub\n      dup2\n      add\n      swap1\n      tag_55\n      swap2\n      swap1\n      tag_21\n      jump\t// in\n    tag_55:\n      tag_56\n      jump\t// in\n    tag_54:\n      mload(0x40)\n      tag_57\n      swap2\n      swap1\n      tag_47\n      jump\t// in\n    tag_57:\n      mload(0x40)\n      dup1\n      swap2\n      sub\n      swap1\n      return\n        /* \"contracts/DAPP_task.sol\":1617:2102  function contribution(uint256 user_id) external payable   allowedtime returns (funding memory res) {... */\n    tag_11:\n      tag_58\n      0x04\n      dup1\n      calldatasize\n      sub\n      dup2\n      add\n      swap1\n      tag_59\n      swap2\n      swap1\n      tag_21\n      jump\t// in\n    tag_59:\n      tag_60\n      jump\t// in\n    tag_58:\n      mload(0x40)\n      tag_61\n      swap2\n      swap1\n      tag_24\n      jump\t// in\n    tag_61:\n      mload(0x40)\n      dup1\n      swap2\n      sub\n      swap1\n      return\n        /* \"contracts/DAPP_task.sol\":3447:3807  function completebyadmin(uint256 u_id) public onlycontractowner{... */\n    tag_12:\n      callvalue\n      dup1\n      iszero\n      tag_62\n      jumpi\n      0x00\n      dup1\n      revert\n    tag_62:\n      pop\n      tag_63\n      0x04\n      dup1\n      calldatasize\n      sub\n      dup2\n      add\n      swap1\n      tag_64\n      swap2\n      swap1\n      tag_21\n      jump\t// in\n    tag_64:\n      tag_65\n      jump\t// in\n    tag_63:\n      stop\n        /* \"contracts/DAPP_task.sol\":3335:3443  function getdetails(uint256 uid) external view returns (funding memory) {... */\n    tag_22:\n        /* \"contracts/DAPP_task.sol\":3391:3405  funding memory */\n      tag_66\n      tag_67\n      jump\t// in\n    tag_66:\n        /* \"contracts/DAPP_task.sol\":3423:3427  fund */\n      0x02\n        /* \"contracts/DAPP_task.sol\":3423:3432  fund[uid] */\n      0x00\n        /* \"contracts/DAPP_task.sol\":3428:3431  uid */\n      dup4\n        /* \"contracts/DAPP_task.sol\":3423:3432  fund[uid] */\n      dup2\n      mstore\n      0x20\n      add\n      swap1\n      dup2\n      mstore\n      0x20\n      add\n      0x00\n      keccak256\n        /* \"contracts/DAPP_task.sol\":3416:3432  return fund[uid] */\n      mload(0x40)\n      dup1\n      0xc0\n      add\n      0x40\n      mstore\n      swap1\n      dup2\n      0x00\n      dup3\n      add\n      sload\n      dup2\n      mstore\n      0x20\n      add\n      0x01\n      dup3\n      add\n      dup1\n      sload\n      tag_69\n      swap1\n      tag_70\n      jump\t// in\n    tag_69:\n      dup1\n      0x1f\n      add\n      0x20\n      dup1\n      swap2\n      div\n      mul\n      0x20\n      add\n      mload(0x40)\n      swap1\n      dup2\n      add\n      0x40\n      mstore\n      dup1\n      swap3\n      swap2\n      swap1\n      dup2\n      dup2\n      mstore\n      0x20\n      add\n      dup3\n      dup1\n      sload\n      tag_71\n      swap1\n      tag_70\n      jump\t// in\n    tag_71:\n      dup1\n      iszero\n      tag_72\n      jumpi\n      dup1\n      0x1f\n      lt\n      tag_73\n      jumpi\n      0x0100\n      dup1\n      dup4\n      sload\n      div\n      mul\n      dup4\n      mstore\n      swap2\n      0x20\n      add\n      swap2\n      jump(tag_72)\n    tag_73:\n      dup3\n      add\n      swap2\n      swap1\n      0x00\n      mstore\n      keccak256(0x00, 0x20)\n      swap1\n    tag_74:\n      dup2\n      sload\n      dup2\n      mstore\n      swap1\n      0x01\n      add\n      swap1\n      0x20\n      add\n      dup1\n      dup4\n      gt\n      tag_74\n      jumpi\n      dup3\n      swap1\n      sub\n      0x1f\n      and\n      dup3\n      add\n      swap2\n    tag_72:\n      pop\n      pop\n      pop\n      pop\n      pop\n      dup2\n      mstore\n      0x20\n      add\n      0x02\n      dup3\n      add\n      dup1\n      sload\n      tag_75\n      swap1\n      tag_70\n      jump\t// in\n    tag_75:\n      dup1\n      0x1f\n      add\n      0x20\n      dup1\n      swap2\n      div\n      mul\n      0x20\n      add\n      mload(0x40)\n      swap1\n      dup2\n      add\n      0x40\n      mstore\n      dup1\n      swap3\n      swap2\n      swap1\n      dup2\n      dup2\n      mstore\n      0x20\n      add\n      dup3\n      dup1\n      sload\n      tag_76\n      swap1\n      tag_70\n      jump\t// in\n    tag_76:\n      dup1\n      iszero\n      tag_77\n      jumpi\n      dup1\n      0x1f\n      lt\n      tag_78\n      jumpi\n      0x0100\n      dup1\n      dup4\n      sload\n      div\n      mul\n      dup4\n      mstore\n      swap2\n      0x20\n      add\n      swap2\n      jump(tag_77)\n    tag_78:\n      dup3\n      add\n      swap2\n      swap1\n      0x00\n      mstore\n      keccak256(0x00, 0x20)\n      swap1\n    tag_79:\n      dup2\n      sload\n      dup2\n      mstore\n      swap1\n      0x01\n      add\n      swap1\n      0x20\n      add\n      dup1\n      dup4\n      gt\n      tag_79\n      jumpi\n      dup3\n      swap1\n      sub\n      0x1f\n      and\n      dup3\n      add\n      swap2\n    tag_77:\n      pop\n      pop\n      pop\n      pop\n      pop\n      dup2\n      mstore\n      0x20\n      add\n      0x03\n      dup3\n      add\n      0x00\n      swap1\n      sload\n      swap1\n      0x0100\n      exp\n      swap1\n      div\n      0xffffffffffffffffffffffffffffffffffffffff\n      and\n      0xffffffffffffffffffffffffffffffffffffffff\n      and\n      0xffffffffffffffffffffffffffffffffffffffff\n      and\n      dup2\n      mstore\n      0x20\n      add\n      0x04\n      dup3\n      add\n      sload\n      dup2\n      mstore\n      0x20\n      add\n      0x05\n      dup3\n      add\n      0x00\n      swap1\n      sload\n      swap1\n      0x0100\n      exp\n      swap1\n      div\n      0xff\n      and\n      0x01\n      dup2\n      gt\n      iszero\n      tag_80\n      jumpi\n      tag_81\n      tag_82\n      jump\t// in\n    tag_81:\n    tag_80:\n      0x01\n      dup2\n      gt\n      iszero\n      tag_83\n      jumpi\n      tag_84\n      tag_82\n      jump\t// in\n    tag_84:\n    tag_83:\n      dup2\n      mstore\n      pop\n      pop\n      swap1\n      pop\n        /* \"contracts/DAPP_task.sol\":3335:3443  function getdetails(uint256 uid) external view returns (funding memory) {... */\n      swap2\n      swap1\n      pop\n      jump\t// out\n        /* \"contracts/DAPP_task.sol\":1334:1495  function creation(uint256 _id,string calldata _name,... */\n    tag_29:\n        /* \"contracts/DAPP_task.sol\":1428:1461  add_user(_id,_name, _discription) */\n      tag_86\n        /* \"contracts/DAPP_task.sol\":1437:1440  _id */\n      dup5\n        /* \"contracts/DAPP_task.sol\":1441:1446  _name */\n      dup5\n      dup5\n        /* \"contracts/DAPP_task.sol\":1448:1460  _discription */\n      dup5\n        /* \"contracts/DAPP_task.sol\":1428:1436  add_user */\n      tag_87\n        /* \"contracts/DAPP_task.sol\":1428:1461  add_user(_id,_name, _discription) */\n      jump\t// in\n    tag_86:\n        /* \"contracts/DAPP_task.sol\":1469:1491  creat(msg.sender, _id) */\n      0xc25f73d8066f835a9a93ef7719cc9dfa37651997ad88ea41abe71c77f9209ce7\n        /* \"contracts/DAPP_task.sol\":1475:1485  msg.sender */\n      caller\n        /* \"contracts/DAPP_task.sol\":1487:1490  _id */\n      dup6\n        /* \"contracts/DAPP_task.sol\":1469:1491  creat(msg.sender, _id) */\n      mload(0x40)\n      tag_88\n      swap3\n      swap2\n      swap1\n      tag_89\n      jump\t// in\n    tag_88:\n      mload(0x40)\n      dup1\n      swap2\n      sub\n      swap1\n      log1\n        /* \"contracts/DAPP_task.sol\":1334:1495  function creation(uint256 _id,string calldata _name,... */\n      pop\n      pop\n      pop\n      pop\n      jump\t// out\n        /* \"contracts/DAPP_task.sol\":2915:3249  function refund(uint256 user_id) public  refundallowedtime {... */\n    tag_33:\n        /* \"contracts/DAPP_task.sol\":2855:2862  endtime */\n      sload(0x01)\n        /* \"contracts/DAPP_task.sol\":2837:2852  block.timestamp */\n      timestamp\n        /* \"contracts/DAPP_task.sol\":2837:2862  block.timestamp > endtime */\n      gt\n        /* \"contracts/DAPP_task.sol\":2829:2901  require(block.timestamp > endtime ,\"can't refund cuz deadline not meet\") */\n      tag_91\n      jumpi\n      mload(0x40)\n      0x08c379a000000000000000000000000000000000000000000000000000000000\n      dup2\n      mstore\n      0x04\n      add\n      tag_92\n      swap1\n      tag_93\n      jump\t// in\n    tag_92:\n      mload(0x40)\n      dup1\n      swap2\n      sub\n      swap1\n      revert\n    tag_91:\n        /* \"contracts/DAPP_task.sol\":485:493  20 ether */\n      0x01158e460913d00000\n        /* \"contracts/DAPP_task.sol\":2980:2984  fund */\n      0x02\n        /* \"contracts/DAPP_task.sol\":2980:2993  fund[user_id] */\n      0x00\n        /* \"contracts/DAPP_task.sol\":2985:2992  user_id */\n      dup4\n        /* \"contracts/DAPP_task.sol\":2980:2993  fund[user_id] */\n      dup2\n      mstore\n      0x20\n      add\n      swap1\n      dup2\n      mstore\n      0x20\n      add\n      0x00\n      keccak256\n        /* \"contracts/DAPP_task.sol\":2980:3005  fund[user_id].raiseamount */\n      0x04\n      add\n      sload\n        /* \"contracts/DAPP_task.sol\":2980:3012  fund[user_id].raiseamount < goal */\n      lt\n        /* \"contracts/DAPP_task.sol\":2977:3244  if(fund[user_id].raiseamount < goal){... */\n      iszero\n      tag_95\n      jumpi\n        /* \"contracts/DAPP_task.sol\":3026:3040  uint256 amount */\n      0x00\n        /* \"contracts/DAPP_task.sol\":3043:3047  fund */\n      0x02\n        /* \"contracts/DAPP_task.sol\":3043:3056  fund[user_id] */\n      0x00\n        /* \"contracts/DAPP_task.sol\":3048:3055  user_id */\n      dup4\n        /* \"contracts/DAPP_task.sol\":3043:3056  fund[user_id] */\n      dup2\n      mstore\n      0x20\n      add\n      swap1\n      dup2\n      mstore\n      0x20\n      add\n      0x00\n      keccak256\n        /* \"contracts/DAPP_task.sol\":3043:3068  fund[user_id].raiseamount */\n      0x04\n      add\n      sload\n        /* \"contracts/DAPP_task.sol\":3026:3068  uint256 amount = fund[user_id].raiseamount */\n      swap1\n      pop\n        /* \"contracts/DAPP_task.sol\":3117:3127  msg.sender */\n      caller\n        /* \"contracts/DAPP_task.sol\":3109:3137  payable(msg.sender).transfer */\n      0xffffffffffffffffffffffffffffffffffffffff\n      and\n        /* \"contracts/DAPP_task.sol\":3109:3145  payable(msg.sender).transfer(amount) */\n      0x08fc\n        /* \"contracts/DAPP_task.sol\":3138:3144  amount */\n      dup3\n        /* \"contracts/DAPP_task.sol\":3109:3145  payable(msg.sender).transfer(amount) */\n      swap1\n      dup2\n      iszero\n      mul\n      swap1\n      mload(0x40)\n      0x00\n      mload(0x40)\n      dup1\n      dup4\n      sub\n      dup2\n      dup6\n      dup9\n      dup9\n      call\n      swap4\n      pop\n      pop\n      pop\n      pop\n      iszero\n      dup1\n      iszero\n      tag_97\n      jumpi\n      returndatasize\n      0x00\n      dup1\n      returndatacopy\n      revert(0x00, returndatasize)\n    tag_97:\n      pop\n        /* \"contracts/DAPP_task.sol\":3157:3196  refundclaim(msg.sender, user_id,amount) */\n      0x6bcc8e13f2b9cabd8625faa0937688a01aab305f3a921ee1e5fbcff66144fa57\n        /* \"contracts/DAPP_task.sol\":3169:3179  msg.sender */\n      caller\n        /* \"contracts/DAPP_task.sol\":3181:3188  user_id */\n      dup4\n        /* \"contracts/DAPP_task.sol\":3189:3195  amount */\n      dup4\n        /* \"contracts/DAPP_task.sol\":3157:3196  refundclaim(msg.sender, user_id,amount) */\n      mload(0x40)\n      tag_98\n      swap4\n      swap3\n      swap2\n      swap1\n      tag_99\n      jump\t// in\n    tag_98:\n      mload(0x40)\n      dup1\n      swap2\n      sub\n      swap1\n      log1\n        /* \"contracts/DAPP_task.sol\":3013:3200  {... */\n      pop\n        /* \"contracts/DAPP_task.sol\":2977:3244  if(fund[user_id].raiseamount < goal){... */\n      jump(tag_100)\n    tag_95:\n        /* \"contracts/DAPP_task.sol\":3215:3240  revert(\"u can't refund \") */\n      mload(0x40)\n      0x08c379a000000000000000000000000000000000000000000000000000000000\n      dup2\n      mstore\n      0x04\n      add\n      tag_101\n      swap1\n      tag_102\n      jump\t// in\n    tag_101:\n      mload(0x40)\n      dup1\n      swap2\n      sub\n      swap1\n      revert\n        /* \"contracts/DAPP_task.sol\":2977:3244  if(fund[user_id].raiseamount < goal){... */\n    tag_100:\n        /* \"contracts/DAPP_task.sol\":2915:3249  function refund(uint256 user_id) public  refundallowedtime {... */\n      pop\n      jump\t// out\n        /* \"contracts/DAPP_task.sol\":407:458  uint256 public endtime= block.timestamp + 2 minutes */\n    tag_36:\n      sload(0x01)\n      dup2\n      jump\t// out\n        /* \"contracts/DAPP_task.sol\":2433:2792  function claim(uint256 user_id) public allowedclaim{... */\n    tag_42:\n        /* \"contracts/DAPP_task.sol\":2163:2170  endtime */\n      sload(0x01)\n        /* \"contracts/DAPP_task.sol\":2144:2159  block.timestamp */\n      timestamp\n        /* \"contracts/DAPP_task.sol\":2144:2170  block.timestamp >= endtime */\n      lt\n      iszero\n        /* \"contracts/DAPP_task.sol\":2136:2224  require(block.timestamp >= endtime,\"not allowed claiming cuz allowed time is remaining\") */\n      tag_104\n      jumpi\n      mload(0x40)\n      0x08c379a000000000000000000000000000000000000000000000000000000000\n      dup2\n      mstore\n      0x04\n      add\n      tag_105\n      swap1\n      tag_106\n      jump\t// in\n    tag_105:\n      mload(0x40)\n      dup1\n      swap2\n      sub\n      swap1\n      revert\n    tag_104:\n        /* \"contracts/DAPP_task.sol\":485:493  20 ether */\n      0x01158e460913d00000\n        /* \"contracts/DAPP_task.sol\":2490:2494  fund */\n      0x02\n        /* \"contracts/DAPP_task.sol\":2490:2503  fund[user_id] */\n      0x00\n        /* \"contracts/DAPP_task.sol\":2495:2502  user_id */\n      dup4\n        /* \"contracts/DAPP_task.sol\":2490:2503  fund[user_id] */\n      dup2\n      mstore\n      0x20\n      add\n      swap1\n      dup2\n      mstore\n      0x20\n      add\n      0x00\n      keccak256\n        /* \"contracts/DAPP_task.sol\":2490:2515  fund[user_id].raiseamount */\n      0x04\n      add\n      sload\n        /* \"contracts/DAPP_task.sol\":2490:2522  fund[user_id].raiseamount >=goal */\n      lt\n        /* \"contracts/DAPP_task.sol\":2487:2789  if(fund[user_id].raiseamount >=goal){... */\n      tag_108\n      jumpi\n        /* \"contracts/DAPP_task.sol\":2534:2548  uint256 amount */\n      0x00\n        /* \"contracts/DAPP_task.sol\":2551:2555  fund */\n      0x02\n        /* \"contracts/DAPP_task.sol\":2551:2564  fund[user_id] */\n      0x00\n        /* \"contracts/DAPP_task.sol\":2556:2563  user_id */\n      dup4\n        /* \"contracts/DAPP_task.sol\":2551:2564  fund[user_id] */\n      dup2\n      mstore\n      0x20\n      add\n      swap1\n      dup2\n      mstore\n      0x20\n      add\n      0x00\n      keccak256\n        /* \"contracts/DAPP_task.sol\":2551:2576  fund[user_id].raiseamount */\n      0x04\n      add\n      sload\n        /* \"contracts/DAPP_task.sol\":2534:2576  uint256 amount = fund[user_id].raiseamount */\n      swap1\n      pop\n        /* \"contracts/DAPP_task.sol\":2591:2595  fund */\n      0x02\n        /* \"contracts/DAPP_task.sol\":2591:2604  fund[user_id] */\n      0x00\n        /* \"contracts/DAPP_task.sol\":2596:2603  user_id */\n      dup4\n        /* \"contracts/DAPP_task.sol\":2591:2604  fund[user_id] */\n      dup2\n      mstore\n      0x20\n      add\n      swap1\n      dup2\n      mstore\n      0x20\n      add\n      0x00\n      keccak256\n        /* \"contracts/DAPP_task.sol\":2591:2614  fund[user_id].campowner */\n      0x03\n      add\n      0x00\n      swap1\n      sload\n      swap1\n      0x0100\n      exp\n      swap1\n      div\n      0xffffffffffffffffffffffffffffffffffffffff\n      and\n        /* \"contracts/DAPP_task.sol\":2583:2624  payable(fund[user_id].campowner).transfer */\n      0xffffffffffffffffffffffffffffffffffffffff\n      and\n        /* \"contracts/DAPP_task.sol\":2583:2632  payable(fund[user_id].campowner).transfer(amount) */\n      0x08fc\n        /* \"contracts/DAPP_task.sol\":2625:2631  amount */\n      dup3\n        /* \"contracts/DAPP_task.sol\":2583:2632  payable(fund[user_id].campowner).transfer(amount) */\n      swap1\n      dup2\n      iszero\n      mul\n      swap1\n      mload(0x40)\n      0x00\n      mload(0x40)\n      dup1\n      dup4\n      sub\n      dup2\n      dup6\n      dup9\n      dup9\n      call\n      swap4\n      pop\n      pop\n      pop\n      pop\n      iszero\n      dup1\n      iszero\n      tag_110\n      jumpi\n      returndatasize\n      0x00\n      dup1\n      returndatacopy\n      revert(0x00, returndatasize)\n    tag_110:\n      pop\n        /* \"contracts/DAPP_task.sol\":2661:2681  checkstate.completed */\n      0x01\n        /* \"contracts/DAPP_task.sol\":2639:2643  fund */\n      0x02\n        /* \"contracts/DAPP_task.sol\":2639:2652  fund[user_id] */\n      0x00\n        /* \"contracts/DAPP_task.sol\":2644:2651  user_id */\n      dup5\n        /* \"contracts/DAPP_task.sol\":2639:2652  fund[user_id] */\n      dup2\n      mstore\n      0x20\n      add\n      swap1\n      dup2\n      mstore\n      0x20\n      add\n      0x00\n      keccak256\n        /* \"contracts/DAPP_task.sol\":2639:2658  fund[user_id].state */\n      0x05\n      add\n      0x00\n        /* \"contracts/DAPP_task.sol\":2639:2681  fund[user_id].state = checkstate.completed */\n      0x0100\n      exp\n      dup2\n      sload\n      dup2\n      0xff\n      mul\n      not\n      and\n      swap1\n      dup4\n      0x01\n      dup2\n      gt\n      iszero\n      tag_111\n      jumpi\n      tag_112\n      tag_82\n      jump\t// in\n    tag_112:\n    tag_111:\n      mul\n      or\n      swap1\n      sstore\n      pop\n        /* \"contracts/DAPP_task.sol\":2693:2729  complete(msg.sender, user_id,amount) */\n      0x9576942f6783612a1de73784d0a4a99e49ddbc7e59e8fc927cffc1ee5385d236\n        /* \"contracts/DAPP_task.sol\":2702:2712  msg.sender */\n      caller\n        /* \"contracts/DAPP_task.sol\":2714:2721  user_id */\n      dup4\n        /* \"contracts/DAPP_task.sol\":2722:2728  amount */\n      dup4\n        /* \"contracts/DAPP_task.sol\":2693:2729  complete(msg.sender, user_id,amount) */\n      mload(0x40)\n      tag_113\n      swap4\n      swap3\n      swap2\n      swap1\n      tag_99\n      jump\t// in\n    tag_113:\n      mload(0x40)\n      dup1\n      swap2\n      sub\n      swap1\n      log1\n        /* \"contracts/DAPP_task.sol\":2523:2735  {... */\n      pop\n        /* \"contracts/DAPP_task.sol\":2487:2789  if(fund[user_id].raiseamount >=goal){... */\n      jump(tag_114)\n    tag_108:\n        /* \"contracts/DAPP_task.sol\":2748:2785  revert(\"amount is not equal to goal\") */\n      mload(0x40)\n      0x08c379a000000000000000000000000000000000000000000000000000000000\n      dup2\n      mstore\n      0x04\n      add\n      tag_115\n      swap1\n      tag_116\n      jump\t// in\n    tag_115:\n      mload(0x40)\n      dup1\n      swap2\n      sub\n      swap1\n      revert\n        /* \"contracts/DAPP_task.sol\":2487:2789  if(fund[user_id].raiseamount >=goal){... */\n    tag_114:\n        /* \"contracts/DAPP_task.sol\":2433:2792  function claim(uint256 user_id) public allowedclaim{... */\n      pop\n      jump\t// out\n        /* \"contracts/DAPP_task.sol\":374:404  address public  contract_owner */\n    tag_45:\n      0x00\n      dup1\n      sload\n      swap1\n      0x0100\n      exp\n      swap1\n      div\n      0xffffffffffffffffffffffffffffffffffffffff\n      and\n      dup2\n      jump\t// out\n        /* \"contracts/DAPP_task.sol\":2283:2431  function show_remainingamount(uint256 user_id) public view returns (uint256){... */\n    tag_51:\n        /* \"contracts/DAPP_task.sol\":2351:2358  uint256 */\n      0x00\n        /* \"contracts/DAPP_task.sol\":2367:2376  uint256 a */\n      dup1\n        /* \"contracts/DAPP_task.sol\":2386:2390  fund */\n      0x02\n        /* \"contracts/DAPP_task.sol\":2386:2399  fund[user_id] */\n      0x00\n        /* \"contracts/DAPP_task.sol\":2391:2398  user_id */\n      dup5\n        /* \"contracts/DAPP_task.sol\":2386:2399  fund[user_id] */\n      dup2\n      mstore\n      0x20\n      add\n      swap1\n      dup2\n      mstore\n      0x20\n      add\n      0x00\n      keccak256\n        /* \"contracts/DAPP_task.sol\":2386:2411  fund[user_id].raiseamount */\n      0x04\n      add\n      sload\n        /* \"contracts/DAPP_task.sol\":485:493  20 ether */\n      0x01158e460913d00000\n        /* \"contracts/DAPP_task.sol\":2378:2411  goal  - fund[user_id].raiseamount */\n      tag_118\n      swap2\n      swap1\n      tag_119\n      jump\t// in\n    tag_118:\n        /* \"contracts/DAPP_task.sol\":2367:2411  uint256 a= goal  - fund[user_id].raiseamount */\n      swap1\n      pop\n        /* \"contracts/DAPP_task.sol\":2424:2425  a */\n      dup1\n        /* \"contracts/DAPP_task.sol\":2417:2425  return a */\n      swap2\n      pop\n      pop\n        /* \"contracts/DAPP_task.sol\":2283:2431  function show_remainingamount(uint256 user_id) public view returns (uint256){... */\n      swap2\n      swap1\n      pop\n      jump\t// out\n        /* \"contracts/DAPP_task.sol\":3809:3945  function campaignowner(uint256 user_id) external view returns(address) {... */\n    tag_56:\n        /* \"contracts/DAPP_task.sol\":3871:3878  address */\n      0x00\n        /* \"contracts/DAPP_task.sol\":3883:3898  address campown */\n      dup1\n        /* \"contracts/DAPP_task.sol\":3901:3905  fund */\n      0x02\n        /* \"contracts/DAPP_task.sol\":3901:3914  fund[user_id] */\n      0x00\n        /* \"contracts/DAPP_task.sol\":3906:3913  user_id */\n      dup5\n        /* \"contracts/DAPP_task.sol\":3901:3914  fund[user_id] */\n      dup2\n      mstore\n      0x20\n      add\n      swap1\n      dup2\n      mstore\n      0x20\n      add\n      0x00\n      keccak256\n        /* \"contracts/DAPP_task.sol\":3901:3924  fund[user_id].campowner */\n      0x03\n      add\n      0x00\n      swap1\n      sload\n      swap1\n      0x0100\n      exp\n      swap1\n      div\n      0xffffffffffffffffffffffffffffffffffffffff\n      and\n        /* \"contracts/DAPP_task.sol\":3883:3924  address campown = fund[user_id].campowner */\n      swap1\n      pop\n        /* \"contracts/DAPP_task.sol\":3934:3941  campown */\n      dup1\n        /* \"contracts/DAPP_task.sol\":3927:3941  return campown */\n      swap2\n      pop\n      pop\n        /* \"contracts/DAPP_task.sol\":3809:3945  function campaignowner(uint256 user_id) external view returns(address) {... */\n      swap2\n      swap1\n      pop\n      jump\t// out\n        /* \"contracts/DAPP_task.sol\":1617:2102  function contribution(uint256 user_id) external payable   allowedtime returns (funding memory res) {... */\n    tag_60:\n        /* \"contracts/DAPP_task.sol\":1696:1714  funding memory res */\n      tag_121\n      tag_67\n      jump\t// in\n    tag_121:\n        /* \"contracts/DAPP_task.sol\":683:690  endtime */\n      sload(0x01)\n        /* \"contracts/DAPP_task.sol\":664:679  block.timestamp */\n      timestamp\n        /* \"contracts/DAPP_task.sol\":664:690  block.timestamp <= endtime */\n      gt\n      iszero\n        /* \"contracts/DAPP_task.sol\":656:734  require(block.timestamp <= endtime,\"transaction are not allowed in this time\") */\n      tag_123\n      jumpi\n      mload(0x40)\n      0x08c379a000000000000000000000000000000000000000000000000000000000\n      dup2\n      mstore\n      0x04\n      add\n      tag_124\n      swap1\n      tag_125\n      jump\t// in\n    tag_124:\n      mload(0x40)\n      dup1\n      swap2\n      sub\n      swap1\n      revert\n    tag_123:\n        /* \"contracts/DAPP_task.sol\":1750:1759  msg.value */\n      callvalue\n        /* \"contracts/DAPP_task.sol\":1721:1725  fund */\n      0x02\n        /* \"contracts/DAPP_task.sol\":1721:1734  fund[user_id] */\n      0x00\n        /* \"contracts/DAPP_task.sol\":1726:1733  user_id */\n      dup5\n        /* \"contracts/DAPP_task.sol\":1721:1734  fund[user_id] */\n      dup2\n      mstore\n      0x20\n      add\n      swap1\n      dup2\n      mstore\n      0x20\n      add\n      0x00\n      keccak256\n        /* \"contracts/DAPP_task.sol\":1721:1746  fund[user_id].raiseamount */\n      0x04\n      add\n      0x00\n        /* \"contracts/DAPP_task.sol\":1721:1759  fund[user_id].raiseamount += msg.value */\n      dup3\n      dup3\n      sload\n      tag_127\n      swap2\n      swap1\n      tag_128\n      jump\t// in\n    tag_127:\n      swap3\n      pop\n      pop\n      dup2\n      swap1\n      sstore\n      pop\n        /* \"contracts/DAPP_task.sol\":1795:1812  checkstate.active */\n      0x00\n        /* \"contracts/DAPP_task.sol\":1774:1812  fund[user_id].state==checkstate.active */\n      0x01\n      dup2\n      gt\n      iszero\n      tag_129\n      jumpi\n      tag_130\n      tag_82\n      jump\t// in\n    tag_130:\n    tag_129:\n        /* \"contracts/DAPP_task.sol\":1774:1778  fund */\n      0x02\n        /* \"contracts/DAPP_task.sol\":1774:1787  fund[user_id] */\n      0x00\n        /* \"contracts/DAPP_task.sol\":1779:1786  user_id */\n      dup5\n        /* \"contracts/DAPP_task.sol\":1774:1787  fund[user_id] */\n      dup2\n      mstore\n      0x20\n      add\n      swap1\n      dup2\n      mstore\n      0x20\n      add\n      0x00\n      keccak256\n        /* \"contracts/DAPP_task.sol\":1774:1793  fund[user_id].state */\n      0x05\n      add\n      0x00\n      swap1\n      sload\n      swap1\n      0x0100\n      exp\n      swap1\n      div\n      0xff\n      and\n        /* \"contracts/DAPP_task.sol\":1774:1812  fund[user_id].state==checkstate.active */\n      0x01\n      dup2\n      gt\n      iszero\n      tag_131\n      jumpi\n      tag_132\n      tag_82\n      jump\t// in\n    tag_132:\n    tag_131:\n      eq\n        /* \"contracts/DAPP_task.sol\":1766:1835  require(fund[user_id].state==checkstate.active,\"sttae is not acrive\") */\n      tag_133\n      jumpi\n      mload(0x40)\n      0x08c379a000000000000000000000000000000000000000000000000000000000\n      dup2\n      mstore\n      0x04\n      add\n      tag_134\n      swap1\n      tag_135\n      jump\t// in\n    tag_134:\n      mload(0x40)\n      dup1\n      swap2\n      sub\n      swap1\n      revert\n    tag_133:\n        /* \"contracts/DAPP_task.sol\":1845:1887  contribute(user_id, msg.sender, msg.value) */\n      0x8952ac1e80fc86d8ccb4c9bb2b1df4ba33b963fdc98de332d4d07a43ddddc462\n        /* \"contracts/DAPP_task.sol\":1856:1863  user_id */\n      dup3\n        /* \"contracts/DAPP_task.sol\":1865:1875  msg.sender */\n      caller\n        /* \"contracts/DAPP_task.sol\":1877:1886  msg.value */\n      callvalue\n        /* \"contracts/DAPP_task.sol\":1845:1887  contribute(user_id, msg.sender, msg.value) */\n      mload(0x40)\n      tag_136\n      swap4\n      swap3\n      swap2\n      swap1\n      tag_137\n      jump\t// in\n    tag_136:\n      mload(0x40)\n      dup1\n      swap2\n      sub\n      swap1\n      log1\n        /* \"contracts/DAPP_task.sol\":1890:1919  show_remainingamount(user_id) */\n      tag_138\n        /* \"contracts/DAPP_task.sol\":1911:1918  user_id */\n      dup3\n        /* \"contracts/DAPP_task.sol\":1890:1910  show_remainingamount */\n      tag_51\n        /* \"contracts/DAPP_task.sol\":1890:1919  show_remainingamount(user_id) */\n      jump\t// in\n    tag_138:\n      pop\n        /* \"contracts/DAPP_task.sol\":1926:1930  this */\n      address\n        /* \"contracts/DAPP_task.sol\":1926:1941  this.getdetails */\n      0xffffffffffffffffffffffffffffffffffffffff\n      and\n      0x10445b2b\n        /* \"contracts/DAPP_task.sol\":1942:1949  user_id */\n      dup4\n        /* \"contracts/DAPP_task.sol\":1926:1950  this.getdetails(user_id) */\n      mload(0x40)\n      dup3\n      0xffffffff\n      and\n      0xe0\n      shl\n      dup2\n      mstore\n      0x04\n      add\n      tag_139\n      swap2\n      swap1\n      tag_38\n      jump\t// in\n    tag_139:\n      0x00\n      mload(0x40)\n      dup1\n      dup4\n      sub\n      dup2\n      dup7\n      gas\n      staticcall\n      swap3\n      pop\n      pop\n      pop\n      dup1\n      iszero\n      tag_140\n      jumpi\n      pop\n      mload(0x40)\n      returndatasize\n      0x00\n      dup3\n      returndatacopy\n      returndatasize\n      not(0x1f)\n      0x1f\n      dup3\n      add\n      and\n      dup3\n      add\n      dup1\n      0x40\n      mstore\n      pop\n      dup2\n      add\n      swap1\n      tag_141\n      swap2\n      swap1\n      tag_142\n      jump\t// in\n    tag_141:\n      0x01\n    tag_140:\n        /* \"contracts/DAPP_task.sol\":1922:2055  try this.getdetails(user_id) returns(funding memory _res){... */\n      tag_143\n      jumpi\n        /* \"contracts/DAPP_task.sol\":2026:2049  error(\"user not found\") */\n      0x24c93343bea44ff8f0e628ca4e5b87dfe0823d664c887457e166a03798bb191c\n      mload(0x40)\n      tag_147\n      swap1\n      tag_148\n      jump\t// in\n    tag_147:\n      mload(0x40)\n      dup1\n      swap2\n      sub\n      swap1\n      log1\n        /* \"contracts/DAPP_task.sol\":1922:2055  try this.getdetails(user_id) returns(funding memory _res){... */\n      jump(tag_149)\n    tag_143:\n        /* \"contracts/DAPP_task.sol\":1996:2000  _res */\n      dup1\n        /* \"contracts/DAPP_task.sol\":1988:2001  return (_res) */\n      swap2\n      pop\n      pop\n      jump(tag_126)\n        /* \"contracts/DAPP_task.sol\":1922:2055  try this.getdetails(user_id) returns(funding memory _res){... */\n    tag_149:\n        /* \"contracts/DAPP_task.sol\":737:738  _ */\n    tag_126:\n        /* \"contracts/DAPP_task.sol\":1617:2102  function contribution(uint256 user_id) external payable   allowedtime returns (funding memory res) {... */\n      swap2\n      swap1\n      pop\n      jump\t// out\n        /* \"contracts/DAPP_task.sol\":3447:3807  function completebyadmin(uint256 u_id) public onlycontractowner{... */\n    tag_65:\n        /* \"contracts/DAPP_task.sol\":604:618  contract_owner */\n      0x00\n      dup1\n      sload\n      swap1\n      0x0100\n      exp\n      swap1\n      div\n      0xffffffffffffffffffffffffffffffffffffffff\n      and\n        /* \"contracts/DAPP_task.sol\":590:618  msg.sender == contract_owner */\n      0xffffffffffffffffffffffffffffffffffffffff\n      and\n        /* \"contracts/DAPP_task.sol\":590:600  msg.sender */\n      caller\n        /* \"contracts/DAPP_task.sol\":590:618  msg.sender == contract_owner */\n      0xffffffffffffffffffffffffffffffffffffffff\n      and\n      eq\n        /* \"contracts/DAPP_task.sol\":582:619  require(msg.sender == contract_owner) */\n      tag_151\n      jumpi\n      0x00\n      dup1\n      revert\n    tag_151:\n        /* \"contracts/DAPP_task.sol\":485:493  20 ether */\n      0x01158e460913d00000\n        /* \"contracts/DAPP_task.sol\":3518:3522  fund */\n      0x02\n        /* \"contracts/DAPP_task.sol\":3518:3528  fund[u_id] */\n      0x00\n        /* \"contracts/DAPP_task.sol\":3523:3527  u_id */\n      dup4\n        /* \"contracts/DAPP_task.sol\":3518:3528  fund[u_id] */\n      dup2\n      mstore\n      0x20\n      add\n      swap1\n      dup2\n      mstore\n      0x20\n      add\n      0x00\n      keccak256\n        /* \"contracts/DAPP_task.sol\":3518:3540  fund[u_id].raiseamount */\n      0x04\n      add\n      sload\n        /* \"contracts/DAPP_task.sol\":3518:3548  fund[u_id].raiseamount >= goal */\n      lt\n        /* \"contracts/DAPP_task.sol\":3515:3800  if(fund[u_id].raiseamount >= goal){... */\n      tag_153\n      jumpi\n        /* \"contracts/DAPP_task.sol\":3560:3571  uint amount */\n      0x00\n        /* \"contracts/DAPP_task.sol\":3574:3578  fund */\n      0x02\n        /* \"contracts/DAPP_task.sol\":3574:3584  fund[u_id] */\n      0x00\n        /* \"contracts/DAPP_task.sol\":3579:3583  u_id */\n      dup4\n        /* \"contracts/DAPP_task.sol\":3574:3584  fund[u_id] */\n      dup2\n      mstore\n      0x20\n      add\n      swap1\n      dup2\n      mstore\n      0x20\n      add\n      0x00\n      keccak256\n        /* \"contracts/DAPP_task.sol\":3574:3596  fund[u_id].raiseamount */\n      0x04\n      add\n      sload\n        /* \"contracts/DAPP_task.sol\":3560:3596  uint amount = fund[u_id].raiseamount */\n      swap1\n      pop\n        /* \"contracts/DAPP_task.sol\":3611:3615  fund */\n      0x02\n        /* \"contracts/DAPP_task.sol\":3611:3621  fund[u_id] */\n      0x00\n        /* \"contracts/DAPP_task.sol\":3616:3620  u_id */\n      dup4\n        /* \"contracts/DAPP_task.sol\":3611:3621  fund[u_id] */\n      dup2\n      mstore\n      0x20\n      add\n      swap1\n      dup2\n      mstore\n      0x20\n      add\n      0x00\n      keccak256\n        /* \"contracts/DAPP_task.sol\":3611:3631  fund[u_id].campowner */\n      0x03\n      add\n      0x00\n      swap1\n      sload\n      swap1\n      0x0100\n      exp\n      swap1\n      div\n      0xffffffffffffffffffffffffffffffffffffffff\n      and\n        /* \"contracts/DAPP_task.sol\":3603:3641  payable(fund[u_id].campowner).transfer */\n      0xffffffffffffffffffffffffffffffffffffffff\n      and\n        /* \"contracts/DAPP_task.sol\":3603:3649  payable(fund[u_id].campowner).transfer(amount) */\n      0x08fc\n        /* \"contracts/DAPP_task.sol\":3642:3648  amount */\n      dup3\n        /* \"contracts/DAPP_task.sol\":3603:3649  payable(fund[u_id].campowner).transfer(amount) */\n      swap1\n      dup2\n      iszero\n      mul\n      swap1\n      mload(0x40)\n      0x00\n      mload(0x40)\n      dup1\n      dup4\n      sub\n      dup2\n      dup6\n      dup9\n      dup9\n      call\n      swap4\n      pop\n      pop\n      pop\n      pop\n      iszero\n      dup1\n      iszero\n      tag_155\n      jumpi\n      returndatasize\n      0x00\n      dup1\n      returndatacopy\n      revert(0x00, returndatasize)\n    tag_155:\n      pop\n        /* \"contracts/DAPP_task.sol\":3675:3695  checkstate.completed */\n      0x01\n        /* \"contracts/DAPP_task.sol\":3656:3660  fund */\n      0x02\n        /* \"contracts/DAPP_task.sol\":3656:3666  fund[u_id] */\n      0x00\n        /* \"contracts/DAPP_task.sol\":3661:3665  u_id */\n      dup5\n        /* \"contracts/DAPP_task.sol\":3656:3666  fund[u_id] */\n      dup2\n      mstore\n      0x20\n      add\n      swap1\n      dup2\n      mstore\n      0x20\n      add\n      0x00\n      keccak256\n        /* \"contracts/DAPP_task.sol\":3656:3672  fund[u_id].state */\n      0x05\n      add\n      0x00\n        /* \"contracts/DAPP_task.sol\":3656:3695  fund[u_id].state = checkstate.completed */\n      0x0100\n      exp\n      dup2\n      sload\n      dup2\n      0xff\n      mul\n      not\n      and\n      swap1\n      dup4\n      0x01\n      dup2\n      gt\n      iszero\n      tag_156\n      jumpi\n      tag_157\n      tag_82\n      jump\t// in\n    tag_157:\n    tag_156:\n      mul\n      or\n      swap1\n      sstore\n      pop\n        /* \"contracts/DAPP_task.sol\":3707:3740  complete(msg.sender, u_id,amount) */\n      0x9576942f6783612a1de73784d0a4a99e49ddbc7e59e8fc927cffc1ee5385d236\n        /* \"contracts/DAPP_task.sol\":3716:3726  msg.sender */\n      caller\n        /* \"contracts/DAPP_task.sol\":3728:3732  u_id */\n      dup4\n        /* \"contracts/DAPP_task.sol\":3733:3739  amount */\n      dup4\n        /* \"contracts/DAPP_task.sol\":3707:3740  complete(msg.sender, u_id,amount) */\n      mload(0x40)\n      tag_158\n      swap4\n      swap3\n      swap2\n      swap1\n      tag_99\n      jump\t// in\n    tag_158:\n      mload(0x40)\n      dup1\n      swap2\n      sub\n      swap1\n      log1\n        /* \"contracts/DAPP_task.sol\":3549:3746  {... */\n      pop\n        /* \"contracts/DAPP_task.sol\":3515:3800  if(fund[u_id].raiseamount >= goal){... */\n      jump(tag_159)\n    tag_153:\n        /* \"contracts/DAPP_task.sol\":3759:3796  revert(\"amount is not equal to goal\") */\n      mload(0x40)\n      0x08c379a000000000000000000000000000000000000000000000000000000000\n      dup2\n      mstore\n      0x04\n      add\n      tag_160\n      swap1\n      tag_116\n      jump\t// in\n    tag_160:\n      mload(0x40)\n      dup1\n      swap2\n      sub\n      swap1\n      revert\n        /* \"contracts/DAPP_task.sol\":3515:3800  if(fund[u_id].raiseamount >= goal){... */\n    tag_159:\n        /* \"contracts/DAPP_task.sol\":3447:3807  function completebyadmin(uint256 u_id) public onlycontractowner{... */\n      pop\n      jump\t// out\n        /* \"contracts/DAPP_task.sol\":1069:1328  function add_user(uint256 _id,string calldata _name,... */\n    tag_87:\n        /* \"contracts/DAPP_task.sol\":1175:1322  funding({... */\n      mload(0x40)\n      dup1\n      0xc0\n      add\n      0x40\n      mstore\n      dup1\n        /* \"contracts/DAPP_task.sol\":1194:1197  _id */\n      dup6\n        /* \"contracts/DAPP_task.sol\":1175:1322  funding({... */\n      dup2\n      mstore\n      0x20\n      add\n        /* \"contracts/DAPP_task.sol\":1207:1212  _name */\n      dup5\n      dup5\n        /* \"contracts/DAPP_task.sol\":1175:1322  funding({... */\n      dup1\n      dup1\n      0x1f\n      add\n      0x20\n      dup1\n      swap2\n      div\n      mul\n      0x20\n      add\n      mload(0x40)\n      swap1\n      dup2\n      add\n      0x40\n      mstore\n      dup1\n      swap4\n      swap3\n      swap2\n      swap1\n      dup2\n      dup2\n      mstore\n      0x20\n      add\n      dup4\n      dup4\n      dup1\n      dup3\n      dup5\n      calldatacopy\n      0x00\n      dup2\n      dup5\n      add\n      mstore\n      not(0x1f)\n      0x1f\n      dup3\n      add\n      and\n      swap1\n      pop\n      dup1\n      dup4\n      add\n      swap3\n      pop\n      pop\n      pop\n      pop\n      pop\n      pop\n      pop\n      dup2\n      mstore\n      0x20\n      add\n        /* \"contracts/DAPP_task.sol\":1229:1241  _discription */\n      dup3\n        /* \"contracts/DAPP_task.sol\":1175:1322  funding({... */\n      dup2\n      mstore\n      0x20\n      add\n        /* \"contracts/DAPP_task.sol\":1258:1268  msg.sender */\n      caller\n        /* \"contracts/DAPP_task.sol\":1175:1322  funding({... */\n      0xffffffffffffffffffffffffffffffffffffffff\n      and\n      dup2\n      mstore\n      0x20\n      add\n        /* \"contracts/DAPP_task.sol\":1285:1286  0 */\n      0x00\n        /* \"contracts/DAPP_task.sol\":1175:1322  funding({... */\n      dup2\n      mstore\n      0x20\n      add\n        /* \"contracts/DAPP_task.sol\":1297:1314  checkstate.active */\n      0x00\n        /* \"contracts/DAPP_task.sol\":1175:1322  funding({... */\n      0x01\n      dup2\n      gt\n      iszero\n      tag_162\n      jumpi\n      tag_163\n      tag_82\n      jump\t// in\n    tag_163:\n    tag_162:\n      dup2\n      mstore\n      pop\n        /* \"contracts/DAPP_task.sol\":1163:1167  fund */\n      0x02\n        /* \"contracts/DAPP_task.sol\":1163:1172  fund[_id] */\n      0x00\n        /* \"contracts/DAPP_task.sol\":1168:1171  _id */\n      dup7\n        /* \"contracts/DAPP_task.sol\":1163:1172  fund[_id] */\n      dup2\n      mstore\n      0x20\n      add\n      swap1\n      dup2\n      mstore\n      0x20\n      add\n      0x00\n      keccak256\n        /* \"contracts/DAPP_task.sol\":1163:1322  fund[_id] = funding({... */\n      0x00\n      dup3\n      add\n      mload\n      dup2\n      0x00\n      add\n      sstore\n      0x20\n      dup3\n      add\n      mload\n      dup2\n      0x01\n      add\n      swap1\n      dup2\n      tag_164\n      swap2\n      swap1\n      tag_165\n      jump\t// in\n    tag_164:\n      pop\n      0x40\n      dup3\n      add\n      mload\n      dup2\n      0x02\n      add\n      swap1\n      dup2\n      tag_166\n      swap2\n      swap1\n      tag_165\n      jump\t// in\n    tag_166:\n      pop\n      0x60\n      dup3\n      add\n      mload\n      dup2\n      0x03\n      add\n      exp(0x0100, 0x00)\n      dup2\n      sload\n      dup2\n      0xffffffffffffffffffffffffffffffffffffffff\n      mul\n      not\n      and\n      swap1\n      dup4\n      0xffffffffffffffffffffffffffffffffffffffff\n      and\n      mul\n      or\n      swap1\n      sstore\n      pop\n      0x80\n      dup3\n      add\n      mload\n      dup2\n      0x04\n      add\n      sstore\n      0xa0\n      dup3\n      add\n      mload\n      dup2\n      0x05\n      add\n      exp(0x0100, 0x00)\n      dup2\n      sload\n      dup2\n      0xff\n      mul\n      not\n      and\n      swap1\n      dup4\n      0x01\n      dup2\n      gt\n      iszero\n      tag_167\n      jumpi\n      tag_168\n      tag_82\n      jump\t// in\n    tag_168:\n    tag_167:\n      mul\n      or\n      swap1\n      sstore\n      pop\n      swap1\n      pop\n      pop\n        /* \"contracts/DAPP_task.sol\":1069:1328  function add_user(uint256 _id,string calldata _name,... */\n      pop\n      pop\n      pop\n      pop\n      jump\t// out\n    tag_67:\n      mload(0x40)\n      dup1\n      0xc0\n      add\n      0x40\n      mstore\n      dup1\n      0x00\n      dup2\n      mstore\n      0x20\n      add\n      0x60\n      dup2\n      mstore\n      0x20\n      add\n      0x60\n      dup2\n      mstore\n      0x20\n      add\n      and(0xffffffffffffffffffffffffffffffffffffffff, 0x00)\n      dup2\n      mstore\n      0x20\n      add\n      0x00\n      dup2\n      mstore\n      0x20\n      add\n      0x00\n      0x01\n      dup2\n      gt\n      iszero\n      tag_169\n      jumpi\n      tag_170\n      tag_82\n      jump\t// in\n    tag_170:\n    tag_169:\n      dup2\n      mstore\n      pop\n      swap1\n      jump\t// out\n        /* \"#utility.yul\":7:176   */\n    tag_171:\n        /* \"#utility.yul\":91:102   */\n      0x00\n        /* \"#utility.yul\":125:131   */\n      dup3\n        /* \"#utility.yul\":120:123   */\n      dup3\n        /* \"#utility.yul\":113:132   */\n      mstore\n        /* \"#utility.yul\":165:169   */\n      0x20\n        /* \"#utility.yul\":160:163   */\n      dup3\n        /* \"#utility.yul\":156:170   */\n      add\n        /* \"#utility.yul\":141:170   */\n      swap1\n      pop\n        /* \"#utility.yul\":7:176   */\n      swap3\n      swap2\n      pop\n      pop\n      jump\t// out\n        /* \"#utility.yul\":182:360   */\n    tag_172:\n        /* \"#utility.yul\":322:352   */\n      0x616d6f756e74207265636569766564207375636365737366756c6c7900000000\n        /* \"#utility.yul\":318:319   */\n      0x00\n        /* \"#utility.yul\":310:316   */\n      dup3\n        /* \"#utility.yul\":306:320   */\n      add\n        /* \"#utility.yul\":299:353   */\n      mstore\n        /* \"#utility.yul\":182:360   */\n      pop\n      jump\t// out\n        /* \"#utility.yul\":366:732   */\n    tag_173:\n        /* \"#utility.yul\":508:511   */\n      0x00\n        /* \"#utility.yul\":529:596   */\n      tag_253\n        /* \"#utility.yul\":593:595   */\n      0x1c\n        /* \"#utility.yul\":588:591   */\n      dup4\n        /* \"#utility.yul\":529:596   */\n      tag_171\n      jump\t// in\n    tag_253:\n        /* \"#utility.yul\":522:596   */\n      swap2\n      pop\n        /* \"#utility.yul\":605:698   */\n      tag_254\n        /* \"#utility.yul\":694:697   */\n      dup3\n        /* \"#utility.yul\":605:698   */\n      tag_172\n      jump\t// in\n    tag_254:\n        /* \"#utility.yul\":723:725   */\n      0x20\n        /* \"#utility.yul\":718:721   */\n      dup3\n        /* \"#utility.yul\":714:726   */\n      add\n        /* \"#utility.yul\":707:726   */\n      swap1\n      pop\n        /* \"#utility.yul\":366:732   */\n      swap2\n      swap1\n      pop\n      jump\t// out\n        /* \"#utility.yul\":738:1157   */\n    tag_17:\n        /* \"#utility.yul\":904:908   */\n      0x00\n        /* \"#utility.yul\":942:944   */\n      0x20\n        /* \"#utility.yul\":931:940   */\n      dup3\n        /* \"#utility.yul\":927:945   */\n      add\n        /* \"#utility.yul\":919:945   */\n      swap1\n      pop\n        /* \"#utility.yul\":991:1000   */\n      dup2\n        /* \"#utility.yul\":985:989   */\n      dup2\n        /* \"#utility.yul\":981:1001   */\n      sub\n        /* \"#utility.yul\":977:978   */\n      0x00\n        /* \"#utility.yul\":966:975   */\n      dup4\n        /* \"#utility.yul\":962:979   */\n      add\n        /* \"#utility.yul\":955:1002   */\n      mstore\n        /* \"#utility.yul\":1019:1150   */\n      tag_256\n        /* \"#utility.yul\":1145:1149   */\n      dup2\n        /* \"#utility.yul\":1019:1150   */\n      tag_173\n      jump\t// in\n    tag_256:\n        /* \"#utility.yul\":1011:1150   */\n      swap1\n      pop\n        /* \"#utility.yul\":738:1157   */\n      swap2\n      swap1\n      pop\n      jump\t// out\n        /* \"#utility.yul\":1163:1238   */\n    tag_174:\n        /* \"#utility.yul\":1196:1202   */\n      0x00\n        /* \"#utility.yul\":1229:1231   */\n      0x40\n        /* \"#utility.yul\":1223:1232   */\n      mload\n        /* \"#utility.yul\":1213:1232   */\n      swap1\n      pop\n        /* \"#utility.yul\":1163:1238   */\n      swap1\n      jump\t// out\n        /* \"#utility.yul\":1244:1361   */\n    tag_175:\n        /* \"#utility.yul\":1353:1354   */\n      0x00\n        /* \"#utility.yul\":1350:1351   */\n      dup1\n        /* \"#utility.yul\":1343:1355   */\n      revert\n        /* \"#utility.yul\":1367:1484   */\n    tag_176:\n        /* \"#utility.yul\":1476:1477   */\n      0x00\n        /* \"#utility.yul\":1473:1474   */\n      dup1\n        /* \"#utility.yul\":1466:1478   */\n      revert\n        /* \"#utility.yul\":1490:1567   */\n    tag_177:\n        /* \"#utility.yul\":1527:1534   */\n      0x00\n        /* \"#utility.yul\":1556:1561   */\n      dup2\n        /* \"#utility.yul\":1545:1561   */\n      swap1\n      pop\n        /* \"#utility.yul\":1490:1567   */\n      swap2\n      swap1\n      pop\n      jump\t// out\n        /* \"#utility.yul\":1573:1695   */\n    tag_178:\n        /* \"#utility.yul\":1646:1670   */\n      tag_262\n        /* \"#utility.yul\":1664:1669   */\n      dup2\n        /* \"#utility.yul\":1646:1670   */\n      tag_177\n      jump\t// in\n    tag_262:\n        /* \"#utility.yul\":1639:1644   */\n      dup2\n        /* \"#utility.yul\":1636:1671   */\n      eq\n        /* \"#utility.yul\":1626:1689   */\n      tag_263\n      jumpi\n        /* \"#utility.yul\":1685:1686   */\n      0x00\n        /* \"#utility.yul\":1682:1683   */\n      dup1\n        /* \"#utility.yul\":1675:1687   */\n      revert\n        /* \"#utility.yul\":1626:1689   */\n    tag_263:\n        /* \"#utility.yul\":1573:1695   */\n      pop\n      jump\t// out\n        /* \"#utility.yul\":1701:1840   */\n    tag_179:\n        /* \"#utility.yul\":1747:1752   */\n      0x00\n        /* \"#utility.yul\":1785:1791   */\n      dup2\n        /* \"#utility.yul\":1772:1792   */\n      calldataload\n        /* \"#utility.yul\":1763:1792   */\n      swap1\n      pop\n        /* \"#utility.yul\":1801:1834   */\n      tag_265\n        /* \"#utility.yul\":1828:1833   */\n      dup2\n        /* \"#utility.yul\":1801:1834   */\n      tag_178\n      jump\t// in\n    tag_265:\n        /* \"#utility.yul\":1701:1840   */\n      swap3\n      swap2\n      pop\n      pop\n      jump\t// out\n        /* \"#utility.yul\":1846:2175   */\n    tag_21:\n        /* \"#utility.yul\":1905:1911   */\n      0x00\n        /* \"#utility.yul\":1954:1956   */\n      0x20\n        /* \"#utility.yul\":1942:1951   */\n      dup3\n        /* \"#utility.yul\":1933:1940   */\n      dup5\n        /* \"#utility.yul\":1929:1952   */\n      sub\n        /* \"#utility.yul\":1925:1957   */\n      slt\n        /* \"#utility.yul\":1922:2041   */\n      iszero\n      tag_267\n      jumpi\n        /* \"#utility.yul\":1960:2039   */\n      tag_268\n      tag_175\n      jump\t// in\n    tag_268:\n        /* \"#utility.yul\":1922:2041   */\n    tag_267:\n        /* \"#utility.yul\":2080:2081   */\n      0x00\n        /* \"#utility.yul\":2105:2158   */\n      tag_269\n        /* \"#utility.yul\":2150:2157   */\n      dup5\n        /* \"#utility.yul\":2141:2147   */\n      dup3\n        /* \"#utility.yul\":2130:2139   */\n      dup6\n        /* \"#utility.yul\":2126:2148   */\n      add\n        /* \"#utility.yul\":2105:2158   */\n      tag_179\n      jump\t// in\n    tag_269:\n        /* \"#utility.yul\":2095:2158   */\n      swap2\n      pop\n        /* \"#utility.yul\":2051:2168   */\n      pop\n        /* \"#utility.yul\":1846:2175   */\n      swap3\n      swap2\n      pop\n      pop\n      jump\t// out\n        /* \"#utility.yul\":2181:2289   */\n    tag_180:\n        /* \"#utility.yul\":2258:2282   */\n      tag_271\n        /* \"#utility.yul\":2276:2281   */\n      dup2\n        /* \"#utility.yul\":2258:2282   */\n      tag_177\n      jump\t// in\n    tag_271:\n        /* \"#utility.yul\":2253:2256   */\n      dup3\n        /* \"#utility.yul\":2246:2283   */\n      mstore\n        /* \"#utility.yul\":2181:2289   */\n      pop\n      pop\n      jump\t// out\n        /* \"#utility.yul\":2295:2394   */\n    tag_181:\n        /* \"#utility.yul\":2347:2353   */\n      0x00\n        /* \"#utility.yul\":2381:2386   */\n      dup2\n        /* \"#utility.yul\":2375:2387   */\n      mload\n        /* \"#utility.yul\":2365:2387   */\n      swap1\n      pop\n        /* \"#utility.yul\":2295:2394   */\n      swap2\n      swap1\n      pop\n      jump\t// out\n        /* \"#utility.yul\":2400:2559   */\n    tag_182:\n        /* \"#utility.yul\":2474:2485   */\n      0x00\n        /* \"#utility.yul\":2508:2514   */\n      dup3\n        /* \"#utility.yul\":2503:2506   */\n      dup3\n        /* \"#utility.yul\":2496:2515   */\n      mstore\n        /* \"#utility.yul\":2548:2552   */\n      0x20\n        /* \"#utility.yul\":2543:2546   */\n      dup3\n        /* \"#utility.yul\":2539:2553   */\n      add\n        /* \"#utility.yul\":2524:2553   */\n      swap1\n      pop\n        /* \"#utility.yul\":2400:2559   */\n      swap3\n      swap2\n      pop\n      pop\n      jump\t// out\n        /* \"#utility.yul\":2565:2811   */\n    tag_183:\n        /* \"#utility.yul\":2646:2647   */\n      0x00\n        /* \"#utility.yul\":2656:2769   */\n    tag_275:\n        /* \"#utility.yul\":2670:2676   */\n      dup4\n        /* \"#utility.yul\":2667:2668   */\n      dup2\n        /* \"#utility.yul\":2664:2677   */\n      lt\n        /* \"#utility.yul\":2656:2769   */\n      iszero\n      tag_277\n      jumpi\n        /* \"#utility.yul\":2755:2756   */\n      dup1\n        /* \"#utility.yul\":2750:2753   */\n      dup3\n        /* \"#utility.yul\":2746:2757   */\n      add\n        /* \"#utility.yul\":2740:2758   */\n      mload\n        /* \"#utility.yul\":2736:2737   */\n      dup2\n        /* \"#utility.yul\":2731:2734   */\n      dup5\n        /* \"#utility.yul\":2727:2738   */\n      add\n        /* \"#utility.yul\":2720:2759   */\n      mstore\n        /* \"#utility.yul\":2692:2694   */\n      0x20\n        /* \"#utility.yul\":2689:2690   */\n      dup2\n        /* \"#utility.yul\":2685:2695   */\n      add\n        /* \"#utility.yul\":2680:2695   */\n      swap1\n      pop\n        /* \"#utility.yul\":2656:2769   */\n      jump(tag_275)\n    tag_277:\n        /* \"#utility.yul\":2803:2804   */\n      0x00\n        /* \"#utility.yul\":2794:2800   */\n      dup5\n        /* \"#utility.yul\":2789:2792   */\n      dup5\n        /* \"#utility.yul\":2785:2801   */\n      add\n        /* \"#utility.yul\":2778:2805   */\n      mstore\n        /* \"#utility.yul\":2627:2811   */\n      pop\n        /* \"#utility.yul\":2565:2811   */\n      pop\n      pop\n      pop\n      jump\t// out\n        /* \"#utility.yul\":2817:2919   */\n    tag_184:\n        /* \"#utility.yul\":2858:2864   */\n      0x00\n        /* \"#utility.yul\":2909:2911   */\n      0x1f\n        /* \"#utility.yul\":2905:2912   */\n      not\n        /* \"#utility.yul\":2900:2902   */\n      0x1f\n        /* \"#utility.yul\":2893:2898   */\n      dup4\n        /* \"#utility.yul\":2889:2903   */\n      add\n        /* \"#utility.yul\":2885:2913   */\n      and\n        /* \"#utility.yul\":2875:2913   */\n      swap1\n      pop\n        /* \"#utility.yul\":2817:2919   */\n      swap2\n      swap1\n      pop\n      jump\t// out\n        /* \"#utility.yul\":2925:3282   */\n    tag_185:\n        /* \"#utility.yul\":3003:3006   */\n      0x00\n        /* \"#utility.yul\":3031:3070   */\n      tag_280\n        /* \"#utility.yul\":3064:3069   */\n      dup3\n        /* \"#utility.yul\":3031:3070   */\n      tag_181\n      jump\t// in\n    tag_280:\n        /* \"#utility.yul\":3086:3147   */\n      tag_281\n        /* \"#utility.yul\":3140:3146   */\n      dup2\n        /* \"#utility.yul\":3135:3138   */\n      dup6\n        /* \"#utility.yul\":3086:3147   */\n      tag_182\n      jump\t// in\n    tag_281:\n        /* \"#utility.yul\":3079:3147   */\n      swap4\n      pop\n        /* \"#utility.yul\":3156:3221   */\n      tag_282\n        /* \"#utility.yul\":3214:3220   */\n      dup2\n        /* \"#utility.yul\":3209:3212   */\n      dup6\n        /* \"#utility.yul\":3202:3206   */\n      0x20\n        /* \"#utility.yul\":3195:3200   */\n      dup7\n        /* \"#utility.yul\":3191:3207   */\n      add\n        /* \"#utility.yul\":3156:3221   */\n      tag_183\n      jump\t// in\n    tag_282:\n        /* \"#utility.yul\":3246:3275   */\n      tag_283\n        /* \"#utility.yul\":3268:3274   */\n      dup2\n        /* \"#utility.yul\":3246:3275   */\n      tag_184\n      jump\t// in\n    tag_283:\n        /* \"#utility.yul\":3241:3244   */\n      dup5\n        /* \"#utility.yul\":3237:3276   */\n      add\n        /* \"#utility.yul\":3230:3276   */\n      swap2\n      pop\n        /* \"#utility.yul\":3007:3282   */\n      pop\n        /* \"#utility.yul\":2925:3282   */\n      swap3\n      swap2\n      pop\n      pop\n      jump\t// out\n        /* \"#utility.yul\":3288:3414   */\n    tag_186:\n        /* \"#utility.yul\":3325:3332   */\n      0x00\n        /* \"#utility.yul\":3365:3407   */\n      0xffffffffffffffffffffffffffffffffffffffff\n        /* \"#utility.yul\":3358:3363   */\n      dup3\n        /* \"#utility.yul\":3354:3408   */\n      and\n        /* \"#utility.yul\":3343:3408   */\n      swap1\n      pop\n        /* \"#utility.yul\":3288:3414   */\n      swap2\n      swap1\n      pop\n      jump\t// out\n        /* \"#utility.yul\":3420:3516   */\n    tag_187:\n        /* \"#utility.yul\":3457:3464   */\n      0x00\n        /* \"#utility.yul\":3486:3510   */\n      tag_286\n        /* \"#utility.yul\":3504:3509   */\n      dup3\n        /* \"#utility.yul\":3486:3510   */\n      tag_186\n      jump\t// in\n    tag_286:\n        /* \"#utility.yul\":3475:3510   */\n      swap1\n      pop\n        /* \"#utility.yul\":3420:3516   */\n      swap2\n      swap1\n      pop\n      jump\t// out\n        /* \"#utility.yul\":3522:3630   */\n    tag_188:\n        /* \"#utility.yul\":3599:3623   */\n      tag_288\n        /* \"#utility.yul\":3617:3622   */\n      dup2\n        /* \"#utility.yul\":3599:3623   */\n      tag_187\n      jump\t// in\n    tag_288:\n        /* \"#utility.yul\":3594:3597   */\n      dup3\n        /* \"#utility.yul\":3587:3624   */\n      mstore\n        /* \"#utility.yul\":3522:3630   */\n      pop\n      pop\n      jump\t// out\n        /* \"#utility.yul\":3636:3816   */\n    tag_82:\n        /* \"#utility.yul\":3684:3761   */\n      0x4e487b7100000000000000000000000000000000000000000000000000000000\n        /* \"#utility.yul\":3681:3682   */\n      0x00\n        /* \"#utility.yul\":3674:3762   */\n      mstore\n        /* \"#utility.yul\":3781:3785   */\n      0x21\n        /* \"#utility.yul\":3778:3779   */\n      0x04\n        /* \"#utility.yul\":3771:3786   */\n      mstore\n        /* \"#utility.yul\":3805:3809   */\n      0x24\n        /* \"#utility.yul\":3802:3803   */\n      0x00\n        /* \"#utility.yul\":3795:3810   */\n      revert\n        /* \"#utility.yul\":3822:3939   */\n    tag_189:\n        /* \"#utility.yul\":3907:3908   */\n      0x02\n        /* \"#utility.yul\":3900:3905   */\n      dup2\n        /* \"#utility.yul\":3897:3909   */\n      lt\n        /* \"#utility.yul\":3887:3933   */\n      tag_291\n      jumpi\n        /* \"#utility.yul\":3913:3931   */\n      tag_292\n      tag_82\n      jump\t// in\n    tag_292:\n        /* \"#utility.yul\":3887:3933   */\n    tag_291:\n        /* \"#utility.yul\":3822:3939   */\n      pop\n      jump\t// out\n        /* \"#utility.yul\":3945:4080   */\n    tag_190:\n        /* \"#utility.yul\":3994:4001   */\n      0x00\n        /* \"#utility.yul\":4023:4028   */\n      dup2\n        /* \"#utility.yul\":4012:4028   */\n      swap1\n      pop\n        /* \"#utility.yul\":4029:4074   */\n      tag_294\n        /* \"#utility.yul\":4068:4073   */\n      dup3\n        /* \"#utility.yul\":4029:4074   */\n      tag_189\n      jump\t// in\n    tag_294:\n        /* \"#utility.yul\":3945:4080   */\n      swap2\n      swap1\n      pop\n      jump\t// out\n        /* \"#utility.yul\":4086:4221   */\n    tag_191:\n        /* \"#utility.yul\":4146:4155   */\n      0x00\n        /* \"#utility.yul\":4179:4215   */\n      tag_296\n        /* \"#utility.yul\":4209:4214   */\n      dup3\n        /* \"#utility.yul\":4179:4215   */\n      tag_190\n      jump\t// in\n    tag_296:\n        /* \"#utility.yul\":4166:4215   */\n      swap1\n      pop\n        /* \"#utility.yul\":4086:4221   */\n      swap2\n      swap1\n      pop\n      jump\t// out\n        /* \"#utility.yul\":4227:4368   */\n    tag_192:\n        /* \"#utility.yul\":4314:4361   */\n      tag_298\n        /* \"#utility.yul\":4355:4360   */\n      dup2\n        /* \"#utility.yul\":4314:4361   */\n      tag_191\n      jump\t// in\n    tag_298:\n        /* \"#utility.yul\":4309:4312   */\n      dup3\n        /* \"#utility.yul\":4302:4362   */\n      mstore\n        /* \"#utility.yul\":4227:4368   */\n      pop\n      pop\n      jump\t// out\n        /* \"#utility.yul\":4424:5823   */\n    tag_193:\n        /* \"#utility.yul\":4541:4544   */\n      0x00\n        /* \"#utility.yul\":4577:4581   */\n      0xc0\n        /* \"#utility.yul\":4572:4575   */\n      dup4\n        /* \"#utility.yul\":4568:4582   */\n      add\n        /* \"#utility.yul\":4662:4666   */\n      0x00\n        /* \"#utility.yul\":4655:4660   */\n      dup4\n        /* \"#utility.yul\":4651:4667   */\n      add\n        /* \"#utility.yul\":4645:4668   */\n      mload\n        /* \"#utility.yul\":4681:4744   */\n      tag_300\n        /* \"#utility.yul\":4738:4742   */\n      0x00\n        /* \"#utility.yul\":4733:4736   */\n      dup7\n        /* \"#utility.yul\":4729:4743   */\n      add\n        /* \"#utility.yul\":4715:4727   */\n      dup3\n        /* \"#utility.yul\":4681:4744   */\n      tag_180\n      jump\t// in\n    tag_300:\n        /* \"#utility.yul\":4592:4754   */\n      pop\n        /* \"#utility.yul\":4836:4840   */\n      0x20\n        /* \"#utility.yul\":4829:4834   */\n      dup4\n        /* \"#utility.yul\":4825:4841   */\n      add\n        /* \"#utility.yul\":4819:4842   */\n      mload\n        /* \"#utility.yul\":4889:4892   */\n      dup5\n        /* \"#utility.yul\":4883:4887   */\n      dup3\n        /* \"#utility.yul\":4879:4893   */\n      sub\n        /* \"#utility.yul\":4872:4876   */\n      0x20\n        /* \"#utility.yul\":4867:4870   */\n      dup7\n        /* \"#utility.yul\":4863:4877   */\n      add\n        /* \"#utility.yul\":4856:4894   */\n      mstore\n        /* \"#utility.yul\":4915:4988   */\n      tag_301\n        /* \"#utility.yul\":4983:4987   */\n      dup3\n        /* \"#utility.yul\":4969:4981   */\n      dup3\n        /* \"#utility.yul\":4915:4988   */\n      tag_185\n      jump\t// in\n    tag_301:\n        /* \"#utility.yul\":4907:4988   */\n      swap2\n      pop\n        /* \"#utility.yul\":4764:4999   */\n      pop\n        /* \"#utility.yul\":5088:5092   */\n      0x40\n        /* \"#utility.yul\":5081:5086   */\n      dup4\n        /* \"#utility.yul\":5077:5093   */\n      add\n        /* \"#utility.yul\":5071:5094   */\n      mload\n        /* \"#utility.yul\":5141:5144   */\n      dup5\n        /* \"#utility.yul\":5135:5139   */\n      dup3\n        /* \"#utility.yul\":5131:5145   */\n      sub\n        /* \"#utility.yul\":5124:5128   */\n      0x40\n        /* \"#utility.yul\":5119:5122   */\n      dup7\n        /* \"#utility.yul\":5115:5129   */\n      add\n        /* \"#utility.yul\":5108:5146   */\n      mstore\n        /* \"#utility.yul\":5167:5240   */\n      tag_302\n        /* \"#utility.yul\":5235:5239   */\n      dup3\n        /* \"#utility.yul\":5221:5233   */\n      dup3\n        /* \"#utility.yul\":5167:5240   */\n      tag_185\n      jump\t// in\n    tag_302:\n        /* \"#utility.yul\":5159:5240   */\n      swap2\n      pop\n        /* \"#utility.yul\":5009:5251   */\n      pop\n        /* \"#utility.yul\":5338:5342   */\n      0x60\n        /* \"#utility.yul\":5331:5336   */\n      dup4\n        /* \"#utility.yul\":5327:5343   */\n      add\n        /* \"#utility.yul\":5321:5344   */\n      mload\n        /* \"#utility.yul\":5357:5420   */\n      tag_303\n        /* \"#utility.yul\":5414:5418   */\n      0x60\n        /* \"#utility.yul\":5409:5412   */\n      dup7\n        /* \"#utility.yul\":5405:5419   */\n      add\n        /* \"#utility.yul\":5391:5403   */\n      dup3\n        /* \"#utility.yul\":5357:5420   */\n      tag_188\n      jump\t// in\n    tag_303:\n        /* \"#utility.yul\":5261:5430   */\n      pop\n        /* \"#utility.yul\":5519:5523   */\n      0x80\n        /* \"#utility.yul\":5512:5517   */\n      dup4\n        /* \"#utility.yul\":5508:5524   */\n      add\n        /* \"#utility.yul\":5502:5525   */\n      mload\n        /* \"#utility.yul\":5538:5601   */\n      tag_304\n        /* \"#utility.yul\":5595:5599   */\n      0x80\n        /* \"#utility.yul\":5590:5593   */\n      dup7\n        /* \"#utility.yul\":5586:5600   */\n      add\n        /* \"#utility.yul\":5572:5584   */\n      dup3\n        /* \"#utility.yul\":5538:5601   */\n      tag_180\n      jump\t// in\n    tag_304:\n        /* \"#utility.yul\":5440:5611   */\n      pop\n        /* \"#utility.yul\":5694:5698   */\n      0xa0\n        /* \"#utility.yul\":5687:5692   */\n      dup4\n        /* \"#utility.yul\":5683:5699   */\n      add\n        /* \"#utility.yul\":5677:5700   */\n      mload\n        /* \"#utility.yul\":5713:5786   */\n      tag_305\n        /* \"#utility.yul\":5780:5784   */\n      0xa0\n        /* \"#utility.yul\":5775:5778   */\n      dup7\n        /* \"#utility.yul\":5771:5785   */\n      add\n        /* \"#utility.yul\":5757:5769   */\n      dup3\n        /* \"#utility.yul\":5713:5786   */\n      tag_192\n      jump\t// in\n    tag_305:\n        /* \"#utility.yul\":5621:5796   */\n      pop\n        /* \"#utility.yul\":5813:5817   */\n      dup1\n        /* \"#utility.yul\":5806:5817   */\n      swap2\n      pop\n        /* \"#utility.yul\":4546:5823   */\n      pop\n        /* \"#utility.yul\":4424:5823   */\n      swap3\n      swap2\n      pop\n      pop\n      jump\t// out\n        /* \"#utility.yul\":5829:6198   */\n    tag_24:\n        /* \"#utility.yul\":5970:5974   */\n      0x00\n        /* \"#utility.yul\":6008:6010   */\n      0x20\n        /* \"#utility.yul\":5997:6006   */\n      dup3\n        /* \"#utility.yul\":5993:6011   */\n      add\n        /* \"#utility.yul\":5985:6011   */\n      swap1\n      pop\n        /* \"#utility.yul\":6057:6066   */\n      dup2\n        /* \"#utility.yul\":6051:6055   */\n      dup2\n        /* \"#utility.yul\":6047:6067   */\n      sub\n        /* \"#utility.yul\":6043:6044   */\n      0x00\n        /* \"#utility.yul\":6032:6041   */\n      dup4\n        /* \"#utility.yul\":6028:6045   */\n      add\n        /* \"#utility.yul\":6021:6068   */\n      mstore\n        /* \"#utility.yul\":6085:6191   */\n      tag_307\n        /* \"#utility.yul\":6186:6190   */\n      dup2\n        /* \"#utility.yul\":6177:6183   */\n      dup5\n        /* \"#utility.yul\":6085:6191   */\n      tag_193\n      jump\t// in\n    tag_307:\n        /* \"#utility.yul\":6077:6191   */\n      swap1\n      pop\n        /* \"#utility.yul\":5829:6198   */\n      swap3\n      swap2\n      pop\n      pop\n      jump\t// out\n        /* \"#utility.yul\":6204:6321   */\n    tag_194:\n        /* \"#utility.yul\":6313:6314   */\n      0x00\n        /* \"#utility.yul\":6310:6311   */\n      dup1\n        /* \"#utility.yul\":6303:6315   */\n      revert\n        /* \"#utility.yul\":6327:6444   */\n    tag_195:\n        /* \"#utility.yul\":6436:6437   */\n      0x00\n        /* \"#utility.yul\":6433:6434   */\n      dup1\n        /* \"#utility.yul\":6426:6438   */\n      revert\n        /* \"#utility.yul\":6450:6567   */\n    tag_196:\n        /* \"#utility.yul\":6559:6560   */\n      0x00\n        /* \"#utility.yul\":6556:6557   */\n      dup1\n        /* \"#utility.yul\":6549:6561   */\n      revert\n        /* \"#utility.yul\":6587:7140   */\n    tag_197:\n        /* \"#utility.yul\":6645:6653   */\n      0x00\n        /* \"#utility.yul\":6655:6661   */\n      dup1\n        /* \"#utility.yul\":6705:6708   */\n      dup4\n        /* \"#utility.yul\":6698:6702   */\n      0x1f\n        /* \"#utility.yul\":6690:6696   */\n      dup5\n        /* \"#utility.yul\":6686:6703   */\n      add\n        /* \"#utility.yul\":6682:6709   */\n      slt\n        /* \"#utility.yul\":6672:6794   */\n      tag_312\n      jumpi\n        /* \"#utility.yul\":6713:6792   */\n      tag_313\n      tag_194\n      jump\t// in\n    tag_313:\n        /* \"#utility.yul\":6672:6794   */\n    tag_312:\n        /* \"#utility.yul\":6826:6832   */\n      dup3\n        /* \"#utility.yul\":6813:6833   */\n      calldataload\n        /* \"#utility.yul\":6803:6833   */\n      swap1\n      pop\n        /* \"#utility.yul\":6856:6874   */\n      0xffffffffffffffff\n        /* \"#utility.yul\":6848:6854   */\n      dup2\n        /* \"#utility.yul\":6845:6875   */\n      gt\n        /* \"#utility.yul\":6842:6959   */\n      iszero\n      tag_314\n      jumpi\n        /* \"#utility.yul\":6878:6957   */\n      tag_315\n      tag_195\n      jump\t// in\n    tag_315:\n        /* \"#utility.yul\":6842:6959   */\n    tag_314:\n        /* \"#utility.yul\":6992:6996   */\n      0x20\n        /* \"#utility.yul\":6984:6990   */\n      dup4\n        /* \"#utility.yul\":6980:6997   */\n      add\n        /* \"#utility.yul\":6968:6997   */\n      swap2\n      pop\n        /* \"#utility.yul\":7046:7049   */\n      dup4\n        /* \"#utility.yul\":7038:7042   */\n      0x01\n        /* \"#utility.yul\":7030:7036   */\n      dup3\n        /* \"#utility.yul\":7026:7043   */\n      mul\n        /* \"#utility.yul\":7016:7024   */\n      dup4\n        /* \"#utility.yul\":7012:7044   */\n      add\n        /* \"#utility.yul\":7009:7050   */\n      gt\n        /* \"#utility.yul\":7006:7134   */\n      iszero\n      tag_316\n      jumpi\n        /* \"#utility.yul\":7053:7132   */\n      tag_317\n      tag_196\n      jump\t// in\n    tag_317:\n        /* \"#utility.yul\":7006:7134   */\n    tag_316:\n        /* \"#utility.yul\":6587:7140   */\n      swap3\n      pop\n      swap3\n      swap1\n      pop\n      jump\t// out\n        /* \"#utility.yul\":7146:7263   */\n    tag_198:\n        /* \"#utility.yul\":7255:7256   */\n      0x00\n        /* \"#utility.yul\":7252:7253   */\n      dup1\n        /* \"#utility.yul\":7245:7257   */\n      revert\n        /* \"#utility.yul\":7269:7449   */\n    tag_199:\n        /* \"#utility.yul\":7317:7394   */\n      0x4e487b7100000000000000000000000000000000000000000000000000000000\n        /* \"#utility.yul\":7314:7315   */\n      0x00\n        /* \"#utility.yul\":7307:7395   */\n      mstore\n        /* \"#utility.yul\":7414:7418   */\n      0x41\n        /* \"#utility.yul\":7411:7412   */\n      0x04\n        /* \"#utility.yul\":7404:7419   */\n      mstore\n        /* \"#utility.yul\":7438:7442   */\n      0x24\n        /* \"#utility.yul\":7435:7436   */\n      0x00\n        /* \"#utility.yul\":7428:7443   */\n      revert\n        /* \"#utility.yul\":7455:7736   */\n    tag_200:\n        /* \"#utility.yul\":7538:7565   */\n      tag_321\n        /* \"#utility.yul\":7560:7564   */\n      dup3\n        /* \"#utility.yul\":7538:7565   */\n      tag_184\n      jump\t// in\n    tag_321:\n        /* \"#utility.yul\":7530:7536   */\n      dup2\n        /* \"#utility.yul\":7526:7566   */\n      add\n        /* \"#utility.yul\":7668:7674   */\n      dup2\n        /* \"#utility.yul\":7656:7666   */\n      dup2\n        /* \"#utility.yul\":7653:7675   */\n      lt\n        /* \"#utility.yul\":7632:7650   */\n      0xffffffffffffffff\n        /* \"#utility.yul\":7620:7630   */\n      dup3\n        /* \"#utility.yul\":7617:7651   */\n      gt\n        /* \"#utility.yul\":7614:7676   */\n      or\n        /* \"#utility.yul\":7611:7699   */\n      iszero\n      tag_322\n      jumpi\n        /* \"#utility.yul\":7679:7697   */\n      tag_323\n      tag_199\n      jump\t// in\n    tag_323:\n        /* \"#utility.yul\":7611:7699   */\n    tag_322:\n        /* \"#utility.yul\":7719:7729   */\n      dup1\n        /* \"#utility.yul\":7715:7717   */\n      0x40\n        /* \"#utility.yul\":7708:7730   */\n      mstore\n        /* \"#utility.yul\":7498:7736   */\n      pop\n        /* \"#utility.yul\":7455:7736   */\n      pop\n      pop\n      jump\t// out\n        /* \"#utility.yul\":7742:7871   */\n    tag_201:\n        /* \"#utility.yul\":7776:7782   */\n      0x00\n        /* \"#utility.yul\":7803:7823   */\n      tag_325\n      tag_174\n      jump\t// in\n    tag_325:\n        /* \"#utility.yul\":7793:7823   */\n      swap1\n      pop\n        /* \"#utility.yul\":7832:7865   */\n      tag_326\n        /* \"#utility.yul\":7860:7864   */\n      dup3\n        /* \"#utility.yul\":7852:7858   */\n      dup3\n        /* \"#utility.yul\":7832:7865   */\n      tag_200\n      jump\t// in\n    tag_326:\n        /* \"#utility.yul\":7742:7871   */\n      swap2\n      swap1\n      pop\n      jump\t// out\n        /* \"#utility.yul\":7877:8185   */\n    tag_202:\n        /* \"#utility.yul\":7939:7943   */\n      0x00\n        /* \"#utility.yul\":8029:8047   */\n      0xffffffffffffffff\n        /* \"#utility.yul\":8021:8027   */\n      dup3\n        /* \"#utility.yul\":8018:8048   */\n      gt\n        /* \"#utility.yul\":8015:8071   */\n      iszero\n      tag_328\n      jumpi\n        /* \"#utility.yul\":8051:8069   */\n      tag_329\n      tag_199\n      jump\t// in\n    tag_329:\n        /* \"#utility.yul\":8015:8071   */\n    tag_328:\n        /* \"#utility.yul\":8089:8118   */\n      tag_330\n        /* \"#utility.yul\":8111:8117   */\n      dup3\n        /* \"#utility.yul\":8089:8118   */\n      tag_184\n      jump\t// in\n    tag_330:\n        /* \"#utility.yul\":8081:8118   */\n      swap1\n      pop\n        /* \"#utility.yul\":8173:8177   */\n      0x20\n        /* \"#utility.yul\":8167:8171   */\n      dup2\n        /* \"#utility.yul\":8163:8178   */\n      add\n        /* \"#utility.yul\":8155:8178   */\n      swap1\n      pop\n        /* \"#utility.yul\":7877:8185   */\n      swap2\n      swap1\n      pop\n      jump\t// out\n        /* \"#utility.yul\":8191:8337   */\n    tag_203:\n        /* \"#utility.yul\":8288:8294   */\n      dup3\n        /* \"#utility.yul\":8283:8286   */\n      dup2\n        /* \"#utility.yul\":8278:8281   */\n      dup4\n        /* \"#utility.yul\":8265:8295   */\n      calldatacopy\n        /* \"#utility.yul\":8329:8330   */\n      0x00\n        /* \"#utility.yul\":8320:8326   */\n      dup4\n        /* \"#utility.yul\":8315:8318   */\n      dup4\n        /* \"#utility.yul\":8311:8327   */\n      add\n        /* \"#utility.yul\":8304:8331   */\n      mstore\n        /* \"#utility.yul\":8191:8337   */\n      pop\n      pop\n      pop\n      jump\t// out\n        /* \"#utility.yul\":8343:8768   */\n    tag_204:\n        /* \"#utility.yul\":8421:8426   */\n      0x00\n        /* \"#utility.yul\":8446:8512   */\n      tag_333\n        /* \"#utility.yul\":8462:8511   */\n      tag_334\n        /* \"#utility.yul\":8504:8510   */\n      dup5\n        /* \"#utility.yul\":8462:8511   */\n      tag_202\n      jump\t// in\n    tag_334:\n        /* \"#utility.yul\":8446:8512   */\n      tag_201\n      jump\t// in\n    tag_333:\n        /* \"#utility.yul\":8437:8512   */\n      swap1\n      pop\n        /* \"#utility.yul\":8535:8541   */\n      dup3\n        /* \"#utility.yul\":8528:8533   */\n      dup2\n        /* \"#utility.yul\":8521:8542   */\n      mstore\n        /* \"#utility.yul\":8573:8577   */\n      0x20\n        /* \"#utility.yul\":8566:8571   */\n      dup2\n        /* \"#utility.yul\":8562:8578   */\n      add\n        /* \"#utility.yul\":8611:8614   */\n      dup5\n        /* \"#utility.yul\":8602:8608   */\n      dup5\n        /* \"#utility.yul\":8597:8600   */\n      dup5\n        /* \"#utility.yul\":8593:8609   */\n      add\n        /* \"#utility.yul\":8590:8615   */\n      gt\n        /* \"#utility.yul\":8587:8699   */\n      iszero\n      tag_335\n      jumpi\n        /* \"#utility.yul\":8618:8697   */\n      tag_336\n      tag_198\n      jump\t// in\n    tag_336:\n        /* \"#utility.yul\":8587:8699   */\n    tag_335:\n        /* \"#utility.yul\":8708:8762   */\n      tag_337\n        /* \"#utility.yul\":8755:8761   */\n      dup5\n        /* \"#utility.yul\":8750:8753   */\n      dup3\n        /* \"#utility.yul\":8745:8748   */\n      dup6\n        /* \"#utility.yul\":8708:8762   */\n      tag_203\n      jump\t// in\n    tag_337:\n        /* \"#utility.yul\":8427:8768   */\n      pop\n        /* \"#utility.yul\":8343:8768   */\n      swap4\n      swap3\n      pop\n      pop\n      pop\n      jump\t// out\n        /* \"#utility.yul\":8788:9128   */\n    tag_205:\n        /* \"#utility.yul\":8844:8849   */\n      0x00\n        /* \"#utility.yul\":8893:8896   */\n      dup3\n        /* \"#utility.yul\":8886:8890   */\n      0x1f\n        /* \"#utility.yul\":8878:8884   */\n      dup4\n        /* \"#utility.yul\":8874:8891   */\n      add\n        /* \"#utility.yul\":8870:8897   */\n      slt\n        /* \"#utility.yul\":8860:8982   */\n      tag_339\n      jumpi\n        /* \"#utility.yul\":8901:8980   */\n      tag_340\n      tag_194\n      jump\t// in\n    tag_340:\n        /* \"#utility.yul\":8860:8982   */\n    tag_339:\n        /* \"#utility.yul\":9018:9024   */\n      dup2\n        /* \"#utility.yul\":9005:9025   */\n      calldataload\n        /* \"#utility.yul\":9043:9122   */\n      tag_341\n        /* \"#utility.yul\":9118:9121   */\n      dup5\n        /* \"#utility.yul\":9110:9116   */\n      dup3\n        /* \"#utility.yul\":9103:9107   */\n      0x20\n        /* \"#utility.yul\":9095:9101   */\n      dup7\n        /* \"#utility.yul\":9091:9108   */\n      add\n        /* \"#utility.yul\":9043:9122   */\n      tag_204\n      jump\t// in\n    tag_341:\n        /* \"#utility.yul\":9034:9122   */\n      swap2\n      pop\n        /* \"#utility.yul\":8850:9128   */\n      pop\n        /* \"#utility.yul\":8788:9128   */\n      swap3\n      swap2\n      pop\n      pop\n      jump\t// out\n        /* \"#utility.yul\":9134:10133   */\n    tag_28:\n        /* \"#utility.yul\":9233:9239   */\n      0x00\n        /* \"#utility.yul\":9241:9247   */\n      dup1\n        /* \"#utility.yul\":9249:9255   */\n      0x00\n        /* \"#utility.yul\":9257:9263   */\n      dup1\n        /* \"#utility.yul\":9306:9308   */\n      0x60\n        /* \"#utility.yul\":9294:9303   */\n      dup6\n        /* \"#utility.yul\":9285:9292   */\n      dup8\n        /* \"#utility.yul\":9281:9304   */\n      sub\n        /* \"#utility.yul\":9277:9309   */\n      slt\n        /* \"#utility.yul\":9274:9393   */\n      iszero\n      tag_343\n      jumpi\n        /* \"#utility.yul\":9312:9391   */\n      tag_344\n      tag_175\n      jump\t// in\n    tag_344:\n        /* \"#utility.yul\":9274:9393   */\n    tag_343:\n        /* \"#utility.yul\":9432:9433   */\n      0x00\n        /* \"#utility.yul\":9457:9510   */\n      tag_345\n        /* \"#utility.yul\":9502:9509   */\n      dup8\n        /* \"#utility.yul\":9493:9499   */\n      dup3\n        /* \"#utility.yul\":9482:9491   */\n      dup9\n        /* \"#utility.yul\":9478:9500   */\n      add\n        /* \"#utility.yul\":9457:9510   */\n      tag_179\n      jump\t// in\n    tag_345:\n        /* \"#utility.yul\":9447:9510   */\n      swap5\n      pop\n        /* \"#utility.yul\":9403:9520   */\n      pop\n        /* \"#utility.yul\":9587:9589   */\n      0x20\n        /* \"#utility.yul\":9576:9585   */\n      dup6\n        /* \"#utility.yul\":9572:9590   */\n      add\n        /* \"#utility.yul\":9559:9591   */\n      calldataload\n        /* \"#utility.yul\":9618:9636   */\n      0xffffffffffffffff\n        /* \"#utility.yul\":9610:9616   */\n      dup2\n        /* \"#utility.yul\":9607:9637   */\n      gt\n        /* \"#utility.yul\":9604:9721   */\n      iszero\n      tag_346\n      jumpi\n        /* \"#utility.yul\":9640:9719   */\n      tag_347\n      tag_176\n      jump\t// in\n    tag_347:\n        /* \"#utility.yul\":9604:9721   */\n    tag_346:\n        /* \"#utility.yul\":9753:9818   */\n      tag_348\n        /* \"#utility.yul\":9810:9817   */\n      dup8\n        /* \"#utility.yul\":9801:9807   */\n      dup3\n        /* \"#utility.yul\":9790:9799   */\n      dup9\n        /* \"#utility.yul\":9786:9808   */\n      add\n        /* \"#utility.yul\":9753:9818   */\n      tag_197\n      jump\t// in\n    tag_348:\n        /* \"#utility.yul\":9735:9818   */\n      swap4\n      pop\n      swap4\n      pop\n        /* \"#utility.yul\":9530:9828   */\n      pop\n        /* \"#utility.yul\":9895:9897   */\n      0x40\n        /* \"#utility.yul\":9884:9893   */\n      dup6\n        /* \"#utility.yul\":9880:9898   */\n      add\n        /* \"#utility.yul\":9867:9899   */\n      calldataload\n        /* \"#utility.yul\":9926:9944   */\n      0xffffffffffffffff\n        /* \"#utility.yul\":9918:9924   */\n      dup2\n        /* \"#utility.yul\":9915:9945   */\n      gt\n        /* \"#utility.yul\":9912:10029   */\n      iszero\n      tag_349\n      jumpi\n        /* \"#utility.yul\":9948:10027   */\n      tag_350\n      tag_176\n      jump\t// in\n    tag_350:\n        /* \"#utility.yul\":9912:10029   */\n    tag_349:\n        /* \"#utility.yul\":10053:10116   */\n      tag_351\n        /* \"#utility.yul\":10108:10115   */\n      dup8\n        /* \"#utility.yul\":10099:10105   */\n      dup3\n        /* \"#utility.yul\":10088:10097   */\n      dup9\n        /* \"#utility.yul\":10084:10106   */\n      add\n        /* \"#utility.yul\":10053:10116   */\n      tag_205\n      jump\t// in\n    tag_351:\n        /* \"#utility.yul\":10043:10116   */\n      swap2\n      pop\n        /* \"#utility.yul\":9838:10126   */\n      pop\n        /* \"#utility.yul\":9134:10133   */\n      swap3\n      swap6\n      swap2\n      swap5\n      pop\n      swap3\n      pop\n      jump\t// out\n        /* \"#utility.yul\":10139:10257   */\n    tag_206:\n        /* \"#utility.yul\":10226:10250   */\n      tag_353\n        /* \"#utility.yul\":10244:10249   */\n      dup2\n        /* \"#utility.yul\":10226:10250   */\n      tag_177\n      jump\t// in\n    tag_353:\n        /* \"#utility.yul\":10221:10224   */\n      dup3\n        /* \"#utility.yul\":10214:10251   */\n      mstore\n        /* \"#utility.yul\":10139:10257   */\n      pop\n      pop\n      jump\t// out\n        /* \"#utility.yul\":10263:10485   */\n    tag_38:\n        /* \"#utility.yul\":10356:10360   */\n      0x00\n        /* \"#utility.yul\":10394:10396   */\n      0x20\n        /* \"#utility.yul\":10383:10392   */\n      dup3\n        /* \"#utility.yul\":10379:10397   */\n      add\n        /* \"#utility.yul\":10371:10397   */\n      swap1\n      pop\n        /* \"#utility.yul\":10407:10478   */\n      tag_355\n        /* \"#utility.yul\":10475:10476   */\n      0x00\n        /* \"#utility.yul\":10464:10473   */\n      dup4\n        /* \"#utility.yul\":10460:10477   */\n      add\n        /* \"#utility.yul\":10451:10457   */\n      dup5\n        /* \"#utility.yul\":10407:10478   */\n      tag_206\n      jump\t// in\n    tag_355:\n        /* \"#utility.yul\":10263:10485   */\n      swap3\n      swap2\n      pop\n      pop\n      jump\t// out\n        /* \"#utility.yul\":10491:10609   */\n    tag_207:\n        /* \"#utility.yul\":10578:10602   */\n      tag_357\n        /* \"#utility.yul\":10596:10601   */\n      dup2\n        /* \"#utility.yul\":10578:10602   */\n      tag_187\n      jump\t// in\n    tag_357:\n        /* \"#utility.yul\":10573:10576   */\n      dup3\n        /* \"#utility.yul\":10566:10603   */\n      mstore\n        /* \"#utility.yul\":10491:10609   */\n      pop\n      pop\n      jump\t// out\n        /* \"#utility.yul\":10615:10837   */\n    tag_47:\n        /* \"#utility.yul\":10708:10712   */\n      0x00\n        /* \"#utility.yul\":10746:10748   */\n      0x20\n        /* \"#utility.yul\":10735:10744   */\n      dup3\n        /* \"#utility.yul\":10731:10749   */\n      add\n        /* \"#utility.yul\":10723:10749   */\n      swap1\n      pop\n        /* \"#utility.yul\":10759:10830   */\n      tag_359\n        /* \"#utility.yul\":10827:10828   */\n      0x00\n        /* \"#utility.yul\":10816:10825   */\n      dup4\n        /* \"#utility.yul\":10812:10829   */\n      add\n        /* \"#utility.yul\":10803:10809   */\n      dup5\n        /* \"#utility.yul\":10759:10830   */\n      tag_207\n      jump\t// in\n    tag_359:\n        /* \"#utility.yul\":10615:10837   */\n      swap3\n      swap2\n      pop\n      pop\n      jump\t// out\n        /* \"#utility.yul\":10843:11023   */\n    tag_208:\n        /* \"#utility.yul\":10891:10968   */\n      0x4e487b7100000000000000000000000000000000000000000000000000000000\n        /* \"#utility.yul\":10888:10889   */\n      0x00\n        /* \"#utility.yul\":10881:10969   */\n      mstore\n        /* \"#utility.yul\":10988:10992   */\n      0x22\n        /* \"#utility.yul\":10985:10986   */\n      0x04\n        /* \"#utility.yul\":10978:10993   */\n      mstore\n        /* \"#utility.yul\":11012:11016   */\n      0x24\n        /* \"#utility.yul\":11009:11010   */\n      0x00\n        /* \"#utility.yul\":11002:11017   */\n      revert\n        /* \"#utility.yul\":11029:11349   */\n    tag_70:\n        /* \"#utility.yul\":11073:11079   */\n      0x00\n        /* \"#utility.yul\":11110:11111   */\n      0x02\n        /* \"#utility.yul\":11104:11108   */\n      dup3\n        /* \"#utility.yul\":11100:11112   */\n      div\n        /* \"#utility.yul\":11090:11112   */\n      swap1\n      pop\n        /* \"#utility.yul\":11157:11158   */\n      0x01\n        /* \"#utility.yul\":11151:11155   */\n      dup3\n        /* \"#utility.yul\":11147:11159   */\n      and\n        /* \"#utility.yul\":11178:11196   */\n      dup1\n        /* \"#utility.yul\":11168:11249   */\n      tag_362\n      jumpi\n        /* \"#utility.yul\":11234:11238   */\n      0x7f\n        /* \"#utility.yul\":11226:11232   */\n      dup3\n        /* \"#utility.yul\":11222:11239   */\n      and\n        /* \"#utility.yul\":11212:11239   */\n      swap2\n      pop\n        /* \"#utility.yul\":11168:11249   */\n    tag_362:\n        /* \"#utility.yul\":11296:11298   */\n      0x20\n        /* \"#utility.yul\":11288:11294   */\n      dup3\n        /* \"#utility.yul\":11285:11299   */\n      lt\n        /* \"#utility.yul\":11265:11283   */\n      dup2\n        /* \"#utility.yul\":11262:11300   */\n      sub\n        /* \"#utility.yul\":11259:11343   */\n      tag_363\n      jumpi\n        /* \"#utility.yul\":11315:11333   */\n      tag_364\n      tag_208\n      jump\t// in\n    tag_364:\n        /* \"#utility.yul\":11259:11343   */\n    tag_363:\n        /* \"#utility.yul\":11080:11349   */\n      pop\n        /* \"#utility.yul\":11029:11349   */\n      swap2\n      swap1\n      pop\n      jump\t// out\n        /* \"#utility.yul\":11355:11687   */\n    tag_89:\n        /* \"#utility.yul\":11476:11480   */\n      0x00\n        /* \"#utility.yul\":11514:11516   */\n      0x40\n        /* \"#utility.yul\":11503:11512   */\n      dup3\n        /* \"#utility.yul\":11499:11517   */\n      add\n        /* \"#utility.yul\":11491:11517   */\n      swap1\n      pop\n        /* \"#utility.yul\":11527:11598   */\n      tag_366\n        /* \"#utility.yul\":11595:11596   */\n      0x00\n        /* \"#utility.yul\":11584:11593   */\n      dup4\n        /* \"#utility.yul\":11580:11597   */\n      add\n        /* \"#utility.yul\":11571:11577   */\n      dup6\n        /* \"#utility.yul\":11527:11598   */\n      tag_207\n      jump\t// in\n    tag_366:\n        /* \"#utility.yul\":11608:11680   */\n      tag_367\n        /* \"#utility.yul\":11676:11678   */\n      0x20\n        /* \"#utility.yul\":11665:11674   */\n      dup4\n        /* \"#utility.yul\":11661:11679   */\n      add\n        /* \"#utility.yul\":11652:11658   */\n      dup5\n        /* \"#utility.yul\":11608:11680   */\n      tag_206\n      jump\t// in\n    tag_367:\n        /* \"#utility.yul\":11355:11687   */\n      swap4\n      swap3\n      pop\n      pop\n      pop\n      jump\t// out\n        /* \"#utility.yul\":11693:11914   */\n    tag_209:\n        /* \"#utility.yul\":11833:11867   */\n      0x63616e277420726566756e642063757a20646561646c696e65206e6f74206d65\n        /* \"#utility.yul\":11829:11830   */\n      0x00\n        /* \"#utility.yul\":11821:11827   */\n      dup3\n        /* \"#utility.yul\":11817:11831   */\n      add\n        /* \"#utility.yul\":11810:11868   */\n      mstore\n        /* \"#utility.yul\":11902:11906   */\n      0x6574000000000000000000000000000000000000000000000000000000000000\n        /* \"#utility.yul\":11897:11899   */\n      0x20\n        /* \"#utility.yul\":11889:11895   */\n      dup3\n        /* \"#utility.yul\":11885:11900   */\n      add\n        /* \"#utility.yul\":11878:11907   */\n      mstore\n        /* \"#utility.yul\":11693:11914   */\n      pop\n      jump\t// out\n        /* \"#utility.yul\":11920:12286   */\n    tag_210:\n        /* \"#utility.yul\":12062:12065   */\n      0x00\n        /* \"#utility.yul\":12083:12150   */\n      tag_370\n        /* \"#utility.yul\":12147:12149   */\n      0x22\n        /* \"#utility.yul\":12142:12145   */\n      dup4\n        /* \"#utility.yul\":12083:12150   */\n      tag_171\n      jump\t// in\n    tag_370:\n        /* \"#utility.yul\":12076:12150   */\n      swap2\n      pop\n        /* \"#utility.yul\":12159:12252   */\n      tag_371\n        /* \"#utility.yul\":12248:12251   */\n      dup3\n        /* \"#utility.yul\":12159:12252   */\n      tag_209\n      jump\t// in\n    tag_371:\n        /* \"#utility.yul\":12277:12279   */\n      0x40\n        /* \"#utility.yul\":12272:12275   */\n      dup3\n        /* \"#utility.yul\":12268:12280   */\n      add\n        /* \"#utility.yul\":12261:12280   */\n      swap1\n      pop\n        /* \"#utility.yul\":11920:12286   */\n      swap2\n      swap1\n      pop\n      jump\t// out\n        /* \"#utility.yul\":12292:12711   */\n    tag_93:\n        /* \"#utility.yul\":12458:12462   */\n      0x00\n        /* \"#utility.yul\":12496:12498   */\n      0x20\n        /* \"#utility.yul\":12485:12494   */\n      dup3\n        /* \"#utility.yul\":12481:12499   */\n      add\n        /* \"#utility.yul\":12473:12499   */\n      swap1\n      pop\n        /* \"#utility.yul\":12545:12554   */\n      dup2\n        /* \"#utility.yul\":12539:12543   */\n      dup2\n        /* \"#utility.yul\":12535:12555   */\n      sub\n        /* \"#utility.yul\":12531:12532   */\n      0x00\n        /* \"#utility.yul\":12520:12529   */\n      dup4\n        /* \"#utility.yul\":12516:12533   */\n      add\n        /* \"#utility.yul\":12509:12556   */\n      mstore\n        /* \"#utility.yul\":12573:12704   */\n      tag_373\n        /* \"#utility.yul\":12699:12703   */\n      dup2\n        /* \"#utility.yul\":12573:12704   */\n      tag_210\n      jump\t// in\n    tag_373:\n        /* \"#utility.yul\":12565:12704   */\n      swap1\n      pop\n        /* \"#utility.yul\":12292:12711   */\n      swap2\n      swap1\n      pop\n      jump\t// out\n        /* \"#utility.yul\":12717:13159   */\n    tag_99:\n        /* \"#utility.yul\":12866:12870   */\n      0x00\n        /* \"#utility.yul\":12904:12906   */\n      0x60\n        /* \"#utility.yul\":12893:12902   */\n      dup3\n        /* \"#utility.yul\":12889:12907   */\n      add\n        /* \"#utility.yul\":12881:12907   */\n      swap1\n      pop\n        /* \"#utility.yul\":12917:12988   */\n      tag_375\n        /* \"#utility.yul\":12985:12986   */\n      0x00\n        /* \"#utility.yul\":12974:12983   */\n      dup4\n        /* \"#utility.yul\":12970:12987   */\n      add\n        /* \"#utility.yul\":12961:12967   */\n      dup7\n        /* \"#utility.yul\":12917:12988   */\n      tag_207\n      jump\t// in\n    tag_375:\n        /* \"#utility.yul\":12998:13070   */\n      tag_376\n        /* \"#utility.yul\":13066:13068   */\n      0x20\n        /* \"#utility.yul\":13055:13064   */\n      dup4\n        /* \"#utility.yul\":13051:13069   */\n      add\n        /* \"#utility.yul\":13042:13048   */\n      dup6\n        /* \"#utility.yul\":12998:13070   */\n      tag_206\n      jump\t// in\n    tag_376:\n        /* \"#utility.yul\":13080:13152   */\n      tag_377\n        /* \"#utility.yul\":13148:13150   */\n      0x40\n        /* \"#utility.yul\":13137:13146   */\n      dup4\n        /* \"#utility.yul\":13133:13151   */\n      add\n        /* \"#utility.yul\":13124:13130   */\n      dup5\n        /* \"#utility.yul\":13080:13152   */\n      tag_206\n      jump\t// in\n    tag_377:\n        /* \"#utility.yul\":12717:13159   */\n      swap5\n      swap4\n      pop\n      pop\n      pop\n      pop\n      jump\t// out\n        /* \"#utility.yul\":13165:13330   */\n    tag_211:\n        /* \"#utility.yul\":13305:13322   */\n      0x752063616e277420726566756e64200000000000000000000000000000000000\n        /* \"#utility.yul\":13301:13302   */\n      0x00\n        /* \"#utility.yul\":13293:13299   */\n      dup3\n        /* \"#utility.yul\":13289:13303   */\n      add\n        /* \"#utility.yul\":13282:13323   */\n      mstore\n        /* \"#utility.yul\":13165:13330   */\n      pop\n      jump\t// out\n        /* \"#utility.yul\":13336:13702   */\n    tag_212:\n        /* \"#utility.yul\":13478:13481   */\n      0x00\n        /* \"#utility.yul\":13499:13566   */\n      tag_380\n        /* \"#utility.yul\":13563:13565   */\n      0x0f\n        /* \"#utility.yul\":13558:13561   */\n      dup4\n        /* \"#utility.yul\":13499:13566   */\n      tag_171\n      jump\t// in\n    tag_380:\n        /* \"#utility.yul\":13492:13566   */\n      swap2\n      pop\n        /* \"#utility.yul\":13575:13668   */\n      tag_381\n        /* \"#utility.yul\":13664:13667   */\n      dup3\n        /* \"#utility.yul\":13575:13668   */\n      tag_211\n      jump\t// in\n    tag_381:\n        /* \"#utility.yul\":13693:13695   */\n      0x20\n        /* \"#utility.yul\":13688:13691   */\n      dup3\n        /* \"#utility.yul\":13684:13696   */\n      add\n        /* \"#utility.yul\":13677:13696   */\n      swap1\n      pop\n        /* \"#utility.yul\":13336:13702   */\n      swap2\n      swap1\n      pop\n      jump\t// out\n        /* \"#utility.yul\":13708:14127   */\n    tag_102:\n        /* \"#utility.yul\":13874:13878   */\n      0x00\n        /* \"#utility.yul\":13912:13914   */\n      0x20\n        /* \"#utility.yul\":13901:13910   */\n      dup3\n        /* \"#utility.yul\":13897:13915   */\n      add\n        /* \"#utility.yul\":13889:13915   */\n      swap1\n      pop\n        /* \"#utility.yul\":13961:13970   */\n      dup2\n        /* \"#utility.yul\":13955:13959   */\n      dup2\n        /* \"#utility.yul\":13951:13971   */\n      sub\n        /* \"#utility.yul\":13947:13948   */\n      0x00\n        /* \"#utility.yul\":13936:13945   */\n      dup4\n        /* \"#utility.yul\":13932:13949   */\n      add\n        /* \"#utility.yul\":13925:13972   */\n      mstore\n        /* \"#utility.yul\":13989:14120   */\n      tag_383\n        /* \"#utility.yul\":14115:14119   */\n      dup2\n        /* \"#utility.yul\":13989:14120   */\n      tag_212\n      jump\t// in\n    tag_383:\n        /* \"#utility.yul\":13981:14120   */\n      swap1\n      pop\n        /* \"#utility.yul\":13708:14127   */\n      swap2\n      swap1\n      pop\n      jump\t// out\n        /* \"#utility.yul\":14133:14370   */\n    tag_213:\n        /* \"#utility.yul\":14273:14307   */\n      0x6e6f7420616c6c6f77656420636c61696d696e672063757a20616c6c6f776564\n        /* \"#utility.yul\":14269:14270   */\n      0x00\n        /* \"#utility.yul\":14261:14267   */\n      dup3\n        /* \"#utility.yul\":14257:14271   */\n      add\n        /* \"#utility.yul\":14250:14308   */\n      mstore\n        /* \"#utility.yul\":14342:14362   */\n      0x2074696d652069732072656d61696e696e670000000000000000000000000000\n        /* \"#utility.yul\":14337:14339   */\n      0x20\n        /* \"#utility.yul\":14329:14335   */\n      dup3\n        /* \"#utility.yul\":14325:14340   */\n      add\n        /* \"#utility.yul\":14318:14363   */\n      mstore\n        /* \"#utility.yul\":14133:14370   */\n      pop\n      jump\t// out\n        /* \"#utility.yul\":14376:14742   */\n    tag_214:\n        /* \"#utility.yul\":14518:14521   */\n      0x00\n        /* \"#utility.yul\":14539:14606   */\n      tag_386\n        /* \"#utility.yul\":14603:14605   */\n      0x32\n        /* \"#utility.yul\":14598:14601   */\n      dup4\n        /* \"#utility.yul\":14539:14606   */\n      tag_171\n      jump\t// in\n    tag_386:\n        /* \"#utility.yul\":14532:14606   */\n      swap2\n      pop\n        /* \"#utility.yul\":14615:14708   */\n      tag_387\n        /* \"#utility.yul\":14704:14707   */\n      dup3\n        /* \"#utility.yul\":14615:14708   */\n      tag_213\n      jump\t// in\n    tag_387:\n        /* \"#utility.yul\":14733:14735   */\n      0x40\n        /* \"#utility.yul\":14728:14731   */\n      dup3\n        /* \"#utility.yul\":14724:14736   */\n      add\n        /* \"#utility.yul\":14717:14736   */\n      swap1\n      pop\n        /* \"#utility.yul\":14376:14742   */\n      swap2\n      swap1\n      pop\n      jump\t// out\n        /* \"#utility.yul\":14748:15167   */\n    tag_106:\n        /* \"#utility.yul\":14914:14918   */\n      0x00\n        /* \"#utility.yul\":14952:14954   */\n      0x20\n        /* \"#utility.yul\":14941:14950   */\n      dup3\n        /* \"#utility.yul\":14937:14955   */\n      add\n        /* \"#utility.yul\":14929:14955   */\n      swap1\n      pop\n        /* \"#utility.yul\":15001:15010   */\n      dup2\n        /* \"#utility.yul\":14995:14999   */\n      dup2\n        /* \"#utility.yul\":14991:15011   */\n      sub\n        /* \"#utility.yul\":14987:14988   */\n      0x00\n        /* \"#utility.yul\":14976:14985   */\n      dup4\n        /* \"#utility.yul\":14972:14989   */\n      add\n        /* \"#utility.yul\":14965:15012   */\n      mstore\n        /* \"#utility.yul\":15029:15160   */\n      tag_389\n        /* \"#utility.yul\":15155:15159   */\n      dup2\n        /* \"#utility.yul\":15029:15160   */\n      tag_214\n      jump\t// in\n    tag_389:\n        /* \"#utility.yul\":15021:15160   */\n      swap1\n      pop\n        /* \"#utility.yul\":14748:15167   */\n      swap2\n      swap1\n      pop\n      jump\t// out\n        /* \"#utility.yul\":15173:15350   */\n    tag_215:\n        /* \"#utility.yul\":15313:15342   */\n      0x616d6f756e74206973206e6f7420657175616c20746f20676f616c0000000000\n        /* \"#utility.yul\":15309:15310   */\n      0x00\n        /* \"#utility.yul\":15301:15307   */\n      dup3\n        /* \"#utility.yul\":15297:15311   */\n      add\n        /* \"#utility.yul\":15290:15343   */\n      mstore\n        /* \"#utility.yul\":15173:15350   */\n      pop\n      jump\t// out\n        /* \"#utility.yul\":15356:15722   */\n    tag_216:\n        /* \"#utility.yul\":15498:15501   */\n      0x00\n        /* \"#utility.yul\":15519:15586   */\n      tag_392\n        /* \"#utility.yul\":15583:15585   */\n      0x1b\n        /* \"#utility.yul\":15578:15581   */\n      dup4\n        /* \"#utility.yul\":15519:15586   */\n      tag_171\n      jump\t// in\n    tag_392:\n        /* \"#utility.yul\":15512:15586   */\n      swap2\n      pop\n        /* \"#utility.yul\":15595:15688   */\n      tag_393\n        /* \"#utility.yul\":15684:15687   */\n      dup3\n        /* \"#utility.yul\":15595:15688   */\n      tag_215\n      jump\t// in\n    tag_393:\n        /* \"#utility.yul\":15713:15715   */\n      0x20\n        /* \"#utility.yul\":15708:15711   */\n      dup3\n        /* \"#utility.yul\":15704:15716   */\n      add\n        /* \"#utility.yul\":15697:15716   */\n      swap1\n      pop\n        /* \"#utility.yul\":15356:15722   */\n      swap2\n      swap1\n      pop\n      jump\t// out\n        /* \"#utility.yul\":15728:16147   */\n    tag_116:\n        /* \"#utility.yul\":15894:15898   */\n      0x00\n        /* \"#utility.yul\":15932:15934   */\n      0x20\n        /* \"#utility.yul\":15921:15930   */\n      dup3\n        /* \"#utility.yul\":15917:15935   */\n      add\n        /* \"#utility.yul\":15909:15935   */\n      swap1\n      pop\n        /* \"#utility.yul\":15981:15990   */\n      dup2\n        /* \"#utility.yul\":15975:15979   */\n      dup2\n        /* \"#utility.yul\":15971:15991   */\n      sub\n        /* \"#utility.yul\":15967:15968   */\n      0x00\n        /* \"#utility.yul\":15956:15965   */\n      dup4\n        /* \"#utility.yul\":15952:15969   */\n      add\n        /* \"#utility.yul\":15945:15992   */\n      mstore\n        /* \"#utility.yul\":16009:16140   */\n      tag_395\n        /* \"#utility.yul\":16135:16139   */\n      dup2\n        /* \"#utility.yul\":16009:16140   */\n      tag_216\n      jump\t// in\n    tag_395:\n        /* \"#utility.yul\":16001:16140   */\n      swap1\n      pop\n        /* \"#utility.yul\":15728:16147   */\n      swap2\n      swap1\n      pop\n      jump\t// out\n        /* \"#utility.yul\":16153:16333   */\n    tag_217:\n        /* \"#utility.yul\":16201:16278   */\n      0x4e487b7100000000000000000000000000000000000000000000000000000000\n        /* \"#utility.yul\":16198:16199   */\n      0x00\n        /* \"#utility.yul\":16191:16279   */\n      mstore\n        /* \"#utility.yul\":16298:16302   */\n      0x11\n        /* \"#utility.yul\":16295:16296   */\n      0x04\n        /* \"#utility.yul\":16288:16303   */\n      mstore\n        /* \"#utility.yul\":16322:16326   */\n      0x24\n        /* \"#utility.yul\":16319:16320   */\n      0x00\n        /* \"#utility.yul\":16312:16327   */\n      revert\n        /* \"#utility.yul\":16339:16533   */\n    tag_119:\n        /* \"#utility.yul\":16379:16383   */\n      0x00\n        /* \"#utility.yul\":16399:16419   */\n      tag_398\n        /* \"#utility.yul\":16417:16418   */\n      dup3\n        /* \"#utility.yul\":16399:16419   */\n      tag_177\n      jump\t// in\n    tag_398:\n        /* \"#utility.yul\":16394:16419   */\n      swap2\n      pop\n        /* \"#utility.yul\":16433:16453   */\n      tag_399\n        /* \"#utility.yul\":16451:16452   */\n      dup4\n        /* \"#utility.yul\":16433:16453   */\n      tag_177\n      jump\t// in\n    tag_399:\n        /* \"#utility.yul\":16428:16453   */\n      swap3\n      pop\n        /* \"#utility.yul\":16477:16478   */\n      dup3\n        /* \"#utility.yul\":16474:16475   */\n      dup3\n        /* \"#utility.yul\":16470:16479   */\n      sub\n        /* \"#utility.yul\":16462:16479   */\n      swap1\n      pop\n        /* \"#utility.yul\":16501:16502   */\n      dup2\n        /* \"#utility.yul\":16495:16499   */\n      dup2\n        /* \"#utility.yul\":16492:16503   */\n      gt\n        /* \"#utility.yul\":16489:16526   */\n      iszero\n      tag_400\n      jumpi\n        /* \"#utility.yul\":16506:16524   */\n      tag_401\n      tag_217\n      jump\t// in\n    tag_401:\n        /* \"#utility.yul\":16489:16526   */\n    tag_400:\n        /* \"#utility.yul\":16339:16533   */\n      swap3\n      swap2\n      pop\n      pop\n      jump\t// out\n        /* \"#utility.yul\":16539:16766   */\n    tag_218:\n        /* \"#utility.yul\":16679:16713   */\n      0x7472616e73616374696f6e20617265206e6f7420616c6c6f77656420696e2074\n        /* \"#utility.yul\":16675:16676   */\n      0x00\n        /* \"#utility.yul\":16667:16673   */\n      dup3\n        /* \"#utility.yul\":16663:16677   */\n      add\n        /* \"#utility.yul\":16656:16714   */\n      mstore\n        /* \"#utility.yul\":16748:16758   */\n      0x6869732074696d65000000000000000000000000000000000000000000000000\n        /* \"#utility.yul\":16743:16745   */\n      0x20\n        /* \"#utility.yul\":16735:16741   */\n      dup3\n        /* \"#utility.yul\":16731:16746   */\n      add\n        /* \"#utility.yul\":16724:16759   */\n      mstore\n        /* \"#utility.yul\":16539:16766   */\n      pop\n      jump\t// out\n        /* \"#utility.yul\":16772:17138   */\n    tag_219:\n        /* \"#utility.yul\":16914:16917   */\n      0x00\n        /* \"#utility.yul\":16935:17002   */\n      tag_404\n        /* \"#utility.yul\":16999:17001   */\n      0x28\n        /* \"#utility.yul\":16994:16997   */\n      dup4\n        /* \"#utility.yul\":16935:17002   */\n      tag_171\n      jump\t// in\n    tag_404:\n        /* \"#utility.yul\":16928:17002   */\n      swap2\n      pop\n        /* \"#utility.yul\":17011:17104   */\n      tag_405\n        /* \"#utility.yul\":17100:17103   */\n      dup3\n        /* \"#utility.yul\":17011:17104   */\n      tag_218\n      jump\t// in\n    tag_405:\n        /* \"#utility.yul\":17129:17131   */\n      0x40\n        /* \"#utility.yul\":17124:17127   */\n      dup3\n        /* \"#utility.yul\":17120:17132   */\n      add\n        /* \"#utility.yul\":17113:17132   */\n      swap1\n      pop\n        /* \"#utility.yul\":16772:17138   */\n      swap2\n      swap1\n      pop\n      jump\t// out\n        /* \"#utility.yul\":17144:17563   */\n    tag_125:\n        /* \"#utility.yul\":17310:17314   */\n      0x00\n        /* \"#utility.yul\":17348:17350   */\n      0x20\n        /* \"#utility.yul\":17337:17346   */\n      dup3\n        /* \"#utility.yul\":17333:17351   */\n      add\n        /* \"#utility.yul\":17325:17351   */\n      swap1\n      pop\n        /* \"#utility.yul\":17397:17406   */\n      dup2\n        /* \"#utility.yul\":17391:17395   */\n      dup2\n        /* \"#utility.yul\":17387:17407   */\n      sub\n        /* \"#utility.yul\":17383:17384   */\n      0x00\n        /* \"#utility.yul\":17372:17381   */\n      dup4\n        /* \"#utility.yul\":17368:17385   */\n      add\n        /* \"#utility.yul\":17361:17408   */\n      mstore\n        /* \"#utility.yul\":17425:17556   */\n      tag_407\n        /* \"#utility.yul\":17551:17555   */\n      dup2\n        /* \"#utility.yul\":17425:17556   */\n      tag_219\n      jump\t// in\n    tag_407:\n        /* \"#utility.yul\":17417:17556   */\n      swap1\n      pop\n        /* \"#utility.yul\":17144:17563   */\n      swap2\n      swap1\n      pop\n      jump\t// out\n        /* \"#utility.yul\":17569:17760   */\n    tag_128:\n        /* \"#utility.yul\":17609:17612   */\n      0x00\n        /* \"#utility.yul\":17628:17648   */\n      tag_409\n        /* \"#utility.yul\":17646:17647   */\n      dup3\n        /* \"#utility.yul\":17628:17648   */\n      tag_177\n      jump\t// in\n    tag_409:\n        /* \"#utility.yul\":17623:17648   */\n      swap2\n      pop\n        /* \"#utility.yul\":17662:17682   */\n      tag_410\n        /* \"#utility.yul\":17680:17681   */\n      dup4\n        /* \"#utility.yul\":17662:17682   */\n      tag_177\n      jump\t// in\n    tag_410:\n        /* \"#utility.yul\":17657:17682   */\n      swap3\n      pop\n        /* \"#utility.yul\":17705:17706   */\n      dup3\n        /* \"#utility.yul\":17702:17703   */\n      dup3\n        /* \"#utility.yul\":17698:17707   */\n      add\n        /* \"#utility.yul\":17691:17707   */\n      swap1\n      pop\n        /* \"#utility.yul\":17726:17729   */\n      dup1\n        /* \"#utility.yul\":17723:17724   */\n      dup3\n        /* \"#utility.yul\":17720:17730   */\n      gt\n        /* \"#utility.yul\":17717:17753   */\n      iszero\n      tag_411\n      jumpi\n        /* \"#utility.yul\":17733:17751   */\n      tag_412\n      tag_217\n      jump\t// in\n    tag_412:\n        /* \"#utility.yul\":17717:17753   */\n    tag_411:\n        /* \"#utility.yul\":17569:17760   */\n      swap3\n      swap2\n      pop\n      pop\n      jump\t// out\n        /* \"#utility.yul\":17766:17935   */\n    tag_220:\n        /* \"#utility.yul\":17906:17927   */\n      0x7374746165206973206e6f742061637269766500000000000000000000000000\n        /* \"#utility.yul\":17902:17903   */\n      0x00\n        /* \"#utility.yul\":17894:17900   */\n      dup3\n        /* \"#utility.yul\":17890:17904   */\n      add\n        /* \"#utility.yul\":17883:17928   */\n      mstore\n        /* \"#utility.yul\":17766:17935   */\n      pop\n      jump\t// out\n        /* \"#utility.yul\":17941:18307   */\n    tag_221:\n        /* \"#utility.yul\":18083:18086   */\n      0x00\n        /* \"#utility.yul\":18104:18171   */\n      tag_415\n        /* \"#utility.yul\":18168:18170   */\n      0x13\n        /* \"#utility.yul\":18163:18166   */\n      dup4\n        /* \"#utility.yul\":18104:18171   */\n      tag_171\n      jump\t// in\n    tag_415:\n        /* \"#utility.yul\":18097:18171   */\n      swap2\n      pop\n        /* \"#utility.yul\":18180:18273   */\n      tag_416\n        /* \"#utility.yul\":18269:18272   */\n      dup3\n        /* \"#utility.yul\":18180:18273   */\n      tag_220\n      jump\t// in\n    tag_416:\n        /* \"#utility.yul\":18298:18300   */\n      0x20\n        /* \"#utility.yul\":18293:18296   */\n      dup3\n        /* \"#utility.yul\":18289:18301   */\n      add\n        /* \"#utility.yul\":18282:18301   */\n      swap1\n      pop\n        /* \"#utility.yul\":17941:18307   */\n      swap2\n      swap1\n      pop\n      jump\t// out\n        /* \"#utility.yul\":18313:18732   */\n    tag_135:\n        /* \"#utility.yul\":18479:18483   */\n      0x00\n        /* \"#utility.yul\":18517:18519   */\n      0x20\n        /* \"#utility.yul\":18506:18515   */\n      dup3\n        /* \"#utility.yul\":18502:18520   */\n      add\n        /* \"#utility.yul\":18494:18520   */\n      swap1\n      pop\n        /* \"#utility.yul\":18566:18575   */\n      dup2\n        /* \"#utility.yul\":18560:18564   */\n      dup2\n        /* \"#utility.yul\":18556:18576   */\n      sub\n        /* \"#utility.yul\":18552:18553   */\n      0x00\n        /* \"#utility.yul\":18541:18550   */\n      dup4\n        /* \"#utility.yul\":18537:18554   */\n      add\n        /* \"#utility.yul\":18530:18577   */\n      mstore\n        /* \"#utility.yul\":18594:18725   */\n      tag_418\n        /* \"#utility.yul\":18720:18724   */\n      dup2\n        /* \"#utility.yul\":18594:18725   */\n      tag_221\n      jump\t// in\n    tag_418:\n        /* \"#utility.yul\":18586:18725   */\n      swap1\n      pop\n        /* \"#utility.yul\":18313:18732   */\n      swap2\n      swap1\n      pop\n      jump\t// out\n        /* \"#utility.yul\":18738:19180   */\n    tag_137:\n        /* \"#utility.yul\":18887:18891   */\n      0x00\n        /* \"#utility.yul\":18925:18927   */\n      0x60\n        /* \"#utility.yul\":18914:18923   */\n      dup3\n        /* \"#utility.yul\":18910:18928   */\n      add\n        /* \"#utility.yul\":18902:18928   */\n      swap1\n      pop\n        /* \"#utility.yul\":18938:19009   */\n      tag_420\n        /* \"#utility.yul\":19006:19007   */\n      0x00\n        /* \"#utility.yul\":18995:19004   */\n      dup4\n        /* \"#utility.yul\":18991:19008   */\n      add\n        /* \"#utility.yul\":18982:18988   */\n      dup7\n        /* \"#utility.yul\":18938:19009   */\n      tag_206\n      jump\t// in\n    tag_420:\n        /* \"#utility.yul\":19019:19091   */\n      tag_421\n        /* \"#utility.yul\":19087:19089   */\n      0x20\n        /* \"#utility.yul\":19076:19085   */\n      dup4\n        /* \"#utility.yul\":19072:19090   */\n      add\n        /* \"#utility.yul\":19063:19069   */\n      dup6\n        /* \"#utility.yul\":19019:19091   */\n      tag_207\n      jump\t// in\n    tag_421:\n        /* \"#utility.yul\":19101:19173   */\n      tag_422\n        /* \"#utility.yul\":19169:19171   */\n      0x40\n        /* \"#utility.yul\":19158:19167   */\n      dup4\n        /* \"#utility.yul\":19154:19172   */\n      add\n        /* \"#utility.yul\":19145:19151   */\n      dup5\n        /* \"#utility.yul\":19101:19173   */\n      tag_206\n      jump\t// in\n    tag_422:\n        /* \"#utility.yul\":18738:19180   */\n      swap5\n      swap4\n      pop\n      pop\n      pop\n      pop\n      jump\t// out\n        /* \"#utility.yul\":19186:19303   */\n    tag_222:\n        /* \"#utility.yul\":19295:19296   */\n      0x00\n        /* \"#utility.yul\":19292:19293   */\n      dup1\n        /* \"#utility.yul\":19285:19297   */\n      revert\n        /* \"#utility.yul\":19309:19426   */\n    tag_223:\n        /* \"#utility.yul\":19418:19419   */\n      0x00\n        /* \"#utility.yul\":19415:19416   */\n      dup1\n        /* \"#utility.yul\":19408:19420   */\n      revert\n        /* \"#utility.yul\":19432:19575   */\n    tag_224:\n        /* \"#utility.yul\":19489:19494   */\n      0x00\n        /* \"#utility.yul\":19520:19526   */\n      dup2\n        /* \"#utility.yul\":19514:19527   */\n      mload\n        /* \"#utility.yul\":19505:19527   */\n      swap1\n      pop\n        /* \"#utility.yul\":19536:19569   */\n      tag_426\n        /* \"#utility.yul\":19563:19568   */\n      dup2\n        /* \"#utility.yul\":19536:19569   */\n      tag_178\n      jump\t// in\n    tag_426:\n        /* \"#utility.yul\":19432:19575   */\n      swap3\n      swap2\n      pop\n      pop\n      jump\t// out\n        /* \"#utility.yul\":19581:20015   */\n    tag_225:\n        /* \"#utility.yul\":19670:19675   */\n      0x00\n        /* \"#utility.yul\":19695:19761   */\n      tag_428\n        /* \"#utility.yul\":19711:19760   */\n      tag_429\n        /* \"#utility.yul\":19753:19759   */\n      dup5\n        /* \"#utility.yul\":19711:19760   */\n      tag_202\n      jump\t// in\n    tag_429:\n        /* \"#utility.yul\":19695:19761   */\n      tag_201\n      jump\t// in\n    tag_428:\n        /* \"#utility.yul\":19686:19761   */\n      swap1\n      pop\n        /* \"#utility.yul\":19784:19790   */\n      dup3\n        /* \"#utility.yul\":19777:19782   */\n      dup2\n        /* \"#utility.yul\":19770:19791   */\n      mstore\n        /* \"#utility.yul\":19822:19826   */\n      0x20\n        /* \"#utility.yul\":19815:19820   */\n      dup2\n        /* \"#utility.yul\":19811:19827   */\n      add\n        /* \"#utility.yul\":19860:19863   */\n      dup5\n        /* \"#utility.yul\":19851:19857   */\n      dup5\n        /* \"#utility.yul\":19846:19849   */\n      dup5\n        /* \"#utility.yul\":19842:19858   */\n      add\n        /* \"#utility.yul\":19839:19864   */\n      gt\n        /* \"#utility.yul\":19836:19948   */\n      iszero\n      tag_430\n      jumpi\n        /* \"#utility.yul\":19867:19946   */\n      tag_431\n      tag_198\n      jump\t// in\n    tag_431:\n        /* \"#utility.yul\":19836:19948   */\n    tag_430:\n        /* \"#utility.yul\":19957:20009   */\n      tag_432\n        /* \"#utility.yul\":20002:20008   */\n      dup5\n        /* \"#utility.yul\":19997:20000   */\n      dup3\n        /* \"#utility.yul\":19992:19995   */\n      dup6\n        /* \"#utility.yul\":19957:20009   */\n      tag_183\n      jump\t// in\n    tag_432:\n        /* \"#utility.yul\":19676:20015   */\n      pop\n        /* \"#utility.yul\":19581:20015   */\n      swap4\n      swap3\n      pop\n      pop\n      pop\n      jump\t// out\n        /* \"#utility.yul\":20035:20390   */\n    tag_226:\n        /* \"#utility.yul\":20102:20107   */\n      0x00\n        /* \"#utility.yul\":20151:20154   */\n      dup3\n        /* \"#utility.yul\":20144:20148   */\n      0x1f\n        /* \"#utility.yul\":20136:20142   */\n      dup4\n        /* \"#utility.yul\":20132:20149   */\n      add\n        /* \"#utility.yul\":20128:20155   */\n      slt\n        /* \"#utility.yul\":20118:20240   */\n      tag_434\n      jumpi\n        /* \"#utility.yul\":20159:20238   */\n      tag_435\n      tag_194\n      jump\t// in\n    tag_435:\n        /* \"#utility.yul\":20118:20240   */\n    tag_434:\n        /* \"#utility.yul\":20269:20275   */\n      dup2\n        /* \"#utility.yul\":20263:20276   */\n      mload\n        /* \"#utility.yul\":20294:20384   */\n      tag_436\n        /* \"#utility.yul\":20380:20383   */\n      dup5\n        /* \"#utility.yul\":20372:20378   */\n      dup3\n        /* \"#utility.yul\":20365:20369   */\n      0x20\n        /* \"#utility.yul\":20357:20363   */\n      dup7\n        /* \"#utility.yul\":20353:20370   */\n      add\n        /* \"#utility.yul\":20294:20384   */\n      tag_225\n      jump\t// in\n    tag_436:\n        /* \"#utility.yul\":20285:20384   */\n      swap2\n      pop\n        /* \"#utility.yul\":20108:20390   */\n      pop\n        /* \"#utility.yul\":20035:20390   */\n      swap3\n      swap2\n      pop\n      pop\n      jump\t// out\n        /* \"#utility.yul\":20396:20518   */\n    tag_227:\n        /* \"#utility.yul\":20469:20493   */\n      tag_438\n        /* \"#utility.yul\":20487:20492   */\n      dup2\n        /* \"#utility.yul\":20469:20493   */\n      tag_187\n      jump\t// in\n    tag_438:\n        /* \"#utility.yul\":20462:20467   */\n      dup2\n        /* \"#utility.yul\":20459:20494   */\n      eq\n        /* \"#utility.yul\":20449:20512   */\n      tag_439\n      jumpi\n        /* \"#utility.yul\":20508:20509   */\n      0x00\n        /* \"#utility.yul\":20505:20506   */\n      dup1\n        /* \"#utility.yul\":20498:20510   */\n      revert\n        /* \"#utility.yul\":20449:20512   */\n    tag_439:\n        /* \"#utility.yul\":20396:20518   */\n      pop\n      jump\t// out\n        /* \"#utility.yul\":20524:20667   */\n    tag_228:\n        /* \"#utility.yul\":20581:20586   */\n      0x00\n        /* \"#utility.yul\":20612:20618   */\n      dup2\n        /* \"#utility.yul\":20606:20619   */\n      mload\n        /* \"#utility.yul\":20597:20619   */\n      swap1\n      pop\n        /* \"#utility.yul\":20628:20661   */\n      tag_441\n        /* \"#utility.yul\":20655:20660   */\n      dup2\n        /* \"#utility.yul\":20628:20661   */\n      tag_227\n      jump\t// in\n    tag_441:\n        /* \"#utility.yul\":20524:20667   */\n      swap3\n      swap2\n      pop\n      pop\n      jump\t// out\n        /* \"#utility.yul\":20673:20784   */\n    tag_229:\n        /* \"#utility.yul\":20758:20759   */\n      0x02\n        /* \"#utility.yul\":20751:20756   */\n      dup2\n        /* \"#utility.yul\":20748:20760   */\n      lt\n        /* \"#utility.yul\":20738:20778   */\n      tag_443\n      jumpi\n        /* \"#utility.yul\":20774:20775   */\n      0x00\n        /* \"#utility.yul\":20771:20772   */\n      dup1\n        /* \"#utility.yul\":20764:20776   */\n      revert\n        /* \"#utility.yul\":20738:20778   */\n    tag_443:\n        /* \"#utility.yul\":20673:20784   */\n      pop\n      jump\t// out\n        /* \"#utility.yul\":20790:20957   */\n    tag_230:\n        /* \"#utility.yul\":20859:20864   */\n      0x00\n        /* \"#utility.yul\":20890:20896   */\n      dup2\n        /* \"#utility.yul\":20884:20897   */\n      mload\n        /* \"#utility.yul\":20875:20897   */\n      swap1\n      pop\n        /* \"#utility.yul\":20906:20951   */\n      tag_445\n        /* \"#utility.yul\":20945:20950   */\n      dup2\n        /* \"#utility.yul\":20906:20951   */\n      tag_229\n      jump\t// in\n    tag_445:\n        /* \"#utility.yul\":20790:20957   */\n      swap3\n      swap2\n      pop\n      pop\n      jump\t// out\n        /* \"#utility.yul\":20990:22642   */\n    tag_231:\n        /* \"#utility.yul\":21074:21079   */\n      0x00\n        /* \"#utility.yul\":21118:21122   */\n      0xc0\n        /* \"#utility.yul\":21106:21115   */\n      dup3\n        /* \"#utility.yul\":21101:21104   */\n      dup5\n        /* \"#utility.yul\":21097:21116   */\n      sub\n        /* \"#utility.yul\":21093:21123   */\n      slt\n        /* \"#utility.yul\":21090:21207   */\n      iszero\n      tag_447\n      jumpi\n        /* \"#utility.yul\":21126:21205   */\n      tag_448\n      tag_222\n      jump\t// in\n    tag_448:\n        /* \"#utility.yul\":21090:21207   */\n    tag_447:\n        /* \"#utility.yul\":21225:21246   */\n      tag_449\n        /* \"#utility.yul\":21241:21245   */\n      0xc0\n        /* \"#utility.yul\":21225:21246   */\n      tag_201\n      jump\t// in\n    tag_449:\n        /* \"#utility.yul\":21216:21246   */\n      swap1\n      pop\n        /* \"#utility.yul\":21303:21304   */\n      0x00\n        /* \"#utility.yul\":21343:21403   */\n      tag_450\n        /* \"#utility.yul\":21399:21402   */\n      dup5\n        /* \"#utility.yul\":21390:21396   */\n      dup3\n        /* \"#utility.yul\":21379:21388   */\n      dup6\n        /* \"#utility.yul\":21375:21397   */\n      add\n        /* \"#utility.yul\":21343:21403   */\n      tag_224\n      jump\t// in\n    tag_450:\n        /* \"#utility.yul\":21336:21340   */\n      0x00\n        /* \"#utility.yul\":21329:21334   */\n      dup4\n        /* \"#utility.yul\":21325:21341   */\n      add\n        /* \"#utility.yul\":21318:21404   */\n      mstore\n        /* \"#utility.yul\":21256:21415   */\n      pop\n        /* \"#utility.yul\":21495:21497   */\n      0x20\n        /* \"#utility.yul\":21484:21493   */\n      dup3\n        /* \"#utility.yul\":21480:21498   */\n      add\n        /* \"#utility.yul\":21474:21499   */\n      mload\n        /* \"#utility.yul\":21526:21544   */\n      0xffffffffffffffff\n        /* \"#utility.yul\":21518:21524   */\n      dup2\n        /* \"#utility.yul\":21515:21545   */\n      gt\n        /* \"#utility.yul\":21512:21629   */\n      iszero\n      tag_451\n      jumpi\n        /* \"#utility.yul\":21548:21627   */\n      tag_452\n      tag_223\n      jump\t// in\n    tag_452:\n        /* \"#utility.yul\":21512:21629   */\n    tag_451:\n        /* \"#utility.yul\":21668:21738   */\n      tag_453\n        /* \"#utility.yul\":21734:21737   */\n      dup5\n        /* \"#utility.yul\":21725:21731   */\n      dup3\n        /* \"#utility.yul\":21714:21723   */\n      dup6\n        /* \"#utility.yul\":21710:21732   */\n      add\n        /* \"#utility.yul\":21668:21738   */\n      tag_226\n      jump\t// in\n    tag_453:\n        /* \"#utility.yul\":21661:21665   */\n      0x20\n        /* \"#utility.yul\":21654:21659   */\n      dup4\n        /* \"#utility.yul\":21650:21666   */\n      add\n        /* \"#utility.yul\":21643:21739   */\n      mstore\n        /* \"#utility.yul\":21425:21750   */\n      pop\n        /* \"#utility.yul\":21837:21839   */\n      0x40\n        /* \"#utility.yul\":21826:21835   */\n      dup3\n        /* \"#utility.yul\":21822:21840   */\n      add\n        /* \"#utility.yul\":21816:21841   */\n      mload\n        /* \"#utility.yul\":21868:21886   */\n      0xffffffffffffffff\n        /* \"#utility.yul\":21860:21866   */\n      dup2\n        /* \"#utility.yul\":21857:21887   */\n      gt\n        /* \"#utility.yul\":21854:21971   */\n      iszero\n      tag_454\n      jumpi\n        /* \"#utility.yul\":21890:21969   */\n      tag_455\n      tag_223\n      jump\t// in\n    tag_455:\n        /* \"#utility.yul\":21854:21971   */\n    tag_454:\n        /* \"#utility.yul\":22010:22080   */\n      tag_456\n        /* \"#utility.yul\":22076:22079   */\n      dup5\n        /* \"#utility.yul\":22067:22073   */\n      dup3\n        /* \"#utility.yul\":22056:22065   */\n      dup6\n        /* \"#utility.yul\":22052:22074   */\n      add\n        /* \"#utility.yul\":22010:22080   */\n      tag_226\n      jump\t// in\n    tag_456:\n        /* \"#utility.yul\":22003:22007   */\n      0x40\n        /* \"#utility.yul\":21996:22001   */\n      dup4\n        /* \"#utility.yul\":21992:22008   */\n      add\n        /* \"#utility.yul\":21985:22081   */\n      mstore\n        /* \"#utility.yul\":21760:22092   */\n      pop\n        /* \"#utility.yul\":22156:22158   */\n      0x60\n        /* \"#utility.yul\":22197:22257   */\n      tag_457\n        /* \"#utility.yul\":22253:22256   */\n      dup5\n        /* \"#utility.yul\":22244:22250   */\n      dup3\n        /* \"#utility.yul\":22233:22242   */\n      dup6\n        /* \"#utility.yul\":22229:22251   */\n      add\n        /* \"#utility.yul\":22197:22257   */\n      tag_228\n      jump\t// in\n    tag_457:\n        /* \"#utility.yul\":22190:22194   */\n      0x60\n        /* \"#utility.yul\":22183:22188   */\n      dup4\n        /* \"#utility.yul\":22179:22195   */\n      add\n        /* \"#utility.yul\":22172:22258   */\n      mstore\n        /* \"#utility.yul\":22102:22269   */\n      pop\n        /* \"#utility.yul\":22335:22338   */\n      0x80\n        /* \"#utility.yul\":22377:22437   */\n      tag_458\n        /* \"#utility.yul\":22433:22436   */\n      dup5\n        /* \"#utility.yul\":22424:22430   */\n      dup3\n        /* \"#utility.yul\":22413:22422   */\n      dup6\n        /* \"#utility.yul\":22409:22431   */\n      add\n        /* \"#utility.yul\":22377:22437   */\n      tag_224\n      jump\t// in\n    tag_458:\n        /* \"#utility.yul\":22370:22374   */\n      0x80\n        /* \"#utility.yul\":22363:22368   */\n      dup4\n        /* \"#utility.yul\":22359:22375   */\n      add\n        /* \"#utility.yul\":22352:22438   */\n      mstore\n        /* \"#utility.yul\":22279:22449   */\n      pop\n        /* \"#utility.yul\":22509:22512   */\n      0xa0\n        /* \"#utility.yul\":22551:22623   */\n      tag_459\n        /* \"#utility.yul\":22619:22622   */\n      dup5\n        /* \"#utility.yul\":22610:22616   */\n      dup3\n        /* \"#utility.yul\":22599:22608   */\n      dup6\n        /* \"#utility.yul\":22595:22617   */\n      add\n        /* \"#utility.yul\":22551:22623   */\n      tag_230\n      jump\t// in\n    tag_459:\n        /* \"#utility.yul\":22544:22548   */\n      0xa0\n        /* \"#utility.yul\":22537:22542   */\n      dup4\n        /* \"#utility.yul\":22533:22549   */\n      add\n        /* \"#utility.yul\":22526:22624   */\n      mstore\n        /* \"#utility.yul\":22459:22635   */\n      pop\n        /* \"#utility.yul\":20990:22642   */\n      swap3\n      swap2\n      pop\n      pop\n      jump\t// out\n        /* \"#utility.yul\":22648:23200   */\n    tag_142:\n        /* \"#utility.yul\":22742:22748   */\n      0x00\n        /* \"#utility.yul\":22791:22793   */\n      0x20\n        /* \"#utility.yul\":22779:22788   */\n      dup3\n        /* \"#utility.yul\":22770:22777   */\n      dup5\n        /* \"#utility.yul\":22766:22789   */\n      sub\n        /* \"#utility.yul\":22762:22794   */\n      slt\n        /* \"#utility.yul\":22759:22878   */\n      iszero\n      tag_461\n      jumpi\n        /* \"#utility.yul\":22797:22876   */\n      tag_462\n      tag_175\n      jump\t// in\n    tag_462:\n        /* \"#utility.yul\":22759:22878   */\n    tag_461:\n        /* \"#utility.yul\":22938:22939   */\n      0x00\n        /* \"#utility.yul\":22927:22936   */\n      dup3\n        /* \"#utility.yul\":22923:22940   */\n      add\n        /* \"#utility.yul\":22917:22941   */\n      mload\n        /* \"#utility.yul\":22968:22986   */\n      0xffffffffffffffff\n        /* \"#utility.yul\":22960:22966   */\n      dup2\n        /* \"#utility.yul\":22957:22987   */\n      gt\n        /* \"#utility.yul\":22954:23071   */\n      iszero\n      tag_463\n      jumpi\n        /* \"#utility.yul\":22990:23069   */\n      tag_464\n      tag_176\n      jump\t// in\n    tag_464:\n        /* \"#utility.yul\":22954:23071   */\n    tag_463:\n        /* \"#utility.yul\":23095:23183   */\n      tag_465\n        /* \"#utility.yul\":23175:23182   */\n      dup5\n        /* \"#utility.yul\":23166:23172   */\n      dup3\n        /* \"#utility.yul\":23155:23164   */\n      dup6\n        /* \"#utility.yul\":23151:23173   */\n      add\n        /* \"#utility.yul\":23095:23183   */\n      tag_231\n      jump\t// in\n    tag_465:\n        /* \"#utility.yul\":23085:23183   */\n      swap2\n      pop\n        /* \"#utility.yul\":22888:23193   */\n      pop\n        /* \"#utility.yul\":22648:23200   */\n      swap3\n      swap2\n      pop\n      pop\n      jump\t// out\n        /* \"#utility.yul\":23206:23370   */\n    tag_232:\n        /* \"#utility.yul\":23346:23362   */\n      0x75736572206e6f7420666f756e64000000000000000000000000000000000000\n        /* \"#utility.yul\":23342:23343   */\n      0x00\n        /* \"#utility.yul\":23334:23340   */\n      dup3\n        /* \"#utility.yul\":23330:23344   */\n      add\n        /* \"#utility.yul\":23323:23363   */\n      mstore\n        /* \"#utility.yul\":23206:23370   */\n      pop\n      jump\t// out\n        /* \"#utility.yul\":23376:23742   */\n    tag_233:\n        /* \"#utility.yul\":23518:23521   */\n      0x00\n        /* \"#utility.yul\":23539:23606   */\n      tag_468\n        /* \"#utility.yul\":23603:23605   */\n      0x0e\n        /* \"#utility.yul\":23598:23601   */\n      dup4\n        /* \"#utility.yul\":23539:23606   */\n      tag_171\n      jump\t// in\n    tag_468:\n        /* \"#utility.yul\":23532:23606   */\n      swap2\n      pop\n        /* \"#utility.yul\":23615:23708   */\n      tag_469\n        /* \"#utility.yul\":23704:23707   */\n      dup3\n        /* \"#utility.yul\":23615:23708   */\n      tag_232\n      jump\t// in\n    tag_469:\n        /* \"#utility.yul\":23733:23735   */\n      0x20\n        /* \"#utility.yul\":23728:23731   */\n      dup3\n        /* \"#utility.yul\":23724:23736   */\n      add\n        /* \"#utility.yul\":23717:23736   */\n      swap1\n      pop\n        /* \"#utility.yul\":23376:23742   */\n      swap2\n      swap1\n      pop\n      jump\t// out\n        /* \"#utility.yul\":23748:24167   */\n    tag_148:\n        /* \"#utility.yul\":23914:23918   */\n      0x00\n        /* \"#utility.yul\":23952:23954   */\n      0x20\n        /* \"#utility.yul\":23941:23950   */\n      dup3\n        /* \"#utility.yul\":23937:23955   */\n      add\n        /* \"#utility.yul\":23929:23955   */\n      swap1\n      pop\n        /* \"#utility.yul\":24001:24010   */\n      dup2\n        /* \"#utility.yul\":23995:23999   */\n      dup2\n        /* \"#utility.yul\":23991:24011   */\n      sub\n        /* \"#utility.yul\":23987:23988   */\n      0x00\n        /* \"#utility.yul\":23976:23985   */\n      dup4\n        /* \"#utility.yul\":23972:23989   */\n      add\n        /* \"#utility.yul\":23965:24012   */\n      mstore\n        /* \"#utility.yul\":24029:24160   */\n      tag_471\n        /* \"#utility.yul\":24155:24159   */\n      dup2\n        /* \"#utility.yul\":24029:24160   */\n      tag_233\n      jump\t// in\n    tag_471:\n        /* \"#utility.yul\":24021:24160   */\n      swap1\n      pop\n        /* \"#utility.yul\":23748:24167   */\n      swap2\n      swap1\n      pop\n      jump\t// out\n        /* \"#utility.yul\":24173:24314   */\n    tag_234:\n        /* \"#utility.yul\":24222:24226   */\n      0x00\n        /* \"#utility.yul\":24245:24248   */\n      dup2\n        /* \"#utility.yul\":24237:24248   */\n      swap1\n      pop\n        /* \"#utility.yul\":24268:24271   */\n      dup2\n        /* \"#utility.yul\":24265:24266   */\n      0x00\n        /* \"#utility.yul\":24258:24272   */\n      mstore\n        /* \"#utility.yul\":24302:24306   */\n      0x20\n        /* \"#utility.yul\":24299:24300   */\n      0x00\n        /* \"#utility.yul\":24289:24307   */\n      keccak256\n        /* \"#utility.yul\":24281:24307   */\n      swap1\n      pop\n        /* \"#utility.yul\":24173:24314   */\n      swap2\n      swap1\n      pop\n      jump\t// out\n        /* \"#utility.yul\":24320:24413   */\n    tag_235:\n        /* \"#utility.yul\":24357:24363   */\n      0x00\n        /* \"#utility.yul\":24404:24406   */\n      0x20\n        /* \"#utility.yul\":24399:24401   */\n      0x1f\n        /* \"#utility.yul\":24392:24397   */\n      dup4\n        /* \"#utility.yul\":24388:24402   */\n      add\n        /* \"#utility.yul\":24384:24407   */\n      div\n        /* \"#utility.yul\":24374:24407   */\n      swap1\n      pop\n        /* \"#utility.yul\":24320:24413   */\n      swap2\n      swap1\n      pop\n      jump\t// out\n        /* \"#utility.yul\":24419:24526   */\n    tag_236:\n        /* \"#utility.yul\":24463:24471   */\n      0x00\n        /* \"#utility.yul\":24513:24518   */\n      dup3\n        /* \"#utility.yul\":24507:24511   */\n      dup3\n        /* \"#utility.yul\":24503:24519   */\n      shl\n        /* \"#utility.yul\":24482:24519   */\n      swap1\n      pop\n        /* \"#utility.yul\":24419:24526   */\n      swap3\n      swap2\n      pop\n      pop\n      jump\t// out\n        /* \"#utility.yul\":24532:24925   */\n    tag_237:\n        /* \"#utility.yul\":24601:24607   */\n      0x00\n        /* \"#utility.yul\":24651:24652   */\n      0x08\n        /* \"#utility.yul\":24639:24649   */\n      dup4\n        /* \"#utility.yul\":24635:24653   */\n      mul\n        /* \"#utility.yul\":24674:24771   */\n      tag_476\n        /* \"#utility.yul\":24704:24770   */\n      0xffffffffffffffffffffffffffffffffffffffffffffffffffffffffffffffff\n        /* \"#utility.yul\":24693:24702   */\n      dup3\n        /* \"#utility.yul\":24674:24771   */\n      tag_236\n      jump\t// in\n    tag_476:\n        /* \"#utility.yul\":24792:24831   */\n      tag_477\n        /* \"#utility.yul\":24822:24830   */\n      dup7\n        /* \"#utility.yul\":24811:24820   */\n      dup4\n        /* \"#utility.yul\":24792:24831   */\n      tag_236\n      jump\t// in\n    tag_477:\n        /* \"#utility.yul\":24780:24831   */\n      swap6\n      pop\n        /* \"#utility.yul\":24864:24868   */\n      dup1\n        /* \"#utility.yul\":24860:24869   */\n      not\n        /* \"#utility.yul\":24853:24858   */\n      dup5\n        /* \"#utility.yul\":24849:24870   */\n      and\n        /* \"#utility.yul\":24840:24870   */\n      swap4\n      pop\n        /* \"#utility.yul\":24913:24917   */\n      dup1\n        /* \"#utility.yul\":24903:24911   */\n      dup7\n        /* \"#utility.yul\":24899:24918   */\n      and\n        /* \"#utility.yul\":24892:24897   */\n      dup5\n        /* \"#utility.yul\":24889:24919   */\n      or\n        /* \"#utility.yul\":24879:24919   */\n      swap3\n      pop\n        /* \"#utility.yul\":24608:24925   */\n      pop\n      pop\n        /* \"#utility.yul\":24532:24925   */\n      swap4\n      swap3\n      pop\n      pop\n      pop\n      jump\t// out\n        /* \"#utility.yul\":24931:24991   */\n    tag_238:\n        /* \"#utility.yul\":24959:24962   */\n      0x00\n        /* \"#utility.yul\":24980:24985   */\n      dup2\n        /* \"#utility.yul\":24973:24985   */\n      swap1\n      pop\n        /* \"#utility.yul\":24931:24991   */\n      swap2\n      swap1\n      pop\n      jump\t// out\n        /* \"#utility.yul\":24997:25139   */\n    tag_239:\n        /* \"#utility.yul\":25047:25056   */\n      0x00\n        /* \"#utility.yul\":25080:25133   */\n      tag_480\n        /* \"#utility.yul\":25098:25132   */\n      tag_481\n        /* \"#utility.yul\":25107:25131   */\n      tag_482\n        /* \"#utility.yul\":25125:25130   */\n      dup5\n        /* \"#utility.yul\":25107:25131   */\n      tag_177\n      jump\t// in\n    tag_482:\n        /* \"#utility.yul\":25098:25132   */\n      tag_238\n      jump\t// in\n    tag_481:\n        /* \"#utility.yul\":25080:25133   */\n      tag_177\n      jump\t// in\n    tag_480:\n        /* \"#utility.yul\":25067:25133   */\n      swap1\n      pop\n        /* \"#utility.yul\":24997:25139   */\n      swap2\n      swap1\n      pop\n      jump\t// out\n        /* \"#utility.yul\":25145:25220   */\n    tag_240:\n        /* \"#utility.yul\":25188:25191   */\n      0x00\n        /* \"#utility.yul\":25209:25214   */\n      dup2\n        /* \"#utility.yul\":25202:25214   */\n      swap1\n      pop\n        /* \"#utility.yul\":25145:25220   */\n      swap2\n      swap1\n      pop\n      jump\t// out\n        /* \"#utility.yul\":25226:25495   */\n    tag_241:\n        /* \"#utility.yul\":25336:25375   */\n      tag_485\n        /* \"#utility.yul\":25367:25374   */\n      dup4\n        /* \"#utility.yul\":25336:25375   */\n      tag_239\n      jump\t// in\n    tag_485:\n        /* \"#utility.yul\":25397:25488   */\n      tag_486\n        /* \"#utility.yul\":25446:25487   */\n      tag_487\n        /* \"#utility.yul\":25470:25486   */\n      dup3\n        /* \"#utility.yul\":25446:25487   */\n      tag_240\n      jump\t// in\n    tag_487:\n        /* \"#utility.yul\":25438:25444   */\n      dup5\n        /* \"#utility.yul\":25431:25435   */\n      dup5\n        /* \"#utility.yul\":25425:25436   */\n      sload\n        /* \"#utility.yul\":25397:25488   */\n      tag_237\n      jump\t// in\n    tag_486:\n        /* \"#utility.yul\":25391:25395   */\n      dup3\n        /* \"#utility.yul\":25384:25489   */\n      sstore\n        /* \"#utility.yul\":25302:25495   */\n      pop\n        /* \"#utility.yul\":25226:25495   */\n      pop\n      pop\n      pop\n      jump\t// out\n        /* \"#utility.yul\":25501:25574   */\n    tag_242:\n        /* \"#utility.yul\":25546:25549   */\n      0x00\n        /* \"#utility.yul\":25501:25574   */\n      swap1\n      jump\t// out\n        /* \"#utility.yul\":25580:25769   */\n    tag_243:\n        /* \"#utility.yul\":25657:25689   */\n      tag_490\n      tag_242\n      jump\t// in\n    tag_490:\n        /* \"#utility.yul\":25698:25763   */\n      tag_491\n        /* \"#utility.yul\":25756:25762   */\n      dup2\n        /* \"#utility.yul\":25748:25754   */\n      dup5\n        /* \"#utility.yul\":25742:25746   */\n      dup5\n        /* \"#utility.yul\":25698:25763   */\n      tag_241\n      jump\t// in\n    tag_491:\n        /* \"#utility.yul\":25633:25769   */\n      pop\n        /* \"#utility.yul\":25580:25769   */\n      pop\n      pop\n      jump\t// out\n        /* \"#utility.yul\":25775:25961   */\n    tag_244:\n        /* \"#utility.yul\":25835:25955   */\n    tag_493:\n        /* \"#utility.yul\":25852:25855   */\n      dup2\n        /* \"#utility.yul\":25845:25850   */\n      dup2\n        /* \"#utility.yul\":25842:25856   */\n      lt\n        /* \"#utility.yul\":25835:25955   */\n      iszero\n      tag_495\n      jumpi\n        /* \"#utility.yul\":25906:25945   */\n      tag_496\n        /* \"#utility.yul\":25943:25944   */\n      0x00\n        /* \"#utility.yul\":25936:25941   */\n      dup3\n        /* \"#utility.yul\":25906:25945   */\n      tag_243\n      jump\t// in\n    tag_496:\n        /* \"#utility.yul\":25879:25880   */\n      0x01\n        /* \"#utility.yul\":25872:25877   */\n      dup2\n        /* \"#utility.yul\":25868:25881   */\n      add\n        /* \"#utility.yul\":25859:25881   */\n      swap1\n      pop\n        /* \"#utility.yul\":25835:25955   */\n      jump(tag_493)\n    tag_495:\n        /* \"#utility.yul\":25775:25961   */\n      pop\n      pop\n      jump\t// out\n        /* \"#utility.yul\":25967:26510   */\n    tag_245:\n        /* \"#utility.yul\":26068:26070   */\n      0x1f\n        /* \"#utility.yul\":26063:26066   */\n      dup3\n        /* \"#utility.yul\":26060:26071   */\n      gt\n        /* \"#utility.yul\":26057:26503   */\n      iszero\n      tag_498\n      jumpi\n        /* \"#utility.yul\":26102:26140   */\n      tag_499\n        /* \"#utility.yul\":26134:26139   */\n      dup2\n        /* \"#utility.yul\":26102:26140   */\n      tag_234\n      jump\t// in\n    tag_499:\n        /* \"#utility.yul\":26186:26215   */\n      tag_500\n        /* \"#utility.yul\":26204:26214   */\n      dup5\n        /* \"#utility.yul\":26186:26215   */\n      tag_235\n      jump\t// in\n    tag_500:\n        /* \"#utility.yul\":26176:26184   */\n      dup2\n        /* \"#utility.yul\":26172:26216   */\n      add\n        /* \"#utility.yul\":26369:26371   */\n      0x20\n        /* \"#utility.yul\":26357:26367   */\n      dup6\n        /* \"#utility.yul\":26354:26372   */\n      lt\n        /* \"#utility.yul\":26351:26400   */\n      iszero\n      tag_501\n      jumpi\n        /* \"#utility.yul\":26390:26398   */\n      dup2\n        /* \"#utility.yul\":26375:26398   */\n      swap1\n      pop\n        /* \"#utility.yul\":26351:26400   */\n    tag_501:\n        /* \"#utility.yul\":26413:26493   */\n      tag_502\n        /* \"#utility.yul\":26469:26491   */\n      tag_503\n        /* \"#utility.yul\":26487:26490   */\n      dup6\n        /* \"#utility.yul\":26469:26491   */\n      tag_235\n      jump\t// in\n    tag_503:\n        /* \"#utility.yul\":26459:26467   */\n      dup4\n        /* \"#utility.yul\":26455:26492   */\n      add\n        /* \"#utility.yul\":26442:26453   */\n      dup3\n        /* \"#utility.yul\":26413:26493   */\n      tag_244\n      jump\t// in\n    tag_502:\n        /* \"#utility.yul\":26072:26503   */\n      pop\n      pop\n        /* \"#utility.yul\":26057:26503   */\n    tag_498:\n        /* \"#utility.yul\":25967:26510   */\n      pop\n      pop\n      pop\n      jump\t// out\n        /* \"#utility.yul\":26516:26633   */\n    tag_246:\n        /* \"#utility.yul\":26570:26578   */\n      0x00\n        /* \"#utility.yul\":26620:26625   */\n      dup3\n        /* \"#utility.yul\":26614:26618   */\n      dup3\n        /* \"#utility.yul\":26610:26626   */\n      shr\n        /* \"#utility.yul\":26589:26626   */\n      swap1\n      pop\n        /* \"#utility.yul\":26516:26633   */\n      swap3\n      swap2\n      pop\n      pop\n      jump\t// out\n        /* \"#utility.yul\":26639:26808   */\n    tag_247:\n        /* \"#utility.yul\":26683:26689   */\n      0x00\n        /* \"#utility.yul\":26716:26767   */\n      tag_506\n        /* \"#utility.yul\":26764:26765   */\n      0x00\n        /* \"#utility.yul\":26760:26766   */\n      not\n        /* \"#utility.yul\":26752:26757   */\n      dup5\n        /* \"#utility.yul\":26749:26750   */\n      0x08\n        /* \"#utility.yul\":26745:26758   */\n      mul\n        /* \"#utility.yul\":26716:26767   */\n      tag_246\n      jump\t// in\n    tag_506:\n        /* \"#utility.yul\":26712:26768   */\n      not\n        /* \"#utility.yul\":26797:26801   */\n      dup1\n        /* \"#utility.yul\":26791:26795   */\n      dup4\n        /* \"#utility.yul\":26787:26802   */\n      and\n        /* \"#utility.yul\":26777:26802   */\n      swap2\n      pop\n        /* \"#utility.yul\":26690:26808   */\n      pop\n        /* \"#utility.yul\":26639:26808   */\n      swap3\n      swap2\n      pop\n      pop\n      jump\t// out\n        /* \"#utility.yul\":26813:27108   */\n    tag_248:\n        /* \"#utility.yul\":26889:26893   */\n      0x00\n        /* \"#utility.yul\":27035:27064   */\n      tag_508\n        /* \"#utility.yul\":27060:27063   */\n      dup4\n        /* \"#utility.yul\":27054:27058   */\n      dup4\n        /* \"#utility.yul\":27035:27064   */\n      tag_247\n      jump\t// in\n    tag_508:\n        /* \"#utility.yul\":27027:27064   */\n      swap2\n      pop\n        /* \"#utility.yul\":27097:27100   */\n      dup3\n        /* \"#utility.yul\":27094:27095   */\n      0x02\n        /* \"#utility.yul\":27090:27101   */\n      mul\n        /* \"#utility.yul\":27084:27088   */\n      dup3\n        /* \"#utility.yul\":27081:27102   */\n      or\n        /* \"#utility.yul\":27073:27102   */\n      swap1\n      pop\n        /* \"#utility.yul\":26813:27108   */\n      swap3\n      swap2\n      pop\n      pop\n      jump\t// out\n        /* \"#utility.yul\":27113:28508   */\n    tag_165:\n        /* \"#utility.yul\":27230:27267   */\n      tag_510\n        /* \"#utility.yul\":27263:27266   */\n      dup3\n        /* \"#utility.yul\":27230:27267   */\n      tag_181\n      jump\t// in\n    tag_510:\n        /* \"#utility.yul\":27332:27350   */\n      0xffffffffffffffff\n        /* \"#utility.yul\":27324:27330   */\n      dup2\n        /* \"#utility.yul\":27321:27351   */\n      gt\n        /* \"#utility.yul\":27318:27374   */\n      iszero\n      tag_511\n      jumpi\n        /* \"#utility.yul\":27354:27372   */\n      tag_512\n      tag_199\n      jump\t// in\n    tag_512:\n        /* \"#utility.yul\":27318:27374   */\n    tag_511:\n        /* \"#utility.yul\":27398:27436   */\n      tag_513\n        /* \"#utility.yul\":27430:27434   */\n      dup3\n        /* \"#utility.yul\":27424:27435   */\n      sload\n        /* \"#utility.yul\":27398:27436   */\n      tag_70\n      jump\t// in\n    tag_513:\n        /* \"#utility.yul\":27483:27550   */\n      tag_514\n        /* \"#utility.yul\":27543:27549   */\n      dup3\n        /* \"#utility.yul\":27535:27541   */\n      dup3\n        /* \"#utility.yul\":27529:27533   */\n      dup6\n        /* \"#utility.yul\":27483:27550   */\n      tag_245\n      jump\t// in\n    tag_514:\n        /* \"#utility.yul\":27577:27578   */\n      0x00\n        /* \"#utility.yul\":27601:27605   */\n      0x20\n        /* \"#utility.yul\":27588:27605   */\n      swap1\n      pop\n        /* \"#utility.yul\":27633:27635   */\n      0x1f\n        /* \"#utility.yul\":27625:27631   */\n      dup4\n        /* \"#utility.yul\":27622:27636   */\n      gt\n        /* \"#utility.yul\":27650:27651   */\n      0x01\n        /* \"#utility.yul\":27645:28263   */\n      dup2\n      eq\n      tag_516\n      jumpi\n        /* \"#utility.yul\":28307:28308   */\n      0x00\n        /* \"#utility.yul\":28324:28330   */\n      dup5\n        /* \"#utility.yul\":28321:28398   */\n      iszero\n      tag_517\n      jumpi\n        /* \"#utility.yul\":28373:28382   */\n      dup3\n        /* \"#utility.yul\":28368:28371   */\n      dup8\n        /* \"#utility.yul\":28364:28383   */\n      add\n        /* \"#utility.yul\":28358:28384   */\n      mload\n        /* \"#utility.yul\":28349:28384   */\n      swap1\n      pop\n        /* \"#utility.yul\":28321:28398   */\n    tag_517:\n        /* \"#utility.yul\":28424:28491   */\n      tag_518\n        /* \"#utility.yul\":28484:28490   */\n      dup6\n        /* \"#utility.yul\":28477:28482   */\n      dup3\n        /* \"#utility.yul\":28424:28491   */\n      tag_248\n      jump\t// in\n    tag_518:\n        /* \"#utility.yul\":28418:28422   */\n      dup7\n        /* \"#utility.yul\":28411:28492   */\n      sstore\n        /* \"#utility.yul\":28280:28502   */\n      pop\n        /* \"#utility.yul\":27615:28502   */\n      jump(tag_515)\n        /* \"#utility.yul\":27645:28263   */\n    tag_516:\n        /* \"#utility.yul\":27697:27701   */\n      0x1f\n        /* \"#utility.yul\":27693:27702   */\n      not\n        /* \"#utility.yul\":27685:27691   */\n      dup5\n        /* \"#utility.yul\":27681:27703   */\n      and\n        /* \"#utility.yul\":27731:27768   */\n      tag_519\n        /* \"#utility.yul\":27763:27767   */\n      dup7\n        /* \"#utility.yul\":27731:27768   */\n      tag_234\n      jump\t// in\n    tag_519:\n        /* \"#utility.yul\":27790:27791   */\n      0x00\n        /* \"#utility.yul\":27804:28012   */\n    tag_520:\n        /* \"#utility.yul\":27818:27825   */\n      dup3\n        /* \"#utility.yul\":27815:27816   */\n      dup2\n        /* \"#utility.yul\":27812:27826   */\n      lt\n        /* \"#utility.yul\":27804:28012   */\n      iszero\n      tag_522\n      jumpi\n        /* \"#utility.yul\":27897:27906   */\n      dup5\n        /* \"#utility.yul\":27892:27895   */\n      dup10\n        /* \"#utility.yul\":27888:27907   */\n      add\n        /* \"#utility.yul\":27882:27908   */\n      mload\n        /* \"#utility.yul\":27874:27880   */\n      dup3\n        /* \"#utility.yul\":27867:27909   */\n      sstore\n        /* \"#utility.yul\":27948:27949   */\n      0x01\n        /* \"#utility.yul\":27940:27946   */\n      dup3\n        /* \"#utility.yul\":27936:27950   */\n      add\n        /* \"#utility.yul\":27926:27950   */\n      swap2\n      pop\n        /* \"#utility.yul\":27995:27997   */\n      0x20\n        /* \"#utility.yul\":27984:27993   */\n      dup6\n        /* \"#utility.yul\":27980:27998   */\n      add\n        /* \"#utility.yul\":27967:27998   */\n      swap5\n      pop\n        /* \"#utility.yul\":27841:27845   */\n      0x20\n        /* \"#utility.yul\":27838:27839   */\n      dup2\n        /* \"#utility.yul\":27834:27846   */\n      add\n        /* \"#utility.yul\":27829:27846   */\n      swap1\n      pop\n        /* \"#utility.yul\":27804:28012   */\n      jump(tag_520)\n    tag_522:\n        /* \"#utility.yul\":28040:28046   */\n      dup7\n        /* \"#utility.yul\":28031:28038   */\n      dup4\n        /* \"#utility.yul\":28028:28047   */\n      lt\n        /* \"#utility.yul\":28025:28204   */\n      iszero\n      tag_523\n      jumpi\n        /* \"#utility.yul\":28098:28107   */\n      dup5\n        /* \"#utility.yul\":28093:28096   */\n      dup10\n        /* \"#utility.yul\":28089:28108   */\n      add\n        /* \"#utility.yul\":28083:28109   */\n      mload\n        /* \"#utility.yul\":28141:28189   */\n      tag_524\n        /* \"#utility.yul\":28183:28187   */\n      0x1f\n        /* \"#utility.yul\":28175:28181   */\n      dup10\n        /* \"#utility.yul\":28171:28188   */\n      and\n        /* \"#utility.yul\":28160:28169   */\n      dup3\n        /* \"#utility.yul\":28141:28189   */\n      tag_247\n      jump\t// in\n    tag_524:\n        /* \"#utility.yul\":28133:28139   */\n      dup4\n        /* \"#utility.yul\":28126:28190   */\n      sstore\n        /* \"#utility.yul\":28048:28204   */\n      pop\n        /* \"#utility.yul\":28025:28204   */\n    tag_523:\n        /* \"#utility.yul\":28250:28251   */\n      0x01\n        /* \"#utility.yul\":28246:28247   */\n      0x02\n        /* \"#utility.yul\":28238:28244   */\n      dup9\n        /* \"#utility.yul\":28234:28248   */\n      mul\n        /* \"#utility.yul\":28230:28252   */\n      add\n        /* \"#utility.yul\":28224:28228   */\n      dup9\n        /* \"#utility.yul\":28217:28253   */\n      sstore\n        /* \"#utility.yul\":27652:28263   */\n      pop\n      pop\n      pop\n        /* \"#utility.yul\":27615:28502   */\n    tag_515:\n      pop\n        /* \"#utility.yul\":27205:28508   */\n      pop\n      pop\n      pop\n        /* \"#utility.yul\":27113:28508   */\n      pop\n      pop\n      jump\t// out\n\n    auxdata: 0xa26469706673582212202b6bacfd2bca0c4086695b85a994aebac22b2ddde705d77d9e6a4cf3a54a7b5f64736f6c63430008170033\n}\n",
				"bytecode": {
					"linkReferences": {},
					"object": "60806040526078426200001391906200009e565b60015534801562000022575f80fd5b50335f806101000a81548173ffffffffffffffffffffffffffffffffffffffff021916908373ffffffffffffffffffffffffffffffffffffffff160217905550620000d8565b5f819050919050565b7f4e487b71000000000000000000000000000000000000000000000000000000005f52601160045260245ffd5b5f620000aa8262000068565b9150620000b78362000068565b9250828201905080821115620000d257620000d162000071565b5b92915050565b611ca880620000e65f395ff3fe608060405260043610610094575f3560e01c8063384f58eb11610058578063384f58eb146101b25780633e608afa146101dc57806392c93aa014610218578063e8709c4014610254578063f1ca8bff14610284576100d0565b806310445b2b146100d45780631541100114610110578063278ecde1146101385780632ca126f814610160578063379607f51461018a576100d0565b366100d0577fbe025cd0737d1912c421eb1ace55f3a811fccb8c5a479c1d21f0882dc11c607f6040516100c690610e5d565b60405180910390a1005b5f80fd5b3480156100df575f80fd5b506100fa60048036038101906100f59190610ebf565b6102ac565b60405161010791906110c2565b60405180910390f35b34801561011b575f80fd5b506101366004803603810190610131919061126b565b610499565b005b348015610143575f80fd5b5061015e60048036038101906101599190610ebf565b6104e4565b005b34801561016b575f80fd5b50610174610628565b6040516101819190611307565b60405180910390f35b348015610195575f80fd5b506101b060048036038101906101ab9190610ebf565b61062e565b005b3480156101bd575f80fd5b506101c66107e1565b6040516101d3919061132f565b60405180910390f35b3480156101e7575f80fd5b5061020260048036038101906101fd9190610ebf565b610804565b60405161020f9190611307565b60405180910390f35b348015610223575f80fd5b5061023e60048036038101906102399190610ebf565b61083a565b60405161024b919061132f565b60405180910390f35b61026e60048036038101906102699190610ebf565b61087b565b60405161027b91906110c2565b60405180910390f35b34801561028f575f80fd5b506102aa60048036038101906102a59190610ebf565b610a80565b005b6102b4610da9565b60025f8381526020019081526020015f206040518060c00160405290815f82015481526020016001820180546102e990611375565b80601f016020809104026020016040519081016040528092919081815260200182805461031590611375565b80156103605780601f1061033757610100808354040283529160200191610360565b820191905f5260205f20905b81548152906001019060200180831161034357829003601f168201915b5050505050815260200160028201805461037990611375565b80601f01602080910402602001604051908101604052809291908181526020018280546103a590611375565b80156103f05780601f106103c7576101008083540402835291602001916103f0565b820191905f5260205f20905b8154815290600101906020018083116103d357829003601f168201915b50505050508152602001600382015f9054906101000a900473ffffffffffffffffffffffffffffffffffffffff1673ffffffffffffffffffffffffffffffffffffffff1673ffffffffffffffffffffffffffffffffffffffff16815260200160048201548152602001600582015f9054906101000a900460ff16600181111561047c5761047b610fc2565b5b600181111561048e5761048d610fc2565b5b815250509050919050565b6104a584848484610c44565b7fc25f73d8066f835a9a93ef7719cc9dfa37651997ad88ea41abe71c77f9209ce733856040516104d69291906113a5565b60405180910390a150505050565b6001544211610528576040517f08c379a000000000000000000000000000000000000000000000000000000000815260040161051f9061143c565b60405180910390fd5b6801158e460913d0000060025f8381526020019081526020015f206004015410156105ea575f60025f8381526020019081526020015f206004015490503373ffffffffffffffffffffffffffffffffffffffff166108fc8290811502906040515f60405180830381858888f193505050501580156105a8573d5f803e3d5ffd5b507f6bcc8e13f2b9cabd8625faa0937688a01aab305f3a921ee1e5fbcff66144fa573383836040516105dc9392919061145a565b60405180910390a150610625565b6040517f08c379a000000000000000000000000000000000000000000000000000000000815260040161061c906114d9565b60405180910390fd5b50565b60015481565b600154421015610673576040517f08c379a000000000000000000000000000000000000000000000000000000000815260040161066a90611567565b60405180910390fd5b6801158e460913d0000060025f8381526020019081526020015f2060040154106107a3575f60025f8381526020019081526020015f2060040154905060025f8381526020019081526020015f206003015f9054906101000a900473ffffffffffffffffffffffffffffffffffffffff1673ffffffffffffffffffffffffffffffffffffffff166108fc8290811502906040515f60405180830381858888f19350505050158015610725573d5f803e3d5ffd5b50600160025f8481526020019081526020015f206005015f6101000a81548160ff0219169083600181111561075d5761075c610fc2565b5b02179055507f9576942f6783612a1de73784d0a4a99e49ddbc7e59e8fc927cffc1ee5385d2363383836040516107959392919061145a565b60405180910390a1506107de565b6040517f08c379a00000000000000000000000000000000000000000000000000000000081526004016107d5906115cf565b60405180910390fd5b50565b5f8054906101000a900473ffffffffffffffffffffffffffffffffffffffff1681565b5f8060025f8481526020019081526020015f20600401546801158e460913d0000061082f919061161a565b905080915050919050565b5f8060025f8481526020019081526020015f206003015f9054906101000a900473ffffffffffffffffffffffffffffffffffffffff16905080915050919050565b610883610da9565b6001544211156108c8576040517f08c379a00000000000000000000000000000000000000000000000000000000081526004016108bf906116bd565b60405180910390fd5b3460025f8481526020019081526020015f206004015f8282546108eb91906116db565b925050819055505f600181111561090557610904610fc2565b5b60025f8481526020019081526020015f206005015f9054906101000a900460ff16600181111561093857610937610fc2565b5b14610978576040517f08c379a000000000000000000000000000000000000000000000000000000000815260040161096f90611758565b60405180910390fd5b7f8952ac1e80fc86d8ccb4c9bb2b1df4ba33b963fdc98de332d4d07a43ddddc4628233346040516109ab93929190611776565b60405180910390a16109bc82610804565b503073ffffffffffffffffffffffffffffffffffffffff166310445b2b836040518263ffffffff1660e01b81526004016109f69190611307565b5f60405180830381865afa925050508015610a3357506040513d5f823e3d601f19601f82011682018060405250810190610a309190611957565b60015b610a71577f24c93343bea44ff8f0e628ca4e5b87dfe0823d664c887457e166a03798bb191c604051610a64906119e8565b60405180910390a1610a7a565b80915050610a7b565b5b919050565b5f8054906101000a900473ffffffffffffffffffffffffffffffffffffffff1673ffffffffffffffffffffffffffffffffffffffff163373ffffffffffffffffffffffffffffffffffffffff1614610ad6575f80fd5b6801158e460913d0000060025f8381526020019081526020015f206004015410610c06575f60025f8381526020019081526020015f2060040154905060025f8381526020019081526020015f206003015f9054906101000a900473ffffffffffffffffffffffffffffffffffffffff1673ffffffffffffffffffffffffffffffffffffffff166108fc8290811502906040515f60405180830381858888f19350505050158015610b88573d5f803e3d5ffd5b50600160025f8481526020019081526020015f206005015f6101000a81548160ff02191690836001811115610bc057610bbf610fc2565b5b02179055507f9576942f6783612a1de73784d0a4a99e49ddbc7e59e8fc927cffc1ee5385d236338383604051610bf89392919061145a565b60405180910390a150610c41565b6040517f08c379a0000000000000000000000000000000000000000000000000000000008152600401610c38906115cf565b60405180910390fd5b50565b6040518060c0016040528085815260200184848080601f0160208091040260200160405190810160405280939291908181526020018383808284375f81840152601f19601f8201169050808301925050505050505081526020018281526020013373ffffffffffffffffffffffffffffffffffffffff1681526020015f81526020015f6001811115610cd957610cd8610fc2565b5b81525060025f8681526020019081526020015f205f820151815f01556020820151816001019081610d0a9190611ba3565b506040820151816002019081610d209190611ba3565b506060820151816003015f6101000a81548173ffffffffffffffffffffffffffffffffffffffff021916908373ffffffffffffffffffffffffffffffffffffffff1602179055506080820151816004015560a0820151816005015f6101000a81548160ff02191690836001811115610d9b57610d9a610fc2565b5b021790555090505050505050565b6040518060c001604052805f815260200160608152602001606081526020015f73ffffffffffffffffffffffffffffffffffffffff1681526020015f81526020015f6001811115610dfd57610dfc610fc2565b5b81525090565b5f82825260208201905092915050565b7f616d6f756e74207265636569766564207375636365737366756c6c79000000005f82015250565b5f610e47601c83610e03565b9150610e5282610e13565b602082019050919050565b5f6020820190508181035f830152610e7481610e3b565b9050919050565b5f604051905090565b5f80fd5b5f80fd5b5f819050919050565b610e9e81610e8c565b8114610ea8575f80fd5b50565b5f81359050610eb981610e95565b92915050565b5f60208284031215610ed457610ed3610e84565b5b5f610ee184828501610eab565b91505092915050565b610ef381610e8c565b82525050565b5f81519050919050565b5f82825260208201905092915050565b5f5b83811015610f30578082015181840152602081019050610f15565b5f8484015250505050565b5f601f19601f8301169050919050565b5f610f5582610ef9565b610f5f8185610f03565b9350610f6f818560208601610f13565b610f7881610f3b565b840191505092915050565b5f73ffffffffffffffffffffffffffffffffffffffff82169050919050565b5f610fac82610f83565b9050919050565b610fbc81610fa2565b82525050565b7f4e487b71000000000000000000000000000000000000000000000000000000005f52602160045260245ffd5b6002811061100057610fff610fc2565b5b50565b5f81905061101082610fef565b919050565b5f61101f82611003565b9050919050565b61102f81611015565b82525050565b5f60c083015f83015161104a5f860182610eea565b50602083015184820360208601526110628282610f4b565b9150506040830151848203604086015261107c8282610f4b565b91505060608301516110916060860182610fb3565b5060808301516110a46080860182610eea565b5060a08301516110b760a0860182611026565b508091505092915050565b5f6020820190508181035f8301526110da8184611035565b905092915050565b5f80fd5b5f80fd5b5f80fd5b5f8083601f840112611103576111026110e2565b5b8235905067ffffffffffffffff8111156111205761111f6110e6565b5b60208301915083600182028301111561113c5761113b6110ea565b5b9250929050565b5f80fd5b7f4e487b71000000000000000000000000000000000000000000000000000000005f52604160045260245ffd5b61117d82610f3b565b810181811067ffffffffffffffff8211171561119c5761119b611147565b5b80604052505050565b5f6111ae610e7b565b90506111ba8282611174565b919050565b5f67ffffffffffffffff8211156111d9576111d8611147565b5b6111e282610f3b565b9050602081019050919050565b828183375f83830152505050565b5f61120f61120a846111bf565b6111a5565b90508281526020810184848401111561122b5761122a611143565b5b6112368482856111ef565b509392505050565b5f82601f830112611252576112516110e2565b5b81356112628482602086016111fd565b91505092915050565b5f805f806060858703121561128357611282610e84565b5b5f61129087828801610eab565b945050602085013567ffffffffffffffff8111156112b1576112b0610e88565b5b6112bd878288016110ee565b9350935050604085013567ffffffffffffffff8111156112e0576112df610e88565b5b6112ec8782880161123e565b91505092959194509250565b61130181610e8c565b82525050565b5f60208201905061131a5f8301846112f8565b92915050565b61132981610fa2565b82525050565b5f6020820190506113425f830184611320565b92915050565b7f4e487b71000000000000000000000000000000000000000000000000000000005f52602260045260245ffd5b5f600282049050600182168061138c57607f821691505b60208210810361139f5761139e611348565b5b50919050565b5f6040820190506113b85f830185611320565b6113c560208301846112f8565b9392505050565b7f63616e277420726566756e642063757a20646561646c696e65206e6f74206d655f8201527f6574000000000000000000000000000000000000000000000000000000000000602082015250565b5f611426602283610e03565b9150611431826113cc565b604082019050919050565b5f6020820190508181035f8301526114538161141a565b9050919050565b5f60608201905061146d5f830186611320565b61147a60208301856112f8565b61148760408301846112f8565b949350505050565b7f752063616e277420726566756e642000000000000000000000000000000000005f82015250565b5f6114c3600f83610e03565b91506114ce8261148f565b602082019050919050565b5f6020820190508181035f8301526114f0816114b7565b9050919050565b7f6e6f7420616c6c6f77656420636c61696d696e672063757a20616c6c6f7765645f8201527f2074696d652069732072656d61696e696e670000000000000000000000000000602082015250565b5f611551603283610e03565b915061155c826114f7565b604082019050919050565b5f6020820190508181035f83015261157e81611545565b9050919050565b7f616d6f756e74206973206e6f7420657175616c20746f20676f616c00000000005f82015250565b5f6115b9601b83610e03565b91506115c482611585565b602082019050919050565b5f6020820190508181035f8301526115e6816115ad565b9050919050565b7f4e487b71000000000000000000000000000000000000000000000000000000005f52601160045260245ffd5b5f61162482610e8c565b915061162f83610e8c565b9250828203905081811115611647576116466115ed565b5b92915050565b7f7472616e73616374696f6e20617265206e6f7420616c6c6f77656420696e20745f8201527f6869732074696d65000000000000000000000000000000000000000000000000602082015250565b5f6116a7602883610e03565b91506116b28261164d565b604082019050919050565b5f6020820190508181035f8301526116d48161169b565b9050919050565b5f6116e582610e8c565b91506116f083610e8c565b9250828201905080821115611708576117076115ed565b5b92915050565b7f7374746165206973206e6f7420616372697665000000000000000000000000005f82015250565b5f611742601383610e03565b915061174d8261170e565b602082019050919050565b5f6020820190508181035f83015261176f81611736565b9050919050565b5f6060820190506117895f8301866112f8565b6117966020830185611320565b6117a360408301846112f8565b949350505050565b5f80fd5b5f80fd5b5f815190506117c181610e95565b92915050565b5f6117d96117d4846111bf565b6111a5565b9050828152602081018484840111156117f5576117f4611143565b5b611800848285610f13565b509392505050565b5f82601f83011261181c5761181b6110e2565b5b815161182c8482602086016117c7565b91505092915050565b61183e81610fa2565b8114611848575f80fd5b50565b5f8151905061185981611835565b92915050565b6002811061186b575f80fd5b50565b5f8151905061187c8161185f565b92915050565b5f60c08284031215611897576118966117ab565b5b6118a160c06111a5565b90505f6118b0848285016117b3565b5f83015250602082015167ffffffffffffffff8111156118d3576118d26117af565b5b6118df84828501611808565b602083015250604082015167ffffffffffffffff811115611903576119026117af565b5b61190f84828501611808565b60408301525060606119238482850161184b565b6060830152506080611937848285016117b3565b60808301525060a061194b8482850161186e565b60a08301525092915050565b5f6020828403121561196c5761196b610e84565b5b5f82015167ffffffffffffffff81111561198957611988610e88565b5b61199584828501611882565b91505092915050565b7f75736572206e6f7420666f756e640000000000000000000000000000000000005f82015250565b5f6119d2600e83610e03565b91506119dd8261199e565b602082019050919050565b5f6020820190508181035f8301526119ff816119c6565b9050919050565b5f819050815f5260205f209050919050565b5f6020601f8301049050919050565b5f82821b905092915050565b5f60088302611a627fffffffffffffffffffffffffffffffffffffffffffffffffffffffffffffffff82611a27565b611a6c8683611a27565b95508019841693508086168417925050509392505050565b5f819050919050565b5f611aa7611aa2611a9d84610e8c565b611a84565b610e8c565b9050919050565b5f819050919050565b611ac083611a8d565b611ad4611acc82611aae565b848454611a33565b825550505050565b5f90565b611ae8611adc565b611af3818484611ab7565b505050565b5b81811015611b1657611b0b5f82611ae0565b600181019050611af9565b5050565b601f821115611b5b57611b2c81611a06565b611b3584611a18565b81016020851015611b44578190505b611b58611b5085611a18565b830182611af8565b50505b505050565b5f82821c905092915050565b5f611b7b5f1984600802611b60565b1980831691505092915050565b5f611b938383611b6c565b9150826002028217905092915050565b611bac82610ef9565b67ffffffffffffffff811115611bc557611bc4611147565b5b611bcf8254611375565b611bda828285611b1a565b5f60209050601f831160018114611c0b575f8415611bf9578287015190505b611c038582611b88565b865550611c6a565b601f198416611c1986611a06565b5f5b82811015611c4057848901518255600182019150602085019450602081019050611c1b565b86831015611c5d5784890151611c59601f891682611b6c565b8355505b6001600288020188555050505b50505050505056fea26469706673582212202b6bacfd2bca0c4086695b85a994aebac22b2ddde705d77d9e6a4cf3a54a7b5f64736f6c63430008170033",
					"opcodes": "PUSH1 0x80 PUSH1 0x40 MSTORE PUSH1 0x78 TIMESTAMP PUSH3 0x13 SWAP2 SWAP1 PUSH3 0x9E JUMP JUMPDEST PUSH1 0x1 SSTORE CALLVALUE DUP1 ISZERO PUSH3 0x22 JUMPI PUSH0 DUP1 REVERT JUMPDEST POP CALLER PUSH0 DUP1 PUSH2 0x100 EXP DUP2 SLOAD DUP2 PUSH20 0xFFFFFFFFFFFFFFFFFFFFFFFFFFFFFFFFFFFFFFFF MUL NOT AND SWAP1 DUP4 PUSH20 0xFFFFFFFFFFFFFFFFFFFFFFFFFFFFFFFFFFFFFFFF AND MUL OR SWAP1 SSTORE POP PUSH3 0xD8 JUMP JUMPDEST PUSH0 DUP2 SWAP1 POP SWAP2 SWAP1 POP JUMP JUMPDEST PUSH32 0x4E487B7100000000000000000000000000000000000000000000000000000000 PUSH0 MSTORE PUSH1 0x11 PUSH1 0x4 MSTORE PUSH1 0x24 PUSH0 REVERT JUMPDEST PUSH0 PUSH3 0xAA DUP3 PUSH3 0x68 JUMP JUMPDEST SWAP2 POP PUSH3 0xB7 DUP4 PUSH3 0x68 JUMP JUMPDEST SWAP3 POP DUP3 DUP3 ADD SWAP1 POP DUP1 DUP3 GT ISZERO PUSH3 0xD2 JUMPI PUSH3 0xD1 PUSH3 0x71 JUMP JUMPDEST JUMPDEST SWAP3 SWAP2 POP POP JUMP JUMPDEST PUSH2 0x1CA8 DUP1 PUSH3 0xE6 PUSH0 CODECOPY PUSH0 RETURN INVALID PUSH1 0x80 PUSH1 0x40 MSTORE PUSH1 0x4 CALLDATASIZE LT PUSH2 0x94 JUMPI PUSH0 CALLDATALOAD PUSH1 0xE0 SHR DUP1 PUSH4 0x384F58EB GT PUSH2 0x58 JUMPI DUP1 PUSH4 0x384F58EB EQ PUSH2 0x1B2 JUMPI DUP1 PUSH4 0x3E608AFA EQ PUSH2 0x1DC JUMPI DUP1 PUSH4 0x92C93AA0 EQ PUSH2 0x218 JUMPI DUP1 PUSH4 0xE8709C40 EQ PUSH2 0x254 JUMPI DUP1 PUSH4 0xF1CA8BFF EQ PUSH2 0x284 JUMPI PUSH2 0xD0 JUMP JUMPDEST DUP1 PUSH4 0x10445B2B EQ PUSH2 0xD4 JUMPI DUP1 PUSH4 0x15411001 EQ PUSH2 0x110 JUMPI DUP1 PUSH4 0x278ECDE1 EQ PUSH2 0x138 JUMPI DUP1 PUSH4 0x2CA126F8 EQ PUSH2 0x160 JUMPI DUP1 PUSH4 0x379607F5 EQ PUSH2 0x18A JUMPI PUSH2 0xD0 JUMP JUMPDEST CALLDATASIZE PUSH2 0xD0 JUMPI PUSH32 0xBE025CD0737D1912C421EB1ACE55F3A811FCCB8C5A479C1D21F0882DC11C607F PUSH1 0x40 MLOAD PUSH2 0xC6 SWAP1 PUSH2 0xE5D JUMP JUMPDEST PUSH1 0x40 MLOAD DUP1 SWAP2 SUB SWAP1 LOG1 STOP JUMPDEST PUSH0 DUP1 REVERT JUMPDEST CALLVALUE DUP1 ISZERO PUSH2 0xDF JUMPI PUSH0 DUP1 REVERT JUMPDEST POP PUSH2 0xFA PUSH1 0x4 DUP1 CALLDATASIZE SUB DUP2 ADD SWAP1 PUSH2 0xF5 SWAP2 SWAP1 PUSH2 0xEBF JUMP JUMPDEST PUSH2 0x2AC JUMP JUMPDEST PUSH1 0x40 MLOAD PUSH2 0x107 SWAP2 SWAP1 PUSH2 0x10C2 JUMP JUMPDEST PUSH1 0x40 MLOAD DUP1 SWAP2 SUB SWAP1 RETURN JUMPDEST CALLVALUE DUP1 ISZERO PUSH2 0x11B JUMPI PUSH0 DUP1 REVERT JUMPDEST POP PUSH2 0x136 PUSH1 0x4 DUP1 CALLDATASIZE SUB DUP2 ADD SWAP1 PUSH2 0x131 SWAP2 SWAP1 PUSH2 0x126B JUMP JUMPDEST PUSH2 0x499 JUMP JUMPDEST STOP JUMPDEST CALLVALUE DUP1 ISZERO PUSH2 0x143 JUMPI PUSH0 DUP1 REVERT JUMPDEST POP PUSH2 0x15E PUSH1 0x4 DUP1 CALLDATASIZE SUB DUP2 ADD SWAP1 PUSH2 0x159 SWAP2 SWAP1 PUSH2 0xEBF JUMP JUMPDEST PUSH2 0x4E4 JUMP JUMPDEST STOP JUMPDEST CALLVALUE DUP1 ISZERO PUSH2 0x16B JUMPI PUSH0 DUP1 REVERT JUMPDEST POP PUSH2 0x174 PUSH2 0x628 JUMP JUMPDEST PUSH1 0x40 MLOAD PUSH2 0x181 SWAP2 SWAP1 PUSH2 0x1307 JUMP JUMPDEST PUSH1 0x40 MLOAD DUP1 SWAP2 SUB SWAP1 RETURN JUMPDEST CALLVALUE DUP1 ISZERO PUSH2 0x195 JUMPI PUSH0 DUP1 REVERT JUMPDEST POP PUSH2 0x1B0 PUSH1 0x4 DUP1 CALLDATASIZE SUB DUP2 ADD SWAP1 PUSH2 0x1AB SWAP2 SWAP1 PUSH2 0xEBF JUMP JUMPDEST PUSH2 0x62E JUMP JUMPDEST STOP JUMPDEST CALLVALUE DUP1 ISZERO PUSH2 0x1BD JUMPI PUSH0 DUP1 REVERT JUMPDEST POP PUSH2 0x1C6 PUSH2 0x7E1 JUMP JUMPDEST PUSH1 0x40 MLOAD PUSH2 0x1D3 SWAP2 SWAP1 PUSH2 0x132F JUMP JUMPDEST PUSH1 0x40 MLOAD DUP1 SWAP2 SUB SWAP1 RETURN JUMPDEST CALLVALUE DUP1 ISZERO PUSH2 0x1E7 JUMPI PUSH0 DUP1 REVERT JUMPDEST POP PUSH2 0x202 PUSH1 0x4 DUP1 CALLDATASIZE SUB DUP2 ADD SWAP1 PUSH2 0x1FD SWAP2 SWAP1 PUSH2 0xEBF JUMP JUMPDEST PUSH2 0x804 JUMP JUMPDEST PUSH1 0x40 MLOAD PUSH2 0x20F SWAP2 SWAP1 PUSH2 0x1307 JUMP JUMPDEST PUSH1 0x40 MLOAD DUP1 SWAP2 SUB SWAP1 RETURN JUMPDEST CALLVALUE DUP1 ISZERO PUSH2 0x223 JUMPI PUSH0 DUP1 REVERT JUMPDEST POP PUSH2 0x23E PUSH1 0x4 DUP1 CALLDATASIZE SUB DUP2 ADD SWAP1 PUSH2 0x239 SWAP2 SWAP1 PUSH2 0xEBF JUMP JUMPDEST PUSH2 0x83A JUMP JUMPDEST PUSH1 0x40 MLOAD PUSH2 0x24B SWAP2 SWAP1 PUSH2 0x132F JUMP JUMPDEST PUSH1 0x40 MLOAD DUP1 SWAP2 SUB SWAP1 RETURN JUMPDEST PUSH2 0x26E PUSH1 0x4 DUP1 CALLDATASIZE SUB DUP2 ADD SWAP1 PUSH2 0x269 SWAP2 SWAP1 PUSH2 0xEBF JUMP JUMPDEST PUSH2 0x87B JUMP JUMPDEST PUSH1 0x40 MLOAD PUSH2 0x27B SWAP2 SWAP1 PUSH2 0x10C2 JUMP JUMPDEST PUSH1 0x40 MLOAD DUP1 SWAP2 SUB SWAP1 RETURN JUMPDEST CALLVALUE DUP1 ISZERO PUSH2 0x28F JUMPI PUSH0 DUP1 REVERT JUMPDEST POP PUSH2 0x2AA PUSH1 0x4 DUP1 CALLDATASIZE SUB DUP2 ADD SWAP1 PUSH2 0x2A5 SWAP2 SWAP1 PUSH2 0xEBF JUMP JUMPDEST PUSH2 0xA80 JUMP JUMPDEST STOP JUMPDEST PUSH2 0x2B4 PUSH2 0xDA9 JUMP JUMPDEST PUSH1 0x2 PUSH0 DUP4 DUP2 MSTORE PUSH1 0x20 ADD SWAP1 DUP2 MSTORE PUSH1 0x20 ADD PUSH0 KECCAK256 PUSH1 0x40 MLOAD DUP1 PUSH1 0xC0 ADD PUSH1 0x40 MSTORE SWAP1 DUP2 PUSH0 DUP3 ADD SLOAD DUP2 MSTORE PUSH1 0x20 ADD PUSH1 0x1 DUP3 ADD DUP1 SLOAD PUSH2 0x2E9 SWAP1 PUSH2 0x1375 JUMP JUMPDEST DUP1 PUSH1 0x1F ADD PUSH1 0x20 DUP1 SWAP2 DIV MUL PUSH1 0x20 ADD PUSH1 0x40 MLOAD SWAP1 DUP2 ADD PUSH1 0x40 MSTORE DUP1 SWAP3 SWAP2 SWAP1 DUP2 DUP2 MSTORE PUSH1 0x20 ADD DUP3 DUP1 SLOAD PUSH2 0x315 SWAP1 PUSH2 0x1375 JUMP JUMPDEST DUP1 ISZERO PUSH2 0x360 JUMPI DUP1 PUSH1 0x1F LT PUSH2 0x337 JUMPI PUSH2 0x100 DUP1 DUP4 SLOAD DIV MUL DUP4 MSTORE SWAP2 PUSH1 0x20 ADD SWAP2 PUSH2 0x360 JUMP JUMPDEST DUP3 ADD SWAP2 SWAP1 PUSH0 MSTORE PUSH1 0x20 PUSH0 KECCAK256 SWAP1 JUMPDEST DUP2 SLOAD DUP2 MSTORE SWAP1 PUSH1 0x1 ADD SWAP1 PUSH1 0x20 ADD DUP1 DUP4 GT PUSH2 0x343 JUMPI DUP3 SWAP1 SUB PUSH1 0x1F AND DUP3 ADD SWAP2 JUMPDEST POP POP POP POP POP DUP2 MSTORE PUSH1 0x20 ADD PUSH1 0x2 DUP3 ADD DUP1 SLOAD PUSH2 0x379 SWAP1 PUSH2 0x1375 JUMP JUMPDEST DUP1 PUSH1 0x1F ADD PUSH1 0x20 DUP1 SWAP2 DIV MUL PUSH1 0x20 ADD PUSH1 0x40 MLOAD SWAP1 DUP2 ADD PUSH1 0x40 MSTORE DUP1 SWAP3 SWAP2 SWAP1 DUP2 DUP2 MSTORE PUSH1 0x20 ADD DUP3 DUP1 SLOAD PUSH2 0x3A5 SWAP1 PUSH2 0x1375 JUMP JUMPDEST DUP1 ISZERO PUSH2 0x3F0 JUMPI DUP1 PUSH1 0x1F LT PUSH2 0x3C7 JUMPI PUSH2 0x100 DUP1 DUP4 SLOAD DIV MUL DUP4 MSTORE SWAP2 PUSH1 0x20 ADD SWAP2 PUSH2 0x3F0 JUMP JUMPDEST DUP3 ADD SWAP2 SWAP1 PUSH0 MSTORE PUSH1 0x20 PUSH0 KECCAK256 SWAP1 JUMPDEST DUP2 SLOAD DUP2 MSTORE SWAP1 PUSH1 0x1 ADD SWAP1 PUSH1 0x20 ADD DUP1 DUP4 GT PUSH2 0x3D3 JUMPI DUP3 SWAP1 SUB PUSH1 0x1F AND DUP3 ADD SWAP2 JUMPDEST POP POP POP POP POP DUP2 MSTORE PUSH1 0x20 ADD PUSH1 0x3 DUP3 ADD PUSH0 SWAP1 SLOAD SWAP1 PUSH2 0x100 EXP SWAP1 DIV PUSH20 0xFFFFFFFFFFFFFFFFFFFFFFFFFFFFFFFFFFFFFFFF AND PUSH20 0xFFFFFFFFFFFFFFFFFFFFFFFFFFFFFFFFFFFFFFFF AND PUSH20 0xFFFFFFFFFFFFFFFFFFFFFFFFFFFFFFFFFFFFFFFF AND DUP2 MSTORE PUSH1 0x20 ADD PUSH1 0x4 DUP3 ADD SLOAD DUP2 MSTORE PUSH1 0x20 ADD PUSH1 0x5 DUP3 ADD PUSH0 SWAP1 SLOAD SWAP1 PUSH2 0x100 EXP SWAP1 DIV PUSH1 0xFF AND PUSH1 0x1 DUP2 GT ISZERO PUSH2 0x47C JUMPI PUSH2 0x47B PUSH2 0xFC2 JUMP JUMPDEST JUMPDEST PUSH1 0x1 DUP2 GT ISZERO PUSH2 0x48E JUMPI PUSH2 0x48D PUSH2 0xFC2 JUMP JUMPDEST JUMPDEST DUP2 MSTORE POP POP SWAP1 POP SWAP2 SWAP1 POP JUMP JUMPDEST PUSH2 0x4A5 DUP5 DUP5 DUP5 DUP5 PUSH2 0xC44 JUMP JUMPDEST PUSH32 0xC25F73D8066F835A9A93EF7719CC9DFA37651997AD88EA41ABE71C77F9209CE7 CALLER DUP6 PUSH1 0x40 MLOAD PUSH2 0x4D6 SWAP3 SWAP2 SWAP1 PUSH2 0x13A5 JUMP JUMPDEST PUSH1 0x40 MLOAD DUP1 SWAP2 SUB SWAP1 LOG1 POP POP POP POP JUMP JUMPDEST PUSH1 0x1 SLOAD TIMESTAMP GT PUSH2 0x528 JUMPI PUSH1 0x40 MLOAD PUSH32 0x8C379A000000000000000000000000000000000000000000000000000000000 DUP2 MSTORE PUSH1 0x4 ADD PUSH2 0x51F SWAP1 PUSH2 0x143C JUMP JUMPDEST PUSH1 0x40 MLOAD DUP1 SWAP2 SUB SWAP1 REVERT JUMPDEST PUSH9 0x1158E460913D00000 PUSH1 0x2 PUSH0 DUP4 DUP2 MSTORE PUSH1 0x20 ADD SWAP1 DUP2 MSTORE PUSH1 0x20 ADD PUSH0 KECCAK256 PUSH1 0x4 ADD SLOAD LT ISZERO PUSH2 0x5EA JUMPI PUSH0 PUSH1 0x2 PUSH0 DUP4 DUP2 MSTORE PUSH1 0x20 ADD SWAP1 DUP2 MSTORE PUSH1 0x20 ADD PUSH0 KECCAK256 PUSH1 0x4 ADD SLOAD SWAP1 POP CALLER PUSH20 0xFFFFFFFFFFFFFFFFFFFFFFFFFFFFFFFFFFFFFFFF AND PUSH2 0x8FC DUP3 SWAP1 DUP2 ISZERO MUL SWAP1 PUSH1 0x40 MLOAD PUSH0 PUSH1 0x40 MLOAD DUP1 DUP4 SUB DUP2 DUP6 DUP9 DUP9 CALL SWAP4 POP POP POP POP ISZERO DUP1 ISZERO PUSH2 0x5A8 JUMPI RETURNDATASIZE PUSH0 DUP1 RETURNDATACOPY RETURNDATASIZE PUSH0 REVERT JUMPDEST POP PUSH32 0x6BCC8E13F2B9CABD8625FAA0937688A01AAB305F3A921EE1E5FBCFF66144FA57 CALLER DUP4 DUP4 PUSH1 0x40 MLOAD PUSH2 0x5DC SWAP4 SWAP3 SWAP2 SWAP1 PUSH2 0x145A JUMP JUMPDEST PUSH1 0x40 MLOAD DUP1 SWAP2 SUB SWAP1 LOG1 POP PUSH2 0x625 JUMP JUMPDEST PUSH1 0x40 MLOAD PUSH32 0x8C379A000000000000000000000000000000000000000000000000000000000 DUP2 MSTORE PUSH1 0x4 ADD PUSH2 0x61C SWAP1 PUSH2 0x14D9 JUMP JUMPDEST PUSH1 0x40 MLOAD DUP1 SWAP2 SUB SWAP1 REVERT JUMPDEST POP JUMP JUMPDEST PUSH1 0x1 SLOAD DUP2 JUMP JUMPDEST PUSH1 0x1 SLOAD TIMESTAMP LT ISZERO PUSH2 0x673 JUMPI PUSH1 0x40 MLOAD PUSH32 0x8C379A000000000000000000000000000000000000000000000000000000000 DUP2 MSTORE PUSH1 0x4 ADD PUSH2 0x66A SWAP1 PUSH2 0x1567 JUMP JUMPDEST PUSH1 0x40 MLOAD DUP1 SWAP2 SUB SWAP1 REVERT JUMPDEST PUSH9 0x1158E460913D00000 PUSH1 0x2 PUSH0 DUP4 DUP2 MSTORE PUSH1 0x20 ADD SWAP1 DUP2 MSTORE PUSH1 0x20 ADD PUSH0 KECCAK256 PUSH1 0x4 ADD SLOAD LT PUSH2 0x7A3 JUMPI PUSH0 PUSH1 0x2 PUSH0 DUP4 DUP2 MSTORE PUSH1 0x20 ADD SWAP1 DUP2 MSTORE PUSH1 0x20 ADD PUSH0 KECCAK256 PUSH1 0x4 ADD SLOAD SWAP1 POP PUSH1 0x2 PUSH0 DUP4 DUP2 MSTORE PUSH1 0x20 ADD SWAP1 DUP2 MSTORE PUSH1 0x20 ADD PUSH0 KECCAK256 PUSH1 0x3 ADD PUSH0 SWAP1 SLOAD SWAP1 PUSH2 0x100 EXP SWAP1 DIV PUSH20 0xFFFFFFFFFFFFFFFFFFFFFFFFFFFFFFFFFFFFFFFF AND PUSH20 0xFFFFFFFFFFFFFFFFFFFFFFFFFFFFFFFFFFFFFFFF AND PUSH2 0x8FC DUP3 SWAP1 DUP2 ISZERO MUL SWAP1 PUSH1 0x40 MLOAD PUSH0 PUSH1 0x40 MLOAD DUP1 DUP4 SUB DUP2 DUP6 DUP9 DUP9 CALL SWAP4 POP POP POP POP ISZERO DUP1 ISZERO PUSH2 0x725 JUMPI RETURNDATASIZE PUSH0 DUP1 RETURNDATACOPY RETURNDATASIZE PUSH0 REVERT JUMPDEST POP PUSH1 0x1 PUSH1 0x2 PUSH0 DUP5 DUP2 MSTORE PUSH1 0x20 ADD SWAP1 DUP2 MSTORE PUSH1 0x20 ADD PUSH0 KECCAK256 PUSH1 0x5 ADD PUSH0 PUSH2 0x100 EXP DUP2 SLOAD DUP2 PUSH1 0xFF MUL NOT AND SWAP1 DUP4 PUSH1 0x1 DUP2 GT ISZERO PUSH2 0x75D JUMPI PUSH2 0x75C PUSH2 0xFC2 JUMP JUMPDEST JUMPDEST MUL OR SWAP1 SSTORE POP PUSH32 0x9576942F6783612A1DE73784D0A4A99E49DDBC7E59E8FC927CFFC1EE5385D236 CALLER DUP4 DUP4 PUSH1 0x40 MLOAD PUSH2 0x795 SWAP4 SWAP3 SWAP2 SWAP1 PUSH2 0x145A JUMP JUMPDEST PUSH1 0x40 MLOAD DUP1 SWAP2 SUB SWAP1 LOG1 POP PUSH2 0x7DE JUMP JUMPDEST PUSH1 0x40 MLOAD PUSH32 0x8C379A000000000000000000000000000000000000000000000000000000000 DUP2 MSTORE PUSH1 0x4 ADD PUSH2 0x7D5 SWAP1 PUSH2 0x15CF JUMP JUMPDEST PUSH1 0x40 MLOAD DUP1 SWAP2 SUB SWAP1 REVERT JUMPDEST POP JUMP JUMPDEST PUSH0 DUP1 SLOAD SWAP1 PUSH2 0x100 EXP SWAP1 DIV PUSH20 0xFFFFFFFFFFFFFFFFFFFFFFFFFFFFFFFFFFFFFFFF AND DUP2 JUMP JUMPDEST PUSH0 DUP1 PUSH1 0x2 PUSH0 DUP5 DUP2 MSTORE PUSH1 0x20 ADD SWAP1 DUP2 MSTORE PUSH1 0x20 ADD PUSH0 KECCAK256 PUSH1 0x4 ADD SLOAD PUSH9 0x1158E460913D00000 PUSH2 0x82F SWAP2 SWAP1 PUSH2 0x161A JUMP JUMPDEST SWAP1 POP DUP1 SWAP2 POP POP SWAP2 SWAP1 POP JUMP JUMPDEST PUSH0 DUP1 PUSH1 0x2 PUSH0 DUP5 DUP2 MSTORE PUSH1 0x20 ADD SWAP1 DUP2 MSTORE PUSH1 0x20 ADD PUSH0 KECCAK256 PUSH1 0x3 ADD PUSH0 SWAP1 SLOAD SWAP1 PUSH2 0x100 EXP SWAP1 DIV PUSH20 0xFFFFFFFFFFFFFFFFFFFFFFFFFFFFFFFFFFFFFFFF AND SWAP1 POP DUP1 SWAP2 POP POP SWAP2 SWAP1 POP JUMP JUMPDEST PUSH2 0x883 PUSH2 0xDA9 JUMP JUMPDEST PUSH1 0x1 SLOAD TIMESTAMP GT ISZERO PUSH2 0x8C8 JUMPI PUSH1 0x40 MLOAD PUSH32 0x8C379A000000000000000000000000000000000000000000000000000000000 DUP2 MSTORE PUSH1 0x4 ADD PUSH2 0x8BF SWAP1 PUSH2 0x16BD JUMP JUMPDEST PUSH1 0x40 MLOAD DUP1 SWAP2 SUB SWAP1 REVERT JUMPDEST CALLVALUE PUSH1 0x2 PUSH0 DUP5 DUP2 MSTORE PUSH1 0x20 ADD SWAP1 DUP2 MSTORE PUSH1 0x20 ADD PUSH0 KECCAK256 PUSH1 0x4 ADD PUSH0 DUP3 DUP3 SLOAD PUSH2 0x8EB SWAP2 SWAP1 PUSH2 0x16DB JUMP JUMPDEST SWAP3 POP POP DUP2 SWAP1 SSTORE POP PUSH0 PUSH1 0x1 DUP2 GT ISZERO PUSH2 0x905 JUMPI PUSH2 0x904 PUSH2 0xFC2 JUMP JUMPDEST JUMPDEST PUSH1 0x2 PUSH0 DUP5 DUP2 MSTORE PUSH1 0x20 ADD SWAP1 DUP2 MSTORE PUSH1 0x20 ADD PUSH0 KECCAK256 PUSH1 0x5 ADD PUSH0 SWAP1 SLOAD SWAP1 PUSH2 0x100 EXP SWAP1 DIV PUSH1 0xFF AND PUSH1 0x1 DUP2 GT ISZERO PUSH2 0x938 JUMPI PUSH2 0x937 PUSH2 0xFC2 JUMP JUMPDEST JUMPDEST EQ PUSH2 0x978 JUMPI PUSH1 0x40 MLOAD PUSH32 0x8C379A000000000000000000000000000000000000000000000000000000000 DUP2 MSTORE PUSH1 0x4 ADD PUSH2 0x96F SWAP1 PUSH2 0x1758 JUMP JUMPDEST PUSH1 0x40 MLOAD DUP1 SWAP2 SUB SWAP1 REVERT JUMPDEST PUSH32 0x8952AC1E80FC86D8CCB4C9BB2B1DF4BA33B963FDC98DE332D4D07A43DDDDC462 DUP3 CALLER CALLVALUE PUSH1 0x40 MLOAD PUSH2 0x9AB SWAP4 SWAP3 SWAP2 SWAP1 PUSH2 0x1776 JUMP JUMPDEST PUSH1 0x40 MLOAD DUP1 SWAP2 SUB SWAP1 LOG1 PUSH2 0x9BC DUP3 PUSH2 0x804 JUMP JUMPDEST POP ADDRESS PUSH20 0xFFFFFFFFFFFFFFFFFFFFFFFFFFFFFFFFFFFFFFFF AND PUSH4 0x10445B2B DUP4 PUSH1 0x40 MLOAD DUP3 PUSH4 0xFFFFFFFF AND PUSH1 0xE0 SHL DUP2 MSTORE PUSH1 0x4 ADD PUSH2 0x9F6 SWAP2 SWAP1 PUSH2 0x1307 JUMP JUMPDEST PUSH0 PUSH1 0x40 MLOAD DUP1 DUP4 SUB DUP2 DUP7 GAS STATICCALL SWAP3 POP POP POP DUP1 ISZERO PUSH2 0xA33 JUMPI POP PUSH1 0x40 MLOAD RETURNDATASIZE PUSH0 DUP3 RETURNDATACOPY RETURNDATASIZE PUSH1 0x1F NOT PUSH1 0x1F DUP3 ADD AND DUP3 ADD DUP1 PUSH1 0x40 MSTORE POP DUP2 ADD SWAP1 PUSH2 0xA30 SWAP2 SWAP1 PUSH2 0x1957 JUMP JUMPDEST PUSH1 0x1 JUMPDEST PUSH2 0xA71 JUMPI PUSH32 0x24C93343BEA44FF8F0E628CA4E5B87DFE0823D664C887457E166A03798BB191C PUSH1 0x40 MLOAD PUSH2 0xA64 SWAP1 PUSH2 0x19E8 JUMP JUMPDEST PUSH1 0x40 MLOAD DUP1 SWAP2 SUB SWAP1 LOG1 PUSH2 0xA7A JUMP JUMPDEST DUP1 SWAP2 POP POP PUSH2 0xA7B JUMP JUMPDEST JUMPDEST SWAP2 SWAP1 POP JUMP JUMPDEST PUSH0 DUP1 SLOAD SWAP1 PUSH2 0x100 EXP SWAP1 DIV PUSH20 0xFFFFFFFFFFFFFFFFFFFFFFFFFFFFFFFFFFFFFFFF AND PUSH20 0xFFFFFFFFFFFFFFFFFFFFFFFFFFFFFFFFFFFFFFFF AND CALLER PUSH20 0xFFFFFFFFFFFFFFFFFFFFFFFFFFFFFFFFFFFFFFFF AND EQ PUSH2 0xAD6 JUMPI PUSH0 DUP1 REVERT JUMPDEST PUSH9 0x1158E460913D00000 PUSH1 0x2 PUSH0 DUP4 DUP2 MSTORE PUSH1 0x20 ADD SWAP1 DUP2 MSTORE PUSH1 0x20 ADD PUSH0 KECCAK256 PUSH1 0x4 ADD SLOAD LT PUSH2 0xC06 JUMPI PUSH0 PUSH1 0x2 PUSH0 DUP4 DUP2 MSTORE PUSH1 0x20 ADD SWAP1 DUP2 MSTORE PUSH1 0x20 ADD PUSH0 KECCAK256 PUSH1 0x4 ADD SLOAD SWAP1 POP PUSH1 0x2 PUSH0 DUP4 DUP2 MSTORE PUSH1 0x20 ADD SWAP1 DUP2 MSTORE PUSH1 0x20 ADD PUSH0 KECCAK256 PUSH1 0x3 ADD PUSH0 SWAP1 SLOAD SWAP1 PUSH2 0x100 EXP SWAP1 DIV PUSH20 0xFFFFFFFFFFFFFFFFFFFFFFFFFFFFFFFFFFFFFFFF AND PUSH20 0xFFFFFFFFFFFFFFFFFFFFFFFFFFFFFFFFFFFFFFFF AND PUSH2 0x8FC DUP3 SWAP1 DUP2 ISZERO MUL SWAP1 PUSH1 0x40 MLOAD PUSH0 PUSH1 0x40 MLOAD DUP1 DUP4 SUB DUP2 DUP6 DUP9 DUP9 CALL SWAP4 POP POP POP POP ISZERO DUP1 ISZERO PUSH2 0xB88 JUMPI RETURNDATASIZE PUSH0 DUP1 RETURNDATACOPY RETURNDATASIZE PUSH0 REVERT JUMPDEST POP PUSH1 0x1 PUSH1 0x2 PUSH0 DUP5 DUP2 MSTORE PUSH1 0x20 ADD SWAP1 DUP2 MSTORE PUSH1 0x20 ADD PUSH0 KECCAK256 PUSH1 0x5 ADD PUSH0 PUSH2 0x100 EXP DUP2 SLOAD DUP2 PUSH1 0xFF MUL NOT AND SWAP1 DUP4 PUSH1 0x1 DUP2 GT ISZERO PUSH2 0xBC0 JUMPI PUSH2 0xBBF PUSH2 0xFC2 JUMP JUMPDEST JUMPDEST MUL OR SWAP1 SSTORE POP PUSH32 0x9576942F6783612A1DE73784D0A4A99E49DDBC7E59E8FC927CFFC1EE5385D236 CALLER DUP4 DUP4 PUSH1 0x40 MLOAD PUSH2 0xBF8 SWAP4 SWAP3 SWAP2 SWAP1 PUSH2 0x145A JUMP JUMPDEST PUSH1 0x40 MLOAD DUP1 SWAP2 SUB SWAP1 LOG1 POP PUSH2 0xC41 JUMP JUMPDEST PUSH1 0x40 MLOAD PUSH32 0x8C379A000000000000000000000000000000000000000000000000000000000 DUP2 MSTORE PUSH1 0x4 ADD PUSH2 0xC38 SWAP1 PUSH2 0x15CF JUMP JUMPDEST PUSH1 0x40 MLOAD DUP1 SWAP2 SUB SWAP1 REVERT JUMPDEST POP JUMP JUMPDEST PUSH1 0x40 MLOAD DUP1 PUSH1 0xC0 ADD PUSH1 0x40 MSTORE DUP1 DUP6 DUP2 MSTORE PUSH1 0x20 ADD DUP5 DUP5 DUP1 DUP1 PUSH1 0x1F ADD PUSH1 0x20 DUP1 SWAP2 DIV MUL PUSH1 0x20 ADD PUSH1 0x40 MLOAD SWAP1 DUP2 ADD PUSH1 0x40 MSTORE DUP1 SWAP4 SWAP3 SWAP2 SWAP1 DUP2 DUP2 MSTORE PUSH1 0x20 ADD DUP4 DUP4 DUP1 DUP3 DUP5 CALLDATACOPY PUSH0 DUP2 DUP5 ADD MSTORE PUSH1 0x1F NOT PUSH1 0x1F DUP3 ADD AND SWAP1 POP DUP1 DUP4 ADD SWAP3 POP POP POP POP POP POP POP DUP2 MSTORE PUSH1 0x20 ADD DUP3 DUP2 MSTORE PUSH1 0x20 ADD CALLER PUSH20 0xFFFFFFFFFFFFFFFFFFFFFFFFFFFFFFFFFFFFFFFF AND DUP2 MSTORE PUSH1 0x20 ADD PUSH0 DUP2 MSTORE PUSH1 0x20 ADD PUSH0 PUSH1 0x1 DUP2 GT ISZERO PUSH2 0xCD9 JUMPI PUSH2 0xCD8 PUSH2 0xFC2 JUMP JUMPDEST JUMPDEST DUP2 MSTORE POP PUSH1 0x2 PUSH0 DUP7 DUP2 MSTORE PUSH1 0x20 ADD SWAP1 DUP2 MSTORE PUSH1 0x20 ADD PUSH0 KECCAK256 PUSH0 DUP3 ADD MLOAD DUP2 PUSH0 ADD SSTORE PUSH1 0x20 DUP3 ADD MLOAD DUP2 PUSH1 0x1 ADD SWAP1 DUP2 PUSH2 0xD0A SWAP2 SWAP1 PUSH2 0x1BA3 JUMP JUMPDEST POP PUSH1 0x40 DUP3 ADD MLOAD DUP2 PUSH1 0x2 ADD SWAP1 DUP2 PUSH2 0xD20 SWAP2 SWAP1 PUSH2 0x1BA3 JUMP JUMPDEST POP PUSH1 0x60 DUP3 ADD MLOAD DUP2 PUSH1 0x3 ADD PUSH0 PUSH2 0x100 EXP DUP2 SLOAD DUP2 PUSH20 0xFFFFFFFFFFFFFFFFFFFFFFFFFFFFFFFFFFFFFFFF MUL NOT AND SWAP1 DUP4 PUSH20 0xFFFFFFFFFFFFFFFFFFFFFFFFFFFFFFFFFFFFFFFF AND MUL OR SWAP1 SSTORE POP PUSH1 0x80 DUP3 ADD MLOAD DUP2 PUSH1 0x4 ADD SSTORE PUSH1 0xA0 DUP3 ADD MLOAD DUP2 PUSH1 0x5 ADD PUSH0 PUSH2 0x100 EXP DUP2 SLOAD DUP2 PUSH1 0xFF MUL NOT AND SWAP1 DUP4 PUSH1 0x1 DUP2 GT ISZERO PUSH2 0xD9B JUMPI PUSH2 0xD9A PUSH2 0xFC2 JUMP JUMPDEST JUMPDEST MUL OR SWAP1 SSTORE POP SWAP1 POP POP POP POP POP POP JUMP JUMPDEST PUSH1 0x40 MLOAD DUP1 PUSH1 0xC0 ADD PUSH1 0x40 MSTORE DUP1 PUSH0 DUP2 MSTORE PUSH1 0x20 ADD PUSH1 0x60 DUP2 MSTORE PUSH1 0x20 ADD PUSH1 0x60 DUP2 MSTORE PUSH1 0x20 ADD PUSH0 PUSH20 0xFFFFFFFFFFFFFFFFFFFFFFFFFFFFFFFFFFFFFFFF AND DUP2 MSTORE PUSH1 0x20 ADD PUSH0 DUP2 MSTORE PUSH1 0x20 ADD PUSH0 PUSH1 0x1 DUP2 GT ISZERO PUSH2 0xDFD JUMPI PUSH2 0xDFC PUSH2 0xFC2 JUMP JUMPDEST JUMPDEST DUP2 MSTORE POP SWAP1 JUMP JUMPDEST PUSH0 DUP3 DUP3 MSTORE PUSH1 0x20 DUP3 ADD SWAP1 POP SWAP3 SWAP2 POP POP JUMP JUMPDEST PUSH32 0x616D6F756E74207265636569766564207375636365737366756C6C7900000000 PUSH0 DUP3 ADD MSTORE POP JUMP JUMPDEST PUSH0 PUSH2 0xE47 PUSH1 0x1C DUP4 PUSH2 0xE03 JUMP JUMPDEST SWAP2 POP PUSH2 0xE52 DUP3 PUSH2 0xE13 JUMP JUMPDEST PUSH1 0x20 DUP3 ADD SWAP1 POP SWAP2 SWAP1 POP JUMP JUMPDEST PUSH0 PUSH1 0x20 DUP3 ADD SWAP1 POP DUP2 DUP2 SUB PUSH0 DUP4 ADD MSTORE PUSH2 0xE74 DUP2 PUSH2 0xE3B JUMP JUMPDEST SWAP1 POP SWAP2 SWAP1 POP JUMP JUMPDEST PUSH0 PUSH1 0x40 MLOAD SWAP1 POP SWAP1 JUMP JUMPDEST PUSH0 DUP1 REVERT JUMPDEST PUSH0 DUP1 REVERT JUMPDEST PUSH0 DUP2 SWAP1 POP SWAP2 SWAP1 POP JUMP JUMPDEST PUSH2 0xE9E DUP2 PUSH2 0xE8C JUMP JUMPDEST DUP2 EQ PUSH2 0xEA8 JUMPI PUSH0 DUP1 REVERT JUMPDEST POP JUMP JUMPDEST PUSH0 DUP2 CALLDATALOAD SWAP1 POP PUSH2 0xEB9 DUP2 PUSH2 0xE95 JUMP JUMPDEST SWAP3 SWAP2 POP POP JUMP JUMPDEST PUSH0 PUSH1 0x20 DUP3 DUP5 SUB SLT ISZERO PUSH2 0xED4 JUMPI PUSH2 0xED3 PUSH2 0xE84 JUMP JUMPDEST JUMPDEST PUSH0 PUSH2 0xEE1 DUP5 DUP3 DUP6 ADD PUSH2 0xEAB JUMP JUMPDEST SWAP2 POP POP SWAP3 SWAP2 POP POP JUMP JUMPDEST PUSH2 0xEF3 DUP2 PUSH2 0xE8C JUMP JUMPDEST DUP3 MSTORE POP POP JUMP JUMPDEST PUSH0 DUP2 MLOAD SWAP1 POP SWAP2 SWAP1 POP JUMP JUMPDEST PUSH0 DUP3 DUP3 MSTORE PUSH1 0x20 DUP3 ADD SWAP1 POP SWAP3 SWAP2 POP POP JUMP JUMPDEST PUSH0 JUMPDEST DUP4 DUP2 LT ISZERO PUSH2 0xF30 JUMPI DUP1 DUP3 ADD MLOAD DUP2 DUP5 ADD MSTORE PUSH1 0x20 DUP2 ADD SWAP1 POP PUSH2 0xF15 JUMP JUMPDEST PUSH0 DUP5 DUP5 ADD MSTORE POP POP POP POP JUMP JUMPDEST PUSH0 PUSH1 0x1F NOT PUSH1 0x1F DUP4 ADD AND SWAP1 POP SWAP2 SWAP1 POP JUMP JUMPDEST PUSH0 PUSH2 0xF55 DUP3 PUSH2 0xEF9 JUMP JUMPDEST PUSH2 0xF5F DUP2 DUP6 PUSH2 0xF03 JUMP JUMPDEST SWAP4 POP PUSH2 0xF6F DUP2 DUP6 PUSH1 0x20 DUP7 ADD PUSH2 0xF13 JUMP JUMPDEST PUSH2 0xF78 DUP2 PUSH2 0xF3B JUMP JUMPDEST DUP5 ADD SWAP2 POP POP SWAP3 SWAP2 POP POP JUMP JUMPDEST PUSH0 PUSH20 0xFFFFFFFFFFFFFFFFFFFFFFFFFFFFFFFFFFFFFFFF DUP3 AND SWAP1 POP SWAP2 SWAP1 POP JUMP JUMPDEST PUSH0 PUSH2 0xFAC DUP3 PUSH2 0xF83 JUMP JUMPDEST SWAP1 POP SWAP2 SWAP1 POP JUMP JUMPDEST PUSH2 0xFBC DUP2 PUSH2 0xFA2 JUMP JUMPDEST DUP3 MSTORE POP POP JUMP JUMPDEST PUSH32 0x4E487B7100000000000000000000000000000000000000000000000000000000 PUSH0 MSTORE PUSH1 0x21 PUSH1 0x4 MSTORE PUSH1 0x24 PUSH0 REVERT JUMPDEST PUSH1 0x2 DUP2 LT PUSH2 0x1000 JUMPI PUSH2 0xFFF PUSH2 0xFC2 JUMP JUMPDEST JUMPDEST POP JUMP JUMPDEST PUSH0 DUP2 SWAP1 POP PUSH2 0x1010 DUP3 PUSH2 0xFEF JUMP JUMPDEST SWAP2 SWAP1 POP JUMP JUMPDEST PUSH0 PUSH2 0x101F DUP3 PUSH2 0x1003 JUMP JUMPDEST SWAP1 POP SWAP2 SWAP1 POP JUMP JUMPDEST PUSH2 0x102F DUP2 PUSH2 0x1015 JUMP JUMPDEST DUP3 MSTORE POP POP JUMP JUMPDEST PUSH0 PUSH1 0xC0 DUP4 ADD PUSH0 DUP4 ADD MLOAD PUSH2 0x104A PUSH0 DUP7 ADD DUP3 PUSH2 0xEEA JUMP JUMPDEST POP PUSH1 0x20 DUP4 ADD MLOAD DUP5 DUP3 SUB PUSH1 0x20 DUP7 ADD MSTORE PUSH2 0x1062 DUP3 DUP3 PUSH2 0xF4B JUMP JUMPDEST SWAP2 POP POP PUSH1 0x40 DUP4 ADD MLOAD DUP5 DUP3 SUB PUSH1 0x40 DUP7 ADD MSTORE PUSH2 0x107C DUP3 DUP3 PUSH2 0xF4B JUMP JUMPDEST SWAP2 POP POP PUSH1 0x60 DUP4 ADD MLOAD PUSH2 0x1091 PUSH1 0x60 DUP7 ADD DUP3 PUSH2 0xFB3 JUMP JUMPDEST POP PUSH1 0x80 DUP4 ADD MLOAD PUSH2 0x10A4 PUSH1 0x80 DUP7 ADD DUP3 PUSH2 0xEEA JUMP JUMPDEST POP PUSH1 0xA0 DUP4 ADD MLOAD PUSH2 0x10B7 PUSH1 0xA0 DUP7 ADD DUP3 PUSH2 0x1026 JUMP JUMPDEST POP DUP1 SWAP2 POP POP SWAP3 SWAP2 POP POP JUMP JUMPDEST PUSH0 PUSH1 0x20 DUP3 ADD SWAP1 POP DUP2 DUP2 SUB PUSH0 DUP4 ADD MSTORE PUSH2 0x10DA DUP2 DUP5 PUSH2 0x1035 JUMP JUMPDEST SWAP1 POP SWAP3 SWAP2 POP POP JUMP JUMPDEST PUSH0 DUP1 REVERT JUMPDEST PUSH0 DUP1 REVERT JUMPDEST PUSH0 DUP1 REVERT JUMPDEST PUSH0 DUP1 DUP4 PUSH1 0x1F DUP5 ADD SLT PUSH2 0x1103 JUMPI PUSH2 0x1102 PUSH2 0x10E2 JUMP JUMPDEST JUMPDEST DUP3 CALLDATALOAD SWAP1 POP PUSH8 0xFFFFFFFFFFFFFFFF DUP2 GT ISZERO PUSH2 0x1120 JUMPI PUSH2 0x111F PUSH2 0x10E6 JUMP JUMPDEST JUMPDEST PUSH1 0x20 DUP4 ADD SWAP2 POP DUP4 PUSH1 0x1 DUP3 MUL DUP4 ADD GT ISZERO PUSH2 0x113C JUMPI PUSH2 0x113B PUSH2 0x10EA JUMP JUMPDEST JUMPDEST SWAP3 POP SWAP3 SWAP1 POP JUMP JUMPDEST PUSH0 DUP1 REVERT JUMPDEST PUSH32 0x4E487B7100000000000000000000000000000000000000000000000000000000 PUSH0 MSTORE PUSH1 0x41 PUSH1 0x4 MSTORE PUSH1 0x24 PUSH0 REVERT JUMPDEST PUSH2 0x117D DUP3 PUSH2 0xF3B JUMP JUMPDEST DUP2 ADD DUP2 DUP2 LT PUSH8 0xFFFFFFFFFFFFFFFF DUP3 GT OR ISZERO PUSH2 0x119C JUMPI PUSH2 0x119B PUSH2 0x1147 JUMP JUMPDEST JUMPDEST DUP1 PUSH1 0x40 MSTORE POP POP POP JUMP JUMPDEST PUSH0 PUSH2 0x11AE PUSH2 0xE7B JUMP JUMPDEST SWAP1 POP PUSH2 0x11BA DUP3 DUP3 PUSH2 0x1174 JUMP JUMPDEST SWAP2 SWAP1 POP JUMP JUMPDEST PUSH0 PUSH8 0xFFFFFFFFFFFFFFFF DUP3 GT ISZERO PUSH2 0x11D9 JUMPI PUSH2 0x11D8 PUSH2 0x1147 JUMP JUMPDEST JUMPDEST PUSH2 0x11E2 DUP3 PUSH2 0xF3B JUMP JUMPDEST SWAP1 POP PUSH1 0x20 DUP2 ADD SWAP1 POP SWAP2 SWAP1 POP JUMP JUMPDEST DUP3 DUP2 DUP4 CALLDATACOPY PUSH0 DUP4 DUP4 ADD MSTORE POP POP POP JUMP JUMPDEST PUSH0 PUSH2 0x120F PUSH2 0x120A DUP5 PUSH2 0x11BF JUMP JUMPDEST PUSH2 0x11A5 JUMP JUMPDEST SWAP1 POP DUP3 DUP2 MSTORE PUSH1 0x20 DUP2 ADD DUP5 DUP5 DUP5 ADD GT ISZERO PUSH2 0x122B JUMPI PUSH2 0x122A PUSH2 0x1143 JUMP JUMPDEST JUMPDEST PUSH2 0x1236 DUP5 DUP3 DUP6 PUSH2 0x11EF JUMP JUMPDEST POP SWAP4 SWAP3 POP POP POP JUMP JUMPDEST PUSH0 DUP3 PUSH1 0x1F DUP4 ADD SLT PUSH2 0x1252 JUMPI PUSH2 0x1251 PUSH2 0x10E2 JUMP JUMPDEST JUMPDEST DUP2 CALLDATALOAD PUSH2 0x1262 DUP5 DUP3 PUSH1 0x20 DUP7 ADD PUSH2 0x11FD JUMP JUMPDEST SWAP2 POP POP SWAP3 SWAP2 POP POP JUMP JUMPDEST PUSH0 DUP1 PUSH0 DUP1 PUSH1 0x60 DUP6 DUP8 SUB SLT ISZERO PUSH2 0x1283 JUMPI PUSH2 0x1282 PUSH2 0xE84 JUMP JUMPDEST JUMPDEST PUSH0 PUSH2 0x1290 DUP8 DUP3 DUP9 ADD PUSH2 0xEAB JUMP JUMPDEST SWAP5 POP POP PUSH1 0x20 DUP6 ADD CALLDATALOAD PUSH8 0xFFFFFFFFFFFFFFFF DUP2 GT ISZERO PUSH2 0x12B1 JUMPI PUSH2 0x12B0 PUSH2 0xE88 JUMP JUMPDEST JUMPDEST PUSH2 0x12BD DUP8 DUP3 DUP9 ADD PUSH2 0x10EE JUMP JUMPDEST SWAP4 POP SWAP4 POP POP PUSH1 0x40 DUP6 ADD CALLDATALOAD PUSH8 0xFFFFFFFFFFFFFFFF DUP2 GT ISZERO PUSH2 0x12E0 JUMPI PUSH2 0x12DF PUSH2 0xE88 JUMP JUMPDEST JUMPDEST PUSH2 0x12EC DUP8 DUP3 DUP9 ADD PUSH2 0x123E JUMP JUMPDEST SWAP2 POP POP SWAP3 SWAP6 SWAP2 SWAP5 POP SWAP3 POP JUMP JUMPDEST PUSH2 0x1301 DUP2 PUSH2 0xE8C JUMP JUMPDEST DUP3 MSTORE POP POP JUMP JUMPDEST PUSH0 PUSH1 0x20 DUP3 ADD SWAP1 POP PUSH2 0x131A PUSH0 DUP4 ADD DUP5 PUSH2 0x12F8 JUMP JUMPDEST SWAP3 SWAP2 POP POP JUMP JUMPDEST PUSH2 0x1329 DUP2 PUSH2 0xFA2 JUMP JUMPDEST DUP3 MSTORE POP POP JUMP JUMPDEST PUSH0 PUSH1 0x20 DUP3 ADD SWAP1 POP PUSH2 0x1342 PUSH0 DUP4 ADD DUP5 PUSH2 0x1320 JUMP JUMPDEST SWAP3 SWAP2 POP POP JUMP JUMPDEST PUSH32 0x4E487B7100000000000000000000000000000000000000000000000000000000 PUSH0 MSTORE PUSH1 0x22 PUSH1 0x4 MSTORE PUSH1 0x24 PUSH0 REVERT JUMPDEST PUSH0 PUSH1 0x2 DUP3 DIV SWAP1 POP PUSH1 0x1 DUP3 AND DUP1 PUSH2 0x138C JUMPI PUSH1 0x7F DUP3 AND SWAP2 POP JUMPDEST PUSH1 0x20 DUP3 LT DUP2 SUB PUSH2 0x139F JUMPI PUSH2 0x139E PUSH2 0x1348 JUMP JUMPDEST JUMPDEST POP SWAP2 SWAP1 POP JUMP JUMPDEST PUSH0 PUSH1 0x40 DUP3 ADD SWAP1 POP PUSH2 0x13B8 PUSH0 DUP4 ADD DUP6 PUSH2 0x1320 JUMP JUMPDEST PUSH2 0x13C5 PUSH1 0x20 DUP4 ADD DUP5 PUSH2 0x12F8 JUMP JUMPDEST SWAP4 SWAP3 POP POP POP JUMP JUMPDEST PUSH32 0x63616E277420726566756E642063757A20646561646C696E65206E6F74206D65 PUSH0 DUP3 ADD MSTORE PUSH32 0x6574000000000000000000000000000000000000000000000000000000000000 PUSH1 0x20 DUP3 ADD MSTORE POP JUMP JUMPDEST PUSH0 PUSH2 0x1426 PUSH1 0x22 DUP4 PUSH2 0xE03 JUMP JUMPDEST SWAP2 POP PUSH2 0x1431 DUP3 PUSH2 0x13CC JUMP JUMPDEST PUSH1 0x40 DUP3 ADD SWAP1 POP SWAP2 SWAP1 POP JUMP JUMPDEST PUSH0 PUSH1 0x20 DUP3 ADD SWAP1 POP DUP2 DUP2 SUB PUSH0 DUP4 ADD MSTORE PUSH2 0x1453 DUP2 PUSH2 0x141A JUMP JUMPDEST SWAP1 POP SWAP2 SWAP1 POP JUMP JUMPDEST PUSH0 PUSH1 0x60 DUP3 ADD SWAP1 POP PUSH2 0x146D PUSH0 DUP4 ADD DUP7 PUSH2 0x1320 JUMP JUMPDEST PUSH2 0x147A PUSH1 0x20 DUP4 ADD DUP6 PUSH2 0x12F8 JUMP JUMPDEST PUSH2 0x1487 PUSH1 0x40 DUP4 ADD DUP5 PUSH2 0x12F8 JUMP JUMPDEST SWAP5 SWAP4 POP POP POP POP JUMP JUMPDEST PUSH32 0x752063616E277420726566756E64200000000000000000000000000000000000 PUSH0 DUP3 ADD MSTORE POP JUMP JUMPDEST PUSH0 PUSH2 0x14C3 PUSH1 0xF DUP4 PUSH2 0xE03 JUMP JUMPDEST SWAP2 POP PUSH2 0x14CE DUP3 PUSH2 0x148F JUMP JUMPDEST PUSH1 0x20 DUP3 ADD SWAP1 POP SWAP2 SWAP1 POP JUMP JUMPDEST PUSH0 PUSH1 0x20 DUP3 ADD SWAP1 POP DUP2 DUP2 SUB PUSH0 DUP4 ADD MSTORE PUSH2 0x14F0 DUP2 PUSH2 0x14B7 JUMP JUMPDEST SWAP1 POP SWAP2 SWAP1 POP JUMP JUMPDEST PUSH32 0x6E6F7420616C6C6F77656420636C61696D696E672063757A20616C6C6F776564 PUSH0 DUP3 ADD MSTORE PUSH32 0x2074696D652069732072656D61696E696E670000000000000000000000000000 PUSH1 0x20 DUP3 ADD MSTORE POP JUMP JUMPDEST PUSH0 PUSH2 0x1551 PUSH1 0x32 DUP4 PUSH2 0xE03 JUMP JUMPDEST SWAP2 POP PUSH2 0x155C DUP3 PUSH2 0x14F7 JUMP JUMPDEST PUSH1 0x40 DUP3 ADD SWAP1 POP SWAP2 SWAP1 POP JUMP JUMPDEST PUSH0 PUSH1 0x20 DUP3 ADD SWAP1 POP DUP2 DUP2 SUB PUSH0 DUP4 ADD MSTORE PUSH2 0x157E DUP2 PUSH2 0x1545 JUMP JUMPDEST SWAP1 POP SWAP2 SWAP1 POP JUMP JUMPDEST PUSH32 0x616D6F756E74206973206E6F7420657175616C20746F20676F616C0000000000 PUSH0 DUP3 ADD MSTORE POP JUMP JUMPDEST PUSH0 PUSH2 0x15B9 PUSH1 0x1B DUP4 PUSH2 0xE03 JUMP JUMPDEST SWAP2 POP PUSH2 0x15C4 DUP3 PUSH2 0x1585 JUMP JUMPDEST PUSH1 0x20 DUP3 ADD SWAP1 POP SWAP2 SWAP1 POP JUMP JUMPDEST PUSH0 PUSH1 0x20 DUP3 ADD SWAP1 POP DUP2 DUP2 SUB PUSH0 DUP4 ADD MSTORE PUSH2 0x15E6 DUP2 PUSH2 0x15AD JUMP JUMPDEST SWAP1 POP SWAP2 SWAP1 POP JUMP JUMPDEST PUSH32 0x4E487B7100000000000000000000000000000000000000000000000000000000 PUSH0 MSTORE PUSH1 0x11 PUSH1 0x4 MSTORE PUSH1 0x24 PUSH0 REVERT JUMPDEST PUSH0 PUSH2 0x1624 DUP3 PUSH2 0xE8C JUMP JUMPDEST SWAP2 POP PUSH2 0x162F DUP4 PUSH2 0xE8C JUMP JUMPDEST SWAP3 POP DUP3 DUP3 SUB SWAP1 POP DUP2 DUP2 GT ISZERO PUSH2 0x1647 JUMPI PUSH2 0x1646 PUSH2 0x15ED JUMP JUMPDEST JUMPDEST SWAP3 SWAP2 POP POP JUMP JUMPDEST PUSH32 0x7472616E73616374696F6E20617265206E6F7420616C6C6F77656420696E2074 PUSH0 DUP3 ADD MSTORE PUSH32 0x6869732074696D65000000000000000000000000000000000000000000000000 PUSH1 0x20 DUP3 ADD MSTORE POP JUMP JUMPDEST PUSH0 PUSH2 0x16A7 PUSH1 0x28 DUP4 PUSH2 0xE03 JUMP JUMPDEST SWAP2 POP PUSH2 0x16B2 DUP3 PUSH2 0x164D JUMP JUMPDEST PUSH1 0x40 DUP3 ADD SWAP1 POP SWAP2 SWAP1 POP JUMP JUMPDEST PUSH0 PUSH1 0x20 DUP3 ADD SWAP1 POP DUP2 DUP2 SUB PUSH0 DUP4 ADD MSTORE PUSH2 0x16D4 DUP2 PUSH2 0x169B JUMP JUMPDEST SWAP1 POP SWAP2 SWAP1 POP JUMP JUMPDEST PUSH0 PUSH2 0x16E5 DUP3 PUSH2 0xE8C JUMP JUMPDEST SWAP2 POP PUSH2 0x16F0 DUP4 PUSH2 0xE8C JUMP JUMPDEST SWAP3 POP DUP3 DUP3 ADD SWAP1 POP DUP1 DUP3 GT ISZERO PUSH2 0x1708 JUMPI PUSH2 0x1707 PUSH2 0x15ED JUMP JUMPDEST JUMPDEST SWAP3 SWAP2 POP POP JUMP JUMPDEST PUSH32 0x7374746165206973206E6F742061637269766500000000000000000000000000 PUSH0 DUP3 ADD MSTORE POP JUMP JUMPDEST PUSH0 PUSH2 0x1742 PUSH1 0x13 DUP4 PUSH2 0xE03 JUMP JUMPDEST SWAP2 POP PUSH2 0x174D DUP3 PUSH2 0x170E JUMP JUMPDEST PUSH1 0x20 DUP3 ADD SWAP1 POP SWAP2 SWAP1 POP JUMP JUMPDEST PUSH0 PUSH1 0x20 DUP3 ADD SWAP1 POP DUP2 DUP2 SUB PUSH0 DUP4 ADD MSTORE PUSH2 0x176F DUP2 PUSH2 0x1736 JUMP JUMPDEST SWAP1 POP SWAP2 SWAP1 POP JUMP JUMPDEST PUSH0 PUSH1 0x60 DUP3 ADD SWAP1 POP PUSH2 0x1789 PUSH0 DUP4 ADD DUP7 PUSH2 0x12F8 JUMP JUMPDEST PUSH2 0x1796 PUSH1 0x20 DUP4 ADD DUP6 PUSH2 0x1320 JUMP JUMPDEST PUSH2 0x17A3 PUSH1 0x40 DUP4 ADD DUP5 PUSH2 0x12F8 JUMP JUMPDEST SWAP5 SWAP4 POP POP POP POP JUMP JUMPDEST PUSH0 DUP1 REVERT JUMPDEST PUSH0 DUP1 REVERT JUMPDEST PUSH0 DUP2 MLOAD SWAP1 POP PUSH2 0x17C1 DUP2 PUSH2 0xE95 JUMP JUMPDEST SWAP3 SWAP2 POP POP JUMP JUMPDEST PUSH0 PUSH2 0x17D9 PUSH2 0x17D4 DUP5 PUSH2 0x11BF JUMP JUMPDEST PUSH2 0x11A5 JUMP JUMPDEST SWAP1 POP DUP3 DUP2 MSTORE PUSH1 0x20 DUP2 ADD DUP5 DUP5 DUP5 ADD GT ISZERO PUSH2 0x17F5 JUMPI PUSH2 0x17F4 PUSH2 0x1143 JUMP JUMPDEST JUMPDEST PUSH2 0x1800 DUP5 DUP3 DUP6 PUSH2 0xF13 JUMP JUMPDEST POP SWAP4 SWAP3 POP POP POP JUMP JUMPDEST PUSH0 DUP3 PUSH1 0x1F DUP4 ADD SLT PUSH2 0x181C JUMPI PUSH2 0x181B PUSH2 0x10E2 JUMP JUMPDEST JUMPDEST DUP2 MLOAD PUSH2 0x182C DUP5 DUP3 PUSH1 0x20 DUP7 ADD PUSH2 0x17C7 JUMP JUMPDEST SWAP2 POP POP SWAP3 SWAP2 POP POP JUMP JUMPDEST PUSH2 0x183E DUP2 PUSH2 0xFA2 JUMP JUMPDEST DUP2 EQ PUSH2 0x1848 JUMPI PUSH0 DUP1 REVERT JUMPDEST POP JUMP JUMPDEST PUSH0 DUP2 MLOAD SWAP1 POP PUSH2 0x1859 DUP2 PUSH2 0x1835 JUMP JUMPDEST SWAP3 SWAP2 POP POP JUMP JUMPDEST PUSH1 0x2 DUP2 LT PUSH2 0x186B JUMPI PUSH0 DUP1 REVERT JUMPDEST POP JUMP JUMPDEST PUSH0 DUP2 MLOAD SWAP1 POP PUSH2 0x187C DUP2 PUSH2 0x185F JUMP JUMPDEST SWAP3 SWAP2 POP POP JUMP JUMPDEST PUSH0 PUSH1 0xC0 DUP3 DUP5 SUB SLT ISZERO PUSH2 0x1897 JUMPI PUSH2 0x1896 PUSH2 0x17AB JUMP JUMPDEST JUMPDEST PUSH2 0x18A1 PUSH1 0xC0 PUSH2 0x11A5 JUMP JUMPDEST SWAP1 POP PUSH0 PUSH2 0x18B0 DUP5 DUP3 DUP6 ADD PUSH2 0x17B3 JUMP JUMPDEST PUSH0 DUP4 ADD MSTORE POP PUSH1 0x20 DUP3 ADD MLOAD PUSH8 0xFFFFFFFFFFFFFFFF DUP2 GT ISZERO PUSH2 0x18D3 JUMPI PUSH2 0x18D2 PUSH2 0x17AF JUMP JUMPDEST JUMPDEST PUSH2 0x18DF DUP5 DUP3 DUP6 ADD PUSH2 0x1808 JUMP JUMPDEST PUSH1 0x20 DUP4 ADD MSTORE POP PUSH1 0x40 DUP3 ADD MLOAD PUSH8 0xFFFFFFFFFFFFFFFF DUP2 GT ISZERO PUSH2 0x1903 JUMPI PUSH2 0x1902 PUSH2 0x17AF JUMP JUMPDEST JUMPDEST PUSH2 0x190F DUP5 DUP3 DUP6 ADD PUSH2 0x1808 JUMP JUMPDEST PUSH1 0x40 DUP4 ADD MSTORE POP PUSH1 0x60 PUSH2 0x1923 DUP5 DUP3 DUP6 ADD PUSH2 0x184B JUMP JUMPDEST PUSH1 0x60 DUP4 ADD MSTORE POP PUSH1 0x80 PUSH2 0x1937 DUP5 DUP3 DUP6 ADD PUSH2 0x17B3 JUMP JUMPDEST PUSH1 0x80 DUP4 ADD MSTORE POP PUSH1 0xA0 PUSH2 0x194B DUP5 DUP3 DUP6 ADD PUSH2 0x186E JUMP JUMPDEST PUSH1 0xA0 DUP4 ADD MSTORE POP SWAP3 SWAP2 POP POP JUMP JUMPDEST PUSH0 PUSH1 0x20 DUP3 DUP5 SUB SLT ISZERO PUSH2 0x196C JUMPI PUSH2 0x196B PUSH2 0xE84 JUMP JUMPDEST JUMPDEST PUSH0 DUP3 ADD MLOAD PUSH8 0xFFFFFFFFFFFFFFFF DUP2 GT ISZERO PUSH2 0x1989 JUMPI PUSH2 0x1988 PUSH2 0xE88 JUMP JUMPDEST JUMPDEST PUSH2 0x1995 DUP5 DUP3 DUP6 ADD PUSH2 0x1882 JUMP JUMPDEST SWAP2 POP POP SWAP3 SWAP2 POP POP JUMP JUMPDEST PUSH32 0x75736572206E6F7420666F756E64000000000000000000000000000000000000 PUSH0 DUP3 ADD MSTORE POP JUMP JUMPDEST PUSH0 PUSH2 0x19D2 PUSH1 0xE DUP4 PUSH2 0xE03 JUMP JUMPDEST SWAP2 POP PUSH2 0x19DD DUP3 PUSH2 0x199E JUMP JUMPDEST PUSH1 0x20 DUP3 ADD SWAP1 POP SWAP2 SWAP1 POP JUMP JUMPDEST PUSH0 PUSH1 0x20 DUP3 ADD SWAP1 POP DUP2 DUP2 SUB PUSH0 DUP4 ADD MSTORE PUSH2 0x19FF DUP2 PUSH2 0x19C6 JUMP JUMPDEST SWAP1 POP SWAP2 SWAP1 POP JUMP JUMPDEST PUSH0 DUP2 SWAP1 POP DUP2 PUSH0 MSTORE PUSH1 0x20 PUSH0 KECCAK256 SWAP1 POP SWAP2 SWAP1 POP JUMP JUMPDEST PUSH0 PUSH1 0x20 PUSH1 0x1F DUP4 ADD DIV SWAP1 POP SWAP2 SWAP1 POP JUMP JUMPDEST PUSH0 DUP3 DUP3 SHL SWAP1 POP SWAP3 SWAP2 POP POP JUMP JUMPDEST PUSH0 PUSH1 0x8 DUP4 MUL PUSH2 0x1A62 PUSH32 0xFFFFFFFFFFFFFFFFFFFFFFFFFFFFFFFFFFFFFFFFFFFFFFFFFFFFFFFFFFFFFFFF DUP3 PUSH2 0x1A27 JUMP JUMPDEST PUSH2 0x1A6C DUP7 DUP4 PUSH2 0x1A27 JUMP JUMPDEST SWAP6 POP DUP1 NOT DUP5 AND SWAP4 POP DUP1 DUP7 AND DUP5 OR SWAP3 POP POP POP SWAP4 SWAP3 POP POP POP JUMP JUMPDEST PUSH0 DUP2 SWAP1 POP SWAP2 SWAP1 POP JUMP JUMPDEST PUSH0 PUSH2 0x1AA7 PUSH2 0x1AA2 PUSH2 0x1A9D DUP5 PUSH2 0xE8C JUMP JUMPDEST PUSH2 0x1A84 JUMP JUMPDEST PUSH2 0xE8C JUMP JUMPDEST SWAP1 POP SWAP2 SWAP1 POP JUMP JUMPDEST PUSH0 DUP2 SWAP1 POP SWAP2 SWAP1 POP JUMP JUMPDEST PUSH2 0x1AC0 DUP4 PUSH2 0x1A8D JUMP JUMPDEST PUSH2 0x1AD4 PUSH2 0x1ACC DUP3 PUSH2 0x1AAE JUMP JUMPDEST DUP5 DUP5 SLOAD PUSH2 0x1A33 JUMP JUMPDEST DUP3 SSTORE POP POP POP POP JUMP JUMPDEST PUSH0 SWAP1 JUMP JUMPDEST PUSH2 0x1AE8 PUSH2 0x1ADC JUMP JUMPDEST PUSH2 0x1AF3 DUP2 DUP5 DUP5 PUSH2 0x1AB7 JUMP JUMPDEST POP POP POP JUMP JUMPDEST JUMPDEST DUP2 DUP2 LT ISZERO PUSH2 0x1B16 JUMPI PUSH2 0x1B0B PUSH0 DUP3 PUSH2 0x1AE0 JUMP JUMPDEST PUSH1 0x1 DUP2 ADD SWAP1 POP PUSH2 0x1AF9 JUMP JUMPDEST POP POP JUMP JUMPDEST PUSH1 0x1F DUP3 GT ISZERO PUSH2 0x1B5B JUMPI PUSH2 0x1B2C DUP2 PUSH2 0x1A06 JUMP JUMPDEST PUSH2 0x1B35 DUP5 PUSH2 0x1A18 JUMP JUMPDEST DUP2 ADD PUSH1 0x20 DUP6 LT ISZERO PUSH2 0x1B44 JUMPI DUP2 SWAP1 POP JUMPDEST PUSH2 0x1B58 PUSH2 0x1B50 DUP6 PUSH2 0x1A18 JUMP JUMPDEST DUP4 ADD DUP3 PUSH2 0x1AF8 JUMP JUMPDEST POP POP JUMPDEST POP POP POP JUMP JUMPDEST PUSH0 DUP3 DUP3 SHR SWAP1 POP SWAP3 SWAP2 POP POP JUMP JUMPDEST PUSH0 PUSH2 0x1B7B PUSH0 NOT DUP5 PUSH1 0x8 MUL PUSH2 0x1B60 JUMP JUMPDEST NOT DUP1 DUP4 AND SWAP2 POP POP SWAP3 SWAP2 POP POP JUMP JUMPDEST PUSH0 PUSH2 0x1B93 DUP4 DUP4 PUSH2 0x1B6C JUMP JUMPDEST SWAP2 POP DUP3 PUSH1 0x2 MUL DUP3 OR SWAP1 POP SWAP3 SWAP2 POP POP JUMP JUMPDEST PUSH2 0x1BAC DUP3 PUSH2 0xEF9 JUMP JUMPDEST PUSH8 0xFFFFFFFFFFFFFFFF DUP2 GT ISZERO PUSH2 0x1BC5 JUMPI PUSH2 0x1BC4 PUSH2 0x1147 JUMP JUMPDEST JUMPDEST PUSH2 0x1BCF DUP3 SLOAD PUSH2 0x1375 JUMP JUMPDEST PUSH2 0x1BDA DUP3 DUP3 DUP6 PUSH2 0x1B1A JUMP JUMPDEST PUSH0 PUSH1 0x20 SWAP1 POP PUSH1 0x1F DUP4 GT PUSH1 0x1 DUP2 EQ PUSH2 0x1C0B JUMPI PUSH0 DUP5 ISZERO PUSH2 0x1BF9 JUMPI DUP3 DUP8 ADD MLOAD SWAP1 POP JUMPDEST PUSH2 0x1C03 DUP6 DUP3 PUSH2 0x1B88 JUMP JUMPDEST DUP7 SSTORE POP PUSH2 0x1C6A JUMP JUMPDEST PUSH1 0x1F NOT DUP5 AND PUSH2 0x1C19 DUP7 PUSH2 0x1A06 JUMP JUMPDEST PUSH0 JUMPDEST DUP3 DUP2 LT ISZERO PUSH2 0x1C40 JUMPI DUP5 DUP10 ADD MLOAD DUP3 SSTORE PUSH1 0x1 DUP3 ADD SWAP2 POP PUSH1 0x20 DUP6 ADD SWAP5 POP PUSH1 0x20 DUP2 ADD SWAP1 POP PUSH2 0x1C1B JUMP JUMPDEST DUP7 DUP4 LT ISZERO PUSH2 0x1C5D JUMPI DUP5 DUP10 ADD MLOAD PUSH2 0x1C59 PUSH1 0x1F DUP10 AND DUP3 PUSH2 0x1B6C JUMP JUMPDEST DUP4 SSTORE POP JUMPDEST PUSH1 0x1 PUSH1 0x2 DUP9 MUL ADD DUP9 SSTORE POP POP POP JUMPDEST POP POP POP POP POP POP JUMP INVALID LOG2 PUSH5 0x6970667358 0x22 SLT KECCAK256 0x2B PUSH12 0xACFD2BCA0C4086695B85A994 0xAE 0xBA 0xC2 0x2B 0x2D 0xDD 0xE7 SDIV 0xD7 PUSH30 0x9E6A4CF3A54A7B5F64736F6C634300081700330000000000000000000000 "
				},
				"gasEstimates": {
					"creation": {
						"codeDepositCost": "1467200",
						"executionCost": "infinite",
						"totalCost": "infinite"
					},
					"external": {
						"campaignowner(uint256)": "2915",
						"claim(uint256)": "infinite",
						"completebyadmin(uint256)": "infinite",
						"contract_owner()": "2505",
						"contribution(uint256)": "infinite",
						"creation(uint256,string,string)": "infinite",
						"endtime()": "2492",
						"getdetails(uint256)": "infinite",
						"refund(uint256)": "infinite",
						"show_remainingamount(uint256)": "infinite"
					},
					"internal": {
						"add_user(uint256,string calldata,string memory)": "infinite"
					}
				},
				"methodIdentifiers": {
					"campaignowner(uint256)": "92c93aa0",
					"claim(uint256)": "379607f5",
					"completebyadmin(uint256)": "f1ca8bff",
					"contract_owner()": "384f58eb",
					"contribution(uint256)": "e8709c40",
					"creation(uint256,string,string)": "15411001",
					"endtime()": "2ca126f8",
					"getdetails(uint256)": "10445b2b",
					"refund(uint256)": "278ecde1",
					"show_remainingamount(uint256)": "3e608afa"
				}
			},
			"storageLayout": {
				"storage": [
					{
						"astId": 44,
						"contract": "contracts/DAPP_task.sol:DAPP",
						"label": "contract_owner",
						"offset": 0,
						"slot": "0",
						"type": "t_address"
					},
					{
						"astId": 50,
						"contract": "contracts/DAPP_task.sol:DAPP",
						"label": "endtime",
						"offset": 0,
						"slot": "1",
						"type": "t_uint256"
					},
					{
						"astId": 121,
						"contract": "contracts/DAPP_task.sol:DAPP",
						"label": "fund",
						"offset": 0,
						"slot": "2",
						"type": "t_mapping(t_uint256,t_struct(funding)116_storage)"
					}
				],
				"types": {
					"t_address": {
						"encoding": "inplace",
						"label": "address",
						"numberOfBytes": "20"
					},
					"t_enum(checkstate)4": {
						"encoding": "inplace",
						"label": "enum DAPP.checkstate",
						"numberOfBytes": "1"
					},
					"t_mapping(t_uint256,t_struct(funding)116_storage)": {
						"encoding": "mapping",
						"key": "t_uint256",
						"label": "mapping(uint256 => struct DAPP.funding)",
						"numberOfBytes": "32",
						"value": "t_struct(funding)116_storage"
					},
					"t_string_storage": {
						"encoding": "bytes",
						"label": "string",
						"numberOfBytes": "32"
					},
					"t_struct(funding)116_storage": {
						"encoding": "inplace",
						"label": "struct DAPP.funding",
						"members": [
							{
								"astId": 104,
								"contract": "contracts/DAPP_task.sol:DAPP",
								"label": "id",
								"offset": 0,
								"slot": "0",
								"type": "t_uint256"
							},
							{
								"astId": 106,
								"contract": "contracts/DAPP_task.sol:DAPP",
								"label": "name",
								"offset": 0,
								"slot": "1",
								"type": "t_string_storage"
							},
							{
								"astId": 108,
								"contract": "contracts/DAPP_task.sol:DAPP",
								"label": "discription",
								"offset": 0,
								"slot": "2",
								"type": "t_string_storage"
							},
							{
								"astId": 110,
								"contract": "contracts/DAPP_task.sol:DAPP",
								"label": "campowner",
								"offset": 0,
								"slot": "3",
								"type": "t_address"
							},
							{
								"astId": 112,
								"contract": "contracts/DAPP_task.sol:DAPP",
								"label": "raiseamount",
								"offset": 0,
								"slot": "4",
								"type": "t_uint256"
							},
							{
								"astId": 115,
								"contract": "contracts/DAPP_task.sol:DAPP",
								"label": "state",
								"offset": 0,
								"slot": "5",
								"type": "t_enum(checkstate)4"
							}
						],
						"numberOfBytes": "192"
					},
					"t_uint256": {
						"encoding": "inplace",
						"label": "uint256",
						"numberOfBytes": "32"
					}
				}
			},
			"userdoc": {
				"kind": "user",
				"methods": {},
				"version": 1
			}
		}
	}
}