{
	"contracts/dummytask.sol": {
		"FundraisingPlatform": {
			"abi": [
				{
					"inputs": [
						{
							"internalType": "uint256",
							"name": "_deadlineDuration",
							"type": "uint256"
						}
					],
					"stateMutability": "nonpayable",
					"type": "constructor"
				},
				{
					"anonymous": false,
					"inputs": [
						{
							"indexed": false,
							"internalType": "uint256",
							"name": "campaignId",
							"type": "uint256"
						}
					],
					"name": "CampaignCompleted",
					"type": "event"
				},
				{
					"anonymous": false,
					"inputs": [
						{
							"indexed": false,
							"internalType": "uint256",
							"name": "campaignId",
							"type": "uint256"
						},
						{
							"indexed": true,
							"internalType": "address",
							"name": "owner",
							"type": "address"
						},
						{
							"indexed": false,
							"internalType": "string",
							"name": "name",
							"type": "string"
						},
						{
							"indexed": false,
							"internalType": "uint256",
							"name": "goal",
							"type": "uint256"
						},
						{
							"indexed": false,
							"internalType": "uint256",
							"name": "deadline",
							"type": "uint256"
						}
					],
					"name": "CampaignCreated",
					"type": "event"
				},
				{
					"anonymous": false,
					"inputs": [
						{
							"indexed": false,
							"internalType": "uint256",
							"name": "campaignId",
							"type": "uint256"
						},
						{
							"indexed": true,
							"internalType": "address",
							"name": "contributor",
							"type": "address"
						},
						{
							"indexed": false,
							"internalType": "uint256",
							"name": "amount",
							"type": "uint256"
						}
					],
					"name": "FundsContributed",
					"type": "event"
				},
				{
					"anonymous": false,
					"inputs": [
						{
							"indexed": false,
							"internalType": "uint256",
							"name": "campaignId",
							"type": "uint256"
						},
						{
							"indexed": true,
							"internalType": "address",
							"name": "contributor",
							"type": "address"
						},
						{
							"indexed": false,
							"internalType": "uint256",
							"name": "amount",
							"type": "uint256"
						}
					],
					"name": "RefundClaimed",
					"type": "event"
				},
				{
					"inputs": [],
					"name": "admin",
					"outputs": [
						{
							"internalType": "address",
							"name": "",
							"type": "address"
						}
					],
					"stateMutability": "view",
					"type": "function"
				},
				{
					"inputs": [
						{
							"internalType": "uint256",
							"name": "",
							"type": "uint256"
						}
					],
					"name": "campaigns",
					"outputs": [
						{
							"internalType": "address",
							"name": "owner",
							"type": "address"
						},
						{
							"internalType": "string",
							"name": "name",
							"type": "string"
						},
						{
							"internalType": "string",
							"name": "description",
							"type": "string"
						},
						{
							"internalType": "uint256",
							"name": "goal",
							"type": "uint256"
						},
						{
							"internalType": "uint256",
							"name": "raisedAmount",
							"type": "uint256"
						},
						{
							"internalType": "uint256",
							"name": "deadline",
							"type": "uint256"
						},
						{
							"internalType": "enum FundraisingPlatform.CampaignStatus",
							"name": "status",
							"type": "uint8"
						}
					],
					"stateMutability": "view",
					"type": "function"
				},
				{
					"inputs": [
						{
							"internalType": "uint256",
							"name": "_campaignId",
							"type": "uint256"
						}
					],
					"name": "claimRefund",
					"outputs": [],
					"stateMutability": "nonpayable",
					"type": "function"
				},
				{
					"inputs": [
						{
							"internalType": "uint256",
							"name": "_campaignId",
							"type": "uint256"
						}
					],
					"name": "completeCampaign",
					"outputs": [],
					"stateMutability": "nonpayable",
					"type": "function"
				},
				{
					"inputs": [
						{
							"internalType": "uint256",
							"name": "_campaignId",
							"type": "uint256"
						}
					],
					"name": "contributeFunds",
					"outputs": [],
					"stateMutability": "payable",
					"type": "function"
				},
				{
					"inputs": [
						{
							"internalType": "string",
							"name": "_name",
							"type": "string"
						},
						{
							"internalType": "string",
							"name": "_description",
							"type": "string"
						},
						{
							"internalType": "uint256",
							"name": "_goal",
							"type": "uint256"
						}
					],
					"name": "createCampaign",
					"outputs": [],
					"stateMutability": "nonpayable",
					"type": "function"
				},
				{
					"inputs": [],
					"name": "deadlineDuration",
					"outputs": [
						{
							"internalType": "uint256",
							"name": "",
							"type": "uint256"
						}
					],
					"stateMutability": "view",
					"type": "function"
				},
				{
					"inputs": [],
					"name": "nextCampaignId",
					"outputs": [
						{
							"internalType": "uint256",
							"name": "",
							"type": "uint256"
						}
					],
					"stateMutability": "view",
					"type": "function"
				}
			],
			"devdoc": {
				"kind": "dev",
				"methods": {},
				"version": 1
			},
			"evm": {
				"assembly": "    /* \"contracts/dummytask.sol\":62:3985  contract FundraisingPlatform {... */\n  mstore(0x40, 0x80)\n    /* \"contracts/dummytask.sol\":1754:1877  constructor(uint256 _deadlineDuration) {... */\n  callvalue\n  dup1\n  iszero\n  tag_1\n  jumpi\n  0x00\n  dup1\n  revert\ntag_1:\n  pop\n  mload(0x40)\n  sub(codesize, bytecodeSize)\n  dup1\n  bytecodeSize\n  dup4\n  codecopy\n  dup2\n  dup2\n  add\n  0x40\n  mstore\n  dup2\n  add\n  swap1\n  tag_2\n  swap2\n  swap1\n  tag_3\n  jump\t// in\ntag_2:\n    /* \"contracts/dummytask.sol\":1812:1822  msg.sender */\n  caller\n    /* \"contracts/dummytask.sol\":1804:1809  admin */\n  0x00\n  dup1\n    /* \"contracts/dummytask.sol\":1804:1822  admin = msg.sender */\n  0x0100\n  exp\n  dup2\n  sload\n  dup2\n  0xffffffffffffffffffffffffffffffffffffffff\n  mul\n  not\n  and\n  swap1\n  dup4\n  0xffffffffffffffffffffffffffffffffffffffff\n  and\n  mul\n  or\n  swap1\n  sstore\n  pop\n    /* \"contracts/dummytask.sol\":1852:1869  _deadlineDuration */\n  dup1\n    /* \"contracts/dummytask.sol\":1833:1849  deadlineDuration */\n  0x01\n    /* \"contracts/dummytask.sol\":1833:1869  deadlineDuration = _deadlineDuration */\n  dup2\n  swap1\n  sstore\n  pop\n    /* \"contracts/dummytask.sol\":1754:1877  constructor(uint256 _deadlineDuration) {... */\n  pop\n    /* \"contracts/dummytask.sol\":62:3985  contract FundraisingPlatform {... */\n  jump(tag_6)\n    /* \"#utility.yul\":88:205   */\ntag_8:\n    /* \"#utility.yul\":197:198   */\n  0x00\n    /* \"#utility.yul\":194:195   */\n  dup1\n    /* \"#utility.yul\":187:199   */\n  revert\n    /* \"#utility.yul\":334:411   */\ntag_10:\n    /* \"#utility.yul\":371:378   */\n  0x00\n    /* \"#utility.yul\":400:405   */\n  dup2\n    /* \"#utility.yul\":389:405   */\n  swap1\n  pop\n    /* \"#utility.yul\":334:411   */\n  swap2\n  swap1\n  pop\n  jump\t// out\n    /* \"#utility.yul\":417:539   */\ntag_11:\n    /* \"#utility.yul\":490:514   */\n  tag_19\n    /* \"#utility.yul\":508:513   */\n  dup2\n    /* \"#utility.yul\":490:514   */\n  tag_10\n  jump\t// in\ntag_19:\n    /* \"#utility.yul\":483:488   */\n  dup2\n    /* \"#utility.yul\":480:515   */\n  eq\n    /* \"#utility.yul\":470:533   */\n  tag_20\n  jumpi\n    /* \"#utility.yul\":529:530   */\n  0x00\n    /* \"#utility.yul\":526:527   */\n  dup1\n    /* \"#utility.yul\":519:531   */\n  revert\n    /* \"#utility.yul\":470:533   */\ntag_20:\n    /* \"#utility.yul\":417:539   */\n  pop\n  jump\t// out\n    /* \"#utility.yul\":545:688   */\ntag_12:\n    /* \"#utility.yul\":602:607   */\n  0x00\n    /* \"#utility.yul\":633:639   */\n  dup2\n    /* \"#utility.yul\":627:640   */\n  mload\n    /* \"#utility.yul\":618:640   */\n  swap1\n  pop\n    /* \"#utility.yul\":649:682   */\n  tag_22\n    /* \"#utility.yul\":676:681   */\n  dup2\n    /* \"#utility.yul\":649:682   */\n  tag_11\n  jump\t// in\ntag_22:\n    /* \"#utility.yul\":545:688   */\n  swap3\n  swap2\n  pop\n  pop\n  jump\t// out\n    /* \"#utility.yul\":694:1045   */\ntag_3:\n    /* \"#utility.yul\":764:770   */\n  0x00\n    /* \"#utility.yul\":813:815   */\n  0x20\n    /* \"#utility.yul\":801:810   */\n  dup3\n    /* \"#utility.yul\":792:799   */\n  dup5\n    /* \"#utility.yul\":788:811   */\n  sub\n    /* \"#utility.yul\":784:816   */\n  slt\n    /* \"#utility.yul\":781:900   */\n  iszero\n  tag_24\n  jumpi\n    /* \"#utility.yul\":819:898   */\n  tag_25\n  tag_8\n  jump\t// in\ntag_25:\n    /* \"#utility.yul\":781:900   */\ntag_24:\n    /* \"#utility.yul\":939:940   */\n  0x00\n    /* \"#utility.yul\":964:1028   */\n  tag_26\n    /* \"#utility.yul\":1020:1027   */\n  dup5\n    /* \"#utility.yul\":1011:1017   */\n  dup3\n    /* \"#utility.yul\":1000:1009   */\n  dup6\n    /* \"#utility.yul\":996:1018   */\n  add\n    /* \"#utility.yul\":964:1028   */\n  tag_12\n  jump\t// in\ntag_26:\n    /* \"#utility.yul\":954:1028   */\n  swap2\n  pop\n    /* \"#utility.yul\":910:1038   */\n  pop\n    /* \"#utility.yul\":694:1045   */\n  swap3\n  swap2\n  pop\n  pop\n  jump\t// out\n    /* \"contracts/dummytask.sol\":62:3985  contract FundraisingPlatform {... */\ntag_6:\n  dataSize(sub_0)\n  dup1\n  dataOffset(sub_0)\n  0x00\n  codecopy\n  0x00\n  return\nstop\n\nsub_0: assembly {\n        /* \"contracts/dummytask.sol\":62:3985  contract FundraisingPlatform {... */\n      mstore(0x40, 0x80)\n      jumpi(tag_1, lt(calldatasize, 0x04))\n      shr(0xe0, calldataload(0x00))\n      dup1\n      0x9553f180\n      gt\n      tag_10\n      jumpi\n      dup1\n      0x9553f180\n      eq\n      tag_6\n      jumpi\n      dup1\n      0xba71ae9f\n      eq\n      tag_7\n      jumpi\n      dup1\n      0xf851a440\n      eq\n      tag_8\n      jumpi\n      dup1\n      0xffa56a57\n      eq\n      tag_9\n      jumpi\n      jump(tag_1)\n    tag_10:\n      dup1\n      0x141961bc\n      eq\n      tag_2\n      jumpi\n      dup1\n      0x48a05132\n      eq\n      tag_3\n      jumpi\n      dup1\n      0x5b7baf64\n      eq\n      tag_4\n      jumpi\n      dup1\n      0x7903a756\n      eq\n      tag_5\n      jumpi\n    tag_1:\n      0x00\n      dup1\n      revert\n        /* \"contracts/dummytask.sol\":458:503  mapping(uint256 => Campaign) public campaigns */\n    tag_2:\n      callvalue\n      dup1\n      iszero\n      tag_11\n      jumpi\n      0x00\n      dup1\n      revert\n    tag_11:\n      pop\n      tag_12\n      0x04\n      dup1\n      calldatasize\n      sub\n      dup2\n      add\n      swap1\n      tag_13\n      swap2\n      swap1\n      tag_14\n      jump\t// in\n    tag_13:\n      tag_15\n      jump\t// in\n    tag_12:\n      mload(0x40)\n      tag_16\n      swap8\n      swap7\n      swap6\n      swap5\n      swap4\n      swap3\n      swap2\n      swap1\n      tag_17\n      jump\t// in\n    tag_16:\n      mload(0x40)\n      dup1\n      swap2\n      sub\n      swap1\n      return\n        /* \"contracts/dummytask.sol\":2467:3040  function contributeFunds(uint256 _campaignId) external payable whenActive(_campaignId) {... */\n    tag_3:\n      tag_18\n      0x04\n      dup1\n      calldatasize\n      sub\n      dup2\n      add\n      swap1\n      tag_19\n      swap2\n      swap1\n      tag_14\n      jump\t// in\n    tag_19:\n      tag_20\n      jump\t// in\n    tag_18:\n      stop\n        /* \"contracts/dummytask.sol\":3048:3501  function claimRefund(uint256 _campaignId) external whenRefundable(_campaignId) {... */\n    tag_4:\n      callvalue\n      dup1\n      iszero\n      tag_21\n      jumpi\n      0x00\n      dup1\n      revert\n    tag_21:\n      pop\n      tag_22\n      0x04\n      dup1\n      calldatasize\n      sub\n      dup2\n      add\n      swap1\n      tag_23\n      swap2\n      swap1\n      tag_14\n      jump\t// in\n    tag_23:\n      tag_24\n      jump\t// in\n    tag_22:\n      stop\n        /* \"contracts/dummytask.sol\":510:539  uint256 public nextCampaignId */\n    tag_5:\n      callvalue\n      dup1\n      iszero\n      tag_25\n      jumpi\n      0x00\n      dup1\n      revert\n    tag_25:\n      pop\n      tag_26\n      tag_27\n      jump\t// in\n    tag_26:\n      mload(0x40)\n      tag_28\n      swap2\n      swap1\n      tag_29\n      jump\t// in\n    tag_28:\n      mload(0x40)\n      dup1\n      swap2\n      sub\n      swap1\n      return\n        /* \"contracts/dummytask.sol\":3509:3982  function completeCampaign(uint256 _campaignId) external onlyAdmin whenCompleted(_campaignId) {... */\n    tag_6:\n      callvalue\n      dup1\n      iszero\n      tag_30\n      jumpi\n      0x00\n      dup1\n      revert\n    tag_30:\n      pop\n      tag_31\n      0x04\n      dup1\n      calldatasize\n      sub\n      dup2\n      add\n      swap1\n      tag_32\n      swap2\n      swap1\n      tag_14\n      jump\t// in\n    tag_32:\n      tag_33\n      jump\t// in\n    tag_31:\n      stop\n        /* \"contracts/dummytask.sol\":125:156  uint256 public deadlineDuration */\n    tag_7:\n      callvalue\n      dup1\n      iszero\n      tag_34\n      jumpi\n      0x00\n      dup1\n      revert\n    tag_34:\n      pop\n      tag_35\n      tag_36\n      jump\t// in\n    tag_35:\n      mload(0x40)\n      tag_37\n      swap2\n      swap1\n      tag_29\n      jump\t// in\n    tag_37:\n      mload(0x40)\n      dup1\n      swap2\n      sub\n      swap1\n      return\n        /* \"contracts/dummytask.sol\":98:118  address public admin */\n    tag_8:\n      callvalue\n      dup1\n      iszero\n      tag_38\n      jumpi\n      0x00\n      dup1\n      revert\n    tag_38:\n      pop\n      tag_39\n      tag_40\n      jump\t// in\n    tag_39:\n      mload(0x40)\n      tag_41\n      swap2\n      swap1\n      tag_42\n      jump\t// in\n    tag_41:\n      mload(0x40)\n      dup1\n      swap2\n      sub\n      swap1\n      return\n        /* \"contracts/dummytask.sol\":1885:2459  function createCampaign(string memory _name, string memory _description, uint256 _goal) external {... */\n    tag_9:\n      callvalue\n      dup1\n      iszero\n      tag_43\n      jumpi\n      0x00\n      dup1\n      revert\n    tag_43:\n      pop\n      tag_44\n      0x04\n      dup1\n      calldatasize\n      sub\n      dup2\n      add\n      swap1\n      tag_45\n      swap2\n      swap1\n      tag_46\n      jump\t// in\n    tag_45:\n      tag_47\n      jump\t// in\n    tag_44:\n      stop\n        /* \"contracts/dummytask.sol\":458:503  mapping(uint256 => Campaign) public campaigns */\n    tag_15:\n      mstore(0x20, 0x02)\n      dup1\n      0x00\n      mstore\n      keccak256(0x00, 0x40)\n      0x00\n      swap2\n      pop\n      swap1\n      pop\n      dup1\n      0x00\n      add\n      0x00\n      swap1\n      sload\n      swap1\n      0x0100\n      exp\n      swap1\n      div\n      0xffffffffffffffffffffffffffffffffffffffff\n      and\n      swap1\n      dup1\n      0x01\n      add\n      dup1\n      sload\n      tag_48\n      swap1\n      tag_49\n      jump\t// in\n    tag_48:\n      dup1\n      0x1f\n      add\n      0x20\n      dup1\n      swap2\n      div\n      mul\n      0x20\n      add\n      mload(0x40)\n      swap1\n      dup2\n      add\n      0x40\n      mstore\n      dup1\n      swap3\n      swap2\n      swap1\n      dup2\n      dup2\n      mstore\n      0x20\n      add\n      dup3\n      dup1\n      sload\n      tag_50\n      swap1\n      tag_49\n      jump\t// in\n    tag_50:\n      dup1\n      iszero\n      tag_51\n      jumpi\n      dup1\n      0x1f\n      lt\n      tag_52\n      jumpi\n      0x0100\n      dup1\n      dup4\n      sload\n      div\n      mul\n      dup4\n      mstore\n      swap2\n      0x20\n      add\n      swap2\n      jump(tag_51)\n    tag_52:\n      dup3\n      add\n      swap2\n      swap1\n      0x00\n      mstore\n      keccak256(0x00, 0x20)\n      swap1\n    tag_53:\n      dup2\n      sload\n      dup2\n      mstore\n      swap1\n      0x01\n      add\n      swap1\n      0x20\n      add\n      dup1\n      dup4\n      gt\n      tag_53\n      jumpi\n      dup3\n      swap1\n      sub\n      0x1f\n      and\n      dup3\n      add\n      swap2\n    tag_51:\n      pop\n      pop\n      pop\n      pop\n      pop\n      swap1\n      dup1\n      0x02\n      add\n      dup1\n      sload\n      tag_54\n      swap1\n      tag_49\n      jump\t// in\n    tag_54:\n      dup1\n      0x1f\n      add\n      0x20\n      dup1\n      swap2\n      div\n      mul\n      0x20\n      add\n      mload(0x40)\n      swap1\n      dup2\n      add\n      0x40\n      mstore\n      dup1\n      swap3\n      swap2\n      swap1\n      dup2\n      dup2\n      mstore\n      0x20\n      add\n      dup3\n      dup1\n      sload\n      tag_55\n      swap1\n      tag_49\n      jump\t// in\n    tag_55:\n      dup1\n      iszero\n      tag_56\n      jumpi\n      dup1\n      0x1f\n      lt\n      tag_57\n      jumpi\n      0x0100\n      dup1\n      dup4\n      sload\n      div\n      mul\n      dup4\n      mstore\n      swap2\n      0x20\n      add\n      swap2\n      jump(tag_56)\n    tag_57:\n      dup3\n      add\n      swap2\n      swap1\n      0x00\n      mstore\n      keccak256(0x00, 0x20)\n      swap1\n    tag_58:\n      dup2\n      sload\n      dup2\n      mstore\n      swap1\n      0x01\n      add\n      swap1\n      0x20\n      add\n      dup1\n      dup4\n      gt\n      tag_58\n      jumpi\n      dup3\n      swap1\n      sub\n      0x1f\n      and\n      dup3\n      add\n      swap2\n    tag_56:\n      pop\n      pop\n      pop\n      pop\n      pop\n      swap1\n      dup1\n      0x03\n      add\n      sload\n      swap1\n      dup1\n      0x04\n      add\n      sload\n      swap1\n      dup1\n      0x05\n      add\n      sload\n      swap1\n      dup1\n      0x06\n      add\n      0x00\n      swap1\n      sload\n      swap1\n      0x0100\n      exp\n      swap1\n      div\n      0xff\n      and\n      swap1\n      pop\n      dup8\n      jump\t// out\n        /* \"contracts/dummytask.sol\":2467:3040  function contributeFunds(uint256 _campaignId) external payable whenActive(_campaignId) {... */\n    tag_20:\n        /* \"contracts/dummytask.sol\":2541:2552  _campaignId */\n      dup1\n        /* \"contracts/dummytask.sol\":1319:1340  CampaignStatus.Active */\n      0x00\n        /* \"contracts/dummytask.sol\":1286:1340  campaigns[_campaignId].status == CampaignStatus.Active */\n      0x02\n      dup2\n      gt\n      iszero\n      tag_60\n      jumpi\n      tag_61\n      tag_62\n      jump\t// in\n    tag_61:\n    tag_60:\n        /* \"contracts/dummytask.sol\":1286:1295  campaigns */\n      0x02\n        /* \"contracts/dummytask.sol\":1286:1308  campaigns[_campaignId] */\n      0x00\n        /* \"contracts/dummytask.sol\":1296:1307  _campaignId */\n      dup4\n        /* \"contracts/dummytask.sol\":1286:1308  campaigns[_campaignId] */\n      dup2\n      mstore\n      0x20\n      add\n      swap1\n      dup2\n      mstore\n      0x20\n      add\n      0x00\n      keccak256\n        /* \"contracts/dummytask.sol\":1286:1315  campaigns[_campaignId].status */\n      0x06\n      add\n      0x00\n      swap1\n      sload\n      swap1\n      0x0100\n      exp\n      swap1\n      div\n      0xff\n      and\n        /* \"contracts/dummytask.sol\":1286:1340  campaigns[_campaignId].status == CampaignStatus.Active */\n      0x02\n      dup2\n      gt\n      iszero\n      tag_63\n      jumpi\n      tag_64\n      tag_62\n      jump\t// in\n    tag_64:\n    tag_63:\n      eq\n        /* \"contracts/dummytask.sol\":1278:1367  require(campaigns[_campaignId].status == CampaignStatus.Active, \"Campaign is not active\") */\n      tag_65\n      jumpi\n      mload(0x40)\n      0x08c379a000000000000000000000000000000000000000000000000000000000\n      dup2\n      mstore\n      0x04\n      add\n      tag_66\n      swap1\n      tag_67\n      jump\t// in\n    tag_66:\n      mload(0x40)\n      dup1\n      swap2\n      sub\n      swap1\n      revert\n    tag_65:\n        /* \"contracts/dummytask.sol\":2585:2586  0 */\n      0x00\n        /* \"contracts/dummytask.sol\":2573:2582  msg.value */\n      callvalue\n        /* \"contracts/dummytask.sol\":2573:2586  msg.value > 0 */\n      gt\n        /* \"contracts/dummytask.sol\":2565:2633  require(msg.value > 0, \"Contribution amount must be greater than 0\") */\n      tag_69\n      jumpi\n      mload(0x40)\n      0x08c379a000000000000000000000000000000000000000000000000000000000\n      dup2\n      mstore\n      0x04\n      add\n      tag_70\n      swap1\n      tag_71\n      jump\t// in\n    tag_70:\n      mload(0x40)\n      dup1\n      swap2\n      sub\n      swap1\n      revert\n    tag_69:\n        /* \"contracts/dummytask.sol\":2685:2694  msg.value */\n      callvalue\n        /* \"contracts/dummytask.sol\":2646:2655  campaigns */\n      0x02\n        /* \"contracts/dummytask.sol\":2646:2668  campaigns[_campaignId] */\n      0x00\n        /* \"contracts/dummytask.sol\":2656:2667  _campaignId */\n      dup5\n        /* \"contracts/dummytask.sol\":2646:2668  campaigns[_campaignId] */\n      dup2\n      mstore\n      0x20\n      add\n      swap1\n      dup2\n      mstore\n      0x20\n      add\n      0x00\n      keccak256\n        /* \"contracts/dummytask.sol\":2646:2681  campaigns[_campaignId].raisedAmount */\n      0x04\n      add\n      0x00\n        /* \"contracts/dummytask.sol\":2646:2694  campaigns[_campaignId].raisedAmount += msg.value */\n      dup3\n      dup3\n      sload\n      tag_72\n      swap2\n      swap1\n      tag_73\n      jump\t// in\n    tag_72:\n      swap3\n      pop\n      pop\n      dup2\n      swap1\n      sstore\n      pop\n        /* \"contracts/dummytask.sol\":2742:2752  msg.sender */\n      caller\n        /* \"contracts/dummytask.sol\":2712:2764  FundsContributed(_campaignId, msg.sender, msg.value) */\n      0xffffffffffffffffffffffffffffffffffffffff\n      and\n      0xb5c5ea1a898780d7e2fa7e4b8ec6d8ba4fdcf3be360bb5e76ae40e4769053a19\n        /* \"contracts/dummytask.sol\":2729:2740  _campaignId */\n      dup4\n        /* \"contracts/dummytask.sol\":2754:2763  msg.value */\n      callvalue\n        /* \"contracts/dummytask.sol\":2712:2764  FundsContributed(_campaignId, msg.sender, msg.value) */\n      mload(0x40)\n      tag_74\n      swap3\n      swap2\n      swap1\n      tag_75\n      jump\t// in\n    tag_74:\n      mload(0x40)\n      dup1\n      swap2\n      sub\n      swap1\n      log2\n        /* \"contracts/dummytask.sol\":2871:2880  campaigns */\n      0x02\n        /* \"contracts/dummytask.sol\":2871:2893  campaigns[_campaignId] */\n      0x00\n        /* \"contracts/dummytask.sol\":2881:2892  _campaignId */\n      dup4\n        /* \"contracts/dummytask.sol\":2871:2893  campaigns[_campaignId] */\n      dup2\n      mstore\n      0x20\n      add\n      swap1\n      dup2\n      mstore\n      0x20\n      add\n      0x00\n      keccak256\n        /* \"contracts/dummytask.sol\":2871:2898  campaigns[_campaignId].goal */\n      0x03\n      add\n      sload\n        /* \"contracts/dummytask.sol\":2832:2841  campaigns */\n      0x02\n        /* \"contracts/dummytask.sol\":2832:2854  campaigns[_campaignId] */\n      0x00\n        /* \"contracts/dummytask.sol\":2842:2853  _campaignId */\n      dup5\n        /* \"contracts/dummytask.sol\":2832:2854  campaigns[_campaignId] */\n      dup2\n      mstore\n      0x20\n      add\n      swap1\n      dup2\n      mstore\n      0x20\n      add\n      0x00\n      keccak256\n        /* \"contracts/dummytask.sol\":2832:2867  campaigns[_campaignId].raisedAmount */\n      0x04\n      add\n      sload\n        /* \"contracts/dummytask.sol\":2832:2898  campaigns[_campaignId].raisedAmount >= campaigns[_campaignId].goal */\n      lt\n        /* \"contracts/dummytask.sol\":2828:3033  if (campaigns[_campaignId].raisedAmount >= campaigns[_campaignId].goal) {... */\n      tag_76\n      jumpi\n        /* \"contracts/dummytask.sol\":2947:2971  CampaignStatus.Completed */\n      0x01\n        /* \"contracts/dummytask.sol\":2915:2924  campaigns */\n      0x02\n        /* \"contracts/dummytask.sol\":2915:2937  campaigns[_campaignId] */\n      0x00\n        /* \"contracts/dummytask.sol\":2925:2936  _campaignId */\n      dup5\n        /* \"contracts/dummytask.sol\":2915:2937  campaigns[_campaignId] */\n      dup2\n      mstore\n      0x20\n      add\n      swap1\n      dup2\n      mstore\n      0x20\n      add\n      0x00\n      keccak256\n        /* \"contracts/dummytask.sol\":2915:2944  campaigns[_campaignId].status */\n      0x06\n      add\n      0x00\n        /* \"contracts/dummytask.sol\":2915:2971  campaigns[_campaignId].status = CampaignStatus.Completed */\n      0x0100\n      exp\n      dup2\n      sload\n      dup2\n      0xff\n      mul\n      not\n      and\n      swap1\n      dup4\n      0x02\n      dup2\n      gt\n      iszero\n      tag_77\n      jumpi\n      tag_78\n      tag_62\n      jump\t// in\n    tag_78:\n    tag_77:\n      mul\n      or\n      swap1\n      sstore\n      pop\n        /* \"contracts/dummytask.sol\":2991:3021  CampaignCompleted(_campaignId) */\n      0xbdef6a2e3aa892961a2dab48272f72f2bc1c7121eb1c0ed7e4a58e081c1e4be0\n        /* \"contracts/dummytask.sol\":3009:3020  _campaignId */\n      dup3\n        /* \"contracts/dummytask.sol\":2991:3021  CampaignCompleted(_campaignId) */\n      mload(0x40)\n      tag_79\n      swap2\n      swap1\n      tag_29\n      jump\t// in\n    tag_79:\n      mload(0x40)\n      dup1\n      swap2\n      sub\n      swap1\n      log1\n        /* \"contracts/dummytask.sol\":2828:3033  if (campaigns[_campaignId].raisedAmount >= campaigns[_campaignId].goal) {... */\n    tag_76:\n        /* \"contracts/dummytask.sol\":2467:3040  function contributeFunds(uint256 _campaignId) external payable whenActive(_campaignId) {... */\n      pop\n      pop\n      jump\t// out\n        /* \"contracts/dummytask.sol\":3048:3501  function claimRefund(uint256 _campaignId) external whenRefundable(_campaignId) {... */\n    tag_24:\n        /* \"contracts/dummytask.sol\":3114:3125  _campaignId */\n      dup1\n        /* \"contracts/dummytask.sol\":1670:1695  CampaignStatus.Refundable */\n      0x02\n        /* \"contracts/dummytask.sol\":1637:1695  campaigns[_campaignId].status == CampaignStatus.Refundable */\n      dup1\n      dup2\n      gt\n      iszero\n      tag_81\n      jumpi\n      tag_82\n      tag_62\n      jump\t// in\n    tag_82:\n    tag_81:\n        /* \"contracts/dummytask.sol\":1637:1646  campaigns */\n      0x02\n        /* \"contracts/dummytask.sol\":1637:1659  campaigns[_campaignId] */\n      0x00\n        /* \"contracts/dummytask.sol\":1647:1658  _campaignId */\n      dup4\n        /* \"contracts/dummytask.sol\":1637:1659  campaigns[_campaignId] */\n      dup2\n      mstore\n      0x20\n      add\n      swap1\n      dup2\n      mstore\n      0x20\n      add\n      0x00\n      keccak256\n        /* \"contracts/dummytask.sol\":1637:1666  campaigns[_campaignId].status */\n      0x06\n      add\n      0x00\n      swap1\n      sload\n      swap1\n      0x0100\n      exp\n      swap1\n      div\n      0xff\n      and\n        /* \"contracts/dummytask.sol\":1637:1695  campaigns[_campaignId].status == CampaignStatus.Refundable */\n      0x02\n      dup2\n      gt\n      iszero\n      tag_83\n      jumpi\n      tag_84\n      tag_62\n      jump\t// in\n    tag_84:\n    tag_83:\n      eq\n        /* \"contracts/dummytask.sol\":1629:1726  require(campaigns[_campaignId].status == CampaignStatus.Refundable, \"Campaign is not refundable\") */\n      tag_85\n      jumpi\n      mload(0x40)\n      0x08c379a000000000000000000000000000000000000000000000000000000000\n      dup2\n      mstore\n      0x04\n      add\n      tag_86\n      swap1\n      tag_87\n      jump\t// in\n    tag_86:\n      mload(0x40)\n      dup1\n      swap2\n      sub\n      swap1\n      revert\n    tag_85:\n        /* \"contracts/dummytask.sol\":3184:3193  campaigns */\n      0x02\n        /* \"contracts/dummytask.sol\":3184:3206  campaigns[_campaignId] */\n      0x00\n        /* \"contracts/dummytask.sol\":3194:3205  _campaignId */\n      dup4\n        /* \"contracts/dummytask.sol\":3184:3206  campaigns[_campaignId] */\n      dup2\n      mstore\n      0x20\n      add\n      swap1\n      dup2\n      mstore\n      0x20\n      add\n      0x00\n      keccak256\n        /* \"contracts/dummytask.sol\":3184:3211  campaigns[_campaignId].goal */\n      0x03\n      add\n      sload\n        /* \"contracts/dummytask.sol\":3146:3155  campaigns */\n      0x02\n        /* \"contracts/dummytask.sol\":3146:3168  campaigns[_campaignId] */\n      0x00\n        /* \"contracts/dummytask.sol\":3156:3167  _campaignId */\n      dup5\n        /* \"contracts/dummytask.sol\":3146:3168  campaigns[_campaignId] */\n      dup2\n      mstore\n      0x20\n      add\n      swap1\n      dup2\n      mstore\n      0x20\n      add\n      0x00\n      keccak256\n        /* \"contracts/dummytask.sol\":3146:3181  campaigns[_campaignId].raisedAmount */\n      0x04\n      add\n      sload\n        /* \"contracts/dummytask.sol\":3146:3211  campaigns[_campaignId].raisedAmount < campaigns[_campaignId].goal */\n      lt\n        /* \"contracts/dummytask.sol\":3138:3241  require(campaigns[_campaignId].raisedAmount < campaigns[_campaignId].goal, \"Campaign reached its goal\") */\n      tag_89\n      jumpi\n      mload(0x40)\n      0x08c379a000000000000000000000000000000000000000000000000000000000\n      dup2\n      mstore\n      0x04\n      add\n      tag_90\n      swap1\n      tag_91\n      jump\t// in\n    tag_90:\n      mload(0x40)\n      dup1\n      swap2\n      sub\n      swap1\n      revert\n    tag_89:\n        /* \"contracts/dummytask.sol\":3254:3276  uint256 amountToRefund */\n      0x00\n        /* \"contracts/dummytask.sol\":3279:3288  campaigns */\n      0x02\n        /* \"contracts/dummytask.sol\":3279:3301  campaigns[_campaignId] */\n      0x00\n        /* \"contracts/dummytask.sol\":3289:3300  _campaignId */\n      dup5\n        /* \"contracts/dummytask.sol\":3279:3301  campaigns[_campaignId] */\n      dup2\n      mstore\n      0x20\n      add\n      swap1\n      dup2\n      mstore\n      0x20\n      add\n      0x00\n      keccak256\n        /* \"contracts/dummytask.sol\":3279:3314  campaigns[_campaignId].raisedAmount */\n      0x04\n      add\n      sload\n        /* \"contracts/dummytask.sol\":3254:3314  uint256 amountToRefund = campaigns[_campaignId].raisedAmount */\n      swap1\n      pop\n        /* \"contracts/dummytask.sol\":3363:3364  0 */\n      0x00\n        /* \"contracts/dummytask.sol\":3325:3334  campaigns */\n      0x02\n        /* \"contracts/dummytask.sol\":3325:3347  campaigns[_campaignId] */\n      0x00\n        /* \"contracts/dummytask.sol\":3335:3346  _campaignId */\n      dup6\n        /* \"contracts/dummytask.sol\":3325:3347  campaigns[_campaignId] */\n      dup2\n      mstore\n      0x20\n      add\n      swap1\n      dup2\n      mstore\n      0x20\n      add\n      0x00\n      keccak256\n        /* \"contracts/dummytask.sol\":3325:3360  campaigns[_campaignId].raisedAmount */\n      0x04\n      add\n        /* \"contracts/dummytask.sol\":3325:3364  campaigns[_campaignId].raisedAmount = 0 */\n      dup2\n      swap1\n      sstore\n      pop\n        /* \"contracts/dummytask.sol\":3385:3395  msg.sender */\n      caller\n        /* \"contracts/dummytask.sol\":3377:3405  payable(msg.sender).transfer */\n      0xffffffffffffffffffffffffffffffffffffffff\n      and\n        /* \"contracts/dummytask.sol\":3377:3421  payable(msg.sender).transfer(amountToRefund) */\n      0x08fc\n        /* \"contracts/dummytask.sol\":3406:3420  amountToRefund */\n      dup3\n        /* \"contracts/dummytask.sol\":3377:3421  payable(msg.sender).transfer(amountToRefund) */\n      swap1\n      dup2\n      iszero\n      mul\n      swap1\n      mload(0x40)\n      0x00\n      mload(0x40)\n      dup1\n      dup4\n      sub\n      dup2\n      dup6\n      dup9\n      dup9\n      call\n      swap4\n      pop\n      pop\n      pop\n      pop\n      iszero\n      dup1\n      iszero\n      tag_93\n      jumpi\n      returndatasize\n      0x00\n      dup1\n      returndatacopy\n      revert(0x00, returndatasize)\n    tag_93:\n      pop\n        /* \"contracts/dummytask.sol\":3466:3476  msg.sender */\n      caller\n        /* \"contracts/dummytask.sol\":3439:3493  RefundClaimed(_campaignId, msg.sender, amountToRefund) */\n      0xffffffffffffffffffffffffffffffffffffffff\n      and\n      0xf3f402280ef0a7905e124aa621b65eaeb2725c343e8b36d398ed78c29daf285c\n        /* \"contracts/dummytask.sol\":3453:3464  _campaignId */\n      dup5\n        /* \"contracts/dummytask.sol\":3478:3492  amountToRefund */\n      dup4\n        /* \"contracts/dummytask.sol\":3439:3493  RefundClaimed(_campaignId, msg.sender, amountToRefund) */\n      mload(0x40)\n      tag_94\n      swap3\n      swap2\n      swap1\n      tag_75\n      jump\t// in\n    tag_94:\n      mload(0x40)\n      dup1\n      swap2\n      sub\n      swap1\n      log2\n        /* \"contracts/dummytask.sol\":3127:3501  {... */\n      pop\n        /* \"contracts/dummytask.sol\":3048:3501  function claimRefund(uint256 _campaignId) external whenRefundable(_campaignId) {... */\n      pop\n      pop\n      jump\t// out\n        /* \"contracts/dummytask.sol\":510:539  uint256 public nextCampaignId */\n    tag_27:\n      sload(0x03)\n      dup2\n      jump\t// out\n        /* \"contracts/dummytask.sol\":3509:3982  function completeCampaign(uint256 _campaignId) external onlyAdmin whenCompleted(_campaignId) {... */\n    tag_33:\n        /* \"contracts/dummytask.sol\":955:960  admin */\n      0x00\n      dup1\n      sload\n      swap1\n      0x0100\n      exp\n      swap1\n      div\n      0xffffffffffffffffffffffffffffffffffffffff\n      and\n        /* \"contracts/dummytask.sol\":941:960  msg.sender == admin */\n      0xffffffffffffffffffffffffffffffffffffffff\n      and\n        /* \"contracts/dummytask.sol\":941:951  msg.sender */\n      caller\n        /* \"contracts/dummytask.sol\":941:960  msg.sender == admin */\n      0xffffffffffffffffffffffffffffffffffffffff\n      and\n      eq\n        /* \"contracts/dummytask.sol\":933:1010  require(msg.sender == admin, \"Only the administrator can call this function\") */\n      tag_96\n      jumpi\n      mload(0x40)\n      0x08c379a000000000000000000000000000000000000000000000000000000000\n      dup2\n      mstore\n      0x04\n      add\n      tag_97\n      swap1\n      tag_98\n      jump\t// in\n    tag_97:\n      mload(0x40)\n      dup1\n      swap2\n      sub\n      swap1\n      revert\n    tag_96:\n        /* \"contracts/dummytask.sol\":3589:3600  _campaignId */\n      dup1\n        /* \"contracts/dummytask.sol\":1491:1515  CampaignStatus.Completed */\n      0x01\n        /* \"contracts/dummytask.sol\":1458:1515  campaigns[_campaignId].status == CampaignStatus.Completed */\n      0x02\n      dup2\n      gt\n      iszero\n      tag_100\n      jumpi\n      tag_101\n      tag_62\n      jump\t// in\n    tag_101:\n    tag_100:\n        /* \"contracts/dummytask.sol\":1458:1467  campaigns */\n      0x02\n        /* \"contracts/dummytask.sol\":1458:1480  campaigns[_campaignId] */\n      0x00\n        /* \"contracts/dummytask.sol\":1468:1479  _campaignId */\n      dup4\n        /* \"contracts/dummytask.sol\":1458:1480  campaigns[_campaignId] */\n      dup2\n      mstore\n      0x20\n      add\n      swap1\n      dup2\n      mstore\n      0x20\n      add\n      0x00\n      keccak256\n        /* \"contracts/dummytask.sol\":1458:1487  campaigns[_campaignId].status */\n      0x06\n      add\n      0x00\n      swap1\n      sload\n      swap1\n      0x0100\n      exp\n      swap1\n      div\n      0xff\n      and\n        /* \"contracts/dummytask.sol\":1458:1515  campaigns[_campaignId].status == CampaignStatus.Completed */\n      0x02\n      dup2\n      gt\n      iszero\n      tag_102\n      jumpi\n      tag_103\n      tag_62\n      jump\t// in\n    tag_103:\n    tag_102:\n      eq\n        /* \"contracts/dummytask.sol\":1450:1545  require(campaigns[_campaignId].status == CampaignStatus.Completed, \"Campaign is not completed\") */\n      tag_104\n      jumpi\n      mload(0x40)\n      0x08c379a000000000000000000000000000000000000000000000000000000000\n      dup2\n      mstore\n      0x04\n      add\n      tag_105\n      swap1\n      tag_106\n      jump\t// in\n    tag_105:\n      mload(0x40)\n      dup1\n      swap2\n      sub\n      swap1\n      revert\n    tag_104:\n        /* \"contracts/dummytask.sol\":3660:3669  campaigns */\n      0x02\n        /* \"contracts/dummytask.sol\":3660:3682  campaigns[_campaignId] */\n      0x00\n        /* \"contracts/dummytask.sol\":3670:3681  _campaignId */\n      dup4\n        /* \"contracts/dummytask.sol\":3660:3682  campaigns[_campaignId] */\n      dup2\n      mstore\n      0x20\n      add\n      swap1\n      dup2\n      mstore\n      0x20\n      add\n      0x00\n      keccak256\n        /* \"contracts/dummytask.sol\":3660:3687  campaigns[_campaignId].goal */\n      0x03\n      add\n      sload\n        /* \"contracts/dummytask.sol\":3621:3630  campaigns */\n      0x02\n        /* \"contracts/dummytask.sol\":3621:3643  campaigns[_campaignId] */\n      0x00\n        /* \"contracts/dummytask.sol\":3631:3642  _campaignId */\n      dup5\n        /* \"contracts/dummytask.sol\":3621:3643  campaigns[_campaignId] */\n      dup2\n      mstore\n      0x20\n      add\n      swap1\n      dup2\n      mstore\n      0x20\n      add\n      0x00\n      keccak256\n        /* \"contracts/dummytask.sol\":3621:3656  campaigns[_campaignId].raisedAmount */\n      0x04\n      add\n      sload\n        /* \"contracts/dummytask.sol\":3621:3687  campaigns[_campaignId].raisedAmount >= campaigns[_campaignId].goal */\n      lt\n      iszero\n        /* \"contracts/dummytask.sol\":3613:3723  require(campaigns[_campaignId].raisedAmount >= campaigns[_campaignId].goal, \"Campaign did not reach its goal\") */\n      tag_108\n      jumpi\n      mload(0x40)\n      0x08c379a000000000000000000000000000000000000000000000000000000000\n      dup2\n      mstore\n      0x04\n      add\n      tag_109\n      swap1\n      tag_110\n      jump\t// in\n    tag_109:\n      mload(0x40)\n      dup1\n      swap2\n      sub\n      swap1\n      revert\n    tag_108:\n        /* \"contracts/dummytask.sol\":3785:3809  uint256 amountToTransfer */\n      0x00\n        /* \"contracts/dummytask.sol\":3812:3821  campaigns */\n      0x02\n        /* \"contracts/dummytask.sol\":3812:3834  campaigns[_campaignId] */\n      0x00\n        /* \"contracts/dummytask.sol\":3822:3833  _campaignId */\n      dup5\n        /* \"contracts/dummytask.sol\":3812:3834  campaigns[_campaignId] */\n      dup2\n      mstore\n      0x20\n      add\n      swap1\n      dup2\n      mstore\n      0x20\n      add\n      0x00\n      keccak256\n        /* \"contracts/dummytask.sol\":3812:3847  campaigns[_campaignId].raisedAmount */\n      0x04\n      add\n      sload\n        /* \"contracts/dummytask.sol\":3785:3847  uint256 amountToTransfer = campaigns[_campaignId].raisedAmount */\n      swap1\n      pop\n        /* \"contracts/dummytask.sol\":3896:3897  0 */\n      0x00\n        /* \"contracts/dummytask.sol\":3858:3867  campaigns */\n      0x02\n        /* \"contracts/dummytask.sol\":3858:3880  campaigns[_campaignId] */\n      0x00\n        /* \"contracts/dummytask.sol\":3868:3879  _campaignId */\n      dup6\n        /* \"contracts/dummytask.sol\":3858:3880  campaigns[_campaignId] */\n      dup2\n      mstore\n      0x20\n      add\n      swap1\n      dup2\n      mstore\n      0x20\n      add\n      0x00\n      keccak256\n        /* \"contracts/dummytask.sol\":3858:3893  campaigns[_campaignId].raisedAmount */\n      0x04\n      add\n        /* \"contracts/dummytask.sol\":3858:3897  campaigns[_campaignId].raisedAmount = 0 */\n      dup2\n      swap1\n      sstore\n      pop\n        /* \"contracts/dummytask.sol\":3918:3927  campaigns */\n      0x02\n        /* \"contracts/dummytask.sol\":3918:3940  campaigns[_campaignId] */\n      0x00\n        /* \"contracts/dummytask.sol\":3928:3939  _campaignId */\n      dup5\n        /* \"contracts/dummytask.sol\":3918:3940  campaigns[_campaignId] */\n      dup2\n      mstore\n      0x20\n      add\n      swap1\n      dup2\n      mstore\n      0x20\n      add\n      0x00\n      keccak256\n        /* \"contracts/dummytask.sol\":3918:3946  campaigns[_campaignId].owner */\n      0x00\n      add\n      0x00\n      swap1\n      sload\n      swap1\n      0x0100\n      exp\n      swap1\n      div\n      0xffffffffffffffffffffffffffffffffffffffff\n      and\n        /* \"contracts/dummytask.sol\":3910:3956  payable(campaigns[_campaignId].owner).transfer */\n      0xffffffffffffffffffffffffffffffffffffffff\n      and\n        /* \"contracts/dummytask.sol\":3910:3974  payable(campaigns[_campaignId].owner).transfer(amountToTransfer) */\n      0x08fc\n        /* \"contracts/dummytask.sol\":3957:3973  amountToTransfer */\n      dup3\n        /* \"contracts/dummytask.sol\":3910:3974  payable(campaigns[_campaignId].owner).transfer(amountToTransfer) */\n      swap1\n      dup2\n      iszero\n      mul\n      swap1\n      mload(0x40)\n      0x00\n      mload(0x40)\n      dup1\n      dup4\n      sub\n      dup2\n      dup6\n      dup9\n      dup9\n      call\n      swap4\n      pop\n      pop\n      pop\n      pop\n      iszero\n      dup1\n      iszero\n      tag_112\n      jumpi\n      returndatasize\n      0x00\n      dup1\n      returndatacopy\n      revert(0x00, returndatasize)\n    tag_112:\n      pop\n        /* \"contracts/dummytask.sol\":3602:3982  {... */\n      pop\n        /* \"contracts/dummytask.sol\":1021:1022  _ */\n      pop\n        /* \"contracts/dummytask.sol\":3509:3982  function completeCampaign(uint256 _campaignId) external onlyAdmin whenCompleted(_campaignId) {... */\n      pop\n      jump\t// out\n        /* \"contracts/dummytask.sol\":125:156  uint256 public deadlineDuration */\n    tag_36:\n      sload(0x01)\n      dup2\n      jump\t// out\n        /* \"contracts/dummytask.sol\":98:118  address public admin */\n    tag_40:\n      0x00\n      dup1\n      sload\n      swap1\n      0x0100\n      exp\n      swap1\n      div\n      0xffffffffffffffffffffffffffffffffffffffff\n      and\n      dup2\n      jump\t// out\n        /* \"contracts/dummytask.sol\":1885:2459  function createCampaign(string memory _name, string memory _description, uint256 _goal) external {... */\n    tag_47:\n        /* \"contracts/dummytask.sol\":1993:2009  uint256 deadline */\n      0x00\n        /* \"contracts/dummytask.sol\":2030:2046  deadlineDuration */\n      sload(0x01)\n        /* \"contracts/dummytask.sol\":2012:2027  block.timestamp */\n      timestamp\n        /* \"contracts/dummytask.sol\":2012:2046  block.timestamp + deadlineDuration */\n      tag_114\n      swap2\n      swap1\n      tag_73\n      jump\t// in\n    tag_114:\n        /* \"contracts/dummytask.sol\":1993:2046  uint256 deadline = block.timestamp + deadlineDuration */\n      swap1\n      pop\n        /* \"contracts/dummytask.sol\":2087:2339  Campaign({... */\n      mload(0x40)\n      dup1\n      0xe0\n      add\n      0x40\n      mstore\n      dup1\n        /* \"contracts/dummytask.sol\":2118:2128  msg.sender */\n      caller\n        /* \"contracts/dummytask.sol\":2087:2339  Campaign({... */\n      0xffffffffffffffffffffffffffffffffffffffff\n      and\n      dup2\n      mstore\n      0x20\n      add\n        /* \"contracts/dummytask.sol\":2149:2154  _name */\n      dup6\n        /* \"contracts/dummytask.sol\":2087:2339  Campaign({... */\n      dup2\n      mstore\n      0x20\n      add\n        /* \"contracts/dummytask.sol\":2182:2194  _description */\n      dup5\n        /* \"contracts/dummytask.sol\":2087:2339  Campaign({... */\n      dup2\n      mstore\n      0x20\n      add\n        /* \"contracts/dummytask.sol\":2215:2220  _goal */\n      dup4\n        /* \"contracts/dummytask.sol\":2087:2339  Campaign({... */\n      dup2\n      mstore\n      0x20\n      add\n        /* \"contracts/dummytask.sol\":2249:2250  0 */\n      0x00\n        /* \"contracts/dummytask.sol\":2087:2339  Campaign({... */\n      dup2\n      mstore\n      0x20\n      add\n        /* \"contracts/dummytask.sol\":2275:2283  deadline */\n      dup3\n        /* \"contracts/dummytask.sol\":2087:2339  Campaign({... */\n      dup2\n      mstore\n      0x20\n      add\n        /* \"contracts/dummytask.sol\":2306:2327  CampaignStatus.Active */\n      0x00\n        /* \"contracts/dummytask.sol\":2087:2339  Campaign({... */\n      0x02\n      dup2\n      gt\n      iszero\n      tag_115\n      jumpi\n      tag_116\n      tag_62\n      jump\t// in\n    tag_116:\n    tag_115:\n      dup2\n      mstore\n      pop\n        /* \"contracts/dummytask.sol\":2059:2068  campaigns */\n      0x02\n        /* \"contracts/dummytask.sol\":2059:2084  campaigns[nextCampaignId] */\n      0x00\n        /* \"contracts/dummytask.sol\":2069:2083  nextCampaignId */\n      sload(0x03)\n        /* \"contracts/dummytask.sol\":2059:2084  campaigns[nextCampaignId] */\n      dup2\n      mstore\n      0x20\n      add\n      swap1\n      dup2\n      mstore\n      0x20\n      add\n      0x00\n      keccak256\n        /* \"contracts/dummytask.sol\":2059:2339  campaigns[nextCampaignId] = Campaign({... */\n      0x00\n      dup3\n      add\n      mload\n      dup2\n      0x00\n      add\n      exp(0x0100, 0x00)\n      dup2\n      sload\n      dup2\n      0xffffffffffffffffffffffffffffffffffffffff\n      mul\n      not\n      and\n      swap1\n      dup4\n      0xffffffffffffffffffffffffffffffffffffffff\n      and\n      mul\n      or\n      swap1\n      sstore\n      pop\n      0x20\n      dup3\n      add\n      mload\n      dup2\n      0x01\n      add\n      swap1\n      dup2\n      tag_117\n      swap2\n      swap1\n      tag_118\n      jump\t// in\n    tag_117:\n      pop\n      0x40\n      dup3\n      add\n      mload\n      dup2\n      0x02\n      add\n      swap1\n      dup2\n      tag_119\n      swap2\n      swap1\n      tag_118\n      jump\t// in\n    tag_119:\n      pop\n      0x60\n      dup3\n      add\n      mload\n      dup2\n      0x03\n      add\n      sstore\n      0x80\n      dup3\n      add\n      mload\n      dup2\n      0x04\n      add\n      sstore\n      0xa0\n      dup3\n      add\n      mload\n      dup2\n      0x05\n      add\n      sstore\n      0xc0\n      dup3\n      add\n      mload\n      dup2\n      0x06\n      add\n      exp(0x0100, 0x00)\n      dup2\n      sload\n      dup2\n      0xff\n      mul\n      not\n      and\n      swap1\n      dup4\n      0x02\n      dup2\n      gt\n      iszero\n      tag_120\n      jumpi\n      tag_121\n      tag_62\n      jump\t// in\n    tag_121:\n    tag_120:\n      mul\n      or\n      swap1\n      sstore\n      pop\n      swap1\n      pop\n      pop\n        /* \"contracts/dummytask.sol\":2389:2399  msg.sender */\n      caller\n        /* \"contracts/dummytask.sol\":2357:2424  CampaignCreated(nextCampaignId, msg.sender, _name, _goal, deadline) */\n      0xffffffffffffffffffffffffffffffffffffffff\n      and\n      0xdc26653af5b99b2da33e2ad69ee6600d9aeccc82b034501db4338309615ca238\n        /* \"contracts/dummytask.sol\":2373:2387  nextCampaignId */\n      sload(0x03)\n        /* \"contracts/dummytask.sol\":2401:2406  _name */\n      dup7\n        /* \"contracts/dummytask.sol\":2408:2413  _goal */\n      dup6\n        /* \"contracts/dummytask.sol\":2415:2423  deadline */\n      dup6\n        /* \"contracts/dummytask.sol\":2357:2424  CampaignCreated(nextCampaignId, msg.sender, _name, _goal, deadline) */\n      mload(0x40)\n      tag_122\n      swap5\n      swap4\n      swap3\n      swap2\n      swap1\n      tag_123\n      jump\t// in\n    tag_122:\n      mload(0x40)\n      dup1\n      swap2\n      sub\n      swap1\n      log2\n        /* \"contracts/dummytask.sol\":2435:2449  nextCampaignId */\n      0x03\n      0x00\n        /* \"contracts/dummytask.sol\":2435:2451  nextCampaignId++ */\n      dup2\n      sload\n      dup1\n      swap3\n      swap2\n      swap1\n      tag_124\n      swap1\n      tag_125\n      jump\t// in\n    tag_124:\n      swap2\n      swap1\n      pop\n      sstore\n      pop\n        /* \"contracts/dummytask.sol\":1982:2459  {... */\n      pop\n        /* \"contracts/dummytask.sol\":1885:2459  function createCampaign(string memory _name, string memory _description, uint256 _goal) external {... */\n      pop\n      pop\n      pop\n      jump\t// out\n        /* \"#utility.yul\":7:82   */\n    tag_126:\n        /* \"#utility.yul\":40:46   */\n      0x00\n        /* \"#utility.yul\":73:75   */\n      0x40\n        /* \"#utility.yul\":67:76   */\n      mload\n        /* \"#utility.yul\":57:76   */\n      swap1\n      pop\n        /* \"#utility.yul\":7:82   */\n      swap1\n      jump\t// out\n        /* \"#utility.yul\":88:205   */\n    tag_127:\n        /* \"#utility.yul\":197:198   */\n      0x00\n        /* \"#utility.yul\":194:195   */\n      dup1\n        /* \"#utility.yul\":187:199   */\n      revert\n        /* \"#utility.yul\":211:328   */\n    tag_128:\n        /* \"#utility.yul\":320:321   */\n      0x00\n        /* \"#utility.yul\":317:318   */\n      dup1\n        /* \"#utility.yul\":310:322   */\n      revert\n        /* \"#utility.yul\":334:411   */\n    tag_129:\n        /* \"#utility.yul\":371:378   */\n      0x00\n        /* \"#utility.yul\":400:405   */\n      dup2\n        /* \"#utility.yul\":389:405   */\n      swap1\n      pop\n        /* \"#utility.yul\":334:411   */\n      swap2\n      swap1\n      pop\n      jump\t// out\n        /* \"#utility.yul\":417:539   */\n    tag_130:\n        /* \"#utility.yul\":490:514   */\n      tag_191\n        /* \"#utility.yul\":508:513   */\n      dup2\n        /* \"#utility.yul\":490:514   */\n      tag_129\n      jump\t// in\n    tag_191:\n        /* \"#utility.yul\":483:488   */\n      dup2\n        /* \"#utility.yul\":480:515   */\n      eq\n        /* \"#utility.yul\":470:533   */\n      tag_192\n      jumpi\n        /* \"#utility.yul\":529:530   */\n      0x00\n        /* \"#utility.yul\":526:527   */\n      dup1\n        /* \"#utility.yul\":519:531   */\n      revert\n        /* \"#utility.yul\":470:533   */\n    tag_192:\n        /* \"#utility.yul\":417:539   */\n      pop\n      jump\t// out\n        /* \"#utility.yul\":545:684   */\n    tag_131:\n        /* \"#utility.yul\":591:596   */\n      0x00\n        /* \"#utility.yul\":629:635   */\n      dup2\n        /* \"#utility.yul\":616:636   */\n      calldataload\n        /* \"#utility.yul\":607:636   */\n      swap1\n      pop\n        /* \"#utility.yul\":645:678   */\n      tag_194\n        /* \"#utility.yul\":672:677   */\n      dup2\n        /* \"#utility.yul\":645:678   */\n      tag_130\n      jump\t// in\n    tag_194:\n        /* \"#utility.yul\":545:684   */\n      swap3\n      swap2\n      pop\n      pop\n      jump\t// out\n        /* \"#utility.yul\":690:1019   */\n    tag_14:\n        /* \"#utility.yul\":749:755   */\n      0x00\n        /* \"#utility.yul\":798:800   */\n      0x20\n        /* \"#utility.yul\":786:795   */\n      dup3\n        /* \"#utility.yul\":777:784   */\n      dup5\n        /* \"#utility.yul\":773:796   */\n      sub\n        /* \"#utility.yul\":769:801   */\n      slt\n        /* \"#utility.yul\":766:885   */\n      iszero\n      tag_196\n      jumpi\n        /* \"#utility.yul\":804:883   */\n      tag_197\n      tag_127\n      jump\t// in\n    tag_197:\n        /* \"#utility.yul\":766:885   */\n    tag_196:\n        /* \"#utility.yul\":924:925   */\n      0x00\n        /* \"#utility.yul\":949:1002   */\n      tag_198\n        /* \"#utility.yul\":994:1001   */\n      dup5\n        /* \"#utility.yul\":985:991   */\n      dup3\n        /* \"#utility.yul\":974:983   */\n      dup6\n        /* \"#utility.yul\":970:992   */\n      add\n        /* \"#utility.yul\":949:1002   */\n      tag_131\n      jump\t// in\n    tag_198:\n        /* \"#utility.yul\":939:1002   */\n      swap2\n      pop\n        /* \"#utility.yul\":895:1012   */\n      pop\n        /* \"#utility.yul\":690:1019   */\n      swap3\n      swap2\n      pop\n      pop\n      jump\t// out\n        /* \"#utility.yul\":1025:1151   */\n    tag_132:\n        /* \"#utility.yul\":1062:1069   */\n      0x00\n        /* \"#utility.yul\":1102:1144   */\n      0xffffffffffffffffffffffffffffffffffffffff\n        /* \"#utility.yul\":1095:1100   */\n      dup3\n        /* \"#utility.yul\":1091:1145   */\n      and\n        /* \"#utility.yul\":1080:1145   */\n      swap1\n      pop\n        /* \"#utility.yul\":1025:1151   */\n      swap2\n      swap1\n      pop\n      jump\t// out\n        /* \"#utility.yul\":1157:1253   */\n    tag_133:\n        /* \"#utility.yul\":1194:1201   */\n      0x00\n        /* \"#utility.yul\":1223:1247   */\n      tag_201\n        /* \"#utility.yul\":1241:1246   */\n      dup3\n        /* \"#utility.yul\":1223:1247   */\n      tag_132\n      jump\t// in\n    tag_201:\n        /* \"#utility.yul\":1212:1247   */\n      swap1\n      pop\n        /* \"#utility.yul\":1157:1253   */\n      swap2\n      swap1\n      pop\n      jump\t// out\n        /* \"#utility.yul\":1259:1377   */\n    tag_134:\n        /* \"#utility.yul\":1346:1370   */\n      tag_203\n        /* \"#utility.yul\":1364:1369   */\n      dup2\n        /* \"#utility.yul\":1346:1370   */\n      tag_133\n      jump\t// in\n    tag_203:\n        /* \"#utility.yul\":1341:1344   */\n      dup3\n        /* \"#utility.yul\":1334:1371   */\n      mstore\n        /* \"#utility.yul\":1259:1377   */\n      pop\n      pop\n      jump\t// out\n        /* \"#utility.yul\":1383:1482   */\n    tag_135:\n        /* \"#utility.yul\":1435:1441   */\n      0x00\n        /* \"#utility.yul\":1469:1474   */\n      dup2\n        /* \"#utility.yul\":1463:1475   */\n      mload\n        /* \"#utility.yul\":1453:1475   */\n      swap1\n      pop\n        /* \"#utility.yul\":1383:1482   */\n      swap2\n      swap1\n      pop\n      jump\t// out\n        /* \"#utility.yul\":1488:1657   */\n    tag_136:\n        /* \"#utility.yul\":1572:1583   */\n      0x00\n        /* \"#utility.yul\":1606:1612   */\n      dup3\n        /* \"#utility.yul\":1601:1604   */\n      dup3\n        /* \"#utility.yul\":1594:1613   */\n      mstore\n        /* \"#utility.yul\":1646:1650   */\n      0x20\n        /* \"#utility.yul\":1641:1644   */\n      dup3\n        /* \"#utility.yul\":1637:1651   */\n      add\n        /* \"#utility.yul\":1622:1651   */\n      swap1\n      pop\n        /* \"#utility.yul\":1488:1657   */\n      swap3\n      swap2\n      pop\n      pop\n      jump\t// out\n        /* \"#utility.yul\":1663:1909   */\n    tag_137:\n        /* \"#utility.yul\":1744:1745   */\n      0x00\n        /* \"#utility.yul\":1754:1867   */\n    tag_207:\n        /* \"#utility.yul\":1768:1774   */\n      dup4\n        /* \"#utility.yul\":1765:1766   */\n      dup2\n        /* \"#utility.yul\":1762:1775   */\n      lt\n        /* \"#utility.yul\":1754:1867   */\n      iszero\n      tag_209\n      jumpi\n        /* \"#utility.yul\":1853:1854   */\n      dup1\n        /* \"#utility.yul\":1848:1851   */\n      dup3\n        /* \"#utility.yul\":1844:1855   */\n      add\n        /* \"#utility.yul\":1838:1856   */\n      mload\n        /* \"#utility.yul\":1834:1835   */\n      dup2\n        /* \"#utility.yul\":1829:1832   */\n      dup5\n        /* \"#utility.yul\":1825:1836   */\n      add\n        /* \"#utility.yul\":1818:1857   */\n      mstore\n        /* \"#utility.yul\":1790:1792   */\n      0x20\n        /* \"#utility.yul\":1787:1788   */\n      dup2\n        /* \"#utility.yul\":1783:1793   */\n      add\n        /* \"#utility.yul\":1778:1793   */\n      swap1\n      pop\n        /* \"#utility.yul\":1754:1867   */\n      jump(tag_207)\n    tag_209:\n        /* \"#utility.yul\":1901:1902   */\n      0x00\n        /* \"#utility.yul\":1892:1898   */\n      dup5\n        /* \"#utility.yul\":1887:1890   */\n      dup5\n        /* \"#utility.yul\":1883:1899   */\n      add\n        /* \"#utility.yul\":1876:1903   */\n      mstore\n        /* \"#utility.yul\":1725:1909   */\n      pop\n        /* \"#utility.yul\":1663:1909   */\n      pop\n      pop\n      pop\n      jump\t// out\n        /* \"#utility.yul\":1915:2017   */\n    tag_138:\n        /* \"#utility.yul\":1956:1962   */\n      0x00\n        /* \"#utility.yul\":2007:2009   */\n      0x1f\n        /* \"#utility.yul\":2003:2010   */\n      not\n        /* \"#utility.yul\":1998:2000   */\n      0x1f\n        /* \"#utility.yul\":1991:1996   */\n      dup4\n        /* \"#utility.yul\":1987:2001   */\n      add\n        /* \"#utility.yul\":1983:2011   */\n      and\n        /* \"#utility.yul\":1973:2011   */\n      swap1\n      pop\n        /* \"#utility.yul\":1915:2017   */\n      swap2\n      swap1\n      pop\n      jump\t// out\n        /* \"#utility.yul\":2023:2400   */\n    tag_139:\n        /* \"#utility.yul\":2111:2114   */\n      0x00\n        /* \"#utility.yul\":2139:2178   */\n      tag_212\n        /* \"#utility.yul\":2172:2177   */\n      dup3\n        /* \"#utility.yul\":2139:2178   */\n      tag_135\n      jump\t// in\n    tag_212:\n        /* \"#utility.yul\":2194:2265   */\n      tag_213\n        /* \"#utility.yul\":2258:2264   */\n      dup2\n        /* \"#utility.yul\":2253:2256   */\n      dup6\n        /* \"#utility.yul\":2194:2265   */\n      tag_136\n      jump\t// in\n    tag_213:\n        /* \"#utility.yul\":2187:2265   */\n      swap4\n      pop\n        /* \"#utility.yul\":2274:2339   */\n      tag_214\n        /* \"#utility.yul\":2332:2338   */\n      dup2\n        /* \"#utility.yul\":2327:2330   */\n      dup6\n        /* \"#utility.yul\":2320:2324   */\n      0x20\n        /* \"#utility.yul\":2313:2318   */\n      dup7\n        /* \"#utility.yul\":2309:2325   */\n      add\n        /* \"#utility.yul\":2274:2339   */\n      tag_137\n      jump\t// in\n    tag_214:\n        /* \"#utility.yul\":2364:2393   */\n      tag_215\n        /* \"#utility.yul\":2386:2392   */\n      dup2\n        /* \"#utility.yul\":2364:2393   */\n      tag_138\n      jump\t// in\n    tag_215:\n        /* \"#utility.yul\":2359:2362   */\n      dup5\n        /* \"#utility.yul\":2355:2394   */\n      add\n        /* \"#utility.yul\":2348:2394   */\n      swap2\n      pop\n        /* \"#utility.yul\":2115:2400   */\n      pop\n        /* \"#utility.yul\":2023:2400   */\n      swap3\n      swap2\n      pop\n      pop\n      jump\t// out\n        /* \"#utility.yul\":2406:2524   */\n    tag_140:\n        /* \"#utility.yul\":2493:2517   */\n      tag_217\n        /* \"#utility.yul\":2511:2516   */\n      dup2\n        /* \"#utility.yul\":2493:2517   */\n      tag_129\n      jump\t// in\n    tag_217:\n        /* \"#utility.yul\":2488:2491   */\n      dup3\n        /* \"#utility.yul\":2481:2518   */\n      mstore\n        /* \"#utility.yul\":2406:2524   */\n      pop\n      pop\n      jump\t// out\n        /* \"#utility.yul\":2530:2710   */\n    tag_62:\n        /* \"#utility.yul\":2578:2655   */\n      0x4e487b7100000000000000000000000000000000000000000000000000000000\n        /* \"#utility.yul\":2575:2576   */\n      0x00\n        /* \"#utility.yul\":2568:2656   */\n      mstore\n        /* \"#utility.yul\":2675:2679   */\n      0x21\n        /* \"#utility.yul\":2672:2673   */\n      0x04\n        /* \"#utility.yul\":2665:2680   */\n      mstore\n        /* \"#utility.yul\":2699:2703   */\n      0x24\n        /* \"#utility.yul\":2696:2697   */\n      0x00\n        /* \"#utility.yul\":2689:2704   */\n      revert\n        /* \"#utility.yul\":2716:2837   */\n    tag_141:\n        /* \"#utility.yul\":2805:2806   */\n      0x03\n        /* \"#utility.yul\":2798:2803   */\n      dup2\n        /* \"#utility.yul\":2795:2807   */\n      lt\n        /* \"#utility.yul\":2785:2831   */\n      tag_220\n      jumpi\n        /* \"#utility.yul\":2811:2829   */\n      tag_221\n      tag_62\n      jump\t// in\n    tag_221:\n        /* \"#utility.yul\":2785:2831   */\n    tag_220:\n        /* \"#utility.yul\":2716:2837   */\n      pop\n      jump\t// out\n        /* \"#utility.yul\":2843:2986   */\n    tag_142:\n        /* \"#utility.yul\":2896:2903   */\n      0x00\n        /* \"#utility.yul\":2925:2930   */\n      dup2\n        /* \"#utility.yul\":2914:2930   */\n      swap1\n      pop\n        /* \"#utility.yul\":2931:2980   */\n      tag_223\n        /* \"#utility.yul\":2974:2979   */\n      dup3\n        /* \"#utility.yul\":2931:2980   */\n      tag_141\n      jump\t// in\n    tag_223:\n        /* \"#utility.yul\":2843:2986   */\n      swap2\n      swap1\n      pop\n      jump\t// out\n        /* \"#utility.yul\":2992:3135   */\n    tag_143:\n        /* \"#utility.yul\":3056:3065   */\n      0x00\n        /* \"#utility.yul\":3089:3129   */\n      tag_225\n        /* \"#utility.yul\":3123:3128   */\n      dup3\n        /* \"#utility.yul\":3089:3129   */\n      tag_142\n      jump\t// in\n    tag_225:\n        /* \"#utility.yul\":3076:3129   */\n      swap1\n      pop\n        /* \"#utility.yul\":2992:3135   */\n      swap2\n      swap1\n      pop\n      jump\t// out\n        /* \"#utility.yul\":3141:3300   */\n    tag_144:\n        /* \"#utility.yul\":3242:3293   */\n      tag_227\n        /* \"#utility.yul\":3287:3292   */\n      dup2\n        /* \"#utility.yul\":3242:3293   */\n      tag_143\n      jump\t// in\n    tag_227:\n        /* \"#utility.yul\":3237:3240   */\n      dup3\n        /* \"#utility.yul\":3230:3294   */\n      mstore\n        /* \"#utility.yul\":3141:3300   */\n      pop\n      pop\n      jump\t// out\n        /* \"#utility.yul\":3306:4402   */\n    tag_17:\n        /* \"#utility.yul\":3621:3625   */\n      0x00\n        /* \"#utility.yul\":3659:3662   */\n      0xe0\n        /* \"#utility.yul\":3648:3657   */\n      dup3\n        /* \"#utility.yul\":3644:3663   */\n      add\n        /* \"#utility.yul\":3636:3663   */\n      swap1\n      pop\n        /* \"#utility.yul\":3673:3744   */\n      tag_229\n        /* \"#utility.yul\":3741:3742   */\n      0x00\n        /* \"#utility.yul\":3730:3739   */\n      dup4\n        /* \"#utility.yul\":3726:3743   */\n      add\n        /* \"#utility.yul\":3717:3723   */\n      dup11\n        /* \"#utility.yul\":3673:3744   */\n      tag_134\n      jump\t// in\n    tag_229:\n        /* \"#utility.yul\":3791:3800   */\n      dup2\n        /* \"#utility.yul\":3785:3789   */\n      dup2\n        /* \"#utility.yul\":3781:3801   */\n      sub\n        /* \"#utility.yul\":3776:3778   */\n      0x20\n        /* \"#utility.yul\":3765:3774   */\n      dup4\n        /* \"#utility.yul\":3761:3779   */\n      add\n        /* \"#utility.yul\":3754:3802   */\n      mstore\n        /* \"#utility.yul\":3819:3897   */\n      tag_230\n        /* \"#utility.yul\":3892:3896   */\n      dup2\n        /* \"#utility.yul\":3883:3889   */\n      dup10\n        /* \"#utility.yul\":3819:3897   */\n      tag_139\n      jump\t// in\n    tag_230:\n        /* \"#utility.yul\":3811:3897   */\n      swap1\n      pop\n        /* \"#utility.yul\":3944:3953   */\n      dup2\n        /* \"#utility.yul\":3938:3942   */\n      dup2\n        /* \"#utility.yul\":3934:3954   */\n      sub\n        /* \"#utility.yul\":3929:3931   */\n      0x40\n        /* \"#utility.yul\":3918:3927   */\n      dup4\n        /* \"#utility.yul\":3914:3932   */\n      add\n        /* \"#utility.yul\":3907:3955   */\n      mstore\n        /* \"#utility.yul\":3972:4050   */\n      tag_231\n        /* \"#utility.yul\":4045:4049   */\n      dup2\n        /* \"#utility.yul\":4036:4042   */\n      dup9\n        /* \"#utility.yul\":3972:4050   */\n      tag_139\n      jump\t// in\n    tag_231:\n        /* \"#utility.yul\":3964:4050   */\n      swap1\n      pop\n        /* \"#utility.yul\":4060:4132   */\n      tag_232\n        /* \"#utility.yul\":4128:4130   */\n      0x60\n        /* \"#utility.yul\":4117:4126   */\n      dup4\n        /* \"#utility.yul\":4113:4131   */\n      add\n        /* \"#utility.yul\":4104:4110   */\n      dup8\n        /* \"#utility.yul\":4060:4132   */\n      tag_140\n      jump\t// in\n    tag_232:\n        /* \"#utility.yul\":4142:4215   */\n      tag_233\n        /* \"#utility.yul\":4210:4213   */\n      0x80\n        /* \"#utility.yul\":4199:4208   */\n      dup4\n        /* \"#utility.yul\":4195:4214   */\n      add\n        /* \"#utility.yul\":4186:4192   */\n      dup7\n        /* \"#utility.yul\":4142:4215   */\n      tag_140\n      jump\t// in\n    tag_233:\n        /* \"#utility.yul\":4225:4298   */\n      tag_234\n        /* \"#utility.yul\":4293:4296   */\n      0xa0\n        /* \"#utility.yul\":4282:4291   */\n      dup4\n        /* \"#utility.yul\":4278:4297   */\n      add\n        /* \"#utility.yul\":4269:4275   */\n      dup6\n        /* \"#utility.yul\":4225:4298   */\n      tag_140\n      jump\t// in\n    tag_234:\n        /* \"#utility.yul\":4308:4395   */\n      tag_235\n        /* \"#utility.yul\":4390:4393   */\n      0xc0\n        /* \"#utility.yul\":4379:4388   */\n      dup4\n        /* \"#utility.yul\":4375:4394   */\n      add\n        /* \"#utility.yul\":4366:4372   */\n      dup5\n        /* \"#utility.yul\":4308:4395   */\n      tag_144\n      jump\t// in\n    tag_235:\n        /* \"#utility.yul\":3306:4402   */\n      swap9\n      swap8\n      pop\n      pop\n      pop\n      pop\n      pop\n      pop\n      pop\n      pop\n      jump\t// out\n        /* \"#utility.yul\":4408:4630   */\n    tag_29:\n        /* \"#utility.yul\":4501:4505   */\n      0x00\n        /* \"#utility.yul\":4539:4541   */\n      0x20\n        /* \"#utility.yul\":4528:4537   */\n      dup3\n        /* \"#utility.yul\":4524:4542   */\n      add\n        /* \"#utility.yul\":4516:4542   */\n      swap1\n      pop\n        /* \"#utility.yul\":4552:4623   */\n      tag_237\n        /* \"#utility.yul\":4620:4621   */\n      0x00\n        /* \"#utility.yul\":4609:4618   */\n      dup4\n        /* \"#utility.yul\":4605:4622   */\n      add\n        /* \"#utility.yul\":4596:4602   */\n      dup5\n        /* \"#utility.yul\":4552:4623   */\n      tag_140\n      jump\t// in\n    tag_237:\n        /* \"#utility.yul\":4408:4630   */\n      swap3\n      swap2\n      pop\n      pop\n      jump\t// out\n        /* \"#utility.yul\":4636:4858   */\n    tag_42:\n        /* \"#utility.yul\":4729:4733   */\n      0x00\n        /* \"#utility.yul\":4767:4769   */\n      0x20\n        /* \"#utility.yul\":4756:4765   */\n      dup3\n        /* \"#utility.yul\":4752:4770   */\n      add\n        /* \"#utility.yul\":4744:4770   */\n      swap1\n      pop\n        /* \"#utility.yul\":4780:4851   */\n      tag_239\n        /* \"#utility.yul\":4848:4849   */\n      0x00\n        /* \"#utility.yul\":4837:4846   */\n      dup4\n        /* \"#utility.yul\":4833:4850   */\n      add\n        /* \"#utility.yul\":4824:4830   */\n      dup5\n        /* \"#utility.yul\":4780:4851   */\n      tag_134\n      jump\t// in\n    tag_239:\n        /* \"#utility.yul\":4636:4858   */\n      swap3\n      swap2\n      pop\n      pop\n      jump\t// out\n        /* \"#utility.yul\":4864:4981   */\n    tag_145:\n        /* \"#utility.yul\":4973:4974   */\n      0x00\n        /* \"#utility.yul\":4970:4971   */\n      dup1\n        /* \"#utility.yul\":4963:4975   */\n      revert\n        /* \"#utility.yul\":4987:5104   */\n    tag_146:\n        /* \"#utility.yul\":5096:5097   */\n      0x00\n        /* \"#utility.yul\":5093:5094   */\n      dup1\n        /* \"#utility.yul\":5086:5098   */\n      revert\n        /* \"#utility.yul\":5110:5290   */\n    tag_147:\n        /* \"#utility.yul\":5158:5235   */\n      0x4e487b7100000000000000000000000000000000000000000000000000000000\n        /* \"#utility.yul\":5155:5156   */\n      0x00\n        /* \"#utility.yul\":5148:5236   */\n      mstore\n        /* \"#utility.yul\":5255:5259   */\n      0x41\n        /* \"#utility.yul\":5252:5253   */\n      0x04\n        /* \"#utility.yul\":5245:5260   */\n      mstore\n        /* \"#utility.yul\":5279:5283   */\n      0x24\n        /* \"#utility.yul\":5276:5277   */\n      0x00\n        /* \"#utility.yul\":5269:5284   */\n      revert\n        /* \"#utility.yul\":5296:5577   */\n    tag_148:\n        /* \"#utility.yul\":5379:5406   */\n      tag_244\n        /* \"#utility.yul\":5401:5405   */\n      dup3\n        /* \"#utility.yul\":5379:5406   */\n      tag_138\n      jump\t// in\n    tag_244:\n        /* \"#utility.yul\":5371:5377   */\n      dup2\n        /* \"#utility.yul\":5367:5407   */\n      add\n        /* \"#utility.yul\":5509:5515   */\n      dup2\n        /* \"#utility.yul\":5497:5507   */\n      dup2\n        /* \"#utility.yul\":5494:5516   */\n      lt\n        /* \"#utility.yul\":5473:5491   */\n      0xffffffffffffffff\n        /* \"#utility.yul\":5461:5471   */\n      dup3\n        /* \"#utility.yul\":5458:5492   */\n      gt\n        /* \"#utility.yul\":5455:5517   */\n      or\n        /* \"#utility.yul\":5452:5540   */\n      iszero\n      tag_245\n      jumpi\n        /* \"#utility.yul\":5520:5538   */\n      tag_246\n      tag_147\n      jump\t// in\n    tag_246:\n        /* \"#utility.yul\":5452:5540   */\n    tag_245:\n        /* \"#utility.yul\":5560:5570   */\n      dup1\n        /* \"#utility.yul\":5556:5558   */\n      0x40\n        /* \"#utility.yul\":5549:5571   */\n      mstore\n        /* \"#utility.yul\":5339:5577   */\n      pop\n        /* \"#utility.yul\":5296:5577   */\n      pop\n      pop\n      jump\t// out\n        /* \"#utility.yul\":5583:5712   */\n    tag_149:\n        /* \"#utility.yul\":5617:5623   */\n      0x00\n        /* \"#utility.yul\":5644:5664   */\n      tag_248\n      tag_126\n      jump\t// in\n    tag_248:\n        /* \"#utility.yul\":5634:5664   */\n      swap1\n      pop\n        /* \"#utility.yul\":5673:5706   */\n      tag_249\n        /* \"#utility.yul\":5701:5705   */\n      dup3\n        /* \"#utility.yul\":5693:5699   */\n      dup3\n        /* \"#utility.yul\":5673:5706   */\n      tag_148\n      jump\t// in\n    tag_249:\n        /* \"#utility.yul\":5583:5712   */\n      swap2\n      swap1\n      pop\n      jump\t// out\n        /* \"#utility.yul\":5718:6026   */\n    tag_150:\n        /* \"#utility.yul\":5780:5784   */\n      0x00\n        /* \"#utility.yul\":5870:5888   */\n      0xffffffffffffffff\n        /* \"#utility.yul\":5862:5868   */\n      dup3\n        /* \"#utility.yul\":5859:5889   */\n      gt\n        /* \"#utility.yul\":5856:5912   */\n      iszero\n      tag_251\n      jumpi\n        /* \"#utility.yul\":5892:5910   */\n      tag_252\n      tag_147\n      jump\t// in\n    tag_252:\n        /* \"#utility.yul\":5856:5912   */\n    tag_251:\n        /* \"#utility.yul\":5930:5959   */\n      tag_253\n        /* \"#utility.yul\":5952:5958   */\n      dup3\n        /* \"#utility.yul\":5930:5959   */\n      tag_138\n      jump\t// in\n    tag_253:\n        /* \"#utility.yul\":5922:5959   */\n      swap1\n      pop\n        /* \"#utility.yul\":6014:6018   */\n      0x20\n        /* \"#utility.yul\":6008:6012   */\n      dup2\n        /* \"#utility.yul\":6004:6019   */\n      add\n        /* \"#utility.yul\":5996:6019   */\n      swap1\n      pop\n        /* \"#utility.yul\":5718:6026   */\n      swap2\n      swap1\n      pop\n      jump\t// out\n        /* \"#utility.yul\":6032:6178   */\n    tag_151:\n        /* \"#utility.yul\":6129:6135   */\n      dup3\n        /* \"#utility.yul\":6124:6127   */\n      dup2\n        /* \"#utility.yul\":6119:6122   */\n      dup4\n        /* \"#utility.yul\":6106:6136   */\n      calldatacopy\n        /* \"#utility.yul\":6170:6171   */\n      0x00\n        /* \"#utility.yul\":6161:6167   */\n      dup4\n        /* \"#utility.yul\":6156:6159   */\n      dup4\n        /* \"#utility.yul\":6152:6168   */\n      add\n        /* \"#utility.yul\":6145:6172   */\n      mstore\n        /* \"#utility.yul\":6032:6178   */\n      pop\n      pop\n      pop\n      jump\t// out\n        /* \"#utility.yul\":6184:6609   */\n    tag_152:\n        /* \"#utility.yul\":6262:6267   */\n      0x00\n        /* \"#utility.yul\":6287:6353   */\n      tag_256\n        /* \"#utility.yul\":6303:6352   */\n      tag_257\n        /* \"#utility.yul\":6345:6351   */\n      dup5\n        /* \"#utility.yul\":6303:6352   */\n      tag_150\n      jump\t// in\n    tag_257:\n        /* \"#utility.yul\":6287:6353   */\n      tag_149\n      jump\t// in\n    tag_256:\n        /* \"#utility.yul\":6278:6353   */\n      swap1\n      pop\n        /* \"#utility.yul\":6376:6382   */\n      dup3\n        /* \"#utility.yul\":6369:6374   */\n      dup2\n        /* \"#utility.yul\":6362:6383   */\n      mstore\n        /* \"#utility.yul\":6414:6418   */\n      0x20\n        /* \"#utility.yul\":6407:6412   */\n      dup2\n        /* \"#utility.yul\":6403:6419   */\n      add\n        /* \"#utility.yul\":6452:6455   */\n      dup5\n        /* \"#utility.yul\":6443:6449   */\n      dup5\n        /* \"#utility.yul\":6438:6441   */\n      dup5\n        /* \"#utility.yul\":6434:6450   */\n      add\n        /* \"#utility.yul\":6431:6456   */\n      gt\n        /* \"#utility.yul\":6428:6540   */\n      iszero\n      tag_258\n      jumpi\n        /* \"#utility.yul\":6459:6538   */\n      tag_259\n      tag_146\n      jump\t// in\n    tag_259:\n        /* \"#utility.yul\":6428:6540   */\n    tag_258:\n        /* \"#utility.yul\":6549:6603   */\n      tag_260\n        /* \"#utility.yul\":6596:6602   */\n      dup5\n        /* \"#utility.yul\":6591:6594   */\n      dup3\n        /* \"#utility.yul\":6586:6589   */\n      dup6\n        /* \"#utility.yul\":6549:6603   */\n      tag_151\n      jump\t// in\n    tag_260:\n        /* \"#utility.yul\":6268:6609   */\n      pop\n        /* \"#utility.yul\":6184:6609   */\n      swap4\n      swap3\n      pop\n      pop\n      pop\n      jump\t// out\n        /* \"#utility.yul\":6629:6969   */\n    tag_153:\n        /* \"#utility.yul\":6685:6690   */\n      0x00\n        /* \"#utility.yul\":6734:6737   */\n      dup3\n        /* \"#utility.yul\":6727:6731   */\n      0x1f\n        /* \"#utility.yul\":6719:6725   */\n      dup4\n        /* \"#utility.yul\":6715:6732   */\n      add\n        /* \"#utility.yul\":6711:6738   */\n      slt\n        /* \"#utility.yul\":6701:6823   */\n      tag_262\n      jumpi\n        /* \"#utility.yul\":6742:6821   */\n      tag_263\n      tag_145\n      jump\t// in\n    tag_263:\n        /* \"#utility.yul\":6701:6823   */\n    tag_262:\n        /* \"#utility.yul\":6859:6865   */\n      dup2\n        /* \"#utility.yul\":6846:6866   */\n      calldataload\n        /* \"#utility.yul\":6884:6963   */\n      tag_264\n        /* \"#utility.yul\":6959:6962   */\n      dup5\n        /* \"#utility.yul\":6951:6957   */\n      dup3\n        /* \"#utility.yul\":6944:6948   */\n      0x20\n        /* \"#utility.yul\":6936:6942   */\n      dup7\n        /* \"#utility.yul\":6932:6949   */\n      add\n        /* \"#utility.yul\":6884:6963   */\n      tag_152\n      jump\t// in\n    tag_264:\n        /* \"#utility.yul\":6875:6963   */\n      swap2\n      pop\n        /* \"#utility.yul\":6691:6969   */\n      pop\n        /* \"#utility.yul\":6629:6969   */\n      swap3\n      swap2\n      pop\n      pop\n      jump\t// out\n        /* \"#utility.yul\":6975:7954   */\n    tag_46:\n        /* \"#utility.yul\":7072:7078   */\n      0x00\n        /* \"#utility.yul\":7080:7086   */\n      dup1\n        /* \"#utility.yul\":7088:7094   */\n      0x00\n        /* \"#utility.yul\":7137:7139   */\n      0x60\n        /* \"#utility.yul\":7125:7134   */\n      dup5\n        /* \"#utility.yul\":7116:7123   */\n      dup7\n        /* \"#utility.yul\":7112:7135   */\n      sub\n        /* \"#utility.yul\":7108:7140   */\n      slt\n        /* \"#utility.yul\":7105:7224   */\n      iszero\n      tag_266\n      jumpi\n        /* \"#utility.yul\":7143:7222   */\n      tag_267\n      tag_127\n      jump\t// in\n    tag_267:\n        /* \"#utility.yul\":7105:7224   */\n    tag_266:\n        /* \"#utility.yul\":7291:7292   */\n      0x00\n        /* \"#utility.yul\":7280:7289   */\n      dup5\n        /* \"#utility.yul\":7276:7293   */\n      add\n        /* \"#utility.yul\":7263:7294   */\n      calldataload\n        /* \"#utility.yul\":7321:7339   */\n      0xffffffffffffffff\n        /* \"#utility.yul\":7313:7319   */\n      dup2\n        /* \"#utility.yul\":7310:7340   */\n      gt\n        /* \"#utility.yul\":7307:7424   */\n      iszero\n      tag_268\n      jumpi\n        /* \"#utility.yul\":7343:7422   */\n      tag_269\n      tag_128\n      jump\t// in\n    tag_269:\n        /* \"#utility.yul\":7307:7424   */\n    tag_268:\n        /* \"#utility.yul\":7448:7511   */\n      tag_270\n        /* \"#utility.yul\":7503:7510   */\n      dup7\n        /* \"#utility.yul\":7494:7500   */\n      dup3\n        /* \"#utility.yul\":7483:7492   */\n      dup8\n        /* \"#utility.yul\":7479:7501   */\n      add\n        /* \"#utility.yul\":7448:7511   */\n      tag_153\n      jump\t// in\n    tag_270:\n        /* \"#utility.yul\":7438:7511   */\n      swap4\n      pop\n        /* \"#utility.yul\":7234:7521   */\n      pop\n        /* \"#utility.yul\":7588:7590   */\n      0x20\n        /* \"#utility.yul\":7577:7586   */\n      dup5\n        /* \"#utility.yul\":7573:7591   */\n      add\n        /* \"#utility.yul\":7560:7592   */\n      calldataload\n        /* \"#utility.yul\":7619:7637   */\n      0xffffffffffffffff\n        /* \"#utility.yul\":7611:7617   */\n      dup2\n        /* \"#utility.yul\":7608:7638   */\n      gt\n        /* \"#utility.yul\":7605:7722   */\n      iszero\n      tag_271\n      jumpi\n        /* \"#utility.yul\":7641:7720   */\n      tag_272\n      tag_128\n      jump\t// in\n    tag_272:\n        /* \"#utility.yul\":7605:7722   */\n    tag_271:\n        /* \"#utility.yul\":7746:7809   */\n      tag_273\n        /* \"#utility.yul\":7801:7808   */\n      dup7\n        /* \"#utility.yul\":7792:7798   */\n      dup3\n        /* \"#utility.yul\":7781:7790   */\n      dup8\n        /* \"#utility.yul\":7777:7799   */\n      add\n        /* \"#utility.yul\":7746:7809   */\n      tag_153\n      jump\t// in\n    tag_273:\n        /* \"#utility.yul\":7736:7809   */\n      swap3\n      pop\n        /* \"#utility.yul\":7531:7819   */\n      pop\n        /* \"#utility.yul\":7858:7860   */\n      0x40\n        /* \"#utility.yul\":7884:7937   */\n      tag_274\n        /* \"#utility.yul\":7929:7936   */\n      dup7\n        /* \"#utility.yul\":7920:7926   */\n      dup3\n        /* \"#utility.yul\":7909:7918   */\n      dup8\n        /* \"#utility.yul\":7905:7927   */\n      add\n        /* \"#utility.yul\":7884:7937   */\n      tag_131\n      jump\t// in\n    tag_274:\n        /* \"#utility.yul\":7874:7937   */\n      swap2\n      pop\n        /* \"#utility.yul\":7829:7947   */\n      pop\n        /* \"#utility.yul\":6975:7954   */\n      swap3\n      pop\n      swap3\n      pop\n      swap3\n      jump\t// out\n        /* \"#utility.yul\":7960:8140   */\n    tag_154:\n        /* \"#utility.yul\":8008:8085   */\n      0x4e487b7100000000000000000000000000000000000000000000000000000000\n        /* \"#utility.yul\":8005:8006   */\n      0x00\n        /* \"#utility.yul\":7998:8086   */\n      mstore\n        /* \"#utility.yul\":8105:8109   */\n      0x22\n        /* \"#utility.yul\":8102:8103   */\n      0x04\n        /* \"#utility.yul\":8095:8110   */\n      mstore\n        /* \"#utility.yul\":8129:8133   */\n      0x24\n        /* \"#utility.yul\":8126:8127   */\n      0x00\n        /* \"#utility.yul\":8119:8134   */\n      revert\n        /* \"#utility.yul\":8146:8466   */\n    tag_49:\n        /* \"#utility.yul\":8190:8196   */\n      0x00\n        /* \"#utility.yul\":8227:8228   */\n      0x02\n        /* \"#utility.yul\":8221:8225   */\n      dup3\n        /* \"#utility.yul\":8217:8229   */\n      div\n        /* \"#utility.yul\":8207:8229   */\n      swap1\n      pop\n        /* \"#utility.yul\":8274:8275   */\n      0x01\n        /* \"#utility.yul\":8268:8272   */\n      dup3\n        /* \"#utility.yul\":8264:8276   */\n      and\n        /* \"#utility.yul\":8295:8313   */\n      dup1\n        /* \"#utility.yul\":8285:8366   */\n      tag_277\n      jumpi\n        /* \"#utility.yul\":8351:8355   */\n      0x7f\n        /* \"#utility.yul\":8343:8349   */\n      dup3\n        /* \"#utility.yul\":8339:8356   */\n      and\n        /* \"#utility.yul\":8329:8356   */\n      swap2\n      pop\n        /* \"#utility.yul\":8285:8366   */\n    tag_277:\n        /* \"#utility.yul\":8413:8415   */\n      0x20\n        /* \"#utility.yul\":8405:8411   */\n      dup3\n        /* \"#utility.yul\":8402:8416   */\n      lt\n        /* \"#utility.yul\":8382:8400   */\n      dup2\n        /* \"#utility.yul\":8379:8417   */\n      sub\n        /* \"#utility.yul\":8376:8460   */\n      tag_278\n      jumpi\n        /* \"#utility.yul\":8432:8450   */\n      tag_279\n      tag_154\n      jump\t// in\n    tag_279:\n        /* \"#utility.yul\":8376:8460   */\n    tag_278:\n        /* \"#utility.yul\":8197:8466   */\n      pop\n        /* \"#utility.yul\":8146:8466   */\n      swap2\n      swap1\n      pop\n      jump\t// out\n        /* \"#utility.yul\":8472:8644   */\n    tag_155:\n        /* \"#utility.yul\":8612:8636   */\n      0x43616d706169676e206973206e6f742061637469766500000000000000000000\n        /* \"#utility.yul\":8608:8609   */\n      0x00\n        /* \"#utility.yul\":8600:8606   */\n      dup3\n        /* \"#utility.yul\":8596:8610   */\n      add\n        /* \"#utility.yul\":8589:8637   */\n      mstore\n        /* \"#utility.yul\":8472:8644   */\n      pop\n      jump\t// out\n        /* \"#utility.yul\":8650:9016   */\n    tag_156:\n        /* \"#utility.yul\":8792:8795   */\n      0x00\n        /* \"#utility.yul\":8813:8880   */\n      tag_282\n        /* \"#utility.yul\":8877:8879   */\n      0x16\n        /* \"#utility.yul\":8872:8875   */\n      dup4\n        /* \"#utility.yul\":8813:8880   */\n      tag_136\n      jump\t// in\n    tag_282:\n        /* \"#utility.yul\":8806:8880   */\n      swap2\n      pop\n        /* \"#utility.yul\":8889:8982   */\n      tag_283\n        /* \"#utility.yul\":8978:8981   */\n      dup3\n        /* \"#utility.yul\":8889:8982   */\n      tag_155\n      jump\t// in\n    tag_283:\n        /* \"#utility.yul\":9007:9009   */\n      0x20\n        /* \"#utility.yul\":9002:9005   */\n      dup3\n        /* \"#utility.yul\":8998:9010   */\n      add\n        /* \"#utility.yul\":8991:9010   */\n      swap1\n      pop\n        /* \"#utility.yul\":8650:9016   */\n      swap2\n      swap1\n      pop\n      jump\t// out\n        /* \"#utility.yul\":9022:9441   */\n    tag_67:\n        /* \"#utility.yul\":9188:9192   */\n      0x00\n        /* \"#utility.yul\":9226:9228   */\n      0x20\n        /* \"#utility.yul\":9215:9224   */\n      dup3\n        /* \"#utility.yul\":9211:9229   */\n      add\n        /* \"#utility.yul\":9203:9229   */\n      swap1\n      pop\n        /* \"#utility.yul\":9275:9284   */\n      dup2\n        /* \"#utility.yul\":9269:9273   */\n      dup2\n        /* \"#utility.yul\":9265:9285   */\n      sub\n        /* \"#utility.yul\":9261:9262   */\n      0x00\n        /* \"#utility.yul\":9250:9259   */\n      dup4\n        /* \"#utility.yul\":9246:9263   */\n      add\n        /* \"#utility.yul\":9239:9286   */\n      mstore\n        /* \"#utility.yul\":9303:9434   */\n      tag_285\n        /* \"#utility.yul\":9429:9433   */\n      dup2\n        /* \"#utility.yul\":9303:9434   */\n      tag_156\n      jump\t// in\n    tag_285:\n        /* \"#utility.yul\":9295:9434   */\n      swap1\n      pop\n        /* \"#utility.yul\":9022:9441   */\n      swap2\n      swap1\n      pop\n      jump\t// out\n        /* \"#utility.yul\":9447:9676   */\n    tag_157:\n        /* \"#utility.yul\":9587:9621   */\n      0x436f6e747269627574696f6e20616d6f756e74206d7573742062652067726561\n        /* \"#utility.yul\":9583:9584   */\n      0x00\n        /* \"#utility.yul\":9575:9581   */\n      dup3\n        /* \"#utility.yul\":9571:9585   */\n      add\n        /* \"#utility.yul\":9564:9622   */\n      mstore\n        /* \"#utility.yul\":9656:9668   */\n      0x746572207468616e203000000000000000000000000000000000000000000000\n        /* \"#utility.yul\":9651:9653   */\n      0x20\n        /* \"#utility.yul\":9643:9649   */\n      dup3\n        /* \"#utility.yul\":9639:9654   */\n      add\n        /* \"#utility.yul\":9632:9669   */\n      mstore\n        /* \"#utility.yul\":9447:9676   */\n      pop\n      jump\t// out\n        /* \"#utility.yul\":9682:10048   */\n    tag_158:\n        /* \"#utility.yul\":9824:9827   */\n      0x00\n        /* \"#utility.yul\":9845:9912   */\n      tag_288\n        /* \"#utility.yul\":9909:9911   */\n      0x2a\n        /* \"#utility.yul\":9904:9907   */\n      dup4\n        /* \"#utility.yul\":9845:9912   */\n      tag_136\n      jump\t// in\n    tag_288:\n        /* \"#utility.yul\":9838:9912   */\n      swap2\n      pop\n        /* \"#utility.yul\":9921:10014   */\n      tag_289\n        /* \"#utility.yul\":10010:10013   */\n      dup3\n        /* \"#utility.yul\":9921:10014   */\n      tag_157\n      jump\t// in\n    tag_289:\n        /* \"#utility.yul\":10039:10041   */\n      0x40\n        /* \"#utility.yul\":10034:10037   */\n      dup3\n        /* \"#utility.yul\":10030:10042   */\n      add\n        /* \"#utility.yul\":10023:10042   */\n      swap1\n      pop\n        /* \"#utility.yul\":9682:10048   */\n      swap2\n      swap1\n      pop\n      jump\t// out\n        /* \"#utility.yul\":10054:10473   */\n    tag_71:\n        /* \"#utility.yul\":10220:10224   */\n      0x00\n        /* \"#utility.yul\":10258:10260   */\n      0x20\n        /* \"#utility.yul\":10247:10256   */\n      dup3\n        /* \"#utility.yul\":10243:10261   */\n      add\n        /* \"#utility.yul\":10235:10261   */\n      swap1\n      pop\n        /* \"#utility.yul\":10307:10316   */\n      dup2\n        /* \"#utility.yul\":10301:10305   */\n      dup2\n        /* \"#utility.yul\":10297:10317   */\n      sub\n        /* \"#utility.yul\":10293:10294   */\n      0x00\n        /* \"#utility.yul\":10282:10291   */\n      dup4\n        /* \"#utility.yul\":10278:10295   */\n      add\n        /* \"#utility.yul\":10271:10318   */\n      mstore\n        /* \"#utility.yul\":10335:10466   */\n      tag_291\n        /* \"#utility.yul\":10461:10465   */\n      dup2\n        /* \"#utility.yul\":10335:10466   */\n      tag_158\n      jump\t// in\n    tag_291:\n        /* \"#utility.yul\":10327:10466   */\n      swap1\n      pop\n        /* \"#utility.yul\":10054:10473   */\n      swap2\n      swap1\n      pop\n      jump\t// out\n        /* \"#utility.yul\":10479:10659   */\n    tag_159:\n        /* \"#utility.yul\":10527:10604   */\n      0x4e487b7100000000000000000000000000000000000000000000000000000000\n        /* \"#utility.yul\":10524:10525   */\n      0x00\n        /* \"#utility.yul\":10517:10605   */\n      mstore\n        /* \"#utility.yul\":10624:10628   */\n      0x11\n        /* \"#utility.yul\":10621:10622   */\n      0x04\n        /* \"#utility.yul\":10614:10629   */\n      mstore\n        /* \"#utility.yul\":10648:10652   */\n      0x24\n        /* \"#utility.yul\":10645:10646   */\n      0x00\n        /* \"#utility.yul\":10638:10653   */\n      revert\n        /* \"#utility.yul\":10665:10856   */\n    tag_73:\n        /* \"#utility.yul\":10705:10708   */\n      0x00\n        /* \"#utility.yul\":10724:10744   */\n      tag_294\n        /* \"#utility.yul\":10742:10743   */\n      dup3\n        /* \"#utility.yul\":10724:10744   */\n      tag_129\n      jump\t// in\n    tag_294:\n        /* \"#utility.yul\":10719:10744   */\n      swap2\n      pop\n        /* \"#utility.yul\":10758:10778   */\n      tag_295\n        /* \"#utility.yul\":10776:10777   */\n      dup4\n        /* \"#utility.yul\":10758:10778   */\n      tag_129\n      jump\t// in\n    tag_295:\n        /* \"#utility.yul\":10753:10778   */\n      swap3\n      pop\n        /* \"#utility.yul\":10801:10802   */\n      dup3\n        /* \"#utility.yul\":10798:10799   */\n      dup3\n        /* \"#utility.yul\":10794:10803   */\n      add\n        /* \"#utility.yul\":10787:10803   */\n      swap1\n      pop\n        /* \"#utility.yul\":10822:10825   */\n      dup1\n        /* \"#utility.yul\":10819:10820   */\n      dup3\n        /* \"#utility.yul\":10816:10826   */\n      gt\n        /* \"#utility.yul\":10813:10849   */\n      iszero\n      tag_296\n      jumpi\n        /* \"#utility.yul\":10829:10847   */\n      tag_297\n      tag_159\n      jump\t// in\n    tag_297:\n        /* \"#utility.yul\":10813:10849   */\n    tag_296:\n        /* \"#utility.yul\":10665:10856   */\n      swap3\n      swap2\n      pop\n      pop\n      jump\t// out\n        /* \"#utility.yul\":10862:11194   */\n    tag_75:\n        /* \"#utility.yul\":10983:10987   */\n      0x00\n        /* \"#utility.yul\":11021:11023   */\n      0x40\n        /* \"#utility.yul\":11010:11019   */\n      dup3\n        /* \"#utility.yul\":11006:11024   */\n      add\n        /* \"#utility.yul\":10998:11024   */\n      swap1\n      pop\n        /* \"#utility.yul\":11034:11105   */\n      tag_299\n        /* \"#utility.yul\":11102:11103   */\n      0x00\n        /* \"#utility.yul\":11091:11100   */\n      dup4\n        /* \"#utility.yul\":11087:11104   */\n      add\n        /* \"#utility.yul\":11078:11084   */\n      dup6\n        /* \"#utility.yul\":11034:11105   */\n      tag_140\n      jump\t// in\n    tag_299:\n        /* \"#utility.yul\":11115:11187   */\n      tag_300\n        /* \"#utility.yul\":11183:11185   */\n      0x20\n        /* \"#utility.yul\":11172:11181   */\n      dup4\n        /* \"#utility.yul\":11168:11186   */\n      add\n        /* \"#utility.yul\":11159:11165   */\n      dup5\n        /* \"#utility.yul\":11115:11187   */\n      tag_140\n      jump\t// in\n    tag_300:\n        /* \"#utility.yul\":10862:11194   */\n      swap4\n      swap3\n      pop\n      pop\n      pop\n      jump\t// out\n        /* \"#utility.yul\":11200:11376   */\n    tag_160:\n        /* \"#utility.yul\":11340:11368   */\n      0x43616d706169676e206973206e6f7420726566756e6461626c65000000000000\n        /* \"#utility.yul\":11336:11337   */\n      0x00\n        /* \"#utility.yul\":11328:11334   */\n      dup3\n        /* \"#utility.yul\":11324:11338   */\n      add\n        /* \"#utility.yul\":11317:11369   */\n      mstore\n        /* \"#utility.yul\":11200:11376   */\n      pop\n      jump\t// out\n        /* \"#utility.yul\":11382:11748   */\n    tag_161:\n        /* \"#utility.yul\":11524:11527   */\n      0x00\n        /* \"#utility.yul\":11545:11612   */\n      tag_303\n        /* \"#utility.yul\":11609:11611   */\n      0x1a\n        /* \"#utility.yul\":11604:11607   */\n      dup4\n        /* \"#utility.yul\":11545:11612   */\n      tag_136\n      jump\t// in\n    tag_303:\n        /* \"#utility.yul\":11538:11612   */\n      swap2\n      pop\n        /* \"#utility.yul\":11621:11714   */\n      tag_304\n        /* \"#utility.yul\":11710:11713   */\n      dup3\n        /* \"#utility.yul\":11621:11714   */\n      tag_160\n      jump\t// in\n    tag_304:\n        /* \"#utility.yul\":11739:11741   */\n      0x20\n        /* \"#utility.yul\":11734:11737   */\n      dup3\n        /* \"#utility.yul\":11730:11742   */\n      add\n        /* \"#utility.yul\":11723:11742   */\n      swap1\n      pop\n        /* \"#utility.yul\":11382:11748   */\n      swap2\n      swap1\n      pop\n      jump\t// out\n        /* \"#utility.yul\":11754:12173   */\n    tag_87:\n        /* \"#utility.yul\":11920:11924   */\n      0x00\n        /* \"#utility.yul\":11958:11960   */\n      0x20\n        /* \"#utility.yul\":11947:11956   */\n      dup3\n        /* \"#utility.yul\":11943:11961   */\n      add\n        /* \"#utility.yul\":11935:11961   */\n      swap1\n      pop\n        /* \"#utility.yul\":12007:12016   */\n      dup2\n        /* \"#utility.yul\":12001:12005   */\n      dup2\n        /* \"#utility.yul\":11997:12017   */\n      sub\n        /* \"#utility.yul\":11993:11994   */\n      0x00\n        /* \"#utility.yul\":11982:11991   */\n      dup4\n        /* \"#utility.yul\":11978:11995   */\n      add\n        /* \"#utility.yul\":11971:12018   */\n      mstore\n        /* \"#utility.yul\":12035:12166   */\n      tag_306\n        /* \"#utility.yul\":12161:12165   */\n      dup2\n        /* \"#utility.yul\":12035:12166   */\n      tag_161\n      jump\t// in\n    tag_306:\n        /* \"#utility.yul\":12027:12166   */\n      swap1\n      pop\n        /* \"#utility.yul\":11754:12173   */\n      swap2\n      swap1\n      pop\n      jump\t// out\n        /* \"#utility.yul\":12179:12354   */\n    tag_162:\n        /* \"#utility.yul\":12319:12346   */\n      0x43616d706169676e20726561636865642069747320676f616c00000000000000\n        /* \"#utility.yul\":12315:12316   */\n      0x00\n        /* \"#utility.yul\":12307:12313   */\n      dup3\n        /* \"#utility.yul\":12303:12317   */\n      add\n        /* \"#utility.yul\":12296:12347   */\n      mstore\n        /* \"#utility.yul\":12179:12354   */\n      pop\n      jump\t// out\n        /* \"#utility.yul\":12360:12726   */\n    tag_163:\n        /* \"#utility.yul\":12502:12505   */\n      0x00\n        /* \"#utility.yul\":12523:12590   */\n      tag_309\n        /* \"#utility.yul\":12587:12589   */\n      0x19\n        /* \"#utility.yul\":12582:12585   */\n      dup4\n        /* \"#utility.yul\":12523:12590   */\n      tag_136\n      jump\t// in\n    tag_309:\n        /* \"#utility.yul\":12516:12590   */\n      swap2\n      pop\n        /* \"#utility.yul\":12599:12692   */\n      tag_310\n        /* \"#utility.yul\":12688:12691   */\n      dup3\n        /* \"#utility.yul\":12599:12692   */\n      tag_162\n      jump\t// in\n    tag_310:\n        /* \"#utility.yul\":12717:12719   */\n      0x20\n        /* \"#utility.yul\":12712:12715   */\n      dup3\n        /* \"#utility.yul\":12708:12720   */\n      add\n        /* \"#utility.yul\":12701:12720   */\n      swap1\n      pop\n        /* \"#utility.yul\":12360:12726   */\n      swap2\n      swap1\n      pop\n      jump\t// out\n        /* \"#utility.yul\":12732:13151   */\n    tag_91:\n        /* \"#utility.yul\":12898:12902   */\n      0x00\n        /* \"#utility.yul\":12936:12938   */\n      0x20\n        /* \"#utility.yul\":12925:12934   */\n      dup3\n        /* \"#utility.yul\":12921:12939   */\n      add\n        /* \"#utility.yul\":12913:12939   */\n      swap1\n      pop\n        /* \"#utility.yul\":12985:12994   */\n      dup2\n        /* \"#utility.yul\":12979:12983   */\n      dup2\n        /* \"#utility.yul\":12975:12995   */\n      sub\n        /* \"#utility.yul\":12971:12972   */\n      0x00\n        /* \"#utility.yul\":12960:12969   */\n      dup4\n        /* \"#utility.yul\":12956:12973   */\n      add\n        /* \"#utility.yul\":12949:12996   */\n      mstore\n        /* \"#utility.yul\":13013:13144   */\n      tag_312\n        /* \"#utility.yul\":13139:13143   */\n      dup2\n        /* \"#utility.yul\":13013:13144   */\n      tag_163\n      jump\t// in\n    tag_312:\n        /* \"#utility.yul\":13005:13144   */\n      swap1\n      pop\n        /* \"#utility.yul\":12732:13151   */\n      swap2\n      swap1\n      pop\n      jump\t// out\n        /* \"#utility.yul\":13157:13389   */\n    tag_164:\n        /* \"#utility.yul\":13297:13331   */\n      0x4f6e6c79207468652061646d696e6973747261746f722063616e2063616c6c20\n        /* \"#utility.yul\":13293:13294   */\n      0x00\n        /* \"#utility.yul\":13285:13291   */\n      dup3\n        /* \"#utility.yul\":13281:13295   */\n      add\n        /* \"#utility.yul\":13274:13332   */\n      mstore\n        /* \"#utility.yul\":13366:13381   */\n      0x746869732066756e6374696f6e00000000000000000000000000000000000000\n        /* \"#utility.yul\":13361:13363   */\n      0x20\n        /* \"#utility.yul\":13353:13359   */\n      dup3\n        /* \"#utility.yul\":13349:13364   */\n      add\n        /* \"#utility.yul\":13342:13382   */\n      mstore\n        /* \"#utility.yul\":13157:13389   */\n      pop\n      jump\t// out\n        /* \"#utility.yul\":13395:13761   */\n    tag_165:\n        /* \"#utility.yul\":13537:13540   */\n      0x00\n        /* \"#utility.yul\":13558:13625   */\n      tag_315\n        /* \"#utility.yul\":13622:13624   */\n      0x2d\n        /* \"#utility.yul\":13617:13620   */\n      dup4\n        /* \"#utility.yul\":13558:13625   */\n      tag_136\n      jump\t// in\n    tag_315:\n        /* \"#utility.yul\":13551:13625   */\n      swap2\n      pop\n        /* \"#utility.yul\":13634:13727   */\n      tag_316\n        /* \"#utility.yul\":13723:13726   */\n      dup3\n        /* \"#utility.yul\":13634:13727   */\n      tag_164\n      jump\t// in\n    tag_316:\n        /* \"#utility.yul\":13752:13754   */\n      0x40\n        /* \"#utility.yul\":13747:13750   */\n      dup3\n        /* \"#utility.yul\":13743:13755   */\n      add\n        /* \"#utility.yul\":13736:13755   */\n      swap1\n      pop\n        /* \"#utility.yul\":13395:13761   */\n      swap2\n      swap1\n      pop\n      jump\t// out\n        /* \"#utility.yul\":13767:14186   */\n    tag_98:\n        /* \"#utility.yul\":13933:13937   */\n      0x00\n        /* \"#utility.yul\":13971:13973   */\n      0x20\n        /* \"#utility.yul\":13960:13969   */\n      dup3\n        /* \"#utility.yul\":13956:13974   */\n      add\n        /* \"#utility.yul\":13948:13974   */\n      swap1\n      pop\n        /* \"#utility.yul\":14020:14029   */\n      dup2\n        /* \"#utility.yul\":14014:14018   */\n      dup2\n        /* \"#utility.yul\":14010:14030   */\n      sub\n        /* \"#utility.yul\":14006:14007   */\n      0x00\n        /* \"#utility.yul\":13995:14004   */\n      dup4\n        /* \"#utility.yul\":13991:14008   */\n      add\n        /* \"#utility.yul\":13984:14031   */\n      mstore\n        /* \"#utility.yul\":14048:14179   */\n      tag_318\n        /* \"#utility.yul\":14174:14178   */\n      dup2\n        /* \"#utility.yul\":14048:14179   */\n      tag_165\n      jump\t// in\n    tag_318:\n        /* \"#utility.yul\":14040:14179   */\n      swap1\n      pop\n        /* \"#utility.yul\":13767:14186   */\n      swap2\n      swap1\n      pop\n      jump\t// out\n        /* \"#utility.yul\":14192:14367   */\n    tag_166:\n        /* \"#utility.yul\":14332:14359   */\n      0x43616d706169676e206973206e6f7420636f6d706c6574656400000000000000\n        /* \"#utility.yul\":14328:14329   */\n      0x00\n        /* \"#utility.yul\":14320:14326   */\n      dup3\n        /* \"#utility.yul\":14316:14330   */\n      add\n        /* \"#utility.yul\":14309:14360   */\n      mstore\n        /* \"#utility.yul\":14192:14367   */\n      pop\n      jump\t// out\n        /* \"#utility.yul\":14373:14739   */\n    tag_167:\n        /* \"#utility.yul\":14515:14518   */\n      0x00\n        /* \"#utility.yul\":14536:14603   */\n      tag_321\n        /* \"#utility.yul\":14600:14602   */\n      0x19\n        /* \"#utility.yul\":14595:14598   */\n      dup4\n        /* \"#utility.yul\":14536:14603   */\n      tag_136\n      jump\t// in\n    tag_321:\n        /* \"#utility.yul\":14529:14603   */\n      swap2\n      pop\n        /* \"#utility.yul\":14612:14705   */\n      tag_322\n        /* \"#utility.yul\":14701:14704   */\n      dup3\n        /* \"#utility.yul\":14612:14705   */\n      tag_166\n      jump\t// in\n    tag_322:\n        /* \"#utility.yul\":14730:14732   */\n      0x20\n        /* \"#utility.yul\":14725:14728   */\n      dup3\n        /* \"#utility.yul\":14721:14733   */\n      add\n        /* \"#utility.yul\":14714:14733   */\n      swap1\n      pop\n        /* \"#utility.yul\":14373:14739   */\n      swap2\n      swap1\n      pop\n      jump\t// out\n        /* \"#utility.yul\":14745:15164   */\n    tag_106:\n        /* \"#utility.yul\":14911:14915   */\n      0x00\n        /* \"#utility.yul\":14949:14951   */\n      0x20\n        /* \"#utility.yul\":14938:14947   */\n      dup3\n        /* \"#utility.yul\":14934:14952   */\n      add\n        /* \"#utility.yul\":14926:14952   */\n      swap1\n      pop\n        /* \"#utility.yul\":14998:15007   */\n      dup2\n        /* \"#utility.yul\":14992:14996   */\n      dup2\n        /* \"#utility.yul\":14988:15008   */\n      sub\n        /* \"#utility.yul\":14984:14985   */\n      0x00\n        /* \"#utility.yul\":14973:14982   */\n      dup4\n        /* \"#utility.yul\":14969:14986   */\n      add\n        /* \"#utility.yul\":14962:15009   */\n      mstore\n        /* \"#utility.yul\":15026:15157   */\n      tag_324\n        /* \"#utility.yul\":15152:15156   */\n      dup2\n        /* \"#utility.yul\":15026:15157   */\n      tag_167\n      jump\t// in\n    tag_324:\n        /* \"#utility.yul\":15018:15157   */\n      swap1\n      pop\n        /* \"#utility.yul\":14745:15164   */\n      swap2\n      swap1\n      pop\n      jump\t// out\n        /* \"#utility.yul\":15170:15351   */\n    tag_168:\n        /* \"#utility.yul\":15310:15343   */\n      0x43616d706169676e20646964206e6f742072656163682069747320676f616c00\n        /* \"#utility.yul\":15306:15307   */\n      0x00\n        /* \"#utility.yul\":15298:15304   */\n      dup3\n        /* \"#utility.yul\":15294:15308   */\n      add\n        /* \"#utility.yul\":15287:15344   */\n      mstore\n        /* \"#utility.yul\":15170:15351   */\n      pop\n      jump\t// out\n        /* \"#utility.yul\":15357:15723   */\n    tag_169:\n        /* \"#utility.yul\":15499:15502   */\n      0x00\n        /* \"#utility.yul\":15520:15587   */\n      tag_327\n        /* \"#utility.yul\":15584:15586   */\n      0x1f\n        /* \"#utility.yul\":15579:15582   */\n      dup4\n        /* \"#utility.yul\":15520:15587   */\n      tag_136\n      jump\t// in\n    tag_327:\n        /* \"#utility.yul\":15513:15587   */\n      swap2\n      pop\n        /* \"#utility.yul\":15596:15689   */\n      tag_328\n        /* \"#utility.yul\":15685:15688   */\n      dup3\n        /* \"#utility.yul\":15596:15689   */\n      tag_168\n      jump\t// in\n    tag_328:\n        /* \"#utility.yul\":15714:15716   */\n      0x20\n        /* \"#utility.yul\":15709:15712   */\n      dup3\n        /* \"#utility.yul\":15705:15717   */\n      add\n        /* \"#utility.yul\":15698:15717   */\n      swap1\n      pop\n        /* \"#utility.yul\":15357:15723   */\n      swap2\n      swap1\n      pop\n      jump\t// out\n        /* \"#utility.yul\":15729:16148   */\n    tag_110:\n        /* \"#utility.yul\":15895:15899   */\n      0x00\n        /* \"#utility.yul\":15933:15935   */\n      0x20\n        /* \"#utility.yul\":15922:15931   */\n      dup3\n        /* \"#utility.yul\":15918:15936   */\n      add\n        /* \"#utility.yul\":15910:15936   */\n      swap1\n      pop\n        /* \"#utility.yul\":15982:15991   */\n      dup2\n        /* \"#utility.yul\":15976:15980   */\n      dup2\n        /* \"#utility.yul\":15972:15992   */\n      sub\n        /* \"#utility.yul\":15968:15969   */\n      0x00\n        /* \"#utility.yul\":15957:15966   */\n      dup4\n        /* \"#utility.yul\":15953:15970   */\n      add\n        /* \"#utility.yul\":15946:15993   */\n      mstore\n        /* \"#utility.yul\":16010:16141   */\n      tag_330\n        /* \"#utility.yul\":16136:16140   */\n      dup2\n        /* \"#utility.yul\":16010:16141   */\n      tag_169\n      jump\t// in\n    tag_330:\n        /* \"#utility.yul\":16002:16141   */\n      swap1\n      pop\n        /* \"#utility.yul\":15729:16148   */\n      swap2\n      swap1\n      pop\n      jump\t// out\n        /* \"#utility.yul\":16154:16295   */\n    tag_170:\n        /* \"#utility.yul\":16203:16207   */\n      0x00\n        /* \"#utility.yul\":16226:16229   */\n      dup2\n        /* \"#utility.yul\":16218:16229   */\n      swap1\n      pop\n        /* \"#utility.yul\":16249:16252   */\n      dup2\n        /* \"#utility.yul\":16246:16247   */\n      0x00\n        /* \"#utility.yul\":16239:16253   */\n      mstore\n        /* \"#utility.yul\":16283:16287   */\n      0x20\n        /* \"#utility.yul\":16280:16281   */\n      0x00\n        /* \"#utility.yul\":16270:16288   */\n      keccak256\n        /* \"#utility.yul\":16262:16288   */\n      swap1\n      pop\n        /* \"#utility.yul\":16154:16295   */\n      swap2\n      swap1\n      pop\n      jump\t// out\n        /* \"#utility.yul\":16301:16394   */\n    tag_171:\n        /* \"#utility.yul\":16338:16344   */\n      0x00\n        /* \"#utility.yul\":16385:16387   */\n      0x20\n        /* \"#utility.yul\":16380:16382   */\n      0x1f\n        /* \"#utility.yul\":16373:16378   */\n      dup4\n        /* \"#utility.yul\":16369:16383   */\n      add\n        /* \"#utility.yul\":16365:16388   */\n      div\n        /* \"#utility.yul\":16355:16388   */\n      swap1\n      pop\n        /* \"#utility.yul\":16301:16394   */\n      swap2\n      swap1\n      pop\n      jump\t// out\n        /* \"#utility.yul\":16400:16507   */\n    tag_172:\n        /* \"#utility.yul\":16444:16452   */\n      0x00\n        /* \"#utility.yul\":16494:16499   */\n      dup3\n        /* \"#utility.yul\":16488:16492   */\n      dup3\n        /* \"#utility.yul\":16484:16500   */\n      shl\n        /* \"#utility.yul\":16463:16500   */\n      swap1\n      pop\n        /* \"#utility.yul\":16400:16507   */\n      swap3\n      swap2\n      pop\n      pop\n      jump\t// out\n        /* \"#utility.yul\":16513:16906   */\n    tag_173:\n        /* \"#utility.yul\":16582:16588   */\n      0x00\n        /* \"#utility.yul\":16632:16633   */\n      0x08\n        /* \"#utility.yul\":16620:16630   */\n      dup4\n        /* \"#utility.yul\":16616:16634   */\n      mul\n        /* \"#utility.yul\":16655:16752   */\n      tag_335\n        /* \"#utility.yul\":16685:16751   */\n      0xffffffffffffffffffffffffffffffffffffffffffffffffffffffffffffffff\n        /* \"#utility.yul\":16674:16683   */\n      dup3\n        /* \"#utility.yul\":16655:16752   */\n      tag_172\n      jump\t// in\n    tag_335:\n        /* \"#utility.yul\":16773:16812   */\n      tag_336\n        /* \"#utility.yul\":16803:16811   */\n      dup7\n        /* \"#utility.yul\":16792:16801   */\n      dup4\n        /* \"#utility.yul\":16773:16812   */\n      tag_172\n      jump\t// in\n    tag_336:\n        /* \"#utility.yul\":16761:16812   */\n      swap6\n      pop\n        /* \"#utility.yul\":16845:16849   */\n      dup1\n        /* \"#utility.yul\":16841:16850   */\n      not\n        /* \"#utility.yul\":16834:16839   */\n      dup5\n        /* \"#utility.yul\":16830:16851   */\n      and\n        /* \"#utility.yul\":16821:16851   */\n      swap4\n      pop\n        /* \"#utility.yul\":16894:16898   */\n      dup1\n        /* \"#utility.yul\":16884:16892   */\n      dup7\n        /* \"#utility.yul\":16880:16899   */\n      and\n        /* \"#utility.yul\":16873:16878   */\n      dup5\n        /* \"#utility.yul\":16870:16900   */\n      or\n        /* \"#utility.yul\":16860:16900   */\n      swap3\n      pop\n        /* \"#utility.yul\":16589:16906   */\n      pop\n      pop\n        /* \"#utility.yul\":16513:16906   */\n      swap4\n      swap3\n      pop\n      pop\n      pop\n      jump\t// out\n        /* \"#utility.yul\":16912:16972   */\n    tag_174:\n        /* \"#utility.yul\":16940:16943   */\n      0x00\n        /* \"#utility.yul\":16961:16966   */\n      dup2\n        /* \"#utility.yul\":16954:16966   */\n      swap1\n      pop\n        /* \"#utility.yul\":16912:16972   */\n      swap2\n      swap1\n      pop\n      jump\t// out\n        /* \"#utility.yul\":16978:17120   */\n    tag_175:\n        /* \"#utility.yul\":17028:17037   */\n      0x00\n        /* \"#utility.yul\":17061:17114   */\n      tag_339\n        /* \"#utility.yul\":17079:17113   */\n      tag_340\n        /* \"#utility.yul\":17088:17112   */\n      tag_341\n        /* \"#utility.yul\":17106:17111   */\n      dup5\n        /* \"#utility.yul\":17088:17112   */\n      tag_129\n      jump\t// in\n    tag_341:\n        /* \"#utility.yul\":17079:17113   */\n      tag_174\n      jump\t// in\n    tag_340:\n        /* \"#utility.yul\":17061:17114   */\n      tag_129\n      jump\t// in\n    tag_339:\n        /* \"#utility.yul\":17048:17114   */\n      swap1\n      pop\n        /* \"#utility.yul\":16978:17120   */\n      swap2\n      swap1\n      pop\n      jump\t// out\n        /* \"#utility.yul\":17126:17201   */\n    tag_176:\n        /* \"#utility.yul\":17169:17172   */\n      0x00\n        /* \"#utility.yul\":17190:17195   */\n      dup2\n        /* \"#utility.yul\":17183:17195   */\n      swap1\n      pop\n        /* \"#utility.yul\":17126:17201   */\n      swap2\n      swap1\n      pop\n      jump\t// out\n        /* \"#utility.yul\":17207:17476   */\n    tag_177:\n        /* \"#utility.yul\":17317:17356   */\n      tag_344\n        /* \"#utility.yul\":17348:17355   */\n      dup4\n        /* \"#utility.yul\":17317:17356   */\n      tag_175\n      jump\t// in\n    tag_344:\n        /* \"#utility.yul\":17378:17469   */\n      tag_345\n        /* \"#utility.yul\":17427:17468   */\n      tag_346\n        /* \"#utility.yul\":17451:17467   */\n      dup3\n        /* \"#utility.yul\":17427:17468   */\n      tag_176\n      jump\t// in\n    tag_346:\n        /* \"#utility.yul\":17419:17425   */\n      dup5\n        /* \"#utility.yul\":17412:17416   */\n      dup5\n        /* \"#utility.yul\":17406:17417   */\n      sload\n        /* \"#utility.yul\":17378:17469   */\n      tag_173\n      jump\t// in\n    tag_345:\n        /* \"#utility.yul\":17372:17376   */\n      dup3\n        /* \"#utility.yul\":17365:17470   */\n      sstore\n        /* \"#utility.yul\":17283:17476   */\n      pop\n        /* \"#utility.yul\":17207:17476   */\n      pop\n      pop\n      pop\n      jump\t// out\n        /* \"#utility.yul\":17482:17555   */\n    tag_178:\n        /* \"#utility.yul\":17527:17530   */\n      0x00\n        /* \"#utility.yul\":17482:17555   */\n      swap1\n      jump\t// out\n        /* \"#utility.yul\":17561:17750   */\n    tag_179:\n        /* \"#utility.yul\":17638:17670   */\n      tag_349\n      tag_178\n      jump\t// in\n    tag_349:\n        /* \"#utility.yul\":17679:17744   */\n      tag_350\n        /* \"#utility.yul\":17737:17743   */\n      dup2\n        /* \"#utility.yul\":17729:17735   */\n      dup5\n        /* \"#utility.yul\":17723:17727   */\n      dup5\n        /* \"#utility.yul\":17679:17744   */\n      tag_177\n      jump\t// in\n    tag_350:\n        /* \"#utility.yul\":17614:17750   */\n      pop\n        /* \"#utility.yul\":17561:17750   */\n      pop\n      pop\n      jump\t// out\n        /* \"#utility.yul\":17756:17942   */\n    tag_180:\n        /* \"#utility.yul\":17816:17936   */\n    tag_352:\n        /* \"#utility.yul\":17833:17836   */\n      dup2\n        /* \"#utility.yul\":17826:17831   */\n      dup2\n        /* \"#utility.yul\":17823:17837   */\n      lt\n        /* \"#utility.yul\":17816:17936   */\n      iszero\n      tag_354\n      jumpi\n        /* \"#utility.yul\":17887:17926   */\n      tag_355\n        /* \"#utility.yul\":17924:17925   */\n      0x00\n        /* \"#utility.yul\":17917:17922   */\n      dup3\n        /* \"#utility.yul\":17887:17926   */\n      tag_179\n      jump\t// in\n    tag_355:\n        /* \"#utility.yul\":17860:17861   */\n      0x01\n        /* \"#utility.yul\":17853:17858   */\n      dup2\n        /* \"#utility.yul\":17849:17862   */\n      add\n        /* \"#utility.yul\":17840:17862   */\n      swap1\n      pop\n        /* \"#utility.yul\":17816:17936   */\n      jump(tag_352)\n    tag_354:\n        /* \"#utility.yul\":17756:17942   */\n      pop\n      pop\n      jump\t// out\n        /* \"#utility.yul\":17948:18491   */\n    tag_181:\n        /* \"#utility.yul\":18049:18051   */\n      0x1f\n        /* \"#utility.yul\":18044:18047   */\n      dup3\n        /* \"#utility.yul\":18041:18052   */\n      gt\n        /* \"#utility.yul\":18038:18484   */\n      iszero\n      tag_357\n      jumpi\n        /* \"#utility.yul\":18083:18121   */\n      tag_358\n        /* \"#utility.yul\":18115:18120   */\n      dup2\n        /* \"#utility.yul\":18083:18121   */\n      tag_170\n      jump\t// in\n    tag_358:\n        /* \"#utility.yul\":18167:18196   */\n      tag_359\n        /* \"#utility.yul\":18185:18195   */\n      dup5\n        /* \"#utility.yul\":18167:18196   */\n      tag_171\n      jump\t// in\n    tag_359:\n        /* \"#utility.yul\":18157:18165   */\n      dup2\n        /* \"#utility.yul\":18153:18197   */\n      add\n        /* \"#utility.yul\":18350:18352   */\n      0x20\n        /* \"#utility.yul\":18338:18348   */\n      dup6\n        /* \"#utility.yul\":18335:18353   */\n      lt\n        /* \"#utility.yul\":18332:18381   */\n      iszero\n      tag_360\n      jumpi\n        /* \"#utility.yul\":18371:18379   */\n      dup2\n        /* \"#utility.yul\":18356:18379   */\n      swap1\n      pop\n        /* \"#utility.yul\":18332:18381   */\n    tag_360:\n        /* \"#utility.yul\":18394:18474   */\n      tag_361\n        /* \"#utility.yul\":18450:18472   */\n      tag_362\n        /* \"#utility.yul\":18468:18471   */\n      dup6\n        /* \"#utility.yul\":18450:18472   */\n      tag_171\n      jump\t// in\n    tag_362:\n        /* \"#utility.yul\":18440:18448   */\n      dup4\n        /* \"#utility.yul\":18436:18473   */\n      add\n        /* \"#utility.yul\":18423:18434   */\n      dup3\n        /* \"#utility.yul\":18394:18474   */\n      tag_180\n      jump\t// in\n    tag_361:\n        /* \"#utility.yul\":18053:18484   */\n      pop\n      pop\n        /* \"#utility.yul\":18038:18484   */\n    tag_357:\n        /* \"#utility.yul\":17948:18491   */\n      pop\n      pop\n      pop\n      jump\t// out\n        /* \"#utility.yul\":18497:18614   */\n    tag_182:\n        /* \"#utility.yul\":18551:18559   */\n      0x00\n        /* \"#utility.yul\":18601:18606   */\n      dup3\n        /* \"#utility.yul\":18595:18599   */\n      dup3\n        /* \"#utility.yul\":18591:18607   */\n      shr\n        /* \"#utility.yul\":18570:18607   */\n      swap1\n      pop\n        /* \"#utility.yul\":18497:18614   */\n      swap3\n      swap2\n      pop\n      pop\n      jump\t// out\n        /* \"#utility.yul\":18620:18789   */\n    tag_183:\n        /* \"#utility.yul\":18664:18670   */\n      0x00\n        /* \"#utility.yul\":18697:18748   */\n      tag_365\n        /* \"#utility.yul\":18745:18746   */\n      0x00\n        /* \"#utility.yul\":18741:18747   */\n      not\n        /* \"#utility.yul\":18733:18738   */\n      dup5\n        /* \"#utility.yul\":18730:18731   */\n      0x08\n        /* \"#utility.yul\":18726:18739   */\n      mul\n        /* \"#utility.yul\":18697:18748   */\n      tag_182\n      jump\t// in\n    tag_365:\n        /* \"#utility.yul\":18693:18749   */\n      not\n        /* \"#utility.yul\":18778:18782   */\n      dup1\n        /* \"#utility.yul\":18772:18776   */\n      dup4\n        /* \"#utility.yul\":18768:18783   */\n      and\n        /* \"#utility.yul\":18758:18783   */\n      swap2\n      pop\n        /* \"#utility.yul\":18671:18789   */\n      pop\n        /* \"#utility.yul\":18620:18789   */\n      swap3\n      swap2\n      pop\n      pop\n      jump\t// out\n        /* \"#utility.yul\":18794:19089   */\n    tag_184:\n        /* \"#utility.yul\":18870:18874   */\n      0x00\n        /* \"#utility.yul\":19016:19045   */\n      tag_367\n        /* \"#utility.yul\":19041:19044   */\n      dup4\n        /* \"#utility.yul\":19035:19039   */\n      dup4\n        /* \"#utility.yul\":19016:19045   */\n      tag_183\n      jump\t// in\n    tag_367:\n        /* \"#utility.yul\":19008:19045   */\n      swap2\n      pop\n        /* \"#utility.yul\":19078:19081   */\n      dup3\n        /* \"#utility.yul\":19075:19076   */\n      0x02\n        /* \"#utility.yul\":19071:19082   */\n      mul\n        /* \"#utility.yul\":19065:19069   */\n      dup3\n        /* \"#utility.yul\":19062:19083   */\n      or\n        /* \"#utility.yul\":19054:19083   */\n      swap1\n      pop\n        /* \"#utility.yul\":18794:19089   */\n      swap3\n      swap2\n      pop\n      pop\n      jump\t// out\n        /* \"#utility.yul\":19094:20489   */\n    tag_118:\n        /* \"#utility.yul\":19211:19248   */\n      tag_369\n        /* \"#utility.yul\":19244:19247   */\n      dup3\n        /* \"#utility.yul\":19211:19248   */\n      tag_135\n      jump\t// in\n    tag_369:\n        /* \"#utility.yul\":19313:19331   */\n      0xffffffffffffffff\n        /* \"#utility.yul\":19305:19311   */\n      dup2\n        /* \"#utility.yul\":19302:19332   */\n      gt\n        /* \"#utility.yul\":19299:19355   */\n      iszero\n      tag_370\n      jumpi\n        /* \"#utility.yul\":19335:19353   */\n      tag_371\n      tag_147\n      jump\t// in\n    tag_371:\n        /* \"#utility.yul\":19299:19355   */\n    tag_370:\n        /* \"#utility.yul\":19379:19417   */\n      tag_372\n        /* \"#utility.yul\":19411:19415   */\n      dup3\n        /* \"#utility.yul\":19405:19416   */\n      sload\n        /* \"#utility.yul\":19379:19417   */\n      tag_49\n      jump\t// in\n    tag_372:\n        /* \"#utility.yul\":19464:19531   */\n      tag_373\n        /* \"#utility.yul\":19524:19530   */\n      dup3\n        /* \"#utility.yul\":19516:19522   */\n      dup3\n        /* \"#utility.yul\":19510:19514   */\n      dup6\n        /* \"#utility.yul\":19464:19531   */\n      tag_181\n      jump\t// in\n    tag_373:\n        /* \"#utility.yul\":19558:19559   */\n      0x00\n        /* \"#utility.yul\":19582:19586   */\n      0x20\n        /* \"#utility.yul\":19569:19586   */\n      swap1\n      pop\n        /* \"#utility.yul\":19614:19616   */\n      0x1f\n        /* \"#utility.yul\":19606:19612   */\n      dup4\n        /* \"#utility.yul\":19603:19617   */\n      gt\n        /* \"#utility.yul\":19631:19632   */\n      0x01\n        /* \"#utility.yul\":19626:20244   */\n      dup2\n      eq\n      tag_375\n      jumpi\n        /* \"#utility.yul\":20288:20289   */\n      0x00\n        /* \"#utility.yul\":20305:20311   */\n      dup5\n        /* \"#utility.yul\":20302:20379   */\n      iszero\n      tag_376\n      jumpi\n        /* \"#utility.yul\":20354:20363   */\n      dup3\n        /* \"#utility.yul\":20349:20352   */\n      dup8\n        /* \"#utility.yul\":20345:20364   */\n      add\n        /* \"#utility.yul\":20339:20365   */\n      mload\n        /* \"#utility.yul\":20330:20365   */\n      swap1\n      pop\n        /* \"#utility.yul\":20302:20379   */\n    tag_376:\n        /* \"#utility.yul\":20405:20472   */\n      tag_377\n        /* \"#utility.yul\":20465:20471   */\n      dup6\n        /* \"#utility.yul\":20458:20463   */\n      dup3\n        /* \"#utility.yul\":20405:20472   */\n      tag_184\n      jump\t// in\n    tag_377:\n        /* \"#utility.yul\":20399:20403   */\n      dup7\n        /* \"#utility.yul\":20392:20473   */\n      sstore\n        /* \"#utility.yul\":20261:20483   */\n      pop\n        /* \"#utility.yul\":19596:20483   */\n      jump(tag_374)\n        /* \"#utility.yul\":19626:20244   */\n    tag_375:\n        /* \"#utility.yul\":19678:19682   */\n      0x1f\n        /* \"#utility.yul\":19674:19683   */\n      not\n        /* \"#utility.yul\":19666:19672   */\n      dup5\n        /* \"#utility.yul\":19662:19684   */\n      and\n        /* \"#utility.yul\":19712:19749   */\n      tag_378\n        /* \"#utility.yul\":19744:19748   */\n      dup7\n        /* \"#utility.yul\":19712:19749   */\n      tag_170\n      jump\t// in\n    tag_378:\n        /* \"#utility.yul\":19771:19772   */\n      0x00\n        /* \"#utility.yul\":19785:19993   */\n    tag_379:\n        /* \"#utility.yul\":19799:19806   */\n      dup3\n        /* \"#utility.yul\":19796:19797   */\n      dup2\n        /* \"#utility.yul\":19793:19807   */\n      lt\n        /* \"#utility.yul\":19785:19993   */\n      iszero\n      tag_381\n      jumpi\n        /* \"#utility.yul\":19878:19887   */\n      dup5\n        /* \"#utility.yul\":19873:19876   */\n      dup10\n        /* \"#utility.yul\":19869:19888   */\n      add\n        /* \"#utility.yul\":19863:19889   */\n      mload\n        /* \"#utility.yul\":19855:19861   */\n      dup3\n        /* \"#utility.yul\":19848:19890   */\n      sstore\n        /* \"#utility.yul\":19929:19930   */\n      0x01\n        /* \"#utility.yul\":19921:19927   */\n      dup3\n        /* \"#utility.yul\":19917:19931   */\n      add\n        /* \"#utility.yul\":19907:19931   */\n      swap2\n      pop\n        /* \"#utility.yul\":19976:19978   */\n      0x20\n        /* \"#utility.yul\":19965:19974   */\n      dup6\n        /* \"#utility.yul\":19961:19979   */\n      add\n        /* \"#utility.yul\":19948:19979   */\n      swap5\n      pop\n        /* \"#utility.yul\":19822:19826   */\n      0x20\n        /* \"#utility.yul\":19819:19820   */\n      dup2\n        /* \"#utility.yul\":19815:19827   */\n      add\n        /* \"#utility.yul\":19810:19827   */\n      swap1\n      pop\n        /* \"#utility.yul\":19785:19993   */\n      jump(tag_379)\n    tag_381:\n        /* \"#utility.yul\":20021:20027   */\n      dup7\n        /* \"#utility.yul\":20012:20019   */\n      dup4\n        /* \"#utility.yul\":20009:20028   */\n      lt\n        /* \"#utility.yul\":20006:20185   */\n      iszero\n      tag_382\n      jumpi\n        /* \"#utility.yul\":20079:20088   */\n      dup5\n        /* \"#utility.yul\":20074:20077   */\n      dup10\n        /* \"#utility.yul\":20070:20089   */\n      add\n        /* \"#utility.yul\":20064:20090   */\n      mload\n        /* \"#utility.yul\":20122:20170   */\n      tag_383\n        /* \"#utility.yul\":20164:20168   */\n      0x1f\n        /* \"#utility.yul\":20156:20162   */\n      dup10\n        /* \"#utility.yul\":20152:20169   */\n      and\n        /* \"#utility.yul\":20141:20150   */\n      dup3\n        /* \"#utility.yul\":20122:20170   */\n      tag_183\n      jump\t// in\n    tag_383:\n        /* \"#utility.yul\":20114:20120   */\n      dup4\n        /* \"#utility.yul\":20107:20171   */\n      sstore\n        /* \"#utility.yul\":20029:20185   */\n      pop\n        /* \"#utility.yul\":20006:20185   */\n    tag_382:\n        /* \"#utility.yul\":20231:20232   */\n      0x01\n        /* \"#utility.yul\":20227:20228   */\n      0x02\n        /* \"#utility.yul\":20219:20225   */\n      dup9\n        /* \"#utility.yul\":20215:20229   */\n      mul\n        /* \"#utility.yul\":20211:20233   */\n      add\n        /* \"#utility.yul\":20205:20209   */\n      dup9\n        /* \"#utility.yul\":20198:20234   */\n      sstore\n        /* \"#utility.yul\":19633:20244   */\n      pop\n      pop\n      pop\n        /* \"#utility.yul\":19596:20483   */\n    tag_374:\n      pop\n        /* \"#utility.yul\":19186:20489   */\n      pop\n      pop\n      pop\n        /* \"#utility.yul\":19094:20489   */\n      pop\n      pop\n      jump\t// out\n        /* \"#utility.yul\":20495:21139   */\n    tag_123:\n        /* \"#utility.yul\":20692:20696   */\n      0x00\n        /* \"#utility.yul\":20730:20733   */\n      0x80\n        /* \"#utility.yul\":20719:20728   */\n      dup3\n        /* \"#utility.yul\":20715:20734   */\n      add\n        /* \"#utility.yul\":20707:20734   */\n      swap1\n      pop\n        /* \"#utility.yul\":20744:20815   */\n      tag_385\n        /* \"#utility.yul\":20812:20813   */\n      0x00\n        /* \"#utility.yul\":20801:20810   */\n      dup4\n        /* \"#utility.yul\":20797:20814   */\n      add\n        /* \"#utility.yul\":20788:20794   */\n      dup8\n        /* \"#utility.yul\":20744:20815   */\n      tag_140\n      jump\t// in\n    tag_385:\n        /* \"#utility.yul\":20862:20871   */\n      dup2\n        /* \"#utility.yul\":20856:20860   */\n      dup2\n        /* \"#utility.yul\":20852:20872   */\n      sub\n        /* \"#utility.yul\":20847:20849   */\n      0x20\n        /* \"#utility.yul\":20836:20845   */\n      dup4\n        /* \"#utility.yul\":20832:20850   */\n      add\n        /* \"#utility.yul\":20825:20873   */\n      mstore\n        /* \"#utility.yul\":20890:20968   */\n      tag_386\n        /* \"#utility.yul\":20963:20967   */\n      dup2\n        /* \"#utility.yul\":20954:20960   */\n      dup7\n        /* \"#utility.yul\":20890:20968   */\n      tag_139\n      jump\t// in\n    tag_386:\n        /* \"#utility.yul\":20882:20968   */\n      swap1\n      pop\n        /* \"#utility.yul\":20978:21050   */\n      tag_387\n        /* \"#utility.yul\":21046:21048   */\n      0x40\n        /* \"#utility.yul\":21035:21044   */\n      dup4\n        /* \"#utility.yul\":21031:21049   */\n      add\n        /* \"#utility.yul\":21022:21028   */\n      dup6\n        /* \"#utility.yul\":20978:21050   */\n      tag_140\n      jump\t// in\n    tag_387:\n        /* \"#utility.yul\":21060:21132   */\n      tag_388\n        /* \"#utility.yul\":21128:21130   */\n      0x60\n        /* \"#utility.yul\":21117:21126   */\n      dup4\n        /* \"#utility.yul\":21113:21131   */\n      add\n        /* \"#utility.yul\":21104:21110   */\n      dup5\n        /* \"#utility.yul\":21060:21132   */\n      tag_140\n      jump\t// in\n    tag_388:\n        /* \"#utility.yul\":20495:21139   */\n      swap6\n      swap5\n      pop\n      pop\n      pop\n      pop\n      pop\n      jump\t// out\n        /* \"#utility.yul\":21145:21378   */\n    tag_125:\n        /* \"#utility.yul\":21184:21187   */\n      0x00\n        /* \"#utility.yul\":21207:21231   */\n      tag_390\n        /* \"#utility.yul\":21225:21230   */\n      dup3\n        /* \"#utility.yul\":21207:21231   */\n      tag_129\n      jump\t// in\n    tag_390:\n        /* \"#utility.yul\":21198:21231   */\n      swap2\n      pop\n        /* \"#utility.yul\":21253:21319   */\n      0xffffffffffffffffffffffffffffffffffffffffffffffffffffffffffffffff\n        /* \"#utility.yul\":21246:21251   */\n      dup3\n        /* \"#utility.yul\":21243:21320   */\n      sub\n        /* \"#utility.yul\":21240:21343   */\n      tag_391\n      jumpi\n        /* \"#utility.yul\":21323:21341   */\n      tag_392\n      tag_159\n      jump\t// in\n    tag_392:\n        /* \"#utility.yul\":21240:21343   */\n    tag_391:\n        /* \"#utility.yul\":21370:21371   */\n      0x01\n        /* \"#utility.yul\":21363:21368   */\n      dup3\n        /* \"#utility.yul\":21359:21372   */\n      add\n        /* \"#utility.yul\":21352:21372   */\n      swap1\n      pop\n        /* \"#utility.yul\":21145:21378   */\n      swap2\n      swap1\n      pop\n      jump\t// out\n\n    auxdata: 0xa2646970667358221220f135f5ee95a0e0b1453ebafa308aac1d25310f09b80d5405556bd2919537994e64736f6c63430008160033\n}\n",
				"bytecode": {
					"linkReferences": {},
					"object": "608060405234801562000010575f80fd5b506040516200174c3803806200174c8339818101604052810190620000369190620000bf565b335f806101000a81548173ffffffffffffffffffffffffffffffffffffffff021916908373ffffffffffffffffffffffffffffffffffffffff1602179055508060018190555050620000ef565b5f80fd5b5f819050919050565b6200009b8162000087565b8114620000a6575f80fd5b50565b5f81519050620000b98162000090565b92915050565b5f60208284031215620000d757620000d662000083565b5b5f620000e684828501620000a9565b91505092915050565b61164f80620000fd5f395ff3fe60806040526004361061007a575f3560e01c80639553f1801161004d5780639553f1801461012e578063ba71ae9f14610156578063f851a44014610180578063ffa56a57146101aa5761007a565b8063141961bc1461007e57806348a05132146100c05780635b7baf64146100dc5780637903a75614610104575b5f80fd5b348015610089575f80fd5b506100a4600480360381019061009f9190610b3d565b6101d2565b6040516100b79796959493929190610cb3565b60405180910390f35b6100da60048036038101906100d59190610b3d565b610347565b005b3480156100e7575f80fd5b5061010260048036038101906100fd9190610b3d565b610531565b005b34801561010f575f80fd5b506101186106ec565b6040516101259190610d2e565b60405180910390f35b348015610139575f80fd5b50610154600480360381019061014f9190610b3d565b6106f2565b005b348015610161575f80fd5b5061016a61091e565b6040516101779190610d2e565b60405180910390f35b34801561018b575f80fd5b50610194610924565b6040516101a19190610d47565b60405180910390f35b3480156101b5575f80fd5b506101d060048036038101906101cb9190610e8c565b610947565b005b6002602052805f5260405f205f91509050805f015f9054906101000a900473ffffffffffffffffffffffffffffffffffffffff169080600101805461021690610f41565b80601f016020809104026020016040519081016040528092919081815260200182805461024290610f41565b801561028d5780601f106102645761010080835404028352916020019161028d565b820191905f5260205f20905b81548152906001019060200180831161027057829003601f168201915b5050505050908060020180546102a290610f41565b80601f01602080910402602001604051908101604052809291908181526020018280546102ce90610f41565b80156103195780601f106102f057610100808354040283529160200191610319565b820191905f5260205f20905b8154815290600101906020018083116102fc57829003601f168201915b505050505090806003015490806004015490806005015490806006015f9054906101000a900460ff16905087565b805f600281111561035b5761035a610c40565b5b60025f8381526020019081526020015f206006015f9054906101000a900460ff16600281111561038e5761038d610c40565b5b146103ce576040517f08c379a00000000000000000000000000000000000000000000000000000000081526004016103c590610fbb565b60405180910390fd5b5f3411610410576040517f08c379a000000000000000000000000000000000000000000000000000000000815260040161040790611049565b60405180910390fd5b3460025f8481526020019081526020015f206004015f8282546104339190611094565b925050819055503373ffffffffffffffffffffffffffffffffffffffff167fb5c5ea1a898780d7e2fa7e4b8ec6d8ba4fdcf3be360bb5e76ae40e4769053a1983346040516104829291906110c7565b60405180910390a260025f8381526020019081526020015f206003015460025f8481526020019081526020015f20600401541061052d57600160025f8481526020019081526020015f206006015f6101000a81548160ff021916908360028111156104f0576104ef610c40565b5b02179055507fbdef6a2e3aa892961a2dab48272f72f2bc1c7121eb1c0ed7e4a58e081c1e4be0826040516105249190610d2e565b60405180910390a15b5050565b8060028081111561054557610544610c40565b5b60025f8381526020019081526020015f206006015f9054906101000a900460ff16600281111561057857610577610c40565b5b146105b8576040517f08c379a00000000000000000000000000000000000000000000000000000000081526004016105af90611138565b60405180910390fd5b60025f8381526020019081526020015f206003015460025f8481526020019081526020015f206004015410610622576040517f08c379a0000000000000000000000000000000000000000000000000000000008152600401610619906111a0565b60405180910390fd5b5f60025f8481526020019081526020015f206004015490505f60025f8581526020019081526020015f20600401819055503373ffffffffffffffffffffffffffffffffffffffff166108fc8290811502906040515f60405180830381858888f19350505050158015610696573d5f803e3d5ffd5b503373ffffffffffffffffffffffffffffffffffffffff167ff3f402280ef0a7905e124aa621b65eaeb2725c343e8b36d398ed78c29daf285c84836040516106df9291906110c7565b60405180910390a2505050565b60035481565b5f8054906101000a900473ffffffffffffffffffffffffffffffffffffffff1673ffffffffffffffffffffffffffffffffffffffff163373ffffffffffffffffffffffffffffffffffffffff161461077f576040517f08c379a00000000000000000000000000000000000000000000000000000000081526004016107769061122e565b60405180910390fd5b806001600281111561079457610793610c40565b5b60025f8381526020019081526020015f206006015f9054906101000a900460ff1660028111156107c7576107c6610c40565b5b14610807576040517f08c379a00000000000000000000000000000000000000000000000000000000081526004016107fe90611296565b60405180910390fd5b60025f8381526020019081526020015f206003015460025f8481526020019081526020015f20600401541015610872576040517f08c379a0000000000000000000000000000000000000000000000000000000008152600401610869906112fe565b60405180910390fd5b5f60025f8481526020019081526020015f206004015490505f60025f8581526020019081526020015f206004018190555060025f8481526020019081526020015f205f015f9054906101000a900473ffffffffffffffffffffffffffffffffffffffff1673ffffffffffffffffffffffffffffffffffffffff166108fc8290811502906040515f60405180830381858888f19350505050158015610918573d5f803e3d5ffd5b50505050565b60015481565b5f8054906101000a900473ffffffffffffffffffffffffffffffffffffffff1681565b5f600154426109569190611094565b90506040518060e001604052803373ffffffffffffffffffffffffffffffffffffffff1681526020018581526020018481526020018381526020015f81526020018281526020015f60028111156109b0576109af610c40565b5b81525060025f60035481526020019081526020015f205f820151815f015f6101000a81548173ffffffffffffffffffffffffffffffffffffffff021916908373ffffffffffffffffffffffffffffffffffffffff1602179055506020820151816001019081610a1f91906114b9565b506040820151816002019081610a3591906114b9565b50606082015181600301556080820151816004015560a0820151816005015560c0820151816006015f6101000a81548160ff02191690836002811115610a7e57610a7d610c40565b5b02179055509050503373ffffffffffffffffffffffffffffffffffffffff167fdc26653af5b99b2da33e2ad69ee6600d9aeccc82b034501db4338309615ca238600354868585604051610ad49493929190611588565b60405180910390a260035f815480929190610aee906115d2565b919050555050505050565b5f604051905090565b5f80fd5b5f80fd5b5f819050919050565b610b1c81610b0a565b8114610b26575f80fd5b50565b5f81359050610b3781610b13565b92915050565b5f60208284031215610b5257610b51610b02565b5b5f610b5f84828501610b29565b91505092915050565b5f73ffffffffffffffffffffffffffffffffffffffff82169050919050565b5f610b9182610b68565b9050919050565b610ba181610b87565b82525050565b5f81519050919050565b5f82825260208201905092915050565b5f5b83811015610bde578082015181840152602081019050610bc3565b5f8484015250505050565b5f601f19601f8301169050919050565b5f610c0382610ba7565b610c0d8185610bb1565b9350610c1d818560208601610bc1565b610c2681610be9565b840191505092915050565b610c3a81610b0a565b82525050565b7f4e487b71000000000000000000000000000000000000000000000000000000005f52602160045260245ffd5b60038110610c7e57610c7d610c40565b5b50565b5f819050610c8e82610c6d565b919050565b5f610c9d82610c81565b9050919050565b610cad81610c93565b82525050565b5f60e082019050610cc65f83018a610b98565b8181036020830152610cd88189610bf9565b90508181036040830152610cec8188610bf9565b9050610cfb6060830187610c31565b610d086080830186610c31565b610d1560a0830185610c31565b610d2260c0830184610ca4565b98975050505050505050565b5f602082019050610d415f830184610c31565b92915050565b5f602082019050610d5a5f830184610b98565b92915050565b5f80fd5b5f80fd5b7f4e487b71000000000000000000000000000000000000000000000000000000005f52604160045260245ffd5b610d9e82610be9565b810181811067ffffffffffffffff82111715610dbd57610dbc610d68565b5b80604052505050565b5f610dcf610af9565b9050610ddb8282610d95565b919050565b5f67ffffffffffffffff821115610dfa57610df9610d68565b5b610e0382610be9565b9050602081019050919050565b828183375f83830152505050565b5f610e30610e2b84610de0565b610dc6565b905082815260208101848484011115610e4c57610e4b610d64565b5b610e57848285610e10565b509392505050565b5f82601f830112610e7357610e72610d60565b5b8135610e83848260208601610e1e565b91505092915050565b5f805f60608486031215610ea357610ea2610b02565b5b5f84013567ffffffffffffffff811115610ec057610ebf610b06565b5b610ecc86828701610e5f565b935050602084013567ffffffffffffffff811115610eed57610eec610b06565b5b610ef986828701610e5f565b9250506040610f0a86828701610b29565b9150509250925092565b7f4e487b71000000000000000000000000000000000000000000000000000000005f52602260045260245ffd5b5f6002820490506001821680610f5857607f821691505b602082108103610f6b57610f6a610f14565b5b50919050565b7f43616d706169676e206973206e6f7420616374697665000000000000000000005f82015250565b5f610fa5601683610bb1565b9150610fb082610f71565b602082019050919050565b5f6020820190508181035f830152610fd281610f99565b9050919050565b7f436f6e747269627574696f6e20616d6f756e74206d75737420626520677265615f8201527f746572207468616e203000000000000000000000000000000000000000000000602082015250565b5f611033602a83610bb1565b915061103e82610fd9565b604082019050919050565b5f6020820190508181035f83015261106081611027565b9050919050565b7f4e487b71000000000000000000000000000000000000000000000000000000005f52601160045260245ffd5b5f61109e82610b0a565b91506110a983610b0a565b92508282019050808211156110c1576110c0611067565b5b92915050565b5f6040820190506110da5f830185610c31565b6110e76020830184610c31565b9392505050565b7f43616d706169676e206973206e6f7420726566756e6461626c650000000000005f82015250565b5f611122601a83610bb1565b915061112d826110ee565b602082019050919050565b5f6020820190508181035f83015261114f81611116565b9050919050565b7f43616d706169676e20726561636865642069747320676f616c000000000000005f82015250565b5f61118a601983610bb1565b915061119582611156565b602082019050919050565b5f6020820190508181035f8301526111b78161117e565b9050919050565b7f4f6e6c79207468652061646d696e6973747261746f722063616e2063616c6c205f8201527f746869732066756e6374696f6e00000000000000000000000000000000000000602082015250565b5f611218602d83610bb1565b9150611223826111be565b604082019050919050565b5f6020820190508181035f8301526112458161120c565b9050919050565b7f43616d706169676e206973206e6f7420636f6d706c65746564000000000000005f82015250565b5f611280601983610bb1565b915061128b8261124c565b602082019050919050565b5f6020820190508181035f8301526112ad81611274565b9050919050565b7f43616d706169676e20646964206e6f742072656163682069747320676f616c005f82015250565b5f6112e8601f83610bb1565b91506112f3826112b4565b602082019050919050565b5f6020820190508181035f830152611315816112dc565b9050919050565b5f819050815f5260205f209050919050565b5f6020601f8301049050919050565b5f82821b905092915050565b5f600883026113787fffffffffffffffffffffffffffffffffffffffffffffffffffffffffffffffff8261133d565b611382868361133d565b95508019841693508086168417925050509392505050565b5f819050919050565b5f6113bd6113b86113b384610b0a565b61139a565b610b0a565b9050919050565b5f819050919050565b6113d6836113a3565b6113ea6113e2826113c4565b848454611349565b825550505050565b5f90565b6113fe6113f2565b6114098184846113cd565b505050565b5b8181101561142c576114215f826113f6565b60018101905061140f565b5050565b601f821115611471576114428161131c565b61144b8461132e565b8101602085101561145a578190505b61146e6114668561132e565b83018261140e565b50505b505050565b5f82821c905092915050565b5f6114915f1984600802611476565b1980831691505092915050565b5f6114a98383611482565b9150826002028217905092915050565b6114c282610ba7565b67ffffffffffffffff8111156114db576114da610d68565b5b6114e58254610f41565b6114f0828285611430565b5f60209050601f831160018114611521575f841561150f578287015190505b611519858261149e565b865550611580565b601f19841661152f8661131c565b5f5b8281101561155657848901518255600182019150602085019450602081019050611531565b86831015611573578489015161156f601f891682611482565b8355505b6001600288020188555050505b505050505050565b5f60808201905061159b5f830187610c31565b81810360208301526115ad8186610bf9565b90506115bc6040830185610c31565b6115c96060830184610c31565b95945050505050565b5f6115dc82610b0a565b91507fffffffffffffffffffffffffffffffffffffffffffffffffffffffffffffffff820361160e5761160d611067565b5b60018201905091905056fea2646970667358221220f135f5ee95a0e0b1453ebafa308aac1d25310f09b80d5405556bd2919537994e64736f6c63430008160033",
					"opcodes": "PUSH1 0x80 PUSH1 0x40 MSTORE CALLVALUE DUP1 ISZERO PUSH3 0x10 JUMPI PUSH0 DUP1 REVERT JUMPDEST POP PUSH1 0x40 MLOAD PUSH3 0x174C CODESIZE SUB DUP1 PUSH3 0x174C DUP4 CODECOPY DUP2 DUP2 ADD PUSH1 0x40 MSTORE DUP2 ADD SWAP1 PUSH3 0x36 SWAP2 SWAP1 PUSH3 0xBF JUMP JUMPDEST CALLER PUSH0 DUP1 PUSH2 0x100 EXP DUP2 SLOAD DUP2 PUSH20 0xFFFFFFFFFFFFFFFFFFFFFFFFFFFFFFFFFFFFFFFF MUL NOT AND SWAP1 DUP4 PUSH20 0xFFFFFFFFFFFFFFFFFFFFFFFFFFFFFFFFFFFFFFFF AND MUL OR SWAP1 SSTORE POP DUP1 PUSH1 0x1 DUP2 SWAP1 SSTORE POP POP PUSH3 0xEF JUMP JUMPDEST PUSH0 DUP1 REVERT JUMPDEST PUSH0 DUP2 SWAP1 POP SWAP2 SWAP1 POP JUMP JUMPDEST PUSH3 0x9B DUP2 PUSH3 0x87 JUMP JUMPDEST DUP2 EQ PUSH3 0xA6 JUMPI PUSH0 DUP1 REVERT JUMPDEST POP JUMP JUMPDEST PUSH0 DUP2 MLOAD SWAP1 POP PUSH3 0xB9 DUP2 PUSH3 0x90 JUMP JUMPDEST SWAP3 SWAP2 POP POP JUMP JUMPDEST PUSH0 PUSH1 0x20 DUP3 DUP5 SUB SLT ISZERO PUSH3 0xD7 JUMPI PUSH3 0xD6 PUSH3 0x83 JUMP JUMPDEST JUMPDEST PUSH0 PUSH3 0xE6 DUP5 DUP3 DUP6 ADD PUSH3 0xA9 JUMP JUMPDEST SWAP2 POP POP SWAP3 SWAP2 POP POP JUMP JUMPDEST PUSH2 0x164F DUP1 PUSH3 0xFD PUSH0 CODECOPY PUSH0 RETURN INVALID PUSH1 0x80 PUSH1 0x40 MSTORE PUSH1 0x4 CALLDATASIZE LT PUSH2 0x7A JUMPI PUSH0 CALLDATALOAD PUSH1 0xE0 SHR DUP1 PUSH4 0x9553F180 GT PUSH2 0x4D JUMPI DUP1 PUSH4 0x9553F180 EQ PUSH2 0x12E JUMPI DUP1 PUSH4 0xBA71AE9F EQ PUSH2 0x156 JUMPI DUP1 PUSH4 0xF851A440 EQ PUSH2 0x180 JUMPI DUP1 PUSH4 0xFFA56A57 EQ PUSH2 0x1AA JUMPI PUSH2 0x7A JUMP JUMPDEST DUP1 PUSH4 0x141961BC EQ PUSH2 0x7E JUMPI DUP1 PUSH4 0x48A05132 EQ PUSH2 0xC0 JUMPI DUP1 PUSH4 0x5B7BAF64 EQ PUSH2 0xDC JUMPI DUP1 PUSH4 0x7903A756 EQ PUSH2 0x104 JUMPI JUMPDEST PUSH0 DUP1 REVERT JUMPDEST CALLVALUE DUP1 ISZERO PUSH2 0x89 JUMPI PUSH0 DUP1 REVERT JUMPDEST POP PUSH2 0xA4 PUSH1 0x4 DUP1 CALLDATASIZE SUB DUP2 ADD SWAP1 PUSH2 0x9F SWAP2 SWAP1 PUSH2 0xB3D JUMP JUMPDEST PUSH2 0x1D2 JUMP JUMPDEST PUSH1 0x40 MLOAD PUSH2 0xB7 SWAP8 SWAP7 SWAP6 SWAP5 SWAP4 SWAP3 SWAP2 SWAP1 PUSH2 0xCB3 JUMP JUMPDEST PUSH1 0x40 MLOAD DUP1 SWAP2 SUB SWAP1 RETURN JUMPDEST PUSH2 0xDA PUSH1 0x4 DUP1 CALLDATASIZE SUB DUP2 ADD SWAP1 PUSH2 0xD5 SWAP2 SWAP1 PUSH2 0xB3D JUMP JUMPDEST PUSH2 0x347 JUMP JUMPDEST STOP JUMPDEST CALLVALUE DUP1 ISZERO PUSH2 0xE7 JUMPI PUSH0 DUP1 REVERT JUMPDEST POP PUSH2 0x102 PUSH1 0x4 DUP1 CALLDATASIZE SUB DUP2 ADD SWAP1 PUSH2 0xFD SWAP2 SWAP1 PUSH2 0xB3D JUMP JUMPDEST PUSH2 0x531 JUMP JUMPDEST STOP JUMPDEST CALLVALUE DUP1 ISZERO PUSH2 0x10F JUMPI PUSH0 DUP1 REVERT JUMPDEST POP PUSH2 0x118 PUSH2 0x6EC JUMP JUMPDEST PUSH1 0x40 MLOAD PUSH2 0x125 SWAP2 SWAP1 PUSH2 0xD2E JUMP JUMPDEST PUSH1 0x40 MLOAD DUP1 SWAP2 SUB SWAP1 RETURN JUMPDEST CALLVALUE DUP1 ISZERO PUSH2 0x139 JUMPI PUSH0 DUP1 REVERT JUMPDEST POP PUSH2 0x154 PUSH1 0x4 DUP1 CALLDATASIZE SUB DUP2 ADD SWAP1 PUSH2 0x14F SWAP2 SWAP1 PUSH2 0xB3D JUMP JUMPDEST PUSH2 0x6F2 JUMP JUMPDEST STOP JUMPDEST CALLVALUE DUP1 ISZERO PUSH2 0x161 JUMPI PUSH0 DUP1 REVERT JUMPDEST POP PUSH2 0x16A PUSH2 0x91E JUMP JUMPDEST PUSH1 0x40 MLOAD PUSH2 0x177 SWAP2 SWAP1 PUSH2 0xD2E JUMP JUMPDEST PUSH1 0x40 MLOAD DUP1 SWAP2 SUB SWAP1 RETURN JUMPDEST CALLVALUE DUP1 ISZERO PUSH2 0x18B JUMPI PUSH0 DUP1 REVERT JUMPDEST POP PUSH2 0x194 PUSH2 0x924 JUMP JUMPDEST PUSH1 0x40 MLOAD PUSH2 0x1A1 SWAP2 SWAP1 PUSH2 0xD47 JUMP JUMPDEST PUSH1 0x40 MLOAD DUP1 SWAP2 SUB SWAP1 RETURN JUMPDEST CALLVALUE DUP1 ISZERO PUSH2 0x1B5 JUMPI PUSH0 DUP1 REVERT JUMPDEST POP PUSH2 0x1D0 PUSH1 0x4 DUP1 CALLDATASIZE SUB DUP2 ADD SWAP1 PUSH2 0x1CB SWAP2 SWAP1 PUSH2 0xE8C JUMP JUMPDEST PUSH2 0x947 JUMP JUMPDEST STOP JUMPDEST PUSH1 0x2 PUSH1 0x20 MSTORE DUP1 PUSH0 MSTORE PUSH1 0x40 PUSH0 KECCAK256 PUSH0 SWAP2 POP SWAP1 POP DUP1 PUSH0 ADD PUSH0 SWAP1 SLOAD SWAP1 PUSH2 0x100 EXP SWAP1 DIV PUSH20 0xFFFFFFFFFFFFFFFFFFFFFFFFFFFFFFFFFFFFFFFF AND SWAP1 DUP1 PUSH1 0x1 ADD DUP1 SLOAD PUSH2 0x216 SWAP1 PUSH2 0xF41 JUMP JUMPDEST DUP1 PUSH1 0x1F ADD PUSH1 0x20 DUP1 SWAP2 DIV MUL PUSH1 0x20 ADD PUSH1 0x40 MLOAD SWAP1 DUP2 ADD PUSH1 0x40 MSTORE DUP1 SWAP3 SWAP2 SWAP1 DUP2 DUP2 MSTORE PUSH1 0x20 ADD DUP3 DUP1 SLOAD PUSH2 0x242 SWAP1 PUSH2 0xF41 JUMP JUMPDEST DUP1 ISZERO PUSH2 0x28D JUMPI DUP1 PUSH1 0x1F LT PUSH2 0x264 JUMPI PUSH2 0x100 DUP1 DUP4 SLOAD DIV MUL DUP4 MSTORE SWAP2 PUSH1 0x20 ADD SWAP2 PUSH2 0x28D JUMP JUMPDEST DUP3 ADD SWAP2 SWAP1 PUSH0 MSTORE PUSH1 0x20 PUSH0 KECCAK256 SWAP1 JUMPDEST DUP2 SLOAD DUP2 MSTORE SWAP1 PUSH1 0x1 ADD SWAP1 PUSH1 0x20 ADD DUP1 DUP4 GT PUSH2 0x270 JUMPI DUP3 SWAP1 SUB PUSH1 0x1F AND DUP3 ADD SWAP2 JUMPDEST POP POP POP POP POP SWAP1 DUP1 PUSH1 0x2 ADD DUP1 SLOAD PUSH2 0x2A2 SWAP1 PUSH2 0xF41 JUMP JUMPDEST DUP1 PUSH1 0x1F ADD PUSH1 0x20 DUP1 SWAP2 DIV MUL PUSH1 0x20 ADD PUSH1 0x40 MLOAD SWAP1 DUP2 ADD PUSH1 0x40 MSTORE DUP1 SWAP3 SWAP2 SWAP1 DUP2 DUP2 MSTORE PUSH1 0x20 ADD DUP3 DUP1 SLOAD PUSH2 0x2CE SWAP1 PUSH2 0xF41 JUMP JUMPDEST DUP1 ISZERO PUSH2 0x319 JUMPI DUP1 PUSH1 0x1F LT PUSH2 0x2F0 JUMPI PUSH2 0x100 DUP1 DUP4 SLOAD DIV MUL DUP4 MSTORE SWAP2 PUSH1 0x20 ADD SWAP2 PUSH2 0x319 JUMP JUMPDEST DUP3 ADD SWAP2 SWAP1 PUSH0 MSTORE PUSH1 0x20 PUSH0 KECCAK256 SWAP1 JUMPDEST DUP2 SLOAD DUP2 MSTORE SWAP1 PUSH1 0x1 ADD SWAP1 PUSH1 0x20 ADD DUP1 DUP4 GT PUSH2 0x2FC JUMPI DUP3 SWAP1 SUB PUSH1 0x1F AND DUP3 ADD SWAP2 JUMPDEST POP POP POP POP POP SWAP1 DUP1 PUSH1 0x3 ADD SLOAD SWAP1 DUP1 PUSH1 0x4 ADD SLOAD SWAP1 DUP1 PUSH1 0x5 ADD SLOAD SWAP1 DUP1 PUSH1 0x6 ADD PUSH0 SWAP1 SLOAD SWAP1 PUSH2 0x100 EXP SWAP1 DIV PUSH1 0xFF AND SWAP1 POP DUP8 JUMP JUMPDEST DUP1 PUSH0 PUSH1 0x2 DUP2 GT ISZERO PUSH2 0x35B JUMPI PUSH2 0x35A PUSH2 0xC40 JUMP JUMPDEST JUMPDEST PUSH1 0x2 PUSH0 DUP4 DUP2 MSTORE PUSH1 0x20 ADD SWAP1 DUP2 MSTORE PUSH1 0x20 ADD PUSH0 KECCAK256 PUSH1 0x6 ADD PUSH0 SWAP1 SLOAD SWAP1 PUSH2 0x100 EXP SWAP1 DIV PUSH1 0xFF AND PUSH1 0x2 DUP2 GT ISZERO PUSH2 0x38E JUMPI PUSH2 0x38D PUSH2 0xC40 JUMP JUMPDEST JUMPDEST EQ PUSH2 0x3CE JUMPI PUSH1 0x40 MLOAD PUSH32 0x8C379A000000000000000000000000000000000000000000000000000000000 DUP2 MSTORE PUSH1 0x4 ADD PUSH2 0x3C5 SWAP1 PUSH2 0xFBB JUMP JUMPDEST PUSH1 0x40 MLOAD DUP1 SWAP2 SUB SWAP1 REVERT JUMPDEST PUSH0 CALLVALUE GT PUSH2 0x410 JUMPI PUSH1 0x40 MLOAD PUSH32 0x8C379A000000000000000000000000000000000000000000000000000000000 DUP2 MSTORE PUSH1 0x4 ADD PUSH2 0x407 SWAP1 PUSH2 0x1049 JUMP JUMPDEST PUSH1 0x40 MLOAD DUP1 SWAP2 SUB SWAP1 REVERT JUMPDEST CALLVALUE PUSH1 0x2 PUSH0 DUP5 DUP2 MSTORE PUSH1 0x20 ADD SWAP1 DUP2 MSTORE PUSH1 0x20 ADD PUSH0 KECCAK256 PUSH1 0x4 ADD PUSH0 DUP3 DUP3 SLOAD PUSH2 0x433 SWAP2 SWAP1 PUSH2 0x1094 JUMP JUMPDEST SWAP3 POP POP DUP2 SWAP1 SSTORE POP CALLER PUSH20 0xFFFFFFFFFFFFFFFFFFFFFFFFFFFFFFFFFFFFFFFF AND PUSH32 0xB5C5EA1A898780D7E2FA7E4B8EC6D8BA4FDCF3BE360BB5E76AE40E4769053A19 DUP4 CALLVALUE PUSH1 0x40 MLOAD PUSH2 0x482 SWAP3 SWAP2 SWAP1 PUSH2 0x10C7 JUMP JUMPDEST PUSH1 0x40 MLOAD DUP1 SWAP2 SUB SWAP1 LOG2 PUSH1 0x2 PUSH0 DUP4 DUP2 MSTORE PUSH1 0x20 ADD SWAP1 DUP2 MSTORE PUSH1 0x20 ADD PUSH0 KECCAK256 PUSH1 0x3 ADD SLOAD PUSH1 0x2 PUSH0 DUP5 DUP2 MSTORE PUSH1 0x20 ADD SWAP1 DUP2 MSTORE PUSH1 0x20 ADD PUSH0 KECCAK256 PUSH1 0x4 ADD SLOAD LT PUSH2 0x52D JUMPI PUSH1 0x1 PUSH1 0x2 PUSH0 DUP5 DUP2 MSTORE PUSH1 0x20 ADD SWAP1 DUP2 MSTORE PUSH1 0x20 ADD PUSH0 KECCAK256 PUSH1 0x6 ADD PUSH0 PUSH2 0x100 EXP DUP2 SLOAD DUP2 PUSH1 0xFF MUL NOT AND SWAP1 DUP4 PUSH1 0x2 DUP2 GT ISZERO PUSH2 0x4F0 JUMPI PUSH2 0x4EF PUSH2 0xC40 JUMP JUMPDEST JUMPDEST MUL OR SWAP1 SSTORE POP PUSH32 0xBDEF6A2E3AA892961A2DAB48272F72F2BC1C7121EB1C0ED7E4A58E081C1E4BE0 DUP3 PUSH1 0x40 MLOAD PUSH2 0x524 SWAP2 SWAP1 PUSH2 0xD2E JUMP JUMPDEST PUSH1 0x40 MLOAD DUP1 SWAP2 SUB SWAP1 LOG1 JUMPDEST POP POP JUMP JUMPDEST DUP1 PUSH1 0x2 DUP1 DUP2 GT ISZERO PUSH2 0x545 JUMPI PUSH2 0x544 PUSH2 0xC40 JUMP JUMPDEST JUMPDEST PUSH1 0x2 PUSH0 DUP4 DUP2 MSTORE PUSH1 0x20 ADD SWAP1 DUP2 MSTORE PUSH1 0x20 ADD PUSH0 KECCAK256 PUSH1 0x6 ADD PUSH0 SWAP1 SLOAD SWAP1 PUSH2 0x100 EXP SWAP1 DIV PUSH1 0xFF AND PUSH1 0x2 DUP2 GT ISZERO PUSH2 0x578 JUMPI PUSH2 0x577 PUSH2 0xC40 JUMP JUMPDEST JUMPDEST EQ PUSH2 0x5B8 JUMPI PUSH1 0x40 MLOAD PUSH32 0x8C379A000000000000000000000000000000000000000000000000000000000 DUP2 MSTORE PUSH1 0x4 ADD PUSH2 0x5AF SWAP1 PUSH2 0x1138 JUMP JUMPDEST PUSH1 0x40 MLOAD DUP1 SWAP2 SUB SWAP1 REVERT JUMPDEST PUSH1 0x2 PUSH0 DUP4 DUP2 MSTORE PUSH1 0x20 ADD SWAP1 DUP2 MSTORE PUSH1 0x20 ADD PUSH0 KECCAK256 PUSH1 0x3 ADD SLOAD PUSH1 0x2 PUSH0 DUP5 DUP2 MSTORE PUSH1 0x20 ADD SWAP1 DUP2 MSTORE PUSH1 0x20 ADD PUSH0 KECCAK256 PUSH1 0x4 ADD SLOAD LT PUSH2 0x622 JUMPI PUSH1 0x40 MLOAD PUSH32 0x8C379A000000000000000000000000000000000000000000000000000000000 DUP2 MSTORE PUSH1 0x4 ADD PUSH2 0x619 SWAP1 PUSH2 0x11A0 JUMP JUMPDEST PUSH1 0x40 MLOAD DUP1 SWAP2 SUB SWAP1 REVERT JUMPDEST PUSH0 PUSH1 0x2 PUSH0 DUP5 DUP2 MSTORE PUSH1 0x20 ADD SWAP1 DUP2 MSTORE PUSH1 0x20 ADD PUSH0 KECCAK256 PUSH1 0x4 ADD SLOAD SWAP1 POP PUSH0 PUSH1 0x2 PUSH0 DUP6 DUP2 MSTORE PUSH1 0x20 ADD SWAP1 DUP2 MSTORE PUSH1 0x20 ADD PUSH0 KECCAK256 PUSH1 0x4 ADD DUP2 SWAP1 SSTORE POP CALLER PUSH20 0xFFFFFFFFFFFFFFFFFFFFFFFFFFFFFFFFFFFFFFFF AND PUSH2 0x8FC DUP3 SWAP1 DUP2 ISZERO MUL SWAP1 PUSH1 0x40 MLOAD PUSH0 PUSH1 0x40 MLOAD DUP1 DUP4 SUB DUP2 DUP6 DUP9 DUP9 CALL SWAP4 POP POP POP POP ISZERO DUP1 ISZERO PUSH2 0x696 JUMPI RETURNDATASIZE PUSH0 DUP1 RETURNDATACOPY RETURNDATASIZE PUSH0 REVERT JUMPDEST POP CALLER PUSH20 0xFFFFFFFFFFFFFFFFFFFFFFFFFFFFFFFFFFFFFFFF AND PUSH32 0xF3F402280EF0A7905E124AA621B65EAEB2725C343E8B36D398ED78C29DAF285C DUP5 DUP4 PUSH1 0x40 MLOAD PUSH2 0x6DF SWAP3 SWAP2 SWAP1 PUSH2 0x10C7 JUMP JUMPDEST PUSH1 0x40 MLOAD DUP1 SWAP2 SUB SWAP1 LOG2 POP POP POP JUMP JUMPDEST PUSH1 0x3 SLOAD DUP2 JUMP JUMPDEST PUSH0 DUP1 SLOAD SWAP1 PUSH2 0x100 EXP SWAP1 DIV PUSH20 0xFFFFFFFFFFFFFFFFFFFFFFFFFFFFFFFFFFFFFFFF AND PUSH20 0xFFFFFFFFFFFFFFFFFFFFFFFFFFFFFFFFFFFFFFFF AND CALLER PUSH20 0xFFFFFFFFFFFFFFFFFFFFFFFFFFFFFFFFFFFFFFFF AND EQ PUSH2 0x77F JUMPI PUSH1 0x40 MLOAD PUSH32 0x8C379A000000000000000000000000000000000000000000000000000000000 DUP2 MSTORE PUSH1 0x4 ADD PUSH2 0x776 SWAP1 PUSH2 0x122E JUMP JUMPDEST PUSH1 0x40 MLOAD DUP1 SWAP2 SUB SWAP1 REVERT JUMPDEST DUP1 PUSH1 0x1 PUSH1 0x2 DUP2 GT ISZERO PUSH2 0x794 JUMPI PUSH2 0x793 PUSH2 0xC40 JUMP JUMPDEST JUMPDEST PUSH1 0x2 PUSH0 DUP4 DUP2 MSTORE PUSH1 0x20 ADD SWAP1 DUP2 MSTORE PUSH1 0x20 ADD PUSH0 KECCAK256 PUSH1 0x6 ADD PUSH0 SWAP1 SLOAD SWAP1 PUSH2 0x100 EXP SWAP1 DIV PUSH1 0xFF AND PUSH1 0x2 DUP2 GT ISZERO PUSH2 0x7C7 JUMPI PUSH2 0x7C6 PUSH2 0xC40 JUMP JUMPDEST JUMPDEST EQ PUSH2 0x807 JUMPI PUSH1 0x40 MLOAD PUSH32 0x8C379A000000000000000000000000000000000000000000000000000000000 DUP2 MSTORE PUSH1 0x4 ADD PUSH2 0x7FE SWAP1 PUSH2 0x1296 JUMP JUMPDEST PUSH1 0x40 MLOAD DUP1 SWAP2 SUB SWAP1 REVERT JUMPDEST PUSH1 0x2 PUSH0 DUP4 DUP2 MSTORE PUSH1 0x20 ADD SWAP1 DUP2 MSTORE PUSH1 0x20 ADD PUSH0 KECCAK256 PUSH1 0x3 ADD SLOAD PUSH1 0x2 PUSH0 DUP5 DUP2 MSTORE PUSH1 0x20 ADD SWAP1 DUP2 MSTORE PUSH1 0x20 ADD PUSH0 KECCAK256 PUSH1 0x4 ADD SLOAD LT ISZERO PUSH2 0x872 JUMPI PUSH1 0x40 MLOAD PUSH32 0x8C379A000000000000000000000000000000000000000000000000000000000 DUP2 MSTORE PUSH1 0x4 ADD PUSH2 0x869 SWAP1 PUSH2 0x12FE JUMP JUMPDEST PUSH1 0x40 MLOAD DUP1 SWAP2 SUB SWAP1 REVERT JUMPDEST PUSH0 PUSH1 0x2 PUSH0 DUP5 DUP2 MSTORE PUSH1 0x20 ADD SWAP1 DUP2 MSTORE PUSH1 0x20 ADD PUSH0 KECCAK256 PUSH1 0x4 ADD SLOAD SWAP1 POP PUSH0 PUSH1 0x2 PUSH0 DUP6 DUP2 MSTORE PUSH1 0x20 ADD SWAP1 DUP2 MSTORE PUSH1 0x20 ADD PUSH0 KECCAK256 PUSH1 0x4 ADD DUP2 SWAP1 SSTORE POP PUSH1 0x2 PUSH0 DUP5 DUP2 MSTORE PUSH1 0x20 ADD SWAP1 DUP2 MSTORE PUSH1 0x20 ADD PUSH0 KECCAK256 PUSH0 ADD PUSH0 SWAP1 SLOAD SWAP1 PUSH2 0x100 EXP SWAP1 DIV PUSH20 0xFFFFFFFFFFFFFFFFFFFFFFFFFFFFFFFFFFFFFFFF AND PUSH20 0xFFFFFFFFFFFFFFFFFFFFFFFFFFFFFFFFFFFFFFFF AND PUSH2 0x8FC DUP3 SWAP1 DUP2 ISZERO MUL SWAP1 PUSH1 0x40 MLOAD PUSH0 PUSH1 0x40 MLOAD DUP1 DUP4 SUB DUP2 DUP6 DUP9 DUP9 CALL SWAP4 POP POP POP POP ISZERO DUP1 ISZERO PUSH2 0x918 JUMPI RETURNDATASIZE PUSH0 DUP1 RETURNDATACOPY RETURNDATASIZE PUSH0 REVERT JUMPDEST POP POP POP POP JUMP JUMPDEST PUSH1 0x1 SLOAD DUP2 JUMP JUMPDEST PUSH0 DUP1 SLOAD SWAP1 PUSH2 0x100 EXP SWAP1 DIV PUSH20 0xFFFFFFFFFFFFFFFFFFFFFFFFFFFFFFFFFFFFFFFF AND DUP2 JUMP JUMPDEST PUSH0 PUSH1 0x1 SLOAD TIMESTAMP PUSH2 0x956 SWAP2 SWAP1 PUSH2 0x1094 JUMP JUMPDEST SWAP1 POP PUSH1 0x40 MLOAD DUP1 PUSH1 0xE0 ADD PUSH1 0x40 MSTORE DUP1 CALLER PUSH20 0xFFFFFFFFFFFFFFFFFFFFFFFFFFFFFFFFFFFFFFFF AND DUP2 MSTORE PUSH1 0x20 ADD DUP6 DUP2 MSTORE PUSH1 0x20 ADD DUP5 DUP2 MSTORE PUSH1 0x20 ADD DUP4 DUP2 MSTORE PUSH1 0x20 ADD PUSH0 DUP2 MSTORE PUSH1 0x20 ADD DUP3 DUP2 MSTORE PUSH1 0x20 ADD PUSH0 PUSH1 0x2 DUP2 GT ISZERO PUSH2 0x9B0 JUMPI PUSH2 0x9AF PUSH2 0xC40 JUMP JUMPDEST JUMPDEST DUP2 MSTORE POP PUSH1 0x2 PUSH0 PUSH1 0x3 SLOAD DUP2 MSTORE PUSH1 0x20 ADD SWAP1 DUP2 MSTORE PUSH1 0x20 ADD PUSH0 KECCAK256 PUSH0 DUP3 ADD MLOAD DUP2 PUSH0 ADD PUSH0 PUSH2 0x100 EXP DUP2 SLOAD DUP2 PUSH20 0xFFFFFFFFFFFFFFFFFFFFFFFFFFFFFFFFFFFFFFFF MUL NOT AND SWAP1 DUP4 PUSH20 0xFFFFFFFFFFFFFFFFFFFFFFFFFFFFFFFFFFFFFFFF AND MUL OR SWAP1 SSTORE POP PUSH1 0x20 DUP3 ADD MLOAD DUP2 PUSH1 0x1 ADD SWAP1 DUP2 PUSH2 0xA1F SWAP2 SWAP1 PUSH2 0x14B9 JUMP JUMPDEST POP PUSH1 0x40 DUP3 ADD MLOAD DUP2 PUSH1 0x2 ADD SWAP1 DUP2 PUSH2 0xA35 SWAP2 SWAP1 PUSH2 0x14B9 JUMP JUMPDEST POP PUSH1 0x60 DUP3 ADD MLOAD DUP2 PUSH1 0x3 ADD SSTORE PUSH1 0x80 DUP3 ADD MLOAD DUP2 PUSH1 0x4 ADD SSTORE PUSH1 0xA0 DUP3 ADD MLOAD DUP2 PUSH1 0x5 ADD SSTORE PUSH1 0xC0 DUP3 ADD MLOAD DUP2 PUSH1 0x6 ADD PUSH0 PUSH2 0x100 EXP DUP2 SLOAD DUP2 PUSH1 0xFF MUL NOT AND SWAP1 DUP4 PUSH1 0x2 DUP2 GT ISZERO PUSH2 0xA7E JUMPI PUSH2 0xA7D PUSH2 0xC40 JUMP JUMPDEST JUMPDEST MUL OR SWAP1 SSTORE POP SWAP1 POP POP CALLER PUSH20 0xFFFFFFFFFFFFFFFFFFFFFFFFFFFFFFFFFFFFFFFF AND PUSH32 0xDC26653AF5B99B2DA33E2AD69EE6600D9AECCC82B034501DB4338309615CA238 PUSH1 0x3 SLOAD DUP7 DUP6 DUP6 PUSH1 0x40 MLOAD PUSH2 0xAD4 SWAP5 SWAP4 SWAP3 SWAP2 SWAP1 PUSH2 0x1588 JUMP JUMPDEST PUSH1 0x40 MLOAD DUP1 SWAP2 SUB SWAP1 LOG2 PUSH1 0x3 PUSH0 DUP2 SLOAD DUP1 SWAP3 SWAP2 SWAP1 PUSH2 0xAEE SWAP1 PUSH2 0x15D2 JUMP JUMPDEST SWAP2 SWAP1 POP SSTORE POP POP POP POP POP JUMP JUMPDEST PUSH0 PUSH1 0x40 MLOAD SWAP1 POP SWAP1 JUMP JUMPDEST PUSH0 DUP1 REVERT JUMPDEST PUSH0 DUP1 REVERT JUMPDEST PUSH0 DUP2 SWAP1 POP SWAP2 SWAP1 POP JUMP JUMPDEST PUSH2 0xB1C DUP2 PUSH2 0xB0A JUMP JUMPDEST DUP2 EQ PUSH2 0xB26 JUMPI PUSH0 DUP1 REVERT JUMPDEST POP JUMP JUMPDEST PUSH0 DUP2 CALLDATALOAD SWAP1 POP PUSH2 0xB37 DUP2 PUSH2 0xB13 JUMP JUMPDEST SWAP3 SWAP2 POP POP JUMP JUMPDEST PUSH0 PUSH1 0x20 DUP3 DUP5 SUB SLT ISZERO PUSH2 0xB52 JUMPI PUSH2 0xB51 PUSH2 0xB02 JUMP JUMPDEST JUMPDEST PUSH0 PUSH2 0xB5F DUP5 DUP3 DUP6 ADD PUSH2 0xB29 JUMP JUMPDEST SWAP2 POP POP SWAP3 SWAP2 POP POP JUMP JUMPDEST PUSH0 PUSH20 0xFFFFFFFFFFFFFFFFFFFFFFFFFFFFFFFFFFFFFFFF DUP3 AND SWAP1 POP SWAP2 SWAP1 POP JUMP JUMPDEST PUSH0 PUSH2 0xB91 DUP3 PUSH2 0xB68 JUMP JUMPDEST SWAP1 POP SWAP2 SWAP1 POP JUMP JUMPDEST PUSH2 0xBA1 DUP2 PUSH2 0xB87 JUMP JUMPDEST DUP3 MSTORE POP POP JUMP JUMPDEST PUSH0 DUP2 MLOAD SWAP1 POP SWAP2 SWAP1 POP JUMP JUMPDEST PUSH0 DUP3 DUP3 MSTORE PUSH1 0x20 DUP3 ADD SWAP1 POP SWAP3 SWAP2 POP POP JUMP JUMPDEST PUSH0 JUMPDEST DUP4 DUP2 LT ISZERO PUSH2 0xBDE JUMPI DUP1 DUP3 ADD MLOAD DUP2 DUP5 ADD MSTORE PUSH1 0x20 DUP2 ADD SWAP1 POP PUSH2 0xBC3 JUMP JUMPDEST PUSH0 DUP5 DUP5 ADD MSTORE POP POP POP POP JUMP JUMPDEST PUSH0 PUSH1 0x1F NOT PUSH1 0x1F DUP4 ADD AND SWAP1 POP SWAP2 SWAP1 POP JUMP JUMPDEST PUSH0 PUSH2 0xC03 DUP3 PUSH2 0xBA7 JUMP JUMPDEST PUSH2 0xC0D DUP2 DUP6 PUSH2 0xBB1 JUMP JUMPDEST SWAP4 POP PUSH2 0xC1D DUP2 DUP6 PUSH1 0x20 DUP7 ADD PUSH2 0xBC1 JUMP JUMPDEST PUSH2 0xC26 DUP2 PUSH2 0xBE9 JUMP JUMPDEST DUP5 ADD SWAP2 POP POP SWAP3 SWAP2 POP POP JUMP JUMPDEST PUSH2 0xC3A DUP2 PUSH2 0xB0A JUMP JUMPDEST DUP3 MSTORE POP POP JUMP JUMPDEST PUSH32 0x4E487B7100000000000000000000000000000000000000000000000000000000 PUSH0 MSTORE PUSH1 0x21 PUSH1 0x4 MSTORE PUSH1 0x24 PUSH0 REVERT JUMPDEST PUSH1 0x3 DUP2 LT PUSH2 0xC7E JUMPI PUSH2 0xC7D PUSH2 0xC40 JUMP JUMPDEST JUMPDEST POP JUMP JUMPDEST PUSH0 DUP2 SWAP1 POP PUSH2 0xC8E DUP3 PUSH2 0xC6D JUMP JUMPDEST SWAP2 SWAP1 POP JUMP JUMPDEST PUSH0 PUSH2 0xC9D DUP3 PUSH2 0xC81 JUMP JUMPDEST SWAP1 POP SWAP2 SWAP1 POP JUMP JUMPDEST PUSH2 0xCAD DUP2 PUSH2 0xC93 JUMP JUMPDEST DUP3 MSTORE POP POP JUMP JUMPDEST PUSH0 PUSH1 0xE0 DUP3 ADD SWAP1 POP PUSH2 0xCC6 PUSH0 DUP4 ADD DUP11 PUSH2 0xB98 JUMP JUMPDEST DUP2 DUP2 SUB PUSH1 0x20 DUP4 ADD MSTORE PUSH2 0xCD8 DUP2 DUP10 PUSH2 0xBF9 JUMP JUMPDEST SWAP1 POP DUP2 DUP2 SUB PUSH1 0x40 DUP4 ADD MSTORE PUSH2 0xCEC DUP2 DUP9 PUSH2 0xBF9 JUMP JUMPDEST SWAP1 POP PUSH2 0xCFB PUSH1 0x60 DUP4 ADD DUP8 PUSH2 0xC31 JUMP JUMPDEST PUSH2 0xD08 PUSH1 0x80 DUP4 ADD DUP7 PUSH2 0xC31 JUMP JUMPDEST PUSH2 0xD15 PUSH1 0xA0 DUP4 ADD DUP6 PUSH2 0xC31 JUMP JUMPDEST PUSH2 0xD22 PUSH1 0xC0 DUP4 ADD DUP5 PUSH2 0xCA4 JUMP JUMPDEST SWAP9 SWAP8 POP POP POP POP POP POP POP POP JUMP JUMPDEST PUSH0 PUSH1 0x20 DUP3 ADD SWAP1 POP PUSH2 0xD41 PUSH0 DUP4 ADD DUP5 PUSH2 0xC31 JUMP JUMPDEST SWAP3 SWAP2 POP POP JUMP JUMPDEST PUSH0 PUSH1 0x20 DUP3 ADD SWAP1 POP PUSH2 0xD5A PUSH0 DUP4 ADD DUP5 PUSH2 0xB98 JUMP JUMPDEST SWAP3 SWAP2 POP POP JUMP JUMPDEST PUSH0 DUP1 REVERT JUMPDEST PUSH0 DUP1 REVERT JUMPDEST PUSH32 0x4E487B7100000000000000000000000000000000000000000000000000000000 PUSH0 MSTORE PUSH1 0x41 PUSH1 0x4 MSTORE PUSH1 0x24 PUSH0 REVERT JUMPDEST PUSH2 0xD9E DUP3 PUSH2 0xBE9 JUMP JUMPDEST DUP2 ADD DUP2 DUP2 LT PUSH8 0xFFFFFFFFFFFFFFFF DUP3 GT OR ISZERO PUSH2 0xDBD JUMPI PUSH2 0xDBC PUSH2 0xD68 JUMP JUMPDEST JUMPDEST DUP1 PUSH1 0x40 MSTORE POP POP POP JUMP JUMPDEST PUSH0 PUSH2 0xDCF PUSH2 0xAF9 JUMP JUMPDEST SWAP1 POP PUSH2 0xDDB DUP3 DUP3 PUSH2 0xD95 JUMP JUMPDEST SWAP2 SWAP1 POP JUMP JUMPDEST PUSH0 PUSH8 0xFFFFFFFFFFFFFFFF DUP3 GT ISZERO PUSH2 0xDFA JUMPI PUSH2 0xDF9 PUSH2 0xD68 JUMP JUMPDEST JUMPDEST PUSH2 0xE03 DUP3 PUSH2 0xBE9 JUMP JUMPDEST SWAP1 POP PUSH1 0x20 DUP2 ADD SWAP1 POP SWAP2 SWAP1 POP JUMP JUMPDEST DUP3 DUP2 DUP4 CALLDATACOPY PUSH0 DUP4 DUP4 ADD MSTORE POP POP POP JUMP JUMPDEST PUSH0 PUSH2 0xE30 PUSH2 0xE2B DUP5 PUSH2 0xDE0 JUMP JUMPDEST PUSH2 0xDC6 JUMP JUMPDEST SWAP1 POP DUP3 DUP2 MSTORE PUSH1 0x20 DUP2 ADD DUP5 DUP5 DUP5 ADD GT ISZERO PUSH2 0xE4C JUMPI PUSH2 0xE4B PUSH2 0xD64 JUMP JUMPDEST JUMPDEST PUSH2 0xE57 DUP5 DUP3 DUP6 PUSH2 0xE10 JUMP JUMPDEST POP SWAP4 SWAP3 POP POP POP JUMP JUMPDEST PUSH0 DUP3 PUSH1 0x1F DUP4 ADD SLT PUSH2 0xE73 JUMPI PUSH2 0xE72 PUSH2 0xD60 JUMP JUMPDEST JUMPDEST DUP2 CALLDATALOAD PUSH2 0xE83 DUP5 DUP3 PUSH1 0x20 DUP7 ADD PUSH2 0xE1E JUMP JUMPDEST SWAP2 POP POP SWAP3 SWAP2 POP POP JUMP JUMPDEST PUSH0 DUP1 PUSH0 PUSH1 0x60 DUP5 DUP7 SUB SLT ISZERO PUSH2 0xEA3 JUMPI PUSH2 0xEA2 PUSH2 0xB02 JUMP JUMPDEST JUMPDEST PUSH0 DUP5 ADD CALLDATALOAD PUSH8 0xFFFFFFFFFFFFFFFF DUP2 GT ISZERO PUSH2 0xEC0 JUMPI PUSH2 0xEBF PUSH2 0xB06 JUMP JUMPDEST JUMPDEST PUSH2 0xECC DUP7 DUP3 DUP8 ADD PUSH2 0xE5F JUMP JUMPDEST SWAP4 POP POP PUSH1 0x20 DUP5 ADD CALLDATALOAD PUSH8 0xFFFFFFFFFFFFFFFF DUP2 GT ISZERO PUSH2 0xEED JUMPI PUSH2 0xEEC PUSH2 0xB06 JUMP JUMPDEST JUMPDEST PUSH2 0xEF9 DUP7 DUP3 DUP8 ADD PUSH2 0xE5F JUMP JUMPDEST SWAP3 POP POP PUSH1 0x40 PUSH2 0xF0A DUP7 DUP3 DUP8 ADD PUSH2 0xB29 JUMP JUMPDEST SWAP2 POP POP SWAP3 POP SWAP3 POP SWAP3 JUMP JUMPDEST PUSH32 0x4E487B7100000000000000000000000000000000000000000000000000000000 PUSH0 MSTORE PUSH1 0x22 PUSH1 0x4 MSTORE PUSH1 0x24 PUSH0 REVERT JUMPDEST PUSH0 PUSH1 0x2 DUP3 DIV SWAP1 POP PUSH1 0x1 DUP3 AND DUP1 PUSH2 0xF58 JUMPI PUSH1 0x7F DUP3 AND SWAP2 POP JUMPDEST PUSH1 0x20 DUP3 LT DUP2 SUB PUSH2 0xF6B JUMPI PUSH2 0xF6A PUSH2 0xF14 JUMP JUMPDEST JUMPDEST POP SWAP2 SWAP1 POP JUMP JUMPDEST PUSH32 0x43616D706169676E206973206E6F742061637469766500000000000000000000 PUSH0 DUP3 ADD MSTORE POP JUMP JUMPDEST PUSH0 PUSH2 0xFA5 PUSH1 0x16 DUP4 PUSH2 0xBB1 JUMP JUMPDEST SWAP2 POP PUSH2 0xFB0 DUP3 PUSH2 0xF71 JUMP JUMPDEST PUSH1 0x20 DUP3 ADD SWAP1 POP SWAP2 SWAP1 POP JUMP JUMPDEST PUSH0 PUSH1 0x20 DUP3 ADD SWAP1 POP DUP2 DUP2 SUB PUSH0 DUP4 ADD MSTORE PUSH2 0xFD2 DUP2 PUSH2 0xF99 JUMP JUMPDEST SWAP1 POP SWAP2 SWAP1 POP JUMP JUMPDEST PUSH32 0x436F6E747269627574696F6E20616D6F756E74206D7573742062652067726561 PUSH0 DUP3 ADD MSTORE PUSH32 0x746572207468616E203000000000000000000000000000000000000000000000 PUSH1 0x20 DUP3 ADD MSTORE POP JUMP JUMPDEST PUSH0 PUSH2 0x1033 PUSH1 0x2A DUP4 PUSH2 0xBB1 JUMP JUMPDEST SWAP2 POP PUSH2 0x103E DUP3 PUSH2 0xFD9 JUMP JUMPDEST PUSH1 0x40 DUP3 ADD SWAP1 POP SWAP2 SWAP1 POP JUMP JUMPDEST PUSH0 PUSH1 0x20 DUP3 ADD SWAP1 POP DUP2 DUP2 SUB PUSH0 DUP4 ADD MSTORE PUSH2 0x1060 DUP2 PUSH2 0x1027 JUMP JUMPDEST SWAP1 POP SWAP2 SWAP1 POP JUMP JUMPDEST PUSH32 0x4E487B7100000000000000000000000000000000000000000000000000000000 PUSH0 MSTORE PUSH1 0x11 PUSH1 0x4 MSTORE PUSH1 0x24 PUSH0 REVERT JUMPDEST PUSH0 PUSH2 0x109E DUP3 PUSH2 0xB0A JUMP JUMPDEST SWAP2 POP PUSH2 0x10A9 DUP4 PUSH2 0xB0A JUMP JUMPDEST SWAP3 POP DUP3 DUP3 ADD SWAP1 POP DUP1 DUP3 GT ISZERO PUSH2 0x10C1 JUMPI PUSH2 0x10C0 PUSH2 0x1067 JUMP JUMPDEST JUMPDEST SWAP3 SWAP2 POP POP JUMP JUMPDEST PUSH0 PUSH1 0x40 DUP3 ADD SWAP1 POP PUSH2 0x10DA PUSH0 DUP4 ADD DUP6 PUSH2 0xC31 JUMP JUMPDEST PUSH2 0x10E7 PUSH1 0x20 DUP4 ADD DUP5 PUSH2 0xC31 JUMP JUMPDEST SWAP4 SWAP3 POP POP POP JUMP JUMPDEST PUSH32 0x43616D706169676E206973206E6F7420726566756E6461626C65000000000000 PUSH0 DUP3 ADD MSTORE POP JUMP JUMPDEST PUSH0 PUSH2 0x1122 PUSH1 0x1A DUP4 PUSH2 0xBB1 JUMP JUMPDEST SWAP2 POP PUSH2 0x112D DUP3 PUSH2 0x10EE JUMP JUMPDEST PUSH1 0x20 DUP3 ADD SWAP1 POP SWAP2 SWAP1 POP JUMP JUMPDEST PUSH0 PUSH1 0x20 DUP3 ADD SWAP1 POP DUP2 DUP2 SUB PUSH0 DUP4 ADD MSTORE PUSH2 0x114F DUP2 PUSH2 0x1116 JUMP JUMPDEST SWAP1 POP SWAP2 SWAP1 POP JUMP JUMPDEST PUSH32 0x43616D706169676E20726561636865642069747320676F616C00000000000000 PUSH0 DUP3 ADD MSTORE POP JUMP JUMPDEST PUSH0 PUSH2 0x118A PUSH1 0x19 DUP4 PUSH2 0xBB1 JUMP JUMPDEST SWAP2 POP PUSH2 0x1195 DUP3 PUSH2 0x1156 JUMP JUMPDEST PUSH1 0x20 DUP3 ADD SWAP1 POP SWAP2 SWAP1 POP JUMP JUMPDEST PUSH0 PUSH1 0x20 DUP3 ADD SWAP1 POP DUP2 DUP2 SUB PUSH0 DUP4 ADD MSTORE PUSH2 0x11B7 DUP2 PUSH2 0x117E JUMP JUMPDEST SWAP1 POP SWAP2 SWAP1 POP JUMP JUMPDEST PUSH32 0x4F6E6C79207468652061646D696E6973747261746F722063616E2063616C6C20 PUSH0 DUP3 ADD MSTORE PUSH32 0x746869732066756E6374696F6E00000000000000000000000000000000000000 PUSH1 0x20 DUP3 ADD MSTORE POP JUMP JUMPDEST PUSH0 PUSH2 0x1218 PUSH1 0x2D DUP4 PUSH2 0xBB1 JUMP JUMPDEST SWAP2 POP PUSH2 0x1223 DUP3 PUSH2 0x11BE JUMP JUMPDEST PUSH1 0x40 DUP3 ADD SWAP1 POP SWAP2 SWAP1 POP JUMP JUMPDEST PUSH0 PUSH1 0x20 DUP3 ADD SWAP1 POP DUP2 DUP2 SUB PUSH0 DUP4 ADD MSTORE PUSH2 0x1245 DUP2 PUSH2 0x120C JUMP JUMPDEST SWAP1 POP SWAP2 SWAP1 POP JUMP JUMPDEST PUSH32 0x43616D706169676E206973206E6F7420636F6D706C6574656400000000000000 PUSH0 DUP3 ADD MSTORE POP JUMP JUMPDEST PUSH0 PUSH2 0x1280 PUSH1 0x19 DUP4 PUSH2 0xBB1 JUMP JUMPDEST SWAP2 POP PUSH2 0x128B DUP3 PUSH2 0x124C JUMP JUMPDEST PUSH1 0x20 DUP3 ADD SWAP1 POP SWAP2 SWAP1 POP JUMP JUMPDEST PUSH0 PUSH1 0x20 DUP3 ADD SWAP1 POP DUP2 DUP2 SUB PUSH0 DUP4 ADD MSTORE PUSH2 0x12AD DUP2 PUSH2 0x1274 JUMP JUMPDEST SWAP1 POP SWAP2 SWAP1 POP JUMP JUMPDEST PUSH32 0x43616D706169676E20646964206E6F742072656163682069747320676F616C00 PUSH0 DUP3 ADD MSTORE POP JUMP JUMPDEST PUSH0 PUSH2 0x12E8 PUSH1 0x1F DUP4 PUSH2 0xBB1 JUMP JUMPDEST SWAP2 POP PUSH2 0x12F3 DUP3 PUSH2 0x12B4 JUMP JUMPDEST PUSH1 0x20 DUP3 ADD SWAP1 POP SWAP2 SWAP1 POP JUMP JUMPDEST PUSH0 PUSH1 0x20 DUP3 ADD SWAP1 POP DUP2 DUP2 SUB PUSH0 DUP4 ADD MSTORE PUSH2 0x1315 DUP2 PUSH2 0x12DC JUMP JUMPDEST SWAP1 POP SWAP2 SWAP1 POP JUMP JUMPDEST PUSH0 DUP2 SWAP1 POP DUP2 PUSH0 MSTORE PUSH1 0x20 PUSH0 KECCAK256 SWAP1 POP SWAP2 SWAP1 POP JUMP JUMPDEST PUSH0 PUSH1 0x20 PUSH1 0x1F DUP4 ADD DIV SWAP1 POP SWAP2 SWAP1 POP JUMP JUMPDEST PUSH0 DUP3 DUP3 SHL SWAP1 POP SWAP3 SWAP2 POP POP JUMP JUMPDEST PUSH0 PUSH1 0x8 DUP4 MUL PUSH2 0x1378 PUSH32 0xFFFFFFFFFFFFFFFFFFFFFFFFFFFFFFFFFFFFFFFFFFFFFFFFFFFFFFFFFFFFFFFF DUP3 PUSH2 0x133D JUMP JUMPDEST PUSH2 0x1382 DUP7 DUP4 PUSH2 0x133D JUMP JUMPDEST SWAP6 POP DUP1 NOT DUP5 AND SWAP4 POP DUP1 DUP7 AND DUP5 OR SWAP3 POP POP POP SWAP4 SWAP3 POP POP POP JUMP JUMPDEST PUSH0 DUP2 SWAP1 POP SWAP2 SWAP1 POP JUMP JUMPDEST PUSH0 PUSH2 0x13BD PUSH2 0x13B8 PUSH2 0x13B3 DUP5 PUSH2 0xB0A JUMP JUMPDEST PUSH2 0x139A JUMP JUMPDEST PUSH2 0xB0A JUMP JUMPDEST SWAP1 POP SWAP2 SWAP1 POP JUMP JUMPDEST PUSH0 DUP2 SWAP1 POP SWAP2 SWAP1 POP JUMP JUMPDEST PUSH2 0x13D6 DUP4 PUSH2 0x13A3 JUMP JUMPDEST PUSH2 0x13EA PUSH2 0x13E2 DUP3 PUSH2 0x13C4 JUMP JUMPDEST DUP5 DUP5 SLOAD PUSH2 0x1349 JUMP JUMPDEST DUP3 SSTORE POP POP POP POP JUMP JUMPDEST PUSH0 SWAP1 JUMP JUMPDEST PUSH2 0x13FE PUSH2 0x13F2 JUMP JUMPDEST PUSH2 0x1409 DUP2 DUP5 DUP5 PUSH2 0x13CD JUMP JUMPDEST POP POP POP JUMP JUMPDEST JUMPDEST DUP2 DUP2 LT ISZERO PUSH2 0x142C JUMPI PUSH2 0x1421 PUSH0 DUP3 PUSH2 0x13F6 JUMP JUMPDEST PUSH1 0x1 DUP2 ADD SWAP1 POP PUSH2 0x140F JUMP JUMPDEST POP POP JUMP JUMPDEST PUSH1 0x1F DUP3 GT ISZERO PUSH2 0x1471 JUMPI PUSH2 0x1442 DUP2 PUSH2 0x131C JUMP JUMPDEST PUSH2 0x144B DUP5 PUSH2 0x132E JUMP JUMPDEST DUP2 ADD PUSH1 0x20 DUP6 LT ISZERO PUSH2 0x145A JUMPI DUP2 SWAP1 POP JUMPDEST PUSH2 0x146E PUSH2 0x1466 DUP6 PUSH2 0x132E JUMP JUMPDEST DUP4 ADD DUP3 PUSH2 0x140E JUMP JUMPDEST POP POP JUMPDEST POP POP POP JUMP JUMPDEST PUSH0 DUP3 DUP3 SHR SWAP1 POP SWAP3 SWAP2 POP POP JUMP JUMPDEST PUSH0 PUSH2 0x1491 PUSH0 NOT DUP5 PUSH1 0x8 MUL PUSH2 0x1476 JUMP JUMPDEST NOT DUP1 DUP4 AND SWAP2 POP POP SWAP3 SWAP2 POP POP JUMP JUMPDEST PUSH0 PUSH2 0x14A9 DUP4 DUP4 PUSH2 0x1482 JUMP JUMPDEST SWAP2 POP DUP3 PUSH1 0x2 MUL DUP3 OR SWAP1 POP SWAP3 SWAP2 POP POP JUMP JUMPDEST PUSH2 0x14C2 DUP3 PUSH2 0xBA7 JUMP JUMPDEST PUSH8 0xFFFFFFFFFFFFFFFF DUP2 GT ISZERO PUSH2 0x14DB JUMPI PUSH2 0x14DA PUSH2 0xD68 JUMP JUMPDEST JUMPDEST PUSH2 0x14E5 DUP3 SLOAD PUSH2 0xF41 JUMP JUMPDEST PUSH2 0x14F0 DUP3 DUP3 DUP6 PUSH2 0x1430 JUMP JUMPDEST PUSH0 PUSH1 0x20 SWAP1 POP PUSH1 0x1F DUP4 GT PUSH1 0x1 DUP2 EQ PUSH2 0x1521 JUMPI PUSH0 DUP5 ISZERO PUSH2 0x150F JUMPI DUP3 DUP8 ADD MLOAD SWAP1 POP JUMPDEST PUSH2 0x1519 DUP6 DUP3 PUSH2 0x149E JUMP JUMPDEST DUP7 SSTORE POP PUSH2 0x1580 JUMP JUMPDEST PUSH1 0x1F NOT DUP5 AND PUSH2 0x152F DUP7 PUSH2 0x131C JUMP JUMPDEST PUSH0 JUMPDEST DUP3 DUP2 LT ISZERO PUSH2 0x1556 JUMPI DUP5 DUP10 ADD MLOAD DUP3 SSTORE PUSH1 0x1 DUP3 ADD SWAP2 POP PUSH1 0x20 DUP6 ADD SWAP5 POP PUSH1 0x20 DUP2 ADD SWAP1 POP PUSH2 0x1531 JUMP JUMPDEST DUP7 DUP4 LT ISZERO PUSH2 0x1573 JUMPI DUP5 DUP10 ADD MLOAD PUSH2 0x156F PUSH1 0x1F DUP10 AND DUP3 PUSH2 0x1482 JUMP JUMPDEST DUP4 SSTORE POP JUMPDEST PUSH1 0x1 PUSH1 0x2 DUP9 MUL ADD DUP9 SSTORE POP POP POP JUMPDEST POP POP POP POP POP POP JUMP JUMPDEST PUSH0 PUSH1 0x80 DUP3 ADD SWAP1 POP PUSH2 0x159B PUSH0 DUP4 ADD DUP8 PUSH2 0xC31 JUMP JUMPDEST DUP2 DUP2 SUB PUSH1 0x20 DUP4 ADD MSTORE PUSH2 0x15AD DUP2 DUP7 PUSH2 0xBF9 JUMP JUMPDEST SWAP1 POP PUSH2 0x15BC PUSH1 0x40 DUP4 ADD DUP6 PUSH2 0xC31 JUMP JUMPDEST PUSH2 0x15C9 PUSH1 0x60 DUP4 ADD DUP5 PUSH2 0xC31 JUMP JUMPDEST SWAP6 SWAP5 POP POP POP POP POP JUMP JUMPDEST PUSH0 PUSH2 0x15DC DUP3 PUSH2 0xB0A JUMP JUMPDEST SWAP2 POP PUSH32 0xFFFFFFFFFFFFFFFFFFFFFFFFFFFFFFFFFFFFFFFFFFFFFFFFFFFFFFFFFFFFFFFF DUP3 SUB PUSH2 0x160E JUMPI PUSH2 0x160D PUSH2 0x1067 JUMP JUMPDEST JUMPDEST PUSH1 0x1 DUP3 ADD SWAP1 POP SWAP2 SWAP1 POP JUMP INVALID LOG2 PUSH5 0x6970667358 0x22 SLT KECCAK256 CALL CALLDATALOAD CREATE2 0xEE SWAP6 LOG0 0xE0 0xB1 GASLIMIT RETURNDATACOPY 0xBA STATICCALL ADDRESS DUP11 0xAC SAR 0x25 BALANCE 0xF MULMOD 0xB8 0xD SLOAD SDIV SSTORE PUSH12 0xD2919537994E64736F6C6343 STOP ADDMOD AND STOP CALLER "
				},
				"gasEstimates": {
					"creation": {
						"codeDepositCost": "1142200",
						"executionCost": "infinite",
						"totalCost": "infinite"
					},
					"external": {
						"admin()": "2549",
						"campaigns(uint256)": "infinite",
						"claimRefund(uint256)": "infinite",
						"completeCampaign(uint256)": "infinite",
						"contributeFunds(uint256)": "infinite",
						"createCampaign(string,string,uint256)": "infinite",
						"deadlineDuration()": "2447",
						"nextCampaignId()": "2492"
					}
				},
				"methodIdentifiers": {
					"admin()": "f851a440",
					"campaigns(uint256)": "141961bc",
					"claimRefund(uint256)": "5b7baf64",
					"completeCampaign(uint256)": "9553f180",
					"contributeFunds(uint256)": "48a05132",
					"createCampaign(string,string,uint256)": "ffa56a57",
					"deadlineDuration()": "ba71ae9f",
					"nextCampaignId()": "7903a756"
				}
			},
			"storageLayout": {
				"storage": [
					{
						"astId": 3,
						"contract": "contracts/dummytask.sol:FundraisingPlatform",
						"label": "admin",
						"offset": 0,
						"slot": "0",
						"type": "t_address"
					},
					{
						"astId": 5,
						"contract": "contracts/dummytask.sol:FundraisingPlatform",
						"label": "deadlineDuration",
						"offset": 0,
						"slot": "1",
						"type": "t_uint256"
					},
					{
						"astId": 30,
						"contract": "contracts/dummytask.sol:FundraisingPlatform",
						"label": "campaigns",
						"offset": 0,
						"slot": "2",
						"type": "t_mapping(t_uint256,t_struct(Campaign)25_storage)"
					},
					{
						"astId": 32,
						"contract": "contracts/dummytask.sol:FundraisingPlatform",
						"label": "nextCampaignId",
						"offset": 0,
						"slot": "3",
						"type": "t_uint256"
					}
				],
				"types": {
					"t_address": {
						"encoding": "inplace",
						"label": "address",
						"numberOfBytes": "20"
					},
					"t_enum(CampaignStatus)9": {
						"encoding": "inplace",
						"label": "enum FundraisingPlatform.CampaignStatus",
						"numberOfBytes": "1"
					},
					"t_mapping(t_uint256,t_struct(Campaign)25_storage)": {
						"encoding": "mapping",
						"key": "t_uint256",
						"label": "mapping(uint256 => struct FundraisingPlatform.Campaign)",
						"numberOfBytes": "32",
						"value": "t_struct(Campaign)25_storage"
					},
					"t_string_storage": {
						"encoding": "bytes",
						"label": "string",
						"numberOfBytes": "32"
					},
					"t_struct(Campaign)25_storage": {
						"encoding": "inplace",
						"label": "struct FundraisingPlatform.Campaign",
						"members": [
							{
								"astId": 11,
								"contract": "contracts/dummytask.sol:FundraisingPlatform",
								"label": "owner",
								"offset": 0,
								"slot": "0",
								"type": "t_address"
							},
							{
								"astId": 13,
								"contract": "contracts/dummytask.sol:FundraisingPlatform",
								"label": "name",
								"offset": 0,
								"slot": "1",
								"type": "t_string_storage"
							},
							{
								"astId": 15,
								"contract": "contracts/dummytask.sol:FundraisingPlatform",
								"label": "description",
								"offset": 0,
								"slot": "2",
								"type": "t_string_storage"
							},
							{
								"astId": 17,
								"contract": "contracts/dummytask.sol:FundraisingPlatform",
								"label": "goal",
								"offset": 0,
								"slot": "3",
								"type": "t_uint256"
							},
							{
								"astId": 19,
								"contract": "contracts/dummytask.sol:FundraisingPlatform",
								"label": "raisedAmount",
								"offset": 0,
								"slot": "4",
								"type": "t_uint256"
							},
							{
								"astId": 21,
								"contract": "contracts/dummytask.sol:FundraisingPlatform",
								"label": "deadline",
								"offset": 0,
								"slot": "5",
								"type": "t_uint256"
							},
							{
								"astId": 24,
								"contract": "contracts/dummytask.sol:FundraisingPlatform",
								"label": "status",
								"offset": 0,
								"slot": "6",
								"type": "t_enum(CampaignStatus)9"
							}
						],
						"numberOfBytes": "224"
					},
					"t_uint256": {
						"encoding": "inplace",
						"label": "uint256",
						"numberOfBytes": "32"
					}
				}
			},
			"userdoc": {
				"kind": "user",
				"methods": {},
				"version": 1
			}
		}
	}
}