{
	"contracts/test.sol": {
		"DAPP": {
			"abi": [
				{
					"inputs": [],
					"stateMutability": "nonpayable",
					"type": "constructor"
				},
				{
					"anonymous": false,
					"inputs": [
						{
							"indexed": false,
							"internalType": "address",
							"name": "user",
							"type": "address"
						},
						{
							"indexed": false,
							"internalType": "uint256",
							"name": "id",
							"type": "uint256"
						},
						{
							"indexed": false,
							"internalType": "uint256",
							"name": "amount",
							"type": "uint256"
						}
					],
					"name": "complete",
					"type": "event"
				},
				{
					"anonymous": false,
					"inputs": [
						{
							"indexed": false,
							"internalType": "uint256",
							"name": "id",
							"type": "uint256"
						},
						{
							"indexed": false,
							"internalType": "address",
							"name": "user",
							"type": "address"
						},
						{
							"indexed": false,
							"internalType": "uint256",
							"name": "amount",
							"type": "uint256"
						}
					],
					"name": "contribute",
					"type": "event"
				},
				{
					"anonymous": false,
					"inputs": [
						{
							"indexed": false,
							"internalType": "address",
							"name": "user",
							"type": "address"
						},
						{
							"indexed": false,
							"internalType": "uint256",
							"name": "id",
							"type": "uint256"
						}
					],
					"name": "creat",
					"type": "event"
				},
				{
					"anonymous": false,
					"inputs": [
						{
							"indexed": false,
							"internalType": "string",
							"name": "",
							"type": "string"
						}
					],
					"name": "error",
					"type": "event"
				},
				{
					"anonymous": false,
					"inputs": [
						{
							"indexed": false,
							"internalType": "address",
							"name": "user",
							"type": "address"
						},
						{
							"indexed": false,
							"internalType": "uint256",
							"name": "id",
							"type": "uint256"
						},
						{
							"indexed": false,
							"internalType": "uint256",
							"name": "amount",
							"type": "uint256"
						}
					],
					"name": "refundclaim",
					"type": "event"
				},
				{
					"anonymous": false,
					"inputs": [
						{
							"indexed": false,
							"internalType": "string",
							"name": "",
							"type": "string"
						}
					],
					"name": "show",
					"type": "event"
				},
				{
					"inputs": [
						{
							"internalType": "uint256",
							"name": "user_id",
							"type": "uint256"
						}
					],
					"name": "claim",
					"outputs": [],
					"stateMutability": "nonpayable",
					"type": "function"
				},
				{
					"inputs": [
						{
							"internalType": "uint256",
							"name": "u_id",
							"type": "uint256"
						}
					],
					"name": "completebyadmin",
					"outputs": [],
					"stateMutability": "nonpayable",
					"type": "function"
				},
				{
					"inputs": [],
					"name": "contract_owner",
					"outputs": [
						{
							"internalType": "address",
							"name": "",
							"type": "address"
						}
					],
					"stateMutability": "view",
					"type": "function"
				},
				{
					"inputs": [
						{
							"internalType": "uint256",
							"name": "user_id",
							"type": "uint256"
						}
					],
					"name": "contribution",
					"outputs": [
						{
							"components": [
								{
									"internalType": "uint256",
									"name": "id",
									"type": "uint256"
								},
								{
									"internalType": "string",
									"name": "name",
									"type": "string"
								},
								{
									"internalType": "string",
									"name": "discription",
									"type": "string"
								},
								{
									"internalType": "address",
									"name": "campowner",
									"type": "address"
								},
								{
									"internalType": "uint256",
									"name": "raiseamount",
									"type": "uint256"
								},
								{
									"internalType": "enum DAPP.checkstate",
									"name": "state",
									"type": "uint8"
								}
							],
							"internalType": "struct DAPP.funding",
							"name": "res",
							"type": "tuple"
						}
					],
					"stateMutability": "payable",
					"type": "function"
				},
				{
					"inputs": [
						{
							"internalType": "uint256",
							"name": "_id",
							"type": "uint256"
						},
						{
							"internalType": "string",
							"name": "_name",
							"type": "string"
						},
						{
							"internalType": "string",
							"name": "_discription",
							"type": "string"
						}
					],
					"name": "creation",
					"outputs": [],
					"stateMutability": "nonpayable",
					"type": "function"
				},
				{
					"inputs": [],
					"name": "endtime",
					"outputs": [
						{
							"internalType": "uint256",
							"name": "",
							"type": "uint256"
						}
					],
					"stateMutability": "view",
					"type": "function"
				},
				{
					"inputs": [
						{
							"internalType": "uint256",
							"name": "uid",
							"type": "uint256"
						}
					],
					"name": "getdetails",
					"outputs": [
						{
							"components": [
								{
									"internalType": "uint256",
									"name": "id",
									"type": "uint256"
								},
								{
									"internalType": "string",
									"name": "name",
									"type": "string"
								},
								{
									"internalType": "string",
									"name": "discription",
									"type": "string"
								},
								{
									"internalType": "address",
									"name": "campowner",
									"type": "address"
								},
								{
									"internalType": "uint256",
									"name": "raiseamount",
									"type": "uint256"
								},
								{
									"internalType": "enum DAPP.checkstate",
									"name": "state",
									"type": "uint8"
								}
							],
							"internalType": "struct DAPP.funding",
							"name": "",
							"type": "tuple"
						}
					],
					"stateMutability": "view",
					"type": "function"
				},
				{
					"inputs": [
						{
							"internalType": "uint256",
							"name": "user_id",
							"type": "uint256"
						}
					],
					"name": "refund",
					"outputs": [],
					"stateMutability": "nonpayable",
					"type": "function"
				},
				{
					"stateMutability": "payable",
					"type": "receive"
				}
			],
			"devdoc": {
				"kind": "dev",
				"methods": {},
				"version": 1
			},
			"evm": {
				"assembly": "    /* \"contracts/test.sol\":61:3637  contract DAPP{... */\n  mstore(0x40, 0x80)\n    /* \"contracts/test.sol\":449:458  2 minutes */\n  0x78\n    /* \"contracts/test.sol\":431:446  block.timestamp */\n  timestamp\n    /* \"contracts/test.sol\":431:458  block.timestamp + 2 minutes */\n  tag_1\n  swap2\n  swap1\n  tag_2\n  jump\t// in\ntag_1:\n    /* \"contracts/test.sol\":407:458  uint256 public endtime= block.timestamp + 2 minutes */\n  0x01\n  sstore\n    /* \"contracts/test.sol\":499:550  constructor(){... */\n  callvalue\n  dup1\n  iszero\n  tag_3\n  jumpi\n  0x00\n  dup1\n  revert\ntag_3:\n  pop\n    /* \"contracts/test.sol\":536:546  msg.sender */\n  caller\n    /* \"contracts/test.sol\":519:533  contract_owner */\n  0x00\n  dup1\n    /* \"contracts/test.sol\":519:546  contract_owner = msg.sender */\n  0x0100\n  exp\n  dup2\n  sload\n  dup2\n  0xffffffffffffffffffffffffffffffffffffffff\n  mul\n  not\n  and\n  swap1\n  dup4\n  0xffffffffffffffffffffffffffffffffffffffff\n  and\n  mul\n  or\n  swap1\n  sstore\n  pop\n    /* \"contracts/test.sol\":61:3637  contract DAPP{... */\n  jump(tag_6)\n    /* \"#utility.yul\":7:84   */\ntag_7:\n    /* \"#utility.yul\":44:51   */\n  0x00\n    /* \"#utility.yul\":73:78   */\n  dup2\n    /* \"#utility.yul\":62:78   */\n  swap1\n  pop\n    /* \"#utility.yul\":7:84   */\n  swap2\n  swap1\n  pop\n  jump\t// out\n    /* \"#utility.yul\":90:270   */\ntag_8:\n    /* \"#utility.yul\":138:215   */\n  0x4e487b7100000000000000000000000000000000000000000000000000000000\n    /* \"#utility.yul\":135:136   */\n  0x00\n    /* \"#utility.yul\":128:216   */\n  mstore\n    /* \"#utility.yul\":235:239   */\n  0x11\n    /* \"#utility.yul\":232:233   */\n  0x04\n    /* \"#utility.yul\":225:240   */\n  mstore\n    /* \"#utility.yul\":259:263   */\n  0x24\n    /* \"#utility.yul\":256:257   */\n  0x00\n    /* \"#utility.yul\":249:264   */\n  revert\n    /* \"#utility.yul\":276:467   */\ntag_2:\n    /* \"#utility.yul\":316:319   */\n  0x00\n    /* \"#utility.yul\":335:355   */\n  tag_13\n    /* \"#utility.yul\":353:354   */\n  dup3\n    /* \"#utility.yul\":335:355   */\n  tag_7\n  jump\t// in\ntag_13:\n    /* \"#utility.yul\":330:355   */\n  swap2\n  pop\n    /* \"#utility.yul\":369:389   */\n  tag_14\n    /* \"#utility.yul\":387:388   */\n  dup4\n    /* \"#utility.yul\":369:389   */\n  tag_7\n  jump\t// in\ntag_14:\n    /* \"#utility.yul\":364:389   */\n  swap3\n  pop\n    /* \"#utility.yul\":412:413   */\n  dup3\n    /* \"#utility.yul\":409:410   */\n  dup3\n    /* \"#utility.yul\":405:414   */\n  add\n    /* \"#utility.yul\":398:414   */\n  swap1\n  pop\n    /* \"#utility.yul\":433:436   */\n  dup1\n    /* \"#utility.yul\":430:431   */\n  dup3\n    /* \"#utility.yul\":427:437   */\n  gt\n    /* \"#utility.yul\":424:460   */\n  iszero\n  tag_15\n  jumpi\n    /* \"#utility.yul\":440:458   */\n  tag_16\n  tag_8\n  jump\t// in\ntag_16:\n    /* \"#utility.yul\":424:460   */\ntag_15:\n    /* \"#utility.yul\":276:467   */\n  swap3\n  swap2\n  pop\n  pop\n  jump\t// out\n    /* \"contracts/test.sol\":61:3637  contract DAPP{... */\ntag_6:\n  dataSize(sub_0)\n  dup1\n  dataOffset(sub_0)\n  0x00\n  codecopy\n  0x00\n  return\nstop\n\nsub_0: assembly {\n        /* \"contracts/test.sol\":61:3637  contract DAPP{... */\n      mstore(0x40, 0x80)\n      jumpi(tag_1, lt(calldatasize, 0x04))\n      shr(0xe0, calldataload(0x00))\n      dup1\n      0x379607f5\n      gt\n      tag_11\n      jumpi\n      dup1\n      0x379607f5\n      eq\n      tag_7\n      jumpi\n      dup1\n      0x384f58eb\n      eq\n      tag_8\n      jumpi\n      dup1\n      0xe8709c40\n      eq\n      tag_9\n      jumpi\n      dup1\n      0xf1ca8bff\n      eq\n      tag_10\n      jumpi\n      jump(tag_2)\n    tag_11:\n      dup1\n      0x10445b2b\n      eq\n      tag_3\n      jumpi\n      dup1\n      0x15411001\n      eq\n      tag_4\n      jumpi\n      dup1\n      0x278ecde1\n      eq\n      tag_5\n      jumpi\n      dup1\n      0x2ca126f8\n      eq\n      tag_6\n      jumpi\n      jump(tag_2)\n    tag_1:\n      jumpi(tag_2, calldatasize)\n        /* \"contracts/test.sol\":3113:3149  show(\"amount received successfully\") */\n      0xbe025cd0737d1912c421eb1ace55f3a811fccb8c5a479c1d21f0882dc11c607f\n      mload(0x40)\n      tag_14\n      swap1\n      tag_15\n      jump\t// in\n    tag_14:\n      mload(0x40)\n      dup1\n      swap2\n      sub\n      swap1\n      log1\n        /* \"contracts/test.sol\":61:3637  contract DAPP{... */\n      stop\n    tag_2:\n      0x00\n      dup1\n      revert\n        /* \"contracts/test.sol\":3157:3265  function getdetails(uint256 uid) external view returns (funding memory) {... */\n    tag_3:\n      callvalue\n      dup1\n      iszero\n      tag_16\n      jumpi\n      0x00\n      dup1\n      revert\n    tag_16:\n      pop\n      tag_17\n      0x04\n      dup1\n      calldatasize\n      sub\n      dup2\n      add\n      swap1\n      tag_18\n      swap2\n      swap1\n      tag_19\n      jump\t// in\n    tag_18:\n      tag_20\n      jump\t// in\n    tag_17:\n      mload(0x40)\n      tag_21\n      swap2\n      swap1\n      tag_22\n      jump\t// in\n    tag_21:\n      mload(0x40)\n      dup1\n      swap2\n      sub\n      swap1\n      return\n        /* \"contracts/test.sol\":1362:1520  function creation(uint _id,string calldata _name,... */\n    tag_4:\n      callvalue\n      dup1\n      iszero\n      tag_23\n      jumpi\n      0x00\n      dup1\n      revert\n    tag_23:\n      pop\n      tag_24\n      0x04\n      dup1\n      calldatasize\n      sub\n      dup2\n      add\n      swap1\n      tag_25\n      swap2\n      swap1\n      tag_26\n      jump\t// in\n    tag_25:\n      tag_27\n      jump\t// in\n    tag_24:\n      stop\n        /* \"contracts/test.sol\":2736:3071  function refund(uint256 user_id) public  refundallowedtime {... */\n    tag_5:\n      callvalue\n      dup1\n      iszero\n      tag_28\n      jumpi\n      0x00\n      dup1\n      revert\n    tag_28:\n      pop\n      tag_29\n      0x04\n      dup1\n      calldatasize\n      sub\n      dup2\n      add\n      swap1\n      tag_30\n      swap2\n      swap1\n      tag_19\n      jump\t// in\n    tag_30:\n      tag_31\n      jump\t// in\n    tag_29:\n      stop\n        /* \"contracts/test.sol\":407:458  uint256 public endtime= block.timestamp + 2 minutes */\n    tag_6:\n      callvalue\n      dup1\n      iszero\n      tag_32\n      jumpi\n      0x00\n      dup1\n      revert\n    tag_32:\n      pop\n      tag_33\n      tag_34\n      jump\t// in\n    tag_33:\n      mload(0x40)\n      tag_35\n      swap2\n      swap1\n      tag_36\n      jump\t// in\n    tag_35:\n      mload(0x40)\n      dup1\n      swap2\n      sub\n      swap1\n      return\n        /* \"contracts/test.sol\":2252:2613  function claim(uint256 user_id) public allowedclaim{... */\n    tag_7:\n      callvalue\n      dup1\n      iszero\n      tag_37\n      jumpi\n      0x00\n      dup1\n      revert\n    tag_37:\n      pop\n      tag_38\n      0x04\n      dup1\n      calldatasize\n      sub\n      dup2\n      add\n      swap1\n      tag_39\n      swap2\n      swap1\n      tag_19\n      jump\t// in\n    tag_39:\n      tag_40\n      jump\t// in\n    tag_38:\n      stop\n        /* \"contracts/test.sol\":374:404  address public  contract_owner */\n    tag_8:\n      callvalue\n      dup1\n      iszero\n      tag_41\n      jumpi\n      0x00\n      dup1\n      revert\n    tag_41:\n      pop\n      tag_42\n      tag_43\n      jump\t// in\n    tag_42:\n      mload(0x40)\n      tag_44\n      swap2\n      swap1\n      tag_45\n      jump\t// in\n    tag_44:\n      mload(0x40)\n      dup1\n      swap2\n      sub\n      swap1\n      return\n        /* \"contracts/test.sol\":1642:2090  function contribution(uint256 user_id) external payable   allowedtime returns (funding memory res) {... */\n    tag_9:\n      tag_46\n      0x04\n      dup1\n      calldatasize\n      sub\n      dup2\n      add\n      swap1\n      tag_47\n      swap2\n      swap1\n      tag_19\n      jump\t// in\n    tag_47:\n      tag_48\n      jump\t// in\n    tag_46:\n      mload(0x40)\n      tag_49\n      swap2\n      swap1\n      tag_22\n      jump\t// in\n    tag_49:\n      mload(0x40)\n      dup1\n      swap2\n      sub\n      swap1\n      return\n        /* \"contracts/test.sol\":3269:3630  function completebyadmin(uint256 u_id) public onlycontractowner{... */\n    tag_10:\n      callvalue\n      dup1\n      iszero\n      tag_50\n      jumpi\n      0x00\n      dup1\n      revert\n    tag_50:\n      pop\n      tag_51\n      0x04\n      dup1\n      calldatasize\n      sub\n      dup2\n      add\n      swap1\n      tag_52\n      swap2\n      swap1\n      tag_19\n      jump\t// in\n    tag_52:\n      tag_53\n      jump\t// in\n    tag_51:\n      stop\n        /* \"contracts/test.sol\":3157:3265  function getdetails(uint256 uid) external view returns (funding memory) {... */\n    tag_20:\n        /* \"contracts/test.sol\":3213:3227  funding memory */\n      tag_54\n      tag_55\n      jump\t// in\n    tag_54:\n        /* \"contracts/test.sol\":3245:3249  fund */\n      0x02\n        /* \"contracts/test.sol\":3245:3254  fund[uid] */\n      0x00\n        /* \"contracts/test.sol\":3250:3253  uid */\n      dup4\n        /* \"contracts/test.sol\":3245:3254  fund[uid] */\n      dup2\n      mstore\n      0x20\n      add\n      swap1\n      dup2\n      mstore\n      0x20\n      add\n      0x00\n      keccak256\n        /* \"contracts/test.sol\":3238:3254  return fund[uid] */\n      mload(0x40)\n      dup1\n      0xc0\n      add\n      0x40\n      mstore\n      swap1\n      dup2\n      0x00\n      dup3\n      add\n      sload\n      dup2\n      mstore\n      0x20\n      add\n      0x01\n      dup3\n      add\n      dup1\n      sload\n      tag_57\n      swap1\n      tag_58\n      jump\t// in\n    tag_57:\n      dup1\n      0x1f\n      add\n      0x20\n      dup1\n      swap2\n      div\n      mul\n      0x20\n      add\n      mload(0x40)\n      swap1\n      dup2\n      add\n      0x40\n      mstore\n      dup1\n      swap3\n      swap2\n      swap1\n      dup2\n      dup2\n      mstore\n      0x20\n      add\n      dup3\n      dup1\n      sload\n      tag_59\n      swap1\n      tag_58\n      jump\t// in\n    tag_59:\n      dup1\n      iszero\n      tag_60\n      jumpi\n      dup1\n      0x1f\n      lt\n      tag_61\n      jumpi\n      0x0100\n      dup1\n      dup4\n      sload\n      div\n      mul\n      dup4\n      mstore\n      swap2\n      0x20\n      add\n      swap2\n      jump(tag_60)\n    tag_61:\n      dup3\n      add\n      swap2\n      swap1\n      0x00\n      mstore\n      keccak256(0x00, 0x20)\n      swap1\n    tag_62:\n      dup2\n      sload\n      dup2\n      mstore\n      swap1\n      0x01\n      add\n      swap1\n      0x20\n      add\n      dup1\n      dup4\n      gt\n      tag_62\n      jumpi\n      dup3\n      swap1\n      sub\n      0x1f\n      and\n      dup3\n      add\n      swap2\n    tag_60:\n      pop\n      pop\n      pop\n      pop\n      pop\n      dup2\n      mstore\n      0x20\n      add\n      0x02\n      dup3\n      add\n      dup1\n      sload\n      tag_63\n      swap1\n      tag_58\n      jump\t// in\n    tag_63:\n      dup1\n      0x1f\n      add\n      0x20\n      dup1\n      swap2\n      div\n      mul\n      0x20\n      add\n      mload(0x40)\n      swap1\n      dup2\n      add\n      0x40\n      mstore\n      dup1\n      swap3\n      swap2\n      swap1\n      dup2\n      dup2\n      mstore\n      0x20\n      add\n      dup3\n      dup1\n      sload\n      tag_64\n      swap1\n      tag_58\n      jump\t// in\n    tag_64:\n      dup1\n      iszero\n      tag_65\n      jumpi\n      dup1\n      0x1f\n      lt\n      tag_66\n      jumpi\n      0x0100\n      dup1\n      dup4\n      sload\n      div\n      mul\n      dup4\n      mstore\n      swap2\n      0x20\n      add\n      swap2\n      jump(tag_65)\n    tag_66:\n      dup3\n      add\n      swap2\n      swap1\n      0x00\n      mstore\n      keccak256(0x00, 0x20)\n      swap1\n    tag_67:\n      dup2\n      sload\n      dup2\n      mstore\n      swap1\n      0x01\n      add\n      swap1\n      0x20\n      add\n      dup1\n      dup4\n      gt\n      tag_67\n      jumpi\n      dup3\n      swap1\n      sub\n      0x1f\n      and\n      dup3\n      add\n      swap2\n    tag_65:\n      pop\n      pop\n      pop\n      pop\n      pop\n      dup2\n      mstore\n      0x20\n      add\n      0x03\n      dup3\n      add\n      0x00\n      swap1\n      sload\n      swap1\n      0x0100\n      exp\n      swap1\n      div\n      0xffffffffffffffffffffffffffffffffffffffff\n      and\n      0xffffffffffffffffffffffffffffffffffffffff\n      and\n      0xffffffffffffffffffffffffffffffffffffffff\n      and\n      dup2\n      mstore\n      0x20\n      add\n      0x04\n      dup3\n      add\n      sload\n      dup2\n      mstore\n      0x20\n      add\n      0x05\n      dup3\n      add\n      0x00\n      swap1\n      sload\n      swap1\n      0x0100\n      exp\n      swap1\n      div\n      0xff\n      and\n      0x01\n      dup2\n      gt\n      iszero\n      tag_68\n      jumpi\n      tag_69\n      tag_70\n      jump\t// in\n    tag_69:\n    tag_68:\n      0x01\n      dup2\n      gt\n      iszero\n      tag_71\n      jumpi\n      tag_72\n      tag_70\n      jump\t// in\n    tag_72:\n    tag_71:\n      dup2\n      mstore\n      pop\n      pop\n      swap1\n      pop\n        /* \"contracts/test.sol\":3157:3265  function getdetails(uint256 uid) external view returns (funding memory) {... */\n      swap2\n      swap1\n      pop\n      jump\t// out\n        /* \"contracts/test.sol\":1362:1520  function creation(uint _id,string calldata _name,... */\n    tag_27:\n        /* \"contracts/test.sol\":1453:1486  add_user(_id,_name, _discription) */\n      tag_74\n        /* \"contracts/test.sol\":1462:1465  _id */\n      dup5\n        /* \"contracts/test.sol\":1466:1471  _name */\n      dup5\n      dup5\n        /* \"contracts/test.sol\":1473:1485  _discription */\n      dup5\n        /* \"contracts/test.sol\":1453:1461  add_user */\n      tag_75\n        /* \"contracts/test.sol\":1453:1486  add_user(_id,_name, _discription) */\n      jump\t// in\n    tag_74:\n        /* \"contracts/test.sol\":1494:1516  creat(msg.sender, _id) */\n      0xc25f73d8066f835a9a93ef7719cc9dfa37651997ad88ea41abe71c77f9209ce7\n        /* \"contracts/test.sol\":1500:1510  msg.sender */\n      caller\n        /* \"contracts/test.sol\":1512:1515  _id */\n      dup6\n        /* \"contracts/test.sol\":1494:1516  creat(msg.sender, _id) */\n      mload(0x40)\n      tag_76\n      swap3\n      swap2\n      swap1\n      tag_77\n      jump\t// in\n    tag_76:\n      mload(0x40)\n      dup1\n      swap2\n      sub\n      swap1\n      log1\n        /* \"contracts/test.sol\":1362:1520  function creation(uint _id,string calldata _name,... */\n      pop\n      pop\n      pop\n      pop\n      jump\t// out\n        /* \"contracts/test.sol\":2736:3071  function refund(uint256 user_id) public  refundallowedtime {... */\n    tag_31:\n        /* \"contracts/test.sol\":2676:2683  endtime */\n      sload(0x01)\n        /* \"contracts/test.sol\":2658:2673  block.timestamp */\n      timestamp\n        /* \"contracts/test.sol\":2658:2683  block.timestamp > endtime */\n      gt\n        /* \"contracts/test.sol\":2650:2722  require(block.timestamp > endtime ,\"can't refund cuz deadline not meet\") */\n      tag_79\n      jumpi\n      mload(0x40)\n      0x08c379a000000000000000000000000000000000000000000000000000000000\n      dup2\n      mstore\n      0x04\n      add\n      tag_80\n      swap1\n      tag_81\n      jump\t// in\n    tag_80:\n      mload(0x40)\n      dup1\n      swap2\n      sub\n      swap1\n      revert\n    tag_79:\n        /* \"contracts/test.sol\":486:494  20 ether */\n      0x01158e460913d00000\n        /* \"contracts/test.sol\":2801:2805  fund */\n      0x02\n        /* \"contracts/test.sol\":2801:2814  fund[user_id] */\n      0x00\n        /* \"contracts/test.sol\":2806:2813  user_id */\n      dup4\n        /* \"contracts/test.sol\":2801:2814  fund[user_id] */\n      dup2\n      mstore\n      0x20\n      add\n      swap1\n      dup2\n      mstore\n      0x20\n      add\n      0x00\n      keccak256\n        /* \"contracts/test.sol\":2801:2826  fund[user_id].raiseamount */\n      0x04\n      add\n      sload\n        /* \"contracts/test.sol\":2801:2834  fund[user_id].raiseamount < goals */\n      lt\n        /* \"contracts/test.sol\":2798:3066  if(fund[user_id].raiseamount < goals){... */\n      iszero\n      tag_83\n      jumpi\n        /* \"contracts/test.sol\":2848:2862  uint256 amount */\n      0x00\n        /* \"contracts/test.sol\":2865:2869  fund */\n      0x02\n        /* \"contracts/test.sol\":2865:2878  fund[user_id] */\n      0x00\n        /* \"contracts/test.sol\":2870:2877  user_id */\n      dup4\n        /* \"contracts/test.sol\":2865:2878  fund[user_id] */\n      dup2\n      mstore\n      0x20\n      add\n      swap1\n      dup2\n      mstore\n      0x20\n      add\n      0x00\n      keccak256\n        /* \"contracts/test.sol\":2865:2890  fund[user_id].raiseamount */\n      0x04\n      add\n      sload\n        /* \"contracts/test.sol\":2848:2890  uint256 amount = fund[user_id].raiseamount */\n      swap1\n      pop\n        /* \"contracts/test.sol\":2939:2949  msg.sender */\n      caller\n        /* \"contracts/test.sol\":2931:2959  payable(msg.sender).transfer */\n      0xffffffffffffffffffffffffffffffffffffffff\n      and\n        /* \"contracts/test.sol\":2931:2967  payable(msg.sender).transfer(amount) */\n      0x08fc\n        /* \"contracts/test.sol\":2960:2966  amount */\n      dup3\n        /* \"contracts/test.sol\":2931:2967  payable(msg.sender).transfer(amount) */\n      swap1\n      dup2\n      iszero\n      mul\n      swap1\n      mload(0x40)\n      0x00\n      mload(0x40)\n      dup1\n      dup4\n      sub\n      dup2\n      dup6\n      dup9\n      dup9\n      call\n      swap4\n      pop\n      pop\n      pop\n      pop\n      iszero\n      dup1\n      iszero\n      tag_85\n      jumpi\n      returndatasize\n      0x00\n      dup1\n      returndatacopy\n      revert(0x00, returndatasize)\n    tag_85:\n      pop\n        /* \"contracts/test.sol\":2979:3018  refundclaim(msg.sender, user_id,amount) */\n      0x6bcc8e13f2b9cabd8625faa0937688a01aab305f3a921ee1e5fbcff66144fa57\n        /* \"contracts/test.sol\":2991:3001  msg.sender */\n      caller\n        /* \"contracts/test.sol\":3003:3010  user_id */\n      dup4\n        /* \"contracts/test.sol\":3011:3017  amount */\n      dup4\n        /* \"contracts/test.sol\":2979:3018  refundclaim(msg.sender, user_id,amount) */\n      mload(0x40)\n      tag_86\n      swap4\n      swap3\n      swap2\n      swap1\n      tag_87\n      jump\t// in\n    tag_86:\n      mload(0x40)\n      dup1\n      swap2\n      sub\n      swap1\n      log1\n        /* \"contracts/test.sol\":2835:3022  {... */\n      pop\n        /* \"contracts/test.sol\":2798:3066  if(fund[user_id].raiseamount < goals){... */\n      jump(tag_88)\n    tag_83:\n        /* \"contracts/test.sol\":3037:3062  revert(\"u can't refund \") */\n      mload(0x40)\n      0x08c379a000000000000000000000000000000000000000000000000000000000\n      dup2\n      mstore\n      0x04\n      add\n      tag_89\n      swap1\n      tag_90\n      jump\t// in\n    tag_89:\n      mload(0x40)\n      dup1\n      swap2\n      sub\n      swap1\n      revert\n        /* \"contracts/test.sol\":2798:3066  if(fund[user_id].raiseamount < goals){... */\n    tag_88:\n        /* \"contracts/test.sol\":2736:3071  function refund(uint256 user_id) public  refundallowedtime {... */\n      pop\n      jump\t// out\n        /* \"contracts/test.sol\":407:458  uint256 public endtime= block.timestamp + 2 minutes */\n    tag_34:\n      sload(0x01)\n      dup2\n      jump\t// out\n        /* \"contracts/test.sol\":2252:2613  function claim(uint256 user_id) public allowedclaim{... */\n    tag_40:\n        /* \"contracts/test.sol\":2175:2182  endtime */\n      sload(0x01)\n        /* \"contracts/test.sol\":2156:2171  block.timestamp */\n      timestamp\n        /* \"contracts/test.sol\":2156:2182  block.timestamp >= endtime */\n      lt\n      iszero\n        /* \"contracts/test.sol\":2148:2236  require(block.timestamp >= endtime,\"not allowed claiming cuz allowed time is remaining\") */\n      tag_92\n      jumpi\n      mload(0x40)\n      0x08c379a000000000000000000000000000000000000000000000000000000000\n      dup2\n      mstore\n      0x04\n      add\n      tag_93\n      swap1\n      tag_94\n      jump\t// in\n    tag_93:\n      mload(0x40)\n      dup1\n      swap2\n      sub\n      swap1\n      revert\n    tag_92:\n        /* \"contracts/test.sol\":486:494  20 ether */\n      0x01158e460913d00000\n        /* \"contracts/test.sol\":2309:2313  fund */\n      0x02\n        /* \"contracts/test.sol\":2309:2322  fund[user_id] */\n      0x00\n        /* \"contracts/test.sol\":2314:2321  user_id */\n      dup4\n        /* \"contracts/test.sol\":2309:2322  fund[user_id] */\n      dup2\n      mstore\n      0x20\n      add\n      swap1\n      dup2\n      mstore\n      0x20\n      add\n      0x00\n      keccak256\n        /* \"contracts/test.sol\":2309:2334  fund[user_id].raiseamount */\n      0x04\n      add\n      sload\n        /* \"contracts/test.sol\":2309:2343  fund[user_id].raiseamount >= goals */\n      lt\n        /* \"contracts/test.sol\":2306:2610  if(fund[user_id].raiseamount >= goals){... */\n      tag_96\n      jumpi\n        /* \"contracts/test.sol\":2355:2369  uint256 amount */\n      0x00\n        /* \"contracts/test.sol\":2372:2376  fund */\n      0x02\n        /* \"contracts/test.sol\":2372:2385  fund[user_id] */\n      0x00\n        /* \"contracts/test.sol\":2377:2384  user_id */\n      dup4\n        /* \"contracts/test.sol\":2372:2385  fund[user_id] */\n      dup2\n      mstore\n      0x20\n      add\n      swap1\n      dup2\n      mstore\n      0x20\n      add\n      0x00\n      keccak256\n        /* \"contracts/test.sol\":2372:2397  fund[user_id].raiseamount */\n      0x04\n      add\n      sload\n        /* \"contracts/test.sol\":2355:2397  uint256 amount = fund[user_id].raiseamount */\n      swap1\n      pop\n        /* \"contracts/test.sol\":2412:2416  fund */\n      0x02\n        /* \"contracts/test.sol\":2412:2425  fund[user_id] */\n      0x00\n        /* \"contracts/test.sol\":2417:2424  user_id */\n      dup4\n        /* \"contracts/test.sol\":2412:2425  fund[user_id] */\n      dup2\n      mstore\n      0x20\n      add\n      swap1\n      dup2\n      mstore\n      0x20\n      add\n      0x00\n      keccak256\n        /* \"contracts/test.sol\":2412:2435  fund[user_id].campowner */\n      0x03\n      add\n      0x00\n      swap1\n      sload\n      swap1\n      0x0100\n      exp\n      swap1\n      div\n      0xffffffffffffffffffffffffffffffffffffffff\n      and\n        /* \"contracts/test.sol\":2404:2445  payable(fund[user_id].campowner).transfer */\n      0xffffffffffffffffffffffffffffffffffffffff\n      and\n        /* \"contracts/test.sol\":2404:2453  payable(fund[user_id].campowner).transfer(amount) */\n      0x08fc\n        /* \"contracts/test.sol\":2446:2452  amount */\n      dup3\n        /* \"contracts/test.sol\":2404:2453  payable(fund[user_id].campowner).transfer(amount) */\n      swap1\n      dup2\n      iszero\n      mul\n      swap1\n      mload(0x40)\n      0x00\n      mload(0x40)\n      dup1\n      dup4\n      sub\n      dup2\n      dup6\n      dup9\n      dup9\n      call\n      swap4\n      pop\n      pop\n      pop\n      pop\n      iszero\n      dup1\n      iszero\n      tag_98\n      jumpi\n      returndatasize\n      0x00\n      dup1\n      returndatacopy\n      revert(0x00, returndatasize)\n    tag_98:\n      pop\n        /* \"contracts/test.sol\":2482:2502  checkstate.completed */\n      0x01\n        /* \"contracts/test.sol\":2460:2464  fund */\n      0x02\n        /* \"contracts/test.sol\":2460:2473  fund[user_id] */\n      0x00\n        /* \"contracts/test.sol\":2465:2472  user_id */\n      dup5\n        /* \"contracts/test.sol\":2460:2473  fund[user_id] */\n      dup2\n      mstore\n      0x20\n      add\n      swap1\n      dup2\n      mstore\n      0x20\n      add\n      0x00\n      keccak256\n        /* \"contracts/test.sol\":2460:2479  fund[user_id].state */\n      0x05\n      add\n      0x00\n        /* \"contracts/test.sol\":2460:2502  fund[user_id].state = checkstate.completed */\n      0x0100\n      exp\n      dup2\n      sload\n      dup2\n      0xff\n      mul\n      not\n      and\n      swap1\n      dup4\n      0x01\n      dup2\n      gt\n      iszero\n      tag_99\n      jumpi\n      tag_100\n      tag_70\n      jump\t// in\n    tag_100:\n    tag_99:\n      mul\n      or\n      swap1\n      sstore\n      pop\n        /* \"contracts/test.sol\":2514:2550  complete(msg.sender, user_id,amount) */\n      0x9576942f6783612a1de73784d0a4a99e49ddbc7e59e8fc927cffc1ee5385d236\n        /* \"contracts/test.sol\":2523:2533  msg.sender */\n      caller\n        /* \"contracts/test.sol\":2535:2542  user_id */\n      dup4\n        /* \"contracts/test.sol\":2543:2549  amount */\n      dup4\n        /* \"contracts/test.sol\":2514:2550  complete(msg.sender, user_id,amount) */\n      mload(0x40)\n      tag_101\n      swap4\n      swap3\n      swap2\n      swap1\n      tag_87\n      jump\t// in\n    tag_101:\n      mload(0x40)\n      dup1\n      swap2\n      sub\n      swap1\n      log1\n        /* \"contracts/test.sol\":2344:2556  {... */\n      pop\n        /* \"contracts/test.sol\":2306:2610  if(fund[user_id].raiseamount >= goals){... */\n      jump(tag_102)\n    tag_96:\n        /* \"contracts/test.sol\":2569:2606  revert(\"amount is not equal to goal\") */\n      mload(0x40)\n      0x08c379a000000000000000000000000000000000000000000000000000000000\n      dup2\n      mstore\n      0x04\n      add\n      tag_103\n      swap1\n      tag_104\n      jump\t// in\n    tag_103:\n      mload(0x40)\n      dup1\n      swap2\n      sub\n      swap1\n      revert\n        /* \"contracts/test.sol\":2306:2610  if(fund[user_id].raiseamount >= goals){... */\n    tag_102:\n        /* \"contracts/test.sol\":2252:2613  function claim(uint256 user_id) public allowedclaim{... */\n      pop\n      jump\t// out\n        /* \"contracts/test.sol\":374:404  address public  contract_owner */\n    tag_43:\n      0x00\n      dup1\n      sload\n      swap1\n      0x0100\n      exp\n      swap1\n      div\n      0xffffffffffffffffffffffffffffffffffffffff\n      and\n      dup2\n      jump\t// out\n        /* \"contracts/test.sol\":1642:2090  function contribution(uint256 user_id) external payable   allowedtime returns (funding memory res) {... */\n    tag_48:\n        /* \"contracts/test.sol\":1721:1739  funding memory res */\n      tag_105\n      tag_55\n      jump\t// in\n    tag_105:\n        /* \"contracts/test.sol\":684:691  endtime */\n      sload(0x01)\n        /* \"contracts/test.sol\":665:680  block.timestamp */\n      timestamp\n        /* \"contracts/test.sol\":665:691  block.timestamp <= endtime */\n      gt\n      iszero\n        /* \"contracts/test.sol\":657:735  require(block.timestamp <= endtime,\"transaction are not allowed in this time\") */\n      tag_107\n      jumpi\n      mload(0x40)\n      0x08c379a000000000000000000000000000000000000000000000000000000000\n      dup2\n      mstore\n      0x04\n      add\n      tag_108\n      swap1\n      tag_109\n      jump\t// in\n    tag_108:\n      mload(0x40)\n      dup1\n      swap2\n      sub\n      swap1\n      revert\n    tag_107:\n        /* \"contracts/test.sol\":1775:1784  msg.value */\n      callvalue\n        /* \"contracts/test.sol\":1746:1750  fund */\n      0x02\n        /* \"contracts/test.sol\":1746:1759  fund[user_id] */\n      0x00\n        /* \"contracts/test.sol\":1751:1758  user_id */\n      dup5\n        /* \"contracts/test.sol\":1746:1759  fund[user_id] */\n      dup2\n      mstore\n      0x20\n      add\n      swap1\n      dup2\n      mstore\n      0x20\n      add\n      0x00\n      keccak256\n        /* \"contracts/test.sol\":1746:1771  fund[user_id].raiseamount */\n      0x04\n      add\n      0x00\n        /* \"contracts/test.sol\":1746:1784  fund[user_id].raiseamount += msg.value */\n      dup3\n      dup3\n      sload\n      tag_111\n      swap2\n      swap1\n      tag_112\n      jump\t// in\n    tag_111:\n      swap3\n      pop\n      pop\n      dup2\n      swap1\n      sstore\n      pop\n        /* \"contracts/test.sol\":1816:1833  checkstate.active */\n      0x00\n        /* \"contracts/test.sol\":1795:1833  fund[user_id].state==checkstate.active */\n      0x01\n      dup2\n      gt\n      iszero\n      tag_113\n      jumpi\n      tag_114\n      tag_70\n      jump\t// in\n    tag_114:\n    tag_113:\n        /* \"contracts/test.sol\":1795:1799  fund */\n      0x02\n        /* \"contracts/test.sol\":1795:1808  fund[user_id] */\n      0x00\n        /* \"contracts/test.sol\":1800:1807  user_id */\n      dup5\n        /* \"contracts/test.sol\":1795:1808  fund[user_id] */\n      dup2\n      mstore\n      0x20\n      add\n      swap1\n      dup2\n      mstore\n      0x20\n      add\n      0x00\n      keccak256\n        /* \"contracts/test.sol\":1795:1814  fund[user_id].state */\n      0x05\n      add\n      0x00\n      swap1\n      sload\n      swap1\n      0x0100\n      exp\n      swap1\n      div\n      0xff\n      and\n        /* \"contracts/test.sol\":1795:1833  fund[user_id].state==checkstate.active */\n      0x01\n      dup2\n      gt\n      iszero\n      tag_115\n      jumpi\n      tag_116\n      tag_70\n      jump\t// in\n    tag_116:\n    tag_115:\n      eq\n        /* \"contracts/test.sol\":1787:1856  require(fund[user_id].state==checkstate.active,\"sttae is not acrive\") */\n      tag_117\n      jumpi\n      mload(0x40)\n      0x08c379a000000000000000000000000000000000000000000000000000000000\n      dup2\n      mstore\n      0x04\n      add\n      tag_118\n      swap1\n      tag_119\n      jump\t// in\n    tag_118:\n      mload(0x40)\n      dup1\n      swap2\n      sub\n      swap1\n      revert\n    tag_117:\n        /* \"contracts/test.sol\":1866:1908  contribute(user_id, msg.sender, msg.value) */\n      0x8952ac1e80fc86d8ccb4c9bb2b1df4ba33b963fdc98de332d4d07a43ddddc462\n        /* \"contracts/test.sol\":1877:1884  user_id */\n      dup3\n        /* \"contracts/test.sol\":1886:1896  msg.sender */\n      caller\n        /* \"contracts/test.sol\":1898:1907  msg.value */\n      callvalue\n        /* \"contracts/test.sol\":1866:1908  contribute(user_id, msg.sender, msg.value) */\n      mload(0x40)\n      tag_120\n      swap4\n      swap3\n      swap2\n      swap1\n      tag_121\n      jump\t// in\n    tag_120:\n      mload(0x40)\n      dup1\n      swap2\n      sub\n      swap1\n      log1\n        /* \"contracts/test.sol\":1917:1921  this */\n      address\n        /* \"contracts/test.sol\":1917:1932  this.getdetails */\n      0xffffffffffffffffffffffffffffffffffffffff\n      and\n      0x10445b2b\n        /* \"contracts/test.sol\":1933:1940  user_id */\n      dup4\n        /* \"contracts/test.sol\":1917:1941  this.getdetails(user_id) */\n      mload(0x40)\n      dup3\n      0xffffffff\n      and\n      0xe0\n      shl\n      dup2\n      mstore\n      0x04\n      add\n      tag_122\n      swap2\n      swap1\n      tag_36\n      jump\t// in\n    tag_122:\n      0x00\n      mload(0x40)\n      dup1\n      dup4\n      sub\n      dup2\n      dup7\n      gas\n      staticcall\n      swap3\n      pop\n      pop\n      pop\n      dup1\n      iszero\n      tag_123\n      jumpi\n      pop\n      mload(0x40)\n      returndatasize\n      0x00\n      dup3\n      returndatacopy\n      returndatasize\n      not(0x1f)\n      0x1f\n      dup3\n      add\n      and\n      dup3\n      add\n      dup1\n      0x40\n      mstore\n      pop\n      dup2\n      add\n      swap1\n      tag_124\n      swap2\n      swap1\n      tag_125\n      jump\t// in\n    tag_124:\n      0x01\n    tag_123:\n        /* \"contracts/test.sol\":1913:2046  try this.getdetails(user_id) returns(funding memory _res){... */\n      tag_126\n      jumpi\n        /* \"contracts/test.sol\":2017:2040  error(\"user not found\") */\n      0x24c93343bea44ff8f0e628ca4e5b87dfe0823d664c887457e166a03798bb191c\n      mload(0x40)\n      tag_130\n      swap1\n      tag_131\n      jump\t// in\n    tag_130:\n      mload(0x40)\n      dup1\n      swap2\n      sub\n      swap1\n      log1\n        /* \"contracts/test.sol\":1913:2046  try this.getdetails(user_id) returns(funding memory _res){... */\n      jump(tag_132)\n    tag_126:\n        /* \"contracts/test.sol\":1987:1991  _res */\n      dup1\n        /* \"contracts/test.sol\":1979:1992  return (_res) */\n      swap2\n      pop\n      pop\n      jump(tag_110)\n        /* \"contracts/test.sol\":1913:2046  try this.getdetails(user_id) returns(funding memory _res){... */\n    tag_132:\n        /* \"contracts/test.sol\":738:739  _ */\n    tag_110:\n        /* \"contracts/test.sol\":1642:2090  function contribution(uint256 user_id) external payable   allowedtime returns (funding memory res) {... */\n      swap2\n      swap1\n      pop\n      jump\t// out\n        /* \"contracts/test.sol\":3269:3630  function completebyadmin(uint256 u_id) public onlycontractowner{... */\n    tag_53:\n        /* \"contracts/test.sol\":605:619  contract_owner */\n      0x00\n      dup1\n      sload\n      swap1\n      0x0100\n      exp\n      swap1\n      div\n      0xffffffffffffffffffffffffffffffffffffffff\n      and\n        /* \"contracts/test.sol\":591:619  msg.sender == contract_owner */\n      0xffffffffffffffffffffffffffffffffffffffff\n      and\n        /* \"contracts/test.sol\":591:601  msg.sender */\n      caller\n        /* \"contracts/test.sol\":591:619  msg.sender == contract_owner */\n      0xffffffffffffffffffffffffffffffffffffffff\n      and\n      eq\n        /* \"contracts/test.sol\":583:620  require(msg.sender == contract_owner) */\n      tag_134\n      jumpi\n      0x00\n      dup1\n      revert\n    tag_134:\n        /* \"contracts/test.sol\":486:494  20 ether */\n      0x01158e460913d00000\n        /* \"contracts/test.sol\":3340:3344  fund */\n      0x02\n        /* \"contracts/test.sol\":3340:3350  fund[u_id] */\n      0x00\n        /* \"contracts/test.sol\":3345:3349  u_id */\n      dup4\n        /* \"contracts/test.sol\":3340:3350  fund[u_id] */\n      dup2\n      mstore\n      0x20\n      add\n      swap1\n      dup2\n      mstore\n      0x20\n      add\n      0x00\n      keccak256\n        /* \"contracts/test.sol\":3340:3362  fund[u_id].raiseamount */\n      0x04\n      add\n      sload\n        /* \"contracts/test.sol\":3340:3371  fund[u_id].raiseamount >= goals */\n      lt\n        /* \"contracts/test.sol\":3337:3623  if(fund[u_id].raiseamount >= goals){... */\n      tag_136\n      jumpi\n        /* \"contracts/test.sol\":3383:3394  uint amount */\n      0x00\n        /* \"contracts/test.sol\":3397:3401  fund */\n      0x02\n        /* \"contracts/test.sol\":3397:3407  fund[u_id] */\n      0x00\n        /* \"contracts/test.sol\":3402:3406  u_id */\n      dup4\n        /* \"contracts/test.sol\":3397:3407  fund[u_id] */\n      dup2\n      mstore\n      0x20\n      add\n      swap1\n      dup2\n      mstore\n      0x20\n      add\n      0x00\n      keccak256\n        /* \"contracts/test.sol\":3397:3419  fund[u_id].raiseamount */\n      0x04\n      add\n      sload\n        /* \"contracts/test.sol\":3383:3419  uint amount = fund[u_id].raiseamount */\n      swap1\n      pop\n        /* \"contracts/test.sol\":3434:3438  fund */\n      0x02\n        /* \"contracts/test.sol\":3434:3444  fund[u_id] */\n      0x00\n        /* \"contracts/test.sol\":3439:3443  u_id */\n      dup4\n        /* \"contracts/test.sol\":3434:3444  fund[u_id] */\n      dup2\n      mstore\n      0x20\n      add\n      swap1\n      dup2\n      mstore\n      0x20\n      add\n      0x00\n      keccak256\n        /* \"contracts/test.sol\":3434:3454  fund[u_id].campowner */\n      0x03\n      add\n      0x00\n      swap1\n      sload\n      swap1\n      0x0100\n      exp\n      swap1\n      div\n      0xffffffffffffffffffffffffffffffffffffffff\n      and\n        /* \"contracts/test.sol\":3426:3464  payable(fund[u_id].campowner).transfer */\n      0xffffffffffffffffffffffffffffffffffffffff\n      and\n        /* \"contracts/test.sol\":3426:3472  payable(fund[u_id].campowner).transfer(amount) */\n      0x08fc\n        /* \"contracts/test.sol\":3465:3471  amount */\n      dup3\n        /* \"contracts/test.sol\":3426:3472  payable(fund[u_id].campowner).transfer(amount) */\n      swap1\n      dup2\n      iszero\n      mul\n      swap1\n      mload(0x40)\n      0x00\n      mload(0x40)\n      dup1\n      dup4\n      sub\n      dup2\n      dup6\n      dup9\n      dup9\n      call\n      swap4\n      pop\n      pop\n      pop\n      pop\n      iszero\n      dup1\n      iszero\n      tag_138\n      jumpi\n      returndatasize\n      0x00\n      dup1\n      returndatacopy\n      revert(0x00, returndatasize)\n    tag_138:\n      pop\n        /* \"contracts/test.sol\":3498:3518  checkstate.completed */\n      0x01\n        /* \"contracts/test.sol\":3479:3483  fund */\n      0x02\n        /* \"contracts/test.sol\":3479:3489  fund[u_id] */\n      0x00\n        /* \"contracts/test.sol\":3484:3488  u_id */\n      dup5\n        /* \"contracts/test.sol\":3479:3489  fund[u_id] */\n      dup2\n      mstore\n      0x20\n      add\n      swap1\n      dup2\n      mstore\n      0x20\n      add\n      0x00\n      keccak256\n        /* \"contracts/test.sol\":3479:3495  fund[u_id].state */\n      0x05\n      add\n      0x00\n        /* \"contracts/test.sol\":3479:3518  fund[u_id].state = checkstate.completed */\n      0x0100\n      exp\n      dup2\n      sload\n      dup2\n      0xff\n      mul\n      not\n      and\n      swap1\n      dup4\n      0x01\n      dup2\n      gt\n      iszero\n      tag_139\n      jumpi\n      tag_140\n      tag_70\n      jump\t// in\n    tag_140:\n    tag_139:\n      mul\n      or\n      swap1\n      sstore\n      pop\n        /* \"contracts/test.sol\":3530:3563  complete(msg.sender, u_id,amount) */\n      0x9576942f6783612a1de73784d0a4a99e49ddbc7e59e8fc927cffc1ee5385d236\n        /* \"contracts/test.sol\":3539:3549  msg.sender */\n      caller\n        /* \"contracts/test.sol\":3551:3555  u_id */\n      dup4\n        /* \"contracts/test.sol\":3556:3562  amount */\n      dup4\n        /* \"contracts/test.sol\":3530:3563  complete(msg.sender, u_id,amount) */\n      mload(0x40)\n      tag_141\n      swap4\n      swap3\n      swap2\n      swap1\n      tag_87\n      jump\t// in\n    tag_141:\n      mload(0x40)\n      dup1\n      swap2\n      sub\n      swap1\n      log1\n        /* \"contracts/test.sol\":3372:3569  {... */\n      pop\n        /* \"contracts/test.sol\":3337:3623  if(fund[u_id].raiseamount >= goals){... */\n      jump(tag_142)\n    tag_136:\n        /* \"contracts/test.sol\":3582:3619  revert(\"amount is not equal to goal\") */\n      mload(0x40)\n      0x08c379a000000000000000000000000000000000000000000000000000000000\n      dup2\n      mstore\n      0x04\n      add\n      tag_143\n      swap1\n      tag_104\n      jump\t// in\n    tag_143:\n      mload(0x40)\n      dup1\n      swap2\n      sub\n      swap1\n      revert\n        /* \"contracts/test.sol\":3337:3623  if(fund[u_id].raiseamount >= goals){... */\n    tag_142:\n        /* \"contracts/test.sol\":3269:3630  function completebyadmin(uint256 u_id) public onlycontractowner{... */\n      pop\n      jump\t// out\n        /* \"contracts/test.sol\":1090:1356  function add_user(uint256 _id,string calldata _name,... */\n    tag_75:\n        /* \"contracts/test.sol\":1196:1341  funding({... */\n      mload(0x40)\n      dup1\n      0xc0\n      add\n      0x40\n      mstore\n      dup1\n        /* \"contracts/test.sol\":1215:1218  _id */\n      dup6\n        /* \"contracts/test.sol\":1196:1341  funding({... */\n      dup2\n      mstore\n      0x20\n      add\n        /* \"contracts/test.sol\":1228:1233  _name */\n      dup5\n      dup5\n        /* \"contracts/test.sol\":1196:1341  funding({... */\n      dup1\n      dup1\n      0x1f\n      add\n      0x20\n      dup1\n      swap2\n      div\n      mul\n      0x20\n      add\n      mload(0x40)\n      swap1\n      dup2\n      add\n      0x40\n      mstore\n      dup1\n      swap4\n      swap3\n      swap2\n      swap1\n      dup2\n      dup2\n      mstore\n      0x20\n      add\n      dup4\n      dup4\n      dup1\n      dup3\n      dup5\n      calldatacopy\n      0x00\n      dup2\n      dup5\n      add\n      mstore\n      not(0x1f)\n      0x1f\n      dup3\n      add\n      and\n      swap1\n      pop\n      dup1\n      dup4\n      add\n      swap3\n      pop\n      pop\n      pop\n      pop\n      pop\n      pop\n      pop\n      dup2\n      mstore\n      0x20\n      add\n        /* \"contracts/test.sol\":1250:1262  _discription */\n      dup3\n        /* \"contracts/test.sol\":1196:1341  funding({... */\n      dup2\n      mstore\n      0x20\n      add\n        /* \"contracts/test.sol\":1277:1287  msg.sender */\n      caller\n        /* \"contracts/test.sol\":1196:1341  funding({... */\n      0xffffffffffffffffffffffffffffffffffffffff\n      and\n      dup2\n      mstore\n      0x20\n      add\n        /* \"contracts/test.sol\":1304:1305  0 */\n      0x00\n        /* \"contracts/test.sol\":1196:1341  funding({... */\n      dup2\n      mstore\n      0x20\n      add\n        /* \"contracts/test.sol\":1316:1333  checkstate.active */\n      0x00\n        /* \"contracts/test.sol\":1196:1341  funding({... */\n      0x01\n      dup2\n      gt\n      iszero\n      tag_145\n      jumpi\n      tag_146\n      tag_70\n      jump\t// in\n    tag_146:\n    tag_145:\n      dup2\n      mstore\n      pop\n        /* \"contracts/test.sol\":1184:1188  fund */\n      0x02\n        /* \"contracts/test.sol\":1184:1193  fund[_id] */\n      0x00\n        /* \"contracts/test.sol\":1189:1192  _id */\n      dup7\n        /* \"contracts/test.sol\":1184:1193  fund[_id] */\n      dup2\n      mstore\n      0x20\n      add\n      swap1\n      dup2\n      mstore\n      0x20\n      add\n      0x00\n      keccak256\n        /* \"contracts/test.sol\":1184:1341  fund[_id] = funding({... */\n      0x00\n      dup3\n      add\n      mload\n      dup2\n      0x00\n      add\n      sstore\n      0x20\n      dup3\n      add\n      mload\n      dup2\n      0x01\n      add\n      swap1\n      dup2\n      tag_147\n      swap2\n      swap1\n      tag_148\n      jump\t// in\n    tag_147:\n      pop\n      0x40\n      dup3\n      add\n      mload\n      dup2\n      0x02\n      add\n      swap1\n      dup2\n      tag_149\n      swap2\n      swap1\n      tag_148\n      jump\t// in\n    tag_149:\n      pop\n      0x60\n      dup3\n      add\n      mload\n      dup2\n      0x03\n      add\n      exp(0x0100, 0x00)\n      dup2\n      sload\n      dup2\n      0xffffffffffffffffffffffffffffffffffffffff\n      mul\n      not\n      and\n      swap1\n      dup4\n      0xffffffffffffffffffffffffffffffffffffffff\n      and\n      mul\n      or\n      swap1\n      sstore\n      pop\n      0x80\n      dup3\n      add\n      mload\n      dup2\n      0x04\n      add\n      sstore\n      0xa0\n      dup3\n      add\n      mload\n      dup2\n      0x05\n      add\n      exp(0x0100, 0x00)\n      dup2\n      sload\n      dup2\n      0xff\n      mul\n      not\n      and\n      swap1\n      dup4\n      0x01\n      dup2\n      gt\n      iszero\n      tag_150\n      jumpi\n      tag_151\n      tag_70\n      jump\t// in\n    tag_151:\n    tag_150:\n      mul\n      or\n      swap1\n      sstore\n      pop\n      swap1\n      pop\n      pop\n        /* \"contracts/test.sol\":1090:1356  function add_user(uint256 _id,string calldata _name,... */\n      pop\n      pop\n      pop\n      pop\n      jump\t// out\n    tag_55:\n      mload(0x40)\n      dup1\n      0xc0\n      add\n      0x40\n      mstore\n      dup1\n      0x00\n      dup2\n      mstore\n      0x20\n      add\n      0x60\n      dup2\n      mstore\n      0x20\n      add\n      0x60\n      dup2\n      mstore\n      0x20\n      add\n      and(0xffffffffffffffffffffffffffffffffffffffff, 0x00)\n      dup2\n      mstore\n      0x20\n      add\n      0x00\n      dup2\n      mstore\n      0x20\n      add\n      0x00\n      0x01\n      dup2\n      gt\n      iszero\n      tag_152\n      jumpi\n      tag_153\n      tag_70\n      jump\t// in\n    tag_153:\n    tag_152:\n      dup2\n      mstore\n      pop\n      swap1\n      jump\t// out\n        /* \"#utility.yul\":7:176   */\n    tag_154:\n        /* \"#utility.yul\":91:102   */\n      0x00\n        /* \"#utility.yul\":125:131   */\n      dup3\n        /* \"#utility.yul\":120:123   */\n      dup3\n        /* \"#utility.yul\":113:132   */\n      mstore\n        /* \"#utility.yul\":165:169   */\n      0x20\n        /* \"#utility.yul\":160:163   */\n      dup3\n        /* \"#utility.yul\":156:170   */\n      add\n        /* \"#utility.yul\":141:170   */\n      swap1\n      pop\n        /* \"#utility.yul\":7:176   */\n      swap3\n      swap2\n      pop\n      pop\n      jump\t// out\n        /* \"#utility.yul\":182:360   */\n    tag_155:\n        /* \"#utility.yul\":322:352   */\n      0x616d6f756e74207265636569766564207375636365737366756c6c7900000000\n        /* \"#utility.yul\":318:319   */\n      0x00\n        /* \"#utility.yul\":310:316   */\n      dup3\n        /* \"#utility.yul\":306:320   */\n      add\n        /* \"#utility.yul\":299:353   */\n      mstore\n        /* \"#utility.yul\":182:360   */\n      pop\n      jump\t// out\n        /* \"#utility.yul\":366:732   */\n    tag_156:\n        /* \"#utility.yul\":508:511   */\n      0x00\n        /* \"#utility.yul\":529:596   */\n      tag_236\n        /* \"#utility.yul\":593:595   */\n      0x1c\n        /* \"#utility.yul\":588:591   */\n      dup4\n        /* \"#utility.yul\":529:596   */\n      tag_154\n      jump\t// in\n    tag_236:\n        /* \"#utility.yul\":522:596   */\n      swap2\n      pop\n        /* \"#utility.yul\":605:698   */\n      tag_237\n        /* \"#utility.yul\":694:697   */\n      dup3\n        /* \"#utility.yul\":605:698   */\n      tag_155\n      jump\t// in\n    tag_237:\n        /* \"#utility.yul\":723:725   */\n      0x20\n        /* \"#utility.yul\":718:721   */\n      dup3\n        /* \"#utility.yul\":714:726   */\n      add\n        /* \"#utility.yul\":707:726   */\n      swap1\n      pop\n        /* \"#utility.yul\":366:732   */\n      swap2\n      swap1\n      pop\n      jump\t// out\n        /* \"#utility.yul\":738:1157   */\n    tag_15:\n        /* \"#utility.yul\":904:908   */\n      0x00\n        /* \"#utility.yul\":942:944   */\n      0x20\n        /* \"#utility.yul\":931:940   */\n      dup3\n        /* \"#utility.yul\":927:945   */\n      add\n        /* \"#utility.yul\":919:945   */\n      swap1\n      pop\n        /* \"#utility.yul\":991:1000   */\n      dup2\n        /* \"#utility.yul\":985:989   */\n      dup2\n        /* \"#utility.yul\":981:1001   */\n      sub\n        /* \"#utility.yul\":977:978   */\n      0x00\n        /* \"#utility.yul\":966:975   */\n      dup4\n        /* \"#utility.yul\":962:979   */\n      add\n        /* \"#utility.yul\":955:1002   */\n      mstore\n        /* \"#utility.yul\":1019:1150   */\n      tag_239\n        /* \"#utility.yul\":1145:1149   */\n      dup2\n        /* \"#utility.yul\":1019:1150   */\n      tag_156\n      jump\t// in\n    tag_239:\n        /* \"#utility.yul\":1011:1150   */\n      swap1\n      pop\n        /* \"#utility.yul\":738:1157   */\n      swap2\n      swap1\n      pop\n      jump\t// out\n        /* \"#utility.yul\":1163:1238   */\n    tag_157:\n        /* \"#utility.yul\":1196:1202   */\n      0x00\n        /* \"#utility.yul\":1229:1231   */\n      0x40\n        /* \"#utility.yul\":1223:1232   */\n      mload\n        /* \"#utility.yul\":1213:1232   */\n      swap1\n      pop\n        /* \"#utility.yul\":1163:1238   */\n      swap1\n      jump\t// out\n        /* \"#utility.yul\":1244:1361   */\n    tag_158:\n        /* \"#utility.yul\":1353:1354   */\n      0x00\n        /* \"#utility.yul\":1350:1351   */\n      dup1\n        /* \"#utility.yul\":1343:1355   */\n      revert\n        /* \"#utility.yul\":1367:1484   */\n    tag_159:\n        /* \"#utility.yul\":1476:1477   */\n      0x00\n        /* \"#utility.yul\":1473:1474   */\n      dup1\n        /* \"#utility.yul\":1466:1478   */\n      revert\n        /* \"#utility.yul\":1490:1567   */\n    tag_160:\n        /* \"#utility.yul\":1527:1534   */\n      0x00\n        /* \"#utility.yul\":1556:1561   */\n      dup2\n        /* \"#utility.yul\":1545:1561   */\n      swap1\n      pop\n        /* \"#utility.yul\":1490:1567   */\n      swap2\n      swap1\n      pop\n      jump\t// out\n        /* \"#utility.yul\":1573:1695   */\n    tag_161:\n        /* \"#utility.yul\":1646:1670   */\n      tag_245\n        /* \"#utility.yul\":1664:1669   */\n      dup2\n        /* \"#utility.yul\":1646:1670   */\n      tag_160\n      jump\t// in\n    tag_245:\n        /* \"#utility.yul\":1639:1644   */\n      dup2\n        /* \"#utility.yul\":1636:1671   */\n      eq\n        /* \"#utility.yul\":1626:1689   */\n      tag_246\n      jumpi\n        /* \"#utility.yul\":1685:1686   */\n      0x00\n        /* \"#utility.yul\":1682:1683   */\n      dup1\n        /* \"#utility.yul\":1675:1687   */\n      revert\n        /* \"#utility.yul\":1626:1689   */\n    tag_246:\n        /* \"#utility.yul\":1573:1695   */\n      pop\n      jump\t// out\n        /* \"#utility.yul\":1701:1840   */\n    tag_162:\n        /* \"#utility.yul\":1747:1752   */\n      0x00\n        /* \"#utility.yul\":1785:1791   */\n      dup2\n        /* \"#utility.yul\":1772:1792   */\n      calldataload\n        /* \"#utility.yul\":1763:1792   */\n      swap1\n      pop\n        /* \"#utility.yul\":1801:1834   */\n      tag_248\n        /* \"#utility.yul\":1828:1833   */\n      dup2\n        /* \"#utility.yul\":1801:1834   */\n      tag_161\n      jump\t// in\n    tag_248:\n        /* \"#utility.yul\":1701:1840   */\n      swap3\n      swap2\n      pop\n      pop\n      jump\t// out\n        /* \"#utility.yul\":1846:2175   */\n    tag_19:\n        /* \"#utility.yul\":1905:1911   */\n      0x00\n        /* \"#utility.yul\":1954:1956   */\n      0x20\n        /* \"#utility.yul\":1942:1951   */\n      dup3\n        /* \"#utility.yul\":1933:1940   */\n      dup5\n        /* \"#utility.yul\":1929:1952   */\n      sub\n        /* \"#utility.yul\":1925:1957   */\n      slt\n        /* \"#utility.yul\":1922:2041   */\n      iszero\n      tag_250\n      jumpi\n        /* \"#utility.yul\":1960:2039   */\n      tag_251\n      tag_158\n      jump\t// in\n    tag_251:\n        /* \"#utility.yul\":1922:2041   */\n    tag_250:\n        /* \"#utility.yul\":2080:2081   */\n      0x00\n        /* \"#utility.yul\":2105:2158   */\n      tag_252\n        /* \"#utility.yul\":2150:2157   */\n      dup5\n        /* \"#utility.yul\":2141:2147   */\n      dup3\n        /* \"#utility.yul\":2130:2139   */\n      dup6\n        /* \"#utility.yul\":2126:2148   */\n      add\n        /* \"#utility.yul\":2105:2158   */\n      tag_162\n      jump\t// in\n    tag_252:\n        /* \"#utility.yul\":2095:2158   */\n      swap2\n      pop\n        /* \"#utility.yul\":2051:2168   */\n      pop\n        /* \"#utility.yul\":1846:2175   */\n      swap3\n      swap2\n      pop\n      pop\n      jump\t// out\n        /* \"#utility.yul\":2181:2289   */\n    tag_163:\n        /* \"#utility.yul\":2258:2282   */\n      tag_254\n        /* \"#utility.yul\":2276:2281   */\n      dup2\n        /* \"#utility.yul\":2258:2282   */\n      tag_160\n      jump\t// in\n    tag_254:\n        /* \"#utility.yul\":2253:2256   */\n      dup3\n        /* \"#utility.yul\":2246:2283   */\n      mstore\n        /* \"#utility.yul\":2181:2289   */\n      pop\n      pop\n      jump\t// out\n        /* \"#utility.yul\":2295:2394   */\n    tag_164:\n        /* \"#utility.yul\":2347:2353   */\n      0x00\n        /* \"#utility.yul\":2381:2386   */\n      dup2\n        /* \"#utility.yul\":2375:2387   */\n      mload\n        /* \"#utility.yul\":2365:2387   */\n      swap1\n      pop\n        /* \"#utility.yul\":2295:2394   */\n      swap2\n      swap1\n      pop\n      jump\t// out\n        /* \"#utility.yul\":2400:2559   */\n    tag_165:\n        /* \"#utility.yul\":2474:2485   */\n      0x00\n        /* \"#utility.yul\":2508:2514   */\n      dup3\n        /* \"#utility.yul\":2503:2506   */\n      dup3\n        /* \"#utility.yul\":2496:2515   */\n      mstore\n        /* \"#utility.yul\":2548:2552   */\n      0x20\n        /* \"#utility.yul\":2543:2546   */\n      dup3\n        /* \"#utility.yul\":2539:2553   */\n      add\n        /* \"#utility.yul\":2524:2553   */\n      swap1\n      pop\n        /* \"#utility.yul\":2400:2559   */\n      swap3\n      swap2\n      pop\n      pop\n      jump\t// out\n        /* \"#utility.yul\":2565:2811   */\n    tag_166:\n        /* \"#utility.yul\":2646:2647   */\n      0x00\n        /* \"#utility.yul\":2656:2769   */\n    tag_258:\n        /* \"#utility.yul\":2670:2676   */\n      dup4\n        /* \"#utility.yul\":2667:2668   */\n      dup2\n        /* \"#utility.yul\":2664:2677   */\n      lt\n        /* \"#utility.yul\":2656:2769   */\n      iszero\n      tag_260\n      jumpi\n        /* \"#utility.yul\":2755:2756   */\n      dup1\n        /* \"#utility.yul\":2750:2753   */\n      dup3\n        /* \"#utility.yul\":2746:2757   */\n      add\n        /* \"#utility.yul\":2740:2758   */\n      mload\n        /* \"#utility.yul\":2736:2737   */\n      dup2\n        /* \"#utility.yul\":2731:2734   */\n      dup5\n        /* \"#utility.yul\":2727:2738   */\n      add\n        /* \"#utility.yul\":2720:2759   */\n      mstore\n        /* \"#utility.yul\":2692:2694   */\n      0x20\n        /* \"#utility.yul\":2689:2690   */\n      dup2\n        /* \"#utility.yul\":2685:2695   */\n      add\n        /* \"#utility.yul\":2680:2695   */\n      swap1\n      pop\n        /* \"#utility.yul\":2656:2769   */\n      jump(tag_258)\n    tag_260:\n        /* \"#utility.yul\":2803:2804   */\n      0x00\n        /* \"#utility.yul\":2794:2800   */\n      dup5\n        /* \"#utility.yul\":2789:2792   */\n      dup5\n        /* \"#utility.yul\":2785:2801   */\n      add\n        /* \"#utility.yul\":2778:2805   */\n      mstore\n        /* \"#utility.yul\":2627:2811   */\n      pop\n        /* \"#utility.yul\":2565:2811   */\n      pop\n      pop\n      pop\n      jump\t// out\n        /* \"#utility.yul\":2817:2919   */\n    tag_167:\n        /* \"#utility.yul\":2858:2864   */\n      0x00\n        /* \"#utility.yul\":2909:2911   */\n      0x1f\n        /* \"#utility.yul\":2905:2912   */\n      not\n        /* \"#utility.yul\":2900:2902   */\n      0x1f\n        /* \"#utility.yul\":2893:2898   */\n      dup4\n        /* \"#utility.yul\":2889:2903   */\n      add\n        /* \"#utility.yul\":2885:2913   */\n      and\n        /* \"#utility.yul\":2875:2913   */\n      swap1\n      pop\n        /* \"#utility.yul\":2817:2919   */\n      swap2\n      swap1\n      pop\n      jump\t// out\n        /* \"#utility.yul\":2925:3282   */\n    tag_168:\n        /* \"#utility.yul\":3003:3006   */\n      0x00\n        /* \"#utility.yul\":3031:3070   */\n      tag_263\n        /* \"#utility.yul\":3064:3069   */\n      dup3\n        /* \"#utility.yul\":3031:3070   */\n      tag_164\n      jump\t// in\n    tag_263:\n        /* \"#utility.yul\":3086:3147   */\n      tag_264\n        /* \"#utility.yul\":3140:3146   */\n      dup2\n        /* \"#utility.yul\":3135:3138   */\n      dup6\n        /* \"#utility.yul\":3086:3147   */\n      tag_165\n      jump\t// in\n    tag_264:\n        /* \"#utility.yul\":3079:3147   */\n      swap4\n      pop\n        /* \"#utility.yul\":3156:3221   */\n      tag_265\n        /* \"#utility.yul\":3214:3220   */\n      dup2\n        /* \"#utility.yul\":3209:3212   */\n      dup6\n        /* \"#utility.yul\":3202:3206   */\n      0x20\n        /* \"#utility.yul\":3195:3200   */\n      dup7\n        /* \"#utility.yul\":3191:3207   */\n      add\n        /* \"#utility.yul\":3156:3221   */\n      tag_166\n      jump\t// in\n    tag_265:\n        /* \"#utility.yul\":3246:3275   */\n      tag_266\n        /* \"#utility.yul\":3268:3274   */\n      dup2\n        /* \"#utility.yul\":3246:3275   */\n      tag_167\n      jump\t// in\n    tag_266:\n        /* \"#utility.yul\":3241:3244   */\n      dup5\n        /* \"#utility.yul\":3237:3276   */\n      add\n        /* \"#utility.yul\":3230:3276   */\n      swap2\n      pop\n        /* \"#utility.yul\":3007:3282   */\n      pop\n        /* \"#utility.yul\":2925:3282   */\n      swap3\n      swap2\n      pop\n      pop\n      jump\t// out\n        /* \"#utility.yul\":3288:3414   */\n    tag_169:\n        /* \"#utility.yul\":3325:3332   */\n      0x00\n        /* \"#utility.yul\":3365:3407   */\n      0xffffffffffffffffffffffffffffffffffffffff\n        /* \"#utility.yul\":3358:3363   */\n      dup3\n        /* \"#utility.yul\":3354:3408   */\n      and\n        /* \"#utility.yul\":3343:3408   */\n      swap1\n      pop\n        /* \"#utility.yul\":3288:3414   */\n      swap2\n      swap1\n      pop\n      jump\t// out\n        /* \"#utility.yul\":3420:3516   */\n    tag_170:\n        /* \"#utility.yul\":3457:3464   */\n      0x00\n        /* \"#utility.yul\":3486:3510   */\n      tag_269\n        /* \"#utility.yul\":3504:3509   */\n      dup3\n        /* \"#utility.yul\":3486:3510   */\n      tag_169\n      jump\t// in\n    tag_269:\n        /* \"#utility.yul\":3475:3510   */\n      swap1\n      pop\n        /* \"#utility.yul\":3420:3516   */\n      swap2\n      swap1\n      pop\n      jump\t// out\n        /* \"#utility.yul\":3522:3630   */\n    tag_171:\n        /* \"#utility.yul\":3599:3623   */\n      tag_271\n        /* \"#utility.yul\":3617:3622   */\n      dup2\n        /* \"#utility.yul\":3599:3623   */\n      tag_170\n      jump\t// in\n    tag_271:\n        /* \"#utility.yul\":3594:3597   */\n      dup3\n        /* \"#utility.yul\":3587:3624   */\n      mstore\n        /* \"#utility.yul\":3522:3630   */\n      pop\n      pop\n      jump\t// out\n        /* \"#utility.yul\":3636:3816   */\n    tag_70:\n        /* \"#utility.yul\":3684:3761   */\n      0x4e487b7100000000000000000000000000000000000000000000000000000000\n        /* \"#utility.yul\":3681:3682   */\n      0x00\n        /* \"#utility.yul\":3674:3762   */\n      mstore\n        /* \"#utility.yul\":3781:3785   */\n      0x21\n        /* \"#utility.yul\":3778:3779   */\n      0x04\n        /* \"#utility.yul\":3771:3786   */\n      mstore\n        /* \"#utility.yul\":3805:3809   */\n      0x24\n        /* \"#utility.yul\":3802:3803   */\n      0x00\n        /* \"#utility.yul\":3795:3810   */\n      revert\n        /* \"#utility.yul\":3822:3939   */\n    tag_172:\n        /* \"#utility.yul\":3907:3908   */\n      0x02\n        /* \"#utility.yul\":3900:3905   */\n      dup2\n        /* \"#utility.yul\":3897:3909   */\n      lt\n        /* \"#utility.yul\":3887:3933   */\n      tag_274\n      jumpi\n        /* \"#utility.yul\":3913:3931   */\n      tag_275\n      tag_70\n      jump\t// in\n    tag_275:\n        /* \"#utility.yul\":3887:3933   */\n    tag_274:\n        /* \"#utility.yul\":3822:3939   */\n      pop\n      jump\t// out\n        /* \"#utility.yul\":3945:4080   */\n    tag_173:\n        /* \"#utility.yul\":3994:4001   */\n      0x00\n        /* \"#utility.yul\":4023:4028   */\n      dup2\n        /* \"#utility.yul\":4012:4028   */\n      swap1\n      pop\n        /* \"#utility.yul\":4029:4074   */\n      tag_277\n        /* \"#utility.yul\":4068:4073   */\n      dup3\n        /* \"#utility.yul\":4029:4074   */\n      tag_172\n      jump\t// in\n    tag_277:\n        /* \"#utility.yul\":3945:4080   */\n      swap2\n      swap1\n      pop\n      jump\t// out\n        /* \"#utility.yul\":4086:4221   */\n    tag_174:\n        /* \"#utility.yul\":4146:4155   */\n      0x00\n        /* \"#utility.yul\":4179:4215   */\n      tag_279\n        /* \"#utility.yul\":4209:4214   */\n      dup3\n        /* \"#utility.yul\":4179:4215   */\n      tag_173\n      jump\t// in\n    tag_279:\n        /* \"#utility.yul\":4166:4215   */\n      swap1\n      pop\n        /* \"#utility.yul\":4086:4221   */\n      swap2\n      swap1\n      pop\n      jump\t// out\n        /* \"#utility.yul\":4227:4368   */\n    tag_175:\n        /* \"#utility.yul\":4314:4361   */\n      tag_281\n        /* \"#utility.yul\":4355:4360   */\n      dup2\n        /* \"#utility.yul\":4314:4361   */\n      tag_174\n      jump\t// in\n    tag_281:\n        /* \"#utility.yul\":4309:4312   */\n      dup3\n        /* \"#utility.yul\":4302:4362   */\n      mstore\n        /* \"#utility.yul\":4227:4368   */\n      pop\n      pop\n      jump\t// out\n        /* \"#utility.yul\":4424:5823   */\n    tag_176:\n        /* \"#utility.yul\":4541:4544   */\n      0x00\n        /* \"#utility.yul\":4577:4581   */\n      0xc0\n        /* \"#utility.yul\":4572:4575   */\n      dup4\n        /* \"#utility.yul\":4568:4582   */\n      add\n        /* \"#utility.yul\":4662:4666   */\n      0x00\n        /* \"#utility.yul\":4655:4660   */\n      dup4\n        /* \"#utility.yul\":4651:4667   */\n      add\n        /* \"#utility.yul\":4645:4668   */\n      mload\n        /* \"#utility.yul\":4681:4744   */\n      tag_283\n        /* \"#utility.yul\":4738:4742   */\n      0x00\n        /* \"#utility.yul\":4733:4736   */\n      dup7\n        /* \"#utility.yul\":4729:4743   */\n      add\n        /* \"#utility.yul\":4715:4727   */\n      dup3\n        /* \"#utility.yul\":4681:4744   */\n      tag_163\n      jump\t// in\n    tag_283:\n        /* \"#utility.yul\":4592:4754   */\n      pop\n        /* \"#utility.yul\":4836:4840   */\n      0x20\n        /* \"#utility.yul\":4829:4834   */\n      dup4\n        /* \"#utility.yul\":4825:4841   */\n      add\n        /* \"#utility.yul\":4819:4842   */\n      mload\n        /* \"#utility.yul\":4889:4892   */\n      dup5\n        /* \"#utility.yul\":4883:4887   */\n      dup3\n        /* \"#utility.yul\":4879:4893   */\n      sub\n        /* \"#utility.yul\":4872:4876   */\n      0x20\n        /* \"#utility.yul\":4867:4870   */\n      dup7\n        /* \"#utility.yul\":4863:4877   */\n      add\n        /* \"#utility.yul\":4856:4894   */\n      mstore\n        /* \"#utility.yul\":4915:4988   */\n      tag_284\n        /* \"#utility.yul\":4983:4987   */\n      dup3\n        /* \"#utility.yul\":4969:4981   */\n      dup3\n        /* \"#utility.yul\":4915:4988   */\n      tag_168\n      jump\t// in\n    tag_284:\n        /* \"#utility.yul\":4907:4988   */\n      swap2\n      pop\n        /* \"#utility.yul\":4764:4999   */\n      pop\n        /* \"#utility.yul\":5088:5092   */\n      0x40\n        /* \"#utility.yul\":5081:5086   */\n      dup4\n        /* \"#utility.yul\":5077:5093   */\n      add\n        /* \"#utility.yul\":5071:5094   */\n      mload\n        /* \"#utility.yul\":5141:5144   */\n      dup5\n        /* \"#utility.yul\":5135:5139   */\n      dup3\n        /* \"#utility.yul\":5131:5145   */\n      sub\n        /* \"#utility.yul\":5124:5128   */\n      0x40\n        /* \"#utility.yul\":5119:5122   */\n      dup7\n        /* \"#utility.yul\":5115:5129   */\n      add\n        /* \"#utility.yul\":5108:5146   */\n      mstore\n        /* \"#utility.yul\":5167:5240   */\n      tag_285\n        /* \"#utility.yul\":5235:5239   */\n      dup3\n        /* \"#utility.yul\":5221:5233   */\n      dup3\n        /* \"#utility.yul\":5167:5240   */\n      tag_168\n      jump\t// in\n    tag_285:\n        /* \"#utility.yul\":5159:5240   */\n      swap2\n      pop\n        /* \"#utility.yul\":5009:5251   */\n      pop\n        /* \"#utility.yul\":5338:5342   */\n      0x60\n        /* \"#utility.yul\":5331:5336   */\n      dup4\n        /* \"#utility.yul\":5327:5343   */\n      add\n        /* \"#utility.yul\":5321:5344   */\n      mload\n        /* \"#utility.yul\":5357:5420   */\n      tag_286\n        /* \"#utility.yul\":5414:5418   */\n      0x60\n        /* \"#utility.yul\":5409:5412   */\n      dup7\n        /* \"#utility.yul\":5405:5419   */\n      add\n        /* \"#utility.yul\":5391:5403   */\n      dup3\n        /* \"#utility.yul\":5357:5420   */\n      tag_171\n      jump\t// in\n    tag_286:\n        /* \"#utility.yul\":5261:5430   */\n      pop\n        /* \"#utility.yul\":5519:5523   */\n      0x80\n        /* \"#utility.yul\":5512:5517   */\n      dup4\n        /* \"#utility.yul\":5508:5524   */\n      add\n        /* \"#utility.yul\":5502:5525   */\n      mload\n        /* \"#utility.yul\":5538:5601   */\n      tag_287\n        /* \"#utility.yul\":5595:5599   */\n      0x80\n        /* \"#utility.yul\":5590:5593   */\n      dup7\n        /* \"#utility.yul\":5586:5600   */\n      add\n        /* \"#utility.yul\":5572:5584   */\n      dup3\n        /* \"#utility.yul\":5538:5601   */\n      tag_163\n      jump\t// in\n    tag_287:\n        /* \"#utility.yul\":5440:5611   */\n      pop\n        /* \"#utility.yul\":5694:5698   */\n      0xa0\n        /* \"#utility.yul\":5687:5692   */\n      dup4\n        /* \"#utility.yul\":5683:5699   */\n      add\n        /* \"#utility.yul\":5677:5700   */\n      mload\n        /* \"#utility.yul\":5713:5786   */\n      tag_288\n        /* \"#utility.yul\":5780:5784   */\n      0xa0\n        /* \"#utility.yul\":5775:5778   */\n      dup7\n        /* \"#utility.yul\":5771:5785   */\n      add\n        /* \"#utility.yul\":5757:5769   */\n      dup3\n        /* \"#utility.yul\":5713:5786   */\n      tag_175\n      jump\t// in\n    tag_288:\n        /* \"#utility.yul\":5621:5796   */\n      pop\n        /* \"#utility.yul\":5813:5817   */\n      dup1\n        /* \"#utility.yul\":5806:5817   */\n      swap2\n      pop\n        /* \"#utility.yul\":4546:5823   */\n      pop\n        /* \"#utility.yul\":4424:5823   */\n      swap3\n      swap2\n      pop\n      pop\n      jump\t// out\n        /* \"#utility.yul\":5829:6198   */\n    tag_22:\n        /* \"#utility.yul\":5970:5974   */\n      0x00\n        /* \"#utility.yul\":6008:6010   */\n      0x20\n        /* \"#utility.yul\":5997:6006   */\n      dup3\n        /* \"#utility.yul\":5993:6011   */\n      add\n        /* \"#utility.yul\":5985:6011   */\n      swap1\n      pop\n        /* \"#utility.yul\":6057:6066   */\n      dup2\n        /* \"#utility.yul\":6051:6055   */\n      dup2\n        /* \"#utility.yul\":6047:6067   */\n      sub\n        /* \"#utility.yul\":6043:6044   */\n      0x00\n        /* \"#utility.yul\":6032:6041   */\n      dup4\n        /* \"#utility.yul\":6028:6045   */\n      add\n        /* \"#utility.yul\":6021:6068   */\n      mstore\n        /* \"#utility.yul\":6085:6191   */\n      tag_290\n        /* \"#utility.yul\":6186:6190   */\n      dup2\n        /* \"#utility.yul\":6177:6183   */\n      dup5\n        /* \"#utility.yul\":6085:6191   */\n      tag_176\n      jump\t// in\n    tag_290:\n        /* \"#utility.yul\":6077:6191   */\n      swap1\n      pop\n        /* \"#utility.yul\":5829:6198   */\n      swap3\n      swap2\n      pop\n      pop\n      jump\t// out\n        /* \"#utility.yul\":6204:6321   */\n    tag_177:\n        /* \"#utility.yul\":6313:6314   */\n      0x00\n        /* \"#utility.yul\":6310:6311   */\n      dup1\n        /* \"#utility.yul\":6303:6315   */\n      revert\n        /* \"#utility.yul\":6327:6444   */\n    tag_178:\n        /* \"#utility.yul\":6436:6437   */\n      0x00\n        /* \"#utility.yul\":6433:6434   */\n      dup1\n        /* \"#utility.yul\":6426:6438   */\n      revert\n        /* \"#utility.yul\":6450:6567   */\n    tag_179:\n        /* \"#utility.yul\":6559:6560   */\n      0x00\n        /* \"#utility.yul\":6556:6557   */\n      dup1\n        /* \"#utility.yul\":6549:6561   */\n      revert\n        /* \"#utility.yul\":6587:7140   */\n    tag_180:\n        /* \"#utility.yul\":6645:6653   */\n      0x00\n        /* \"#utility.yul\":6655:6661   */\n      dup1\n        /* \"#utility.yul\":6705:6708   */\n      dup4\n        /* \"#utility.yul\":6698:6702   */\n      0x1f\n        /* \"#utility.yul\":6690:6696   */\n      dup5\n        /* \"#utility.yul\":6686:6703   */\n      add\n        /* \"#utility.yul\":6682:6709   */\n      slt\n        /* \"#utility.yul\":6672:6794   */\n      tag_295\n      jumpi\n        /* \"#utility.yul\":6713:6792   */\n      tag_296\n      tag_177\n      jump\t// in\n    tag_296:\n        /* \"#utility.yul\":6672:6794   */\n    tag_295:\n        /* \"#utility.yul\":6826:6832   */\n      dup3\n        /* \"#utility.yul\":6813:6833   */\n      calldataload\n        /* \"#utility.yul\":6803:6833   */\n      swap1\n      pop\n        /* \"#utility.yul\":6856:6874   */\n      0xffffffffffffffff\n        /* \"#utility.yul\":6848:6854   */\n      dup2\n        /* \"#utility.yul\":6845:6875   */\n      gt\n        /* \"#utility.yul\":6842:6959   */\n      iszero\n      tag_297\n      jumpi\n        /* \"#utility.yul\":6878:6957   */\n      tag_298\n      tag_178\n      jump\t// in\n    tag_298:\n        /* \"#utility.yul\":6842:6959   */\n    tag_297:\n        /* \"#utility.yul\":6992:6996   */\n      0x20\n        /* \"#utility.yul\":6984:6990   */\n      dup4\n        /* \"#utility.yul\":6980:6997   */\n      add\n        /* \"#utility.yul\":6968:6997   */\n      swap2\n      pop\n        /* \"#utility.yul\":7046:7049   */\n      dup4\n        /* \"#utility.yul\":7038:7042   */\n      0x01\n        /* \"#utility.yul\":7030:7036   */\n      dup3\n        /* \"#utility.yul\":7026:7043   */\n      mul\n        /* \"#utility.yul\":7016:7024   */\n      dup4\n        /* \"#utility.yul\":7012:7044   */\n      add\n        /* \"#utility.yul\":7009:7050   */\n      gt\n        /* \"#utility.yul\":7006:7134   */\n      iszero\n      tag_299\n      jumpi\n        /* \"#utility.yul\":7053:7132   */\n      tag_300\n      tag_179\n      jump\t// in\n    tag_300:\n        /* \"#utility.yul\":7006:7134   */\n    tag_299:\n        /* \"#utility.yul\":6587:7140   */\n      swap3\n      pop\n      swap3\n      swap1\n      pop\n      jump\t// out\n        /* \"#utility.yul\":7146:7263   */\n    tag_181:\n        /* \"#utility.yul\":7255:7256   */\n      0x00\n        /* \"#utility.yul\":7252:7253   */\n      dup1\n        /* \"#utility.yul\":7245:7257   */\n      revert\n        /* \"#utility.yul\":7269:7449   */\n    tag_182:\n        /* \"#utility.yul\":7317:7394   */\n      0x4e487b7100000000000000000000000000000000000000000000000000000000\n        /* \"#utility.yul\":7314:7315   */\n      0x00\n        /* \"#utility.yul\":7307:7395   */\n      mstore\n        /* \"#utility.yul\":7414:7418   */\n      0x41\n        /* \"#utility.yul\":7411:7412   */\n      0x04\n        /* \"#utility.yul\":7404:7419   */\n      mstore\n        /* \"#utility.yul\":7438:7442   */\n      0x24\n        /* \"#utility.yul\":7435:7436   */\n      0x00\n        /* \"#utility.yul\":7428:7443   */\n      revert\n        /* \"#utility.yul\":7455:7736   */\n    tag_183:\n        /* \"#utility.yul\":7538:7565   */\n      tag_304\n        /* \"#utility.yul\":7560:7564   */\n      dup3\n        /* \"#utility.yul\":7538:7565   */\n      tag_167\n      jump\t// in\n    tag_304:\n        /* \"#utility.yul\":7530:7536   */\n      dup2\n        /* \"#utility.yul\":7526:7566   */\n      add\n        /* \"#utility.yul\":7668:7674   */\n      dup2\n        /* \"#utility.yul\":7656:7666   */\n      dup2\n        /* \"#utility.yul\":7653:7675   */\n      lt\n        /* \"#utility.yul\":7632:7650   */\n      0xffffffffffffffff\n        /* \"#utility.yul\":7620:7630   */\n      dup3\n        /* \"#utility.yul\":7617:7651   */\n      gt\n        /* \"#utility.yul\":7614:7676   */\n      or\n        /* \"#utility.yul\":7611:7699   */\n      iszero\n      tag_305\n      jumpi\n        /* \"#utility.yul\":7679:7697   */\n      tag_306\n      tag_182\n      jump\t// in\n    tag_306:\n        /* \"#utility.yul\":7611:7699   */\n    tag_305:\n        /* \"#utility.yul\":7719:7729   */\n      dup1\n        /* \"#utility.yul\":7715:7717   */\n      0x40\n        /* \"#utility.yul\":7708:7730   */\n      mstore\n        /* \"#utility.yul\":7498:7736   */\n      pop\n        /* \"#utility.yul\":7455:7736   */\n      pop\n      pop\n      jump\t// out\n        /* \"#utility.yul\":7742:7871   */\n    tag_184:\n        /* \"#utility.yul\":7776:7782   */\n      0x00\n        /* \"#utility.yul\":7803:7823   */\n      tag_308\n      tag_157\n      jump\t// in\n    tag_308:\n        /* \"#utility.yul\":7793:7823   */\n      swap1\n      pop\n        /* \"#utility.yul\":7832:7865   */\n      tag_309\n        /* \"#utility.yul\":7860:7864   */\n      dup3\n        /* \"#utility.yul\":7852:7858   */\n      dup3\n        /* \"#utility.yul\":7832:7865   */\n      tag_183\n      jump\t// in\n    tag_309:\n        /* \"#utility.yul\":7742:7871   */\n      swap2\n      swap1\n      pop\n      jump\t// out\n        /* \"#utility.yul\":7877:8185   */\n    tag_185:\n        /* \"#utility.yul\":7939:7943   */\n      0x00\n        /* \"#utility.yul\":8029:8047   */\n      0xffffffffffffffff\n        /* \"#utility.yul\":8021:8027   */\n      dup3\n        /* \"#utility.yul\":8018:8048   */\n      gt\n        /* \"#utility.yul\":8015:8071   */\n      iszero\n      tag_311\n      jumpi\n        /* \"#utility.yul\":8051:8069   */\n      tag_312\n      tag_182\n      jump\t// in\n    tag_312:\n        /* \"#utility.yul\":8015:8071   */\n    tag_311:\n        /* \"#utility.yul\":8089:8118   */\n      tag_313\n        /* \"#utility.yul\":8111:8117   */\n      dup3\n        /* \"#utility.yul\":8089:8118   */\n      tag_167\n      jump\t// in\n    tag_313:\n        /* \"#utility.yul\":8081:8118   */\n      swap1\n      pop\n        /* \"#utility.yul\":8173:8177   */\n      0x20\n        /* \"#utility.yul\":8167:8171   */\n      dup2\n        /* \"#utility.yul\":8163:8178   */\n      add\n        /* \"#utility.yul\":8155:8178   */\n      swap1\n      pop\n        /* \"#utility.yul\":7877:8185   */\n      swap2\n      swap1\n      pop\n      jump\t// out\n        /* \"#utility.yul\":8191:8337   */\n    tag_186:\n        /* \"#utility.yul\":8288:8294   */\n      dup3\n        /* \"#utility.yul\":8283:8286   */\n      dup2\n        /* \"#utility.yul\":8278:8281   */\n      dup4\n        /* \"#utility.yul\":8265:8295   */\n      calldatacopy\n        /* \"#utility.yul\":8329:8330   */\n      0x00\n        /* \"#utility.yul\":8320:8326   */\n      dup4\n        /* \"#utility.yul\":8315:8318   */\n      dup4\n        /* \"#utility.yul\":8311:8327   */\n      add\n        /* \"#utility.yul\":8304:8331   */\n      mstore\n        /* \"#utility.yul\":8191:8337   */\n      pop\n      pop\n      pop\n      jump\t// out\n        /* \"#utility.yul\":8343:8768   */\n    tag_187:\n        /* \"#utility.yul\":8421:8426   */\n      0x00\n        /* \"#utility.yul\":8446:8512   */\n      tag_316\n        /* \"#utility.yul\":8462:8511   */\n      tag_317\n        /* \"#utility.yul\":8504:8510   */\n      dup5\n        /* \"#utility.yul\":8462:8511   */\n      tag_185\n      jump\t// in\n    tag_317:\n        /* \"#utility.yul\":8446:8512   */\n      tag_184\n      jump\t// in\n    tag_316:\n        /* \"#utility.yul\":8437:8512   */\n      swap1\n      pop\n        /* \"#utility.yul\":8535:8541   */\n      dup3\n        /* \"#utility.yul\":8528:8533   */\n      dup2\n        /* \"#utility.yul\":8521:8542   */\n      mstore\n        /* \"#utility.yul\":8573:8577   */\n      0x20\n        /* \"#utility.yul\":8566:8571   */\n      dup2\n        /* \"#utility.yul\":8562:8578   */\n      add\n        /* \"#utility.yul\":8611:8614   */\n      dup5\n        /* \"#utility.yul\":8602:8608   */\n      dup5\n        /* \"#utility.yul\":8597:8600   */\n      dup5\n        /* \"#utility.yul\":8593:8609   */\n      add\n        /* \"#utility.yul\":8590:8615   */\n      gt\n        /* \"#utility.yul\":8587:8699   */\n      iszero\n      tag_318\n      jumpi\n        /* \"#utility.yul\":8618:8697   */\n      tag_319\n      tag_181\n      jump\t// in\n    tag_319:\n        /* \"#utility.yul\":8587:8699   */\n    tag_318:\n        /* \"#utility.yul\":8708:8762   */\n      tag_320\n        /* \"#utility.yul\":8755:8761   */\n      dup5\n        /* \"#utility.yul\":8750:8753   */\n      dup3\n        /* \"#utility.yul\":8745:8748   */\n      dup6\n        /* \"#utility.yul\":8708:8762   */\n      tag_186\n      jump\t// in\n    tag_320:\n        /* \"#utility.yul\":8427:8768   */\n      pop\n        /* \"#utility.yul\":8343:8768   */\n      swap4\n      swap3\n      pop\n      pop\n      pop\n      jump\t// out\n        /* \"#utility.yul\":8788:9128   */\n    tag_188:\n        /* \"#utility.yul\":8844:8849   */\n      0x00\n        /* \"#utility.yul\":8893:8896   */\n      dup3\n        /* \"#utility.yul\":8886:8890   */\n      0x1f\n        /* \"#utility.yul\":8878:8884   */\n      dup4\n        /* \"#utility.yul\":8874:8891   */\n      add\n        /* \"#utility.yul\":8870:8897   */\n      slt\n        /* \"#utility.yul\":8860:8982   */\n      tag_322\n      jumpi\n        /* \"#utility.yul\":8901:8980   */\n      tag_323\n      tag_177\n      jump\t// in\n    tag_323:\n        /* \"#utility.yul\":8860:8982   */\n    tag_322:\n        /* \"#utility.yul\":9018:9024   */\n      dup2\n        /* \"#utility.yul\":9005:9025   */\n      calldataload\n        /* \"#utility.yul\":9043:9122   */\n      tag_324\n        /* \"#utility.yul\":9118:9121   */\n      dup5\n        /* \"#utility.yul\":9110:9116   */\n      dup3\n        /* \"#utility.yul\":9103:9107   */\n      0x20\n        /* \"#utility.yul\":9095:9101   */\n      dup7\n        /* \"#utility.yul\":9091:9108   */\n      add\n        /* \"#utility.yul\":9043:9122   */\n      tag_187\n      jump\t// in\n    tag_324:\n        /* \"#utility.yul\":9034:9122   */\n      swap2\n      pop\n        /* \"#utility.yul\":8850:9128   */\n      pop\n        /* \"#utility.yul\":8788:9128   */\n      swap3\n      swap2\n      pop\n      pop\n      jump\t// out\n        /* \"#utility.yul\":9134:10133   */\n    tag_26:\n        /* \"#utility.yul\":9233:9239   */\n      0x00\n        /* \"#utility.yul\":9241:9247   */\n      dup1\n        /* \"#utility.yul\":9249:9255   */\n      0x00\n        /* \"#utility.yul\":9257:9263   */\n      dup1\n        /* \"#utility.yul\":9306:9308   */\n      0x60\n        /* \"#utility.yul\":9294:9303   */\n      dup6\n        /* \"#utility.yul\":9285:9292   */\n      dup8\n        /* \"#utility.yul\":9281:9304   */\n      sub\n        /* \"#utility.yul\":9277:9309   */\n      slt\n        /* \"#utility.yul\":9274:9393   */\n      iszero\n      tag_326\n      jumpi\n        /* \"#utility.yul\":9312:9391   */\n      tag_327\n      tag_158\n      jump\t// in\n    tag_327:\n        /* \"#utility.yul\":9274:9393   */\n    tag_326:\n        /* \"#utility.yul\":9432:9433   */\n      0x00\n        /* \"#utility.yul\":9457:9510   */\n      tag_328\n        /* \"#utility.yul\":9502:9509   */\n      dup8\n        /* \"#utility.yul\":9493:9499   */\n      dup3\n        /* \"#utility.yul\":9482:9491   */\n      dup9\n        /* \"#utility.yul\":9478:9500   */\n      add\n        /* \"#utility.yul\":9457:9510   */\n      tag_162\n      jump\t// in\n    tag_328:\n        /* \"#utility.yul\":9447:9510   */\n      swap5\n      pop\n        /* \"#utility.yul\":9403:9520   */\n      pop\n        /* \"#utility.yul\":9587:9589   */\n      0x20\n        /* \"#utility.yul\":9576:9585   */\n      dup6\n        /* \"#utility.yul\":9572:9590   */\n      add\n        /* \"#utility.yul\":9559:9591   */\n      calldataload\n        /* \"#utility.yul\":9618:9636   */\n      0xffffffffffffffff\n        /* \"#utility.yul\":9610:9616   */\n      dup2\n        /* \"#utility.yul\":9607:9637   */\n      gt\n        /* \"#utility.yul\":9604:9721   */\n      iszero\n      tag_329\n      jumpi\n        /* \"#utility.yul\":9640:9719   */\n      tag_330\n      tag_159\n      jump\t// in\n    tag_330:\n        /* \"#utility.yul\":9604:9721   */\n    tag_329:\n        /* \"#utility.yul\":9753:9818   */\n      tag_331\n        /* \"#utility.yul\":9810:9817   */\n      dup8\n        /* \"#utility.yul\":9801:9807   */\n      dup3\n        /* \"#utility.yul\":9790:9799   */\n      dup9\n        /* \"#utility.yul\":9786:9808   */\n      add\n        /* \"#utility.yul\":9753:9818   */\n      tag_180\n      jump\t// in\n    tag_331:\n        /* \"#utility.yul\":9735:9818   */\n      swap4\n      pop\n      swap4\n      pop\n        /* \"#utility.yul\":9530:9828   */\n      pop\n        /* \"#utility.yul\":9895:9897   */\n      0x40\n        /* \"#utility.yul\":9884:9893   */\n      dup6\n        /* \"#utility.yul\":9880:9898   */\n      add\n        /* \"#utility.yul\":9867:9899   */\n      calldataload\n        /* \"#utility.yul\":9926:9944   */\n      0xffffffffffffffff\n        /* \"#utility.yul\":9918:9924   */\n      dup2\n        /* \"#utility.yul\":9915:9945   */\n      gt\n        /* \"#utility.yul\":9912:10029   */\n      iszero\n      tag_332\n      jumpi\n        /* \"#utility.yul\":9948:10027   */\n      tag_333\n      tag_159\n      jump\t// in\n    tag_333:\n        /* \"#utility.yul\":9912:10029   */\n    tag_332:\n        /* \"#utility.yul\":10053:10116   */\n      tag_334\n        /* \"#utility.yul\":10108:10115   */\n      dup8\n        /* \"#utility.yul\":10099:10105   */\n      dup3\n        /* \"#utility.yul\":10088:10097   */\n      dup9\n        /* \"#utility.yul\":10084:10106   */\n      add\n        /* \"#utility.yul\":10053:10116   */\n      tag_188\n      jump\t// in\n    tag_334:\n        /* \"#utility.yul\":10043:10116   */\n      swap2\n      pop\n        /* \"#utility.yul\":9838:10126   */\n      pop\n        /* \"#utility.yul\":9134:10133   */\n      swap3\n      swap6\n      swap2\n      swap5\n      pop\n      swap3\n      pop\n      jump\t// out\n        /* \"#utility.yul\":10139:10257   */\n    tag_189:\n        /* \"#utility.yul\":10226:10250   */\n      tag_336\n        /* \"#utility.yul\":10244:10249   */\n      dup2\n        /* \"#utility.yul\":10226:10250   */\n      tag_160\n      jump\t// in\n    tag_336:\n        /* \"#utility.yul\":10221:10224   */\n      dup3\n        /* \"#utility.yul\":10214:10251   */\n      mstore\n        /* \"#utility.yul\":10139:10257   */\n      pop\n      pop\n      jump\t// out\n        /* \"#utility.yul\":10263:10485   */\n    tag_36:\n        /* \"#utility.yul\":10356:10360   */\n      0x00\n        /* \"#utility.yul\":10394:10396   */\n      0x20\n        /* \"#utility.yul\":10383:10392   */\n      dup3\n        /* \"#utility.yul\":10379:10397   */\n      add\n        /* \"#utility.yul\":10371:10397   */\n      swap1\n      pop\n        /* \"#utility.yul\":10407:10478   */\n      tag_338\n        /* \"#utility.yul\":10475:10476   */\n      0x00\n        /* \"#utility.yul\":10464:10473   */\n      dup4\n        /* \"#utility.yul\":10460:10477   */\n      add\n        /* \"#utility.yul\":10451:10457   */\n      dup5\n        /* \"#utility.yul\":10407:10478   */\n      tag_189\n      jump\t// in\n    tag_338:\n        /* \"#utility.yul\":10263:10485   */\n      swap3\n      swap2\n      pop\n      pop\n      jump\t// out\n        /* \"#utility.yul\":10491:10609   */\n    tag_190:\n        /* \"#utility.yul\":10578:10602   */\n      tag_340\n        /* \"#utility.yul\":10596:10601   */\n      dup2\n        /* \"#utility.yul\":10578:10602   */\n      tag_170\n      jump\t// in\n    tag_340:\n        /* \"#utility.yul\":10573:10576   */\n      dup3\n        /* \"#utility.yul\":10566:10603   */\n      mstore\n        /* \"#utility.yul\":10491:10609   */\n      pop\n      pop\n      jump\t// out\n        /* \"#utility.yul\":10615:10837   */\n    tag_45:\n        /* \"#utility.yul\":10708:10712   */\n      0x00\n        /* \"#utility.yul\":10746:10748   */\n      0x20\n        /* \"#utility.yul\":10735:10744   */\n      dup3\n        /* \"#utility.yul\":10731:10749   */\n      add\n        /* \"#utility.yul\":10723:10749   */\n      swap1\n      pop\n        /* \"#utility.yul\":10759:10830   */\n      tag_342\n        /* \"#utility.yul\":10827:10828   */\n      0x00\n        /* \"#utility.yul\":10816:10825   */\n      dup4\n        /* \"#utility.yul\":10812:10829   */\n      add\n        /* \"#utility.yul\":10803:10809   */\n      dup5\n        /* \"#utility.yul\":10759:10830   */\n      tag_190\n      jump\t// in\n    tag_342:\n        /* \"#utility.yul\":10615:10837   */\n      swap3\n      swap2\n      pop\n      pop\n      jump\t// out\n        /* \"#utility.yul\":10843:11023   */\n    tag_191:\n        /* \"#utility.yul\":10891:10968   */\n      0x4e487b7100000000000000000000000000000000000000000000000000000000\n        /* \"#utility.yul\":10888:10889   */\n      0x00\n        /* \"#utility.yul\":10881:10969   */\n      mstore\n        /* \"#utility.yul\":10988:10992   */\n      0x22\n        /* \"#utility.yul\":10985:10986   */\n      0x04\n        /* \"#utility.yul\":10978:10993   */\n      mstore\n        /* \"#utility.yul\":11012:11016   */\n      0x24\n        /* \"#utility.yul\":11009:11010   */\n      0x00\n        /* \"#utility.yul\":11002:11017   */\n      revert\n        /* \"#utility.yul\":11029:11349   */\n    tag_58:\n        /* \"#utility.yul\":11073:11079   */\n      0x00\n        /* \"#utility.yul\":11110:11111   */\n      0x02\n        /* \"#utility.yul\":11104:11108   */\n      dup3\n        /* \"#utility.yul\":11100:11112   */\n      div\n        /* \"#utility.yul\":11090:11112   */\n      swap1\n      pop\n        /* \"#utility.yul\":11157:11158   */\n      0x01\n        /* \"#utility.yul\":11151:11155   */\n      dup3\n        /* \"#utility.yul\":11147:11159   */\n      and\n        /* \"#utility.yul\":11178:11196   */\n      dup1\n        /* \"#utility.yul\":11168:11249   */\n      tag_345\n      jumpi\n        /* \"#utility.yul\":11234:11238   */\n      0x7f\n        /* \"#utility.yul\":11226:11232   */\n      dup3\n        /* \"#utility.yul\":11222:11239   */\n      and\n        /* \"#utility.yul\":11212:11239   */\n      swap2\n      pop\n        /* \"#utility.yul\":11168:11249   */\n    tag_345:\n        /* \"#utility.yul\":11296:11298   */\n      0x20\n        /* \"#utility.yul\":11288:11294   */\n      dup3\n        /* \"#utility.yul\":11285:11299   */\n      lt\n        /* \"#utility.yul\":11265:11283   */\n      dup2\n        /* \"#utility.yul\":11262:11300   */\n      sub\n        /* \"#utility.yul\":11259:11343   */\n      tag_346\n      jumpi\n        /* \"#utility.yul\":11315:11333   */\n      tag_347\n      tag_191\n      jump\t// in\n    tag_347:\n        /* \"#utility.yul\":11259:11343   */\n    tag_346:\n        /* \"#utility.yul\":11080:11349   */\n      pop\n        /* \"#utility.yul\":11029:11349   */\n      swap2\n      swap1\n      pop\n      jump\t// out\n        /* \"#utility.yul\":11355:11687   */\n    tag_77:\n        /* \"#utility.yul\":11476:11480   */\n      0x00\n        /* \"#utility.yul\":11514:11516   */\n      0x40\n        /* \"#utility.yul\":11503:11512   */\n      dup3\n        /* \"#utility.yul\":11499:11517   */\n      add\n        /* \"#utility.yul\":11491:11517   */\n      swap1\n      pop\n        /* \"#utility.yul\":11527:11598   */\n      tag_349\n        /* \"#utility.yul\":11595:11596   */\n      0x00\n        /* \"#utility.yul\":11584:11593   */\n      dup4\n        /* \"#utility.yul\":11580:11597   */\n      add\n        /* \"#utility.yul\":11571:11577   */\n      dup6\n        /* \"#utility.yul\":11527:11598   */\n      tag_190\n      jump\t// in\n    tag_349:\n        /* \"#utility.yul\":11608:11680   */\n      tag_350\n        /* \"#utility.yul\":11676:11678   */\n      0x20\n        /* \"#utility.yul\":11665:11674   */\n      dup4\n        /* \"#utility.yul\":11661:11679   */\n      add\n        /* \"#utility.yul\":11652:11658   */\n      dup5\n        /* \"#utility.yul\":11608:11680   */\n      tag_189\n      jump\t// in\n    tag_350:\n        /* \"#utility.yul\":11355:11687   */\n      swap4\n      swap3\n      pop\n      pop\n      pop\n      jump\t// out\n        /* \"#utility.yul\":11693:11914   */\n    tag_192:\n        /* \"#utility.yul\":11833:11867   */\n      0x63616e277420726566756e642063757a20646561646c696e65206e6f74206d65\n        /* \"#utility.yul\":11829:11830   */\n      0x00\n        /* \"#utility.yul\":11821:11827   */\n      dup3\n        /* \"#utility.yul\":11817:11831   */\n      add\n        /* \"#utility.yul\":11810:11868   */\n      mstore\n        /* \"#utility.yul\":11902:11906   */\n      0x6574000000000000000000000000000000000000000000000000000000000000\n        /* \"#utility.yul\":11897:11899   */\n      0x20\n        /* \"#utility.yul\":11889:11895   */\n      dup3\n        /* \"#utility.yul\":11885:11900   */\n      add\n        /* \"#utility.yul\":11878:11907   */\n      mstore\n        /* \"#utility.yul\":11693:11914   */\n      pop\n      jump\t// out\n        /* \"#utility.yul\":11920:12286   */\n    tag_193:\n        /* \"#utility.yul\":12062:12065   */\n      0x00\n        /* \"#utility.yul\":12083:12150   */\n      tag_353\n        /* \"#utility.yul\":12147:12149   */\n      0x22\n        /* \"#utility.yul\":12142:12145   */\n      dup4\n        /* \"#utility.yul\":12083:12150   */\n      tag_154\n      jump\t// in\n    tag_353:\n        /* \"#utility.yul\":12076:12150   */\n      swap2\n      pop\n        /* \"#utility.yul\":12159:12252   */\n      tag_354\n        /* \"#utility.yul\":12248:12251   */\n      dup3\n        /* \"#utility.yul\":12159:12252   */\n      tag_192\n      jump\t// in\n    tag_354:\n        /* \"#utility.yul\":12277:12279   */\n      0x40\n        /* \"#utility.yul\":12272:12275   */\n      dup3\n        /* \"#utility.yul\":12268:12280   */\n      add\n        /* \"#utility.yul\":12261:12280   */\n      swap1\n      pop\n        /* \"#utility.yul\":11920:12286   */\n      swap2\n      swap1\n      pop\n      jump\t// out\n        /* \"#utility.yul\":12292:12711   */\n    tag_81:\n        /* \"#utility.yul\":12458:12462   */\n      0x00\n        /* \"#utility.yul\":12496:12498   */\n      0x20\n        /* \"#utility.yul\":12485:12494   */\n      dup3\n        /* \"#utility.yul\":12481:12499   */\n      add\n        /* \"#utility.yul\":12473:12499   */\n      swap1\n      pop\n        /* \"#utility.yul\":12545:12554   */\n      dup2\n        /* \"#utility.yul\":12539:12543   */\n      dup2\n        /* \"#utility.yul\":12535:12555   */\n      sub\n        /* \"#utility.yul\":12531:12532   */\n      0x00\n        /* \"#utility.yul\":12520:12529   */\n      dup4\n        /* \"#utility.yul\":12516:12533   */\n      add\n        /* \"#utility.yul\":12509:12556   */\n      mstore\n        /* \"#utility.yul\":12573:12704   */\n      tag_356\n        /* \"#utility.yul\":12699:12703   */\n      dup2\n        /* \"#utility.yul\":12573:12704   */\n      tag_193\n      jump\t// in\n    tag_356:\n        /* \"#utility.yul\":12565:12704   */\n      swap1\n      pop\n        /* \"#utility.yul\":12292:12711   */\n      swap2\n      swap1\n      pop\n      jump\t// out\n        /* \"#utility.yul\":12717:13159   */\n    tag_87:\n        /* \"#utility.yul\":12866:12870   */\n      0x00\n        /* \"#utility.yul\":12904:12906   */\n      0x60\n        /* \"#utility.yul\":12893:12902   */\n      dup3\n        /* \"#utility.yul\":12889:12907   */\n      add\n        /* \"#utility.yul\":12881:12907   */\n      swap1\n      pop\n        /* \"#utility.yul\":12917:12988   */\n      tag_358\n        /* \"#utility.yul\":12985:12986   */\n      0x00\n        /* \"#utility.yul\":12974:12983   */\n      dup4\n        /* \"#utility.yul\":12970:12987   */\n      add\n        /* \"#utility.yul\":12961:12967   */\n      dup7\n        /* \"#utility.yul\":12917:12988   */\n      tag_190\n      jump\t// in\n    tag_358:\n        /* \"#utility.yul\":12998:13070   */\n      tag_359\n        /* \"#utility.yul\":13066:13068   */\n      0x20\n        /* \"#utility.yul\":13055:13064   */\n      dup4\n        /* \"#utility.yul\":13051:13069   */\n      add\n        /* \"#utility.yul\":13042:13048   */\n      dup6\n        /* \"#utility.yul\":12998:13070   */\n      tag_189\n      jump\t// in\n    tag_359:\n        /* \"#utility.yul\":13080:13152   */\n      tag_360\n        /* \"#utility.yul\":13148:13150   */\n      0x40\n        /* \"#utility.yul\":13137:13146   */\n      dup4\n        /* \"#utility.yul\":13133:13151   */\n      add\n        /* \"#utility.yul\":13124:13130   */\n      dup5\n        /* \"#utility.yul\":13080:13152   */\n      tag_189\n      jump\t// in\n    tag_360:\n        /* \"#utility.yul\":12717:13159   */\n      swap5\n      swap4\n      pop\n      pop\n      pop\n      pop\n      jump\t// out\n        /* \"#utility.yul\":13165:13330   */\n    tag_194:\n        /* \"#utility.yul\":13305:13322   */\n      0x752063616e277420726566756e64200000000000000000000000000000000000\n        /* \"#utility.yul\":13301:13302   */\n      0x00\n        /* \"#utility.yul\":13293:13299   */\n      dup3\n        /* \"#utility.yul\":13289:13303   */\n      add\n        /* \"#utility.yul\":13282:13323   */\n      mstore\n        /* \"#utility.yul\":13165:13330   */\n      pop\n      jump\t// out\n        /* \"#utility.yul\":13336:13702   */\n    tag_195:\n        /* \"#utility.yul\":13478:13481   */\n      0x00\n        /* \"#utility.yul\":13499:13566   */\n      tag_363\n        /* \"#utility.yul\":13563:13565   */\n      0x0f\n        /* \"#utility.yul\":13558:13561   */\n      dup4\n        /* \"#utility.yul\":13499:13566   */\n      tag_154\n      jump\t// in\n    tag_363:\n        /* \"#utility.yul\":13492:13566   */\n      swap2\n      pop\n        /* \"#utility.yul\":13575:13668   */\n      tag_364\n        /* \"#utility.yul\":13664:13667   */\n      dup3\n        /* \"#utility.yul\":13575:13668   */\n      tag_194\n      jump\t// in\n    tag_364:\n        /* \"#utility.yul\":13693:13695   */\n      0x20\n        /* \"#utility.yul\":13688:13691   */\n      dup3\n        /* \"#utility.yul\":13684:13696   */\n      add\n        /* \"#utility.yul\":13677:13696   */\n      swap1\n      pop\n        /* \"#utility.yul\":13336:13702   */\n      swap2\n      swap1\n      pop\n      jump\t// out\n        /* \"#utility.yul\":13708:14127   */\n    tag_90:\n        /* \"#utility.yul\":13874:13878   */\n      0x00\n        /* \"#utility.yul\":13912:13914   */\n      0x20\n        /* \"#utility.yul\":13901:13910   */\n      dup3\n        /* \"#utility.yul\":13897:13915   */\n      add\n        /* \"#utility.yul\":13889:13915   */\n      swap1\n      pop\n        /* \"#utility.yul\":13961:13970   */\n      dup2\n        /* \"#utility.yul\":13955:13959   */\n      dup2\n        /* \"#utility.yul\":13951:13971   */\n      sub\n        /* \"#utility.yul\":13947:13948   */\n      0x00\n        /* \"#utility.yul\":13936:13945   */\n      dup4\n        /* \"#utility.yul\":13932:13949   */\n      add\n        /* \"#utility.yul\":13925:13972   */\n      mstore\n        /* \"#utility.yul\":13989:14120   */\n      tag_366\n        /* \"#utility.yul\":14115:14119   */\n      dup2\n        /* \"#utility.yul\":13989:14120   */\n      tag_195\n      jump\t// in\n    tag_366:\n        /* \"#utility.yul\":13981:14120   */\n      swap1\n      pop\n        /* \"#utility.yul\":13708:14127   */\n      swap2\n      swap1\n      pop\n      jump\t// out\n        /* \"#utility.yul\":14133:14370   */\n    tag_196:\n        /* \"#utility.yul\":14273:14307   */\n      0x6e6f7420616c6c6f77656420636c61696d696e672063757a20616c6c6f776564\n        /* \"#utility.yul\":14269:14270   */\n      0x00\n        /* \"#utility.yul\":14261:14267   */\n      dup3\n        /* \"#utility.yul\":14257:14271   */\n      add\n        /* \"#utility.yul\":14250:14308   */\n      mstore\n        /* \"#utility.yul\":14342:14362   */\n      0x2074696d652069732072656d61696e696e670000000000000000000000000000\n        /* \"#utility.yul\":14337:14339   */\n      0x20\n        /* \"#utility.yul\":14329:14335   */\n      dup3\n        /* \"#utility.yul\":14325:14340   */\n      add\n        /* \"#utility.yul\":14318:14363   */\n      mstore\n        /* \"#utility.yul\":14133:14370   */\n      pop\n      jump\t// out\n        /* \"#utility.yul\":14376:14742   */\n    tag_197:\n        /* \"#utility.yul\":14518:14521   */\n      0x00\n        /* \"#utility.yul\":14539:14606   */\n      tag_369\n        /* \"#utility.yul\":14603:14605   */\n      0x32\n        /* \"#utility.yul\":14598:14601   */\n      dup4\n        /* \"#utility.yul\":14539:14606   */\n      tag_154\n      jump\t// in\n    tag_369:\n        /* \"#utility.yul\":14532:14606   */\n      swap2\n      pop\n        /* \"#utility.yul\":14615:14708   */\n      tag_370\n        /* \"#utility.yul\":14704:14707   */\n      dup3\n        /* \"#utility.yul\":14615:14708   */\n      tag_196\n      jump\t// in\n    tag_370:\n        /* \"#utility.yul\":14733:14735   */\n      0x40\n        /* \"#utility.yul\":14728:14731   */\n      dup3\n        /* \"#utility.yul\":14724:14736   */\n      add\n        /* \"#utility.yul\":14717:14736   */\n      swap1\n      pop\n        /* \"#utility.yul\":14376:14742   */\n      swap2\n      swap1\n      pop\n      jump\t// out\n        /* \"#utility.yul\":14748:15167   */\n    tag_94:\n        /* \"#utility.yul\":14914:14918   */\n      0x00\n        /* \"#utility.yul\":14952:14954   */\n      0x20\n        /* \"#utility.yul\":14941:14950   */\n      dup3\n        /* \"#utility.yul\":14937:14955   */\n      add\n        /* \"#utility.yul\":14929:14955   */\n      swap1\n      pop\n        /* \"#utility.yul\":15001:15010   */\n      dup2\n        /* \"#utility.yul\":14995:14999   */\n      dup2\n        /* \"#utility.yul\":14991:15011   */\n      sub\n        /* \"#utility.yul\":14987:14988   */\n      0x00\n        /* \"#utility.yul\":14976:14985   */\n      dup4\n        /* \"#utility.yul\":14972:14989   */\n      add\n        /* \"#utility.yul\":14965:15012   */\n      mstore\n        /* \"#utility.yul\":15029:15160   */\n      tag_372\n        /* \"#utility.yul\":15155:15159   */\n      dup2\n        /* \"#utility.yul\":15029:15160   */\n      tag_197\n      jump\t// in\n    tag_372:\n        /* \"#utility.yul\":15021:15160   */\n      swap1\n      pop\n        /* \"#utility.yul\":14748:15167   */\n      swap2\n      swap1\n      pop\n      jump\t// out\n        /* \"#utility.yul\":15173:15350   */\n    tag_198:\n        /* \"#utility.yul\":15313:15342   */\n      0x616d6f756e74206973206e6f7420657175616c20746f20676f616c0000000000\n        /* \"#utility.yul\":15309:15310   */\n      0x00\n        /* \"#utility.yul\":15301:15307   */\n      dup3\n        /* \"#utility.yul\":15297:15311   */\n      add\n        /* \"#utility.yul\":15290:15343   */\n      mstore\n        /* \"#utility.yul\":15173:15350   */\n      pop\n      jump\t// out\n        /* \"#utility.yul\":15356:15722   */\n    tag_199:\n        /* \"#utility.yul\":15498:15501   */\n      0x00\n        /* \"#utility.yul\":15519:15586   */\n      tag_375\n        /* \"#utility.yul\":15583:15585   */\n      0x1b\n        /* \"#utility.yul\":15578:15581   */\n      dup4\n        /* \"#utility.yul\":15519:15586   */\n      tag_154\n      jump\t// in\n    tag_375:\n        /* \"#utility.yul\":15512:15586   */\n      swap2\n      pop\n        /* \"#utility.yul\":15595:15688   */\n      tag_376\n        /* \"#utility.yul\":15684:15687   */\n      dup3\n        /* \"#utility.yul\":15595:15688   */\n      tag_198\n      jump\t// in\n    tag_376:\n        /* \"#utility.yul\":15713:15715   */\n      0x20\n        /* \"#utility.yul\":15708:15711   */\n      dup3\n        /* \"#utility.yul\":15704:15716   */\n      add\n        /* \"#utility.yul\":15697:15716   */\n      swap1\n      pop\n        /* \"#utility.yul\":15356:15722   */\n      swap2\n      swap1\n      pop\n      jump\t// out\n        /* \"#utility.yul\":15728:16147   */\n    tag_104:\n        /* \"#utility.yul\":15894:15898   */\n      0x00\n        /* \"#utility.yul\":15932:15934   */\n      0x20\n        /* \"#utility.yul\":15921:15930   */\n      dup3\n        /* \"#utility.yul\":15917:15935   */\n      add\n        /* \"#utility.yul\":15909:15935   */\n      swap1\n      pop\n        /* \"#utility.yul\":15981:15990   */\n      dup2\n        /* \"#utility.yul\":15975:15979   */\n      dup2\n        /* \"#utility.yul\":15971:15991   */\n      sub\n        /* \"#utility.yul\":15967:15968   */\n      0x00\n        /* \"#utility.yul\":15956:15965   */\n      dup4\n        /* \"#utility.yul\":15952:15969   */\n      add\n        /* \"#utility.yul\":15945:15992   */\n      mstore\n        /* \"#utility.yul\":16009:16140   */\n      tag_378\n        /* \"#utility.yul\":16135:16139   */\n      dup2\n        /* \"#utility.yul\":16009:16140   */\n      tag_199\n      jump\t// in\n    tag_378:\n        /* \"#utility.yul\":16001:16140   */\n      swap1\n      pop\n        /* \"#utility.yul\":15728:16147   */\n      swap2\n      swap1\n      pop\n      jump\t// out\n        /* \"#utility.yul\":16153:16380   */\n    tag_200:\n        /* \"#utility.yul\":16293:16327   */\n      0x7472616e73616374696f6e20617265206e6f7420616c6c6f77656420696e2074\n        /* \"#utility.yul\":16289:16290   */\n      0x00\n        /* \"#utility.yul\":16281:16287   */\n      dup3\n        /* \"#utility.yul\":16277:16291   */\n      add\n        /* \"#utility.yul\":16270:16328   */\n      mstore\n        /* \"#utility.yul\":16362:16372   */\n      0x6869732074696d65000000000000000000000000000000000000000000000000\n        /* \"#utility.yul\":16357:16359   */\n      0x20\n        /* \"#utility.yul\":16349:16355   */\n      dup3\n        /* \"#utility.yul\":16345:16360   */\n      add\n        /* \"#utility.yul\":16338:16373   */\n      mstore\n        /* \"#utility.yul\":16153:16380   */\n      pop\n      jump\t// out\n        /* \"#utility.yul\":16386:16752   */\n    tag_201:\n        /* \"#utility.yul\":16528:16531   */\n      0x00\n        /* \"#utility.yul\":16549:16616   */\n      tag_381\n        /* \"#utility.yul\":16613:16615   */\n      0x28\n        /* \"#utility.yul\":16608:16611   */\n      dup4\n        /* \"#utility.yul\":16549:16616   */\n      tag_154\n      jump\t// in\n    tag_381:\n        /* \"#utility.yul\":16542:16616   */\n      swap2\n      pop\n        /* \"#utility.yul\":16625:16718   */\n      tag_382\n        /* \"#utility.yul\":16714:16717   */\n      dup3\n        /* \"#utility.yul\":16625:16718   */\n      tag_200\n      jump\t// in\n    tag_382:\n        /* \"#utility.yul\":16743:16745   */\n      0x40\n        /* \"#utility.yul\":16738:16741   */\n      dup3\n        /* \"#utility.yul\":16734:16746   */\n      add\n        /* \"#utility.yul\":16727:16746   */\n      swap1\n      pop\n        /* \"#utility.yul\":16386:16752   */\n      swap2\n      swap1\n      pop\n      jump\t// out\n        /* \"#utility.yul\":16758:17177   */\n    tag_109:\n        /* \"#utility.yul\":16924:16928   */\n      0x00\n        /* \"#utility.yul\":16962:16964   */\n      0x20\n        /* \"#utility.yul\":16951:16960   */\n      dup3\n        /* \"#utility.yul\":16947:16965   */\n      add\n        /* \"#utility.yul\":16939:16965   */\n      swap1\n      pop\n        /* \"#utility.yul\":17011:17020   */\n      dup2\n        /* \"#utility.yul\":17005:17009   */\n      dup2\n        /* \"#utility.yul\":17001:17021   */\n      sub\n        /* \"#utility.yul\":16997:16998   */\n      0x00\n        /* \"#utility.yul\":16986:16995   */\n      dup4\n        /* \"#utility.yul\":16982:16999   */\n      add\n        /* \"#utility.yul\":16975:17022   */\n      mstore\n        /* \"#utility.yul\":17039:17170   */\n      tag_384\n        /* \"#utility.yul\":17165:17169   */\n      dup2\n        /* \"#utility.yul\":17039:17170   */\n      tag_201\n      jump\t// in\n    tag_384:\n        /* \"#utility.yul\":17031:17170   */\n      swap1\n      pop\n        /* \"#utility.yul\":16758:17177   */\n      swap2\n      swap1\n      pop\n      jump\t// out\n        /* \"#utility.yul\":17183:17363   */\n    tag_202:\n        /* \"#utility.yul\":17231:17308   */\n      0x4e487b7100000000000000000000000000000000000000000000000000000000\n        /* \"#utility.yul\":17228:17229   */\n      0x00\n        /* \"#utility.yul\":17221:17309   */\n      mstore\n        /* \"#utility.yul\":17328:17332   */\n      0x11\n        /* \"#utility.yul\":17325:17326   */\n      0x04\n        /* \"#utility.yul\":17318:17333   */\n      mstore\n        /* \"#utility.yul\":17352:17356   */\n      0x24\n        /* \"#utility.yul\":17349:17350   */\n      0x00\n        /* \"#utility.yul\":17342:17357   */\n      revert\n        /* \"#utility.yul\":17369:17560   */\n    tag_112:\n        /* \"#utility.yul\":17409:17412   */\n      0x00\n        /* \"#utility.yul\":17428:17448   */\n      tag_387\n        /* \"#utility.yul\":17446:17447   */\n      dup3\n        /* \"#utility.yul\":17428:17448   */\n      tag_160\n      jump\t// in\n    tag_387:\n        /* \"#utility.yul\":17423:17448   */\n      swap2\n      pop\n        /* \"#utility.yul\":17462:17482   */\n      tag_388\n        /* \"#utility.yul\":17480:17481   */\n      dup4\n        /* \"#utility.yul\":17462:17482   */\n      tag_160\n      jump\t// in\n    tag_388:\n        /* \"#utility.yul\":17457:17482   */\n      swap3\n      pop\n        /* \"#utility.yul\":17505:17506   */\n      dup3\n        /* \"#utility.yul\":17502:17503   */\n      dup3\n        /* \"#utility.yul\":17498:17507   */\n      add\n        /* \"#utility.yul\":17491:17507   */\n      swap1\n      pop\n        /* \"#utility.yul\":17526:17529   */\n      dup1\n        /* \"#utility.yul\":17523:17524   */\n      dup3\n        /* \"#utility.yul\":17520:17530   */\n      gt\n        /* \"#utility.yul\":17517:17553   */\n      iszero\n      tag_389\n      jumpi\n        /* \"#utility.yul\":17533:17551   */\n      tag_390\n      tag_202\n      jump\t// in\n    tag_390:\n        /* \"#utility.yul\":17517:17553   */\n    tag_389:\n        /* \"#utility.yul\":17369:17560   */\n      swap3\n      swap2\n      pop\n      pop\n      jump\t// out\n        /* \"#utility.yul\":17566:17735   */\n    tag_203:\n        /* \"#utility.yul\":17706:17727   */\n      0x7374746165206973206e6f742061637269766500000000000000000000000000\n        /* \"#utility.yul\":17702:17703   */\n      0x00\n        /* \"#utility.yul\":17694:17700   */\n      dup3\n        /* \"#utility.yul\":17690:17704   */\n      add\n        /* \"#utility.yul\":17683:17728   */\n      mstore\n        /* \"#utility.yul\":17566:17735   */\n      pop\n      jump\t// out\n        /* \"#utility.yul\":17741:18107   */\n    tag_204:\n        /* \"#utility.yul\":17883:17886   */\n      0x00\n        /* \"#utility.yul\":17904:17971   */\n      tag_393\n        /* \"#utility.yul\":17968:17970   */\n      0x13\n        /* \"#utility.yul\":17963:17966   */\n      dup4\n        /* \"#utility.yul\":17904:17971   */\n      tag_154\n      jump\t// in\n    tag_393:\n        /* \"#utility.yul\":17897:17971   */\n      swap2\n      pop\n        /* \"#utility.yul\":17980:18073   */\n      tag_394\n        /* \"#utility.yul\":18069:18072   */\n      dup3\n        /* \"#utility.yul\":17980:18073   */\n      tag_203\n      jump\t// in\n    tag_394:\n        /* \"#utility.yul\":18098:18100   */\n      0x20\n        /* \"#utility.yul\":18093:18096   */\n      dup3\n        /* \"#utility.yul\":18089:18101   */\n      add\n        /* \"#utility.yul\":18082:18101   */\n      swap1\n      pop\n        /* \"#utility.yul\":17741:18107   */\n      swap2\n      swap1\n      pop\n      jump\t// out\n        /* \"#utility.yul\":18113:18532   */\n    tag_119:\n        /* \"#utility.yul\":18279:18283   */\n      0x00\n        /* \"#utility.yul\":18317:18319   */\n      0x20\n        /* \"#utility.yul\":18306:18315   */\n      dup3\n        /* \"#utility.yul\":18302:18320   */\n      add\n        /* \"#utility.yul\":18294:18320   */\n      swap1\n      pop\n        /* \"#utility.yul\":18366:18375   */\n      dup2\n        /* \"#utility.yul\":18360:18364   */\n      dup2\n        /* \"#utility.yul\":18356:18376   */\n      sub\n        /* \"#utility.yul\":18352:18353   */\n      0x00\n        /* \"#utility.yul\":18341:18350   */\n      dup4\n        /* \"#utility.yul\":18337:18354   */\n      add\n        /* \"#utility.yul\":18330:18377   */\n      mstore\n        /* \"#utility.yul\":18394:18525   */\n      tag_396\n        /* \"#utility.yul\":18520:18524   */\n      dup2\n        /* \"#utility.yul\":18394:18525   */\n      tag_204\n      jump\t// in\n    tag_396:\n        /* \"#utility.yul\":18386:18525   */\n      swap1\n      pop\n        /* \"#utility.yul\":18113:18532   */\n      swap2\n      swap1\n      pop\n      jump\t// out\n        /* \"#utility.yul\":18538:18980   */\n    tag_121:\n        /* \"#utility.yul\":18687:18691   */\n      0x00\n        /* \"#utility.yul\":18725:18727   */\n      0x60\n        /* \"#utility.yul\":18714:18723   */\n      dup3\n        /* \"#utility.yul\":18710:18728   */\n      add\n        /* \"#utility.yul\":18702:18728   */\n      swap1\n      pop\n        /* \"#utility.yul\":18738:18809   */\n      tag_398\n        /* \"#utility.yul\":18806:18807   */\n      0x00\n        /* \"#utility.yul\":18795:18804   */\n      dup4\n        /* \"#utility.yul\":18791:18808   */\n      add\n        /* \"#utility.yul\":18782:18788   */\n      dup7\n        /* \"#utility.yul\":18738:18809   */\n      tag_189\n      jump\t// in\n    tag_398:\n        /* \"#utility.yul\":18819:18891   */\n      tag_399\n        /* \"#utility.yul\":18887:18889   */\n      0x20\n        /* \"#utility.yul\":18876:18885   */\n      dup4\n        /* \"#utility.yul\":18872:18890   */\n      add\n        /* \"#utility.yul\":18863:18869   */\n      dup6\n        /* \"#utility.yul\":18819:18891   */\n      tag_190\n      jump\t// in\n    tag_399:\n        /* \"#utility.yul\":18901:18973   */\n      tag_400\n        /* \"#utility.yul\":18969:18971   */\n      0x40\n        /* \"#utility.yul\":18958:18967   */\n      dup4\n        /* \"#utility.yul\":18954:18972   */\n      add\n        /* \"#utility.yul\":18945:18951   */\n      dup5\n        /* \"#utility.yul\":18901:18973   */\n      tag_189\n      jump\t// in\n    tag_400:\n        /* \"#utility.yul\":18538:18980   */\n      swap5\n      swap4\n      pop\n      pop\n      pop\n      pop\n      jump\t// out\n        /* \"#utility.yul\":18986:19103   */\n    tag_205:\n        /* \"#utility.yul\":19095:19096   */\n      0x00\n        /* \"#utility.yul\":19092:19093   */\n      dup1\n        /* \"#utility.yul\":19085:19097   */\n      revert\n        /* \"#utility.yul\":19109:19226   */\n    tag_206:\n        /* \"#utility.yul\":19218:19219   */\n      0x00\n        /* \"#utility.yul\":19215:19216   */\n      dup1\n        /* \"#utility.yul\":19208:19220   */\n      revert\n        /* \"#utility.yul\":19232:19375   */\n    tag_207:\n        /* \"#utility.yul\":19289:19294   */\n      0x00\n        /* \"#utility.yul\":19320:19326   */\n      dup2\n        /* \"#utility.yul\":19314:19327   */\n      mload\n        /* \"#utility.yul\":19305:19327   */\n      swap1\n      pop\n        /* \"#utility.yul\":19336:19369   */\n      tag_404\n        /* \"#utility.yul\":19363:19368   */\n      dup2\n        /* \"#utility.yul\":19336:19369   */\n      tag_161\n      jump\t// in\n    tag_404:\n        /* \"#utility.yul\":19232:19375   */\n      swap3\n      swap2\n      pop\n      pop\n      jump\t// out\n        /* \"#utility.yul\":19381:19815   */\n    tag_208:\n        /* \"#utility.yul\":19470:19475   */\n      0x00\n        /* \"#utility.yul\":19495:19561   */\n      tag_406\n        /* \"#utility.yul\":19511:19560   */\n      tag_407\n        /* \"#utility.yul\":19553:19559   */\n      dup5\n        /* \"#utility.yul\":19511:19560   */\n      tag_185\n      jump\t// in\n    tag_407:\n        /* \"#utility.yul\":19495:19561   */\n      tag_184\n      jump\t// in\n    tag_406:\n        /* \"#utility.yul\":19486:19561   */\n      swap1\n      pop\n        /* \"#utility.yul\":19584:19590   */\n      dup3\n        /* \"#utility.yul\":19577:19582   */\n      dup2\n        /* \"#utility.yul\":19570:19591   */\n      mstore\n        /* \"#utility.yul\":19622:19626   */\n      0x20\n        /* \"#utility.yul\":19615:19620   */\n      dup2\n        /* \"#utility.yul\":19611:19627   */\n      add\n        /* \"#utility.yul\":19660:19663   */\n      dup5\n        /* \"#utility.yul\":19651:19657   */\n      dup5\n        /* \"#utility.yul\":19646:19649   */\n      dup5\n        /* \"#utility.yul\":19642:19658   */\n      add\n        /* \"#utility.yul\":19639:19664   */\n      gt\n        /* \"#utility.yul\":19636:19748   */\n      iszero\n      tag_408\n      jumpi\n        /* \"#utility.yul\":19667:19746   */\n      tag_409\n      tag_181\n      jump\t// in\n    tag_409:\n        /* \"#utility.yul\":19636:19748   */\n    tag_408:\n        /* \"#utility.yul\":19757:19809   */\n      tag_410\n        /* \"#utility.yul\":19802:19808   */\n      dup5\n        /* \"#utility.yul\":19797:19800   */\n      dup3\n        /* \"#utility.yul\":19792:19795   */\n      dup6\n        /* \"#utility.yul\":19757:19809   */\n      tag_166\n      jump\t// in\n    tag_410:\n        /* \"#utility.yul\":19476:19815   */\n      pop\n        /* \"#utility.yul\":19381:19815   */\n      swap4\n      swap3\n      pop\n      pop\n      pop\n      jump\t// out\n        /* \"#utility.yul\":19835:20190   */\n    tag_209:\n        /* \"#utility.yul\":19902:19907   */\n      0x00\n        /* \"#utility.yul\":19951:19954   */\n      dup3\n        /* \"#utility.yul\":19944:19948   */\n      0x1f\n        /* \"#utility.yul\":19936:19942   */\n      dup4\n        /* \"#utility.yul\":19932:19949   */\n      add\n        /* \"#utility.yul\":19928:19955   */\n      slt\n        /* \"#utility.yul\":19918:20040   */\n      tag_412\n      jumpi\n        /* \"#utility.yul\":19959:20038   */\n      tag_413\n      tag_177\n      jump\t// in\n    tag_413:\n        /* \"#utility.yul\":19918:20040   */\n    tag_412:\n        /* \"#utility.yul\":20069:20075   */\n      dup2\n        /* \"#utility.yul\":20063:20076   */\n      mload\n        /* \"#utility.yul\":20094:20184   */\n      tag_414\n        /* \"#utility.yul\":20180:20183   */\n      dup5\n        /* \"#utility.yul\":20172:20178   */\n      dup3\n        /* \"#utility.yul\":20165:20169   */\n      0x20\n        /* \"#utility.yul\":20157:20163   */\n      dup7\n        /* \"#utility.yul\":20153:20170   */\n      add\n        /* \"#utility.yul\":20094:20184   */\n      tag_208\n      jump\t// in\n    tag_414:\n        /* \"#utility.yul\":20085:20184   */\n      swap2\n      pop\n        /* \"#utility.yul\":19908:20190   */\n      pop\n        /* \"#utility.yul\":19835:20190   */\n      swap3\n      swap2\n      pop\n      pop\n      jump\t// out\n        /* \"#utility.yul\":20196:20318   */\n    tag_210:\n        /* \"#utility.yul\":20269:20293   */\n      tag_416\n        /* \"#utility.yul\":20287:20292   */\n      dup2\n        /* \"#utility.yul\":20269:20293   */\n      tag_170\n      jump\t// in\n    tag_416:\n        /* \"#utility.yul\":20262:20267   */\n      dup2\n        /* \"#utility.yul\":20259:20294   */\n      eq\n        /* \"#utility.yul\":20249:20312   */\n      tag_417\n      jumpi\n        /* \"#utility.yul\":20308:20309   */\n      0x00\n        /* \"#utility.yul\":20305:20306   */\n      dup1\n        /* \"#utility.yul\":20298:20310   */\n      revert\n        /* \"#utility.yul\":20249:20312   */\n    tag_417:\n        /* \"#utility.yul\":20196:20318   */\n      pop\n      jump\t// out\n        /* \"#utility.yul\":20324:20467   */\n    tag_211:\n        /* \"#utility.yul\":20381:20386   */\n      0x00\n        /* \"#utility.yul\":20412:20418   */\n      dup2\n        /* \"#utility.yul\":20406:20419   */\n      mload\n        /* \"#utility.yul\":20397:20419   */\n      swap1\n      pop\n        /* \"#utility.yul\":20428:20461   */\n      tag_419\n        /* \"#utility.yul\":20455:20460   */\n      dup2\n        /* \"#utility.yul\":20428:20461   */\n      tag_210\n      jump\t// in\n    tag_419:\n        /* \"#utility.yul\":20324:20467   */\n      swap3\n      swap2\n      pop\n      pop\n      jump\t// out\n        /* \"#utility.yul\":20473:20584   */\n    tag_212:\n        /* \"#utility.yul\":20558:20559   */\n      0x02\n        /* \"#utility.yul\":20551:20556   */\n      dup2\n        /* \"#utility.yul\":20548:20560   */\n      lt\n        /* \"#utility.yul\":20538:20578   */\n      tag_421\n      jumpi\n        /* \"#utility.yul\":20574:20575   */\n      0x00\n        /* \"#utility.yul\":20571:20572   */\n      dup1\n        /* \"#utility.yul\":20564:20576   */\n      revert\n        /* \"#utility.yul\":20538:20578   */\n    tag_421:\n        /* \"#utility.yul\":20473:20584   */\n      pop\n      jump\t// out\n        /* \"#utility.yul\":20590:20757   */\n    tag_213:\n        /* \"#utility.yul\":20659:20664   */\n      0x00\n        /* \"#utility.yul\":20690:20696   */\n      dup2\n        /* \"#utility.yul\":20684:20697   */\n      mload\n        /* \"#utility.yul\":20675:20697   */\n      swap1\n      pop\n        /* \"#utility.yul\":20706:20751   */\n      tag_423\n        /* \"#utility.yul\":20745:20750   */\n      dup2\n        /* \"#utility.yul\":20706:20751   */\n      tag_212\n      jump\t// in\n    tag_423:\n        /* \"#utility.yul\":20590:20757   */\n      swap3\n      swap2\n      pop\n      pop\n      jump\t// out\n        /* \"#utility.yul\":20790:22442   */\n    tag_214:\n        /* \"#utility.yul\":20874:20879   */\n      0x00\n        /* \"#utility.yul\":20918:20922   */\n      0xc0\n        /* \"#utility.yul\":20906:20915   */\n      dup3\n        /* \"#utility.yul\":20901:20904   */\n      dup5\n        /* \"#utility.yul\":20897:20916   */\n      sub\n        /* \"#utility.yul\":20893:20923   */\n      slt\n        /* \"#utility.yul\":20890:21007   */\n      iszero\n      tag_425\n      jumpi\n        /* \"#utility.yul\":20926:21005   */\n      tag_426\n      tag_205\n      jump\t// in\n    tag_426:\n        /* \"#utility.yul\":20890:21007   */\n    tag_425:\n        /* \"#utility.yul\":21025:21046   */\n      tag_427\n        /* \"#utility.yul\":21041:21045   */\n      0xc0\n        /* \"#utility.yul\":21025:21046   */\n      tag_184\n      jump\t// in\n    tag_427:\n        /* \"#utility.yul\":21016:21046   */\n      swap1\n      pop\n        /* \"#utility.yul\":21103:21104   */\n      0x00\n        /* \"#utility.yul\":21143:21203   */\n      tag_428\n        /* \"#utility.yul\":21199:21202   */\n      dup5\n        /* \"#utility.yul\":21190:21196   */\n      dup3\n        /* \"#utility.yul\":21179:21188   */\n      dup6\n        /* \"#utility.yul\":21175:21197   */\n      add\n        /* \"#utility.yul\":21143:21203   */\n      tag_207\n      jump\t// in\n    tag_428:\n        /* \"#utility.yul\":21136:21140   */\n      0x00\n        /* \"#utility.yul\":21129:21134   */\n      dup4\n        /* \"#utility.yul\":21125:21141   */\n      add\n        /* \"#utility.yul\":21118:21204   */\n      mstore\n        /* \"#utility.yul\":21056:21215   */\n      pop\n        /* \"#utility.yul\":21295:21297   */\n      0x20\n        /* \"#utility.yul\":21284:21293   */\n      dup3\n        /* \"#utility.yul\":21280:21298   */\n      add\n        /* \"#utility.yul\":21274:21299   */\n      mload\n        /* \"#utility.yul\":21326:21344   */\n      0xffffffffffffffff\n        /* \"#utility.yul\":21318:21324   */\n      dup2\n        /* \"#utility.yul\":21315:21345   */\n      gt\n        /* \"#utility.yul\":21312:21429   */\n      iszero\n      tag_429\n      jumpi\n        /* \"#utility.yul\":21348:21427   */\n      tag_430\n      tag_206\n      jump\t// in\n    tag_430:\n        /* \"#utility.yul\":21312:21429   */\n    tag_429:\n        /* \"#utility.yul\":21468:21538   */\n      tag_431\n        /* \"#utility.yul\":21534:21537   */\n      dup5\n        /* \"#utility.yul\":21525:21531   */\n      dup3\n        /* \"#utility.yul\":21514:21523   */\n      dup6\n        /* \"#utility.yul\":21510:21532   */\n      add\n        /* \"#utility.yul\":21468:21538   */\n      tag_209\n      jump\t// in\n    tag_431:\n        /* \"#utility.yul\":21461:21465   */\n      0x20\n        /* \"#utility.yul\":21454:21459   */\n      dup4\n        /* \"#utility.yul\":21450:21466   */\n      add\n        /* \"#utility.yul\":21443:21539   */\n      mstore\n        /* \"#utility.yul\":21225:21550   */\n      pop\n        /* \"#utility.yul\":21637:21639   */\n      0x40\n        /* \"#utility.yul\":21626:21635   */\n      dup3\n        /* \"#utility.yul\":21622:21640   */\n      add\n        /* \"#utility.yul\":21616:21641   */\n      mload\n        /* \"#utility.yul\":21668:21686   */\n      0xffffffffffffffff\n        /* \"#utility.yul\":21660:21666   */\n      dup2\n        /* \"#utility.yul\":21657:21687   */\n      gt\n        /* \"#utility.yul\":21654:21771   */\n      iszero\n      tag_432\n      jumpi\n        /* \"#utility.yul\":21690:21769   */\n      tag_433\n      tag_206\n      jump\t// in\n    tag_433:\n        /* \"#utility.yul\":21654:21771   */\n    tag_432:\n        /* \"#utility.yul\":21810:21880   */\n      tag_434\n        /* \"#utility.yul\":21876:21879   */\n      dup5\n        /* \"#utility.yul\":21867:21873   */\n      dup3\n        /* \"#utility.yul\":21856:21865   */\n      dup6\n        /* \"#utility.yul\":21852:21874   */\n      add\n        /* \"#utility.yul\":21810:21880   */\n      tag_209\n      jump\t// in\n    tag_434:\n        /* \"#utility.yul\":21803:21807   */\n      0x40\n        /* \"#utility.yul\":21796:21801   */\n      dup4\n        /* \"#utility.yul\":21792:21808   */\n      add\n        /* \"#utility.yul\":21785:21881   */\n      mstore\n        /* \"#utility.yul\":21560:21892   */\n      pop\n        /* \"#utility.yul\":21956:21958   */\n      0x60\n        /* \"#utility.yul\":21997:22057   */\n      tag_435\n        /* \"#utility.yul\":22053:22056   */\n      dup5\n        /* \"#utility.yul\":22044:22050   */\n      dup3\n        /* \"#utility.yul\":22033:22042   */\n      dup6\n        /* \"#utility.yul\":22029:22051   */\n      add\n        /* \"#utility.yul\":21997:22057   */\n      tag_211\n      jump\t// in\n    tag_435:\n        /* \"#utility.yul\":21990:21994   */\n      0x60\n        /* \"#utility.yul\":21983:21988   */\n      dup4\n        /* \"#utility.yul\":21979:21995   */\n      add\n        /* \"#utility.yul\":21972:22058   */\n      mstore\n        /* \"#utility.yul\":21902:22069   */\n      pop\n        /* \"#utility.yul\":22135:22138   */\n      0x80\n        /* \"#utility.yul\":22177:22237   */\n      tag_436\n        /* \"#utility.yul\":22233:22236   */\n      dup5\n        /* \"#utility.yul\":22224:22230   */\n      dup3\n        /* \"#utility.yul\":22213:22222   */\n      dup6\n        /* \"#utility.yul\":22209:22231   */\n      add\n        /* \"#utility.yul\":22177:22237   */\n      tag_207\n      jump\t// in\n    tag_436:\n        /* \"#utility.yul\":22170:22174   */\n      0x80\n        /* \"#utility.yul\":22163:22168   */\n      dup4\n        /* \"#utility.yul\":22159:22175   */\n      add\n        /* \"#utility.yul\":22152:22238   */\n      mstore\n        /* \"#utility.yul\":22079:22249   */\n      pop\n        /* \"#utility.yul\":22309:22312   */\n      0xa0\n        /* \"#utility.yul\":22351:22423   */\n      tag_437\n        /* \"#utility.yul\":22419:22422   */\n      dup5\n        /* \"#utility.yul\":22410:22416   */\n      dup3\n        /* \"#utility.yul\":22399:22408   */\n      dup6\n        /* \"#utility.yul\":22395:22417   */\n      add\n        /* \"#utility.yul\":22351:22423   */\n      tag_213\n      jump\t// in\n    tag_437:\n        /* \"#utility.yul\":22344:22348   */\n      0xa0\n        /* \"#utility.yul\":22337:22342   */\n      dup4\n        /* \"#utility.yul\":22333:22349   */\n      add\n        /* \"#utility.yul\":22326:22424   */\n      mstore\n        /* \"#utility.yul\":22259:22435   */\n      pop\n        /* \"#utility.yul\":20790:22442   */\n      swap3\n      swap2\n      pop\n      pop\n      jump\t// out\n        /* \"#utility.yul\":22448:23000   */\n    tag_125:\n        /* \"#utility.yul\":22542:22548   */\n      0x00\n        /* \"#utility.yul\":22591:22593   */\n      0x20\n        /* \"#utility.yul\":22579:22588   */\n      dup3\n        /* \"#utility.yul\":22570:22577   */\n      dup5\n        /* \"#utility.yul\":22566:22589   */\n      sub\n        /* \"#utility.yul\":22562:22594   */\n      slt\n        /* \"#utility.yul\":22559:22678   */\n      iszero\n      tag_439\n      jumpi\n        /* \"#utility.yul\":22597:22676   */\n      tag_440\n      tag_158\n      jump\t// in\n    tag_440:\n        /* \"#utility.yul\":22559:22678   */\n    tag_439:\n        /* \"#utility.yul\":22738:22739   */\n      0x00\n        /* \"#utility.yul\":22727:22736   */\n      dup3\n        /* \"#utility.yul\":22723:22740   */\n      add\n        /* \"#utility.yul\":22717:22741   */\n      mload\n        /* \"#utility.yul\":22768:22786   */\n      0xffffffffffffffff\n        /* \"#utility.yul\":22760:22766   */\n      dup2\n        /* \"#utility.yul\":22757:22787   */\n      gt\n        /* \"#utility.yul\":22754:22871   */\n      iszero\n      tag_441\n      jumpi\n        /* \"#utility.yul\":22790:22869   */\n      tag_442\n      tag_159\n      jump\t// in\n    tag_442:\n        /* \"#utility.yul\":22754:22871   */\n    tag_441:\n        /* \"#utility.yul\":22895:22983   */\n      tag_443\n        /* \"#utility.yul\":22975:22982   */\n      dup5\n        /* \"#utility.yul\":22966:22972   */\n      dup3\n        /* \"#utility.yul\":22955:22964   */\n      dup6\n        /* \"#utility.yul\":22951:22973   */\n      add\n        /* \"#utility.yul\":22895:22983   */\n      tag_214\n      jump\t// in\n    tag_443:\n        /* \"#utility.yul\":22885:22983   */\n      swap2\n      pop\n        /* \"#utility.yul\":22688:22993   */\n      pop\n        /* \"#utility.yul\":22448:23000   */\n      swap3\n      swap2\n      pop\n      pop\n      jump\t// out\n        /* \"#utility.yul\":23006:23170   */\n    tag_215:\n        /* \"#utility.yul\":23146:23162   */\n      0x75736572206e6f7420666f756e64000000000000000000000000000000000000\n        /* \"#utility.yul\":23142:23143   */\n      0x00\n        /* \"#utility.yul\":23134:23140   */\n      dup3\n        /* \"#utility.yul\":23130:23144   */\n      add\n        /* \"#utility.yul\":23123:23163   */\n      mstore\n        /* \"#utility.yul\":23006:23170   */\n      pop\n      jump\t// out\n        /* \"#utility.yul\":23176:23542   */\n    tag_216:\n        /* \"#utility.yul\":23318:23321   */\n      0x00\n        /* \"#utility.yul\":23339:23406   */\n      tag_446\n        /* \"#utility.yul\":23403:23405   */\n      0x0e\n        /* \"#utility.yul\":23398:23401   */\n      dup4\n        /* \"#utility.yul\":23339:23406   */\n      tag_154\n      jump\t// in\n    tag_446:\n        /* \"#utility.yul\":23332:23406   */\n      swap2\n      pop\n        /* \"#utility.yul\":23415:23508   */\n      tag_447\n        /* \"#utility.yul\":23504:23507   */\n      dup3\n        /* \"#utility.yul\":23415:23508   */\n      tag_215\n      jump\t// in\n    tag_447:\n        /* \"#utility.yul\":23533:23535   */\n      0x20\n        /* \"#utility.yul\":23528:23531   */\n      dup3\n        /* \"#utility.yul\":23524:23536   */\n      add\n        /* \"#utility.yul\":23517:23536   */\n      swap1\n      pop\n        /* \"#utility.yul\":23176:23542   */\n      swap2\n      swap1\n      pop\n      jump\t// out\n        /* \"#utility.yul\":23548:23967   */\n    tag_131:\n        /* \"#utility.yul\":23714:23718   */\n      0x00\n        /* \"#utility.yul\":23752:23754   */\n      0x20\n        /* \"#utility.yul\":23741:23750   */\n      dup3\n        /* \"#utility.yul\":23737:23755   */\n      add\n        /* \"#utility.yul\":23729:23755   */\n      swap1\n      pop\n        /* \"#utility.yul\":23801:23810   */\n      dup2\n        /* \"#utility.yul\":23795:23799   */\n      dup2\n        /* \"#utility.yul\":23791:23811   */\n      sub\n        /* \"#utility.yul\":23787:23788   */\n      0x00\n        /* \"#utility.yul\":23776:23785   */\n      dup4\n        /* \"#utility.yul\":23772:23789   */\n      add\n        /* \"#utility.yul\":23765:23812   */\n      mstore\n        /* \"#utility.yul\":23829:23960   */\n      tag_449\n        /* \"#utility.yul\":23955:23959   */\n      dup2\n        /* \"#utility.yul\":23829:23960   */\n      tag_216\n      jump\t// in\n    tag_449:\n        /* \"#utility.yul\":23821:23960   */\n      swap1\n      pop\n        /* \"#utility.yul\":23548:23967   */\n      swap2\n      swap1\n      pop\n      jump\t// out\n        /* \"#utility.yul\":23973:24114   */\n    tag_217:\n        /* \"#utility.yul\":24022:24026   */\n      0x00\n        /* \"#utility.yul\":24045:24048   */\n      dup2\n        /* \"#utility.yul\":24037:24048   */\n      swap1\n      pop\n        /* \"#utility.yul\":24068:24071   */\n      dup2\n        /* \"#utility.yul\":24065:24066   */\n      0x00\n        /* \"#utility.yul\":24058:24072   */\n      mstore\n        /* \"#utility.yul\":24102:24106   */\n      0x20\n        /* \"#utility.yul\":24099:24100   */\n      0x00\n        /* \"#utility.yul\":24089:24107   */\n      keccak256\n        /* \"#utility.yul\":24081:24107   */\n      swap1\n      pop\n        /* \"#utility.yul\":23973:24114   */\n      swap2\n      swap1\n      pop\n      jump\t// out\n        /* \"#utility.yul\":24120:24213   */\n    tag_218:\n        /* \"#utility.yul\":24157:24163   */\n      0x00\n        /* \"#utility.yul\":24204:24206   */\n      0x20\n        /* \"#utility.yul\":24199:24201   */\n      0x1f\n        /* \"#utility.yul\":24192:24197   */\n      dup4\n        /* \"#utility.yul\":24188:24202   */\n      add\n        /* \"#utility.yul\":24184:24207   */\n      div\n        /* \"#utility.yul\":24174:24207   */\n      swap1\n      pop\n        /* \"#utility.yul\":24120:24213   */\n      swap2\n      swap1\n      pop\n      jump\t// out\n        /* \"#utility.yul\":24219:24326   */\n    tag_219:\n        /* \"#utility.yul\":24263:24271   */\n      0x00\n        /* \"#utility.yul\":24313:24318   */\n      dup3\n        /* \"#utility.yul\":24307:24311   */\n      dup3\n        /* \"#utility.yul\":24303:24319   */\n      shl\n        /* \"#utility.yul\":24282:24319   */\n      swap1\n      pop\n        /* \"#utility.yul\":24219:24326   */\n      swap3\n      swap2\n      pop\n      pop\n      jump\t// out\n        /* \"#utility.yul\":24332:24725   */\n    tag_220:\n        /* \"#utility.yul\":24401:24407   */\n      0x00\n        /* \"#utility.yul\":24451:24452   */\n      0x08\n        /* \"#utility.yul\":24439:24449   */\n      dup4\n        /* \"#utility.yul\":24435:24453   */\n      mul\n        /* \"#utility.yul\":24474:24571   */\n      tag_454\n        /* \"#utility.yul\":24504:24570   */\n      0xffffffffffffffffffffffffffffffffffffffffffffffffffffffffffffffff\n        /* \"#utility.yul\":24493:24502   */\n      dup3\n        /* \"#utility.yul\":24474:24571   */\n      tag_219\n      jump\t// in\n    tag_454:\n        /* \"#utility.yul\":24592:24631   */\n      tag_455\n        /* \"#utility.yul\":24622:24630   */\n      dup7\n        /* \"#utility.yul\":24611:24620   */\n      dup4\n        /* \"#utility.yul\":24592:24631   */\n      tag_219\n      jump\t// in\n    tag_455:\n        /* \"#utility.yul\":24580:24631   */\n      swap6\n      pop\n        /* \"#utility.yul\":24664:24668   */\n      dup1\n        /* \"#utility.yul\":24660:24669   */\n      not\n        /* \"#utility.yul\":24653:24658   */\n      dup5\n        /* \"#utility.yul\":24649:24670   */\n      and\n        /* \"#utility.yul\":24640:24670   */\n      swap4\n      pop\n        /* \"#utility.yul\":24713:24717   */\n      dup1\n        /* \"#utility.yul\":24703:24711   */\n      dup7\n        /* \"#utility.yul\":24699:24718   */\n      and\n        /* \"#utility.yul\":24692:24697   */\n      dup5\n        /* \"#utility.yul\":24689:24719   */\n      or\n        /* \"#utility.yul\":24679:24719   */\n      swap3\n      pop\n        /* \"#utility.yul\":24408:24725   */\n      pop\n      pop\n        /* \"#utility.yul\":24332:24725   */\n      swap4\n      swap3\n      pop\n      pop\n      pop\n      jump\t// out\n        /* \"#utility.yul\":24731:24791   */\n    tag_221:\n        /* \"#utility.yul\":24759:24762   */\n      0x00\n        /* \"#utility.yul\":24780:24785   */\n      dup2\n        /* \"#utility.yul\":24773:24785   */\n      swap1\n      pop\n        /* \"#utility.yul\":24731:24791   */\n      swap2\n      swap1\n      pop\n      jump\t// out\n        /* \"#utility.yul\":24797:24939   */\n    tag_222:\n        /* \"#utility.yul\":24847:24856   */\n      0x00\n        /* \"#utility.yul\":24880:24933   */\n      tag_458\n        /* \"#utility.yul\":24898:24932   */\n      tag_459\n        /* \"#utility.yul\":24907:24931   */\n      tag_460\n        /* \"#utility.yul\":24925:24930   */\n      dup5\n        /* \"#utility.yul\":24907:24931   */\n      tag_160\n      jump\t// in\n    tag_460:\n        /* \"#utility.yul\":24898:24932   */\n      tag_221\n      jump\t// in\n    tag_459:\n        /* \"#utility.yul\":24880:24933   */\n      tag_160\n      jump\t// in\n    tag_458:\n        /* \"#utility.yul\":24867:24933   */\n      swap1\n      pop\n        /* \"#utility.yul\":24797:24939   */\n      swap2\n      swap1\n      pop\n      jump\t// out\n        /* \"#utility.yul\":24945:25020   */\n    tag_223:\n        /* \"#utility.yul\":24988:24991   */\n      0x00\n        /* \"#utility.yul\":25009:25014   */\n      dup2\n        /* \"#utility.yul\":25002:25014   */\n      swap1\n      pop\n        /* \"#utility.yul\":24945:25020   */\n      swap2\n      swap1\n      pop\n      jump\t// out\n        /* \"#utility.yul\":25026:25295   */\n    tag_224:\n        /* \"#utility.yul\":25136:25175   */\n      tag_463\n        /* \"#utility.yul\":25167:25174   */\n      dup4\n        /* \"#utility.yul\":25136:25175   */\n      tag_222\n      jump\t// in\n    tag_463:\n        /* \"#utility.yul\":25197:25288   */\n      tag_464\n        /* \"#utility.yul\":25246:25287   */\n      tag_465\n        /* \"#utility.yul\":25270:25286   */\n      dup3\n        /* \"#utility.yul\":25246:25287   */\n      tag_223\n      jump\t// in\n    tag_465:\n        /* \"#utility.yul\":25238:25244   */\n      dup5\n        /* \"#utility.yul\":25231:25235   */\n      dup5\n        /* \"#utility.yul\":25225:25236   */\n      sload\n        /* \"#utility.yul\":25197:25288   */\n      tag_220\n      jump\t// in\n    tag_464:\n        /* \"#utility.yul\":25191:25195   */\n      dup3\n        /* \"#utility.yul\":25184:25289   */\n      sstore\n        /* \"#utility.yul\":25102:25295   */\n      pop\n        /* \"#utility.yul\":25026:25295   */\n      pop\n      pop\n      pop\n      jump\t// out\n        /* \"#utility.yul\":25301:25374   */\n    tag_225:\n        /* \"#utility.yul\":25346:25349   */\n      0x00\n        /* \"#utility.yul\":25301:25374   */\n      swap1\n      jump\t// out\n        /* \"#utility.yul\":25380:25569   */\n    tag_226:\n        /* \"#utility.yul\":25457:25489   */\n      tag_468\n      tag_225\n      jump\t// in\n    tag_468:\n        /* \"#utility.yul\":25498:25563   */\n      tag_469\n        /* \"#utility.yul\":25556:25562   */\n      dup2\n        /* \"#utility.yul\":25548:25554   */\n      dup5\n        /* \"#utility.yul\":25542:25546   */\n      dup5\n        /* \"#utility.yul\":25498:25563   */\n      tag_224\n      jump\t// in\n    tag_469:\n        /* \"#utility.yul\":25433:25569   */\n      pop\n        /* \"#utility.yul\":25380:25569   */\n      pop\n      pop\n      jump\t// out\n        /* \"#utility.yul\":25575:25761   */\n    tag_227:\n        /* \"#utility.yul\":25635:25755   */\n    tag_471:\n        /* \"#utility.yul\":25652:25655   */\n      dup2\n        /* \"#utility.yul\":25645:25650   */\n      dup2\n        /* \"#utility.yul\":25642:25656   */\n      lt\n        /* \"#utility.yul\":25635:25755   */\n      iszero\n      tag_473\n      jumpi\n        /* \"#utility.yul\":25706:25745   */\n      tag_474\n        /* \"#utility.yul\":25743:25744   */\n      0x00\n        /* \"#utility.yul\":25736:25741   */\n      dup3\n        /* \"#utility.yul\":25706:25745   */\n      tag_226\n      jump\t// in\n    tag_474:\n        /* \"#utility.yul\":25679:25680   */\n      0x01\n        /* \"#utility.yul\":25672:25677   */\n      dup2\n        /* \"#utility.yul\":25668:25681   */\n      add\n        /* \"#utility.yul\":25659:25681   */\n      swap1\n      pop\n        /* \"#utility.yul\":25635:25755   */\n      jump(tag_471)\n    tag_473:\n        /* \"#utility.yul\":25575:25761   */\n      pop\n      pop\n      jump\t// out\n        /* \"#utility.yul\":25767:26310   */\n    tag_228:\n        /* \"#utility.yul\":25868:25870   */\n      0x1f\n        /* \"#utility.yul\":25863:25866   */\n      dup3\n        /* \"#utility.yul\":25860:25871   */\n      gt\n        /* \"#utility.yul\":25857:26303   */\n      iszero\n      tag_476\n      jumpi\n        /* \"#utility.yul\":25902:25940   */\n      tag_477\n        /* \"#utility.yul\":25934:25939   */\n      dup2\n        /* \"#utility.yul\":25902:25940   */\n      tag_217\n      jump\t// in\n    tag_477:\n        /* \"#utility.yul\":25986:26015   */\n      tag_478\n        /* \"#utility.yul\":26004:26014   */\n      dup5\n        /* \"#utility.yul\":25986:26015   */\n      tag_218\n      jump\t// in\n    tag_478:\n        /* \"#utility.yul\":25976:25984   */\n      dup2\n        /* \"#utility.yul\":25972:26016   */\n      add\n        /* \"#utility.yul\":26169:26171   */\n      0x20\n        /* \"#utility.yul\":26157:26167   */\n      dup6\n        /* \"#utility.yul\":26154:26172   */\n      lt\n        /* \"#utility.yul\":26151:26200   */\n      iszero\n      tag_479\n      jumpi\n        /* \"#utility.yul\":26190:26198   */\n      dup2\n        /* \"#utility.yul\":26175:26198   */\n      swap1\n      pop\n        /* \"#utility.yul\":26151:26200   */\n    tag_479:\n        /* \"#utility.yul\":26213:26293   */\n      tag_480\n        /* \"#utility.yul\":26269:26291   */\n      tag_481\n        /* \"#utility.yul\":26287:26290   */\n      dup6\n        /* \"#utility.yul\":26269:26291   */\n      tag_218\n      jump\t// in\n    tag_481:\n        /* \"#utility.yul\":26259:26267   */\n      dup4\n        /* \"#utility.yul\":26255:26292   */\n      add\n        /* \"#utility.yul\":26242:26253   */\n      dup3\n        /* \"#utility.yul\":26213:26293   */\n      tag_227\n      jump\t// in\n    tag_480:\n        /* \"#utility.yul\":25872:26303   */\n      pop\n      pop\n        /* \"#utility.yul\":25857:26303   */\n    tag_476:\n        /* \"#utility.yul\":25767:26310   */\n      pop\n      pop\n      pop\n      jump\t// out\n        /* \"#utility.yul\":26316:26433   */\n    tag_229:\n        /* \"#utility.yul\":26370:26378   */\n      0x00\n        /* \"#utility.yul\":26420:26425   */\n      dup3\n        /* \"#utility.yul\":26414:26418   */\n      dup3\n        /* \"#utility.yul\":26410:26426   */\n      shr\n        /* \"#utility.yul\":26389:26426   */\n      swap1\n      pop\n        /* \"#utility.yul\":26316:26433   */\n      swap3\n      swap2\n      pop\n      pop\n      jump\t// out\n        /* \"#utility.yul\":26439:26608   */\n    tag_230:\n        /* \"#utility.yul\":26483:26489   */\n      0x00\n        /* \"#utility.yul\":26516:26567   */\n      tag_484\n        /* \"#utility.yul\":26564:26565   */\n      0x00\n        /* \"#utility.yul\":26560:26566   */\n      not\n        /* \"#utility.yul\":26552:26557   */\n      dup5\n        /* \"#utility.yul\":26549:26550   */\n      0x08\n        /* \"#utility.yul\":26545:26558   */\n      mul\n        /* \"#utility.yul\":26516:26567   */\n      tag_229\n      jump\t// in\n    tag_484:\n        /* \"#utility.yul\":26512:26568   */\n      not\n        /* \"#utility.yul\":26597:26601   */\n      dup1\n        /* \"#utility.yul\":26591:26595   */\n      dup4\n        /* \"#utility.yul\":26587:26602   */\n      and\n        /* \"#utility.yul\":26577:26602   */\n      swap2\n      pop\n        /* \"#utility.yul\":26490:26608   */\n      pop\n        /* \"#utility.yul\":26439:26608   */\n      swap3\n      swap2\n      pop\n      pop\n      jump\t// out\n        /* \"#utility.yul\":26613:26908   */\n    tag_231:\n        /* \"#utility.yul\":26689:26693   */\n      0x00\n        /* \"#utility.yul\":26835:26864   */\n      tag_486\n        /* \"#utility.yul\":26860:26863   */\n      dup4\n        /* \"#utility.yul\":26854:26858   */\n      dup4\n        /* \"#utility.yul\":26835:26864   */\n      tag_230\n      jump\t// in\n    tag_486:\n        /* \"#utility.yul\":26827:26864   */\n      swap2\n      pop\n        /* \"#utility.yul\":26897:26900   */\n      dup3\n        /* \"#utility.yul\":26894:26895   */\n      0x02\n        /* \"#utility.yul\":26890:26901   */\n      mul\n        /* \"#utility.yul\":26884:26888   */\n      dup3\n        /* \"#utility.yul\":26881:26902   */\n      or\n        /* \"#utility.yul\":26873:26902   */\n      swap1\n      pop\n        /* \"#utility.yul\":26613:26908   */\n      swap3\n      swap2\n      pop\n      pop\n      jump\t// out\n        /* \"#utility.yul\":26913:28308   */\n    tag_148:\n        /* \"#utility.yul\":27030:27067   */\n      tag_488\n        /* \"#utility.yul\":27063:27066   */\n      dup3\n        /* \"#utility.yul\":27030:27067   */\n      tag_164\n      jump\t// in\n    tag_488:\n        /* \"#utility.yul\":27132:27150   */\n      0xffffffffffffffff\n        /* \"#utility.yul\":27124:27130   */\n      dup2\n        /* \"#utility.yul\":27121:27151   */\n      gt\n        /* \"#utility.yul\":27118:27174   */\n      iszero\n      tag_489\n      jumpi\n        /* \"#utility.yul\":27154:27172   */\n      tag_490\n      tag_182\n      jump\t// in\n    tag_490:\n        /* \"#utility.yul\":27118:27174   */\n    tag_489:\n        /* \"#utility.yul\":27198:27236   */\n      tag_491\n        /* \"#utility.yul\":27230:27234   */\n      dup3\n        /* \"#utility.yul\":27224:27235   */\n      sload\n        /* \"#utility.yul\":27198:27236   */\n      tag_58\n      jump\t// in\n    tag_491:\n        /* \"#utility.yul\":27283:27350   */\n      tag_492\n        /* \"#utility.yul\":27343:27349   */\n      dup3\n        /* \"#utility.yul\":27335:27341   */\n      dup3\n        /* \"#utility.yul\":27329:27333   */\n      dup6\n        /* \"#utility.yul\":27283:27350   */\n      tag_228\n      jump\t// in\n    tag_492:\n        /* \"#utility.yul\":27377:27378   */\n      0x00\n        /* \"#utility.yul\":27401:27405   */\n      0x20\n        /* \"#utility.yul\":27388:27405   */\n      swap1\n      pop\n        /* \"#utility.yul\":27433:27435   */\n      0x1f\n        /* \"#utility.yul\":27425:27431   */\n      dup4\n        /* \"#utility.yul\":27422:27436   */\n      gt\n        /* \"#utility.yul\":27450:27451   */\n      0x01\n        /* \"#utility.yul\":27445:28063   */\n      dup2\n      eq\n      tag_494\n      jumpi\n        /* \"#utility.yul\":28107:28108   */\n      0x00\n        /* \"#utility.yul\":28124:28130   */\n      dup5\n        /* \"#utility.yul\":28121:28198   */\n      iszero\n      tag_495\n      jumpi\n        /* \"#utility.yul\":28173:28182   */\n      dup3\n        /* \"#utility.yul\":28168:28171   */\n      dup8\n        /* \"#utility.yul\":28164:28183   */\n      add\n        /* \"#utility.yul\":28158:28184   */\n      mload\n        /* \"#utility.yul\":28149:28184   */\n      swap1\n      pop\n        /* \"#utility.yul\":28121:28198   */\n    tag_495:\n        /* \"#utility.yul\":28224:28291   */\n      tag_496\n        /* \"#utility.yul\":28284:28290   */\n      dup6\n        /* \"#utility.yul\":28277:28282   */\n      dup3\n        /* \"#utility.yul\":28224:28291   */\n      tag_231\n      jump\t// in\n    tag_496:\n        /* \"#utility.yul\":28218:28222   */\n      dup7\n        /* \"#utility.yul\":28211:28292   */\n      sstore\n        /* \"#utility.yul\":28080:28302   */\n      pop\n        /* \"#utility.yul\":27415:28302   */\n      jump(tag_493)\n        /* \"#utility.yul\":27445:28063   */\n    tag_494:\n        /* \"#utility.yul\":27497:27501   */\n      0x1f\n        /* \"#utility.yul\":27493:27502   */\n      not\n        /* \"#utility.yul\":27485:27491   */\n      dup5\n        /* \"#utility.yul\":27481:27503   */\n      and\n        /* \"#utility.yul\":27531:27568   */\n      tag_497\n        /* \"#utility.yul\":27563:27567   */\n      dup7\n        /* \"#utility.yul\":27531:27568   */\n      tag_217\n      jump\t// in\n    tag_497:\n        /* \"#utility.yul\":27590:27591   */\n      0x00\n        /* \"#utility.yul\":27604:27812   */\n    tag_498:\n        /* \"#utility.yul\":27618:27625   */\n      dup3\n        /* \"#utility.yul\":27615:27616   */\n      dup2\n        /* \"#utility.yul\":27612:27626   */\n      lt\n        /* \"#utility.yul\":27604:27812   */\n      iszero\n      tag_500\n      jumpi\n        /* \"#utility.yul\":27697:27706   */\n      dup5\n        /* \"#utility.yul\":27692:27695   */\n      dup10\n        /* \"#utility.yul\":27688:27707   */\n      add\n        /* \"#utility.yul\":27682:27708   */\n      mload\n        /* \"#utility.yul\":27674:27680   */\n      dup3\n        /* \"#utility.yul\":27667:27709   */\n      sstore\n        /* \"#utility.yul\":27748:27749   */\n      0x01\n        /* \"#utility.yul\":27740:27746   */\n      dup3\n        /* \"#utility.yul\":27736:27750   */\n      add\n        /* \"#utility.yul\":27726:27750   */\n      swap2\n      pop\n        /* \"#utility.yul\":27795:27797   */\n      0x20\n        /* \"#utility.yul\":27784:27793   */\n      dup6\n        /* \"#utility.yul\":27780:27798   */\n      add\n        /* \"#utility.yul\":27767:27798   */\n      swap5\n      pop\n        /* \"#utility.yul\":27641:27645   */\n      0x20\n        /* \"#utility.yul\":27638:27639   */\n      dup2\n        /* \"#utility.yul\":27634:27646   */\n      add\n        /* \"#utility.yul\":27629:27646   */\n      swap1\n      pop\n        /* \"#utility.yul\":27604:27812   */\n      jump(tag_498)\n    tag_500:\n        /* \"#utility.yul\":27840:27846   */\n      dup7\n        /* \"#utility.yul\":27831:27838   */\n      dup4\n        /* \"#utility.yul\":27828:27847   */\n      lt\n        /* \"#utility.yul\":27825:28004   */\n      iszero\n      tag_501\n      jumpi\n        /* \"#utility.yul\":27898:27907   */\n      dup5\n        /* \"#utility.yul\":27893:27896   */\n      dup10\n        /* \"#utility.yul\":27889:27908   */\n      add\n        /* \"#utility.yul\":27883:27909   */\n      mload\n        /* \"#utility.yul\":27941:27989   */\n      tag_502\n        /* \"#utility.yul\":27983:27987   */\n      0x1f\n        /* \"#utility.yul\":27975:27981   */\n      dup10\n        /* \"#utility.yul\":27971:27988   */\n      and\n        /* \"#utility.yul\":27960:27969   */\n      dup3\n        /* \"#utility.yul\":27941:27989   */\n      tag_230\n      jump\t// in\n    tag_502:\n        /* \"#utility.yul\":27933:27939   */\n      dup4\n        /* \"#utility.yul\":27926:27990   */\n      sstore\n        /* \"#utility.yul\":27848:28004   */\n      pop\n        /* \"#utility.yul\":27825:28004   */\n    tag_501:\n        /* \"#utility.yul\":28050:28051   */\n      0x01\n        /* \"#utility.yul\":28046:28047   */\n      0x02\n        /* \"#utility.yul\":28038:28044   */\n      dup9\n        /* \"#utility.yul\":28034:28048   */\n      mul\n        /* \"#utility.yul\":28030:28052   */\n      add\n        /* \"#utility.yul\":28024:28028   */\n      dup9\n        /* \"#utility.yul\":28017:28053   */\n      sstore\n        /* \"#utility.yul\":27452:28063   */\n      pop\n      pop\n      pop\n        /* \"#utility.yul\":27415:28302   */\n    tag_493:\n      pop\n        /* \"#utility.yul\":27005:28308   */\n      pop\n      pop\n      pop\n        /* \"#utility.yul\":26913:28308   */\n      pop\n      pop\n      jump\t// out\n\n    auxdata: 0xa2646970667358221220838dae965fe56e4bb9c39fa19e4b03d8e44a3075c93e06b9579fa793404d1c9864736f6c63430008170033\n}\n",
				"bytecode": {
					"linkReferences": {},
					"object": "60806040526078426200001391906200009e565b60015534801562000022575f80fd5b50335f806101000a81548173ffffffffffffffffffffffffffffffffffffffff021916908373ffffffffffffffffffffffffffffffffffffffff160217905550620000d8565b5f819050919050565b7f4e487b71000000000000000000000000000000000000000000000000000000005f52601160045260245ffd5b5f620000aa8262000068565b9150620000b78362000068565b9250828201905080821115620000d257620000d162000071565b5b92915050565b611b6680620000e65f395ff3fe60806040526004361061007e575f3560e01c8063379607f51161004d578063379607f514610174578063384f58eb1461019c578063e8709c40146101c6578063f1ca8bff146101f6576100ba565b806310445b2b146100be57806315411001146100fa578063278ecde1146101225780632ca126f81461014a576100ba565b366100ba577fbe025cd0737d1912c421eb1ace55f3a811fccb8c5a479c1d21f0882dc11c607f6040516100b090610d4e565b60405180910390a1005b5f80fd5b3480156100c9575f80fd5b506100e460048036038101906100df9190610db0565b61021e565b6040516100f19190610fb3565b60405180910390f35b348015610105575f80fd5b50610120600480360381019061011b919061115c565b61040b565b005b34801561012d575f80fd5b5061014860048036038101906101439190610db0565b610456565b005b348015610155575f80fd5b5061015e61059a565b60405161016b91906111f8565b60405180910390f35b34801561017f575f80fd5b5061019a60048036038101906101959190610db0565b6105a0565b005b3480156101a7575f80fd5b506101b0610753565b6040516101bd9190611220565b60405180910390f35b6101e060048036038101906101db9190610db0565b610776565b6040516101ed9190610fb3565b60405180910390f35b348015610201575f80fd5b5061021c60048036038101906102179190610db0565b610971565b005b610226610c9a565b60025f8381526020019081526020015f206040518060c00160405290815f820154815260200160018201805461025b90611266565b80601f016020809104026020016040519081016040528092919081815260200182805461028790611266565b80156102d25780601f106102a9576101008083540402835291602001916102d2565b820191905f5260205f20905b8154815290600101906020018083116102b557829003601f168201915b505050505081526020016002820180546102eb90611266565b80601f016020809104026020016040519081016040528092919081815260200182805461031790611266565b80156103625780601f1061033957610100808354040283529160200191610362565b820191905f5260205f20905b81548152906001019060200180831161034557829003601f168201915b50505050508152602001600382015f9054906101000a900473ffffffffffffffffffffffffffffffffffffffff1673ffffffffffffffffffffffffffffffffffffffff1673ffffffffffffffffffffffffffffffffffffffff16815260200160048201548152602001600582015f9054906101000a900460ff1660018111156103ee576103ed610eb3565b5b6001811115610400576103ff610eb3565b5b815250509050919050565b61041784848484610b35565b7fc25f73d8066f835a9a93ef7719cc9dfa37651997ad88ea41abe71c77f9209ce73385604051610448929190611296565b60405180910390a150505050565b600154421161049a576040517f08c379a00000000000000000000000000000000000000000000000000000000081526004016104919061132d565b60405180910390fd5b6801158e460913d0000060025f8381526020019081526020015f2060040154101561055c575f60025f8381526020019081526020015f206004015490503373ffffffffffffffffffffffffffffffffffffffff166108fc8290811502906040515f60405180830381858888f1935050505015801561051a573d5f803e3d5ffd5b507f6bcc8e13f2b9cabd8625faa0937688a01aab305f3a921ee1e5fbcff66144fa5733838360405161054e9392919061134b565b60405180910390a150610597565b6040517f08c379a000000000000000000000000000000000000000000000000000000000815260040161058e906113ca565b60405180910390fd5b50565b60015481565b6001544210156105e5576040517f08c379a00000000000000000000000000000000000000000000000000000000081526004016105dc90611458565b60405180910390fd5b6801158e460913d0000060025f8381526020019081526020015f206004015410610715575f60025f8381526020019081526020015f2060040154905060025f8381526020019081526020015f206003015f9054906101000a900473ffffffffffffffffffffffffffffffffffffffff1673ffffffffffffffffffffffffffffffffffffffff166108fc8290811502906040515f60405180830381858888f19350505050158015610697573d5f803e3d5ffd5b50600160025f8481526020019081526020015f206005015f6101000a81548160ff021916908360018111156106cf576106ce610eb3565b5b02179055507f9576942f6783612a1de73784d0a4a99e49ddbc7e59e8fc927cffc1ee5385d2363383836040516107079392919061134b565b60405180910390a150610750565b6040517f08c379a0000000000000000000000000000000000000000000000000000000008152600401610747906114c0565b60405180910390fd5b50565b5f8054906101000a900473ffffffffffffffffffffffffffffffffffffffff1681565b61077e610c9a565b6001544211156107c3576040517f08c379a00000000000000000000000000000000000000000000000000000000081526004016107ba9061154e565b60405180910390fd5b3460025f8481526020019081526020015f206004015f8282546107e69190611599565b925050819055505f6001811115610800576107ff610eb3565b5b60025f8481526020019081526020015f206005015f9054906101000a900460ff16600181111561083357610832610eb3565b5b14610873576040517f08c379a000000000000000000000000000000000000000000000000000000000815260040161086a90611616565b60405180910390fd5b7f8952ac1e80fc86d8ccb4c9bb2b1df4ba33b963fdc98de332d4d07a43ddddc4628233346040516108a693929190611634565b60405180910390a13073ffffffffffffffffffffffffffffffffffffffff166310445b2b836040518263ffffffff1660e01b81526004016108e791906111f8565b5f60405180830381865afa92505050801561092457506040513d5f823e3d601f19601f820116820180604052508101906109219190611815565b60015b610962577f24c93343bea44ff8f0e628ca4e5b87dfe0823d664c887457e166a03798bb191c604051610955906118a6565b60405180910390a161096b565b8091505061096c565b5b919050565b5f8054906101000a900473ffffffffffffffffffffffffffffffffffffffff1673ffffffffffffffffffffffffffffffffffffffff163373ffffffffffffffffffffffffffffffffffffffff16146109c7575f80fd5b6801158e460913d0000060025f8381526020019081526020015f206004015410610af7575f60025f8381526020019081526020015f2060040154905060025f8381526020019081526020015f206003015f9054906101000a900473ffffffffffffffffffffffffffffffffffffffff1673ffffffffffffffffffffffffffffffffffffffff166108fc8290811502906040515f60405180830381858888f19350505050158015610a79573d5f803e3d5ffd5b50600160025f8481526020019081526020015f206005015f6101000a81548160ff02191690836001811115610ab157610ab0610eb3565b5b02179055507f9576942f6783612a1de73784d0a4a99e49ddbc7e59e8fc927cffc1ee5385d236338383604051610ae99392919061134b565b60405180910390a150610b32565b6040517f08c379a0000000000000000000000000000000000000000000000000000000008152600401610b29906114c0565b60405180910390fd5b50565b6040518060c0016040528085815260200184848080601f0160208091040260200160405190810160405280939291908181526020018383808284375f81840152601f19601f8201169050808301925050505050505081526020018281526020013373ffffffffffffffffffffffffffffffffffffffff1681526020015f81526020015f6001811115610bca57610bc9610eb3565b5b81525060025f8681526020019081526020015f205f820151815f01556020820151816001019081610bfb9190611a61565b506040820151816002019081610c119190611a61565b506060820151816003015f6101000a81548173ffffffffffffffffffffffffffffffffffffffff021916908373ffffffffffffffffffffffffffffffffffffffff1602179055506080820151816004015560a0820151816005015f6101000a81548160ff02191690836001811115610c8c57610c8b610eb3565b5b021790555090505050505050565b6040518060c001604052805f815260200160608152602001606081526020015f73ffffffffffffffffffffffffffffffffffffffff1681526020015f81526020015f6001811115610cee57610ced610eb3565b5b81525090565b5f82825260208201905092915050565b7f616d6f756e74207265636569766564207375636365737366756c6c79000000005f82015250565b5f610d38601c83610cf4565b9150610d4382610d04565b602082019050919050565b5f6020820190508181035f830152610d6581610d2c565b9050919050565b5f604051905090565b5f80fd5b5f80fd5b5f819050919050565b610d8f81610d7d565b8114610d99575f80fd5b50565b5f81359050610daa81610d86565b92915050565b5f60208284031215610dc557610dc4610d75565b5b5f610dd284828501610d9c565b91505092915050565b610de481610d7d565b82525050565b5f81519050919050565b5f82825260208201905092915050565b5f5b83811015610e21578082015181840152602081019050610e06565b5f8484015250505050565b5f601f19601f8301169050919050565b5f610e4682610dea565b610e508185610df4565b9350610e60818560208601610e04565b610e6981610e2c565b840191505092915050565b5f73ffffffffffffffffffffffffffffffffffffffff82169050919050565b5f610e9d82610e74565b9050919050565b610ead81610e93565b82525050565b7f4e487b71000000000000000000000000000000000000000000000000000000005f52602160045260245ffd5b60028110610ef157610ef0610eb3565b5b50565b5f819050610f0182610ee0565b919050565b5f610f1082610ef4565b9050919050565b610f2081610f06565b82525050565b5f60c083015f830151610f3b5f860182610ddb565b5060208301518482036020860152610f538282610e3c565b91505060408301518482036040860152610f6d8282610e3c565b9150506060830151610f826060860182610ea4565b506080830151610f956080860182610ddb565b5060a0830151610fa860a0860182610f17565b508091505092915050565b5f6020820190508181035f830152610fcb8184610f26565b905092915050565b5f80fd5b5f80fd5b5f80fd5b5f8083601f840112610ff457610ff3610fd3565b5b8235905067ffffffffffffffff81111561101157611010610fd7565b5b60208301915083600182028301111561102d5761102c610fdb565b5b9250929050565b5f80fd5b7f4e487b71000000000000000000000000000000000000000000000000000000005f52604160045260245ffd5b61106e82610e2c565b810181811067ffffffffffffffff8211171561108d5761108c611038565b5b80604052505050565b5f61109f610d6c565b90506110ab8282611065565b919050565b5f67ffffffffffffffff8211156110ca576110c9611038565b5b6110d382610e2c565b9050602081019050919050565b828183375f83830152505050565b5f6111006110fb846110b0565b611096565b90508281526020810184848401111561111c5761111b611034565b5b6111278482856110e0565b509392505050565b5f82601f83011261114357611142610fd3565b5b81356111538482602086016110ee565b91505092915050565b5f805f806060858703121561117457611173610d75565b5b5f61118187828801610d9c565b945050602085013567ffffffffffffffff8111156111a2576111a1610d79565b5b6111ae87828801610fdf565b9350935050604085013567ffffffffffffffff8111156111d1576111d0610d79565b5b6111dd8782880161112f565b91505092959194509250565b6111f281610d7d565b82525050565b5f60208201905061120b5f8301846111e9565b92915050565b61121a81610e93565b82525050565b5f6020820190506112335f830184611211565b92915050565b7f4e487b71000000000000000000000000000000000000000000000000000000005f52602260045260245ffd5b5f600282049050600182168061127d57607f821691505b6020821081036112905761128f611239565b5b50919050565b5f6040820190506112a95f830185611211565b6112b660208301846111e9565b9392505050565b7f63616e277420726566756e642063757a20646561646c696e65206e6f74206d655f8201527f6574000000000000000000000000000000000000000000000000000000000000602082015250565b5f611317602283610cf4565b9150611322826112bd565b604082019050919050565b5f6020820190508181035f8301526113448161130b565b9050919050565b5f60608201905061135e5f830186611211565b61136b60208301856111e9565b61137860408301846111e9565b949350505050565b7f752063616e277420726566756e642000000000000000000000000000000000005f82015250565b5f6113b4600f83610cf4565b91506113bf82611380565b602082019050919050565b5f6020820190508181035f8301526113e1816113a8565b9050919050565b7f6e6f7420616c6c6f77656420636c61696d696e672063757a20616c6c6f7765645f8201527f2074696d652069732072656d61696e696e670000000000000000000000000000602082015250565b5f611442603283610cf4565b915061144d826113e8565b604082019050919050565b5f6020820190508181035f83015261146f81611436565b9050919050565b7f616d6f756e74206973206e6f7420657175616c20746f20676f616c00000000005f82015250565b5f6114aa601b83610cf4565b91506114b582611476565b602082019050919050565b5f6020820190508181035f8301526114d78161149e565b9050919050565b7f7472616e73616374696f6e20617265206e6f7420616c6c6f77656420696e20745f8201527f6869732074696d65000000000000000000000000000000000000000000000000602082015250565b5f611538602883610cf4565b9150611543826114de565b604082019050919050565b5f6020820190508181035f8301526115658161152c565b9050919050565b7f4e487b71000000000000000000000000000000000000000000000000000000005f52601160045260245ffd5b5f6115a382610d7d565b91506115ae83610d7d565b92508282019050808211156115c6576115c561156c565b5b92915050565b7f7374746165206973206e6f7420616372697665000000000000000000000000005f82015250565b5f611600601383610cf4565b915061160b826115cc565b602082019050919050565b5f6020820190508181035f83015261162d816115f4565b9050919050565b5f6060820190506116475f8301866111e9565b6116546020830185611211565b61166160408301846111e9565b949350505050565b5f80fd5b5f80fd5b5f8151905061167f81610d86565b92915050565b5f611697611692846110b0565b611096565b9050828152602081018484840111156116b3576116b2611034565b5b6116be848285610e04565b509392505050565b5f82601f8301126116da576116d9610fd3565b5b81516116ea848260208601611685565b91505092915050565b6116fc81610e93565b8114611706575f80fd5b50565b5f81519050611717816116f3565b92915050565b60028110611729575f80fd5b50565b5f8151905061173a8161171d565b92915050565b5f60c0828403121561175557611754611669565b5b61175f60c0611096565b90505f61176e84828501611671565b5f83015250602082015167ffffffffffffffff8111156117915761179061166d565b5b61179d848285016116c6565b602083015250604082015167ffffffffffffffff8111156117c1576117c061166d565b5b6117cd848285016116c6565b60408301525060606117e184828501611709565b60608301525060806117f584828501611671565b60808301525060a06118098482850161172c565b60a08301525092915050565b5f6020828403121561182a57611829610d75565b5b5f82015167ffffffffffffffff81111561184757611846610d79565b5b61185384828501611740565b91505092915050565b7f75736572206e6f7420666f756e640000000000000000000000000000000000005f82015250565b5f611890600e83610cf4565b915061189b8261185c565b602082019050919050565b5f6020820190508181035f8301526118bd81611884565b9050919050565b5f819050815f5260205f209050919050565b5f6020601f8301049050919050565b5f82821b905092915050565b5f600883026119207fffffffffffffffffffffffffffffffffffffffffffffffffffffffffffffffff826118e5565b61192a86836118e5565b95508019841693508086168417925050509392505050565b5f819050919050565b5f61196561196061195b84610d7d565b611942565b610d7d565b9050919050565b5f819050919050565b61197e8361194b565b61199261198a8261196c565b8484546118f1565b825550505050565b5f90565b6119a661199a565b6119b1818484611975565b505050565b5b818110156119d4576119c95f8261199e565b6001810190506119b7565b5050565b601f821115611a19576119ea816118c4565b6119f3846118d6565b81016020851015611a02578190505b611a16611a0e856118d6565b8301826119b6565b50505b505050565b5f82821c905092915050565b5f611a395f1984600802611a1e565b1980831691505092915050565b5f611a518383611a2a565b9150826002028217905092915050565b611a6a82610dea565b67ffffffffffffffff811115611a8357611a82611038565b5b611a8d8254611266565b611a988282856119d8565b5f60209050601f831160018114611ac9575f8415611ab7578287015190505b611ac18582611a46565b865550611b28565b601f198416611ad7866118c4565b5f5b82811015611afe57848901518255600182019150602085019450602081019050611ad9565b86831015611b1b5784890151611b17601f891682611a2a565b8355505b6001600288020188555050505b50505050505056fea2646970667358221220838dae965fe56e4bb9c39fa19e4b03d8e44a3075c93e06b9579fa793404d1c9864736f6c63430008170033",
					"opcodes": "PUSH1 0x80 PUSH1 0x40 MSTORE PUSH1 0x78 TIMESTAMP PUSH3 0x13 SWAP2 SWAP1 PUSH3 0x9E JUMP JUMPDEST PUSH1 0x1 SSTORE CALLVALUE DUP1 ISZERO PUSH3 0x22 JUMPI PUSH0 DUP1 REVERT JUMPDEST POP CALLER PUSH0 DUP1 PUSH2 0x100 EXP DUP2 SLOAD DUP2 PUSH20 0xFFFFFFFFFFFFFFFFFFFFFFFFFFFFFFFFFFFFFFFF MUL NOT AND SWAP1 DUP4 PUSH20 0xFFFFFFFFFFFFFFFFFFFFFFFFFFFFFFFFFFFFFFFF AND MUL OR SWAP1 SSTORE POP PUSH3 0xD8 JUMP JUMPDEST PUSH0 DUP2 SWAP1 POP SWAP2 SWAP1 POP JUMP JUMPDEST PUSH32 0x4E487B7100000000000000000000000000000000000000000000000000000000 PUSH0 MSTORE PUSH1 0x11 PUSH1 0x4 MSTORE PUSH1 0x24 PUSH0 REVERT JUMPDEST PUSH0 PUSH3 0xAA DUP3 PUSH3 0x68 JUMP JUMPDEST SWAP2 POP PUSH3 0xB7 DUP4 PUSH3 0x68 JUMP JUMPDEST SWAP3 POP DUP3 DUP3 ADD SWAP1 POP DUP1 DUP3 GT ISZERO PUSH3 0xD2 JUMPI PUSH3 0xD1 PUSH3 0x71 JUMP JUMPDEST JUMPDEST SWAP3 SWAP2 POP POP JUMP JUMPDEST PUSH2 0x1B66 DUP1 PUSH3 0xE6 PUSH0 CODECOPY PUSH0 RETURN INVALID PUSH1 0x80 PUSH1 0x40 MSTORE PUSH1 0x4 CALLDATASIZE LT PUSH2 0x7E JUMPI PUSH0 CALLDATALOAD PUSH1 0xE0 SHR DUP1 PUSH4 0x379607F5 GT PUSH2 0x4D JUMPI DUP1 PUSH4 0x379607F5 EQ PUSH2 0x174 JUMPI DUP1 PUSH4 0x384F58EB EQ PUSH2 0x19C JUMPI DUP1 PUSH4 0xE8709C40 EQ PUSH2 0x1C6 JUMPI DUP1 PUSH4 0xF1CA8BFF EQ PUSH2 0x1F6 JUMPI PUSH2 0xBA JUMP JUMPDEST DUP1 PUSH4 0x10445B2B EQ PUSH2 0xBE JUMPI DUP1 PUSH4 0x15411001 EQ PUSH2 0xFA JUMPI DUP1 PUSH4 0x278ECDE1 EQ PUSH2 0x122 JUMPI DUP1 PUSH4 0x2CA126F8 EQ PUSH2 0x14A JUMPI PUSH2 0xBA JUMP JUMPDEST CALLDATASIZE PUSH2 0xBA JUMPI PUSH32 0xBE025CD0737D1912C421EB1ACE55F3A811FCCB8C5A479C1D21F0882DC11C607F PUSH1 0x40 MLOAD PUSH2 0xB0 SWAP1 PUSH2 0xD4E JUMP JUMPDEST PUSH1 0x40 MLOAD DUP1 SWAP2 SUB SWAP1 LOG1 STOP JUMPDEST PUSH0 DUP1 REVERT JUMPDEST CALLVALUE DUP1 ISZERO PUSH2 0xC9 JUMPI PUSH0 DUP1 REVERT JUMPDEST POP PUSH2 0xE4 PUSH1 0x4 DUP1 CALLDATASIZE SUB DUP2 ADD SWAP1 PUSH2 0xDF SWAP2 SWAP1 PUSH2 0xDB0 JUMP JUMPDEST PUSH2 0x21E JUMP JUMPDEST PUSH1 0x40 MLOAD PUSH2 0xF1 SWAP2 SWAP1 PUSH2 0xFB3 JUMP JUMPDEST PUSH1 0x40 MLOAD DUP1 SWAP2 SUB SWAP1 RETURN JUMPDEST CALLVALUE DUP1 ISZERO PUSH2 0x105 JUMPI PUSH0 DUP1 REVERT JUMPDEST POP PUSH2 0x120 PUSH1 0x4 DUP1 CALLDATASIZE SUB DUP2 ADD SWAP1 PUSH2 0x11B SWAP2 SWAP1 PUSH2 0x115C JUMP JUMPDEST PUSH2 0x40B JUMP JUMPDEST STOP JUMPDEST CALLVALUE DUP1 ISZERO PUSH2 0x12D JUMPI PUSH0 DUP1 REVERT JUMPDEST POP PUSH2 0x148 PUSH1 0x4 DUP1 CALLDATASIZE SUB DUP2 ADD SWAP1 PUSH2 0x143 SWAP2 SWAP1 PUSH2 0xDB0 JUMP JUMPDEST PUSH2 0x456 JUMP JUMPDEST STOP JUMPDEST CALLVALUE DUP1 ISZERO PUSH2 0x155 JUMPI PUSH0 DUP1 REVERT JUMPDEST POP PUSH2 0x15E PUSH2 0x59A JUMP JUMPDEST PUSH1 0x40 MLOAD PUSH2 0x16B SWAP2 SWAP1 PUSH2 0x11F8 JUMP JUMPDEST PUSH1 0x40 MLOAD DUP1 SWAP2 SUB SWAP1 RETURN JUMPDEST CALLVALUE DUP1 ISZERO PUSH2 0x17F JUMPI PUSH0 DUP1 REVERT JUMPDEST POP PUSH2 0x19A PUSH1 0x4 DUP1 CALLDATASIZE SUB DUP2 ADD SWAP1 PUSH2 0x195 SWAP2 SWAP1 PUSH2 0xDB0 JUMP JUMPDEST PUSH2 0x5A0 JUMP JUMPDEST STOP JUMPDEST CALLVALUE DUP1 ISZERO PUSH2 0x1A7 JUMPI PUSH0 DUP1 REVERT JUMPDEST POP PUSH2 0x1B0 PUSH2 0x753 JUMP JUMPDEST PUSH1 0x40 MLOAD PUSH2 0x1BD SWAP2 SWAP1 PUSH2 0x1220 JUMP JUMPDEST PUSH1 0x40 MLOAD DUP1 SWAP2 SUB SWAP1 RETURN JUMPDEST PUSH2 0x1E0 PUSH1 0x4 DUP1 CALLDATASIZE SUB DUP2 ADD SWAP1 PUSH2 0x1DB SWAP2 SWAP1 PUSH2 0xDB0 JUMP JUMPDEST PUSH2 0x776 JUMP JUMPDEST PUSH1 0x40 MLOAD PUSH2 0x1ED SWAP2 SWAP1 PUSH2 0xFB3 JUMP JUMPDEST PUSH1 0x40 MLOAD DUP1 SWAP2 SUB SWAP1 RETURN JUMPDEST CALLVALUE DUP1 ISZERO PUSH2 0x201 JUMPI PUSH0 DUP1 REVERT JUMPDEST POP PUSH2 0x21C PUSH1 0x4 DUP1 CALLDATASIZE SUB DUP2 ADD SWAP1 PUSH2 0x217 SWAP2 SWAP1 PUSH2 0xDB0 JUMP JUMPDEST PUSH2 0x971 JUMP JUMPDEST STOP JUMPDEST PUSH2 0x226 PUSH2 0xC9A JUMP JUMPDEST PUSH1 0x2 PUSH0 DUP4 DUP2 MSTORE PUSH1 0x20 ADD SWAP1 DUP2 MSTORE PUSH1 0x20 ADD PUSH0 KECCAK256 PUSH1 0x40 MLOAD DUP1 PUSH1 0xC0 ADD PUSH1 0x40 MSTORE SWAP1 DUP2 PUSH0 DUP3 ADD SLOAD DUP2 MSTORE PUSH1 0x20 ADD PUSH1 0x1 DUP3 ADD DUP1 SLOAD PUSH2 0x25B SWAP1 PUSH2 0x1266 JUMP JUMPDEST DUP1 PUSH1 0x1F ADD PUSH1 0x20 DUP1 SWAP2 DIV MUL PUSH1 0x20 ADD PUSH1 0x40 MLOAD SWAP1 DUP2 ADD PUSH1 0x40 MSTORE DUP1 SWAP3 SWAP2 SWAP1 DUP2 DUP2 MSTORE PUSH1 0x20 ADD DUP3 DUP1 SLOAD PUSH2 0x287 SWAP1 PUSH2 0x1266 JUMP JUMPDEST DUP1 ISZERO PUSH2 0x2D2 JUMPI DUP1 PUSH1 0x1F LT PUSH2 0x2A9 JUMPI PUSH2 0x100 DUP1 DUP4 SLOAD DIV MUL DUP4 MSTORE SWAP2 PUSH1 0x20 ADD SWAP2 PUSH2 0x2D2 JUMP JUMPDEST DUP3 ADD SWAP2 SWAP1 PUSH0 MSTORE PUSH1 0x20 PUSH0 KECCAK256 SWAP1 JUMPDEST DUP2 SLOAD DUP2 MSTORE SWAP1 PUSH1 0x1 ADD SWAP1 PUSH1 0x20 ADD DUP1 DUP4 GT PUSH2 0x2B5 JUMPI DUP3 SWAP1 SUB PUSH1 0x1F AND DUP3 ADD SWAP2 JUMPDEST POP POP POP POP POP DUP2 MSTORE PUSH1 0x20 ADD PUSH1 0x2 DUP3 ADD DUP1 SLOAD PUSH2 0x2EB SWAP1 PUSH2 0x1266 JUMP JUMPDEST DUP1 PUSH1 0x1F ADD PUSH1 0x20 DUP1 SWAP2 DIV MUL PUSH1 0x20 ADD PUSH1 0x40 MLOAD SWAP1 DUP2 ADD PUSH1 0x40 MSTORE DUP1 SWAP3 SWAP2 SWAP1 DUP2 DUP2 MSTORE PUSH1 0x20 ADD DUP3 DUP1 SLOAD PUSH2 0x317 SWAP1 PUSH2 0x1266 JUMP JUMPDEST DUP1 ISZERO PUSH2 0x362 JUMPI DUP1 PUSH1 0x1F LT PUSH2 0x339 JUMPI PUSH2 0x100 DUP1 DUP4 SLOAD DIV MUL DUP4 MSTORE SWAP2 PUSH1 0x20 ADD SWAP2 PUSH2 0x362 JUMP JUMPDEST DUP3 ADD SWAP2 SWAP1 PUSH0 MSTORE PUSH1 0x20 PUSH0 KECCAK256 SWAP1 JUMPDEST DUP2 SLOAD DUP2 MSTORE SWAP1 PUSH1 0x1 ADD SWAP1 PUSH1 0x20 ADD DUP1 DUP4 GT PUSH2 0x345 JUMPI DUP3 SWAP1 SUB PUSH1 0x1F AND DUP3 ADD SWAP2 JUMPDEST POP POP POP POP POP DUP2 MSTORE PUSH1 0x20 ADD PUSH1 0x3 DUP3 ADD PUSH0 SWAP1 SLOAD SWAP1 PUSH2 0x100 EXP SWAP1 DIV PUSH20 0xFFFFFFFFFFFFFFFFFFFFFFFFFFFFFFFFFFFFFFFF AND PUSH20 0xFFFFFFFFFFFFFFFFFFFFFFFFFFFFFFFFFFFFFFFF AND PUSH20 0xFFFFFFFFFFFFFFFFFFFFFFFFFFFFFFFFFFFFFFFF AND DUP2 MSTORE PUSH1 0x20 ADD PUSH1 0x4 DUP3 ADD SLOAD DUP2 MSTORE PUSH1 0x20 ADD PUSH1 0x5 DUP3 ADD PUSH0 SWAP1 SLOAD SWAP1 PUSH2 0x100 EXP SWAP1 DIV PUSH1 0xFF AND PUSH1 0x1 DUP2 GT ISZERO PUSH2 0x3EE JUMPI PUSH2 0x3ED PUSH2 0xEB3 JUMP JUMPDEST JUMPDEST PUSH1 0x1 DUP2 GT ISZERO PUSH2 0x400 JUMPI PUSH2 0x3FF PUSH2 0xEB3 JUMP JUMPDEST JUMPDEST DUP2 MSTORE POP POP SWAP1 POP SWAP2 SWAP1 POP JUMP JUMPDEST PUSH2 0x417 DUP5 DUP5 DUP5 DUP5 PUSH2 0xB35 JUMP JUMPDEST PUSH32 0xC25F73D8066F835A9A93EF7719CC9DFA37651997AD88EA41ABE71C77F9209CE7 CALLER DUP6 PUSH1 0x40 MLOAD PUSH2 0x448 SWAP3 SWAP2 SWAP1 PUSH2 0x1296 JUMP JUMPDEST PUSH1 0x40 MLOAD DUP1 SWAP2 SUB SWAP1 LOG1 POP POP POP POP JUMP JUMPDEST PUSH1 0x1 SLOAD TIMESTAMP GT PUSH2 0x49A JUMPI PUSH1 0x40 MLOAD PUSH32 0x8C379A000000000000000000000000000000000000000000000000000000000 DUP2 MSTORE PUSH1 0x4 ADD PUSH2 0x491 SWAP1 PUSH2 0x132D JUMP JUMPDEST PUSH1 0x40 MLOAD DUP1 SWAP2 SUB SWAP1 REVERT JUMPDEST PUSH9 0x1158E460913D00000 PUSH1 0x2 PUSH0 DUP4 DUP2 MSTORE PUSH1 0x20 ADD SWAP1 DUP2 MSTORE PUSH1 0x20 ADD PUSH0 KECCAK256 PUSH1 0x4 ADD SLOAD LT ISZERO PUSH2 0x55C JUMPI PUSH0 PUSH1 0x2 PUSH0 DUP4 DUP2 MSTORE PUSH1 0x20 ADD SWAP1 DUP2 MSTORE PUSH1 0x20 ADD PUSH0 KECCAK256 PUSH1 0x4 ADD SLOAD SWAP1 POP CALLER PUSH20 0xFFFFFFFFFFFFFFFFFFFFFFFFFFFFFFFFFFFFFFFF AND PUSH2 0x8FC DUP3 SWAP1 DUP2 ISZERO MUL SWAP1 PUSH1 0x40 MLOAD PUSH0 PUSH1 0x40 MLOAD DUP1 DUP4 SUB DUP2 DUP6 DUP9 DUP9 CALL SWAP4 POP POP POP POP ISZERO DUP1 ISZERO PUSH2 0x51A JUMPI RETURNDATASIZE PUSH0 DUP1 RETURNDATACOPY RETURNDATASIZE PUSH0 REVERT JUMPDEST POP PUSH32 0x6BCC8E13F2B9CABD8625FAA0937688A01AAB305F3A921EE1E5FBCFF66144FA57 CALLER DUP4 DUP4 PUSH1 0x40 MLOAD PUSH2 0x54E SWAP4 SWAP3 SWAP2 SWAP1 PUSH2 0x134B JUMP JUMPDEST PUSH1 0x40 MLOAD DUP1 SWAP2 SUB SWAP1 LOG1 POP PUSH2 0x597 JUMP JUMPDEST PUSH1 0x40 MLOAD PUSH32 0x8C379A000000000000000000000000000000000000000000000000000000000 DUP2 MSTORE PUSH1 0x4 ADD PUSH2 0x58E SWAP1 PUSH2 0x13CA JUMP JUMPDEST PUSH1 0x40 MLOAD DUP1 SWAP2 SUB SWAP1 REVERT JUMPDEST POP JUMP JUMPDEST PUSH1 0x1 SLOAD DUP2 JUMP JUMPDEST PUSH1 0x1 SLOAD TIMESTAMP LT ISZERO PUSH2 0x5E5 JUMPI PUSH1 0x40 MLOAD PUSH32 0x8C379A000000000000000000000000000000000000000000000000000000000 DUP2 MSTORE PUSH1 0x4 ADD PUSH2 0x5DC SWAP1 PUSH2 0x1458 JUMP JUMPDEST PUSH1 0x40 MLOAD DUP1 SWAP2 SUB SWAP1 REVERT JUMPDEST PUSH9 0x1158E460913D00000 PUSH1 0x2 PUSH0 DUP4 DUP2 MSTORE PUSH1 0x20 ADD SWAP1 DUP2 MSTORE PUSH1 0x20 ADD PUSH0 KECCAK256 PUSH1 0x4 ADD SLOAD LT PUSH2 0x715 JUMPI PUSH0 PUSH1 0x2 PUSH0 DUP4 DUP2 MSTORE PUSH1 0x20 ADD SWAP1 DUP2 MSTORE PUSH1 0x20 ADD PUSH0 KECCAK256 PUSH1 0x4 ADD SLOAD SWAP1 POP PUSH1 0x2 PUSH0 DUP4 DUP2 MSTORE PUSH1 0x20 ADD SWAP1 DUP2 MSTORE PUSH1 0x20 ADD PUSH0 KECCAK256 PUSH1 0x3 ADD PUSH0 SWAP1 SLOAD SWAP1 PUSH2 0x100 EXP SWAP1 DIV PUSH20 0xFFFFFFFFFFFFFFFFFFFFFFFFFFFFFFFFFFFFFFFF AND PUSH20 0xFFFFFFFFFFFFFFFFFFFFFFFFFFFFFFFFFFFFFFFF AND PUSH2 0x8FC DUP3 SWAP1 DUP2 ISZERO MUL SWAP1 PUSH1 0x40 MLOAD PUSH0 PUSH1 0x40 MLOAD DUP1 DUP4 SUB DUP2 DUP6 DUP9 DUP9 CALL SWAP4 POP POP POP POP ISZERO DUP1 ISZERO PUSH2 0x697 JUMPI RETURNDATASIZE PUSH0 DUP1 RETURNDATACOPY RETURNDATASIZE PUSH0 REVERT JUMPDEST POP PUSH1 0x1 PUSH1 0x2 PUSH0 DUP5 DUP2 MSTORE PUSH1 0x20 ADD SWAP1 DUP2 MSTORE PUSH1 0x20 ADD PUSH0 KECCAK256 PUSH1 0x5 ADD PUSH0 PUSH2 0x100 EXP DUP2 SLOAD DUP2 PUSH1 0xFF MUL NOT AND SWAP1 DUP4 PUSH1 0x1 DUP2 GT ISZERO PUSH2 0x6CF JUMPI PUSH2 0x6CE PUSH2 0xEB3 JUMP JUMPDEST JUMPDEST MUL OR SWAP1 SSTORE POP PUSH32 0x9576942F6783612A1DE73784D0A4A99E49DDBC7E59E8FC927CFFC1EE5385D236 CALLER DUP4 DUP4 PUSH1 0x40 MLOAD PUSH2 0x707 SWAP4 SWAP3 SWAP2 SWAP1 PUSH2 0x134B JUMP JUMPDEST PUSH1 0x40 MLOAD DUP1 SWAP2 SUB SWAP1 LOG1 POP PUSH2 0x750 JUMP JUMPDEST PUSH1 0x40 MLOAD PUSH32 0x8C379A000000000000000000000000000000000000000000000000000000000 DUP2 MSTORE PUSH1 0x4 ADD PUSH2 0x747 SWAP1 PUSH2 0x14C0 JUMP JUMPDEST PUSH1 0x40 MLOAD DUP1 SWAP2 SUB SWAP1 REVERT JUMPDEST POP JUMP JUMPDEST PUSH0 DUP1 SLOAD SWAP1 PUSH2 0x100 EXP SWAP1 DIV PUSH20 0xFFFFFFFFFFFFFFFFFFFFFFFFFFFFFFFFFFFFFFFF AND DUP2 JUMP JUMPDEST PUSH2 0x77E PUSH2 0xC9A JUMP JUMPDEST PUSH1 0x1 SLOAD TIMESTAMP GT ISZERO PUSH2 0x7C3 JUMPI PUSH1 0x40 MLOAD PUSH32 0x8C379A000000000000000000000000000000000000000000000000000000000 DUP2 MSTORE PUSH1 0x4 ADD PUSH2 0x7BA SWAP1 PUSH2 0x154E JUMP JUMPDEST PUSH1 0x40 MLOAD DUP1 SWAP2 SUB SWAP1 REVERT JUMPDEST CALLVALUE PUSH1 0x2 PUSH0 DUP5 DUP2 MSTORE PUSH1 0x20 ADD SWAP1 DUP2 MSTORE PUSH1 0x20 ADD PUSH0 KECCAK256 PUSH1 0x4 ADD PUSH0 DUP3 DUP3 SLOAD PUSH2 0x7E6 SWAP2 SWAP1 PUSH2 0x1599 JUMP JUMPDEST SWAP3 POP POP DUP2 SWAP1 SSTORE POP PUSH0 PUSH1 0x1 DUP2 GT ISZERO PUSH2 0x800 JUMPI PUSH2 0x7FF PUSH2 0xEB3 JUMP JUMPDEST JUMPDEST PUSH1 0x2 PUSH0 DUP5 DUP2 MSTORE PUSH1 0x20 ADD SWAP1 DUP2 MSTORE PUSH1 0x20 ADD PUSH0 KECCAK256 PUSH1 0x5 ADD PUSH0 SWAP1 SLOAD SWAP1 PUSH2 0x100 EXP SWAP1 DIV PUSH1 0xFF AND PUSH1 0x1 DUP2 GT ISZERO PUSH2 0x833 JUMPI PUSH2 0x832 PUSH2 0xEB3 JUMP JUMPDEST JUMPDEST EQ PUSH2 0x873 JUMPI PUSH1 0x40 MLOAD PUSH32 0x8C379A000000000000000000000000000000000000000000000000000000000 DUP2 MSTORE PUSH1 0x4 ADD PUSH2 0x86A SWAP1 PUSH2 0x1616 JUMP JUMPDEST PUSH1 0x40 MLOAD DUP1 SWAP2 SUB SWAP1 REVERT JUMPDEST PUSH32 0x8952AC1E80FC86D8CCB4C9BB2B1DF4BA33B963FDC98DE332D4D07A43DDDDC462 DUP3 CALLER CALLVALUE PUSH1 0x40 MLOAD PUSH2 0x8A6 SWAP4 SWAP3 SWAP2 SWAP1 PUSH2 0x1634 JUMP JUMPDEST PUSH1 0x40 MLOAD DUP1 SWAP2 SUB SWAP1 LOG1 ADDRESS PUSH20 0xFFFFFFFFFFFFFFFFFFFFFFFFFFFFFFFFFFFFFFFF AND PUSH4 0x10445B2B DUP4 PUSH1 0x40 MLOAD DUP3 PUSH4 0xFFFFFFFF AND PUSH1 0xE0 SHL DUP2 MSTORE PUSH1 0x4 ADD PUSH2 0x8E7 SWAP2 SWAP1 PUSH2 0x11F8 JUMP JUMPDEST PUSH0 PUSH1 0x40 MLOAD DUP1 DUP4 SUB DUP2 DUP7 GAS STATICCALL SWAP3 POP POP POP DUP1 ISZERO PUSH2 0x924 JUMPI POP PUSH1 0x40 MLOAD RETURNDATASIZE PUSH0 DUP3 RETURNDATACOPY RETURNDATASIZE PUSH1 0x1F NOT PUSH1 0x1F DUP3 ADD AND DUP3 ADD DUP1 PUSH1 0x40 MSTORE POP DUP2 ADD SWAP1 PUSH2 0x921 SWAP2 SWAP1 PUSH2 0x1815 JUMP JUMPDEST PUSH1 0x1 JUMPDEST PUSH2 0x962 JUMPI PUSH32 0x24C93343BEA44FF8F0E628CA4E5B87DFE0823D664C887457E166A03798BB191C PUSH1 0x40 MLOAD PUSH2 0x955 SWAP1 PUSH2 0x18A6 JUMP JUMPDEST PUSH1 0x40 MLOAD DUP1 SWAP2 SUB SWAP1 LOG1 PUSH2 0x96B JUMP JUMPDEST DUP1 SWAP2 POP POP PUSH2 0x96C JUMP JUMPDEST JUMPDEST SWAP2 SWAP1 POP JUMP JUMPDEST PUSH0 DUP1 SLOAD SWAP1 PUSH2 0x100 EXP SWAP1 DIV PUSH20 0xFFFFFFFFFFFFFFFFFFFFFFFFFFFFFFFFFFFFFFFF AND PUSH20 0xFFFFFFFFFFFFFFFFFFFFFFFFFFFFFFFFFFFFFFFF AND CALLER PUSH20 0xFFFFFFFFFFFFFFFFFFFFFFFFFFFFFFFFFFFFFFFF AND EQ PUSH2 0x9C7 JUMPI PUSH0 DUP1 REVERT JUMPDEST PUSH9 0x1158E460913D00000 PUSH1 0x2 PUSH0 DUP4 DUP2 MSTORE PUSH1 0x20 ADD SWAP1 DUP2 MSTORE PUSH1 0x20 ADD PUSH0 KECCAK256 PUSH1 0x4 ADD SLOAD LT PUSH2 0xAF7 JUMPI PUSH0 PUSH1 0x2 PUSH0 DUP4 DUP2 MSTORE PUSH1 0x20 ADD SWAP1 DUP2 MSTORE PUSH1 0x20 ADD PUSH0 KECCAK256 PUSH1 0x4 ADD SLOAD SWAP1 POP PUSH1 0x2 PUSH0 DUP4 DUP2 MSTORE PUSH1 0x20 ADD SWAP1 DUP2 MSTORE PUSH1 0x20 ADD PUSH0 KECCAK256 PUSH1 0x3 ADD PUSH0 SWAP1 SLOAD SWAP1 PUSH2 0x100 EXP SWAP1 DIV PUSH20 0xFFFFFFFFFFFFFFFFFFFFFFFFFFFFFFFFFFFFFFFF AND PUSH20 0xFFFFFFFFFFFFFFFFFFFFFFFFFFFFFFFFFFFFFFFF AND PUSH2 0x8FC DUP3 SWAP1 DUP2 ISZERO MUL SWAP1 PUSH1 0x40 MLOAD PUSH0 PUSH1 0x40 MLOAD DUP1 DUP4 SUB DUP2 DUP6 DUP9 DUP9 CALL SWAP4 POP POP POP POP ISZERO DUP1 ISZERO PUSH2 0xA79 JUMPI RETURNDATASIZE PUSH0 DUP1 RETURNDATACOPY RETURNDATASIZE PUSH0 REVERT JUMPDEST POP PUSH1 0x1 PUSH1 0x2 PUSH0 DUP5 DUP2 MSTORE PUSH1 0x20 ADD SWAP1 DUP2 MSTORE PUSH1 0x20 ADD PUSH0 KECCAK256 PUSH1 0x5 ADD PUSH0 PUSH2 0x100 EXP DUP2 SLOAD DUP2 PUSH1 0xFF MUL NOT AND SWAP1 DUP4 PUSH1 0x1 DUP2 GT ISZERO PUSH2 0xAB1 JUMPI PUSH2 0xAB0 PUSH2 0xEB3 JUMP JUMPDEST JUMPDEST MUL OR SWAP1 SSTORE POP PUSH32 0x9576942F6783612A1DE73784D0A4A99E49DDBC7E59E8FC927CFFC1EE5385D236 CALLER DUP4 DUP4 PUSH1 0x40 MLOAD PUSH2 0xAE9 SWAP4 SWAP3 SWAP2 SWAP1 PUSH2 0x134B JUMP JUMPDEST PUSH1 0x40 MLOAD DUP1 SWAP2 SUB SWAP1 LOG1 POP PUSH2 0xB32 JUMP JUMPDEST PUSH1 0x40 MLOAD PUSH32 0x8C379A000000000000000000000000000000000000000000000000000000000 DUP2 MSTORE PUSH1 0x4 ADD PUSH2 0xB29 SWAP1 PUSH2 0x14C0 JUMP JUMPDEST PUSH1 0x40 MLOAD DUP1 SWAP2 SUB SWAP1 REVERT JUMPDEST POP JUMP JUMPDEST PUSH1 0x40 MLOAD DUP1 PUSH1 0xC0 ADD PUSH1 0x40 MSTORE DUP1 DUP6 DUP2 MSTORE PUSH1 0x20 ADD DUP5 DUP5 DUP1 DUP1 PUSH1 0x1F ADD PUSH1 0x20 DUP1 SWAP2 DIV MUL PUSH1 0x20 ADD PUSH1 0x40 MLOAD SWAP1 DUP2 ADD PUSH1 0x40 MSTORE DUP1 SWAP4 SWAP3 SWAP2 SWAP1 DUP2 DUP2 MSTORE PUSH1 0x20 ADD DUP4 DUP4 DUP1 DUP3 DUP5 CALLDATACOPY PUSH0 DUP2 DUP5 ADD MSTORE PUSH1 0x1F NOT PUSH1 0x1F DUP3 ADD AND SWAP1 POP DUP1 DUP4 ADD SWAP3 POP POP POP POP POP POP POP DUP2 MSTORE PUSH1 0x20 ADD DUP3 DUP2 MSTORE PUSH1 0x20 ADD CALLER PUSH20 0xFFFFFFFFFFFFFFFFFFFFFFFFFFFFFFFFFFFFFFFF AND DUP2 MSTORE PUSH1 0x20 ADD PUSH0 DUP2 MSTORE PUSH1 0x20 ADD PUSH0 PUSH1 0x1 DUP2 GT ISZERO PUSH2 0xBCA JUMPI PUSH2 0xBC9 PUSH2 0xEB3 JUMP JUMPDEST JUMPDEST DUP2 MSTORE POP PUSH1 0x2 PUSH0 DUP7 DUP2 MSTORE PUSH1 0x20 ADD SWAP1 DUP2 MSTORE PUSH1 0x20 ADD PUSH0 KECCAK256 PUSH0 DUP3 ADD MLOAD DUP2 PUSH0 ADD SSTORE PUSH1 0x20 DUP3 ADD MLOAD DUP2 PUSH1 0x1 ADD SWAP1 DUP2 PUSH2 0xBFB SWAP2 SWAP1 PUSH2 0x1A61 JUMP JUMPDEST POP PUSH1 0x40 DUP3 ADD MLOAD DUP2 PUSH1 0x2 ADD SWAP1 DUP2 PUSH2 0xC11 SWAP2 SWAP1 PUSH2 0x1A61 JUMP JUMPDEST POP PUSH1 0x60 DUP3 ADD MLOAD DUP2 PUSH1 0x3 ADD PUSH0 PUSH2 0x100 EXP DUP2 SLOAD DUP2 PUSH20 0xFFFFFFFFFFFFFFFFFFFFFFFFFFFFFFFFFFFFFFFF MUL NOT AND SWAP1 DUP4 PUSH20 0xFFFFFFFFFFFFFFFFFFFFFFFFFFFFFFFFFFFFFFFF AND MUL OR SWAP1 SSTORE POP PUSH1 0x80 DUP3 ADD MLOAD DUP2 PUSH1 0x4 ADD SSTORE PUSH1 0xA0 DUP3 ADD MLOAD DUP2 PUSH1 0x5 ADD PUSH0 PUSH2 0x100 EXP DUP2 SLOAD DUP2 PUSH1 0xFF MUL NOT AND SWAP1 DUP4 PUSH1 0x1 DUP2 GT ISZERO PUSH2 0xC8C JUMPI PUSH2 0xC8B PUSH2 0xEB3 JUMP JUMPDEST JUMPDEST MUL OR SWAP1 SSTORE POP SWAP1 POP POP POP POP POP POP JUMP JUMPDEST PUSH1 0x40 MLOAD DUP1 PUSH1 0xC0 ADD PUSH1 0x40 MSTORE DUP1 PUSH0 DUP2 MSTORE PUSH1 0x20 ADD PUSH1 0x60 DUP2 MSTORE PUSH1 0x20 ADD PUSH1 0x60 DUP2 MSTORE PUSH1 0x20 ADD PUSH0 PUSH20 0xFFFFFFFFFFFFFFFFFFFFFFFFFFFFFFFFFFFFFFFF AND DUP2 MSTORE PUSH1 0x20 ADD PUSH0 DUP2 MSTORE PUSH1 0x20 ADD PUSH0 PUSH1 0x1 DUP2 GT ISZERO PUSH2 0xCEE JUMPI PUSH2 0xCED PUSH2 0xEB3 JUMP JUMPDEST JUMPDEST DUP2 MSTORE POP SWAP1 JUMP JUMPDEST PUSH0 DUP3 DUP3 MSTORE PUSH1 0x20 DUP3 ADD SWAP1 POP SWAP3 SWAP2 POP POP JUMP JUMPDEST PUSH32 0x616D6F756E74207265636569766564207375636365737366756C6C7900000000 PUSH0 DUP3 ADD MSTORE POP JUMP JUMPDEST PUSH0 PUSH2 0xD38 PUSH1 0x1C DUP4 PUSH2 0xCF4 JUMP JUMPDEST SWAP2 POP PUSH2 0xD43 DUP3 PUSH2 0xD04 JUMP JUMPDEST PUSH1 0x20 DUP3 ADD SWAP1 POP SWAP2 SWAP1 POP JUMP JUMPDEST PUSH0 PUSH1 0x20 DUP3 ADD SWAP1 POP DUP2 DUP2 SUB PUSH0 DUP4 ADD MSTORE PUSH2 0xD65 DUP2 PUSH2 0xD2C JUMP JUMPDEST SWAP1 POP SWAP2 SWAP1 POP JUMP JUMPDEST PUSH0 PUSH1 0x40 MLOAD SWAP1 POP SWAP1 JUMP JUMPDEST PUSH0 DUP1 REVERT JUMPDEST PUSH0 DUP1 REVERT JUMPDEST PUSH0 DUP2 SWAP1 POP SWAP2 SWAP1 POP JUMP JUMPDEST PUSH2 0xD8F DUP2 PUSH2 0xD7D JUMP JUMPDEST DUP2 EQ PUSH2 0xD99 JUMPI PUSH0 DUP1 REVERT JUMPDEST POP JUMP JUMPDEST PUSH0 DUP2 CALLDATALOAD SWAP1 POP PUSH2 0xDAA DUP2 PUSH2 0xD86 JUMP JUMPDEST SWAP3 SWAP2 POP POP JUMP JUMPDEST PUSH0 PUSH1 0x20 DUP3 DUP5 SUB SLT ISZERO PUSH2 0xDC5 JUMPI PUSH2 0xDC4 PUSH2 0xD75 JUMP JUMPDEST JUMPDEST PUSH0 PUSH2 0xDD2 DUP5 DUP3 DUP6 ADD PUSH2 0xD9C JUMP JUMPDEST SWAP2 POP POP SWAP3 SWAP2 POP POP JUMP JUMPDEST PUSH2 0xDE4 DUP2 PUSH2 0xD7D JUMP JUMPDEST DUP3 MSTORE POP POP JUMP JUMPDEST PUSH0 DUP2 MLOAD SWAP1 POP SWAP2 SWAP1 POP JUMP JUMPDEST PUSH0 DUP3 DUP3 MSTORE PUSH1 0x20 DUP3 ADD SWAP1 POP SWAP3 SWAP2 POP POP JUMP JUMPDEST PUSH0 JUMPDEST DUP4 DUP2 LT ISZERO PUSH2 0xE21 JUMPI DUP1 DUP3 ADD MLOAD DUP2 DUP5 ADD MSTORE PUSH1 0x20 DUP2 ADD SWAP1 POP PUSH2 0xE06 JUMP JUMPDEST PUSH0 DUP5 DUP5 ADD MSTORE POP POP POP POP JUMP JUMPDEST PUSH0 PUSH1 0x1F NOT PUSH1 0x1F DUP4 ADD AND SWAP1 POP SWAP2 SWAP1 POP JUMP JUMPDEST PUSH0 PUSH2 0xE46 DUP3 PUSH2 0xDEA JUMP JUMPDEST PUSH2 0xE50 DUP2 DUP6 PUSH2 0xDF4 JUMP JUMPDEST SWAP4 POP PUSH2 0xE60 DUP2 DUP6 PUSH1 0x20 DUP7 ADD PUSH2 0xE04 JUMP JUMPDEST PUSH2 0xE69 DUP2 PUSH2 0xE2C JUMP JUMPDEST DUP5 ADD SWAP2 POP POP SWAP3 SWAP2 POP POP JUMP JUMPDEST PUSH0 PUSH20 0xFFFFFFFFFFFFFFFFFFFFFFFFFFFFFFFFFFFFFFFF DUP3 AND SWAP1 POP SWAP2 SWAP1 POP JUMP JUMPDEST PUSH0 PUSH2 0xE9D DUP3 PUSH2 0xE74 JUMP JUMPDEST SWAP1 POP SWAP2 SWAP1 POP JUMP JUMPDEST PUSH2 0xEAD DUP2 PUSH2 0xE93 JUMP JUMPDEST DUP3 MSTORE POP POP JUMP JUMPDEST PUSH32 0x4E487B7100000000000000000000000000000000000000000000000000000000 PUSH0 MSTORE PUSH1 0x21 PUSH1 0x4 MSTORE PUSH1 0x24 PUSH0 REVERT JUMPDEST PUSH1 0x2 DUP2 LT PUSH2 0xEF1 JUMPI PUSH2 0xEF0 PUSH2 0xEB3 JUMP JUMPDEST JUMPDEST POP JUMP JUMPDEST PUSH0 DUP2 SWAP1 POP PUSH2 0xF01 DUP3 PUSH2 0xEE0 JUMP JUMPDEST SWAP2 SWAP1 POP JUMP JUMPDEST PUSH0 PUSH2 0xF10 DUP3 PUSH2 0xEF4 JUMP JUMPDEST SWAP1 POP SWAP2 SWAP1 POP JUMP JUMPDEST PUSH2 0xF20 DUP2 PUSH2 0xF06 JUMP JUMPDEST DUP3 MSTORE POP POP JUMP JUMPDEST PUSH0 PUSH1 0xC0 DUP4 ADD PUSH0 DUP4 ADD MLOAD PUSH2 0xF3B PUSH0 DUP7 ADD DUP3 PUSH2 0xDDB JUMP JUMPDEST POP PUSH1 0x20 DUP4 ADD MLOAD DUP5 DUP3 SUB PUSH1 0x20 DUP7 ADD MSTORE PUSH2 0xF53 DUP3 DUP3 PUSH2 0xE3C JUMP JUMPDEST SWAP2 POP POP PUSH1 0x40 DUP4 ADD MLOAD DUP5 DUP3 SUB PUSH1 0x40 DUP7 ADD MSTORE PUSH2 0xF6D DUP3 DUP3 PUSH2 0xE3C JUMP JUMPDEST SWAP2 POP POP PUSH1 0x60 DUP4 ADD MLOAD PUSH2 0xF82 PUSH1 0x60 DUP7 ADD DUP3 PUSH2 0xEA4 JUMP JUMPDEST POP PUSH1 0x80 DUP4 ADD MLOAD PUSH2 0xF95 PUSH1 0x80 DUP7 ADD DUP3 PUSH2 0xDDB JUMP JUMPDEST POP PUSH1 0xA0 DUP4 ADD MLOAD PUSH2 0xFA8 PUSH1 0xA0 DUP7 ADD DUP3 PUSH2 0xF17 JUMP JUMPDEST POP DUP1 SWAP2 POP POP SWAP3 SWAP2 POP POP JUMP JUMPDEST PUSH0 PUSH1 0x20 DUP3 ADD SWAP1 POP DUP2 DUP2 SUB PUSH0 DUP4 ADD MSTORE PUSH2 0xFCB DUP2 DUP5 PUSH2 0xF26 JUMP JUMPDEST SWAP1 POP SWAP3 SWAP2 POP POP JUMP JUMPDEST PUSH0 DUP1 REVERT JUMPDEST PUSH0 DUP1 REVERT JUMPDEST PUSH0 DUP1 REVERT JUMPDEST PUSH0 DUP1 DUP4 PUSH1 0x1F DUP5 ADD SLT PUSH2 0xFF4 JUMPI PUSH2 0xFF3 PUSH2 0xFD3 JUMP JUMPDEST JUMPDEST DUP3 CALLDATALOAD SWAP1 POP PUSH8 0xFFFFFFFFFFFFFFFF DUP2 GT ISZERO PUSH2 0x1011 JUMPI PUSH2 0x1010 PUSH2 0xFD7 JUMP JUMPDEST JUMPDEST PUSH1 0x20 DUP4 ADD SWAP2 POP DUP4 PUSH1 0x1 DUP3 MUL DUP4 ADD GT ISZERO PUSH2 0x102D JUMPI PUSH2 0x102C PUSH2 0xFDB JUMP JUMPDEST JUMPDEST SWAP3 POP SWAP3 SWAP1 POP JUMP JUMPDEST PUSH0 DUP1 REVERT JUMPDEST PUSH32 0x4E487B7100000000000000000000000000000000000000000000000000000000 PUSH0 MSTORE PUSH1 0x41 PUSH1 0x4 MSTORE PUSH1 0x24 PUSH0 REVERT JUMPDEST PUSH2 0x106E DUP3 PUSH2 0xE2C JUMP JUMPDEST DUP2 ADD DUP2 DUP2 LT PUSH8 0xFFFFFFFFFFFFFFFF DUP3 GT OR ISZERO PUSH2 0x108D JUMPI PUSH2 0x108C PUSH2 0x1038 JUMP JUMPDEST JUMPDEST DUP1 PUSH1 0x40 MSTORE POP POP POP JUMP JUMPDEST PUSH0 PUSH2 0x109F PUSH2 0xD6C JUMP JUMPDEST SWAP1 POP PUSH2 0x10AB DUP3 DUP3 PUSH2 0x1065 JUMP JUMPDEST SWAP2 SWAP1 POP JUMP JUMPDEST PUSH0 PUSH8 0xFFFFFFFFFFFFFFFF DUP3 GT ISZERO PUSH2 0x10CA JUMPI PUSH2 0x10C9 PUSH2 0x1038 JUMP JUMPDEST JUMPDEST PUSH2 0x10D3 DUP3 PUSH2 0xE2C JUMP JUMPDEST SWAP1 POP PUSH1 0x20 DUP2 ADD SWAP1 POP SWAP2 SWAP1 POP JUMP JUMPDEST DUP3 DUP2 DUP4 CALLDATACOPY PUSH0 DUP4 DUP4 ADD MSTORE POP POP POP JUMP JUMPDEST PUSH0 PUSH2 0x1100 PUSH2 0x10FB DUP5 PUSH2 0x10B0 JUMP JUMPDEST PUSH2 0x1096 JUMP JUMPDEST SWAP1 POP DUP3 DUP2 MSTORE PUSH1 0x20 DUP2 ADD DUP5 DUP5 DUP5 ADD GT ISZERO PUSH2 0x111C JUMPI PUSH2 0x111B PUSH2 0x1034 JUMP JUMPDEST JUMPDEST PUSH2 0x1127 DUP5 DUP3 DUP6 PUSH2 0x10E0 JUMP JUMPDEST POP SWAP4 SWAP3 POP POP POP JUMP JUMPDEST PUSH0 DUP3 PUSH1 0x1F DUP4 ADD SLT PUSH2 0x1143 JUMPI PUSH2 0x1142 PUSH2 0xFD3 JUMP JUMPDEST JUMPDEST DUP2 CALLDATALOAD PUSH2 0x1153 DUP5 DUP3 PUSH1 0x20 DUP7 ADD PUSH2 0x10EE JUMP JUMPDEST SWAP2 POP POP SWAP3 SWAP2 POP POP JUMP JUMPDEST PUSH0 DUP1 PUSH0 DUP1 PUSH1 0x60 DUP6 DUP8 SUB SLT ISZERO PUSH2 0x1174 JUMPI PUSH2 0x1173 PUSH2 0xD75 JUMP JUMPDEST JUMPDEST PUSH0 PUSH2 0x1181 DUP8 DUP3 DUP9 ADD PUSH2 0xD9C JUMP JUMPDEST SWAP5 POP POP PUSH1 0x20 DUP6 ADD CALLDATALOAD PUSH8 0xFFFFFFFFFFFFFFFF DUP2 GT ISZERO PUSH2 0x11A2 JUMPI PUSH2 0x11A1 PUSH2 0xD79 JUMP JUMPDEST JUMPDEST PUSH2 0x11AE DUP8 DUP3 DUP9 ADD PUSH2 0xFDF JUMP JUMPDEST SWAP4 POP SWAP4 POP POP PUSH1 0x40 DUP6 ADD CALLDATALOAD PUSH8 0xFFFFFFFFFFFFFFFF DUP2 GT ISZERO PUSH2 0x11D1 JUMPI PUSH2 0x11D0 PUSH2 0xD79 JUMP JUMPDEST JUMPDEST PUSH2 0x11DD DUP8 DUP3 DUP9 ADD PUSH2 0x112F JUMP JUMPDEST SWAP2 POP POP SWAP3 SWAP6 SWAP2 SWAP5 POP SWAP3 POP JUMP JUMPDEST PUSH2 0x11F2 DUP2 PUSH2 0xD7D JUMP JUMPDEST DUP3 MSTORE POP POP JUMP JUMPDEST PUSH0 PUSH1 0x20 DUP3 ADD SWAP1 POP PUSH2 0x120B PUSH0 DUP4 ADD DUP5 PUSH2 0x11E9 JUMP JUMPDEST SWAP3 SWAP2 POP POP JUMP JUMPDEST PUSH2 0x121A DUP2 PUSH2 0xE93 JUMP JUMPDEST DUP3 MSTORE POP POP JUMP JUMPDEST PUSH0 PUSH1 0x20 DUP3 ADD SWAP1 POP PUSH2 0x1233 PUSH0 DUP4 ADD DUP5 PUSH2 0x1211 JUMP JUMPDEST SWAP3 SWAP2 POP POP JUMP JUMPDEST PUSH32 0x4E487B7100000000000000000000000000000000000000000000000000000000 PUSH0 MSTORE PUSH1 0x22 PUSH1 0x4 MSTORE PUSH1 0x24 PUSH0 REVERT JUMPDEST PUSH0 PUSH1 0x2 DUP3 DIV SWAP1 POP PUSH1 0x1 DUP3 AND DUP1 PUSH2 0x127D JUMPI PUSH1 0x7F DUP3 AND SWAP2 POP JUMPDEST PUSH1 0x20 DUP3 LT DUP2 SUB PUSH2 0x1290 JUMPI PUSH2 0x128F PUSH2 0x1239 JUMP JUMPDEST JUMPDEST POP SWAP2 SWAP1 POP JUMP JUMPDEST PUSH0 PUSH1 0x40 DUP3 ADD SWAP1 POP PUSH2 0x12A9 PUSH0 DUP4 ADD DUP6 PUSH2 0x1211 JUMP JUMPDEST PUSH2 0x12B6 PUSH1 0x20 DUP4 ADD DUP5 PUSH2 0x11E9 JUMP JUMPDEST SWAP4 SWAP3 POP POP POP JUMP JUMPDEST PUSH32 0x63616E277420726566756E642063757A20646561646C696E65206E6F74206D65 PUSH0 DUP3 ADD MSTORE PUSH32 0x6574000000000000000000000000000000000000000000000000000000000000 PUSH1 0x20 DUP3 ADD MSTORE POP JUMP JUMPDEST PUSH0 PUSH2 0x1317 PUSH1 0x22 DUP4 PUSH2 0xCF4 JUMP JUMPDEST SWAP2 POP PUSH2 0x1322 DUP3 PUSH2 0x12BD JUMP JUMPDEST PUSH1 0x40 DUP3 ADD SWAP1 POP SWAP2 SWAP1 POP JUMP JUMPDEST PUSH0 PUSH1 0x20 DUP3 ADD SWAP1 POP DUP2 DUP2 SUB PUSH0 DUP4 ADD MSTORE PUSH2 0x1344 DUP2 PUSH2 0x130B JUMP JUMPDEST SWAP1 POP SWAP2 SWAP1 POP JUMP JUMPDEST PUSH0 PUSH1 0x60 DUP3 ADD SWAP1 POP PUSH2 0x135E PUSH0 DUP4 ADD DUP7 PUSH2 0x1211 JUMP JUMPDEST PUSH2 0x136B PUSH1 0x20 DUP4 ADD DUP6 PUSH2 0x11E9 JUMP JUMPDEST PUSH2 0x1378 PUSH1 0x40 DUP4 ADD DUP5 PUSH2 0x11E9 JUMP JUMPDEST SWAP5 SWAP4 POP POP POP POP JUMP JUMPDEST PUSH32 0x752063616E277420726566756E64200000000000000000000000000000000000 PUSH0 DUP3 ADD MSTORE POP JUMP JUMPDEST PUSH0 PUSH2 0x13B4 PUSH1 0xF DUP4 PUSH2 0xCF4 JUMP JUMPDEST SWAP2 POP PUSH2 0x13BF DUP3 PUSH2 0x1380 JUMP JUMPDEST PUSH1 0x20 DUP3 ADD SWAP1 POP SWAP2 SWAP1 POP JUMP JUMPDEST PUSH0 PUSH1 0x20 DUP3 ADD SWAP1 POP DUP2 DUP2 SUB PUSH0 DUP4 ADD MSTORE PUSH2 0x13E1 DUP2 PUSH2 0x13A8 JUMP JUMPDEST SWAP1 POP SWAP2 SWAP1 POP JUMP JUMPDEST PUSH32 0x6E6F7420616C6C6F77656420636C61696D696E672063757A20616C6C6F776564 PUSH0 DUP3 ADD MSTORE PUSH32 0x2074696D652069732072656D61696E696E670000000000000000000000000000 PUSH1 0x20 DUP3 ADD MSTORE POP JUMP JUMPDEST PUSH0 PUSH2 0x1442 PUSH1 0x32 DUP4 PUSH2 0xCF4 JUMP JUMPDEST SWAP2 POP PUSH2 0x144D DUP3 PUSH2 0x13E8 JUMP JUMPDEST PUSH1 0x40 DUP3 ADD SWAP1 POP SWAP2 SWAP1 POP JUMP JUMPDEST PUSH0 PUSH1 0x20 DUP3 ADD SWAP1 POP DUP2 DUP2 SUB PUSH0 DUP4 ADD MSTORE PUSH2 0x146F DUP2 PUSH2 0x1436 JUMP JUMPDEST SWAP1 POP SWAP2 SWAP1 POP JUMP JUMPDEST PUSH32 0x616D6F756E74206973206E6F7420657175616C20746F20676F616C0000000000 PUSH0 DUP3 ADD MSTORE POP JUMP JUMPDEST PUSH0 PUSH2 0x14AA PUSH1 0x1B DUP4 PUSH2 0xCF4 JUMP JUMPDEST SWAP2 POP PUSH2 0x14B5 DUP3 PUSH2 0x1476 JUMP JUMPDEST PUSH1 0x20 DUP3 ADD SWAP1 POP SWAP2 SWAP1 POP JUMP JUMPDEST PUSH0 PUSH1 0x20 DUP3 ADD SWAP1 POP DUP2 DUP2 SUB PUSH0 DUP4 ADD MSTORE PUSH2 0x14D7 DUP2 PUSH2 0x149E JUMP JUMPDEST SWAP1 POP SWAP2 SWAP1 POP JUMP JUMPDEST PUSH32 0x7472616E73616374696F6E20617265206E6F7420616C6C6F77656420696E2074 PUSH0 DUP3 ADD MSTORE PUSH32 0x6869732074696D65000000000000000000000000000000000000000000000000 PUSH1 0x20 DUP3 ADD MSTORE POP JUMP JUMPDEST PUSH0 PUSH2 0x1538 PUSH1 0x28 DUP4 PUSH2 0xCF4 JUMP JUMPDEST SWAP2 POP PUSH2 0x1543 DUP3 PUSH2 0x14DE JUMP JUMPDEST PUSH1 0x40 DUP3 ADD SWAP1 POP SWAP2 SWAP1 POP JUMP JUMPDEST PUSH0 PUSH1 0x20 DUP3 ADD SWAP1 POP DUP2 DUP2 SUB PUSH0 DUP4 ADD MSTORE PUSH2 0x1565 DUP2 PUSH2 0x152C JUMP JUMPDEST SWAP1 POP SWAP2 SWAP1 POP JUMP JUMPDEST PUSH32 0x4E487B7100000000000000000000000000000000000000000000000000000000 PUSH0 MSTORE PUSH1 0x11 PUSH1 0x4 MSTORE PUSH1 0x24 PUSH0 REVERT JUMPDEST PUSH0 PUSH2 0x15A3 DUP3 PUSH2 0xD7D JUMP JUMPDEST SWAP2 POP PUSH2 0x15AE DUP4 PUSH2 0xD7D JUMP JUMPDEST SWAP3 POP DUP3 DUP3 ADD SWAP1 POP DUP1 DUP3 GT ISZERO PUSH2 0x15C6 JUMPI PUSH2 0x15C5 PUSH2 0x156C JUMP JUMPDEST JUMPDEST SWAP3 SWAP2 POP POP JUMP JUMPDEST PUSH32 0x7374746165206973206E6F742061637269766500000000000000000000000000 PUSH0 DUP3 ADD MSTORE POP JUMP JUMPDEST PUSH0 PUSH2 0x1600 PUSH1 0x13 DUP4 PUSH2 0xCF4 JUMP JUMPDEST SWAP2 POP PUSH2 0x160B DUP3 PUSH2 0x15CC JUMP JUMPDEST PUSH1 0x20 DUP3 ADD SWAP1 POP SWAP2 SWAP1 POP JUMP JUMPDEST PUSH0 PUSH1 0x20 DUP3 ADD SWAP1 POP DUP2 DUP2 SUB PUSH0 DUP4 ADD MSTORE PUSH2 0x162D DUP2 PUSH2 0x15F4 JUMP JUMPDEST SWAP1 POP SWAP2 SWAP1 POP JUMP JUMPDEST PUSH0 PUSH1 0x60 DUP3 ADD SWAP1 POP PUSH2 0x1647 PUSH0 DUP4 ADD DUP7 PUSH2 0x11E9 JUMP JUMPDEST PUSH2 0x1654 PUSH1 0x20 DUP4 ADD DUP6 PUSH2 0x1211 JUMP JUMPDEST PUSH2 0x1661 PUSH1 0x40 DUP4 ADD DUP5 PUSH2 0x11E9 JUMP JUMPDEST SWAP5 SWAP4 POP POP POP POP JUMP JUMPDEST PUSH0 DUP1 REVERT JUMPDEST PUSH0 DUP1 REVERT JUMPDEST PUSH0 DUP2 MLOAD SWAP1 POP PUSH2 0x167F DUP2 PUSH2 0xD86 JUMP JUMPDEST SWAP3 SWAP2 POP POP JUMP JUMPDEST PUSH0 PUSH2 0x1697 PUSH2 0x1692 DUP5 PUSH2 0x10B0 JUMP JUMPDEST PUSH2 0x1096 JUMP JUMPDEST SWAP1 POP DUP3 DUP2 MSTORE PUSH1 0x20 DUP2 ADD DUP5 DUP5 DUP5 ADD GT ISZERO PUSH2 0x16B3 JUMPI PUSH2 0x16B2 PUSH2 0x1034 JUMP JUMPDEST JUMPDEST PUSH2 0x16BE DUP5 DUP3 DUP6 PUSH2 0xE04 JUMP JUMPDEST POP SWAP4 SWAP3 POP POP POP JUMP JUMPDEST PUSH0 DUP3 PUSH1 0x1F DUP4 ADD SLT PUSH2 0x16DA JUMPI PUSH2 0x16D9 PUSH2 0xFD3 JUMP JUMPDEST JUMPDEST DUP2 MLOAD PUSH2 0x16EA DUP5 DUP3 PUSH1 0x20 DUP7 ADD PUSH2 0x1685 JUMP JUMPDEST SWAP2 POP POP SWAP3 SWAP2 POP POP JUMP JUMPDEST PUSH2 0x16FC DUP2 PUSH2 0xE93 JUMP JUMPDEST DUP2 EQ PUSH2 0x1706 JUMPI PUSH0 DUP1 REVERT JUMPDEST POP JUMP JUMPDEST PUSH0 DUP2 MLOAD SWAP1 POP PUSH2 0x1717 DUP2 PUSH2 0x16F3 JUMP JUMPDEST SWAP3 SWAP2 POP POP JUMP JUMPDEST PUSH1 0x2 DUP2 LT PUSH2 0x1729 JUMPI PUSH0 DUP1 REVERT JUMPDEST POP JUMP JUMPDEST PUSH0 DUP2 MLOAD SWAP1 POP PUSH2 0x173A DUP2 PUSH2 0x171D JUMP JUMPDEST SWAP3 SWAP2 POP POP JUMP JUMPDEST PUSH0 PUSH1 0xC0 DUP3 DUP5 SUB SLT ISZERO PUSH2 0x1755 JUMPI PUSH2 0x1754 PUSH2 0x1669 JUMP JUMPDEST JUMPDEST PUSH2 0x175F PUSH1 0xC0 PUSH2 0x1096 JUMP JUMPDEST SWAP1 POP PUSH0 PUSH2 0x176E DUP5 DUP3 DUP6 ADD PUSH2 0x1671 JUMP JUMPDEST PUSH0 DUP4 ADD MSTORE POP PUSH1 0x20 DUP3 ADD MLOAD PUSH8 0xFFFFFFFFFFFFFFFF DUP2 GT ISZERO PUSH2 0x1791 JUMPI PUSH2 0x1790 PUSH2 0x166D JUMP JUMPDEST JUMPDEST PUSH2 0x179D DUP5 DUP3 DUP6 ADD PUSH2 0x16C6 JUMP JUMPDEST PUSH1 0x20 DUP4 ADD MSTORE POP PUSH1 0x40 DUP3 ADD MLOAD PUSH8 0xFFFFFFFFFFFFFFFF DUP2 GT ISZERO PUSH2 0x17C1 JUMPI PUSH2 0x17C0 PUSH2 0x166D JUMP JUMPDEST JUMPDEST PUSH2 0x17CD DUP5 DUP3 DUP6 ADD PUSH2 0x16C6 JUMP JUMPDEST PUSH1 0x40 DUP4 ADD MSTORE POP PUSH1 0x60 PUSH2 0x17E1 DUP5 DUP3 DUP6 ADD PUSH2 0x1709 JUMP JUMPDEST PUSH1 0x60 DUP4 ADD MSTORE POP PUSH1 0x80 PUSH2 0x17F5 DUP5 DUP3 DUP6 ADD PUSH2 0x1671 JUMP JUMPDEST PUSH1 0x80 DUP4 ADD MSTORE POP PUSH1 0xA0 PUSH2 0x1809 DUP5 DUP3 DUP6 ADD PUSH2 0x172C JUMP JUMPDEST PUSH1 0xA0 DUP4 ADD MSTORE POP SWAP3 SWAP2 POP POP JUMP JUMPDEST PUSH0 PUSH1 0x20 DUP3 DUP5 SUB SLT ISZERO PUSH2 0x182A JUMPI PUSH2 0x1829 PUSH2 0xD75 JUMP JUMPDEST JUMPDEST PUSH0 DUP3 ADD MLOAD PUSH8 0xFFFFFFFFFFFFFFFF DUP2 GT ISZERO PUSH2 0x1847 JUMPI PUSH2 0x1846 PUSH2 0xD79 JUMP JUMPDEST JUMPDEST PUSH2 0x1853 DUP5 DUP3 DUP6 ADD PUSH2 0x1740 JUMP JUMPDEST SWAP2 POP POP SWAP3 SWAP2 POP POP JUMP JUMPDEST PUSH32 0x75736572206E6F7420666F756E64000000000000000000000000000000000000 PUSH0 DUP3 ADD MSTORE POP JUMP JUMPDEST PUSH0 PUSH2 0x1890 PUSH1 0xE DUP4 PUSH2 0xCF4 JUMP JUMPDEST SWAP2 POP PUSH2 0x189B DUP3 PUSH2 0x185C JUMP JUMPDEST PUSH1 0x20 DUP3 ADD SWAP1 POP SWAP2 SWAP1 POP JUMP JUMPDEST PUSH0 PUSH1 0x20 DUP3 ADD SWAP1 POP DUP2 DUP2 SUB PUSH0 DUP4 ADD MSTORE PUSH2 0x18BD DUP2 PUSH2 0x1884 JUMP JUMPDEST SWAP1 POP SWAP2 SWAP1 POP JUMP JUMPDEST PUSH0 DUP2 SWAP1 POP DUP2 PUSH0 MSTORE PUSH1 0x20 PUSH0 KECCAK256 SWAP1 POP SWAP2 SWAP1 POP JUMP JUMPDEST PUSH0 PUSH1 0x20 PUSH1 0x1F DUP4 ADD DIV SWAP1 POP SWAP2 SWAP1 POP JUMP JUMPDEST PUSH0 DUP3 DUP3 SHL SWAP1 POP SWAP3 SWAP2 POP POP JUMP JUMPDEST PUSH0 PUSH1 0x8 DUP4 MUL PUSH2 0x1920 PUSH32 0xFFFFFFFFFFFFFFFFFFFFFFFFFFFFFFFFFFFFFFFFFFFFFFFFFFFFFFFFFFFFFFFF DUP3 PUSH2 0x18E5 JUMP JUMPDEST PUSH2 0x192A DUP7 DUP4 PUSH2 0x18E5 JUMP JUMPDEST SWAP6 POP DUP1 NOT DUP5 AND SWAP4 POP DUP1 DUP7 AND DUP5 OR SWAP3 POP POP POP SWAP4 SWAP3 POP POP POP JUMP JUMPDEST PUSH0 DUP2 SWAP1 POP SWAP2 SWAP1 POP JUMP JUMPDEST PUSH0 PUSH2 0x1965 PUSH2 0x1960 PUSH2 0x195B DUP5 PUSH2 0xD7D JUMP JUMPDEST PUSH2 0x1942 JUMP JUMPDEST PUSH2 0xD7D JUMP JUMPDEST SWAP1 POP SWAP2 SWAP1 POP JUMP JUMPDEST PUSH0 DUP2 SWAP1 POP SWAP2 SWAP1 POP JUMP JUMPDEST PUSH2 0x197E DUP4 PUSH2 0x194B JUMP JUMPDEST PUSH2 0x1992 PUSH2 0x198A DUP3 PUSH2 0x196C JUMP JUMPDEST DUP5 DUP5 SLOAD PUSH2 0x18F1 JUMP JUMPDEST DUP3 SSTORE POP POP POP POP JUMP JUMPDEST PUSH0 SWAP1 JUMP JUMPDEST PUSH2 0x19A6 PUSH2 0x199A JUMP JUMPDEST PUSH2 0x19B1 DUP2 DUP5 DUP5 PUSH2 0x1975 JUMP JUMPDEST POP POP POP JUMP JUMPDEST JUMPDEST DUP2 DUP2 LT ISZERO PUSH2 0x19D4 JUMPI PUSH2 0x19C9 PUSH0 DUP3 PUSH2 0x199E JUMP JUMPDEST PUSH1 0x1 DUP2 ADD SWAP1 POP PUSH2 0x19B7 JUMP JUMPDEST POP POP JUMP JUMPDEST PUSH1 0x1F DUP3 GT ISZERO PUSH2 0x1A19 JUMPI PUSH2 0x19EA DUP2 PUSH2 0x18C4 JUMP JUMPDEST PUSH2 0x19F3 DUP5 PUSH2 0x18D6 JUMP JUMPDEST DUP2 ADD PUSH1 0x20 DUP6 LT ISZERO PUSH2 0x1A02 JUMPI DUP2 SWAP1 POP JUMPDEST PUSH2 0x1A16 PUSH2 0x1A0E DUP6 PUSH2 0x18D6 JUMP JUMPDEST DUP4 ADD DUP3 PUSH2 0x19B6 JUMP JUMPDEST POP POP JUMPDEST POP POP POP JUMP JUMPDEST PUSH0 DUP3 DUP3 SHR SWAP1 POP SWAP3 SWAP2 POP POP JUMP JUMPDEST PUSH0 PUSH2 0x1A39 PUSH0 NOT DUP5 PUSH1 0x8 MUL PUSH2 0x1A1E JUMP JUMPDEST NOT DUP1 DUP4 AND SWAP2 POP POP SWAP3 SWAP2 POP POP JUMP JUMPDEST PUSH0 PUSH2 0x1A51 DUP4 DUP4 PUSH2 0x1A2A JUMP JUMPDEST SWAP2 POP DUP3 PUSH1 0x2 MUL DUP3 OR SWAP1 POP SWAP3 SWAP2 POP POP JUMP JUMPDEST PUSH2 0x1A6A DUP3 PUSH2 0xDEA JUMP JUMPDEST PUSH8 0xFFFFFFFFFFFFFFFF DUP2 GT ISZERO PUSH2 0x1A83 JUMPI PUSH2 0x1A82 PUSH2 0x1038 JUMP JUMPDEST JUMPDEST PUSH2 0x1A8D DUP3 SLOAD PUSH2 0x1266 JUMP JUMPDEST PUSH2 0x1A98 DUP3 DUP3 DUP6 PUSH2 0x19D8 JUMP JUMPDEST PUSH0 PUSH1 0x20 SWAP1 POP PUSH1 0x1F DUP4 GT PUSH1 0x1 DUP2 EQ PUSH2 0x1AC9 JUMPI PUSH0 DUP5 ISZERO PUSH2 0x1AB7 JUMPI DUP3 DUP8 ADD MLOAD SWAP1 POP JUMPDEST PUSH2 0x1AC1 DUP6 DUP3 PUSH2 0x1A46 JUMP JUMPDEST DUP7 SSTORE POP PUSH2 0x1B28 JUMP JUMPDEST PUSH1 0x1F NOT DUP5 AND PUSH2 0x1AD7 DUP7 PUSH2 0x18C4 JUMP JUMPDEST PUSH0 JUMPDEST DUP3 DUP2 LT ISZERO PUSH2 0x1AFE JUMPI DUP5 DUP10 ADD MLOAD DUP3 SSTORE PUSH1 0x1 DUP3 ADD SWAP2 POP PUSH1 0x20 DUP6 ADD SWAP5 POP PUSH1 0x20 DUP2 ADD SWAP1 POP PUSH2 0x1AD9 JUMP JUMPDEST DUP7 DUP4 LT ISZERO PUSH2 0x1B1B JUMPI DUP5 DUP10 ADD MLOAD PUSH2 0x1B17 PUSH1 0x1F DUP10 AND DUP3 PUSH2 0x1A2A JUMP JUMPDEST DUP4 SSTORE POP JUMPDEST PUSH1 0x1 PUSH1 0x2 DUP9 MUL ADD DUP9 SSTORE POP POP POP JUMPDEST POP POP POP POP POP POP JUMP INVALID LOG2 PUSH5 0x6970667358 0x22 SLT KECCAK256 DUP4 DUP14 0xAE SWAP7 PUSH0 0xE5 PUSH15 0x4BB9C39FA19E4B03D8E44A3075C93E MOD 0xB9 JUMPI SWAP16 0xA7 SWAP4 BLOCKHASH 0x4D SHR SWAP9 PUSH5 0x736F6C6343 STOP ADDMOD OR STOP CALLER "
				},
				"gasEstimates": {
					"creation": {
						"codeDepositCost": "1402800",
						"executionCost": "infinite",
						"totalCost": "infinite"
					},
					"external": {
						"claim(uint256)": "infinite",
						"completebyadmin(uint256)": "infinite",
						"contract_owner()": "2527",
						"contribution(uint256)": "infinite",
						"creation(uint256,string,string)": "infinite",
						"endtime()": "2492",
						"getdetails(uint256)": "infinite",
						"refund(uint256)": "infinite"
					},
					"internal": {
						"add_user(uint256,string calldata,string memory)": "infinite"
					}
				},
				"methodIdentifiers": {
					"claim(uint256)": "379607f5",
					"completebyadmin(uint256)": "f1ca8bff",
					"contract_owner()": "384f58eb",
					"contribution(uint256)": "e8709c40",
					"creation(uint256,string,string)": "15411001",
					"endtime()": "2ca126f8",
					"getdetails(uint256)": "10445b2b",
					"refund(uint256)": "278ecde1"
				}
			},
			"storageLayout": {
				"storage": [
					{
						"astId": 44,
						"contract": "contracts/test.sol:DAPP",
						"label": "contract_owner",
						"offset": 0,
						"slot": "0",
						"type": "t_address"
					},
					{
						"astId": 50,
						"contract": "contracts/test.sol:DAPP",
						"label": "endtime",
						"offset": 0,
						"slot": "1",
						"type": "t_uint256"
					},
					{
						"astId": 121,
						"contract": "contracts/test.sol:DAPP",
						"label": "fund",
						"offset": 0,
						"slot": "2",
						"type": "t_mapping(t_uint256,t_struct(funding)116_storage)"
					}
				],
				"types": {
					"t_address": {
						"encoding": "inplace",
						"label": "address",
						"numberOfBytes": "20"
					},
					"t_enum(checkstate)4": {
						"encoding": "inplace",
						"label": "enum DAPP.checkstate",
						"numberOfBytes": "1"
					},
					"t_mapping(t_uint256,t_struct(funding)116_storage)": {
						"encoding": "mapping",
						"key": "t_uint256",
						"label": "mapping(uint256 => struct DAPP.funding)",
						"numberOfBytes": "32",
						"value": "t_struct(funding)116_storage"
					},
					"t_string_storage": {
						"encoding": "bytes",
						"label": "string",
						"numberOfBytes": "32"
					},
					"t_struct(funding)116_storage": {
						"encoding": "inplace",
						"label": "struct DAPP.funding",
						"members": [
							{
								"astId": 104,
								"contract": "contracts/test.sol:DAPP",
								"label": "id",
								"offset": 0,
								"slot": "0",
								"type": "t_uint256"
							},
							{
								"astId": 106,
								"contract": "contracts/test.sol:DAPP",
								"label": "name",
								"offset": 0,
								"slot": "1",
								"type": "t_string_storage"
							},
							{
								"astId": 108,
								"contract": "contracts/test.sol:DAPP",
								"label": "discription",
								"offset": 0,
								"slot": "2",
								"type": "t_string_storage"
							},
							{
								"astId": 110,
								"contract": "contracts/test.sol:DAPP",
								"label": "campowner",
								"offset": 0,
								"slot": "3",
								"type": "t_address"
							},
							{
								"astId": 112,
								"contract": "contracts/test.sol:DAPP",
								"label": "raiseamount",
								"offset": 0,
								"slot": "4",
								"type": "t_uint256"
							},
							{
								"astId": 115,
								"contract": "contracts/test.sol:DAPP",
								"label": "state",
								"offset": 0,
								"slot": "5",
								"type": "t_enum(checkstate)4"
							}
						],
						"numberOfBytes": "192"
					},
					"t_uint256": {
						"encoding": "inplace",
						"label": "uint256",
						"numberOfBytes": "32"
					}
				}
			},
			"userdoc": {
				"kind": "user",
				"methods": {},
				"version": 1
			}
		}
	}
}