{
	"contracts/testing_final.sol": {
		"final_task": {
			"abi": [
				{
					"inputs": [],
					"stateMutability": "nonpayable",
					"type": "constructor"
				},
				{
					"anonymous": false,
					"inputs": [
						{
							"indexed": false,
							"internalType": "string",
							"name": "",
							"type": "string"
						}
					],
					"name": "ab",
					"type": "event"
				},
				{
					"anonymous": false,
					"inputs": [
						{
							"indexed": false,
							"internalType": "address",
							"name": "user",
							"type": "address"
						},
						{
							"indexed": false,
							"internalType": "uint256",
							"name": "amount",
							"type": "uint256"
						}
					],
					"name": "completion",
					"type": "event"
				},
				{
					"anonymous": false,
					"inputs": [
						{
							"indexed": false,
							"internalType": "address",
							"name": "user",
							"type": "address"
						},
						{
							"indexed": false,
							"internalType": "uint256",
							"name": "amount",
							"type": "uint256"
						}
					],
					"name": "contributions",
					"type": "event"
				},
				{
					"anonymous": false,
					"inputs": [
						{
							"indexed": false,
							"internalType": "address",
							"name": "user",
							"type": "address"
						},
						{
							"indexed": false,
							"internalType": "string",
							"name": "user_name",
							"type": "string"
						},
						{
							"indexed": false,
							"internalType": "string",
							"name": "user_discription",
							"type": "string"
						}
					],
					"name": "creation",
					"type": "event"
				},
				{
					"anonymous": false,
					"inputs": [
						{
							"indexed": false,
							"internalType": "address",
							"name": "user",
							"type": "address"
						},
						{
							"indexed": false,
							"internalType": "uint256",
							"name": "amount",
							"type": "uint256"
						}
					],
					"name": "refund_claims",
					"type": "event"
				},
				{
					"anonymous": false,
					"inputs": [
						{
							"indexed": false,
							"internalType": "string",
							"name": "",
							"type": "string"
						}
					],
					"name": "st",
					"type": "event"
				},
				{
					"inputs": [],
					"name": "active",
					"outputs": [
						{
							"internalType": "bool",
							"name": "",
							"type": "bool"
						}
					],
					"stateMutability": "view",
					"type": "function"
				},
				{
					"inputs": [
						{
							"internalType": "uint256",
							"name": "u_id",
							"type": "uint256"
						}
					],
					"name": "claim",
					"outputs": [
						{
							"components": [
								{
									"internalType": "string",
									"name": "name",
									"type": "string"
								},
								{
									"internalType": "string",
									"name": "discription",
									"type": "string"
								},
								{
									"internalType": "uint256",
									"name": "user",
									"type": "uint256"
								}
							],
							"internalType": "struct final_task.funding[]",
							"name": "",
							"type": "tuple[]"
						}
					],
					"stateMutability": "payable",
					"type": "function"
				},
				{
					"inputs": [
						{
							"internalType": "address payable",
							"name": "id",
							"type": "address"
						},
						{
							"internalType": "uint256",
							"name": "u_id",
							"type": "uint256"
						},
						{
							"internalType": "uint256",
							"name": "amount",
							"type": "uint256"
						}
					],
					"name": "contribute",
					"outputs": [
						{
							"components": [
								{
									"internalType": "string",
									"name": "name",
									"type": "string"
								},
								{
									"internalType": "string",
									"name": "discription",
									"type": "string"
								},
								{
									"internalType": "uint256",
									"name": "user",
									"type": "uint256"
								}
							],
							"internalType": "struct final_task.funding[]",
							"name": "",
							"type": "tuple[]"
						}
					],
					"stateMutability": "payable",
					"type": "function"
				},
				{
					"inputs": [],
					"name": "counter",
					"outputs": [
						{
							"internalType": "uint256",
							"name": "",
							"type": "uint256"
						}
					],
					"stateMutability": "view",
					"type": "function"
				},
				{
					"inputs": [
						{
							"internalType": "string",
							"name": "_name",
							"type": "string"
						},
						{
							"internalType": "string",
							"name": "_discription",
							"type": "string"
						},
						{
							"internalType": "uint256",
							"name": "_user",
							"type": "uint256"
						}
					],
					"name": "creations",
					"outputs": [],
					"stateMutability": "nonpayable",
					"type": "function"
				},
				{
					"inputs": [
						{
							"internalType": "address",
							"name": "",
							"type": "address"
						}
					],
					"name": "datas",
					"outputs": [
						{
							"internalType": "uint256",
							"name": "",
							"type": "uint256"
						}
					],
					"stateMutability": "view",
					"type": "function"
				},
				{
					"inputs": [],
					"name": "deactivate",
					"outputs": [],
					"stateMutability": "nonpayable",
					"type": "function"
				},
				{
					"inputs": [],
					"name": "endtime",
					"outputs": [
						{
							"internalType": "uint256",
							"name": "",
							"type": "uint256"
						}
					],
					"stateMutability": "view",
					"type": "function"
				},
				{
					"inputs": [
						{
							"internalType": "uint256",
							"name": "_userAddress",
							"type": "uint256"
						}
					],
					"name": "getUserDetails",
					"outputs": [
						{
							"components": [
								{
									"internalType": "string",
									"name": "name",
									"type": "string"
								},
								{
									"internalType": "string",
									"name": "discription",
									"type": "string"
								},
								{
									"internalType": "uint256",
									"name": "user",
									"type": "uint256"
								}
							],
							"internalType": "struct final_task.funding[]",
							"name": "",
							"type": "tuple[]"
						}
					],
					"stateMutability": "view",
					"type": "function"
				},
				{
					"inputs": [],
					"name": "goal",
					"outputs": [
						{
							"internalType": "uint256",
							"name": "",
							"type": "uint256"
						}
					],
					"stateMutability": "view",
					"type": "function"
				},
				{
					"inputs": [],
					"name": "owner",
					"outputs": [
						{
							"internalType": "address",
							"name": "",
							"type": "address"
						}
					],
					"stateMutability": "view",
					"type": "function"
				},
				{
					"inputs": [],
					"name": "refund",
					"outputs": [],
					"stateMutability": "payable",
					"type": "function"
				},
				{
					"inputs": [
						{
							"internalType": "uint256",
							"name": "_userAddress",
							"type": "uint256"
						}
					],
					"name": "userExists",
					"outputs": [
						{
							"internalType": "string",
							"name": "",
							"type": "string"
						}
					],
					"stateMutability": "view",
					"type": "function"
				}
			],
			"devdoc": {
				"kind": "dev",
				"methods": {},
				"version": 1
			},
			"evm": {
				"assembly": "    /* \"contracts/testing_final.sol\":63:4757  contract final_task{... */\n  mstore(0x40, 0x80)\n    /* \"contracts/testing_final.sol\":481:489  20 ether */\n  0x01158e460913d00000\n    /* \"contracts/testing_final.sol\":464:489  uint public goal=20 ether */\n  0x02\n  sstore\n    /* \"contracts/testing_final.sol\":579:588  5 minutes */\n  0x012c\n    /* \"contracts/testing_final.sol\":561:576  block.timestamp */\n  timestamp\n    /* \"contracts/testing_final.sol\":561:588  block.timestamp + 5 minutes */\n  tag_1\n  swap2\n  swap1\n  tag_2\n  jump\t// in\ntag_1:\n    /* \"contracts/testing_final.sol\":539:588  uint public endtime = block.timestamp + 5 minutes */\n  0x03\n  sstore\n    /* \"contracts/testing_final.sol\":730:814  constructor(){... */\n  callvalue\n  dup1\n  iszero\n  tag_3\n  jumpi\n  0x00\n  dup1\n  revert\ntag_3:\n  pop\n    /* \"contracts/testing_final.sol\":774:784  msg.sender */\n  caller\n    /* \"contracts/testing_final.sol\":766:771  owner */\n  0x04\n  0x01\n    /* \"contracts/testing_final.sol\":766:784  owner = msg.sender */\n  0x0100\n  exp\n  dup2\n  sload\n  dup2\n  0xffffffffffffffffffffffffffffffffffffffff\n  mul\n  not\n  and\n  swap1\n  dup4\n  0xffffffffffffffffffffffffffffffffffffffff\n  and\n  mul\n  or\n  swap1\n  sstore\n  pop\n    /* \"contracts/testing_final.sol\":802:806  true */\n  0x01\n    /* \"contracts/testing_final.sol\":795:801  active */\n  0x04\n  0x00\n    /* \"contracts/testing_final.sol\":795:806  active=true */\n  0x0100\n  exp\n  dup2\n  sload\n  dup2\n  0xff\n  mul\n  not\n  and\n  swap1\n  dup4\n  iszero\n  iszero\n  mul\n  or\n  swap1\n  sstore\n  pop\n    /* \"contracts/testing_final.sol\":63:4757  contract final_task{... */\n  jump(tag_6)\n    /* \"#utility.yul\":7:84   */\ntag_7:\n    /* \"#utility.yul\":44:51   */\n  0x00\n    /* \"#utility.yul\":73:78   */\n  dup2\n    /* \"#utility.yul\":62:78   */\n  swap1\n  pop\n    /* \"#utility.yul\":7:84   */\n  swap2\n  swap1\n  pop\n  jump\t// out\n    /* \"#utility.yul\":90:270   */\ntag_8:\n    /* \"#utility.yul\":138:215   */\n  0x4e487b7100000000000000000000000000000000000000000000000000000000\n    /* \"#utility.yul\":135:136   */\n  0x00\n    /* \"#utility.yul\":128:216   */\n  mstore\n    /* \"#utility.yul\":235:239   */\n  0x11\n    /* \"#utility.yul\":232:233   */\n  0x04\n    /* \"#utility.yul\":225:240   */\n  mstore\n    /* \"#utility.yul\":259:263   */\n  0x24\n    /* \"#utility.yul\":256:257   */\n  0x00\n    /* \"#utility.yul\":249:264   */\n  revert\n    /* \"#utility.yul\":276:467   */\ntag_2:\n    /* \"#utility.yul\":316:319   */\n  0x00\n    /* \"#utility.yul\":335:355   */\n  tag_13\n    /* \"#utility.yul\":353:354   */\n  dup3\n    /* \"#utility.yul\":335:355   */\n  tag_7\n  jump\t// in\ntag_13:\n    /* \"#utility.yul\":330:355   */\n  swap2\n  pop\n    /* \"#utility.yul\":369:389   */\n  tag_14\n    /* \"#utility.yul\":387:388   */\n  dup4\n    /* \"#utility.yul\":369:389   */\n  tag_7\n  jump\t// in\ntag_14:\n    /* \"#utility.yul\":364:389   */\n  swap3\n  pop\n    /* \"#utility.yul\":412:413   */\n  dup3\n    /* \"#utility.yul\":409:410   */\n  dup3\n    /* \"#utility.yul\":405:414   */\n  add\n    /* \"#utility.yul\":398:414   */\n  swap1\n  pop\n    /* \"#utility.yul\":433:436   */\n  dup1\n    /* \"#utility.yul\":430:431   */\n  dup3\n    /* \"#utility.yul\":427:437   */\n  gt\n    /* \"#utility.yul\":424:460   */\n  iszero\n  tag_15\n  jumpi\n    /* \"#utility.yul\":440:458   */\n  tag_16\n  tag_8\n  jump\t// in\ntag_16:\n    /* \"#utility.yul\":424:460   */\ntag_15:\n    /* \"#utility.yul\":276:467   */\n  swap3\n  swap2\n  pop\n  pop\n  jump\t// out\n    /* \"contracts/testing_final.sol\":63:4757  contract final_task{... */\ntag_6:\n  dataSize(sub_0)\n  dup1\n  dataOffset(sub_0)\n  0x00\n  codecopy\n  0x00\n  return\nstop\n\nsub_0: assembly {\n        /* \"contracts/testing_final.sol\":63:4757  contract final_task{... */\n      mstore(0x40, 0x80)\n      jumpi(tag_1, lt(calldatasize, 0x04))\n      shr(0xe0, calldataload(0x00))\n      dup1\n      0x51b42b00\n      gt\n      tag_15\n      jumpi\n      dup1\n      0x68a6cdf2\n      gt\n      tag_16\n      jumpi\n      dup1\n      0x68a6cdf2\n      eq\n      tag_11\n      jumpi\n      dup1\n      0x6f93dd91\n      eq\n      tag_12\n      jumpi\n      dup1\n      0x8da5cb5b\n      eq\n      tag_13\n      jumpi\n      dup1\n      0xa08f793c\n      eq\n      tag_14\n      jumpi\n      jump(tag_1)\n    tag_16:\n      dup1\n      0x51b42b00\n      eq\n      tag_8\n      jumpi\n      dup1\n      0x590e1ae3\n      eq\n      tag_9\n      jumpi\n      dup1\n      0x61bc221a\n      eq\n      tag_10\n      jumpi\n      jump(tag_1)\n    tag_15:\n      dup1\n      0x02fb0c5e\n      eq\n      tag_2\n      jumpi\n      dup1\n      0x0842b53c\n      eq\n      tag_3\n      jumpi\n      dup1\n      0x1c1a9f7b\n      eq\n      tag_4\n      jumpi\n      dup1\n      0x2ca126f8\n      eq\n      tag_5\n      jumpi\n      dup1\n      0x379607f5\n      eq\n      tag_6\n      jumpi\n      dup1\n      0x40193883\n      eq\n      tag_7\n      jumpi\n    tag_1:\n      0x00\n      dup1\n      revert\n        /* \"contracts/testing_final.sol\":649:667  bool public active */\n    tag_2:\n      callvalue\n      dup1\n      iszero\n      tag_17\n      jumpi\n      0x00\n      dup1\n      revert\n    tag_17:\n      pop\n      tag_18\n      tag_19\n      jump\t// in\n    tag_18:\n      mload(0x40)\n      tag_20\n      swap2\n      swap1\n      tag_21\n      jump\t// in\n    tag_20:\n      mload(0x40)\n      dup1\n      swap2\n      sub\n      swap1\n      return\n        /* \"contracts/testing_final.sol\":1846:2075  function creations(string memory _name,... */\n    tag_3:\n      callvalue\n      dup1\n      iszero\n      tag_22\n      jumpi\n      0x00\n      dup1\n      revert\n    tag_22:\n      pop\n      tag_23\n      0x04\n      dup1\n      calldatasize\n      sub\n      dup2\n      add\n      swap1\n      tag_24\n      swap2\n      swap1\n      tag_25\n      jump\t// in\n    tag_24:\n      tag_26\n      jump\t// in\n    tag_23:\n      stop\n        /* \"contracts/testing_final.sol\":3915:4056  function getUserDetails(uint256 _userAddress) public view returns (funding[] memory) {... */\n    tag_4:\n      callvalue\n      dup1\n      iszero\n      tag_27\n      jumpi\n      0x00\n      dup1\n      revert\n    tag_27:\n      pop\n      tag_28\n      0x04\n      dup1\n      calldatasize\n      sub\n      dup2\n      add\n      swap1\n      tag_29\n      swap2\n      swap1\n      tag_30\n      jump\t// in\n    tag_29:\n      tag_31\n      jump\t// in\n    tag_28:\n      mload(0x40)\n      tag_32\n      swap2\n      swap1\n      tag_33\n      jump\t// in\n    tag_32:\n      mload(0x40)\n      dup1\n      swap2\n      sub\n      swap1\n      return\n        /* \"contracts/testing_final.sol\":539:588  uint public endtime = block.timestamp + 5 minutes */\n    tag_5:\n      callvalue\n      dup1\n      iszero\n      tag_34\n      jumpi\n      0x00\n      dup1\n      revert\n    tag_34:\n      pop\n      tag_35\n      tag_36\n      jump\t// in\n    tag_35:\n      mload(0x40)\n      tag_37\n      swap2\n      swap1\n      tag_38\n      jump\t// in\n    tag_37:\n      mload(0x40)\n      dup1\n      swap2\n      sub\n      swap1\n      return\n        /* \"contracts/testing_final.sol\":2558:3045  function claim(uint256 u_id) public  payable onlyowner  returns(funding[] memory) {... */\n    tag_6:\n      tag_39\n      0x04\n      dup1\n      calldatasize\n      sub\n      dup2\n      add\n      swap1\n      tag_40\n      swap2\n      swap1\n      tag_30\n      jump\t// in\n    tag_40:\n      tag_41\n      jump\t// in\n    tag_39:\n      mload(0x40)\n      tag_42\n      swap2\n      swap1\n      tag_33\n      jump\t// in\n    tag_42:\n      mload(0x40)\n      dup1\n      swap2\n      sub\n      swap1\n      return\n        /* \"contracts/testing_final.sol\":464:489  uint public goal=20 ether */\n    tag_7:\n      callvalue\n      dup1\n      iszero\n      tag_43\n      jumpi\n      0x00\n      dup1\n      revert\n    tag_43:\n      pop\n      tag_44\n      tag_45\n      jump\t// in\n    tag_44:\n      mload(0x40)\n      tag_46\n      swap2\n      swap1\n      tag_38\n      jump\t// in\n    tag_46:\n      mload(0x40)\n      dup1\n      swap2\n      sub\n      swap1\n      return\n        /* \"contracts/testing_final.sol\":3047:3100  function deactivate() public{... */\n    tag_8:\n      callvalue\n      dup1\n      iszero\n      tag_47\n      jumpi\n      0x00\n      dup1\n      revert\n    tag_47:\n      pop\n      tag_48\n      tag_49\n      jump\t// in\n    tag_48:\n      stop\n        /* \"contracts/testing_final.sol\":3104:3908  function refund()public payable  {... */\n    tag_9:\n      tag_50\n      tag_51\n      jump\t// in\n    tag_50:\n      stop\n        /* \"contracts/testing_final.sol\":704:723  uint public counter */\n    tag_10:\n      callvalue\n      dup1\n      iszero\n      tag_52\n      jumpi\n      0x00\n      dup1\n      revert\n    tag_52:\n      pop\n      tag_53\n      tag_54\n      jump\t// in\n    tag_53:\n      mload(0x40)\n      tag_55\n      swap2\n      swap1\n      tag_38\n      jump\t// in\n    tag_55:\n      mload(0x40)\n      dup1\n      swap2\n      sub\n      swap1\n      return\n        /* \"contracts/testing_final.sol\":1491:1527  mapping(address=>uint) public  datas */\n    tag_11:\n      callvalue\n      dup1\n      iszero\n      tag_56\n      jumpi\n      0x00\n      dup1\n      revert\n    tag_56:\n      pop\n      tag_57\n      0x04\n      dup1\n      calldatasize\n      sub\n      dup2\n      add\n      swap1\n      tag_58\n      swap2\n      swap1\n      tag_59\n      jump\t// in\n    tag_58:\n      tag_60\n      jump\t// in\n    tag_57:\n      mload(0x40)\n      tag_61\n      swap2\n      swap1\n      tag_38\n      jump\t// in\n    tag_61:\n      mload(0x40)\n      dup1\n      swap2\n      sub\n      swap1\n      return\n        /* \"contracts/testing_final.sol\":4061:4754  function userExists(uint _userAddress) public  view returns (string memory) {... */\n    tag_12:\n      callvalue\n      dup1\n      iszero\n      tag_62\n      jumpi\n      0x00\n      dup1\n      revert\n    tag_62:\n      pop\n      tag_63\n      0x04\n      dup1\n      calldatasize\n      sub\n      dup2\n      add\n      swap1\n      tag_64\n      swap2\n      swap1\n      tag_30\n      jump\t// in\n    tag_64:\n      tag_65\n      jump\t// in\n    tag_63:\n      mload(0x40)\n      tag_66\n      swap2\n      swap1\n      tag_67\n      jump\t// in\n    tag_66:\n      mload(0x40)\n      dup1\n      swap2\n      sub\n      swap1\n      return\n        /* \"contracts/testing_final.sol\":676:697  address public  owner */\n    tag_13:\n      callvalue\n      dup1\n      iszero\n      tag_68\n      jumpi\n      0x00\n      dup1\n      revert\n    tag_68:\n      pop\n      tag_69\n      tag_70\n      jump\t// in\n    tag_69:\n      mload(0x40)\n      tag_71\n      swap2\n      swap1\n      tag_72\n      jump\t// in\n    tag_71:\n      mload(0x40)\n      dup1\n      swap2\n      sub\n      swap1\n      return\n        /* \"contracts/testing_final.sol\":2079:2554  function contribute(address payable id,uint256   u_id,  uint amount) public payable onlyowner isactive allowedtime returns(funding[] memory) {... */\n    tag_14:\n      tag_73\n      0x04\n      dup1\n      calldatasize\n      sub\n      dup2\n      add\n      swap1\n      tag_74\n      swap2\n      swap1\n      tag_75\n      jump\t// in\n    tag_74:\n      tag_76\n      jump\t// in\n    tag_73:\n      mload(0x40)\n      tag_77\n      swap2\n      swap1\n      tag_33\n      jump\t// in\n    tag_77:\n      mload(0x40)\n      dup1\n      swap2\n      sub\n      swap1\n      return\n        /* \"contracts/testing_final.sol\":649:667  bool public active */\n    tag_19:\n      0x04\n      0x00\n      swap1\n      sload\n      swap1\n      0x0100\n      exp\n      swap1\n      div\n      0xff\n      and\n      dup2\n      jump\t// out\n        /* \"contracts/testing_final.sol\":1846:2075  function creations(string memory _name,... */\n    tag_26:\n        /* \"contracts/testing_final.sol\":846:852  active */\n      0x04\n      0x00\n      swap1\n      sload\n      swap1\n      0x0100\n      exp\n      swap1\n      div\n      0xff\n      and\n        /* \"contracts/testing_final.sol\":838:875  require(active,\"state is not active\") */\n      tag_79\n      jumpi\n      mload(0x40)\n      0x08c379a000000000000000000000000000000000000000000000000000000000\n      dup2\n      mstore\n      0x04\n      add\n      tag_80\n      swap1\n      tag_81\n      jump\t// in\n    tag_80:\n      mload(0x40)\n      dup1\n      swap2\n      sub\n      swap1\n      revert\n    tag_79:\n        /* \"contracts/testing_final.sol\":1955:1989  adduser(_name, _discription,_user) */\n      tag_83\n        /* \"contracts/testing_final.sol\":1963:1968  _name */\n      dup4\n        /* \"contracts/testing_final.sol\":1970:1982  _discription */\n      dup4\n        /* \"contracts/testing_final.sol\":1983:1988  _user */\n      dup4\n        /* \"contracts/testing_final.sol\":1955:1962  adduser */\n      tag_84\n        /* \"contracts/testing_final.sol\":1955:1989  adduser(_name, _discription,_user) */\n      jump\t// in\n    tag_83:\n        /* \"contracts/testing_final.sol\":2000:2020  check_state.creation */\n      0x00\n        /* \"contracts/testing_final.sol\":1992:1997  state */\n      dup1\n      0x00\n        /* \"contracts/testing_final.sol\":1992:2020  state = check_state.creation */\n      0x0100\n      exp\n      dup2\n      sload\n      dup2\n      0xff\n      mul\n      not\n      and\n      swap1\n      dup4\n      0x03\n      dup2\n      gt\n      iszero\n      tag_85\n      jumpi\n      tag_86\n      tag_87\n      jump\t// in\n    tag_86:\n    tag_85:\n      mul\n      or\n      swap1\n      sstore\n      pop\n        /* \"contracts/testing_final.sol\":2028:2067  creation(msg.sender,_name,_discription) */\n      0x1dfd8cec52292c44a89be6bd42f905ddc92c63b3a343c239093964d1038e1b9b\n        /* \"contracts/testing_final.sol\":2037:2047  msg.sender */\n      caller\n        /* \"contracts/testing_final.sol\":2048:2053  _name */\n      dup5\n        /* \"contracts/testing_final.sol\":2054:2066  _discription */\n      dup5\n        /* \"contracts/testing_final.sol\":2028:2067  creation(msg.sender,_name,_discription) */\n      mload(0x40)\n      tag_88\n      swap4\n      swap3\n      swap2\n      swap1\n      tag_89\n      jump\t// in\n    tag_88:\n      mload(0x40)\n      dup1\n      swap2\n      sub\n      swap1\n      log1\n        /* \"contracts/testing_final.sol\":1846:2075  function creations(string memory _name,... */\n      pop\n      pop\n      pop\n      jump\t// out\n        /* \"contracts/testing_final.sol\":3915:4056  function getUserDetails(uint256 _userAddress) public view returns (funding[] memory) {... */\n    tag_31:\n        /* \"contracts/testing_final.sol\":3982:3998  funding[] memory */\n      0x60\n        /* \"contracts/testing_final.sol\":4018:4022  data */\n      0x06\n        /* \"contracts/testing_final.sol\":4018:4036  data[_userAddress] */\n      0x00\n        /* \"contracts/testing_final.sol\":4023:4035  _userAddress */\n      dup4\n        /* \"contracts/testing_final.sol\":4018:4036  data[_userAddress] */\n      dup2\n      mstore\n      0x20\n      add\n      swap1\n      dup2\n      mstore\n      0x20\n      add\n      0x00\n      keccak256\n        /* \"contracts/testing_final.sol\":4011:4036  return data[_userAddress] */\n      dup1\n      sload\n      dup1\n      0x20\n      mul\n      0x20\n      add\n      mload(0x40)\n      swap1\n      dup2\n      add\n      0x40\n      mstore\n      dup1\n      swap3\n      swap2\n      swap1\n      dup2\n      dup2\n      mstore\n      0x20\n      add\n      0x00\n      swap1\n    tag_91:\n      dup3\n      dup3\n      lt\n      iszero\n      tag_92\n      jumpi\n      dup4\n      dup3\n      swap1\n      0x00\n      mstore\n      keccak256(0x00, 0x20)\n      swap1\n      0x03\n      mul\n      add\n      mload(0x40)\n      dup1\n      0x60\n      add\n      0x40\n      mstore\n      swap1\n      dup2\n      0x00\n      dup3\n      add\n      dup1\n      sload\n      tag_94\n      swap1\n      tag_95\n      jump\t// in\n    tag_94:\n      dup1\n      0x1f\n      add\n      0x20\n      dup1\n      swap2\n      div\n      mul\n      0x20\n      add\n      mload(0x40)\n      swap1\n      dup2\n      add\n      0x40\n      mstore\n      dup1\n      swap3\n      swap2\n      swap1\n      dup2\n      dup2\n      mstore\n      0x20\n      add\n      dup3\n      dup1\n      sload\n      tag_96\n      swap1\n      tag_95\n      jump\t// in\n    tag_96:\n      dup1\n      iszero\n      tag_97\n      jumpi\n      dup1\n      0x1f\n      lt\n      tag_98\n      jumpi\n      0x0100\n      dup1\n      dup4\n      sload\n      div\n      mul\n      dup4\n      mstore\n      swap2\n      0x20\n      add\n      swap2\n      jump(tag_97)\n    tag_98:\n      dup3\n      add\n      swap2\n      swap1\n      0x00\n      mstore\n      keccak256(0x00, 0x20)\n      swap1\n    tag_99:\n      dup2\n      sload\n      dup2\n      mstore\n      swap1\n      0x01\n      add\n      swap1\n      0x20\n      add\n      dup1\n      dup4\n      gt\n      tag_99\n      jumpi\n      dup3\n      swap1\n      sub\n      0x1f\n      and\n      dup3\n      add\n      swap2\n    tag_97:\n      pop\n      pop\n      pop\n      pop\n      pop\n      dup2\n      mstore\n      0x20\n      add\n      0x01\n      dup3\n      add\n      dup1\n      sload\n      tag_100\n      swap1\n      tag_95\n      jump\t// in\n    tag_100:\n      dup1\n      0x1f\n      add\n      0x20\n      dup1\n      swap2\n      div\n      mul\n      0x20\n      add\n      mload(0x40)\n      swap1\n      dup2\n      add\n      0x40\n      mstore\n      dup1\n      swap3\n      swap2\n      swap1\n      dup2\n      dup2\n      mstore\n      0x20\n      add\n      dup3\n      dup1\n      sload\n      tag_101\n      swap1\n      tag_95\n      jump\t// in\n    tag_101:\n      dup1\n      iszero\n      tag_102\n      jumpi\n      dup1\n      0x1f\n      lt\n      tag_103\n      jumpi\n      0x0100\n      dup1\n      dup4\n      sload\n      div\n      mul\n      dup4\n      mstore\n      swap2\n      0x20\n      add\n      swap2\n      jump(tag_102)\n    tag_103:\n      dup3\n      add\n      swap2\n      swap1\n      0x00\n      mstore\n      keccak256(0x00, 0x20)\n      swap1\n    tag_104:\n      dup2\n      sload\n      dup2\n      mstore\n      swap1\n      0x01\n      add\n      swap1\n      0x20\n      add\n      dup1\n      dup4\n      gt\n      tag_104\n      jumpi\n      dup3\n      swap1\n      sub\n      0x1f\n      and\n      dup3\n      add\n      swap2\n    tag_102:\n      pop\n      pop\n      pop\n      pop\n      pop\n      dup2\n      mstore\n      0x20\n      add\n      0x02\n      dup3\n      add\n      sload\n      dup2\n      mstore\n      pop\n      pop\n      dup2\n      mstore\n      0x20\n      add\n      swap1\n      0x01\n      add\n      swap1\n      jump(tag_91)\n    tag_92:\n      pop\n      pop\n      pop\n      pop\n      swap1\n      pop\n        /* \"contracts/testing_final.sol\":3915:4056  function getUserDetails(uint256 _userAddress) public view returns (funding[] memory) {... */\n      swap2\n      swap1\n      pop\n      jump\t// out\n        /* \"contracts/testing_final.sol\":539:588  uint public endtime = block.timestamp + 5 minutes */\n    tag_36:\n      sload(0x03)\n      dup2\n      jump\t// out\n        /* \"contracts/testing_final.sol\":2558:3045  function claim(uint256 u_id) public  payable onlyowner  returns(funding[] memory) {... */\n    tag_41:\n        /* \"contracts/testing_final.sol\":2622:2638  funding[] memory */\n      0x60\n        /* \"contracts/testing_final.sol\":1058:1063  owner */\n      0x04\n      0x01\n      swap1\n      sload\n      swap1\n      0x0100\n      exp\n      swap1\n      div\n      0xffffffffffffffffffffffffffffffffffffffff\n      and\n        /* \"contracts/testing_final.sol\":1045:1063  msg.sender== owner */\n      0xffffffffffffffffffffffffffffffffffffffff\n      and\n        /* \"contracts/testing_final.sol\":1045:1055  msg.sender */\n      caller\n        /* \"contracts/testing_final.sol\":1045:1063  msg.sender== owner */\n      0xffffffffffffffffffffffffffffffffffffffff\n      and\n      eq\n        /* \"contracts/testing_final.sol\":1037:1099  require(msg.sender== owner,\"only owner can use this function\") */\n      tag_106\n      jumpi\n      mload(0x40)\n      0x08c379a000000000000000000000000000000000000000000000000000000000\n      dup2\n      mstore\n      0x04\n      add\n      tag_107\n      swap1\n      tag_108\n      jump\t// in\n    tag_107:\n      mload(0x40)\n      dup1\n      swap2\n      sub\n      swap1\n      revert\n    tag_106:\n        /* \"contracts/testing_final.sol\":2685:2689  goal */\n      sload(0x02)\n        /* \"contracts/testing_final.sol\":2660:2681  address(this).balance */\n      selfbalance\n        /* \"contracts/testing_final.sol\":2660:2689  address(this).balance >= goal */\n      lt\n        /* \"contracts/testing_final.sol\":2657:3027  if(address(this).balance >= goal  ){... */\n      tag_110\n      jumpi\n        /* \"contracts/testing_final.sol\":2719:2724  owner */\n      0x04\n      0x01\n      swap1\n      sload\n      swap1\n      0x0100\n      exp\n      swap1\n      div\n      0xffffffffffffffffffffffffffffffffffffffff\n      and\n        /* \"contracts/testing_final.sol\":2711:2734  payable(owner).transfer */\n      0xffffffffffffffffffffffffffffffffffffffff\n      and\n        /* \"contracts/testing_final.sol\":2711:2757  payable(owner).transfer(address(this).balance) */\n      0x08fc\n        /* \"contracts/testing_final.sol\":2735:2756  address(this).balance */\n      selfbalance\n        /* \"contracts/testing_final.sol\":2711:2757  payable(owner).transfer(address(this).balance) */\n      swap1\n      dup2\n      iszero\n      mul\n      swap1\n      mload(0x40)\n      0x00\n      mload(0x40)\n      dup1\n      dup4\n      sub\n      dup2\n      dup6\n      dup9\n      dup9\n      call\n      swap4\n      pop\n      pop\n      pop\n      pop\n      iszero\n      dup1\n      iszero\n      tag_112\n      jumpi\n      returndatasize\n      0x00\n      dup1\n      returndatacopy\n      revert(0x00, returndatasize)\n    tag_112:\n      pop\n        /* \"contracts/testing_final.sol\":2768:2780  deactivate() */\n      tag_113\n        /* \"contracts/testing_final.sol\":2768:2778  deactivate */\n      tag_49\n        /* \"contracts/testing_final.sol\":2768:2780  deactivate() */\n      jump\t// in\n    tag_113:\n        /* \"contracts/testing_final.sol\":2800:2822  check_state.completion */\n      0x02\n        /* \"contracts/testing_final.sol\":2793:2798  state */\n      0x00\n      dup1\n        /* \"contracts/testing_final.sol\":2793:2822  state= check_state.completion */\n      0x0100\n      exp\n      dup2\n      sload\n      dup2\n      0xff\n      mul\n      not\n      and\n      swap1\n      dup4\n      0x03\n      dup2\n      gt\n      iszero\n      tag_114\n      jumpi\n      tag_115\n      tag_87\n      jump\t// in\n    tag_115:\n    tag_114:\n      mul\n      or\n      swap1\n      sstore\n      pop\n        /* \"contracts/testing_final.sol\":2838:2883  completion(msg.sender, address(this).balance) */\n      0x4c51d260ed01191bd8c324dcc6426ba425e832f37a19e155c7182baa9839bd43\n        /* \"contracts/testing_final.sol\":2849:2859  msg.sender */\n      caller\n        /* \"contracts/testing_final.sol\":2861:2882  address(this).balance */\n      selfbalance\n        /* \"contracts/testing_final.sol\":2838:2883  completion(msg.sender, address(this).balance) */\n      mload(0x40)\n      tag_116\n      swap3\n      swap2\n      swap1\n      tag_117\n      jump\t// in\n    tag_116:\n      mload(0x40)\n      dup1\n      swap2\n      sub\n      swap1\n      log1\n        /* \"contracts/testing_final.sol\":2900:2920  getUserDetails(u_id) */\n      tag_118\n        /* \"contracts/testing_final.sol\":2915:2919  u_id */\n      dup3\n        /* \"contracts/testing_final.sol\":2900:2914  getUserDetails */\n      tag_31\n        /* \"contracts/testing_final.sol\":2900:2920  getUserDetails(u_id) */\n      jump\t// in\n    tag_118:\n        /* \"contracts/testing_final.sol\":2892:2920  return  getUserDetails(u_id) */\n      swap1\n      pop\n      jump(tag_109)\n        /* \"contracts/testing_final.sol\":2657:3027  if(address(this).balance >= goal  ){... */\n    tag_110:\n        /* \"contracts/testing_final.sol\":2971:3018  revert(\"funds are not sufficient for claiming\") */\n      mload(0x40)\n      0x08c379a000000000000000000000000000000000000000000000000000000000\n      dup2\n      mstore\n      0x04\n      add\n      tag_120\n      swap1\n      tag_121\n      jump\t// in\n    tag_120:\n      mload(0x40)\n      dup1\n      swap2\n      sub\n      swap1\n      revert\n        /* \"contracts/testing_final.sol\":1109:1110  _ */\n    tag_109:\n        /* \"contracts/testing_final.sol\":2558:3045  function claim(uint256 u_id) public  payable onlyowner  returns(funding[] memory) {... */\n      swap2\n      swap1\n      pop\n      jump\t// out\n        /* \"contracts/testing_final.sol\":464:489  uint public goal=20 ether */\n    tag_45:\n      sload(0x02)\n      dup2\n      jump\t// out\n        /* \"contracts/testing_final.sol\":3047:3100  function deactivate() public{... */\n    tag_49:\n        /* \"contracts/testing_final.sol\":3091:3096  false */\n      0x00\n        /* \"contracts/testing_final.sol\":3082:3088  active */\n      0x04\n      0x00\n        /* \"contracts/testing_final.sol\":3082:3096  active = false */\n      0x0100\n      exp\n      dup2\n      sload\n      dup2\n      0xff\n      mul\n      not\n      and\n      swap1\n      dup4\n      iszero\n      iszero\n      mul\n      or\n      swap1\n      sstore\n      pop\n        /* \"contracts/testing_final.sol\":3047:3100  function deactivate() public{... */\n      jump\t// out\n        /* \"contracts/testing_final.sol\":3104:3908  function refund()public payable  {... */\n    tag_51:\n        /* \"contracts/testing_final.sol\":3319:3323  goal */\n      sload(0x02)\n        /* \"contracts/testing_final.sol\":3295:3316  address(this).balance */\n      selfbalance\n        /* \"contracts/testing_final.sol\":3295:3323  address(this).balance < goal */\n      lt\n        /* \"contracts/testing_final.sol\":3295:3353  address(this).balance < goal || block.timestamp >= endtime */\n      dup1\n      tag_124\n      jumpi\n      pop\n        /* \"contracts/testing_final.sol\":3346:3353  endtime */\n      sload(0x03)\n        /* \"contracts/testing_final.sol\":3327:3342  block.timestamp */\n      timestamp\n        /* \"contracts/testing_final.sol\":3327:3353  block.timestamp >= endtime */\n      lt\n      iszero\n        /* \"contracts/testing_final.sol\":3295:3353  address(this).balance < goal || block.timestamp >= endtime */\n    tag_124:\n        /* \"contracts/testing_final.sol\":3292:3672  if(address(this).balance < goal || block.timestamp >= endtime){... */\n      iszero\n      tag_125\n      jumpi\n        /* \"contracts/testing_final.sol\":3542:3552  msg.sender */\n      caller\n        /* \"contracts/testing_final.sol\":3533:3562  payable (msg.sender).transfer */\n      0xffffffffffffffffffffffffffffffffffffffff\n      and\n        /* \"contracts/testing_final.sol\":3533:3585  payable (msg.sender).transfer(address(this).balance) */\n      0x08fc\n        /* \"contracts/testing_final.sol\":3563:3584  address(this).balance */\n      selfbalance\n        /* \"contracts/testing_final.sol\":3533:3585  payable (msg.sender).transfer(address(this).balance) */\n      swap1\n      dup2\n      iszero\n      mul\n      swap1\n      mload(0x40)\n      0x00\n      mload(0x40)\n      dup1\n      dup4\n      sub\n      dup2\n      dup6\n      dup9\n      dup9\n      call\n      swap4\n      pop\n      pop\n      pop\n      pop\n      iszero\n      dup1\n      iszero\n      tag_127\n      jumpi\n      returndatasize\n      0x00\n      dup1\n      returndatacopy\n      revert(0x00, returndatasize)\n    tag_127:\n      pop\n        /* \"contracts/testing_final.sol\":3292:3672  if(address(this).balance < goal || block.timestamp >= endtime){... */\n    tag_125:\n        /* \"contracts/testing_final.sol\":3781:3806  check_state.refund_claims */\n      0x03\n        /* \"contracts/testing_final.sol\":3773:3778  state */\n      0x00\n      dup1\n        /* \"contracts/testing_final.sol\":3773:3806  state = check_state.refund_claims */\n      0x0100\n      exp\n      dup2\n      sload\n      dup2\n      0xff\n      mul\n      not\n      and\n      swap1\n      dup4\n      0x03\n      dup2\n      gt\n      iszero\n      tag_128\n      jumpi\n      tag_129\n      tag_87\n      jump\t// in\n    tag_129:\n    tag_128:\n      mul\n      or\n      swap1\n      sstore\n      pop\n        /* \"contracts/testing_final.sol\":3818:3854  refund_claims(msg.sender, msg.value) */\n      0x13449f70035221bfd809cb8d8994f004f2f917bbc10a9f431bfa7b3f423c0b25\n        /* \"contracts/testing_final.sol\":3832:3842  msg.sender */\n      caller\n        /* \"contracts/testing_final.sol\":3844:3853  msg.value */\n      callvalue\n        /* \"contracts/testing_final.sol\":3818:3854  refund_claims(msg.sender, msg.value) */\n      mload(0x40)\n      tag_130\n      swap3\n      swap2\n      swap1\n      tag_117\n      jump\t// in\n    tag_130:\n      mload(0x40)\n      dup1\n      swap2\n      sub\n      swap1\n      log1\n        /* \"contracts/testing_final.sol\":3104:3908  function refund()public payable  {... */\n      jump\t// out\n        /* \"contracts/testing_final.sol\":704:723  uint public counter */\n    tag_54:\n      sload(0x05)\n      dup2\n      jump\t// out\n        /* \"contracts/testing_final.sol\":1491:1527  mapping(address=>uint) public  datas */\n    tag_60:\n      mstore(0x20, 0x07)\n      dup1\n      0x00\n      mstore\n      keccak256(0x00, 0x40)\n      0x00\n      swap2\n      pop\n      swap1\n      pop\n      sload\n      dup2\n      jump\t// out\n        /* \"contracts/testing_final.sol\":4061:4754  function userExists(uint _userAddress) public  view returns (string memory) {... */\n    tag_65:\n        /* \"contracts/testing_final.sol\":4122:4135  string memory */\n      0x60\n        /* \"contracts/testing_final.sol\":4148:4165  uint256 userCount */\n      0x00\n        /* \"contracts/testing_final.sol\":4168:4172  data */\n      0x06\n        /* \"contracts/testing_final.sol\":4168:4186  data[_userAddress] */\n      0x00\n        /* \"contracts/testing_final.sol\":4173:4185  _userAddress */\n      dup5\n        /* \"contracts/testing_final.sol\":4168:4186  data[_userAddress] */\n      dup2\n      mstore\n      0x20\n      add\n      swap1\n      dup2\n      mstore\n      0x20\n      add\n      0x00\n      keccak256\n        /* \"contracts/testing_final.sol\":4168:4193  data[_userAddress].length */\n      dup1\n      sload\n      swap1\n      pop\n        /* \"contracts/testing_final.sol\":4148:4193  uint256 userCount = data[_userAddress].length */\n      swap1\n      pop\n        /* \"contracts/testing_final.sol\":4209:4218  uint256 j */\n      0x00\n        /* \"contracts/testing_final.sol\":4204:4566  for (uint256 j = 0; j < userCount; j++) {... */\n    tag_132:\n        /* \"contracts/testing_final.sol\":4228:4237  userCount */\n      dup2\n        /* \"contracts/testing_final.sol\":4224:4225  j */\n      dup2\n        /* \"contracts/testing_final.sol\":4224:4237  j < userCount */\n      lt\n        /* \"contracts/testing_final.sol\":4204:4566  for (uint256 j = 0; j < userCount; j++) {... */\n      iszero\n      tag_133\n      jumpi\n        /* \"contracts/testing_final.sol\":4293:4305  _userAddress */\n      dup4\n        /* \"contracts/testing_final.sol\":4263:4267  data */\n      0x06\n        /* \"contracts/testing_final.sol\":4263:4281  data[_userAddress] */\n      0x00\n        /* \"contracts/testing_final.sol\":4268:4280  _userAddress */\n      dup7\n        /* \"contracts/testing_final.sol\":4263:4281  data[_userAddress] */\n      dup2\n      mstore\n      0x20\n      add\n      swap1\n      dup2\n      mstore\n      0x20\n      add\n      0x00\n      keccak256\n        /* \"contracts/testing_final.sol\":4282:4283  j */\n      dup3\n        /* \"contracts/testing_final.sol\":4263:4284  data[_userAddress][j] */\n      dup2\n      sload\n      dup2\n      lt\n      tag_135\n      jumpi\n      tag_136\n      tag_137\n      jump\t// in\n    tag_136:\n    tag_135:\n      swap1\n      0x00\n      mstore\n      keccak256(0x00, 0x20)\n      swap1\n      0x03\n      mul\n      add\n        /* \"contracts/testing_final.sol\":4263:4289  data[_userAddress][j].user */\n      0x02\n      add\n      sload\n        /* \"contracts/testing_final.sol\":4263:4305  data[_userAddress][j].user == _userAddress */\n      sub\n        /* \"contracts/testing_final.sol\":4259:4555  if (data[_userAddress][j].user == _userAddress) {... */\n      tag_139\n      jumpi\n        /* \"contracts/testing_final.sol\":4387:4416  return  \"user are registered\" */\n      mload(0x40)\n      dup1\n      0x40\n      add\n      0x40\n      mstore\n      dup1\n      0x13\n      dup2\n      mstore\n      0x20\n      add\n      0x7573657220617265207265676973746572656400000000000000000000000000\n      dup2\n      mstore\n      pop\n      swap3\n      pop\n      pop\n      pop\n      jump(tag_131)\n        /* \"contracts/testing_final.sol\":4259:4555  if (data[_userAddress][j].user == _userAddress) {... */\n    tag_139:\n        /* \"contracts/testing_final.sol\":4239:4242  j++ */\n      dup1\n      dup1\n      0x01\n      add\n      swap2\n      pop\n      pop\n        /* \"contracts/testing_final.sol\":4204:4566  for (uint256 j = 0; j < userCount; j++) {... */\n      jump(tag_132)\n    tag_133:\n      pop\n        /* \"contracts/testing_final.sol\":4714:4746  return \"user are not registered\" */\n      mload(0x40)\n      dup1\n      0x40\n      add\n      0x40\n      mstore\n      dup1\n      0x17\n      dup2\n      mstore\n      0x20\n      add\n      0x7573657220617265206e6f742072656769737465726564000000000000000000\n      dup2\n      mstore\n      pop\n      swap2\n      pop\n      pop\n        /* \"contracts/testing_final.sol\":4061:4754  function userExists(uint _userAddress) public  view returns (string memory) {... */\n    tag_131:\n      swap2\n      swap1\n      pop\n      jump\t// out\n        /* \"contracts/testing_final.sol\":676:697  address public  owner */\n    tag_70:\n      0x04\n      0x01\n      swap1\n      sload\n      swap1\n      0x0100\n      exp\n      swap1\n      div\n      0xffffffffffffffffffffffffffffffffffffffff\n      and\n      dup2\n      jump\t// out\n        /* \"contracts/testing_final.sol\":2079:2554  function contribute(address payable id,uint256   u_id,  uint amount) public payable onlyowner isactive allowedtime returns(funding[] memory) {... */\n    tag_76:\n        /* \"contracts/testing_final.sol\":2202:2218  funding[] memory */\n      0x60\n        /* \"contracts/testing_final.sol\":1058:1063  owner */\n      0x04\n      0x01\n      swap1\n      sload\n      swap1\n      0x0100\n      exp\n      swap1\n      div\n      0xffffffffffffffffffffffffffffffffffffffff\n      and\n        /* \"contracts/testing_final.sol\":1045:1063  msg.sender== owner */\n      0xffffffffffffffffffffffffffffffffffffffff\n      and\n        /* \"contracts/testing_final.sol\":1045:1055  msg.sender */\n      caller\n        /* \"contracts/testing_final.sol\":1045:1063  msg.sender== owner */\n      0xffffffffffffffffffffffffffffffffffffffff\n      and\n      eq\n        /* \"contracts/testing_final.sol\":1037:1099  require(msg.sender== owner,\"only owner can use this function\") */\n      tag_141\n      jumpi\n      mload(0x40)\n      0x08c379a000000000000000000000000000000000000000000000000000000000\n      dup2\n      mstore\n      0x04\n      add\n      tag_142\n      swap1\n      tag_108\n      jump\t// in\n    tag_142:\n      mload(0x40)\n      dup1\n      swap2\n      sub\n      swap1\n      revert\n    tag_141:\n        /* \"contracts/testing_final.sol\":846:852  active */\n      0x04\n      0x00\n      swap1\n      sload\n      swap1\n      0x0100\n      exp\n      swap1\n      div\n      0xff\n      and\n        /* \"contracts/testing_final.sol\":838:875  require(active,\"state is not active\") */\n      tag_144\n      jumpi\n      mload(0x40)\n      0x08c379a000000000000000000000000000000000000000000000000000000000\n      dup2\n      mstore\n      0x04\n      add\n      tag_145\n      swap1\n      tag_81\n      jump\t// in\n    tag_145:\n      mload(0x40)\n      dup1\n      swap2\n      sub\n      swap1\n      revert\n    tag_144:\n        /* \"contracts/testing_final.sol\":940:947  endtime */\n      sload(0x03)\n        /* \"contracts/testing_final.sol\":922:937  block.timestamp */\n      timestamp\n        /* \"contracts/testing_final.sol\":922:947  block.timestamp<= endtime */\n      gt\n      iszero\n        /* \"contracts/testing_final.sol\":914:988  require(block.timestamp<= endtime,\"time end not contribution are allowed\") */\n      tag_147\n      jumpi\n      mload(0x40)\n      0x08c379a000000000000000000000000000000000000000000000000000000000\n      dup2\n      mstore\n      0x04\n      add\n      tag_148\n      swap1\n      tag_149\n      jump\t// in\n    tag_148:\n      mload(0x40)\n      dup1\n      swap2\n      sub\n      swap1\n      revert\n    tag_147:\n        /* \"contracts/testing_final.sol\":2368:2393  check_state.contributions */\n      0x01\n        /* \"contracts/testing_final.sol\":2361:2366  state */\n      0x00\n      dup1\n        /* \"contracts/testing_final.sol\":2361:2393  state= check_state.contributions */\n      0x0100\n      exp\n      dup2\n      sload\n      dup2\n      0xff\n      mul\n      not\n      and\n      swap1\n      dup4\n      0x03\n      dup2\n      gt\n      iszero\n      tag_151\n      jumpi\n      tag_152\n      tag_87\n      jump\t// in\n    tag_152:\n    tag_151:\n      mul\n      or\n      swap1\n      sstore\n      pop\n        /* \"contracts/testing_final.sol\":2423:2429  amount */\n      dup2\n        /* \"contracts/testing_final.sol\":2402:2407  datas */\n      0x07\n        /* \"contracts/testing_final.sol\":2402:2419  datas[msg.sender] */\n      0x00\n        /* \"contracts/testing_final.sol\":2408:2418  msg.sender */\n      caller\n        /* \"contracts/testing_final.sol\":2402:2419  datas[msg.sender] */\n      0xffffffffffffffffffffffffffffffffffffffff\n      and\n      0xffffffffffffffffffffffffffffffffffffffff\n      and\n      dup2\n      mstore\n      0x20\n      add\n      swap1\n      dup2\n      mstore\n      0x20\n      add\n      0x00\n      keccak256\n      0x00\n        /* \"contracts/testing_final.sol\":2402:2429  datas[msg.sender] -= amount */\n      dup3\n      dup3\n      sload\n      tag_153\n      swap2\n      swap1\n      tag_154\n      jump\t// in\n    tag_153:\n      swap3\n      pop\n      pop\n      dup2\n      swap1\n      sstore\n      pop\n        /* \"contracts/testing_final.sol\":2453:2459  amount */\n      dup2\n        /* \"contracts/testing_final.sol\":2440:2445  datas */\n      0x07\n        /* \"contracts/testing_final.sol\":2440:2449  datas[id] */\n      0x00\n        /* \"contracts/testing_final.sol\":2446:2448  id */\n      dup7\n        /* \"contracts/testing_final.sol\":2440:2449  datas[id] */\n      0xffffffffffffffffffffffffffffffffffffffff\n      and\n      0xffffffffffffffffffffffffffffffffffffffff\n      and\n      dup2\n      mstore\n      0x20\n      add\n      swap1\n      dup2\n      mstore\n      0x20\n      add\n      0x00\n      keccak256\n      0x00\n        /* \"contracts/testing_final.sol\":2440:2459  datas[id] += amount */\n      dup3\n      dup3\n      sload\n      tag_155\n      swap2\n      swap1\n      tag_156\n      jump\t// in\n    tag_155:\n      swap3\n      pop\n      pop\n      dup2\n      swap1\n      sstore\n      pop\n        /* \"contracts/testing_final.sol\":2471:2503  contributions(msg.sender,amount) */\n      0x550b521cf33b3a7fe1363ea8bed6130500d8a27ced06a0fc13576b96cf155289\n        /* \"contracts/testing_final.sol\":2485:2495  msg.sender */\n      caller\n        /* \"contracts/testing_final.sol\":2496:2502  amount */\n      dup4\n        /* \"contracts/testing_final.sol\":2471:2503  contributions(msg.sender,amount) */\n      mload(0x40)\n      tag_157\n      swap3\n      swap2\n      swap1\n      tag_117\n      jump\t// in\n    tag_157:\n      mload(0x40)\n      dup1\n      swap2\n      sub\n      swap1\n      log1\n        /* \"contracts/testing_final.sol\":2519:2539  getUserDetails(u_id) */\n      tag_158\n        /* \"contracts/testing_final.sol\":2534:2538  u_id */\n      dup4\n        /* \"contracts/testing_final.sol\":2519:2533  getUserDetails */\n      tag_31\n        /* \"contracts/testing_final.sol\":2519:2539  getUserDetails(u_id) */\n      jump\t// in\n    tag_158:\n        /* \"contracts/testing_final.sol\":2510:2539  return   getUserDetails(u_id) */\n      swap1\n      pop\n        /* \"contracts/testing_final.sol\":2079:2554  function contribute(address payable id,uint256   u_id,  uint amount) public payable onlyowner isactive allowedtime returns(funding[] memory) {... */\n      swap4\n      swap3\n      pop\n      pop\n      pop\n      jump\t// out\n        /* \"contracts/testing_final.sol\":1534:1839  function adduser(  string memory _name,... */\n    tag_84:\n        /* \"contracts/testing_final.sol\":1655:1659  data */\n      0x06\n        /* \"contracts/testing_final.sol\":1655:1666  data[_user] */\n      0x00\n        /* \"contracts/testing_final.sol\":1660:1665  _user */\n      dup3\n        /* \"contracts/testing_final.sol\":1655:1666  data[_user] */\n      dup2\n      mstore\n      0x20\n      add\n      swap1\n      dup2\n      mstore\n      0x20\n      add\n      0x00\n      keccak256\n        /* \"contracts/testing_final.sol\":1681:1813  funding(... */\n      mload(0x40)\n      dup1\n      0x60\n      add\n      0x40\n      mstore\n      dup1\n        /* \"contracts/testing_final.sol\":1721:1726  _name */\n      dup6\n        /* \"contracts/testing_final.sol\":1681:1813  funding(... */\n      dup2\n      mstore\n      0x20\n      add\n        /* \"contracts/testing_final.sol\":1746:1758  _discription */\n      dup5\n        /* \"contracts/testing_final.sol\":1681:1813  funding(... */\n      dup2\n      mstore\n      0x20\n      add\n        /* \"contracts/testing_final.sol\":1778:1783  _user */\n      dup4\n        /* \"contracts/testing_final.sol\":1681:1813  funding(... */\n      dup2\n      mstore\n      pop\n        /* \"contracts/testing_final.sol\":1655:1826  data[_user].push(... */\n      swap1\n      dup1\n      0x01\n      dup2\n      sload\n      add\n      dup1\n      dup3\n      sstore\n      dup1\n      swap2\n      pop\n      pop\n      0x01\n      swap1\n      sub\n      swap1\n      0x00\n      mstore\n      keccak256(0x00, 0x20)\n      swap1\n      0x03\n      mul\n      add\n      0x00\n      swap1\n      swap2\n      swap1\n      swap2\n      swap1\n      swap2\n      pop\n      0x00\n      dup3\n      add\n      mload\n      dup2\n      0x00\n      add\n      swap1\n      dup2\n      tag_161\n      swap2\n      swap1\n      tag_162\n      jump\t// in\n    tag_161:\n      pop\n      0x20\n      dup3\n      add\n      mload\n      dup2\n      0x01\n      add\n      swap1\n      dup2\n      tag_163\n      swap2\n      swap1\n      tag_162\n      jump\t// in\n    tag_163:\n      pop\n      0x40\n      dup3\n      add\n      mload\n      dup2\n      0x02\n      add\n      sstore\n      pop\n      pop\n        /* \"contracts/testing_final.sol\":1534:1839  function adduser(  string memory _name,... */\n      pop\n      pop\n      pop\n      jump\t// out\n        /* \"#utility.yul\":7:97   */\n    tag_164:\n        /* \"#utility.yul\":41:48   */\n      0x00\n        /* \"#utility.yul\":84:89   */\n      dup2\n        /* \"#utility.yul\":77:90   */\n      iszero\n        /* \"#utility.yul\":70:91   */\n      iszero\n        /* \"#utility.yul\":59:91   */\n      swap1\n      pop\n        /* \"#utility.yul\":7:97   */\n      swap2\n      swap1\n      pop\n      jump\t// out\n        /* \"#utility.yul\":103:212   */\n    tag_165:\n        /* \"#utility.yul\":184:205   */\n      tag_233\n        /* \"#utility.yul\":199:204   */\n      dup2\n        /* \"#utility.yul\":184:205   */\n      tag_164\n      jump\t// in\n    tag_233:\n        /* \"#utility.yul\":179:182   */\n      dup3\n        /* \"#utility.yul\":172:206   */\n      mstore\n        /* \"#utility.yul\":103:212   */\n      pop\n      pop\n      jump\t// out\n        /* \"#utility.yul\":218:428   */\n    tag_21:\n        /* \"#utility.yul\":305:309   */\n      0x00\n        /* \"#utility.yul\":343:345   */\n      0x20\n        /* \"#utility.yul\":332:341   */\n      dup3\n        /* \"#utility.yul\":328:346   */\n      add\n        /* \"#utility.yul\":320:346   */\n      swap1\n      pop\n        /* \"#utility.yul\":356:421   */\n      tag_235\n        /* \"#utility.yul\":418:419   */\n      0x00\n        /* \"#utility.yul\":407:416   */\n      dup4\n        /* \"#utility.yul\":403:420   */\n      add\n        /* \"#utility.yul\":394:400   */\n      dup5\n        /* \"#utility.yul\":356:421   */\n      tag_165\n      jump\t// in\n    tag_235:\n        /* \"#utility.yul\":218:428   */\n      swap3\n      swap2\n      pop\n      pop\n      jump\t// out\n        /* \"#utility.yul\":434:509   */\n    tag_166:\n        /* \"#utility.yul\":467:473   */\n      0x00\n        /* \"#utility.yul\":500:502   */\n      0x40\n        /* \"#utility.yul\":494:503   */\n      mload\n        /* \"#utility.yul\":484:503   */\n      swap1\n      pop\n        /* \"#utility.yul\":434:509   */\n      swap1\n      jump\t// out\n        /* \"#utility.yul\":515:632   */\n    tag_167:\n        /* \"#utility.yul\":624:625   */\n      0x00\n        /* \"#utility.yul\":621:622   */\n      dup1\n        /* \"#utility.yul\":614:626   */\n      revert\n        /* \"#utility.yul\":638:755   */\n    tag_168:\n        /* \"#utility.yul\":747:748   */\n      0x00\n        /* \"#utility.yul\":744:745   */\n      dup1\n        /* \"#utility.yul\":737:749   */\n      revert\n        /* \"#utility.yul\":761:878   */\n    tag_169:\n        /* \"#utility.yul\":870:871   */\n      0x00\n        /* \"#utility.yul\":867:868   */\n      dup1\n        /* \"#utility.yul\":860:872   */\n      revert\n        /* \"#utility.yul\":884:1001   */\n    tag_170:\n        /* \"#utility.yul\":993:994   */\n      0x00\n        /* \"#utility.yul\":990:991   */\n      dup1\n        /* \"#utility.yul\":983:995   */\n      revert\n        /* \"#utility.yul\":1007:1109   */\n    tag_171:\n        /* \"#utility.yul\":1048:1054   */\n      0x00\n        /* \"#utility.yul\":1099:1101   */\n      0x1f\n        /* \"#utility.yul\":1095:1102   */\n      not\n        /* \"#utility.yul\":1090:1092   */\n      0x1f\n        /* \"#utility.yul\":1083:1088   */\n      dup4\n        /* \"#utility.yul\":1079:1093   */\n      add\n        /* \"#utility.yul\":1075:1103   */\n      and\n        /* \"#utility.yul\":1065:1103   */\n      swap1\n      pop\n        /* \"#utility.yul\":1007:1109   */\n      swap2\n      swap1\n      pop\n      jump\t// out\n        /* \"#utility.yul\":1115:1295   */\n    tag_172:\n        /* \"#utility.yul\":1163:1240   */\n      0x4e487b7100000000000000000000000000000000000000000000000000000000\n        /* \"#utility.yul\":1160:1161   */\n      0x00\n        /* \"#utility.yul\":1153:1241   */\n      mstore\n        /* \"#utility.yul\":1260:1264   */\n      0x41\n        /* \"#utility.yul\":1257:1258   */\n      0x04\n        /* \"#utility.yul\":1250:1265   */\n      mstore\n        /* \"#utility.yul\":1284:1288   */\n      0x24\n        /* \"#utility.yul\":1281:1282   */\n      0x00\n        /* \"#utility.yul\":1274:1289   */\n      revert\n        /* \"#utility.yul\":1301:1582   */\n    tag_173:\n        /* \"#utility.yul\":1384:1411   */\n      tag_244\n        /* \"#utility.yul\":1406:1410   */\n      dup3\n        /* \"#utility.yul\":1384:1411   */\n      tag_171\n      jump\t// in\n    tag_244:\n        /* \"#utility.yul\":1376:1382   */\n      dup2\n        /* \"#utility.yul\":1372:1412   */\n      add\n        /* \"#utility.yul\":1514:1520   */\n      dup2\n        /* \"#utility.yul\":1502:1512   */\n      dup2\n        /* \"#utility.yul\":1499:1521   */\n      lt\n        /* \"#utility.yul\":1478:1496   */\n      0xffffffffffffffff\n        /* \"#utility.yul\":1466:1476   */\n      dup3\n        /* \"#utility.yul\":1463:1497   */\n      gt\n        /* \"#utility.yul\":1460:1522   */\n      or\n        /* \"#utility.yul\":1457:1545   */\n      iszero\n      tag_245\n      jumpi\n        /* \"#utility.yul\":1525:1543   */\n      tag_246\n      tag_172\n      jump\t// in\n    tag_246:\n        /* \"#utility.yul\":1457:1545   */\n    tag_245:\n        /* \"#utility.yul\":1565:1575   */\n      dup1\n        /* \"#utility.yul\":1561:1563   */\n      0x40\n        /* \"#utility.yul\":1554:1576   */\n      mstore\n        /* \"#utility.yul\":1344:1582   */\n      pop\n        /* \"#utility.yul\":1301:1582   */\n      pop\n      pop\n      jump\t// out\n        /* \"#utility.yul\":1588:1717   */\n    tag_174:\n        /* \"#utility.yul\":1622:1628   */\n      0x00\n        /* \"#utility.yul\":1649:1669   */\n      tag_248\n      tag_166\n      jump\t// in\n    tag_248:\n        /* \"#utility.yul\":1639:1669   */\n      swap1\n      pop\n        /* \"#utility.yul\":1678:1711   */\n      tag_249\n        /* \"#utility.yul\":1706:1710   */\n      dup3\n        /* \"#utility.yul\":1698:1704   */\n      dup3\n        /* \"#utility.yul\":1678:1711   */\n      tag_173\n      jump\t// in\n    tag_249:\n        /* \"#utility.yul\":1588:1717   */\n      swap2\n      swap1\n      pop\n      jump\t// out\n        /* \"#utility.yul\":1723:2031   */\n    tag_175:\n        /* \"#utility.yul\":1785:1789   */\n      0x00\n        /* \"#utility.yul\":1875:1893   */\n      0xffffffffffffffff\n        /* \"#utility.yul\":1867:1873   */\n      dup3\n        /* \"#utility.yul\":1864:1894   */\n      gt\n        /* \"#utility.yul\":1861:1917   */\n      iszero\n      tag_251\n      jumpi\n        /* \"#utility.yul\":1897:1915   */\n      tag_252\n      tag_172\n      jump\t// in\n    tag_252:\n        /* \"#utility.yul\":1861:1917   */\n    tag_251:\n        /* \"#utility.yul\":1935:1964   */\n      tag_253\n        /* \"#utility.yul\":1957:1963   */\n      dup3\n        /* \"#utility.yul\":1935:1964   */\n      tag_171\n      jump\t// in\n    tag_253:\n        /* \"#utility.yul\":1927:1964   */\n      swap1\n      pop\n        /* \"#utility.yul\":2019:2023   */\n      0x20\n        /* \"#utility.yul\":2013:2017   */\n      dup2\n        /* \"#utility.yul\":2009:2024   */\n      add\n        /* \"#utility.yul\":2001:2024   */\n      swap1\n      pop\n        /* \"#utility.yul\":1723:2031   */\n      swap2\n      swap1\n      pop\n      jump\t// out\n        /* \"#utility.yul\":2037:2183   */\n    tag_176:\n        /* \"#utility.yul\":2134:2140   */\n      dup3\n        /* \"#utility.yul\":2129:2132   */\n      dup2\n        /* \"#utility.yul\":2124:2127   */\n      dup4\n        /* \"#utility.yul\":2111:2141   */\n      calldatacopy\n        /* \"#utility.yul\":2175:2176   */\n      0x00\n        /* \"#utility.yul\":2166:2172   */\n      dup4\n        /* \"#utility.yul\":2161:2164   */\n      dup4\n        /* \"#utility.yul\":2157:2173   */\n      add\n        /* \"#utility.yul\":2150:2177   */\n      mstore\n        /* \"#utility.yul\":2037:2183   */\n      pop\n      pop\n      pop\n      jump\t// out\n        /* \"#utility.yul\":2189:2614   */\n    tag_177:\n        /* \"#utility.yul\":2267:2272   */\n      0x00\n        /* \"#utility.yul\":2292:2358   */\n      tag_256\n        /* \"#utility.yul\":2308:2357   */\n      tag_257\n        /* \"#utility.yul\":2350:2356   */\n      dup5\n        /* \"#utility.yul\":2308:2357   */\n      tag_175\n      jump\t// in\n    tag_257:\n        /* \"#utility.yul\":2292:2358   */\n      tag_174\n      jump\t// in\n    tag_256:\n        /* \"#utility.yul\":2283:2358   */\n      swap1\n      pop\n        /* \"#utility.yul\":2381:2387   */\n      dup3\n        /* \"#utility.yul\":2374:2379   */\n      dup2\n        /* \"#utility.yul\":2367:2388   */\n      mstore\n        /* \"#utility.yul\":2419:2423   */\n      0x20\n        /* \"#utility.yul\":2412:2417   */\n      dup2\n        /* \"#utility.yul\":2408:2424   */\n      add\n        /* \"#utility.yul\":2457:2460   */\n      dup5\n        /* \"#utility.yul\":2448:2454   */\n      dup5\n        /* \"#utility.yul\":2443:2446   */\n      dup5\n        /* \"#utility.yul\":2439:2455   */\n      add\n        /* \"#utility.yul\":2436:2461   */\n      gt\n        /* \"#utility.yul\":2433:2545   */\n      iszero\n      tag_258\n      jumpi\n        /* \"#utility.yul\":2464:2543   */\n      tag_259\n      tag_170\n      jump\t// in\n    tag_259:\n        /* \"#utility.yul\":2433:2545   */\n    tag_258:\n        /* \"#utility.yul\":2554:2608   */\n      tag_260\n        /* \"#utility.yul\":2601:2607   */\n      dup5\n        /* \"#utility.yul\":2596:2599   */\n      dup3\n        /* \"#utility.yul\":2591:2594   */\n      dup6\n        /* \"#utility.yul\":2554:2608   */\n      tag_176\n      jump\t// in\n    tag_260:\n        /* \"#utility.yul\":2273:2614   */\n      pop\n        /* \"#utility.yul\":2189:2614   */\n      swap4\n      swap3\n      pop\n      pop\n      pop\n      jump\t// out\n        /* \"#utility.yul\":2634:2974   */\n    tag_178:\n        /* \"#utility.yul\":2690:2695   */\n      0x00\n        /* \"#utility.yul\":2739:2742   */\n      dup3\n        /* \"#utility.yul\":2732:2736   */\n      0x1f\n        /* \"#utility.yul\":2724:2730   */\n      dup4\n        /* \"#utility.yul\":2720:2737   */\n      add\n        /* \"#utility.yul\":2716:2743   */\n      slt\n        /* \"#utility.yul\":2706:2828   */\n      tag_262\n      jumpi\n        /* \"#utility.yul\":2747:2826   */\n      tag_263\n      tag_169\n      jump\t// in\n    tag_263:\n        /* \"#utility.yul\":2706:2828   */\n    tag_262:\n        /* \"#utility.yul\":2864:2870   */\n      dup2\n        /* \"#utility.yul\":2851:2871   */\n      calldataload\n        /* \"#utility.yul\":2889:2968   */\n      tag_264\n        /* \"#utility.yul\":2964:2967   */\n      dup5\n        /* \"#utility.yul\":2956:2962   */\n      dup3\n        /* \"#utility.yul\":2949:2953   */\n      0x20\n        /* \"#utility.yul\":2941:2947   */\n      dup7\n        /* \"#utility.yul\":2937:2954   */\n      add\n        /* \"#utility.yul\":2889:2968   */\n      tag_177\n      jump\t// in\n    tag_264:\n        /* \"#utility.yul\":2880:2968   */\n      swap2\n      pop\n        /* \"#utility.yul\":2696:2974   */\n      pop\n        /* \"#utility.yul\":2634:2974   */\n      swap3\n      swap2\n      pop\n      pop\n      jump\t// out\n        /* \"#utility.yul\":2980:3057   */\n    tag_179:\n        /* \"#utility.yul\":3017:3024   */\n      0x00\n        /* \"#utility.yul\":3046:3051   */\n      dup2\n        /* \"#utility.yul\":3035:3051   */\n      swap1\n      pop\n        /* \"#utility.yul\":2980:3057   */\n      swap2\n      swap1\n      pop\n      jump\t// out\n        /* \"#utility.yul\":3063:3185   */\n    tag_180:\n        /* \"#utility.yul\":3136:3160   */\n      tag_267\n        /* \"#utility.yul\":3154:3159   */\n      dup2\n        /* \"#utility.yul\":3136:3160   */\n      tag_179\n      jump\t// in\n    tag_267:\n        /* \"#utility.yul\":3129:3134   */\n      dup2\n        /* \"#utility.yul\":3126:3161   */\n      eq\n        /* \"#utility.yul\":3116:3179   */\n      tag_268\n      jumpi\n        /* \"#utility.yul\":3175:3176   */\n      0x00\n        /* \"#utility.yul\":3172:3173   */\n      dup1\n        /* \"#utility.yul\":3165:3177   */\n      revert\n        /* \"#utility.yul\":3116:3179   */\n    tag_268:\n        /* \"#utility.yul\":3063:3185   */\n      pop\n      jump\t// out\n        /* \"#utility.yul\":3191:3330   */\n    tag_181:\n        /* \"#utility.yul\":3237:3242   */\n      0x00\n        /* \"#utility.yul\":3275:3281   */\n      dup2\n        /* \"#utility.yul\":3262:3282   */\n      calldataload\n        /* \"#utility.yul\":3253:3282   */\n      swap1\n      pop\n        /* \"#utility.yul\":3291:3324   */\n      tag_270\n        /* \"#utility.yul\":3318:3323   */\n      dup2\n        /* \"#utility.yul\":3291:3324   */\n      tag_180\n      jump\t// in\n    tag_270:\n        /* \"#utility.yul\":3191:3330   */\n      swap3\n      swap2\n      pop\n      pop\n      jump\t// out\n        /* \"#utility.yul\":3336:4315   */\n    tag_25:\n        /* \"#utility.yul\":3433:3439   */\n      0x00\n        /* \"#utility.yul\":3441:3447   */\n      dup1\n        /* \"#utility.yul\":3449:3455   */\n      0x00\n        /* \"#utility.yul\":3498:3500   */\n      0x60\n        /* \"#utility.yul\":3486:3495   */\n      dup5\n        /* \"#utility.yul\":3477:3484   */\n      dup7\n        /* \"#utility.yul\":3473:3496   */\n      sub\n        /* \"#utility.yul\":3469:3501   */\n      slt\n        /* \"#utility.yul\":3466:3585   */\n      iszero\n      tag_272\n      jumpi\n        /* \"#utility.yul\":3504:3583   */\n      tag_273\n      tag_167\n      jump\t// in\n    tag_273:\n        /* \"#utility.yul\":3466:3585   */\n    tag_272:\n        /* \"#utility.yul\":3652:3653   */\n      0x00\n        /* \"#utility.yul\":3641:3650   */\n      dup5\n        /* \"#utility.yul\":3637:3654   */\n      add\n        /* \"#utility.yul\":3624:3655   */\n      calldataload\n        /* \"#utility.yul\":3682:3700   */\n      0xffffffffffffffff\n        /* \"#utility.yul\":3674:3680   */\n      dup2\n        /* \"#utility.yul\":3671:3701   */\n      gt\n        /* \"#utility.yul\":3668:3785   */\n      iszero\n      tag_274\n      jumpi\n        /* \"#utility.yul\":3704:3783   */\n      tag_275\n      tag_168\n      jump\t// in\n    tag_275:\n        /* \"#utility.yul\":3668:3785   */\n    tag_274:\n        /* \"#utility.yul\":3809:3872   */\n      tag_276\n        /* \"#utility.yul\":3864:3871   */\n      dup7\n        /* \"#utility.yul\":3855:3861   */\n      dup3\n        /* \"#utility.yul\":3844:3853   */\n      dup8\n        /* \"#utility.yul\":3840:3862   */\n      add\n        /* \"#utility.yul\":3809:3872   */\n      tag_178\n      jump\t// in\n    tag_276:\n        /* \"#utility.yul\":3799:3872   */\n      swap4\n      pop\n        /* \"#utility.yul\":3595:3882   */\n      pop\n        /* \"#utility.yul\":3949:3951   */\n      0x20\n        /* \"#utility.yul\":3938:3947   */\n      dup5\n        /* \"#utility.yul\":3934:3952   */\n      add\n        /* \"#utility.yul\":3921:3953   */\n      calldataload\n        /* \"#utility.yul\":3980:3998   */\n      0xffffffffffffffff\n        /* \"#utility.yul\":3972:3978   */\n      dup2\n        /* \"#utility.yul\":3969:3999   */\n      gt\n        /* \"#utility.yul\":3966:4083   */\n      iszero\n      tag_277\n      jumpi\n        /* \"#utility.yul\":4002:4081   */\n      tag_278\n      tag_168\n      jump\t// in\n    tag_278:\n        /* \"#utility.yul\":3966:4083   */\n    tag_277:\n        /* \"#utility.yul\":4107:4170   */\n      tag_279\n        /* \"#utility.yul\":4162:4169   */\n      dup7\n        /* \"#utility.yul\":4153:4159   */\n      dup3\n        /* \"#utility.yul\":4142:4151   */\n      dup8\n        /* \"#utility.yul\":4138:4160   */\n      add\n        /* \"#utility.yul\":4107:4170   */\n      tag_178\n      jump\t// in\n    tag_279:\n        /* \"#utility.yul\":4097:4170   */\n      swap3\n      pop\n        /* \"#utility.yul\":3892:4180   */\n      pop\n        /* \"#utility.yul\":4219:4221   */\n      0x40\n        /* \"#utility.yul\":4245:4298   */\n      tag_280\n        /* \"#utility.yul\":4290:4297   */\n      dup7\n        /* \"#utility.yul\":4281:4287   */\n      dup3\n        /* \"#utility.yul\":4270:4279   */\n      dup8\n        /* \"#utility.yul\":4266:4288   */\n      add\n        /* \"#utility.yul\":4245:4298   */\n      tag_181\n      jump\t// in\n    tag_280:\n        /* \"#utility.yul\":4235:4298   */\n      swap2\n      pop\n        /* \"#utility.yul\":4190:4308   */\n      pop\n        /* \"#utility.yul\":3336:4315   */\n      swap3\n      pop\n      swap3\n      pop\n      swap3\n      jump\t// out\n        /* \"#utility.yul\":4321:4650   */\n    tag_30:\n        /* \"#utility.yul\":4380:4386   */\n      0x00\n        /* \"#utility.yul\":4429:4431   */\n      0x20\n        /* \"#utility.yul\":4417:4426   */\n      dup3\n        /* \"#utility.yul\":4408:4415   */\n      dup5\n        /* \"#utility.yul\":4404:4427   */\n      sub\n        /* \"#utility.yul\":4400:4432   */\n      slt\n        /* \"#utility.yul\":4397:4516   */\n      iszero\n      tag_282\n      jumpi\n        /* \"#utility.yul\":4435:4514   */\n      tag_283\n      tag_167\n      jump\t// in\n    tag_283:\n        /* \"#utility.yul\":4397:4516   */\n    tag_282:\n        /* \"#utility.yul\":4555:4556   */\n      0x00\n        /* \"#utility.yul\":4580:4633   */\n      tag_284\n        /* \"#utility.yul\":4625:4632   */\n      dup5\n        /* \"#utility.yul\":4616:4622   */\n      dup3\n        /* \"#utility.yul\":4605:4614   */\n      dup6\n        /* \"#utility.yul\":4601:4623   */\n      add\n        /* \"#utility.yul\":4580:4633   */\n      tag_181\n      jump\t// in\n    tag_284:\n        /* \"#utility.yul\":4570:4633   */\n      swap2\n      pop\n        /* \"#utility.yul\":4526:4643   */\n      pop\n        /* \"#utility.yul\":4321:4650   */\n      swap3\n      swap2\n      pop\n      pop\n      jump\t// out\n        /* \"#utility.yul\":4656:4794   */\n    tag_182:\n        /* \"#utility.yul\":4747:4753   */\n      0x00\n        /* \"#utility.yul\":4781:4786   */\n      dup2\n        /* \"#utility.yul\":4775:4787   */\n      mload\n        /* \"#utility.yul\":4765:4787   */\n      swap1\n      pop\n        /* \"#utility.yul\":4656:4794   */\n      swap2\n      swap1\n      pop\n      jump\t// out\n        /* \"#utility.yul\":4800:5008   */\n    tag_183:\n        /* \"#utility.yul\":4923:4934   */\n      0x00\n        /* \"#utility.yul\":4957:4963   */\n      dup3\n        /* \"#utility.yul\":4952:4955   */\n      dup3\n        /* \"#utility.yul\":4945:4964   */\n      mstore\n        /* \"#utility.yul\":4997:5001   */\n      0x20\n        /* \"#utility.yul\":4992:4995   */\n      dup3\n        /* \"#utility.yul\":4988:5002   */\n      add\n        /* \"#utility.yul\":4973:5002   */\n      swap1\n      pop\n        /* \"#utility.yul\":4800:5008   */\n      swap3\n      swap2\n      pop\n      pop\n      jump\t// out\n        /* \"#utility.yul\":5014:5170   */\n    tag_184:\n        /* \"#utility.yul\":5105:5109   */\n      0x00\n        /* \"#utility.yul\":5128:5131   */\n      dup2\n        /* \"#utility.yul\":5120:5131   */\n      swap1\n      pop\n        /* \"#utility.yul\":5158:5162   */\n      0x20\n        /* \"#utility.yul\":5153:5156   */\n      dup3\n        /* \"#utility.yul\":5149:5163   */\n      add\n        /* \"#utility.yul\":5141:5163   */\n      swap1\n      pop\n        /* \"#utility.yul\":5014:5170   */\n      swap2\n      swap1\n      pop\n      jump\t// out\n        /* \"#utility.yul\":5176:5275   */\n    tag_185:\n        /* \"#utility.yul\":5228:5234   */\n      0x00\n        /* \"#utility.yul\":5262:5267   */\n      dup2\n        /* \"#utility.yul\":5256:5268   */\n      mload\n        /* \"#utility.yul\":5246:5268   */\n      swap1\n      pop\n        /* \"#utility.yul\":5176:5275   */\n      swap2\n      swap1\n      pop\n      jump\t// out\n        /* \"#utility.yul\":5281:5440   */\n    tag_186:\n        /* \"#utility.yul\":5355:5366   */\n      0x00\n        /* \"#utility.yul\":5389:5395   */\n      dup3\n        /* \"#utility.yul\":5384:5387   */\n      dup3\n        /* \"#utility.yul\":5377:5396   */\n      mstore\n        /* \"#utility.yul\":5429:5433   */\n      0x20\n        /* \"#utility.yul\":5424:5427   */\n      dup3\n        /* \"#utility.yul\":5420:5434   */\n      add\n        /* \"#utility.yul\":5405:5434   */\n      swap1\n      pop\n        /* \"#utility.yul\":5281:5440   */\n      swap3\n      swap2\n      pop\n      pop\n      jump\t// out\n        /* \"#utility.yul\":5446:5692   */\n    tag_187:\n        /* \"#utility.yul\":5527:5528   */\n      0x00\n        /* \"#utility.yul\":5537:5650   */\n    tag_291:\n        /* \"#utility.yul\":5551:5557   */\n      dup4\n        /* \"#utility.yul\":5548:5549   */\n      dup2\n        /* \"#utility.yul\":5545:5558   */\n      lt\n        /* \"#utility.yul\":5537:5650   */\n      iszero\n      tag_293\n      jumpi\n        /* \"#utility.yul\":5636:5637   */\n      dup1\n        /* \"#utility.yul\":5631:5634   */\n      dup3\n        /* \"#utility.yul\":5627:5638   */\n      add\n        /* \"#utility.yul\":5621:5639   */\n      mload\n        /* \"#utility.yul\":5617:5618   */\n      dup2\n        /* \"#utility.yul\":5612:5615   */\n      dup5\n        /* \"#utility.yul\":5608:5619   */\n      add\n        /* \"#utility.yul\":5601:5640   */\n      mstore\n        /* \"#utility.yul\":5573:5575   */\n      0x20\n        /* \"#utility.yul\":5570:5571   */\n      dup2\n        /* \"#utility.yul\":5566:5576   */\n      add\n        /* \"#utility.yul\":5561:5576   */\n      swap1\n      pop\n        /* \"#utility.yul\":5537:5650   */\n      jump(tag_291)\n    tag_293:\n        /* \"#utility.yul\":5684:5685   */\n      0x00\n        /* \"#utility.yul\":5675:5681   */\n      dup5\n        /* \"#utility.yul\":5670:5673   */\n      dup5\n        /* \"#utility.yul\":5666:5682   */\n      add\n        /* \"#utility.yul\":5659:5686   */\n      mstore\n        /* \"#utility.yul\":5508:5692   */\n      pop\n        /* \"#utility.yul\":5446:5692   */\n      pop\n      pop\n      pop\n      jump\t// out\n        /* \"#utility.yul\":5698:6055   */\n    tag_188:\n        /* \"#utility.yul\":5776:5779   */\n      0x00\n        /* \"#utility.yul\":5804:5843   */\n      tag_295\n        /* \"#utility.yul\":5837:5842   */\n      dup3\n        /* \"#utility.yul\":5804:5843   */\n      tag_185\n      jump\t// in\n    tag_295:\n        /* \"#utility.yul\":5859:5920   */\n      tag_296\n        /* \"#utility.yul\":5913:5919   */\n      dup2\n        /* \"#utility.yul\":5908:5911   */\n      dup6\n        /* \"#utility.yul\":5859:5920   */\n      tag_186\n      jump\t// in\n    tag_296:\n        /* \"#utility.yul\":5852:5920   */\n      swap4\n      pop\n        /* \"#utility.yul\":5929:5994   */\n      tag_297\n        /* \"#utility.yul\":5987:5993   */\n      dup2\n        /* \"#utility.yul\":5982:5985   */\n      dup6\n        /* \"#utility.yul\":5975:5979   */\n      0x20\n        /* \"#utility.yul\":5968:5973   */\n      dup7\n        /* \"#utility.yul\":5964:5980   */\n      add\n        /* \"#utility.yul\":5929:5994   */\n      tag_187\n      jump\t// in\n    tag_297:\n        /* \"#utility.yul\":6019:6048   */\n      tag_298\n        /* \"#utility.yul\":6041:6047   */\n      dup2\n        /* \"#utility.yul\":6019:6048   */\n      tag_171\n      jump\t// in\n    tag_298:\n        /* \"#utility.yul\":6014:6017   */\n      dup5\n        /* \"#utility.yul\":6010:6049   */\n      add\n        /* \"#utility.yul\":6003:6049   */\n      swap2\n      pop\n        /* \"#utility.yul\":5780:6055   */\n      pop\n        /* \"#utility.yul\":5698:6055   */\n      swap3\n      swap2\n      pop\n      pop\n      jump\t// out\n        /* \"#utility.yul\":6061:6169   */\n    tag_189:\n        /* \"#utility.yul\":6138:6162   */\n      tag_300\n        /* \"#utility.yul\":6156:6161   */\n      dup2\n        /* \"#utility.yul\":6138:6162   */\n      tag_179\n      jump\t// in\n    tag_300:\n        /* \"#utility.yul\":6133:6136   */\n      dup3\n        /* \"#utility.yul\":6126:6163   */\n      mstore\n        /* \"#utility.yul\":6061:6169   */\n      pop\n      pop\n      jump\t// out\n        /* \"#utility.yul\":6237:7083   */\n    tag_190:\n        /* \"#utility.yul\":6344:6347   */\n      0x00\n        /* \"#utility.yul\":6380:6384   */\n      0x60\n        /* \"#utility.yul\":6375:6378   */\n      dup4\n        /* \"#utility.yul\":6371:6385   */\n      add\n        /* \"#utility.yul\":6467:6471   */\n      0x00\n        /* \"#utility.yul\":6460:6465   */\n      dup4\n        /* \"#utility.yul\":6456:6472   */\n      add\n        /* \"#utility.yul\":6450:6473   */\n      mload\n        /* \"#utility.yul\":6520:6523   */\n      dup5\n        /* \"#utility.yul\":6514:6518   */\n      dup3\n        /* \"#utility.yul\":6510:6524   */\n      sub\n        /* \"#utility.yul\":6503:6507   */\n      0x00\n        /* \"#utility.yul\":6498:6501   */\n      dup7\n        /* \"#utility.yul\":6494:6508   */\n      add\n        /* \"#utility.yul\":6487:6525   */\n      mstore\n        /* \"#utility.yul\":6546:6619   */\n      tag_302\n        /* \"#utility.yul\":6614:6618   */\n      dup3\n        /* \"#utility.yul\":6600:6612   */\n      dup3\n        /* \"#utility.yul\":6546:6619   */\n      tag_188\n      jump\t// in\n    tag_302:\n        /* \"#utility.yul\":6538:6619   */\n      swap2\n      pop\n        /* \"#utility.yul\":6395:6630   */\n      pop\n        /* \"#utility.yul\":6719:6723   */\n      0x20\n        /* \"#utility.yul\":6712:6717   */\n      dup4\n        /* \"#utility.yul\":6708:6724   */\n      add\n        /* \"#utility.yul\":6702:6725   */\n      mload\n        /* \"#utility.yul\":6772:6775   */\n      dup5\n        /* \"#utility.yul\":6766:6770   */\n      dup3\n        /* \"#utility.yul\":6762:6776   */\n      sub\n        /* \"#utility.yul\":6755:6759   */\n      0x20\n        /* \"#utility.yul\":6750:6753   */\n      dup7\n        /* \"#utility.yul\":6746:6760   */\n      add\n        /* \"#utility.yul\":6739:6777   */\n      mstore\n        /* \"#utility.yul\":6798:6871   */\n      tag_303\n        /* \"#utility.yul\":6866:6870   */\n      dup3\n        /* \"#utility.yul\":6852:6864   */\n      dup3\n        /* \"#utility.yul\":6798:6871   */\n      tag_188\n      jump\t// in\n    tag_303:\n        /* \"#utility.yul\":6790:6871   */\n      swap2\n      pop\n        /* \"#utility.yul\":6640:6882   */\n      pop\n        /* \"#utility.yul\":6964:6968   */\n      0x40\n        /* \"#utility.yul\":6957:6962   */\n      dup4\n        /* \"#utility.yul\":6953:6969   */\n      add\n        /* \"#utility.yul\":6947:6970   */\n      mload\n        /* \"#utility.yul\":6983:7046   */\n      tag_304\n        /* \"#utility.yul\":7040:7044   */\n      0x40\n        /* \"#utility.yul\":7035:7038   */\n      dup7\n        /* \"#utility.yul\":7031:7045   */\n      add\n        /* \"#utility.yul\":7017:7029   */\n      dup3\n        /* \"#utility.yul\":6983:7046   */\n      tag_189\n      jump\t// in\n    tag_304:\n        /* \"#utility.yul\":6892:7056   */\n      pop\n        /* \"#utility.yul\":7073:7077   */\n      dup1\n        /* \"#utility.yul\":7066:7077   */\n      swap2\n      pop\n        /* \"#utility.yul\":6349:7083   */\n      pop\n        /* \"#utility.yul\":6237:7083   */\n      swap3\n      swap2\n      pop\n      pop\n      jump\t// out\n        /* \"#utility.yul\":7089:7341   */\n    tag_191:\n        /* \"#utility.yul\":7206:7216   */\n      0x00\n        /* \"#utility.yul\":7241:7335   */\n      tag_306\n        /* \"#utility.yul\":7331:7334   */\n      dup4\n        /* \"#utility.yul\":7323:7329   */\n      dup4\n        /* \"#utility.yul\":7241:7335   */\n      tag_190\n      jump\t// in\n    tag_306:\n        /* \"#utility.yul\":7227:7335   */\n      swap1\n      pop\n        /* \"#utility.yul\":7089:7341   */\n      swap3\n      swap2\n      pop\n      pop\n      jump\t// out\n        /* \"#utility.yul\":7347:7484   */\n    tag_192:\n        /* \"#utility.yul\":7441:7445   */\n      0x00\n        /* \"#utility.yul\":7473:7477   */\n      0x20\n        /* \"#utility.yul\":7468:7471   */\n      dup3\n        /* \"#utility.yul\":7464:7478   */\n      add\n        /* \"#utility.yul\":7456:7478   */\n      swap1\n      pop\n        /* \"#utility.yul\":7347:7484   */\n      swap2\n      swap1\n      pop\n      jump\t// out\n        /* \"#utility.yul\":7556:8659   */\n    tag_193:\n        /* \"#utility.yul\":7723:7726   */\n      0x00\n        /* \"#utility.yul\":7752:7830   */\n      tag_309\n        /* \"#utility.yul\":7824:7829   */\n      dup3\n        /* \"#utility.yul\":7752:7830   */\n      tag_182\n      jump\t// in\n    tag_309:\n        /* \"#utility.yul\":7846:7956   */\n      tag_310\n        /* \"#utility.yul\":7949:7955   */\n      dup2\n        /* \"#utility.yul\":7944:7947   */\n      dup6\n        /* \"#utility.yul\":7846:7956   */\n      tag_183\n      jump\t// in\n    tag_310:\n        /* \"#utility.yul\":7839:7956   */\n      swap4\n      pop\n        /* \"#utility.yul\":7982:7985   */\n      dup4\n        /* \"#utility.yul\":8027:8031   */\n      0x20\n        /* \"#utility.yul\":8019:8025   */\n      dup3\n        /* \"#utility.yul\":8015:8032   */\n      mul\n        /* \"#utility.yul\":8010:8013   */\n      dup6\n        /* \"#utility.yul\":8006:8033   */\n      add\n        /* \"#utility.yul\":8057:8137   */\n      tag_311\n        /* \"#utility.yul\":8131:8136   */\n      dup6\n        /* \"#utility.yul\":8057:8137   */\n      tag_184\n      jump\t// in\n    tag_311:\n        /* \"#utility.yul\":8160:8167   */\n      dup1\n        /* \"#utility.yul\":8191:8192   */\n      0x00\n        /* \"#utility.yul\":8176:8614   */\n    tag_312:\n        /* \"#utility.yul\":8201:8207   */\n      dup6\n        /* \"#utility.yul\":8198:8199   */\n      dup2\n        /* \"#utility.yul\":8195:8208   */\n      lt\n        /* \"#utility.yul\":8176:8614   */\n      iszero\n      tag_314\n      jumpi\n        /* \"#utility.yul\":8272:8281   */\n      dup5\n        /* \"#utility.yul\":8266:8270   */\n      dup5\n        /* \"#utility.yul\":8262:8282   */\n      sub\n        /* \"#utility.yul\":8257:8260   */\n      dup10\n        /* \"#utility.yul\":8250:8283   */\n      mstore\n        /* \"#utility.yul\":8323:8329   */\n      dup2\n        /* \"#utility.yul\":8317:8330   */\n      mload\n        /* \"#utility.yul\":8351:8463   */\n      tag_315\n        /* \"#utility.yul\":8458:8462   */\n      dup6\n        /* \"#utility.yul\":8443:8456   */\n      dup3\n        /* \"#utility.yul\":8351:8463   */\n      tag_191\n      jump\t// in\n    tag_315:\n        /* \"#utility.yul\":8343:8463   */\n      swap5\n      pop\n        /* \"#utility.yul\":8486:8570   */\n      tag_316\n        /* \"#utility.yul\":8563:8569   */\n      dup4\n        /* \"#utility.yul\":8486:8570   */\n      tag_192\n      jump\t// in\n    tag_316:\n        /* \"#utility.yul\":8476:8570   */\n      swap3\n      pop\n        /* \"#utility.yul\":8599:8603   */\n      0x20\n        /* \"#utility.yul\":8594:8597   */\n      dup11\n        /* \"#utility.yul\":8590:8604   */\n      add\n        /* \"#utility.yul\":8583:8604   */\n      swap10\n      pop\n        /* \"#utility.yul\":8236:8614   */\n      pop\n        /* \"#utility.yul\":8223:8224   */\n      0x01\n        /* \"#utility.yul\":8220:8221   */\n      dup2\n        /* \"#utility.yul\":8216:8225   */\n      add\n        /* \"#utility.yul\":8211:8225   */\n      swap1\n      pop\n        /* \"#utility.yul\":8176:8614   */\n      jump(tag_312)\n    tag_314:\n        /* \"#utility.yul\":8180:8194   */\n      pop\n        /* \"#utility.yul\":8630:8634   */\n      dup3\n        /* \"#utility.yul\":8623:8634   */\n      swap8\n      pop\n        /* \"#utility.yul\":8650:8653   */\n      dup8\n        /* \"#utility.yul\":8643:8653   */\n      swap6\n      pop\n        /* \"#utility.yul\":7728:8659   */\n      pop\n      pop\n      pop\n      pop\n      pop\n        /* \"#utility.yul\":7556:8659   */\n      swap3\n      swap2\n      pop\n      pop\n      jump\t// out\n        /* \"#utility.yul\":8665:9134   */\n    tag_33:\n        /* \"#utility.yul\":8856:8860   */\n      0x00\n        /* \"#utility.yul\":8894:8896   */\n      0x20\n        /* \"#utility.yul\":8883:8892   */\n      dup3\n        /* \"#utility.yul\":8879:8897   */\n      add\n        /* \"#utility.yul\":8871:8897   */\n      swap1\n      pop\n        /* \"#utility.yul\":8943:8952   */\n      dup2\n        /* \"#utility.yul\":8937:8941   */\n      dup2\n        /* \"#utility.yul\":8933:8953   */\n      sub\n        /* \"#utility.yul\":8929:8930   */\n      0x00\n        /* \"#utility.yul\":8918:8927   */\n      dup4\n        /* \"#utility.yul\":8914:8931   */\n      add\n        /* \"#utility.yul\":8907:8954   */\n      mstore\n        /* \"#utility.yul\":8971:9127   */\n      tag_318\n        /* \"#utility.yul\":9122:9126   */\n      dup2\n        /* \"#utility.yul\":9113:9119   */\n      dup5\n        /* \"#utility.yul\":8971:9127   */\n      tag_193\n      jump\t// in\n    tag_318:\n        /* \"#utility.yul\":8963:9127   */\n      swap1\n      pop\n        /* \"#utility.yul\":8665:9134   */\n      swap3\n      swap2\n      pop\n      pop\n      jump\t// out\n        /* \"#utility.yul\":9140:9258   */\n    tag_194:\n        /* \"#utility.yul\":9227:9251   */\n      tag_320\n        /* \"#utility.yul\":9245:9250   */\n      dup2\n        /* \"#utility.yul\":9227:9251   */\n      tag_179\n      jump\t// in\n    tag_320:\n        /* \"#utility.yul\":9222:9225   */\n      dup3\n        /* \"#utility.yul\":9215:9252   */\n      mstore\n        /* \"#utility.yul\":9140:9258   */\n      pop\n      pop\n      jump\t// out\n        /* \"#utility.yul\":9264:9486   */\n    tag_38:\n        /* \"#utility.yul\":9357:9361   */\n      0x00\n        /* \"#utility.yul\":9395:9397   */\n      0x20\n        /* \"#utility.yul\":9384:9393   */\n      dup3\n        /* \"#utility.yul\":9380:9398   */\n      add\n        /* \"#utility.yul\":9372:9398   */\n      swap1\n      pop\n        /* \"#utility.yul\":9408:9479   */\n      tag_322\n        /* \"#utility.yul\":9476:9477   */\n      0x00\n        /* \"#utility.yul\":9465:9474   */\n      dup4\n        /* \"#utility.yul\":9461:9478   */\n      add\n        /* \"#utility.yul\":9452:9458   */\n      dup5\n        /* \"#utility.yul\":9408:9479   */\n      tag_194\n      jump\t// in\n    tag_322:\n        /* \"#utility.yul\":9264:9486   */\n      swap3\n      swap2\n      pop\n      pop\n      jump\t// out\n        /* \"#utility.yul\":9492:9618   */\n    tag_195:\n        /* \"#utility.yul\":9529:9536   */\n      0x00\n        /* \"#utility.yul\":9569:9611   */\n      0xffffffffffffffffffffffffffffffffffffffff\n        /* \"#utility.yul\":9562:9567   */\n      dup3\n        /* \"#utility.yul\":9558:9612   */\n      and\n        /* \"#utility.yul\":9547:9612   */\n      swap1\n      pop\n        /* \"#utility.yul\":9492:9618   */\n      swap2\n      swap1\n      pop\n      jump\t// out\n        /* \"#utility.yul\":9624:9720   */\n    tag_196:\n        /* \"#utility.yul\":9661:9668   */\n      0x00\n        /* \"#utility.yul\":9690:9714   */\n      tag_325\n        /* \"#utility.yul\":9708:9713   */\n      dup3\n        /* \"#utility.yul\":9690:9714   */\n      tag_195\n      jump\t// in\n    tag_325:\n        /* \"#utility.yul\":9679:9714   */\n      swap1\n      pop\n        /* \"#utility.yul\":9624:9720   */\n      swap2\n      swap1\n      pop\n      jump\t// out\n        /* \"#utility.yul\":9726:9848   */\n    tag_197:\n        /* \"#utility.yul\":9799:9823   */\n      tag_327\n        /* \"#utility.yul\":9817:9822   */\n      dup2\n        /* \"#utility.yul\":9799:9823   */\n      tag_196\n      jump\t// in\n    tag_327:\n        /* \"#utility.yul\":9792:9797   */\n      dup2\n        /* \"#utility.yul\":9789:9824   */\n      eq\n        /* \"#utility.yul\":9779:9842   */\n      tag_328\n      jumpi\n        /* \"#utility.yul\":9838:9839   */\n      0x00\n        /* \"#utility.yul\":9835:9836   */\n      dup1\n        /* \"#utility.yul\":9828:9840   */\n      revert\n        /* \"#utility.yul\":9779:9842   */\n    tag_328:\n        /* \"#utility.yul\":9726:9848   */\n      pop\n      jump\t// out\n        /* \"#utility.yul\":9854:9993   */\n    tag_198:\n        /* \"#utility.yul\":9900:9905   */\n      0x00\n        /* \"#utility.yul\":9938:9944   */\n      dup2\n        /* \"#utility.yul\":9925:9945   */\n      calldataload\n        /* \"#utility.yul\":9916:9945   */\n      swap1\n      pop\n        /* \"#utility.yul\":9954:9987   */\n      tag_330\n        /* \"#utility.yul\":9981:9986   */\n      dup2\n        /* \"#utility.yul\":9954:9987   */\n      tag_197\n      jump\t// in\n    tag_330:\n        /* \"#utility.yul\":9854:9993   */\n      swap3\n      swap2\n      pop\n      pop\n      jump\t// out\n        /* \"#utility.yul\":9999:10328   */\n    tag_59:\n        /* \"#utility.yul\":10058:10064   */\n      0x00\n        /* \"#utility.yul\":10107:10109   */\n      0x20\n        /* \"#utility.yul\":10095:10104   */\n      dup3\n        /* \"#utility.yul\":10086:10093   */\n      dup5\n        /* \"#utility.yul\":10082:10105   */\n      sub\n        /* \"#utility.yul\":10078:10110   */\n      slt\n        /* \"#utility.yul\":10075:10194   */\n      iszero\n      tag_332\n      jumpi\n        /* \"#utility.yul\":10113:10192   */\n      tag_333\n      tag_167\n      jump\t// in\n    tag_333:\n        /* \"#utility.yul\":10075:10194   */\n    tag_332:\n        /* \"#utility.yul\":10233:10234   */\n      0x00\n        /* \"#utility.yul\":10258:10311   */\n      tag_334\n        /* \"#utility.yul\":10303:10310   */\n      dup5\n        /* \"#utility.yul\":10294:10300   */\n      dup3\n        /* \"#utility.yul\":10283:10292   */\n      dup6\n        /* \"#utility.yul\":10279:10301   */\n      add\n        /* \"#utility.yul\":10258:10311   */\n      tag_198\n      jump\t// in\n    tag_334:\n        /* \"#utility.yul\":10248:10311   */\n      swap2\n      pop\n        /* \"#utility.yul\":10204:10321   */\n      pop\n        /* \"#utility.yul\":9999:10328   */\n      swap3\n      swap2\n      pop\n      pop\n      jump\t// out\n        /* \"#utility.yul\":10334:10503   */\n    tag_199:\n        /* \"#utility.yul\":10418:10429   */\n      0x00\n        /* \"#utility.yul\":10452:10458   */\n      dup3\n        /* \"#utility.yul\":10447:10450   */\n      dup3\n        /* \"#utility.yul\":10440:10459   */\n      mstore\n        /* \"#utility.yul\":10492:10496   */\n      0x20\n        /* \"#utility.yul\":10487:10490   */\n      dup3\n        /* \"#utility.yul\":10483:10497   */\n      add\n        /* \"#utility.yul\":10468:10497   */\n      swap1\n      pop\n        /* \"#utility.yul\":10334:10503   */\n      swap3\n      swap2\n      pop\n      pop\n      jump\t// out\n        /* \"#utility.yul\":10509:10886   */\n    tag_200:\n        /* \"#utility.yul\":10597:10600   */\n      0x00\n        /* \"#utility.yul\":10625:10664   */\n      tag_337\n        /* \"#utility.yul\":10658:10663   */\n      dup3\n        /* \"#utility.yul\":10625:10664   */\n      tag_185\n      jump\t// in\n    tag_337:\n        /* \"#utility.yul\":10680:10751   */\n      tag_338\n        /* \"#utility.yul\":10744:10750   */\n      dup2\n        /* \"#utility.yul\":10739:10742   */\n      dup6\n        /* \"#utility.yul\":10680:10751   */\n      tag_199\n      jump\t// in\n    tag_338:\n        /* \"#utility.yul\":10673:10751   */\n      swap4\n      pop\n        /* \"#utility.yul\":10760:10825   */\n      tag_339\n        /* \"#utility.yul\":10818:10824   */\n      dup2\n        /* \"#utility.yul\":10813:10816   */\n      dup6\n        /* \"#utility.yul\":10806:10810   */\n      0x20\n        /* \"#utility.yul\":10799:10804   */\n      dup7\n        /* \"#utility.yul\":10795:10811   */\n      add\n        /* \"#utility.yul\":10760:10825   */\n      tag_187\n      jump\t// in\n    tag_339:\n        /* \"#utility.yul\":10850:10879   */\n      tag_340\n        /* \"#utility.yul\":10872:10878   */\n      dup2\n        /* \"#utility.yul\":10850:10879   */\n      tag_171\n      jump\t// in\n    tag_340:\n        /* \"#utility.yul\":10845:10848   */\n      dup5\n        /* \"#utility.yul\":10841:10880   */\n      add\n        /* \"#utility.yul\":10834:10880   */\n      swap2\n      pop\n        /* \"#utility.yul\":10601:10886   */\n      pop\n        /* \"#utility.yul\":10509:10886   */\n      swap3\n      swap2\n      pop\n      pop\n      jump\t// out\n        /* \"#utility.yul\":10892:11205   */\n    tag_67:\n        /* \"#utility.yul\":11005:11009   */\n      0x00\n        /* \"#utility.yul\":11043:11045   */\n      0x20\n        /* \"#utility.yul\":11032:11041   */\n      dup3\n        /* \"#utility.yul\":11028:11046   */\n      add\n        /* \"#utility.yul\":11020:11046   */\n      swap1\n      pop\n        /* \"#utility.yul\":11092:11101   */\n      dup2\n        /* \"#utility.yul\":11086:11090   */\n      dup2\n        /* \"#utility.yul\":11082:11102   */\n      sub\n        /* \"#utility.yul\":11078:11079   */\n      0x00\n        /* \"#utility.yul\":11067:11076   */\n      dup4\n        /* \"#utility.yul\":11063:11080   */\n      add\n        /* \"#utility.yul\":11056:11103   */\n      mstore\n        /* \"#utility.yul\":11120:11198   */\n      tag_342\n        /* \"#utility.yul\":11193:11197   */\n      dup2\n        /* \"#utility.yul\":11184:11190   */\n      dup5\n        /* \"#utility.yul\":11120:11198   */\n      tag_200\n      jump\t// in\n    tag_342:\n        /* \"#utility.yul\":11112:11198   */\n      swap1\n      pop\n        /* \"#utility.yul\":10892:11205   */\n      swap3\n      swap2\n      pop\n      pop\n      jump\t// out\n        /* \"#utility.yul\":11211:11329   */\n    tag_201:\n        /* \"#utility.yul\":11298:11322   */\n      tag_344\n        /* \"#utility.yul\":11316:11321   */\n      dup2\n        /* \"#utility.yul\":11298:11322   */\n      tag_196\n      jump\t// in\n    tag_344:\n        /* \"#utility.yul\":11293:11296   */\n      dup3\n        /* \"#utility.yul\":11286:11323   */\n      mstore\n        /* \"#utility.yul\":11211:11329   */\n      pop\n      pop\n      jump\t// out\n        /* \"#utility.yul\":11335:11557   */\n    tag_72:\n        /* \"#utility.yul\":11428:11432   */\n      0x00\n        /* \"#utility.yul\":11466:11468   */\n      0x20\n        /* \"#utility.yul\":11455:11464   */\n      dup3\n        /* \"#utility.yul\":11451:11469   */\n      add\n        /* \"#utility.yul\":11443:11469   */\n      swap1\n      pop\n        /* \"#utility.yul\":11479:11550   */\n      tag_346\n        /* \"#utility.yul\":11547:11548   */\n      0x00\n        /* \"#utility.yul\":11536:11545   */\n      dup4\n        /* \"#utility.yul\":11532:11549   */\n      add\n        /* \"#utility.yul\":11523:11529   */\n      dup5\n        /* \"#utility.yul\":11479:11550   */\n      tag_201\n      jump\t// in\n    tag_346:\n        /* \"#utility.yul\":11335:11557   */\n      swap3\n      swap2\n      pop\n      pop\n      jump\t// out\n        /* \"#utility.yul\":11563:11667   */\n    tag_202:\n        /* \"#utility.yul\":11608:11615   */\n      0x00\n        /* \"#utility.yul\":11637:11661   */\n      tag_348\n        /* \"#utility.yul\":11655:11660   */\n      dup3\n        /* \"#utility.yul\":11637:11661   */\n      tag_195\n      jump\t// in\n    tag_348:\n        /* \"#utility.yul\":11626:11661   */\n      swap1\n      pop\n        /* \"#utility.yul\":11563:11667   */\n      swap2\n      swap1\n      pop\n      jump\t// out\n        /* \"#utility.yul\":11673:11811   */\n    tag_203:\n        /* \"#utility.yul\":11754:11786   */\n      tag_350\n        /* \"#utility.yul\":11780:11785   */\n      dup2\n        /* \"#utility.yul\":11754:11786   */\n      tag_202\n      jump\t// in\n    tag_350:\n        /* \"#utility.yul\":11747:11752   */\n      dup2\n        /* \"#utility.yul\":11744:11787   */\n      eq\n        /* \"#utility.yul\":11734:11805   */\n      tag_351\n      jumpi\n        /* \"#utility.yul\":11801:11802   */\n      0x00\n        /* \"#utility.yul\":11798:11799   */\n      dup1\n        /* \"#utility.yul\":11791:11803   */\n      revert\n        /* \"#utility.yul\":11734:11805   */\n    tag_351:\n        /* \"#utility.yul\":11673:11811   */\n      pop\n      jump\t// out\n        /* \"#utility.yul\":11817:11972   */\n    tag_204:\n        /* \"#utility.yul\":11871:11876   */\n      0x00\n        /* \"#utility.yul\":11909:11915   */\n      dup2\n        /* \"#utility.yul\":11896:11916   */\n      calldataload\n        /* \"#utility.yul\":11887:11916   */\n      swap1\n      pop\n        /* \"#utility.yul\":11925:11966   */\n      tag_353\n        /* \"#utility.yul\":11960:11965   */\n      dup2\n        /* \"#utility.yul\":11925:11966   */\n      tag_203\n      jump\t// in\n    tag_353:\n        /* \"#utility.yul\":11817:11972   */\n      swap3\n      swap2\n      pop\n      pop\n      jump\t// out\n        /* \"#utility.yul\":11978:12613   */\n    tag_75:\n        /* \"#utility.yul\":12063:12069   */\n      0x00\n        /* \"#utility.yul\":12071:12077   */\n      dup1\n        /* \"#utility.yul\":12079:12085   */\n      0x00\n        /* \"#utility.yul\":12128:12130   */\n      0x60\n        /* \"#utility.yul\":12116:12125   */\n      dup5\n        /* \"#utility.yul\":12107:12114   */\n      dup7\n        /* \"#utility.yul\":12103:12126   */\n      sub\n        /* \"#utility.yul\":12099:12131   */\n      slt\n        /* \"#utility.yul\":12096:12215   */\n      iszero\n      tag_355\n      jumpi\n        /* \"#utility.yul\":12134:12213   */\n      tag_356\n      tag_167\n      jump\t// in\n    tag_356:\n        /* \"#utility.yul\":12096:12215   */\n    tag_355:\n        /* \"#utility.yul\":12254:12255   */\n      0x00\n        /* \"#utility.yul\":12279:12340   */\n      tag_357\n        /* \"#utility.yul\":12332:12339   */\n      dup7\n        /* \"#utility.yul\":12323:12329   */\n      dup3\n        /* \"#utility.yul\":12312:12321   */\n      dup8\n        /* \"#utility.yul\":12308:12330   */\n      add\n        /* \"#utility.yul\":12279:12340   */\n      tag_204\n      jump\t// in\n    tag_357:\n        /* \"#utility.yul\":12269:12340   */\n      swap4\n      pop\n        /* \"#utility.yul\":12225:12350   */\n      pop\n        /* \"#utility.yul\":12389:12391   */\n      0x20\n        /* \"#utility.yul\":12415:12468   */\n      tag_358\n        /* \"#utility.yul\":12460:12467   */\n      dup7\n        /* \"#utility.yul\":12451:12457   */\n      dup3\n        /* \"#utility.yul\":12440:12449   */\n      dup8\n        /* \"#utility.yul\":12436:12458   */\n      add\n        /* \"#utility.yul\":12415:12468   */\n      tag_181\n      jump\t// in\n    tag_358:\n        /* \"#utility.yul\":12405:12468   */\n      swap3\n      pop\n        /* \"#utility.yul\":12360:12478   */\n      pop\n        /* \"#utility.yul\":12517:12519   */\n      0x40\n        /* \"#utility.yul\":12543:12596   */\n      tag_359\n        /* \"#utility.yul\":12588:12595   */\n      dup7\n        /* \"#utility.yul\":12579:12585   */\n      dup3\n        /* \"#utility.yul\":12568:12577   */\n      dup8\n        /* \"#utility.yul\":12564:12586   */\n      add\n        /* \"#utility.yul\":12543:12596   */\n      tag_181\n      jump\t// in\n    tag_359:\n        /* \"#utility.yul\":12533:12596   */\n      swap2\n      pop\n        /* \"#utility.yul\":12488:12606   */\n      pop\n        /* \"#utility.yul\":11978:12613   */\n      swap3\n      pop\n      swap3\n      pop\n      swap3\n      jump\t// out\n        /* \"#utility.yul\":12619:12788   */\n    tag_205:\n        /* \"#utility.yul\":12759:12780   */\n      0x7374617465206973206e6f742061637469766500000000000000000000000000\n        /* \"#utility.yul\":12755:12756   */\n      0x00\n        /* \"#utility.yul\":12747:12753   */\n      dup3\n        /* \"#utility.yul\":12743:12757   */\n      add\n        /* \"#utility.yul\":12736:12781   */\n      mstore\n        /* \"#utility.yul\":12619:12788   */\n      pop\n      jump\t// out\n        /* \"#utility.yul\":12794:13160   */\n    tag_206:\n        /* \"#utility.yul\":12936:12939   */\n      0x00\n        /* \"#utility.yul\":12957:13024   */\n      tag_362\n        /* \"#utility.yul\":13021:13023   */\n      0x13\n        /* \"#utility.yul\":13016:13019   */\n      dup4\n        /* \"#utility.yul\":12957:13024   */\n      tag_199\n      jump\t// in\n    tag_362:\n        /* \"#utility.yul\":12950:13024   */\n      swap2\n      pop\n        /* \"#utility.yul\":13033:13126   */\n      tag_363\n        /* \"#utility.yul\":13122:13125   */\n      dup3\n        /* \"#utility.yul\":13033:13126   */\n      tag_205\n      jump\t// in\n    tag_363:\n        /* \"#utility.yul\":13151:13153   */\n      0x20\n        /* \"#utility.yul\":13146:13149   */\n      dup3\n        /* \"#utility.yul\":13142:13154   */\n      add\n        /* \"#utility.yul\":13135:13154   */\n      swap1\n      pop\n        /* \"#utility.yul\":12794:13160   */\n      swap2\n      swap1\n      pop\n      jump\t// out\n        /* \"#utility.yul\":13166:13585   */\n    tag_81:\n        /* \"#utility.yul\":13332:13336   */\n      0x00\n        /* \"#utility.yul\":13370:13372   */\n      0x20\n        /* \"#utility.yul\":13359:13368   */\n      dup3\n        /* \"#utility.yul\":13355:13373   */\n      add\n        /* \"#utility.yul\":13347:13373   */\n      swap1\n      pop\n        /* \"#utility.yul\":13419:13428   */\n      dup2\n        /* \"#utility.yul\":13413:13417   */\n      dup2\n        /* \"#utility.yul\":13409:13429   */\n      sub\n        /* \"#utility.yul\":13405:13406   */\n      0x00\n        /* \"#utility.yul\":13394:13403   */\n      dup4\n        /* \"#utility.yul\":13390:13407   */\n      add\n        /* \"#utility.yul\":13383:13430   */\n      mstore\n        /* \"#utility.yul\":13447:13578   */\n      tag_365\n        /* \"#utility.yul\":13573:13577   */\n      dup2\n        /* \"#utility.yul\":13447:13578   */\n      tag_206\n      jump\t// in\n    tag_365:\n        /* \"#utility.yul\":13439:13578   */\n      swap1\n      pop\n        /* \"#utility.yul\":13166:13585   */\n      swap2\n      swap1\n      pop\n      jump\t// out\n        /* \"#utility.yul\":13591:13771   */\n    tag_87:\n        /* \"#utility.yul\":13639:13716   */\n      0x4e487b7100000000000000000000000000000000000000000000000000000000\n        /* \"#utility.yul\":13636:13637   */\n      0x00\n        /* \"#utility.yul\":13629:13717   */\n      mstore\n        /* \"#utility.yul\":13736:13740   */\n      0x21\n        /* \"#utility.yul\":13733:13734   */\n      0x04\n        /* \"#utility.yul\":13726:13741   */\n      mstore\n        /* \"#utility.yul\":13760:13764   */\n      0x24\n        /* \"#utility.yul\":13757:13758   */\n      0x00\n        /* \"#utility.yul\":13750:13765   */\n      revert\n        /* \"#utility.yul\":13777:14401   */\n    tag_89:\n        /* \"#utility.yul\":13966:13970   */\n      0x00\n        /* \"#utility.yul\":14004:14006   */\n      0x60\n        /* \"#utility.yul\":13993:14002   */\n      dup3\n        /* \"#utility.yul\":13989:14007   */\n      add\n        /* \"#utility.yul\":13981:14007   */\n      swap1\n      pop\n        /* \"#utility.yul\":14017:14088   */\n      tag_368\n        /* \"#utility.yul\":14085:14086   */\n      0x00\n        /* \"#utility.yul\":14074:14083   */\n      dup4\n        /* \"#utility.yul\":14070:14087   */\n      add\n        /* \"#utility.yul\":14061:14067   */\n      dup7\n        /* \"#utility.yul\":14017:14088   */\n      tag_201\n      jump\t// in\n    tag_368:\n        /* \"#utility.yul\":14135:14144   */\n      dup2\n        /* \"#utility.yul\":14129:14133   */\n      dup2\n        /* \"#utility.yul\":14125:14145   */\n      sub\n        /* \"#utility.yul\":14120:14122   */\n      0x20\n        /* \"#utility.yul\":14109:14118   */\n      dup4\n        /* \"#utility.yul\":14105:14123   */\n      add\n        /* \"#utility.yul\":14098:14146   */\n      mstore\n        /* \"#utility.yul\":14163:14241   */\n      tag_369\n        /* \"#utility.yul\":14236:14240   */\n      dup2\n        /* \"#utility.yul\":14227:14233   */\n      dup6\n        /* \"#utility.yul\":14163:14241   */\n      tag_200\n      jump\t// in\n    tag_369:\n        /* \"#utility.yul\":14155:14241   */\n      swap1\n      pop\n        /* \"#utility.yul\":14288:14297   */\n      dup2\n        /* \"#utility.yul\":14282:14286   */\n      dup2\n        /* \"#utility.yul\":14278:14298   */\n      sub\n        /* \"#utility.yul\":14273:14275   */\n      0x40\n        /* \"#utility.yul\":14262:14271   */\n      dup4\n        /* \"#utility.yul\":14258:14276   */\n      add\n        /* \"#utility.yul\":14251:14299   */\n      mstore\n        /* \"#utility.yul\":14316:14394   */\n      tag_370\n        /* \"#utility.yul\":14389:14393   */\n      dup2\n        /* \"#utility.yul\":14380:14386   */\n      dup5\n        /* \"#utility.yul\":14316:14394   */\n      tag_200\n      jump\t// in\n    tag_370:\n        /* \"#utility.yul\":14308:14394   */\n      swap1\n      pop\n        /* \"#utility.yul\":13777:14401   */\n      swap5\n      swap4\n      pop\n      pop\n      pop\n      pop\n      jump\t// out\n        /* \"#utility.yul\":14407:14587   */\n    tag_207:\n        /* \"#utility.yul\":14455:14532   */\n      0x4e487b7100000000000000000000000000000000000000000000000000000000\n        /* \"#utility.yul\":14452:14453   */\n      0x00\n        /* \"#utility.yul\":14445:14533   */\n      mstore\n        /* \"#utility.yul\":14552:14556   */\n      0x22\n        /* \"#utility.yul\":14549:14550   */\n      0x04\n        /* \"#utility.yul\":14542:14557   */\n      mstore\n        /* \"#utility.yul\":14576:14580   */\n      0x24\n        /* \"#utility.yul\":14573:14574   */\n      0x00\n        /* \"#utility.yul\":14566:14581   */\n      revert\n        /* \"#utility.yul\":14593:14913   */\n    tag_95:\n        /* \"#utility.yul\":14637:14643   */\n      0x00\n        /* \"#utility.yul\":14674:14675   */\n      0x02\n        /* \"#utility.yul\":14668:14672   */\n      dup3\n        /* \"#utility.yul\":14664:14676   */\n      div\n        /* \"#utility.yul\":14654:14676   */\n      swap1\n      pop\n        /* \"#utility.yul\":14721:14722   */\n      0x01\n        /* \"#utility.yul\":14715:14719   */\n      dup3\n        /* \"#utility.yul\":14711:14723   */\n      and\n        /* \"#utility.yul\":14742:14760   */\n      dup1\n        /* \"#utility.yul\":14732:14813   */\n      tag_373\n      jumpi\n        /* \"#utility.yul\":14798:14802   */\n      0x7f\n        /* \"#utility.yul\":14790:14796   */\n      dup3\n        /* \"#utility.yul\":14786:14803   */\n      and\n        /* \"#utility.yul\":14776:14803   */\n      swap2\n      pop\n        /* \"#utility.yul\":14732:14813   */\n    tag_373:\n        /* \"#utility.yul\":14860:14862   */\n      0x20\n        /* \"#utility.yul\":14852:14858   */\n      dup3\n        /* \"#utility.yul\":14849:14863   */\n      lt\n        /* \"#utility.yul\":14829:14847   */\n      dup2\n        /* \"#utility.yul\":14826:14864   */\n      sub\n        /* \"#utility.yul\":14823:14907   */\n      tag_374\n      jumpi\n        /* \"#utility.yul\":14879:14897   */\n      tag_375\n      tag_207\n      jump\t// in\n    tag_375:\n        /* \"#utility.yul\":14823:14907   */\n    tag_374:\n        /* \"#utility.yul\":14644:14913   */\n      pop\n        /* \"#utility.yul\":14593:14913   */\n      swap2\n      swap1\n      pop\n      jump\t// out\n        /* \"#utility.yul\":14919:15101   */\n    tag_208:\n        /* \"#utility.yul\":15059:15093   */\n      0x6f6e6c79206f776e65722063616e2075736520746869732066756e6374696f6e\n        /* \"#utility.yul\":15055:15056   */\n      0x00\n        /* \"#utility.yul\":15047:15053   */\n      dup3\n        /* \"#utility.yul\":15043:15057   */\n      add\n        /* \"#utility.yul\":15036:15094   */\n      mstore\n        /* \"#utility.yul\":14919:15101   */\n      pop\n      jump\t// out\n        /* \"#utility.yul\":15107:15473   */\n    tag_209:\n        /* \"#utility.yul\":15249:15252   */\n      0x00\n        /* \"#utility.yul\":15270:15337   */\n      tag_378\n        /* \"#utility.yul\":15334:15336   */\n      0x20\n        /* \"#utility.yul\":15329:15332   */\n      dup4\n        /* \"#utility.yul\":15270:15337   */\n      tag_199\n      jump\t// in\n    tag_378:\n        /* \"#utility.yul\":15263:15337   */\n      swap2\n      pop\n        /* \"#utility.yul\":15346:15439   */\n      tag_379\n        /* \"#utility.yul\":15435:15438   */\n      dup3\n        /* \"#utility.yul\":15346:15439   */\n      tag_208\n      jump\t// in\n    tag_379:\n        /* \"#utility.yul\":15464:15466   */\n      0x20\n        /* \"#utility.yul\":15459:15462   */\n      dup3\n        /* \"#utility.yul\":15455:15467   */\n      add\n        /* \"#utility.yul\":15448:15467   */\n      swap1\n      pop\n        /* \"#utility.yul\":15107:15473   */\n      swap2\n      swap1\n      pop\n      jump\t// out\n        /* \"#utility.yul\":15479:15898   */\n    tag_108:\n        /* \"#utility.yul\":15645:15649   */\n      0x00\n        /* \"#utility.yul\":15683:15685   */\n      0x20\n        /* \"#utility.yul\":15672:15681   */\n      dup3\n        /* \"#utility.yul\":15668:15686   */\n      add\n        /* \"#utility.yul\":15660:15686   */\n      swap1\n      pop\n        /* \"#utility.yul\":15732:15741   */\n      dup2\n        /* \"#utility.yul\":15726:15730   */\n      dup2\n        /* \"#utility.yul\":15722:15742   */\n      sub\n        /* \"#utility.yul\":15718:15719   */\n      0x00\n        /* \"#utility.yul\":15707:15716   */\n      dup4\n        /* \"#utility.yul\":15703:15720   */\n      add\n        /* \"#utility.yul\":15696:15743   */\n      mstore\n        /* \"#utility.yul\":15760:15891   */\n      tag_381\n        /* \"#utility.yul\":15886:15890   */\n      dup2\n        /* \"#utility.yul\":15760:15891   */\n      tag_209\n      jump\t// in\n    tag_381:\n        /* \"#utility.yul\":15752:15891   */\n      swap1\n      pop\n        /* \"#utility.yul\":15479:15898   */\n      swap2\n      swap1\n      pop\n      jump\t// out\n        /* \"#utility.yul\":15904:16236   */\n    tag_117:\n        /* \"#utility.yul\":16025:16029   */\n      0x00\n        /* \"#utility.yul\":16063:16065   */\n      0x40\n        /* \"#utility.yul\":16052:16061   */\n      dup3\n        /* \"#utility.yul\":16048:16066   */\n      add\n        /* \"#utility.yul\":16040:16066   */\n      swap1\n      pop\n        /* \"#utility.yul\":16076:16147   */\n      tag_383\n        /* \"#utility.yul\":16144:16145   */\n      0x00\n        /* \"#utility.yul\":16133:16142   */\n      dup4\n        /* \"#utility.yul\":16129:16146   */\n      add\n        /* \"#utility.yul\":16120:16126   */\n      dup6\n        /* \"#utility.yul\":16076:16147   */\n      tag_201\n      jump\t// in\n    tag_383:\n        /* \"#utility.yul\":16157:16229   */\n      tag_384\n        /* \"#utility.yul\":16225:16227   */\n      0x20\n        /* \"#utility.yul\":16214:16223   */\n      dup4\n        /* \"#utility.yul\":16210:16228   */\n      add\n        /* \"#utility.yul\":16201:16207   */\n      dup5\n        /* \"#utility.yul\":16157:16229   */\n      tag_194\n      jump\t// in\n    tag_384:\n        /* \"#utility.yul\":15904:16236   */\n      swap4\n      swap3\n      pop\n      pop\n      pop\n      jump\t// out\n        /* \"#utility.yul\":16242:16466   */\n    tag_210:\n        /* \"#utility.yul\":16382:16416   */\n      0x66756e647320617265206e6f742073756666696369656e7420666f7220636c61\n        /* \"#utility.yul\":16378:16379   */\n      0x00\n        /* \"#utility.yul\":16370:16376   */\n      dup3\n        /* \"#utility.yul\":16366:16380   */\n      add\n        /* \"#utility.yul\":16359:16417   */\n      mstore\n        /* \"#utility.yul\":16451:16458   */\n      0x696d696e67000000000000000000000000000000000000000000000000000000\n        /* \"#utility.yul\":16446:16448   */\n      0x20\n        /* \"#utility.yul\":16438:16444   */\n      dup3\n        /* \"#utility.yul\":16434:16449   */\n      add\n        /* \"#utility.yul\":16427:16459   */\n      mstore\n        /* \"#utility.yul\":16242:16466   */\n      pop\n      jump\t// out\n        /* \"#utility.yul\":16472:16838   */\n    tag_211:\n        /* \"#utility.yul\":16614:16617   */\n      0x00\n        /* \"#utility.yul\":16635:16702   */\n      tag_387\n        /* \"#utility.yul\":16699:16701   */\n      0x25\n        /* \"#utility.yul\":16694:16697   */\n      dup4\n        /* \"#utility.yul\":16635:16702   */\n      tag_199\n      jump\t// in\n    tag_387:\n        /* \"#utility.yul\":16628:16702   */\n      swap2\n      pop\n        /* \"#utility.yul\":16711:16804   */\n      tag_388\n        /* \"#utility.yul\":16800:16803   */\n      dup3\n        /* \"#utility.yul\":16711:16804   */\n      tag_210\n      jump\t// in\n    tag_388:\n        /* \"#utility.yul\":16829:16831   */\n      0x40\n        /* \"#utility.yul\":16824:16827   */\n      dup3\n        /* \"#utility.yul\":16820:16832   */\n      add\n        /* \"#utility.yul\":16813:16832   */\n      swap1\n      pop\n        /* \"#utility.yul\":16472:16838   */\n      swap2\n      swap1\n      pop\n      jump\t// out\n        /* \"#utility.yul\":16844:17263   */\n    tag_121:\n        /* \"#utility.yul\":17010:17014   */\n      0x00\n        /* \"#utility.yul\":17048:17050   */\n      0x20\n        /* \"#utility.yul\":17037:17046   */\n      dup3\n        /* \"#utility.yul\":17033:17051   */\n      add\n        /* \"#utility.yul\":17025:17051   */\n      swap1\n      pop\n        /* \"#utility.yul\":17097:17106   */\n      dup2\n        /* \"#utility.yul\":17091:17095   */\n      dup2\n        /* \"#utility.yul\":17087:17107   */\n      sub\n        /* \"#utility.yul\":17083:17084   */\n      0x00\n        /* \"#utility.yul\":17072:17081   */\n      dup4\n        /* \"#utility.yul\":17068:17085   */\n      add\n        /* \"#utility.yul\":17061:17108   */\n      mstore\n        /* \"#utility.yul\":17125:17256   */\n      tag_390\n        /* \"#utility.yul\":17251:17255   */\n      dup2\n        /* \"#utility.yul\":17125:17256   */\n      tag_211\n      jump\t// in\n    tag_390:\n        /* \"#utility.yul\":17117:17256   */\n      swap1\n      pop\n        /* \"#utility.yul\":16844:17263   */\n      swap2\n      swap1\n      pop\n      jump\t// out\n        /* \"#utility.yul\":17269:17449   */\n    tag_137:\n        /* \"#utility.yul\":17317:17394   */\n      0x4e487b7100000000000000000000000000000000000000000000000000000000\n        /* \"#utility.yul\":17314:17315   */\n      0x00\n        /* \"#utility.yul\":17307:17395   */\n      mstore\n        /* \"#utility.yul\":17414:17418   */\n      0x32\n        /* \"#utility.yul\":17411:17412   */\n      0x04\n        /* \"#utility.yul\":17404:17419   */\n      mstore\n        /* \"#utility.yul\":17438:17442   */\n      0x24\n        /* \"#utility.yul\":17435:17436   */\n      0x00\n        /* \"#utility.yul\":17428:17443   */\n      revert\n        /* \"#utility.yul\":17455:17679   */\n    tag_212:\n        /* \"#utility.yul\":17595:17629   */\n      0x74696d6520656e64206e6f7420636f6e747269627574696f6e2061726520616c\n        /* \"#utility.yul\":17591:17592   */\n      0x00\n        /* \"#utility.yul\":17583:17589   */\n      dup3\n        /* \"#utility.yul\":17579:17593   */\n      add\n        /* \"#utility.yul\":17572:17630   */\n      mstore\n        /* \"#utility.yul\":17664:17671   */\n      0x6c6f776564000000000000000000000000000000000000000000000000000000\n        /* \"#utility.yul\":17659:17661   */\n      0x20\n        /* \"#utility.yul\":17651:17657   */\n      dup3\n        /* \"#utility.yul\":17647:17662   */\n      add\n        /* \"#utility.yul\":17640:17672   */\n      mstore\n        /* \"#utility.yul\":17455:17679   */\n      pop\n      jump\t// out\n        /* \"#utility.yul\":17685:18051   */\n    tag_213:\n        /* \"#utility.yul\":17827:17830   */\n      0x00\n        /* \"#utility.yul\":17848:17915   */\n      tag_394\n        /* \"#utility.yul\":17912:17914   */\n      0x25\n        /* \"#utility.yul\":17907:17910   */\n      dup4\n        /* \"#utility.yul\":17848:17915   */\n      tag_199\n      jump\t// in\n    tag_394:\n        /* \"#utility.yul\":17841:17915   */\n      swap2\n      pop\n        /* \"#utility.yul\":17924:18017   */\n      tag_395\n        /* \"#utility.yul\":18013:18016   */\n      dup3\n        /* \"#utility.yul\":17924:18017   */\n      tag_212\n      jump\t// in\n    tag_395:\n        /* \"#utility.yul\":18042:18044   */\n      0x40\n        /* \"#utility.yul\":18037:18040   */\n      dup3\n        /* \"#utility.yul\":18033:18045   */\n      add\n        /* \"#utility.yul\":18026:18045   */\n      swap1\n      pop\n        /* \"#utility.yul\":17685:18051   */\n      swap2\n      swap1\n      pop\n      jump\t// out\n        /* \"#utility.yul\":18057:18476   */\n    tag_149:\n        /* \"#utility.yul\":18223:18227   */\n      0x00\n        /* \"#utility.yul\":18261:18263   */\n      0x20\n        /* \"#utility.yul\":18250:18259   */\n      dup3\n        /* \"#utility.yul\":18246:18264   */\n      add\n        /* \"#utility.yul\":18238:18264   */\n      swap1\n      pop\n        /* \"#utility.yul\":18310:18319   */\n      dup2\n        /* \"#utility.yul\":18304:18308   */\n      dup2\n        /* \"#utility.yul\":18300:18320   */\n      sub\n        /* \"#utility.yul\":18296:18297   */\n      0x00\n        /* \"#utility.yul\":18285:18294   */\n      dup4\n        /* \"#utility.yul\":18281:18298   */\n      add\n        /* \"#utility.yul\":18274:18321   */\n      mstore\n        /* \"#utility.yul\":18338:18469   */\n      tag_397\n        /* \"#utility.yul\":18464:18468   */\n      dup2\n        /* \"#utility.yul\":18338:18469   */\n      tag_213\n      jump\t// in\n    tag_397:\n        /* \"#utility.yul\":18330:18469   */\n      swap1\n      pop\n        /* \"#utility.yul\":18057:18476   */\n      swap2\n      swap1\n      pop\n      jump\t// out\n        /* \"#utility.yul\":18482:18662   */\n    tag_214:\n        /* \"#utility.yul\":18530:18607   */\n      0x4e487b7100000000000000000000000000000000000000000000000000000000\n        /* \"#utility.yul\":18527:18528   */\n      0x00\n        /* \"#utility.yul\":18520:18608   */\n      mstore\n        /* \"#utility.yul\":18627:18631   */\n      0x11\n        /* \"#utility.yul\":18624:18625   */\n      0x04\n        /* \"#utility.yul\":18617:18632   */\n      mstore\n        /* \"#utility.yul\":18651:18655   */\n      0x24\n        /* \"#utility.yul\":18648:18649   */\n      0x00\n        /* \"#utility.yul\":18641:18656   */\n      revert\n        /* \"#utility.yul\":18668:18862   */\n    tag_154:\n        /* \"#utility.yul\":18708:18712   */\n      0x00\n        /* \"#utility.yul\":18728:18748   */\n      tag_400\n        /* \"#utility.yul\":18746:18747   */\n      dup3\n        /* \"#utility.yul\":18728:18748   */\n      tag_179\n      jump\t// in\n    tag_400:\n        /* \"#utility.yul\":18723:18748   */\n      swap2\n      pop\n        /* \"#utility.yul\":18762:18782   */\n      tag_401\n        /* \"#utility.yul\":18780:18781   */\n      dup4\n        /* \"#utility.yul\":18762:18782   */\n      tag_179\n      jump\t// in\n    tag_401:\n        /* \"#utility.yul\":18757:18782   */\n      swap3\n      pop\n        /* \"#utility.yul\":18806:18807   */\n      dup3\n        /* \"#utility.yul\":18803:18804   */\n      dup3\n        /* \"#utility.yul\":18799:18808   */\n      sub\n        /* \"#utility.yul\":18791:18808   */\n      swap1\n      pop\n        /* \"#utility.yul\":18830:18831   */\n      dup2\n        /* \"#utility.yul\":18824:18828   */\n      dup2\n        /* \"#utility.yul\":18821:18832   */\n      gt\n        /* \"#utility.yul\":18818:18855   */\n      iszero\n      tag_402\n      jumpi\n        /* \"#utility.yul\":18835:18853   */\n      tag_403\n      tag_214\n      jump\t// in\n    tag_403:\n        /* \"#utility.yul\":18818:18855   */\n    tag_402:\n        /* \"#utility.yul\":18668:18862   */\n      swap3\n      swap2\n      pop\n      pop\n      jump\t// out\n        /* \"#utility.yul\":18868:19059   */\n    tag_156:\n        /* \"#utility.yul\":18908:18911   */\n      0x00\n        /* \"#utility.yul\":18927:18947   */\n      tag_405\n        /* \"#utility.yul\":18945:18946   */\n      dup3\n        /* \"#utility.yul\":18927:18947   */\n      tag_179\n      jump\t// in\n    tag_405:\n        /* \"#utility.yul\":18922:18947   */\n      swap2\n      pop\n        /* \"#utility.yul\":18961:18981   */\n      tag_406\n        /* \"#utility.yul\":18979:18980   */\n      dup4\n        /* \"#utility.yul\":18961:18981   */\n      tag_179\n      jump\t// in\n    tag_406:\n        /* \"#utility.yul\":18956:18981   */\n      swap3\n      pop\n        /* \"#utility.yul\":19004:19005   */\n      dup3\n        /* \"#utility.yul\":19001:19002   */\n      dup3\n        /* \"#utility.yul\":18997:19006   */\n      add\n        /* \"#utility.yul\":18990:19006   */\n      swap1\n      pop\n        /* \"#utility.yul\":19025:19028   */\n      dup1\n        /* \"#utility.yul\":19022:19023   */\n      dup3\n        /* \"#utility.yul\":19019:19029   */\n      gt\n        /* \"#utility.yul\":19016:19052   */\n      iszero\n      tag_407\n      jumpi\n        /* \"#utility.yul\":19032:19050   */\n      tag_408\n      tag_214\n      jump\t// in\n    tag_408:\n        /* \"#utility.yul\":19016:19052   */\n    tag_407:\n        /* \"#utility.yul\":18868:19059   */\n      swap3\n      swap2\n      pop\n      pop\n      jump\t// out\n        /* \"#utility.yul\":19065:19206   */\n    tag_215:\n        /* \"#utility.yul\":19114:19118   */\n      0x00\n        /* \"#utility.yul\":19137:19140   */\n      dup2\n        /* \"#utility.yul\":19129:19140   */\n      swap1\n      pop\n        /* \"#utility.yul\":19160:19163   */\n      dup2\n        /* \"#utility.yul\":19157:19158   */\n      0x00\n        /* \"#utility.yul\":19150:19164   */\n      mstore\n        /* \"#utility.yul\":19194:19198   */\n      0x20\n        /* \"#utility.yul\":19191:19192   */\n      0x00\n        /* \"#utility.yul\":19181:19199   */\n      keccak256\n        /* \"#utility.yul\":19173:19199   */\n      swap1\n      pop\n        /* \"#utility.yul\":19065:19206   */\n      swap2\n      swap1\n      pop\n      jump\t// out\n        /* \"#utility.yul\":19212:19305   */\n    tag_216:\n        /* \"#utility.yul\":19249:19255   */\n      0x00\n        /* \"#utility.yul\":19296:19298   */\n      0x20\n        /* \"#utility.yul\":19291:19293   */\n      0x1f\n        /* \"#utility.yul\":19284:19289   */\n      dup4\n        /* \"#utility.yul\":19280:19294   */\n      add\n        /* \"#utility.yul\":19276:19299   */\n      div\n        /* \"#utility.yul\":19266:19299   */\n      swap1\n      pop\n        /* \"#utility.yul\":19212:19305   */\n      swap2\n      swap1\n      pop\n      jump\t// out\n        /* \"#utility.yul\":19311:19418   */\n    tag_217:\n        /* \"#utility.yul\":19355:19363   */\n      0x00\n        /* \"#utility.yul\":19405:19410   */\n      dup3\n        /* \"#utility.yul\":19399:19403   */\n      dup3\n        /* \"#utility.yul\":19395:19411   */\n      shl\n        /* \"#utility.yul\":19374:19411   */\n      swap1\n      pop\n        /* \"#utility.yul\":19311:19418   */\n      swap3\n      swap2\n      pop\n      pop\n      jump\t// out\n        /* \"#utility.yul\":19424:19817   */\n    tag_218:\n        /* \"#utility.yul\":19493:19499   */\n      0x00\n        /* \"#utility.yul\":19543:19544   */\n      0x08\n        /* \"#utility.yul\":19531:19541   */\n      dup4\n        /* \"#utility.yul\":19527:19545   */\n      mul\n        /* \"#utility.yul\":19566:19663   */\n      tag_413\n        /* \"#utility.yul\":19596:19662   */\n      0xffffffffffffffffffffffffffffffffffffffffffffffffffffffffffffffff\n        /* \"#utility.yul\":19585:19594   */\n      dup3\n        /* \"#utility.yul\":19566:19663   */\n      tag_217\n      jump\t// in\n    tag_413:\n        /* \"#utility.yul\":19684:19723   */\n      tag_414\n        /* \"#utility.yul\":19714:19722   */\n      dup7\n        /* \"#utility.yul\":19703:19712   */\n      dup4\n        /* \"#utility.yul\":19684:19723   */\n      tag_217\n      jump\t// in\n    tag_414:\n        /* \"#utility.yul\":19672:19723   */\n      swap6\n      pop\n        /* \"#utility.yul\":19756:19760   */\n      dup1\n        /* \"#utility.yul\":19752:19761   */\n      not\n        /* \"#utility.yul\":19745:19750   */\n      dup5\n        /* \"#utility.yul\":19741:19762   */\n      and\n        /* \"#utility.yul\":19732:19762   */\n      swap4\n      pop\n        /* \"#utility.yul\":19805:19809   */\n      dup1\n        /* \"#utility.yul\":19795:19803   */\n      dup7\n        /* \"#utility.yul\":19791:19810   */\n      and\n        /* \"#utility.yul\":19784:19789   */\n      dup5\n        /* \"#utility.yul\":19781:19811   */\n      or\n        /* \"#utility.yul\":19771:19811   */\n      swap3\n      pop\n        /* \"#utility.yul\":19500:19817   */\n      pop\n      pop\n        /* \"#utility.yul\":19424:19817   */\n      swap4\n      swap3\n      pop\n      pop\n      pop\n      jump\t// out\n        /* \"#utility.yul\":19823:19883   */\n    tag_219:\n        /* \"#utility.yul\":19851:19854   */\n      0x00\n        /* \"#utility.yul\":19872:19877   */\n      dup2\n        /* \"#utility.yul\":19865:19877   */\n      swap1\n      pop\n        /* \"#utility.yul\":19823:19883   */\n      swap2\n      swap1\n      pop\n      jump\t// out\n        /* \"#utility.yul\":19889:20031   */\n    tag_220:\n        /* \"#utility.yul\":19939:19948   */\n      0x00\n        /* \"#utility.yul\":19972:20025   */\n      tag_417\n        /* \"#utility.yul\":19990:20024   */\n      tag_418\n        /* \"#utility.yul\":19999:20023   */\n      tag_419\n        /* \"#utility.yul\":20017:20022   */\n      dup5\n        /* \"#utility.yul\":19999:20023   */\n      tag_179\n      jump\t// in\n    tag_419:\n        /* \"#utility.yul\":19990:20024   */\n      tag_219\n      jump\t// in\n    tag_418:\n        /* \"#utility.yul\":19972:20025   */\n      tag_179\n      jump\t// in\n    tag_417:\n        /* \"#utility.yul\":19959:20025   */\n      swap1\n      pop\n        /* \"#utility.yul\":19889:20031   */\n      swap2\n      swap1\n      pop\n      jump\t// out\n        /* \"#utility.yul\":20037:20112   */\n    tag_221:\n        /* \"#utility.yul\":20080:20083   */\n      0x00\n        /* \"#utility.yul\":20101:20106   */\n      dup2\n        /* \"#utility.yul\":20094:20106   */\n      swap1\n      pop\n        /* \"#utility.yul\":20037:20112   */\n      swap2\n      swap1\n      pop\n      jump\t// out\n        /* \"#utility.yul\":20118:20387   */\n    tag_222:\n        /* \"#utility.yul\":20228:20267   */\n      tag_422\n        /* \"#utility.yul\":20259:20266   */\n      dup4\n        /* \"#utility.yul\":20228:20267   */\n      tag_220\n      jump\t// in\n    tag_422:\n        /* \"#utility.yul\":20289:20380   */\n      tag_423\n        /* \"#utility.yul\":20338:20379   */\n      tag_424\n        /* \"#utility.yul\":20362:20378   */\n      dup3\n        /* \"#utility.yul\":20338:20379   */\n      tag_221\n      jump\t// in\n    tag_424:\n        /* \"#utility.yul\":20330:20336   */\n      dup5\n        /* \"#utility.yul\":20323:20327   */\n      dup5\n        /* \"#utility.yul\":20317:20328   */\n      sload\n        /* \"#utility.yul\":20289:20380   */\n      tag_218\n      jump\t// in\n    tag_423:\n        /* \"#utility.yul\":20283:20287   */\n      dup3\n        /* \"#utility.yul\":20276:20381   */\n      sstore\n        /* \"#utility.yul\":20194:20387   */\n      pop\n        /* \"#utility.yul\":20118:20387   */\n      pop\n      pop\n      pop\n      jump\t// out\n        /* \"#utility.yul\":20393:20466   */\n    tag_223:\n        /* \"#utility.yul\":20438:20441   */\n      0x00\n        /* \"#utility.yul\":20393:20466   */\n      swap1\n      jump\t// out\n        /* \"#utility.yul\":20472:20661   */\n    tag_224:\n        /* \"#utility.yul\":20549:20581   */\n      tag_427\n      tag_223\n      jump\t// in\n    tag_427:\n        /* \"#utility.yul\":20590:20655   */\n      tag_428\n        /* \"#utility.yul\":20648:20654   */\n      dup2\n        /* \"#utility.yul\":20640:20646   */\n      dup5\n        /* \"#utility.yul\":20634:20638   */\n      dup5\n        /* \"#utility.yul\":20590:20655   */\n      tag_222\n      jump\t// in\n    tag_428:\n        /* \"#utility.yul\":20525:20661   */\n      pop\n        /* \"#utility.yul\":20472:20661   */\n      pop\n      pop\n      jump\t// out\n        /* \"#utility.yul\":20667:20853   */\n    tag_225:\n        /* \"#utility.yul\":20727:20847   */\n    tag_430:\n        /* \"#utility.yul\":20744:20747   */\n      dup2\n        /* \"#utility.yul\":20737:20742   */\n      dup2\n        /* \"#utility.yul\":20734:20748   */\n      lt\n        /* \"#utility.yul\":20727:20847   */\n      iszero\n      tag_432\n      jumpi\n        /* \"#utility.yul\":20798:20837   */\n      tag_433\n        /* \"#utility.yul\":20835:20836   */\n      0x00\n        /* \"#utility.yul\":20828:20833   */\n      dup3\n        /* \"#utility.yul\":20798:20837   */\n      tag_224\n      jump\t// in\n    tag_433:\n        /* \"#utility.yul\":20771:20772   */\n      0x01\n        /* \"#utility.yul\":20764:20769   */\n      dup2\n        /* \"#utility.yul\":20760:20773   */\n      add\n        /* \"#utility.yul\":20751:20773   */\n      swap1\n      pop\n        /* \"#utility.yul\":20727:20847   */\n      jump(tag_430)\n    tag_432:\n        /* \"#utility.yul\":20667:20853   */\n      pop\n      pop\n      jump\t// out\n        /* \"#utility.yul\":20859:21402   */\n    tag_226:\n        /* \"#utility.yul\":20960:20962   */\n      0x1f\n        /* \"#utility.yul\":20955:20958   */\n      dup3\n        /* \"#utility.yul\":20952:20963   */\n      gt\n        /* \"#utility.yul\":20949:21395   */\n      iszero\n      tag_435\n      jumpi\n        /* \"#utility.yul\":20994:21032   */\n      tag_436\n        /* \"#utility.yul\":21026:21031   */\n      dup2\n        /* \"#utility.yul\":20994:21032   */\n      tag_215\n      jump\t// in\n    tag_436:\n        /* \"#utility.yul\":21078:21107   */\n      tag_437\n        /* \"#utility.yul\":21096:21106   */\n      dup5\n        /* \"#utility.yul\":21078:21107   */\n      tag_216\n      jump\t// in\n    tag_437:\n        /* \"#utility.yul\":21068:21076   */\n      dup2\n        /* \"#utility.yul\":21064:21108   */\n      add\n        /* \"#utility.yul\":21261:21263   */\n      0x20\n        /* \"#utility.yul\":21249:21259   */\n      dup6\n        /* \"#utility.yul\":21246:21264   */\n      lt\n        /* \"#utility.yul\":21243:21292   */\n      iszero\n      tag_438\n      jumpi\n        /* \"#utility.yul\":21282:21290   */\n      dup2\n        /* \"#utility.yul\":21267:21290   */\n      swap1\n      pop\n        /* \"#utility.yul\":21243:21292   */\n    tag_438:\n        /* \"#utility.yul\":21305:21385   */\n      tag_439\n        /* \"#utility.yul\":21361:21383   */\n      tag_440\n        /* \"#utility.yul\":21379:21382   */\n      dup6\n        /* \"#utility.yul\":21361:21383   */\n      tag_216\n      jump\t// in\n    tag_440:\n        /* \"#utility.yul\":21351:21359   */\n      dup4\n        /* \"#utility.yul\":21347:21384   */\n      add\n        /* \"#utility.yul\":21334:21345   */\n      dup3\n        /* \"#utility.yul\":21305:21385   */\n      tag_225\n      jump\t// in\n    tag_439:\n        /* \"#utility.yul\":20964:21395   */\n      pop\n      pop\n        /* \"#utility.yul\":20949:21395   */\n    tag_435:\n        /* \"#utility.yul\":20859:21402   */\n      pop\n      pop\n      pop\n      jump\t// out\n        /* \"#utility.yul\":21408:21525   */\n    tag_227:\n        /* \"#utility.yul\":21462:21470   */\n      0x00\n        /* \"#utility.yul\":21512:21517   */\n      dup3\n        /* \"#utility.yul\":21506:21510   */\n      dup3\n        /* \"#utility.yul\":21502:21518   */\n      shr\n        /* \"#utility.yul\":21481:21518   */\n      swap1\n      pop\n        /* \"#utility.yul\":21408:21525   */\n      swap3\n      swap2\n      pop\n      pop\n      jump\t// out\n        /* \"#utility.yul\":21531:21700   */\n    tag_228:\n        /* \"#utility.yul\":21575:21581   */\n      0x00\n        /* \"#utility.yul\":21608:21659   */\n      tag_443\n        /* \"#utility.yul\":21656:21657   */\n      0x00\n        /* \"#utility.yul\":21652:21658   */\n      not\n        /* \"#utility.yul\":21644:21649   */\n      dup5\n        /* \"#utility.yul\":21641:21642   */\n      0x08\n        /* \"#utility.yul\":21637:21650   */\n      mul\n        /* \"#utility.yul\":21608:21659   */\n      tag_227\n      jump\t// in\n    tag_443:\n        /* \"#utility.yul\":21604:21660   */\n      not\n        /* \"#utility.yul\":21689:21693   */\n      dup1\n        /* \"#utility.yul\":21683:21687   */\n      dup4\n        /* \"#utility.yul\":21679:21694   */\n      and\n        /* \"#utility.yul\":21669:21694   */\n      swap2\n      pop\n        /* \"#utility.yul\":21582:21700   */\n      pop\n        /* \"#utility.yul\":21531:21700   */\n      swap3\n      swap2\n      pop\n      pop\n      jump\t// out\n        /* \"#utility.yul\":21705:22000   */\n    tag_229:\n        /* \"#utility.yul\":21781:21785   */\n      0x00\n        /* \"#utility.yul\":21927:21956   */\n      tag_445\n        /* \"#utility.yul\":21952:21955   */\n      dup4\n        /* \"#utility.yul\":21946:21950   */\n      dup4\n        /* \"#utility.yul\":21927:21956   */\n      tag_228\n      jump\t// in\n    tag_445:\n        /* \"#utility.yul\":21919:21956   */\n      swap2\n      pop\n        /* \"#utility.yul\":21989:21992   */\n      dup3\n        /* \"#utility.yul\":21986:21987   */\n      0x02\n        /* \"#utility.yul\":21982:21993   */\n      mul\n        /* \"#utility.yul\":21976:21980   */\n      dup3\n        /* \"#utility.yul\":21973:21994   */\n      or\n        /* \"#utility.yul\":21965:21994   */\n      swap1\n      pop\n        /* \"#utility.yul\":21705:22000   */\n      swap3\n      swap2\n      pop\n      pop\n      jump\t// out\n        /* \"#utility.yul\":22005:23400   */\n    tag_162:\n        /* \"#utility.yul\":22122:22159   */\n      tag_447\n        /* \"#utility.yul\":22155:22158   */\n      dup3\n        /* \"#utility.yul\":22122:22159   */\n      tag_185\n      jump\t// in\n    tag_447:\n        /* \"#utility.yul\":22224:22242   */\n      0xffffffffffffffff\n        /* \"#utility.yul\":22216:22222   */\n      dup2\n        /* \"#utility.yul\":22213:22243   */\n      gt\n        /* \"#utility.yul\":22210:22266   */\n      iszero\n      tag_448\n      jumpi\n        /* \"#utility.yul\":22246:22264   */\n      tag_449\n      tag_172\n      jump\t// in\n    tag_449:\n        /* \"#utility.yul\":22210:22266   */\n    tag_448:\n        /* \"#utility.yul\":22290:22328   */\n      tag_450\n        /* \"#utility.yul\":22322:22326   */\n      dup3\n        /* \"#utility.yul\":22316:22327   */\n      sload\n        /* \"#utility.yul\":22290:22328   */\n      tag_95\n      jump\t// in\n    tag_450:\n        /* \"#utility.yul\":22375:22442   */\n      tag_451\n        /* \"#utility.yul\":22435:22441   */\n      dup3\n        /* \"#utility.yul\":22427:22433   */\n      dup3\n        /* \"#utility.yul\":22421:22425   */\n      dup6\n        /* \"#utility.yul\":22375:22442   */\n      tag_226\n      jump\t// in\n    tag_451:\n        /* \"#utility.yul\":22469:22470   */\n      0x00\n        /* \"#utility.yul\":22493:22497   */\n      0x20\n        /* \"#utility.yul\":22480:22497   */\n      swap1\n      pop\n        /* \"#utility.yul\":22525:22527   */\n      0x1f\n        /* \"#utility.yul\":22517:22523   */\n      dup4\n        /* \"#utility.yul\":22514:22528   */\n      gt\n        /* \"#utility.yul\":22542:22543   */\n      0x01\n        /* \"#utility.yul\":22537:23155   */\n      dup2\n      eq\n      tag_453\n      jumpi\n        /* \"#utility.yul\":23199:23200   */\n      0x00\n        /* \"#utility.yul\":23216:23222   */\n      dup5\n        /* \"#utility.yul\":23213:23290   */\n      iszero\n      tag_454\n      jumpi\n        /* \"#utility.yul\":23265:23274   */\n      dup3\n        /* \"#utility.yul\":23260:23263   */\n      dup8\n        /* \"#utility.yul\":23256:23275   */\n      add\n        /* \"#utility.yul\":23250:23276   */\n      mload\n        /* \"#utility.yul\":23241:23276   */\n      swap1\n      pop\n        /* \"#utility.yul\":23213:23290   */\n    tag_454:\n        /* \"#utility.yul\":23316:23383   */\n      tag_455\n        /* \"#utility.yul\":23376:23382   */\n      dup6\n        /* \"#utility.yul\":23369:23374   */\n      dup3\n        /* \"#utility.yul\":23316:23383   */\n      tag_229\n      jump\t// in\n    tag_455:\n        /* \"#utility.yul\":23310:23314   */\n      dup7\n        /* \"#utility.yul\":23303:23384   */\n      sstore\n        /* \"#utility.yul\":23172:23394   */\n      pop\n        /* \"#utility.yul\":22507:23394   */\n      jump(tag_452)\n        /* \"#utility.yul\":22537:23155   */\n    tag_453:\n        /* \"#utility.yul\":22589:22593   */\n      0x1f\n        /* \"#utility.yul\":22585:22594   */\n      not\n        /* \"#utility.yul\":22577:22583   */\n      dup5\n        /* \"#utility.yul\":22573:22595   */\n      and\n        /* \"#utility.yul\":22623:22660   */\n      tag_456\n        /* \"#utility.yul\":22655:22659   */\n      dup7\n        /* \"#utility.yul\":22623:22660   */\n      tag_215\n      jump\t// in\n    tag_456:\n        /* \"#utility.yul\":22682:22683   */\n      0x00\n        /* \"#utility.yul\":22696:22904   */\n    tag_457:\n        /* \"#utility.yul\":22710:22717   */\n      dup3\n        /* \"#utility.yul\":22707:22708   */\n      dup2\n        /* \"#utility.yul\":22704:22718   */\n      lt\n        /* \"#utility.yul\":22696:22904   */\n      iszero\n      tag_459\n      jumpi\n        /* \"#utility.yul\":22789:22798   */\n      dup5\n        /* \"#utility.yul\":22784:22787   */\n      dup10\n        /* \"#utility.yul\":22780:22799   */\n      add\n        /* \"#utility.yul\":22774:22800   */\n      mload\n        /* \"#utility.yul\":22766:22772   */\n      dup3\n        /* \"#utility.yul\":22759:22801   */\n      sstore\n        /* \"#utility.yul\":22840:22841   */\n      0x01\n        /* \"#utility.yul\":22832:22838   */\n      dup3\n        /* \"#utility.yul\":22828:22842   */\n      add\n        /* \"#utility.yul\":22818:22842   */\n      swap2\n      pop\n        /* \"#utility.yul\":22887:22889   */\n      0x20\n        /* \"#utility.yul\":22876:22885   */\n      dup6\n        /* \"#utility.yul\":22872:22890   */\n      add\n        /* \"#utility.yul\":22859:22890   */\n      swap5\n      pop\n        /* \"#utility.yul\":22733:22737   */\n      0x20\n        /* \"#utility.yul\":22730:22731   */\n      dup2\n        /* \"#utility.yul\":22726:22738   */\n      add\n        /* \"#utility.yul\":22721:22738   */\n      swap1\n      pop\n        /* \"#utility.yul\":22696:22904   */\n      jump(tag_457)\n    tag_459:\n        /* \"#utility.yul\":22932:22938   */\n      dup7\n        /* \"#utility.yul\":22923:22930   */\n      dup4\n        /* \"#utility.yul\":22920:22939   */\n      lt\n        /* \"#utility.yul\":22917:23096   */\n      iszero\n      tag_460\n      jumpi\n        /* \"#utility.yul\":22990:22999   */\n      dup5\n        /* \"#utility.yul\":22985:22988   */\n      dup10\n        /* \"#utility.yul\":22981:23000   */\n      add\n        /* \"#utility.yul\":22975:23001   */\n      mload\n        /* \"#utility.yul\":23033:23081   */\n      tag_461\n        /* \"#utility.yul\":23075:23079   */\n      0x1f\n        /* \"#utility.yul\":23067:23073   */\n      dup10\n        /* \"#utility.yul\":23063:23080   */\n      and\n        /* \"#utility.yul\":23052:23061   */\n      dup3\n        /* \"#utility.yul\":23033:23081   */\n      tag_228\n      jump\t// in\n    tag_461:\n        /* \"#utility.yul\":23025:23031   */\n      dup4\n        /* \"#utility.yul\":23018:23082   */\n      sstore\n        /* \"#utility.yul\":22940:23096   */\n      pop\n        /* \"#utility.yul\":22917:23096   */\n    tag_460:\n        /* \"#utility.yul\":23142:23143   */\n      0x01\n        /* \"#utility.yul\":23138:23139   */\n      0x02\n        /* \"#utility.yul\":23130:23136   */\n      dup9\n        /* \"#utility.yul\":23126:23140   */\n      mul\n        /* \"#utility.yul\":23122:23144   */\n      add\n        /* \"#utility.yul\":23116:23120   */\n      dup9\n        /* \"#utility.yul\":23109:23145   */\n      sstore\n        /* \"#utility.yul\":22544:23155   */\n      pop\n      pop\n      pop\n        /* \"#utility.yul\":22507:23394   */\n    tag_452:\n      pop\n        /* \"#utility.yul\":22097:23400   */\n      pop\n      pop\n      pop\n        /* \"#utility.yul\":22005:23400   */\n      pop\n      pop\n      jump\t// out\n\n    auxdata: 0xa26469706673582212208869125a41176e7a7952d063d7e0ab7748b145813472b34ce69db1b13f963d3364736f6c63430008160033\n}\n",
				"bytecode": {
					"linkReferences": {},
					"object": "60806040526801158e460913d0000060025561012c42620000219190620000c8565b60035534801562000030575f80fd5b5033600460016101000a81548173ffffffffffffffffffffffffffffffffffffffff021916908373ffffffffffffffffffffffffffffffffffffffff160217905550600160045f6101000a81548160ff02191690831515021790555062000102565b5f819050919050565b7f4e487b71000000000000000000000000000000000000000000000000000000005f52601160045260245ffd5b5f620000d48262000092565b9150620000e18362000092565b9250828201905080821115620000fc57620000fb6200009b565b5b92915050565b61181c80620001105f395ff3fe6080604052600436106100c1575f3560e01c806351b42b001161007e57806368a6cdf21161005857806368a6cdf2146102215780636f93dd911461025d5780638da5cb5b14610299578063a08f793c146102c3576100c1565b806351b42b00146101d7578063590e1ae3146101ed57806361bc221a146101f7576100c1565b806302fb0c5e146100c55780630842b53c146100ef5780631c1a9f7b146101175780632ca126f814610153578063379607f51461017d57806340193883146101ad575b5f80fd5b3480156100d0575f80fd5b506100d96102f3565b6040516100e69190610c0e565b60405180910390f35b3480156100fa575f80fd5b5061011560048036038101906101109190610da7565b610305565b005b348015610122575f80fd5b5061013d60048036038101906101389190610e2f565b6103c6565b60405161014a9190610ff2565b60405180910390f35b34801561015e575f80fd5b5061016761055c565b6040516101749190611021565b60405180910390f35b61019760048036038101906101929190610e2f565b610562565b6040516101a49190610ff2565b60405180910390f35b3480156101b8575f80fd5b506101c161071d565b6040516101ce9190611021565b60405180910390f35b3480156101e2575f80fd5b506101eb610723565b005b6101f561073e565b005b348015610202575f80fd5b5061020b6107fe565b6040516102189190611021565b60405180910390f35b34801561022c575f80fd5b5061024760048036038101906102429190611094565b610804565b6040516102549190611021565b60405180910390f35b348015610268575f80fd5b50610283600480360381019061027e9190610e2f565b610819565b6040516102909190611107565b60405180910390f35b3480156102a4575f80fd5b506102ad610902565b6040516102ba9190611136565b60405180910390f35b6102dd60048036038101906102d8919061118a565b610928565b6040516102ea9190610ff2565b60405180910390f35b60045f9054906101000a900460ff1681565b60045f9054906101000a900460ff16610353576040517f08c379a000000000000000000000000000000000000000000000000000000000815260040161034a90611224565b60405180910390fd5b61035e838383610b67565b5f805f6101000a81548160ff0219169083600381111561038157610380611242565b5b02179055507f1dfd8cec52292c44a89be6bd42f905ddc92c63b3a343c239093964d1038e1b9b3384846040516103b99392919061126f565b60405180910390a1505050565b606060065f8381526020019081526020015f20805480602002602001604051908101604052809291908181526020015f905b82821015610551578382905f5260205f2090600302016040518060600160405290815f82018054610428906112df565b80601f0160208091040260200160405190810160405280929190818152602001828054610454906112df565b801561049f5780601f106104765761010080835404028352916020019161049f565b820191905f5260205f20905b81548152906001019060200180831161048257829003601f168201915b505050505081526020016001820180546104b8906112df565b80601f01602080910402602001604051908101604052809291908181526020018280546104e4906112df565b801561052f5780601f106105065761010080835404028352916020019161052f565b820191905f5260205f20905b81548152906001019060200180831161051257829003601f168201915b50505050508152602001600282015481525050815260200190600101906103f8565b505050509050919050565b60035481565b6060600460019054906101000a900473ffffffffffffffffffffffffffffffffffffffff1673ffffffffffffffffffffffffffffffffffffffff163373ffffffffffffffffffffffffffffffffffffffff16146105f4576040517f08c379a00000000000000000000000000000000000000000000000000000000081526004016105eb90611359565b60405180910390fd5b60025447106106dd57600460019054906101000a900473ffffffffffffffffffffffffffffffffffffffff1673ffffffffffffffffffffffffffffffffffffffff166108fc4790811502906040515f60405180830381858888f19350505050158015610662573d5f803e3d5ffd5b5061066b610723565b60025f806101000a81548160ff0219169083600381111561068f5761068e611242565b5b02179055507f4c51d260ed01191bd8c324dcc6426ba425e832f37a19e155c7182baa9839bd4333476040516106c5929190611377565b60405180910390a16106d6826103c6565b9050610718565b6040517f08c379a000000000000000000000000000000000000000000000000000000000815260040161070f9061140e565b60405180910390fd5b919050565b60025481565b5f60045f6101000a81548160ff021916908315150217905550565b60025447108061075057506003544210155b1561079a573373ffffffffffffffffffffffffffffffffffffffff166108fc4790811502906040515f60405180830381858888f19350505050158015610798573d5f803e3d5ffd5b505b60035f806101000a81548160ff021916908360038111156107be576107bd611242565b5b02179055507f13449f70035221bfd809cb8d8994f004f2f917bbc10a9f431bfa7b3f423c0b2533346040516107f4929190611377565b60405180910390a1565b60055481565b6007602052805f5260405f205f915090505481565b60605f60065f8481526020019081526020015f208054905090505f5b818110156108c2578360065f8681526020019081526020015f2082815481106108615761086061142c565b5b905f5260205f20906003020160020154036108b5576040518060400160405280601381526020017f7573657220617265207265676973746572656400000000000000000000000000815250925050506108fd565b8080600101915050610835565b506040518060400160405280601781526020017f7573657220617265206e6f7420726567697374657265640000000000000000008152509150505b919050565b600460019054906101000a900473ffffffffffffffffffffffffffffffffffffffff1681565b6060600460019054906101000a900473ffffffffffffffffffffffffffffffffffffffff1673ffffffffffffffffffffffffffffffffffffffff163373ffffffffffffffffffffffffffffffffffffffff16146109ba576040517f08c379a00000000000000000000000000000000000000000000000000000000081526004016109b190611359565b60405180910390fd5b60045f9054906101000a900460ff16610a08576040517f08c379a00000000000000000000000000000000000000000000000000000000081526004016109ff90611224565b60405180910390fd5b600354421115610a4d576040517f08c379a0000000000000000000000000000000000000000000000000000000008152600401610a44906114c9565b60405180910390fd5b60015f806101000a81548160ff02191690836003811115610a7157610a70611242565b5b02179055508160075f3373ffffffffffffffffffffffffffffffffffffffff1673ffffffffffffffffffffffffffffffffffffffff1681526020019081526020015f205f828254610ac29190611514565b925050819055508160075f8673ffffffffffffffffffffffffffffffffffffffff1673ffffffffffffffffffffffffffffffffffffffff1681526020019081526020015f205f828254610b159190611547565b925050819055507f550b521cf33b3a7fe1363ea8bed6130500d8a27ced06a0fc13576b96cf1552893383604051610b4d929190611377565b60405180910390a1610b5e836103c6565b90509392505050565b60065f8281526020019081526020015f20604051806060016040528085815260200184815260200183815250908060018154018082558091505060019003905f5260205f2090600302015f909190919091505f820151815f019081610bcc9190611717565b506020820151816001019081610be29190611717565b50604082015181600201555050505050565b5f8115159050919050565b610c0881610bf4565b82525050565b5f602082019050610c215f830184610bff565b92915050565b5f604051905090565b5f80fd5b5f80fd5b5f80fd5b5f80fd5b5f601f19601f8301169050919050565b7f4e487b71000000000000000000000000000000000000000000000000000000005f52604160045260245ffd5b610c8682610c40565b810181811067ffffffffffffffff82111715610ca557610ca4610c50565b5b80604052505050565b5f610cb7610c27565b9050610cc38282610c7d565b919050565b5f67ffffffffffffffff821115610ce257610ce1610c50565b5b610ceb82610c40565b9050602081019050919050565b828183375f83830152505050565b5f610d18610d1384610cc8565b610cae565b905082815260208101848484011115610d3457610d33610c3c565b5b610d3f848285610cf8565b509392505050565b5f82601f830112610d5b57610d5a610c38565b5b8135610d6b848260208601610d06565b91505092915050565b5f819050919050565b610d8681610d74565b8114610d90575f80fd5b50565b5f81359050610da181610d7d565b92915050565b5f805f60608486031215610dbe57610dbd610c30565b5b5f84013567ffffffffffffffff811115610ddb57610dda610c34565b5b610de786828701610d47565b935050602084013567ffffffffffffffff811115610e0857610e07610c34565b5b610e1486828701610d47565b9250506040610e2586828701610d93565b9150509250925092565b5f60208284031215610e4457610e43610c30565b5b5f610e5184828501610d93565b91505092915050565b5f81519050919050565b5f82825260208201905092915050565b5f819050602082019050919050565b5f81519050919050565b5f82825260208201905092915050565b5f5b83811015610eba578082015181840152602081019050610e9f565b5f8484015250505050565b5f610ecf82610e83565b610ed98185610e8d565b9350610ee9818560208601610e9d565b610ef281610c40565b840191505092915050565b610f0681610d74565b82525050565b5f606083015f8301518482035f860152610f268282610ec5565b91505060208301518482036020860152610f408282610ec5565b9150506040830151610f556040860182610efd565b508091505092915050565b5f610f6b8383610f0c565b905092915050565b5f602082019050919050565b5f610f8982610e5a565b610f938185610e64565b935083602082028501610fa585610e74565b805f5b85811015610fe05784840389528151610fc18582610f60565b9450610fcc83610f73565b925060208a01995050600181019050610fa8565b50829750879550505050505092915050565b5f6020820190508181035f83015261100a8184610f7f565b905092915050565b61101b81610d74565b82525050565b5f6020820190506110345f830184611012565b92915050565b5f73ffffffffffffffffffffffffffffffffffffffff82169050919050565b5f6110638261103a565b9050919050565b61107381611059565b811461107d575f80fd5b50565b5f8135905061108e8161106a565b92915050565b5f602082840312156110a9576110a8610c30565b5b5f6110b684828501611080565b91505092915050565b5f82825260208201905092915050565b5f6110d982610e83565b6110e381856110bf565b93506110f3818560208601610e9d565b6110fc81610c40565b840191505092915050565b5f6020820190508181035f83015261111f81846110cf565b905092915050565b61113081611059565b82525050565b5f6020820190506111495f830184611127565b92915050565b5f6111598261103a565b9050919050565b6111698161114f565b8114611173575f80fd5b50565b5f8135905061118481611160565b92915050565b5f805f606084860312156111a1576111a0610c30565b5b5f6111ae86828701611176565b93505060206111bf86828701610d93565b92505060406111d086828701610d93565b9150509250925092565b7f7374617465206973206e6f7420616374697665000000000000000000000000005f82015250565b5f61120e6013836110bf565b9150611219826111da565b602082019050919050565b5f6020820190508181035f83015261123b81611202565b9050919050565b7f4e487b71000000000000000000000000000000000000000000000000000000005f52602160045260245ffd5b5f6060820190506112825f830186611127565b818103602083015261129481856110cf565b905081810360408301526112a881846110cf565b9050949350505050565b7f4e487b71000000000000000000000000000000000000000000000000000000005f52602260045260245ffd5b5f60028204905060018216806112f657607f821691505b602082108103611309576113086112b2565b5b50919050565b7f6f6e6c79206f776e65722063616e2075736520746869732066756e6374696f6e5f82015250565b5f6113436020836110bf565b915061134e8261130f565b602082019050919050565b5f6020820190508181035f83015261137081611337565b9050919050565b5f60408201905061138a5f830185611127565b6113976020830184611012565b9392505050565b7f66756e647320617265206e6f742073756666696369656e7420666f7220636c615f8201527f696d696e67000000000000000000000000000000000000000000000000000000602082015250565b5f6113f86025836110bf565b91506114038261139e565b604082019050919050565b5f6020820190508181035f830152611425816113ec565b9050919050565b7f4e487b71000000000000000000000000000000000000000000000000000000005f52603260045260245ffd5b7f74696d6520656e64206e6f7420636f6e747269627574696f6e2061726520616c5f8201527f6c6f776564000000000000000000000000000000000000000000000000000000602082015250565b5f6114b36025836110bf565b91506114be82611459565b604082019050919050565b5f6020820190508181035f8301526114e0816114a7565b9050919050565b7f4e487b71000000000000000000000000000000000000000000000000000000005f52601160045260245ffd5b5f61151e82610d74565b915061152983610d74565b9250828203905081811115611541576115406114e7565b5b92915050565b5f61155182610d74565b915061155c83610d74565b9250828201905080821115611574576115736114e7565b5b92915050565b5f819050815f5260205f209050919050565b5f6020601f8301049050919050565b5f82821b905092915050565b5f600883026115d67fffffffffffffffffffffffffffffffffffffffffffffffffffffffffffffffff8261159b565b6115e0868361159b565b95508019841693508086168417925050509392505050565b5f819050919050565b5f61161b61161661161184610d74565b6115f8565b610d74565b9050919050565b5f819050919050565b61163483611601565b61164861164082611622565b8484546115a7565b825550505050565b5f90565b61165c611650565b61166781848461162b565b505050565b5b8181101561168a5761167f5f82611654565b60018101905061166d565b5050565b601f8211156116cf576116a08161157a565b6116a98461158c565b810160208510156116b8578190505b6116cc6116c48561158c565b83018261166c565b50505b505050565b5f82821c905092915050565b5f6116ef5f19846008026116d4565b1980831691505092915050565b5f61170783836116e0565b9150826002028217905092915050565b61172082610e83565b67ffffffffffffffff81111561173957611738610c50565b5b61174382546112df565b61174e82828561168e565b5f60209050601f83116001811461177f575f841561176d578287015190505b61177785826116fc565b8655506117de565b601f19841661178d8661157a565b5f5b828110156117b45784890151825560018201915060208501945060208101905061178f565b868310156117d157848901516117cd601f8916826116e0565b8355505b6001600288020188555050505b50505050505056fea26469706673582212208869125a41176e7a7952d063d7e0ab7748b145813472b34ce69db1b13f963d3364736f6c63430008160033",
					"opcodes": "PUSH1 0x80 PUSH1 0x40 MSTORE PUSH9 0x1158E460913D00000 PUSH1 0x2 SSTORE PUSH2 0x12C TIMESTAMP PUSH3 0x21 SWAP2 SWAP1 PUSH3 0xC8 JUMP JUMPDEST PUSH1 0x3 SSTORE CALLVALUE DUP1 ISZERO PUSH3 0x30 JUMPI PUSH0 DUP1 REVERT JUMPDEST POP CALLER PUSH1 0x4 PUSH1 0x1 PUSH2 0x100 EXP DUP2 SLOAD DUP2 PUSH20 0xFFFFFFFFFFFFFFFFFFFFFFFFFFFFFFFFFFFFFFFF MUL NOT AND SWAP1 DUP4 PUSH20 0xFFFFFFFFFFFFFFFFFFFFFFFFFFFFFFFFFFFFFFFF AND MUL OR SWAP1 SSTORE POP PUSH1 0x1 PUSH1 0x4 PUSH0 PUSH2 0x100 EXP DUP2 SLOAD DUP2 PUSH1 0xFF MUL NOT AND SWAP1 DUP4 ISZERO ISZERO MUL OR SWAP1 SSTORE POP PUSH3 0x102 JUMP JUMPDEST PUSH0 DUP2 SWAP1 POP SWAP2 SWAP1 POP JUMP JUMPDEST PUSH32 0x4E487B7100000000000000000000000000000000000000000000000000000000 PUSH0 MSTORE PUSH1 0x11 PUSH1 0x4 MSTORE PUSH1 0x24 PUSH0 REVERT JUMPDEST PUSH0 PUSH3 0xD4 DUP3 PUSH3 0x92 JUMP JUMPDEST SWAP2 POP PUSH3 0xE1 DUP4 PUSH3 0x92 JUMP JUMPDEST SWAP3 POP DUP3 DUP3 ADD SWAP1 POP DUP1 DUP3 GT ISZERO PUSH3 0xFC JUMPI PUSH3 0xFB PUSH3 0x9B JUMP JUMPDEST JUMPDEST SWAP3 SWAP2 POP POP JUMP JUMPDEST PUSH2 0x181C DUP1 PUSH3 0x110 PUSH0 CODECOPY PUSH0 RETURN INVALID PUSH1 0x80 PUSH1 0x40 MSTORE PUSH1 0x4 CALLDATASIZE LT PUSH2 0xC1 JUMPI PUSH0 CALLDATALOAD PUSH1 0xE0 SHR DUP1 PUSH4 0x51B42B00 GT PUSH2 0x7E JUMPI DUP1 PUSH4 0x68A6CDF2 GT PUSH2 0x58 JUMPI DUP1 PUSH4 0x68A6CDF2 EQ PUSH2 0x221 JUMPI DUP1 PUSH4 0x6F93DD91 EQ PUSH2 0x25D JUMPI DUP1 PUSH4 0x8DA5CB5B EQ PUSH2 0x299 JUMPI DUP1 PUSH4 0xA08F793C EQ PUSH2 0x2C3 JUMPI PUSH2 0xC1 JUMP JUMPDEST DUP1 PUSH4 0x51B42B00 EQ PUSH2 0x1D7 JUMPI DUP1 PUSH4 0x590E1AE3 EQ PUSH2 0x1ED JUMPI DUP1 PUSH4 0x61BC221A EQ PUSH2 0x1F7 JUMPI PUSH2 0xC1 JUMP JUMPDEST DUP1 PUSH4 0x2FB0C5E EQ PUSH2 0xC5 JUMPI DUP1 PUSH4 0x842B53C EQ PUSH2 0xEF JUMPI DUP1 PUSH4 0x1C1A9F7B EQ PUSH2 0x117 JUMPI DUP1 PUSH4 0x2CA126F8 EQ PUSH2 0x153 JUMPI DUP1 PUSH4 0x379607F5 EQ PUSH2 0x17D JUMPI DUP1 PUSH4 0x40193883 EQ PUSH2 0x1AD JUMPI JUMPDEST PUSH0 DUP1 REVERT JUMPDEST CALLVALUE DUP1 ISZERO PUSH2 0xD0 JUMPI PUSH0 DUP1 REVERT JUMPDEST POP PUSH2 0xD9 PUSH2 0x2F3 JUMP JUMPDEST PUSH1 0x40 MLOAD PUSH2 0xE6 SWAP2 SWAP1 PUSH2 0xC0E JUMP JUMPDEST PUSH1 0x40 MLOAD DUP1 SWAP2 SUB SWAP1 RETURN JUMPDEST CALLVALUE DUP1 ISZERO PUSH2 0xFA JUMPI PUSH0 DUP1 REVERT JUMPDEST POP PUSH2 0x115 PUSH1 0x4 DUP1 CALLDATASIZE SUB DUP2 ADD SWAP1 PUSH2 0x110 SWAP2 SWAP1 PUSH2 0xDA7 JUMP JUMPDEST PUSH2 0x305 JUMP JUMPDEST STOP JUMPDEST CALLVALUE DUP1 ISZERO PUSH2 0x122 JUMPI PUSH0 DUP1 REVERT JUMPDEST POP PUSH2 0x13D PUSH1 0x4 DUP1 CALLDATASIZE SUB DUP2 ADD SWAP1 PUSH2 0x138 SWAP2 SWAP1 PUSH2 0xE2F JUMP JUMPDEST PUSH2 0x3C6 JUMP JUMPDEST PUSH1 0x40 MLOAD PUSH2 0x14A SWAP2 SWAP1 PUSH2 0xFF2 JUMP JUMPDEST PUSH1 0x40 MLOAD DUP1 SWAP2 SUB SWAP1 RETURN JUMPDEST CALLVALUE DUP1 ISZERO PUSH2 0x15E JUMPI PUSH0 DUP1 REVERT JUMPDEST POP PUSH2 0x167 PUSH2 0x55C JUMP JUMPDEST PUSH1 0x40 MLOAD PUSH2 0x174 SWAP2 SWAP1 PUSH2 0x1021 JUMP JUMPDEST PUSH1 0x40 MLOAD DUP1 SWAP2 SUB SWAP1 RETURN JUMPDEST PUSH2 0x197 PUSH1 0x4 DUP1 CALLDATASIZE SUB DUP2 ADD SWAP1 PUSH2 0x192 SWAP2 SWAP1 PUSH2 0xE2F JUMP JUMPDEST PUSH2 0x562 JUMP JUMPDEST PUSH1 0x40 MLOAD PUSH2 0x1A4 SWAP2 SWAP1 PUSH2 0xFF2 JUMP JUMPDEST PUSH1 0x40 MLOAD DUP1 SWAP2 SUB SWAP1 RETURN JUMPDEST CALLVALUE DUP1 ISZERO PUSH2 0x1B8 JUMPI PUSH0 DUP1 REVERT JUMPDEST POP PUSH2 0x1C1 PUSH2 0x71D JUMP JUMPDEST PUSH1 0x40 MLOAD PUSH2 0x1CE SWAP2 SWAP1 PUSH2 0x1021 JUMP JUMPDEST PUSH1 0x40 MLOAD DUP1 SWAP2 SUB SWAP1 RETURN JUMPDEST CALLVALUE DUP1 ISZERO PUSH2 0x1E2 JUMPI PUSH0 DUP1 REVERT JUMPDEST POP PUSH2 0x1EB PUSH2 0x723 JUMP JUMPDEST STOP JUMPDEST PUSH2 0x1F5 PUSH2 0x73E JUMP JUMPDEST STOP JUMPDEST CALLVALUE DUP1 ISZERO PUSH2 0x202 JUMPI PUSH0 DUP1 REVERT JUMPDEST POP PUSH2 0x20B PUSH2 0x7FE JUMP JUMPDEST PUSH1 0x40 MLOAD PUSH2 0x218 SWAP2 SWAP1 PUSH2 0x1021 JUMP JUMPDEST PUSH1 0x40 MLOAD DUP1 SWAP2 SUB SWAP1 RETURN JUMPDEST CALLVALUE DUP1 ISZERO PUSH2 0x22C JUMPI PUSH0 DUP1 REVERT JUMPDEST POP PUSH2 0x247 PUSH1 0x4 DUP1 CALLDATASIZE SUB DUP2 ADD SWAP1 PUSH2 0x242 SWAP2 SWAP1 PUSH2 0x1094 JUMP JUMPDEST PUSH2 0x804 JUMP JUMPDEST PUSH1 0x40 MLOAD PUSH2 0x254 SWAP2 SWAP1 PUSH2 0x1021 JUMP JUMPDEST PUSH1 0x40 MLOAD DUP1 SWAP2 SUB SWAP1 RETURN JUMPDEST CALLVALUE DUP1 ISZERO PUSH2 0x268 JUMPI PUSH0 DUP1 REVERT JUMPDEST POP PUSH2 0x283 PUSH1 0x4 DUP1 CALLDATASIZE SUB DUP2 ADD SWAP1 PUSH2 0x27E SWAP2 SWAP1 PUSH2 0xE2F JUMP JUMPDEST PUSH2 0x819 JUMP JUMPDEST PUSH1 0x40 MLOAD PUSH2 0x290 SWAP2 SWAP1 PUSH2 0x1107 JUMP JUMPDEST PUSH1 0x40 MLOAD DUP1 SWAP2 SUB SWAP1 RETURN JUMPDEST CALLVALUE DUP1 ISZERO PUSH2 0x2A4 JUMPI PUSH0 DUP1 REVERT JUMPDEST POP PUSH2 0x2AD PUSH2 0x902 JUMP JUMPDEST PUSH1 0x40 MLOAD PUSH2 0x2BA SWAP2 SWAP1 PUSH2 0x1136 JUMP JUMPDEST PUSH1 0x40 MLOAD DUP1 SWAP2 SUB SWAP1 RETURN JUMPDEST PUSH2 0x2DD PUSH1 0x4 DUP1 CALLDATASIZE SUB DUP2 ADD SWAP1 PUSH2 0x2D8 SWAP2 SWAP1 PUSH2 0x118A JUMP JUMPDEST PUSH2 0x928 JUMP JUMPDEST PUSH1 0x40 MLOAD PUSH2 0x2EA SWAP2 SWAP1 PUSH2 0xFF2 JUMP JUMPDEST PUSH1 0x40 MLOAD DUP1 SWAP2 SUB SWAP1 RETURN JUMPDEST PUSH1 0x4 PUSH0 SWAP1 SLOAD SWAP1 PUSH2 0x100 EXP SWAP1 DIV PUSH1 0xFF AND DUP2 JUMP JUMPDEST PUSH1 0x4 PUSH0 SWAP1 SLOAD SWAP1 PUSH2 0x100 EXP SWAP1 DIV PUSH1 0xFF AND PUSH2 0x353 JUMPI PUSH1 0x40 MLOAD PUSH32 0x8C379A000000000000000000000000000000000000000000000000000000000 DUP2 MSTORE PUSH1 0x4 ADD PUSH2 0x34A SWAP1 PUSH2 0x1224 JUMP JUMPDEST PUSH1 0x40 MLOAD DUP1 SWAP2 SUB SWAP1 REVERT JUMPDEST PUSH2 0x35E DUP4 DUP4 DUP4 PUSH2 0xB67 JUMP JUMPDEST PUSH0 DUP1 PUSH0 PUSH2 0x100 EXP DUP2 SLOAD DUP2 PUSH1 0xFF MUL NOT AND SWAP1 DUP4 PUSH1 0x3 DUP2 GT ISZERO PUSH2 0x381 JUMPI PUSH2 0x380 PUSH2 0x1242 JUMP JUMPDEST JUMPDEST MUL OR SWAP1 SSTORE POP PUSH32 0x1DFD8CEC52292C44A89BE6BD42F905DDC92C63B3A343C239093964D1038E1B9B CALLER DUP5 DUP5 PUSH1 0x40 MLOAD PUSH2 0x3B9 SWAP4 SWAP3 SWAP2 SWAP1 PUSH2 0x126F JUMP JUMPDEST PUSH1 0x40 MLOAD DUP1 SWAP2 SUB SWAP1 LOG1 POP POP POP JUMP JUMPDEST PUSH1 0x60 PUSH1 0x6 PUSH0 DUP4 DUP2 MSTORE PUSH1 0x20 ADD SWAP1 DUP2 MSTORE PUSH1 0x20 ADD PUSH0 KECCAK256 DUP1 SLOAD DUP1 PUSH1 0x20 MUL PUSH1 0x20 ADD PUSH1 0x40 MLOAD SWAP1 DUP2 ADD PUSH1 0x40 MSTORE DUP1 SWAP3 SWAP2 SWAP1 DUP2 DUP2 MSTORE PUSH1 0x20 ADD PUSH0 SWAP1 JUMPDEST DUP3 DUP3 LT ISZERO PUSH2 0x551 JUMPI DUP4 DUP3 SWAP1 PUSH0 MSTORE PUSH1 0x20 PUSH0 KECCAK256 SWAP1 PUSH1 0x3 MUL ADD PUSH1 0x40 MLOAD DUP1 PUSH1 0x60 ADD PUSH1 0x40 MSTORE SWAP1 DUP2 PUSH0 DUP3 ADD DUP1 SLOAD PUSH2 0x428 SWAP1 PUSH2 0x12DF JUMP JUMPDEST DUP1 PUSH1 0x1F ADD PUSH1 0x20 DUP1 SWAP2 DIV MUL PUSH1 0x20 ADD PUSH1 0x40 MLOAD SWAP1 DUP2 ADD PUSH1 0x40 MSTORE DUP1 SWAP3 SWAP2 SWAP1 DUP2 DUP2 MSTORE PUSH1 0x20 ADD DUP3 DUP1 SLOAD PUSH2 0x454 SWAP1 PUSH2 0x12DF JUMP JUMPDEST DUP1 ISZERO PUSH2 0x49F JUMPI DUP1 PUSH1 0x1F LT PUSH2 0x476 JUMPI PUSH2 0x100 DUP1 DUP4 SLOAD DIV MUL DUP4 MSTORE SWAP2 PUSH1 0x20 ADD SWAP2 PUSH2 0x49F JUMP JUMPDEST DUP3 ADD SWAP2 SWAP1 PUSH0 MSTORE PUSH1 0x20 PUSH0 KECCAK256 SWAP1 JUMPDEST DUP2 SLOAD DUP2 MSTORE SWAP1 PUSH1 0x1 ADD SWAP1 PUSH1 0x20 ADD DUP1 DUP4 GT PUSH2 0x482 JUMPI DUP3 SWAP1 SUB PUSH1 0x1F AND DUP3 ADD SWAP2 JUMPDEST POP POP POP POP POP DUP2 MSTORE PUSH1 0x20 ADD PUSH1 0x1 DUP3 ADD DUP1 SLOAD PUSH2 0x4B8 SWAP1 PUSH2 0x12DF JUMP JUMPDEST DUP1 PUSH1 0x1F ADD PUSH1 0x20 DUP1 SWAP2 DIV MUL PUSH1 0x20 ADD PUSH1 0x40 MLOAD SWAP1 DUP2 ADD PUSH1 0x40 MSTORE DUP1 SWAP3 SWAP2 SWAP1 DUP2 DUP2 MSTORE PUSH1 0x20 ADD DUP3 DUP1 SLOAD PUSH2 0x4E4 SWAP1 PUSH2 0x12DF JUMP JUMPDEST DUP1 ISZERO PUSH2 0x52F JUMPI DUP1 PUSH1 0x1F LT PUSH2 0x506 JUMPI PUSH2 0x100 DUP1 DUP4 SLOAD DIV MUL DUP4 MSTORE SWAP2 PUSH1 0x20 ADD SWAP2 PUSH2 0x52F JUMP JUMPDEST DUP3 ADD SWAP2 SWAP1 PUSH0 MSTORE PUSH1 0x20 PUSH0 KECCAK256 SWAP1 JUMPDEST DUP2 SLOAD DUP2 MSTORE SWAP1 PUSH1 0x1 ADD SWAP1 PUSH1 0x20 ADD DUP1 DUP4 GT PUSH2 0x512 JUMPI DUP3 SWAP1 SUB PUSH1 0x1F AND DUP3 ADD SWAP2 JUMPDEST POP POP POP POP POP DUP2 MSTORE PUSH1 0x20 ADD PUSH1 0x2 DUP3 ADD SLOAD DUP2 MSTORE POP POP DUP2 MSTORE PUSH1 0x20 ADD SWAP1 PUSH1 0x1 ADD SWAP1 PUSH2 0x3F8 JUMP JUMPDEST POP POP POP POP SWAP1 POP SWAP2 SWAP1 POP JUMP JUMPDEST PUSH1 0x3 SLOAD DUP2 JUMP JUMPDEST PUSH1 0x60 PUSH1 0x4 PUSH1 0x1 SWAP1 SLOAD SWAP1 PUSH2 0x100 EXP SWAP1 DIV PUSH20 0xFFFFFFFFFFFFFFFFFFFFFFFFFFFFFFFFFFFFFFFF AND PUSH20 0xFFFFFFFFFFFFFFFFFFFFFFFFFFFFFFFFFFFFFFFF AND CALLER PUSH20 0xFFFFFFFFFFFFFFFFFFFFFFFFFFFFFFFFFFFFFFFF AND EQ PUSH2 0x5F4 JUMPI PUSH1 0x40 MLOAD PUSH32 0x8C379A000000000000000000000000000000000000000000000000000000000 DUP2 MSTORE PUSH1 0x4 ADD PUSH2 0x5EB SWAP1 PUSH2 0x1359 JUMP JUMPDEST PUSH1 0x40 MLOAD DUP1 SWAP2 SUB SWAP1 REVERT JUMPDEST PUSH1 0x2 SLOAD SELFBALANCE LT PUSH2 0x6DD JUMPI PUSH1 0x4 PUSH1 0x1 SWAP1 SLOAD SWAP1 PUSH2 0x100 EXP SWAP1 DIV PUSH20 0xFFFFFFFFFFFFFFFFFFFFFFFFFFFFFFFFFFFFFFFF AND PUSH20 0xFFFFFFFFFFFFFFFFFFFFFFFFFFFFFFFFFFFFFFFF AND PUSH2 0x8FC SELFBALANCE SWAP1 DUP2 ISZERO MUL SWAP1 PUSH1 0x40 MLOAD PUSH0 PUSH1 0x40 MLOAD DUP1 DUP4 SUB DUP2 DUP6 DUP9 DUP9 CALL SWAP4 POP POP POP POP ISZERO DUP1 ISZERO PUSH2 0x662 JUMPI RETURNDATASIZE PUSH0 DUP1 RETURNDATACOPY RETURNDATASIZE PUSH0 REVERT JUMPDEST POP PUSH2 0x66B PUSH2 0x723 JUMP JUMPDEST PUSH1 0x2 PUSH0 DUP1 PUSH2 0x100 EXP DUP2 SLOAD DUP2 PUSH1 0xFF MUL NOT AND SWAP1 DUP4 PUSH1 0x3 DUP2 GT ISZERO PUSH2 0x68F JUMPI PUSH2 0x68E PUSH2 0x1242 JUMP JUMPDEST JUMPDEST MUL OR SWAP1 SSTORE POP PUSH32 0x4C51D260ED01191BD8C324DCC6426BA425E832F37A19E155C7182BAA9839BD43 CALLER SELFBALANCE PUSH1 0x40 MLOAD PUSH2 0x6C5 SWAP3 SWAP2 SWAP1 PUSH2 0x1377 JUMP JUMPDEST PUSH1 0x40 MLOAD DUP1 SWAP2 SUB SWAP1 LOG1 PUSH2 0x6D6 DUP3 PUSH2 0x3C6 JUMP JUMPDEST SWAP1 POP PUSH2 0x718 JUMP JUMPDEST PUSH1 0x40 MLOAD PUSH32 0x8C379A000000000000000000000000000000000000000000000000000000000 DUP2 MSTORE PUSH1 0x4 ADD PUSH2 0x70F SWAP1 PUSH2 0x140E JUMP JUMPDEST PUSH1 0x40 MLOAD DUP1 SWAP2 SUB SWAP1 REVERT JUMPDEST SWAP2 SWAP1 POP JUMP JUMPDEST PUSH1 0x2 SLOAD DUP2 JUMP JUMPDEST PUSH0 PUSH1 0x4 PUSH0 PUSH2 0x100 EXP DUP2 SLOAD DUP2 PUSH1 0xFF MUL NOT AND SWAP1 DUP4 ISZERO ISZERO MUL OR SWAP1 SSTORE POP JUMP JUMPDEST PUSH1 0x2 SLOAD SELFBALANCE LT DUP1 PUSH2 0x750 JUMPI POP PUSH1 0x3 SLOAD TIMESTAMP LT ISZERO JUMPDEST ISZERO PUSH2 0x79A JUMPI CALLER PUSH20 0xFFFFFFFFFFFFFFFFFFFFFFFFFFFFFFFFFFFFFFFF AND PUSH2 0x8FC SELFBALANCE SWAP1 DUP2 ISZERO MUL SWAP1 PUSH1 0x40 MLOAD PUSH0 PUSH1 0x40 MLOAD DUP1 DUP4 SUB DUP2 DUP6 DUP9 DUP9 CALL SWAP4 POP POP POP POP ISZERO DUP1 ISZERO PUSH2 0x798 JUMPI RETURNDATASIZE PUSH0 DUP1 RETURNDATACOPY RETURNDATASIZE PUSH0 REVERT JUMPDEST POP JUMPDEST PUSH1 0x3 PUSH0 DUP1 PUSH2 0x100 EXP DUP2 SLOAD DUP2 PUSH1 0xFF MUL NOT AND SWAP1 DUP4 PUSH1 0x3 DUP2 GT ISZERO PUSH2 0x7BE JUMPI PUSH2 0x7BD PUSH2 0x1242 JUMP JUMPDEST JUMPDEST MUL OR SWAP1 SSTORE POP PUSH32 0x13449F70035221BFD809CB8D8994F004F2F917BBC10A9F431BFA7B3F423C0B25 CALLER CALLVALUE PUSH1 0x40 MLOAD PUSH2 0x7F4 SWAP3 SWAP2 SWAP1 PUSH2 0x1377 JUMP JUMPDEST PUSH1 0x40 MLOAD DUP1 SWAP2 SUB SWAP1 LOG1 JUMP JUMPDEST PUSH1 0x5 SLOAD DUP2 JUMP JUMPDEST PUSH1 0x7 PUSH1 0x20 MSTORE DUP1 PUSH0 MSTORE PUSH1 0x40 PUSH0 KECCAK256 PUSH0 SWAP2 POP SWAP1 POP SLOAD DUP2 JUMP JUMPDEST PUSH1 0x60 PUSH0 PUSH1 0x6 PUSH0 DUP5 DUP2 MSTORE PUSH1 0x20 ADD SWAP1 DUP2 MSTORE PUSH1 0x20 ADD PUSH0 KECCAK256 DUP1 SLOAD SWAP1 POP SWAP1 POP PUSH0 JUMPDEST DUP2 DUP2 LT ISZERO PUSH2 0x8C2 JUMPI DUP4 PUSH1 0x6 PUSH0 DUP7 DUP2 MSTORE PUSH1 0x20 ADD SWAP1 DUP2 MSTORE PUSH1 0x20 ADD PUSH0 KECCAK256 DUP3 DUP2 SLOAD DUP2 LT PUSH2 0x861 JUMPI PUSH2 0x860 PUSH2 0x142C JUMP JUMPDEST JUMPDEST SWAP1 PUSH0 MSTORE PUSH1 0x20 PUSH0 KECCAK256 SWAP1 PUSH1 0x3 MUL ADD PUSH1 0x2 ADD SLOAD SUB PUSH2 0x8B5 JUMPI PUSH1 0x40 MLOAD DUP1 PUSH1 0x40 ADD PUSH1 0x40 MSTORE DUP1 PUSH1 0x13 DUP2 MSTORE PUSH1 0x20 ADD PUSH32 0x7573657220617265207265676973746572656400000000000000000000000000 DUP2 MSTORE POP SWAP3 POP POP POP PUSH2 0x8FD JUMP JUMPDEST DUP1 DUP1 PUSH1 0x1 ADD SWAP2 POP POP PUSH2 0x835 JUMP JUMPDEST POP PUSH1 0x40 MLOAD DUP1 PUSH1 0x40 ADD PUSH1 0x40 MSTORE DUP1 PUSH1 0x17 DUP2 MSTORE PUSH1 0x20 ADD PUSH32 0x7573657220617265206E6F742072656769737465726564000000000000000000 DUP2 MSTORE POP SWAP2 POP POP JUMPDEST SWAP2 SWAP1 POP JUMP JUMPDEST PUSH1 0x4 PUSH1 0x1 SWAP1 SLOAD SWAP1 PUSH2 0x100 EXP SWAP1 DIV PUSH20 0xFFFFFFFFFFFFFFFFFFFFFFFFFFFFFFFFFFFFFFFF AND DUP2 JUMP JUMPDEST PUSH1 0x60 PUSH1 0x4 PUSH1 0x1 SWAP1 SLOAD SWAP1 PUSH2 0x100 EXP SWAP1 DIV PUSH20 0xFFFFFFFFFFFFFFFFFFFFFFFFFFFFFFFFFFFFFFFF AND PUSH20 0xFFFFFFFFFFFFFFFFFFFFFFFFFFFFFFFFFFFFFFFF AND CALLER PUSH20 0xFFFFFFFFFFFFFFFFFFFFFFFFFFFFFFFFFFFFFFFF AND EQ PUSH2 0x9BA JUMPI PUSH1 0x40 MLOAD PUSH32 0x8C379A000000000000000000000000000000000000000000000000000000000 DUP2 MSTORE PUSH1 0x4 ADD PUSH2 0x9B1 SWAP1 PUSH2 0x1359 JUMP JUMPDEST PUSH1 0x40 MLOAD DUP1 SWAP2 SUB SWAP1 REVERT JUMPDEST PUSH1 0x4 PUSH0 SWAP1 SLOAD SWAP1 PUSH2 0x100 EXP SWAP1 DIV PUSH1 0xFF AND PUSH2 0xA08 JUMPI PUSH1 0x40 MLOAD PUSH32 0x8C379A000000000000000000000000000000000000000000000000000000000 DUP2 MSTORE PUSH1 0x4 ADD PUSH2 0x9FF SWAP1 PUSH2 0x1224 JUMP JUMPDEST PUSH1 0x40 MLOAD DUP1 SWAP2 SUB SWAP1 REVERT JUMPDEST PUSH1 0x3 SLOAD TIMESTAMP GT ISZERO PUSH2 0xA4D JUMPI PUSH1 0x40 MLOAD PUSH32 0x8C379A000000000000000000000000000000000000000000000000000000000 DUP2 MSTORE PUSH1 0x4 ADD PUSH2 0xA44 SWAP1 PUSH2 0x14C9 JUMP JUMPDEST PUSH1 0x40 MLOAD DUP1 SWAP2 SUB SWAP1 REVERT JUMPDEST PUSH1 0x1 PUSH0 DUP1 PUSH2 0x100 EXP DUP2 SLOAD DUP2 PUSH1 0xFF MUL NOT AND SWAP1 DUP4 PUSH1 0x3 DUP2 GT ISZERO PUSH2 0xA71 JUMPI PUSH2 0xA70 PUSH2 0x1242 JUMP JUMPDEST JUMPDEST MUL OR SWAP1 SSTORE POP DUP2 PUSH1 0x7 PUSH0 CALLER PUSH20 0xFFFFFFFFFFFFFFFFFFFFFFFFFFFFFFFFFFFFFFFF AND PUSH20 0xFFFFFFFFFFFFFFFFFFFFFFFFFFFFFFFFFFFFFFFF AND DUP2 MSTORE PUSH1 0x20 ADD SWAP1 DUP2 MSTORE PUSH1 0x20 ADD PUSH0 KECCAK256 PUSH0 DUP3 DUP3 SLOAD PUSH2 0xAC2 SWAP2 SWAP1 PUSH2 0x1514 JUMP JUMPDEST SWAP3 POP POP DUP2 SWAP1 SSTORE POP DUP2 PUSH1 0x7 PUSH0 DUP7 PUSH20 0xFFFFFFFFFFFFFFFFFFFFFFFFFFFFFFFFFFFFFFFF AND PUSH20 0xFFFFFFFFFFFFFFFFFFFFFFFFFFFFFFFFFFFFFFFF AND DUP2 MSTORE PUSH1 0x20 ADD SWAP1 DUP2 MSTORE PUSH1 0x20 ADD PUSH0 KECCAK256 PUSH0 DUP3 DUP3 SLOAD PUSH2 0xB15 SWAP2 SWAP1 PUSH2 0x1547 JUMP JUMPDEST SWAP3 POP POP DUP2 SWAP1 SSTORE POP PUSH32 0x550B521CF33B3A7FE1363EA8BED6130500D8A27CED06A0FC13576B96CF155289 CALLER DUP4 PUSH1 0x40 MLOAD PUSH2 0xB4D SWAP3 SWAP2 SWAP1 PUSH2 0x1377 JUMP JUMPDEST PUSH1 0x40 MLOAD DUP1 SWAP2 SUB SWAP1 LOG1 PUSH2 0xB5E DUP4 PUSH2 0x3C6 JUMP JUMPDEST SWAP1 POP SWAP4 SWAP3 POP POP POP JUMP JUMPDEST PUSH1 0x6 PUSH0 DUP3 DUP2 MSTORE PUSH1 0x20 ADD SWAP1 DUP2 MSTORE PUSH1 0x20 ADD PUSH0 KECCAK256 PUSH1 0x40 MLOAD DUP1 PUSH1 0x60 ADD PUSH1 0x40 MSTORE DUP1 DUP6 DUP2 MSTORE PUSH1 0x20 ADD DUP5 DUP2 MSTORE PUSH1 0x20 ADD DUP4 DUP2 MSTORE POP SWAP1 DUP1 PUSH1 0x1 DUP2 SLOAD ADD DUP1 DUP3 SSTORE DUP1 SWAP2 POP POP PUSH1 0x1 SWAP1 SUB SWAP1 PUSH0 MSTORE PUSH1 0x20 PUSH0 KECCAK256 SWAP1 PUSH1 0x3 MUL ADD PUSH0 SWAP1 SWAP2 SWAP1 SWAP2 SWAP1 SWAP2 POP PUSH0 DUP3 ADD MLOAD DUP2 PUSH0 ADD SWAP1 DUP2 PUSH2 0xBCC SWAP2 SWAP1 PUSH2 0x1717 JUMP JUMPDEST POP PUSH1 0x20 DUP3 ADD MLOAD DUP2 PUSH1 0x1 ADD SWAP1 DUP2 PUSH2 0xBE2 SWAP2 SWAP1 PUSH2 0x1717 JUMP JUMPDEST POP PUSH1 0x40 DUP3 ADD MLOAD DUP2 PUSH1 0x2 ADD SSTORE POP POP POP POP POP JUMP JUMPDEST PUSH0 DUP2 ISZERO ISZERO SWAP1 POP SWAP2 SWAP1 POP JUMP JUMPDEST PUSH2 0xC08 DUP2 PUSH2 0xBF4 JUMP JUMPDEST DUP3 MSTORE POP POP JUMP JUMPDEST PUSH0 PUSH1 0x20 DUP3 ADD SWAP1 POP PUSH2 0xC21 PUSH0 DUP4 ADD DUP5 PUSH2 0xBFF JUMP JUMPDEST SWAP3 SWAP2 POP POP JUMP JUMPDEST PUSH0 PUSH1 0x40 MLOAD SWAP1 POP SWAP1 JUMP JUMPDEST PUSH0 DUP1 REVERT JUMPDEST PUSH0 DUP1 REVERT JUMPDEST PUSH0 DUP1 REVERT JUMPDEST PUSH0 DUP1 REVERT JUMPDEST PUSH0 PUSH1 0x1F NOT PUSH1 0x1F DUP4 ADD AND SWAP1 POP SWAP2 SWAP1 POP JUMP JUMPDEST PUSH32 0x4E487B7100000000000000000000000000000000000000000000000000000000 PUSH0 MSTORE PUSH1 0x41 PUSH1 0x4 MSTORE PUSH1 0x24 PUSH0 REVERT JUMPDEST PUSH2 0xC86 DUP3 PUSH2 0xC40 JUMP JUMPDEST DUP2 ADD DUP2 DUP2 LT PUSH8 0xFFFFFFFFFFFFFFFF DUP3 GT OR ISZERO PUSH2 0xCA5 JUMPI PUSH2 0xCA4 PUSH2 0xC50 JUMP JUMPDEST JUMPDEST DUP1 PUSH1 0x40 MSTORE POP POP POP JUMP JUMPDEST PUSH0 PUSH2 0xCB7 PUSH2 0xC27 JUMP JUMPDEST SWAP1 POP PUSH2 0xCC3 DUP3 DUP3 PUSH2 0xC7D JUMP JUMPDEST SWAP2 SWAP1 POP JUMP JUMPDEST PUSH0 PUSH8 0xFFFFFFFFFFFFFFFF DUP3 GT ISZERO PUSH2 0xCE2 JUMPI PUSH2 0xCE1 PUSH2 0xC50 JUMP JUMPDEST JUMPDEST PUSH2 0xCEB DUP3 PUSH2 0xC40 JUMP JUMPDEST SWAP1 POP PUSH1 0x20 DUP2 ADD SWAP1 POP SWAP2 SWAP1 POP JUMP JUMPDEST DUP3 DUP2 DUP4 CALLDATACOPY PUSH0 DUP4 DUP4 ADD MSTORE POP POP POP JUMP JUMPDEST PUSH0 PUSH2 0xD18 PUSH2 0xD13 DUP5 PUSH2 0xCC8 JUMP JUMPDEST PUSH2 0xCAE JUMP JUMPDEST SWAP1 POP DUP3 DUP2 MSTORE PUSH1 0x20 DUP2 ADD DUP5 DUP5 DUP5 ADD GT ISZERO PUSH2 0xD34 JUMPI PUSH2 0xD33 PUSH2 0xC3C JUMP JUMPDEST JUMPDEST PUSH2 0xD3F DUP5 DUP3 DUP6 PUSH2 0xCF8 JUMP JUMPDEST POP SWAP4 SWAP3 POP POP POP JUMP JUMPDEST PUSH0 DUP3 PUSH1 0x1F DUP4 ADD SLT PUSH2 0xD5B JUMPI PUSH2 0xD5A PUSH2 0xC38 JUMP JUMPDEST JUMPDEST DUP2 CALLDATALOAD PUSH2 0xD6B DUP5 DUP3 PUSH1 0x20 DUP7 ADD PUSH2 0xD06 JUMP JUMPDEST SWAP2 POP POP SWAP3 SWAP2 POP POP JUMP JUMPDEST PUSH0 DUP2 SWAP1 POP SWAP2 SWAP1 POP JUMP JUMPDEST PUSH2 0xD86 DUP2 PUSH2 0xD74 JUMP JUMPDEST DUP2 EQ PUSH2 0xD90 JUMPI PUSH0 DUP1 REVERT JUMPDEST POP JUMP JUMPDEST PUSH0 DUP2 CALLDATALOAD SWAP1 POP PUSH2 0xDA1 DUP2 PUSH2 0xD7D JUMP JUMPDEST SWAP3 SWAP2 POP POP JUMP JUMPDEST PUSH0 DUP1 PUSH0 PUSH1 0x60 DUP5 DUP7 SUB SLT ISZERO PUSH2 0xDBE JUMPI PUSH2 0xDBD PUSH2 0xC30 JUMP JUMPDEST JUMPDEST PUSH0 DUP5 ADD CALLDATALOAD PUSH8 0xFFFFFFFFFFFFFFFF DUP2 GT ISZERO PUSH2 0xDDB JUMPI PUSH2 0xDDA PUSH2 0xC34 JUMP JUMPDEST JUMPDEST PUSH2 0xDE7 DUP7 DUP3 DUP8 ADD PUSH2 0xD47 JUMP JUMPDEST SWAP4 POP POP PUSH1 0x20 DUP5 ADD CALLDATALOAD PUSH8 0xFFFFFFFFFFFFFFFF DUP2 GT ISZERO PUSH2 0xE08 JUMPI PUSH2 0xE07 PUSH2 0xC34 JUMP JUMPDEST JUMPDEST PUSH2 0xE14 DUP7 DUP3 DUP8 ADD PUSH2 0xD47 JUMP JUMPDEST SWAP3 POP POP PUSH1 0x40 PUSH2 0xE25 DUP7 DUP3 DUP8 ADD PUSH2 0xD93 JUMP JUMPDEST SWAP2 POP POP SWAP3 POP SWAP3 POP SWAP3 JUMP JUMPDEST PUSH0 PUSH1 0x20 DUP3 DUP5 SUB SLT ISZERO PUSH2 0xE44 JUMPI PUSH2 0xE43 PUSH2 0xC30 JUMP JUMPDEST JUMPDEST PUSH0 PUSH2 0xE51 DUP5 DUP3 DUP6 ADD PUSH2 0xD93 JUMP JUMPDEST SWAP2 POP POP SWAP3 SWAP2 POP POP JUMP JUMPDEST PUSH0 DUP2 MLOAD SWAP1 POP SWAP2 SWAP1 POP JUMP JUMPDEST PUSH0 DUP3 DUP3 MSTORE PUSH1 0x20 DUP3 ADD SWAP1 POP SWAP3 SWAP2 POP POP JUMP JUMPDEST PUSH0 DUP2 SWAP1 POP PUSH1 0x20 DUP3 ADD SWAP1 POP SWAP2 SWAP1 POP JUMP JUMPDEST PUSH0 DUP2 MLOAD SWAP1 POP SWAP2 SWAP1 POP JUMP JUMPDEST PUSH0 DUP3 DUP3 MSTORE PUSH1 0x20 DUP3 ADD SWAP1 POP SWAP3 SWAP2 POP POP JUMP JUMPDEST PUSH0 JUMPDEST DUP4 DUP2 LT ISZERO PUSH2 0xEBA JUMPI DUP1 DUP3 ADD MLOAD DUP2 DUP5 ADD MSTORE PUSH1 0x20 DUP2 ADD SWAP1 POP PUSH2 0xE9F JUMP JUMPDEST PUSH0 DUP5 DUP5 ADD MSTORE POP POP POP POP JUMP JUMPDEST PUSH0 PUSH2 0xECF DUP3 PUSH2 0xE83 JUMP JUMPDEST PUSH2 0xED9 DUP2 DUP6 PUSH2 0xE8D JUMP JUMPDEST SWAP4 POP PUSH2 0xEE9 DUP2 DUP6 PUSH1 0x20 DUP7 ADD PUSH2 0xE9D JUMP JUMPDEST PUSH2 0xEF2 DUP2 PUSH2 0xC40 JUMP JUMPDEST DUP5 ADD SWAP2 POP POP SWAP3 SWAP2 POP POP JUMP JUMPDEST PUSH2 0xF06 DUP2 PUSH2 0xD74 JUMP JUMPDEST DUP3 MSTORE POP POP JUMP JUMPDEST PUSH0 PUSH1 0x60 DUP4 ADD PUSH0 DUP4 ADD MLOAD DUP5 DUP3 SUB PUSH0 DUP7 ADD MSTORE PUSH2 0xF26 DUP3 DUP3 PUSH2 0xEC5 JUMP JUMPDEST SWAP2 POP POP PUSH1 0x20 DUP4 ADD MLOAD DUP5 DUP3 SUB PUSH1 0x20 DUP7 ADD MSTORE PUSH2 0xF40 DUP3 DUP3 PUSH2 0xEC5 JUMP JUMPDEST SWAP2 POP POP PUSH1 0x40 DUP4 ADD MLOAD PUSH2 0xF55 PUSH1 0x40 DUP7 ADD DUP3 PUSH2 0xEFD JUMP JUMPDEST POP DUP1 SWAP2 POP POP SWAP3 SWAP2 POP POP JUMP JUMPDEST PUSH0 PUSH2 0xF6B DUP4 DUP4 PUSH2 0xF0C JUMP JUMPDEST SWAP1 POP SWAP3 SWAP2 POP POP JUMP JUMPDEST PUSH0 PUSH1 0x20 DUP3 ADD SWAP1 POP SWAP2 SWAP1 POP JUMP JUMPDEST PUSH0 PUSH2 0xF89 DUP3 PUSH2 0xE5A JUMP JUMPDEST PUSH2 0xF93 DUP2 DUP6 PUSH2 0xE64 JUMP JUMPDEST SWAP4 POP DUP4 PUSH1 0x20 DUP3 MUL DUP6 ADD PUSH2 0xFA5 DUP6 PUSH2 0xE74 JUMP JUMPDEST DUP1 PUSH0 JUMPDEST DUP6 DUP2 LT ISZERO PUSH2 0xFE0 JUMPI DUP5 DUP5 SUB DUP10 MSTORE DUP2 MLOAD PUSH2 0xFC1 DUP6 DUP3 PUSH2 0xF60 JUMP JUMPDEST SWAP5 POP PUSH2 0xFCC DUP4 PUSH2 0xF73 JUMP JUMPDEST SWAP3 POP PUSH1 0x20 DUP11 ADD SWAP10 POP POP PUSH1 0x1 DUP2 ADD SWAP1 POP PUSH2 0xFA8 JUMP JUMPDEST POP DUP3 SWAP8 POP DUP8 SWAP6 POP POP POP POP POP POP SWAP3 SWAP2 POP POP JUMP JUMPDEST PUSH0 PUSH1 0x20 DUP3 ADD SWAP1 POP DUP2 DUP2 SUB PUSH0 DUP4 ADD MSTORE PUSH2 0x100A DUP2 DUP5 PUSH2 0xF7F JUMP JUMPDEST SWAP1 POP SWAP3 SWAP2 POP POP JUMP JUMPDEST PUSH2 0x101B DUP2 PUSH2 0xD74 JUMP JUMPDEST DUP3 MSTORE POP POP JUMP JUMPDEST PUSH0 PUSH1 0x20 DUP3 ADD SWAP1 POP PUSH2 0x1034 PUSH0 DUP4 ADD DUP5 PUSH2 0x1012 JUMP JUMPDEST SWAP3 SWAP2 POP POP JUMP JUMPDEST PUSH0 PUSH20 0xFFFFFFFFFFFFFFFFFFFFFFFFFFFFFFFFFFFFFFFF DUP3 AND SWAP1 POP SWAP2 SWAP1 POP JUMP JUMPDEST PUSH0 PUSH2 0x1063 DUP3 PUSH2 0x103A JUMP JUMPDEST SWAP1 POP SWAP2 SWAP1 POP JUMP JUMPDEST PUSH2 0x1073 DUP2 PUSH2 0x1059 JUMP JUMPDEST DUP2 EQ PUSH2 0x107D JUMPI PUSH0 DUP1 REVERT JUMPDEST POP JUMP JUMPDEST PUSH0 DUP2 CALLDATALOAD SWAP1 POP PUSH2 0x108E DUP2 PUSH2 0x106A JUMP JUMPDEST SWAP3 SWAP2 POP POP JUMP JUMPDEST PUSH0 PUSH1 0x20 DUP3 DUP5 SUB SLT ISZERO PUSH2 0x10A9 JUMPI PUSH2 0x10A8 PUSH2 0xC30 JUMP JUMPDEST JUMPDEST PUSH0 PUSH2 0x10B6 DUP5 DUP3 DUP6 ADD PUSH2 0x1080 JUMP JUMPDEST SWAP2 POP POP SWAP3 SWAP2 POP POP JUMP JUMPDEST PUSH0 DUP3 DUP3 MSTORE PUSH1 0x20 DUP3 ADD SWAP1 POP SWAP3 SWAP2 POP POP JUMP JUMPDEST PUSH0 PUSH2 0x10D9 DUP3 PUSH2 0xE83 JUMP JUMPDEST PUSH2 0x10E3 DUP2 DUP6 PUSH2 0x10BF JUMP JUMPDEST SWAP4 POP PUSH2 0x10F3 DUP2 DUP6 PUSH1 0x20 DUP7 ADD PUSH2 0xE9D JUMP JUMPDEST PUSH2 0x10FC DUP2 PUSH2 0xC40 JUMP JUMPDEST DUP5 ADD SWAP2 POP POP SWAP3 SWAP2 POP POP JUMP JUMPDEST PUSH0 PUSH1 0x20 DUP3 ADD SWAP1 POP DUP2 DUP2 SUB PUSH0 DUP4 ADD MSTORE PUSH2 0x111F DUP2 DUP5 PUSH2 0x10CF JUMP JUMPDEST SWAP1 POP SWAP3 SWAP2 POP POP JUMP JUMPDEST PUSH2 0x1130 DUP2 PUSH2 0x1059 JUMP JUMPDEST DUP3 MSTORE POP POP JUMP JUMPDEST PUSH0 PUSH1 0x20 DUP3 ADD SWAP1 POP PUSH2 0x1149 PUSH0 DUP4 ADD DUP5 PUSH2 0x1127 JUMP JUMPDEST SWAP3 SWAP2 POP POP JUMP JUMPDEST PUSH0 PUSH2 0x1159 DUP3 PUSH2 0x103A JUMP JUMPDEST SWAP1 POP SWAP2 SWAP1 POP JUMP JUMPDEST PUSH2 0x1169 DUP2 PUSH2 0x114F JUMP JUMPDEST DUP2 EQ PUSH2 0x1173 JUMPI PUSH0 DUP1 REVERT JUMPDEST POP JUMP JUMPDEST PUSH0 DUP2 CALLDATALOAD SWAP1 POP PUSH2 0x1184 DUP2 PUSH2 0x1160 JUMP JUMPDEST SWAP3 SWAP2 POP POP JUMP JUMPDEST PUSH0 DUP1 PUSH0 PUSH1 0x60 DUP5 DUP7 SUB SLT ISZERO PUSH2 0x11A1 JUMPI PUSH2 0x11A0 PUSH2 0xC30 JUMP JUMPDEST JUMPDEST PUSH0 PUSH2 0x11AE DUP7 DUP3 DUP8 ADD PUSH2 0x1176 JUMP JUMPDEST SWAP4 POP POP PUSH1 0x20 PUSH2 0x11BF DUP7 DUP3 DUP8 ADD PUSH2 0xD93 JUMP JUMPDEST SWAP3 POP POP PUSH1 0x40 PUSH2 0x11D0 DUP7 DUP3 DUP8 ADD PUSH2 0xD93 JUMP JUMPDEST SWAP2 POP POP SWAP3 POP SWAP3 POP SWAP3 JUMP JUMPDEST PUSH32 0x7374617465206973206E6F742061637469766500000000000000000000000000 PUSH0 DUP3 ADD MSTORE POP JUMP JUMPDEST PUSH0 PUSH2 0x120E PUSH1 0x13 DUP4 PUSH2 0x10BF JUMP JUMPDEST SWAP2 POP PUSH2 0x1219 DUP3 PUSH2 0x11DA JUMP JUMPDEST PUSH1 0x20 DUP3 ADD SWAP1 POP SWAP2 SWAP1 POP JUMP JUMPDEST PUSH0 PUSH1 0x20 DUP3 ADD SWAP1 POP DUP2 DUP2 SUB PUSH0 DUP4 ADD MSTORE PUSH2 0x123B DUP2 PUSH2 0x1202 JUMP JUMPDEST SWAP1 POP SWAP2 SWAP1 POP JUMP JUMPDEST PUSH32 0x4E487B7100000000000000000000000000000000000000000000000000000000 PUSH0 MSTORE PUSH1 0x21 PUSH1 0x4 MSTORE PUSH1 0x24 PUSH0 REVERT JUMPDEST PUSH0 PUSH1 0x60 DUP3 ADD SWAP1 POP PUSH2 0x1282 PUSH0 DUP4 ADD DUP7 PUSH2 0x1127 JUMP JUMPDEST DUP2 DUP2 SUB PUSH1 0x20 DUP4 ADD MSTORE PUSH2 0x1294 DUP2 DUP6 PUSH2 0x10CF JUMP JUMPDEST SWAP1 POP DUP2 DUP2 SUB PUSH1 0x40 DUP4 ADD MSTORE PUSH2 0x12A8 DUP2 DUP5 PUSH2 0x10CF JUMP JUMPDEST SWAP1 POP SWAP5 SWAP4 POP POP POP POP JUMP JUMPDEST PUSH32 0x4E487B7100000000000000000000000000000000000000000000000000000000 PUSH0 MSTORE PUSH1 0x22 PUSH1 0x4 MSTORE PUSH1 0x24 PUSH0 REVERT JUMPDEST PUSH0 PUSH1 0x2 DUP3 DIV SWAP1 POP PUSH1 0x1 DUP3 AND DUP1 PUSH2 0x12F6 JUMPI PUSH1 0x7F DUP3 AND SWAP2 POP JUMPDEST PUSH1 0x20 DUP3 LT DUP2 SUB PUSH2 0x1309 JUMPI PUSH2 0x1308 PUSH2 0x12B2 JUMP JUMPDEST JUMPDEST POP SWAP2 SWAP1 POP JUMP JUMPDEST PUSH32 0x6F6E6C79206F776E65722063616E2075736520746869732066756E6374696F6E PUSH0 DUP3 ADD MSTORE POP JUMP JUMPDEST PUSH0 PUSH2 0x1343 PUSH1 0x20 DUP4 PUSH2 0x10BF JUMP JUMPDEST SWAP2 POP PUSH2 0x134E DUP3 PUSH2 0x130F JUMP JUMPDEST PUSH1 0x20 DUP3 ADD SWAP1 POP SWAP2 SWAP1 POP JUMP JUMPDEST PUSH0 PUSH1 0x20 DUP3 ADD SWAP1 POP DUP2 DUP2 SUB PUSH0 DUP4 ADD MSTORE PUSH2 0x1370 DUP2 PUSH2 0x1337 JUMP JUMPDEST SWAP1 POP SWAP2 SWAP1 POP JUMP JUMPDEST PUSH0 PUSH1 0x40 DUP3 ADD SWAP1 POP PUSH2 0x138A PUSH0 DUP4 ADD DUP6 PUSH2 0x1127 JUMP JUMPDEST PUSH2 0x1397 PUSH1 0x20 DUP4 ADD DUP5 PUSH2 0x1012 JUMP JUMPDEST SWAP4 SWAP3 POP POP POP JUMP JUMPDEST PUSH32 0x66756E647320617265206E6F742073756666696369656E7420666F7220636C61 PUSH0 DUP3 ADD MSTORE PUSH32 0x696D696E67000000000000000000000000000000000000000000000000000000 PUSH1 0x20 DUP3 ADD MSTORE POP JUMP JUMPDEST PUSH0 PUSH2 0x13F8 PUSH1 0x25 DUP4 PUSH2 0x10BF JUMP JUMPDEST SWAP2 POP PUSH2 0x1403 DUP3 PUSH2 0x139E JUMP JUMPDEST PUSH1 0x40 DUP3 ADD SWAP1 POP SWAP2 SWAP1 POP JUMP JUMPDEST PUSH0 PUSH1 0x20 DUP3 ADD SWAP1 POP DUP2 DUP2 SUB PUSH0 DUP4 ADD MSTORE PUSH2 0x1425 DUP2 PUSH2 0x13EC JUMP JUMPDEST SWAP1 POP SWAP2 SWAP1 POP JUMP JUMPDEST PUSH32 0x4E487B7100000000000000000000000000000000000000000000000000000000 PUSH0 MSTORE PUSH1 0x32 PUSH1 0x4 MSTORE PUSH1 0x24 PUSH0 REVERT JUMPDEST PUSH32 0x74696D6520656E64206E6F7420636F6E747269627574696F6E2061726520616C PUSH0 DUP3 ADD MSTORE PUSH32 0x6C6F776564000000000000000000000000000000000000000000000000000000 PUSH1 0x20 DUP3 ADD MSTORE POP JUMP JUMPDEST PUSH0 PUSH2 0x14B3 PUSH1 0x25 DUP4 PUSH2 0x10BF JUMP JUMPDEST SWAP2 POP PUSH2 0x14BE DUP3 PUSH2 0x1459 JUMP JUMPDEST PUSH1 0x40 DUP3 ADD SWAP1 POP SWAP2 SWAP1 POP JUMP JUMPDEST PUSH0 PUSH1 0x20 DUP3 ADD SWAP1 POP DUP2 DUP2 SUB PUSH0 DUP4 ADD MSTORE PUSH2 0x14E0 DUP2 PUSH2 0x14A7 JUMP JUMPDEST SWAP1 POP SWAP2 SWAP1 POP JUMP JUMPDEST PUSH32 0x4E487B7100000000000000000000000000000000000000000000000000000000 PUSH0 MSTORE PUSH1 0x11 PUSH1 0x4 MSTORE PUSH1 0x24 PUSH0 REVERT JUMPDEST PUSH0 PUSH2 0x151E DUP3 PUSH2 0xD74 JUMP JUMPDEST SWAP2 POP PUSH2 0x1529 DUP4 PUSH2 0xD74 JUMP JUMPDEST SWAP3 POP DUP3 DUP3 SUB SWAP1 POP DUP2 DUP2 GT ISZERO PUSH2 0x1541 JUMPI PUSH2 0x1540 PUSH2 0x14E7 JUMP JUMPDEST JUMPDEST SWAP3 SWAP2 POP POP JUMP JUMPDEST PUSH0 PUSH2 0x1551 DUP3 PUSH2 0xD74 JUMP JUMPDEST SWAP2 POP PUSH2 0x155C DUP4 PUSH2 0xD74 JUMP JUMPDEST SWAP3 POP DUP3 DUP3 ADD SWAP1 POP DUP1 DUP3 GT ISZERO PUSH2 0x1574 JUMPI PUSH2 0x1573 PUSH2 0x14E7 JUMP JUMPDEST JUMPDEST SWAP3 SWAP2 POP POP JUMP JUMPDEST PUSH0 DUP2 SWAP1 POP DUP2 PUSH0 MSTORE PUSH1 0x20 PUSH0 KECCAK256 SWAP1 POP SWAP2 SWAP1 POP JUMP JUMPDEST PUSH0 PUSH1 0x20 PUSH1 0x1F DUP4 ADD DIV SWAP1 POP SWAP2 SWAP1 POP JUMP JUMPDEST PUSH0 DUP3 DUP3 SHL SWAP1 POP SWAP3 SWAP2 POP POP JUMP JUMPDEST PUSH0 PUSH1 0x8 DUP4 MUL PUSH2 0x15D6 PUSH32 0xFFFFFFFFFFFFFFFFFFFFFFFFFFFFFFFFFFFFFFFFFFFFFFFFFFFFFFFFFFFFFFFF DUP3 PUSH2 0x159B JUMP JUMPDEST PUSH2 0x15E0 DUP7 DUP4 PUSH2 0x159B JUMP JUMPDEST SWAP6 POP DUP1 NOT DUP5 AND SWAP4 POP DUP1 DUP7 AND DUP5 OR SWAP3 POP POP POP SWAP4 SWAP3 POP POP POP JUMP JUMPDEST PUSH0 DUP2 SWAP1 POP SWAP2 SWAP1 POP JUMP JUMPDEST PUSH0 PUSH2 0x161B PUSH2 0x1616 PUSH2 0x1611 DUP5 PUSH2 0xD74 JUMP JUMPDEST PUSH2 0x15F8 JUMP JUMPDEST PUSH2 0xD74 JUMP JUMPDEST SWAP1 POP SWAP2 SWAP1 POP JUMP JUMPDEST PUSH0 DUP2 SWAP1 POP SWAP2 SWAP1 POP JUMP JUMPDEST PUSH2 0x1634 DUP4 PUSH2 0x1601 JUMP JUMPDEST PUSH2 0x1648 PUSH2 0x1640 DUP3 PUSH2 0x1622 JUMP JUMPDEST DUP5 DUP5 SLOAD PUSH2 0x15A7 JUMP JUMPDEST DUP3 SSTORE POP POP POP POP JUMP JUMPDEST PUSH0 SWAP1 JUMP JUMPDEST PUSH2 0x165C PUSH2 0x1650 JUMP JUMPDEST PUSH2 0x1667 DUP2 DUP5 DUP5 PUSH2 0x162B JUMP JUMPDEST POP POP POP JUMP JUMPDEST JUMPDEST DUP2 DUP2 LT ISZERO PUSH2 0x168A JUMPI PUSH2 0x167F PUSH0 DUP3 PUSH2 0x1654 JUMP JUMPDEST PUSH1 0x1 DUP2 ADD SWAP1 POP PUSH2 0x166D JUMP JUMPDEST POP POP JUMP JUMPDEST PUSH1 0x1F DUP3 GT ISZERO PUSH2 0x16CF JUMPI PUSH2 0x16A0 DUP2 PUSH2 0x157A JUMP JUMPDEST PUSH2 0x16A9 DUP5 PUSH2 0x158C JUMP JUMPDEST DUP2 ADD PUSH1 0x20 DUP6 LT ISZERO PUSH2 0x16B8 JUMPI DUP2 SWAP1 POP JUMPDEST PUSH2 0x16CC PUSH2 0x16C4 DUP6 PUSH2 0x158C JUMP JUMPDEST DUP4 ADD DUP3 PUSH2 0x166C JUMP JUMPDEST POP POP JUMPDEST POP POP POP JUMP JUMPDEST PUSH0 DUP3 DUP3 SHR SWAP1 POP SWAP3 SWAP2 POP POP JUMP JUMPDEST PUSH0 PUSH2 0x16EF PUSH0 NOT DUP5 PUSH1 0x8 MUL PUSH2 0x16D4 JUMP JUMPDEST NOT DUP1 DUP4 AND SWAP2 POP POP SWAP3 SWAP2 POP POP JUMP JUMPDEST PUSH0 PUSH2 0x1707 DUP4 DUP4 PUSH2 0x16E0 JUMP JUMPDEST SWAP2 POP DUP3 PUSH1 0x2 MUL DUP3 OR SWAP1 POP SWAP3 SWAP2 POP POP JUMP JUMPDEST PUSH2 0x1720 DUP3 PUSH2 0xE83 JUMP JUMPDEST PUSH8 0xFFFFFFFFFFFFFFFF DUP2 GT ISZERO PUSH2 0x1739 JUMPI PUSH2 0x1738 PUSH2 0xC50 JUMP JUMPDEST JUMPDEST PUSH2 0x1743 DUP3 SLOAD PUSH2 0x12DF JUMP JUMPDEST PUSH2 0x174E DUP3 DUP3 DUP6 PUSH2 0x168E JUMP JUMPDEST PUSH0 PUSH1 0x20 SWAP1 POP PUSH1 0x1F DUP4 GT PUSH1 0x1 DUP2 EQ PUSH2 0x177F JUMPI PUSH0 DUP5 ISZERO PUSH2 0x176D JUMPI DUP3 DUP8 ADD MLOAD SWAP1 POP JUMPDEST PUSH2 0x1777 DUP6 DUP3 PUSH2 0x16FC JUMP JUMPDEST DUP7 SSTORE POP PUSH2 0x17DE JUMP JUMPDEST PUSH1 0x1F NOT DUP5 AND PUSH2 0x178D DUP7 PUSH2 0x157A JUMP JUMPDEST PUSH0 JUMPDEST DUP3 DUP2 LT ISZERO PUSH2 0x17B4 JUMPI DUP5 DUP10 ADD MLOAD DUP3 SSTORE PUSH1 0x1 DUP3 ADD SWAP2 POP PUSH1 0x20 DUP6 ADD SWAP5 POP PUSH1 0x20 DUP2 ADD SWAP1 POP PUSH2 0x178F JUMP JUMPDEST DUP7 DUP4 LT ISZERO PUSH2 0x17D1 JUMPI DUP5 DUP10 ADD MLOAD PUSH2 0x17CD PUSH1 0x1F DUP10 AND DUP3 PUSH2 0x16E0 JUMP JUMPDEST DUP4 SSTORE POP JUMPDEST PUSH1 0x1 PUSH1 0x2 DUP9 MUL ADD DUP9 SSTORE POP POP POP JUMPDEST POP POP POP POP POP POP JUMP INVALID LOG2 PUSH5 0x6970667358 0x22 SLT KECCAK256 DUP9 PUSH10 0x125A41176E7A7952D063 0xD7 0xE0 0xAB PUSH24 0x48B145813472B34CE69DB1B13F963D3364736F6C63430008 AND STOP CALLER "
				},
				"gasEstimates": {
					"creation": {
						"codeDepositCost": "1234400",
						"executionCost": "infinite",
						"totalCost": "infinite"
					},
					"external": {
						"active()": "2467",
						"claim(uint256)": "infinite",
						"contribute(address,uint256,uint256)": "infinite",
						"counter()": "2492",
						"creations(string,string,uint256)": "infinite",
						"datas(address)": "2824",
						"deactivate()": "24431",
						"endtime()": "2492",
						"getUserDetails(uint256)": "infinite",
						"goal()": "2536",
						"owner()": "2625",
						"refund()": "infinite",
						"userExists(uint256)": "infinite"
					},
					"internal": {
						"adduser(string memory,string memory,uint256)": "infinite",
						"transferOwnership(address)": "infinite"
					}
				},
				"methodIdentifiers": {
					"active()": "02fb0c5e",
					"claim(uint256)": "379607f5",
					"contribute(address,uint256,uint256)": "a08f793c",
					"counter()": "61bc221a",
					"creations(string,string,uint256)": "0842b53c",
					"datas(address)": "68a6cdf2",
					"deactivate()": "51b42b00",
					"endtime()": "2ca126f8",
					"getUserDetails(uint256)": "1c1a9f7b",
					"goal()": "40193883",
					"owner()": "8da5cb5b",
					"refund()": "590e1ae3",
					"userExists(uint256)": "6f93dd91"
				}
			},
			"storageLayout": {
				"storage": [
					{
						"astId": 9,
						"contract": "contracts/testing_final.sol:final_task",
						"label": "state",
						"offset": 0,
						"slot": "0",
						"type": "t_enum(check_state)6"
					},
					{
						"astId": 45,
						"contract": "contracts/testing_final.sol:final_task",
						"label": "i",
						"offset": 0,
						"slot": "1",
						"type": "t_bytes_storage"
					},
					{
						"astId": 48,
						"contract": "contracts/testing_final.sol:final_task",
						"label": "goal",
						"offset": 0,
						"slot": "2",
						"type": "t_uint256"
					},
					{
						"astId": 54,
						"contract": "contracts/testing_final.sol:final_task",
						"label": "endtime",
						"offset": 0,
						"slot": "3",
						"type": "t_uint256"
					},
					{
						"astId": 56,
						"contract": "contracts/testing_final.sol:final_task",
						"label": "active",
						"offset": 0,
						"slot": "4",
						"type": "t_bool"
					},
					{
						"astId": 58,
						"contract": "contracts/testing_final.sol:final_task",
						"label": "owner",
						"offset": 1,
						"slot": "4",
						"type": "t_address"
					},
					{
						"astId": 60,
						"contract": "contracts/testing_final.sol:final_task",
						"label": "counter",
						"offset": 0,
						"slot": "5",
						"type": "t_uint256"
					},
					{
						"astId": 140,
						"contract": "contracts/testing_final.sol:final_task",
						"label": "data",
						"offset": 0,
						"slot": "6",
						"type": "t_mapping(t_uint256,t_array(t_struct(funding)134_storage)dyn_storage)"
					},
					{
						"astId": 144,
						"contract": "contracts/testing_final.sol:final_task",
						"label": "datas",
						"offset": 0,
						"slot": "7",
						"type": "t_mapping(t_address,t_uint256)"
					}
				],
				"types": {
					"t_address": {
						"encoding": "inplace",
						"label": "address",
						"numberOfBytes": "20"
					},
					"t_array(t_struct(funding)134_storage)dyn_storage": {
						"base": "t_struct(funding)134_storage",
						"encoding": "dynamic_array",
						"label": "struct final_task.funding[]",
						"numberOfBytes": "32"
					},
					"t_bool": {
						"encoding": "inplace",
						"label": "bool",
						"numberOfBytes": "1"
					},
					"t_bytes_storage": {
						"encoding": "bytes",
						"label": "bytes",
						"numberOfBytes": "32"
					},
					"t_enum(check_state)6": {
						"encoding": "inplace",
						"label": "enum final_task.check_state",
						"numberOfBytes": "1"
					},
					"t_mapping(t_address,t_uint256)": {
						"encoding": "mapping",
						"key": "t_address",
						"label": "mapping(address => uint256)",
						"numberOfBytes": "32",
						"value": "t_uint256"
					},
					"t_mapping(t_uint256,t_array(t_struct(funding)134_storage)dyn_storage)": {
						"encoding": "mapping",
						"key": "t_uint256",
						"label": "mapping(uint256 => struct final_task.funding[])",
						"numberOfBytes": "32",
						"value": "t_array(t_struct(funding)134_storage)dyn_storage"
					},
					"t_string_storage": {
						"encoding": "bytes",
						"label": "string",
						"numberOfBytes": "32"
					},
					"t_struct(funding)134_storage": {
						"encoding": "inplace",
						"label": "struct final_task.funding",
						"members": [
							{
								"astId": 129,
								"contract": "contracts/testing_final.sol:final_task",
								"label": "name",
								"offset": 0,
								"slot": "0",
								"type": "t_string_storage"
							},
							{
								"astId": 131,
								"contract": "contracts/testing_final.sol:final_task",
								"label": "discription",
								"offset": 0,
								"slot": "1",
								"type": "t_string_storage"
							},
							{
								"astId": 133,
								"contract": "contracts/testing_final.sol:final_task",
								"label": "user",
								"offset": 0,
								"slot": "2",
								"type": "t_uint256"
							}
						],
						"numberOfBytes": "96"
					},
					"t_uint256": {
						"encoding": "inplace",
						"label": "uint256",
						"numberOfBytes": "32"
					}
				}
			},
			"userdoc": {
				"kind": "user",
				"methods": {},
				"version": 1
			}
		}
	}
}