{
	"contracts/campaign.sol": {
		"compaign": {
			"abi": [
				{
					"inputs": [],
					"stateMutability": "nonpayable",
					"type": "constructor"
				},
				{
					"anonymous": false,
					"inputs": [
						{
							"indexed": false,
							"internalType": "address",
							"name": "user",
							"type": "address"
						},
						{
							"indexed": false,
							"internalType": "uint256",
							"name": "amount",
							"type": "uint256"
						},
						{
							"indexed": false,
							"internalType": "uint256",
							"name": "index",
							"type": "uint256"
						}
					],
					"name": "completion",
					"type": "event"
				},
				{
					"anonymous": false,
					"inputs": [
						{
							"indexed": false,
							"internalType": "address",
							"name": "user",
							"type": "address"
						},
						{
							"indexed": false,
							"internalType": "uint256",
							"name": "amount",
							"type": "uint256"
						},
						{
							"indexed": false,
							"internalType": "uint256",
							"name": "index",
							"type": "uint256"
						}
					],
					"name": "contributions",
					"type": "event"
				},
				{
					"anonymous": false,
					"inputs": [
						{
							"indexed": false,
							"internalType": "address",
							"name": "user",
							"type": "address"
						},
						{
							"indexed": false,
							"internalType": "string",
							"name": "user_name",
							"type": "string"
						},
						{
							"indexed": false,
							"internalType": "string",
							"name": "user_discription",
							"type": "string"
						}
					],
					"name": "creations",
					"type": "event"
				},
				{
					"anonymous": false,
					"inputs": [
						{
							"indexed": false,
							"internalType": "address",
							"name": "user",
							"type": "address"
						},
						{
							"indexed": false,
							"internalType": "uint256",
							"name": "amount",
							"type": "uint256"
						}
					],
					"name": "refund_claims",
					"type": "event"
				},
				{
					"inputs": [],
					"name": "active",
					"outputs": [
						{
							"internalType": "bool",
							"name": "",
							"type": "bool"
						}
					],
					"stateMutability": "view",
					"type": "function"
				},
				{
					"inputs": [
						{
							"internalType": "uint256",
							"name": "id",
							"type": "uint256"
						}
					],
					"name": "claim",
					"outputs": [],
					"stateMutability": "payable",
					"type": "function"
				},
				{
					"inputs": [
						{
							"internalType": "uint256",
							"name": "id",
							"type": "uint256"
						}
					],
					"name": "contribution",
					"outputs": [],
					"stateMutability": "payable",
					"type": "function"
				},
				{
					"inputs": [
						{
							"internalType": "string",
							"name": "_name",
							"type": "string"
						},
						{
							"internalType": "string",
							"name": "_discription",
							"type": "string"
						}
					],
					"name": "creation",
					"outputs": [],
					"stateMutability": "nonpayable",
					"type": "function"
				},
				{
					"inputs": [],
					"name": "deactivate",
					"outputs": [],
					"stateMutability": "nonpayable",
					"type": "function"
				},
				{
					"inputs": [
						{
							"internalType": "uint256",
							"name": "",
							"type": "uint256"
						}
					],
					"name": "fund",
					"outputs": [
						{
							"internalType": "string",
							"name": "name",
							"type": "string"
						},
						{
							"internalType": "string",
							"name": "discription",
							"type": "string"
						},
						{
							"internalType": "address",
							"name": "owner",
							"type": "address"
						},
						{
							"internalType": "uint256",
							"name": "raisedAmount",
							"type": "uint256"
						}
					],
					"stateMutability": "view",
					"type": "function"
				},
				{
					"inputs": [
						{
							"internalType": "uint256",
							"name": "_userAddress",
							"type": "uint256"
						}
					],
					"name": "getUserDetails",
					"outputs": [
						{
							"components": [
								{
									"internalType": "string",
									"name": "name",
									"type": "string"
								},
								{
									"internalType": "string",
									"name": "discription",
									"type": "string"
								},
								{
									"internalType": "address",
									"name": "owner",
									"type": "address"
								},
								{
									"internalType": "uint256",
									"name": "raisedAmount",
									"type": "uint256"
								}
							],
							"internalType": "struct compaign.funding",
							"name": "",
							"type": "tuple"
						}
					],
					"stateMutability": "view",
					"type": "function"
				},
				{
					"inputs": [],
					"name": "index",
					"outputs": [
						{
							"internalType": "uint256",
							"name": "",
							"type": "uint256"
						}
					],
					"stateMutability": "view",
					"type": "function"
				},
				{
					"inputs": [],
					"name": "owner",
					"outputs": [
						{
							"internalType": "address",
							"name": "",
							"type": "address"
						}
					],
					"stateMutability": "view",
					"type": "function"
				},
				{
					"inputs": [
						{
							"internalType": "uint256",
							"name": "id",
							"type": "uint256"
						}
					],
					"name": "refund",
					"outputs": [],
					"stateMutability": "payable",
					"type": "function"
				},
				{
					"inputs": [
						{
							"internalType": "string",
							"name": "_name",
							"type": "string"
						},
						{
							"internalType": "string",
							"name": "_discription",
							"type": "string"
						}
					],
					"name": "user_add",
					"outputs": [],
					"stateMutability": "nonpayable",
					"type": "function"
				}
			],
			"devdoc": {
				"kind": "dev",
				"methods": {},
				"version": 1
			},
			"evm": {
				"assembly": "    /* \"contracts/campaign.sol\":61:2724  contract compaign{... */\n  mstore(0x40, 0x80)\n    /* \"contracts/campaign.sol\":515:523  20 ether */\n  0x01158e460913d00000\n    /* \"contracts/campaign.sol\":502:523  uint256 goal=20 ether */\n  0x01\n  sstore\n    /* \"contracts/campaign.sol\":558:568  10 minutes */\n  0x0258\n    /* \"contracts/campaign.sol\":540:555  block.timestamp */\n  timestamp\n    /* \"contracts/campaign.sol\":540:568  block.timestamp + 10 minutes */\n  tag_1\n  swap2\n  swap1\n  tag_2\n  jump\t// in\ntag_1:\n    /* \"contracts/campaign.sol\":526:568  uint endtime= block.timestamp + 10 minutes */\n  0x02\n  sstore\n    /* \"contracts/campaign.sol\":575:637  constructor(){... */\n  callvalue\n  dup1\n  iszero\n  tag_3\n  jumpi\n  0x00\n  dup1\n  revert\ntag_3:\n  pop\n    /* \"contracts/campaign.sol\":603:613  msg.sender */\n  caller\n    /* \"contracts/campaign.sol\":595:600  owner */\n  0x00\n  0x01\n    /* \"contracts/campaign.sol\":595:613  owner = msg.sender */\n  0x0100\n  exp\n  dup2\n  sload\n  dup2\n  0xffffffffffffffffffffffffffffffffffffffff\n  mul\n  not\n  and\n  swap1\n  dup4\n  0xffffffffffffffffffffffffffffffffffffffff\n  and\n  mul\n  or\n  swap1\n  sstore\n  pop\n    /* \"contracts/campaign.sol\":629:633  true */\n  0x01\n    /* \"contracts/campaign.sol\":620:626  active */\n  0x00\n  0x15\n    /* \"contracts/campaign.sol\":620:633  active = true */\n  0x0100\n  exp\n  dup2\n  sload\n  dup2\n  0xff\n  mul\n  not\n  and\n  swap1\n  dup4\n  iszero\n  iszero\n  mul\n  or\n  swap1\n  sstore\n  pop\n    /* \"contracts/campaign.sol\":61:2724  contract compaign{... */\n  jump(tag_6)\n    /* \"#utility.yul\":7:84   */\ntag_7:\n    /* \"#utility.yul\":44:51   */\n  0x00\n    /* \"#utility.yul\":73:78   */\n  dup2\n    /* \"#utility.yul\":62:78   */\n  swap1\n  pop\n    /* \"#utility.yul\":7:84   */\n  swap2\n  swap1\n  pop\n  jump\t// out\n    /* \"#utility.yul\":90:270   */\ntag_8:\n    /* \"#utility.yul\":138:215   */\n  0x4e487b7100000000000000000000000000000000000000000000000000000000\n    /* \"#utility.yul\":135:136   */\n  0x00\n    /* \"#utility.yul\":128:216   */\n  mstore\n    /* \"#utility.yul\":235:239   */\n  0x11\n    /* \"#utility.yul\":232:233   */\n  0x04\n    /* \"#utility.yul\":225:240   */\n  mstore\n    /* \"#utility.yul\":259:263   */\n  0x24\n    /* \"#utility.yul\":256:257   */\n  0x00\n    /* \"#utility.yul\":249:264   */\n  revert\n    /* \"#utility.yul\":276:467   */\ntag_2:\n    /* \"#utility.yul\":316:319   */\n  0x00\n    /* \"#utility.yul\":335:355   */\n  tag_13\n    /* \"#utility.yul\":353:354   */\n  dup3\n    /* \"#utility.yul\":335:355   */\n  tag_7\n  jump\t// in\ntag_13:\n    /* \"#utility.yul\":330:355   */\n  swap2\n  pop\n    /* \"#utility.yul\":369:389   */\n  tag_14\n    /* \"#utility.yul\":387:388   */\n  dup4\n    /* \"#utility.yul\":369:389   */\n  tag_7\n  jump\t// in\ntag_14:\n    /* \"#utility.yul\":364:389   */\n  swap3\n  pop\n    /* \"#utility.yul\":412:413   */\n  dup3\n    /* \"#utility.yul\":409:410   */\n  dup3\n    /* \"#utility.yul\":405:414   */\n  add\n    /* \"#utility.yul\":398:414   */\n  swap1\n  pop\n    /* \"#utility.yul\":433:436   */\n  dup1\n    /* \"#utility.yul\":430:431   */\n  dup3\n    /* \"#utility.yul\":427:437   */\n  gt\n    /* \"#utility.yul\":424:460   */\n  iszero\n  tag_15\n  jumpi\n    /* \"#utility.yul\":440:458   */\n  tag_16\n  tag_8\n  jump\t// in\ntag_16:\n    /* \"#utility.yul\":424:460   */\ntag_15:\n    /* \"#utility.yul\":276:467   */\n  swap3\n  swap2\n  pop\n  pop\n  jump\t// out\n    /* \"contracts/campaign.sol\":61:2724  contract compaign{... */\ntag_6:\n  dataSize(sub_0)\n  dup1\n  dataOffset(sub_0)\n  0x00\n  codecopy\n  0x00\n  return\nstop\n\nsub_0: assembly {\n        /* \"contracts/campaign.sol\":61:2724  contract compaign{... */\n      mstore(0x40, 0x80)\n      jumpi(tag_1, lt(calldatasize, 0x04))\n      shr(0xe0, calldataload(0x00))\n      dup1\n      0x51b42b00\n      gt\n      tag_13\n      jumpi\n      dup1\n      0x51b42b00\n      eq\n      tag_7\n      jumpi\n      dup1\n      0x6e613bb9\n      eq\n      tag_8\n      jumpi\n      dup1\n      0x860e4565\n      eq\n      tag_9\n      jumpi\n      dup1\n      0x8da5cb5b\n      eq\n      tag_10\n      jumpi\n      dup1\n      0xca1d209d\n      eq\n      tag_11\n      jumpi\n      dup1\n      0xe8709c40\n      eq\n      tag_12\n      jumpi\n      jump(tag_1)\n    tag_13:\n      dup1\n      0x02fb0c5e\n      eq\n      tag_2\n      jumpi\n      dup1\n      0x1c1a9f7b\n      eq\n      tag_3\n      jumpi\n      dup1\n      0x278ecde1\n      eq\n      tag_4\n      jumpi\n      dup1\n      0x2986c0e5\n      eq\n      tag_5\n      jumpi\n      dup1\n      0x379607f5\n      eq\n      tag_6\n      jumpi\n    tag_1:\n      0x00\n      dup1\n      revert\n        /* \"contracts/campaign.sol\":481:499  bool public active */\n    tag_2:\n      callvalue\n      dup1\n      iszero\n      tag_14\n      jumpi\n      0x00\n      dup1\n      revert\n    tag_14:\n      pop\n      tag_15\n      tag_16\n      jump\t// in\n    tag_15:\n      mload(0x40)\n      tag_17\n      swap2\n      swap1\n      tag_18\n      jump\t// in\n    tag_17:\n      mload(0x40)\n      dup1\n      swap2\n      sub\n      swap1\n      return\n        /* \"contracts/campaign.sol\":2579:2715  function getUserDetails(uint _userAddress) public view returns (funding memory) {... */\n    tag_3:\n      callvalue\n      dup1\n      iszero\n      tag_19\n      jumpi\n      0x00\n      dup1\n      revert\n    tag_19:\n      pop\n      tag_20\n      0x04\n      dup1\n      calldatasize\n      sub\n      dup2\n      add\n      swap1\n      tag_21\n      swap2\n      swap1\n      tag_22\n      jump\t// in\n    tag_21:\n      tag_23\n      jump\t// in\n    tag_20:\n      mload(0x40)\n      tag_24\n      swap2\n      swap1\n      tag_25\n      jump\t// in\n    tag_24:\n      mload(0x40)\n      dup1\n      swap2\n      sub\n      swap1\n      return\n        /* \"contracts/campaign.sol\":2157:2574  function refund(uint id) public payable {... */\n    tag_4:\n      tag_26\n      0x04\n      dup1\n      calldatasize\n      sub\n      dup2\n      add\n      swap1\n      tag_27\n      swap2\n      swap1\n      tag_22\n      jump\t// in\n    tag_27:\n      tag_28\n      jump\t// in\n    tag_26:\n      stop\n        /* \"contracts/campaign.sol\":1128:1148  uint256 public index */\n    tag_5:\n      callvalue\n      dup1\n      iszero\n      tag_29\n      jumpi\n      0x00\n      dup1\n      revert\n    tag_29:\n      pop\n      tag_30\n      tag_31\n      jump\t// in\n    tag_30:\n      mload(0x40)\n      tag_32\n      swap2\n      swap1\n      tag_33\n      jump\t// in\n    tag_32:\n      mload(0x40)\n      dup1\n      swap2\n      sub\n      swap1\n      return\n        /* \"contracts/campaign.sol\":1767:2153  function claim(uint id)public payable onlyowner isactive  {... */\n    tag_6:\n      tag_34\n      0x04\n      dup1\n      calldatasize\n      sub\n      dup2\n      add\n      swap1\n      tag_35\n      swap2\n      swap1\n      tag_22\n      jump\t// in\n    tag_35:\n      tag_36\n      jump\t// in\n    tag_34:\n      stop\n        /* \"contracts/campaign.sol\":812:865  function deactivate() public{... */\n    tag_7:\n      callvalue\n      dup1\n      iszero\n      tag_37\n      jumpi\n      0x00\n      dup1\n      revert\n    tag_37:\n      pop\n      tag_38\n      tag_39\n      jump\t// in\n    tag_38:\n      stop\n        /* \"contracts/campaign.sol\":1153:1356  function user_add(string memory _name,... */\n    tag_8:\n      callvalue\n      dup1\n      iszero\n      tag_40\n      jumpi\n      0x00\n      dup1\n      revert\n    tag_40:\n      pop\n      tag_41\n      0x04\n      dup1\n      calldatasize\n      sub\n      dup2\n      add\n      swap1\n      tag_42\n      swap2\n      swap1\n      tag_43\n      jump\t// in\n    tag_42:\n      tag_44\n      jump\t// in\n    tag_41:\n      stop\n        /* \"contracts/campaign.sol\":1360:1567  function creation(string memory _name,... */\n    tag_9:\n      callvalue\n      dup1\n      iszero\n      tag_45\n      jumpi\n      0x00\n      dup1\n      revert\n    tag_45:\n      pop\n      tag_46\n      0x04\n      dup1\n      calldatasize\n      sub\n      dup2\n      add\n      swap1\n      tag_47\n      swap2\n      swap1\n      tag_43\n      jump\t// in\n    tag_47:\n      tag_48\n      jump\t// in\n    tag_46:\n      stop\n        /* \"contracts/campaign.sol\":458:478  address public owner */\n    tag_10:\n      callvalue\n      dup1\n      iszero\n      tag_49\n      jumpi\n      0x00\n      dup1\n      revert\n    tag_49:\n      pop\n      tag_50\n      tag_51\n      jump\t// in\n    tag_50:\n      mload(0x40)\n      tag_52\n      swap2\n      swap1\n      tag_53\n      jump\t// in\n    tag_52:\n      mload(0x40)\n      dup1\n      swap2\n      sub\n      swap1\n      return\n        /* \"contracts/campaign.sol\":1088:1125  mapping(uint256=>funding) public fund */\n    tag_11:\n      callvalue\n      dup1\n      iszero\n      tag_54\n      jumpi\n      0x00\n      dup1\n      revert\n    tag_54:\n      pop\n      tag_55\n      0x04\n      dup1\n      calldatasize\n      sub\n      dup2\n      add\n      swap1\n      tag_56\n      swap2\n      swap1\n      tag_22\n      jump\t// in\n    tag_56:\n      tag_57\n      jump\t// in\n    tag_55:\n      mload(0x40)\n      tag_58\n      swap5\n      swap4\n      swap3\n      swap2\n      swap1\n      tag_59\n      jump\t// in\n    tag_58:\n      mload(0x40)\n      dup1\n      swap2\n      sub\n      swap1\n      return\n        /* \"contracts/campaign.sol\":1571:1763  function contribution(uint id) public payable  {... */\n    tag_12:\n      tag_60\n      0x04\n      dup1\n      calldatasize\n      sub\n      dup2\n      add\n      swap1\n      tag_61\n      swap2\n      swap1\n      tag_22\n      jump\t// in\n    tag_61:\n      tag_62\n      jump\t// in\n    tag_60:\n      stop\n        /* \"contracts/campaign.sol\":481:499  bool public active */\n    tag_16:\n      0x00\n      0x15\n      swap1\n      sload\n      swap1\n      0x0100\n      exp\n      swap1\n      div\n      0xff\n      and\n      dup2\n      jump\t// out\n        /* \"contracts/campaign.sol\":2579:2715  function getUserDetails(uint _userAddress) public view returns (funding memory) {... */\n    tag_23:\n        /* \"contracts/campaign.sol\":2643:2657  funding memory */\n      tag_63\n      tag_64\n      jump\t// in\n    tag_63:\n        /* \"contracts/campaign.sol\":2677:2681  fund */\n      0x03\n        /* \"contracts/campaign.sol\":2677:2695  fund[_userAddress] */\n      0x00\n        /* \"contracts/campaign.sol\":2682:2694  _userAddress */\n      dup4\n        /* \"contracts/campaign.sol\":2677:2695  fund[_userAddress] */\n      dup2\n      mstore\n      0x20\n      add\n      swap1\n      dup2\n      mstore\n      0x20\n      add\n      0x00\n      keccak256\n        /* \"contracts/campaign.sol\":2670:2695  return fund[_userAddress] */\n      mload(0x40)\n      dup1\n      0x80\n      add\n      0x40\n      mstore\n      swap1\n      dup2\n      0x00\n      dup3\n      add\n      dup1\n      sload\n      tag_66\n      swap1\n      tag_67\n      jump\t// in\n    tag_66:\n      dup1\n      0x1f\n      add\n      0x20\n      dup1\n      swap2\n      div\n      mul\n      0x20\n      add\n      mload(0x40)\n      swap1\n      dup2\n      add\n      0x40\n      mstore\n      dup1\n      swap3\n      swap2\n      swap1\n      dup2\n      dup2\n      mstore\n      0x20\n      add\n      dup3\n      dup1\n      sload\n      tag_68\n      swap1\n      tag_67\n      jump\t// in\n    tag_68:\n      dup1\n      iszero\n      tag_69\n      jumpi\n      dup1\n      0x1f\n      lt\n      tag_70\n      jumpi\n      0x0100\n      dup1\n      dup4\n      sload\n      div\n      mul\n      dup4\n      mstore\n      swap2\n      0x20\n      add\n      swap2\n      jump(tag_69)\n    tag_70:\n      dup3\n      add\n      swap2\n      swap1\n      0x00\n      mstore\n      keccak256(0x00, 0x20)\n      swap1\n    tag_71:\n      dup2\n      sload\n      dup2\n      mstore\n      swap1\n      0x01\n      add\n      swap1\n      0x20\n      add\n      dup1\n      dup4\n      gt\n      tag_71\n      jumpi\n      dup3\n      swap1\n      sub\n      0x1f\n      and\n      dup3\n      add\n      swap2\n    tag_69:\n      pop\n      pop\n      pop\n      pop\n      pop\n      dup2\n      mstore\n      0x20\n      add\n      0x01\n      dup3\n      add\n      dup1\n      sload\n      tag_72\n      swap1\n      tag_67\n      jump\t// in\n    tag_72:\n      dup1\n      0x1f\n      add\n      0x20\n      dup1\n      swap2\n      div\n      mul\n      0x20\n      add\n      mload(0x40)\n      swap1\n      dup2\n      add\n      0x40\n      mstore\n      dup1\n      swap3\n      swap2\n      swap1\n      dup2\n      dup2\n      mstore\n      0x20\n      add\n      dup3\n      dup1\n      sload\n      tag_73\n      swap1\n      tag_67\n      jump\t// in\n    tag_73:\n      dup1\n      iszero\n      tag_74\n      jumpi\n      dup1\n      0x1f\n      lt\n      tag_75\n      jumpi\n      0x0100\n      dup1\n      dup4\n      sload\n      div\n      mul\n      dup4\n      mstore\n      swap2\n      0x20\n      add\n      swap2\n      jump(tag_74)\n    tag_75:\n      dup3\n      add\n      swap2\n      swap1\n      0x00\n      mstore\n      keccak256(0x00, 0x20)\n      swap1\n    tag_76:\n      dup2\n      sload\n      dup2\n      mstore\n      swap1\n      0x01\n      add\n      swap1\n      0x20\n      add\n      dup1\n      dup4\n      gt\n      tag_76\n      jumpi\n      dup3\n      swap1\n      sub\n      0x1f\n      and\n      dup3\n      add\n      swap2\n    tag_74:\n      pop\n      pop\n      pop\n      pop\n      pop\n      dup2\n      mstore\n      0x20\n      add\n      0x02\n      dup3\n      add\n      0x00\n      swap1\n      sload\n      swap1\n      0x0100\n      exp\n      swap1\n      div\n      0xffffffffffffffffffffffffffffffffffffffff\n      and\n      0xffffffffffffffffffffffffffffffffffffffff\n      and\n      0xffffffffffffffffffffffffffffffffffffffff\n      and\n      dup2\n      mstore\n      0x20\n      add\n      0x03\n      dup3\n      add\n      sload\n      dup2\n      mstore\n      pop\n      pop\n      swap1\n      pop\n        /* \"contracts/campaign.sol\":2579:2715  function getUserDetails(uint _userAddress) public view returns (funding memory) {... */\n      swap2\n      swap1\n      pop\n      jump\t// out\n        /* \"contracts/campaign.sol\":2157:2574  function refund(uint id) public payable {... */\n    tag_28:\n        /* \"contracts/campaign.sol\":2229:2233  goal */\n      sload(0x01)\n        /* \"contracts/campaign.sol\":2207:2211  fund */\n      0x03\n        /* \"contracts/campaign.sol\":2207:2215  fund[id] */\n      0x00\n        /* \"contracts/campaign.sol\":2212:2214  id */\n      dup4\n        /* \"contracts/campaign.sol\":2207:2215  fund[id] */\n      dup2\n      mstore\n      0x20\n      add\n      swap1\n      dup2\n      mstore\n      0x20\n      add\n      0x00\n      keccak256\n        /* \"contracts/campaign.sol\":2207:2228  fund[id].raisedAmount */\n      0x03\n      add\n      sload\n        /* \"contracts/campaign.sol\":2207:2233  fund[id].raisedAmount<goal */\n      lt\n        /* \"contracts/campaign.sol\":2204:2476  if(fund[id].raisedAmount<goal){... */\n      iszero\n      tag_78\n      jumpi\n        /* \"contracts/campaign.sol\":2243:2249  uint a */\n      0x00\n        /* \"contracts/campaign.sol\":2252:2256  fund */\n      0x03\n        /* \"contracts/campaign.sol\":2252:2260  fund[id] */\n      0x00\n        /* \"contracts/campaign.sol\":2257:2259  id */\n      dup4\n        /* \"contracts/campaign.sol\":2252:2260  fund[id] */\n      dup2\n      mstore\n      0x20\n      add\n      swap1\n      dup2\n      mstore\n      0x20\n      add\n      0x00\n      keccak256\n        /* \"contracts/campaign.sol\":2252:2273  fund[id].raisedAmount */\n      0x03\n      add\n      sload\n        /* \"contracts/campaign.sol\":2243:2273  uint a=  fund[id].raisedAmount */\n      swap1\n      pop\n        /* \"contracts/campaign.sol\":2293:2303  msg.sender */\n      caller\n        /* \"contracts/campaign.sol\":2285:2313  payable(msg.sender).transfer */\n      0xffffffffffffffffffffffffffffffffffffffff\n      and\n        /* \"contracts/campaign.sol\":2285:2316  payable(msg.sender).transfer(a) */\n      0x08fc\n        /* \"contracts/campaign.sol\":2314:2315  a */\n      dup3\n        /* \"contracts/campaign.sol\":2285:2316  payable(msg.sender).transfer(a) */\n      swap1\n      dup2\n      iszero\n      mul\n      swap1\n      mload(0x40)\n      0x00\n      mload(0x40)\n      dup1\n      dup4\n      sub\n      dup2\n      dup6\n      dup9\n      dup9\n      call\n      swap4\n      pop\n      pop\n      pop\n      pop\n      iszero\n      dup1\n      iszero\n      tag_80\n      jumpi\n      returndatasize\n      0x00\n      dup1\n      returndatacopy\n      revert(0x00, returndatasize)\n    tag_80:\n      pop\n        /* \"contracts/campaign.sol\":2336:2361  check_state.refund_claims */\n      0x03\n        /* \"contracts/campaign.sol\":2328:2333  state */\n      0x00\n      dup1\n        /* \"contracts/campaign.sol\":2328:2361  state = check_state.refund_claims */\n      0x0100\n      exp\n      dup2\n      sload\n      dup2\n      0xff\n      mul\n      not\n      and\n      swap1\n      dup4\n      0x04\n      dup2\n      gt\n      iszero\n      tag_81\n      jumpi\n      tag_82\n      tag_83\n      jump\t// in\n    tag_82:\n    tag_81:\n      mul\n      or\n      swap1\n      sstore\n      pop\n        /* \"contracts/campaign.sol\":2373:2408  refund_claims(msg.sender,msg.value) */\n      0x13449f70035221bfd809cb8d8994f004f2f917bbc10a9f431bfa7b3f423c0b25\n        /* \"contracts/campaign.sol\":2387:2397  msg.sender */\n      caller\n        /* \"contracts/campaign.sol\":2398:2407  msg.value */\n      callvalue\n        /* \"contracts/campaign.sol\":2373:2408  refund_claims(msg.sender,msg.value) */\n      mload(0x40)\n      tag_84\n      swap3\n      swap2\n      swap1\n      tag_85\n      jump\t// in\n    tag_84:\n      mload(0x40)\n      dup1\n      swap2\n      sub\n      swap1\n      log1\n        /* \"contracts/campaign.sol\":2234:2416  {... */\n      pop\n        /* \"contracts/campaign.sol\":2204:2476  if(fund[id].raisedAmount<goal){... */\n      jump(tag_86)\n    tag_78:\n        /* \"contracts/campaign.sol\":2437:2468  revert(\"u can't refund amount\") */\n      mload(0x40)\n      0x08c379a000000000000000000000000000000000000000000000000000000000\n      dup2\n      mstore\n      0x04\n      add\n      tag_87\n      swap1\n      tag_88\n      jump\t// in\n    tag_87:\n      mload(0x40)\n      dup1\n      swap2\n      sub\n      swap1\n      revert\n        /* \"contracts/campaign.sol\":2204:2476  if(fund[id].raisedAmount<goal){... */\n    tag_86:\n        /* \"contracts/campaign.sol\":2157:2574  function refund(uint id) public payable {... */\n      pop\n      jump\t// out\n        /* \"contracts/campaign.sol\":1128:1148  uint256 public index */\n    tag_31:\n      sload(0x04)\n      dup2\n      jump\t// out\n        /* \"contracts/campaign.sol\":1767:2153  function claim(uint id)public payable onlyowner isactive  {... */\n    tag_36:\n        /* \"contracts/campaign.sol\":686:691  owner */\n      0x00\n      0x01\n      swap1\n      sload\n      swap1\n      0x0100\n      exp\n      swap1\n      div\n      0xffffffffffffffffffffffffffffffffffffffff\n      and\n        /* \"contracts/campaign.sol\":672:691  msg.sender == owner */\n      0xffffffffffffffffffffffffffffffffffffffff\n      and\n        /* \"contracts/campaign.sol\":672:682  msg.sender */\n      caller\n        /* \"contracts/campaign.sol\":672:691  msg.sender == owner */\n      0xffffffffffffffffffffffffffffffffffffffff\n      and\n      eq\n        /* \"contracts/campaign.sol\":664:727  require(msg.sender == owner,\"only owner can use this function\") */\n      tag_90\n      jumpi\n      mload(0x40)\n      0x08c379a000000000000000000000000000000000000000000000000000000000\n      dup2\n      mstore\n      0x04\n      add\n      tag_91\n      swap1\n      tag_92\n      jump\t// in\n    tag_91:\n      mload(0x40)\n      dup1\n      swap2\n      sub\n      swap1\n      revert\n    tag_90:\n        /* \"contracts/campaign.sol\":771:777  active */\n      0x00\n      0x15\n      swap1\n      sload\n      swap1\n      0x0100\n      exp\n      swap1\n      div\n      0xff\n      and\n        /* \"contracts/campaign.sol\":763:800  require(active,\"state is not active\") */\n      tag_94\n      jumpi\n      mload(0x40)\n      0x08c379a000000000000000000000000000000000000000000000000000000000\n      dup2\n      mstore\n      0x04\n      add\n      tag_95\n      swap1\n      tag_96\n      jump\t// in\n    tag_95:\n      mload(0x40)\n      dup1\n      swap2\n      sub\n      swap1\n      revert\n    tag_94:\n        /* \"contracts/campaign.sol\":1856:1860  goal */\n      sload(0x01)\n        /* \"contracts/campaign.sol\":1833:1837  fund */\n      0x03\n        /* \"contracts/campaign.sol\":1833:1841  fund[id] */\n      0x00\n        /* \"contracts/campaign.sol\":1838:1840  id */\n      dup4\n        /* \"contracts/campaign.sol\":1833:1841  fund[id] */\n      dup2\n      mstore\n      0x20\n      add\n      swap1\n      dup2\n      mstore\n      0x20\n      add\n      0x00\n      keccak256\n        /* \"contracts/campaign.sol\":1833:1854  fund[id].raisedAmount */\n      0x03\n      add\n      sload\n        /* \"contracts/campaign.sol\":1833:1860  fund[id].raisedAmount>=goal */\n      lt\n        /* \"contracts/campaign.sol\":1830:2043  if(fund[id].raisedAmount>=goal){... */\n      tag_98\n      jumpi\n        /* \"contracts/campaign.sol\":1864:1870  uint a */\n      0x00\n        /* \"contracts/campaign.sol\":1873:1877  fund */\n      0x03\n        /* \"contracts/campaign.sol\":1873:1881  fund[id] */\n      0x00\n        /* \"contracts/campaign.sol\":1878:1880  id */\n      dup4\n        /* \"contracts/campaign.sol\":1873:1881  fund[id] */\n      dup2\n      mstore\n      0x20\n      add\n      swap1\n      dup2\n      mstore\n      0x20\n      add\n      0x00\n      keccak256\n        /* \"contracts/campaign.sol\":1873:1894  fund[id].raisedAmount */\n      0x03\n      add\n      sload\n        /* \"contracts/campaign.sol\":1864:1894  uint a = fund[id].raisedAmount */\n      swap1\n      pop\n        /* \"contracts/campaign.sol\":1905:1909  fund */\n      0x03\n        /* \"contracts/campaign.sol\":1905:1913  fund[id] */\n      0x00\n        /* \"contracts/campaign.sol\":1910:1912  id */\n      dup4\n        /* \"contracts/campaign.sol\":1905:1913  fund[id] */\n      dup2\n      mstore\n      0x20\n      add\n      swap1\n      dup2\n      mstore\n      0x20\n      add\n      0x00\n      keccak256\n        /* \"contracts/campaign.sol\":1905:1919  fund[id].owner */\n      0x02\n      add\n      0x00\n      swap1\n      sload\n      swap1\n      0x0100\n      exp\n      swap1\n      div\n      0xffffffffffffffffffffffffffffffffffffffff\n      and\n        /* \"contracts/campaign.sol\":1897:1929  payable(fund[id].owner).transfer */\n      0xffffffffffffffffffffffffffffffffffffffff\n      and\n        /* \"contracts/campaign.sol\":1897:1932  payable(fund[id].owner).transfer(a) */\n      0x08fc\n        /* \"contracts/campaign.sol\":1930:1931  a */\n      dup3\n        /* \"contracts/campaign.sol\":1897:1932  payable(fund[id].owner).transfer(a) */\n      swap1\n      dup2\n      iszero\n      mul\n      swap1\n      mload(0x40)\n      0x00\n      mload(0x40)\n      dup1\n      dup4\n      sub\n      dup2\n      dup6\n      dup9\n      dup9\n      call\n      swap4\n      pop\n      pop\n      pop\n      pop\n      iszero\n      dup1\n      iszero\n      tag_100\n      jumpi\n      returndatasize\n      0x00\n      dup1\n      returndatacopy\n      revert(0x00, returndatasize)\n    tag_100:\n      pop\n        /* \"contracts/campaign.sol\":1961:1983  check_state.completion */\n      0x02\n        /* \"contracts/campaign.sol\":1953:1958  state */\n      0x00\n      dup1\n        /* \"contracts/campaign.sol\":1953:1983  state = check_state.completion */\n      0x0100\n      exp\n      dup2\n      sload\n      dup2\n      0xff\n      mul\n      not\n      and\n      swap1\n      dup4\n      0x04\n      dup2\n      gt\n      iszero\n      tag_101\n      jumpi\n      tag_102\n      tag_83\n      jump\t// in\n    tag_102:\n    tag_101:\n      mul\n      or\n      swap1\n      sstore\n      pop\n        /* \"contracts/campaign.sol\":1995:2035  completion(fund[id].owner, msg.value,id) */\n      0x1b6e211f4f9c831c65cf08f006c0bd582bfd54b8f87c3900c9ed95e426eca5db\n        /* \"contracts/campaign.sol\":2006:2010  fund */\n      0x03\n        /* \"contracts/campaign.sol\":2006:2014  fund[id] */\n      0x00\n        /* \"contracts/campaign.sol\":2011:2013  id */\n      dup5\n        /* \"contracts/campaign.sol\":2006:2014  fund[id] */\n      dup2\n      mstore\n      0x20\n      add\n      swap1\n      dup2\n      mstore\n      0x20\n      add\n      0x00\n      keccak256\n        /* \"contracts/campaign.sol\":2006:2020  fund[id].owner */\n      0x02\n      add\n      0x00\n      swap1\n      sload\n      swap1\n      0x0100\n      exp\n      swap1\n      div\n      0xffffffffffffffffffffffffffffffffffffffff\n      and\n        /* \"contracts/campaign.sol\":2022:2031  msg.value */\n      callvalue\n        /* \"contracts/campaign.sol\":2032:2034  id */\n      dup5\n        /* \"contracts/campaign.sol\":1995:2035  completion(fund[id].owner, msg.value,id) */\n      mload(0x40)\n      tag_103\n      swap4\n      swap3\n      swap2\n      swap1\n      tag_104\n      jump\t// in\n    tag_103:\n      mload(0x40)\n      dup1\n      swap2\n      sub\n      swap1\n      log1\n        /* \"contracts/campaign.sol\":1861:2043  {... */\n      pop\n        /* \"contracts/campaign.sol\":1830:2043  if(fund[id].raisedAmount>=goal){... */\n    tag_98:\n        /* \"contracts/campaign.sol\":2047:2059  deactivate() */\n      tag_105\n        /* \"contracts/campaign.sol\":2047:2057  deactivate */\n      tag_39\n        /* \"contracts/campaign.sol\":2047:2059  deactivate() */\n      jump\t// in\n    tag_105:\n        /* \"contracts/campaign.sol\":1767:2153  function claim(uint id)public payable onlyowner isactive  {... */\n      pop\n      jump\t// out\n        /* \"contracts/campaign.sol\":812:865  function deactivate() public{... */\n    tag_39:\n        /* \"contracts/campaign.sol\":856:861  false */\n      0x00\n        /* \"contracts/campaign.sol\":847:853  active */\n      dup1\n      0x15\n        /* \"contracts/campaign.sol\":847:861  active = false */\n      0x0100\n      exp\n      dup2\n      sload\n      dup2\n      0xff\n      mul\n      not\n      and\n      swap1\n      dup4\n      iszero\n      iszero\n      mul\n      or\n      swap1\n      sstore\n      pop\n        /* \"contracts/campaign.sol\":812:865  function deactivate() public{... */\n      jump\t// out\n        /* \"contracts/campaign.sol\":1153:1356  function user_add(string memory _name,... */\n    tag_44:\n        /* \"contracts/campaign.sol\":1246:1340  funding({... */\n      mload(0x40)\n      dup1\n      0x80\n      add\n      0x40\n      mstore\n      dup1\n        /* \"contracts/campaign.sol\":1263:1268  _name */\n      dup4\n        /* \"contracts/campaign.sol\":1246:1340  funding({... */\n      dup2\n      mstore\n      0x20\n      add\n        /* \"contracts/campaign.sol\":1284:1296  _discription */\n      dup3\n        /* \"contracts/campaign.sol\":1246:1340  funding({... */\n      dup2\n      mstore\n      0x20\n      add\n        /* \"contracts/campaign.sol\":1306:1316  msg.sender */\n      caller\n        /* \"contracts/campaign.sol\":1246:1340  funding({... */\n      0xffffffffffffffffffffffffffffffffffffffff\n      and\n      dup2\n      mstore\n      0x20\n      add\n        /* \"contracts/campaign.sol\":1333:1334  0 */\n      0x00\n        /* \"contracts/campaign.sol\":1246:1340  funding({... */\n      dup2\n      mstore\n      pop\n        /* \"contracts/campaign.sol\":1232:1236  fund */\n      0x03\n        /* \"contracts/campaign.sol\":1232:1243  fund[index] */\n      0x00\n        /* \"contracts/campaign.sol\":1237:1242  index */\n      sload(0x04)\n        /* \"contracts/campaign.sol\":1232:1243  fund[index] */\n      dup2\n      mstore\n      0x20\n      add\n      swap1\n      dup2\n      mstore\n      0x20\n      add\n      0x00\n      keccak256\n        /* \"contracts/campaign.sol\":1232:1340  fund[index] = funding({... */\n      0x00\n      dup3\n      add\n      mload\n      dup2\n      0x00\n      add\n      swap1\n      dup2\n      tag_108\n      swap2\n      swap1\n      tag_109\n      jump\t// in\n    tag_108:\n      pop\n      0x20\n      dup3\n      add\n      mload\n      dup2\n      0x01\n      add\n      swap1\n      dup2\n      tag_110\n      swap2\n      swap1\n      tag_109\n      jump\t// in\n    tag_110:\n      pop\n      0x40\n      dup3\n      add\n      mload\n      dup2\n      0x02\n      add\n      exp(0x0100, 0x00)\n      dup2\n      sload\n      dup2\n      0xffffffffffffffffffffffffffffffffffffffff\n      mul\n      not\n      and\n      swap1\n      dup4\n      0xffffffffffffffffffffffffffffffffffffffff\n      and\n      mul\n      or\n      swap1\n      sstore\n      pop\n      0x60\n      dup3\n      add\n      mload\n      dup2\n      0x03\n      add\n      sstore\n      swap1\n      pop\n      pop\n        /* \"contracts/campaign.sol\":1343:1348  index */\n      0x04\n      0x00\n        /* \"contracts/campaign.sol\":1343:1350  index++ */\n      dup2\n      sload\n      dup1\n      swap3\n      swap2\n      swap1\n      tag_111\n      swap1\n      tag_112\n      jump\t// in\n    tag_111:\n      swap2\n      swap1\n      pop\n      sstore\n      pop\n        /* \"contracts/campaign.sol\":1153:1356  function user_add(string memory _name,... */\n      pop\n      pop\n      jump\t// out\n        /* \"contracts/campaign.sol\":1360:1567  function creation(string memory _name,... */\n    tag_48:\n        /* \"contracts/campaign.sol\":1445:1474  user_add(_name, _discription) */\n      tag_114\n        /* \"contracts/campaign.sol\":1454:1459  _name */\n      dup3\n        /* \"contracts/campaign.sol\":1461:1473  _discription */\n      dup3\n        /* \"contracts/campaign.sol\":1445:1453  user_add */\n      tag_44\n        /* \"contracts/campaign.sol\":1445:1474  user_add(_name, _discription) */\n      jump\t// in\n    tag_114:\n        /* \"contracts/campaign.sol\":1489:1509  check_state.creation */\n      0x00\n        /* \"contracts/campaign.sol\":1481:1486  state */\n      dup1\n      0x00\n        /* \"contracts/campaign.sol\":1481:1509  state = check_state.creation */\n      0x0100\n      exp\n      dup2\n      sload\n      dup2\n      0xff\n      mul\n      not\n      and\n      swap1\n      dup4\n      0x04\n      dup2\n      gt\n      iszero\n      tag_115\n      jumpi\n      tag_116\n      tag_83\n      jump\t// in\n    tag_116:\n    tag_115:\n      mul\n      or\n      swap1\n      sstore\n      pop\n        /* \"contracts/campaign.sol\":1521:1563  creations(msg.sender, _name, _discription) */\n      0xd9f5d2554288e53ff4638a508d2b24634f8f31fd61153e9eeb435b14ddfb210a\n        /* \"contracts/campaign.sol\":1531:1541  msg.sender */\n      caller\n        /* \"contracts/campaign.sol\":1543:1548  _name */\n      dup4\n        /* \"contracts/campaign.sol\":1550:1562  _discription */\n      dup4\n        /* \"contracts/campaign.sol\":1521:1563  creations(msg.sender, _name, _discription) */\n      mload(0x40)\n      tag_117\n      swap4\n      swap3\n      swap2\n      swap1\n      tag_118\n      jump\t// in\n    tag_117:\n      mload(0x40)\n      dup1\n      swap2\n      sub\n      swap1\n      log1\n        /* \"contracts/campaign.sol\":1360:1567  function creation(string memory _name,... */\n      pop\n      pop\n      jump\t// out\n        /* \"contracts/campaign.sol\":458:478  address public owner */\n    tag_51:\n      0x00\n      0x01\n      swap1\n      sload\n      swap1\n      0x0100\n      exp\n      swap1\n      div\n      0xffffffffffffffffffffffffffffffffffffffff\n      and\n      dup2\n      jump\t// out\n        /* \"contracts/campaign.sol\":1088:1125  mapping(uint256=>funding) public fund */\n    tag_57:\n      mstore(0x20, 0x03)\n      dup1\n      0x00\n      mstore\n      keccak256(0x00, 0x40)\n      0x00\n      swap2\n      pop\n      swap1\n      pop\n      dup1\n      0x00\n      add\n      dup1\n      sload\n      tag_119\n      swap1\n      tag_67\n      jump\t// in\n    tag_119:\n      dup1\n      0x1f\n      add\n      0x20\n      dup1\n      swap2\n      div\n      mul\n      0x20\n      add\n      mload(0x40)\n      swap1\n      dup2\n      add\n      0x40\n      mstore\n      dup1\n      swap3\n      swap2\n      swap1\n      dup2\n      dup2\n      mstore\n      0x20\n      add\n      dup3\n      dup1\n      sload\n      tag_120\n      swap1\n      tag_67\n      jump\t// in\n    tag_120:\n      dup1\n      iszero\n      tag_121\n      jumpi\n      dup1\n      0x1f\n      lt\n      tag_122\n      jumpi\n      0x0100\n      dup1\n      dup4\n      sload\n      div\n      mul\n      dup4\n      mstore\n      swap2\n      0x20\n      add\n      swap2\n      jump(tag_121)\n    tag_122:\n      dup3\n      add\n      swap2\n      swap1\n      0x00\n      mstore\n      keccak256(0x00, 0x20)\n      swap1\n    tag_123:\n      dup2\n      sload\n      dup2\n      mstore\n      swap1\n      0x01\n      add\n      swap1\n      0x20\n      add\n      dup1\n      dup4\n      gt\n      tag_123\n      jumpi\n      dup3\n      swap1\n      sub\n      0x1f\n      and\n      dup3\n      add\n      swap2\n    tag_121:\n      pop\n      pop\n      pop\n      pop\n      pop\n      swap1\n      dup1\n      0x01\n      add\n      dup1\n      sload\n      tag_124\n      swap1\n      tag_67\n      jump\t// in\n    tag_124:\n      dup1\n      0x1f\n      add\n      0x20\n      dup1\n      swap2\n      div\n      mul\n      0x20\n      add\n      mload(0x40)\n      swap1\n      dup2\n      add\n      0x40\n      mstore\n      dup1\n      swap3\n      swap2\n      swap1\n      dup2\n      dup2\n      mstore\n      0x20\n      add\n      dup3\n      dup1\n      sload\n      tag_125\n      swap1\n      tag_67\n      jump\t// in\n    tag_125:\n      dup1\n      iszero\n      tag_126\n      jumpi\n      dup1\n      0x1f\n      lt\n      tag_127\n      jumpi\n      0x0100\n      dup1\n      dup4\n      sload\n      div\n      mul\n      dup4\n      mstore\n      swap2\n      0x20\n      add\n      swap2\n      jump(tag_126)\n    tag_127:\n      dup3\n      add\n      swap2\n      swap1\n      0x00\n      mstore\n      keccak256(0x00, 0x20)\n      swap1\n    tag_128:\n      dup2\n      sload\n      dup2\n      mstore\n      swap1\n      0x01\n      add\n      swap1\n      0x20\n      add\n      dup1\n      dup4\n      gt\n      tag_128\n      jumpi\n      dup3\n      swap1\n      sub\n      0x1f\n      and\n      dup3\n      add\n      swap2\n    tag_126:\n      pop\n      pop\n      pop\n      pop\n      pop\n      swap1\n      dup1\n      0x02\n      add\n      0x00\n      swap1\n      sload\n      swap1\n      0x0100\n      exp\n      swap1\n      div\n      0xffffffffffffffffffffffffffffffffffffffff\n      and\n      swap1\n      dup1\n      0x03\n      add\n      sload\n      swap1\n      pop\n      dup5\n      jump\t// out\n        /* \"contracts/campaign.sol\":1571:1763  function contribution(uint id) public payable  {... */\n    tag_62:\n        /* \"contracts/campaign.sol\":1652:1661  msg.value */\n      callvalue\n        /* \"contracts/campaign.sol\":1627:1631  fund */\n      0x03\n        /* \"contracts/campaign.sol\":1627:1635  fund[id] */\n      0x00\n        /* \"contracts/campaign.sol\":1632:1634  id */\n      dup4\n        /* \"contracts/campaign.sol\":1627:1635  fund[id] */\n      dup2\n      mstore\n      0x20\n      add\n      swap1\n      dup2\n      mstore\n      0x20\n      add\n      0x00\n      keccak256\n        /* \"contracts/campaign.sol\":1627:1648  fund[id].raisedAmount */\n      0x03\n      add\n      0x00\n        /* \"contracts/campaign.sol\":1627:1661  fund[id].raisedAmount += msg.value */\n      dup3\n      dup3\n      sload\n      tag_130\n      swap2\n      swap1\n      tag_131\n      jump\t// in\n    tag_130:\n      swap3\n      pop\n      pop\n      dup2\n      swap1\n      sstore\n      pop\n        /* \"contracts/campaign.sol\":1678:1703  check_state.contributions */\n      0x01\n        /* \"contracts/campaign.sol\":1670:1675  state */\n      0x00\n      dup1\n        /* \"contracts/campaign.sol\":1670:1703  state = check_state.contributions */\n      0x0100\n      exp\n      dup2\n      sload\n      dup2\n      0xff\n      mul\n      not\n      and\n      swap1\n      dup4\n      0x04\n      dup2\n      gt\n      iszero\n      tag_132\n      jumpi\n      tag_133\n      tag_83\n      jump\t// in\n    tag_133:\n    tag_132:\n      mul\n      or\n      swap1\n      sstore\n      pop\n        /* \"contracts/campaign.sol\":1714:1754  contributions(msg.sender, msg.value, id) */\n      0x8d95679fa904410fc44d924272fcf3b64c4c835a7f5cd01517011921d8c806b5\n        /* \"contracts/campaign.sol\":1728:1738  msg.sender */\n      caller\n        /* \"contracts/campaign.sol\":1740:1749  msg.value */\n      callvalue\n        /* \"contracts/campaign.sol\":1751:1753  id */\n      dup4\n        /* \"contracts/campaign.sol\":1714:1754  contributions(msg.sender, msg.value, id) */\n      mload(0x40)\n      tag_134\n      swap4\n      swap3\n      swap2\n      swap1\n      tag_104\n      jump\t// in\n    tag_134:\n      mload(0x40)\n      dup1\n      swap2\n      sub\n      swap1\n      log1\n        /* \"contracts/campaign.sol\":1571:1763  function contribution(uint id) public payable  {... */\n      pop\n      jump\t// out\n    tag_64:\n      mload(0x40)\n      dup1\n      0x80\n      add\n      0x40\n      mstore\n      dup1\n      0x60\n      dup2\n      mstore\n      0x20\n      add\n      0x60\n      dup2\n      mstore\n      0x20\n      add\n      and(0xffffffffffffffffffffffffffffffffffffffff, 0x00)\n      dup2\n      mstore\n      0x20\n      add\n      0x00\n      dup2\n      mstore\n      pop\n      swap1\n      jump\t// out\n        /* \"#utility.yul\":7:97   */\n    tag_135:\n        /* \"#utility.yul\":41:48   */\n      0x00\n        /* \"#utility.yul\":84:89   */\n      dup2\n        /* \"#utility.yul\":77:90   */\n      iszero\n        /* \"#utility.yul\":70:91   */\n      iszero\n        /* \"#utility.yul\":59:91   */\n      swap1\n      pop\n        /* \"#utility.yul\":7:97   */\n      swap2\n      swap1\n      pop\n      jump\t// out\n        /* \"#utility.yul\":103:212   */\n    tag_136:\n        /* \"#utility.yul\":184:205   */\n      tag_192\n        /* \"#utility.yul\":199:204   */\n      dup2\n        /* \"#utility.yul\":184:205   */\n      tag_135\n      jump\t// in\n    tag_192:\n        /* \"#utility.yul\":179:182   */\n      dup3\n        /* \"#utility.yul\":172:206   */\n      mstore\n        /* \"#utility.yul\":103:212   */\n      pop\n      pop\n      jump\t// out\n        /* \"#utility.yul\":218:428   */\n    tag_18:\n        /* \"#utility.yul\":305:309   */\n      0x00\n        /* \"#utility.yul\":343:345   */\n      0x20\n        /* \"#utility.yul\":332:341   */\n      dup3\n        /* \"#utility.yul\":328:346   */\n      add\n        /* \"#utility.yul\":320:346   */\n      swap1\n      pop\n        /* \"#utility.yul\":356:421   */\n      tag_194\n        /* \"#utility.yul\":418:419   */\n      0x00\n        /* \"#utility.yul\":407:416   */\n      dup4\n        /* \"#utility.yul\":403:420   */\n      add\n        /* \"#utility.yul\":394:400   */\n      dup5\n        /* \"#utility.yul\":356:421   */\n      tag_136\n      jump\t// in\n    tag_194:\n        /* \"#utility.yul\":218:428   */\n      swap3\n      swap2\n      pop\n      pop\n      jump\t// out\n        /* \"#utility.yul\":434:509   */\n    tag_137:\n        /* \"#utility.yul\":467:473   */\n      0x00\n        /* \"#utility.yul\":500:502   */\n      0x40\n        /* \"#utility.yul\":494:503   */\n      mload\n        /* \"#utility.yul\":484:503   */\n      swap1\n      pop\n        /* \"#utility.yul\":434:509   */\n      swap1\n      jump\t// out\n        /* \"#utility.yul\":515:632   */\n    tag_138:\n        /* \"#utility.yul\":624:625   */\n      0x00\n        /* \"#utility.yul\":621:622   */\n      dup1\n        /* \"#utility.yul\":614:626   */\n      revert\n        /* \"#utility.yul\":638:755   */\n    tag_139:\n        /* \"#utility.yul\":747:748   */\n      0x00\n        /* \"#utility.yul\":744:745   */\n      dup1\n        /* \"#utility.yul\":737:749   */\n      revert\n        /* \"#utility.yul\":761:838   */\n    tag_140:\n        /* \"#utility.yul\":798:805   */\n      0x00\n        /* \"#utility.yul\":827:832   */\n      dup2\n        /* \"#utility.yul\":816:832   */\n      swap1\n      pop\n        /* \"#utility.yul\":761:838   */\n      swap2\n      swap1\n      pop\n      jump\t// out\n        /* \"#utility.yul\":844:966   */\n    tag_141:\n        /* \"#utility.yul\":917:941   */\n      tag_200\n        /* \"#utility.yul\":935:940   */\n      dup2\n        /* \"#utility.yul\":917:941   */\n      tag_140\n      jump\t// in\n    tag_200:\n        /* \"#utility.yul\":910:915   */\n      dup2\n        /* \"#utility.yul\":907:942   */\n      eq\n        /* \"#utility.yul\":897:960   */\n      tag_201\n      jumpi\n        /* \"#utility.yul\":956:957   */\n      0x00\n        /* \"#utility.yul\":953:954   */\n      dup1\n        /* \"#utility.yul\":946:958   */\n      revert\n        /* \"#utility.yul\":897:960   */\n    tag_201:\n        /* \"#utility.yul\":844:966   */\n      pop\n      jump\t// out\n        /* \"#utility.yul\":972:1111   */\n    tag_142:\n        /* \"#utility.yul\":1018:1023   */\n      0x00\n        /* \"#utility.yul\":1056:1062   */\n      dup2\n        /* \"#utility.yul\":1043:1063   */\n      calldataload\n        /* \"#utility.yul\":1034:1063   */\n      swap1\n      pop\n        /* \"#utility.yul\":1072:1105   */\n      tag_203\n        /* \"#utility.yul\":1099:1104   */\n      dup2\n        /* \"#utility.yul\":1072:1105   */\n      tag_141\n      jump\t// in\n    tag_203:\n        /* \"#utility.yul\":972:1111   */\n      swap3\n      swap2\n      pop\n      pop\n      jump\t// out\n        /* \"#utility.yul\":1117:1446   */\n    tag_22:\n        /* \"#utility.yul\":1176:1182   */\n      0x00\n        /* \"#utility.yul\":1225:1227   */\n      0x20\n        /* \"#utility.yul\":1213:1222   */\n      dup3\n        /* \"#utility.yul\":1204:1211   */\n      dup5\n        /* \"#utility.yul\":1200:1223   */\n      sub\n        /* \"#utility.yul\":1196:1228   */\n      slt\n        /* \"#utility.yul\":1193:1312   */\n      iszero\n      tag_205\n      jumpi\n        /* \"#utility.yul\":1231:1310   */\n      tag_206\n      tag_138\n      jump\t// in\n    tag_206:\n        /* \"#utility.yul\":1193:1312   */\n    tag_205:\n        /* \"#utility.yul\":1351:1352   */\n      0x00\n        /* \"#utility.yul\":1376:1429   */\n      tag_207\n        /* \"#utility.yul\":1421:1428   */\n      dup5\n        /* \"#utility.yul\":1412:1418   */\n      dup3\n        /* \"#utility.yul\":1401:1410   */\n      dup6\n        /* \"#utility.yul\":1397:1419   */\n      add\n        /* \"#utility.yul\":1376:1429   */\n      tag_142\n      jump\t// in\n    tag_207:\n        /* \"#utility.yul\":1366:1429   */\n      swap2\n      pop\n        /* \"#utility.yul\":1322:1439   */\n      pop\n        /* \"#utility.yul\":1117:1446   */\n      swap3\n      swap2\n      pop\n      pop\n      jump\t// out\n        /* \"#utility.yul\":1452:1551   */\n    tag_143:\n        /* \"#utility.yul\":1504:1510   */\n      0x00\n        /* \"#utility.yul\":1538:1543   */\n      dup2\n        /* \"#utility.yul\":1532:1544   */\n      mload\n        /* \"#utility.yul\":1522:1544   */\n      swap1\n      pop\n        /* \"#utility.yul\":1452:1551   */\n      swap2\n      swap1\n      pop\n      jump\t// out\n        /* \"#utility.yul\":1557:1716   */\n    tag_144:\n        /* \"#utility.yul\":1631:1642   */\n      0x00\n        /* \"#utility.yul\":1665:1671   */\n      dup3\n        /* \"#utility.yul\":1660:1663   */\n      dup3\n        /* \"#utility.yul\":1653:1672   */\n      mstore\n        /* \"#utility.yul\":1705:1709   */\n      0x20\n        /* \"#utility.yul\":1700:1703   */\n      dup3\n        /* \"#utility.yul\":1696:1710   */\n      add\n        /* \"#utility.yul\":1681:1710   */\n      swap1\n      pop\n        /* \"#utility.yul\":1557:1716   */\n      swap3\n      swap2\n      pop\n      pop\n      jump\t// out\n        /* \"#utility.yul\":1722:1968   */\n    tag_145:\n        /* \"#utility.yul\":1803:1804   */\n      0x00\n        /* \"#utility.yul\":1813:1926   */\n    tag_211:\n        /* \"#utility.yul\":1827:1833   */\n      dup4\n        /* \"#utility.yul\":1824:1825   */\n      dup2\n        /* \"#utility.yul\":1821:1834   */\n      lt\n        /* \"#utility.yul\":1813:1926   */\n      iszero\n      tag_213\n      jumpi\n        /* \"#utility.yul\":1912:1913   */\n      dup1\n        /* \"#utility.yul\":1907:1910   */\n      dup3\n        /* \"#utility.yul\":1903:1914   */\n      add\n        /* \"#utility.yul\":1897:1915   */\n      mload\n        /* \"#utility.yul\":1893:1894   */\n      dup2\n        /* \"#utility.yul\":1888:1891   */\n      dup5\n        /* \"#utility.yul\":1884:1895   */\n      add\n        /* \"#utility.yul\":1877:1916   */\n      mstore\n        /* \"#utility.yul\":1849:1851   */\n      0x20\n        /* \"#utility.yul\":1846:1847   */\n      dup2\n        /* \"#utility.yul\":1842:1852   */\n      add\n        /* \"#utility.yul\":1837:1852   */\n      swap1\n      pop\n        /* \"#utility.yul\":1813:1926   */\n      jump(tag_211)\n    tag_213:\n        /* \"#utility.yul\":1960:1961   */\n      0x00\n        /* \"#utility.yul\":1951:1957   */\n      dup5\n        /* \"#utility.yul\":1946:1949   */\n      dup5\n        /* \"#utility.yul\":1942:1958   */\n      add\n        /* \"#utility.yul\":1935:1962   */\n      mstore\n        /* \"#utility.yul\":1784:1968   */\n      pop\n        /* \"#utility.yul\":1722:1968   */\n      pop\n      pop\n      pop\n      jump\t// out\n        /* \"#utility.yul\":1974:2076   */\n    tag_146:\n        /* \"#utility.yul\":2015:2021   */\n      0x00\n        /* \"#utility.yul\":2066:2068   */\n      0x1f\n        /* \"#utility.yul\":2062:2069   */\n      not\n        /* \"#utility.yul\":2057:2059   */\n      0x1f\n        /* \"#utility.yul\":2050:2055   */\n      dup4\n        /* \"#utility.yul\":2046:2060   */\n      add\n        /* \"#utility.yul\":2042:2070   */\n      and\n        /* \"#utility.yul\":2032:2070   */\n      swap1\n      pop\n        /* \"#utility.yul\":1974:2076   */\n      swap2\n      swap1\n      pop\n      jump\t// out\n        /* \"#utility.yul\":2082:2439   */\n    tag_147:\n        /* \"#utility.yul\":2160:2163   */\n      0x00\n        /* \"#utility.yul\":2188:2227   */\n      tag_216\n        /* \"#utility.yul\":2221:2226   */\n      dup3\n        /* \"#utility.yul\":2188:2227   */\n      tag_143\n      jump\t// in\n    tag_216:\n        /* \"#utility.yul\":2243:2304   */\n      tag_217\n        /* \"#utility.yul\":2297:2303   */\n      dup2\n        /* \"#utility.yul\":2292:2295   */\n      dup6\n        /* \"#utility.yul\":2243:2304   */\n      tag_144\n      jump\t// in\n    tag_217:\n        /* \"#utility.yul\":2236:2304   */\n      swap4\n      pop\n        /* \"#utility.yul\":2313:2378   */\n      tag_218\n        /* \"#utility.yul\":2371:2377   */\n      dup2\n        /* \"#utility.yul\":2366:2369   */\n      dup6\n        /* \"#utility.yul\":2359:2363   */\n      0x20\n        /* \"#utility.yul\":2352:2357   */\n      dup7\n        /* \"#utility.yul\":2348:2364   */\n      add\n        /* \"#utility.yul\":2313:2378   */\n      tag_145\n      jump\t// in\n    tag_218:\n        /* \"#utility.yul\":2403:2432   */\n      tag_219\n        /* \"#utility.yul\":2425:2431   */\n      dup2\n        /* \"#utility.yul\":2403:2432   */\n      tag_146\n      jump\t// in\n    tag_219:\n        /* \"#utility.yul\":2398:2401   */\n      dup5\n        /* \"#utility.yul\":2394:2433   */\n      add\n        /* \"#utility.yul\":2387:2433   */\n      swap2\n      pop\n        /* \"#utility.yul\":2164:2439   */\n      pop\n        /* \"#utility.yul\":2082:2439   */\n      swap3\n      swap2\n      pop\n      pop\n      jump\t// out\n        /* \"#utility.yul\":2445:2571   */\n    tag_148:\n        /* \"#utility.yul\":2482:2489   */\n      0x00\n        /* \"#utility.yul\":2522:2564   */\n      0xffffffffffffffffffffffffffffffffffffffff\n        /* \"#utility.yul\":2515:2520   */\n      dup3\n        /* \"#utility.yul\":2511:2565   */\n      and\n        /* \"#utility.yul\":2500:2565   */\n      swap1\n      pop\n        /* \"#utility.yul\":2445:2571   */\n      swap2\n      swap1\n      pop\n      jump\t// out\n        /* \"#utility.yul\":2577:2673   */\n    tag_149:\n        /* \"#utility.yul\":2614:2621   */\n      0x00\n        /* \"#utility.yul\":2643:2667   */\n      tag_222\n        /* \"#utility.yul\":2661:2666   */\n      dup3\n        /* \"#utility.yul\":2643:2667   */\n      tag_148\n      jump\t// in\n    tag_222:\n        /* \"#utility.yul\":2632:2667   */\n      swap1\n      pop\n        /* \"#utility.yul\":2577:2673   */\n      swap2\n      swap1\n      pop\n      jump\t// out\n        /* \"#utility.yul\":2679:2787   */\n    tag_150:\n        /* \"#utility.yul\":2756:2780   */\n      tag_224\n        /* \"#utility.yul\":2774:2779   */\n      dup2\n        /* \"#utility.yul\":2756:2780   */\n      tag_149\n      jump\t// in\n    tag_224:\n        /* \"#utility.yul\":2751:2754   */\n      dup3\n        /* \"#utility.yul\":2744:2781   */\n      mstore\n        /* \"#utility.yul\":2679:2787   */\n      pop\n      pop\n      jump\t// out\n        /* \"#utility.yul\":2793:2901   */\n    tag_151:\n        /* \"#utility.yul\":2870:2894   */\n      tag_226\n        /* \"#utility.yul\":2888:2893   */\n      dup2\n        /* \"#utility.yul\":2870:2894   */\n      tag_140\n      jump\t// in\n    tag_226:\n        /* \"#utility.yul\":2865:2868   */\n      dup3\n        /* \"#utility.yul\":2858:2895   */\n      mstore\n        /* \"#utility.yul\":2793:2901   */\n      pop\n      pop\n      jump\t// out\n        /* \"#utility.yul\":2965:4004   */\n    tag_152:\n        /* \"#utility.yul\":3082:3085   */\n      0x00\n        /* \"#utility.yul\":3118:3122   */\n      0x80\n        /* \"#utility.yul\":3113:3116   */\n      dup4\n        /* \"#utility.yul\":3109:3123   */\n      add\n        /* \"#utility.yul\":3205:3209   */\n      0x00\n        /* \"#utility.yul\":3198:3203   */\n      dup4\n        /* \"#utility.yul\":3194:3210   */\n      add\n        /* \"#utility.yul\":3188:3211   */\n      mload\n        /* \"#utility.yul\":3258:3261   */\n      dup5\n        /* \"#utility.yul\":3252:3256   */\n      dup3\n        /* \"#utility.yul\":3248:3262   */\n      sub\n        /* \"#utility.yul\":3241:3245   */\n      0x00\n        /* \"#utility.yul\":3236:3239   */\n      dup7\n        /* \"#utility.yul\":3232:3246   */\n      add\n        /* \"#utility.yul\":3225:3263   */\n      mstore\n        /* \"#utility.yul\":3284:3357   */\n      tag_228\n        /* \"#utility.yul\":3352:3356   */\n      dup3\n        /* \"#utility.yul\":3338:3350   */\n      dup3\n        /* \"#utility.yul\":3284:3357   */\n      tag_147\n      jump\t// in\n    tag_228:\n        /* \"#utility.yul\":3276:3357   */\n      swap2\n      pop\n        /* \"#utility.yul\":3133:3368   */\n      pop\n        /* \"#utility.yul\":3457:3461   */\n      0x20\n        /* \"#utility.yul\":3450:3455   */\n      dup4\n        /* \"#utility.yul\":3446:3462   */\n      add\n        /* \"#utility.yul\":3440:3463   */\n      mload\n        /* \"#utility.yul\":3510:3513   */\n      dup5\n        /* \"#utility.yul\":3504:3508   */\n      dup3\n        /* \"#utility.yul\":3500:3514   */\n      sub\n        /* \"#utility.yul\":3493:3497   */\n      0x20\n        /* \"#utility.yul\":3488:3491   */\n      dup7\n        /* \"#utility.yul\":3484:3498   */\n      add\n        /* \"#utility.yul\":3477:3515   */\n      mstore\n        /* \"#utility.yul\":3536:3609   */\n      tag_229\n        /* \"#utility.yul\":3604:3608   */\n      dup3\n        /* \"#utility.yul\":3590:3602   */\n      dup3\n        /* \"#utility.yul\":3536:3609   */\n      tag_147\n      jump\t// in\n    tag_229:\n        /* \"#utility.yul\":3528:3609   */\n      swap2\n      pop\n        /* \"#utility.yul\":3378:3620   */\n      pop\n        /* \"#utility.yul\":3703:3707   */\n      0x40\n        /* \"#utility.yul\":3696:3701   */\n      dup4\n        /* \"#utility.yul\":3692:3708   */\n      add\n        /* \"#utility.yul\":3686:3709   */\n      mload\n        /* \"#utility.yul\":3722:3785   */\n      tag_230\n        /* \"#utility.yul\":3779:3783   */\n      0x40\n        /* \"#utility.yul\":3774:3777   */\n      dup7\n        /* \"#utility.yul\":3770:3784   */\n      add\n        /* \"#utility.yul\":3756:3768   */\n      dup3\n        /* \"#utility.yul\":3722:3785   */\n      tag_150\n      jump\t// in\n    tag_230:\n        /* \"#utility.yul\":3630:3795   */\n      pop\n        /* \"#utility.yul\":3885:3889   */\n      0x60\n        /* \"#utility.yul\":3878:3883   */\n      dup4\n        /* \"#utility.yul\":3874:3890   */\n      add\n        /* \"#utility.yul\":3868:3891   */\n      mload\n        /* \"#utility.yul\":3904:3967   */\n      tag_231\n        /* \"#utility.yul\":3961:3965   */\n      0x60\n        /* \"#utility.yul\":3956:3959   */\n      dup7\n        /* \"#utility.yul\":3952:3966   */\n      add\n        /* \"#utility.yul\":3938:3950   */\n      dup3\n        /* \"#utility.yul\":3904:3967   */\n      tag_151\n      jump\t// in\n    tag_231:\n        /* \"#utility.yul\":3805:3977   */\n      pop\n        /* \"#utility.yul\":3994:3998   */\n      dup1\n        /* \"#utility.yul\":3987:3998   */\n      swap2\n      pop\n        /* \"#utility.yul\":3087:4004   */\n      pop\n        /* \"#utility.yul\":2965:4004   */\n      swap3\n      swap2\n      pop\n      pop\n      jump\t// out\n        /* \"#utility.yul\":4010:4379   */\n    tag_25:\n        /* \"#utility.yul\":4151:4155   */\n      0x00\n        /* \"#utility.yul\":4189:4191   */\n      0x20\n        /* \"#utility.yul\":4178:4187   */\n      dup3\n        /* \"#utility.yul\":4174:4192   */\n      add\n        /* \"#utility.yul\":4166:4192   */\n      swap1\n      pop\n        /* \"#utility.yul\":4238:4247   */\n      dup2\n        /* \"#utility.yul\":4232:4236   */\n      dup2\n        /* \"#utility.yul\":4228:4248   */\n      sub\n        /* \"#utility.yul\":4224:4225   */\n      0x00\n        /* \"#utility.yul\":4213:4222   */\n      dup4\n        /* \"#utility.yul\":4209:4226   */\n      add\n        /* \"#utility.yul\":4202:4249   */\n      mstore\n        /* \"#utility.yul\":4266:4372   */\n      tag_233\n        /* \"#utility.yul\":4367:4371   */\n      dup2\n        /* \"#utility.yul\":4358:4364   */\n      dup5\n        /* \"#utility.yul\":4266:4372   */\n      tag_152\n      jump\t// in\n    tag_233:\n        /* \"#utility.yul\":4258:4372   */\n      swap1\n      pop\n        /* \"#utility.yul\":4010:4379   */\n      swap3\n      swap2\n      pop\n      pop\n      jump\t// out\n        /* \"#utility.yul\":4385:4503   */\n    tag_153:\n        /* \"#utility.yul\":4472:4496   */\n      tag_235\n        /* \"#utility.yul\":4490:4495   */\n      dup2\n        /* \"#utility.yul\":4472:4496   */\n      tag_140\n      jump\t// in\n    tag_235:\n        /* \"#utility.yul\":4467:4470   */\n      dup3\n        /* \"#utility.yul\":4460:4497   */\n      mstore\n        /* \"#utility.yul\":4385:4503   */\n      pop\n      pop\n      jump\t// out\n        /* \"#utility.yul\":4509:4731   */\n    tag_33:\n        /* \"#utility.yul\":4602:4606   */\n      0x00\n        /* \"#utility.yul\":4640:4642   */\n      0x20\n        /* \"#utility.yul\":4629:4638   */\n      dup3\n        /* \"#utility.yul\":4625:4643   */\n      add\n        /* \"#utility.yul\":4617:4643   */\n      swap1\n      pop\n        /* \"#utility.yul\":4653:4724   */\n      tag_237\n        /* \"#utility.yul\":4721:4722   */\n      0x00\n        /* \"#utility.yul\":4710:4719   */\n      dup4\n        /* \"#utility.yul\":4706:4723   */\n      add\n        /* \"#utility.yul\":4697:4703   */\n      dup5\n        /* \"#utility.yul\":4653:4724   */\n      tag_153\n      jump\t// in\n    tag_237:\n        /* \"#utility.yul\":4509:4731   */\n      swap3\n      swap2\n      pop\n      pop\n      jump\t// out\n        /* \"#utility.yul\":4737:4854   */\n    tag_154:\n        /* \"#utility.yul\":4846:4847   */\n      0x00\n        /* \"#utility.yul\":4843:4844   */\n      dup1\n        /* \"#utility.yul\":4836:4848   */\n      revert\n        /* \"#utility.yul\":4860:4977   */\n    tag_155:\n        /* \"#utility.yul\":4969:4970   */\n      0x00\n        /* \"#utility.yul\":4966:4967   */\n      dup1\n        /* \"#utility.yul\":4959:4971   */\n      revert\n        /* \"#utility.yul\":4983:5163   */\n    tag_156:\n        /* \"#utility.yul\":5031:5108   */\n      0x4e487b7100000000000000000000000000000000000000000000000000000000\n        /* \"#utility.yul\":5028:5029   */\n      0x00\n        /* \"#utility.yul\":5021:5109   */\n      mstore\n        /* \"#utility.yul\":5128:5132   */\n      0x41\n        /* \"#utility.yul\":5125:5126   */\n      0x04\n        /* \"#utility.yul\":5118:5133   */\n      mstore\n        /* \"#utility.yul\":5152:5156   */\n      0x24\n        /* \"#utility.yul\":5149:5150   */\n      0x00\n        /* \"#utility.yul\":5142:5157   */\n      revert\n        /* \"#utility.yul\":5169:5450   */\n    tag_157:\n        /* \"#utility.yul\":5252:5279   */\n      tag_242\n        /* \"#utility.yul\":5274:5278   */\n      dup3\n        /* \"#utility.yul\":5252:5279   */\n      tag_146\n      jump\t// in\n    tag_242:\n        /* \"#utility.yul\":5244:5250   */\n      dup2\n        /* \"#utility.yul\":5240:5280   */\n      add\n        /* \"#utility.yul\":5382:5388   */\n      dup2\n        /* \"#utility.yul\":5370:5380   */\n      dup2\n        /* \"#utility.yul\":5367:5389   */\n      lt\n        /* \"#utility.yul\":5346:5364   */\n      0xffffffffffffffff\n        /* \"#utility.yul\":5334:5344   */\n      dup3\n        /* \"#utility.yul\":5331:5365   */\n      gt\n        /* \"#utility.yul\":5328:5390   */\n      or\n        /* \"#utility.yul\":5325:5413   */\n      iszero\n      tag_243\n      jumpi\n        /* \"#utility.yul\":5393:5411   */\n      tag_244\n      tag_156\n      jump\t// in\n    tag_244:\n        /* \"#utility.yul\":5325:5413   */\n    tag_243:\n        /* \"#utility.yul\":5433:5443   */\n      dup1\n        /* \"#utility.yul\":5429:5431   */\n      0x40\n        /* \"#utility.yul\":5422:5444   */\n      mstore\n        /* \"#utility.yul\":5212:5450   */\n      pop\n        /* \"#utility.yul\":5169:5450   */\n      pop\n      pop\n      jump\t// out\n        /* \"#utility.yul\":5456:5585   */\n    tag_158:\n        /* \"#utility.yul\":5490:5496   */\n      0x00\n        /* \"#utility.yul\":5517:5537   */\n      tag_246\n      tag_137\n      jump\t// in\n    tag_246:\n        /* \"#utility.yul\":5507:5537   */\n      swap1\n      pop\n        /* \"#utility.yul\":5546:5579   */\n      tag_247\n        /* \"#utility.yul\":5574:5578   */\n      dup3\n        /* \"#utility.yul\":5566:5572   */\n      dup3\n        /* \"#utility.yul\":5546:5579   */\n      tag_157\n      jump\t// in\n    tag_247:\n        /* \"#utility.yul\":5456:5585   */\n      swap2\n      swap1\n      pop\n      jump\t// out\n        /* \"#utility.yul\":5591:5899   */\n    tag_159:\n        /* \"#utility.yul\":5653:5657   */\n      0x00\n        /* \"#utility.yul\":5743:5761   */\n      0xffffffffffffffff\n        /* \"#utility.yul\":5735:5741   */\n      dup3\n        /* \"#utility.yul\":5732:5762   */\n      gt\n        /* \"#utility.yul\":5729:5785   */\n      iszero\n      tag_249\n      jumpi\n        /* \"#utility.yul\":5765:5783   */\n      tag_250\n      tag_156\n      jump\t// in\n    tag_250:\n        /* \"#utility.yul\":5729:5785   */\n    tag_249:\n        /* \"#utility.yul\":5803:5832   */\n      tag_251\n        /* \"#utility.yul\":5825:5831   */\n      dup3\n        /* \"#utility.yul\":5803:5832   */\n      tag_146\n      jump\t// in\n    tag_251:\n        /* \"#utility.yul\":5795:5832   */\n      swap1\n      pop\n        /* \"#utility.yul\":5887:5891   */\n      0x20\n        /* \"#utility.yul\":5881:5885   */\n      dup2\n        /* \"#utility.yul\":5877:5892   */\n      add\n        /* \"#utility.yul\":5869:5892   */\n      swap1\n      pop\n        /* \"#utility.yul\":5591:5899   */\n      swap2\n      swap1\n      pop\n      jump\t// out\n        /* \"#utility.yul\":5905:6051   */\n    tag_160:\n        /* \"#utility.yul\":6002:6008   */\n      dup3\n        /* \"#utility.yul\":5997:6000   */\n      dup2\n        /* \"#utility.yul\":5992:5995   */\n      dup4\n        /* \"#utility.yul\":5979:6009   */\n      calldatacopy\n        /* \"#utility.yul\":6043:6044   */\n      0x00\n        /* \"#utility.yul\":6034:6040   */\n      dup4\n        /* \"#utility.yul\":6029:6032   */\n      dup4\n        /* \"#utility.yul\":6025:6041   */\n      add\n        /* \"#utility.yul\":6018:6045   */\n      mstore\n        /* \"#utility.yul\":5905:6051   */\n      pop\n      pop\n      pop\n      jump\t// out\n        /* \"#utility.yul\":6057:6482   */\n    tag_161:\n        /* \"#utility.yul\":6135:6140   */\n      0x00\n        /* \"#utility.yul\":6160:6226   */\n      tag_254\n        /* \"#utility.yul\":6176:6225   */\n      tag_255\n        /* \"#utility.yul\":6218:6224   */\n      dup5\n        /* \"#utility.yul\":6176:6225   */\n      tag_159\n      jump\t// in\n    tag_255:\n        /* \"#utility.yul\":6160:6226   */\n      tag_158\n      jump\t// in\n    tag_254:\n        /* \"#utility.yul\":6151:6226   */\n      swap1\n      pop\n        /* \"#utility.yul\":6249:6255   */\n      dup3\n        /* \"#utility.yul\":6242:6247   */\n      dup2\n        /* \"#utility.yul\":6235:6256   */\n      mstore\n        /* \"#utility.yul\":6287:6291   */\n      0x20\n        /* \"#utility.yul\":6280:6285   */\n      dup2\n        /* \"#utility.yul\":6276:6292   */\n      add\n        /* \"#utility.yul\":6325:6328   */\n      dup5\n        /* \"#utility.yul\":6316:6322   */\n      dup5\n        /* \"#utility.yul\":6311:6314   */\n      dup5\n        /* \"#utility.yul\":6307:6323   */\n      add\n        /* \"#utility.yul\":6304:6329   */\n      gt\n        /* \"#utility.yul\":6301:6413   */\n      iszero\n      tag_256\n      jumpi\n        /* \"#utility.yul\":6332:6411   */\n      tag_257\n      tag_155\n      jump\t// in\n    tag_257:\n        /* \"#utility.yul\":6301:6413   */\n    tag_256:\n        /* \"#utility.yul\":6422:6476   */\n      tag_258\n        /* \"#utility.yul\":6469:6475   */\n      dup5\n        /* \"#utility.yul\":6464:6467   */\n      dup3\n        /* \"#utility.yul\":6459:6462   */\n      dup6\n        /* \"#utility.yul\":6422:6476   */\n      tag_160\n      jump\t// in\n    tag_258:\n        /* \"#utility.yul\":6141:6482   */\n      pop\n        /* \"#utility.yul\":6057:6482   */\n      swap4\n      swap3\n      pop\n      pop\n      pop\n      jump\t// out\n        /* \"#utility.yul\":6502:6842   */\n    tag_162:\n        /* \"#utility.yul\":6558:6563   */\n      0x00\n        /* \"#utility.yul\":6607:6610   */\n      dup3\n        /* \"#utility.yul\":6600:6604   */\n      0x1f\n        /* \"#utility.yul\":6592:6598   */\n      dup4\n        /* \"#utility.yul\":6588:6605   */\n      add\n        /* \"#utility.yul\":6584:6611   */\n      slt\n        /* \"#utility.yul\":6574:6696   */\n      tag_260\n      jumpi\n        /* \"#utility.yul\":6615:6694   */\n      tag_261\n      tag_154\n      jump\t// in\n    tag_261:\n        /* \"#utility.yul\":6574:6696   */\n    tag_260:\n        /* \"#utility.yul\":6732:6738   */\n      dup2\n        /* \"#utility.yul\":6719:6739   */\n      calldataload\n        /* \"#utility.yul\":6757:6836   */\n      tag_262\n        /* \"#utility.yul\":6832:6835   */\n      dup5\n        /* \"#utility.yul\":6824:6830   */\n      dup3\n        /* \"#utility.yul\":6817:6821   */\n      0x20\n        /* \"#utility.yul\":6809:6815   */\n      dup7\n        /* \"#utility.yul\":6805:6822   */\n      add\n        /* \"#utility.yul\":6757:6836   */\n      tag_161\n      jump\t// in\n    tag_262:\n        /* \"#utility.yul\":6748:6836   */\n      swap2\n      pop\n        /* \"#utility.yul\":6564:6842   */\n      pop\n        /* \"#utility.yul\":6502:6842   */\n      swap3\n      swap2\n      pop\n      pop\n      jump\t// out\n        /* \"#utility.yul\":6848:7682   */\n    tag_43:\n        /* \"#utility.yul\":6936:6942   */\n      0x00\n        /* \"#utility.yul\":6944:6950   */\n      dup1\n        /* \"#utility.yul\":6993:6995   */\n      0x40\n        /* \"#utility.yul\":6981:6990   */\n      dup4\n        /* \"#utility.yul\":6972:6979   */\n      dup6\n        /* \"#utility.yul\":6968:6991   */\n      sub\n        /* \"#utility.yul\":6964:6996   */\n      slt\n        /* \"#utility.yul\":6961:7080   */\n      iszero\n      tag_264\n      jumpi\n        /* \"#utility.yul\":6999:7078   */\n      tag_265\n      tag_138\n      jump\t// in\n    tag_265:\n        /* \"#utility.yul\":6961:7080   */\n    tag_264:\n        /* \"#utility.yul\":7147:7148   */\n      0x00\n        /* \"#utility.yul\":7136:7145   */\n      dup4\n        /* \"#utility.yul\":7132:7149   */\n      add\n        /* \"#utility.yul\":7119:7150   */\n      calldataload\n        /* \"#utility.yul\":7177:7195   */\n      0xffffffffffffffff\n        /* \"#utility.yul\":7169:7175   */\n      dup2\n        /* \"#utility.yul\":7166:7196   */\n      gt\n        /* \"#utility.yul\":7163:7280   */\n      iszero\n      tag_266\n      jumpi\n        /* \"#utility.yul\":7199:7278   */\n      tag_267\n      tag_139\n      jump\t// in\n    tag_267:\n        /* \"#utility.yul\":7163:7280   */\n    tag_266:\n        /* \"#utility.yul\":7304:7367   */\n      tag_268\n        /* \"#utility.yul\":7359:7366   */\n      dup6\n        /* \"#utility.yul\":7350:7356   */\n      dup3\n        /* \"#utility.yul\":7339:7348   */\n      dup7\n        /* \"#utility.yul\":7335:7357   */\n      add\n        /* \"#utility.yul\":7304:7367   */\n      tag_162\n      jump\t// in\n    tag_268:\n        /* \"#utility.yul\":7294:7367   */\n      swap3\n      pop\n        /* \"#utility.yul\":7090:7377   */\n      pop\n        /* \"#utility.yul\":7444:7446   */\n      0x20\n        /* \"#utility.yul\":7433:7442   */\n      dup4\n        /* \"#utility.yul\":7429:7447   */\n      add\n        /* \"#utility.yul\":7416:7448   */\n      calldataload\n        /* \"#utility.yul\":7475:7493   */\n      0xffffffffffffffff\n        /* \"#utility.yul\":7467:7473   */\n      dup2\n        /* \"#utility.yul\":7464:7494   */\n      gt\n        /* \"#utility.yul\":7461:7578   */\n      iszero\n      tag_269\n      jumpi\n        /* \"#utility.yul\":7497:7576   */\n      tag_270\n      tag_139\n      jump\t// in\n    tag_270:\n        /* \"#utility.yul\":7461:7578   */\n    tag_269:\n        /* \"#utility.yul\":7602:7665   */\n      tag_271\n        /* \"#utility.yul\":7657:7664   */\n      dup6\n        /* \"#utility.yul\":7648:7654   */\n      dup3\n        /* \"#utility.yul\":7637:7646   */\n      dup7\n        /* \"#utility.yul\":7633:7655   */\n      add\n        /* \"#utility.yul\":7602:7665   */\n      tag_162\n      jump\t// in\n    tag_271:\n        /* \"#utility.yul\":7592:7665   */\n      swap2\n      pop\n        /* \"#utility.yul\":7387:7675   */\n      pop\n        /* \"#utility.yul\":6848:7682   */\n      swap3\n      pop\n      swap3\n      swap1\n      pop\n      jump\t// out\n        /* \"#utility.yul\":7688:7806   */\n    tag_163:\n        /* \"#utility.yul\":7775:7799   */\n      tag_273\n        /* \"#utility.yul\":7793:7798   */\n      dup2\n        /* \"#utility.yul\":7775:7799   */\n      tag_149\n      jump\t// in\n    tag_273:\n        /* \"#utility.yul\":7770:7773   */\n      dup3\n        /* \"#utility.yul\":7763:7800   */\n      mstore\n        /* \"#utility.yul\":7688:7806   */\n      pop\n      pop\n      jump\t// out\n        /* \"#utility.yul\":7812:8034   */\n    tag_53:\n        /* \"#utility.yul\":7905:7909   */\n      0x00\n        /* \"#utility.yul\":7943:7945   */\n      0x20\n        /* \"#utility.yul\":7932:7941   */\n      dup3\n        /* \"#utility.yul\":7928:7946   */\n      add\n        /* \"#utility.yul\":7920:7946   */\n      swap1\n      pop\n        /* \"#utility.yul\":7956:8027   */\n      tag_275\n        /* \"#utility.yul\":8024:8025   */\n      0x00\n        /* \"#utility.yul\":8013:8022   */\n      dup4\n        /* \"#utility.yul\":8009:8026   */\n      add\n        /* \"#utility.yul\":8000:8006   */\n      dup5\n        /* \"#utility.yul\":7956:8027   */\n      tag_163\n      jump\t// in\n    tag_275:\n        /* \"#utility.yul\":7812:8034   */\n      swap3\n      swap2\n      pop\n      pop\n      jump\t// out\n        /* \"#utility.yul\":8040:8209   */\n    tag_164:\n        /* \"#utility.yul\":8124:8135   */\n      0x00\n        /* \"#utility.yul\":8158:8164   */\n      dup3\n        /* \"#utility.yul\":8153:8156   */\n      dup3\n        /* \"#utility.yul\":8146:8165   */\n      mstore\n        /* \"#utility.yul\":8198:8202   */\n      0x20\n        /* \"#utility.yul\":8193:8196   */\n      dup3\n        /* \"#utility.yul\":8189:8203   */\n      add\n        /* \"#utility.yul\":8174:8203   */\n      swap1\n      pop\n        /* \"#utility.yul\":8040:8209   */\n      swap3\n      swap2\n      pop\n      pop\n      jump\t// out\n        /* \"#utility.yul\":8215:8592   */\n    tag_165:\n        /* \"#utility.yul\":8303:8306   */\n      0x00\n        /* \"#utility.yul\":8331:8370   */\n      tag_278\n        /* \"#utility.yul\":8364:8369   */\n      dup3\n        /* \"#utility.yul\":8331:8370   */\n      tag_143\n      jump\t// in\n    tag_278:\n        /* \"#utility.yul\":8386:8457   */\n      tag_279\n        /* \"#utility.yul\":8450:8456   */\n      dup2\n        /* \"#utility.yul\":8445:8448   */\n      dup6\n        /* \"#utility.yul\":8386:8457   */\n      tag_164\n      jump\t// in\n    tag_279:\n        /* \"#utility.yul\":8379:8457   */\n      swap4\n      pop\n        /* \"#utility.yul\":8466:8531   */\n      tag_280\n        /* \"#utility.yul\":8524:8530   */\n      dup2\n        /* \"#utility.yul\":8519:8522   */\n      dup6\n        /* \"#utility.yul\":8512:8516   */\n      0x20\n        /* \"#utility.yul\":8505:8510   */\n      dup7\n        /* \"#utility.yul\":8501:8517   */\n      add\n        /* \"#utility.yul\":8466:8531   */\n      tag_145\n      jump\t// in\n    tag_280:\n        /* \"#utility.yul\":8556:8585   */\n      tag_281\n        /* \"#utility.yul\":8578:8584   */\n      dup2\n        /* \"#utility.yul\":8556:8585   */\n      tag_146\n      jump\t// in\n    tag_281:\n        /* \"#utility.yul\":8551:8554   */\n      dup5\n        /* \"#utility.yul\":8547:8586   */\n      add\n        /* \"#utility.yul\":8540:8586   */\n      swap2\n      pop\n        /* \"#utility.yul\":8307:8592   */\n      pop\n        /* \"#utility.yul\":8215:8592   */\n      swap3\n      swap2\n      pop\n      pop\n      jump\t// out\n        /* \"#utility.yul\":8598:9333   */\n    tag_59:\n        /* \"#utility.yul\":8815:8819   */\n      0x00\n        /* \"#utility.yul\":8853:8856   */\n      0x80\n        /* \"#utility.yul\":8842:8851   */\n      dup3\n        /* \"#utility.yul\":8838:8857   */\n      add\n        /* \"#utility.yul\":8830:8857   */\n      swap1\n      pop\n        /* \"#utility.yul\":8903:8912   */\n      dup2\n        /* \"#utility.yul\":8897:8901   */\n      dup2\n        /* \"#utility.yul\":8893:8913   */\n      sub\n        /* \"#utility.yul\":8889:8890   */\n      0x00\n        /* \"#utility.yul\":8878:8887   */\n      dup4\n        /* \"#utility.yul\":8874:8891   */\n      add\n        /* \"#utility.yul\":8867:8914   */\n      mstore\n        /* \"#utility.yul\":8931:9009   */\n      tag_283\n        /* \"#utility.yul\":9004:9008   */\n      dup2\n        /* \"#utility.yul\":8995:9001   */\n      dup8\n        /* \"#utility.yul\":8931:9009   */\n      tag_165\n      jump\t// in\n    tag_283:\n        /* \"#utility.yul\":8923:9009   */\n      swap1\n      pop\n        /* \"#utility.yul\":9056:9065   */\n      dup2\n        /* \"#utility.yul\":9050:9054   */\n      dup2\n        /* \"#utility.yul\":9046:9066   */\n      sub\n        /* \"#utility.yul\":9041:9043   */\n      0x20\n        /* \"#utility.yul\":9030:9039   */\n      dup4\n        /* \"#utility.yul\":9026:9044   */\n      add\n        /* \"#utility.yul\":9019:9067   */\n      mstore\n        /* \"#utility.yul\":9084:9162   */\n      tag_284\n        /* \"#utility.yul\":9157:9161   */\n      dup2\n        /* \"#utility.yul\":9148:9154   */\n      dup7\n        /* \"#utility.yul\":9084:9162   */\n      tag_165\n      jump\t// in\n    tag_284:\n        /* \"#utility.yul\":9076:9162   */\n      swap1\n      pop\n        /* \"#utility.yul\":9172:9244   */\n      tag_285\n        /* \"#utility.yul\":9240:9242   */\n      0x40\n        /* \"#utility.yul\":9229:9238   */\n      dup4\n        /* \"#utility.yul\":9225:9243   */\n      add\n        /* \"#utility.yul\":9216:9222   */\n      dup6\n        /* \"#utility.yul\":9172:9244   */\n      tag_163\n      jump\t// in\n    tag_285:\n        /* \"#utility.yul\":9254:9326   */\n      tag_286\n        /* \"#utility.yul\":9322:9324   */\n      0x60\n        /* \"#utility.yul\":9311:9320   */\n      dup4\n        /* \"#utility.yul\":9307:9325   */\n      add\n        /* \"#utility.yul\":9298:9304   */\n      dup5\n        /* \"#utility.yul\":9254:9326   */\n      tag_153\n      jump\t// in\n    tag_286:\n        /* \"#utility.yul\":8598:9333   */\n      swap6\n      swap5\n      pop\n      pop\n      pop\n      pop\n      pop\n      jump\t// out\n        /* \"#utility.yul\":9339:9519   */\n    tag_166:\n        /* \"#utility.yul\":9387:9464   */\n      0x4e487b7100000000000000000000000000000000000000000000000000000000\n        /* \"#utility.yul\":9384:9385   */\n      0x00\n        /* \"#utility.yul\":9377:9465   */\n      mstore\n        /* \"#utility.yul\":9484:9488   */\n      0x22\n        /* \"#utility.yul\":9481:9482   */\n      0x04\n        /* \"#utility.yul\":9474:9489   */\n      mstore\n        /* \"#utility.yul\":9508:9512   */\n      0x24\n        /* \"#utility.yul\":9505:9506   */\n      0x00\n        /* \"#utility.yul\":9498:9513   */\n      revert\n        /* \"#utility.yul\":9525:9845   */\n    tag_67:\n        /* \"#utility.yul\":9569:9575   */\n      0x00\n        /* \"#utility.yul\":9606:9607   */\n      0x02\n        /* \"#utility.yul\":9600:9604   */\n      dup3\n        /* \"#utility.yul\":9596:9608   */\n      div\n        /* \"#utility.yul\":9586:9608   */\n      swap1\n      pop\n        /* \"#utility.yul\":9653:9654   */\n      0x01\n        /* \"#utility.yul\":9647:9651   */\n      dup3\n        /* \"#utility.yul\":9643:9655   */\n      and\n        /* \"#utility.yul\":9674:9692   */\n      dup1\n        /* \"#utility.yul\":9664:9745   */\n      tag_289\n      jumpi\n        /* \"#utility.yul\":9730:9734   */\n      0x7f\n        /* \"#utility.yul\":9722:9728   */\n      dup3\n        /* \"#utility.yul\":9718:9735   */\n      and\n        /* \"#utility.yul\":9708:9735   */\n      swap2\n      pop\n        /* \"#utility.yul\":9664:9745   */\n    tag_289:\n        /* \"#utility.yul\":9792:9794   */\n      0x20\n        /* \"#utility.yul\":9784:9790   */\n      dup3\n        /* \"#utility.yul\":9781:9795   */\n      lt\n        /* \"#utility.yul\":9761:9779   */\n      dup2\n        /* \"#utility.yul\":9758:9796   */\n      sub\n        /* \"#utility.yul\":9755:9839   */\n      tag_290\n      jumpi\n        /* \"#utility.yul\":9811:9829   */\n      tag_291\n      tag_166\n      jump\t// in\n    tag_291:\n        /* \"#utility.yul\":9755:9839   */\n    tag_290:\n        /* \"#utility.yul\":9576:9845   */\n      pop\n        /* \"#utility.yul\":9525:9845   */\n      swap2\n      swap1\n      pop\n      jump\t// out\n        /* \"#utility.yul\":9851:10031   */\n    tag_83:\n        /* \"#utility.yul\":9899:9976   */\n      0x4e487b7100000000000000000000000000000000000000000000000000000000\n        /* \"#utility.yul\":9896:9897   */\n      0x00\n        /* \"#utility.yul\":9889:9977   */\n      mstore\n        /* \"#utility.yul\":9996:10000   */\n      0x21\n        /* \"#utility.yul\":9993:9994   */\n      0x04\n        /* \"#utility.yul\":9986:10001   */\n      mstore\n        /* \"#utility.yul\":10020:10024   */\n      0x24\n        /* \"#utility.yul\":10017:10018   */\n      0x00\n        /* \"#utility.yul\":10010:10025   */\n      revert\n        /* \"#utility.yul\":10037:10369   */\n    tag_85:\n        /* \"#utility.yul\":10158:10162   */\n      0x00\n        /* \"#utility.yul\":10196:10198   */\n      0x40\n        /* \"#utility.yul\":10185:10194   */\n      dup3\n        /* \"#utility.yul\":10181:10199   */\n      add\n        /* \"#utility.yul\":10173:10199   */\n      swap1\n      pop\n        /* \"#utility.yul\":10209:10280   */\n      tag_294\n        /* \"#utility.yul\":10277:10278   */\n      0x00\n        /* \"#utility.yul\":10266:10275   */\n      dup4\n        /* \"#utility.yul\":10262:10279   */\n      add\n        /* \"#utility.yul\":10253:10259   */\n      dup6\n        /* \"#utility.yul\":10209:10280   */\n      tag_163\n      jump\t// in\n    tag_294:\n        /* \"#utility.yul\":10290:10362   */\n      tag_295\n        /* \"#utility.yul\":10358:10360   */\n      0x20\n        /* \"#utility.yul\":10347:10356   */\n      dup4\n        /* \"#utility.yul\":10343:10361   */\n      add\n        /* \"#utility.yul\":10334:10340   */\n      dup5\n        /* \"#utility.yul\":10290:10362   */\n      tag_153\n      jump\t// in\n    tag_295:\n        /* \"#utility.yul\":10037:10369   */\n      swap4\n      swap3\n      pop\n      pop\n      pop\n      jump\t// out\n        /* \"#utility.yul\":10375:10546   */\n    tag_167:\n        /* \"#utility.yul\":10515:10538   */\n      0x752063616e277420726566756e6420616d6f756e740000000000000000000000\n        /* \"#utility.yul\":10511:10512   */\n      0x00\n        /* \"#utility.yul\":10503:10509   */\n      dup3\n        /* \"#utility.yul\":10499:10513   */\n      add\n        /* \"#utility.yul\":10492:10539   */\n      mstore\n        /* \"#utility.yul\":10375:10546   */\n      pop\n      jump\t// out\n        /* \"#utility.yul\":10552:10918   */\n    tag_168:\n        /* \"#utility.yul\":10694:10697   */\n      0x00\n        /* \"#utility.yul\":10715:10782   */\n      tag_298\n        /* \"#utility.yul\":10779:10781   */\n      0x15\n        /* \"#utility.yul\":10774:10777   */\n      dup4\n        /* \"#utility.yul\":10715:10782   */\n      tag_164\n      jump\t// in\n    tag_298:\n        /* \"#utility.yul\":10708:10782   */\n      swap2\n      pop\n        /* \"#utility.yul\":10791:10884   */\n      tag_299\n        /* \"#utility.yul\":10880:10883   */\n      dup3\n        /* \"#utility.yul\":10791:10884   */\n      tag_167\n      jump\t// in\n    tag_299:\n        /* \"#utility.yul\":10909:10911   */\n      0x20\n        /* \"#utility.yul\":10904:10907   */\n      dup3\n        /* \"#utility.yul\":10900:10912   */\n      add\n        /* \"#utility.yul\":10893:10912   */\n      swap1\n      pop\n        /* \"#utility.yul\":10552:10918   */\n      swap2\n      swap1\n      pop\n      jump\t// out\n        /* \"#utility.yul\":10924:11343   */\n    tag_88:\n        /* \"#utility.yul\":11090:11094   */\n      0x00\n        /* \"#utility.yul\":11128:11130   */\n      0x20\n        /* \"#utility.yul\":11117:11126   */\n      dup3\n        /* \"#utility.yul\":11113:11131   */\n      add\n        /* \"#utility.yul\":11105:11131   */\n      swap1\n      pop\n        /* \"#utility.yul\":11177:11186   */\n      dup2\n        /* \"#utility.yul\":11171:11175   */\n      dup2\n        /* \"#utility.yul\":11167:11187   */\n      sub\n        /* \"#utility.yul\":11163:11164   */\n      0x00\n        /* \"#utility.yul\":11152:11161   */\n      dup4\n        /* \"#utility.yul\":11148:11165   */\n      add\n        /* \"#utility.yul\":11141:11188   */\n      mstore\n        /* \"#utility.yul\":11205:11336   */\n      tag_301\n        /* \"#utility.yul\":11331:11335   */\n      dup2\n        /* \"#utility.yul\":11205:11336   */\n      tag_168\n      jump\t// in\n    tag_301:\n        /* \"#utility.yul\":11197:11336   */\n      swap1\n      pop\n        /* \"#utility.yul\":10924:11343   */\n      swap2\n      swap1\n      pop\n      jump\t// out\n        /* \"#utility.yul\":11349:11531   */\n    tag_169:\n        /* \"#utility.yul\":11489:11523   */\n      0x6f6e6c79206f776e65722063616e2075736520746869732066756e6374696f6e\n        /* \"#utility.yul\":11485:11486   */\n      0x00\n        /* \"#utility.yul\":11477:11483   */\n      dup3\n        /* \"#utility.yul\":11473:11487   */\n      add\n        /* \"#utility.yul\":11466:11524   */\n      mstore\n        /* \"#utility.yul\":11349:11531   */\n      pop\n      jump\t// out\n        /* \"#utility.yul\":11537:11903   */\n    tag_170:\n        /* \"#utility.yul\":11679:11682   */\n      0x00\n        /* \"#utility.yul\":11700:11767   */\n      tag_304\n        /* \"#utility.yul\":11764:11766   */\n      0x20\n        /* \"#utility.yul\":11759:11762   */\n      dup4\n        /* \"#utility.yul\":11700:11767   */\n      tag_164\n      jump\t// in\n    tag_304:\n        /* \"#utility.yul\":11693:11767   */\n      swap2\n      pop\n        /* \"#utility.yul\":11776:11869   */\n      tag_305\n        /* \"#utility.yul\":11865:11868   */\n      dup3\n        /* \"#utility.yul\":11776:11869   */\n      tag_169\n      jump\t// in\n    tag_305:\n        /* \"#utility.yul\":11894:11896   */\n      0x20\n        /* \"#utility.yul\":11889:11892   */\n      dup3\n        /* \"#utility.yul\":11885:11897   */\n      add\n        /* \"#utility.yul\":11878:11897   */\n      swap1\n      pop\n        /* \"#utility.yul\":11537:11903   */\n      swap2\n      swap1\n      pop\n      jump\t// out\n        /* \"#utility.yul\":11909:12328   */\n    tag_92:\n        /* \"#utility.yul\":12075:12079   */\n      0x00\n        /* \"#utility.yul\":12113:12115   */\n      0x20\n        /* \"#utility.yul\":12102:12111   */\n      dup3\n        /* \"#utility.yul\":12098:12116   */\n      add\n        /* \"#utility.yul\":12090:12116   */\n      swap1\n      pop\n        /* \"#utility.yul\":12162:12171   */\n      dup2\n        /* \"#utility.yul\":12156:12160   */\n      dup2\n        /* \"#utility.yul\":12152:12172   */\n      sub\n        /* \"#utility.yul\":12148:12149   */\n      0x00\n        /* \"#utility.yul\":12137:12146   */\n      dup4\n        /* \"#utility.yul\":12133:12150   */\n      add\n        /* \"#utility.yul\":12126:12173   */\n      mstore\n        /* \"#utility.yul\":12190:12321   */\n      tag_307\n        /* \"#utility.yul\":12316:12320   */\n      dup2\n        /* \"#utility.yul\":12190:12321   */\n      tag_170\n      jump\t// in\n    tag_307:\n        /* \"#utility.yul\":12182:12321   */\n      swap1\n      pop\n        /* \"#utility.yul\":11909:12328   */\n      swap2\n      swap1\n      pop\n      jump\t// out\n        /* \"#utility.yul\":12334:12503   */\n    tag_171:\n        /* \"#utility.yul\":12474:12495   */\n      0x7374617465206973206e6f742061637469766500000000000000000000000000\n        /* \"#utility.yul\":12470:12471   */\n      0x00\n        /* \"#utility.yul\":12462:12468   */\n      dup3\n        /* \"#utility.yul\":12458:12472   */\n      add\n        /* \"#utility.yul\":12451:12496   */\n      mstore\n        /* \"#utility.yul\":12334:12503   */\n      pop\n      jump\t// out\n        /* \"#utility.yul\":12509:12875   */\n    tag_172:\n        /* \"#utility.yul\":12651:12654   */\n      0x00\n        /* \"#utility.yul\":12672:12739   */\n      tag_310\n        /* \"#utility.yul\":12736:12738   */\n      0x13\n        /* \"#utility.yul\":12731:12734   */\n      dup4\n        /* \"#utility.yul\":12672:12739   */\n      tag_164\n      jump\t// in\n    tag_310:\n        /* \"#utility.yul\":12665:12739   */\n      swap2\n      pop\n        /* \"#utility.yul\":12748:12841   */\n      tag_311\n        /* \"#utility.yul\":12837:12840   */\n      dup3\n        /* \"#utility.yul\":12748:12841   */\n      tag_171\n      jump\t// in\n    tag_311:\n        /* \"#utility.yul\":12866:12868   */\n      0x20\n        /* \"#utility.yul\":12861:12864   */\n      dup3\n        /* \"#utility.yul\":12857:12869   */\n      add\n        /* \"#utility.yul\":12850:12869   */\n      swap1\n      pop\n        /* \"#utility.yul\":12509:12875   */\n      swap2\n      swap1\n      pop\n      jump\t// out\n        /* \"#utility.yul\":12881:13300   */\n    tag_96:\n        /* \"#utility.yul\":13047:13051   */\n      0x00\n        /* \"#utility.yul\":13085:13087   */\n      0x20\n        /* \"#utility.yul\":13074:13083   */\n      dup3\n        /* \"#utility.yul\":13070:13088   */\n      add\n        /* \"#utility.yul\":13062:13088   */\n      swap1\n      pop\n        /* \"#utility.yul\":13134:13143   */\n      dup2\n        /* \"#utility.yul\":13128:13132   */\n      dup2\n        /* \"#utility.yul\":13124:13144   */\n      sub\n        /* \"#utility.yul\":13120:13121   */\n      0x00\n        /* \"#utility.yul\":13109:13118   */\n      dup4\n        /* \"#utility.yul\":13105:13122   */\n      add\n        /* \"#utility.yul\":13098:13145   */\n      mstore\n        /* \"#utility.yul\":13162:13293   */\n      tag_313\n        /* \"#utility.yul\":13288:13292   */\n      dup2\n        /* \"#utility.yul\":13162:13293   */\n      tag_172\n      jump\t// in\n    tag_313:\n        /* \"#utility.yul\":13154:13293   */\n      swap1\n      pop\n        /* \"#utility.yul\":12881:13300   */\n      swap2\n      swap1\n      pop\n      jump\t// out\n        /* \"#utility.yul\":13306:13748   */\n    tag_104:\n        /* \"#utility.yul\":13455:13459   */\n      0x00\n        /* \"#utility.yul\":13493:13495   */\n      0x60\n        /* \"#utility.yul\":13482:13491   */\n      dup3\n        /* \"#utility.yul\":13478:13496   */\n      add\n        /* \"#utility.yul\":13470:13496   */\n      swap1\n      pop\n        /* \"#utility.yul\":13506:13577   */\n      tag_315\n        /* \"#utility.yul\":13574:13575   */\n      0x00\n        /* \"#utility.yul\":13563:13572   */\n      dup4\n        /* \"#utility.yul\":13559:13576   */\n      add\n        /* \"#utility.yul\":13550:13556   */\n      dup7\n        /* \"#utility.yul\":13506:13577   */\n      tag_163\n      jump\t// in\n    tag_315:\n        /* \"#utility.yul\":13587:13659   */\n      tag_316\n        /* \"#utility.yul\":13655:13657   */\n      0x20\n        /* \"#utility.yul\":13644:13653   */\n      dup4\n        /* \"#utility.yul\":13640:13658   */\n      add\n        /* \"#utility.yul\":13631:13637   */\n      dup6\n        /* \"#utility.yul\":13587:13659   */\n      tag_153\n      jump\t// in\n    tag_316:\n        /* \"#utility.yul\":13669:13741   */\n      tag_317\n        /* \"#utility.yul\":13737:13739   */\n      0x40\n        /* \"#utility.yul\":13726:13735   */\n      dup4\n        /* \"#utility.yul\":13722:13740   */\n      add\n        /* \"#utility.yul\":13713:13719   */\n      dup5\n        /* \"#utility.yul\":13669:13741   */\n      tag_153\n      jump\t// in\n    tag_317:\n        /* \"#utility.yul\":13306:13748   */\n      swap5\n      swap4\n      pop\n      pop\n      pop\n      pop\n      jump\t// out\n        /* \"#utility.yul\":13754:13895   */\n    tag_173:\n        /* \"#utility.yul\":13803:13807   */\n      0x00\n        /* \"#utility.yul\":13826:13829   */\n      dup2\n        /* \"#utility.yul\":13818:13829   */\n      swap1\n      pop\n        /* \"#utility.yul\":13849:13852   */\n      dup2\n        /* \"#utility.yul\":13846:13847   */\n      0x00\n        /* \"#utility.yul\":13839:13853   */\n      mstore\n        /* \"#utility.yul\":13883:13887   */\n      0x20\n        /* \"#utility.yul\":13880:13881   */\n      0x00\n        /* \"#utility.yul\":13870:13888   */\n      keccak256\n        /* \"#utility.yul\":13862:13888   */\n      swap1\n      pop\n        /* \"#utility.yul\":13754:13895   */\n      swap2\n      swap1\n      pop\n      jump\t// out\n        /* \"#utility.yul\":13901:13994   */\n    tag_174:\n        /* \"#utility.yul\":13938:13944   */\n      0x00\n        /* \"#utility.yul\":13985:13987   */\n      0x20\n        /* \"#utility.yul\":13980:13982   */\n      0x1f\n        /* \"#utility.yul\":13973:13978   */\n      dup4\n        /* \"#utility.yul\":13969:13983   */\n      add\n        /* \"#utility.yul\":13965:13988   */\n      div\n        /* \"#utility.yul\":13955:13988   */\n      swap1\n      pop\n        /* \"#utility.yul\":13901:13994   */\n      swap2\n      swap1\n      pop\n      jump\t// out\n        /* \"#utility.yul\":14000:14107   */\n    tag_175:\n        /* \"#utility.yul\":14044:14052   */\n      0x00\n        /* \"#utility.yul\":14094:14099   */\n      dup3\n        /* \"#utility.yul\":14088:14092   */\n      dup3\n        /* \"#utility.yul\":14084:14100   */\n      shl\n        /* \"#utility.yul\":14063:14100   */\n      swap1\n      pop\n        /* \"#utility.yul\":14000:14107   */\n      swap3\n      swap2\n      pop\n      pop\n      jump\t// out\n        /* \"#utility.yul\":14113:14506   */\n    tag_176:\n        /* \"#utility.yul\":14182:14188   */\n      0x00\n        /* \"#utility.yul\":14232:14233   */\n      0x08\n        /* \"#utility.yul\":14220:14230   */\n      dup4\n        /* \"#utility.yul\":14216:14234   */\n      mul\n        /* \"#utility.yul\":14255:14352   */\n      tag_322\n        /* \"#utility.yul\":14285:14351   */\n      0xffffffffffffffffffffffffffffffffffffffffffffffffffffffffffffffff\n        /* \"#utility.yul\":14274:14283   */\n      dup3\n        /* \"#utility.yul\":14255:14352   */\n      tag_175\n      jump\t// in\n    tag_322:\n        /* \"#utility.yul\":14373:14412   */\n      tag_323\n        /* \"#utility.yul\":14403:14411   */\n      dup7\n        /* \"#utility.yul\":14392:14401   */\n      dup4\n        /* \"#utility.yul\":14373:14412   */\n      tag_175\n      jump\t// in\n    tag_323:\n        /* \"#utility.yul\":14361:14412   */\n      swap6\n      pop\n        /* \"#utility.yul\":14445:14449   */\n      dup1\n        /* \"#utility.yul\":14441:14450   */\n      not\n        /* \"#utility.yul\":14434:14439   */\n      dup5\n        /* \"#utility.yul\":14430:14451   */\n      and\n        /* \"#utility.yul\":14421:14451   */\n      swap4\n      pop\n        /* \"#utility.yul\":14494:14498   */\n      dup1\n        /* \"#utility.yul\":14484:14492   */\n      dup7\n        /* \"#utility.yul\":14480:14499   */\n      and\n        /* \"#utility.yul\":14473:14478   */\n      dup5\n        /* \"#utility.yul\":14470:14500   */\n      or\n        /* \"#utility.yul\":14460:14500   */\n      swap3\n      pop\n        /* \"#utility.yul\":14189:14506   */\n      pop\n      pop\n        /* \"#utility.yul\":14113:14506   */\n      swap4\n      swap3\n      pop\n      pop\n      pop\n      jump\t// out\n        /* \"#utility.yul\":14512:14572   */\n    tag_177:\n        /* \"#utility.yul\":14540:14543   */\n      0x00\n        /* \"#utility.yul\":14561:14566   */\n      dup2\n        /* \"#utility.yul\":14554:14566   */\n      swap1\n      pop\n        /* \"#utility.yul\":14512:14572   */\n      swap2\n      swap1\n      pop\n      jump\t// out\n        /* \"#utility.yul\":14578:14720   */\n    tag_178:\n        /* \"#utility.yul\":14628:14637   */\n      0x00\n        /* \"#utility.yul\":14661:14714   */\n      tag_326\n        /* \"#utility.yul\":14679:14713   */\n      tag_327\n        /* \"#utility.yul\":14688:14712   */\n      tag_328\n        /* \"#utility.yul\":14706:14711   */\n      dup5\n        /* \"#utility.yul\":14688:14712   */\n      tag_140\n      jump\t// in\n    tag_328:\n        /* \"#utility.yul\":14679:14713   */\n      tag_177\n      jump\t// in\n    tag_327:\n        /* \"#utility.yul\":14661:14714   */\n      tag_140\n      jump\t// in\n    tag_326:\n        /* \"#utility.yul\":14648:14714   */\n      swap1\n      pop\n        /* \"#utility.yul\":14578:14720   */\n      swap2\n      swap1\n      pop\n      jump\t// out\n        /* \"#utility.yul\":14726:14801   */\n    tag_179:\n        /* \"#utility.yul\":14769:14772   */\n      0x00\n        /* \"#utility.yul\":14790:14795   */\n      dup2\n        /* \"#utility.yul\":14783:14795   */\n      swap1\n      pop\n        /* \"#utility.yul\":14726:14801   */\n      swap2\n      swap1\n      pop\n      jump\t// out\n        /* \"#utility.yul\":14807:15076   */\n    tag_180:\n        /* \"#utility.yul\":14917:14956   */\n      tag_331\n        /* \"#utility.yul\":14948:14955   */\n      dup4\n        /* \"#utility.yul\":14917:14956   */\n      tag_178\n      jump\t// in\n    tag_331:\n        /* \"#utility.yul\":14978:15069   */\n      tag_332\n        /* \"#utility.yul\":15027:15068   */\n      tag_333\n        /* \"#utility.yul\":15051:15067   */\n      dup3\n        /* \"#utility.yul\":15027:15068   */\n      tag_179\n      jump\t// in\n    tag_333:\n        /* \"#utility.yul\":15019:15025   */\n      dup5\n        /* \"#utility.yul\":15012:15016   */\n      dup5\n        /* \"#utility.yul\":15006:15017   */\n      sload\n        /* \"#utility.yul\":14978:15069   */\n      tag_176\n      jump\t// in\n    tag_332:\n        /* \"#utility.yul\":14972:14976   */\n      dup3\n        /* \"#utility.yul\":14965:15070   */\n      sstore\n        /* \"#utility.yul\":14883:15076   */\n      pop\n        /* \"#utility.yul\":14807:15076   */\n      pop\n      pop\n      pop\n      jump\t// out\n        /* \"#utility.yul\":15082:15155   */\n    tag_181:\n        /* \"#utility.yul\":15127:15130   */\n      0x00\n        /* \"#utility.yul\":15082:15155   */\n      swap1\n      jump\t// out\n        /* \"#utility.yul\":15161:15350   */\n    tag_182:\n        /* \"#utility.yul\":15238:15270   */\n      tag_336\n      tag_181\n      jump\t// in\n    tag_336:\n        /* \"#utility.yul\":15279:15344   */\n      tag_337\n        /* \"#utility.yul\":15337:15343   */\n      dup2\n        /* \"#utility.yul\":15329:15335   */\n      dup5\n        /* \"#utility.yul\":15323:15327   */\n      dup5\n        /* \"#utility.yul\":15279:15344   */\n      tag_180\n      jump\t// in\n    tag_337:\n        /* \"#utility.yul\":15214:15350   */\n      pop\n        /* \"#utility.yul\":15161:15350   */\n      pop\n      pop\n      jump\t// out\n        /* \"#utility.yul\":15356:15542   */\n    tag_183:\n        /* \"#utility.yul\":15416:15536   */\n    tag_339:\n        /* \"#utility.yul\":15433:15436   */\n      dup2\n        /* \"#utility.yul\":15426:15431   */\n      dup2\n        /* \"#utility.yul\":15423:15437   */\n      lt\n        /* \"#utility.yul\":15416:15536   */\n      iszero\n      tag_341\n      jumpi\n        /* \"#utility.yul\":15487:15526   */\n      tag_342\n        /* \"#utility.yul\":15524:15525   */\n      0x00\n        /* \"#utility.yul\":15517:15522   */\n      dup3\n        /* \"#utility.yul\":15487:15526   */\n      tag_182\n      jump\t// in\n    tag_342:\n        /* \"#utility.yul\":15460:15461   */\n      0x01\n        /* \"#utility.yul\":15453:15458   */\n      dup2\n        /* \"#utility.yul\":15449:15462   */\n      add\n        /* \"#utility.yul\":15440:15462   */\n      swap1\n      pop\n        /* \"#utility.yul\":15416:15536   */\n      jump(tag_339)\n    tag_341:\n        /* \"#utility.yul\":15356:15542   */\n      pop\n      pop\n      jump\t// out\n        /* \"#utility.yul\":15548:16091   */\n    tag_184:\n        /* \"#utility.yul\":15649:15651   */\n      0x1f\n        /* \"#utility.yul\":15644:15647   */\n      dup3\n        /* \"#utility.yul\":15641:15652   */\n      gt\n        /* \"#utility.yul\":15638:16084   */\n      iszero\n      tag_344\n      jumpi\n        /* \"#utility.yul\":15683:15721   */\n      tag_345\n        /* \"#utility.yul\":15715:15720   */\n      dup2\n        /* \"#utility.yul\":15683:15721   */\n      tag_173\n      jump\t// in\n    tag_345:\n        /* \"#utility.yul\":15767:15796   */\n      tag_346\n        /* \"#utility.yul\":15785:15795   */\n      dup5\n        /* \"#utility.yul\":15767:15796   */\n      tag_174\n      jump\t// in\n    tag_346:\n        /* \"#utility.yul\":15757:15765   */\n      dup2\n        /* \"#utility.yul\":15753:15797   */\n      add\n        /* \"#utility.yul\":15950:15952   */\n      0x20\n        /* \"#utility.yul\":15938:15948   */\n      dup6\n        /* \"#utility.yul\":15935:15953   */\n      lt\n        /* \"#utility.yul\":15932:15981   */\n      iszero\n      tag_347\n      jumpi\n        /* \"#utility.yul\":15971:15979   */\n      dup2\n        /* \"#utility.yul\":15956:15979   */\n      swap1\n      pop\n        /* \"#utility.yul\":15932:15981   */\n    tag_347:\n        /* \"#utility.yul\":15994:16074   */\n      tag_348\n        /* \"#utility.yul\":16050:16072   */\n      tag_349\n        /* \"#utility.yul\":16068:16071   */\n      dup6\n        /* \"#utility.yul\":16050:16072   */\n      tag_174\n      jump\t// in\n    tag_349:\n        /* \"#utility.yul\":16040:16048   */\n      dup4\n        /* \"#utility.yul\":16036:16073   */\n      add\n        /* \"#utility.yul\":16023:16034   */\n      dup3\n        /* \"#utility.yul\":15994:16074   */\n      tag_183\n      jump\t// in\n    tag_348:\n        /* \"#utility.yul\":15653:16084   */\n      pop\n      pop\n        /* \"#utility.yul\":15638:16084   */\n    tag_344:\n        /* \"#utility.yul\":15548:16091   */\n      pop\n      pop\n      pop\n      jump\t// out\n        /* \"#utility.yul\":16097:16214   */\n    tag_185:\n        /* \"#utility.yul\":16151:16159   */\n      0x00\n        /* \"#utility.yul\":16201:16206   */\n      dup3\n        /* \"#utility.yul\":16195:16199   */\n      dup3\n        /* \"#utility.yul\":16191:16207   */\n      shr\n        /* \"#utility.yul\":16170:16207   */\n      swap1\n      pop\n        /* \"#utility.yul\":16097:16214   */\n      swap3\n      swap2\n      pop\n      pop\n      jump\t// out\n        /* \"#utility.yul\":16220:16389   */\n    tag_186:\n        /* \"#utility.yul\":16264:16270   */\n      0x00\n        /* \"#utility.yul\":16297:16348   */\n      tag_352\n        /* \"#utility.yul\":16345:16346   */\n      0x00\n        /* \"#utility.yul\":16341:16347   */\n      not\n        /* \"#utility.yul\":16333:16338   */\n      dup5\n        /* \"#utility.yul\":16330:16331   */\n      0x08\n        /* \"#utility.yul\":16326:16339   */\n      mul\n        /* \"#utility.yul\":16297:16348   */\n      tag_185\n      jump\t// in\n    tag_352:\n        /* \"#utility.yul\":16293:16349   */\n      not\n        /* \"#utility.yul\":16378:16382   */\n      dup1\n        /* \"#utility.yul\":16372:16376   */\n      dup4\n        /* \"#utility.yul\":16368:16383   */\n      and\n        /* \"#utility.yul\":16358:16383   */\n      swap2\n      pop\n        /* \"#utility.yul\":16271:16389   */\n      pop\n        /* \"#utility.yul\":16220:16389   */\n      swap3\n      swap2\n      pop\n      pop\n      jump\t// out\n        /* \"#utility.yul\":16394:16689   */\n    tag_187:\n        /* \"#utility.yul\":16470:16474   */\n      0x00\n        /* \"#utility.yul\":16616:16645   */\n      tag_354\n        /* \"#utility.yul\":16641:16644   */\n      dup4\n        /* \"#utility.yul\":16635:16639   */\n      dup4\n        /* \"#utility.yul\":16616:16645   */\n      tag_186\n      jump\t// in\n    tag_354:\n        /* \"#utility.yul\":16608:16645   */\n      swap2\n      pop\n        /* \"#utility.yul\":16678:16681   */\n      dup3\n        /* \"#utility.yul\":16675:16676   */\n      0x02\n        /* \"#utility.yul\":16671:16682   */\n      mul\n        /* \"#utility.yul\":16665:16669   */\n      dup3\n        /* \"#utility.yul\":16662:16683   */\n      or\n        /* \"#utility.yul\":16654:16683   */\n      swap1\n      pop\n        /* \"#utility.yul\":16394:16689   */\n      swap3\n      swap2\n      pop\n      pop\n      jump\t// out\n        /* \"#utility.yul\":16694:18089   */\n    tag_109:\n        /* \"#utility.yul\":16811:16848   */\n      tag_356\n        /* \"#utility.yul\":16844:16847   */\n      dup3\n        /* \"#utility.yul\":16811:16848   */\n      tag_143\n      jump\t// in\n    tag_356:\n        /* \"#utility.yul\":16913:16931   */\n      0xffffffffffffffff\n        /* \"#utility.yul\":16905:16911   */\n      dup2\n        /* \"#utility.yul\":16902:16932   */\n      gt\n        /* \"#utility.yul\":16899:16955   */\n      iszero\n      tag_357\n      jumpi\n        /* \"#utility.yul\":16935:16953   */\n      tag_358\n      tag_156\n      jump\t// in\n    tag_358:\n        /* \"#utility.yul\":16899:16955   */\n    tag_357:\n        /* \"#utility.yul\":16979:17017   */\n      tag_359\n        /* \"#utility.yul\":17011:17015   */\n      dup3\n        /* \"#utility.yul\":17005:17016   */\n      sload\n        /* \"#utility.yul\":16979:17017   */\n      tag_67\n      jump\t// in\n    tag_359:\n        /* \"#utility.yul\":17064:17131   */\n      tag_360\n        /* \"#utility.yul\":17124:17130   */\n      dup3\n        /* \"#utility.yul\":17116:17122   */\n      dup3\n        /* \"#utility.yul\":17110:17114   */\n      dup6\n        /* \"#utility.yul\":17064:17131   */\n      tag_184\n      jump\t// in\n    tag_360:\n        /* \"#utility.yul\":17158:17159   */\n      0x00\n        /* \"#utility.yul\":17182:17186   */\n      0x20\n        /* \"#utility.yul\":17169:17186   */\n      swap1\n      pop\n        /* \"#utility.yul\":17214:17216   */\n      0x1f\n        /* \"#utility.yul\":17206:17212   */\n      dup4\n        /* \"#utility.yul\":17203:17217   */\n      gt\n        /* \"#utility.yul\":17231:17232   */\n      0x01\n        /* \"#utility.yul\":17226:17844   */\n      dup2\n      eq\n      tag_362\n      jumpi\n        /* \"#utility.yul\":17888:17889   */\n      0x00\n        /* \"#utility.yul\":17905:17911   */\n      dup5\n        /* \"#utility.yul\":17902:17979   */\n      iszero\n      tag_363\n      jumpi\n        /* \"#utility.yul\":17954:17963   */\n      dup3\n        /* \"#utility.yul\":17949:17952   */\n      dup8\n        /* \"#utility.yul\":17945:17964   */\n      add\n        /* \"#utility.yul\":17939:17965   */\n      mload\n        /* \"#utility.yul\":17930:17965   */\n      swap1\n      pop\n        /* \"#utility.yul\":17902:17979   */\n    tag_363:\n        /* \"#utility.yul\":18005:18072   */\n      tag_364\n        /* \"#utility.yul\":18065:18071   */\n      dup6\n        /* \"#utility.yul\":18058:18063   */\n      dup3\n        /* \"#utility.yul\":18005:18072   */\n      tag_187\n      jump\t// in\n    tag_364:\n        /* \"#utility.yul\":17999:18003   */\n      dup7\n        /* \"#utility.yul\":17992:18073   */\n      sstore\n        /* \"#utility.yul\":17861:18083   */\n      pop\n        /* \"#utility.yul\":17196:18083   */\n      jump(tag_361)\n        /* \"#utility.yul\":17226:17844   */\n    tag_362:\n        /* \"#utility.yul\":17278:17282   */\n      0x1f\n        /* \"#utility.yul\":17274:17283   */\n      not\n        /* \"#utility.yul\":17266:17272   */\n      dup5\n        /* \"#utility.yul\":17262:17284   */\n      and\n        /* \"#utility.yul\":17312:17349   */\n      tag_365\n        /* \"#utility.yul\":17344:17348   */\n      dup7\n        /* \"#utility.yul\":17312:17349   */\n      tag_173\n      jump\t// in\n    tag_365:\n        /* \"#utility.yul\":17371:17372   */\n      0x00\n        /* \"#utility.yul\":17385:17593   */\n    tag_366:\n        /* \"#utility.yul\":17399:17406   */\n      dup3\n        /* \"#utility.yul\":17396:17397   */\n      dup2\n        /* \"#utility.yul\":17393:17407   */\n      lt\n        /* \"#utility.yul\":17385:17593   */\n      iszero\n      tag_368\n      jumpi\n        /* \"#utility.yul\":17478:17487   */\n      dup5\n        /* \"#utility.yul\":17473:17476   */\n      dup10\n        /* \"#utility.yul\":17469:17488   */\n      add\n        /* \"#utility.yul\":17463:17489   */\n      mload\n        /* \"#utility.yul\":17455:17461   */\n      dup3\n        /* \"#utility.yul\":17448:17490   */\n      sstore\n        /* \"#utility.yul\":17529:17530   */\n      0x01\n        /* \"#utility.yul\":17521:17527   */\n      dup3\n        /* \"#utility.yul\":17517:17531   */\n      add\n        /* \"#utility.yul\":17507:17531   */\n      swap2\n      pop\n        /* \"#utility.yul\":17576:17578   */\n      0x20\n        /* \"#utility.yul\":17565:17574   */\n      dup6\n        /* \"#utility.yul\":17561:17579   */\n      add\n        /* \"#utility.yul\":17548:17579   */\n      swap5\n      pop\n        /* \"#utility.yul\":17422:17426   */\n      0x20\n        /* \"#utility.yul\":17419:17420   */\n      dup2\n        /* \"#utility.yul\":17415:17427   */\n      add\n        /* \"#utility.yul\":17410:17427   */\n      swap1\n      pop\n        /* \"#utility.yul\":17385:17593   */\n      jump(tag_366)\n    tag_368:\n        /* \"#utility.yul\":17621:17627   */\n      dup7\n        /* \"#utility.yul\":17612:17619   */\n      dup4\n        /* \"#utility.yul\":17609:17628   */\n      lt\n        /* \"#utility.yul\":17606:17785   */\n      iszero\n      tag_369\n      jumpi\n        /* \"#utility.yul\":17679:17688   */\n      dup5\n        /* \"#utility.yul\":17674:17677   */\n      dup10\n        /* \"#utility.yul\":17670:17689   */\n      add\n        /* \"#utility.yul\":17664:17690   */\n      mload\n        /* \"#utility.yul\":17722:17770   */\n      tag_370\n        /* \"#utility.yul\":17764:17768   */\n      0x1f\n        /* \"#utility.yul\":17756:17762   */\n      dup10\n        /* \"#utility.yul\":17752:17769   */\n      and\n        /* \"#utility.yul\":17741:17750   */\n      dup3\n        /* \"#utility.yul\":17722:17770   */\n      tag_186\n      jump\t// in\n    tag_370:\n        /* \"#utility.yul\":17714:17720   */\n      dup4\n        /* \"#utility.yul\":17707:17771   */\n      sstore\n        /* \"#utility.yul\":17629:17785   */\n      pop\n        /* \"#utility.yul\":17606:17785   */\n    tag_369:\n        /* \"#utility.yul\":17831:17832   */\n      0x01\n        /* \"#utility.yul\":17827:17828   */\n      0x02\n        /* \"#utility.yul\":17819:17825   */\n      dup9\n        /* \"#utility.yul\":17815:17829   */\n      mul\n        /* \"#utility.yul\":17811:17833   */\n      add\n        /* \"#utility.yul\":17805:17809   */\n      dup9\n        /* \"#utility.yul\":17798:17834   */\n      sstore\n        /* \"#utility.yul\":17233:17844   */\n      pop\n      pop\n      pop\n        /* \"#utility.yul\":17196:18083   */\n    tag_361:\n      pop\n        /* \"#utility.yul\":16786:18089   */\n      pop\n      pop\n      pop\n        /* \"#utility.yul\":16694:18089   */\n      pop\n      pop\n      jump\t// out\n        /* \"#utility.yul\":18095:18275   */\n    tag_188:\n        /* \"#utility.yul\":18143:18220   */\n      0x4e487b7100000000000000000000000000000000000000000000000000000000\n        /* \"#utility.yul\":18140:18141   */\n      0x00\n        /* \"#utility.yul\":18133:18221   */\n      mstore\n        /* \"#utility.yul\":18240:18244   */\n      0x11\n        /* \"#utility.yul\":18237:18238   */\n      0x04\n        /* \"#utility.yul\":18230:18245   */\n      mstore\n        /* \"#utility.yul\":18264:18268   */\n      0x24\n        /* \"#utility.yul\":18261:18262   */\n      0x00\n        /* \"#utility.yul\":18254:18269   */\n      revert\n        /* \"#utility.yul\":18281:18514   */\n    tag_112:\n        /* \"#utility.yul\":18320:18323   */\n      0x00\n        /* \"#utility.yul\":18343:18367   */\n      tag_373\n        /* \"#utility.yul\":18361:18366   */\n      dup3\n        /* \"#utility.yul\":18343:18367   */\n      tag_140\n      jump\t// in\n    tag_373:\n        /* \"#utility.yul\":18334:18367   */\n      swap2\n      pop\n        /* \"#utility.yul\":18389:18455   */\n      0xffffffffffffffffffffffffffffffffffffffffffffffffffffffffffffffff\n        /* \"#utility.yul\":18382:18387   */\n      dup3\n        /* \"#utility.yul\":18379:18456   */\n      sub\n        /* \"#utility.yul\":18376:18479   */\n      tag_374\n      jumpi\n        /* \"#utility.yul\":18459:18477   */\n      tag_375\n      tag_188\n      jump\t// in\n    tag_375:\n        /* \"#utility.yul\":18376:18479   */\n    tag_374:\n        /* \"#utility.yul\":18506:18507   */\n      0x01\n        /* \"#utility.yul\":18499:18504   */\n      dup3\n        /* \"#utility.yul\":18495:18508   */\n      add\n        /* \"#utility.yul\":18488:18508   */\n      swap1\n      pop\n        /* \"#utility.yul\":18281:18514   */\n      swap2\n      swap1\n      pop\n      jump\t// out\n        /* \"#utility.yul\":18520:19144   */\n    tag_118:\n        /* \"#utility.yul\":18709:18713   */\n      0x00\n        /* \"#utility.yul\":18747:18749   */\n      0x60\n        /* \"#utility.yul\":18736:18745   */\n      dup3\n        /* \"#utility.yul\":18732:18750   */\n      add\n        /* \"#utility.yul\":18724:18750   */\n      swap1\n      pop\n        /* \"#utility.yul\":18760:18831   */\n      tag_377\n        /* \"#utility.yul\":18828:18829   */\n      0x00\n        /* \"#utility.yul\":18817:18826   */\n      dup4\n        /* \"#utility.yul\":18813:18830   */\n      add\n        /* \"#utility.yul\":18804:18810   */\n      dup7\n        /* \"#utility.yul\":18760:18831   */\n      tag_163\n      jump\t// in\n    tag_377:\n        /* \"#utility.yul\":18878:18887   */\n      dup2\n        /* \"#utility.yul\":18872:18876   */\n      dup2\n        /* \"#utility.yul\":18868:18888   */\n      sub\n        /* \"#utility.yul\":18863:18865   */\n      0x20\n        /* \"#utility.yul\":18852:18861   */\n      dup4\n        /* \"#utility.yul\":18848:18866   */\n      add\n        /* \"#utility.yul\":18841:18889   */\n      mstore\n        /* \"#utility.yul\":18906:18984   */\n      tag_378\n        /* \"#utility.yul\":18979:18983   */\n      dup2\n        /* \"#utility.yul\":18970:18976   */\n      dup6\n        /* \"#utility.yul\":18906:18984   */\n      tag_165\n      jump\t// in\n    tag_378:\n        /* \"#utility.yul\":18898:18984   */\n      swap1\n      pop\n        /* \"#utility.yul\":19031:19040   */\n      dup2\n        /* \"#utility.yul\":19025:19029   */\n      dup2\n        /* \"#utility.yul\":19021:19041   */\n      sub\n        /* \"#utility.yul\":19016:19018   */\n      0x40\n        /* \"#utility.yul\":19005:19014   */\n      dup4\n        /* \"#utility.yul\":19001:19019   */\n      add\n        /* \"#utility.yul\":18994:19042   */\n      mstore\n        /* \"#utility.yul\":19059:19137   */\n      tag_379\n        /* \"#utility.yul\":19132:19136   */\n      dup2\n        /* \"#utility.yul\":19123:19129   */\n      dup5\n        /* \"#utility.yul\":19059:19137   */\n      tag_165\n      jump\t// in\n    tag_379:\n        /* \"#utility.yul\":19051:19137   */\n      swap1\n      pop\n        /* \"#utility.yul\":18520:19144   */\n      swap5\n      swap4\n      pop\n      pop\n      pop\n      pop\n      jump\t// out\n        /* \"#utility.yul\":19150:19341   */\n    tag_131:\n        /* \"#utility.yul\":19190:19193   */\n      0x00\n        /* \"#utility.yul\":19209:19229   */\n      tag_381\n        /* \"#utility.yul\":19227:19228   */\n      dup3\n        /* \"#utility.yul\":19209:19229   */\n      tag_140\n      jump\t// in\n    tag_381:\n        /* \"#utility.yul\":19204:19229   */\n      swap2\n      pop\n        /* \"#utility.yul\":19243:19263   */\n      tag_382\n        /* \"#utility.yul\":19261:19262   */\n      dup4\n        /* \"#utility.yul\":19243:19263   */\n      tag_140\n      jump\t// in\n    tag_382:\n        /* \"#utility.yul\":19238:19263   */\n      swap3\n      pop\n        /* \"#utility.yul\":19286:19287   */\n      dup3\n        /* \"#utility.yul\":19283:19284   */\n      dup3\n        /* \"#utility.yul\":19279:19288   */\n      add\n        /* \"#utility.yul\":19272:19288   */\n      swap1\n      pop\n        /* \"#utility.yul\":19307:19310   */\n      dup1\n        /* \"#utility.yul\":19304:19305   */\n      dup3\n        /* \"#utility.yul\":19301:19311   */\n      gt\n        /* \"#utility.yul\":19298:19334   */\n      iszero\n      tag_383\n      jumpi\n        /* \"#utility.yul\":19314:19332   */\n      tag_384\n      tag_188\n      jump\t// in\n    tag_384:\n        /* \"#utility.yul\":19298:19334   */\n    tag_383:\n        /* \"#utility.yul\":19150:19341   */\n      swap3\n      swap2\n      pop\n      pop\n      jump\t// out\n\n    auxdata: 0xa26469706673582212204375b931adaf535ef53ba9350305d84112b485afee1f52f480a85c3240d8ed8764736f6c63430008160033\n}\n",
				"bytecode": {
					"linkReferences": {},
					"object": "60806040526801158e460913d000006001556102584261001f91906100c3565b60025534801561002d575f80fd5b50335f60016101000a81548173ffffffffffffffffffffffffffffffffffffffff021916908373ffffffffffffffffffffffffffffffffffffffff16021790555060015f60156101000a81548160ff0219169083151502179055506100f6565b5f819050919050565b7f4e487b71000000000000000000000000000000000000000000000000000000005f52601160045260245ffd5b5f6100cd8261008d565b91506100d88361008d565b92508282019050808211156100f0576100ef610096565b5b92915050565b61154d80620001045f395ff3fe60806040526004361061009b575f3560e01c806351b42b001161006357806351b42b00146101675780636e613bb91461017d578063860e4565146101a55780638da5cb5b146101cd578063ca1d209d146101f7578063e8709c40146102365761009b565b806302fb0c5e1461009f5780631c1a9f7b146100c9578063278ecde1146101055780632986c0e514610121578063379607f51461014b575b5f80fd5b3480156100aa575f80fd5b506100b3610252565b6040516100c09190610b31565b60405180910390f35b3480156100d4575f80fd5b506100ef60048036038101906100ea9190610b8e565b610264565b6040516100fc9190610cf8565b60405180910390f35b61011f600480360381019061011a9190610b8e565b61040d565b005b34801561012c575f80fd5b5061013561052d565b6040516101429190610d27565b60405180910390f35b61016560048036038101906101609190610b8e565b610533565b005b348015610172575f80fd5b5061017b610760565b005b348015610188575f80fd5b506101a3600480360381019061019e9190610e6c565b61077b565b005b3480156101b0575f80fd5b506101cb60048036038101906101c69190610e6c565b61085d565b005b3480156101d8575f80fd5b506101e16108ce565b6040516101ee9190610ef1565b60405180910390f35b348015610202575f80fd5b5061021d60048036038101906102189190610b8e565b6108f3565b60405161022d9493929190610f52565b60405180910390f35b610250600480360381019061024b9190610b8e565b610a4a565b005b5f60159054906101000a900460ff1681565b61026c610adb565b60035f8381526020019081526020015f206040518060800160405290815f8201805461029790610fd0565b80601f01602080910402602001604051908101604052809291908181526020018280546102c390610fd0565b801561030e5780601f106102e55761010080835404028352916020019161030e565b820191905f5260205f20905b8154815290600101906020018083116102f157829003601f168201915b5050505050815260200160018201805461032790610fd0565b80601f016020809104026020016040519081016040528092919081815260200182805461035390610fd0565b801561039e5780601f106103755761010080835404028352916020019161039e565b820191905f5260205f20905b81548152906001019060200180831161038157829003601f168201915b50505050508152602001600282015f9054906101000a900473ffffffffffffffffffffffffffffffffffffffff1673ffffffffffffffffffffffffffffffffffffffff1673ffffffffffffffffffffffffffffffffffffffff1681526020016003820154815250509050919050565b60015460035f8381526020019081526020015f206003015410156104ef575f60035f8381526020019081526020015f206003015490503373ffffffffffffffffffffffffffffffffffffffff166108fc8290811502906040515f60405180830381858888f19350505050158015610486573d5f803e3d5ffd5b5060035f806101000a81548160ff021916908360048111156104ab576104aa611000565b5b02179055507f13449f70035221bfd809cb8d8994f004f2f917bbc10a9f431bfa7b3f423c0b2533346040516104e192919061102d565b60405180910390a15061052a565b6040517f08c379a00000000000000000000000000000000000000000000000000000000081526004016105219061109e565b60405180910390fd5b50565b60045481565b5f60019054906101000a900473ffffffffffffffffffffffffffffffffffffffff1673ffffffffffffffffffffffffffffffffffffffff163373ffffffffffffffffffffffffffffffffffffffff16146105c2576040517f08c379a00000000000000000000000000000000000000000000000000000000081526004016105b990611106565b60405180910390fd5b5f60159054906101000a900460ff16610610576040517f08c379a00000000000000000000000000000000000000000000000000000000081526004016106079061116e565b60405180910390fd5b60015460035f8381526020019081526020015f206003015410610755575f60035f8381526020019081526020015f2060030154905060035f8381526020019081526020015f206002015f9054906101000a900473ffffffffffffffffffffffffffffffffffffffff1673ffffffffffffffffffffffffffffffffffffffff166108fc8290811502906040515f60405180830381858888f193505050501580156106bb573d5f803e3d5ffd5b5060025f806101000a81548160ff021916908360048111156106e0576106df611000565b5b02179055507f1b6e211f4f9c831c65cf08f006c0bd582bfd54b8f87c3900c9ed95e426eca5db60035f8481526020019081526020015f206002015f9054906101000a900473ffffffffffffffffffffffffffffffffffffffff16348460405161074b9392919061118c565b60405180910390a1505b61075d610760565b50565b5f8060156101000a81548160ff021916908315150217905550565b60405180608001604052808381526020018281526020013373ffffffffffffffffffffffffffffffffffffffff1681526020015f81525060035f60045481526020019081526020015f205f820151815f0190816107d8919061135e565b5060208201518160010190816107ee919061135e565b506040820151816002015f6101000a81548173ffffffffffffffffffffffffffffffffffffffff021916908373ffffffffffffffffffffffffffffffffffffffff1602179055506060820151816003015590505060045f8154809291906108549061145a565b91905055505050565b610867828261077b565b5f805f6101000a81548160ff0219169083600481111561088a57610889611000565b5b02179055507fd9f5d2554288e53ff4638a508d2b24634f8f31fd61153e9eeb435b14ddfb210a3383836040516108c2939291906114a1565b60405180910390a15050565b5f60019054906101000a900473ffffffffffffffffffffffffffffffffffffffff1681565b6003602052805f5260405f205f91509050805f01805461091290610fd0565b80601f016020809104026020016040519081016040528092919081815260200182805461093e90610fd0565b80156109895780601f1061096057610100808354040283529160200191610989565b820191905f5260205f20905b81548152906001019060200180831161096c57829003601f168201915b50505050509080600101805461099e90610fd0565b80601f01602080910402602001604051908101604052809291908181526020018280546109ca90610fd0565b8015610a155780601f106109ec57610100808354040283529160200191610a15565b820191905f5260205f20905b8154815290600101906020018083116109f857829003601f168201915b505050505090806002015f9054906101000a900473ffffffffffffffffffffffffffffffffffffffff16908060030154905084565b3460035f8381526020019081526020015f206003015f828254610a6d91906114e4565b9250508190555060015f806101000a81548160ff02191690836004811115610a9857610a97611000565b5b02179055507f8d95679fa904410fc44d924272fcf3b64c4c835a7f5cd01517011921d8c806b5333483604051610ad09392919061118c565b60405180910390a150565b604051806080016040528060608152602001606081526020015f73ffffffffffffffffffffffffffffffffffffffff1681526020015f81525090565b5f8115159050919050565b610b2b81610b17565b82525050565b5f602082019050610b445f830184610b22565b92915050565b5f604051905090565b5f80fd5b5f80fd5b5f819050919050565b610b6d81610b5b565b8114610b77575f80fd5b50565b5f81359050610b8881610b64565b92915050565b5f60208284031215610ba357610ba2610b53565b5b5f610bb084828501610b7a565b91505092915050565b5f81519050919050565b5f82825260208201905092915050565b5f5b83811015610bf0578082015181840152602081019050610bd5565b5f8484015250505050565b5f601f19601f8301169050919050565b5f610c1582610bb9565b610c1f8185610bc3565b9350610c2f818560208601610bd3565b610c3881610bfb565b840191505092915050565b5f73ffffffffffffffffffffffffffffffffffffffff82169050919050565b5f610c6c82610c43565b9050919050565b610c7c81610c62565b82525050565b610c8b81610b5b565b82525050565b5f608083015f8301518482035f860152610cab8282610c0b565b91505060208301518482036020860152610cc58282610c0b565b9150506040830151610cda6040860182610c73565b506060830151610ced6060860182610c82565b508091505092915050565b5f6020820190508181035f830152610d108184610c91565b905092915050565b610d2181610b5b565b82525050565b5f602082019050610d3a5f830184610d18565b92915050565b5f80fd5b5f80fd5b7f4e487b71000000000000000000000000000000000000000000000000000000005f52604160045260245ffd5b610d7e82610bfb565b810181811067ffffffffffffffff82111715610d9d57610d9c610d48565b5b80604052505050565b5f610daf610b4a565b9050610dbb8282610d75565b919050565b5f67ffffffffffffffff821115610dda57610dd9610d48565b5b610de382610bfb565b9050602081019050919050565b828183375f83830152505050565b5f610e10610e0b84610dc0565b610da6565b905082815260208101848484011115610e2c57610e2b610d44565b5b610e37848285610df0565b509392505050565b5f82601f830112610e5357610e52610d40565b5b8135610e63848260208601610dfe565b91505092915050565b5f8060408385031215610e8257610e81610b53565b5b5f83013567ffffffffffffffff811115610e9f57610e9e610b57565b5b610eab85828601610e3f565b925050602083013567ffffffffffffffff811115610ecc57610ecb610b57565b5b610ed885828601610e3f565b9150509250929050565b610eeb81610c62565b82525050565b5f602082019050610f045f830184610ee2565b92915050565b5f82825260208201905092915050565b5f610f2482610bb9565b610f2e8185610f0a565b9350610f3e818560208601610bd3565b610f4781610bfb565b840191505092915050565b5f6080820190508181035f830152610f6a8187610f1a565b90508181036020830152610f7e8186610f1a565b9050610f8d6040830185610ee2565b610f9a6060830184610d18565b95945050505050565b7f4e487b71000000000000000000000000000000000000000000000000000000005f52602260045260245ffd5b5f6002820490506001821680610fe757607f821691505b602082108103610ffa57610ff9610fa3565b5b50919050565b7f4e487b71000000000000000000000000000000000000000000000000000000005f52602160045260245ffd5b5f6040820190506110405f830185610ee2565b61104d6020830184610d18565b9392505050565b7f752063616e277420726566756e6420616d6f756e7400000000000000000000005f82015250565b5f611088601583610f0a565b915061109382611054565b602082019050919050565b5f6020820190508181035f8301526110b58161107c565b9050919050565b7f6f6e6c79206f776e65722063616e2075736520746869732066756e6374696f6e5f82015250565b5f6110f0602083610f0a565b91506110fb826110bc565b602082019050919050565b5f6020820190508181035f83015261111d816110e4565b9050919050565b7f7374617465206973206e6f7420616374697665000000000000000000000000005f82015250565b5f611158601383610f0a565b915061116382611124565b602082019050919050565b5f6020820190508181035f8301526111858161114c565b9050919050565b5f60608201905061119f5f830186610ee2565b6111ac6020830185610d18565b6111b96040830184610d18565b949350505050565b5f819050815f5260205f209050919050565b5f6020601f8301049050919050565b5f82821b905092915050565b5f6008830261121d7fffffffffffffffffffffffffffffffffffffffffffffffffffffffffffffffff826111e2565b61122786836111e2565b95508019841693508086168417925050509392505050565b5f819050919050565b5f61126261125d61125884610b5b565b61123f565b610b5b565b9050919050565b5f819050919050565b61127b83611248565b61128f61128782611269565b8484546111ee565b825550505050565b5f90565b6112a3611297565b6112ae818484611272565b505050565b5b818110156112d1576112c65f8261129b565b6001810190506112b4565b5050565b601f821115611316576112e7816111c1565b6112f0846111d3565b810160208510156112ff578190505b61131361130b856111d3565b8301826112b3565b50505b505050565b5f82821c905092915050565b5f6113365f198460080261131b565b1980831691505092915050565b5f61134e8383611327565b9150826002028217905092915050565b61136782610bb9565b67ffffffffffffffff8111156113805761137f610d48565b5b61138a8254610fd0565b6113958282856112d5565b5f60209050601f8311600181146113c6575f84156113b4578287015190505b6113be8582611343565b865550611425565b601f1984166113d4866111c1565b5f5b828110156113fb578489015182556001820191506020850194506020810190506113d6565b868310156114185784890151611414601f891682611327565b8355505b6001600288020188555050505b505050505050565b7f4e487b71000000000000000000000000000000000000000000000000000000005f52601160045260245ffd5b5f61146482610b5b565b91507fffffffffffffffffffffffffffffffffffffffffffffffffffffffffffffffff82036114965761149561142d565b5b600182019050919050565b5f6060820190506114b45f830186610ee2565b81810360208301526114c68185610f1a565b905081810360408301526114da8184610f1a565b9050949350505050565b5f6114ee82610b5b565b91506114f983610b5b565b92508282019050808211156115115761151061142d565b5b9291505056fea26469706673582212204375b931adaf535ef53ba9350305d84112b485afee1f52f480a85c3240d8ed8764736f6c63430008160033",
					"opcodes": "PUSH1 0x80 PUSH1 0x40 MSTORE PUSH9 0x1158E460913D00000 PUSH1 0x1 SSTORE PUSH2 0x258 TIMESTAMP PUSH2 0x1F SWAP2 SWAP1 PUSH2 0xC3 JUMP JUMPDEST PUSH1 0x2 SSTORE CALLVALUE DUP1 ISZERO PUSH2 0x2D JUMPI PUSH0 DUP1 REVERT JUMPDEST POP CALLER PUSH0 PUSH1 0x1 PUSH2 0x100 EXP DUP2 SLOAD DUP2 PUSH20 0xFFFFFFFFFFFFFFFFFFFFFFFFFFFFFFFFFFFFFFFF MUL NOT AND SWAP1 DUP4 PUSH20 0xFFFFFFFFFFFFFFFFFFFFFFFFFFFFFFFFFFFFFFFF AND MUL OR SWAP1 SSTORE POP PUSH1 0x1 PUSH0 PUSH1 0x15 PUSH2 0x100 EXP DUP2 SLOAD DUP2 PUSH1 0xFF MUL NOT AND SWAP1 DUP4 ISZERO ISZERO MUL OR SWAP1 SSTORE POP PUSH2 0xF6 JUMP JUMPDEST PUSH0 DUP2 SWAP1 POP SWAP2 SWAP1 POP JUMP JUMPDEST PUSH32 0x4E487B7100000000000000000000000000000000000000000000000000000000 PUSH0 MSTORE PUSH1 0x11 PUSH1 0x4 MSTORE PUSH1 0x24 PUSH0 REVERT JUMPDEST PUSH0 PUSH2 0xCD DUP3 PUSH2 0x8D JUMP JUMPDEST SWAP2 POP PUSH2 0xD8 DUP4 PUSH2 0x8D JUMP JUMPDEST SWAP3 POP DUP3 DUP3 ADD SWAP1 POP DUP1 DUP3 GT ISZERO PUSH2 0xF0 JUMPI PUSH2 0xEF PUSH2 0x96 JUMP JUMPDEST JUMPDEST SWAP3 SWAP2 POP POP JUMP JUMPDEST PUSH2 0x154D DUP1 PUSH3 0x104 PUSH0 CODECOPY PUSH0 RETURN INVALID PUSH1 0x80 PUSH1 0x40 MSTORE PUSH1 0x4 CALLDATASIZE LT PUSH2 0x9B JUMPI PUSH0 CALLDATALOAD PUSH1 0xE0 SHR DUP1 PUSH4 0x51B42B00 GT PUSH2 0x63 JUMPI DUP1 PUSH4 0x51B42B00 EQ PUSH2 0x167 JUMPI DUP1 PUSH4 0x6E613BB9 EQ PUSH2 0x17D JUMPI DUP1 PUSH4 0x860E4565 EQ PUSH2 0x1A5 JUMPI DUP1 PUSH4 0x8DA5CB5B EQ PUSH2 0x1CD JUMPI DUP1 PUSH4 0xCA1D209D EQ PUSH2 0x1F7 JUMPI DUP1 PUSH4 0xE8709C40 EQ PUSH2 0x236 JUMPI PUSH2 0x9B JUMP JUMPDEST DUP1 PUSH4 0x2FB0C5E EQ PUSH2 0x9F JUMPI DUP1 PUSH4 0x1C1A9F7B EQ PUSH2 0xC9 JUMPI DUP1 PUSH4 0x278ECDE1 EQ PUSH2 0x105 JUMPI DUP1 PUSH4 0x2986C0E5 EQ PUSH2 0x121 JUMPI DUP1 PUSH4 0x379607F5 EQ PUSH2 0x14B JUMPI JUMPDEST PUSH0 DUP1 REVERT JUMPDEST CALLVALUE DUP1 ISZERO PUSH2 0xAA JUMPI PUSH0 DUP1 REVERT JUMPDEST POP PUSH2 0xB3 PUSH2 0x252 JUMP JUMPDEST PUSH1 0x40 MLOAD PUSH2 0xC0 SWAP2 SWAP1 PUSH2 0xB31 JUMP JUMPDEST PUSH1 0x40 MLOAD DUP1 SWAP2 SUB SWAP1 RETURN JUMPDEST CALLVALUE DUP1 ISZERO PUSH2 0xD4 JUMPI PUSH0 DUP1 REVERT JUMPDEST POP PUSH2 0xEF PUSH1 0x4 DUP1 CALLDATASIZE SUB DUP2 ADD SWAP1 PUSH2 0xEA SWAP2 SWAP1 PUSH2 0xB8E JUMP JUMPDEST PUSH2 0x264 JUMP JUMPDEST PUSH1 0x40 MLOAD PUSH2 0xFC SWAP2 SWAP1 PUSH2 0xCF8 JUMP JUMPDEST PUSH1 0x40 MLOAD DUP1 SWAP2 SUB SWAP1 RETURN JUMPDEST PUSH2 0x11F PUSH1 0x4 DUP1 CALLDATASIZE SUB DUP2 ADD SWAP1 PUSH2 0x11A SWAP2 SWAP1 PUSH2 0xB8E JUMP JUMPDEST PUSH2 0x40D JUMP JUMPDEST STOP JUMPDEST CALLVALUE DUP1 ISZERO PUSH2 0x12C JUMPI PUSH0 DUP1 REVERT JUMPDEST POP PUSH2 0x135 PUSH2 0x52D JUMP JUMPDEST PUSH1 0x40 MLOAD PUSH2 0x142 SWAP2 SWAP1 PUSH2 0xD27 JUMP JUMPDEST PUSH1 0x40 MLOAD DUP1 SWAP2 SUB SWAP1 RETURN JUMPDEST PUSH2 0x165 PUSH1 0x4 DUP1 CALLDATASIZE SUB DUP2 ADD SWAP1 PUSH2 0x160 SWAP2 SWAP1 PUSH2 0xB8E JUMP JUMPDEST PUSH2 0x533 JUMP JUMPDEST STOP JUMPDEST CALLVALUE DUP1 ISZERO PUSH2 0x172 JUMPI PUSH0 DUP1 REVERT JUMPDEST POP PUSH2 0x17B PUSH2 0x760 JUMP JUMPDEST STOP JUMPDEST CALLVALUE DUP1 ISZERO PUSH2 0x188 JUMPI PUSH0 DUP1 REVERT JUMPDEST POP PUSH2 0x1A3 PUSH1 0x4 DUP1 CALLDATASIZE SUB DUP2 ADD SWAP1 PUSH2 0x19E SWAP2 SWAP1 PUSH2 0xE6C JUMP JUMPDEST PUSH2 0x77B JUMP JUMPDEST STOP JUMPDEST CALLVALUE DUP1 ISZERO PUSH2 0x1B0 JUMPI PUSH0 DUP1 REVERT JUMPDEST POP PUSH2 0x1CB PUSH1 0x4 DUP1 CALLDATASIZE SUB DUP2 ADD SWAP1 PUSH2 0x1C6 SWAP2 SWAP1 PUSH2 0xE6C JUMP JUMPDEST PUSH2 0x85D JUMP JUMPDEST STOP JUMPDEST CALLVALUE DUP1 ISZERO PUSH2 0x1D8 JUMPI PUSH0 DUP1 REVERT JUMPDEST POP PUSH2 0x1E1 PUSH2 0x8CE JUMP JUMPDEST PUSH1 0x40 MLOAD PUSH2 0x1EE SWAP2 SWAP1 PUSH2 0xEF1 JUMP JUMPDEST PUSH1 0x40 MLOAD DUP1 SWAP2 SUB SWAP1 RETURN JUMPDEST CALLVALUE DUP1 ISZERO PUSH2 0x202 JUMPI PUSH0 DUP1 REVERT JUMPDEST POP PUSH2 0x21D PUSH1 0x4 DUP1 CALLDATASIZE SUB DUP2 ADD SWAP1 PUSH2 0x218 SWAP2 SWAP1 PUSH2 0xB8E JUMP JUMPDEST PUSH2 0x8F3 JUMP JUMPDEST PUSH1 0x40 MLOAD PUSH2 0x22D SWAP5 SWAP4 SWAP3 SWAP2 SWAP1 PUSH2 0xF52 JUMP JUMPDEST PUSH1 0x40 MLOAD DUP1 SWAP2 SUB SWAP1 RETURN JUMPDEST PUSH2 0x250 PUSH1 0x4 DUP1 CALLDATASIZE SUB DUP2 ADD SWAP1 PUSH2 0x24B SWAP2 SWAP1 PUSH2 0xB8E JUMP JUMPDEST PUSH2 0xA4A JUMP JUMPDEST STOP JUMPDEST PUSH0 PUSH1 0x15 SWAP1 SLOAD SWAP1 PUSH2 0x100 EXP SWAP1 DIV PUSH1 0xFF AND DUP2 JUMP JUMPDEST PUSH2 0x26C PUSH2 0xADB JUMP JUMPDEST PUSH1 0x3 PUSH0 DUP4 DUP2 MSTORE PUSH1 0x20 ADD SWAP1 DUP2 MSTORE PUSH1 0x20 ADD PUSH0 KECCAK256 PUSH1 0x40 MLOAD DUP1 PUSH1 0x80 ADD PUSH1 0x40 MSTORE SWAP1 DUP2 PUSH0 DUP3 ADD DUP1 SLOAD PUSH2 0x297 SWAP1 PUSH2 0xFD0 JUMP JUMPDEST DUP1 PUSH1 0x1F ADD PUSH1 0x20 DUP1 SWAP2 DIV MUL PUSH1 0x20 ADD PUSH1 0x40 MLOAD SWAP1 DUP2 ADD PUSH1 0x40 MSTORE DUP1 SWAP3 SWAP2 SWAP1 DUP2 DUP2 MSTORE PUSH1 0x20 ADD DUP3 DUP1 SLOAD PUSH2 0x2C3 SWAP1 PUSH2 0xFD0 JUMP JUMPDEST DUP1 ISZERO PUSH2 0x30E JUMPI DUP1 PUSH1 0x1F LT PUSH2 0x2E5 JUMPI PUSH2 0x100 DUP1 DUP4 SLOAD DIV MUL DUP4 MSTORE SWAP2 PUSH1 0x20 ADD SWAP2 PUSH2 0x30E JUMP JUMPDEST DUP3 ADD SWAP2 SWAP1 PUSH0 MSTORE PUSH1 0x20 PUSH0 KECCAK256 SWAP1 JUMPDEST DUP2 SLOAD DUP2 MSTORE SWAP1 PUSH1 0x1 ADD SWAP1 PUSH1 0x20 ADD DUP1 DUP4 GT PUSH2 0x2F1 JUMPI DUP3 SWAP1 SUB PUSH1 0x1F AND DUP3 ADD SWAP2 JUMPDEST POP POP POP POP POP DUP2 MSTORE PUSH1 0x20 ADD PUSH1 0x1 DUP3 ADD DUP1 SLOAD PUSH2 0x327 SWAP1 PUSH2 0xFD0 JUMP JUMPDEST DUP1 PUSH1 0x1F ADD PUSH1 0x20 DUP1 SWAP2 DIV MUL PUSH1 0x20 ADD PUSH1 0x40 MLOAD SWAP1 DUP2 ADD PUSH1 0x40 MSTORE DUP1 SWAP3 SWAP2 SWAP1 DUP2 DUP2 MSTORE PUSH1 0x20 ADD DUP3 DUP1 SLOAD PUSH2 0x353 SWAP1 PUSH2 0xFD0 JUMP JUMPDEST DUP1 ISZERO PUSH2 0x39E JUMPI DUP1 PUSH1 0x1F LT PUSH2 0x375 JUMPI PUSH2 0x100 DUP1 DUP4 SLOAD DIV MUL DUP4 MSTORE SWAP2 PUSH1 0x20 ADD SWAP2 PUSH2 0x39E JUMP JUMPDEST DUP3 ADD SWAP2 SWAP1 PUSH0 MSTORE PUSH1 0x20 PUSH0 KECCAK256 SWAP1 JUMPDEST DUP2 SLOAD DUP2 MSTORE SWAP1 PUSH1 0x1 ADD SWAP1 PUSH1 0x20 ADD DUP1 DUP4 GT PUSH2 0x381 JUMPI DUP3 SWAP1 SUB PUSH1 0x1F AND DUP3 ADD SWAP2 JUMPDEST POP POP POP POP POP DUP2 MSTORE PUSH1 0x20 ADD PUSH1 0x2 DUP3 ADD PUSH0 SWAP1 SLOAD SWAP1 PUSH2 0x100 EXP SWAP1 DIV PUSH20 0xFFFFFFFFFFFFFFFFFFFFFFFFFFFFFFFFFFFFFFFF AND PUSH20 0xFFFFFFFFFFFFFFFFFFFFFFFFFFFFFFFFFFFFFFFF AND PUSH20 0xFFFFFFFFFFFFFFFFFFFFFFFFFFFFFFFFFFFFFFFF AND DUP2 MSTORE PUSH1 0x20 ADD PUSH1 0x3 DUP3 ADD SLOAD DUP2 MSTORE POP POP SWAP1 POP SWAP2 SWAP1 POP JUMP JUMPDEST PUSH1 0x1 SLOAD PUSH1 0x3 PUSH0 DUP4 DUP2 MSTORE PUSH1 0x20 ADD SWAP1 DUP2 MSTORE PUSH1 0x20 ADD PUSH0 KECCAK256 PUSH1 0x3 ADD SLOAD LT ISZERO PUSH2 0x4EF JUMPI PUSH0 PUSH1 0x3 PUSH0 DUP4 DUP2 MSTORE PUSH1 0x20 ADD SWAP1 DUP2 MSTORE PUSH1 0x20 ADD PUSH0 KECCAK256 PUSH1 0x3 ADD SLOAD SWAP1 POP CALLER PUSH20 0xFFFFFFFFFFFFFFFFFFFFFFFFFFFFFFFFFFFFFFFF AND PUSH2 0x8FC DUP3 SWAP1 DUP2 ISZERO MUL SWAP1 PUSH1 0x40 MLOAD PUSH0 PUSH1 0x40 MLOAD DUP1 DUP4 SUB DUP2 DUP6 DUP9 DUP9 CALL SWAP4 POP POP POP POP ISZERO DUP1 ISZERO PUSH2 0x486 JUMPI RETURNDATASIZE PUSH0 DUP1 RETURNDATACOPY RETURNDATASIZE PUSH0 REVERT JUMPDEST POP PUSH1 0x3 PUSH0 DUP1 PUSH2 0x100 EXP DUP2 SLOAD DUP2 PUSH1 0xFF MUL NOT AND SWAP1 DUP4 PUSH1 0x4 DUP2 GT ISZERO PUSH2 0x4AB JUMPI PUSH2 0x4AA PUSH2 0x1000 JUMP JUMPDEST JUMPDEST MUL OR SWAP1 SSTORE POP PUSH32 0x13449F70035221BFD809CB8D8994F004F2F917BBC10A9F431BFA7B3F423C0B25 CALLER CALLVALUE PUSH1 0x40 MLOAD PUSH2 0x4E1 SWAP3 SWAP2 SWAP1 PUSH2 0x102D JUMP JUMPDEST PUSH1 0x40 MLOAD DUP1 SWAP2 SUB SWAP1 LOG1 POP PUSH2 0x52A JUMP JUMPDEST PUSH1 0x40 MLOAD PUSH32 0x8C379A000000000000000000000000000000000000000000000000000000000 DUP2 MSTORE PUSH1 0x4 ADD PUSH2 0x521 SWAP1 PUSH2 0x109E JUMP JUMPDEST PUSH1 0x40 MLOAD DUP1 SWAP2 SUB SWAP1 REVERT JUMPDEST POP JUMP JUMPDEST PUSH1 0x4 SLOAD DUP2 JUMP JUMPDEST PUSH0 PUSH1 0x1 SWAP1 SLOAD SWAP1 PUSH2 0x100 EXP SWAP1 DIV PUSH20 0xFFFFFFFFFFFFFFFFFFFFFFFFFFFFFFFFFFFFFFFF AND PUSH20 0xFFFFFFFFFFFFFFFFFFFFFFFFFFFFFFFFFFFFFFFF AND CALLER PUSH20 0xFFFFFFFFFFFFFFFFFFFFFFFFFFFFFFFFFFFFFFFF AND EQ PUSH2 0x5C2 JUMPI PUSH1 0x40 MLOAD PUSH32 0x8C379A000000000000000000000000000000000000000000000000000000000 DUP2 MSTORE PUSH1 0x4 ADD PUSH2 0x5B9 SWAP1 PUSH2 0x1106 JUMP JUMPDEST PUSH1 0x40 MLOAD DUP1 SWAP2 SUB SWAP1 REVERT JUMPDEST PUSH0 PUSH1 0x15 SWAP1 SLOAD SWAP1 PUSH2 0x100 EXP SWAP1 DIV PUSH1 0xFF AND PUSH2 0x610 JUMPI PUSH1 0x40 MLOAD PUSH32 0x8C379A000000000000000000000000000000000000000000000000000000000 DUP2 MSTORE PUSH1 0x4 ADD PUSH2 0x607 SWAP1 PUSH2 0x116E JUMP JUMPDEST PUSH1 0x40 MLOAD DUP1 SWAP2 SUB SWAP1 REVERT JUMPDEST PUSH1 0x1 SLOAD PUSH1 0x3 PUSH0 DUP4 DUP2 MSTORE PUSH1 0x20 ADD SWAP1 DUP2 MSTORE PUSH1 0x20 ADD PUSH0 KECCAK256 PUSH1 0x3 ADD SLOAD LT PUSH2 0x755 JUMPI PUSH0 PUSH1 0x3 PUSH0 DUP4 DUP2 MSTORE PUSH1 0x20 ADD SWAP1 DUP2 MSTORE PUSH1 0x20 ADD PUSH0 KECCAK256 PUSH1 0x3 ADD SLOAD SWAP1 POP PUSH1 0x3 PUSH0 DUP4 DUP2 MSTORE PUSH1 0x20 ADD SWAP1 DUP2 MSTORE PUSH1 0x20 ADD PUSH0 KECCAK256 PUSH1 0x2 ADD PUSH0 SWAP1 SLOAD SWAP1 PUSH2 0x100 EXP SWAP1 DIV PUSH20 0xFFFFFFFFFFFFFFFFFFFFFFFFFFFFFFFFFFFFFFFF AND PUSH20 0xFFFFFFFFFFFFFFFFFFFFFFFFFFFFFFFFFFFFFFFF AND PUSH2 0x8FC DUP3 SWAP1 DUP2 ISZERO MUL SWAP1 PUSH1 0x40 MLOAD PUSH0 PUSH1 0x40 MLOAD DUP1 DUP4 SUB DUP2 DUP6 DUP9 DUP9 CALL SWAP4 POP POP POP POP ISZERO DUP1 ISZERO PUSH2 0x6BB JUMPI RETURNDATASIZE PUSH0 DUP1 RETURNDATACOPY RETURNDATASIZE PUSH0 REVERT JUMPDEST POP PUSH1 0x2 PUSH0 DUP1 PUSH2 0x100 EXP DUP2 SLOAD DUP2 PUSH1 0xFF MUL NOT AND SWAP1 DUP4 PUSH1 0x4 DUP2 GT ISZERO PUSH2 0x6E0 JUMPI PUSH2 0x6DF PUSH2 0x1000 JUMP JUMPDEST JUMPDEST MUL OR SWAP1 SSTORE POP PUSH32 0x1B6E211F4F9C831C65CF08F006C0BD582BFD54B8F87C3900C9ED95E426ECA5DB PUSH1 0x3 PUSH0 DUP5 DUP2 MSTORE PUSH1 0x20 ADD SWAP1 DUP2 MSTORE PUSH1 0x20 ADD PUSH0 KECCAK256 PUSH1 0x2 ADD PUSH0 SWAP1 SLOAD SWAP1 PUSH2 0x100 EXP SWAP1 DIV PUSH20 0xFFFFFFFFFFFFFFFFFFFFFFFFFFFFFFFFFFFFFFFF AND CALLVALUE DUP5 PUSH1 0x40 MLOAD PUSH2 0x74B SWAP4 SWAP3 SWAP2 SWAP1 PUSH2 0x118C JUMP JUMPDEST PUSH1 0x40 MLOAD DUP1 SWAP2 SUB SWAP1 LOG1 POP JUMPDEST PUSH2 0x75D PUSH2 0x760 JUMP JUMPDEST POP JUMP JUMPDEST PUSH0 DUP1 PUSH1 0x15 PUSH2 0x100 EXP DUP2 SLOAD DUP2 PUSH1 0xFF MUL NOT AND SWAP1 DUP4 ISZERO ISZERO MUL OR SWAP1 SSTORE POP JUMP JUMPDEST PUSH1 0x40 MLOAD DUP1 PUSH1 0x80 ADD PUSH1 0x40 MSTORE DUP1 DUP4 DUP2 MSTORE PUSH1 0x20 ADD DUP3 DUP2 MSTORE PUSH1 0x20 ADD CALLER PUSH20 0xFFFFFFFFFFFFFFFFFFFFFFFFFFFFFFFFFFFFFFFF AND DUP2 MSTORE PUSH1 0x20 ADD PUSH0 DUP2 MSTORE POP PUSH1 0x3 PUSH0 PUSH1 0x4 SLOAD DUP2 MSTORE PUSH1 0x20 ADD SWAP1 DUP2 MSTORE PUSH1 0x20 ADD PUSH0 KECCAK256 PUSH0 DUP3 ADD MLOAD DUP2 PUSH0 ADD SWAP1 DUP2 PUSH2 0x7D8 SWAP2 SWAP1 PUSH2 0x135E JUMP JUMPDEST POP PUSH1 0x20 DUP3 ADD MLOAD DUP2 PUSH1 0x1 ADD SWAP1 DUP2 PUSH2 0x7EE SWAP2 SWAP1 PUSH2 0x135E JUMP JUMPDEST POP PUSH1 0x40 DUP3 ADD MLOAD DUP2 PUSH1 0x2 ADD PUSH0 PUSH2 0x100 EXP DUP2 SLOAD DUP2 PUSH20 0xFFFFFFFFFFFFFFFFFFFFFFFFFFFFFFFFFFFFFFFF MUL NOT AND SWAP1 DUP4 PUSH20 0xFFFFFFFFFFFFFFFFFFFFFFFFFFFFFFFFFFFFFFFF AND MUL OR SWAP1 SSTORE POP PUSH1 0x60 DUP3 ADD MLOAD DUP2 PUSH1 0x3 ADD SSTORE SWAP1 POP POP PUSH1 0x4 PUSH0 DUP2 SLOAD DUP1 SWAP3 SWAP2 SWAP1 PUSH2 0x854 SWAP1 PUSH2 0x145A JUMP JUMPDEST SWAP2 SWAP1 POP SSTORE POP POP POP JUMP JUMPDEST PUSH2 0x867 DUP3 DUP3 PUSH2 0x77B JUMP JUMPDEST PUSH0 DUP1 PUSH0 PUSH2 0x100 EXP DUP2 SLOAD DUP2 PUSH1 0xFF MUL NOT AND SWAP1 DUP4 PUSH1 0x4 DUP2 GT ISZERO PUSH2 0x88A JUMPI PUSH2 0x889 PUSH2 0x1000 JUMP JUMPDEST JUMPDEST MUL OR SWAP1 SSTORE POP PUSH32 0xD9F5D2554288E53FF4638A508D2B24634F8F31FD61153E9EEB435B14DDFB210A CALLER DUP4 DUP4 PUSH1 0x40 MLOAD PUSH2 0x8C2 SWAP4 SWAP3 SWAP2 SWAP1 PUSH2 0x14A1 JUMP JUMPDEST PUSH1 0x40 MLOAD DUP1 SWAP2 SUB SWAP1 LOG1 POP POP JUMP JUMPDEST PUSH0 PUSH1 0x1 SWAP1 SLOAD SWAP1 PUSH2 0x100 EXP SWAP1 DIV PUSH20 0xFFFFFFFFFFFFFFFFFFFFFFFFFFFFFFFFFFFFFFFF AND DUP2 JUMP JUMPDEST PUSH1 0x3 PUSH1 0x20 MSTORE DUP1 PUSH0 MSTORE PUSH1 0x40 PUSH0 KECCAK256 PUSH0 SWAP2 POP SWAP1 POP DUP1 PUSH0 ADD DUP1 SLOAD PUSH2 0x912 SWAP1 PUSH2 0xFD0 JUMP JUMPDEST DUP1 PUSH1 0x1F ADD PUSH1 0x20 DUP1 SWAP2 DIV MUL PUSH1 0x20 ADD PUSH1 0x40 MLOAD SWAP1 DUP2 ADD PUSH1 0x40 MSTORE DUP1 SWAP3 SWAP2 SWAP1 DUP2 DUP2 MSTORE PUSH1 0x20 ADD DUP3 DUP1 SLOAD PUSH2 0x93E SWAP1 PUSH2 0xFD0 JUMP JUMPDEST DUP1 ISZERO PUSH2 0x989 JUMPI DUP1 PUSH1 0x1F LT PUSH2 0x960 JUMPI PUSH2 0x100 DUP1 DUP4 SLOAD DIV MUL DUP4 MSTORE SWAP2 PUSH1 0x20 ADD SWAP2 PUSH2 0x989 JUMP JUMPDEST DUP3 ADD SWAP2 SWAP1 PUSH0 MSTORE PUSH1 0x20 PUSH0 KECCAK256 SWAP1 JUMPDEST DUP2 SLOAD DUP2 MSTORE SWAP1 PUSH1 0x1 ADD SWAP1 PUSH1 0x20 ADD DUP1 DUP4 GT PUSH2 0x96C JUMPI DUP3 SWAP1 SUB PUSH1 0x1F AND DUP3 ADD SWAP2 JUMPDEST POP POP POP POP POP SWAP1 DUP1 PUSH1 0x1 ADD DUP1 SLOAD PUSH2 0x99E SWAP1 PUSH2 0xFD0 JUMP JUMPDEST DUP1 PUSH1 0x1F ADD PUSH1 0x20 DUP1 SWAP2 DIV MUL PUSH1 0x20 ADD PUSH1 0x40 MLOAD SWAP1 DUP2 ADD PUSH1 0x40 MSTORE DUP1 SWAP3 SWAP2 SWAP1 DUP2 DUP2 MSTORE PUSH1 0x20 ADD DUP3 DUP1 SLOAD PUSH2 0x9CA SWAP1 PUSH2 0xFD0 JUMP JUMPDEST DUP1 ISZERO PUSH2 0xA15 JUMPI DUP1 PUSH1 0x1F LT PUSH2 0x9EC JUMPI PUSH2 0x100 DUP1 DUP4 SLOAD DIV MUL DUP4 MSTORE SWAP2 PUSH1 0x20 ADD SWAP2 PUSH2 0xA15 JUMP JUMPDEST DUP3 ADD SWAP2 SWAP1 PUSH0 MSTORE PUSH1 0x20 PUSH0 KECCAK256 SWAP1 JUMPDEST DUP2 SLOAD DUP2 MSTORE SWAP1 PUSH1 0x1 ADD SWAP1 PUSH1 0x20 ADD DUP1 DUP4 GT PUSH2 0x9F8 JUMPI DUP3 SWAP1 SUB PUSH1 0x1F AND DUP3 ADD SWAP2 JUMPDEST POP POP POP POP POP SWAP1 DUP1 PUSH1 0x2 ADD PUSH0 SWAP1 SLOAD SWAP1 PUSH2 0x100 EXP SWAP1 DIV PUSH20 0xFFFFFFFFFFFFFFFFFFFFFFFFFFFFFFFFFFFFFFFF AND SWAP1 DUP1 PUSH1 0x3 ADD SLOAD SWAP1 POP DUP5 JUMP JUMPDEST CALLVALUE PUSH1 0x3 PUSH0 DUP4 DUP2 MSTORE PUSH1 0x20 ADD SWAP1 DUP2 MSTORE PUSH1 0x20 ADD PUSH0 KECCAK256 PUSH1 0x3 ADD PUSH0 DUP3 DUP3 SLOAD PUSH2 0xA6D SWAP2 SWAP1 PUSH2 0x14E4 JUMP JUMPDEST SWAP3 POP POP DUP2 SWAP1 SSTORE POP PUSH1 0x1 PUSH0 DUP1 PUSH2 0x100 EXP DUP2 SLOAD DUP2 PUSH1 0xFF MUL NOT AND SWAP1 DUP4 PUSH1 0x4 DUP2 GT ISZERO PUSH2 0xA98 JUMPI PUSH2 0xA97 PUSH2 0x1000 JUMP JUMPDEST JUMPDEST MUL OR SWAP1 SSTORE POP PUSH32 0x8D95679FA904410FC44D924272FCF3B64C4C835A7F5CD01517011921D8C806B5 CALLER CALLVALUE DUP4 PUSH1 0x40 MLOAD PUSH2 0xAD0 SWAP4 SWAP3 SWAP2 SWAP1 PUSH2 0x118C JUMP JUMPDEST PUSH1 0x40 MLOAD DUP1 SWAP2 SUB SWAP1 LOG1 POP JUMP JUMPDEST PUSH1 0x40 MLOAD DUP1 PUSH1 0x80 ADD PUSH1 0x40 MSTORE DUP1 PUSH1 0x60 DUP2 MSTORE PUSH1 0x20 ADD PUSH1 0x60 DUP2 MSTORE PUSH1 0x20 ADD PUSH0 PUSH20 0xFFFFFFFFFFFFFFFFFFFFFFFFFFFFFFFFFFFFFFFF AND DUP2 MSTORE PUSH1 0x20 ADD PUSH0 DUP2 MSTORE POP SWAP1 JUMP JUMPDEST PUSH0 DUP2 ISZERO ISZERO SWAP1 POP SWAP2 SWAP1 POP JUMP JUMPDEST PUSH2 0xB2B DUP2 PUSH2 0xB17 JUMP JUMPDEST DUP3 MSTORE POP POP JUMP JUMPDEST PUSH0 PUSH1 0x20 DUP3 ADD SWAP1 POP PUSH2 0xB44 PUSH0 DUP4 ADD DUP5 PUSH2 0xB22 JUMP JUMPDEST SWAP3 SWAP2 POP POP JUMP JUMPDEST PUSH0 PUSH1 0x40 MLOAD SWAP1 POP SWAP1 JUMP JUMPDEST PUSH0 DUP1 REVERT JUMPDEST PUSH0 DUP1 REVERT JUMPDEST PUSH0 DUP2 SWAP1 POP SWAP2 SWAP1 POP JUMP JUMPDEST PUSH2 0xB6D DUP2 PUSH2 0xB5B JUMP JUMPDEST DUP2 EQ PUSH2 0xB77 JUMPI PUSH0 DUP1 REVERT JUMPDEST POP JUMP JUMPDEST PUSH0 DUP2 CALLDATALOAD SWAP1 POP PUSH2 0xB88 DUP2 PUSH2 0xB64 JUMP JUMPDEST SWAP3 SWAP2 POP POP JUMP JUMPDEST PUSH0 PUSH1 0x20 DUP3 DUP5 SUB SLT ISZERO PUSH2 0xBA3 JUMPI PUSH2 0xBA2 PUSH2 0xB53 JUMP JUMPDEST JUMPDEST PUSH0 PUSH2 0xBB0 DUP5 DUP3 DUP6 ADD PUSH2 0xB7A JUMP JUMPDEST SWAP2 POP POP SWAP3 SWAP2 POP POP JUMP JUMPDEST PUSH0 DUP2 MLOAD SWAP1 POP SWAP2 SWAP1 POP JUMP JUMPDEST PUSH0 DUP3 DUP3 MSTORE PUSH1 0x20 DUP3 ADD SWAP1 POP SWAP3 SWAP2 POP POP JUMP JUMPDEST PUSH0 JUMPDEST DUP4 DUP2 LT ISZERO PUSH2 0xBF0 JUMPI DUP1 DUP3 ADD MLOAD DUP2 DUP5 ADD MSTORE PUSH1 0x20 DUP2 ADD SWAP1 POP PUSH2 0xBD5 JUMP JUMPDEST PUSH0 DUP5 DUP5 ADD MSTORE POP POP POP POP JUMP JUMPDEST PUSH0 PUSH1 0x1F NOT PUSH1 0x1F DUP4 ADD AND SWAP1 POP SWAP2 SWAP1 POP JUMP JUMPDEST PUSH0 PUSH2 0xC15 DUP3 PUSH2 0xBB9 JUMP JUMPDEST PUSH2 0xC1F DUP2 DUP6 PUSH2 0xBC3 JUMP JUMPDEST SWAP4 POP PUSH2 0xC2F DUP2 DUP6 PUSH1 0x20 DUP7 ADD PUSH2 0xBD3 JUMP JUMPDEST PUSH2 0xC38 DUP2 PUSH2 0xBFB JUMP JUMPDEST DUP5 ADD SWAP2 POP POP SWAP3 SWAP2 POP POP JUMP JUMPDEST PUSH0 PUSH20 0xFFFFFFFFFFFFFFFFFFFFFFFFFFFFFFFFFFFFFFFF DUP3 AND SWAP1 POP SWAP2 SWAP1 POP JUMP JUMPDEST PUSH0 PUSH2 0xC6C DUP3 PUSH2 0xC43 JUMP JUMPDEST SWAP1 POP SWAP2 SWAP1 POP JUMP JUMPDEST PUSH2 0xC7C DUP2 PUSH2 0xC62 JUMP JUMPDEST DUP3 MSTORE POP POP JUMP JUMPDEST PUSH2 0xC8B DUP2 PUSH2 0xB5B JUMP JUMPDEST DUP3 MSTORE POP POP JUMP JUMPDEST PUSH0 PUSH1 0x80 DUP4 ADD PUSH0 DUP4 ADD MLOAD DUP5 DUP3 SUB PUSH0 DUP7 ADD MSTORE PUSH2 0xCAB DUP3 DUP3 PUSH2 0xC0B JUMP JUMPDEST SWAP2 POP POP PUSH1 0x20 DUP4 ADD MLOAD DUP5 DUP3 SUB PUSH1 0x20 DUP7 ADD MSTORE PUSH2 0xCC5 DUP3 DUP3 PUSH2 0xC0B JUMP JUMPDEST SWAP2 POP POP PUSH1 0x40 DUP4 ADD MLOAD PUSH2 0xCDA PUSH1 0x40 DUP7 ADD DUP3 PUSH2 0xC73 JUMP JUMPDEST POP PUSH1 0x60 DUP4 ADD MLOAD PUSH2 0xCED PUSH1 0x60 DUP7 ADD DUP3 PUSH2 0xC82 JUMP JUMPDEST POP DUP1 SWAP2 POP POP SWAP3 SWAP2 POP POP JUMP JUMPDEST PUSH0 PUSH1 0x20 DUP3 ADD SWAP1 POP DUP2 DUP2 SUB PUSH0 DUP4 ADD MSTORE PUSH2 0xD10 DUP2 DUP5 PUSH2 0xC91 JUMP JUMPDEST SWAP1 POP SWAP3 SWAP2 POP POP JUMP JUMPDEST PUSH2 0xD21 DUP2 PUSH2 0xB5B JUMP JUMPDEST DUP3 MSTORE POP POP JUMP JUMPDEST PUSH0 PUSH1 0x20 DUP3 ADD SWAP1 POP PUSH2 0xD3A PUSH0 DUP4 ADD DUP5 PUSH2 0xD18 JUMP JUMPDEST SWAP3 SWAP2 POP POP JUMP JUMPDEST PUSH0 DUP1 REVERT JUMPDEST PUSH0 DUP1 REVERT JUMPDEST PUSH32 0x4E487B7100000000000000000000000000000000000000000000000000000000 PUSH0 MSTORE PUSH1 0x41 PUSH1 0x4 MSTORE PUSH1 0x24 PUSH0 REVERT JUMPDEST PUSH2 0xD7E DUP3 PUSH2 0xBFB JUMP JUMPDEST DUP2 ADD DUP2 DUP2 LT PUSH8 0xFFFFFFFFFFFFFFFF DUP3 GT OR ISZERO PUSH2 0xD9D JUMPI PUSH2 0xD9C PUSH2 0xD48 JUMP JUMPDEST JUMPDEST DUP1 PUSH1 0x40 MSTORE POP POP POP JUMP JUMPDEST PUSH0 PUSH2 0xDAF PUSH2 0xB4A JUMP JUMPDEST SWAP1 POP PUSH2 0xDBB DUP3 DUP3 PUSH2 0xD75 JUMP JUMPDEST SWAP2 SWAP1 POP JUMP JUMPDEST PUSH0 PUSH8 0xFFFFFFFFFFFFFFFF DUP3 GT ISZERO PUSH2 0xDDA JUMPI PUSH2 0xDD9 PUSH2 0xD48 JUMP JUMPDEST JUMPDEST PUSH2 0xDE3 DUP3 PUSH2 0xBFB JUMP JUMPDEST SWAP1 POP PUSH1 0x20 DUP2 ADD SWAP1 POP SWAP2 SWAP1 POP JUMP JUMPDEST DUP3 DUP2 DUP4 CALLDATACOPY PUSH0 DUP4 DUP4 ADD MSTORE POP POP POP JUMP JUMPDEST PUSH0 PUSH2 0xE10 PUSH2 0xE0B DUP5 PUSH2 0xDC0 JUMP JUMPDEST PUSH2 0xDA6 JUMP JUMPDEST SWAP1 POP DUP3 DUP2 MSTORE PUSH1 0x20 DUP2 ADD DUP5 DUP5 DUP5 ADD GT ISZERO PUSH2 0xE2C JUMPI PUSH2 0xE2B PUSH2 0xD44 JUMP JUMPDEST JUMPDEST PUSH2 0xE37 DUP5 DUP3 DUP6 PUSH2 0xDF0 JUMP JUMPDEST POP SWAP4 SWAP3 POP POP POP JUMP JUMPDEST PUSH0 DUP3 PUSH1 0x1F DUP4 ADD SLT PUSH2 0xE53 JUMPI PUSH2 0xE52 PUSH2 0xD40 JUMP JUMPDEST JUMPDEST DUP2 CALLDATALOAD PUSH2 0xE63 DUP5 DUP3 PUSH1 0x20 DUP7 ADD PUSH2 0xDFE JUMP JUMPDEST SWAP2 POP POP SWAP3 SWAP2 POP POP JUMP JUMPDEST PUSH0 DUP1 PUSH1 0x40 DUP4 DUP6 SUB SLT ISZERO PUSH2 0xE82 JUMPI PUSH2 0xE81 PUSH2 0xB53 JUMP JUMPDEST JUMPDEST PUSH0 DUP4 ADD CALLDATALOAD PUSH8 0xFFFFFFFFFFFFFFFF DUP2 GT ISZERO PUSH2 0xE9F JUMPI PUSH2 0xE9E PUSH2 0xB57 JUMP JUMPDEST JUMPDEST PUSH2 0xEAB DUP6 DUP3 DUP7 ADD PUSH2 0xE3F JUMP JUMPDEST SWAP3 POP POP PUSH1 0x20 DUP4 ADD CALLDATALOAD PUSH8 0xFFFFFFFFFFFFFFFF DUP2 GT ISZERO PUSH2 0xECC JUMPI PUSH2 0xECB PUSH2 0xB57 JUMP JUMPDEST JUMPDEST PUSH2 0xED8 DUP6 DUP3 DUP7 ADD PUSH2 0xE3F JUMP JUMPDEST SWAP2 POP POP SWAP3 POP SWAP3 SWAP1 POP JUMP JUMPDEST PUSH2 0xEEB DUP2 PUSH2 0xC62 JUMP JUMPDEST DUP3 MSTORE POP POP JUMP JUMPDEST PUSH0 PUSH1 0x20 DUP3 ADD SWAP1 POP PUSH2 0xF04 PUSH0 DUP4 ADD DUP5 PUSH2 0xEE2 JUMP JUMPDEST SWAP3 SWAP2 POP POP JUMP JUMPDEST PUSH0 DUP3 DUP3 MSTORE PUSH1 0x20 DUP3 ADD SWAP1 POP SWAP3 SWAP2 POP POP JUMP JUMPDEST PUSH0 PUSH2 0xF24 DUP3 PUSH2 0xBB9 JUMP JUMPDEST PUSH2 0xF2E DUP2 DUP6 PUSH2 0xF0A JUMP JUMPDEST SWAP4 POP PUSH2 0xF3E DUP2 DUP6 PUSH1 0x20 DUP7 ADD PUSH2 0xBD3 JUMP JUMPDEST PUSH2 0xF47 DUP2 PUSH2 0xBFB JUMP JUMPDEST DUP5 ADD SWAP2 POP POP SWAP3 SWAP2 POP POP JUMP JUMPDEST PUSH0 PUSH1 0x80 DUP3 ADD SWAP1 POP DUP2 DUP2 SUB PUSH0 DUP4 ADD MSTORE PUSH2 0xF6A DUP2 DUP8 PUSH2 0xF1A JUMP JUMPDEST SWAP1 POP DUP2 DUP2 SUB PUSH1 0x20 DUP4 ADD MSTORE PUSH2 0xF7E DUP2 DUP7 PUSH2 0xF1A JUMP JUMPDEST SWAP1 POP PUSH2 0xF8D PUSH1 0x40 DUP4 ADD DUP6 PUSH2 0xEE2 JUMP JUMPDEST PUSH2 0xF9A PUSH1 0x60 DUP4 ADD DUP5 PUSH2 0xD18 JUMP JUMPDEST SWAP6 SWAP5 POP POP POP POP POP JUMP JUMPDEST PUSH32 0x4E487B7100000000000000000000000000000000000000000000000000000000 PUSH0 MSTORE PUSH1 0x22 PUSH1 0x4 MSTORE PUSH1 0x24 PUSH0 REVERT JUMPDEST PUSH0 PUSH1 0x2 DUP3 DIV SWAP1 POP PUSH1 0x1 DUP3 AND DUP1 PUSH2 0xFE7 JUMPI PUSH1 0x7F DUP3 AND SWAP2 POP JUMPDEST PUSH1 0x20 DUP3 LT DUP2 SUB PUSH2 0xFFA JUMPI PUSH2 0xFF9 PUSH2 0xFA3 JUMP JUMPDEST JUMPDEST POP SWAP2 SWAP1 POP JUMP JUMPDEST PUSH32 0x4E487B7100000000000000000000000000000000000000000000000000000000 PUSH0 MSTORE PUSH1 0x21 PUSH1 0x4 MSTORE PUSH1 0x24 PUSH0 REVERT JUMPDEST PUSH0 PUSH1 0x40 DUP3 ADD SWAP1 POP PUSH2 0x1040 PUSH0 DUP4 ADD DUP6 PUSH2 0xEE2 JUMP JUMPDEST PUSH2 0x104D PUSH1 0x20 DUP4 ADD DUP5 PUSH2 0xD18 JUMP JUMPDEST SWAP4 SWAP3 POP POP POP JUMP JUMPDEST PUSH32 0x752063616E277420726566756E6420616D6F756E740000000000000000000000 PUSH0 DUP3 ADD MSTORE POP JUMP JUMPDEST PUSH0 PUSH2 0x1088 PUSH1 0x15 DUP4 PUSH2 0xF0A JUMP JUMPDEST SWAP2 POP PUSH2 0x1093 DUP3 PUSH2 0x1054 JUMP JUMPDEST PUSH1 0x20 DUP3 ADD SWAP1 POP SWAP2 SWAP1 POP JUMP JUMPDEST PUSH0 PUSH1 0x20 DUP3 ADD SWAP1 POP DUP2 DUP2 SUB PUSH0 DUP4 ADD MSTORE PUSH2 0x10B5 DUP2 PUSH2 0x107C JUMP JUMPDEST SWAP1 POP SWAP2 SWAP1 POP JUMP JUMPDEST PUSH32 0x6F6E6C79206F776E65722063616E2075736520746869732066756E6374696F6E PUSH0 DUP3 ADD MSTORE POP JUMP JUMPDEST PUSH0 PUSH2 0x10F0 PUSH1 0x20 DUP4 PUSH2 0xF0A JUMP JUMPDEST SWAP2 POP PUSH2 0x10FB DUP3 PUSH2 0x10BC JUMP JUMPDEST PUSH1 0x20 DUP3 ADD SWAP1 POP SWAP2 SWAP1 POP JUMP JUMPDEST PUSH0 PUSH1 0x20 DUP3 ADD SWAP1 POP DUP2 DUP2 SUB PUSH0 DUP4 ADD MSTORE PUSH2 0x111D DUP2 PUSH2 0x10E4 JUMP JUMPDEST SWAP1 POP SWAP2 SWAP1 POP JUMP JUMPDEST PUSH32 0x7374617465206973206E6F742061637469766500000000000000000000000000 PUSH0 DUP3 ADD MSTORE POP JUMP JUMPDEST PUSH0 PUSH2 0x1158 PUSH1 0x13 DUP4 PUSH2 0xF0A JUMP JUMPDEST SWAP2 POP PUSH2 0x1163 DUP3 PUSH2 0x1124 JUMP JUMPDEST PUSH1 0x20 DUP3 ADD SWAP1 POP SWAP2 SWAP1 POP JUMP JUMPDEST PUSH0 PUSH1 0x20 DUP3 ADD SWAP1 POP DUP2 DUP2 SUB PUSH0 DUP4 ADD MSTORE PUSH2 0x1185 DUP2 PUSH2 0x114C JUMP JUMPDEST SWAP1 POP SWAP2 SWAP1 POP JUMP JUMPDEST PUSH0 PUSH1 0x60 DUP3 ADD SWAP1 POP PUSH2 0x119F PUSH0 DUP4 ADD DUP7 PUSH2 0xEE2 JUMP JUMPDEST PUSH2 0x11AC PUSH1 0x20 DUP4 ADD DUP6 PUSH2 0xD18 JUMP JUMPDEST PUSH2 0x11B9 PUSH1 0x40 DUP4 ADD DUP5 PUSH2 0xD18 JUMP JUMPDEST SWAP5 SWAP4 POP POP POP POP JUMP JUMPDEST PUSH0 DUP2 SWAP1 POP DUP2 PUSH0 MSTORE PUSH1 0x20 PUSH0 KECCAK256 SWAP1 POP SWAP2 SWAP1 POP JUMP JUMPDEST PUSH0 PUSH1 0x20 PUSH1 0x1F DUP4 ADD DIV SWAP1 POP SWAP2 SWAP1 POP JUMP JUMPDEST PUSH0 DUP3 DUP3 SHL SWAP1 POP SWAP3 SWAP2 POP POP JUMP JUMPDEST PUSH0 PUSH1 0x8 DUP4 MUL PUSH2 0x121D PUSH32 0xFFFFFFFFFFFFFFFFFFFFFFFFFFFFFFFFFFFFFFFFFFFFFFFFFFFFFFFFFFFFFFFF DUP3 PUSH2 0x11E2 JUMP JUMPDEST PUSH2 0x1227 DUP7 DUP4 PUSH2 0x11E2 JUMP JUMPDEST SWAP6 POP DUP1 NOT DUP5 AND SWAP4 POP DUP1 DUP7 AND DUP5 OR SWAP3 POP POP POP SWAP4 SWAP3 POP POP POP JUMP JUMPDEST PUSH0 DUP2 SWAP1 POP SWAP2 SWAP1 POP JUMP JUMPDEST PUSH0 PUSH2 0x1262 PUSH2 0x125D PUSH2 0x1258 DUP5 PUSH2 0xB5B JUMP JUMPDEST PUSH2 0x123F JUMP JUMPDEST PUSH2 0xB5B JUMP JUMPDEST SWAP1 POP SWAP2 SWAP1 POP JUMP JUMPDEST PUSH0 DUP2 SWAP1 POP SWAP2 SWAP1 POP JUMP JUMPDEST PUSH2 0x127B DUP4 PUSH2 0x1248 JUMP JUMPDEST PUSH2 0x128F PUSH2 0x1287 DUP3 PUSH2 0x1269 JUMP JUMPDEST DUP5 DUP5 SLOAD PUSH2 0x11EE JUMP JUMPDEST DUP3 SSTORE POP POP POP POP JUMP JUMPDEST PUSH0 SWAP1 JUMP JUMPDEST PUSH2 0x12A3 PUSH2 0x1297 JUMP JUMPDEST PUSH2 0x12AE DUP2 DUP5 DUP5 PUSH2 0x1272 JUMP JUMPDEST POP POP POP JUMP JUMPDEST JUMPDEST DUP2 DUP2 LT ISZERO PUSH2 0x12D1 JUMPI PUSH2 0x12C6 PUSH0 DUP3 PUSH2 0x129B JUMP JUMPDEST PUSH1 0x1 DUP2 ADD SWAP1 POP PUSH2 0x12B4 JUMP JUMPDEST POP POP JUMP JUMPDEST PUSH1 0x1F DUP3 GT ISZERO PUSH2 0x1316 JUMPI PUSH2 0x12E7 DUP2 PUSH2 0x11C1 JUMP JUMPDEST PUSH2 0x12F0 DUP5 PUSH2 0x11D3 JUMP JUMPDEST DUP2 ADD PUSH1 0x20 DUP6 LT ISZERO PUSH2 0x12FF JUMPI DUP2 SWAP1 POP JUMPDEST PUSH2 0x1313 PUSH2 0x130B DUP6 PUSH2 0x11D3 JUMP JUMPDEST DUP4 ADD DUP3 PUSH2 0x12B3 JUMP JUMPDEST POP POP JUMPDEST POP POP POP JUMP JUMPDEST PUSH0 DUP3 DUP3 SHR SWAP1 POP SWAP3 SWAP2 POP POP JUMP JUMPDEST PUSH0 PUSH2 0x1336 PUSH0 NOT DUP5 PUSH1 0x8 MUL PUSH2 0x131B JUMP JUMPDEST NOT DUP1 DUP4 AND SWAP2 POP POP SWAP3 SWAP2 POP POP JUMP JUMPDEST PUSH0 PUSH2 0x134E DUP4 DUP4 PUSH2 0x1327 JUMP JUMPDEST SWAP2 POP DUP3 PUSH1 0x2 MUL DUP3 OR SWAP1 POP SWAP3 SWAP2 POP POP JUMP JUMPDEST PUSH2 0x1367 DUP3 PUSH2 0xBB9 JUMP JUMPDEST PUSH8 0xFFFFFFFFFFFFFFFF DUP2 GT ISZERO PUSH2 0x1380 JUMPI PUSH2 0x137F PUSH2 0xD48 JUMP JUMPDEST JUMPDEST PUSH2 0x138A DUP3 SLOAD PUSH2 0xFD0 JUMP JUMPDEST PUSH2 0x1395 DUP3 DUP3 DUP6 PUSH2 0x12D5 JUMP JUMPDEST PUSH0 PUSH1 0x20 SWAP1 POP PUSH1 0x1F DUP4 GT PUSH1 0x1 DUP2 EQ PUSH2 0x13C6 JUMPI PUSH0 DUP5 ISZERO PUSH2 0x13B4 JUMPI DUP3 DUP8 ADD MLOAD SWAP1 POP JUMPDEST PUSH2 0x13BE DUP6 DUP3 PUSH2 0x1343 JUMP JUMPDEST DUP7 SSTORE POP PUSH2 0x1425 JUMP JUMPDEST PUSH1 0x1F NOT DUP5 AND PUSH2 0x13D4 DUP7 PUSH2 0x11C1 JUMP JUMPDEST PUSH0 JUMPDEST DUP3 DUP2 LT ISZERO PUSH2 0x13FB JUMPI DUP5 DUP10 ADD MLOAD DUP3 SSTORE PUSH1 0x1 DUP3 ADD SWAP2 POP PUSH1 0x20 DUP6 ADD SWAP5 POP PUSH1 0x20 DUP2 ADD SWAP1 POP PUSH2 0x13D6 JUMP JUMPDEST DUP7 DUP4 LT ISZERO PUSH2 0x1418 JUMPI DUP5 DUP10 ADD MLOAD PUSH2 0x1414 PUSH1 0x1F DUP10 AND DUP3 PUSH2 0x1327 JUMP JUMPDEST DUP4 SSTORE POP JUMPDEST PUSH1 0x1 PUSH1 0x2 DUP9 MUL ADD DUP9 SSTORE POP POP POP JUMPDEST POP POP POP POP POP POP JUMP JUMPDEST PUSH32 0x4E487B7100000000000000000000000000000000000000000000000000000000 PUSH0 MSTORE PUSH1 0x11 PUSH1 0x4 MSTORE PUSH1 0x24 PUSH0 REVERT JUMPDEST PUSH0 PUSH2 0x1464 DUP3 PUSH2 0xB5B JUMP JUMPDEST SWAP2 POP PUSH32 0xFFFFFFFFFFFFFFFFFFFFFFFFFFFFFFFFFFFFFFFFFFFFFFFFFFFFFFFFFFFFFFFF DUP3 SUB PUSH2 0x1496 JUMPI PUSH2 0x1495 PUSH2 0x142D JUMP JUMPDEST JUMPDEST PUSH1 0x1 DUP3 ADD SWAP1 POP SWAP2 SWAP1 POP JUMP JUMPDEST PUSH0 PUSH1 0x60 DUP3 ADD SWAP1 POP PUSH2 0x14B4 PUSH0 DUP4 ADD DUP7 PUSH2 0xEE2 JUMP JUMPDEST DUP2 DUP2 SUB PUSH1 0x20 DUP4 ADD MSTORE PUSH2 0x14C6 DUP2 DUP6 PUSH2 0xF1A JUMP JUMPDEST SWAP1 POP DUP2 DUP2 SUB PUSH1 0x40 DUP4 ADD MSTORE PUSH2 0x14DA DUP2 DUP5 PUSH2 0xF1A JUMP JUMPDEST SWAP1 POP SWAP5 SWAP4 POP POP POP POP JUMP JUMPDEST PUSH0 PUSH2 0x14EE DUP3 PUSH2 0xB5B JUMP JUMPDEST SWAP2 POP PUSH2 0x14F9 DUP4 PUSH2 0xB5B JUMP JUMPDEST SWAP3 POP DUP3 DUP3 ADD SWAP1 POP DUP1 DUP3 GT ISZERO PUSH2 0x1511 JUMPI PUSH2 0x1510 PUSH2 0x142D JUMP JUMPDEST JUMPDEST SWAP3 SWAP2 POP POP JUMP INVALID LOG2 PUSH5 0x6970667358 0x22 SLT KECCAK256 NUMBER PUSH22 0xB931ADAF535EF53BA9350305D84112B485AFEE1F52F4 DUP1 0xA8 0x5C ORIGIN BLOCKHASH 0xD8 0xED DUP8 PUSH5 0x736F6C6343 STOP ADDMOD AND STOP CALLER "
				},
				"gasEstimates": {
					"creation": {
						"codeDepositCost": "1090600",
						"executionCost": "infinite",
						"totalCost": "infinite"
					},
					"external": {
						"active()": "2517",
						"claim(uint256)": "infinite",
						"contribution(uint256)": "infinite",
						"creation(string,string)": "infinite",
						"deactivate()": "24459",
						"fund(uint256)": "infinite",
						"getUserDetails(uint256)": "infinite",
						"index()": "2492",
						"owner()": "2624",
						"refund(uint256)": "infinite",
						"user_add(string,string)": "infinite"
					}
				},
				"methodIdentifiers": {
					"active()": "02fb0c5e",
					"claim(uint256)": "379607f5",
					"contribution(uint256)": "e8709c40",
					"creation(string,string)": "860e4565",
					"deactivate()": "51b42b00",
					"fund(uint256)": "ca1d209d",
					"getUserDetails(uint256)": "1c1a9f7b",
					"index()": "2986c0e5",
					"owner()": "8da5cb5b",
					"refund(uint256)": "278ecde1",
					"user_add(string,string)": "6e613bb9"
				}
			},
			"storageLayout": {
				"storage": [
					{
						"astId": 10,
						"contract": "contracts/campaign.sol:compaign",
						"label": "state",
						"offset": 0,
						"slot": "0",
						"type": "t_enum(check_state)7"
					},
					{
						"astId": 42,
						"contract": "contracts/campaign.sol:compaign",
						"label": "owner",
						"offset": 1,
						"slot": "0",
						"type": "t_address"
					},
					{
						"astId": 44,
						"contract": "contracts/campaign.sol:compaign",
						"label": "active",
						"offset": 21,
						"slot": "0",
						"type": "t_bool"
					},
					{
						"astId": 47,
						"contract": "contracts/campaign.sol:compaign",
						"label": "goal",
						"offset": 0,
						"slot": "1",
						"type": "t_uint256"
					},
					{
						"astId": 53,
						"contract": "contracts/campaign.sol:compaign",
						"label": "endtime",
						"offset": 0,
						"slot": "2",
						"type": "t_uint256"
					},
					{
						"astId": 121,
						"contract": "contracts/campaign.sol:compaign",
						"label": "fund",
						"offset": 0,
						"slot": "3",
						"type": "t_mapping(t_uint256,t_struct(funding)116_storage)"
					},
					{
						"astId": 123,
						"contract": "contracts/campaign.sol:compaign",
						"label": "index",
						"offset": 0,
						"slot": "4",
						"type": "t_uint256"
					}
				],
				"types": {
					"t_address": {
						"encoding": "inplace",
						"label": "address",
						"numberOfBytes": "20"
					},
					"t_bool": {
						"encoding": "inplace",
						"label": "bool",
						"numberOfBytes": "1"
					},
					"t_enum(check_state)7": {
						"encoding": "inplace",
						"label": "enum compaign.check_state",
						"numberOfBytes": "1"
					},
					"t_mapping(t_uint256,t_struct(funding)116_storage)": {
						"encoding": "mapping",
						"key": "t_uint256",
						"label": "mapping(uint256 => struct compaign.funding)",
						"numberOfBytes": "32",
						"value": "t_struct(funding)116_storage"
					},
					"t_string_storage": {
						"encoding": "bytes",
						"label": "string",
						"numberOfBytes": "32"
					},
					"t_struct(funding)116_storage": {
						"encoding": "inplace",
						"label": "struct compaign.funding",
						"members": [
							{
								"astId": 109,
								"contract": "contracts/campaign.sol:compaign",
								"label": "name",
								"offset": 0,
								"slot": "0",
								"type": "t_string_storage"
							},
							{
								"astId": 111,
								"contract": "contracts/campaign.sol:compaign",
								"label": "discription",
								"offset": 0,
								"slot": "1",
								"type": "t_string_storage"
							},
							{
								"astId": 113,
								"contract": "contracts/campaign.sol:compaign",
								"label": "owner",
								"offset": 0,
								"slot": "2",
								"type": "t_address"
							},
							{
								"astId": 115,
								"contract": "contracts/campaign.sol:compaign",
								"label": "raisedAmount",
								"offset": 0,
								"slot": "3",
								"type": "t_uint256"
							}
						],
						"numberOfBytes": "128"
					},
					"t_uint256": {
						"encoding": "inplace",
						"label": "uint256",
						"numberOfBytes": "32"
					}
				}
			},
			"userdoc": {
				"kind": "user",
				"methods": {},
				"version": 1
			}
		}
	}
}