{
	"data": {
		"bytecode": {
			"linkReferences": {},
			"object": "60806040526102584261001291906100a8565b6001556801158e460913d0000060025534801561002d575f80fd5b50335f806101000a81548173ffffffffffffffffffffffffffffffffffffffff021916908373ffffffffffffffffffffffffffffffffffffffff1602179055506100db565b5f819050919050565b7f4e487b71000000000000000000000000000000000000000000000000000000005f52601160045260245ffd5b5f6100b282610072565b91506100bd83610072565b92508282019050808211156100d5576100d461007b565b5b92915050565b61147180620000e95f395ff3fe608060405260043610610085575f3560e01c8063384f58eb11610058578063384f58eb1461013f578063478a4be5146101695780637ef36b0b14610193578063af640d0f146101bb578063e8709c40146101e557610085565b806310445b2b14610089578063278ecde1146100c55780632ca126f8146100ed578063379607f514610117575b5f80fd5b348015610094575f80fd5b506100af60048036038101906100aa9190610a17565b610201565b6040516100bc9190610c1a565b60405180910390f35b3480156100d0575f80fd5b506100eb60048036038101906100e69190610a17565b6103ee565b005b3480156100f8575f80fd5b50610101610529565b60405161010e9190610c49565b60405180910390f35b348015610122575f80fd5b5061013d60048036038101906101389190610a17565b61052f565b005b34801561014a575f80fd5b506101536106d9565b6040516101609190610c71565b60405180910390f35b348015610174575f80fd5b5061017d6106fc565b60405161018a9190610c49565b60405180910390f35b34801561019e575f80fd5b506101b960048036038101906101b49190610db6565b610702565b005b3480156101c6575f80fd5b506101cf61074f565b6040516101dc9190610c49565b60405180910390f35b6101ff60048036038101906101fa9190610a17565b610755565b005b610209610979565b60035f8381526020019081526020015f206040518060c00160405290815f8201805461023490610e6b565b80601f016020809104026020016040519081016040528092919081815260200182805461026090610e6b565b80156102ab5780601f10610282576101008083540402835291602001916102ab565b820191905f5260205f20905b81548152906001019060200180831161028e57829003601f168201915b505050505081526020016001820180546102c490610e6b565b80601f01602080910402602001604051908101604052809291908181526020018280546102f090610e6b565b801561033b5780601f106103125761010080835404028352916020019161033b565b820191905f5260205f20905b81548152906001019060200180831161031e57829003601f168201915b50505050508152602001600282015f9054906101000a900473ffffffffffffffffffffffffffffffffffffffff1673ffffffffffffffffffffffffffffffffffffffff1673ffffffffffffffffffffffffffffffffffffffff1681526020016003820154815260200160048201548152602001600582015f9054906101000a900460ff1660018111156103d1576103d0610b1a565b5b60018111156103e3576103e2610b1a565b5b815250509050919050565b6001544211610432576040517f08c379a000000000000000000000000000000000000000000000000000000000815260040161042990610f1b565b60405180910390fd5b60025460035f8381526020019081526020015f206004015410156104eb575f60035f8381526020019081526020015f206004015490503373ffffffffffffffffffffffffffffffffffffffff166108fc8290811502906040515f60405180830381858888f193505050501580156104ab573d5f803e3d5ffd5b507f24fe69b53cc1964769de08b395835da5501e4e7d08b104cd5a91e0ec6e4ef05633836040516104dd929190610f39565b60405180910390a150610526565b6040517f08c379a000000000000000000000000000000000000000000000000000000000815260040161051d90610faa565b60405180910390fd5b50565b60015481565b600154421115610574576040517f08c379a000000000000000000000000000000000000000000000000000000000815260040161056b90611038565b60405180910390fd5b60025460035f8381526020019081526020015f20600401541061069b575f60035f8381526020019081526020015f2060040154905060035f8381526020019081526020015f206002015f9054906101000a900473ffffffffffffffffffffffffffffffffffffffff1673ffffffffffffffffffffffffffffffffffffffff166108fc8290811502906040515f60405180830381858888f1935050505015801561061f573d5f803e3d5ffd5b50600160035f8481526020019081526020015f206005015f6101000a81548160ff0219169083600181111561065757610656610b1a565b5b02179055507fe1e5a82ebf9d017c4f17e01e0622662a2c540c061eb8114d1fb9a236117c1577338360405161068d929190610f39565b60405180910390a1506106d6565b6040517f08c379a00000000000000000000000000000000000000000000000000000000081526004016106cd906110a0565b60405180910390fd5b50565b5f8054906101000a900473ffffffffffffffffffffffffffffffffffffffff1681565b60025481565b61070d83838361083f565b7f8b31ea9685600c6ebf23806a945f466bedd917485d545655fd6c693fbf14373d3360045483604051610742939291906110be565b60405180910390a1505050565b60045481565b60015442111561079a576040517f08c379a000000000000000000000000000000000000000000000000000000000815260040161079190611038565b60405180910390fd5b3460035f8381526020019081526020015f206004015f8282546107bd9190611120565b925050819055505f60035f60045481526020019081526020015f206005015f6101000a81548160ff021916908360018111156107fc576107fb610b1a565b5b02179055507f8952ac1e80fc86d8ccb4c9bb2b1df4ba33b963fdc98de332d4d07a43ddddc46281333460405161083493929190611153565b60405180910390a150565b6040518060c001604052808481526020018381526020013373ffffffffffffffffffffffffffffffffffffffff1681526020018281526020015f81526020015f600181111561089157610890610b1a565b5b81525060035f60045481526020019081526020015f205f820151815f0190816108ba9190611325565b5060208201518160010190816108d09190611325565b506040820151816002015f6101000a81548173ffffffffffffffffffffffffffffffffffffffff021916908373ffffffffffffffffffffffffffffffffffffffff160217905550606082015181600301556080820151816004015560a0820151816005015f6101000a81548160ff0219169083600181111561095557610954610b1a565b5b021790555090505060045f81548092919061096f906113f4565b9190505550505050565b6040518060c0016040528060608152602001606081526020015f73ffffffffffffffffffffffffffffffffffffffff1681526020015f81526020015f81526020015f60018111156109cd576109cc610b1a565b5b81525090565b5f604051905090565b5f80fd5b5f80fd5b5f819050919050565b6109f6816109e4565b8114610a00575f80fd5b50565b5f81359050610a11816109ed565b92915050565b5f60208284031215610a2c57610a2b6109dc565b5b5f610a3984828501610a03565b91505092915050565b5f81519050919050565b5f82825260208201905092915050565b5f5b83811015610a79578082015181840152602081019050610a5e565b5f8484015250505050565b5f601f19601f8301169050919050565b5f610a9e82610a42565b610aa88185610a4c565b9350610ab8818560208601610a5c565b610ac181610a84565b840191505092915050565b5f73ffffffffffffffffffffffffffffffffffffffff82169050919050565b5f610af582610acc565b9050919050565b610b0581610aeb565b82525050565b610b14816109e4565b82525050565b7f4e487b71000000000000000000000000000000000000000000000000000000005f52602160045260245ffd5b60028110610b5857610b57610b1a565b5b50565b5f819050610b6882610b47565b919050565b5f610b7782610b5b565b9050919050565b610b8781610b6d565b82525050565b5f60c083015f8301518482035f860152610ba78282610a94565b91505060208301518482036020860152610bc18282610a94565b9150506040830151610bd66040860182610afc565b506060830151610be96060860182610b0b565b506080830151610bfc6080860182610b0b565b5060a0830151610c0f60a0860182610b7e565b508091505092915050565b5f6020820190508181035f830152610c328184610b8d565b905092915050565b610c43816109e4565b82525050565b5f602082019050610c5c5f830184610c3a565b92915050565b610c6b81610aeb565b82525050565b5f602082019050610c845f830184610c62565b92915050565b5f80fd5b5f80fd5b7f4e487b71000000000000000000000000000000000000000000000000000000005f52604160045260245ffd5b610cc882610a84565b810181811067ffffffffffffffff82111715610ce757610ce6610c92565b5b80604052505050565b5f610cf96109d3565b9050610d058282610cbf565b919050565b5f67ffffffffffffffff821115610d2457610d23610c92565b5b610d2d82610a84565b9050602081019050919050565b828183375f83830152505050565b5f610d5a610d5584610d0a565b610cf0565b905082815260208101848484011115610d7657610d75610c8e565b5b610d81848285610d3a565b509392505050565b5f82601f830112610d9d57610d9c610c8a565b5b8135610dad848260208601610d48565b91505092915050565b5f805f60608486031215610dcd57610dcc6109dc565b5b5f84013567ffffffffffffffff811115610dea57610de96109e0565b5b610df686828701610d89565b935050602084013567ffffffffffffffff811115610e1757610e166109e0565b5b610e2386828701610d89565b9250506040610e3486828701610a03565b9150509250925092565b7f4e487b71000000000000000000000000000000000000000000000000000000005f52602260045260245ffd5b5f6002820490506001821680610e8257607f821691505b602082108103610e9557610e94610e3e565b5b50919050565b5f82825260208201905092915050565b7f63616e277420726566756e642063757a20646561646c696e65206e6f74206d655f8201527f6574000000000000000000000000000000000000000000000000000000000000602082015250565b5f610f05602283610e9b565b9150610f1082610eab565b604082019050919050565b5f6020820190508181035f830152610f3281610ef9565b9050919050565b5f604082019050610f4c5f830185610c62565b610f596020830184610c3a565b9392505050565b7f752063616e277420726566756e642000000000000000000000000000000000005f82015250565b5f610f94600f83610e9b565b9150610f9f82610f60565b602082019050919050565b5f6020820190508181035f830152610fc181610f88565b9050919050565b7f7472616e73616374696f6e20617265206e6f7420616c6c6f77656420696e20745f8201527f6869732074696d65000000000000000000000000000000000000000000000000602082015250565b5f611022602883610e9b565b915061102d82610fc8565b604082019050919050565b5f6020820190508181035f83015261104f81611016565b9050919050565b7f616d6f756e74206973206e6f7420657175616c20746f20676f616c00000000005f82015250565b5f61108a601b83610e9b565b915061109582611056565b602082019050919050565b5f6020820190508181035f8301526110b78161107e565b9050919050565b5f6060820190506110d15f830186610c62565b6110de6020830185610c3a565b6110eb6040830184610c3a565b949350505050565b7f4e487b71000000000000000000000000000000000000000000000000000000005f52601160045260245ffd5b5f61112a826109e4565b9150611135836109e4565b925082820190508082111561114d5761114c6110f3565b5b92915050565b5f6060820190506111665f830186610c3a565b6111736020830185610c62565b6111806040830184610c3a565b949350505050565b5f819050815f5260205f209050919050565b5f6020601f8301049050919050565b5f82821b905092915050565b5f600883026111e47fffffffffffffffffffffffffffffffffffffffffffffffffffffffffffffffff826111a9565b6111ee86836111a9565b95508019841693508086168417925050509392505050565b5f819050919050565b5f61122961122461121f846109e4565b611206565b6109e4565b9050919050565b5f819050919050565b6112428361120f565b61125661124e82611230565b8484546111b5565b825550505050565b5f90565b61126a61125e565b611275818484611239565b505050565b5b818110156112985761128d5f82611262565b60018101905061127b565b5050565b601f8211156112dd576112ae81611188565b6112b78461119a565b810160208510156112c6578190505b6112da6112d28561119a565b83018261127a565b50505b505050565b5f82821c905092915050565b5f6112fd5f19846008026112e2565b1980831691505092915050565b5f61131583836112ee565b9150826002028217905092915050565b61132e82610a42565b67ffffffffffffffff81111561134757611346610c92565b5b6113518254610e6b565b61135c82828561129c565b5f60209050601f83116001811461138d575f841561137b578287015190505b611385858261130a565b8655506113ec565b601f19841661139b86611188565b5f5b828110156113c25784890151825560018201915060208501945060208101905061139d565b868310156113df57848901516113db601f8916826112ee565b8355505b6001600288020188555050505b505050505050565b5f6113fe826109e4565b91507fffffffffffffffffffffffffffffffffffffffffffffffffffffffffffffffff82036114305761142f6110f3565b5b60018201905091905056fea264697066735822122093e9ceccfa9a62c84c6b9d76024badd008e4bcc0a0874da340377bef1eff0dad64736f6c63430008160033",
			"opcodes": "PUSH1 0x80 PUSH1 0x40 MSTORE PUSH2 0x258 TIMESTAMP PUSH2 0x12 SWAP2 SWAP1 PUSH2 0xA8 JUMP JUMPDEST PUSH1 0x1 SSTORE PUSH9 0x1158E460913D00000 PUSH1 0x2 SSTORE CALLVALUE DUP1 ISZERO PUSH2 0x2D JUMPI PUSH0 DUP1 REVERT JUMPDEST POP CALLER PUSH0 DUP1 PUSH2 0x100 EXP DUP2 SLOAD DUP2 PUSH20 0xFFFFFFFFFFFFFFFFFFFFFFFFFFFFFFFFFFFFFFFF MUL NOT AND SWAP1 DUP4 PUSH20 0xFFFFFFFFFFFFFFFFFFFFFFFFFFFFFFFFFFFFFFFF AND MUL OR SWAP1 SSTORE POP PUSH2 0xDB JUMP JUMPDEST PUSH0 DUP2 SWAP1 POP SWAP2 SWAP1 POP JUMP JUMPDEST PUSH32 0x4E487B7100000000000000000000000000000000000000000000000000000000 PUSH0 MSTORE PUSH1 0x11 PUSH1 0x4 MSTORE PUSH1 0x24 PUSH0 REVERT JUMPDEST PUSH0 PUSH2 0xB2 DUP3 PUSH2 0x72 JUMP JUMPDEST SWAP2 POP PUSH2 0xBD DUP4 PUSH2 0x72 JUMP JUMPDEST SWAP3 POP DUP3 DUP3 ADD SWAP1 POP DUP1 DUP3 GT ISZERO PUSH2 0xD5 JUMPI PUSH2 0xD4 PUSH2 0x7B JUMP JUMPDEST JUMPDEST SWAP3 SWAP2 POP POP JUMP JUMPDEST PUSH2 0x1471 DUP1 PUSH3 0xE9 PUSH0 CODECOPY PUSH0 RETURN INVALID PUSH1 0x80 PUSH1 0x40 MSTORE PUSH1 0x4 CALLDATASIZE LT PUSH2 0x85 JUMPI PUSH0 CALLDATALOAD PUSH1 0xE0 SHR DUP1 PUSH4 0x384F58EB GT PUSH2 0x58 JUMPI DUP1 PUSH4 0x384F58EB EQ PUSH2 0x13F JUMPI DUP1 PUSH4 0x478A4BE5 EQ PUSH2 0x169 JUMPI DUP1 PUSH4 0x7EF36B0B EQ PUSH2 0x193 JUMPI DUP1 PUSH4 0xAF640D0F EQ PUSH2 0x1BB JUMPI DUP1 PUSH4 0xE8709C40 EQ PUSH2 0x1E5 JUMPI PUSH2 0x85 JUMP JUMPDEST DUP1 PUSH4 0x10445B2B EQ PUSH2 0x89 JUMPI DUP1 PUSH4 0x278ECDE1 EQ PUSH2 0xC5 JUMPI DUP1 PUSH4 0x2CA126F8 EQ PUSH2 0xED JUMPI DUP1 PUSH4 0x379607F5 EQ PUSH2 0x117 JUMPI JUMPDEST PUSH0 DUP1 REVERT JUMPDEST CALLVALUE DUP1 ISZERO PUSH2 0x94 JUMPI PUSH0 DUP1 REVERT JUMPDEST POP PUSH2 0xAF PUSH1 0x4 DUP1 CALLDATASIZE SUB DUP2 ADD SWAP1 PUSH2 0xAA SWAP2 SWAP1 PUSH2 0xA17 JUMP JUMPDEST PUSH2 0x201 JUMP JUMPDEST PUSH1 0x40 MLOAD PUSH2 0xBC SWAP2 SWAP1 PUSH2 0xC1A JUMP JUMPDEST PUSH1 0x40 MLOAD DUP1 SWAP2 SUB SWAP1 RETURN JUMPDEST CALLVALUE DUP1 ISZERO PUSH2 0xD0 JUMPI PUSH0 DUP1 REVERT JUMPDEST POP PUSH2 0xEB PUSH1 0x4 DUP1 CALLDATASIZE SUB DUP2 ADD SWAP1 PUSH2 0xE6 SWAP2 SWAP1 PUSH2 0xA17 JUMP JUMPDEST PUSH2 0x3EE JUMP JUMPDEST STOP JUMPDEST CALLVALUE DUP1 ISZERO PUSH2 0xF8 JUMPI PUSH0 DUP1 REVERT JUMPDEST POP PUSH2 0x101 PUSH2 0x529 JUMP JUMPDEST PUSH1 0x40 MLOAD PUSH2 0x10E SWAP2 SWAP1 PUSH2 0xC49 JUMP JUMPDEST PUSH1 0x40 MLOAD DUP1 SWAP2 SUB SWAP1 RETURN JUMPDEST CALLVALUE DUP1 ISZERO PUSH2 0x122 JUMPI PUSH0 DUP1 REVERT JUMPDEST POP PUSH2 0x13D PUSH1 0x4 DUP1 CALLDATASIZE SUB DUP2 ADD SWAP1 PUSH2 0x138 SWAP2 SWAP1 PUSH2 0xA17 JUMP JUMPDEST PUSH2 0x52F JUMP JUMPDEST STOP JUMPDEST CALLVALUE DUP1 ISZERO PUSH2 0x14A JUMPI PUSH0 DUP1 REVERT JUMPDEST POP PUSH2 0x153 PUSH2 0x6D9 JUMP JUMPDEST PUSH1 0x40 MLOAD PUSH2 0x160 SWAP2 SWAP1 PUSH2 0xC71 JUMP JUMPDEST PUSH1 0x40 MLOAD DUP1 SWAP2 SUB SWAP1 RETURN JUMPDEST CALLVALUE DUP1 ISZERO PUSH2 0x174 JUMPI PUSH0 DUP1 REVERT JUMPDEST POP PUSH2 0x17D PUSH2 0x6FC JUMP JUMPDEST PUSH1 0x40 MLOAD PUSH2 0x18A SWAP2 SWAP1 PUSH2 0xC49 JUMP JUMPDEST PUSH1 0x40 MLOAD DUP1 SWAP2 SUB SWAP1 RETURN JUMPDEST CALLVALUE DUP1 ISZERO PUSH2 0x19E JUMPI PUSH0 DUP1 REVERT JUMPDEST POP PUSH2 0x1B9 PUSH1 0x4 DUP1 CALLDATASIZE SUB DUP2 ADD SWAP1 PUSH2 0x1B4 SWAP2 SWAP1 PUSH2 0xDB6 JUMP JUMPDEST PUSH2 0x702 JUMP JUMPDEST STOP JUMPDEST CALLVALUE DUP1 ISZERO PUSH2 0x1C6 JUMPI PUSH0 DUP1 REVERT JUMPDEST POP PUSH2 0x1CF PUSH2 0x74F JUMP JUMPDEST PUSH1 0x40 MLOAD PUSH2 0x1DC SWAP2 SWAP1 PUSH2 0xC49 JUMP JUMPDEST PUSH1 0x40 MLOAD DUP1 SWAP2 SUB SWAP1 RETURN JUMPDEST PUSH2 0x1FF PUSH1 0x4 DUP1 CALLDATASIZE SUB DUP2 ADD SWAP1 PUSH2 0x1FA SWAP2 SWAP1 PUSH2 0xA17 JUMP JUMPDEST PUSH2 0x755 JUMP JUMPDEST STOP JUMPDEST PUSH2 0x209 PUSH2 0x979 JUMP JUMPDEST PUSH1 0x3 PUSH0 DUP4 DUP2 MSTORE PUSH1 0x20 ADD SWAP1 DUP2 MSTORE PUSH1 0x20 ADD PUSH0 KECCAK256 PUSH1 0x40 MLOAD DUP1 PUSH1 0xC0 ADD PUSH1 0x40 MSTORE SWAP1 DUP2 PUSH0 DUP3 ADD DUP1 SLOAD PUSH2 0x234 SWAP1 PUSH2 0xE6B JUMP JUMPDEST DUP1 PUSH1 0x1F ADD PUSH1 0x20 DUP1 SWAP2 DIV MUL PUSH1 0x20 ADD PUSH1 0x40 MLOAD SWAP1 DUP2 ADD PUSH1 0x40 MSTORE DUP1 SWAP3 SWAP2 SWAP1 DUP2 DUP2 MSTORE PUSH1 0x20 ADD DUP3 DUP1 SLOAD PUSH2 0x260 SWAP1 PUSH2 0xE6B JUMP JUMPDEST DUP1 ISZERO PUSH2 0x2AB JUMPI DUP1 PUSH1 0x1F LT PUSH2 0x282 JUMPI PUSH2 0x100 DUP1 DUP4 SLOAD DIV MUL DUP4 MSTORE SWAP2 PUSH1 0x20 ADD SWAP2 PUSH2 0x2AB JUMP JUMPDEST DUP3 ADD SWAP2 SWAP1 PUSH0 MSTORE PUSH1 0x20 PUSH0 KECCAK256 SWAP1 JUMPDEST DUP2 SLOAD DUP2 MSTORE SWAP1 PUSH1 0x1 ADD SWAP1 PUSH1 0x20 ADD DUP1 DUP4 GT PUSH2 0x28E JUMPI DUP3 SWAP1 SUB PUSH1 0x1F AND DUP3 ADD SWAP2 JUMPDEST POP POP POP POP POP DUP2 MSTORE PUSH1 0x20 ADD PUSH1 0x1 DUP3 ADD DUP1 SLOAD PUSH2 0x2C4 SWAP1 PUSH2 0xE6B JUMP JUMPDEST DUP1 PUSH1 0x1F ADD PUSH1 0x20 DUP1 SWAP2 DIV MUL PUSH1 0x20 ADD PUSH1 0x40 MLOAD SWAP1 DUP2 ADD PUSH1 0x40 MSTORE DUP1 SWAP3 SWAP2 SWAP1 DUP2 DUP2 MSTORE PUSH1 0x20 ADD DUP3 DUP1 SLOAD PUSH2 0x2F0 SWAP1 PUSH2 0xE6B JUMP JUMPDEST DUP1 ISZERO PUSH2 0x33B JUMPI DUP1 PUSH1 0x1F LT PUSH2 0x312 JUMPI PUSH2 0x100 DUP1 DUP4 SLOAD DIV MUL DUP4 MSTORE SWAP2 PUSH1 0x20 ADD SWAP2 PUSH2 0x33B JUMP JUMPDEST DUP3 ADD SWAP2 SWAP1 PUSH0 MSTORE PUSH1 0x20 PUSH0 KECCAK256 SWAP1 JUMPDEST DUP2 SLOAD DUP2 MSTORE SWAP1 PUSH1 0x1 ADD SWAP1 PUSH1 0x20 ADD DUP1 DUP4 GT PUSH2 0x31E JUMPI DUP3 SWAP1 SUB PUSH1 0x1F AND DUP3 ADD SWAP2 JUMPDEST POP POP POP POP POP DUP2 MSTORE PUSH1 0x20 ADD PUSH1 0x2 DUP3 ADD PUSH0 SWAP1 SLOAD SWAP1 PUSH2 0x100 EXP SWAP1 DIV PUSH20 0xFFFFFFFFFFFFFFFFFFFFFFFFFFFFFFFFFFFFFFFF AND PUSH20 0xFFFFFFFFFFFFFFFFFFFFFFFFFFFFFFFFFFFFFFFF AND PUSH20 0xFFFFFFFFFFFFFFFFFFFFFFFFFFFFFFFFFFFFFFFF AND DUP2 MSTORE PUSH1 0x20 ADD PUSH1 0x3 DUP3 ADD SLOAD DUP2 MSTORE PUSH1 0x20 ADD PUSH1 0x4 DUP3 ADD SLOAD DUP2 MSTORE PUSH1 0x20 ADD PUSH1 0x5 DUP3 ADD PUSH0 SWAP1 SLOAD SWAP1 PUSH2 0x100 EXP SWAP1 DIV PUSH1 0xFF AND PUSH1 0x1 DUP2 GT ISZERO PUSH2 0x3D1 JUMPI PUSH2 0x3D0 PUSH2 0xB1A JUMP JUMPDEST JUMPDEST PUSH1 0x1 DUP2 GT ISZERO PUSH2 0x3E3 JUMPI PUSH2 0x3E2 PUSH2 0xB1A JUMP JUMPDEST JUMPDEST DUP2 MSTORE POP POP SWAP1 POP SWAP2 SWAP1 POP JUMP JUMPDEST PUSH1 0x1 SLOAD TIMESTAMP GT PUSH2 0x432 JUMPI PUSH1 0x40 MLOAD PUSH32 0x8C379A000000000000000000000000000000000000000000000000000000000 DUP2 MSTORE PUSH1 0x4 ADD PUSH2 0x429 SWAP1 PUSH2 0xF1B JUMP JUMPDEST PUSH1 0x40 MLOAD DUP1 SWAP2 SUB SWAP1 REVERT JUMPDEST PUSH1 0x2 SLOAD PUSH1 0x3 PUSH0 DUP4 DUP2 MSTORE PUSH1 0x20 ADD SWAP1 DUP2 MSTORE PUSH1 0x20 ADD PUSH0 KECCAK256 PUSH1 0x4 ADD SLOAD LT ISZERO PUSH2 0x4EB JUMPI PUSH0 PUSH1 0x3 PUSH0 DUP4 DUP2 MSTORE PUSH1 0x20 ADD SWAP1 DUP2 MSTORE PUSH1 0x20 ADD PUSH0 KECCAK256 PUSH1 0x4 ADD SLOAD SWAP1 POP CALLER PUSH20 0xFFFFFFFFFFFFFFFFFFFFFFFFFFFFFFFFFFFFFFFF AND PUSH2 0x8FC DUP3 SWAP1 DUP2 ISZERO MUL SWAP1 PUSH1 0x40 MLOAD PUSH0 PUSH1 0x40 MLOAD DUP1 DUP4 SUB DUP2 DUP6 DUP9 DUP9 CALL SWAP4 POP POP POP POP ISZERO DUP1 ISZERO PUSH2 0x4AB JUMPI RETURNDATASIZE PUSH0 DUP1 RETURNDATACOPY RETURNDATASIZE PUSH0 REVERT JUMPDEST POP PUSH32 0x24FE69B53CC1964769DE08B395835DA5501E4E7D08B104CD5A91E0EC6E4EF056 CALLER DUP4 PUSH1 0x40 MLOAD PUSH2 0x4DD SWAP3 SWAP2 SWAP1 PUSH2 0xF39 JUMP JUMPDEST PUSH1 0x40 MLOAD DUP1 SWAP2 SUB SWAP1 LOG1 POP PUSH2 0x526 JUMP JUMPDEST PUSH1 0x40 MLOAD PUSH32 0x8C379A000000000000000000000000000000000000000000000000000000000 DUP2 MSTORE PUSH1 0x4 ADD PUSH2 0x51D SWAP1 PUSH2 0xFAA JUMP JUMPDEST PUSH1 0x40 MLOAD DUP1 SWAP2 SUB SWAP1 REVERT JUMPDEST POP JUMP JUMPDEST PUSH1 0x1 SLOAD DUP2 JUMP JUMPDEST PUSH1 0x1 SLOAD TIMESTAMP GT ISZERO PUSH2 0x574 JUMPI PUSH1 0x40 MLOAD PUSH32 0x8C379A000000000000000000000000000000000000000000000000000000000 DUP2 MSTORE PUSH1 0x4 ADD PUSH2 0x56B SWAP1 PUSH2 0x1038 JUMP JUMPDEST PUSH1 0x40 MLOAD DUP1 SWAP2 SUB SWAP1 REVERT JUMPDEST PUSH1 0x2 SLOAD PUSH1 0x3 PUSH0 DUP4 DUP2 MSTORE PUSH1 0x20 ADD SWAP1 DUP2 MSTORE PUSH1 0x20 ADD PUSH0 KECCAK256 PUSH1 0x4 ADD SLOAD LT PUSH2 0x69B JUMPI PUSH0 PUSH1 0x3 PUSH0 DUP4 DUP2 MSTORE PUSH1 0x20 ADD SWAP1 DUP2 MSTORE PUSH1 0x20 ADD PUSH0 KECCAK256 PUSH1 0x4 ADD SLOAD SWAP1 POP PUSH1 0x3 PUSH0 DUP4 DUP2 MSTORE PUSH1 0x20 ADD SWAP1 DUP2 MSTORE PUSH1 0x20 ADD PUSH0 KECCAK256 PUSH1 0x2 ADD PUSH0 SWAP1 SLOAD SWAP1 PUSH2 0x100 EXP SWAP1 DIV PUSH20 0xFFFFFFFFFFFFFFFFFFFFFFFFFFFFFFFFFFFFFFFF AND PUSH20 0xFFFFFFFFFFFFFFFFFFFFFFFFFFFFFFFFFFFFFFFF AND PUSH2 0x8FC DUP3 SWAP1 DUP2 ISZERO MUL SWAP1 PUSH1 0x40 MLOAD PUSH0 PUSH1 0x40 MLOAD DUP1 DUP4 SUB DUP2 DUP6 DUP9 DUP9 CALL SWAP4 POP POP POP POP ISZERO DUP1 ISZERO PUSH2 0x61F JUMPI RETURNDATASIZE PUSH0 DUP1 RETURNDATACOPY RETURNDATASIZE PUSH0 REVERT JUMPDEST POP PUSH1 0x1 PUSH1 0x3 PUSH0 DUP5 DUP2 MSTORE PUSH1 0x20 ADD SWAP1 DUP2 MSTORE PUSH1 0x20 ADD PUSH0 KECCAK256 PUSH1 0x5 ADD PUSH0 PUSH2 0x100 EXP DUP2 SLOAD DUP2 PUSH1 0xFF MUL NOT AND SWAP1 DUP4 PUSH1 0x1 DUP2 GT ISZERO PUSH2 0x657 JUMPI PUSH2 0x656 PUSH2 0xB1A JUMP JUMPDEST JUMPDEST MUL OR SWAP1 SSTORE POP PUSH32 0xE1E5A82EBF9D017C4F17E01E0622662A2C540C061EB8114D1FB9A236117C1577 CALLER DUP4 PUSH1 0x40 MLOAD PUSH2 0x68D SWAP3 SWAP2 SWAP1 PUSH2 0xF39 JUMP JUMPDEST PUSH1 0x40 MLOAD DUP1 SWAP2 SUB SWAP1 LOG1 POP PUSH2 0x6D6 JUMP JUMPDEST PUSH1 0x40 MLOAD PUSH32 0x8C379A000000000000000000000000000000000000000000000000000000000 DUP2 MSTORE PUSH1 0x4 ADD PUSH2 0x6CD SWAP1 PUSH2 0x10A0 JUMP JUMPDEST PUSH1 0x40 MLOAD DUP1 SWAP2 SUB SWAP1 REVERT JUMPDEST POP JUMP JUMPDEST PUSH0 DUP1 SLOAD SWAP1 PUSH2 0x100 EXP SWAP1 DIV PUSH20 0xFFFFFFFFFFFFFFFFFFFFFFFFFFFFFFFFFFFFFFFF AND DUP2 JUMP JUMPDEST PUSH1 0x2 SLOAD DUP2 JUMP JUMPDEST PUSH2 0x70D DUP4 DUP4 DUP4 PUSH2 0x83F JUMP JUMPDEST PUSH32 0x8B31EA9685600C6EBF23806A945F466BEDD917485D545655FD6C693FBF14373D CALLER PUSH1 0x4 SLOAD DUP4 PUSH1 0x40 MLOAD PUSH2 0x742 SWAP4 SWAP3 SWAP2 SWAP1 PUSH2 0x10BE JUMP JUMPDEST PUSH1 0x40 MLOAD DUP1 SWAP2 SUB SWAP1 LOG1 POP POP POP JUMP JUMPDEST PUSH1 0x4 SLOAD DUP2 JUMP JUMPDEST PUSH1 0x1 SLOAD TIMESTAMP GT ISZERO PUSH2 0x79A JUMPI PUSH1 0x40 MLOAD PUSH32 0x8C379A000000000000000000000000000000000000000000000000000000000 DUP2 MSTORE PUSH1 0x4 ADD PUSH2 0x791 SWAP1 PUSH2 0x1038 JUMP JUMPDEST PUSH1 0x40 MLOAD DUP1 SWAP2 SUB SWAP1 REVERT JUMPDEST CALLVALUE PUSH1 0x3 PUSH0 DUP4 DUP2 MSTORE PUSH1 0x20 ADD SWAP1 DUP2 MSTORE PUSH1 0x20 ADD PUSH0 KECCAK256 PUSH1 0x4 ADD PUSH0 DUP3 DUP3 SLOAD PUSH2 0x7BD SWAP2 SWAP1 PUSH2 0x1120 JUMP JUMPDEST SWAP3 POP POP DUP2 SWAP1 SSTORE POP PUSH0 PUSH1 0x3 PUSH0 PUSH1 0x4 SLOAD DUP2 MSTORE PUSH1 0x20 ADD SWAP1 DUP2 MSTORE PUSH1 0x20 ADD PUSH0 KECCAK256 PUSH1 0x5 ADD PUSH0 PUSH2 0x100 EXP DUP2 SLOAD DUP2 PUSH1 0xFF MUL NOT AND SWAP1 DUP4 PUSH1 0x1 DUP2 GT ISZERO PUSH2 0x7FC JUMPI PUSH2 0x7FB PUSH2 0xB1A JUMP JUMPDEST JUMPDEST MUL OR SWAP1 SSTORE POP PUSH32 0x8952AC1E80FC86D8CCB4C9BB2B1DF4BA33B963FDC98DE332D4D07A43DDDDC462 DUP2 CALLER CALLVALUE PUSH1 0x40 MLOAD PUSH2 0x834 SWAP4 SWAP3 SWAP2 SWAP1 PUSH2 0x1153 JUMP JUMPDEST PUSH1 0x40 MLOAD DUP1 SWAP2 SUB SWAP1 LOG1 POP JUMP JUMPDEST PUSH1 0x40 MLOAD DUP1 PUSH1 0xC0 ADD PUSH1 0x40 MSTORE DUP1 DUP5 DUP2 MSTORE PUSH1 0x20 ADD DUP4 DUP2 MSTORE PUSH1 0x20 ADD CALLER PUSH20 0xFFFFFFFFFFFFFFFFFFFFFFFFFFFFFFFFFFFFFFFF AND DUP2 MSTORE PUSH1 0x20 ADD DUP3 DUP2 MSTORE PUSH1 0x20 ADD PUSH0 DUP2 MSTORE PUSH1 0x20 ADD PUSH0 PUSH1 0x1 DUP2 GT ISZERO PUSH2 0x891 JUMPI PUSH2 0x890 PUSH2 0xB1A JUMP JUMPDEST JUMPDEST DUP2 MSTORE POP PUSH1 0x3 PUSH0 PUSH1 0x4 SLOAD DUP2 MSTORE PUSH1 0x20 ADD SWAP1 DUP2 MSTORE PUSH1 0x20 ADD PUSH0 KECCAK256 PUSH0 DUP3 ADD MLOAD DUP2 PUSH0 ADD SWAP1 DUP2 PUSH2 0x8BA SWAP2 SWAP1 PUSH2 0x1325 JUMP JUMPDEST POP PUSH1 0x20 DUP3 ADD MLOAD DUP2 PUSH1 0x1 ADD SWAP1 DUP2 PUSH2 0x8D0 SWAP2 SWAP1 PUSH2 0x1325 JUMP JUMPDEST POP PUSH1 0x40 DUP3 ADD MLOAD DUP2 PUSH1 0x2 ADD PUSH0 PUSH2 0x100 EXP DUP2 SLOAD DUP2 PUSH20 0xFFFFFFFFFFFFFFFFFFFFFFFFFFFFFFFFFFFFFFFF MUL NOT AND SWAP1 DUP4 PUSH20 0xFFFFFFFFFFFFFFFFFFFFFFFFFFFFFFFFFFFFFFFF AND MUL OR SWAP1 SSTORE POP PUSH1 0x60 DUP3 ADD MLOAD DUP2 PUSH1 0x3 ADD SSTORE PUSH1 0x80 DUP3 ADD MLOAD DUP2 PUSH1 0x4 ADD SSTORE PUSH1 0xA0 DUP3 ADD MLOAD DUP2 PUSH1 0x5 ADD PUSH0 PUSH2 0x100 EXP DUP2 SLOAD DUP2 PUSH1 0xFF MUL NOT AND SWAP1 DUP4 PUSH1 0x1 DUP2 GT ISZERO PUSH2 0x955 JUMPI PUSH2 0x954 PUSH2 0xB1A JUMP JUMPDEST JUMPDEST MUL OR SWAP1 SSTORE POP SWAP1 POP POP PUSH1 0x4 PUSH0 DUP2 SLOAD DUP1 SWAP3 SWAP2 SWAP1 PUSH2 0x96F SWAP1 PUSH2 0x13F4 JUMP JUMPDEST SWAP2 SWAP1 POP SSTORE POP POP POP POP JUMP JUMPDEST PUSH1 0x40 MLOAD DUP1 PUSH1 0xC0 ADD PUSH1 0x40 MSTORE DUP1 PUSH1 0x60 DUP2 MSTORE PUSH1 0x20 ADD PUSH1 0x60 DUP2 MSTORE PUSH1 0x20 ADD PUSH0 PUSH20 0xFFFFFFFFFFFFFFFFFFFFFFFFFFFFFFFFFFFFFFFF AND DUP2 MSTORE PUSH1 0x20 ADD PUSH0 DUP2 MSTORE PUSH1 0x20 ADD PUSH0 DUP2 MSTORE PUSH1 0x20 ADD PUSH0 PUSH1 0x1 DUP2 GT ISZERO PUSH2 0x9CD JUMPI PUSH2 0x9CC PUSH2 0xB1A JUMP JUMPDEST JUMPDEST DUP2 MSTORE POP SWAP1 JUMP JUMPDEST PUSH0 PUSH1 0x40 MLOAD SWAP1 POP SWAP1 JUMP JUMPDEST PUSH0 DUP1 REVERT JUMPDEST PUSH0 DUP1 REVERT JUMPDEST PUSH0 DUP2 SWAP1 POP SWAP2 SWAP1 POP JUMP JUMPDEST PUSH2 0x9F6 DUP2 PUSH2 0x9E4 JUMP JUMPDEST DUP2 EQ PUSH2 0xA00 JUMPI PUSH0 DUP1 REVERT JUMPDEST POP JUMP JUMPDEST PUSH0 DUP2 CALLDATALOAD SWAP1 POP PUSH2 0xA11 DUP2 PUSH2 0x9ED JUMP JUMPDEST SWAP3 SWAP2 POP POP JUMP JUMPDEST PUSH0 PUSH1 0x20 DUP3 DUP5 SUB SLT ISZERO PUSH2 0xA2C JUMPI PUSH2 0xA2B PUSH2 0x9DC JUMP JUMPDEST JUMPDEST PUSH0 PUSH2 0xA39 DUP5 DUP3 DUP6 ADD PUSH2 0xA03 JUMP JUMPDEST SWAP2 POP POP SWAP3 SWAP2 POP POP JUMP JUMPDEST PUSH0 DUP2 MLOAD SWAP1 POP SWAP2 SWAP1 POP JUMP JUMPDEST PUSH0 DUP3 DUP3 MSTORE PUSH1 0x20 DUP3 ADD SWAP1 POP SWAP3 SWAP2 POP POP JUMP JUMPDEST PUSH0 JUMPDEST DUP4 DUP2 LT ISZERO PUSH2 0xA79 JUMPI DUP1 DUP3 ADD MLOAD DUP2 DUP5 ADD MSTORE PUSH1 0x20 DUP2 ADD SWAP1 POP PUSH2 0xA5E JUMP JUMPDEST PUSH0 DUP5 DUP5 ADD MSTORE POP POP POP POP JUMP JUMPDEST PUSH0 PUSH1 0x1F NOT PUSH1 0x1F DUP4 ADD AND SWAP1 POP SWAP2 SWAP1 POP JUMP JUMPDEST PUSH0 PUSH2 0xA9E DUP3 PUSH2 0xA42 JUMP JUMPDEST PUSH2 0xAA8 DUP2 DUP6 PUSH2 0xA4C JUMP JUMPDEST SWAP4 POP PUSH2 0xAB8 DUP2 DUP6 PUSH1 0x20 DUP7 ADD PUSH2 0xA5C JUMP JUMPDEST PUSH2 0xAC1 DUP2 PUSH2 0xA84 JUMP JUMPDEST DUP5 ADD SWAP2 POP POP SWAP3 SWAP2 POP POP JUMP JUMPDEST PUSH0 PUSH20 0xFFFFFFFFFFFFFFFFFFFFFFFFFFFFFFFFFFFFFFFF DUP3 AND SWAP1 POP SWAP2 SWAP1 POP JUMP JUMPDEST PUSH0 PUSH2 0xAF5 DUP3 PUSH2 0xACC JUMP JUMPDEST SWAP1 POP SWAP2 SWAP1 POP JUMP JUMPDEST PUSH2 0xB05 DUP2 PUSH2 0xAEB JUMP JUMPDEST DUP3 MSTORE POP POP JUMP JUMPDEST PUSH2 0xB14 DUP2 PUSH2 0x9E4 JUMP JUMPDEST DUP3 MSTORE POP POP JUMP JUMPDEST PUSH32 0x4E487B7100000000000000000000000000000000000000000000000000000000 PUSH0 MSTORE PUSH1 0x21 PUSH1 0x4 MSTORE PUSH1 0x24 PUSH0 REVERT JUMPDEST PUSH1 0x2 DUP2 LT PUSH2 0xB58 JUMPI PUSH2 0xB57 PUSH2 0xB1A JUMP JUMPDEST JUMPDEST POP JUMP JUMPDEST PUSH0 DUP2 SWAP1 POP PUSH2 0xB68 DUP3 PUSH2 0xB47 JUMP JUMPDEST SWAP2 SWAP1 POP JUMP JUMPDEST PUSH0 PUSH2 0xB77 DUP3 PUSH2 0xB5B JUMP JUMPDEST SWAP1 POP SWAP2 SWAP1 POP JUMP JUMPDEST PUSH2 0xB87 DUP2 PUSH2 0xB6D JUMP JUMPDEST DUP3 MSTORE POP POP JUMP JUMPDEST PUSH0 PUSH1 0xC0 DUP4 ADD PUSH0 DUP4 ADD MLOAD DUP5 DUP3 SUB PUSH0 DUP7 ADD MSTORE PUSH2 0xBA7 DUP3 DUP3 PUSH2 0xA94 JUMP JUMPDEST SWAP2 POP POP PUSH1 0x20 DUP4 ADD MLOAD DUP5 DUP3 SUB PUSH1 0x20 DUP7 ADD MSTORE PUSH2 0xBC1 DUP3 DUP3 PUSH2 0xA94 JUMP JUMPDEST SWAP2 POP POP PUSH1 0x40 DUP4 ADD MLOAD PUSH2 0xBD6 PUSH1 0x40 DUP7 ADD DUP3 PUSH2 0xAFC JUMP JUMPDEST POP PUSH1 0x60 DUP4 ADD MLOAD PUSH2 0xBE9 PUSH1 0x60 DUP7 ADD DUP3 PUSH2 0xB0B JUMP JUMPDEST POP PUSH1 0x80 DUP4 ADD MLOAD PUSH2 0xBFC PUSH1 0x80 DUP7 ADD DUP3 PUSH2 0xB0B JUMP JUMPDEST POP PUSH1 0xA0 DUP4 ADD MLOAD PUSH2 0xC0F PUSH1 0xA0 DUP7 ADD DUP3 PUSH2 0xB7E JUMP JUMPDEST POP DUP1 SWAP2 POP POP SWAP3 SWAP2 POP POP JUMP JUMPDEST PUSH0 PUSH1 0x20 DUP3 ADD SWAP1 POP DUP2 DUP2 SUB PUSH0 DUP4 ADD MSTORE PUSH2 0xC32 DUP2 DUP5 PUSH2 0xB8D JUMP JUMPDEST SWAP1 POP SWAP3 SWAP2 POP POP JUMP JUMPDEST PUSH2 0xC43 DUP2 PUSH2 0x9E4 JUMP JUMPDEST DUP3 MSTORE POP POP JUMP JUMPDEST PUSH0 PUSH1 0x20 DUP3 ADD SWAP1 POP PUSH2 0xC5C PUSH0 DUP4 ADD DUP5 PUSH2 0xC3A JUMP JUMPDEST SWAP3 SWAP2 POP POP JUMP JUMPDEST PUSH2 0xC6B DUP2 PUSH2 0xAEB JUMP JUMPDEST DUP3 MSTORE POP POP JUMP JUMPDEST PUSH0 PUSH1 0x20 DUP3 ADD SWAP1 POP PUSH2 0xC84 PUSH0 DUP4 ADD DUP5 PUSH2 0xC62 JUMP JUMPDEST SWAP3 SWAP2 POP POP JUMP JUMPDEST PUSH0 DUP1 REVERT JUMPDEST PUSH0 DUP1 REVERT JUMPDEST PUSH32 0x4E487B7100000000000000000000000000000000000000000000000000000000 PUSH0 MSTORE PUSH1 0x41 PUSH1 0x4 MSTORE PUSH1 0x24 PUSH0 REVERT JUMPDEST PUSH2 0xCC8 DUP3 PUSH2 0xA84 JUMP JUMPDEST DUP2 ADD DUP2 DUP2 LT PUSH8 0xFFFFFFFFFFFFFFFF DUP3 GT OR ISZERO PUSH2 0xCE7 JUMPI PUSH2 0xCE6 PUSH2 0xC92 JUMP JUMPDEST JUMPDEST DUP1 PUSH1 0x40 MSTORE POP POP POP JUMP JUMPDEST PUSH0 PUSH2 0xCF9 PUSH2 0x9D3 JUMP JUMPDEST SWAP1 POP PUSH2 0xD05 DUP3 DUP3 PUSH2 0xCBF JUMP JUMPDEST SWAP2 SWAP1 POP JUMP JUMPDEST PUSH0 PUSH8 0xFFFFFFFFFFFFFFFF DUP3 GT ISZERO PUSH2 0xD24 JUMPI PUSH2 0xD23 PUSH2 0xC92 JUMP JUMPDEST JUMPDEST PUSH2 0xD2D DUP3 PUSH2 0xA84 JUMP JUMPDEST SWAP1 POP PUSH1 0x20 DUP2 ADD SWAP1 POP SWAP2 SWAP1 POP JUMP JUMPDEST DUP3 DUP2 DUP4 CALLDATACOPY PUSH0 DUP4 DUP4 ADD MSTORE POP POP POP JUMP JUMPDEST PUSH0 PUSH2 0xD5A PUSH2 0xD55 DUP5 PUSH2 0xD0A JUMP JUMPDEST PUSH2 0xCF0 JUMP JUMPDEST SWAP1 POP DUP3 DUP2 MSTORE PUSH1 0x20 DUP2 ADD DUP5 DUP5 DUP5 ADD GT ISZERO PUSH2 0xD76 JUMPI PUSH2 0xD75 PUSH2 0xC8E JUMP JUMPDEST JUMPDEST PUSH2 0xD81 DUP5 DUP3 DUP6 PUSH2 0xD3A JUMP JUMPDEST POP SWAP4 SWAP3 POP POP POP JUMP JUMPDEST PUSH0 DUP3 PUSH1 0x1F DUP4 ADD SLT PUSH2 0xD9D JUMPI PUSH2 0xD9C PUSH2 0xC8A JUMP JUMPDEST JUMPDEST DUP2 CALLDATALOAD PUSH2 0xDAD DUP5 DUP3 PUSH1 0x20 DUP7 ADD PUSH2 0xD48 JUMP JUMPDEST SWAP2 POP POP SWAP3 SWAP2 POP POP JUMP JUMPDEST PUSH0 DUP1 PUSH0 PUSH1 0x60 DUP5 DUP7 SUB SLT ISZERO PUSH2 0xDCD JUMPI PUSH2 0xDCC PUSH2 0x9DC JUMP JUMPDEST JUMPDEST PUSH0 DUP5 ADD CALLDATALOAD PUSH8 0xFFFFFFFFFFFFFFFF DUP2 GT ISZERO PUSH2 0xDEA JUMPI PUSH2 0xDE9 PUSH2 0x9E0 JUMP JUMPDEST JUMPDEST PUSH2 0xDF6 DUP7 DUP3 DUP8 ADD PUSH2 0xD89 JUMP JUMPDEST SWAP4 POP POP PUSH1 0x20 DUP5 ADD CALLDATALOAD PUSH8 0xFFFFFFFFFFFFFFFF DUP2 GT ISZERO PUSH2 0xE17 JUMPI PUSH2 0xE16 PUSH2 0x9E0 JUMP JUMPDEST JUMPDEST PUSH2 0xE23 DUP7 DUP3 DUP8 ADD PUSH2 0xD89 JUMP JUMPDEST SWAP3 POP POP PUSH1 0x40 PUSH2 0xE34 DUP7 DUP3 DUP8 ADD PUSH2 0xA03 JUMP JUMPDEST SWAP2 POP POP SWAP3 POP SWAP3 POP SWAP3 JUMP JUMPDEST PUSH32 0x4E487B7100000000000000000000000000000000000000000000000000000000 PUSH0 MSTORE PUSH1 0x22 PUSH1 0x4 MSTORE PUSH1 0x24 PUSH0 REVERT JUMPDEST PUSH0 PUSH1 0x2 DUP3 DIV SWAP1 POP PUSH1 0x1 DUP3 AND DUP1 PUSH2 0xE82 JUMPI PUSH1 0x7F DUP3 AND SWAP2 POP JUMPDEST PUSH1 0x20 DUP3 LT DUP2 SUB PUSH2 0xE95 JUMPI PUSH2 0xE94 PUSH2 0xE3E JUMP JUMPDEST JUMPDEST POP SWAP2 SWAP1 POP JUMP JUMPDEST PUSH0 DUP3 DUP3 MSTORE PUSH1 0x20 DUP3 ADD SWAP1 POP SWAP3 SWAP2 POP POP JUMP JUMPDEST PUSH32 0x63616E277420726566756E642063757A20646561646C696E65206E6F74206D65 PUSH0 DUP3 ADD MSTORE PUSH32 0x6574000000000000000000000000000000000000000000000000000000000000 PUSH1 0x20 DUP3 ADD MSTORE POP JUMP JUMPDEST PUSH0 PUSH2 0xF05 PUSH1 0x22 DUP4 PUSH2 0xE9B JUMP JUMPDEST SWAP2 POP PUSH2 0xF10 DUP3 PUSH2 0xEAB JUMP JUMPDEST PUSH1 0x40 DUP3 ADD SWAP1 POP SWAP2 SWAP1 POP JUMP JUMPDEST PUSH0 PUSH1 0x20 DUP3 ADD SWAP1 POP DUP2 DUP2 SUB PUSH0 DUP4 ADD MSTORE PUSH2 0xF32 DUP2 PUSH2 0xEF9 JUMP JUMPDEST SWAP1 POP SWAP2 SWAP1 POP JUMP JUMPDEST PUSH0 PUSH1 0x40 DUP3 ADD SWAP1 POP PUSH2 0xF4C PUSH0 DUP4 ADD DUP6 PUSH2 0xC62 JUMP JUMPDEST PUSH2 0xF59 PUSH1 0x20 DUP4 ADD DUP5 PUSH2 0xC3A JUMP JUMPDEST SWAP4 SWAP3 POP POP POP JUMP JUMPDEST PUSH32 0x752063616E277420726566756E64200000000000000000000000000000000000 PUSH0 DUP3 ADD MSTORE POP JUMP JUMPDEST PUSH0 PUSH2 0xF94 PUSH1 0xF DUP4 PUSH2 0xE9B JUMP JUMPDEST SWAP2 POP PUSH2 0xF9F DUP3 PUSH2 0xF60 JUMP JUMPDEST PUSH1 0x20 DUP3 ADD SWAP1 POP SWAP2 SWAP1 POP JUMP JUMPDEST PUSH0 PUSH1 0x20 DUP3 ADD SWAP1 POP DUP2 DUP2 SUB PUSH0 DUP4 ADD MSTORE PUSH2 0xFC1 DUP2 PUSH2 0xF88 JUMP JUMPDEST SWAP1 POP SWAP2 SWAP1 POP JUMP JUMPDEST PUSH32 0x7472616E73616374696F6E20617265206E6F7420616C6C6F77656420696E2074 PUSH0 DUP3 ADD MSTORE PUSH32 0x6869732074696D65000000000000000000000000000000000000000000000000 PUSH1 0x20 DUP3 ADD MSTORE POP JUMP JUMPDEST PUSH0 PUSH2 0x1022 PUSH1 0x28 DUP4 PUSH2 0xE9B JUMP JUMPDEST SWAP2 POP PUSH2 0x102D DUP3 PUSH2 0xFC8 JUMP JUMPDEST PUSH1 0x40 DUP3 ADD SWAP1 POP SWAP2 SWAP1 POP JUMP JUMPDEST PUSH0 PUSH1 0x20 DUP3 ADD SWAP1 POP DUP2 DUP2 SUB PUSH0 DUP4 ADD MSTORE PUSH2 0x104F DUP2 PUSH2 0x1016 JUMP JUMPDEST SWAP1 POP SWAP2 SWAP1 POP JUMP JUMPDEST PUSH32 0x616D6F756E74206973206E6F7420657175616C20746F20676F616C0000000000 PUSH0 DUP3 ADD MSTORE POP JUMP JUMPDEST PUSH0 PUSH2 0x108A PUSH1 0x1B DUP4 PUSH2 0xE9B JUMP JUMPDEST SWAP2 POP PUSH2 0x1095 DUP3 PUSH2 0x1056 JUMP JUMPDEST PUSH1 0x20 DUP3 ADD SWAP1 POP SWAP2 SWAP1 POP JUMP JUMPDEST PUSH0 PUSH1 0x20 DUP3 ADD SWAP1 POP DUP2 DUP2 SUB PUSH0 DUP4 ADD MSTORE PUSH2 0x10B7 DUP2 PUSH2 0x107E JUMP JUMPDEST SWAP1 POP SWAP2 SWAP1 POP JUMP JUMPDEST PUSH0 PUSH1 0x60 DUP3 ADD SWAP1 POP PUSH2 0x10D1 PUSH0 DUP4 ADD DUP7 PUSH2 0xC62 JUMP JUMPDEST PUSH2 0x10DE PUSH1 0x20 DUP4 ADD DUP6 PUSH2 0xC3A JUMP JUMPDEST PUSH2 0x10EB PUSH1 0x40 DUP4 ADD DUP5 PUSH2 0xC3A JUMP JUMPDEST SWAP5 SWAP4 POP POP POP POP JUMP JUMPDEST PUSH32 0x4E487B7100000000000000000000000000000000000000000000000000000000 PUSH0 MSTORE PUSH1 0x11 PUSH1 0x4 MSTORE PUSH1 0x24 PUSH0 REVERT JUMPDEST PUSH0 PUSH2 0x112A DUP3 PUSH2 0x9E4 JUMP JUMPDEST SWAP2 POP PUSH2 0x1135 DUP4 PUSH2 0x9E4 JUMP JUMPDEST SWAP3 POP DUP3 DUP3 ADD SWAP1 POP DUP1 DUP3 GT ISZERO PUSH2 0x114D JUMPI PUSH2 0x114C PUSH2 0x10F3 JUMP JUMPDEST JUMPDEST SWAP3 SWAP2 POP POP JUMP JUMPDEST PUSH0 PUSH1 0x60 DUP3 ADD SWAP1 POP PUSH2 0x1166 PUSH0 DUP4 ADD DUP7 PUSH2 0xC3A JUMP JUMPDEST PUSH2 0x1173 PUSH1 0x20 DUP4 ADD DUP6 PUSH2 0xC62 JUMP JUMPDEST PUSH2 0x1180 PUSH1 0x40 DUP4 ADD DUP5 PUSH2 0xC3A JUMP JUMPDEST SWAP5 SWAP4 POP POP POP POP JUMP JUMPDEST PUSH0 DUP2 SWAP1 POP DUP2 PUSH0 MSTORE PUSH1 0x20 PUSH0 KECCAK256 SWAP1 POP SWAP2 SWAP1 POP JUMP JUMPDEST PUSH0 PUSH1 0x20 PUSH1 0x1F DUP4 ADD DIV SWAP1 POP SWAP2 SWAP1 POP JUMP JUMPDEST PUSH0 DUP3 DUP3 SHL SWAP1 POP SWAP3 SWAP2 POP POP JUMP JUMPDEST PUSH0 PUSH1 0x8 DUP4 MUL PUSH2 0x11E4 PUSH32 0xFFFFFFFFFFFFFFFFFFFFFFFFFFFFFFFFFFFFFFFFFFFFFFFFFFFFFFFFFFFFFFFF DUP3 PUSH2 0x11A9 JUMP JUMPDEST PUSH2 0x11EE DUP7 DUP4 PUSH2 0x11A9 JUMP JUMPDEST SWAP6 POP DUP1 NOT DUP5 AND SWAP4 POP DUP1 DUP7 AND DUP5 OR SWAP3 POP POP POP SWAP4 SWAP3 POP POP POP JUMP JUMPDEST PUSH0 DUP2 SWAP1 POP SWAP2 SWAP1 POP JUMP JUMPDEST PUSH0 PUSH2 0x1229 PUSH2 0x1224 PUSH2 0x121F DUP5 PUSH2 0x9E4 JUMP JUMPDEST PUSH2 0x1206 JUMP JUMPDEST PUSH2 0x9E4 JUMP JUMPDEST SWAP1 POP SWAP2 SWAP1 POP JUMP JUMPDEST PUSH0 DUP2 SWAP1 POP SWAP2 SWAP1 POP JUMP JUMPDEST PUSH2 0x1242 DUP4 PUSH2 0x120F JUMP JUMPDEST PUSH2 0x1256 PUSH2 0x124E DUP3 PUSH2 0x1230 JUMP JUMPDEST DUP5 DUP5 SLOAD PUSH2 0x11B5 JUMP JUMPDEST DUP3 SSTORE POP POP POP POP JUMP JUMPDEST PUSH0 SWAP1 JUMP JUMPDEST PUSH2 0x126A PUSH2 0x125E JUMP JUMPDEST PUSH2 0x1275 DUP2 DUP5 DUP5 PUSH2 0x1239 JUMP JUMPDEST POP POP POP JUMP JUMPDEST JUMPDEST DUP2 DUP2 LT ISZERO PUSH2 0x1298 JUMPI PUSH2 0x128D PUSH0 DUP3 PUSH2 0x1262 JUMP JUMPDEST PUSH1 0x1 DUP2 ADD SWAP1 POP PUSH2 0x127B JUMP JUMPDEST POP POP JUMP JUMPDEST PUSH1 0x1F DUP3 GT ISZERO PUSH2 0x12DD JUMPI PUSH2 0x12AE DUP2 PUSH2 0x1188 JUMP JUMPDEST PUSH2 0x12B7 DUP5 PUSH2 0x119A JUMP JUMPDEST DUP2 ADD PUSH1 0x20 DUP6 LT ISZERO PUSH2 0x12C6 JUMPI DUP2 SWAP1 POP JUMPDEST PUSH2 0x12DA PUSH2 0x12D2 DUP6 PUSH2 0x119A JUMP JUMPDEST DUP4 ADD DUP3 PUSH2 0x127A JUMP JUMPDEST POP POP JUMPDEST POP POP POP JUMP JUMPDEST PUSH0 DUP3 DUP3 SHR SWAP1 POP SWAP3 SWAP2 POP POP JUMP JUMPDEST PUSH0 PUSH2 0x12FD PUSH0 NOT DUP5 PUSH1 0x8 MUL PUSH2 0x12E2 JUMP JUMPDEST NOT DUP1 DUP4 AND SWAP2 POP POP SWAP3 SWAP2 POP POP JUMP JUMPDEST PUSH0 PUSH2 0x1315 DUP4 DUP4 PUSH2 0x12EE JUMP JUMPDEST SWAP2 POP DUP3 PUSH1 0x2 MUL DUP3 OR SWAP1 POP SWAP3 SWAP2 POP POP JUMP JUMPDEST PUSH2 0x132E DUP3 PUSH2 0xA42 JUMP JUMPDEST PUSH8 0xFFFFFFFFFFFFFFFF DUP2 GT ISZERO PUSH2 0x1347 JUMPI PUSH2 0x1346 PUSH2 0xC92 JUMP JUMPDEST JUMPDEST PUSH2 0x1351 DUP3 SLOAD PUSH2 0xE6B JUMP JUMPDEST PUSH2 0x135C DUP3 DUP3 DUP6 PUSH2 0x129C JUMP JUMPDEST PUSH0 PUSH1 0x20 SWAP1 POP PUSH1 0x1F DUP4 GT PUSH1 0x1 DUP2 EQ PUSH2 0x138D JUMPI PUSH0 DUP5 ISZERO PUSH2 0x137B JUMPI DUP3 DUP8 ADD MLOAD SWAP1 POP JUMPDEST PUSH2 0x1385 DUP6 DUP3 PUSH2 0x130A JUMP JUMPDEST DUP7 SSTORE POP PUSH2 0x13EC JUMP JUMPDEST PUSH1 0x1F NOT DUP5 AND PUSH2 0x139B DUP7 PUSH2 0x1188 JUMP JUMPDEST PUSH0 JUMPDEST DUP3 DUP2 LT ISZERO PUSH2 0x13C2 JUMPI DUP5 DUP10 ADD MLOAD DUP3 SSTORE PUSH1 0x1 DUP3 ADD SWAP2 POP PUSH1 0x20 DUP6 ADD SWAP5 POP PUSH1 0x20 DUP2 ADD SWAP1 POP PUSH2 0x139D JUMP JUMPDEST DUP7 DUP4 LT ISZERO PUSH2 0x13DF JUMPI DUP5 DUP10 ADD MLOAD PUSH2 0x13DB PUSH1 0x1F DUP10 AND DUP3 PUSH2 0x12EE JUMP JUMPDEST DUP4 SSTORE POP JUMPDEST PUSH1 0x1 PUSH1 0x2 DUP9 MUL ADD DUP9 SSTORE POP POP POP JUMPDEST POP POP POP POP POP POP JUMP JUMPDEST PUSH0 PUSH2 0x13FE DUP3 PUSH2 0x9E4 JUMP JUMPDEST SWAP2 POP PUSH32 0xFFFFFFFFFFFFFFFFFFFFFFFFFFFFFFFFFFFFFFFFFFFFFFFFFFFFFFFFFFFFFFFF DUP3 SUB PUSH2 0x1430 JUMPI PUSH2 0x142F PUSH2 0x10F3 JUMP JUMPDEST JUMPDEST PUSH1 0x1 DUP3 ADD SWAP1 POP SWAP2 SWAP1 POP JUMP INVALID LOG2 PUSH5 0x6970667358 0x22 SLT KECCAK256 SWAP4 0xE9 0xCE 0xCC STATICCALL SWAP11 PUSH3 0xC84C6B SWAP14 PUSH23 0x24BADD008E4BCC0A0874DA340377BEF1EFF0DAD64736F PUSH13 0x63430008160033000000000000 "
		},
		"gasEstimates": {
			"creation": {
				"codeDepositCost": "1046600",
				"executionCost": "infinite",
				"totalCost": "infinite"
			},
			"external": {
				"claim(uint256)": "infinite",
				"contract_owner()": "2505",
				"contribution(uint256)": "infinite",
				"creation(string,string,uint256)": "infinite",
				"endtime()": "2470",
				"getdetails(uint256)": "infinite",
				"goals()": "2447",
				"id()": "2491",
				"refund(uint256)": "infinite"
			},
			"internal": {
				"add_user(string memory,string memory,uint256)": "infinite"
			}
		},
		"methodIdentifiers": {
			"claim(uint256)": "379607f5",
			"contract_owner()": "384f58eb",
			"contribution(uint256)": "e8709c40",
			"creation(string,string,uint256)": "7ef36b0b",
			"endtime()": "2ca126f8",
			"getdetails(uint256)": "10445b2b",
			"goals()": "478a4be5",
			"id()": "af640d0f",
			"refund(uint256)": "278ecde1"
		}
	},
	"abi": [
		{
			"inputs": [],
			"stateMutability": "nonpayable",
			"type": "constructor"
		},
		{
			"anonymous": false,
			"inputs": [
				{
					"indexed": false,
					"internalType": "address",
					"name": "user",
					"type": "address"
				},
				{
					"indexed": false,
					"internalType": "uint256",
					"name": "id",
					"type": "uint256"
				}
			],
			"name": "complete",
			"type": "event"
		},
		{
			"anonymous": false,
			"inputs": [
				{
					"indexed": false,
					"internalType": "uint256",
					"name": "id",
					"type": "uint256"
				},
				{
					"indexed": false,
					"internalType": "address",
					"name": "user",
					"type": "address"
				},
				{
					"indexed": false,
					"internalType": "uint256",
					"name": "amount",
					"type": "uint256"
				}
			],
			"name": "contribute",
			"type": "event"
		},
		{
			"anonymous": false,
			"inputs": [
				{
					"indexed": false,
					"internalType": "address",
					"name": "user",
					"type": "address"
				},
				{
					"indexed": false,
					"internalType": "uint256",
					"name": "id",
					"type": "uint256"
				},
				{
					"indexed": false,
					"internalType": "uint256",
					"name": "goal",
					"type": "uint256"
				}
			],
			"name": "creat",
			"type": "event"
		},
		{
			"anonymous": false,
			"inputs": [
				{
					"indexed": false,
					"internalType": "address",
					"name": "user",
					"type": "address"
				},
				{
					"indexed": false,
					"internalType": "uint256",
					"name": "id",
					"type": "uint256"
				}
			],
			"name": "refundclaim",
			"type": "event"
		},
		{
			"inputs": [
				{
					"internalType": "uint256",
					"name": "user_id",
					"type": "uint256"
				}
			],
			"name": "claim",
			"outputs": [],
			"stateMutability": "nonpayable",
			"type": "function"
		},
		{
			"inputs": [],
			"name": "contract_owner",
			"outputs": [
				{
					"internalType": "address",
					"name": "",
					"type": "address"
				}
			],
			"stateMutability": "view",
			"type": "function"
		},
		{
			"inputs": [
				{
					"internalType": "uint256",
					"name": "user_id",
					"type": "uint256"
				}
			],
			"name": "contribution",
			"outputs": [],
			"stateMutability": "payable",
			"type": "function"
		},
		{
			"inputs": [
				{
					"internalType": "string",
					"name": "_name",
					"type": "string"
				},
				{
					"internalType": "string",
					"name": "_discription",
					"type": "string"
				},
				{
					"internalType": "uint256",
					"name": "_goal",
					"type": "uint256"
				}
			],
			"name": "creation",
			"outputs": [],
			"stateMutability": "nonpayable",
			"type": "function"
		},
		{
			"inputs": [],
			"name": "endtime",
			"outputs": [
				{
					"internalType": "uint256",
					"name": "",
					"type": "uint256"
				}
			],
			"stateMutability": "view",
			"type": "function"
		},
		{
			"inputs": [
				{
					"internalType": "uint256",
					"name": "uid",
					"type": "uint256"
				}
			],
			"name": "getdetails",
			"outputs": [
				{
					"components": [
						{
							"internalType": "string",
							"name": "name",
							"type": "string"
						},
						{
							"internalType": "string",
							"name": "discription",
							"type": "string"
						},
						{
							"internalType": "address",
							"name": "campowner",
							"type": "address"
						},
						{
							"internalType": "uint256",
							"name": "goal",
							"type": "uint256"
						},
						{
							"internalType": "uint256",
							"name": "raiseamount",
							"type": "uint256"
						},
						{
							"internalType": "enum DAPP.checkstate",
							"name": "state",
							"type": "uint8"
						}
					],
					"internalType": "struct DAPP.funding",
					"name": "",
					"type": "tuple"
				}
			],
			"stateMutability": "view",
			"type": "function"
		},
		{
			"inputs": [],
			"name": "goals",
			"outputs": [
				{
					"internalType": "uint256",
					"name": "",
					"type": "uint256"
				}
			],
			"stateMutability": "view",
			"type": "function"
		},
		{
			"inputs": [],
			"name": "id",
			"outputs": [
				{
					"internalType": "uint256",
					"name": "",
					"type": "uint256"
				}
			],
			"stateMutability": "view",
			"type": "function"
		},
		{
			"inputs": [
				{
					"internalType": "uint256",
					"name": "user_id",
					"type": "uint256"
				}
			],
			"name": "refund",
			"outputs": [],
			"stateMutability": "nonpayable",
			"type": "function"
		}
	]
}