{
	"data": {
		"bytecode": {
			"linkReferences": {},
			"object": "608060405234801561000f575f80fd5b506107e68061001d5f395ff3fe608060405234801561000f575f80fd5b5060043610610034575f3560e01c80630211d2e9146100385780638b9c657a14610054575b5f80fd5b610052600480360381019061004d9190610399565b610085565b005b61006e60048036038101906100699190610405565b61011a565b60405161007c9291906104b9565b60405180910390f35b815f808573ffffffffffffffffffffffffffffffffffffffff1673ffffffffffffffffffffffffffffffffffffffff1681526020019081526020015f205f0190816100d091906106e1565b50805f808573ffffffffffffffffffffffffffffffffffffffff1673ffffffffffffffffffffffffffffffffffffffff1681526020019081526020015f2060010181905550505050565b5f602052805f5260405f205f91509050805f01805461013890610514565b80601f016020809104026020016040519081016040528092919081815260200182805461016490610514565b80156101af5780601f10610186576101008083540402835291602001916101af565b820191905f5260205f20905b81548152906001019060200180831161019257829003601f168201915b5050505050908060010154905082565b5f604051905090565b5f80fd5b5f80fd5b5f73ffffffffffffffffffffffffffffffffffffffff82169050919050565b5f6101f9826101d0565b9050919050565b610209816101ef565b8114610213575f80fd5b50565b5f8135905061022481610200565b92915050565b5f80fd5b5f80fd5b5f601f19601f8301169050919050565b7f4e487b71000000000000000000000000000000000000000000000000000000005f52604160045260245ffd5b61027882610232565b810181811067ffffffffffffffff8211171561029757610296610242565b5b80604052505050565b5f6102a96101bf565b90506102b5828261026f565b919050565b5f67ffffffffffffffff8211156102d4576102d3610242565b5b6102dd82610232565b9050602081019050919050565b828183375f83830152505050565b5f61030a610305846102ba565b6102a0565b9050828152602081018484840111156103265761032561022e565b5b6103318482856102ea565b509392505050565b5f82601f83011261034d5761034c61022a565b5b813561035d8482602086016102f8565b91505092915050565b5f819050919050565b61037881610366565b8114610382575f80fd5b50565b5f813590506103938161036f565b92915050565b5f805f606084860312156103b0576103af6101c8565b5b5f6103bd86828701610216565b935050602084013567ffffffffffffffff8111156103de576103dd6101cc565b5b6103ea86828701610339565b92505060406103fb86828701610385565b9150509250925092565b5f6020828403121561041a576104196101c8565b5b5f61042784828501610216565b91505092915050565b5f81519050919050565b5f82825260208201905092915050565b5f5b8381101561046757808201518184015260208101905061044c565b5f8484015250505050565b5f61047c82610430565b610486818561043a565b935061049681856020860161044a565b61049f81610232565b840191505092915050565b6104b381610366565b82525050565b5f6040820190508181035f8301526104d18185610472565b90506104e060208301846104aa565b9392505050565b7f4e487b71000000000000000000000000000000000000000000000000000000005f52602260045260245ffd5b5f600282049050600182168061052b57607f821691505b60208210810361053e5761053d6104e7565b5b50919050565b5f819050815f5260205f209050919050565b5f6020601f8301049050919050565b5f82821b905092915050565b5f600883026105a07fffffffffffffffffffffffffffffffffffffffffffffffffffffffffffffffff82610565565b6105aa8683610565565b95508019841693508086168417925050509392505050565b5f819050919050565b5f6105e56105e06105db84610366565b6105c2565b610366565b9050919050565b5f819050919050565b6105fe836105cb565b61061261060a826105ec565b848454610571565b825550505050565b5f90565b61062661061a565b6106318184846105f5565b505050565b5b81811015610654576106495f8261061e565b600181019050610637565b5050565b601f8211156106995761066a81610544565b61067384610556565b81016020851015610682578190505b61069661068e85610556565b830182610636565b50505b505050565b5f82821c905092915050565b5f6106b95f198460080261069e565b1980831691505092915050565b5f6106d183836106aa565b9150826002028217905092915050565b6106ea82610430565b67ffffffffffffffff81111561070357610702610242565b5b61070d8254610514565b610718828285610658565b5f60209050601f831160018114610749575f8415610737578287015190505b61074185826106c6565b8655506107a8565b601f19841661075786610544565b5f5b8281101561077e57848901518255600182019150602085019450602081019050610759565b8683101561079b5784890151610797601f8916826106aa565b8355505b6001600288020188555050505b50505050505056fea2646970667358221220d096d0b845cdf3098166f58234bef3b7fe07c4575f40e3c6a6f95cb30abca90a64736f6c63430008170033",
			"opcodes": "PUSH1 0x80 PUSH1 0x40 MSTORE CALLVALUE DUP1 ISZERO PUSH2 0xF JUMPI PUSH0 DUP1 REVERT JUMPDEST POP PUSH2 0x7E6 DUP1 PUSH2 0x1D PUSH0 CODECOPY PUSH0 RETURN INVALID PUSH1 0x80 PUSH1 0x40 MSTORE CALLVALUE DUP1 ISZERO PUSH2 0xF JUMPI PUSH0 DUP1 REVERT JUMPDEST POP PUSH1 0x4 CALLDATASIZE LT PUSH2 0x34 JUMPI PUSH0 CALLDATALOAD PUSH1 0xE0 SHR DUP1 PUSH4 0x211D2E9 EQ PUSH2 0x38 JUMPI DUP1 PUSH4 0x8B9C657A EQ PUSH2 0x54 JUMPI JUMPDEST PUSH0 DUP1 REVERT JUMPDEST PUSH2 0x52 PUSH1 0x4 DUP1 CALLDATASIZE SUB DUP2 ADD SWAP1 PUSH2 0x4D SWAP2 SWAP1 PUSH2 0x399 JUMP JUMPDEST PUSH2 0x85 JUMP JUMPDEST STOP JUMPDEST PUSH2 0x6E PUSH1 0x4 DUP1 CALLDATASIZE SUB DUP2 ADD SWAP1 PUSH2 0x69 SWAP2 SWAP1 PUSH2 0x405 JUMP JUMPDEST PUSH2 0x11A JUMP JUMPDEST PUSH1 0x40 MLOAD PUSH2 0x7C SWAP3 SWAP2 SWAP1 PUSH2 0x4B9 JUMP JUMPDEST PUSH1 0x40 MLOAD DUP1 SWAP2 SUB SWAP1 RETURN JUMPDEST DUP2 PUSH0 DUP1 DUP6 PUSH20 0xFFFFFFFFFFFFFFFFFFFFFFFFFFFFFFFFFFFFFFFF AND PUSH20 0xFFFFFFFFFFFFFFFFFFFFFFFFFFFFFFFFFFFFFFFF AND DUP2 MSTORE PUSH1 0x20 ADD SWAP1 DUP2 MSTORE PUSH1 0x20 ADD PUSH0 KECCAK256 PUSH0 ADD SWAP1 DUP2 PUSH2 0xD0 SWAP2 SWAP1 PUSH2 0x6E1 JUMP JUMPDEST POP DUP1 PUSH0 DUP1 DUP6 PUSH20 0xFFFFFFFFFFFFFFFFFFFFFFFFFFFFFFFFFFFFFFFF AND PUSH20 0xFFFFFFFFFFFFFFFFFFFFFFFFFFFFFFFFFFFFFFFF AND DUP2 MSTORE PUSH1 0x20 ADD SWAP1 DUP2 MSTORE PUSH1 0x20 ADD PUSH0 KECCAK256 PUSH1 0x1 ADD DUP2 SWAP1 SSTORE POP POP POP POP JUMP JUMPDEST PUSH0 PUSH1 0x20 MSTORE DUP1 PUSH0 MSTORE PUSH1 0x40 PUSH0 KECCAK256 PUSH0 SWAP2 POP SWAP1 POP DUP1 PUSH0 ADD DUP1 SLOAD PUSH2 0x138 SWAP1 PUSH2 0x514 JUMP JUMPDEST DUP1 PUSH1 0x1F ADD PUSH1 0x20 DUP1 SWAP2 DIV MUL PUSH1 0x20 ADD PUSH1 0x40 MLOAD SWAP1 DUP2 ADD PUSH1 0x40 MSTORE DUP1 SWAP3 SWAP2 SWAP1 DUP2 DUP2 MSTORE PUSH1 0x20 ADD DUP3 DUP1 SLOAD PUSH2 0x164 SWAP1 PUSH2 0x514 JUMP JUMPDEST DUP1 ISZERO PUSH2 0x1AF JUMPI DUP1 PUSH1 0x1F LT PUSH2 0x186 JUMPI PUSH2 0x100 DUP1 DUP4 SLOAD DIV MUL DUP4 MSTORE SWAP2 PUSH1 0x20 ADD SWAP2 PUSH2 0x1AF JUMP JUMPDEST DUP3 ADD SWAP2 SWAP1 PUSH0 MSTORE PUSH1 0x20 PUSH0 KECCAK256 SWAP1 JUMPDEST DUP2 SLOAD DUP2 MSTORE SWAP1 PUSH1 0x1 ADD SWAP1 PUSH1 0x20 ADD DUP1 DUP4 GT PUSH2 0x192 JUMPI DUP3 SWAP1 SUB PUSH1 0x1F AND DUP3 ADD SWAP2 JUMPDEST POP POP POP POP POP SWAP1 DUP1 PUSH1 0x1 ADD SLOAD SWAP1 POP DUP3 JUMP JUMPDEST PUSH0 PUSH1 0x40 MLOAD SWAP1 POP SWAP1 JUMP JUMPDEST PUSH0 DUP1 REVERT JUMPDEST PUSH0 DUP1 REVERT JUMPDEST PUSH0 PUSH20 0xFFFFFFFFFFFFFFFFFFFFFFFFFFFFFFFFFFFFFFFF DUP3 AND SWAP1 POP SWAP2 SWAP1 POP JUMP JUMPDEST PUSH0 PUSH2 0x1F9 DUP3 PUSH2 0x1D0 JUMP JUMPDEST SWAP1 POP SWAP2 SWAP1 POP JUMP JUMPDEST PUSH2 0x209 DUP2 PUSH2 0x1EF JUMP JUMPDEST DUP2 EQ PUSH2 0x213 JUMPI PUSH0 DUP1 REVERT JUMPDEST POP JUMP JUMPDEST PUSH0 DUP2 CALLDATALOAD SWAP1 POP PUSH2 0x224 DUP2 PUSH2 0x200 JUMP JUMPDEST SWAP3 SWAP2 POP POP JUMP JUMPDEST PUSH0 DUP1 REVERT JUMPDEST PUSH0 DUP1 REVERT JUMPDEST PUSH0 PUSH1 0x1F NOT PUSH1 0x1F DUP4 ADD AND SWAP1 POP SWAP2 SWAP1 POP JUMP JUMPDEST PUSH32 0x4E487B7100000000000000000000000000000000000000000000000000000000 PUSH0 MSTORE PUSH1 0x41 PUSH1 0x4 MSTORE PUSH1 0x24 PUSH0 REVERT JUMPDEST PUSH2 0x278 DUP3 PUSH2 0x232 JUMP JUMPDEST DUP2 ADD DUP2 DUP2 LT PUSH8 0xFFFFFFFFFFFFFFFF DUP3 GT OR ISZERO PUSH2 0x297 JUMPI PUSH2 0x296 PUSH2 0x242 JUMP JUMPDEST JUMPDEST DUP1 PUSH1 0x40 MSTORE POP POP POP JUMP JUMPDEST PUSH0 PUSH2 0x2A9 PUSH2 0x1BF JUMP JUMPDEST SWAP1 POP PUSH2 0x2B5 DUP3 DUP3 PUSH2 0x26F JUMP JUMPDEST SWAP2 SWAP1 POP JUMP JUMPDEST PUSH0 PUSH8 0xFFFFFFFFFFFFFFFF DUP3 GT ISZERO PUSH2 0x2D4 JUMPI PUSH2 0x2D3 PUSH2 0x242 JUMP JUMPDEST JUMPDEST PUSH2 0x2DD DUP3 PUSH2 0x232 JUMP JUMPDEST SWAP1 POP PUSH1 0x20 DUP2 ADD SWAP1 POP SWAP2 SWAP1 POP JUMP JUMPDEST DUP3 DUP2 DUP4 CALLDATACOPY PUSH0 DUP4 DUP4 ADD MSTORE POP POP POP JUMP JUMPDEST PUSH0 PUSH2 0x30A PUSH2 0x305 DUP5 PUSH2 0x2BA JUMP JUMPDEST PUSH2 0x2A0 JUMP JUMPDEST SWAP1 POP DUP3 DUP2 MSTORE PUSH1 0x20 DUP2 ADD DUP5 DUP5 DUP5 ADD GT ISZERO PUSH2 0x326 JUMPI PUSH2 0x325 PUSH2 0x22E JUMP JUMPDEST JUMPDEST PUSH2 0x331 DUP5 DUP3 DUP6 PUSH2 0x2EA JUMP JUMPDEST POP SWAP4 SWAP3 POP POP POP JUMP JUMPDEST PUSH0 DUP3 PUSH1 0x1F DUP4 ADD SLT PUSH2 0x34D JUMPI PUSH2 0x34C PUSH2 0x22A JUMP JUMPDEST JUMPDEST DUP2 CALLDATALOAD PUSH2 0x35D DUP5 DUP3 PUSH1 0x20 DUP7 ADD PUSH2 0x2F8 JUMP JUMPDEST SWAP2 POP POP SWAP3 SWAP2 POP POP JUMP JUMPDEST PUSH0 DUP2 SWAP1 POP SWAP2 SWAP1 POP JUMP JUMPDEST PUSH2 0x378 DUP2 PUSH2 0x366 JUMP JUMPDEST DUP2 EQ PUSH2 0x382 JUMPI PUSH0 DUP1 REVERT JUMPDEST POP JUMP JUMPDEST PUSH0 DUP2 CALLDATALOAD SWAP1 POP PUSH2 0x393 DUP2 PUSH2 0x36F JUMP JUMPDEST SWAP3 SWAP2 POP POP JUMP JUMPDEST PUSH0 DUP1 PUSH0 PUSH1 0x60 DUP5 DUP7 SUB SLT ISZERO PUSH2 0x3B0 JUMPI PUSH2 0x3AF PUSH2 0x1C8 JUMP JUMPDEST JUMPDEST PUSH0 PUSH2 0x3BD DUP7 DUP3 DUP8 ADD PUSH2 0x216 JUMP JUMPDEST SWAP4 POP POP PUSH1 0x20 DUP5 ADD CALLDATALOAD PUSH8 0xFFFFFFFFFFFFFFFF DUP2 GT ISZERO PUSH2 0x3DE JUMPI PUSH2 0x3DD PUSH2 0x1CC JUMP JUMPDEST JUMPDEST PUSH2 0x3EA DUP7 DUP3 DUP8 ADD PUSH2 0x339 JUMP JUMPDEST SWAP3 POP POP PUSH1 0x40 PUSH2 0x3FB DUP7 DUP3 DUP8 ADD PUSH2 0x385 JUMP JUMPDEST SWAP2 POP POP SWAP3 POP SWAP3 POP SWAP3 JUMP JUMPDEST PUSH0 PUSH1 0x20 DUP3 DUP5 SUB SLT ISZERO PUSH2 0x41A JUMPI PUSH2 0x419 PUSH2 0x1C8 JUMP JUMPDEST JUMPDEST PUSH0 PUSH2 0x427 DUP5 DUP3 DUP6 ADD PUSH2 0x216 JUMP JUMPDEST SWAP2 POP POP SWAP3 SWAP2 POP POP JUMP JUMPDEST PUSH0 DUP2 MLOAD SWAP1 POP SWAP2 SWAP1 POP JUMP JUMPDEST PUSH0 DUP3 DUP3 MSTORE PUSH1 0x20 DUP3 ADD SWAP1 POP SWAP3 SWAP2 POP POP JUMP JUMPDEST PUSH0 JUMPDEST DUP4 DUP2 LT ISZERO PUSH2 0x467 JUMPI DUP1 DUP3 ADD MLOAD DUP2 DUP5 ADD MSTORE PUSH1 0x20 DUP2 ADD SWAP1 POP PUSH2 0x44C JUMP JUMPDEST PUSH0 DUP5 DUP5 ADD MSTORE POP POP POP POP JUMP JUMPDEST PUSH0 PUSH2 0x47C DUP3 PUSH2 0x430 JUMP JUMPDEST PUSH2 0x486 DUP2 DUP6 PUSH2 0x43A JUMP JUMPDEST SWAP4 POP PUSH2 0x496 DUP2 DUP6 PUSH1 0x20 DUP7 ADD PUSH2 0x44A JUMP JUMPDEST PUSH2 0x49F DUP2 PUSH2 0x232 JUMP JUMPDEST DUP5 ADD SWAP2 POP POP SWAP3 SWAP2 POP POP JUMP JUMPDEST PUSH2 0x4B3 DUP2 PUSH2 0x366 JUMP JUMPDEST DUP3 MSTORE POP POP JUMP JUMPDEST PUSH0 PUSH1 0x40 DUP3 ADD SWAP1 POP DUP2 DUP2 SUB PUSH0 DUP4 ADD MSTORE PUSH2 0x4D1 DUP2 DUP6 PUSH2 0x472 JUMP JUMPDEST SWAP1 POP PUSH2 0x4E0 PUSH1 0x20 DUP4 ADD DUP5 PUSH2 0x4AA JUMP JUMPDEST SWAP4 SWAP3 POP POP POP JUMP JUMPDEST PUSH32 0x4E487B7100000000000000000000000000000000000000000000000000000000 PUSH0 MSTORE PUSH1 0x22 PUSH1 0x4 MSTORE PUSH1 0x24 PUSH0 REVERT JUMPDEST PUSH0 PUSH1 0x2 DUP3 DIV SWAP1 POP PUSH1 0x1 DUP3 AND DUP1 PUSH2 0x52B JUMPI PUSH1 0x7F DUP3 AND SWAP2 POP JUMPDEST PUSH1 0x20 DUP3 LT DUP2 SUB PUSH2 0x53E JUMPI PUSH2 0x53D PUSH2 0x4E7 JUMP JUMPDEST JUMPDEST POP SWAP2 SWAP1 POP JUMP JUMPDEST PUSH0 DUP2 SWAP1 POP DUP2 PUSH0 MSTORE PUSH1 0x20 PUSH0 KECCAK256 SWAP1 POP SWAP2 SWAP1 POP JUMP JUMPDEST PUSH0 PUSH1 0x20 PUSH1 0x1F DUP4 ADD DIV SWAP1 POP SWAP2 SWAP1 POP JUMP JUMPDEST PUSH0 DUP3 DUP3 SHL SWAP1 POP SWAP3 SWAP2 POP POP JUMP JUMPDEST PUSH0 PUSH1 0x8 DUP4 MUL PUSH2 0x5A0 PUSH32 0xFFFFFFFFFFFFFFFFFFFFFFFFFFFFFFFFFFFFFFFFFFFFFFFFFFFFFFFFFFFFFFFF DUP3 PUSH2 0x565 JUMP JUMPDEST PUSH2 0x5AA DUP7 DUP4 PUSH2 0x565 JUMP JUMPDEST SWAP6 POP DUP1 NOT DUP5 AND SWAP4 POP DUP1 DUP7 AND DUP5 OR SWAP3 POP POP POP SWAP4 SWAP3 POP POP POP JUMP JUMPDEST PUSH0 DUP2 SWAP1 POP SWAP2 SWAP1 POP JUMP JUMPDEST PUSH0 PUSH2 0x5E5 PUSH2 0x5E0 PUSH2 0x5DB DUP5 PUSH2 0x366 JUMP JUMPDEST PUSH2 0x5C2 JUMP JUMPDEST PUSH2 0x366 JUMP JUMPDEST SWAP1 POP SWAP2 SWAP1 POP JUMP JUMPDEST PUSH0 DUP2 SWAP1 POP SWAP2 SWAP1 POP JUMP JUMPDEST PUSH2 0x5FE DUP4 PUSH2 0x5CB JUMP JUMPDEST PUSH2 0x612 PUSH2 0x60A DUP3 PUSH2 0x5EC JUMP JUMPDEST DUP5 DUP5 SLOAD PUSH2 0x571 JUMP JUMPDEST DUP3 SSTORE POP POP POP POP JUMP JUMPDEST PUSH0 SWAP1 JUMP JUMPDEST PUSH2 0x626 PUSH2 0x61A JUMP JUMPDEST PUSH2 0x631 DUP2 DUP5 DUP5 PUSH2 0x5F5 JUMP JUMPDEST POP POP POP JUMP JUMPDEST JUMPDEST DUP2 DUP2 LT ISZERO PUSH2 0x654 JUMPI PUSH2 0x649 PUSH0 DUP3 PUSH2 0x61E JUMP JUMPDEST PUSH1 0x1 DUP2 ADD SWAP1 POP PUSH2 0x637 JUMP JUMPDEST POP POP JUMP JUMPDEST PUSH1 0x1F DUP3 GT ISZERO PUSH2 0x699 JUMPI PUSH2 0x66A DUP2 PUSH2 0x544 JUMP JUMPDEST PUSH2 0x673 DUP5 PUSH2 0x556 JUMP JUMPDEST DUP2 ADD PUSH1 0x20 DUP6 LT ISZERO PUSH2 0x682 JUMPI DUP2 SWAP1 POP JUMPDEST PUSH2 0x696 PUSH2 0x68E DUP6 PUSH2 0x556 JUMP JUMPDEST DUP4 ADD DUP3 PUSH2 0x636 JUMP JUMPDEST POP POP JUMPDEST POP POP POP JUMP JUMPDEST PUSH0 DUP3 DUP3 SHR SWAP1 POP SWAP3 SWAP2 POP POP JUMP JUMPDEST PUSH0 PUSH2 0x6B9 PUSH0 NOT DUP5 PUSH1 0x8 MUL PUSH2 0x69E JUMP JUMPDEST NOT DUP1 DUP4 AND SWAP2 POP POP SWAP3 SWAP2 POP POP JUMP JUMPDEST PUSH0 PUSH2 0x6D1 DUP4 DUP4 PUSH2 0x6AA JUMP JUMPDEST SWAP2 POP DUP3 PUSH1 0x2 MUL DUP3 OR SWAP1 POP SWAP3 SWAP2 POP POP JUMP JUMPDEST PUSH2 0x6EA DUP3 PUSH2 0x430 JUMP JUMPDEST PUSH8 0xFFFFFFFFFFFFFFFF DUP2 GT ISZERO PUSH2 0x703 JUMPI PUSH2 0x702 PUSH2 0x242 JUMP JUMPDEST JUMPDEST PUSH2 0x70D DUP3 SLOAD PUSH2 0x514 JUMP JUMPDEST PUSH2 0x718 DUP3 DUP3 DUP6 PUSH2 0x658 JUMP JUMPDEST PUSH0 PUSH1 0x20 SWAP1 POP PUSH1 0x1F DUP4 GT PUSH1 0x1 DUP2 EQ PUSH2 0x749 JUMPI PUSH0 DUP5 ISZERO PUSH2 0x737 JUMPI DUP3 DUP8 ADD MLOAD SWAP1 POP JUMPDEST PUSH2 0x741 DUP6 DUP3 PUSH2 0x6C6 JUMP JUMPDEST DUP7 SSTORE POP PUSH2 0x7A8 JUMP JUMPDEST PUSH1 0x1F NOT DUP5 AND PUSH2 0x757 DUP7 PUSH2 0x544 JUMP JUMPDEST PUSH0 JUMPDEST DUP3 DUP2 LT ISZERO PUSH2 0x77E JUMPI DUP5 DUP10 ADD MLOAD DUP3 SSTORE PUSH1 0x1 DUP3 ADD SWAP2 POP PUSH1 0x20 DUP6 ADD SWAP5 POP PUSH1 0x20 DUP2 ADD SWAP1 POP PUSH2 0x759 JUMP JUMPDEST DUP7 DUP4 LT ISZERO PUSH2 0x79B JUMPI DUP5 DUP10 ADD MLOAD PUSH2 0x797 PUSH1 0x1F DUP10 AND DUP3 PUSH2 0x6AA JUMP JUMPDEST DUP4 SSTORE POP JUMPDEST PUSH1 0x1 PUSH1 0x2 DUP9 MUL ADD DUP9 SSTORE POP POP POP JUMPDEST POP POP POP POP POP POP JUMP INVALID LOG2 PUSH5 0x6970667358 0x22 SLT KECCAK256 0xD0 SWAP7 0xD0 0xB8 GASLIMIT 0xCD RETURN MULMOD DUP2 PUSH7 0xF58234BEF3B7FE SMOD 0xC4 JUMPI PUSH0 BLOCKHASH 0xE3 0xC6 0xA6 0xF9 0x5C 0xB3 EXP 0xBC 0xA9 EXP PUSH5 0x736F6C6343 STOP ADDMOD OR STOP CALLER "
		},
		"gasEstimates": {
			"creation": {
				"codeDepositCost": "404400",
				"executionCost": "441",
				"totalCost": "404841"
			},
			"external": {
				"getInfoByWallet(address)": "infinite",
				"setInfo(address,string,uint256)": "infinite"
			}
		},
		"methodIdentifiers": {
			"getInfoByWallet(address)": "8b9c657a",
			"setInfo(address,string,uint256)": "0211d2e9"
		}
	},
	"abi": [
		{
			"inputs": [
				{
					"internalType": "address",
					"name": "",
					"type": "address"
				}
			],
			"name": "getInfoByWallet",
			"outputs": [
				{
					"internalType": "string",
					"name": "name",
					"type": "string"
				},
				{
					"internalType": "uint256",
					"name": "balance",
					"type": "uint256"
				}
			],
			"stateMutability": "view",
			"type": "function"
		},
		{
			"inputs": [
				{
					"internalType": "address",
					"name": "_wall",
					"type": "address"
				},
				{
					"internalType": "string",
					"name": "_name",
					"type": "string"
				},
				{
					"internalType": "uint256",
					"name": "_balance",
					"type": "uint256"
				}
			],
			"name": "setInfo",
			"outputs": [],
			"stateMutability": "nonpayable",
			"type": "function"
		}
	]
}