{
	"data": {
		"bytecode": {
			"linkReferences": {},
			"object": "608060405234801561000f575f80fd5b50610b5a8061001d5f395ff3fe60806040526004361061003e575f3560e01c80632eb01538146100425780634d61b58c1461005e578063e379a49814610086578063f94a6dda146100ae575b5f80fd5b61005c60048036038101906100579190610517565b6100ca565b005b348015610069575f80fd5b50610084600480360381019061007f91906105d0565b610126565b005b348015610091575f80fd5b506100ac60048036038101906100a79190610686565b610149565b005b6100c860048036038101906100c3919061072b565b6102a2565b005b6100d987878787600188610149565b8173ffffffffffffffffffffffffffffffffffffffff166108fc8290811502906040515f60405180830381858888f1935050505015801561011c573d5f803e3d5ffd5b5050505050505050565b610134858585855f86610149565b808061013f906107fd565b9150505050505050565b5f808773ffffffffffffffffffffffffffffffffffffffff1673ffffffffffffffffffffffffffffffffffffffff1681526020019081526020015f206040518060a001604052808781526020018681526020018573ffffffffffffffffffffffffffffffffffffffff1681526020018460028111156101cb576101ca610824565b5b815260200183815250908060018154018082558091505060019003905f5260205f2090600402015f909190919091505f820151815f01908161020d9190610a55565b50602082015181600101556040820151816002015f6101000a81548173ffffffffffffffffffffffffffffffffffffffff021916908373ffffffffffffffffffffffffffffffffffffffff16021790555060608201518160020160146101000a81548160ff0219169083600281111561028957610288610824565b5b0217905550608082015181600301555050505050505050565b6102b186868686600287610149565b5f4790508173ffffffffffffffffffffffffffffffffffffffff166108fc8290811502906040515f60405180830381858888f193505050501580156102f8573d5f803e3d5ffd5b5050505050505050565b5f604051905090565b5f80fd5b5f80fd5b5f73ffffffffffffffffffffffffffffffffffffffff82169050919050565b5f61033c82610313565b9050919050565b61034c81610332565b8114610356575f80fd5b50565b5f8135905061036781610343565b92915050565b5f80fd5b5f80fd5b5f601f19601f8301169050919050565b7f4e487b71000000000000000000000000000000000000000000000000000000005f52604160045260245ffd5b6103bb82610375565b810181811067ffffffffffffffff821117156103da576103d9610385565b5b80604052505050565b5f6103ec610302565b90506103f882826103b2565b919050565b5f67ffffffffffffffff82111561041757610416610385565b5b61042082610375565b9050602081019050919050565b828183375f83830152505050565b5f61044d610448846103fd565b6103e3565b90508281526020810184848401111561046957610468610371565b5b61047484828561042d565b509392505050565b5f82601f8301126104905761048f61036d565b5b81356104a084826020860161043b565b91505092915050565b5f819050919050565b6104bb816104a9565b81146104c5575f80fd5b50565b5f813590506104d6816104b2565b92915050565b5f6104e682610313565b9050919050565b6104f6816104dc565b8114610500575f80fd5b50565b5f81359050610511816104ed565b92915050565b5f805f805f805f60e0888a0312156105325761053161030b565b5b5f61053f8a828b01610359565b975050602088013567ffffffffffffffff8111156105605761055f61030f565b5b61056c8a828b0161047c565b965050604061057d8a828b016104c8565b955050606061058e8a828b01610359565b945050608061059f8a828b016104c8565b93505060a06105b08a828b01610503565b92505060c06105c18a828b016104c8565b91505092959891949750929550565b5f805f805f60a086880312156105e9576105e861030b565b5b5f6105f688828901610359565b955050602086013567ffffffffffffffff8111156106175761061661030f565b5b6106238882890161047c565b9450506040610634888289016104c8565b935050606061064588828901610359565b9250506080610656888289016104c8565b9150509295509295909350565b6003811061066f575f80fd5b50565b5f8135905061068081610663565b92915050565b5f805f805f8060c087890312156106a05761069f61030b565b5b5f6106ad89828a01610359565b965050602087013567ffffffffffffffff8111156106ce576106cd61030f565b5b6106da89828a0161047c565b95505060406106eb89828a016104c8565b94505060606106fc89828a01610359565b935050608061070d89828a01610672565b92505060a061071e89828a016104c8565b9150509295509295509295565b5f805f805f8060c087890312156107455761074461030b565b5b5f61075289828a01610359565b965050602087013567ffffffffffffffff8111156107735761077261030f565b5b61077f89828a0161047c565b955050604061079089828a016104c8565b94505060606107a189828a01610359565b93505060806107b289828a016104c8565b92505060a06107c389828a01610503565b9150509295509295509295565b7f4e487b71000000000000000000000000000000000000000000000000000000005f52601160045260245ffd5b5f610807826104a9565b91505f8203610819576108186107d0565b5b600182039050919050565b7f4e487b71000000000000000000000000000000000000000000000000000000005f52602160045260245ffd5b5f81519050919050565b7f4e487b71000000000000000000000000000000000000000000000000000000005f52602260045260245ffd5b5f600282049050600182168061089f57607f821691505b6020821081036108b2576108b161085b565b5b50919050565b5f819050815f5260205f209050919050565b5f6020601f8301049050919050565b5f82821b905092915050565b5f600883026109147fffffffffffffffffffffffffffffffffffffffffffffffffffffffffffffffff826108d9565b61091e86836108d9565b95508019841693508086168417925050509392505050565b5f819050919050565b5f61095961095461094f846104a9565b610936565b6104a9565b9050919050565b5f819050919050565b6109728361093f565b61098661097e82610960565b8484546108e5565b825550505050565b5f90565b61099a61098e565b6109a5818484610969565b505050565b5b818110156109c8576109bd5f82610992565b6001810190506109ab565b5050565b601f821115610a0d576109de816108b8565b6109e7846108ca565b810160208510156109f6578190505b610a0a610a02856108ca565b8301826109aa565b50505b505050565b5f82821c905092915050565b5f610a2d5f1984600802610a12565b1980831691505092915050565b5f610a458383610a1e565b9150826002028217905092915050565b610a5e82610851565b67ffffffffffffffff811115610a7757610a76610385565b5b610a818254610888565b610a8c8282856109cc565b5f60209050601f831160018114610abd575f8415610aab578287015190505b610ab58582610a3a565b865550610b1c565b601f198416610acb866108b8565b5f5b82811015610af257848901518255600182019150602085019450602081019050610acd565b86831015610b0f5784890151610b0b601f891682610a1e565b8355505b6001600288020188555050505b50505050505056fea264697066735822122058271ea4fc9a7be65da13feb450e9cb62c2738b6d3345e1ab9c470b06b5d770d64736f6c63430008160033",
			"opcodes": "PUSH1 0x80 PUSH1 0x40 MSTORE CALLVALUE DUP1 ISZERO PUSH2 0xF JUMPI PUSH0 DUP1 REVERT JUMPDEST POP PUSH2 0xB5A DUP1 PUSH2 0x1D PUSH0 CODECOPY PUSH0 RETURN INVALID PUSH1 0x80 PUSH1 0x40 MSTORE PUSH1 0x4 CALLDATASIZE LT PUSH2 0x3E JUMPI PUSH0 CALLDATALOAD PUSH1 0xE0 SHR DUP1 PUSH4 0x2EB01538 EQ PUSH2 0x42 JUMPI DUP1 PUSH4 0x4D61B58C EQ PUSH2 0x5E JUMPI DUP1 PUSH4 0xE379A498 EQ PUSH2 0x86 JUMPI DUP1 PUSH4 0xF94A6DDA EQ PUSH2 0xAE JUMPI JUMPDEST PUSH0 DUP1 REVERT JUMPDEST PUSH2 0x5C PUSH1 0x4 DUP1 CALLDATASIZE SUB DUP2 ADD SWAP1 PUSH2 0x57 SWAP2 SWAP1 PUSH2 0x517 JUMP JUMPDEST PUSH2 0xCA JUMP JUMPDEST STOP JUMPDEST CALLVALUE DUP1 ISZERO PUSH2 0x69 JUMPI PUSH0 DUP1 REVERT JUMPDEST POP PUSH2 0x84 PUSH1 0x4 DUP1 CALLDATASIZE SUB DUP2 ADD SWAP1 PUSH2 0x7F SWAP2 SWAP1 PUSH2 0x5D0 JUMP JUMPDEST PUSH2 0x126 JUMP JUMPDEST STOP JUMPDEST CALLVALUE DUP1 ISZERO PUSH2 0x91 JUMPI PUSH0 DUP1 REVERT JUMPDEST POP PUSH2 0xAC PUSH1 0x4 DUP1 CALLDATASIZE SUB DUP2 ADD SWAP1 PUSH2 0xA7 SWAP2 SWAP1 PUSH2 0x686 JUMP JUMPDEST PUSH2 0x149 JUMP JUMPDEST STOP JUMPDEST PUSH2 0xC8 PUSH1 0x4 DUP1 CALLDATASIZE SUB DUP2 ADD SWAP1 PUSH2 0xC3 SWAP2 SWAP1 PUSH2 0x72B JUMP JUMPDEST PUSH2 0x2A2 JUMP JUMPDEST STOP JUMPDEST PUSH2 0xD9 DUP8 DUP8 DUP8 DUP8 PUSH1 0x1 DUP9 PUSH2 0x149 JUMP JUMPDEST DUP2 PUSH20 0xFFFFFFFFFFFFFFFFFFFFFFFFFFFFFFFFFFFFFFFF AND PUSH2 0x8FC DUP3 SWAP1 DUP2 ISZERO MUL SWAP1 PUSH1 0x40 MLOAD PUSH0 PUSH1 0x40 MLOAD DUP1 DUP4 SUB DUP2 DUP6 DUP9 DUP9 CALL SWAP4 POP POP POP POP ISZERO DUP1 ISZERO PUSH2 0x11C JUMPI RETURNDATASIZE PUSH0 DUP1 RETURNDATACOPY RETURNDATASIZE PUSH0 REVERT JUMPDEST POP POP POP POP POP POP POP POP JUMP JUMPDEST PUSH2 0x134 DUP6 DUP6 DUP6 DUP6 PUSH0 DUP7 PUSH2 0x149 JUMP JUMPDEST DUP1 DUP1 PUSH2 0x13F SWAP1 PUSH2 0x7FD JUMP JUMPDEST SWAP2 POP POP POP POP POP POP POP JUMP JUMPDEST PUSH0 DUP1 DUP8 PUSH20 0xFFFFFFFFFFFFFFFFFFFFFFFFFFFFFFFFFFFFFFFF AND PUSH20 0xFFFFFFFFFFFFFFFFFFFFFFFFFFFFFFFFFFFFFFFF AND DUP2 MSTORE PUSH1 0x20 ADD SWAP1 DUP2 MSTORE PUSH1 0x20 ADD PUSH0 KECCAK256 PUSH1 0x40 MLOAD DUP1 PUSH1 0xA0 ADD PUSH1 0x40 MSTORE DUP1 DUP8 DUP2 MSTORE PUSH1 0x20 ADD DUP7 DUP2 MSTORE PUSH1 0x20 ADD DUP6 PUSH20 0xFFFFFFFFFFFFFFFFFFFFFFFFFFFFFFFFFFFFFFFF AND DUP2 MSTORE PUSH1 0x20 ADD DUP5 PUSH1 0x2 DUP2 GT ISZERO PUSH2 0x1CB JUMPI PUSH2 0x1CA PUSH2 0x824 JUMP JUMPDEST JUMPDEST DUP2 MSTORE PUSH1 0x20 ADD DUP4 DUP2 MSTORE POP SWAP1 DUP1 PUSH1 0x1 DUP2 SLOAD ADD DUP1 DUP3 SSTORE DUP1 SWAP2 POP POP PUSH1 0x1 SWAP1 SUB SWAP1 PUSH0 MSTORE PUSH1 0x20 PUSH0 KECCAK256 SWAP1 PUSH1 0x4 MUL ADD PUSH0 SWAP1 SWAP2 SWAP1 SWAP2 SWAP1 SWAP2 POP PUSH0 DUP3 ADD MLOAD DUP2 PUSH0 ADD SWAP1 DUP2 PUSH2 0x20D SWAP2 SWAP1 PUSH2 0xA55 JUMP JUMPDEST POP PUSH1 0x20 DUP3 ADD MLOAD DUP2 PUSH1 0x1 ADD SSTORE PUSH1 0x40 DUP3 ADD MLOAD DUP2 PUSH1 0x2 ADD PUSH0 PUSH2 0x100 EXP DUP2 SLOAD DUP2 PUSH20 0xFFFFFFFFFFFFFFFFFFFFFFFFFFFFFFFFFFFFFFFF MUL NOT AND SWAP1 DUP4 PUSH20 0xFFFFFFFFFFFFFFFFFFFFFFFFFFFFFFFFFFFFFFFF AND MUL OR SWAP1 SSTORE POP PUSH1 0x60 DUP3 ADD MLOAD DUP2 PUSH1 0x2 ADD PUSH1 0x14 PUSH2 0x100 EXP DUP2 SLOAD DUP2 PUSH1 0xFF MUL NOT AND SWAP1 DUP4 PUSH1 0x2 DUP2 GT ISZERO PUSH2 0x289 JUMPI PUSH2 0x288 PUSH2 0x824 JUMP JUMPDEST JUMPDEST MUL OR SWAP1 SSTORE POP PUSH1 0x80 DUP3 ADD MLOAD DUP2 PUSH1 0x3 ADD SSTORE POP POP POP POP POP POP POP POP JUMP JUMPDEST PUSH2 0x2B1 DUP7 DUP7 DUP7 DUP7 PUSH1 0x2 DUP8 PUSH2 0x149 JUMP JUMPDEST PUSH0 SELFBALANCE SWAP1 POP DUP2 PUSH20 0xFFFFFFFFFFFFFFFFFFFFFFFFFFFFFFFFFFFFFFFF AND PUSH2 0x8FC DUP3 SWAP1 DUP2 ISZERO MUL SWAP1 PUSH1 0x40 MLOAD PUSH0 PUSH1 0x40 MLOAD DUP1 DUP4 SUB DUP2 DUP6 DUP9 DUP9 CALL SWAP4 POP POP POP POP ISZERO DUP1 ISZERO PUSH2 0x2F8 JUMPI RETURNDATASIZE PUSH0 DUP1 RETURNDATACOPY RETURNDATASIZE PUSH0 REVERT JUMPDEST POP POP POP POP POP POP POP POP JUMP JUMPDEST PUSH0 PUSH1 0x40 MLOAD SWAP1 POP SWAP1 JUMP JUMPDEST PUSH0 DUP1 REVERT JUMPDEST PUSH0 DUP1 REVERT JUMPDEST PUSH0 PUSH20 0xFFFFFFFFFFFFFFFFFFFFFFFFFFFFFFFFFFFFFFFF DUP3 AND SWAP1 POP SWAP2 SWAP1 POP JUMP JUMPDEST PUSH0 PUSH2 0x33C DUP3 PUSH2 0x313 JUMP JUMPDEST SWAP1 POP SWAP2 SWAP1 POP JUMP JUMPDEST PUSH2 0x34C DUP2 PUSH2 0x332 JUMP JUMPDEST DUP2 EQ PUSH2 0x356 JUMPI PUSH0 DUP1 REVERT JUMPDEST POP JUMP JUMPDEST PUSH0 DUP2 CALLDATALOAD SWAP1 POP PUSH2 0x367 DUP2 PUSH2 0x343 JUMP JUMPDEST SWAP3 SWAP2 POP POP JUMP JUMPDEST PUSH0 DUP1 REVERT JUMPDEST PUSH0 DUP1 REVERT JUMPDEST PUSH0 PUSH1 0x1F NOT PUSH1 0x1F DUP4 ADD AND SWAP1 POP SWAP2 SWAP1 POP JUMP JUMPDEST PUSH32 0x4E487B7100000000000000000000000000000000000000000000000000000000 PUSH0 MSTORE PUSH1 0x41 PUSH1 0x4 MSTORE PUSH1 0x24 PUSH0 REVERT JUMPDEST PUSH2 0x3BB DUP3 PUSH2 0x375 JUMP JUMPDEST DUP2 ADD DUP2 DUP2 LT PUSH8 0xFFFFFFFFFFFFFFFF DUP3 GT OR ISZERO PUSH2 0x3DA JUMPI PUSH2 0x3D9 PUSH2 0x385 JUMP JUMPDEST JUMPDEST DUP1 PUSH1 0x40 MSTORE POP POP POP JUMP JUMPDEST PUSH0 PUSH2 0x3EC PUSH2 0x302 JUMP JUMPDEST SWAP1 POP PUSH2 0x3F8 DUP3 DUP3 PUSH2 0x3B2 JUMP JUMPDEST SWAP2 SWAP1 POP JUMP JUMPDEST PUSH0 PUSH8 0xFFFFFFFFFFFFFFFF DUP3 GT ISZERO PUSH2 0x417 JUMPI PUSH2 0x416 PUSH2 0x385 JUMP JUMPDEST JUMPDEST PUSH2 0x420 DUP3 PUSH2 0x375 JUMP JUMPDEST SWAP1 POP PUSH1 0x20 DUP2 ADD SWAP1 POP SWAP2 SWAP1 POP JUMP JUMPDEST DUP3 DUP2 DUP4 CALLDATACOPY PUSH0 DUP4 DUP4 ADD MSTORE POP POP POP JUMP JUMPDEST PUSH0 PUSH2 0x44D PUSH2 0x448 DUP5 PUSH2 0x3FD JUMP JUMPDEST PUSH2 0x3E3 JUMP JUMPDEST SWAP1 POP DUP3 DUP2 MSTORE PUSH1 0x20 DUP2 ADD DUP5 DUP5 DUP5 ADD GT ISZERO PUSH2 0x469 JUMPI PUSH2 0x468 PUSH2 0x371 JUMP JUMPDEST JUMPDEST PUSH2 0x474 DUP5 DUP3 DUP6 PUSH2 0x42D JUMP JUMPDEST POP SWAP4 SWAP3 POP POP POP JUMP JUMPDEST PUSH0 DUP3 PUSH1 0x1F DUP4 ADD SLT PUSH2 0x490 JUMPI PUSH2 0x48F PUSH2 0x36D JUMP JUMPDEST JUMPDEST DUP2 CALLDATALOAD PUSH2 0x4A0 DUP5 DUP3 PUSH1 0x20 DUP7 ADD PUSH2 0x43B JUMP JUMPDEST SWAP2 POP POP SWAP3 SWAP2 POP POP JUMP JUMPDEST PUSH0 DUP2 SWAP1 POP SWAP2 SWAP1 POP JUMP JUMPDEST PUSH2 0x4BB DUP2 PUSH2 0x4A9 JUMP JUMPDEST DUP2 EQ PUSH2 0x4C5 JUMPI PUSH0 DUP1 REVERT JUMPDEST POP JUMP JUMPDEST PUSH0 DUP2 CALLDATALOAD SWAP1 POP PUSH2 0x4D6 DUP2 PUSH2 0x4B2 JUMP JUMPDEST SWAP3 SWAP2 POP POP JUMP JUMPDEST PUSH0 PUSH2 0x4E6 DUP3 PUSH2 0x313 JUMP JUMPDEST SWAP1 POP SWAP2 SWAP1 POP JUMP JUMPDEST PUSH2 0x4F6 DUP2 PUSH2 0x4DC JUMP JUMPDEST DUP2 EQ PUSH2 0x500 JUMPI PUSH0 DUP1 REVERT JUMPDEST POP JUMP JUMPDEST PUSH0 DUP2 CALLDATALOAD SWAP1 POP PUSH2 0x511 DUP2 PUSH2 0x4ED JUMP JUMPDEST SWAP3 SWAP2 POP POP JUMP JUMPDEST PUSH0 DUP1 PUSH0 DUP1 PUSH0 DUP1 PUSH0 PUSH1 0xE0 DUP9 DUP11 SUB SLT ISZERO PUSH2 0x532 JUMPI PUSH2 0x531 PUSH2 0x30B JUMP JUMPDEST JUMPDEST PUSH0 PUSH2 0x53F DUP11 DUP3 DUP12 ADD PUSH2 0x359 JUMP JUMPDEST SWAP8 POP POP PUSH1 0x20 DUP9 ADD CALLDATALOAD PUSH8 0xFFFFFFFFFFFFFFFF DUP2 GT ISZERO PUSH2 0x560 JUMPI PUSH2 0x55F PUSH2 0x30F JUMP JUMPDEST JUMPDEST PUSH2 0x56C DUP11 DUP3 DUP12 ADD PUSH2 0x47C JUMP JUMPDEST SWAP7 POP POP PUSH1 0x40 PUSH2 0x57D DUP11 DUP3 DUP12 ADD PUSH2 0x4C8 JUMP JUMPDEST SWAP6 POP POP PUSH1 0x60 PUSH2 0x58E DUP11 DUP3 DUP12 ADD PUSH2 0x359 JUMP JUMPDEST SWAP5 POP POP PUSH1 0x80 PUSH2 0x59F DUP11 DUP3 DUP12 ADD PUSH2 0x4C8 JUMP JUMPDEST SWAP4 POP POP PUSH1 0xA0 PUSH2 0x5B0 DUP11 DUP3 DUP12 ADD PUSH2 0x503 JUMP JUMPDEST SWAP3 POP POP PUSH1 0xC0 PUSH2 0x5C1 DUP11 DUP3 DUP12 ADD PUSH2 0x4C8 JUMP JUMPDEST SWAP2 POP POP SWAP3 SWAP6 SWAP9 SWAP2 SWAP5 SWAP8 POP SWAP3 SWAP6 POP JUMP JUMPDEST PUSH0 DUP1 PUSH0 DUP1 PUSH0 PUSH1 0xA0 DUP7 DUP9 SUB SLT ISZERO PUSH2 0x5E9 JUMPI PUSH2 0x5E8 PUSH2 0x30B JUMP JUMPDEST JUMPDEST PUSH0 PUSH2 0x5F6 DUP9 DUP3 DUP10 ADD PUSH2 0x359 JUMP JUMPDEST SWAP6 POP POP PUSH1 0x20 DUP7 ADD CALLDATALOAD PUSH8 0xFFFFFFFFFFFFFFFF DUP2 GT ISZERO PUSH2 0x617 JUMPI PUSH2 0x616 PUSH2 0x30F JUMP JUMPDEST JUMPDEST PUSH2 0x623 DUP9 DUP3 DUP10 ADD PUSH2 0x47C JUMP JUMPDEST SWAP5 POP POP PUSH1 0x40 PUSH2 0x634 DUP9 DUP3 DUP10 ADD PUSH2 0x4C8 JUMP JUMPDEST SWAP4 POP POP PUSH1 0x60 PUSH2 0x645 DUP9 DUP3 DUP10 ADD PUSH2 0x359 JUMP JUMPDEST SWAP3 POP POP PUSH1 0x80 PUSH2 0x656 DUP9 DUP3 DUP10 ADD PUSH2 0x4C8 JUMP JUMPDEST SWAP2 POP POP SWAP3 SWAP6 POP SWAP3 SWAP6 SWAP1 SWAP4 POP JUMP JUMPDEST PUSH1 0x3 DUP2 LT PUSH2 0x66F JUMPI PUSH0 DUP1 REVERT JUMPDEST POP JUMP JUMPDEST PUSH0 DUP2 CALLDATALOAD SWAP1 POP PUSH2 0x680 DUP2 PUSH2 0x663 JUMP JUMPDEST SWAP3 SWAP2 POP POP JUMP JUMPDEST PUSH0 DUP1 PUSH0 DUP1 PUSH0 DUP1 PUSH1 0xC0 DUP8 DUP10 SUB SLT ISZERO PUSH2 0x6A0 JUMPI PUSH2 0x69F PUSH2 0x30B JUMP JUMPDEST JUMPDEST PUSH0 PUSH2 0x6AD DUP10 DUP3 DUP11 ADD PUSH2 0x359 JUMP JUMPDEST SWAP7 POP POP PUSH1 0x20 DUP8 ADD CALLDATALOAD PUSH8 0xFFFFFFFFFFFFFFFF DUP2 GT ISZERO PUSH2 0x6CE JUMPI PUSH2 0x6CD PUSH2 0x30F JUMP JUMPDEST JUMPDEST PUSH2 0x6DA DUP10 DUP3 DUP11 ADD PUSH2 0x47C JUMP JUMPDEST SWAP6 POP POP PUSH1 0x40 PUSH2 0x6EB DUP10 DUP3 DUP11 ADD PUSH2 0x4C8 JUMP JUMPDEST SWAP5 POP POP PUSH1 0x60 PUSH2 0x6FC DUP10 DUP3 DUP11 ADD PUSH2 0x359 JUMP JUMPDEST SWAP4 POP POP PUSH1 0x80 PUSH2 0x70D DUP10 DUP3 DUP11 ADD PUSH2 0x672 JUMP JUMPDEST SWAP3 POP POP PUSH1 0xA0 PUSH2 0x71E DUP10 DUP3 DUP11 ADD PUSH2 0x4C8 JUMP JUMPDEST SWAP2 POP POP SWAP3 SWAP6 POP SWAP3 SWAP6 POP SWAP3 SWAP6 JUMP JUMPDEST PUSH0 DUP1 PUSH0 DUP1 PUSH0 DUP1 PUSH1 0xC0 DUP8 DUP10 SUB SLT ISZERO PUSH2 0x745 JUMPI PUSH2 0x744 PUSH2 0x30B JUMP JUMPDEST JUMPDEST PUSH0 PUSH2 0x752 DUP10 DUP3 DUP11 ADD PUSH2 0x359 JUMP JUMPDEST SWAP7 POP POP PUSH1 0x20 DUP8 ADD CALLDATALOAD PUSH8 0xFFFFFFFFFFFFFFFF DUP2 GT ISZERO PUSH2 0x773 JUMPI PUSH2 0x772 PUSH2 0x30F JUMP JUMPDEST JUMPDEST PUSH2 0x77F DUP10 DUP3 DUP11 ADD PUSH2 0x47C JUMP JUMPDEST SWAP6 POP POP PUSH1 0x40 PUSH2 0x790 DUP10 DUP3 DUP11 ADD PUSH2 0x4C8 JUMP JUMPDEST SWAP5 POP POP PUSH1 0x60 PUSH2 0x7A1 DUP10 DUP3 DUP11 ADD PUSH2 0x359 JUMP JUMPDEST SWAP4 POP POP PUSH1 0x80 PUSH2 0x7B2 DUP10 DUP3 DUP11 ADD PUSH2 0x4C8 JUMP JUMPDEST SWAP3 POP POP PUSH1 0xA0 PUSH2 0x7C3 DUP10 DUP3 DUP11 ADD PUSH2 0x503 JUMP JUMPDEST SWAP2 POP POP SWAP3 SWAP6 POP SWAP3 SWAP6 POP SWAP3 SWAP6 JUMP JUMPDEST PUSH32 0x4E487B7100000000000000000000000000000000000000000000000000000000 PUSH0 MSTORE PUSH1 0x11 PUSH1 0x4 MSTORE PUSH1 0x24 PUSH0 REVERT JUMPDEST PUSH0 PUSH2 0x807 DUP3 PUSH2 0x4A9 JUMP JUMPDEST SWAP2 POP PUSH0 DUP3 SUB PUSH2 0x819 JUMPI PUSH2 0x818 PUSH2 0x7D0 JUMP JUMPDEST JUMPDEST PUSH1 0x1 DUP3 SUB SWAP1 POP SWAP2 SWAP1 POP JUMP JUMPDEST PUSH32 0x4E487B7100000000000000000000000000000000000000000000000000000000 PUSH0 MSTORE PUSH1 0x21 PUSH1 0x4 MSTORE PUSH1 0x24 PUSH0 REVERT JUMPDEST PUSH0 DUP2 MLOAD SWAP1 POP SWAP2 SWAP1 POP JUMP JUMPDEST PUSH32 0x4E487B7100000000000000000000000000000000000000000000000000000000 PUSH0 MSTORE PUSH1 0x22 PUSH1 0x4 MSTORE PUSH1 0x24 PUSH0 REVERT JUMPDEST PUSH0 PUSH1 0x2 DUP3 DIV SWAP1 POP PUSH1 0x1 DUP3 AND DUP1 PUSH2 0x89F JUMPI PUSH1 0x7F DUP3 AND SWAP2 POP JUMPDEST PUSH1 0x20 DUP3 LT DUP2 SUB PUSH2 0x8B2 JUMPI PUSH2 0x8B1 PUSH2 0x85B JUMP JUMPDEST JUMPDEST POP SWAP2 SWAP1 POP JUMP JUMPDEST PUSH0 DUP2 SWAP1 POP DUP2 PUSH0 MSTORE PUSH1 0x20 PUSH0 KECCAK256 SWAP1 POP SWAP2 SWAP1 POP JUMP JUMPDEST PUSH0 PUSH1 0x20 PUSH1 0x1F DUP4 ADD DIV SWAP1 POP SWAP2 SWAP1 POP JUMP JUMPDEST PUSH0 DUP3 DUP3 SHL SWAP1 POP SWAP3 SWAP2 POP POP JUMP JUMPDEST PUSH0 PUSH1 0x8 DUP4 MUL PUSH2 0x914 PUSH32 0xFFFFFFFFFFFFFFFFFFFFFFFFFFFFFFFFFFFFFFFFFFFFFFFFFFFFFFFFFFFFFFFF DUP3 PUSH2 0x8D9 JUMP JUMPDEST PUSH2 0x91E DUP7 DUP4 PUSH2 0x8D9 JUMP JUMPDEST SWAP6 POP DUP1 NOT DUP5 AND SWAP4 POP DUP1 DUP7 AND DUP5 OR SWAP3 POP POP POP SWAP4 SWAP3 POP POP POP JUMP JUMPDEST PUSH0 DUP2 SWAP1 POP SWAP2 SWAP1 POP JUMP JUMPDEST PUSH0 PUSH2 0x959 PUSH2 0x954 PUSH2 0x94F DUP5 PUSH2 0x4A9 JUMP JUMPDEST PUSH2 0x936 JUMP JUMPDEST PUSH2 0x4A9 JUMP JUMPDEST SWAP1 POP SWAP2 SWAP1 POP JUMP JUMPDEST PUSH0 DUP2 SWAP1 POP SWAP2 SWAP1 POP JUMP JUMPDEST PUSH2 0x972 DUP4 PUSH2 0x93F JUMP JUMPDEST PUSH2 0x986 PUSH2 0x97E DUP3 PUSH2 0x960 JUMP JUMPDEST DUP5 DUP5 SLOAD PUSH2 0x8E5 JUMP JUMPDEST DUP3 SSTORE POP POP POP POP JUMP JUMPDEST PUSH0 SWAP1 JUMP JUMPDEST PUSH2 0x99A PUSH2 0x98E JUMP JUMPDEST PUSH2 0x9A5 DUP2 DUP5 DUP5 PUSH2 0x969 JUMP JUMPDEST POP POP POP JUMP JUMPDEST JUMPDEST DUP2 DUP2 LT ISZERO PUSH2 0x9C8 JUMPI PUSH2 0x9BD PUSH0 DUP3 PUSH2 0x992 JUMP JUMPDEST PUSH1 0x1 DUP2 ADD SWAP1 POP PUSH2 0x9AB JUMP JUMPDEST POP POP JUMP JUMPDEST PUSH1 0x1F DUP3 GT ISZERO PUSH2 0xA0D JUMPI PUSH2 0x9DE DUP2 PUSH2 0x8B8 JUMP JUMPDEST PUSH2 0x9E7 DUP5 PUSH2 0x8CA JUMP JUMPDEST DUP2 ADD PUSH1 0x20 DUP6 LT ISZERO PUSH2 0x9F6 JUMPI DUP2 SWAP1 POP JUMPDEST PUSH2 0xA0A PUSH2 0xA02 DUP6 PUSH2 0x8CA JUMP JUMPDEST DUP4 ADD DUP3 PUSH2 0x9AA JUMP JUMPDEST POP POP JUMPDEST POP POP POP JUMP JUMPDEST PUSH0 DUP3 DUP3 SHR SWAP1 POP SWAP3 SWAP2 POP POP JUMP JUMPDEST PUSH0 PUSH2 0xA2D PUSH0 NOT DUP5 PUSH1 0x8 MUL PUSH2 0xA12 JUMP JUMPDEST NOT DUP1 DUP4 AND SWAP2 POP POP SWAP3 SWAP2 POP POP JUMP JUMPDEST PUSH0 PUSH2 0xA45 DUP4 DUP4 PUSH2 0xA1E JUMP JUMPDEST SWAP2 POP DUP3 PUSH1 0x2 MUL DUP3 OR SWAP1 POP SWAP3 SWAP2 POP POP JUMP JUMPDEST PUSH2 0xA5E DUP3 PUSH2 0x851 JUMP JUMPDEST PUSH8 0xFFFFFFFFFFFFFFFF DUP2 GT ISZERO PUSH2 0xA77 JUMPI PUSH2 0xA76 PUSH2 0x385 JUMP JUMPDEST JUMPDEST PUSH2 0xA81 DUP3 SLOAD PUSH2 0x888 JUMP JUMPDEST PUSH2 0xA8C DUP3 DUP3 DUP6 PUSH2 0x9CC JUMP JUMPDEST PUSH0 PUSH1 0x20 SWAP1 POP PUSH1 0x1F DUP4 GT PUSH1 0x1 DUP2 EQ PUSH2 0xABD JUMPI PUSH0 DUP5 ISZERO PUSH2 0xAAB JUMPI DUP3 DUP8 ADD MLOAD SWAP1 POP JUMPDEST PUSH2 0xAB5 DUP6 DUP3 PUSH2 0xA3A JUMP JUMPDEST DUP7 SSTORE POP PUSH2 0xB1C JUMP JUMPDEST PUSH1 0x1F NOT DUP5 AND PUSH2 0xACB DUP7 PUSH2 0x8B8 JUMP JUMPDEST PUSH0 JUMPDEST DUP3 DUP2 LT ISZERO PUSH2 0xAF2 JUMPI DUP5 DUP10 ADD MLOAD DUP3 SSTORE PUSH1 0x1 DUP3 ADD SWAP2 POP PUSH1 0x20 DUP6 ADD SWAP5 POP PUSH1 0x20 DUP2 ADD SWAP1 POP PUSH2 0xACD JUMP JUMPDEST DUP7 DUP4 LT ISZERO PUSH2 0xB0F JUMPI DUP5 DUP10 ADD MLOAD PUSH2 0xB0B PUSH1 0x1F DUP10 AND DUP3 PUSH2 0xA1E JUMP JUMPDEST DUP4 SSTORE POP JUMPDEST PUSH1 0x1 PUSH1 0x2 DUP9 MUL ADD DUP9 SSTORE POP POP POP JUMPDEST POP POP POP POP POP POP JUMP INVALID LOG2 PUSH5 0x6970667358 0x22 SLT KECCAK256 PC 0x27 0x1E LOG4 0xFC SWAP11 PUSH28 0xE65DA13FEB450E9CB62C2738B6D3345E1AB9C470B06B5D770D64736F PUSH13 0x63430008160033000000000000 "
		},
		"gasEstimates": {
			"creation": {
				"codeDepositCost": "581200",
				"executionCost": "611",
				"totalCost": "581811"
			},
			"external": {
				"additems(address,string,uint256,address,uint8,uint256)": "infinite",
				"completedsuplly(address,string,uint256,address,uint256,address)": "infinite",
				"receivedprod(address,string,uint256,address,uint256,address,uint256)": "infinite",
				"transitprod(address,string,uint256,address,uint256)": "infinite"
			}
		},
		"methodIdentifiers": {
			"additems(address,string,uint256,address,uint8,uint256)": "e379a498",
			"completedsuplly(address,string,uint256,address,uint256,address)": "f94a6dda",
			"receivedprod(address,string,uint256,address,uint256,address,uint256)": "2eb01538",
			"transitprod(address,string,uint256,address,uint256)": "4d61b58c"
		}
	},
	"abi": [
		{
			"anonymous": false,
			"inputs": [
				{
					"indexed": false,
					"internalType": "address",
					"name": "to",
					"type": "address"
				},
				{
					"indexed": false,
					"internalType": "address",
					"name": "from",
					"type": "address"
				},
				{
					"indexed": false,
					"internalType": "uint256",
					"name": "time",
					"type": "uint256"
				},
				{
					"indexed": false,
					"internalType": "string",
					"name": "prd_name",
					"type": "string"
				}
			],
			"name": "completed",
			"type": "event"
		},
		{
			"anonymous": false,
			"inputs": [
				{
					"indexed": false,
					"internalType": "address",
					"name": "to",
					"type": "address"
				},
				{
					"indexed": false,
					"internalType": "address",
					"name": "from",
					"type": "address"
				},
				{
					"indexed": false,
					"internalType": "uint256",
					"name": "time",
					"type": "uint256"
				},
				{
					"indexed": false,
					"internalType": "string",
					"name": "prd_name",
					"type": "string"
				}
			],
			"name": "received",
			"type": "event"
		},
		{
			"anonymous": false,
			"inputs": [
				{
					"indexed": false,
					"internalType": "address",
					"name": "to",
					"type": "address"
				},
				{
					"indexed": false,
					"internalType": "address",
					"name": "from",
					"type": "address"
				},
				{
					"indexed": false,
					"internalType": "uint256",
					"name": "time",
					"type": "uint256"
				},
				{
					"indexed": false,
					"internalType": "string",
					"name": "prd_name",
					"type": "string"
				}
			],
			"name": "trans",
			"type": "event"
		},
		{
			"inputs": [
				{
					"internalType": "address",
					"name": "item_id",
					"type": "address"
				},
				{
					"internalType": "string",
					"name": "_name",
					"type": "string"
				},
				{
					"internalType": "uint256",
					"name": "_Pprice",
					"type": "uint256"
				},
				{
					"internalType": "address",
					"name": "_id",
					"type": "address"
				},
				{
					"internalType": "enum check_state",
					"name": "state",
					"type": "uint8"
				},
				{
					"internalType": "uint256",
					"name": "_qty",
					"type": "uint256"
				}
			],
			"name": "additems",
			"outputs": [],
			"stateMutability": "nonpayable",
			"type": "function"
		},
		{
			"inputs": [
				{
					"internalType": "address",
					"name": "item_id",
					"type": "address"
				},
				{
					"internalType": "string",
					"name": "_name",
					"type": "string"
				},
				{
					"internalType": "uint256",
					"name": "_Pprice",
					"type": "uint256"
				},
				{
					"internalType": "address",
					"name": "_id",
					"type": "address"
				},
				{
					"internalType": "uint256",
					"name": "_qty",
					"type": "uint256"
				},
				{
					"internalType": "address payable",
					"name": "abc",
					"type": "address"
				}
			],
			"name": "completedsuplly",
			"outputs": [],
			"stateMutability": "payable",
			"type": "function"
		},
		{
			"inputs": [
				{
					"internalType": "address",
					"name": "item_id",
					"type": "address"
				},
				{
					"internalType": "string",
					"name": "_name",
					"type": "string"
				},
				{
					"internalType": "uint256",
					"name": "_Pprice",
					"type": "uint256"
				},
				{
					"internalType": "address",
					"name": "_id",
					"type": "address"
				},
				{
					"internalType": "uint256",
					"name": "_qty",
					"type": "uint256"
				},
				{
					"internalType": "address payable",
					"name": "seller",
					"type": "address"
				},
				{
					"internalType": "uint256",
					"name": "amount",
					"type": "uint256"
				}
			],
			"name": "receivedprod",
			"outputs": [],
			"stateMutability": "payable",
			"type": "function"
		},
		{
			"inputs": [
				{
					"internalType": "address",
					"name": "item_id",
					"type": "address"
				},
				{
					"internalType": "string",
					"name": "_name",
					"type": "string"
				},
				{
					"internalType": "uint256",
					"name": "_Pprice",
					"type": "uint256"
				},
				{
					"internalType": "address",
					"name": "_id",
					"type": "address"
				},
				{
					"internalType": "uint256",
					"name": "_qty",
					"type": "uint256"
				}
			],
			"name": "transitprod",
			"outputs": [],
			"stateMutability": "nonpayable",
			"type": "function"
		}
	]
}